{
	"Smart-Contracts/PNJC_Multisig.sol": {
		"PNJCMasterTreasury": {
			"abi": [
				{
					"inputs": [
						{
							"internalType": "address[]",
							"name": "_owners",
							"type": "address[]"
						},
						{
							"internalType": "uint256",
							"name": "_requiredSignatures",
							"type": "uint256"
						}
					],
					"stateMutability": "nonpayable",
					"type": "constructor"
				},
				{
					"inputs": [],
					"name": "ReentrancyGuardReentrantCall",
					"type": "error"
				},
				{
					"anonymous": false,
					"inputs": [
						{
							"indexed": false,
							"internalType": "uint256",
							"name": "newRequiredCount",
							"type": "uint256"
						}
					],
					"name": "RequiredSignaturesUpdated",
					"type": "event"
				},
				{
					"anonymous": false,
					"inputs": [
						{
							"indexed": true,
							"internalType": "uint256",
							"name": "txIndex",
							"type": "uint256"
						},
						{
							"indexed": true,
							"internalType": "address",
							"name": "owner",
							"type": "address"
						}
					],
					"name": "TransactionConfirmed",
					"type": "event"
				},
				{
					"anonymous": false,
					"inputs": [
						{
							"indexed": true,
							"internalType": "uint256",
							"name": "txIndex",
							"type": "uint256"
						},
						{
							"indexed": true,
							"internalType": "address",
							"name": "owner",
							"type": "address"
						}
					],
					"name": "TransactionExecuted",
					"type": "event"
				},
				{
					"anonymous": false,
					"inputs": [
						{
							"indexed": true,
							"internalType": "uint256",
							"name": "txIndex",
							"type": "uint256"
						},
						{
							"indexed": true,
							"internalType": "address",
							"name": "owner",
							"type": "address"
						}
					],
					"name": "TransactionRevoked",
					"type": "event"
				},
				{
					"anonymous": false,
					"inputs": [
						{
							"indexed": true,
							"internalType": "uint256",
							"name": "txIndex",
							"type": "uint256"
						},
						{
							"indexed": true,
							"internalType": "address",
							"name": "owner",
							"type": "address"
						},
						{
							"indexed": true,
							"internalType": "address",
							"name": "to",
							"type": "address"
						},
						{
							"indexed": false,
							"internalType": "uint256",
							"name": "value",
							"type": "uint256"
						},
						{
							"indexed": false,
							"internalType": "bytes",
							"name": "data",
							"type": "bytes"
						}
					],
					"name": "TransactionSubmitted",
					"type": "event"
				},
				{
					"inputs": [
						{
							"internalType": "uint256",
							"name": "_txIndex",
							"type": "uint256"
						}
					],
					"name": "confirmTransaction",
					"outputs": [],
					"stateMutability": "nonpayable",
					"type": "function"
				},
				{
					"inputs": [
						{
							"internalType": "uint256",
							"name": "_txIndex",
							"type": "uint256"
						}
					],
					"name": "executeTransaction",
					"outputs": [],
					"stateMutability": "nonpayable",
					"type": "function"
				},
				{
					"inputs": [],
					"name": "getOwners",
					"outputs": [
						{
							"internalType": "address[]",
							"name": "",
							"type": "address[]"
						}
					],
					"stateMutability": "view",
					"type": "function"
				},
				{
					"inputs": [
						{
							"internalType": "uint256",
							"name": "",
							"type": "uint256"
						},
						{
							"internalType": "address",
							"name": "",
							"type": "address"
						}
					],
					"name": "isConfirmed",
					"outputs": [
						{
							"internalType": "bool",
							"name": "",
							"type": "bool"
						}
					],
					"stateMutability": "view",
					"type": "function"
				},
				{
					"inputs": [
						{
							"internalType": "address",
							"name": "",
							"type": "address"
						}
					],
					"name": "isOwner",
					"outputs": [
						{
							"internalType": "bool",
							"name": "",
							"type": "bool"
						}
					],
					"stateMutability": "view",
					"type": "function"
				},
				{
					"inputs": [
						{
							"internalType": "uint256",
							"name": "",
							"type": "uint256"
						}
					],
					"name": "owners",
					"outputs": [
						{
							"internalType": "address",
							"name": "",
							"type": "address"
						}
					],
					"stateMutability": "view",
					"type": "function"
				},
				{
					"inputs": [],
					"name": "requiredSignatures",
					"outputs": [
						{
							"internalType": "uint256",
							"name": "",
							"type": "uint256"
						}
					],
					"stateMutability": "view",
					"type": "function"
				},
				{
					"inputs": [
						{
							"internalType": "uint256",
							"name": "_txIndex",
							"type": "uint256"
						}
					],
					"name": "revokeConfirmation",
					"outputs": [],
					"stateMutability": "nonpayable",
					"type": "function"
				},
				{
					"inputs": [
						{
							"internalType": "address",
							"name": "_to",
							"type": "address"
						},
						{
							"internalType": "uint256",
							"name": "_value",
							"type": "uint256"
						},
						{
							"internalType": "bytes",
							"name": "_data",
							"type": "bytes"
						}
					],
					"name": "submitTransaction",
					"outputs": [],
					"stateMutability": "nonpayable",
					"type": "function"
				},
				{
					"inputs": [
						{
							"internalType": "uint256",
							"name": "",
							"type": "uint256"
						}
					],
					"name": "transactions",
					"outputs": [
						{
							"internalType": "address",
							"name": "to",
							"type": "address"
						},
						{
							"internalType": "uint256",
							"name": "value",
							"type": "uint256"
						},
						{
							"internalType": "bytes",
							"name": "data",
							"type": "bytes"
						},
						{
							"internalType": "bool",
							"name": "executed",
							"type": "bool"
						},
						{
							"internalType": "uint256",
							"name": "approvalCount",
							"type": "uint256"
						}
					],
					"stateMutability": "view",
					"type": "function"
				},
				{
					"stateMutability": "payable",
					"type": "receive"
				}
			],
			"devdoc": {
				"errors": {
					"ReentrancyGuardReentrantCall()": [
						{
							"details": "Unauthorized reentrant call."
						}
					]
				},
				"events": {
					"TransactionSubmitted(uint256,address,address,uint256,bytes)": {
						"details": "Events are indexed to ensure full traceability on Etherscan/Polygonscan."
					}
				},
				"kind": "dev",
				"methods": {
					"confirmTransaction(uint256)": {
						"details": "Once 'requiredSignatures' is met, the transaction can be executed.",
						"params": {
							"_txIndex": "The unique identifier of the transaction."
						}
					},
					"constructor": {
						"params": {
							"_owners": "Array of initial owner addresses (e.g., 3 hardware wallet addresses).",
							"_requiredSignatures": "Minimum consensus threshold (e.g., 2 for a 2-of-3 setup)."
						}
					},
					"executeTransaction(uint256)": {
						"details": "Uses low-level '.call' to ensure compatibility with Fee Router's gas requirements. Implements Check-Effects-Interactions (CEI) security pattern."
					},
					"revokeConfirmation(uint256)": {
						"params": {
							"_txIndex": "The unique identifier of the transaction."
						}
					},
					"submitTransaction(address,uint256,bytes)": {
						"params": {
							"_data": "The calldata representing the function to be executed.",
							"_to": "The destination address for the transaction.",
							"_value": "The amount of native currency to be sent."
						}
					}
				},
				"version": 1
			},
			"evm": {
				"assembly": "    /* \"Smart-Contracts/PNJC_Multisig.sol\":804:7592  contract PNJCMasterTreasury is ReentrancyGuard {... */\n  mstore(0x40, 0x80)\n    /* \"Smart-Contracts/PNJC_Multisig.sol\":3206:3933  constructor(address[] memory _owners, uint256 _requiredSignatures) {... */\n  callvalue\n  dup1\n  iszero\n  tag_1\n  jumpi\n  revert(0x00, 0x00)\ntag_1:\n  pop\n  mload(0x40)\n  sub(codesize, bytecodeSize)\n  dup1\n  bytecodeSize\n  dup4\n  codecopy\n  dup2\n  add\n  0x40\n  dup2\n  swap1\n  mstore\n  tag_2\n  swap2\n  tag_3\n  jump\t// in\ntag_2:\n    /* \"@openzeppelin/contracts@5.6.0/utils/ReentrancyGuard.sol\":2365:2366  1 */\n  0x01\n    /* \"@openzeppelin/contracts@5.6.0/utils/ReentrancyGuard.sol\":1505:1571  0x9b779b17422d0df92223018b32b4d1fa46e071723d6817e2486d003becc55f00 */\n  0x9b779b17422d0df92223018b32b4d1fa46e071723d6817e2486d003becc55f00\n    /* \"@openzeppelin/contracts@5.6.0/utils/ReentrancyGuard.sol\":2539:2605  _reentrancyGuardStorageSlot().getUint256Slot().value = NOT_ENTERED */\n  sstore\n    /* \"Smart-Contracts/PNJC_Multisig.sol\":3292:3306  _owners.length */\n  dup2\n  mload\n    /* \"Smart-Contracts/PNJC_Multisig.sol\":3284:3357  require(_owners.length > 0, \"PNJC Treasury: Owners list cannot be empty\") */\n  tag_12\n  jumpi\n  mload(0x40)\n  shl(0xe5, 0x461bcd)\n  dup2\n  mstore\n    /* \"#utility.yul\":1789:1791   */\n  0x20\n    /* \"Smart-Contracts/PNJC_Multisig.sol\":3284:3357  require(_owners.length > 0, \"PNJC Treasury: Owners list cannot be empty\") */\n  0x04\n  dup3\n  add\n    /* \"#utility.yul\":1771:1792   */\n  mstore\n    /* \"#utility.yul\":1828:1830   */\n  0x2a\n    /* \"#utility.yul\":1808:1826   */\n  0x24\n  dup3\n  add\n    /* \"#utility.yul\":1801:1831   */\n  mstore\n    /* \"#utility.yul\":1867:1901   */\n  0x504e4a432054726561737572793a204f776e657273206c6973742063616e6e6f\n    /* \"#utility.yul\":1847:1865   */\n  0x44\n  dup3\n  add\n    /* \"#utility.yul\":1840:1902   */\n  mstore\n  shl(0xb0, 0x7420626520656d707479)\n    /* \"#utility.yul\":1918:1936   */\n  0x64\n  dup3\n  add\n    /* \"#utility.yul\":1911:1951   */\n  mstore\n    /* \"#utility.yul\":1968:1987   */\n  0x84\n  add\n    /* \"Smart-Contracts/PNJC_Multisig.sol\":3284:3357  require(_owners.length > 0, \"PNJC Treasury: Owners list cannot be empty\") */\ntag_13:\n  mload(0x40)\n  dup1\n  swap2\n  sub\n  swap1\n  revert\ntag_12:\n    /* \"Smart-Contracts/PNJC_Multisig.sol\":3412:3413  0 */\n  0x00\n    /* \"Smart-Contracts/PNJC_Multisig.sol\":3390:3409  _requiredSignatures */\n  dup2\n    /* \"Smart-Contracts/PNJC_Multisig.sol\":3390:3413  _requiredSignatures > 0 */\n  gt\n    /* \"Smart-Contracts/PNJC_Multisig.sol\":3390:3454  _requiredSignatures > 0 && _requiredSignatures <= _owners.length */\n  dup1\n  iszero\n  tag_15\n  jumpi\n  pop\n    /* \"Smart-Contracts/PNJC_Multisig.sol\":3440:3447  _owners */\n  dup2\n    /* \"Smart-Contracts/PNJC_Multisig.sol\":3440:3454  _owners.length */\n  mload\n    /* \"Smart-Contracts/PNJC_Multisig.sol\":3417:3436  _requiredSignatures */\n  dup2\n    /* \"Smart-Contracts/PNJC_Multisig.sol\":3417:3454  _requiredSignatures <= _owners.length */\n  gt\n  iszero\n    /* \"Smart-Contracts/PNJC_Multisig.sol\":3390:3454  _requiredSignatures > 0 && _requiredSignatures <= _owners.length */\ntag_15:\n    /* \"Smart-Contracts/PNJC_Multisig.sol\":3368:3524  require(... */\n  tag_16\n  jumpi\n  mload(0x40)\n  shl(0xe5, 0x461bcd)\n  dup2\n  mstore\n    /* \"#utility.yul\":2200:2202   */\n  0x20\n    /* \"Smart-Contracts/PNJC_Multisig.sol\":3368:3524  require(... */\n  0x04\n  dup3\n  add\n    /* \"#utility.yul\":2182:2203   */\n  mstore\n    /* \"#utility.yul\":2239:2241   */\n  0x2a\n    /* \"#utility.yul\":2219:2237   */\n  0x24\n  dup3\n  add\n    /* \"#utility.yul\":2212:2242   */\n  mstore\n    /* \"#utility.yul\":2278:2312   */\n  0x504e4a432054726561737572793a20496e76616c6964207369676e6174757265\n    /* \"#utility.yul\":2258:2276   */\n  0x44\n  dup3\n  add\n    /* \"#utility.yul\":2251:2313   */\n  mstore\n  shl(0xb2, 0x081d1a1c995cda1bdb19)\n    /* \"#utility.yul\":2329:2347   */\n  0x64\n  dup3\n  add\n    /* \"#utility.yul\":2322:2362   */\n  mstore\n    /* \"#utility.yul\":2379:2398   */\n  0x84\n  add\n    /* \"Smart-Contracts/PNJC_Multisig.sol\":3368:3524  require(... */\n  tag_13\n    /* \"#utility.yul\":1998:2404   */\n  jump\n    /* \"Smart-Contracts/PNJC_Multisig.sol\":3368:3524  require(... */\ntag_16:\n    /* \"Smart-Contracts/PNJC_Multisig.sol\":3542:3551  uint256 i */\n  0x00\n    /* \"Smart-Contracts/PNJC_Multisig.sol\":3537:3875  for (uint256 i = 0; i < _owners.length; i++) {... */\ntag_19:\n    /* \"Smart-Contracts/PNJC_Multisig.sol\":3561:3568  _owners */\n  dup3\n    /* \"Smart-Contracts/PNJC_Multisig.sol\":3561:3575  _owners.length */\n  mload\n    /* \"Smart-Contracts/PNJC_Multisig.sol\":3557:3558  i */\n  dup2\n    /* \"Smart-Contracts/PNJC_Multisig.sol\":3557:3575  i < _owners.length */\n  lt\n    /* \"Smart-Contracts/PNJC_Multisig.sol\":3537:3875  for (uint256 i = 0; i < _owners.length; i++) {... */\n  iszero\n  tag_20\n  jumpi\n    /* \"Smart-Contracts/PNJC_Multisig.sol\":3597:3610  address owner */\n  0x00\n    /* \"Smart-Contracts/PNJC_Multisig.sol\":3613:3620  _owners */\n  dup4\n    /* \"Smart-Contracts/PNJC_Multisig.sol\":3621:3622  i */\n  dup3\n    /* \"Smart-Contracts/PNJC_Multisig.sol\":3613:3623  _owners[i] */\n  dup2\n  mload\n  dup2\n  lt\n  tag_23\n  jumpi\n  tag_23\n  tag_24\n  jump\t// in\ntag_23:\n  0x20\n  mul\n  0x20\n  add\n  add\n  mload\n    /* \"Smart-Contracts/PNJC_Multisig.sol\":3597:3623  address owner = _owners[i] */\n  swap1\n  pop\n    /* \"Smart-Contracts/PNJC_Multisig.sol\":3663:3664  0 */\n  0x00\n  sub(shl(0xa0, 0x01), 0x01)\n    /* \"Smart-Contracts/PNJC_Multisig.sol\":3646:3665  owner != address(0) */\n  and\n    /* \"Smart-Contracts/PNJC_Multisig.sol\":3646:3651  owner */\n  dup2\n  sub(shl(0xa0, 0x01), 0x01)\n    /* \"Smart-Contracts/PNJC_Multisig.sol\":3646:3665  owner != address(0) */\n  and\n  sub\n    /* \"Smart-Contracts/PNJC_Multisig.sol\":3638:3706  require(owner != address(0), \"PNJC Treasury: Zero address detected\") */\n  tag_25\n  jumpi\n  mload(0x40)\n  shl(0xe5, 0x461bcd)\n  dup2\n  mstore\n    /* \"#utility.yul\":2743:2745   */\n  0x20\n    /* \"Smart-Contracts/PNJC_Multisig.sol\":3638:3706  require(owner != address(0), \"PNJC Treasury: Zero address detected\") */\n  0x04\n  dup3\n  add\n    /* \"#utility.yul\":2725:2746   */\n  mstore\n    /* \"#utility.yul\":2782:2784   */\n  0x24\n    /* \"#utility.yul\":2762:2780   */\n  dup1\n  dup3\n  add\n    /* \"#utility.yul\":2755:2785   */\n  mstore\n    /* \"#utility.yul\":2821:2855   */\n  0x504e4a432054726561737572793a205a65726f20616464726573732064657465\n    /* \"#utility.yul\":2801:2819   */\n  0x44\n  dup3\n  add\n    /* \"#utility.yul\":2794:2856   */\n  mstore\n  shl(0xe2, 0x18dd1959)\n    /* \"#utility.yul\":2872:2890   */\n  0x64\n  dup3\n  add\n    /* \"#utility.yul\":2865:2899   */\n  mstore\n    /* \"#utility.yul\":2916:2935   */\n  0x84\n  add\n    /* \"Smart-Contracts/PNJC_Multisig.sol\":3638:3706  require(owner != address(0), \"PNJC Treasury: Zero address detected\") */\n  tag_13\n    /* \"#utility.yul\":2541:2941   */\n  jump\n    /* \"Smart-Contracts/PNJC_Multisig.sol\":3638:3706  require(owner != address(0), \"PNJC Treasury: Zero address detected\") */\ntag_25:\n  sub(shl(0xa0, 0x01), 0x01)\n    /* \"Smart-Contracts/PNJC_Multisig.sol\":3730:3744  isOwner[owner] */\n  dup2\n  and\n  0x00\n  swap1\n  dup2\n  mstore\n    /* \"Smart-Contracts/PNJC_Multisig.sol\":3730:3737  isOwner */\n  0x01\n    /* \"Smart-Contracts/PNJC_Multisig.sol\":3730:3744  isOwner[owner] */\n  0x20\n  mstore\n  0x40\n  swap1\n  keccak256\n  sload\n  0xff\n  and\n    /* \"Smart-Contracts/PNJC_Multisig.sol\":3729:3744  !isOwner[owner] */\n  iszero\n    /* \"Smart-Contracts/PNJC_Multisig.sol\":3721:3792  require(!isOwner[owner], \"PNJC Treasury: Duplicate owners not allowed\") */\n  tag_28\n  jumpi\n  mload(0x40)\n  shl(0xe5, 0x461bcd)\n  dup2\n  mstore\n    /* \"#utility.yul\":3148:3150   */\n  0x20\n    /* \"Smart-Contracts/PNJC_Multisig.sol\":3721:3792  require(!isOwner[owner], \"PNJC Treasury: Duplicate owners not allowed\") */\n  0x04\n  dup3\n  add\n    /* \"#utility.yul\":3130:3151   */\n  mstore\n    /* \"#utility.yul\":3187:3189   */\n  0x2b\n    /* \"#utility.yul\":3167:3185   */\n  0x24\n  dup3\n  add\n    /* \"#utility.yul\":3160:3190   */\n  mstore\n    /* \"#utility.yul\":3226:3260   */\n  0x504e4a432054726561737572793a204475706c6963617465206f776e65727320\n    /* \"#utility.yul\":3206:3224   */\n  0x44\n  dup3\n  add\n    /* \"#utility.yul\":3199:3261   */\n  mstore\n  shl(0xaa, 0x1b9bdd08185b1b1bddd959)\n    /* \"#utility.yul\":3277:3295   */\n  0x64\n  dup3\n  add\n    /* \"#utility.yul\":3270:3311   */\n  mstore\n    /* \"#utility.yul\":3328:3347   */\n  0x84\n  add\n    /* \"Smart-Contracts/PNJC_Multisig.sol\":3721:3792  require(!isOwner[owner], \"PNJC Treasury: Duplicate owners not allowed\") */\n  tag_13\n    /* \"#utility.yul\":2946:3353   */\n  jump\n    /* \"Smart-Contracts/PNJC_Multisig.sol\":3721:3792  require(!isOwner[owner], \"PNJC Treasury: Duplicate owners not allowed\") */\ntag_28:\n  sub(shl(0xa0, 0x01), 0x01)\n    /* \"Smart-Contracts/PNJC_Multisig.sol\":3809:3823  isOwner[owner] */\n  and\n  0x00\n  dup2\n  dup2\n  mstore\n    /* \"Smart-Contracts/PNJC_Multisig.sol\":3826:3830  true */\n  0x01\n    /* \"Smart-Contracts/PNJC_Multisig.sol\":3809:3823  isOwner[owner] */\n  0x20\n  dup2\n  swap1\n  mstore\n  0x40\n  dup3\n  keccak256\n    /* \"Smart-Contracts/PNJC_Multisig.sol\":3809:3830  isOwner[owner] = true */\n  dup1\n  sload\n  not(0xff)\n  and\n  dup3\n  or\n  swap1\n  sstore\n    /* \"Smart-Contracts/PNJC_Multisig.sol\":3845:3863  owners.push(owner) */\n  dup2\n  sload\n  dup1\n  dup3\n  add\n  dup4\n  sstore\n  swap2\n  dup1\n  mstore\n  0x290decd9548b62a8d60345a988386fc84ba6bc95484008f6362f93160ef3e563\n  swap1\n  swap2\n  add\n  dup1\n  sload\n  not(sub(shl(0xa0, 0x01), 0x01))\n  and\n  swap1\n  swap3\n  or\n  swap1\n  swap2\n  sstore\n    /* \"Smart-Contracts/PNJC_Multisig.sol\":3577:3580  i++ */\n  add\n    /* \"Smart-Contracts/PNJC_Multisig.sol\":3537:3875  for (uint256 i = 0; i < _owners.length; i++) {... */\n  jump(tag_19)\ntag_20:\n  pop\n    /* \"Smart-Contracts/PNJC_Multisig.sol\":3885:3903  requiredSignatures */\n  0x02\n    /* \"Smart-Contracts/PNJC_Multisig.sol\":3885:3925  requiredSignatures = _requiredSignatures */\n  sstore\n  pop\n    /* \"Smart-Contracts/PNJC_Multisig.sol\":804:7592  contract PNJCMasterTreasury is ReentrancyGuard {... */\n  jump(tag_37)\n    /* \"#utility.yul\":14:141   */\ntag_35:\n    /* \"#utility.yul\":75:85   */\n  0x4e487b71\n    /* \"#utility.yul\":70:73   */\n  0xe0\n    /* \"#utility.yul\":66:86   */\n  shl\n    /* \"#utility.yul\":63:64   */\n  0x00\n    /* \"#utility.yul\":56:87   */\n  mstore\n    /* \"#utility.yul\":106:110   */\n  0x41\n    /* \"#utility.yul\":103:104   */\n  0x04\n    /* \"#utility.yul\":96:111   */\n  mstore\n    /* \"#utility.yul\":130:134   */\n  0x24\n    /* \"#utility.yul\":127:128   */\n  0x00\n    /* \"#utility.yul\":120:135   */\n  revert\n    /* \"#utility.yul\":146:323   */\ntag_36:\n    /* \"#utility.yul\":225:238   */\n  dup1\n  mload\n  sub(shl(0xa0, 0x01), 0x01)\n    /* \"#utility.yul\":267:298   */\n  dup2\n  and\n    /* \"#utility.yul\":257:299   */\n  dup2\n  eq\n    /* \"#utility.yul\":247:317   */\n  tag_40\n  jumpi\n    /* \"#utility.yul\":313:314   */\n  0x00\n    /* \"#utility.yul\":310:311   */\n  0x00\n    /* \"#utility.yul\":303:315   */\n  revert\n    /* \"#utility.yul\":247:317   */\ntag_40:\n    /* \"#utility.yul\":146:323   */\n  swap2\n  swap1\n  pop\n  jump\t// out\n    /* \"#utility.yul\":328:1582   */\ntag_3:\n    /* \"#utility.yul\":432:438   */\n  0x00\n    /* \"#utility.yul\":440:446   */\n  0x00\n    /* \"#utility.yul\":493:495   */\n  0x40\n    /* \"#utility.yul\":481:490   */\n  dup4\n    /* \"#utility.yul\":472:479   */\n  dup6\n    /* \"#utility.yul\":468:491   */\n  sub\n    /* \"#utility.yul\":464:496   */\n  slt\n    /* \"#utility.yul\":461:513   */\n  iszero\n  tag_42\n  jumpi\n    /* \"#utility.yul\":509:510   */\n  0x00\n    /* \"#utility.yul\":506:507   */\n  0x00\n    /* \"#utility.yul\":499:511   */\n  revert\n    /* \"#utility.yul\":461:513   */\ntag_42:\n    /* \"#utility.yul\":536:552   */\n  dup3\n  mload\n  sub(shl(0x40, 0x01), 0x01)\n    /* \"#utility.yul\":564:594   */\n  dup2\n  gt\n    /* \"#utility.yul\":561:611   */\n  iszero\n  tag_43\n  jumpi\n    /* \"#utility.yul\":607:608   */\n  0x00\n    /* \"#utility.yul\":604:605   */\n  0x00\n    /* \"#utility.yul\":597:609   */\n  revert\n    /* \"#utility.yul\":561:611   */\ntag_43:\n    /* \"#utility.yul\":630:652   */\n  dup4\n  add\n    /* \"#utility.yul\":683:687   */\n  0x1f\n    /* \"#utility.yul\":675:688   */\n  dup2\n  add\n    /* \"#utility.yul\":671:698   */\n  dup6\n  sgt\n    /* \"#utility.yul\":661:716   */\n  tag_44\n  jumpi\n    /* \"#utility.yul\":712:713   */\n  0x00\n    /* \"#utility.yul\":709:710   */\n  0x00\n    /* \"#utility.yul\":702:714   */\n  revert\n    /* \"#utility.yul\":661:716   */\ntag_44:\n    /* \"#utility.yul\":739:748   */\n  dup1\n  mload\n  sub(shl(0x40, 0x01), 0x01)\n    /* \"#utility.yul\":760:790   */\n  dup2\n  gt\n    /* \"#utility.yul\":757:813   */\n  iszero\n  tag_46\n  jumpi\n    /* \"#utility.yul\":793:811   */\n  tag_46\n  tag_35\n  jump\t// in\ntag_46:\n    /* \"#utility.yul\":875:877   */\n  0x40\n    /* \"#utility.yul\":869:878   */\n  mload\n    /* \"#utility.yul\":836:837   */\n  0x05\n    /* \"#utility.yul\":832:846   */\n  dup3\n  swap1\n  shl\n  swap1\n    /* \"#utility.yul\":929:931   */\n  0x3f\n    /* \"#utility.yul\":921:932   */\n  dup3\n  add\n  not(0x1f)\n    /* \"#utility.yul\":917:942   */\n  and\n    /* \"#utility.yul\":905:943   */\n  dup2\n  add\n  sub(shl(0x40, 0x01), 0x01)\n    /* \"#utility.yul\":958:992   */\n  dup2\n  gt\n    /* \"#utility.yul\":994:1016   */\n  dup3\n  dup3\n  lt\n    /* \"#utility.yul\":955:1017   */\n  or\n    /* \"#utility.yul\":952:1040   */\n  iszero\n  tag_48\n  jumpi\n    /* \"#utility.yul\":1020:1038   */\n  tag_48\n  tag_35\n  jump\t// in\ntag_48:\n    /* \"#utility.yul\":1056:1058   */\n  0x40\n    /* \"#utility.yul\":1049:1071   */\n  mstore\n    /* \"#utility.yul\":1106:1128   */\n  swap2\n  dup3\n  mstore\n    /* \"#utility.yul\":1156:1160   */\n  0x20\n    /* \"#utility.yul\":1188:1199   */\n  dup2\n  dup5\n  add\n    /* \"#utility.yul\":1184:1206   */\n  dup2\n  add\n  swap3\n    /* \"#utility.yul\":1106:1128   */\n  swap1\n    /* \"#utility.yul\":1144:1161   */\n  dup2\n  add\n    /* \"#utility.yul\":1218:1237   */\n  dup9\n  dup5\n  gt\n    /* \"#utility.yul\":1215:1254   */\n  iszero\n  tag_49\n  jumpi\n    /* \"#utility.yul\":1250:1251   */\n  0x00\n    /* \"#utility.yul\":1247:1248   */\n  0x00\n    /* \"#utility.yul\":1240:1252   */\n  revert\n    /* \"#utility.yul\":1215:1254   */\ntag_49:\n    /* \"#utility.yul\":1282:1286   */\n  0x20\n    /* \"#utility.yul\":1278:1280   */\n  dup6\n    /* \"#utility.yul\":1274:1287   */\n  add\n    /* \"#utility.yul\":1263:1287   */\n  swap5\n  pop\n    /* \"#utility.yul\":1296:1459   */\ntag_50:\n    /* \"#utility.yul\":1312:1318   */\n  dup4\n    /* \"#utility.yul\":1307:1310   */\n  dup6\n    /* \"#utility.yul\":1304:1319   */\n  lt\n    /* \"#utility.yul\":1296:1459   */\n  iszero\n  tag_52\n  jumpi\n    /* \"#utility.yul\":1380:1414   */\n  tag_53\n    /* \"#utility.yul\":1410:1413   */\n  dup6\n    /* \"#utility.yul\":1380:1414   */\n  tag_36\n  jump\t// in\ntag_53:\n    /* \"#utility.yul\":1368:1415   */\n  dup2\n  mstore\n    /* \"#utility.yul\":1444:1448   */\n  0x20\n    /* \"#utility.yul\":1329:1343   */\n  swap5\n  dup6\n  add\n  swap5\n    /* \"#utility.yul\":1435:1449   */\n  add\n    /* \"#utility.yul\":1296:1459   */\n  jump(tag_50)\ntag_52:\n  pop\n    /* \"#utility.yul\":1546:1550   */\n  0x20\n    /* \"#utility.yul\":1531:1551   */\n  swap7\n  swap1\n  swap7\n  add\n    /* \"#utility.yul\":1525:1552   */\n  mload\n    /* \"#utility.yul\":1478:1484   */\n  swap6\n  swap8\n    /* \"#utility.yul\":1525:1552   */\n  swap6\n  swap7\n  pop\n  pop\n  pop\n  pop\n  pop\n  pop\n    /* \"#utility.yul\":328:1582   */\n  jump\t// out\n    /* \"#utility.yul\":2409:2536   */\ntag_24:\n    /* \"#utility.yul\":2470:2480   */\n  0x4e487b71\n    /* \"#utility.yul\":2465:2468   */\n  0xe0\n    /* \"#utility.yul\":2461:2481   */\n  shl\n    /* \"#utility.yul\":2458:2459   */\n  0x00\n    /* \"#utility.yul\":2451:2482   */\n  mstore\n    /* \"#utility.yul\":2501:2505   */\n  0x32\n    /* \"#utility.yul\":2498:2499   */\n  0x04\n    /* \"#utility.yul\":2491:2506   */\n  mstore\n    /* \"#utility.yul\":2525:2529   */\n  0x24\n    /* \"#utility.yul\":2522:2523   */\n  0x00\n    /* \"#utility.yul\":2515:2530   */\n  revert\n    /* \"#utility.yul\":2946:3353   */\ntag_37:\n    /* \"Smart-Contracts/PNJC_Multisig.sol\":804:7592  contract PNJCMasterTreasury is ReentrancyGuard {... */\n  dataSize(sub_0)\n  dup1\n  dataOffset(sub_0)\n  0x00\n  codecopy\n  0x00\n  return\nstop\n\nsub_0: assembly {\n        /* \"Smart-Contracts/PNJC_Multisig.sol\":804:7592  contract PNJCMasterTreasury is ReentrancyGuard {... */\n      mstore(0x40, 0x80)\n      jumpi(tag_1, lt(calldatasize, 0x04))\n      shr(0xe0, calldataload(0x00))\n      dup1\n      0x9ace38c2\n      gt\n      tag_13\n      jumpi\n      dup1\n      0x9ace38c2\n      eq\n      tag_8\n      jumpi\n      dup1\n      0xa0e67e2b\n      eq\n      tag_9\n      jumpi\n      dup1\n      0xc01a8c84\n      eq\n      tag_10\n      jumpi\n      dup1\n      0xc6427474\n      eq\n      tag_11\n      jumpi\n      dup1\n      0xee22610b\n      eq\n      tag_12\n      jumpi\n      revert(0x00, 0x00)\n    tag_13:\n      dup1\n      0x025e7c27\n      eq\n      tag_3\n      jumpi\n      dup1\n      0x20ea8d86\n      eq\n      tag_4\n      jumpi\n      dup1\n      0x2f54bf6e\n      eq\n      tag_5\n      jumpi\n      dup1\n      0x80f59a65\n      eq\n      tag_6\n      jumpi\n      dup1\n      0x8d068043\n      eq\n      tag_7\n      jumpi\n      revert(0x00, 0x00)\n    tag_1:\n      jumpi(tag_2, calldatasize)\n      stop\n    tag_2:\n      revert(0x00, 0x00)\n        /* \"Smart-Contracts/PNJC_Multisig.sol\":1502:1525  address[] public owners */\n    tag_3:\n      callvalue\n      dup1\n      iszero\n      tag_16\n      jumpi\n      revert(0x00, 0x00)\n    tag_16:\n      pop\n      tag_17\n      tag_18\n      calldatasize\n      0x04\n      tag_19\n      jump\t// in\n    tag_18:\n      tag_20\n      jump\t// in\n    tag_17:\n      mload(0x40)\n      sub(shl(0xa0, 0x01), 0x01)\n        /* \"#utility.yul\":409:441   */\n      swap1\n      swap2\n      and\n        /* \"#utility.yul\":391:442   */\n      dup2\n      mstore\n        /* \"#utility.yul\":379:381   */\n      0x20\n        /* \"#utility.yul\":364:382   */\n      add\n        /* \"Smart-Contracts/PNJC_Multisig.sol\":1502:1525  address[] public owners */\n    tag_21:\n      mload(0x40)\n      dup1\n      swap2\n      sub\n      swap1\n      return\n        /* \"Smart-Contracts/PNJC_Multisig.sol\":6951:7373  function revokeConfirmation(uint256 _txIndex) ... */\n    tag_4:\n      callvalue\n      dup1\n      iszero\n      tag_23\n      jumpi\n      revert(0x00, 0x00)\n    tag_23:\n      pop\n      tag_24\n      tag_25\n      calldatasize\n      0x04\n      tag_19\n      jump\t// in\n    tag_25:\n      tag_26\n      jump\t// in\n    tag_24:\n      stop\n        /* \"Smart-Contracts/PNJC_Multisig.sol\":1532:1571  mapping(address => bool) public isOwner */\n    tag_5:\n      callvalue\n      dup1\n      iszero\n      tag_27\n      jumpi\n      revert(0x00, 0x00)\n    tag_27:\n      pop\n      tag_28\n      tag_29\n      calldatasize\n      0x04\n      tag_30\n      jump\t// in\n    tag_29:\n      mstore(0x20, 0x01)\n      0x00\n      swap1\n      dup2\n      mstore\n      0x40\n      swap1\n      keccak256\n      sload\n      0xff\n      and\n      dup2\n      jump\n    tag_28:\n      mload(0x40)\n        /* \"#utility.yul\":987:1001   */\n      swap1\n      iszero\n        /* \"#utility.yul\":980:1002   */\n      iszero\n        /* \"#utility.yul\":962:1003   */\n      dup2\n      mstore\n        /* \"#utility.yul\":950:952   */\n      0x20\n        /* \"#utility.yul\":935:953   */\n      add\n        /* \"Smart-Contracts/PNJC_Multisig.sol\":1532:1571  mapping(address => bool) public isOwner */\n      tag_21\n        /* \"#utility.yul\":822:1009   */\n      jump\n        /* \"Smart-Contracts/PNJC_Multisig.sol\":2057:2120  mapping(uint256 => mapping(address => bool)) public isConfirmed */\n    tag_6:\n      callvalue\n      dup1\n      iszero\n      tag_34\n      jumpi\n      revert(0x00, 0x00)\n    tag_34:\n      pop\n      tag_28\n      tag_36\n      calldatasize\n      0x04\n      tag_37\n      jump\t// in\n    tag_36:\n      0x03\n      0x20\n      swap1\n      dup2\n      mstore\n      0x00\n      swap3\n      dup4\n      mstore\n      0x40\n      dup1\n      dup5\n      keccak256\n      swap1\n      swap2\n      mstore\n      swap1\n      dup3\n      mstore\n      swap1\n      keccak256\n      sload\n      0xff\n      and\n      dup2\n      jump\n        /* \"Smart-Contracts/PNJC_Multisig.sol\":1578:1611  uint256 public requiredSignatures */\n    tag_7:\n      callvalue\n      dup1\n      iszero\n      tag_40\n      jumpi\n      revert(0x00, 0x00)\n    tag_40:\n      pop\n      tag_41\n      sload(0x02)\n      dup2\n      jump\n    tag_41:\n      mload(0x40)\n        /* \"#utility.yul\":1465:1490   */\n      swap1\n      dup2\n      mstore\n        /* \"#utility.yul\":1453:1455   */\n      0x20\n        /* \"#utility.yul\":1438:1456   */\n      add\n        /* \"Smart-Contracts/PNJC_Multisig.sol\":1578:1611  uint256 public requiredSignatures */\n      tag_21\n        /* \"#utility.yul\":1319:1496   */\n      jump\n        /* \"Smart-Contracts/PNJC_Multisig.sol\":2127:2160  Transaction[] public transactions */\n    tag_8:\n      callvalue\n      dup1\n      iszero\n      tag_45\n      jumpi\n      revert(0x00, 0x00)\n    tag_45:\n      pop\n      tag_46\n      tag_47\n      calldatasize\n      0x04\n      tag_19\n      jump\t// in\n    tag_47:\n      tag_48\n      jump\t// in\n    tag_46:\n      mload(0x40)\n      tag_21\n      swap6\n      swap5\n      swap4\n      swap3\n      swap2\n      swap1\n      tag_50\n      jump\t// in\n        /* \"Smart-Contracts/PNJC_Multisig.sol\":7495:7589  function getOwners() external view returns (address[] memory) {... */\n    tag_9:\n      callvalue\n      dup1\n      iszero\n      tag_51\n      jumpi\n      revert(0x00, 0x00)\n    tag_51:\n      pop\n      tag_52\n      tag_53\n      jump\t// in\n    tag_52:\n      mload(0x40)\n      tag_21\n      swap2\n      swap1\n      tag_55\n      jump\t// in\n        /* \"Smart-Contracts/PNJC_Multisig.sol\":5164:5789  function confirmTransaction(uint256 _txIndex) ... */\n    tag_10:\n      callvalue\n      dup1\n      iszero\n      tag_56\n      jumpi\n      revert(0x00, 0x00)\n    tag_56:\n      pop\n      tag_24\n      tag_58\n      calldatasize\n      0x04\n      tag_19\n      jump\t// in\n    tag_58:\n      tag_59\n      jump\t// in\n        /* \"Smart-Contracts/PNJC_Multisig.sol\":4375:4925  function submitTransaction(address _to, uint256 _value, bytes memory _data) ... */\n    tag_11:\n      callvalue\n      dup1\n      iszero\n      tag_60\n      jumpi\n      revert(0x00, 0x00)\n    tag_60:\n      pop\n      tag_24\n      tag_62\n      calldatasize\n      0x04\n      tag_63\n      jump\t// in\n    tag_62:\n      tag_64\n      jump\t// in\n        /* \"Smart-Contracts/PNJC_Multisig.sol\":6052:6800  function executeTransaction(uint256 _txIndex) ... */\n    tag_12:\n      callvalue\n      dup1\n      iszero\n      tag_65\n      jumpi\n      revert(0x00, 0x00)\n    tag_65:\n      pop\n      tag_24\n      tag_67\n      calldatasize\n      0x04\n      tag_19\n      jump\t// in\n    tag_67:\n      tag_68\n      jump\t// in\n        /* \"Smart-Contracts/PNJC_Multisig.sol\":1502:1525  address[] public owners */\n    tag_20:\n      0x00\n      dup2\n      dup2\n      sload\n      dup2\n      lt\n      tag_69\n      jumpi\n      0x00\n      dup1\n      revert\n    tag_69:\n      0x00\n      swap2\n      dup3\n      mstore\n      0x20\n      swap1\n      swap2\n      keccak256\n      add\n      sload\n      sub(shl(0xa0, 0x01), 0x01)\n      and\n      swap1\n      pop\n      dup2\n      jump\t// out\n        /* \"Smart-Contracts/PNJC_Multisig.sol\":6951:7373  function revokeConfirmation(uint256 _txIndex) ... */\n    tag_26:\n        /* \"Smart-Contracts/PNJC_Multisig.sol\":2356:2366  msg.sender */\n      caller\n        /* \"Smart-Contracts/PNJC_Multisig.sol\":2348:2367  isOwner[msg.sender] */\n      0x00\n      swap1\n      dup2\n      mstore\n        /* \"Smart-Contracts/PNJC_Multisig.sol\":2348:2355  isOwner */\n      0x01\n        /* \"Smart-Contracts/PNJC_Multisig.sol\":2348:2367  isOwner[msg.sender] */\n      0x20\n      mstore\n      0x40\n      swap1\n      keccak256\n      sload\n      0xff\n      and\n        /* \"Smart-Contracts/PNJC_Multisig.sol\":2340:2400  require(isOwner[msg.sender], \"PNJC Treasury: Access denied\") */\n      tag_72\n      jumpi\n      mload(0x40)\n      shl(0xe5, 0x461bcd)\n      dup2\n      mstore\n      0x04\n      add\n      tag_73\n      swap1\n      tag_74\n      jump\t// in\n    tag_73:\n      mload(0x40)\n      dup1\n      swap2\n      sub\n      swap1\n      revert\n    tag_72:\n        /* \"Smart-Contracts/PNJC_Multisig.sol\":2588:2600  transactions */\n      0x04\n        /* \"Smart-Contracts/PNJC_Multisig.sol\":2588:2607  transactions.length */\n      sload\n        /* \"Smart-Contracts/PNJC_Multisig.sol\":7055:7063  _txIndex */\n      dup2\n      swap1\n        /* \"Smart-Contracts/PNJC_Multisig.sol\":2577:2607  _txIndex < transactions.length */\n      dup2\n      lt\n        /* \"Smart-Contracts/PNJC_Multisig.sol\":2569:2644  require(_txIndex < transactions.length, \"PNJC Treasury: Tx does not exist\") */\n      tag_76\n      jumpi\n      mload(0x40)\n      shl(0xe5, 0x461bcd)\n      dup2\n      mstore\n      0x04\n      add\n      tag_73\n      swap1\n      tag_78\n      jump\t// in\n    tag_76:\n        /* \"Smart-Contracts/PNJC_Multisig.sol\":7087:7095  _txIndex */\n      dup2\n        /* \"Smart-Contracts/PNJC_Multisig.sol\":2829:2841  transactions */\n      0x04\n        /* \"Smart-Contracts/PNJC_Multisig.sol\":2842:2850  _txIndex */\n      dup2\n        /* \"Smart-Contracts/PNJC_Multisig.sol\":2829:2851  transactions[_txIndex] */\n      dup2\n      sload\n      dup2\n      lt\n      tag_81\n      jumpi\n      tag_81\n      tag_82\n      jump\t// in\n    tag_81:\n      0x00\n      swap2\n      dup3\n      mstore\n      0x20\n      swap1\n      swap2\n      keccak256\n        /* \"Smart-Contracts/PNJC_Multisig.sol\":2829:2860  transactions[_txIndex].executed */\n      0x03\n        /* \"Smart-Contracts/PNJC_Multisig.sol\":2829:2851  transactions[_txIndex] */\n      0x05\n      swap1\n      swap3\n      mul\n      add\n        /* \"Smart-Contracts/PNJC_Multisig.sol\":2829:2860  transactions[_txIndex].executed */\n      add\n      sload\n      0xff\n      and\n        /* \"Smart-Contracts/PNJC_Multisig.sol\":2828:2860  !transactions[_txIndex].executed */\n      iszero\n        /* \"Smart-Contracts/PNJC_Multisig.sol\":2820:2900  require(!transactions[_txIndex].executed, \"PNJC Treasury: Tx already processed\") */\n      tag_84\n      jumpi\n      mload(0x40)\n      shl(0xe5, 0x461bcd)\n      dup2\n      mstore\n      0x04\n      add\n      tag_73\n      swap1\n      tag_86\n      jump\t// in\n    tag_84:\n        /* \"Smart-Contracts/PNJC_Multisig.sol\":7122:7143  isConfirmed[_txIndex] */\n      0x00\n      dup4\n      dup2\n      mstore\n        /* \"Smart-Contracts/PNJC_Multisig.sol\":7122:7133  isConfirmed */\n      0x03\n        /* \"Smart-Contracts/PNJC_Multisig.sol\":7122:7143  isConfirmed[_txIndex] */\n      0x20\n      swap1\n      dup2\n      mstore\n      0x40\n      dup1\n      dup4\n      keccak256\n        /* \"Smart-Contracts/PNJC_Multisig.sol\":7144:7154  msg.sender */\n      caller\n        /* \"Smart-Contracts/PNJC_Multisig.sol\":7122:7155  isConfirmed[_txIndex][msg.sender] */\n      dup5\n      mstore\n      swap1\n      swap2\n      mstore\n      swap1\n      keccak256\n      sload\n      0xff\n      and\n        /* \"Smart-Contracts/PNJC_Multisig.sol\":7114:7201  require(isConfirmed[_txIndex][msg.sender], \"PNJC Treasury: Tx not confirmed by caller\") */\n      tag_88\n      jumpi\n      mload(0x40)\n      shl(0xe5, 0x461bcd)\n      dup2\n      mstore\n        /* \"#utility.yul\":5706:5708   */\n      0x20\n        /* \"Smart-Contracts/PNJC_Multisig.sol\":7114:7201  require(isConfirmed[_txIndex][msg.sender], \"PNJC Treasury: Tx not confirmed by caller\") */\n      0x04\n      dup3\n      add\n        /* \"#utility.yul\":5688:5709   */\n      mstore\n        /* \"#utility.yul\":5745:5747   */\n      0x29\n        /* \"#utility.yul\":5725:5743   */\n      0x24\n      dup3\n      add\n        /* \"#utility.yul\":5718:5748   */\n      mstore\n        /* \"#utility.yul\":5784:5818   */\n      0x504e4a432054726561737572793a205478206e6f7420636f6e6669726d656420\n        /* \"#utility.yul\":5764:5782   */\n      0x44\n      dup3\n      add\n        /* \"#utility.yul\":5757:5819   */\n      mstore\n      shl(0xb9, 0x313c9031b0b63632b9)\n        /* \"#utility.yul\":5835:5853   */\n      0x64\n      dup3\n      add\n        /* \"#utility.yul\":5828:5867   */\n      mstore\n        /* \"#utility.yul\":5884:5903   */\n      0x84\n      add\n        /* \"Smart-Contracts/PNJC_Multisig.sol\":7114:7201  require(isConfirmed[_txIndex][msg.sender], \"PNJC Treasury: Tx not confirmed by caller\") */\n      tag_73\n        /* \"#utility.yul\":5504:5909   */\n      jump\n        /* \"Smart-Contracts/PNJC_Multisig.sol\":7114:7201  require(isConfirmed[_txIndex][msg.sender], \"PNJC Treasury: Tx not confirmed by caller\") */\n    tag_88:\n        /* \"Smart-Contracts/PNJC_Multisig.sol\":7254:7255  1 */\n      0x01\n        /* \"Smart-Contracts/PNJC_Multisig.sol\":7214:7226  transactions */\n      0x04\n        /* \"Smart-Contracts/PNJC_Multisig.sol\":7227:7235  _txIndex */\n      dup5\n        /* \"Smart-Contracts/PNJC_Multisig.sol\":7214:7236  transactions[_txIndex] */\n      dup2\n      sload\n      dup2\n      lt\n      tag_92\n      jumpi\n      tag_92\n      tag_82\n      jump\t// in\n    tag_92:\n      swap1\n      0x00\n      mstore\n      keccak256(0x00, 0x20)\n      swap1\n      0x05\n      mul\n      add\n        /* \"Smart-Contracts/PNJC_Multisig.sol\":7214:7250  transactions[_txIndex].approvalCount */\n      0x04\n      add\n      0x00\n        /* \"Smart-Contracts/PNJC_Multisig.sol\":7214:7255  transactions[_txIndex].approvalCount -= 1 */\n      dup3\n      dup3\n      sload\n      tag_94\n      swap2\n      swap1\n      tag_95\n      jump\t// in\n    tag_94:\n      swap1\n      swap2\n      sstore\n      pop\n      pop\n        /* \"Smart-Contracts/PNJC_Multisig.sol\":7302:7307  false */\n      0x00\n        /* \"Smart-Contracts/PNJC_Multisig.sol\":7266:7287  isConfirmed[_txIndex] */\n      dup4\n      dup2\n      mstore\n        /* \"Smart-Contracts/PNJC_Multisig.sol\":7266:7277  isConfirmed */\n      0x03\n        /* \"Smart-Contracts/PNJC_Multisig.sol\":7266:7287  isConfirmed[_txIndex] */\n      0x20\n      swap1\n      dup2\n      mstore\n      0x40\n      dup1\n      dup4\n      keccak256\n        /* \"Smart-Contracts/PNJC_Multisig.sol\":7288:7298  msg.sender */\n      caller\n        /* \"Smart-Contracts/PNJC_Multisig.sol\":7266:7299  isConfirmed[_txIndex][msg.sender] */\n      dup1\n      dup6\n      mstore\n      swap3\n      mstore\n      dup1\n      dup4\n      keccak256\n        /* \"Smart-Contracts/PNJC_Multisig.sol\":7266:7307  isConfirmed[_txIndex][msg.sender] = false */\n      dup1\n      sload\n      not(0xff)\n      and\n      swap1\n      sstore\n        /* \"Smart-Contracts/PNJC_Multisig.sol\":7325:7365  TransactionRevoked(_txIndex, msg.sender) */\n      mload\n        /* \"Smart-Contracts/PNJC_Multisig.sol\":7288:7298  msg.sender */\n      swap1\n      swap2\n        /* \"Smart-Contracts/PNJC_Multisig.sol\":7278:7286  _txIndex */\n      dup6\n      swap2\n        /* \"Smart-Contracts/PNJC_Multisig.sol\":7325:7365  TransactionRevoked(_txIndex, msg.sender) */\n      0x4cd471041f6b9ff47536a54a3d3ab62d0fa9dd5e36c0418b294b1673acb31881\n      swap2\n        /* \"Smart-Contracts/PNJC_Multisig.sol\":7302:7307  false */\n      swap1\n        /* \"Smart-Contracts/PNJC_Multisig.sol\":7325:7365  TransactionRevoked(_txIndex, msg.sender) */\n      log3\n        /* \"Smart-Contracts/PNJC_Multisig.sol\":2655:2656  _ */\n      pop\n        /* \"Smart-Contracts/PNJC_Multisig.sol\":2411:2412  _ */\n      pop\n        /* \"Smart-Contracts/PNJC_Multisig.sol\":6951:7373  function revokeConfirmation(uint256 _txIndex) ... */\n      pop\n      jump\t// out\n        /* \"Smart-Contracts/PNJC_Multisig.sol\":2127:2160  Transaction[] public transactions */\n    tag_48:\n      0x04\n      dup2\n      dup2\n      sload\n      dup2\n      lt\n      tag_96\n      jumpi\n      0x00\n      dup1\n      revert\n    tag_96:\n      0x00\n      swap2\n      dup3\n      mstore\n      0x20\n      swap1\n      swap2\n      keccak256\n      0x05\n      swap1\n      swap2\n      mul\n      add\n      dup1\n      sload\n      0x01\n      dup3\n      add\n      sload\n      0x02\n      dup4\n      add\n      dup1\n      sload\n      sub(shl(0xa0, 0x01), 0x01)\n      swap1\n      swap4\n      and\n      swap5\n      pop\n      swap1\n      swap3\n      swap2\n      tag_98\n      swap1\n      tag_99\n      jump\t// in\n    tag_98:\n      dup1\n      0x1f\n      add\n      0x20\n      dup1\n      swap2\n      div\n      mul\n      0x20\n      add\n      mload(0x40)\n      swap1\n      dup2\n      add\n      0x40\n      mstore\n      dup1\n      swap3\n      swap2\n      swap1\n      dup2\n      dup2\n      mstore\n      0x20\n      add\n      dup3\n      dup1\n      sload\n      tag_100\n      swap1\n      tag_99\n      jump\t// in\n    tag_100:\n      dup1\n      iszero\n      tag_101\n      jumpi\n      dup1\n      0x1f\n      lt\n      tag_102\n      jumpi\n      0x0100\n      dup1\n      dup4\n      sload\n      div\n      mul\n      dup4\n      mstore\n      swap2\n      0x20\n      add\n      swap2\n      jump(tag_101)\n    tag_102:\n      dup3\n      add\n      swap2\n      swap1\n      0x00\n      mstore\n      keccak256(0x00, 0x20)\n      swap1\n    tag_103:\n      dup2\n      sload\n      dup2\n      mstore\n      swap1\n      0x01\n      add\n      swap1\n      0x20\n      add\n      dup1\n      dup4\n      gt\n      tag_103\n      jumpi\n      dup3\n      swap1\n      sub\n      0x1f\n      and\n      dup3\n      add\n      swap2\n    tag_101:\n      pop\n      pop\n      pop\n      pop\n      0x03\n      dup4\n      add\n      sload\n      0x04\n      swap1\n      swap4\n      add\n      sload\n      swap2\n      swap3\n      0xff\n      and\n      swap2\n      swap1\n      pop\n      dup6\n      jump\t// out\n        /* \"Smart-Contracts/PNJC_Multisig.sol\":7495:7589  function getOwners() external view returns (address[] memory) {... */\n    tag_53:\n        /* \"Smart-Contracts/PNJC_Multisig.sol\":7539:7555  address[] memory */\n      0x60\n        /* \"Smart-Contracts/PNJC_Multisig.sol\":7575:7581  owners */\n      0x00\n        /* \"Smart-Contracts/PNJC_Multisig.sol\":7568:7581  return owners */\n      dup1\n      sload\n      dup1\n      0x20\n      mul\n      0x20\n      add\n      mload(0x40)\n      swap1\n      dup2\n      add\n      0x40\n      mstore\n      dup1\n      swap3\n      swap2\n      swap1\n      dup2\n      dup2\n      mstore\n      0x20\n      add\n      dup3\n      dup1\n      sload\n      dup1\n      iszero\n      tag_105\n      jumpi\n      0x20\n      mul\n      dup3\n      add\n      swap2\n      swap1\n      0x00\n      mstore\n      keccak256(0x00, 0x20)\n      swap1\n    tag_106:\n      dup2\n      sload\n      sub(shl(0xa0, 0x01), 0x01)\n      and\n      dup2\n      mstore\n      0x01\n      swap1\n      swap2\n      add\n      swap1\n      0x20\n      add\n      dup1\n      dup4\n      gt\n      tag_106\n      jumpi\n    tag_105:\n      pop\n      pop\n      pop\n      pop\n      pop\n      swap1\n      pop\n        /* \"Smart-Contracts/PNJC_Multisig.sol\":7495:7589  function getOwners() external view returns (address[] memory) {... */\n      swap1\n      jump\t// out\n        /* \"Smart-Contracts/PNJC_Multisig.sol\":5164:5789  function confirmTransaction(uint256 _txIndex) ... */\n    tag_59:\n        /* \"Smart-Contracts/PNJC_Multisig.sol\":2356:2366  msg.sender */\n      caller\n        /* \"Smart-Contracts/PNJC_Multisig.sol\":2348:2367  isOwner[msg.sender] */\n      0x00\n      swap1\n      dup2\n      mstore\n        /* \"Smart-Contracts/PNJC_Multisig.sol\":2348:2355  isOwner */\n      0x01\n        /* \"Smart-Contracts/PNJC_Multisig.sol\":2348:2367  isOwner[msg.sender] */\n      0x20\n      mstore\n      0x40\n      swap1\n      keccak256\n      sload\n      0xff\n      and\n        /* \"Smart-Contracts/PNJC_Multisig.sol\":2340:2400  require(isOwner[msg.sender], \"PNJC Treasury: Access denied\") */\n      tag_108\n      jumpi\n      mload(0x40)\n      shl(0xe5, 0x461bcd)\n      dup2\n      mstore\n      0x04\n      add\n      tag_73\n      swap1\n      tag_74\n      jump\t// in\n    tag_108:\n        /* \"Smart-Contracts/PNJC_Multisig.sol\":2588:2600  transactions */\n      0x04\n        /* \"Smart-Contracts/PNJC_Multisig.sol\":2588:2607  transactions.length */\n      sload\n        /* \"Smart-Contracts/PNJC_Multisig.sol\":5266:5274  _txIndex */\n      dup2\n      swap1\n        /* \"Smart-Contracts/PNJC_Multisig.sol\":2577:2607  _txIndex < transactions.length */\n      dup2\n      lt\n        /* \"Smart-Contracts/PNJC_Multisig.sol\":2569:2644  require(_txIndex < transactions.length, \"PNJC Treasury: Tx does not exist\") */\n      tag_111\n      jumpi\n      mload(0x40)\n      shl(0xe5, 0x461bcd)\n      dup2\n      mstore\n      0x04\n      add\n      tag_73\n      swap1\n      tag_78\n      jump\t// in\n    tag_111:\n        /* \"Smart-Contracts/PNJC_Multisig.sol\":5298:5306  _txIndex */\n      dup2\n        /* \"Smart-Contracts/PNJC_Multisig.sol\":2829:2841  transactions */\n      0x04\n        /* \"Smart-Contracts/PNJC_Multisig.sol\":2842:2850  _txIndex */\n      dup2\n        /* \"Smart-Contracts/PNJC_Multisig.sol\":2829:2851  transactions[_txIndex] */\n      dup2\n      sload\n      dup2\n      lt\n      tag_115\n      jumpi\n      tag_115\n      tag_82\n      jump\t// in\n    tag_115:\n      0x00\n      swap2\n      dup3\n      mstore\n      0x20\n      swap1\n      swap2\n      keccak256\n        /* \"Smart-Contracts/PNJC_Multisig.sol\":2829:2860  transactions[_txIndex].executed */\n      0x03\n        /* \"Smart-Contracts/PNJC_Multisig.sol\":2829:2851  transactions[_txIndex] */\n      0x05\n      swap1\n      swap3\n      mul\n      add\n        /* \"Smart-Contracts/PNJC_Multisig.sol\":2829:2860  transactions[_txIndex].executed */\n      add\n      sload\n      0xff\n      and\n        /* \"Smart-Contracts/PNJC_Multisig.sol\":2828:2860  !transactions[_txIndex].executed */\n      iszero\n        /* \"Smart-Contracts/PNJC_Multisig.sol\":2820:2900  require(!transactions[_txIndex].executed, \"PNJC Treasury: Tx already processed\") */\n      tag_117\n      jumpi\n      mload(0x40)\n      shl(0xe5, 0x461bcd)\n      dup2\n      mstore\n      0x04\n      add\n      tag_73\n      swap1\n      tag_86\n      jump\t// in\n    tag_117:\n        /* \"Smart-Contracts/PNJC_Multisig.sol\":5334:5355  isConfirmed[_txIndex] */\n      0x00\n      dup4\n      dup2\n      mstore\n        /* \"Smart-Contracts/PNJC_Multisig.sol\":5334:5345  isConfirmed */\n      0x03\n        /* \"Smart-Contracts/PNJC_Multisig.sol\":5334:5355  isConfirmed[_txIndex] */\n      0x20\n      swap1\n      dup2\n      mstore\n      0x40\n      dup1\n      dup4\n      keccak256\n        /* \"Smart-Contracts/PNJC_Multisig.sol\":5356:5366  msg.sender */\n      caller\n        /* \"Smart-Contracts/PNJC_Multisig.sol\":5334:5367  isConfirmed[_txIndex][msg.sender] */\n      dup5\n      mstore\n      swap1\n      swap2\n      mstore\n      swap1\n      keccak256\n      sload\n      0xff\n      and\n        /* \"Smart-Contracts/PNJC_Multisig.sol\":5333:5367  !isConfirmed[_txIndex][msg.sender] */\n      iszero\n        /* \"Smart-Contracts/PNJC_Multisig.sol\":5325:5414  require(!isConfirmed[_txIndex][msg.sender], \"PNJC Treasury: Already confirmed by caller\") */\n      tag_120\n      jumpi\n      mload(0x40)\n      shl(0xe5, 0x461bcd)\n      dup2\n      mstore\n        /* \"#utility.yul\":6766:6768   */\n      0x20\n        /* \"Smart-Contracts/PNJC_Multisig.sol\":5325:5414  require(!isConfirmed[_txIndex][msg.sender], \"PNJC Treasury: Already confirmed by caller\") */\n      0x04\n      dup3\n      add\n        /* \"#utility.yul\":6748:6769   */\n      mstore\n        /* \"#utility.yul\":6805:6807   */\n      0x2a\n        /* \"#utility.yul\":6785:6803   */\n      0x24\n      dup3\n      add\n        /* \"#utility.yul\":6778:6808   */\n      mstore\n        /* \"#utility.yul\":6844:6878   */\n      0x504e4a432054726561737572793a20416c726561647920636f6e6669726d6564\n        /* \"#utility.yul\":6824:6842   */\n      0x44\n      dup3\n      add\n        /* \"#utility.yul\":6817:6879   */\n      mstore\n      shl(0xb1, 0x10313c9031b0b63632b9)\n        /* \"#utility.yul\":6895:6913   */\n      0x64\n      dup3\n      add\n        /* \"#utility.yul\":6888:6928   */\n      mstore\n        /* \"#utility.yul\":6945:6964   */\n      0x84\n      add\n        /* \"Smart-Contracts/PNJC_Multisig.sol\":5325:5414  require(!isConfirmed[_txIndex][msg.sender], \"PNJC Treasury: Already confirmed by caller\") */\n      tag_73\n        /* \"#utility.yul\":6564:6970   */\n      jump\n        /* \"Smart-Contracts/PNJC_Multisig.sol\":5325:5414  require(!isConfirmed[_txIndex][msg.sender], \"PNJC Treasury: Already confirmed by caller\") */\n    tag_120:\n        /* \"Smart-Contracts/PNJC_Multisig.sol\":5475:5476  1 */\n      0x01\n        /* \"Smart-Contracts/PNJC_Multisig.sol\":5435:5447  transactions */\n      0x04\n        /* \"Smart-Contracts/PNJC_Multisig.sol\":5448:5456  _txIndex */\n      dup5\n        /* \"Smart-Contracts/PNJC_Multisig.sol\":5435:5457  transactions[_txIndex] */\n      dup2\n      sload\n      dup2\n      lt\n      tag_124\n      jumpi\n      tag_124\n      tag_82\n      jump\t// in\n    tag_124:\n      swap1\n      0x00\n      mstore\n      keccak256(0x00, 0x20)\n      swap1\n      0x05\n      mul\n      add\n        /* \"Smart-Contracts/PNJC_Multisig.sol\":5435:5471  transactions[_txIndex].approvalCount */\n      0x04\n      add\n      0x00\n        /* \"Smart-Contracts/PNJC_Multisig.sol\":5435:5476  transactions[_txIndex].approvalCount += 1 */\n      dup3\n      dup3\n      sload\n      tag_126\n      swap2\n      swap1\n      tag_127\n      jump\t// in\n    tag_126:\n      swap1\n      swap2\n      sstore\n      pop\n      pop\n        /* \"Smart-Contracts/PNJC_Multisig.sol\":5487:5508  isConfirmed[_txIndex] */\n      0x00\n      dup4\n      dup2\n      mstore\n        /* \"Smart-Contracts/PNJC_Multisig.sol\":5487:5498  isConfirmed */\n      0x03\n        /* \"Smart-Contracts/PNJC_Multisig.sol\":5487:5508  isConfirmed[_txIndex] */\n      0x20\n      swap1\n      dup2\n      mstore\n      0x40\n      dup1\n      dup4\n      keccak256\n        /* \"Smart-Contracts/PNJC_Multisig.sol\":5509:5519  msg.sender */\n      caller\n        /* \"Smart-Contracts/PNJC_Multisig.sol\":5487:5520  isConfirmed[_txIndex][msg.sender] */\n      dup1\n      dup6\n      mstore\n      swap3\n      mstore\n      dup1\n      dup4\n      keccak256\n        /* \"Smart-Contracts/PNJC_Multisig.sol\":5487:5527  isConfirmed[_txIndex][msg.sender] = true */\n      dup1\n      sload\n      not(0xff)\n      and\n        /* \"Smart-Contracts/PNJC_Multisig.sol\":5523:5527  true */\n      0x01\n        /* \"Smart-Contracts/PNJC_Multisig.sol\":5487:5527  isConfirmed[_txIndex][msg.sender] = true */\n      or\n      swap1\n      sstore\n        /* \"Smart-Contracts/PNJC_Multisig.sol\":5545:5587  TransactionConfirmed(_txIndex, msg.sender) */\n      mload\n        /* \"Smart-Contracts/PNJC_Multisig.sol\":5509:5519  msg.sender */\n      swap1\n      swap2\n        /* \"Smart-Contracts/PNJC_Multisig.sol\":5499:5507  _txIndex */\n      dup6\n      swap2\n        /* \"Smart-Contracts/PNJC_Multisig.sol\":5545:5587  TransactionConfirmed(_txIndex, msg.sender) */\n      0x15c2f311c9e0f53b50388279894aeff029a3457884a6601e924fca879e12adcc\n      swap2\n        /* \"Smart-Contracts/PNJC_Multisig.sol\":5487:5508  isConfirmed[_txIndex] */\n      swap1\n        /* \"Smart-Contracts/PNJC_Multisig.sol\":5545:5587  TransactionConfirmed(_txIndex, msg.sender) */\n      log3\n        /* \"Smart-Contracts/PNJC_Multisig.sol\":5707:5725  requiredSignatures */\n      sload(0x02)\n        /* \"Smart-Contracts/PNJC_Multisig.sol\":5667:5679  transactions */\n      0x04\n        /* \"Smart-Contracts/PNJC_Multisig.sol\":5680:5688  _txIndex */\n      dup5\n        /* \"Smart-Contracts/PNJC_Multisig.sol\":5667:5689  transactions[_txIndex] */\n      dup2\n      sload\n      dup2\n      lt\n      tag_129\n      jumpi\n      tag_129\n      tag_82\n      jump\t// in\n    tag_129:\n      swap1\n      0x00\n      mstore\n      keccak256(0x00, 0x20)\n      swap1\n      0x05\n      mul\n      add\n        /* \"Smart-Contracts/PNJC_Multisig.sol\":5667:5703  transactions[_txIndex].approvalCount */\n      0x04\n      add\n      sload\n        /* \"Smart-Contracts/PNJC_Multisig.sol\":5667:5725  transactions[_txIndex].approvalCount >= requiredSignatures */\n      lt\n        /* \"Smart-Contracts/PNJC_Multisig.sol\":5663:5782  if (transactions[_txIndex].approvalCount >= requiredSignatures) {... */\n      tag_132\n      jumpi\n        /* \"Smart-Contracts/PNJC_Multisig.sol\":5742:5770  executeTransaction(_txIndex) */\n      tag_132\n        /* \"Smart-Contracts/PNJC_Multisig.sol\":5761:5769  _txIndex */\n      dup4\n        /* \"Smart-Contracts/PNJC_Multisig.sol\":5742:5760  executeTransaction */\n      tag_68\n        /* \"Smart-Contracts/PNJC_Multisig.sol\":5742:5770  executeTransaction(_txIndex) */\n      jump\t// in\n    tag_132:\n        /* \"Smart-Contracts/PNJC_Multisig.sol\":2655:2656  _ */\n      pop\n        /* \"Smart-Contracts/PNJC_Multisig.sol\":2411:2412  _ */\n      pop\n        /* \"Smart-Contracts/PNJC_Multisig.sol\":5164:5789  function confirmTransaction(uint256 _txIndex) ... */\n      pop\n      jump\t// out\n        /* \"Smart-Contracts/PNJC_Multisig.sol\":4375:4925  function submitTransaction(address _to, uint256 _value, bytes memory _data) ... */\n    tag_64:\n        /* \"Smart-Contracts/PNJC_Multisig.sol\":2356:2366  msg.sender */\n      caller\n        /* \"Smart-Contracts/PNJC_Multisig.sol\":2348:2367  isOwner[msg.sender] */\n      0x00\n      swap1\n      dup2\n      mstore\n        /* \"Smart-Contracts/PNJC_Multisig.sol\":2348:2355  isOwner */\n      0x01\n        /* \"Smart-Contracts/PNJC_Multisig.sol\":2348:2367  isOwner[msg.sender] */\n      0x20\n      mstore\n      0x40\n      swap1\n      keccak256\n      sload\n      0xff\n      and\n        /* \"Smart-Contracts/PNJC_Multisig.sol\":2340:2400  require(isOwner[msg.sender], \"PNJC Treasury: Access denied\") */\n      tag_134\n      jumpi\n      mload(0x40)\n      shl(0xe5, 0x461bcd)\n      dup2\n      mstore\n      0x04\n      add\n      tag_73\n      swap1\n      tag_74\n      jump\t// in\n    tag_134:\n        /* \"Smart-Contracts/PNJC_Multisig.sol\":4525:4537  transactions */\n      0x04\n        /* \"Smart-Contracts/PNJC_Multisig.sol\":4525:4544  transactions.length */\n      dup1\n      sload\n        /* \"Smart-Contracts/PNJC_Multisig.sol\":4573:4734  Transaction({... */\n      0x40\n      dup1\n      mload\n      0xa0\n      dup2\n      add\n      dup3\n      mstore\n      sub(shl(0xa0, 0x01), 0x01)\n      dup8\n      dup2\n      and\n      dup3\n      mstore\n      0x20\n      dup3\n      add\n      dup8\n      dup2\n      mstore\n      swap3\n      dup3\n      add\n      dup7\n      dup2\n      mstore\n      0x00\n      0x60\n      dup5\n      add\n      dup2\n      swap1\n      mstore\n      0x80\n      dup5\n      add\n      dup2\n      swap1\n      mstore\n      0x01\n        /* \"Smart-Contracts/PNJC_Multisig.sol\":4555:4735  transactions.push(Transaction({... */\n      dup7\n      add\n      dup8\n      sstore\n      swap6\n      swap1\n      swap6\n      mstore\n      dup2\n      mload\n      0x8a35acfbc15ff81a39ae7d344fd709f28e8600b4aa8c65c6b64bfe7fe36bd19b\n      0x05\n      dup7\n      mul\n      swap1\n      dup2\n      add\n      dup1\n      sload\n      not(sub(shl(0xa0, 0x01), 0x01))\n      and\n      swap3\n      swap1\n      swap4\n      and\n      swap2\n      swap1\n      swap2\n      or\n      dup3\n      sstore\n      swap3\n      mload\n      0x8a35acfbc15ff81a39ae7d344fd709f28e8600b4aa8c65c6b64bfe7fe36bd19c\n      dup5\n      add\n      sstore\n      swap4\n      mload\n        /* \"Smart-Contracts/PNJC_Multisig.sol\":4525:4544  transactions.length */\n      swap3\n      swap4\n        /* \"Smart-Contracts/PNJC_Multisig.sol\":4573:4734  Transaction({... */\n      swap1\n      swap3\n        /* \"Smart-Contracts/PNJC_Multisig.sol\":4555:4735  transactions.push(Transaction({... */\n      swap1\n      swap2\n      0x8a35acfbc15ff81a39ae7d344fd709f28e8600b4aa8c65c6b64bfe7fe36bd19d\n      add\n      swap1\n      tag_138\n      swap1\n      dup3\n      tag_139\n      jump\t// in\n    tag_138:\n      pop\n      0x60\n      dup3\n      add\n      mload\n      0x03\n      dup3\n      add\n      dup1\n      sload\n      not(0xff)\n      and\n      swap2\n      iszero\n      iszero\n      swap2\n      swap1\n      swap2\n      or\n      swap1\n      sstore\n      0x80\n      swap1\n      swap2\n      add\n      mload\n      0x04\n      swap1\n      swap2\n      add\n      sstore\n        /* \"Smart-Contracts/PNJC_Multisig.sol\":4753:4814  TransactionSubmitted(txIndex, msg.sender, _to, _value, _data) */\n      mload(0x40)\n      sub(shl(0xa0, 0x01), 0x01)\n      dup6\n      and\n      swap1\n        /* \"Smart-Contracts/PNJC_Multisig.sol\":4783:4793  msg.sender */\n      caller\n      swap1\n        /* \"Smart-Contracts/PNJC_Multisig.sol\":4774:4781  txIndex */\n      dup4\n      swap1\n        /* \"Smart-Contracts/PNJC_Multisig.sol\":4753:4814  TransactionSubmitted(txIndex, msg.sender, _to, _value, _data) */\n      0x2ecf8c4571be1f8a0b1e6feaa711128f3f8038e97869aa59d0f595e21f50eaa0\n      swap1\n      tag_140\n      swap1\n        /* \"Smart-Contracts/PNJC_Multisig.sol\":4800:4806  _value */\n      dup9\n      swap1\n        /* \"Smart-Contracts/PNJC_Multisig.sol\":4808:4813  _data */\n      dup9\n      swap1\n        /* \"Smart-Contracts/PNJC_Multisig.sol\":4753:4814  TransactionSubmitted(txIndex, msg.sender, _to, _value, _data) */\n      tag_141\n      jump\t// in\n    tag_140:\n      mload(0x40)\n      dup1\n      swap2\n      sub\n      swap1\n      log4\n        /* \"Smart-Contracts/PNJC_Multisig.sol\":4890:4917  confirmTransaction(txIndex) */\n      tag_142\n        /* \"Smart-Contracts/PNJC_Multisig.sol\":4909:4916  txIndex */\n      dup2\n        /* \"Smart-Contracts/PNJC_Multisig.sol\":4890:4908  confirmTransaction */\n      tag_59\n        /* \"Smart-Contracts/PNJC_Multisig.sol\":4890:4917  confirmTransaction(txIndex) */\n      jump\t// in\n    tag_142:\n        /* \"Smart-Contracts/PNJC_Multisig.sol\":4496:4925  {... */\n      pop\n        /* \"Smart-Contracts/PNJC_Multisig.sol\":4375:4925  function submitTransaction(address _to, uint256 _value, bytes memory _data) ... */\n      pop\n      pop\n      pop\n      jump\t// out\n        /* \"Smart-Contracts/PNJC_Multisig.sol\":6052:6800  function executeTransaction(uint256 _txIndex) ... */\n    tag_68:\n        /* \"Smart-Contracts/PNJC_Multisig.sol\":2356:2366  msg.sender */\n      caller\n        /* \"Smart-Contracts/PNJC_Multisig.sol\":2348:2367  isOwner[msg.sender] */\n      0x00\n      swap1\n      dup2\n      mstore\n        /* \"Smart-Contracts/PNJC_Multisig.sol\":2348:2355  isOwner */\n      0x01\n        /* \"Smart-Contracts/PNJC_Multisig.sol\":2348:2367  isOwner[msg.sender] */\n      0x20\n      mstore\n      0x40\n      swap1\n      keccak256\n      sload\n      0xff\n      and\n        /* \"Smart-Contracts/PNJC_Multisig.sol\":2340:2400  require(isOwner[msg.sender], \"PNJC Treasury: Access denied\") */\n      tag_144\n      jumpi\n      mload(0x40)\n      shl(0xe5, 0x461bcd)\n      dup2\n      mstore\n      0x04\n      add\n      tag_73\n      swap1\n      tag_74\n      jump\t// in\n    tag_144:\n        /* \"Smart-Contracts/PNJC_Multisig.sol\":2588:2600  transactions */\n      0x04\n        /* \"Smart-Contracts/PNJC_Multisig.sol\":2588:2607  transactions.length */\n      sload\n        /* \"Smart-Contracts/PNJC_Multisig.sol\":6154:6162  _txIndex */\n      dup2\n      swap1\n        /* \"Smart-Contracts/PNJC_Multisig.sol\":2577:2607  _txIndex < transactions.length */\n      dup2\n      lt\n        /* \"Smart-Contracts/PNJC_Multisig.sol\":2569:2644  require(_txIndex < transactions.length, \"PNJC Treasury: Tx does not exist\") */\n      tag_147\n      jumpi\n      mload(0x40)\n      shl(0xe5, 0x461bcd)\n      dup2\n      mstore\n      0x04\n      add\n      tag_73\n      swap1\n      tag_78\n      jump\t// in\n    tag_147:\n        /* \"Smart-Contracts/PNJC_Multisig.sol\":6186:6194  _txIndex */\n      dup2\n        /* \"Smart-Contracts/PNJC_Multisig.sol\":2829:2841  transactions */\n      0x04\n        /* \"Smart-Contracts/PNJC_Multisig.sol\":2842:2850  _txIndex */\n      dup2\n        /* \"Smart-Contracts/PNJC_Multisig.sol\":2829:2851  transactions[_txIndex] */\n      dup2\n      sload\n      dup2\n      lt\n      tag_151\n      jumpi\n      tag_151\n      tag_82\n      jump\t// in\n    tag_151:\n      0x00\n      swap2\n      dup3\n      mstore\n      0x20\n      swap1\n      swap2\n      keccak256\n        /* \"Smart-Contracts/PNJC_Multisig.sol\":2829:2860  transactions[_txIndex].executed */\n      0x03\n        /* \"Smart-Contracts/PNJC_Multisig.sol\":2829:2851  transactions[_txIndex] */\n      0x05\n      swap1\n      swap3\n      mul\n      add\n        /* \"Smart-Contracts/PNJC_Multisig.sol\":2829:2860  transactions[_txIndex].executed */\n      add\n      sload\n      0xff\n      and\n        /* \"Smart-Contracts/PNJC_Multisig.sol\":2828:2860  !transactions[_txIndex].executed */\n      iszero\n        /* \"Smart-Contracts/PNJC_Multisig.sol\":2820:2900  require(!transactions[_txIndex].executed, \"PNJC Treasury: Tx already processed\") */\n      tag_153\n      jumpi\n      mload(0x40)\n      shl(0xe5, 0x461bcd)\n      dup2\n      mstore\n      0x04\n      add\n      tag_73\n      swap1\n      tag_86\n      jump\t// in\n    tag_153:\n        /* \"@openzeppelin/contracts@5.6.0/utils/ReentrancyGuard.sol\":3023:3044  _nonReentrantBefore() */\n      tag_156\n        /* \"@openzeppelin/contracts@5.6.0/utils/ReentrancyGuard.sol\":3023:3042  _nonReentrantBefore */\n      tag_157\n        /* \"@openzeppelin/contracts@5.6.0/utils/ReentrancyGuard.sol\":3023:3044  _nonReentrantBefore() */\n      jump\t// in\n    tag_156:\n        /* \"Smart-Contracts/PNJC_Multisig.sol\":6236:6267  Transaction storage transaction */\n      0x00\n        /* \"Smart-Contracts/PNJC_Multisig.sol\":6270:6282  transactions */\n      0x04\n        /* \"Smart-Contracts/PNJC_Multisig.sol\":6283:6291  _txIndex */\n      dup5\n        /* \"Smart-Contracts/PNJC_Multisig.sol\":6270:6292  transactions[_txIndex] */\n      dup2\n      sload\n      dup2\n      lt\n      tag_160\n      jumpi\n      tag_160\n      tag_82\n      jump\t// in\n    tag_160:\n      swap1\n      0x00\n      mstore\n      keccak256(0x00, 0x20)\n      swap1\n      0x05\n      mul\n      add\n        /* \"Smart-Contracts/PNJC_Multisig.sol\":6236:6292  Transaction storage transaction = transactions[_txIndex] */\n      swap1\n      pop\n        /* \"Smart-Contracts/PNJC_Multisig.sol\":6340:6358  requiredSignatures */\n      sload(0x02)\n        /* \"Smart-Contracts/PNJC_Multisig.sol\":6311:6322  transaction */\n      dup2\n        /* \"Smart-Contracts/PNJC_Multisig.sol\":6311:6336  transaction.approvalCount */\n      0x04\n      add\n      sload\n        /* \"Smart-Contracts/PNJC_Multisig.sol\":6311:6358  transaction.approvalCount >= requiredSignatures */\n      lt\n      iszero\n        /* \"Smart-Contracts/PNJC_Multisig.sol\":6303:6399  require(transaction.approvalCount >= requiredSignatures, \"PNJC Treasury: Consensus not reached\") */\n      tag_162\n      jumpi\n      mload(0x40)\n      shl(0xe5, 0x461bcd)\n      dup2\n      mstore\n        /* \"#utility.yul\":9892:9894   */\n      0x20\n        /* \"Smart-Contracts/PNJC_Multisig.sol\":6303:6399  require(transaction.approvalCount >= requiredSignatures, \"PNJC Treasury: Consensus not reached\") */\n      0x04\n      dup3\n      add\n        /* \"#utility.yul\":9874:9895   */\n      mstore\n        /* \"#utility.yul\":9931:9933   */\n      0x24\n        /* \"#utility.yul\":9911:9929   */\n      dup1\n      dup3\n      add\n        /* \"#utility.yul\":9904:9934   */\n      mstore\n        /* \"#utility.yul\":9970:10004   */\n      0x504e4a432054726561737572793a20436f6e73656e737573206e6f7420726561\n        /* \"#utility.yul\":9950:9968   */\n      0x44\n      dup3\n      add\n        /* \"#utility.yul\":9943:10005   */\n      mstore\n      shl(0xe2, 0x18da1959)\n        /* \"#utility.yul\":10021:10039   */\n      0x64\n      dup3\n      add\n        /* \"#utility.yul\":10014:10048   */\n      mstore\n        /* \"#utility.yul\":10065:10084   */\n      0x84\n      add\n        /* \"Smart-Contracts/PNJC_Multisig.sol\":6303:6399  require(transaction.approvalCount >= requiredSignatures, \"PNJC Treasury: Consensus not reached\") */\n      tag_73\n        /* \"#utility.yul\":9690:10090   */\n      jump\n        /* \"Smart-Contracts/PNJC_Multisig.sol\":6303:6399  require(transaction.approvalCount >= requiredSignatures, \"PNJC Treasury: Consensus not reached\") */\n    tag_162:\n        /* \"Smart-Contracts/PNJC_Multisig.sol\":6490:6510  transaction.executed */\n      0x03\n      dup2\n      add\n        /* \"Smart-Contracts/PNJC_Multisig.sol\":6490:6517  transaction.executed = true */\n      dup1\n      sload\n      not(0xff)\n      and\n        /* \"Smart-Contracts/PNJC_Multisig.sol\":6513:6517  true */\n      0x01\n        /* \"Smart-Contracts/PNJC_Multisig.sol\":6490:6517  transaction.executed = true */\n      swap1\n      dup2\n      or\n      swap1\n      swap2\n      sstore\n        /* \"Smart-Contracts/PNJC_Multisig.sol\":6603:6617  transaction.to */\n      dup2\n      sload\n        /* \"Smart-Contracts/PNJC_Multisig.sol\":6630:6647  transaction.value */\n      swap1\n      dup3\n      add\n      sload\n        /* \"Smart-Contracts/PNJC_Multisig.sol\":6603:6666  transaction.to.call{value: transaction.value}(transaction.data) */\n      mload(0x40)\n        /* \"Smart-Contracts/PNJC_Multisig.sol\":6490:6510  transaction.executed */\n      0x00\n      swap3\n      sub(shl(0xa0, 0x01), 0x01)\n        /* \"Smart-Contracts/PNJC_Multisig.sol\":6603:6617  transaction.to */\n      and\n      swap2\n        /* \"Smart-Contracts/PNJC_Multisig.sol\":6630:6647  transaction.value */\n      swap1\n        /* \"Smart-Contracts/PNJC_Multisig.sol\":6603:6666  transaction.to.call{value: transaction.value}(transaction.data) */\n      tag_165\n      swap1\n        /* \"Smart-Contracts/PNJC_Multisig.sol\":6649:6665  transaction.data */\n      0x02\n      dup7\n      add\n      swap1\n        /* \"Smart-Contracts/PNJC_Multisig.sol\":6603:6666  transaction.to.call{value: transaction.value}(transaction.data) */\n      tag_166\n      jump\t// in\n    tag_165:\n      0x00\n      mload(0x40)\n      dup1\n      dup4\n      sub\n      dup2\n      dup6\n      dup8\n      gas\n      call\n      swap3\n      pop\n      pop\n      pop\n      returndatasize\n      dup1\n      0x00\n      dup2\n      eq\n      tag_169\n      jumpi\n      mload(0x40)\n      swap2\n      pop\n      and(add(returndatasize, 0x3f), not(0x1f))\n      dup3\n      add\n      0x40\n      mstore\n      returndatasize\n      dup3\n      mstore\n      returndatasize\n      0x00\n      0x20\n      dup5\n      add\n      returndatacopy\n      jump(tag_168)\n    tag_169:\n      0x60\n      swap2\n      pop\n    tag_168:\n      pop\n        /* \"Smart-Contracts/PNJC_Multisig.sol\":6584:6666  (bool success, ) = transaction.to.call{value: transaction.value}(transaction.data) */\n      pop\n      swap1\n      pop\n        /* \"Smart-Contracts/PNJC_Multisig.sol\":6685:6692  success */\n      dup1\n        /* \"Smart-Contracts/PNJC_Multisig.sol\":6677:6733  require(success, \"PNJC Treasury: Call execution failed\") */\n      tag_170\n      jumpi\n      mload(0x40)\n      shl(0xe5, 0x461bcd)\n      dup2\n      mstore\n        /* \"#utility.yul\":11097:11099   */\n      0x20\n        /* \"Smart-Contracts/PNJC_Multisig.sol\":6677:6733  require(success, \"PNJC Treasury: Call execution failed\") */\n      0x04\n      dup3\n      add\n        /* \"#utility.yul\":11079:11100   */\n      mstore\n        /* \"#utility.yul\":11136:11138   */\n      0x24\n        /* \"#utility.yul\":11116:11134   */\n      dup1\n      dup3\n      add\n        /* \"#utility.yul\":11109:11139   */\n      mstore\n        /* \"#utility.yul\":11175:11209   */\n      0x504e4a432054726561737572793a2043616c6c20657865637574696f6e206661\n        /* \"#utility.yul\":11155:11173   */\n      0x44\n      dup3\n      add\n        /* \"#utility.yul\":11148:11210   */\n      mstore\n      shl(0xe2, 0x1a5b1959)\n        /* \"#utility.yul\":11226:11244   */\n      0x64\n      dup3\n      add\n        /* \"#utility.yul\":11219:11253   */\n      mstore\n        /* \"#utility.yul\":11270:11289   */\n      0x84\n      add\n        /* \"Smart-Contracts/PNJC_Multisig.sol\":6677:6733  require(success, \"PNJC Treasury: Call execution failed\") */\n      tag_73\n        /* \"#utility.yul\":10895:11295   */\n      jump\n        /* \"Smart-Contracts/PNJC_Multisig.sol\":6677:6733  require(success, \"PNJC Treasury: Call execution failed\") */\n    tag_170:\n        /* \"Smart-Contracts/PNJC_Multisig.sol\":6751:6792  TransactionExecuted(_txIndex, msg.sender) */\n      mload(0x40)\n        /* \"Smart-Contracts/PNJC_Multisig.sol\":6781:6791  msg.sender */\n      caller\n      swap1\n        /* \"Smart-Contracts/PNJC_Multisig.sol\":6771:6779  _txIndex */\n      dup7\n      swap1\n        /* \"Smart-Contracts/PNJC_Multisig.sol\":6751:6792  TransactionExecuted(_txIndex, msg.sender) */\n      0xefc13bdcf58f184ea7cae26b499fb33b539e01d0197cea456f3ada289b8cf19b\n      swap1\n      0x00\n      swap1\n      log3\n        /* \"Smart-Contracts/PNJC_Multisig.sol\":6225:6800  {... */\n      pop\n      pop\n        /* \"@openzeppelin/contracts@5.6.0/utils/ReentrancyGuard.sol\":3065:3085  _nonReentrantAfter() */\n      tag_132\n        /* \"@openzeppelin/contracts@5.6.0/utils/ReentrancyGuard.sol\":2365:2366  1 */\n      0x01\n        /* \"@openzeppelin/contracts@5.6.0/utils/ReentrancyGuard.sol\":1505:1571  0x9b779b17422d0df92223018b32b4d1fa46e071723d6817e2486d003becc55f00 */\n      0x9b779b17422d0df92223018b32b4d1fa46e071723d6817e2486d003becc55f00\n        /* \"@openzeppelin/contracts@5.6.0/utils/ReentrancyGuard.sol\":3972:4034  _reentrancyGuardStorageSlot().getUint256Slot().value = ENTERED */\n      sstore\n        /* \"@openzeppelin/contracts@5.6.0/utils/ReentrancyGuard.sol\":3749:4041  function _nonReentrantBefore() private {... */\n      jump\n    tag_157:\n        /* \"@openzeppelin/contracts@5.6.0/utils/ReentrancyGuard.sol\":3872:3897  _nonReentrantBeforeView() */\n      tag_176\n        /* \"@openzeppelin/contracts@5.6.0/utils/ReentrancyGuard.sol\":3872:3895  _nonReentrantBeforeView */\n      tag_177\n        /* \"@openzeppelin/contracts@5.6.0/utils/ReentrancyGuard.sol\":3872:3897  _nonReentrantBeforeView() */\n      jump\t// in\n    tag_176:\n        /* \"@openzeppelin/contracts@5.6.0/utils/ReentrancyGuard.sol\":2407:2408  2 */\n      0x02\n        /* \"@openzeppelin/contracts@5.6.0/utils/ReentrancyGuard.sol\":1505:1571  0x9b779b17422d0df92223018b32b4d1fa46e071723d6817e2486d003becc55f00 */\n      0x9b779b17422d0df92223018b32b4d1fa46e071723d6817e2486d003becc55f00\n        /* \"@openzeppelin/contracts@5.6.0/utils/ReentrancyGuard.sol\":3972:4034  _reentrancyGuardStorageSlot().getUint256Slot().value = ENTERED */\n      sstore\n        /* \"@openzeppelin/contracts@5.6.0/utils/ReentrancyGuard.sol\":3749:4041  function _nonReentrantBefore() private {... */\n      jump\t// out\n        /* \"@openzeppelin/contracts@5.6.0/utils/ReentrancyGuard.sol\":3586:3743  function _nonReentrantBeforeView() private view {... */\n    tag_177:\n        /* \"@openzeppelin/contracts@5.6.0/utils/ReentrancyGuard.sol\":1505:1571  0x9b779b17422d0df92223018b32b4d1fa46e071723d6817e2486d003becc55f00 */\n      0x9b779b17422d0df92223018b32b4d1fa46e071723d6817e2486d003becc55f00\n        /* \"@openzeppelin/contracts@5.6.0/utils/ReentrancyGuard.sol\":4560:4612  _reentrancyGuardStorageSlot().getUint256Slot().value */\n      sload\n        /* \"@openzeppelin/contracts@5.6.0/utils/ReentrancyGuard.sol\":2407:2408  2 */\n      0x02\n        /* \"@openzeppelin/contracts@5.6.0/utils/ReentrancyGuard.sol\":4560:4623  _reentrancyGuardStorageSlot().getUint256Slot().value == ENTERED */\n      sub\n        /* \"@openzeppelin/contracts@5.6.0/utils/ReentrancyGuard.sol\":3644:3737  if (_reentrancyGuardEntered()) {... */\n      tag_188\n      jumpi\n        /* \"@openzeppelin/contracts@5.6.0/utils/ReentrancyGuard.sol\":3696:3726  ReentrancyGuardReentrantCall() */\n      mload(0x40)\n      shl(0xe0, 0x3ee5aeb5)\n      dup2\n      mstore\n      0x04\n      add\n      mload(0x40)\n      dup1\n      swap2\n      sub\n      swap1\n      revert\n        /* \"@openzeppelin/contracts@5.6.0/utils/ReentrancyGuard.sol\":3644:3737  if (_reentrancyGuardEntered()) {... */\n    tag_188:\n        /* \"@openzeppelin/contracts@5.6.0/utils/ReentrancyGuard.sol\":3586:3743  function _nonReentrantBeforeView() private view {... */\n      jump\t// out\n        /* \"#utility.yul\":14:240   */\n    tag_19:\n        /* \"#utility.yul\":73:79   */\n      0x00\n        /* \"#utility.yul\":126:128   */\n      0x20\n        /* \"#utility.yul\":114:123   */\n      dup3\n        /* \"#utility.yul\":105:112   */\n      dup5\n        /* \"#utility.yul\":101:124   */\n      sub\n        /* \"#utility.yul\":97:129   */\n      slt\n        /* \"#utility.yul\":94:146   */\n      iszero\n      tag_203\n      jumpi\n        /* \"#utility.yul\":142:143   */\n      0x00\n        /* \"#utility.yul\":139:140   */\n      0x00\n        /* \"#utility.yul\":132:144   */\n      revert\n        /* \"#utility.yul\":94:146   */\n    tag_203:\n      pop\n        /* \"#utility.yul\":187:210   */\n      calldataload\n      swap2\n        /* \"#utility.yul\":14:240   */\n      swap1\n      pop\n      jump\t// out\n        /* \"#utility.yul\":453:626   */\n    tag_194:\n        /* \"#utility.yul\":521:541   */\n      dup1\n      calldataload\n      sub(shl(0xa0, 0x01), 0x01)\n        /* \"#utility.yul\":570:601   */\n      dup2\n      and\n        /* \"#utility.yul\":560:602   */\n      dup2\n      eq\n        /* \"#utility.yul\":550:620   */\n      tag_206\n      jumpi\n        /* \"#utility.yul\":616:617   */\n      0x00\n        /* \"#utility.yul\":613:614   */\n      0x00\n        /* \"#utility.yul\":606:618   */\n      revert\n        /* \"#utility.yul\":550:620   */\n    tag_206:\n        /* \"#utility.yul\":453:626   */\n      swap2\n      swap1\n      pop\n      jump\t// out\n        /* \"#utility.yul\":631:817   */\n    tag_30:\n        /* \"#utility.yul\":690:696   */\n      0x00\n        /* \"#utility.yul\":743:745   */\n      0x20\n        /* \"#utility.yul\":731:740   */\n      dup3\n        /* \"#utility.yul\":722:729   */\n      dup5\n        /* \"#utility.yul\":718:741   */\n      sub\n        /* \"#utility.yul\":714:746   */\n      slt\n        /* \"#utility.yul\":711:763   */\n      iszero\n      tag_208\n      jumpi\n        /* \"#utility.yul\":759:760   */\n      0x00\n        /* \"#utility.yul\":756:757   */\n      0x00\n        /* \"#utility.yul\":749:761   */\n      revert\n        /* \"#utility.yul\":711:763   */\n    tag_208:\n        /* \"#utility.yul\":782:811   */\n      tag_209\n        /* \"#utility.yul\":801:810   */\n      dup3\n        /* \"#utility.yul\":782:811   */\n      tag_194\n      jump\t// in\n    tag_209:\n        /* \"#utility.yul\":772:811   */\n      swap4\n        /* \"#utility.yul\":631:817   */\n      swap3\n      pop\n      pop\n      pop\n      jump\t// out\n        /* \"#utility.yul\":1014:1314   */\n    tag_37:\n        /* \"#utility.yul\":1082:1088   */\n      0x00\n        /* \"#utility.yul\":1090:1096   */\n      0x00\n        /* \"#utility.yul\":1143:1145   */\n      0x40\n        /* \"#utility.yul\":1131:1140   */\n      dup4\n        /* \"#utility.yul\":1122:1129   */\n      dup6\n        /* \"#utility.yul\":1118:1141   */\n      sub\n        /* \"#utility.yul\":1114:1146   */\n      slt\n        /* \"#utility.yul\":1111:1163   */\n      iszero\n      tag_212\n      jumpi\n        /* \"#utility.yul\":1159:1160   */\n      0x00\n        /* \"#utility.yul\":1156:1157   */\n      0x00\n        /* \"#utility.yul\":1149:1161   */\n      revert\n        /* \"#utility.yul\":1111:1163   */\n    tag_212:\n        /* \"#utility.yul\":1204:1227   */\n      dup3\n      calldataload\n      swap2\n      pop\n        /* \"#utility.yul\":1270:1308   */\n      tag_213\n        /* \"#utility.yul\":1304:1306   */\n      0x20\n        /* \"#utility.yul\":1289:1307   */\n      dup5\n      add\n        /* \"#utility.yul\":1270:1308   */\n      tag_194\n      jump\t// in\n    tag_213:\n        /* \"#utility.yul\":1260:1308   */\n      swap1\n      pop\n        /* \"#utility.yul\":1014:1314   */\n      swap3\n      pop\n      swap3\n      swap1\n      pop\n      jump\t// out\n        /* \"#utility.yul\":1501:1789   */\n    tag_195:\n        /* \"#utility.yul\":1542:1545   */\n      0x00\n        /* \"#utility.yul\":1580:1585   */\n      dup2\n        /* \"#utility.yul\":1574:1586   */\n      mload\n        /* \"#utility.yul\":1607:1613   */\n      dup1\n        /* \"#utility.yul\":1602:1605   */\n      dup5\n        /* \"#utility.yul\":1595:1614   */\n      mstore\n        /* \"#utility.yul\":1663:1669   */\n      dup1\n        /* \"#utility.yul\":1656:1660   */\n      0x20\n        /* \"#utility.yul\":1649:1654   */\n      dup5\n        /* \"#utility.yul\":1645:1661   */\n      add\n        /* \"#utility.yul\":1638:1642   */\n      0x20\n        /* \"#utility.yul\":1633:1636   */\n      dup7\n        /* \"#utility.yul\":1629:1643   */\n      add\n        /* \"#utility.yul\":1623:1670   */\n      mcopy\n        /* \"#utility.yul\":1715:1716   */\n      0x00\n        /* \"#utility.yul\":1708:1712   */\n      0x20\n        /* \"#utility.yul\":1699:1705   */\n      dup3\n        /* \"#utility.yul\":1694:1697   */\n      dup7\n        /* \"#utility.yul\":1690:1706   */\n      add\n        /* \"#utility.yul\":1686:1713   */\n      add\n        /* \"#utility.yul\":1679:1717   */\n      mstore\n        /* \"#utility.yul\":1778:1782   */\n      0x20\n        /* \"#utility.yul\":1771:1773   */\n      0x1f\n        /* \"#utility.yul\":1767:1774   */\n      not\n        /* \"#utility.yul\":1762:1764   */\n      0x1f\n        /* \"#utility.yul\":1754:1760   */\n      dup4\n        /* \"#utility.yul\":1750:1765   */\n      add\n        /* \"#utility.yul\":1746:1775   */\n      and\n        /* \"#utility.yul\":1741:1744   */\n      dup6\n        /* \"#utility.yul\":1737:1776   */\n      add\n        /* \"#utility.yul\":1733:1783   */\n      add\n        /* \"#utility.yul\":1726:1783   */\n      swap2\n      pop\n      pop\n        /* \"#utility.yul\":1501:1789   */\n      swap3\n      swap2\n      pop\n      pop\n      jump\t// out\n        /* \"#utility.yul\":1794:2334   */\n    tag_50:\n        /* \"#utility.yul\":2076:2077   */\n      0x01\n        /* \"#utility.yul\":2072:2073   */\n      dup1\n        /* \"#utility.yul\":2067:2070   */\n      0xa0\n        /* \"#utility.yul\":2063:2074   */\n      shl\n        /* \"#utility.yul\":2059:2078   */\n      sub\n        /* \"#utility.yul\":2051:2057   */\n      dup7\n        /* \"#utility.yul\":2047:2079   */\n      and\n        /* \"#utility.yul\":2036:2045   */\n      dup2\n        /* \"#utility.yul\":2029:2080   */\n      mstore\n        /* \"#utility.yul\":2116:2122   */\n      dup5\n        /* \"#utility.yul\":2111:2113   */\n      0x20\n        /* \"#utility.yul\":2100:2109   */\n      dup3\n        /* \"#utility.yul\":2096:2114   */\n      add\n        /* \"#utility.yul\":2089:2123   */\n      mstore\n        /* \"#utility.yul\":2159:2162   */\n      0xa0\n        /* \"#utility.yul\":2154:2156   */\n      0x40\n        /* \"#utility.yul\":2143:2152   */\n      dup3\n        /* \"#utility.yul\":2139:2157   */\n      add\n        /* \"#utility.yul\":2132:2163   */\n      mstore\n        /* \"#utility.yul\":2010:2014   */\n      0x00\n        /* \"#utility.yul\":2180:2225   */\n      tag_217\n        /* \"#utility.yul\":2220:2223   */\n      0xa0\n        /* \"#utility.yul\":2209:2218   */\n      dup4\n        /* \"#utility.yul\":2205:2224   */\n      add\n        /* \"#utility.yul\":2197:2203   */\n      dup7\n        /* \"#utility.yul\":2180:2225   */\n      tag_195\n      jump\t// in\n    tag_217:\n        /* \"#utility.yul\":2268:2282   */\n      swap4\n      iszero\n        /* \"#utility.yul\":2261:2283   */\n      iszero\n        /* \"#utility.yul\":2256:2258   */\n      0x60\n        /* \"#utility.yul\":2241:2259   */\n      dup4\n      add\n        /* \"#utility.yul\":2234:2284   */\n      mstore\n      pop\n        /* \"#utility.yul\":2315:2318   */\n      0x80\n        /* \"#utility.yul\":2300:2319   */\n      add\n        /* \"#utility.yul\":2293:2328   */\n      mstore\n        /* \"#utility.yul\":2172:2225   */\n      swap4\n        /* \"#utility.yul\":1794:2334   */\n      swap3\n      pop\n      pop\n      pop\n      jump\t// out\n        /* \"#utility.yul\":2339:2976   */\n    tag_55:\n        /* \"#utility.yul\":2529:2531   */\n      0x20\n        /* \"#utility.yul\":2541:2562   */\n      dup1\n      dup3\n      mstore\n        /* \"#utility.yul\":2611:2624   */\n      dup3\n      mload\n        /* \"#utility.yul\":2514:2532   */\n      dup3\n      dup3\n      add\n        /* \"#utility.yul\":2633:2655   */\n      dup2\n      swap1\n      mstore\n        /* \"#utility.yul\":2481:2485   */\n      0x00\n      swap2\n        /* \"#utility.yul\":2712:2727   */\n      dup5\n      add\n      swap1\n        /* \"#utility.yul\":2686:2688   */\n      0x40\n        /* \"#utility.yul\":2671:2689   */\n      dup5\n      add\n      swap1\n        /* \"#utility.yul\":2481:2485   */\n      dup4\n        /* \"#utility.yul\":2755:2950   */\n    tag_219:\n        /* \"#utility.yul\":2769:2775   */\n      dup2\n        /* \"#utility.yul\":2766:2767   */\n      dup2\n        /* \"#utility.yul\":2763:2776   */\n      lt\n        /* \"#utility.yul\":2755:2950   */\n      iszero\n      tag_221\n      jumpi\n        /* \"#utility.yul\":2834:2847   */\n      dup4\n      mload\n      sub(shl(0xa0, 0x01), 0x01)\n        /* \"#utility.yul\":2830:2869   */\n      and\n        /* \"#utility.yul\":2818:2870   */\n      dup4\n      mstore\n        /* \"#utility.yul\":2899:2901   */\n      0x20\n        /* \"#utility.yul\":2925:2940   */\n      swap4\n      dup5\n      add\n      swap4\n        /* \"#utility.yul\":2890:2902   */\n      swap1\n      swap3\n      add\n      swap2\n        /* \"#utility.yul\":2866:2867   */\n      0x01\n        /* \"#utility.yul\":2784:2793   */\n      add\n        /* \"#utility.yul\":2755:2950   */\n      jump(tag_219)\n    tag_221:\n      pop\n        /* \"#utility.yul\":2967:2970   */\n      swap1\n      swap6\n        /* \"#utility.yul\":2339:2976   */\n      swap5\n      pop\n      pop\n      pop\n      pop\n      pop\n      jump\t// out\n        /* \"#utility.yul\":2981:3108   */\n    tag_196:\n        /* \"#utility.yul\":3042:3052   */\n      0x4e487b71\n        /* \"#utility.yul\":3037:3040   */\n      0xe0\n        /* \"#utility.yul\":3033:3053   */\n      shl\n        /* \"#utility.yul\":3030:3031   */\n      0x00\n        /* \"#utility.yul\":3023:3054   */\n      mstore\n        /* \"#utility.yul\":3073:3077   */\n      0x41\n        /* \"#utility.yul\":3070:3071   */\n      0x04\n        /* \"#utility.yul\":3063:3078   */\n      mstore\n        /* \"#utility.yul\":3097:3101   */\n      0x24\n        /* \"#utility.yul\":3094:3095   */\n      0x00\n        /* \"#utility.yul\":3087:3102   */\n      revert\n        /* \"#utility.yul\":3113:4245   */\n    tag_63:\n        /* \"#utility.yul\":3199:3205   */\n      0x00\n        /* \"#utility.yul\":3207:3213   */\n      0x00\n        /* \"#utility.yul\":3215:3221   */\n      0x00\n        /* \"#utility.yul\":3268:3270   */\n      0x60\n        /* \"#utility.yul\":3256:3265   */\n      dup5\n        /* \"#utility.yul\":3247:3254   */\n      dup7\n        /* \"#utility.yul\":3243:3266   */\n      sub\n        /* \"#utility.yul\":3239:3271   */\n      slt\n        /* \"#utility.yul\":3236:3288   */\n      iszero\n      tag_224\n      jumpi\n        /* \"#utility.yul\":3284:3285   */\n      0x00\n        /* \"#utility.yul\":3281:3282   */\n      0x00\n        /* \"#utility.yul\":3274:3286   */\n      revert\n        /* \"#utility.yul\":3236:3288   */\n    tag_224:\n        /* \"#utility.yul\":3307:3336   */\n      tag_225\n        /* \"#utility.yul\":3326:3335   */\n      dup5\n        /* \"#utility.yul\":3307:3336   */\n      tag_194\n      jump\t// in\n    tag_225:\n        /* \"#utility.yul\":3297:3336   */\n      swap3\n      pop\n        /* \"#utility.yul\":3405:3407   */\n      0x20\n        /* \"#utility.yul\":3390:3408   */\n      dup5\n      add\n        /* \"#utility.yul\":3377:3409   */\n      calldataload\n      swap2\n      pop\n        /* \"#utility.yul\":3484:3486   */\n      0x40\n        /* \"#utility.yul\":3469:3487   */\n      dup5\n      add\n        /* \"#utility.yul\":3456:3488   */\n      calldataload\n        /* \"#utility.yul\":3511:3529   */\n      0xffffffffffffffff\n        /* \"#utility.yul\":3500:3530   */\n      dup2\n      gt\n        /* \"#utility.yul\":3497:3547   */\n      iszero\n      tag_226\n      jumpi\n        /* \"#utility.yul\":3543:3544   */\n      0x00\n        /* \"#utility.yul\":3540:3541   */\n      0x00\n        /* \"#utility.yul\":3533:3545   */\n      revert\n        /* \"#utility.yul\":3497:3547   */\n    tag_226:\n        /* \"#utility.yul\":3566:3588   */\n      dup5\n      add\n        /* \"#utility.yul\":3619:3623   */\n      0x1f\n        /* \"#utility.yul\":3611:3624   */\n      dup2\n      add\n        /* \"#utility.yul\":3607:3634   */\n      dup7\n      sgt\n        /* \"#utility.yul\":3597:3652   */\n      tag_227\n      jumpi\n        /* \"#utility.yul\":3648:3649   */\n      0x00\n        /* \"#utility.yul\":3645:3646   */\n      0x00\n        /* \"#utility.yul\":3638:3650   */\n      revert\n        /* \"#utility.yul\":3597:3652   */\n    tag_227:\n        /* \"#utility.yul\":3688:3690   */\n      dup1\n        /* \"#utility.yul\":3675:3691   */\n      calldataload\n        /* \"#utility.yul\":3714:3732   */\n      0xffffffffffffffff\n        /* \"#utility.yul\":3706:3712   */\n      dup2\n        /* \"#utility.yul\":3703:3733   */\n      gt\n        /* \"#utility.yul\":3700:3756   */\n      iszero\n      tag_229\n      jumpi\n        /* \"#utility.yul\":3736:3754   */\n      tag_229\n      tag_196\n      jump\t// in\n    tag_229:\n        /* \"#utility.yul\":3785:3787   */\n      0x40\n        /* \"#utility.yul\":3779:3788   */\n      mload\n        /* \"#utility.yul\":3877:3879   */\n      0x1f\n        /* \"#utility.yul\":3839:3856   */\n      dup3\n      add\n      not(0x1f)\n        /* \"#utility.yul\":3835:3866   */\n      swap1\n      dup2\n      and\n        /* \"#utility.yul\":3868:3870   */\n      0x3f\n        /* \"#utility.yul\":3831:3871   */\n      add\n        /* \"#utility.yul\":3827:3881   */\n      and\n        /* \"#utility.yul\":3815:3882   */\n      dup2\n      add\n        /* \"#utility.yul\":3912:3930   */\n      0xffffffffffffffff\n        /* \"#utility.yul\":3897:3931   */\n      dup2\n      gt\n        /* \"#utility.yul\":3933:3955   */\n      dup3\n      dup3\n      lt\n        /* \"#utility.yul\":3894:3956   */\n      or\n        /* \"#utility.yul\":3891:3979   */\n      iszero\n      tag_231\n      jumpi\n        /* \"#utility.yul\":3959:3977   */\n      tag_231\n      tag_196\n      jump\t// in\n    tag_231:\n        /* \"#utility.yul\":3995:3997   */\n      0x40\n        /* \"#utility.yul\":3988:4010   */\n      mstore\n        /* \"#utility.yul\":4019:4041   */\n      dup2\n      dup2\n      mstore\n        /* \"#utility.yul\":4060:4075   */\n      dup3\n      dup3\n      add\n        /* \"#utility.yul\":4077:4079   */\n      0x20\n        /* \"#utility.yul\":4056:4080   */\n      add\n        /* \"#utility.yul\":4053:4090   */\n      dup9\n      lt\n        /* \"#utility.yul\":4050:4107   */\n      iszero\n      tag_232\n      jumpi\n        /* \"#utility.yul\":4103:4104   */\n      0x00\n        /* \"#utility.yul\":4100:4101   */\n      0x00\n        /* \"#utility.yul\":4093:4105   */\n      revert\n        /* \"#utility.yul\":4050:4107   */\n    tag_232:\n        /* \"#utility.yul\":4159:4165   */\n      dup2\n        /* \"#utility.yul\":4154:4156   */\n      0x20\n        /* \"#utility.yul\":4150:4152   */\n      dup5\n        /* \"#utility.yul\":4146:4157   */\n      add\n        /* \"#utility.yul\":4141:4143   */\n      0x20\n        /* \"#utility.yul\":4133:4139   */\n      dup4\n        /* \"#utility.yul\":4129:4144   */\n      add\n        /* \"#utility.yul\":4116:4166   */\n      calldatacopy\n        /* \"#utility.yul\":4212:4213   */\n      0x00\n        /* \"#utility.yul\":4207:4209   */\n      0x20\n        /* \"#utility.yul\":4198:4204   */\n      dup4\n        /* \"#utility.yul\":4190:4196   */\n      dup4\n        /* \"#utility.yul\":4186:4205   */\n      add\n        /* \"#utility.yul\":4182:4210   */\n      add\n        /* \"#utility.yul\":4175:4214   */\n      mstore\n        /* \"#utility.yul\":4233:4239   */\n      dup1\n        /* \"#utility.yul\":4223:4239   */\n      swap4\n      pop\n      pop\n      pop\n      pop\n        /* \"#utility.yul\":3113:4245   */\n      swap3\n      pop\n      swap3\n      pop\n      swap3\n      jump\t// out\n        /* \"#utility.yul\":4250:4602   */\n    tag_74:\n        /* \"#utility.yul\":4452:4454   */\n      0x20\n        /* \"#utility.yul\":4434:4455   */\n      dup1\n      dup3\n      mstore\n        /* \"#utility.yul\":4491:4493   */\n      0x1c\n        /* \"#utility.yul\":4471:4489   */\n      swap1\n      dup3\n      add\n        /* \"#utility.yul\":4464:4494   */\n      mstore\n        /* \"#utility.yul\":4530:4560   */\n      0x504e4a432054726561737572793a204163636573732064656e69656400000000\n        /* \"#utility.yul\":4525:4527   */\n      0x40\n        /* \"#utility.yul\":4510:4528   */\n      dup3\n      add\n        /* \"#utility.yul\":4503:4561   */\n      mstore\n        /* \"#utility.yul\":4593:4595   */\n      0x60\n        /* \"#utility.yul\":4578:4596   */\n      add\n      swap1\n        /* \"#utility.yul\":4250:4602   */\n      jump\t// out\n        /* \"#utility.yul\":4607:4963   */\n    tag_78:\n        /* \"#utility.yul\":4809:4811   */\n      0x20\n        /* \"#utility.yul\":4791:4812   */\n      dup1\n      dup3\n      mstore\n        /* \"#utility.yul\":4828:4846   */\n      dup2\n      dup2\n      add\n        /* \"#utility.yul\":4821:4851   */\n      mstore\n        /* \"#utility.yul\":4887:4921   */\n      0x504e4a432054726561737572793a20547820646f6573206e6f74206578697374\n        /* \"#utility.yul\":4882:4884   */\n      0x40\n        /* \"#utility.yul\":4867:4885   */\n      dup3\n      add\n        /* \"#utility.yul\":4860:4922   */\n      mstore\n        /* \"#utility.yul\":4954:4956   */\n      0x60\n        /* \"#utility.yul\":4939:4957   */\n      add\n      swap1\n        /* \"#utility.yul\":4607:4963   */\n      jump\t// out\n        /* \"#utility.yul\":4968:5095   */\n    tag_82:\n        /* \"#utility.yul\":5029:5039   */\n      0x4e487b71\n        /* \"#utility.yul\":5024:5027   */\n      0xe0\n        /* \"#utility.yul\":5020:5040   */\n      shl\n        /* \"#utility.yul\":5017:5018   */\n      0x00\n        /* \"#utility.yul\":5010:5041   */\n      mstore\n        /* \"#utility.yul\":5060:5064   */\n      0x32\n        /* \"#utility.yul\":5057:5058   */\n      0x04\n        /* \"#utility.yul\":5050:5065   */\n      mstore\n        /* \"#utility.yul\":5084:5088   */\n      0x24\n        /* \"#utility.yul\":5081:5082   */\n      0x00\n        /* \"#utility.yul\":5074:5089   */\n      revert\n        /* \"#utility.yul\":5100:5499   */\n    tag_86:\n        /* \"#utility.yul\":5302:5304   */\n      0x20\n        /* \"#utility.yul\":5284:5305   */\n      dup1\n      dup3\n      mstore\n        /* \"#utility.yul\":5341:5343   */\n      0x23\n        /* \"#utility.yul\":5321:5339   */\n      swap1\n      dup3\n      add\n        /* \"#utility.yul\":5314:5344   */\n      mstore\n        /* \"#utility.yul\":5380:5414   */\n      0x504e4a432054726561737572793a20547820616c72656164792070726f636573\n        /* \"#utility.yul\":5375:5377   */\n      0x40\n        /* \"#utility.yul\":5360:5378   */\n      dup3\n      add\n        /* \"#utility.yul\":5353:5415   */\n      mstore\n      shl(0xea, 0x1cd959)\n        /* \"#utility.yul\":5446:5448   */\n      0x60\n        /* \"#utility.yul\":5431:5449   */\n      dup3\n      add\n        /* \"#utility.yul\":5424:5457   */\n      mstore\n        /* \"#utility.yul\":5489:5492   */\n      0x80\n        /* \"#utility.yul\":5474:5493   */\n      add\n      swap1\n        /* \"#utility.yul\":5100:5499   */\n      jump\t// out\n        /* \"#utility.yul\":5914:6041   */\n    tag_197:\n        /* \"#utility.yul\":5975:5985   */\n      0x4e487b71\n        /* \"#utility.yul\":5970:5973   */\n      0xe0\n        /* \"#utility.yul\":5966:5986   */\n      shl\n        /* \"#utility.yul\":5963:5964   */\n      0x00\n        /* \"#utility.yul\":5956:5987   */\n      mstore\n        /* \"#utility.yul\":6006:6010   */\n      0x11\n        /* \"#utility.yul\":6003:6004   */\n      0x04\n        /* \"#utility.yul\":5996:6011   */\n      mstore\n        /* \"#utility.yul\":6030:6034   */\n      0x24\n        /* \"#utility.yul\":6027:6028   */\n      0x00\n        /* \"#utility.yul\":6020:6035   */\n      revert\n        /* \"#utility.yul\":6046:6174   */\n    tag_95:\n        /* \"#utility.yul\":6113:6122   */\n      dup2\n      dup2\n      sub\n        /* \"#utility.yul\":6134:6145   */\n      dup2\n      dup2\n      gt\n        /* \"#utility.yul\":6131:6168   */\n      iszero\n      tag_241\n      jumpi\n        /* \"#utility.yul\":6148:6166   */\n      tag_241\n      tag_197\n      jump\t// in\n    tag_241:\n        /* \"#utility.yul\":6046:6174   */\n      swap3\n      swap2\n      pop\n      pop\n      jump\t// out\n        /* \"#utility.yul\":6179:6559   */\n    tag_99:\n        /* \"#utility.yul\":6258:6259   */\n      0x01\n        /* \"#utility.yul\":6254:6266   */\n      dup2\n      dup2\n      shr\n      swap1\n        /* \"#utility.yul\":6301:6313   */\n      dup3\n      and\n      dup1\n        /* \"#utility.yul\":6322:6383   */\n      tag_243\n      jumpi\n        /* \"#utility.yul\":6376:6380   */\n      0x7f\n        /* \"#utility.yul\":6368:6374   */\n      dup3\n        /* \"#utility.yul\":6364:6381   */\n      and\n        /* \"#utility.yul\":6354:6381   */\n      swap2\n      pop\n        /* \"#utility.yul\":6322:6383   */\n    tag_243:\n        /* \"#utility.yul\":6429:6431   */\n      0x20\n        /* \"#utility.yul\":6421:6427   */\n      dup3\n        /* \"#utility.yul\":6418:6432   */\n      lt\n        /* \"#utility.yul\":6398:6416   */\n      dup2\n        /* \"#utility.yul\":6395:6433   */\n      sub\n        /* \"#utility.yul\":6392:6553   */\n      tag_244\n      jumpi\n        /* \"#utility.yul\":6475:6485   */\n      0x4e487b71\n        /* \"#utility.yul\":6470:6473   */\n      0xe0\n        /* \"#utility.yul\":6466:6486   */\n      shl\n        /* \"#utility.yul\":6463:6464   */\n      0x00\n        /* \"#utility.yul\":6456:6487   */\n      mstore\n        /* \"#utility.yul\":6510:6514   */\n      0x22\n        /* \"#utility.yul\":6507:6508   */\n      0x04\n        /* \"#utility.yul\":6500:6515   */\n      mstore\n        /* \"#utility.yul\":6538:6542   */\n      0x24\n        /* \"#utility.yul\":6535:6536   */\n      0x00\n        /* \"#utility.yul\":6528:6543   */\n      revert\n        /* \"#utility.yul\":6392:6553   */\n    tag_244:\n      pop\n        /* \"#utility.yul\":6179:6559   */\n      swap2\n      swap1\n      pop\n      jump\t// out\n        /* \"#utility.yul\":6975:7100   */\n    tag_127:\n        /* \"#utility.yul\":7040:7049   */\n      dup1\n      dup3\n      add\n        /* \"#utility.yul\":7061:7071   */\n      dup1\n      dup3\n      gt\n        /* \"#utility.yul\":7058:7094   */\n      iszero\n      tag_241\n      jumpi\n        /* \"#utility.yul\":7074:7092   */\n      tag_241\n      tag_197\n      jump\t// in\n        /* \"#utility.yul\":7230:7921   */\n    tag_199:\n        /* \"#utility.yul\":7331:7333   */\n      0x1f\n        /* \"#utility.yul\":7326:7329   */\n      dup3\n        /* \"#utility.yul\":7323:7334   */\n      gt\n        /* \"#utility.yul\":7320:7915   */\n      iszero\n      tag_132\n      jumpi\n        /* \"#utility.yul\":7368:7378   */\n      dup3\n        /* \"#utility.yul\":7363:7366   */\n      dup3\n        /* \"#utility.yul\":7360:7379   */\n      gt\n        /* \"#utility.yul\":7357:7905   */\n      iszero\n      tag_132\n      jumpi\n        /* \"#utility.yul\":7420:7425   */\n      dup1\n        /* \"#utility.yul\":7417:7418   */\n      0x00\n        /* \"#utility.yul\":7410:7426   */\n      mstore\n        /* \"#utility.yul\":7468:7472   */\n      0x20\n        /* \"#utility.yul\":7465:7466   */\n      0x00\n        /* \"#utility.yul\":7455:7473   */\n      keccak256\n        /* \"#utility.yul\":7533:7535   */\n      0x1f\n        /* \"#utility.yul\":7521:7531   */\n      dup5\n        /* \"#utility.yul\":7517:7536   */\n      add\n        /* \"#utility.yul\":7514:7515   */\n      0x05\n        /* \"#utility.yul\":7510:7537   */\n      shr\n        /* \"#utility.yul\":7572:7576   */\n      0x20\n        /* \"#utility.yul\":7560:7570   */\n      dup6\n        /* \"#utility.yul\":7557:7577   */\n      lt\n        /* \"#utility.yul\":7554:7599   */\n      iszero\n      tag_253\n      jumpi\n      pop\n        /* \"#utility.yul\":7596:7597   */\n      0x00\n        /* \"#utility.yul\":7554:7599   */\n    tag_253:\n        /* \"#utility.yul\":7635:7658   */\n      swap1\n      dup2\n      add\n      swap1\n        /* \"#utility.yul\":7705:7707   */\n      0x1f\n        /* \"#utility.yul\":7696:7708   */\n      dup5\n      add\n        /* \"#utility.yul\":7693:7694   */\n      0x05\n        /* \"#utility.yul\":7689:7709   */\n      shr\n        /* \"#utility.yul\":7685:7724   */\n      sub\n        /* \"#utility.yul\":7750:7751   */\n      0x00\n        /* \"#utility.yul\":7768:7891   */\n    tag_254:\n        /* \"#utility.yul\":7782:7784   */\n      dup2\n        /* \"#utility.yul\":7779:7780   */\n      dup2\n        /* \"#utility.yul\":7776:7785   */\n      lt\n        /* \"#utility.yul\":7768:7891   */\n      iszero\n      tag_256\n      jumpi\n        /* \"#utility.yul\":7871:7872   */\n      0x00\n        /* \"#utility.yul\":7850:7869   */\n      dup4\n      dup3\n      add\n        /* \"#utility.yul\":7843:7873   */\n      sstore\n        /* \"#utility.yul\":7800:7801   */\n      0x01\n        /* \"#utility.yul\":7793:7802   */\n      add\n        /* \"#utility.yul\":7768:7891   */\n      jump(tag_254)\n    tag_256:\n        /* \"#utility.yul\":7772:7775   */\n      pop\n      pop\n      pop\n        /* \"#utility.yul\":7230:7921   */\n      pop\n      pop\n      pop\n      jump\t// out\n        /* \"#utility.yul\":8097:9392   */\n    tag_139:\n        /* \"#utility.yul\":8221:8224   */\n      dup2\n        /* \"#utility.yul\":8215:8225   */\n      mload\n        /* \"#utility.yul\":8248:8266   */\n      0xffffffffffffffff\n        /* \"#utility.yul\":8240:8246   */\n      dup2\n        /* \"#utility.yul\":8237:8267   */\n      gt\n        /* \"#utility.yul\":8234:8290   */\n      iszero\n      tag_260\n      jumpi\n        /* \"#utility.yul\":8270:8288   */\n      tag_260\n      tag_196\n      jump\t// in\n    tag_260:\n        /* \"#utility.yul\":8299:8395   */\n      tag_261\n        /* \"#utility.yul\":8388:8394   */\n      dup2\n        /* \"#utility.yul\":8348:8386   */\n      tag_262\n        /* \"#utility.yul\":8380:8384   */\n      dup5\n        /* \"#utility.yul\":8374:8385   */\n      sload\n        /* \"#utility.yul\":8348:8386   */\n      tag_99\n      jump\t// in\n    tag_262:\n        /* \"#utility.yul\":8342:8346   */\n      dup5\n        /* \"#utility.yul\":8299:8395   */\n      tag_199\n      jump\t// in\n    tag_261:\n        /* \"#utility.yul\":8444:8448   */\n      0x20\n        /* \"#utility.yul\":8475:8477   */\n      0x1f\n        /* \"#utility.yul\":8464:8478   */\n      dup3\n      gt\n        /* \"#utility.yul\":8492:8493   */\n      0x01\n        /* \"#utility.yul\":8487:9135   */\n      dup2\n      eq\n      tag_264\n      jumpi\n        /* \"#utility.yul\":9179:9180   */\n      0x00\n        /* \"#utility.yul\":9196:9202   */\n      dup4\n        /* \"#utility.yul\":9193:9282   */\n      iszero\n      tag_265\n      jumpi\n      pop\n        /* \"#utility.yul\":9248:9267   */\n      dup5\n      dup3\n      add\n        /* \"#utility.yul\":9242:9268   */\n      mload\n        /* \"#utility.yul\":9193:9282   */\n    tag_265:\n      not(0x00)\n        /* \"#utility.yul\":8054:8055   */\n      0x03\n        /* \"#utility.yul\":8050:8061   */\n      dup6\n      swap1\n      shl\n        /* \"#utility.yul\":8046:8070   */\n      shr\n        /* \"#utility.yul\":8042:8071   */\n      not\n        /* \"#utility.yul\":8032:8072   */\n      and\n        /* \"#utility.yul\":8078:8079   */\n      0x01\n        /* \"#utility.yul\":8074:8085   */\n      dup5\n      swap1\n      shl\n        /* \"#utility.yul\":8029:8086   */\n      or\n        /* \"#utility.yul\":9295:9376   */\n      dup5\n      sstore\n        /* \"#utility.yul\":8457:9386   */\n      jump(tag_263)\n        /* \"#utility.yul\":8487:9135   */\n    tag_264:\n        /* \"#utility.yul\":7177:7178   */\n      0x00\n        /* \"#utility.yul\":7170:7184   */\n      dup5\n      dup2\n      mstore\n        /* \"#utility.yul\":7214:7218   */\n      0x20\n        /* \"#utility.yul\":7201:7219   */\n      dup2\n      keccak256\n      not(0x1f)\n        /* \"#utility.yul\":8523:8543   */\n      dup6\n      and\n      swap2\n        /* \"#utility.yul\":8640:8862   */\n    tag_268:\n        /* \"#utility.yul\":8654:8661   */\n      dup3\n        /* \"#utility.yul\":8651:8652   */\n      dup2\n        /* \"#utility.yul\":8648:8662   */\n      lt\n        /* \"#utility.yul\":8640:8862   */\n      iszero\n      tag_270\n      jumpi\n        /* \"#utility.yul\":8736:8755   */\n      dup8\n      dup6\n      add\n        /* \"#utility.yul\":8730:8756   */\n      mload\n        /* \"#utility.yul\":8715:8757   */\n      dup3\n      sstore\n        /* \"#utility.yul\":8843:8847   */\n      0x20\n        /* \"#utility.yul\":8828:8848   */\n      swap5\n      dup6\n      add\n      swap5\n        /* \"#utility.yul\":8796:8797   */\n      0x01\n        /* \"#utility.yul\":8784:8798   */\n      swap1\n      swap3\n      add\n      swap2\n        /* \"#utility.yul\":8670:8682   */\n      add\n        /* \"#utility.yul\":8640:8862   */\n      jump(tag_268)\n    tag_270:\n        /* \"#utility.yul\":8644:8647   */\n      pop\n        /* \"#utility.yul\":8890:8896   */\n      dup5\n        /* \"#utility.yul\":8881:8888   */\n      dup3\n        /* \"#utility.yul\":8878:8897   */\n      lt\n        /* \"#utility.yul\":8875:9076   */\n      iszero\n      tag_271\n      jumpi\n        /* \"#utility.yul\":8951:8970   */\n      dup7\n      dup5\n      add\n        /* \"#utility.yul\":8945:8971   */\n      mload\n      not(0x00)\n        /* \"#utility.yul\":9034:9035   */\n      0x03\n        /* \"#utility.yul\":9030:9044   */\n      dup8\n      swap1\n      shl\n        /* \"#utility.yul\":9046:9049   */\n      0xf8\n        /* \"#utility.yul\":9026:9050   */\n      and\n        /* \"#utility.yul\":9022:9059   */\n      shr\n        /* \"#utility.yul\":9018:9060   */\n      not\n        /* \"#utility.yul\":9003:9061   */\n      and\n        /* \"#utility.yul\":8988:9062   */\n      dup2\n      sstore\n        /* \"#utility.yul\":8875:9076   */\n    tag_271:\n      pop\n      pop\n        /* \"#utility.yul\":9122:9123   */\n      0x01\n        /* \"#utility.yul\":9113:9119   */\n      dup4\n        /* \"#utility.yul\":9110:9111   */\n      0x01\n        /* \"#utility.yul\":9106:9120   */\n      shl\n        /* \"#utility.yul\":9102:9124   */\n      add\n        /* \"#utility.yul\":9096:9100   */\n      dup5\n        /* \"#utility.yul\":9089:9125   */\n      sstore\n        /* \"#utility.yul\":8457:9386   */\n    tag_263:\n      pop\n      pop\n      pop\n        /* \"#utility.yul\":8097:9392   */\n      pop\n      pop\n      jump\t// out\n        /* \"#utility.yul\":9397:9685   */\n    tag_141:\n        /* \"#utility.yul\":9572:9578   */\n      dup3\n        /* \"#utility.yul\":9561:9570   */\n      dup2\n        /* \"#utility.yul\":9554:9579   */\n      mstore\n        /* \"#utility.yul\":9615:9617   */\n      0x40\n        /* \"#utility.yul\":9610:9612   */\n      0x20\n        /* \"#utility.yul\":9599:9608   */\n      dup3\n        /* \"#utility.yul\":9595:9613   */\n      add\n        /* \"#utility.yul\":9588:9618   */\n      mstore\n        /* \"#utility.yul\":9535:9539   */\n      0x00\n        /* \"#utility.yul\":9635:9679   */\n      tag_273\n        /* \"#utility.yul\":9675:9677   */\n      0x40\n        /* \"#utility.yul\":9664:9673   */\n      dup4\n        /* \"#utility.yul\":9660:9678   */\n      add\n        /* \"#utility.yul\":9652:9658   */\n      dup5\n        /* \"#utility.yul\":9635:9679   */\n      tag_195\n      jump\t// in\n    tag_273:\n        /* \"#utility.yul\":9627:9679   */\n      swap5\n        /* \"#utility.yul\":9397:9685   */\n      swap4\n      pop\n      pop\n      pop\n      pop\n      jump\t// out\n        /* \"#utility.yul\":10095:10890   */\n    tag_166:\n        /* \"#utility.yul\":10221:10224   */\n      0x00\n        /* \"#utility.yul\":10250:10251   */\n      0x00\n        /* \"#utility.yul\":10283:10289   */\n      dup4\n        /* \"#utility.yul\":10277:10290   */\n      sload\n        /* \"#utility.yul\":10313:10349   */\n      tag_276\n        /* \"#utility.yul\":10339:10348   */\n      dup2\n        /* \"#utility.yul\":10313:10349   */\n      tag_99\n      jump\t// in\n    tag_276:\n        /* \"#utility.yul\":10380:10381   */\n      0x01\n        /* \"#utility.yul\":10365:10382   */\n      dup3\n      and\n        /* \"#utility.yul\":10391:10524   */\n      dup1\n      iszero\n      tag_278\n      jumpi\n        /* \"#utility.yul\":10538:10539   */\n      0x01\n        /* \"#utility.yul\":10533:10865   */\n      dup2\n      eq\n      tag_279\n      jumpi\n        /* \"#utility.yul\":10358:10865   */\n      jump(tag_277)\n        /* \"#utility.yul\":10391:10524   */\n    tag_278:\n      not(0xff)\n        /* \"#utility.yul\":10424:10448   */\n      dup4\n      and\n        /* \"#utility.yul\":10412:10449   */\n      dup7\n      mstore\n        /* \"#utility.yul\":10497:10511   */\n      dup2\n      iszero\n        /* \"#utility.yul\":10490:10512   */\n      iszero\n        /* \"#utility.yul\":10478:10513   */\n      dup3\n      mul\n        /* \"#utility.yul\":10469:10514   */\n      dup7\n      add\n      swap4\n      pop\n        /* \"#utility.yul\":10391:10524   */\n      jump(tag_277)\n        /* \"#utility.yul\":10533:10865   */\n    tag_279:\n        /* \"#utility.yul\":10564:10570   */\n      dup7\n        /* \"#utility.yul\":10561:10562   */\n      0x00\n        /* \"#utility.yul\":10554:10571   */\n      mstore\n        /* \"#utility.yul\":10612:10616   */\n      0x20\n        /* \"#utility.yul\":10609:10610   */\n      0x00\n        /* \"#utility.yul\":10599:10617   */\n      keccak256\n        /* \"#utility.yul\":10639:10640   */\n      0x00\n        /* \"#utility.yul\":10653:10819   */\n    tag_280:\n        /* \"#utility.yul\":10667:10673   */\n      dup4\n        /* \"#utility.yul\":10664:10665   */\n      dup2\n        /* \"#utility.yul\":10661:10674   */\n      lt\n        /* \"#utility.yul\":10653:10819   */\n      iszero\n      tag_282\n      jumpi\n        /* \"#utility.yul\":10747:10761   */\n      dup2\n      sload\n        /* \"#utility.yul\":10734:10745   */\n      dup9\n      dup3\n      add\n        /* \"#utility.yul\":10727:10762   */\n      mstore\n        /* \"#utility.yul\":10803:10804   */\n      0x01\n        /* \"#utility.yul\":10790:10805   */\n      swap1\n      swap2\n      add\n      swap1\n        /* \"#utility.yul\":10689:10693   */\n      0x20\n        /* \"#utility.yul\":10682:10694   */\n      add\n        /* \"#utility.yul\":10653:10819   */\n      jump(tag_280)\n    tag_282:\n        /* \"#utility.yul\":10657:10660   */\n      pop\n      pop\n        /* \"#utility.yul\":10848:10854   */\n      dup2\n        /* \"#utility.yul\":10843:10846   */\n      dup7\n        /* \"#utility.yul\":10839:10855   */\n      add\n        /* \"#utility.yul\":10832:10855   */\n      swap4\n      pop\n        /* \"#utility.yul\":10358:10865   */\n    tag_277:\n      pop\n        /* \"#utility.yul\":10881:10884   */\n      swap2\n      swap6\n        /* \"#utility.yul\":10095:10890   */\n      swap5\n      pop\n      pop\n      pop\n      pop\n      pop\n      jump\t// out\n\n    auxdata: 0xa26469706673582212206c1d1b631afd1280b17c3eeaab2474b190dbb808b08022cd90c5893368438d5364736f6c63430008220033\n}\n",
				"bytecode": {
					"linkReferences": {},
					"object": "608060405234801561000f575f5ffd5b5060405161144938038061144983398101604081905261002e916102d9565b60017f9b779b17422d0df92223018b32b4d1fa46e071723d6817e2486d003becc55f005581516100b85760405162461bcd60e51b815260206004820152602a60248201527f504e4a432054726561737572793a204f776e657273206c6973742063616e6e6f6044820152697420626520656d70747960b01b60648201526084015b60405180910390fd5b5f811180156100c8575081518111155b6101275760405162461bcd60e51b815260206004820152602a60248201527f504e4a432054726561737572793a20496e76616c6964207369676e6174757265604482015269081d1a1c995cda1bdb1960b21b60648201526084016100af565b5f5b82518110156102a0575f838281518110610145576101456103ad565b602002602001015190505f6001600160a01b0316816001600160a01b0316036101bc5760405162461bcd60e51b8152602060048201526024808201527f504e4a432054726561737572793a205a65726f2061646472657373206465746560448201526318dd195960e21b60648201526084016100af565b6001600160a01b0381165f9081526001602052604090205460ff16156102385760405162461bcd60e51b815260206004820152602b60248201527f504e4a432054726561737572793a204475706c6963617465206f776e6572732060448201526a1b9bdd08185b1b1bddd95960aa1b60648201526084016100af565b6001600160a01b03165f8181526001602081905260408220805460ff191682179055815480820183559180527f290decd9548b62a8d60345a988386fc84ba6bc95484008f6362f93160ef3e56390910180546001600160a01b03191690921790915501610129565b50600255506103c1565b634e487b7160e01b5f52604160045260245ffd5b80516001600160a01b03811681146102d4575f5ffd5b919050565b5f5f604083850312156102ea575f5ffd5b82516001600160401b038111156102ff575f5ffd5b8301601f8101851361030f575f5ffd5b80516001600160401b03811115610328576103286102aa565b604051600582901b90603f8201601f191681016001600160401b0381118282101715610356576103566102aa565b604052918252602081840181019290810188841115610373575f5ffd5b6020850194505b838510156103995761038b856102be565b81526020948501940161037a565b506020969096015195979596505050505050565b634e487b7160e01b5f52603260045260245ffd5b61107b806103ce5f395ff3fe608060405260043610610092575f3560e01c80639ace38c2116100575780639ace38c214610194578063a0e67e2b146101c4578063c01a8c84146101e5578063c642747414610204578063ee22610b14610223575f5ffd5b8063025e7c271461009d57806320ea8d86146100d95780632f54bf6e146100fa57806380f59a65146101385780638d06804314610171575f5ffd5b3661009957005b5f5ffd5b3480156100a8575f5ffd5b506100bc6100b7366004610b55565b610242565b6040516001600160a01b0390911681526020015b60405180910390f35b3480156100e4575f5ffd5b506100f86100f3366004610b55565b610269565b005b348015610105575f5ffd5b50610128610114366004610b87565b60016020525f908152604090205460ff1681565b60405190151581526020016100d0565b348015610143575f5ffd5b50610128610152366004610ba7565b600360209081525f928352604080842090915290825290205460ff1681565b34801561017c575f5ffd5b5061018660025481565b6040519081526020016100d0565b34801561019f575f5ffd5b506101b36101ae366004610b55565b61040a565b6040516100d0959493929190610bff565b3480156101cf575f5ffd5b506101d86104df565b6040516100d09190610c39565b3480156101f0575f5ffd5b506100f86101ff366004610b55565b61053e565b34801561020f575f5ffd5b506100f861021e366004610c98565b61070f565b34801561022e575f5ffd5b506100f861023d366004610b55565b610896565b5f8181548110610250575f80fd5b5f918252602090912001546001600160a01b0316905081565b335f9081526001602052604090205460ff166102a05760405162461bcd60e51b815260040161029790610d64565b60405180910390fd5b600454819081106102c35760405162461bcd60e51b815260040161029790610d9b565b81600481815481106102d7576102d7610dd0565b5f91825260209091206003600590920201015460ff161561030a5760405162461bcd60e51b815260040161029790610de4565b5f83815260036020908152604080832033845290915290205460ff166103845760405162461bcd60e51b815260206004820152602960248201527f504e4a432054726561737572793a205478206e6f7420636f6e6669726d656420604482015268313c9031b0b63632b960b91b6064820152608401610297565b60016004848154811061039957610399610dd0565b905f5260205f2090600502016004015f8282546103b69190610e3b565b90915550505f838152600360209081526040808320338085529252808320805460ff1916905551909185917f4cd471041f6b9ff47536a54a3d3ab62d0fa9dd5e36c0418b294b1673acb318819190a3505050565b60048181548110610419575f80fd5b5f9182526020909120600590910201805460018201546002830180546001600160a01b03909316945090929161044e90610e54565b80601f016020809104026020016040519081016040528092919081815260200182805461047a90610e54565b80156104c55780601f1061049c576101008083540402835291602001916104c5565b820191905f5260205f20905b8154815290600101906020018083116104a857829003601f168201915b505050506003830154600490930154919260ff1691905085565b60605f80548060200260200160405190810160405280929190818152602001828054801561053457602002820191905f5260205f20905b81546001600160a01b03168152600190910190602001808311610516575b5050505050905090565b335f9081526001602052604090205460ff1661056c5760405162461bcd60e51b815260040161029790610d64565b6004548190811061058f5760405162461bcd60e51b815260040161029790610d9b565b81600481815481106105a3576105a3610dd0565b5f91825260209091206003600590920201015460ff16156105d65760405162461bcd60e51b815260040161029790610de4565b5f83815260036020908152604080832033845290915290205460ff16156106525760405162461bcd60e51b815260206004820152602a60248201527f504e4a432054726561737572793a20416c726561647920636f6e6669726d656460448201526910313c9031b0b63632b960b11b6064820152608401610297565b60016004848154811061066757610667610dd0565b905f5260205f2090600502016004015f8282546106849190610e8c565b90915550505f838152600360209081526040808320338085529252808320805460ff1916600117905551909185917f15c2f311c9e0f53b50388279894aeff029a3457884a6601e924fca879e12adcc9190a3600254600484815481106106ec576106ec610dd0565b905f5260205f209060050201600401541061070a5761070a83610896565b505050565b335f9081526001602052604090205460ff1661073d5760405162461bcd60e51b815260040161029790610d64565b600480546040805160a0810182526001600160a01b038781168252602082018781529282018681525f60608401819052608084018190526001860187559590955281517f8a35acfbc15ff81a39ae7d344fd709f28e8600b4aa8c65c6b64bfe7fe36bd19b6005860290810180546001600160a01b0319169290931691909117825592517f8a35acfbc15ff81a39ae7d344fd709f28e8600b4aa8c65c6b64bfe7fe36bd19c84015593519293909290917f8a35acfbc15ff81a39ae7d344fd709f28e8600b4aa8c65c6b64bfe7fe36bd19d01906108199082610ef5565b50606082015160038201805460ff19169115159190911790556080909101516004909101556040516001600160a01b03851690339083907f2ecf8c4571be1f8a0b1e6feaa711128f3f8038e97869aa59d0f595e21f50eaa09061087f9088908890610fb4565b60405180910390a46108908161053e565b50505050565b335f9081526001602052604090205460ff166108c45760405162461bcd60e51b815260040161029790610d64565b600454819081106108e75760405162461bcd60e51b815260040161029790610d9b565b81600481815481106108fb576108fb610dd0565b5f91825260209091206003600590920201015460ff161561092e5760405162461bcd60e51b815260040161029790610de4565b610936610ae3565b5f6004848154811061094a5761094a610dd0565b905f5260205f2090600502019050600254816004015410156109ba5760405162461bcd60e51b8152602060048201526024808201527f504e4a432054726561737572793a20436f6e73656e737573206e6f742072656160448201526318da195960e21b6064820152608401610297565b60038101805460ff191660019081179091558154908201546040515f926001600160a01b031691906109f0906002860190610fd4565b5f6040518083038185875af1925050503d805f8114610a2a576040519150601f19603f3d011682016040523d82523d5f602084013e610a2f565b606091505b5050905080610a8c5760405162461bcd60e51b8152602060048201526024808201527f504e4a432054726561737572793a2043616c6c20657865637574696f6e2066616044820152631a5b195960e21b6064820152608401610297565b604051339086907fefc13bdcf58f184ea7cae26b499fb33b539e01d0197cea456f3ada289b8cf19b905f90a3505061070a60017f9b779b17422d0df92223018b32b4d1fa46e071723d6817e2486d003becc55f0055565b610aeb610b11565b60027f9b779b17422d0df92223018b32b4d1fa46e071723d6817e2486d003becc55f0055565b7f9b779b17422d0df92223018b32b4d1fa46e071723d6817e2486d003becc55f0054600203610b5357604051633ee5aeb560e01b815260040160405180910390fd5b565b5f60208284031215610b65575f5ffd5b5035919050565b80356001600160a01b0381168114610b82575f5ffd5b919050565b5f60208284031215610b97575f5ffd5b610ba082610b6c565b9392505050565b5f5f60408385031215610bb8575f5ffd5b82359150610bc860208401610b6c565b90509250929050565b5f81518084528060208401602086015e5f602082860101526020601f19601f83011685010191505092915050565b60018060a01b038616815284602082015260a060408201525f610c2560a0830186610bd1565b931515606083015250608001529392505050565b602080825282518282018190525f918401906040840190835b81811015610c795783516001600160a01b0316835260209384019390920191600101610c52565b509095945050505050565b634e487b7160e01b5f52604160045260245ffd5b5f5f5f60608486031215610caa575f5ffd5b610cb384610b6c565b925060208401359150604084013567ffffffffffffffff811115610cd5575f5ffd5b8401601f81018613610ce5575f5ffd5b803567ffffffffffffffff811115610cff57610cff610c84565b604051601f8201601f19908116603f0116810167ffffffffffffffff81118282101715610d2e57610d2e610c84565b604052818152828201602001881015610d45575f5ffd5b816020840160208301375f602083830101528093505050509250925092565b6020808252601c908201527f504e4a432054726561737572793a204163636573732064656e69656400000000604082015260600190565b6020808252818101527f504e4a432054726561737572793a20547820646f6573206e6f74206578697374604082015260600190565b634e487b7160e01b5f52603260045260245ffd5b60208082526023908201527f504e4a432054726561737572793a20547820616c72656164792070726f6365736040820152621cd95960ea1b606082015260800190565b634e487b7160e01b5f52601160045260245ffd5b81810381811115610e4e57610e4e610e27565b92915050565b600181811c90821680610e6857607f821691505b602082108103610e8657634e487b7160e01b5f52602260045260245ffd5b50919050565b80820180821115610e4e57610e4e610e27565b601f82111561070a578282111561070a57805f5260205f20601f840160051c6020851015610eca57505f5b90810190601f840160051c035f5b81811015610eed575f83820155600101610ed8565b505050505050565b815167ffffffffffffffff811115610f0f57610f0f610c84565b610f2381610f1d8454610e54565b84610e9f565b6020601f821160018114610f55575f8315610f3e5750848201515b5f19600385901b1c1916600184901b178455610fad565b5f84815260208120601f198516915b82811015610f845787850151825560209485019460019092019101610f64565b5084821015610fa157868401515f19600387901b60f8161c191681555b505060018360011b0184555b5050505050565b828152604060208201525f610fcc6040830184610bd1565b949350505050565b5f5f8354610fe181610e54565b600182168015610ff8576001811461100d5761103a565b60ff198316865281151582028601935061103a565b865f5260205f205f5b8381101561103257815488820152600190910190602001611016565b505081860193505b50919594505050505056fea26469706673582212206c1d1b631afd1280b17c3eeaab2474b190dbb808b08022cd90c5893368438d5364736f6c63430008220033",
					"opcodes": "PUSH1 0x80 PUSH1 0x40 MSTORE CALLVALUE DUP1 ISZERO PUSH2 0xF JUMPI PUSH0 PUSH0 REVERT JUMPDEST POP PUSH1 0x40 MLOAD PUSH2 0x1449 CODESIZE SUB DUP1 PUSH2 0x1449 DUP4 CODECOPY DUP2 ADD PUSH1 0x40 DUP2 SWAP1 MSTORE PUSH2 0x2E SWAP2 PUSH2 0x2D9 JUMP JUMPDEST PUSH1 0x1 PUSH32 0x9B779B17422D0DF92223018B32B4D1FA46E071723D6817E2486D003BECC55F00 SSTORE DUP2 MLOAD PUSH2 0xB8 JUMPI PUSH1 0x40 MLOAD PUSH3 0x461BCD PUSH1 0xE5 SHL DUP2 MSTORE PUSH1 0x20 PUSH1 0x4 DUP3 ADD MSTORE PUSH1 0x2A PUSH1 0x24 DUP3 ADD MSTORE PUSH32 0x504E4A432054726561737572793A204F776E657273206C6973742063616E6E6F PUSH1 0x44 DUP3 ADD MSTORE PUSH10 0x7420626520656D707479 PUSH1 0xB0 SHL PUSH1 0x64 DUP3 ADD MSTORE PUSH1 0x84 ADD JUMPDEST PUSH1 0x40 MLOAD DUP1 SWAP2 SUB SWAP1 REVERT JUMPDEST PUSH0 DUP2 GT DUP1 ISZERO PUSH2 0xC8 JUMPI POP DUP2 MLOAD DUP2 GT ISZERO JUMPDEST PUSH2 0x127 JUMPI PUSH1 0x40 MLOAD PUSH3 0x461BCD PUSH1 0xE5 SHL DUP2 MSTORE PUSH1 0x20 PUSH1 0x4 DUP3 ADD MSTORE PUSH1 0x2A PUSH1 0x24 DUP3 ADD MSTORE PUSH32 0x504E4A432054726561737572793A20496E76616C6964207369676E6174757265 PUSH1 0x44 DUP3 ADD MSTORE PUSH10 0x81D1A1C995CDA1BDB19 PUSH1 0xB2 SHL PUSH1 0x64 DUP3 ADD MSTORE PUSH1 0x84 ADD PUSH2 0xAF JUMP JUMPDEST PUSH0 JUMPDEST DUP3 MLOAD DUP2 LT ISZERO PUSH2 0x2A0 JUMPI PUSH0 DUP4 DUP3 DUP2 MLOAD DUP2 LT PUSH2 0x145 JUMPI PUSH2 0x145 PUSH2 0x3AD JUMP JUMPDEST PUSH1 0x20 MUL PUSH1 0x20 ADD ADD MLOAD SWAP1 POP PUSH0 PUSH1 0x1 PUSH1 0x1 PUSH1 0xA0 SHL SUB AND DUP2 PUSH1 0x1 PUSH1 0x1 PUSH1 0xA0 SHL SUB AND SUB PUSH2 0x1BC JUMPI PUSH1 0x40 MLOAD PUSH3 0x461BCD PUSH1 0xE5 SHL DUP2 MSTORE PUSH1 0x20 PUSH1 0x4 DUP3 ADD MSTORE PUSH1 0x24 DUP1 DUP3 ADD MSTORE PUSH32 0x504E4A432054726561737572793A205A65726F20616464726573732064657465 PUSH1 0x44 DUP3 ADD MSTORE PUSH4 0x18DD1959 PUSH1 0xE2 SHL PUSH1 0x64 DUP3 ADD MSTORE PUSH1 0x84 ADD PUSH2 0xAF JUMP JUMPDEST PUSH1 0x1 PUSH1 0x1 PUSH1 0xA0 SHL SUB DUP2 AND PUSH0 SWAP1 DUP2 MSTORE PUSH1 0x1 PUSH1 0x20 MSTORE PUSH1 0x40 SWAP1 KECCAK256 SLOAD PUSH1 0xFF AND ISZERO PUSH2 0x238 JUMPI PUSH1 0x40 MLOAD PUSH3 0x461BCD PUSH1 0xE5 SHL DUP2 MSTORE PUSH1 0x20 PUSH1 0x4 DUP3 ADD MSTORE PUSH1 0x2B PUSH1 0x24 DUP3 ADD MSTORE PUSH32 0x504E4A432054726561737572793A204475706C6963617465206F776E65727320 PUSH1 0x44 DUP3 ADD MSTORE PUSH11 0x1B9BDD08185B1B1BDDD959 PUSH1 0xAA SHL PUSH1 0x64 DUP3 ADD MSTORE PUSH1 0x84 ADD PUSH2 0xAF JUMP JUMPDEST PUSH1 0x1 PUSH1 0x1 PUSH1 0xA0 SHL SUB AND PUSH0 DUP2 DUP2 MSTORE PUSH1 0x1 PUSH1 0x20 DUP2 SWAP1 MSTORE PUSH1 0x40 DUP3 KECCAK256 DUP1 SLOAD PUSH1 0xFF NOT AND DUP3 OR SWAP1 SSTORE DUP2 SLOAD DUP1 DUP3 ADD DUP4 SSTORE SWAP2 DUP1 MSTORE PUSH32 0x290DECD9548B62A8D60345A988386FC84BA6BC95484008F6362F93160EF3E563 SWAP1 SWAP2 ADD DUP1 SLOAD PUSH1 0x1 PUSH1 0x1 PUSH1 0xA0 SHL SUB NOT AND SWAP1 SWAP3 OR SWAP1 SWAP2 SSTORE ADD PUSH2 0x129 JUMP JUMPDEST POP PUSH1 0x2 SSTORE POP PUSH2 0x3C1 JUMP JUMPDEST PUSH4 0x4E487B71 PUSH1 0xE0 SHL PUSH0 MSTORE PUSH1 0x41 PUSH1 0x4 MSTORE PUSH1 0x24 PUSH0 REVERT JUMPDEST DUP1 MLOAD PUSH1 0x1 PUSH1 0x1 PUSH1 0xA0 SHL SUB DUP2 AND DUP2 EQ PUSH2 0x2D4 JUMPI PUSH0 PUSH0 REVERT JUMPDEST SWAP2 SWAP1 POP JUMP JUMPDEST PUSH0 PUSH0 PUSH1 0x40 DUP4 DUP6 SUB SLT ISZERO PUSH2 0x2EA JUMPI PUSH0 PUSH0 REVERT JUMPDEST DUP3 MLOAD PUSH1 0x1 PUSH1 0x1 PUSH1 0x40 SHL SUB DUP2 GT ISZERO PUSH2 0x2FF JUMPI PUSH0 PUSH0 REVERT JUMPDEST DUP4 ADD PUSH1 0x1F DUP2 ADD DUP6 SGT PUSH2 0x30F JUMPI PUSH0 PUSH0 REVERT JUMPDEST DUP1 MLOAD PUSH1 0x1 PUSH1 0x1 PUSH1 0x40 SHL SUB DUP2 GT ISZERO PUSH2 0x328 JUMPI PUSH2 0x328 PUSH2 0x2AA JUMP JUMPDEST PUSH1 0x40 MLOAD PUSH1 0x5 DUP3 SWAP1 SHL SWAP1 PUSH1 0x3F DUP3 ADD PUSH1 0x1F NOT AND DUP2 ADD PUSH1 0x1 PUSH1 0x1 PUSH1 0x40 SHL SUB DUP2 GT DUP3 DUP3 LT OR ISZERO PUSH2 0x356 JUMPI PUSH2 0x356 PUSH2 0x2AA JUMP JUMPDEST PUSH1 0x40 MSTORE SWAP2 DUP3 MSTORE PUSH1 0x20 DUP2 DUP5 ADD DUP2 ADD SWAP3 SWAP1 DUP2 ADD DUP9 DUP5 GT ISZERO PUSH2 0x373 JUMPI PUSH0 PUSH0 REVERT JUMPDEST PUSH1 0x20 DUP6 ADD SWAP5 POP JUMPDEST DUP4 DUP6 LT ISZERO PUSH2 0x399 JUMPI PUSH2 0x38B DUP6 PUSH2 0x2BE JUMP JUMPDEST DUP2 MSTORE PUSH1 0x20 SWAP5 DUP6 ADD SWAP5 ADD PUSH2 0x37A JUMP JUMPDEST POP PUSH1 0x20 SWAP7 SWAP1 SWAP7 ADD MLOAD SWAP6 SWAP8 SWAP6 SWAP7 POP POP POP POP POP POP JUMP JUMPDEST PUSH4 0x4E487B71 PUSH1 0xE0 SHL PUSH0 MSTORE PUSH1 0x32 PUSH1 0x4 MSTORE PUSH1 0x24 PUSH0 REVERT JUMPDEST PUSH2 0x107B DUP1 PUSH2 0x3CE PUSH0 CODECOPY PUSH0 RETURN INVALID PUSH1 0x80 PUSH1 0x40 MSTORE PUSH1 0x4 CALLDATASIZE LT PUSH2 0x92 JUMPI PUSH0 CALLDATALOAD PUSH1 0xE0 SHR DUP1 PUSH4 0x9ACE38C2 GT PUSH2 0x57 JUMPI DUP1 PUSH4 0x9ACE38C2 EQ PUSH2 0x194 JUMPI DUP1 PUSH4 0xA0E67E2B EQ PUSH2 0x1C4 JUMPI DUP1 PUSH4 0xC01A8C84 EQ PUSH2 0x1E5 JUMPI DUP1 PUSH4 0xC6427474 EQ PUSH2 0x204 JUMPI DUP1 PUSH4 0xEE22610B EQ PUSH2 0x223 JUMPI PUSH0 PUSH0 REVERT JUMPDEST DUP1 PUSH4 0x25E7C27 EQ PUSH2 0x9D JUMPI DUP1 PUSH4 0x20EA8D86 EQ PUSH2 0xD9 JUMPI DUP1 PUSH4 0x2F54BF6E EQ PUSH2 0xFA JUMPI DUP1 PUSH4 0x80F59A65 EQ PUSH2 0x138 JUMPI DUP1 PUSH4 0x8D068043 EQ PUSH2 0x171 JUMPI PUSH0 PUSH0 REVERT JUMPDEST CALLDATASIZE PUSH2 0x99 JUMPI STOP JUMPDEST PUSH0 PUSH0 REVERT JUMPDEST CALLVALUE DUP1 ISZERO PUSH2 0xA8 JUMPI PUSH0 PUSH0 REVERT JUMPDEST POP PUSH2 0xBC PUSH2 0xB7 CALLDATASIZE PUSH1 0x4 PUSH2 0xB55 JUMP JUMPDEST PUSH2 0x242 JUMP JUMPDEST PUSH1 0x40 MLOAD PUSH1 0x1 PUSH1 0x1 PUSH1 0xA0 SHL SUB SWAP1 SWAP2 AND DUP2 MSTORE PUSH1 0x20 ADD JUMPDEST PUSH1 0x40 MLOAD DUP1 SWAP2 SUB SWAP1 RETURN JUMPDEST CALLVALUE DUP1 ISZERO PUSH2 0xE4 JUMPI PUSH0 PUSH0 REVERT JUMPDEST POP PUSH2 0xF8 PUSH2 0xF3 CALLDATASIZE PUSH1 0x4 PUSH2 0xB55 JUMP JUMPDEST PUSH2 0x269 JUMP JUMPDEST STOP JUMPDEST CALLVALUE DUP1 ISZERO PUSH2 0x105 JUMPI PUSH0 PUSH0 REVERT JUMPDEST POP PUSH2 0x128 PUSH2 0x114 CALLDATASIZE PUSH1 0x4 PUSH2 0xB87 JUMP JUMPDEST PUSH1 0x1 PUSH1 0x20 MSTORE PUSH0 SWAP1 DUP2 MSTORE PUSH1 0x40 SWAP1 KECCAK256 SLOAD PUSH1 0xFF AND DUP2 JUMP JUMPDEST PUSH1 0x40 MLOAD SWAP1 ISZERO ISZERO DUP2 MSTORE PUSH1 0x20 ADD PUSH2 0xD0 JUMP JUMPDEST CALLVALUE DUP1 ISZERO PUSH2 0x143 JUMPI PUSH0 PUSH0 REVERT JUMPDEST POP PUSH2 0x128 PUSH2 0x152 CALLDATASIZE PUSH1 0x4 PUSH2 0xBA7 JUMP JUMPDEST PUSH1 0x3 PUSH1 0x20 SWAP1 DUP2 MSTORE PUSH0 SWAP3 DUP4 MSTORE PUSH1 0x40 DUP1 DUP5 KECCAK256 SWAP1 SWAP2 MSTORE SWAP1 DUP3 MSTORE SWAP1 KECCAK256 SLOAD PUSH1 0xFF AND DUP2 JUMP JUMPDEST CALLVALUE DUP1 ISZERO PUSH2 0x17C JUMPI PUSH0 PUSH0 REVERT JUMPDEST POP PUSH2 0x186 PUSH1 0x2 SLOAD DUP2 JUMP JUMPDEST PUSH1 0x40 MLOAD SWAP1 DUP2 MSTORE PUSH1 0x20 ADD PUSH2 0xD0 JUMP JUMPDEST CALLVALUE DUP1 ISZERO PUSH2 0x19F JUMPI PUSH0 PUSH0 REVERT JUMPDEST POP PUSH2 0x1B3 PUSH2 0x1AE CALLDATASIZE PUSH1 0x4 PUSH2 0xB55 JUMP JUMPDEST PUSH2 0x40A JUMP JUMPDEST PUSH1 0x40 MLOAD PUSH2 0xD0 SWAP6 SWAP5 SWAP4 SWAP3 SWAP2 SWAP1 PUSH2 0xBFF JUMP JUMPDEST CALLVALUE DUP1 ISZERO PUSH2 0x1CF JUMPI PUSH0 PUSH0 REVERT JUMPDEST POP PUSH2 0x1D8 PUSH2 0x4DF JUMP JUMPDEST PUSH1 0x40 MLOAD PUSH2 0xD0 SWAP2 SWAP1 PUSH2 0xC39 JUMP JUMPDEST CALLVALUE DUP1 ISZERO PUSH2 0x1F0 JUMPI PUSH0 PUSH0 REVERT JUMPDEST POP PUSH2 0xF8 PUSH2 0x1FF CALLDATASIZE PUSH1 0x4 PUSH2 0xB55 JUMP JUMPDEST PUSH2 0x53E JUMP JUMPDEST CALLVALUE DUP1 ISZERO PUSH2 0x20F JUMPI PUSH0 PUSH0 REVERT JUMPDEST POP PUSH2 0xF8 PUSH2 0x21E CALLDATASIZE PUSH1 0x4 PUSH2 0xC98 JUMP JUMPDEST PUSH2 0x70F JUMP JUMPDEST CALLVALUE DUP1 ISZERO PUSH2 0x22E JUMPI PUSH0 PUSH0 REVERT JUMPDEST POP PUSH2 0xF8 PUSH2 0x23D CALLDATASIZE PUSH1 0x4 PUSH2 0xB55 JUMP JUMPDEST PUSH2 0x896 JUMP JUMPDEST PUSH0 DUP2 DUP2 SLOAD DUP2 LT PUSH2 0x250 JUMPI PUSH0 DUP1 REVERT JUMPDEST PUSH0 SWAP2 DUP3 MSTORE PUSH1 0x20 SWAP1 SWAP2 KECCAK256 ADD SLOAD PUSH1 0x1 PUSH1 0x1 PUSH1 0xA0 SHL SUB AND SWAP1 POP DUP2 JUMP JUMPDEST CALLER PUSH0 SWAP1 DUP2 MSTORE PUSH1 0x1 PUSH1 0x20 MSTORE PUSH1 0x40 SWAP1 KECCAK256 SLOAD PUSH1 0xFF AND PUSH2 0x2A0 JUMPI PUSH1 0x40 MLOAD PUSH3 0x461BCD PUSH1 0xE5 SHL DUP2 MSTORE PUSH1 0x4 ADD PUSH2 0x297 SWAP1 PUSH2 0xD64 JUMP JUMPDEST PUSH1 0x40 MLOAD DUP1 SWAP2 SUB SWAP1 REVERT JUMPDEST PUSH1 0x4 SLOAD DUP2 SWAP1 DUP2 LT PUSH2 0x2C3 JUMPI PUSH1 0x40 MLOAD PUSH3 0x461BCD PUSH1 0xE5 SHL DUP2 MSTORE PUSH1 0x4 ADD PUSH2 0x297 SWAP1 PUSH2 0xD9B JUMP JUMPDEST DUP2 PUSH1 0x4 DUP2 DUP2 SLOAD DUP2 LT PUSH2 0x2D7 JUMPI PUSH2 0x2D7 PUSH2 0xDD0 JUMP JUMPDEST PUSH0 SWAP2 DUP3 MSTORE PUSH1 0x20 SWAP1 SWAP2 KECCAK256 PUSH1 0x3 PUSH1 0x5 SWAP1 SWAP3 MUL ADD ADD SLOAD PUSH1 0xFF AND ISZERO PUSH2 0x30A JUMPI PUSH1 0x40 MLOAD PUSH3 0x461BCD PUSH1 0xE5 SHL DUP2 MSTORE PUSH1 0x4 ADD PUSH2 0x297 SWAP1 PUSH2 0xDE4 JUMP JUMPDEST PUSH0 DUP4 DUP2 MSTORE PUSH1 0x3 PUSH1 0x20 SWAP1 DUP2 MSTORE PUSH1 0x40 DUP1 DUP4 KECCAK256 CALLER DUP5 MSTORE SWAP1 SWAP2 MSTORE SWAP1 KECCAK256 SLOAD PUSH1 0xFF AND PUSH2 0x384 JUMPI PUSH1 0x40 MLOAD PUSH3 0x461BCD PUSH1 0xE5 SHL DUP2 MSTORE PUSH1 0x20 PUSH1 0x4 DUP3 ADD MSTORE PUSH1 0x29 PUSH1 0x24 DUP3 ADD MSTORE PUSH32 0x504E4A432054726561737572793A205478206E6F7420636F6E6669726D656420 PUSH1 0x44 DUP3 ADD MSTORE PUSH9 0x313C9031B0B63632B9 PUSH1 0xB9 SHL PUSH1 0x64 DUP3 ADD MSTORE PUSH1 0x84 ADD PUSH2 0x297 JUMP JUMPDEST PUSH1 0x1 PUSH1 0x4 DUP5 DUP2 SLOAD DUP2 LT PUSH2 0x399 JUMPI PUSH2 0x399 PUSH2 0xDD0 JUMP JUMPDEST SWAP1 PUSH0 MSTORE PUSH1 0x20 PUSH0 KECCAK256 SWAP1 PUSH1 0x5 MUL ADD PUSH1 0x4 ADD PUSH0 DUP3 DUP3 SLOAD PUSH2 0x3B6 SWAP2 SWAP1 PUSH2 0xE3B JUMP JUMPDEST SWAP1 SWAP2 SSTORE POP POP PUSH0 DUP4 DUP2 MSTORE PUSH1 0x3 PUSH1 0x20 SWAP1 DUP2 MSTORE PUSH1 0x40 DUP1 DUP4 KECCAK256 CALLER DUP1 DUP6 MSTORE SWAP3 MSTORE DUP1 DUP4 KECCAK256 DUP1 SLOAD PUSH1 0xFF NOT AND SWAP1 SSTORE MLOAD SWAP1 SWAP2 DUP6 SWAP2 PUSH32 0x4CD471041F6B9FF47536A54A3D3AB62D0FA9DD5E36C0418B294B1673ACB31881 SWAP2 SWAP1 LOG3 POP POP POP JUMP JUMPDEST PUSH1 0x4 DUP2 DUP2 SLOAD DUP2 LT PUSH2 0x419 JUMPI PUSH0 DUP1 REVERT JUMPDEST PUSH0 SWAP2 DUP3 MSTORE PUSH1 0x20 SWAP1 SWAP2 KECCAK256 PUSH1 0x5 SWAP1 SWAP2 MUL ADD DUP1 SLOAD PUSH1 0x1 DUP3 ADD SLOAD PUSH1 0x2 DUP4 ADD DUP1 SLOAD PUSH1 0x1 PUSH1 0x1 PUSH1 0xA0 SHL SUB SWAP1 SWAP4 AND SWAP5 POP SWAP1 SWAP3 SWAP2 PUSH2 0x44E SWAP1 PUSH2 0xE54 JUMP JUMPDEST DUP1 PUSH1 0x1F ADD PUSH1 0x20 DUP1 SWAP2 DIV MUL PUSH1 0x20 ADD PUSH1 0x40 MLOAD SWAP1 DUP2 ADD PUSH1 0x40 MSTORE DUP1 SWAP3 SWAP2 SWAP1 DUP2 DUP2 MSTORE PUSH1 0x20 ADD DUP3 DUP1 SLOAD PUSH2 0x47A SWAP1 PUSH2 0xE54 JUMP JUMPDEST DUP1 ISZERO PUSH2 0x4C5 JUMPI DUP1 PUSH1 0x1F LT PUSH2 0x49C JUMPI PUSH2 0x100 DUP1 DUP4 SLOAD DIV MUL DUP4 MSTORE SWAP2 PUSH1 0x20 ADD SWAP2 PUSH2 0x4C5 JUMP JUMPDEST DUP3 ADD SWAP2 SWAP1 PUSH0 MSTORE PUSH1 0x20 PUSH0 KECCAK256 SWAP1 JUMPDEST DUP2 SLOAD DUP2 MSTORE SWAP1 PUSH1 0x1 ADD SWAP1 PUSH1 0x20 ADD DUP1 DUP4 GT PUSH2 0x4A8 JUMPI DUP3 SWAP1 SUB PUSH1 0x1F AND DUP3 ADD SWAP2 JUMPDEST POP POP POP POP PUSH1 0x3 DUP4 ADD SLOAD PUSH1 0x4 SWAP1 SWAP4 ADD SLOAD SWAP2 SWAP3 PUSH1 0xFF AND SWAP2 SWAP1 POP DUP6 JUMP JUMPDEST PUSH1 0x60 PUSH0 DUP1 SLOAD DUP1 PUSH1 0x20 MUL PUSH1 0x20 ADD PUSH1 0x40 MLOAD SWAP1 DUP2 ADD PUSH1 0x40 MSTORE DUP1 SWAP3 SWAP2 SWAP1 DUP2 DUP2 MSTORE PUSH1 0x20 ADD DUP3 DUP1 SLOAD DUP1 ISZERO PUSH2 0x534 JUMPI PUSH1 0x20 MUL DUP3 ADD SWAP2 SWAP1 PUSH0 MSTORE PUSH1 0x20 PUSH0 KECCAK256 SWAP1 JUMPDEST DUP2 SLOAD PUSH1 0x1 PUSH1 0x1 PUSH1 0xA0 SHL SUB AND DUP2 MSTORE PUSH1 0x1 SWAP1 SWAP2 ADD SWAP1 PUSH1 0x20 ADD DUP1 DUP4 GT PUSH2 0x516 JUMPI JUMPDEST POP POP POP POP POP SWAP1 POP SWAP1 JUMP JUMPDEST CALLER PUSH0 SWAP1 DUP2 MSTORE PUSH1 0x1 PUSH1 0x20 MSTORE PUSH1 0x40 SWAP1 KECCAK256 SLOAD PUSH1 0xFF AND PUSH2 0x56C JUMPI PUSH1 0x40 MLOAD PUSH3 0x461BCD PUSH1 0xE5 SHL DUP2 MSTORE PUSH1 0x4 ADD PUSH2 0x297 SWAP1 PUSH2 0xD64 JUMP JUMPDEST PUSH1 0x4 SLOAD DUP2 SWAP1 DUP2 LT PUSH2 0x58F JUMPI PUSH1 0x40 MLOAD PUSH3 0x461BCD PUSH1 0xE5 SHL DUP2 MSTORE PUSH1 0x4 ADD PUSH2 0x297 SWAP1 PUSH2 0xD9B JUMP JUMPDEST DUP2 PUSH1 0x4 DUP2 DUP2 SLOAD DUP2 LT PUSH2 0x5A3 JUMPI PUSH2 0x5A3 PUSH2 0xDD0 JUMP JUMPDEST PUSH0 SWAP2 DUP3 MSTORE PUSH1 0x20 SWAP1 SWAP2 KECCAK256 PUSH1 0x3 PUSH1 0x5 SWAP1 SWAP3 MUL ADD ADD SLOAD PUSH1 0xFF AND ISZERO PUSH2 0x5D6 JUMPI PUSH1 0x40 MLOAD PUSH3 0x461BCD PUSH1 0xE5 SHL DUP2 MSTORE PUSH1 0x4 ADD PUSH2 0x297 SWAP1 PUSH2 0xDE4 JUMP JUMPDEST PUSH0 DUP4 DUP2 MSTORE PUSH1 0x3 PUSH1 0x20 SWAP1 DUP2 MSTORE PUSH1 0x40 DUP1 DUP4 KECCAK256 CALLER DUP5 MSTORE SWAP1 SWAP2 MSTORE SWAP1 KECCAK256 SLOAD PUSH1 0xFF AND ISZERO PUSH2 0x652 JUMPI PUSH1 0x40 MLOAD PUSH3 0x461BCD PUSH1 0xE5 SHL DUP2 MSTORE PUSH1 0x20 PUSH1 0x4 DUP3 ADD MSTORE PUSH1 0x2A PUSH1 0x24 DUP3 ADD MSTORE PUSH32 0x504E4A432054726561737572793A20416C726561647920636F6E6669726D6564 PUSH1 0x44 DUP3 ADD MSTORE PUSH10 0x10313C9031B0B63632B9 PUSH1 0xB1 SHL PUSH1 0x64 DUP3 ADD MSTORE PUSH1 0x84 ADD PUSH2 0x297 JUMP JUMPDEST PUSH1 0x1 PUSH1 0x4 DUP5 DUP2 SLOAD DUP2 LT PUSH2 0x667 JUMPI PUSH2 0x667 PUSH2 0xDD0 JUMP JUMPDEST SWAP1 PUSH0 MSTORE PUSH1 0x20 PUSH0 KECCAK256 SWAP1 PUSH1 0x5 MUL ADD PUSH1 0x4 ADD PUSH0 DUP3 DUP3 SLOAD PUSH2 0x684 SWAP2 SWAP1 PUSH2 0xE8C JUMP JUMPDEST SWAP1 SWAP2 SSTORE POP POP PUSH0 DUP4 DUP2 MSTORE PUSH1 0x3 PUSH1 0x20 SWAP1 DUP2 MSTORE PUSH1 0x40 DUP1 DUP4 KECCAK256 CALLER DUP1 DUP6 MSTORE SWAP3 MSTORE DUP1 DUP4 KECCAK256 DUP1 SLOAD PUSH1 0xFF NOT AND PUSH1 0x1 OR SWAP1 SSTORE MLOAD SWAP1 SWAP2 DUP6 SWAP2 PUSH32 0x15C2F311C9E0F53B50388279894AEFF029A3457884A6601E924FCA879E12ADCC SWAP2 SWAP1 LOG3 PUSH1 0x2 SLOAD PUSH1 0x4 DUP5 DUP2 SLOAD DUP2 LT PUSH2 0x6EC JUMPI PUSH2 0x6EC PUSH2 0xDD0 JUMP JUMPDEST SWAP1 PUSH0 MSTORE PUSH1 0x20 PUSH0 KECCAK256 SWAP1 PUSH1 0x5 MUL ADD PUSH1 0x4 ADD SLOAD LT PUSH2 0x70A JUMPI PUSH2 0x70A DUP4 PUSH2 0x896 JUMP JUMPDEST POP POP POP JUMP JUMPDEST CALLER PUSH0 SWAP1 DUP2 MSTORE PUSH1 0x1 PUSH1 0x20 MSTORE PUSH1 0x40 SWAP1 KECCAK256 SLOAD PUSH1 0xFF AND PUSH2 0x73D JUMPI PUSH1 0x40 MLOAD PUSH3 0x461BCD PUSH1 0xE5 SHL DUP2 MSTORE PUSH1 0x4 ADD PUSH2 0x297 SWAP1 PUSH2 0xD64 JUMP JUMPDEST PUSH1 0x4 DUP1 SLOAD PUSH1 0x40 DUP1 MLOAD PUSH1 0xA0 DUP2 ADD DUP3 MSTORE PUSH1 0x1 PUSH1 0x1 PUSH1 0xA0 SHL SUB DUP8 DUP2 AND DUP3 MSTORE PUSH1 0x20 DUP3 ADD DUP8 DUP2 MSTORE SWAP3 DUP3 ADD DUP7 DUP2 MSTORE PUSH0 PUSH1 0x60 DUP5 ADD DUP2 SWAP1 MSTORE PUSH1 0x80 DUP5 ADD DUP2 SWAP1 MSTORE PUSH1 0x1 DUP7 ADD DUP8 SSTORE SWAP6 SWAP1 SWAP6 MSTORE DUP2 MLOAD PUSH32 0x8A35ACFBC15FF81A39AE7D344FD709F28E8600B4AA8C65C6B64BFE7FE36BD19B PUSH1 0x5 DUP7 MUL SWAP1 DUP2 ADD DUP1 SLOAD PUSH1 0x1 PUSH1 0x1 PUSH1 0xA0 SHL SUB NOT AND SWAP3 SWAP1 SWAP4 AND SWAP2 SWAP1 SWAP2 OR DUP3 SSTORE SWAP3 MLOAD PUSH32 0x8A35ACFBC15FF81A39AE7D344FD709F28E8600B4AA8C65C6B64BFE7FE36BD19C DUP5 ADD SSTORE SWAP4 MLOAD SWAP3 SWAP4 SWAP1 SWAP3 SWAP1 SWAP2 PUSH32 0x8A35ACFBC15FF81A39AE7D344FD709F28E8600B4AA8C65C6B64BFE7FE36BD19D ADD SWAP1 PUSH2 0x819 SWAP1 DUP3 PUSH2 0xEF5 JUMP JUMPDEST POP PUSH1 0x60 DUP3 ADD MLOAD PUSH1 0x3 DUP3 ADD DUP1 SLOAD PUSH1 0xFF NOT AND SWAP2 ISZERO ISZERO SWAP2 SWAP1 SWAP2 OR SWAP1 SSTORE PUSH1 0x80 SWAP1 SWAP2 ADD MLOAD PUSH1 0x4 SWAP1 SWAP2 ADD SSTORE PUSH1 0x40 MLOAD PUSH1 0x1 PUSH1 0x1 PUSH1 0xA0 SHL SUB DUP6 AND SWAP1 CALLER SWAP1 DUP4 SWAP1 PUSH32 0x2ECF8C4571BE1F8A0B1E6FEAA711128F3F8038E97869AA59D0F595E21F50EAA0 SWAP1 PUSH2 0x87F SWAP1 DUP9 SWAP1 DUP9 SWAP1 PUSH2 0xFB4 JUMP JUMPDEST PUSH1 0x40 MLOAD DUP1 SWAP2 SUB SWAP1 LOG4 PUSH2 0x890 DUP2 PUSH2 0x53E JUMP JUMPDEST POP POP POP POP JUMP JUMPDEST CALLER PUSH0 SWAP1 DUP2 MSTORE PUSH1 0x1 PUSH1 0x20 MSTORE PUSH1 0x40 SWAP1 KECCAK256 SLOAD PUSH1 0xFF AND PUSH2 0x8C4 JUMPI PUSH1 0x40 MLOAD PUSH3 0x461BCD PUSH1 0xE5 SHL DUP2 MSTORE PUSH1 0x4 ADD PUSH2 0x297 SWAP1 PUSH2 0xD64 JUMP JUMPDEST PUSH1 0x4 SLOAD DUP2 SWAP1 DUP2 LT PUSH2 0x8E7 JUMPI PUSH1 0x40 MLOAD PUSH3 0x461BCD PUSH1 0xE5 SHL DUP2 MSTORE PUSH1 0x4 ADD PUSH2 0x297 SWAP1 PUSH2 0xD9B JUMP JUMPDEST DUP2 PUSH1 0x4 DUP2 DUP2 SLOAD DUP2 LT PUSH2 0x8FB JUMPI PUSH2 0x8FB PUSH2 0xDD0 JUMP JUMPDEST PUSH0 SWAP2 DUP3 MSTORE PUSH1 0x20 SWAP1 SWAP2 KECCAK256 PUSH1 0x3 PUSH1 0x5 SWAP1 SWAP3 MUL ADD ADD SLOAD PUSH1 0xFF AND ISZERO PUSH2 0x92E JUMPI PUSH1 0x40 MLOAD PUSH3 0x461BCD PUSH1 0xE5 SHL DUP2 MSTORE PUSH1 0x4 ADD PUSH2 0x297 SWAP1 PUSH2 0xDE4 JUMP JUMPDEST PUSH2 0x936 PUSH2 0xAE3 JUMP JUMPDEST PUSH0 PUSH1 0x4 DUP5 DUP2 SLOAD DUP2 LT PUSH2 0x94A JUMPI PUSH2 0x94A PUSH2 0xDD0 JUMP JUMPDEST SWAP1 PUSH0 MSTORE PUSH1 0x20 PUSH0 KECCAK256 SWAP1 PUSH1 0x5 MUL ADD SWAP1 POP PUSH1 0x2 SLOAD DUP2 PUSH1 0x4 ADD SLOAD LT ISZERO PUSH2 0x9BA JUMPI PUSH1 0x40 MLOAD PUSH3 0x461BCD PUSH1 0xE5 SHL DUP2 MSTORE PUSH1 0x20 PUSH1 0x4 DUP3 ADD MSTORE PUSH1 0x24 DUP1 DUP3 ADD MSTORE PUSH32 0x504E4A432054726561737572793A20436F6E73656E737573206E6F7420726561 PUSH1 0x44 DUP3 ADD MSTORE PUSH4 0x18DA1959 PUSH1 0xE2 SHL PUSH1 0x64 DUP3 ADD MSTORE PUSH1 0x84 ADD PUSH2 0x297 JUMP JUMPDEST PUSH1 0x3 DUP2 ADD DUP1 SLOAD PUSH1 0xFF NOT AND PUSH1 0x1 SWAP1 DUP2 OR SWAP1 SWAP2 SSTORE DUP2 SLOAD SWAP1 DUP3 ADD SLOAD PUSH1 0x40 MLOAD PUSH0 SWAP3 PUSH1 0x1 PUSH1 0x1 PUSH1 0xA0 SHL SUB AND SWAP2 SWAP1 PUSH2 0x9F0 SWAP1 PUSH1 0x2 DUP7 ADD SWAP1 PUSH2 0xFD4 JUMP JUMPDEST PUSH0 PUSH1 0x40 MLOAD DUP1 DUP4 SUB DUP2 DUP6 DUP8 GAS CALL SWAP3 POP POP POP RETURNDATASIZE DUP1 PUSH0 DUP2 EQ PUSH2 0xA2A JUMPI PUSH1 0x40 MLOAD SWAP2 POP PUSH1 0x1F NOT PUSH1 0x3F RETURNDATASIZE ADD AND DUP3 ADD PUSH1 0x40 MSTORE RETURNDATASIZE DUP3 MSTORE RETURNDATASIZE PUSH0 PUSH1 0x20 DUP5 ADD RETURNDATACOPY PUSH2 0xA2F JUMP JUMPDEST PUSH1 0x60 SWAP2 POP JUMPDEST POP POP SWAP1 POP DUP1 PUSH2 0xA8C JUMPI PUSH1 0x40 MLOAD PUSH3 0x461BCD PUSH1 0xE5 SHL DUP2 MSTORE PUSH1 0x20 PUSH1 0x4 DUP3 ADD MSTORE PUSH1 0x24 DUP1 DUP3 ADD MSTORE PUSH32 0x504E4A432054726561737572793A2043616C6C20657865637574696F6E206661 PUSH1 0x44 DUP3 ADD MSTORE PUSH4 0x1A5B1959 PUSH1 0xE2 SHL PUSH1 0x64 DUP3 ADD MSTORE PUSH1 0x84 ADD PUSH2 0x297 JUMP JUMPDEST PUSH1 0x40 MLOAD CALLER SWAP1 DUP7 SWAP1 PUSH32 0xEFC13BDCF58F184EA7CAE26B499FB33B539E01D0197CEA456F3ADA289B8CF19B SWAP1 PUSH0 SWAP1 LOG3 POP POP PUSH2 0x70A PUSH1 0x1 PUSH32 0x9B779B17422D0DF92223018B32B4D1FA46E071723D6817E2486D003BECC55F00 SSTORE JUMP JUMPDEST PUSH2 0xAEB PUSH2 0xB11 JUMP JUMPDEST PUSH1 0x2 PUSH32 0x9B779B17422D0DF92223018B32B4D1FA46E071723D6817E2486D003BECC55F00 SSTORE JUMP JUMPDEST PUSH32 0x9B779B17422D0DF92223018B32B4D1FA46E071723D6817E2486D003BECC55F00 SLOAD PUSH1 0x2 SUB PUSH2 0xB53 JUMPI PUSH1 0x40 MLOAD PUSH4 0x3EE5AEB5 PUSH1 0xE0 SHL DUP2 MSTORE PUSH1 0x4 ADD PUSH1 0x40 MLOAD DUP1 SWAP2 SUB SWAP1 REVERT JUMPDEST JUMP JUMPDEST PUSH0 PUSH1 0x20 DUP3 DUP5 SUB SLT ISZERO PUSH2 0xB65 JUMPI PUSH0 PUSH0 REVERT JUMPDEST POP CALLDATALOAD SWAP2 SWAP1 POP JUMP JUMPDEST DUP1 CALLDATALOAD PUSH1 0x1 PUSH1 0x1 PUSH1 0xA0 SHL SUB DUP2 AND DUP2 EQ PUSH2 0xB82 JUMPI PUSH0 PUSH0 REVERT JUMPDEST SWAP2 SWAP1 POP JUMP JUMPDEST PUSH0 PUSH1 0x20 DUP3 DUP5 SUB SLT ISZERO PUSH2 0xB97 JUMPI PUSH0 PUSH0 REVERT JUMPDEST PUSH2 0xBA0 DUP3 PUSH2 0xB6C JUMP JUMPDEST SWAP4 SWAP3 POP POP POP JUMP JUMPDEST PUSH0 PUSH0 PUSH1 0x40 DUP4 DUP6 SUB SLT ISZERO PUSH2 0xBB8 JUMPI PUSH0 PUSH0 REVERT JUMPDEST DUP3 CALLDATALOAD SWAP2 POP PUSH2 0xBC8 PUSH1 0x20 DUP5 ADD PUSH2 0xB6C JUMP JUMPDEST SWAP1 POP SWAP3 POP SWAP3 SWAP1 POP JUMP JUMPDEST PUSH0 DUP2 MLOAD DUP1 DUP5 MSTORE DUP1 PUSH1 0x20 DUP5 ADD PUSH1 0x20 DUP7 ADD MCOPY PUSH0 PUSH1 0x20 DUP3 DUP7 ADD ADD MSTORE PUSH1 0x20 PUSH1 0x1F NOT PUSH1 0x1F DUP4 ADD AND DUP6 ADD ADD SWAP2 POP POP SWAP3 SWAP2 POP POP JUMP JUMPDEST PUSH1 0x1 DUP1 PUSH1 0xA0 SHL SUB DUP7 AND DUP2 MSTORE DUP5 PUSH1 0x20 DUP3 ADD MSTORE PUSH1 0xA0 PUSH1 0x40 DUP3 ADD MSTORE PUSH0 PUSH2 0xC25 PUSH1 0xA0 DUP4 ADD DUP7 PUSH2 0xBD1 JUMP JUMPDEST SWAP4 ISZERO ISZERO PUSH1 0x60 DUP4 ADD MSTORE POP PUSH1 0x80 ADD MSTORE SWAP4 SWAP3 POP POP POP JUMP JUMPDEST PUSH1 0x20 DUP1 DUP3 MSTORE DUP3 MLOAD DUP3 DUP3 ADD DUP2 SWAP1 MSTORE PUSH0 SWAP2 DUP5 ADD SWAP1 PUSH1 0x40 DUP5 ADD SWAP1 DUP4 JUMPDEST DUP2 DUP2 LT ISZERO PUSH2 0xC79 JUMPI DUP4 MLOAD PUSH1 0x1 PUSH1 0x1 PUSH1 0xA0 SHL SUB AND DUP4 MSTORE PUSH1 0x20 SWAP4 DUP5 ADD SWAP4 SWAP1 SWAP3 ADD SWAP2 PUSH1 0x1 ADD PUSH2 0xC52 JUMP JUMPDEST POP SWAP1 SWAP6 SWAP5 POP POP POP POP POP JUMP JUMPDEST PUSH4 0x4E487B71 PUSH1 0xE0 SHL PUSH0 MSTORE PUSH1 0x41 PUSH1 0x4 MSTORE PUSH1 0x24 PUSH0 REVERT JUMPDEST PUSH0 PUSH0 PUSH0 PUSH1 0x60 DUP5 DUP7 SUB SLT ISZERO PUSH2 0xCAA JUMPI PUSH0 PUSH0 REVERT JUMPDEST PUSH2 0xCB3 DUP5 PUSH2 0xB6C JUMP JUMPDEST SWAP3 POP PUSH1 0x20 DUP5 ADD CALLDATALOAD SWAP2 POP PUSH1 0x40 DUP5 ADD CALLDATALOAD PUSH8 0xFFFFFFFFFFFFFFFF DUP2 GT ISZERO PUSH2 0xCD5 JUMPI PUSH0 PUSH0 REVERT JUMPDEST DUP5 ADD PUSH1 0x1F DUP2 ADD DUP7 SGT PUSH2 0xCE5 JUMPI PUSH0 PUSH0 REVERT JUMPDEST DUP1 CALLDATALOAD PUSH8 0xFFFFFFFFFFFFFFFF DUP2 GT ISZERO PUSH2 0xCFF JUMPI PUSH2 0xCFF PUSH2 0xC84 JUMP JUMPDEST PUSH1 0x40 MLOAD PUSH1 0x1F DUP3 ADD PUSH1 0x1F NOT SWAP1 DUP2 AND PUSH1 0x3F ADD AND DUP2 ADD PUSH8 0xFFFFFFFFFFFFFFFF DUP2 GT DUP3 DUP3 LT OR ISZERO PUSH2 0xD2E JUMPI PUSH2 0xD2E PUSH2 0xC84 JUMP JUMPDEST PUSH1 0x40 MSTORE DUP2 DUP2 MSTORE DUP3 DUP3 ADD PUSH1 0x20 ADD DUP9 LT ISZERO PUSH2 0xD45 JUMPI PUSH0 PUSH0 REVERT JUMPDEST DUP2 PUSH1 0x20 DUP5 ADD PUSH1 0x20 DUP4 ADD CALLDATACOPY PUSH0 PUSH1 0x20 DUP4 DUP4 ADD ADD MSTORE DUP1 SWAP4 POP POP POP POP SWAP3 POP SWAP3 POP SWAP3 JUMP JUMPDEST PUSH1 0x20 DUP1 DUP3 MSTORE PUSH1 0x1C SWAP1 DUP3 ADD MSTORE PUSH32 0x504E4A432054726561737572793A204163636573732064656E69656400000000 PUSH1 0x40 DUP3 ADD MSTORE PUSH1 0x60 ADD SWAP1 JUMP JUMPDEST PUSH1 0x20 DUP1 DUP3 MSTORE DUP2 DUP2 ADD MSTORE PUSH32 0x504E4A432054726561737572793A20547820646F6573206E6F74206578697374 PUSH1 0x40 DUP3 ADD MSTORE PUSH1 0x60 ADD SWAP1 JUMP JUMPDEST PUSH4 0x4E487B71 PUSH1 0xE0 SHL PUSH0 MSTORE PUSH1 0x32 PUSH1 0x4 MSTORE PUSH1 0x24 PUSH0 REVERT JUMPDEST PUSH1 0x20 DUP1 DUP3 MSTORE PUSH1 0x23 SWAP1 DUP3 ADD MSTORE PUSH32 0x504E4A432054726561737572793A20547820616C72656164792070726F636573 PUSH1 0x40 DUP3 ADD MSTORE PUSH3 0x1CD959 PUSH1 0xEA SHL PUSH1 0x60 DUP3 ADD MSTORE PUSH1 0x80 ADD SWAP1 JUMP JUMPDEST PUSH4 0x4E487B71 PUSH1 0xE0 SHL PUSH0 MSTORE PUSH1 0x11 PUSH1 0x4 MSTORE PUSH1 0x24 PUSH0 REVERT JUMPDEST DUP2 DUP2 SUB DUP2 DUP2 GT ISZERO PUSH2 0xE4E JUMPI PUSH2 0xE4E PUSH2 0xE27 JUMP JUMPDEST SWAP3 SWAP2 POP POP JUMP JUMPDEST PUSH1 0x1 DUP2 DUP2 SHR SWAP1 DUP3 AND DUP1 PUSH2 0xE68 JUMPI PUSH1 0x7F DUP3 AND SWAP2 POP JUMPDEST PUSH1 0x20 DUP3 LT DUP2 SUB PUSH2 0xE86 JUMPI PUSH4 0x4E487B71 PUSH1 0xE0 SHL PUSH0 MSTORE PUSH1 0x22 PUSH1 0x4 MSTORE PUSH1 0x24 PUSH0 REVERT JUMPDEST POP SWAP2 SWAP1 POP JUMP JUMPDEST DUP1 DUP3 ADD DUP1 DUP3 GT ISZERO PUSH2 0xE4E JUMPI PUSH2 0xE4E PUSH2 0xE27 JUMP JUMPDEST PUSH1 0x1F DUP3 GT ISZERO PUSH2 0x70A JUMPI DUP3 DUP3 GT ISZERO PUSH2 0x70A JUMPI DUP1 PUSH0 MSTORE PUSH1 0x20 PUSH0 KECCAK256 PUSH1 0x1F DUP5 ADD PUSH1 0x5 SHR PUSH1 0x20 DUP6 LT ISZERO PUSH2 0xECA JUMPI POP PUSH0 JUMPDEST SWAP1 DUP2 ADD SWAP1 PUSH1 0x1F DUP5 ADD PUSH1 0x5 SHR SUB PUSH0 JUMPDEST DUP2 DUP2 LT ISZERO PUSH2 0xEED JUMPI PUSH0 DUP4 DUP3 ADD SSTORE PUSH1 0x1 ADD PUSH2 0xED8 JUMP JUMPDEST POP POP POP POP POP POP JUMP JUMPDEST DUP2 MLOAD PUSH8 0xFFFFFFFFFFFFFFFF DUP2 GT ISZERO PUSH2 0xF0F JUMPI PUSH2 0xF0F PUSH2 0xC84 JUMP JUMPDEST PUSH2 0xF23 DUP2 PUSH2 0xF1D DUP5 SLOAD PUSH2 0xE54 JUMP JUMPDEST DUP5 PUSH2 0xE9F JUMP JUMPDEST PUSH1 0x20 PUSH1 0x1F DUP3 GT PUSH1 0x1 DUP2 EQ PUSH2 0xF55 JUMPI PUSH0 DUP4 ISZERO PUSH2 0xF3E JUMPI POP DUP5 DUP3 ADD MLOAD JUMPDEST PUSH0 NOT PUSH1 0x3 DUP6 SWAP1 SHL SHR NOT AND PUSH1 0x1 DUP5 SWAP1 SHL OR DUP5 SSTORE PUSH2 0xFAD JUMP JUMPDEST PUSH0 DUP5 DUP2 MSTORE PUSH1 0x20 DUP2 KECCAK256 PUSH1 0x1F NOT DUP6 AND SWAP2 JUMPDEST DUP3 DUP2 LT ISZERO PUSH2 0xF84 JUMPI DUP8 DUP6 ADD MLOAD DUP3 SSTORE PUSH1 0x20 SWAP5 DUP6 ADD SWAP5 PUSH1 0x1 SWAP1 SWAP3 ADD SWAP2 ADD PUSH2 0xF64 JUMP JUMPDEST POP DUP5 DUP3 LT ISZERO PUSH2 0xFA1 JUMPI DUP7 DUP5 ADD MLOAD PUSH0 NOT PUSH1 0x3 DUP8 SWAP1 SHL PUSH1 0xF8 AND SHR NOT AND DUP2 SSTORE JUMPDEST POP POP PUSH1 0x1 DUP4 PUSH1 0x1 SHL ADD DUP5 SSTORE JUMPDEST POP POP POP POP POP JUMP JUMPDEST DUP3 DUP2 MSTORE PUSH1 0x40 PUSH1 0x20 DUP3 ADD MSTORE PUSH0 PUSH2 0xFCC PUSH1 0x40 DUP4 ADD DUP5 PUSH2 0xBD1 JUMP JUMPDEST SWAP5 SWAP4 POP POP POP POP JUMP JUMPDEST PUSH0 PUSH0 DUP4 SLOAD PUSH2 0xFE1 DUP2 PUSH2 0xE54 JUMP JUMPDEST PUSH1 0x1 DUP3 AND DUP1 ISZERO PUSH2 0xFF8 JUMPI PUSH1 0x1 DUP2 EQ PUSH2 0x100D JUMPI PUSH2 0x103A JUMP JUMPDEST PUSH1 0xFF NOT DUP4 AND DUP7 MSTORE DUP2 ISZERO ISZERO DUP3 MUL DUP7 ADD SWAP4 POP PUSH2 0x103A JUMP JUMPDEST DUP7 PUSH0 MSTORE PUSH1 0x20 PUSH0 KECCAK256 PUSH0 JUMPDEST DUP4 DUP2 LT ISZERO PUSH2 0x1032 JUMPI DUP2 SLOAD DUP9 DUP3 ADD MSTORE PUSH1 0x1 SWAP1 SWAP2 ADD SWAP1 PUSH1 0x20 ADD PUSH2 0x1016 JUMP JUMPDEST POP POP DUP2 DUP7 ADD SWAP4 POP JUMPDEST POP SWAP2 SWAP6 SWAP5 POP POP POP POP POP JUMP INVALID LOG2 PUSH5 0x6970667358 0x22 SLT KECCAK256 PUSH13 0x1D1B631AFD1280B17C3EEAAB24 PUSH21 0xB190DBB808B08022CD90C5893368438D5364736F6C PUSH4 0x43000822 STOP CALLER "
				},
				"gasEstimates": {
					"creation": {
						"codeDepositCost": "843800",
						"executionCost": "infinite",
						"totalCost": "infinite"
					},
					"external": {
						"confirmTransaction(uint256)": "infinite",
						"executeTransaction(uint256)": "infinite",
						"getOwners()": "infinite",
						"isConfirmed(uint256,address)": "2692",
						"isOwner(address)": "2573",
						"owners(uint256)": "4600",
						"requiredSignatures()": "2383",
						"revokeConfirmation(uint256)": "63535",
						"submitTransaction(address,uint256,bytes)": "infinite",
						"transactions(uint256)": "infinite"
					}
				},
				"methodIdentifiers": {
					"confirmTransaction(uint256)": "c01a8c84",
					"executeTransaction(uint256)": "ee22610b",
					"getOwners()": "a0e67e2b",
					"isConfirmed(uint256,address)": "80f59a65",
					"isOwner(address)": "2f54bf6e",
					"owners(uint256)": "025e7c27",
					"requiredSignatures()": "8d068043",
					"revokeConfirmation(uint256)": "20ea8d86",
					"submitTransaction(address,uint256,bytes)": "c6427474",
					"transactions(uint256)": "9ace38c2"
				}
			},
			"storageLayout": {
				"storage": [
					{
						"astId": 923,
						"contract": "Smart-Contracts/PNJC_Multisig.sol:PNJCMasterTreasury",
						"label": "owners",
						"offset": 0,
						"slot": "0",
						"type": "t_array(t_address)dyn_storage"
					},
					{
						"astId": 927,
						"contract": "Smart-Contracts/PNJC_Multisig.sol:PNJCMasterTreasury",
						"label": "isOwner",
						"offset": 0,
						"slot": "1",
						"type": "t_mapping(t_address,t_bool)"
					},
					{
						"astId": 929,
						"contract": "Smart-Contracts/PNJC_Multisig.sol:PNJCMasterTreasury",
						"label": "requiredSignatures",
						"offset": 0,
						"slot": "2",
						"type": "t_uint256"
					},
					{
						"astId": 946,
						"contract": "Smart-Contracts/PNJC_Multisig.sol:PNJCMasterTreasury",
						"label": "isConfirmed",
						"offset": 0,
						"slot": "3",
						"type": "t_mapping(t_uint256,t_mapping(t_address,t_bool))"
					},
					{
						"astId": 950,
						"contract": "Smart-Contracts/PNJC_Multisig.sol:PNJCMasterTreasury",
						"label": "transactions",
						"offset": 0,
						"slot": "4",
						"type": "t_array(t_struct(Transaction)940_storage)dyn_storage"
					}
				],
				"types": {
					"t_address": {
						"encoding": "inplace",
						"label": "address",
						"numberOfBytes": "20"
					},
					"t_array(t_address)dyn_storage": {
						"base": "t_address",
						"encoding": "dynamic_array",
						"label": "address[]",
						"numberOfBytes": "32"
					},
					"t_array(t_struct(Transaction)940_storage)dyn_storage": {
						"base": "t_struct(Transaction)940_storage",
						"encoding": "dynamic_array",
						"label": "struct PNJCMasterTreasury.Transaction[]",
						"numberOfBytes": "32"
					},
					"t_bool": {
						"encoding": "inplace",
						"label": "bool",
						"numberOfBytes": "1"
					},
					"t_bytes_storage": {
						"encoding": "bytes",
						"label": "bytes",
						"numberOfBytes": "32"
					},
					"t_mapping(t_address,t_bool)": {
						"encoding": "mapping",
						"key": "t_address",
						"label": "mapping(address => bool)",
						"numberOfBytes": "32",
						"value": "t_bool"
					},
					"t_mapping(t_uint256,t_mapping(t_address,t_bool))": {
						"encoding": "mapping",
						"key": "t_uint256",
						"label": "mapping(uint256 => mapping(address => bool))",
						"numberOfBytes": "32",
						"value": "t_mapping(t_address,t_bool)"
					},
					"t_struct(Transaction)940_storage": {
						"encoding": "inplace",
						"label": "struct PNJCMasterTreasury.Transaction",
						"members": [
							{
								"astId": 931,
								"contract": "Smart-Contracts/PNJC_Multisig.sol:PNJCMasterTreasury",
								"label": "to",
								"offset": 0,
								"slot": "0",
								"type": "t_address"
							},
							{
								"astId": 933,
								"contract": "Smart-Contracts/PNJC_Multisig.sol:PNJCMasterTreasury",
								"label": "value",
								"offset": 0,
								"slot": "1",
								"type": "t_uint256"
							},
							{
								"astId": 935,
								"contract": "Smart-Contracts/PNJC_Multisig.sol:PNJCMasterTreasury",
								"label": "data",
								"offset": 0,
								"slot": "2",
								"type": "t_bytes_storage"
							},
							{
								"astId": 937,
								"contract": "Smart-Contracts/PNJC_Multisig.sol:PNJCMasterTreasury",
								"label": "executed",
								"offset": 0,
								"slot": "3",
								"type": "t_bool"
							},
							{
								"astId": 939,
								"contract": "Smart-Contracts/PNJC_Multisig.sol:PNJCMasterTreasury",
								"label": "approvalCount",
								"offset": 0,
								"slot": "4",
								"type": "t_uint256"
							}
						],
						"numberOfBytes": "160"
					},
					"t_uint256": {
						"encoding": "inplace",
						"label": "uint256",
						"numberOfBytes": "32"
					}
				}
			},
			"userdoc": {
				"kind": "user",
				"methods": {
					"confirmTransaction(uint256)": {
						"notice": "Adds an owner's approval to a pending transaction."
					},
					"constructor": {
						"notice": "Constructor initializes the decentralized governing body."
					},
					"executeTransaction(uint256)": {
						"notice": "Triggers the external call of a confirmed transaction."
					},
					"getOwners()": {
						"notice": "Returns the list of all current Treasury owners."
					},
					"revokeConfirmation(uint256)": {
						"notice": "Revokes a previously granted confirmation."
					},
					"submitTransaction(address,uint256,bytes)": {
						"notice": "Propose a new administrative action or fund transfer."
					}
				},
				"version": 1
			}
		}
	}
}