{
	"Smart-Contract/PNJS.sol": {
		"PanjoCoin": {
			"abi": [
				{
					"inputs": [
						{
							"internalType": "address",
							"name": "_treasury",
							"type": "address"
						}
					],
					"stateMutability": "nonpayable",
					"type": "constructor"
				},
				{
					"inputs": [],
					"name": "ECDSAInvalidSignature",
					"type": "error"
				},
				{
					"inputs": [
						{
							"internalType": "uint256",
							"name": "length",
							"type": "uint256"
						}
					],
					"name": "ECDSAInvalidSignatureLength",
					"type": "error"
				},
				{
					"inputs": [
						{
							"internalType": "bytes32",
							"name": "s",
							"type": "bytes32"
						}
					],
					"name": "ECDSAInvalidSignatureS",
					"type": "error"
				},
				{
					"inputs": [
						{
							"internalType": "address",
							"name": "spender",
							"type": "address"
						},
						{
							"internalType": "uint256",
							"name": "allowance",
							"type": "uint256"
						},
						{
							"internalType": "uint256",
							"name": "needed",
							"type": "uint256"
						}
					],
					"name": "ERC20InsufficientAllowance",
					"type": "error"
				},
				{
					"inputs": [
						{
							"internalType": "address",
							"name": "sender",
							"type": "address"
						},
						{
							"internalType": "uint256",
							"name": "balance",
							"type": "uint256"
						},
						{
							"internalType": "uint256",
							"name": "needed",
							"type": "uint256"
						}
					],
					"name": "ERC20InsufficientBalance",
					"type": "error"
				},
				{
					"inputs": [
						{
							"internalType": "address",
							"name": "approver",
							"type": "address"
						}
					],
					"name": "ERC20InvalidApprover",
					"type": "error"
				},
				{
					"inputs": [
						{
							"internalType": "address",
							"name": "receiver",
							"type": "address"
						}
					],
					"name": "ERC20InvalidReceiver",
					"type": "error"
				},
				{
					"inputs": [
						{
							"internalType": "address",
							"name": "sender",
							"type": "address"
						}
					],
					"name": "ERC20InvalidSender",
					"type": "error"
				},
				{
					"inputs": [
						{
							"internalType": "address",
							"name": "spender",
							"type": "address"
						}
					],
					"name": "ERC20InvalidSpender",
					"type": "error"
				},
				{
					"inputs": [
						{
							"internalType": "uint256",
							"name": "deadline",
							"type": "uint256"
						}
					],
					"name": "ERC2612ExpiredSignature",
					"type": "error"
				},
				{
					"inputs": [
						{
							"internalType": "address",
							"name": "signer",
							"type": "address"
						},
						{
							"internalType": "address",
							"name": "owner",
							"type": "address"
						}
					],
					"name": "ERC2612InvalidSigner",
					"type": "error"
				},
				{
					"inputs": [
						{
							"internalType": "address",
							"name": "account",
							"type": "address"
						},
						{
							"internalType": "uint256",
							"name": "currentNonce",
							"type": "uint256"
						}
					],
					"name": "InvalidAccountNonce",
					"type": "error"
				},
				{
					"inputs": [],
					"name": "InvalidShortString",
					"type": "error"
				},
				{
					"inputs": [
						{
							"internalType": "string",
							"name": "str",
							"type": "string"
						}
					],
					"name": "StringTooLong",
					"type": "error"
				},
				{
					"anonymous": false,
					"inputs": [
						{
							"indexed": true,
							"internalType": "address",
							"name": "owner",
							"type": "address"
						},
						{
							"indexed": true,
							"internalType": "address",
							"name": "spender",
							"type": "address"
						},
						{
							"indexed": false,
							"internalType": "uint256",
							"name": "value",
							"type": "uint256"
						}
					],
					"name": "Approval",
					"type": "event"
				},
				{
					"anonymous": false,
					"inputs": [
						{
							"indexed": true,
							"internalType": "address",
							"name": "account",
							"type": "address"
						},
						{
							"indexed": false,
							"internalType": "uint256",
							"name": "amount",
							"type": "uint256"
						}
					],
					"name": "BurnAudit",
					"type": "event"
				},
				{
					"anonymous": false,
					"inputs": [],
					"name": "EIP712DomainChanged",
					"type": "event"
				},
				{
					"anonymous": false,
					"inputs": [
						{
							"indexed": true,
							"internalType": "address",
							"name": "treasury",
							"type": "address"
						},
						{
							"indexed": false,
							"internalType": "uint256",
							"name": "supply",
							"type": "uint256"
						},
						{
							"indexed": false,
							"internalType": "uint256",
							"name": "timestamp",
							"type": "uint256"
						}
					],
					"name": "TokenInitialized",
					"type": "event"
				},
				{
					"anonymous": false,
					"inputs": [
						{
							"indexed": true,
							"internalType": "address",
							"name": "from",
							"type": "address"
						},
						{
							"indexed": true,
							"internalType": "address",
							"name": "to",
							"type": "address"
						},
						{
							"indexed": false,
							"internalType": "uint256",
							"name": "value",
							"type": "uint256"
						}
					],
					"name": "Transfer",
					"type": "event"
				},
				{
					"anonymous": false,
					"inputs": [
						{
							"indexed": true,
							"internalType": "address",
							"name": "from",
							"type": "address"
						},
						{
							"indexed": true,
							"internalType": "address",
							"name": "to",
							"type": "address"
						},
						{
							"indexed": false,
							"internalType": "uint256",
							"name": "value",
							"type": "uint256"
						}
					],
					"name": "TransferAudit",
					"type": "event"
				},
				{
					"inputs": [],
					"name": "DOMAIN_SEPARATOR",
					"outputs": [
						{
							"internalType": "bytes32",
							"name": "",
							"type": "bytes32"
						}
					],
					"stateMutability": "view",
					"type": "function"
				},
				{
					"inputs": [],
					"name": "MAX_SUPPLY",
					"outputs": [
						{
							"internalType": "uint256",
							"name": "",
							"type": "uint256"
						}
					],
					"stateMutability": "view",
					"type": "function"
				},
				{
					"inputs": [
						{
							"internalType": "address",
							"name": "owner",
							"type": "address"
						},
						{
							"internalType": "address",
							"name": "spender",
							"type": "address"
						}
					],
					"name": "allowance",
					"outputs": [
						{
							"internalType": "uint256",
							"name": "",
							"type": "uint256"
						}
					],
					"stateMutability": "view",
					"type": "function"
				},
				{
					"inputs": [
						{
							"internalType": "address",
							"name": "spender",
							"type": "address"
						},
						{
							"internalType": "uint256",
							"name": "value",
							"type": "uint256"
						}
					],
					"name": "approve",
					"outputs": [
						{
							"internalType": "bool",
							"name": "",
							"type": "bool"
						}
					],
					"stateMutability": "nonpayable",
					"type": "function"
				},
				{
					"inputs": [
						{
							"internalType": "address",
							"name": "account",
							"type": "address"
						}
					],
					"name": "balanceOf",
					"outputs": [
						{
							"internalType": "uint256",
							"name": "",
							"type": "uint256"
						}
					],
					"stateMutability": "view",
					"type": "function"
				},
				{
					"inputs": [
						{
							"internalType": "uint256",
							"name": "value",
							"type": "uint256"
						}
					],
					"name": "burn",
					"outputs": [],
					"stateMutability": "nonpayable",
					"type": "function"
				},
				{
					"inputs": [
						{
							"internalType": "address",
							"name": "account",
							"type": "address"
						},
						{
							"internalType": "uint256",
							"name": "value",
							"type": "uint256"
						}
					],
					"name": "burnFrom",
					"outputs": [],
					"stateMutability": "nonpayable",
					"type": "function"
				},
				{
					"inputs": [],
					"name": "decimals",
					"outputs": [
						{
							"internalType": "uint8",
							"name": "",
							"type": "uint8"
						}
					],
					"stateMutability": "view",
					"type": "function"
				},
				{
					"inputs": [],
					"name": "deploymentTime",
					"outputs": [
						{
							"internalType": "uint256",
							"name": "",
							"type": "uint256"
						}
					],
					"stateMutability": "view",
					"type": "function"
				},
				{
					"inputs": [],
					"name": "eip712Domain",
					"outputs": [
						{
							"internalType": "bytes1",
							"name": "fields",
							"type": "bytes1"
						},
						{
							"internalType": "string",
							"name": "name",
							"type": "string"
						},
						{
							"internalType": "string",
							"name": "version",
							"type": "string"
						},
						{
							"internalType": "uint256",
							"name": "chainId",
							"type": "uint256"
						},
						{
							"internalType": "address",
							"name": "verifyingContract",
							"type": "address"
						},
						{
							"internalType": "bytes32",
							"name": "salt",
							"type": "bytes32"
						},
						{
							"internalType": "uint256[]",
							"name": "extensions",
							"type": "uint256[]"
						}
					],
					"stateMutability": "view",
					"type": "function"
				},
				{
					"inputs": [],
					"name": "name",
					"outputs": [
						{
							"internalType": "string",
							"name": "",
							"type": "string"
						}
					],
					"stateMutability": "view",
					"type": "function"
				},
				{
					"inputs": [
						{
							"internalType": "address",
							"name": "owner",
							"type": "address"
						}
					],
					"name": "nonces",
					"outputs": [
						{
							"internalType": "uint256",
							"name": "",
							"type": "uint256"
						}
					],
					"stateMutability": "view",
					"type": "function"
				},
				{
					"inputs": [
						{
							"internalType": "address",
							"name": "owner",
							"type": "address"
						},
						{
							"internalType": "address",
							"name": "spender",
							"type": "address"
						},
						{
							"internalType": "uint256",
							"name": "value",
							"type": "uint256"
						},
						{
							"internalType": "uint256",
							"name": "deadline",
							"type": "uint256"
						},
						{
							"internalType": "uint8",
							"name": "v",
							"type": "uint8"
						},
						{
							"internalType": "bytes32",
							"name": "r",
							"type": "bytes32"
						},
						{
							"internalType": "bytes32",
							"name": "s",
							"type": "bytes32"
						}
					],
					"name": "permit",
					"outputs": [],
					"stateMutability": "nonpayable",
					"type": "function"
				},
				{
					"inputs": [],
					"name": "symbol",
					"outputs": [
						{
							"internalType": "string",
							"name": "",
							"type": "string"
						}
					],
					"stateMutability": "view",
					"type": "function"
				},
				{
					"inputs": [],
					"name": "totalSupply",
					"outputs": [
						{
							"internalType": "uint256",
							"name": "",
							"type": "uint256"
						}
					],
					"stateMutability": "view",
					"type": "function"
				},
				{
					"inputs": [
						{
							"internalType": "address",
							"name": "to",
							"type": "address"
						},
						{
							"internalType": "uint256",
							"name": "value",
							"type": "uint256"
						}
					],
					"name": "transfer",
					"outputs": [
						{
							"internalType": "bool",
							"name": "",
							"type": "bool"
						}
					],
					"stateMutability": "nonpayable",
					"type": "function"
				},
				{
					"inputs": [
						{
							"internalType": "address",
							"name": "from",
							"type": "address"
						},
						{
							"internalType": "address",
							"name": "to",
							"type": "address"
						},
						{
							"internalType": "uint256",
							"name": "value",
							"type": "uint256"
						}
					],
					"name": "transferFrom",
					"outputs": [
						{
							"internalType": "bool",
							"name": "",
							"type": "bool"
						}
					],
					"stateMutability": "nonpayable",
					"type": "function"
				},
				{
					"inputs": [],
					"name": "treasury",
					"outputs": [
						{
							"internalType": "address",
							"name": "",
							"type": "address"
						}
					],
					"stateMutability": "view",
					"type": "function"
				}
			],
			"devdoc": {
				"errors": {
					"ECDSAInvalidSignature()": [
						{
							"details": "The signature derives the `address(0)`."
						}
					],
					"ECDSAInvalidSignatureLength(uint256)": [
						{
							"details": "The signature has an invalid length."
						}
					],
					"ECDSAInvalidSignatureS(bytes32)": [
						{
							"details": "The signature has an S value that is in the upper half order."
						}
					],
					"ERC20InsufficientAllowance(address,uint256,uint256)": [
						{
							"details": "Indicates a failure with the `spender`’s `allowance`. Used in transfers.",
							"params": {
								"allowance": "Amount of tokens a `spender` is allowed to operate with.",
								"needed": "Minimum amount required to perform a transfer.",
								"spender": "Address that may be allowed to operate on tokens without being their owner."
							}
						}
					],
					"ERC20InsufficientBalance(address,uint256,uint256)": [
						{
							"details": "Indicates an error related to the current `balance` of a `sender`. Used in transfers.",
							"params": {
								"balance": "Current balance for the interacting account.",
								"needed": "Minimum amount required to perform a transfer.",
								"sender": "Address whose tokens are being transferred."
							}
						}
					],
					"ERC20InvalidApprover(address)": [
						{
							"details": "Indicates a failure with the `approver` of a token to be approved. Used in approvals.",
							"params": {
								"approver": "Address initiating an approval operation."
							}
						}
					],
					"ERC20InvalidReceiver(address)": [
						{
							"details": "Indicates a failure with the token `receiver`. Used in transfers.",
							"params": {
								"receiver": "Address to which tokens are being transferred."
							}
						}
					],
					"ERC20InvalidSender(address)": [
						{
							"details": "Indicates a failure with the token `sender`. Used in transfers.",
							"params": {
								"sender": "Address whose tokens are being transferred."
							}
						}
					],
					"ERC20InvalidSpender(address)": [
						{
							"details": "Indicates a failure with the `spender` to be approved. Used in approvals.",
							"params": {
								"spender": "Address that may be allowed to operate on tokens without being their owner."
							}
						}
					],
					"ERC2612ExpiredSignature(uint256)": [
						{
							"details": "Permit deadline has expired."
						}
					],
					"ERC2612InvalidSigner(address,address)": [
						{
							"details": "Mismatched signature."
						}
					],
					"InvalidAccountNonce(address,uint256)": [
						{
							"details": "The nonce used for an `account` is not the expected current nonce."
						}
					]
				},
				"events": {
					"Approval(address,address,uint256)": {
						"details": "Emitted when the allowance of a `spender` for an `owner` is set by a call to {approve}. `value` is the new allowance."
					},
					"EIP712DomainChanged()": {
						"details": "MAY be emitted to signal that the domain could have changed."
					},
					"Transfer(address,address,uint256)": {
						"details": "Emitted when `value` tokens are moved from one account (`from`) to another (`to`). Note that `value` may be zero."
					}
				},
				"kind": "dev",
				"methods": {
					"DOMAIN_SEPARATOR()": {
						"details": "Returns the domain separator used in the encoding of the signature for {permit}, as defined by {EIP712}."
					},
					"allowance(address,address)": {
						"details": "See {IERC20-allowance}."
					},
					"approve(address,uint256)": {
						"details": "See {IERC20-approve}. NOTE: If `value` is the maximum `uint256`, the allowance is not updated on `transferFrom`. This is semantically equivalent to an infinite approval. Requirements: - `spender` cannot be the zero address."
					},
					"balanceOf(address)": {
						"details": "See {IERC20-balanceOf}."
					},
					"burn(uint256)": {
						"details": "Destroys a `value` amount of tokens from the caller. See {ERC20-_burn}."
					},
					"burnFrom(address,uint256)": {
						"details": "Destroys a `value` amount of tokens from `account`, deducting from the caller's allowance. See {ERC20-_burn} and {ERC20-allowance}. Requirements: - the caller must have allowance for ``accounts``'s tokens of at least `value`."
					},
					"decimals()": {
						"details": "Returns the number of decimals used to get its user representation. For example, if `decimals` equals `2`, a balance of `505` tokens should be displayed to a user as `5.05` (`505 / 10 ** 2`). Tokens usually opt for a value of 18, imitating the relationship between Ether and Wei. This is the default value returned by this function, unless it's overridden. NOTE: This information is only used for _display_ purposes: it in no way affects any of the arithmetic of the contract, including {IERC20-balanceOf} and {IERC20-transfer}."
					},
					"eip712Domain()": {
						"details": "See {IERC-5267}."
					},
					"name()": {
						"details": "Returns the name of the token."
					},
					"nonces(address)": {
						"details": "Returns the current nonce for `owner`. This value must be included whenever a signature is generated for {permit}. Every successful call to {permit} increases ``owner``'s nonce by one. This prevents a signature from being used multiple times."
					},
					"permit(address,address,uint256,uint256,uint8,bytes32,bytes32)": {
						"details": "Sets `value` as the allowance of `spender` over ``owner``'s tokens, given ``owner``'s signed approval. IMPORTANT: The same issues {IERC20-approve} has related to transaction ordering also apply here. Emits an {Approval} event. Requirements: - `spender` cannot be the zero address. - `deadline` must be a timestamp in the future. - `v`, `r` and `s` must be a valid `secp256k1` signature from `owner` over the EIP712-formatted function arguments. - the signature must use ``owner``'s current nonce (see {nonces}). For more information on the signature format, see the https://eips.ethereum.org/EIPS/eip-2612#specification[relevant EIP section]. CAUTION: See Security Considerations above."
					},
					"symbol()": {
						"details": "Returns the symbol of the token, usually a shorter version of the name."
					},
					"totalSupply()": {
						"details": "See {IERC20-totalSupply}."
					},
					"transfer(address,uint256)": {
						"details": "See {IERC20-transfer}. Requirements: - `to` cannot be the zero address. - the caller must have a balance of at least `value`."
					},
					"transferFrom(address,address,uint256)": {
						"details": "See {IERC20-transferFrom}. Emits an {Approval} event indicating the updated allowance. This is not required by the EIP. See the note at the beginning of {ERC20}. NOTE: Does not update the allowance if the current allowance is the maximum `uint256`. Requirements: - `from` and `to` cannot be the zero address. - `from` must have a balance of at least `value`. - the caller must have allowance for ``from``'s tokens of at least `value`."
					}
				},
				"version": 1
			},
			"evm": {
				"assembly": "    /* \"Smart-Contract/PNJS.sol\":1022:2721  contract PanjoCoin is ERC20, ERC20Burnable, ERC20Permit {... */\n  mstore(0x40, 0x01a0)\n    /* \"Smart-Contract/PNJS.sol\":1629:2018  constructor(address _treasury)... */\n  callvalue\n  dup1\n  iszero\n  tag_1\n  jumpi\n  0x00\n  dup1\n  revert\ntag_1:\n  pop\n  mload(0x40)\n  sub(codesize, bytecodeSize)\n  dup1\n  bytecodeSize\n  dup4\n  codecopy\n  dup2\n  add\n  0x40\n  dup2\n  swap1\n  mstore\n  tag_2\n  swap2\n  tag_3\n  jump\t// in\ntag_2:\n    /* \"https://github.com/OpenZeppelin/openzeppelin-contracts/blob/v5.0.0/contracts/token/ERC20/extensions/ERC20Permit.sol\":1574:1626  constructor(string memory name) EIP712(name, \"1\") {} */\n  mload(0x40)\n  dup1\n  0x40\n  add\n  0x40\n  mstore\n  dup1\n  0x09\n  dup2\n  mstore\n  0x20\n  add\n  shl(0xb9, 0x2830b73537a1b7b4b7)\n  dup2\n  mstore\n  pop\n    /* \"https://github.com/OpenZeppelin/openzeppelin-contracts/blob/v5.0.0/contracts/token/ERC20/extensions/ERC20Permit.sol\":1613:1617  name */\n  dup1\n    /* \"https://github.com/OpenZeppelin/openzeppelin-contracts/blob/v5.0.0/contracts/utils/cryptography/EIP712.sol\":3328:3759  constructor(string memory name, string memory version) {... */\n  mload(0x40)\n  dup1\n  0x40\n  add\n  0x40\n  mstore\n  dup1\n  0x01\n  dup2\n  mstore\n  0x20\n  add\n  shl(0xf8, 0x31)\n  dup2\n  mstore\n  pop\n    /* \"https://github.com/OpenZeppelin/openzeppelin-contracts/blob/v5.0.0/contracts/token/ERC20/ERC20.sol\":1896:2009  constructor(string memory name_, string memory symbol_) {... */\n  mload(0x40)\n  dup1\n  0x40\n  add\n  0x40\n  mstore\n  dup1\n  0x09\n  dup2\n  mstore\n  0x20\n  add\n  shl(0xb9, 0x2830b73537a1b7b4b7)\n  dup2\n  mstore\n  pop\n  mload(0x40)\n  dup1\n  0x40\n  add\n  0x40\n  mstore\n  dup1\n  0x04\n  dup2\n  mstore\n  0x20\n  add\n  shl(0xe0, 0x504e4a43)\n  dup2\n  mstore\n  pop\n    /* \"https://github.com/OpenZeppelin/openzeppelin-contracts/blob/v5.0.0/contracts/token/ERC20/ERC20.sol\":1970:1975  name_ */\n  dup2\n    /* \"https://github.com/OpenZeppelin/openzeppelin-contracts/blob/v5.0.0/contracts/token/ERC20/ERC20.sol\":1962:1967  _name */\n  0x03\n    /* \"https://github.com/OpenZeppelin/openzeppelin-contracts/blob/v5.0.0/contracts/token/ERC20/ERC20.sol\":1962:1975  _name = name_ */\n  swap1\n  dup2\n  tag_9\n  swap2\n  swap1\n  tag_10\n  jump\t// in\ntag_9:\n  pop\n    /* \"https://github.com/OpenZeppelin/openzeppelin-contracts/blob/v5.0.0/contracts/token/ERC20/ERC20.sol\":1985:1992  _symbol */\n  0x04\n    /* \"https://github.com/OpenZeppelin/openzeppelin-contracts/blob/v5.0.0/contracts/token/ERC20/ERC20.sol\":1985:2002  _symbol = symbol_ */\n  tag_11\n    /* \"https://github.com/OpenZeppelin/openzeppelin-contracts/blob/v5.0.0/contracts/token/ERC20/ERC20.sol\":1995:2002  symbol_ */\n  dup3\n    /* \"https://github.com/OpenZeppelin/openzeppelin-contracts/blob/v5.0.0/contracts/token/ERC20/ERC20.sol\":1985:1992  _symbol */\n  dup3\n    /* \"https://github.com/OpenZeppelin/openzeppelin-contracts/blob/v5.0.0/contracts/token/ERC20/ERC20.sol\":1985:2002  _symbol = symbol_ */\n  tag_10\n  jump\t// in\ntag_11:\n  pop\n    /* \"https://github.com/OpenZeppelin/openzeppelin-contracts/blob/v5.0.0/contracts/utils/cryptography/EIP712.sol\":3401:3446  name.toShortStringWithFallback(_nameFallback) */\n  tag_13\n  swap2\n  pop\n    /* \"https://github.com/OpenZeppelin/openzeppelin-contracts/blob/v5.0.0/contracts/utils/cryptography/EIP712.sol\":3401:3405  name */\n  dup4\n  swap1\n  pop\n    /* \"https://github.com/OpenZeppelin/openzeppelin-contracts/blob/v5.0.0/contracts/utils/cryptography/EIP712.sol\":3432:3445  _nameFallback */\n  0x05\n    /* \"https://github.com/OpenZeppelin/openzeppelin-contracts/blob/v5.0.0/contracts/utils/cryptography/EIP712.sol\":3401:3431  name.toShortStringWithFallback */\n  tag_14\n    /* \"https://github.com/OpenZeppelin/openzeppelin-contracts/blob/v5.0.0/contracts/utils/cryptography/EIP712.sol\":3401:3446  name.toShortStringWithFallback(_nameFallback) */\n  jump\t// in\ntag_13:\n    /* \"https://github.com/OpenZeppelin/openzeppelin-contracts/blob/v5.0.0/contracts/utils/cryptography/EIP712.sol\":3393:3446  _name = name.toShortStringWithFallback(_nameFallback) */\n  0x0120\n  mstore\n    /* \"https://github.com/OpenZeppelin/openzeppelin-contracts/blob/v5.0.0/contracts/utils/cryptography/EIP712.sol\":3467:3518  version.toShortStringWithFallback(_versionFallback) */\n  tag_15\n    /* \"https://github.com/OpenZeppelin/openzeppelin-contracts/blob/v5.0.0/contracts/utils/cryptography/EIP712.sol\":3467:3474  version */\n  dup2\n    /* \"https://github.com/OpenZeppelin/openzeppelin-contracts/blob/v5.0.0/contracts/utils/cryptography/EIP712.sol\":3501:3517  _versionFallback */\n  0x06\n    /* \"https://github.com/OpenZeppelin/openzeppelin-contracts/blob/v5.0.0/contracts/utils/cryptography/EIP712.sol\":3467:3500  version.toShortStringWithFallback */\n  tag_14\n    /* \"https://github.com/OpenZeppelin/openzeppelin-contracts/blob/v5.0.0/contracts/utils/cryptography/EIP712.sol\":3467:3518  version.toShortStringWithFallback(_versionFallback) */\n  jump\t// in\ntag_15:\n    /* \"https://github.com/OpenZeppelin/openzeppelin-contracts/blob/v5.0.0/contracts/utils/cryptography/EIP712.sol\":3456:3518  _version = version.toShortStringWithFallback(_versionFallback) */\n  0x0140\n  mstore\n    /* \"https://github.com/OpenZeppelin/openzeppelin-contracts/blob/v5.0.0/contracts/utils/cryptography/EIP712.sol\":3542:3564  keccak256(bytes(name)) */\n  dup2\n  mload\n  0x20\n  dup1\n  dup5\n  add\n  swap2\n  swap1\n  swap2\n  keccak256\n    /* \"https://github.com/OpenZeppelin/openzeppelin-contracts/blob/v5.0.0/contracts/utils/cryptography/EIP712.sol\":3528:3564  _hashedName = keccak256(bytes(name)) */\n  0xe0\n  mstore\n    /* \"https://github.com/OpenZeppelin/openzeppelin-contracts/blob/v5.0.0/contracts/utils/cryptography/EIP712.sol\":3591:3616  keccak256(bytes(version)) */\n  dup2\n  mload\n  swap1\n  dup3\n  add\n  keccak256\n    /* \"https://github.com/OpenZeppelin/openzeppelin-contracts/blob/v5.0.0/contracts/utils/cryptography/EIP712.sol\":3574:3616  _hashedVersion = keccak256(bytes(version)) */\n  0x0100\n  mstore\n    /* \"https://github.com/OpenZeppelin/openzeppelin-contracts/blob/v5.0.0/contracts/utils/cryptography/EIP712.sol\":3644:3657  block.chainid */\n  chainid\n    /* \"https://github.com/OpenZeppelin/openzeppelin-contracts/blob/v5.0.0/contracts/utils/cryptography/EIP712.sol\":3627:3657  _cachedChainId = block.chainid */\n  0xa0\n  mstore\n    /* \"https://github.com/OpenZeppelin/openzeppelin-contracts/blob/v5.0.0/contracts/utils/cryptography/EIP712.sol\":3692:3715  _buildDomainSeparator() */\n  tag_16\n    /* \"https://github.com/OpenZeppelin/openzeppelin-contracts/blob/v5.0.0/contracts/utils/cryptography/EIP712.sol\":4226:4237  _hashedName */\n  mload(0xe0)\n    /* \"https://github.com/OpenZeppelin/openzeppelin-contracts/blob/v5.0.0/contracts/utils/cryptography/EIP712.sol\":4239:4253  _hashedVersion */\n  mload(0x0100)\n    /* \"https://github.com/OpenZeppelin/openzeppelin-contracts/blob/v5.0.0/contracts/utils/cryptography/EIP712.sol\":4204:4284  abi.encode(TYPE_HASH, _hashedName, _hashedVersion, block.chainid, address(this)) */\n  0x40\n  dup1\n  mload\n    /* \"https://github.com/OpenZeppelin/openzeppelin-contracts/blob/v5.0.0/contracts/utils/cryptography/EIP712.sol\":2079:2174  keccak256(\"EIP712Domain(string name,string version,uint256 chainId,address verifyingContract)\") */\n  0x8b73c3c69bb8fe3d512ecc4cf759cc79239f7b179b0ffacaa9a75d522b39400f\n    /* \"https://github.com/OpenZeppelin/openzeppelin-contracts/blob/v5.0.0/contracts/utils/cryptography/EIP712.sol\":4204:4284  abi.encode(TYPE_HASH, _hashedName, _hashedVersion, block.chainid, address(this)) */\n  0x20\n  dup3\n  add\n    /* \"#utility.yul\":3868:3893   */\n  mstore\n    /* \"#utility.yul\":3909:3927   */\n  swap1\n  dup2\n  add\n    /* \"#utility.yul\":3902:3936   */\n  swap3\n  swap1\n  swap3\n  mstore\n    /* \"#utility.yul\":3952:3970   */\n  0x60\n  dup3\n  add\n    /* \"#utility.yul\":3945:3979   */\n  mstore\n    /* \"https://github.com/OpenZeppelin/openzeppelin-contracts/blob/v5.0.0/contracts/utils/cryptography/EIP712.sol\":4255:4268  block.chainid */\n  chainid\n    /* \"#utility.yul\":3995:4013   */\n  0x80\n  dup3\n  add\n    /* \"#utility.yul\":3988:4022   */\n  mstore\n    /* \"https://github.com/OpenZeppelin/openzeppelin-contracts/blob/v5.0.0/contracts/utils/cryptography/EIP712.sol\":4278:4282  this */\n  address\n    /* \"#utility.yul\":4038:4057   */\n  0xa0\n  dup3\n  add\n    /* \"#utility.yul\":4031:4092   */\n  mstore\n    /* \"https://github.com/OpenZeppelin/openzeppelin-contracts/blob/v5.0.0/contracts/utils/cryptography/EIP712.sol\":4168:4175  bytes32 */\n  0x00\n  swap1\n    /* \"#utility.yul\":3840:3859   */\n  0xc0\n  add\n    /* \"https://github.com/OpenZeppelin/openzeppelin-contracts/blob/v5.0.0/contracts/utils/cryptography/EIP712.sol\":4204:4284  abi.encode(TYPE_HASH, _hashedName, _hashedVersion, block.chainid, address(this)) */\n  mload(0x40)\n  0x20\n  dup2\n  dup4\n  sub\n  sub\n  dup2\n  mstore\n  swap1\n  0x40\n  mstore\n    /* \"https://github.com/OpenZeppelin/openzeppelin-contracts/blob/v5.0.0/contracts/utils/cryptography/EIP712.sol\":4194:4285  keccak256(abi.encode(TYPE_HASH, _hashedName, _hashedVersion, block.chainid, address(this))) */\n  dup1\n  mload\n  swap1\n  0x20\n  add\n  keccak256\n    /* \"https://github.com/OpenZeppelin/openzeppelin-contracts/blob/v5.0.0/contracts/utils/cryptography/EIP712.sol\":4187:4285  return keccak256(abi.encode(TYPE_HASH, _hashedName, _hashedVersion, block.chainid, address(this))) */\n  swap1\n  pop\n    /* \"https://github.com/OpenZeppelin/openzeppelin-contracts/blob/v5.0.0/contracts/utils/cryptography/EIP712.sol\":4113:4292  function _buildDomainSeparator() private view returns (bytes32) {... */\n  swap1\n  jump\n    /* \"https://github.com/OpenZeppelin/openzeppelin-contracts/blob/v5.0.0/contracts/utils/cryptography/EIP712.sol\":3692:3715  _buildDomainSeparator() */\ntag_16:\n    /* \"https://github.com/OpenZeppelin/openzeppelin-contracts/blob/v5.0.0/contracts/utils/cryptography/EIP712.sol\":3667:3715  _cachedDomainSeparator = _buildDomainSeparator() */\n  0x80\n  mstore\n  pop\n  pop\n    /* \"https://github.com/OpenZeppelin/openzeppelin-contracts/blob/v5.0.0/contracts/utils/cryptography/EIP712.sol\":3747:3751  this */\n  address\n    /* \"https://github.com/OpenZeppelin/openzeppelin-contracts/blob/v5.0.0/contracts/utils/cryptography/EIP712.sol\":3725:3752  _cachedThis = address(this) */\n  0xc0\n  mstore\n  pop\n  sub(shl(0xa0, 0x01), 0x01)\n    /* \"Smart-Contract/PNJS.sol\":1754:1777  _treasury != address(0) */\n  dup2\n  and\n    /* \"Smart-Contract/PNJS.sol\":1746:1819  require(_treasury != address(0), \"PNJC: Treasury cannot be zero address\") */\n  tag_20\n  jumpi\n  mload(0x40)\n  shl(0xe5, 0x461bcd)\n  dup2\n  mstore\n    /* \"#utility.yul\":3152:3154   */\n  0x20\n    /* \"Smart-Contract/PNJS.sol\":1746:1819  require(_treasury != address(0), \"PNJC: Treasury cannot be zero address\") */\n  0x04\n  dup3\n  add\n    /* \"#utility.yul\":3134:3155   */\n  mstore\n    /* \"#utility.yul\":3191:3193   */\n  0x25\n    /* \"#utility.yul\":3171:3189   */\n  0x24\n  dup3\n  add\n    /* \"#utility.yul\":3164:3194   */\n  mstore\n    /* \"#utility.yul\":3230:3264   */\n  0x504e4a433a2054726561737572792063616e6e6f74206265207a65726f206164\n    /* \"#utility.yul\":3210:3228   */\n  0x44\n  dup3\n  add\n    /* \"#utility.yul\":3203:3265   */\n  mstore\n  shl(0xd8, 0x6472657373)\n    /* \"#utility.yul\":3281:3299   */\n  0x64\n  dup3\n  add\n    /* \"#utility.yul\":3274:3309   */\n  mstore\n    /* \"#utility.yul\":3326:3345   */\n  0x84\n  add\n    /* \"Smart-Contract/PNJS.sol\":1746:1819  require(_treasury != address(0), \"PNJC: Treasury cannot be zero address\") */\ntag_21:\n  mload(0x40)\n  dup1\n  swap2\n  sub\n  swap1\n  revert\ntag_20:\n  sub(shl(0xa0, 0x01), 0x01)\n    /* \"Smart-Contract/PNJS.sol\":1832:1852  treasury = _treasury */\n  dup2\n  and\n  0x0160\n  mstore\n    /* \"Smart-Contract/PNJS.sol\":1880:1895  block.timestamp */\n  timestamp\n    /* \"Smart-Contract/PNJS.sol\":1863:1895  deploymentTime = block.timestamp */\n  0x0180\n  mstore\n    /* \"Smart-Contract/PNJS.sol\":1908:1936  _mint(_treasury, MAX_SUPPLY) */\n  tag_23\n    /* \"Smart-Contract/PNJS.sol\":1843:1852  _treasury */\n  dup2\n    /* \"Smart-Contract/PNJS.sol\":1172:1198  1_000_000_000_000 * 10**18 */\n  0x0c9f2c9cd04674edea40000000\n    /* \"Smart-Contract/PNJS.sol\":1908:1913  _mint */\n  tag_24\n    /* \"Smart-Contract/PNJS.sol\":1908:1936  _mint(_treasury, MAX_SUPPLY) */\n  jump\t// in\ntag_23:\n    /* \"Smart-Contract/PNJS.sol\":1954:2010  TokenInitialized(_treasury, MAX_SUPPLY, block.timestamp) */\n  0x40\n  dup1\n  mload\n    /* \"Smart-Contract/PNJS.sol\":1172:1198  1_000_000_000_000 * 10**18 */\n  0x0c9f2c9cd04674edea40000000\n    /* \"#utility.yul\":3530:3555   */\n  dup2\n  mstore\n    /* \"Smart-Contract/PNJS.sol\":1994:2009  block.timestamp */\n  timestamp\n    /* \"#utility.yul\":3586:3588   */\n  0x20\n    /* \"#utility.yul\":3571:3589   */\n  dup3\n  add\n    /* \"#utility.yul\":3564:3598   */\n  mstore\n  sub(shl(0xa0, 0x01), 0x01)\n    /* \"Smart-Contract/PNJS.sol\":1954:2010  TokenInitialized(_treasury, MAX_SUPPLY, block.timestamp) */\n  dup4\n  and\n  swap2\n  0x9656fa3ee9769c0d6de8ae1f79cca49ee9cb74a9c3db804cb9544b4e5b63a4f0\n  swap2\n    /* \"#utility.yul\":3503:3521   */\n  add\n    /* \"Smart-Contract/PNJS.sol\":1954:2010  TokenInitialized(_treasury, MAX_SUPPLY, block.timestamp) */\n  mload(0x40)\n  dup1\n  swap2\n  sub\n  swap1\n  log2\n    /* \"Smart-Contract/PNJS.sol\":1629:2018  constructor(address _treasury)... */\n  pop\n    /* \"Smart-Contract/PNJS.sol\":1022:2721  contract PanjoCoin is ERC20, ERC20Burnable, ERC20Permit {... */\n  jump(tag_73)\n    /* \"https://github.com/OpenZeppelin/openzeppelin-contracts/blob/v5.0.0/contracts/utils/ShortStrings.sol\":2914:3254  function toShortStringWithFallback(string memory value, string storage store) internal returns (ShortString) {... */\ntag_14:\n    /* \"https://github.com/OpenZeppelin/openzeppelin-contracts/blob/v5.0.0/contracts/utils/ShortStrings.sol\":3010:3021  ShortString */\n  0x00\n    /* \"https://github.com/OpenZeppelin/openzeppelin-contracts/blob/v5.0.0/contracts/utils/ShortStrings.sol\":3059:3061  32 */\n  0x20\n    /* \"https://github.com/OpenZeppelin/openzeppelin-contracts/blob/v5.0.0/contracts/utils/ShortStrings.sol\":3043:3048  value */\n  dup4\n    /* \"https://github.com/OpenZeppelin/openzeppelin-contracts/blob/v5.0.0/contracts/utils/ShortStrings.sol\":3037:3056  bytes(value).length */\n  mload\n    /* \"https://github.com/OpenZeppelin/openzeppelin-contracts/blob/v5.0.0/contracts/utils/ShortStrings.sol\":3037:3061  bytes(value).length < 32 */\n  lt\n    /* \"https://github.com/OpenZeppelin/openzeppelin-contracts/blob/v5.0.0/contracts/utils/ShortStrings.sol\":3033:3248  if (bytes(value).length < 32) {... */\n  iszero\n  tag_29\n  jumpi\n    /* \"https://github.com/OpenZeppelin/openzeppelin-contracts/blob/v5.0.0/contracts/utils/ShortStrings.sol\":3084:3104  toShortString(value) */\n  tag_30\n    /* \"https://github.com/OpenZeppelin/openzeppelin-contracts/blob/v5.0.0/contracts/utils/ShortStrings.sol\":3098:3103  value */\n  dup4\n    /* \"https://github.com/OpenZeppelin/openzeppelin-contracts/blob/v5.0.0/contracts/utils/ShortStrings.sol\":3084:3097  toShortString */\n  tag_31\n    /* \"https://github.com/OpenZeppelin/openzeppelin-contracts/blob/v5.0.0/contracts/utils/ShortStrings.sol\":3084:3104  toShortString(value) */\n  jump\t// in\ntag_30:\n    /* \"https://github.com/OpenZeppelin/openzeppelin-contracts/blob/v5.0.0/contracts/utils/ShortStrings.sol\":3077:3104  return toShortString(value) */\n  swap1\n  pop\n  jump(tag_32)\n    /* \"https://github.com/OpenZeppelin/openzeppelin-contracts/blob/v5.0.0/contracts/utils/ShortStrings.sol\":3033:3248  if (bytes(value).length < 32) {... */\ntag_29:\n    /* \"https://github.com/OpenZeppelin/openzeppelin-contracts/blob/v5.0.0/contracts/utils/ShortStrings.sol\":3161:3166  store */\n  dup2\n    /* \"https://github.com/OpenZeppelin/openzeppelin-contracts/blob/v5.0.0/contracts/utils/ShortStrings.sol\":3135:3181  StorageSlot.getStringSlot(store).value = value */\n  tag_35\n    /* \"https://github.com/OpenZeppelin/openzeppelin-contracts/blob/v5.0.0/contracts/utils/ShortStrings.sol\":3176:3181  value */\n  dup5\n    /* \"https://github.com/OpenZeppelin/openzeppelin-contracts/blob/v5.0.0/contracts/utils/ShortStrings.sol\":3161:3166  store */\n  dup3\n    /* \"https://github.com/OpenZeppelin/openzeppelin-contracts/blob/v5.0.0/contracts/utils/ShortStrings.sol\":3135:3181  StorageSlot.getStringSlot(store).value = value */\n  tag_10\n  jump\t// in\ntag_35:\n  pop\n    /* \"https://github.com/OpenZeppelin/openzeppelin-contracts/blob/v5.0.0/contracts/utils/ShortStrings.sol\":1390:1456  0x00000000000000000000000000000000000000000000000000000000000000FF */\n  0xff\n  swap1\n  pop\n    /* \"https://github.com/OpenZeppelin/openzeppelin-contracts/blob/v5.0.0/contracts/utils/ShortStrings.sol\":3033:3248  if (bytes(value).length < 32) {... */\ntag_32:\n    /* \"https://github.com/OpenZeppelin/openzeppelin-contracts/blob/v5.0.0/contracts/utils/ShortStrings.sol\":2914:3254  function toShortStringWithFallback(string memory value, string storage store) internal returns (ShortString) {... */\n  swap3\n  swap2\n  pop\n  pop\n  jump\t// out\n    /* \"https://github.com/OpenZeppelin/openzeppelin-contracts/blob/v5.0.0/contracts/token/ERC20/ERC20.sol\":7721:7929  function _mint(address account, uint256 value) internal {... */\ntag_24:\n  sub(shl(0xa0, 0x01), 0x01)\n    /* \"https://github.com/OpenZeppelin/openzeppelin-contracts/blob/v5.0.0/contracts/token/ERC20/ERC20.sol\":7791:7812  account == address(0) */\n  dup3\n  and\n    /* \"https://github.com/OpenZeppelin/openzeppelin-contracts/blob/v5.0.0/contracts/token/ERC20/ERC20.sol\":7787:7878  if (account == address(0)) {... */\n  tag_40\n  jumpi\n    /* \"https://github.com/OpenZeppelin/openzeppelin-contracts/blob/v5.0.0/contracts/token/ERC20/ERC20.sol\":7835:7867  ERC20InvalidReceiver(address(0)) */\n  mload(0x40)\n  shl(0xe0, 0xec442f05)\n  dup2\n  mstore\n    /* \"https://github.com/OpenZeppelin/openzeppelin-contracts/blob/v5.0.0/contracts/token/ERC20/ERC20.sol\":7864:7865  0 */\n  0x00\n    /* \"https://github.com/OpenZeppelin/openzeppelin-contracts/blob/v5.0.0/contracts/token/ERC20/ERC20.sol\":7835:7867  ERC20InvalidReceiver(address(0)) */\n  0x04\n  dup3\n  add\n    /* \"#utility.yul\":4249:4300   */\n  mstore\n    /* \"#utility.yul\":4222:4240   */\n  0x24\n  add\n    /* \"https://github.com/OpenZeppelin/openzeppelin-contracts/blob/v5.0.0/contracts/token/ERC20/ERC20.sol\":7835:7867  ERC20InvalidReceiver(address(0)) */\n  tag_21\n    /* \"#utility.yul\":4103:4306   */\n  jump\n    /* \"https://github.com/OpenZeppelin/openzeppelin-contracts/blob/v5.0.0/contracts/token/ERC20/ERC20.sol\":7787:7878  if (account == address(0)) {... */\ntag_40:\n    /* \"https://github.com/OpenZeppelin/openzeppelin-contracts/blob/v5.0.0/contracts/token/ERC20/ERC20.sol\":7887:7922  _update(address(0), account, value) */\n  tag_43\n    /* \"https://github.com/OpenZeppelin/openzeppelin-contracts/blob/v5.0.0/contracts/token/ERC20/ERC20.sol\":7903:7904  0 */\n  0x00\n    /* \"https://github.com/OpenZeppelin/openzeppelin-contracts/blob/v5.0.0/contracts/token/ERC20/ERC20.sol\":7907:7914  account */\n  dup4\n    /* \"https://github.com/OpenZeppelin/openzeppelin-contracts/blob/v5.0.0/contracts/token/ERC20/ERC20.sol\":7916:7921  value */\n  dup4\n    /* \"https://github.com/OpenZeppelin/openzeppelin-contracts/blob/v5.0.0/contracts/token/ERC20/ERC20.sol\":7887:7894  _update */\n  tag_44\n    /* \"https://github.com/OpenZeppelin/openzeppelin-contracts/blob/v5.0.0/contracts/token/ERC20/ERC20.sol\":7887:7922  _update(address(0), account, value) */\n  jump\t// in\ntag_43:\n    /* \"https://github.com/OpenZeppelin/openzeppelin-contracts/blob/v5.0.0/contracts/token/ERC20/ERC20.sol\":7721:7929  function _mint(address account, uint256 value) internal {... */\n  pop\n  pop\n  jump\t// out\n    /* \"https://github.com/OpenZeppelin/openzeppelin-contracts/blob/v5.0.0/contracts/utils/ShortStrings.sol\":1708:1994  function toShortString(string memory str) internal pure returns (ShortString) {... */\ntag_31:\n    /* \"https://github.com/OpenZeppelin/openzeppelin-contracts/blob/v5.0.0/contracts/utils/ShortStrings.sol\":1773:1784  ShortString */\n  0x00\n    /* \"https://github.com/OpenZeppelin/openzeppelin-contracts/blob/v5.0.0/contracts/utils/ShortStrings.sol\":1796:1813  bytes memory bstr */\n  dup1\n    /* \"https://github.com/OpenZeppelin/openzeppelin-contracts/blob/v5.0.0/contracts/utils/ShortStrings.sol\":1822:1825  str */\n  dup3\n    /* \"https://github.com/OpenZeppelin/openzeppelin-contracts/blob/v5.0.0/contracts/utils/ShortStrings.sol\":1796:1826  bytes memory bstr = bytes(str) */\n  swap1\n  pop\n    /* \"https://github.com/OpenZeppelin/openzeppelin-contracts/blob/v5.0.0/contracts/utils/ShortStrings.sol\":1854:1856  31 */\n  0x1f\n    /* \"https://github.com/OpenZeppelin/openzeppelin-contracts/blob/v5.0.0/contracts/utils/ShortStrings.sol\":1840:1844  bstr */\n  dup2\n    /* \"https://github.com/OpenZeppelin/openzeppelin-contracts/blob/v5.0.0/contracts/utils/ShortStrings.sol\":1840:1851  bstr.length */\n  mload\n    /* \"https://github.com/OpenZeppelin/openzeppelin-contracts/blob/v5.0.0/contracts/utils/ShortStrings.sol\":1840:1856  bstr.length > 31 */\n  gt\n    /* \"https://github.com/OpenZeppelin/openzeppelin-contracts/blob/v5.0.0/contracts/utils/ShortStrings.sol\":1836:1908  if (bstr.length > 31) {... */\n  iszero\n  tag_46\n  jumpi\n    /* \"https://github.com/OpenZeppelin/openzeppelin-contracts/blob/v5.0.0/contracts/utils/ShortStrings.sol\":1893:1896  str */\n  dup3\n    /* \"https://github.com/OpenZeppelin/openzeppelin-contracts/blob/v5.0.0/contracts/utils/ShortStrings.sol\":1879:1897  StringTooLong(str) */\n  mload(0x40)\n  shl(0xe0, 0x305a27a9)\n  dup2\n  mstore\n  0x04\n  add\n  tag_21\n  swap2\n  swap1\n  tag_48\n  jump\t// in\n    /* \"https://github.com/OpenZeppelin/openzeppelin-contracts/blob/v5.0.0/contracts/utils/ShortStrings.sol\":1836:1908  if (bstr.length > 31) {... */\ntag_46:\n    /* \"https://github.com/OpenZeppelin/openzeppelin-contracts/blob/v5.0.0/contracts/utils/ShortStrings.sol\":1974:1985  bstr.length */\n  dup1\n  mload\n    /* \"https://github.com/OpenZeppelin/openzeppelin-contracts/blob/v5.0.0/contracts/utils/ShortStrings.sol\":1957:1970  bytes32(bstr) */\n  tag_49\n    /* \"https://github.com/OpenZeppelin/openzeppelin-contracts/blob/v5.0.0/contracts/utils/ShortStrings.sol\":1974:1978  bstr */\n  dup3\n    /* \"https://github.com/OpenZeppelin/openzeppelin-contracts/blob/v5.0.0/contracts/utils/ShortStrings.sol\":1957:1970  bytes32(bstr) */\n  tag_50\n  jump\t// in\ntag_49:\n    /* \"https://github.com/OpenZeppelin/openzeppelin-contracts/blob/v5.0.0/contracts/utils/ShortStrings.sol\":1949:1985  uint256(bytes32(bstr)) | bstr.length */\n  or\n  swap4\n    /* \"https://github.com/OpenZeppelin/openzeppelin-contracts/blob/v5.0.0/contracts/utils/ShortStrings.sol\":1708:1994  function toShortString(string memory str) internal pure returns (ShortString) {... */\n  swap3\n  pop\n  pop\n  pop\n  jump\t// out\n    /* \"Smart-Contract/PNJS.sol\":2091:2309  function _update(address from, address to, uint256 value)... */\ntag_44:\n    /* \"Smart-Contract/PNJS.sol\":2225:2255  super._update(from, to, value) */\n  tag_53\n    /* \"Smart-Contract/PNJS.sol\":2239:2243  from */\n  dup4\n    /* \"Smart-Contract/PNJS.sol\":2245:2247  to */\n  dup4\n    /* \"Smart-Contract/PNJS.sol\":2249:2254  value */\n  dup4\n    /* \"Smart-Contract/PNJS.sol\":2225:2238  super._update */\n  tag_54\n    /* \"Smart-Contract/PNJS.sol\":2225:2255  super._update(from, to, value) */\n  jump\t// in\ntag_53:\n    /* \"Smart-Contract/PNJS.sol\":2291:2293  to */\n  dup2\n  sub(shl(0xa0, 0x01), 0x01)\n    /* \"Smart-Contract/PNJS.sol\":2271:2301  TransferAudit(from, to, value) */\n  and\n    /* \"Smart-Contract/PNJS.sol\":2285:2289  from */\n  dup4\n  sub(shl(0xa0, 0x01), 0x01)\n    /* \"Smart-Contract/PNJS.sol\":2271:2301  TransferAudit(from, to, value) */\n  and\n  0xb5fd41d87d60aa758b7a3c421993bd379f0df87361be9e07ae8831448ee5ad94\n    /* \"Smart-Contract/PNJS.sol\":2295:2300  value */\n  dup4\n    /* \"Smart-Contract/PNJS.sol\":2271:2301  TransferAudit(from, to, value) */\n  mload(0x40)\n  tag_55\n  swap2\n    /* \"#utility.yul\":5291:5316   */\n  dup2\n  mstore\n    /* \"#utility.yul\":5279:5281   */\n  0x20\n    /* \"#utility.yul\":5264:5282   */\n  add\n  swap1\n    /* \"#utility.yul\":5145:5322   */\n  jump\n    /* \"Smart-Contract/PNJS.sol\":2271:2301  TransferAudit(from, to, value) */\ntag_55:\n  mload(0x40)\n  dup1\n  swap2\n  sub\n  swap1\n  log3\n    /* \"Smart-Contract/PNJS.sol\":2091:2309  function _update(address from, address to, uint256 value)... */\n  pop\n  pop\n  pop\n  jump\t// out\n    /* \"https://github.com/OpenZeppelin/openzeppelin-contracts/blob/v5.0.0/contracts/token/ERC20/ERC20.sol\":6271:7378  function _update(address from, address to, uint256 value) internal virtual {... */\ntag_54:\n  sub(shl(0xa0, 0x01), 0x01)\n    /* \"https://github.com/OpenZeppelin/openzeppelin-contracts/blob/v5.0.0/contracts/token/ERC20/ERC20.sol\":6360:6378  from == address(0) */\n  dup4\n  and\n    /* \"https://github.com/OpenZeppelin/openzeppelin-contracts/blob/v5.0.0/contracts/token/ERC20/ERC20.sol\":6356:6896  if (from == address(0)) {... */\n  tag_58\n  jumpi\n    /* \"https://github.com/OpenZeppelin/openzeppelin-contracts/blob/v5.0.0/contracts/token/ERC20/ERC20.sol\":6512:6517  value */\n  dup1\n    /* \"https://github.com/OpenZeppelin/openzeppelin-contracts/blob/v5.0.0/contracts/token/ERC20/ERC20.sol\":6496:6508  _totalSupply */\n  0x02\n  0x00\n    /* \"https://github.com/OpenZeppelin/openzeppelin-contracts/blob/v5.0.0/contracts/token/ERC20/ERC20.sol\":6496:6517  _totalSupply += value */\n  dup3\n  dup3\n  sload\n  tag_59\n  swap2\n  swap1\n  tag_60\n  jump\t// in\ntag_59:\n  swap1\n  swap2\n  sstore\n  pop\n    /* \"https://github.com/OpenZeppelin/openzeppelin-contracts/blob/v5.0.0/contracts/token/ERC20/ERC20.sol\":6356:6896  if (from == address(0)) {... */\n  tag_61\n  swap1\n  pop\n  jump\ntag_58:\n  sub(shl(0xa0, 0x01), 0x01)\n    /* \"https://github.com/OpenZeppelin/openzeppelin-contracts/blob/v5.0.0/contracts/token/ERC20/ERC20.sol\":6570:6585  _balances[from] */\n  dup4\n  and\n    /* \"https://github.com/OpenZeppelin/openzeppelin-contracts/blob/v5.0.0/contracts/token/ERC20/ERC20.sol\":6548:6567  uint256 fromBalance */\n  0x00\n    /* \"https://github.com/OpenZeppelin/openzeppelin-contracts/blob/v5.0.0/contracts/token/ERC20/ERC20.sol\":6570:6585  _balances[from] */\n  swap1\n  dup2\n  mstore\n  0x20\n  dup2\n  swap1\n  mstore\n  0x40\n  swap1\n  keccak256\n  sload\n    /* \"https://github.com/OpenZeppelin/openzeppelin-contracts/blob/v5.0.0/contracts/token/ERC20/ERC20.sol\":6603:6622  fromBalance < value */\n  dup2\n  dup2\n  lt\n    /* \"https://github.com/OpenZeppelin/openzeppelin-contracts/blob/v5.0.0/contracts/token/ERC20/ERC20.sol\":6599:6714  if (fromBalance < value) {... */\n  iszero\n  tag_62\n  jumpi\n    /* \"https://github.com/OpenZeppelin/openzeppelin-contracts/blob/v5.0.0/contracts/token/ERC20/ERC20.sol\":6649:6699  ERC20InsufficientBalance(from, fromBalance, value) */\n  mload(0x40)\n  shl(0xe2, 0x391434e3)\n  dup2\n  mstore\n  sub(shl(0xa0, 0x01), 0x01)\n    /* \"#utility.yul\":5774:5806   */\n  dup6\n  and\n    /* \"https://github.com/OpenZeppelin/openzeppelin-contracts/blob/v5.0.0/contracts/token/ERC20/ERC20.sol\":6649:6699  ERC20InsufficientBalance(from, fromBalance, value) */\n  0x04\n  dup3\n  add\n    /* \"#utility.yul\":5756:5807   */\n  mstore\n    /* \"#utility.yul\":5823:5841   */\n  0x24\n  dup2\n  add\n    /* \"#utility.yul\":5816:5850   */\n  dup3\n  swap1\n  mstore\n    /* \"#utility.yul\":5866:5884   */\n  0x44\n  dup2\n  add\n    /* \"#utility.yul\":5859:5893   */\n  dup4\n  swap1\n  mstore\n    /* \"#utility.yul\":5729:5747   */\n  0x64\n  add\n    /* \"https://github.com/OpenZeppelin/openzeppelin-contracts/blob/v5.0.0/contracts/token/ERC20/ERC20.sol\":6649:6699  ERC20InsufficientBalance(from, fromBalance, value) */\n  tag_21\n    /* \"#utility.yul\":5554:5899   */\n  jump\n    /* \"https://github.com/OpenZeppelin/openzeppelin-contracts/blob/v5.0.0/contracts/token/ERC20/ERC20.sol\":6599:6714  if (fromBalance < value) {... */\ntag_62:\n  sub(shl(0xa0, 0x01), 0x01)\n    /* \"https://github.com/OpenZeppelin/openzeppelin-contracts/blob/v5.0.0/contracts/token/ERC20/ERC20.sol\":6834:6849  _balances[from] */\n  dup5\n  and\n    /* \"https://github.com/OpenZeppelin/openzeppelin-contracts/blob/v5.0.0/contracts/token/ERC20/ERC20.sol\":6834:6843  _balances */\n  0x00\n    /* \"https://github.com/OpenZeppelin/openzeppelin-contracts/blob/v5.0.0/contracts/token/ERC20/ERC20.sol\":6834:6849  _balances[from] */\n  swap1\n  dup2\n  mstore\n  0x20\n  dup2\n  swap1\n  mstore\n  0x40\n  swap1\n  keccak256\n    /* \"https://github.com/OpenZeppelin/openzeppelin-contracts/blob/v5.0.0/contracts/token/ERC20/ERC20.sol\":6852:6871  fromBalance - value */\n  swap1\n  dup3\n  swap1\n  sub\n    /* \"https://github.com/OpenZeppelin/openzeppelin-contracts/blob/v5.0.0/contracts/token/ERC20/ERC20.sol\":6834:6871  _balances[from] = fromBalance - value */\n  swap1\n  sstore\n    /* \"https://github.com/OpenZeppelin/openzeppelin-contracts/blob/v5.0.0/contracts/token/ERC20/ERC20.sol\":6356:6896  if (from == address(0)) {... */\ntag_61:\n  sub(shl(0xa0, 0x01), 0x01)\n    /* \"https://github.com/OpenZeppelin/openzeppelin-contracts/blob/v5.0.0/contracts/token/ERC20/ERC20.sol\":6910:6926  to == address(0) */\n  dup3\n  and\n    /* \"https://github.com/OpenZeppelin/openzeppelin-contracts/blob/v5.0.0/contracts/token/ERC20/ERC20.sol\":6906:7331  if (to == address(0)) {... */\n  tag_65\n  jumpi\n    /* \"https://github.com/OpenZeppelin/openzeppelin-contracts/blob/v5.0.0/contracts/token/ERC20/ERC20.sol\":7073:7085  _totalSupply */\n  0x02\n    /* \"https://github.com/OpenZeppelin/openzeppelin-contracts/blob/v5.0.0/contracts/token/ERC20/ERC20.sol\":7073:7094  _totalSupply -= value */\n  dup1\n  sload\n  dup3\n  swap1\n  sub\n  swap1\n  sstore\n    /* \"https://github.com/OpenZeppelin/openzeppelin-contracts/blob/v5.0.0/contracts/token/ERC20/ERC20.sol\":6906:7331  if (to == address(0)) {... */\n  jump(tag_66)\ntag_65:\n  sub(shl(0xa0, 0x01), 0x01)\n    /* \"https://github.com/OpenZeppelin/openzeppelin-contracts/blob/v5.0.0/contracts/token/ERC20/ERC20.sol\":7284:7297  _balances[to] */\n  dup3\n  and\n    /* \"https://github.com/OpenZeppelin/openzeppelin-contracts/blob/v5.0.0/contracts/token/ERC20/ERC20.sol\":7284:7293  _balances */\n  0x00\n    /* \"https://github.com/OpenZeppelin/openzeppelin-contracts/blob/v5.0.0/contracts/token/ERC20/ERC20.sol\":7284:7297  _balances[to] */\n  swap1\n  dup2\n  mstore\n  0x20\n  dup2\n  swap1\n  mstore\n  0x40\n  swap1\n  keccak256\n    /* \"https://github.com/OpenZeppelin/openzeppelin-contracts/blob/v5.0.0/contracts/token/ERC20/ERC20.sol\":7284:7306  _balances[to] += value */\n  dup1\n  sload\n  dup3\n  add\n  swap1\n  sstore\n    /* \"https://github.com/OpenZeppelin/openzeppelin-contracts/blob/v5.0.0/contracts/token/ERC20/ERC20.sol\":6906:7331  if (to == address(0)) {... */\ntag_66:\n    /* \"https://github.com/OpenZeppelin/openzeppelin-contracts/blob/v5.0.0/contracts/token/ERC20/ERC20.sol\":7361:7363  to */\n  dup2\n  sub(shl(0xa0, 0x01), 0x01)\n    /* \"https://github.com/OpenZeppelin/openzeppelin-contracts/blob/v5.0.0/contracts/token/ERC20/ERC20.sol\":7346:7371  Transfer(from, to, value) */\n  and\n    /* \"https://github.com/OpenZeppelin/openzeppelin-contracts/blob/v5.0.0/contracts/token/ERC20/ERC20.sol\":7355:7359  from */\n  dup4\n  sub(shl(0xa0, 0x01), 0x01)\n    /* \"https://github.com/OpenZeppelin/openzeppelin-contracts/blob/v5.0.0/contracts/token/ERC20/ERC20.sol\":7346:7371  Transfer(from, to, value) */\n  and\n  0xddf252ad1be2c89b69c2b068fc378daa952ba7f163c4a11628f55a4df523b3ef\n    /* \"https://github.com/OpenZeppelin/openzeppelin-contracts/blob/v5.0.0/contracts/token/ERC20/ERC20.sol\":7365:7370  value */\n  dup4\n    /* \"https://github.com/OpenZeppelin/openzeppelin-contracts/blob/v5.0.0/contracts/token/ERC20/ERC20.sol\":7346:7371  Transfer(from, to, value) */\n  mload(0x40)\n  tag_55\n  swap2\n    /* \"#utility.yul\":5291:5316   */\n  dup2\n  mstore\n    /* \"#utility.yul\":5279:5281   */\n  0x20\n    /* \"#utility.yul\":5264:5282   */\n  add\n  swap1\n    /* \"#utility.yul\":5145:5322   */\n  jump\n    /* \"#utility.yul\":14:304   */\ntag_3:\n    /* \"#utility.yul\":84:90   */\n  0x00\n    /* \"#utility.yul\":137:139   */\n  0x20\n    /* \"#utility.yul\":125:134   */\n  dup3\n    /* \"#utility.yul\":116:123   */\n  dup5\n    /* \"#utility.yul\":112:135   */\n  sub\n    /* \"#utility.yul\":108:140   */\n  slt\n    /* \"#utility.yul\":105:157   */\n  iszero\n  tag_75\n  jumpi\n    /* \"#utility.yul\":153:154   */\n  0x00\n    /* \"#utility.yul\":150:151   */\n  dup1\n    /* \"#utility.yul\":143:155   */\n  revert\n    /* \"#utility.yul\":105:157   */\ntag_75:\n    /* \"#utility.yul\":179:195   */\n  dup2\n  mload\n  sub(shl(0xa0, 0x01), 0x01)\n    /* \"#utility.yul\":224:255   */\n  dup2\n  and\n    /* \"#utility.yul\":214:256   */\n  dup2\n  eq\n    /* \"#utility.yul\":204:274   */\n  tag_76\n  jumpi\n    /* \"#utility.yul\":270:271   */\n  0x00\n    /* \"#utility.yul\":267:268   */\n  dup1\n    /* \"#utility.yul\":260:272   */\n  revert\n    /* \"#utility.yul\":204:274   */\ntag_76:\n    /* \"#utility.yul\":293:298   */\n  swap4\n    /* \"#utility.yul\":14:304   */\n  swap3\n  pop\n  pop\n  pop\n  jump\t// out\n    /* \"#utility.yul\":309:436   */\ntag_68:\n    /* \"#utility.yul\":370:380   */\n  0x4e487b71\n    /* \"#utility.yul\":365:368   */\n  0xe0\n    /* \"#utility.yul\":361:381   */\n  shl\n    /* \"#utility.yul\":358:359   */\n  0x00\n    /* \"#utility.yul\":351:382   */\n  mstore\n    /* \"#utility.yul\":401:405   */\n  0x41\n    /* \"#utility.yul\":398:399   */\n  0x04\n    /* \"#utility.yul\":391:406   */\n  mstore\n    /* \"#utility.yul\":425:429   */\n  0x24\n    /* \"#utility.yul\":422:423   */\n  0x00\n    /* \"#utility.yul\":415:430   */\n  revert\n    /* \"#utility.yul\":441:821   */\ntag_69:\n    /* \"#utility.yul\":520:521   */\n  0x01\n    /* \"#utility.yul\":516:528   */\n  dup2\n  dup2\n  shr\n  swap1\n    /* \"#utility.yul\":563:575   */\n  dup3\n  and\n  dup1\n    /* \"#utility.yul\":584:645   */\n  tag_79\n  jumpi\n    /* \"#utility.yul\":638:642   */\n  0x7f\n    /* \"#utility.yul\":630:636   */\n  dup3\n    /* \"#utility.yul\":626:643   */\n  and\n    /* \"#utility.yul\":616:643   */\n  swap2\n  pop\n    /* \"#utility.yul\":584:645   */\ntag_79:\n    /* \"#utility.yul\":691:693   */\n  0x20\n    /* \"#utility.yul\":683:689   */\n  dup3\n    /* \"#utility.yul\":680:694   */\n  lt\n    /* \"#utility.yul\":660:678   */\n  dup2\n    /* \"#utility.yul\":657:695   */\n  sub\n    /* \"#utility.yul\":654:815   */\n  tag_80\n  jumpi\n    /* \"#utility.yul\":737:747   */\n  0x4e487b71\n    /* \"#utility.yul\":732:735   */\n  0xe0\n    /* \"#utility.yul\":728:748   */\n  shl\n    /* \"#utility.yul\":725:726   */\n  0x00\n    /* \"#utility.yul\":718:749   */\n  mstore\n    /* \"#utility.yul\":772:776   */\n  0x22\n    /* \"#utility.yul\":769:770   */\n  0x04\n    /* \"#utility.yul\":762:777   */\n  mstore\n    /* \"#utility.yul\":800:804   */\n  0x24\n    /* \"#utility.yul\":797:798   */\n  0x00\n    /* \"#utility.yul\":790:805   */\n  revert\n    /* \"#utility.yul\":654:815   */\ntag_80:\n  pop\n    /* \"#utility.yul\":441:821   */\n  swap2\n  swap1\n  pop\n  jump\t// out\n    /* \"#utility.yul\":952:1470   */\ntag_71:\n    /* \"#utility.yul\":1054:1056   */\n  0x1f\n    /* \"#utility.yul\":1049:1052   */\n  dup3\n    /* \"#utility.yul\":1046:1057   */\n  gt\n    /* \"#utility.yul\":1043:1464   */\n  iszero\n  tag_83\n  jumpi\n    /* \"#utility.yul\":1090:1095   */\n  dup1\n    /* \"#utility.yul\":1087:1088   */\n  0x00\n    /* \"#utility.yul\":1080:1096   */\n  mstore\n    /* \"#utility.yul\":1134:1138   */\n  0x20\n    /* \"#utility.yul\":1131:1132   */\n  0x00\n    /* \"#utility.yul\":1121:1139   */\n  keccak256\n    /* \"#utility.yul\":1204:1206   */\n  0x1f\n    /* \"#utility.yul\":1192:1202   */\n  dup5\n    /* \"#utility.yul\":1188:1207   */\n  add\n    /* \"#utility.yul\":1185:1186   */\n  0x05\n    /* \"#utility.yul\":1181:1208   */\n  shr\n    /* \"#utility.yul\":1175:1179   */\n  dup2\n    /* \"#utility.yul\":1171:1209   */\n  add\n    /* \"#utility.yul\":1240:1244   */\n  0x20\n    /* \"#utility.yul\":1228:1238   */\n  dup6\n    /* \"#utility.yul\":1225:1245   */\n  lt\n    /* \"#utility.yul\":1222:1269   */\n  iszero\n  tag_84\n  jumpi\n  pop\n    /* \"#utility.yul\":1263:1267   */\n  dup1\n    /* \"#utility.yul\":1222:1269   */\ntag_84:\n    /* \"#utility.yul\":1318:1320   */\n  0x1f\n    /* \"#utility.yul\":1313:1316   */\n  dup5\n    /* \"#utility.yul\":1309:1321   */\n  add\n    /* \"#utility.yul\":1306:1307   */\n  0x05\n    /* \"#utility.yul\":1302:1322   */\n  shr\n    /* \"#utility.yul\":1296:1300   */\n  dup3\n    /* \"#utility.yul\":1292:1323   */\n  add\n    /* \"#utility.yul\":1282:1323   */\n  swap2\n  pop\n    /* \"#utility.yul\":1373:1454   */\ntag_85:\n    /* \"#utility.yul\":1391:1393   */\n  dup2\n    /* \"#utility.yul\":1384:1389   */\n  dup2\n    /* \"#utility.yul\":1381:1394   */\n  lt\n    /* \"#utility.yul\":1373:1454   */\n  iszero\n  tag_87\n  jumpi\n    /* \"#utility.yul\":1450:1451   */\n  0x00\n    /* \"#utility.yul\":1436:1452   */\n  dup2\n  sstore\n    /* \"#utility.yul\":1417:1418   */\n  0x01\n    /* \"#utility.yul\":1406:1419   */\n  add\n    /* \"#utility.yul\":1373:1454   */\n  jump(tag_85)\ntag_87:\n    /* \"#utility.yul\":1377:1380   */\n  pop\n  pop\n    /* \"#utility.yul\":1043:1464   */\ntag_83:\n    /* \"#utility.yul\":952:1470   */\n  pop\n  pop\n  pop\n  jump\t// out\n    /* \"#utility.yul\":1646:2945   */\ntag_10:\n    /* \"#utility.yul\":1766:1776   */\n  dup2\n  mload\n  sub(shl(0x40, 0x01), 0x01)\n    /* \"#utility.yul\":1788:1818   */\n  dup2\n  gt\n    /* \"#utility.yul\":1785:1841   */\n  iszero\n  tag_91\n  jumpi\n    /* \"#utility.yul\":1821:1839   */\n  tag_91\n  tag_68\n  jump\t// in\ntag_91:\n    /* \"#utility.yul\":1850:1947   */\n  tag_92\n    /* \"#utility.yul\":1940:1946   */\n  dup2\n    /* \"#utility.yul\":1900:1938   */\n  tag_93\n    /* \"#utility.yul\":1932:1936   */\n  dup5\n    /* \"#utility.yul\":1926:1937   */\n  sload\n    /* \"#utility.yul\":1900:1938   */\n  tag_69\n  jump\t// in\ntag_93:\n    /* \"#utility.yul\":1894:1898   */\n  dup5\n    /* \"#utility.yul\":1850:1947   */\n  tag_71\n  jump\t// in\ntag_92:\n    /* \"#utility.yul\":1996:2000   */\n  0x20\n    /* \"#utility.yul\":2027:2029   */\n  0x1f\n    /* \"#utility.yul\":2016:2030   */\n  dup3\n  gt\n    /* \"#utility.yul\":2044:2045   */\n  0x01\n    /* \"#utility.yul\":2039:2688   */\n  dup2\n  eq\n  tag_95\n  jumpi\n    /* \"#utility.yul\":2732:2733   */\n  0x00\n    /* \"#utility.yul\":2749:2755   */\n  dup4\n    /* \"#utility.yul\":2746:2835   */\n  iszero\n  tag_96\n  jumpi\n  pop\n    /* \"#utility.yul\":2801:2820   */\n  dup5\n  dup3\n  add\n    /* \"#utility.yul\":2795:2821   */\n  mload\n    /* \"#utility.yul\":2746:2835   */\ntag_96:\n  not(0x00)\n    /* \"#utility.yul\":1603:1604   */\n  0x03\n    /* \"#utility.yul\":1599:1610   */\n  dup6\n  swap1\n  shl\n    /* \"#utility.yul\":1595:1619   */\n  shr\n    /* \"#utility.yul\":1591:1620   */\n  not\n    /* \"#utility.yul\":1581:1621   */\n  and\n    /* \"#utility.yul\":1627:1628   */\n  0x01\n    /* \"#utility.yul\":1623:1634   */\n  dup5\n  swap1\n  shl\n    /* \"#utility.yul\":1578:1635   */\n  or\n    /* \"#utility.yul\":2848:2929   */\n  dup5\n  sstore\n    /* \"#utility.yul\":2009:2939   */\n  jump(tag_87)\n    /* \"#utility.yul\":2039:2688   */\ntag_95:\n    /* \"#utility.yul\":899:900   */\n  0x00\n    /* \"#utility.yul\":892:906   */\n  dup5\n  dup2\n  mstore\n    /* \"#utility.yul\":936:940   */\n  0x20\n    /* \"#utility.yul\":923:941   */\n  dup2\n  keccak256\n  not(0x1f)\n    /* \"#utility.yul\":2075:2095   */\n  dup6\n  and\n  swap2\n    /* \"#utility.yul\":2193:2415   */\ntag_99:\n    /* \"#utility.yul\":2207:2214   */\n  dup3\n    /* \"#utility.yul\":2204:2205   */\n  dup2\n    /* \"#utility.yul\":2201:2215   */\n  lt\n    /* \"#utility.yul\":2193:2415   */\n  iszero\n  tag_101\n  jumpi\n    /* \"#utility.yul\":2289:2308   */\n  dup8\n  dup6\n  add\n    /* \"#utility.yul\":2283:2309   */\n  mload\n    /* \"#utility.yul\":2268:2310   */\n  dup3\n  sstore\n    /* \"#utility.yul\":2396:2400   */\n  0x20\n    /* \"#utility.yul\":2381:2401   */\n  swap5\n  dup6\n  add\n  swap5\n    /* \"#utility.yul\":2349:2350   */\n  0x01\n    /* \"#utility.yul\":2337:2351   */\n  swap1\n  swap3\n  add\n  swap2\n    /* \"#utility.yul\":2223:2235   */\n  add\n    /* \"#utility.yul\":2193:2415   */\n  jump(tag_99)\ntag_101:\n    /* \"#utility.yul\":2197:2200   */\n  pop\n    /* \"#utility.yul\":2443:2449   */\n  dup5\n    /* \"#utility.yul\":2434:2441   */\n  dup3\n    /* \"#utility.yul\":2431:2450   */\n  lt\n    /* \"#utility.yul\":2428:2629   */\n  iszero\n  tag_102\n  jumpi\n    /* \"#utility.yul\":2504:2523   */\n  dup7\n  dup5\n  add\n    /* \"#utility.yul\":2498:2524   */\n  mload\n  not(0x00)\n    /* \"#utility.yul\":2587:2588   */\n  0x03\n    /* \"#utility.yul\":2583:2597   */\n  dup8\n  swap1\n  shl\n    /* \"#utility.yul\":2599:2602   */\n  0xf8\n    /* \"#utility.yul\":2579:2603   */\n  and\n    /* \"#utility.yul\":2575:2612   */\n  shr\n    /* \"#utility.yul\":2571:2613   */\n  not\n    /* \"#utility.yul\":2556:2614   */\n  and\n    /* \"#utility.yul\":2541:2615   */\n  dup2\n  sstore\n    /* \"#utility.yul\":2428:2629   */\ntag_102:\n  pop\n  pop\n  pop\n  pop\n    /* \"#utility.yul\":2675:2676   */\n  0x01\n    /* \"#utility.yul\":2659:2673   */\n  swap1\n  dup2\n  shl\n    /* \"#utility.yul\":2655:2677   */\n  add\n    /* \"#utility.yul\":2642:2678   */\n  swap1\n  sstore\n  pop\n    /* \"#utility.yul\":1646:2945   */\n  jump\t// out\n    /* \"#utility.yul\":4311:4838   */\ntag_48:\n    /* \"#utility.yul\":4460:4462   */\n  0x20\n    /* \"#utility.yul\":4449:4458   */\n  dup2\n    /* \"#utility.yul\":4442:4463   */\n  mstore\n    /* \"#utility.yul\":4423:4427   */\n  0x00\n    /* \"#utility.yul\":4492:4498   */\n  dup3\n    /* \"#utility.yul\":4486:4499   */\n  mload\n    /* \"#utility.yul\":4535:4541   */\n  dup1\n    /* \"#utility.yul\":4530:4532   */\n  0x20\n    /* \"#utility.yul\":4519:4528   */\n  dup5\n    /* \"#utility.yul\":4515:4533   */\n  add\n    /* \"#utility.yul\":4508:4542   */\n  mstore\n    /* \"#utility.yul\":4560:4561   */\n  0x00\n    /* \"#utility.yul\":4570:4710   */\ntag_108:\n    /* \"#utility.yul\":4584:4590   */\n  dup2\n    /* \"#utility.yul\":4581:4582   */\n  dup2\n    /* \"#utility.yul\":4578:4591   */\n  lt\n    /* \"#utility.yul\":4570:4710   */\n  iszero\n  tag_110\n  jumpi\n    /* \"#utility.yul\":4695:4697   */\n  0x20\n    /* \"#utility.yul\":4679:4693   */\n  dup2\n  dup7\n  add\n    /* \"#utility.yul\":4675:4698   */\n  dup2\n  add\n    /* \"#utility.yul\":4669:4699   */\n  mload\n    /* \"#utility.yul\":4664:4666   */\n  0x40\n    /* \"#utility.yul\":4645:4662   */\n  dup7\n  dup5\n  add\n    /* \"#utility.yul\":4641:4667   */\n  add\n    /* \"#utility.yul\":4634:4700   */\n  mstore\n    /* \"#utility.yul\":4599:4609   */\n  add\n    /* \"#utility.yul\":4570:4710   */\n  jump(tag_108)\ntag_110:\n    /* \"#utility.yul\":4574:4577   */\n  pop\n    /* \"#utility.yul\":4759:4760   */\n  0x00\n    /* \"#utility.yul\":4754:4756   */\n  0x40\n    /* \"#utility.yul\":4745:4751   */\n  dup3\n    /* \"#utility.yul\":4734:4743   */\n  dup6\n    /* \"#utility.yul\":4730:4752   */\n  add\n    /* \"#utility.yul\":4726:4757   */\n  add\n    /* \"#utility.yul\":4719:4761   */\n  mstore\n    /* \"#utility.yul\":4829:4831   */\n  0x40\n    /* \"#utility.yul\":4822:4824   */\n  0x1f\n    /* \"#utility.yul\":4818:4825   */\n  not\n    /* \"#utility.yul\":4813:4815   */\n  0x1f\n    /* \"#utility.yul\":4805:4811   */\n  dup4\n    /* \"#utility.yul\":4801:4816   */\n  add\n    /* \"#utility.yul\":4797:4826   */\n  and\n    /* \"#utility.yul\":4786:4795   */\n  dup5\n    /* \"#utility.yul\":4782:4827   */\n  add\n    /* \"#utility.yul\":4778:4832   */\n  add\n    /* \"#utility.yul\":4770:4832   */\n  swap2\n  pop\n  pop\n    /* \"#utility.yul\":4311:4838   */\n  swap3\n  swap2\n  pop\n  pop\n  jump\t// out\n    /* \"#utility.yul\":4843:5140   */\ntag_50:\n    /* \"#utility.yul\":4961:4973   */\n  dup1\n  mload\n    /* \"#utility.yul\":5008:5012   */\n  0x20\n    /* \"#utility.yul\":4997:5013   */\n  dup1\n  dup4\n  add\n    /* \"#utility.yul\":4991:5014   */\n  mload\n  swap2\n    /* \"#utility.yul\":4961:4973   */\n  swap1\n    /* \"#utility.yul\":5026:5042   */\n  dup2\n  lt\n    /* \"#utility.yul\":5023:5134   */\n  iszero\n  tag_80\n  jumpi\n  not(0x00)\n    /* \"#utility.yul\":5100:5104   */\n  0x20\n    /* \"#utility.yul\":5096:5113   */\n  swap2\n  swap1\n  swap2\n  sub\n    /* \"#utility.yul\":5093:5094   */\n  0x03\n    /* \"#utility.yul\":5089:5114   */\n  shl\n    /* \"#utility.yul\":5085:5123   */\n  shl\n    /* \"#utility.yul\":5074:5124   */\n  and\n  swap2\n    /* \"#utility.yul\":4843:5140   */\n  swap1\n  pop\n  jump\t// out\n    /* \"#utility.yul\":5327:5549   */\ntag_60:\n    /* \"#utility.yul\":5392:5401   */\n  dup1\n  dup3\n  add\n    /* \"#utility.yul\":5413:5423   */\n  dup1\n  dup3\n  gt\n    /* \"#utility.yul\":5410:5543   */\n  iszero\n  tag_32\n  jumpi\n    /* \"#utility.yul\":5465:5475   */\n  0x4e487b71\n    /* \"#utility.yul\":5460:5463   */\n  0xe0\n    /* \"#utility.yul\":5456:5476   */\n  shl\n    /* \"#utility.yul\":5453:5454   */\n  0x00\n    /* \"#utility.yul\":5446:5477   */\n  mstore\n    /* \"#utility.yul\":5500:5504   */\n  0x11\n    /* \"#utility.yul\":5497:5498   */\n  0x04\n    /* \"#utility.yul\":5490:5505   */\n  mstore\n    /* \"#utility.yul\":5528:5532   */\n  0x24\n    /* \"#utility.yul\":5525:5526   */\n  0x00\n    /* \"#utility.yul\":5518:5533   */\n  revert\n    /* \"#utility.yul\":5554:5899   */\ntag_73:\n    /* \"Smart-Contract/PNJS.sol\":1022:2721  contract PanjoCoin is ERC20, ERC20Burnable, ERC20Permit {... */\n  mload(0x80)\n  mload(0xa0)\n  mload(0xc0)\n  mload(0xe0)\n  mload(0x0100)\n  mload(0x0120)\n  mload(0x0140)\n  mload(0x0160)\n  mload(0x0180)\n  codecopy(0x00, dataOffset(sub_0), dataSize(sub_0))\n  0x00\n  assignImmutable(\"0xf4c2b5de886427473655d4c904c743576dc2d53249b7535d96c06cc97ae7216b\")\n  0x00\n  assignImmutable(\"0x939eb54753ed0cc7e2272bfb34cbe098308c93936ed54d79078f76ade0b2e789\")\n  0x00\n  assignImmutable(\"0x398a720a8ec2522f64eeb420e5a81c87e49a9144c43a1371044e56d8bd13e393\")\n  0x00\n  assignImmutable(\"0x0f15169db450d82871226d7ccc49949de9cae10f41fe31bd2fa496ddb5e99790\")\n  0x00\n  assignImmutable(\"0x26575d7093b9e2308e84f72221be5a57716e858ab053c2f52c3f486c6b3f791c\")\n  0x00\n  assignImmutable(\"0xdc63599416520dd17543322b9d519c440b04c19dc80a2f3075d1d8445b8bcfe9\")\n  0x00\n  assignImmutable(\"0x551ebb3edb72774934e005837770de585c3863f1eef743adee80bd22fdce145f\")\n  0x00\n  assignImmutable(\"0xc995e2d85bcc1721e3635c3931b32d6a76ea6ae3e536d9da630ae04bc536ba75\")\n  0x00\n  assignImmutable(\"0x3290d31e6a2b54fc830a5ff8ae8343924ca67faedd9823bbd77d0276caea15ab\")\n  return(0x00, dataSize(sub_0))\nstop\n\nsub_0: assembly {\n        /* \"Smart-Contract/PNJS.sol\":1022:2721  contract PanjoCoin is ERC20, ERC20Burnable, ERC20Permit {... */\n      mstore(0x40, 0x80)\n      callvalue\n      dup1\n      iszero\n      tag_1\n      jumpi\n      0x00\n      dup1\n      revert\n    tag_1:\n      pop\n      jumpi(tag_2, lt(calldatasize, 0x04))\n      shr(0xe0, calldataload(0x00))\n      dup1\n      0x70a08231\n      gt\n      tag_21\n      jumpi\n      dup1\n      0x95d89b41\n      gt\n      tag_22\n      jumpi\n      dup1\n      0x95d89b41\n      eq\n      tag_16\n      jumpi\n      dup1\n      0xa9059cbb\n      eq\n      tag_17\n      jumpi\n      dup1\n      0xd505accf\n      eq\n      tag_18\n      jumpi\n      dup1\n      0xdd62ed3e\n      eq\n      tag_19\n      jumpi\n      dup1\n      0xecda10f5\n      eq\n      tag_20\n      jumpi\n      0x00\n      dup1\n      revert\n    tag_22:\n      dup1\n      0x70a08231\n      eq\n      tag_12\n      jumpi\n      dup1\n      0x79cc6790\n      eq\n      tag_13\n      jumpi\n      dup1\n      0x7ecebe00\n      eq\n      tag_14\n      jumpi\n      dup1\n      0x84b0196e\n      eq\n      tag_15\n      jumpi\n      0x00\n      dup1\n      revert\n    tag_21:\n      dup1\n      0x313ce567\n      gt\n      tag_23\n      jumpi\n      dup1\n      0x313ce567\n      eq\n      tag_7\n      jumpi\n      dup1\n      0x32cb6b0c\n      eq\n      tag_8\n      jumpi\n      dup1\n      0x3644e515\n      eq\n      tag_9\n      jumpi\n      dup1\n      0x42966c68\n      eq\n      tag_10\n      jumpi\n      dup1\n      0x61d027b3\n      eq\n      tag_11\n      jumpi\n      0x00\n      dup1\n      revert\n    tag_23:\n      dup1\n      0x06fdde03\n      eq\n      tag_3\n      jumpi\n      dup1\n      0x095ea7b3\n      eq\n      tag_4\n      jumpi\n      dup1\n      0x18160ddd\n      eq\n      tag_5\n      jumpi\n      dup1\n      0x23b872dd\n      eq\n      tag_6\n      jumpi\n    tag_2:\n      0x00\n      dup1\n      revert\n        /* \"https://github.com/OpenZeppelin/openzeppelin-contracts/blob/v5.0.0/contracts/token/ERC20/ERC20.sol\":2074:2163  function name() public view virtual returns (string memory) {... */\n    tag_3:\n      tag_24\n      tag_25\n      jump\t// in\n    tag_24:\n      mload(0x40)\n      tag_26\n      swap2\n      swap1\n      tag_27\n      jump\t// in\n    tag_26:\n      mload(0x40)\n      dup1\n      swap2\n      sub\n      swap1\n      return\n        /* \"https://github.com/OpenZeppelin/openzeppelin-contracts/blob/v5.0.0/contracts/token/ERC20/ERC20.sol\":4293:4479  function approve(address spender, uint256 value) public virtual returns (bool) {... */\n    tag_4:\n      tag_28\n      tag_29\n      calldatasize\n      0x04\n      tag_30\n      jump\t// in\n    tag_29:\n      tag_31\n      jump\t// in\n    tag_28:\n      mload(0x40)\n        /* \"#utility.yul\":1292:1306   */\n      swap1\n      iszero\n        /* \"#utility.yul\":1285:1307   */\n      iszero\n        /* \"#utility.yul\":1267:1308   */\n      dup2\n      mstore\n        /* \"#utility.yul\":1255:1257   */\n      0x20\n        /* \"#utility.yul\":1240:1258   */\n      add\n        /* \"https://github.com/OpenZeppelin/openzeppelin-contracts/blob/v5.0.0/contracts/token/ERC20/ERC20.sol\":4293:4479  function approve(address spender, uint256 value) public virtual returns (bool) {... */\n      tag_26\n        /* \"#utility.yul\":1127:1314   */\n      jump\n        /* \"https://github.com/OpenZeppelin/openzeppelin-contracts/blob/v5.0.0/contracts/token/ERC20/ERC20.sol\":3144:3241  function totalSupply() public view virtual returns (uint256) {... */\n    tag_5:\n        /* \"https://github.com/OpenZeppelin/openzeppelin-contracts/blob/v5.0.0/contracts/token/ERC20/ERC20.sol\":3222:3234  _totalSupply */\n      sload(0x02)\n        /* \"https://github.com/OpenZeppelin/openzeppelin-contracts/blob/v5.0.0/contracts/token/ERC20/ERC20.sol\":3144:3241  function totalSupply() public view virtual returns (uint256) {... */\n    tag_34:\n      mload(0x40)\n        /* \"#utility.yul\":1465:1490   */\n      swap1\n      dup2\n      mstore\n        /* \"#utility.yul\":1453:1455   */\n      0x20\n        /* \"#utility.yul\":1438:1456   */\n      add\n        /* \"https://github.com/OpenZeppelin/openzeppelin-contracts/blob/v5.0.0/contracts/token/ERC20/ERC20.sol\":3144:3241  function totalSupply() public view virtual returns (uint256) {... */\n      tag_26\n        /* \"#utility.yul\":1319:1496   */\n      jump\n        /* \"https://github.com/OpenZeppelin/openzeppelin-contracts/blob/v5.0.0/contracts/token/ERC20/ERC20.sol\":5039:5283  function transferFrom(address from, address to, uint256 value) public virtual returns (bool) {... */\n    tag_6:\n      tag_28\n      tag_39\n      calldatasize\n      0x04\n      tag_40\n      jump\t// in\n    tag_39:\n      tag_41\n      jump\t// in\n        /* \"https://github.com/OpenZeppelin/openzeppelin-contracts/blob/v5.0.0/contracts/token/ERC20/ERC20.sol\":3002:3084  function decimals() public view virtual returns (uint8) {... */\n    tag_7:\n      mload(0x40)\n        /* \"https://github.com/OpenZeppelin/openzeppelin-contracts/blob/v5.0.0/contracts/token/ERC20/ERC20.sol\":3075:3077  18 */\n      0x12\n        /* \"#utility.yul\":2022:2058   */\n      dup2\n      mstore\n        /* \"#utility.yul\":2010:2012   */\n      0x20\n        /* \"#utility.yul\":1995:2013   */\n      add\n        /* \"https://github.com/OpenZeppelin/openzeppelin-contracts/blob/v5.0.0/contracts/token/ERC20/ERC20.sol\":3002:3084  function decimals() public view virtual returns (uint8) {... */\n      tag_26\n        /* \"#utility.yul\":1880:2064   */\n      jump\n        /* \"Smart-Contract/PNJS.sol\":1135:1198  uint256 public constant MAX_SUPPLY = 1_000_000_000_000 * 10**18 */\n    tag_8:\n      tag_34\n        /* \"Smart-Contract/PNJS.sol\":1172:1198  1_000_000_000_000 * 10**18 */\n      0x0c9f2c9cd04674edea40000000\n        /* \"Smart-Contract/PNJS.sol\":1135:1198  uint256 public constant MAX_SUPPLY = 1_000_000_000_000 * 10**18 */\n      dup2\n      jump\n        /* \"https://github.com/OpenZeppelin/openzeppelin-contracts/blob/v5.0.0/contracts/token/ERC20/extensions/ERC20Permit.sol\":2656:2768  function DOMAIN_SEPARATOR() external view virtual returns (bytes32) {... */\n    tag_9:\n      tag_34\n      tag_51\n      jump\t// in\n        /* \"Smart-Contract/PNJS.sol\":2367:2492  function burn(uint256 value) public override {... */\n    tag_10:\n      tag_54\n      tag_55\n      calldatasize\n      0x04\n      tag_56\n      jump\t// in\n    tag_55:\n      tag_57\n      jump\t// in\n    tag_54:\n      stop\n        /* \"Smart-Contract/PNJS.sol\":1207:1240  address public immutable treasury */\n    tag_11:\n      tag_58\n      immutable(\"0x939eb54753ed0cc7e2272bfb34cbe098308c93936ed54d79078f76ade0b2e789\")\n      dup2\n      jump\n    tag_58:\n      mload(0x40)\n      sub(shl(0xa0, 0x01), 0x01)\n        /* \"#utility.yul\":2646:2678   */\n      swap1\n      swap2\n      and\n        /* \"#utility.yul\":2628:2679   */\n      dup2\n      mstore\n        /* \"#utility.yul\":2616:2618   */\n      0x20\n        /* \"#utility.yul\":2601:2619   */\n      add\n        /* \"Smart-Contract/PNJS.sol\":1207:1240  address public immutable treasury */\n      tag_26\n        /* \"#utility.yul\":2482:2685   */\n      jump\n        /* \"https://github.com/OpenZeppelin/openzeppelin-contracts/blob/v5.0.0/contracts/token/ERC20/ERC20.sol\":3299:3415  function balanceOf(address account) public view virtual returns (uint256) {... */\n    tag_12:\n      tag_34\n      tag_63\n      calldatasize\n      0x04\n      tag_64\n      jump\t// in\n    tag_63:\n      sub(shl(0xa0, 0x01), 0x01)\n        /* \"https://github.com/OpenZeppelin/openzeppelin-contracts/blob/v5.0.0/contracts/token/ERC20/ERC20.sol\":3390:3408  _balances[account] */\n      and\n        /* \"https://github.com/OpenZeppelin/openzeppelin-contracts/blob/v5.0.0/contracts/token/ERC20/ERC20.sol\":3364:3371  uint256 */\n      0x00\n        /* \"https://github.com/OpenZeppelin/openzeppelin-contracts/blob/v5.0.0/contracts/token/ERC20/ERC20.sol\":3390:3408  _balances[account] */\n      swap1\n      dup2\n      mstore\n      0x20\n      dup2\n      swap1\n      mstore\n      0x40\n      swap1\n      keccak256\n      sload\n      swap1\n        /* \"https://github.com/OpenZeppelin/openzeppelin-contracts/blob/v5.0.0/contracts/token/ERC20/ERC20.sol\":3299:3415  function balanceOf(address account) public view virtual returns (uint256) {... */\n      jump\n        /* \"Smart-Contract/PNJS.sol\":2562:2718  function burnFrom(address account, uint256 value) public override {... */\n    tag_13:\n      tag_54\n      tag_68\n      calldatasize\n      0x04\n      tag_30\n      jump\t// in\n    tag_68:\n      tag_69\n      jump\t// in\n        /* \"https://github.com/OpenZeppelin/openzeppelin-contracts/blob/v5.0.0/contracts/token/ERC20/extensions/ERC20Permit.sol\":2406:2549  function nonces(address owner) public view virtual override(IERC20Permit, Nonces) returns (uint256) {... */\n    tag_14:\n      tag_34\n      tag_71\n      calldatasize\n      0x04\n      tag_64\n      jump\t// in\n    tag_71:\n      tag_72\n      jump\t// in\n        /* \"https://github.com/OpenZeppelin/openzeppelin-contracts/blob/v5.0.0/contracts/utils/cryptography/EIP712.sol\":5144:5701  function eip712Domain()... */\n    tag_15:\n      tag_74\n      tag_75\n      jump\t// in\n    tag_74:\n      mload(0x40)\n      tag_26\n      swap8\n      swap7\n      swap6\n      swap5\n      swap4\n      swap3\n      swap2\n      swap1\n      tag_77\n      jump\t// in\n        /* \"https://github.com/OpenZeppelin/openzeppelin-contracts/blob/v5.0.0/contracts/token/ERC20/ERC20.sol\":2276:2369  function symbol() public view virtual returns (string memory) {... */\n    tag_16:\n      tag_24\n      tag_79\n      jump\t// in\n        /* \"https://github.com/OpenZeppelin/openzeppelin-contracts/blob/v5.0.0/contracts/token/ERC20/ERC20.sol\":3610:3788  function transfer(address to, uint256 value) public virtual returns (bool) {... */\n    tag_17:\n      tag_28\n      tag_82\n      calldatasize\n      0x04\n      tag_30\n      jump\t// in\n    tag_82:\n      tag_83\n      jump\t// in\n        /* \"https://github.com/OpenZeppelin/openzeppelin-contracts/blob/v5.0.0/contracts/token/ERC20/extensions/ERC20Permit.sol\":1680:2352  function permit(... */\n    tag_18:\n      tag_54\n      tag_86\n      calldatasize\n      0x04\n      tag_87\n      jump\t// in\n    tag_86:\n      tag_88\n      jump\t// in\n        /* \"https://github.com/OpenZeppelin/openzeppelin-contracts/blob/v5.0.0/contracts/token/ERC20/ERC20.sol\":3846:3986  function allowance(address owner, address spender) public view virtual returns (uint256) {... */\n    tag_19:\n      tag_34\n      tag_90\n      calldatasize\n      0x04\n      tag_91\n      jump\t// in\n    tag_90:\n      sub(shl(0xa0, 0x01), 0x01)\n        /* \"https://github.com/OpenZeppelin/openzeppelin-contracts/blob/v5.0.0/contracts/token/ERC20/ERC20.sol\":3952:3970  _allowances[owner] */\n      swap2\n      dup3\n      and\n        /* \"https://github.com/OpenZeppelin/openzeppelin-contracts/blob/v5.0.0/contracts/token/ERC20/ERC20.sol\":3926:3933  uint256 */\n      0x00\n        /* \"https://github.com/OpenZeppelin/openzeppelin-contracts/blob/v5.0.0/contracts/token/ERC20/ERC20.sol\":3952:3970  _allowances[owner] */\n      swap1\n      dup2\n      mstore\n        /* \"https://github.com/OpenZeppelin/openzeppelin-contracts/blob/v5.0.0/contracts/token/ERC20/ERC20.sol\":3952:3963  _allowances */\n      0x01\n        /* \"https://github.com/OpenZeppelin/openzeppelin-contracts/blob/v5.0.0/contracts/token/ERC20/ERC20.sol\":3952:3970  _allowances[owner] */\n      0x20\n      swap1\n      dup2\n      mstore\n      0x40\n      dup1\n      dup4\n      keccak256\n        /* \"https://github.com/OpenZeppelin/openzeppelin-contracts/blob/v5.0.0/contracts/token/ERC20/ERC20.sol\":3952:3979  _allowances[owner][spender] */\n      swap4\n      swap1\n      swap5\n      and\n      dup3\n      mstore\n      swap2\n      swap1\n      swap2\n      mstore\n      keccak256\n      sload\n      swap1\n        /* \"https://github.com/OpenZeppelin/openzeppelin-contracts/blob/v5.0.0/contracts/token/ERC20/ERC20.sol\":3846:3986  function allowance(address owner, address spender) public view virtual returns (uint256) {... */\n      jump\n        /* \"Smart-Contract/PNJS.sol\":1247:1286  uint256 public immutable deploymentTime */\n    tag_20:\n      tag_34\n      immutable(\"0xf4c2b5de886427473655d4c904c743576dc2d53249b7535d96c06cc97ae7216b\")\n      dup2\n      jump\n        /* \"https://github.com/OpenZeppelin/openzeppelin-contracts/blob/v5.0.0/contracts/token/ERC20/ERC20.sol\":2074:2163  function name() public view virtual returns (string memory) {... */\n    tag_25:\n        /* \"https://github.com/OpenZeppelin/openzeppelin-contracts/blob/v5.0.0/contracts/token/ERC20/ERC20.sol\":2119:2132  string memory */\n      0x60\n        /* \"https://github.com/OpenZeppelin/openzeppelin-contracts/blob/v5.0.0/contracts/token/ERC20/ERC20.sol\":2151:2156  _name */\n      0x03\n        /* \"https://github.com/OpenZeppelin/openzeppelin-contracts/blob/v5.0.0/contracts/token/ERC20/ERC20.sol\":2144:2156  return _name */\n      dup1\n      sload\n      tag_98\n      swap1\n      tag_99\n      jump\t// in\n    tag_98:\n      dup1\n      0x1f\n      add\n      0x20\n      dup1\n      swap2\n      div\n      mul\n      0x20\n      add\n      mload(0x40)\n      swap1\n      dup2\n      add\n      0x40\n      mstore\n      dup1\n      swap3\n      swap2\n      swap1\n      dup2\n      dup2\n      mstore\n      0x20\n      add\n      dup3\n      dup1\n      sload\n      tag_100\n      swap1\n      tag_99\n      jump\t// in\n    tag_100:\n      dup1\n      iszero\n      tag_101\n      jumpi\n      dup1\n      0x1f\n      lt\n      tag_102\n      jumpi\n      0x0100\n      dup1\n      dup4\n      sload\n      div\n      mul\n      dup4\n      mstore\n      swap2\n      0x20\n      add\n      swap2\n      jump(tag_101)\n    tag_102:\n      dup3\n      add\n      swap2\n      swap1\n      0x00\n      mstore\n      keccak256(0x00, 0x20)\n      swap1\n    tag_103:\n      dup2\n      sload\n      dup2\n      mstore\n      swap1\n      0x01\n      add\n      swap1\n      0x20\n      add\n      dup1\n      dup4\n      gt\n      tag_103\n      jumpi\n      dup3\n      swap1\n      sub\n      0x1f\n      and\n      dup3\n      add\n      swap2\n    tag_101:\n      pop\n      pop\n      pop\n      pop\n      pop\n      swap1\n      pop\n        /* \"https://github.com/OpenZeppelin/openzeppelin-contracts/blob/v5.0.0/contracts/token/ERC20/ERC20.sol\":2074:2163  function name() public view virtual returns (string memory) {... */\n      swap1\n      jump\t// out\n        /* \"https://github.com/OpenZeppelin/openzeppelin-contracts/blob/v5.0.0/contracts/token/ERC20/ERC20.sol\":4293:4479  function approve(address spender, uint256 value) public virtual returns (bool) {... */\n    tag_31:\n        /* \"https://github.com/OpenZeppelin/openzeppelin-contracts/blob/v5.0.0/contracts/token/ERC20/ERC20.sol\":4366:4370  bool */\n      0x00\n        /* \"https://github.com/OpenZeppelin/openzeppelin-contracts/blob/v5.0.0/contracts/utils/Context.sol\":735:745  msg.sender */\n      caller\n        /* \"https://github.com/OpenZeppelin/openzeppelin-contracts/blob/v5.0.0/contracts/token/ERC20/ERC20.sol\":4420:4451  _approve(owner, spender, value) */\n      tag_107\n        /* \"https://github.com/OpenZeppelin/openzeppelin-contracts/blob/v5.0.0/contracts/utils/Context.sol\":735:745  msg.sender */\n      dup2\n        /* \"https://github.com/OpenZeppelin/openzeppelin-contracts/blob/v5.0.0/contracts/token/ERC20/ERC20.sol\":4436:4443  spender */\n      dup6\n        /* \"https://github.com/OpenZeppelin/openzeppelin-contracts/blob/v5.0.0/contracts/token/ERC20/ERC20.sol\":4445:4450  value */\n      dup6\n        /* \"https://github.com/OpenZeppelin/openzeppelin-contracts/blob/v5.0.0/contracts/token/ERC20/ERC20.sol\":4420:4428  _approve */\n      tag_108\n        /* \"https://github.com/OpenZeppelin/openzeppelin-contracts/blob/v5.0.0/contracts/token/ERC20/ERC20.sol\":4420:4451  _approve(owner, spender, value) */\n      jump\t// in\n    tag_107:\n        /* \"https://github.com/OpenZeppelin/openzeppelin-contracts/blob/v5.0.0/contracts/token/ERC20/ERC20.sol\":4468:4472  true */\n      0x01\n        /* \"https://github.com/OpenZeppelin/openzeppelin-contracts/blob/v5.0.0/contracts/token/ERC20/ERC20.sol\":4461:4472  return true */\n      swap2\n      pop\n      pop\n        /* \"https://github.com/OpenZeppelin/openzeppelin-contracts/blob/v5.0.0/contracts/token/ERC20/ERC20.sol\":4293:4479  function approve(address spender, uint256 value) public virtual returns (bool) {... */\n    tag_104:\n      swap3\n      swap2\n      pop\n      pop\n      jump\t// out\n        /* \"https://github.com/OpenZeppelin/openzeppelin-contracts/blob/v5.0.0/contracts/token/ERC20/ERC20.sol\":5039:5283  function transferFrom(address from, address to, uint256 value) public virtual returns (bool) {... */\n    tag_41:\n        /* \"https://github.com/OpenZeppelin/openzeppelin-contracts/blob/v5.0.0/contracts/token/ERC20/ERC20.sol\":5126:5130  bool */\n      0x00\n        /* \"https://github.com/OpenZeppelin/openzeppelin-contracts/blob/v5.0.0/contracts/utils/Context.sol\":735:745  msg.sender */\n      caller\n        /* \"https://github.com/OpenZeppelin/openzeppelin-contracts/blob/v5.0.0/contracts/token/ERC20/ERC20.sol\":5182:5219  _spendAllowance(from, spender, value) */\n      tag_112\n        /* \"https://github.com/OpenZeppelin/openzeppelin-contracts/blob/v5.0.0/contracts/token/ERC20/ERC20.sol\":5198:5202  from */\n      dup6\n        /* \"https://github.com/OpenZeppelin/openzeppelin-contracts/blob/v5.0.0/contracts/utils/Context.sol\":735:745  msg.sender */\n      dup3\n        /* \"https://github.com/OpenZeppelin/openzeppelin-contracts/blob/v5.0.0/contracts/token/ERC20/ERC20.sol\":5213:5218  value */\n      dup6\n        /* \"https://github.com/OpenZeppelin/openzeppelin-contracts/blob/v5.0.0/contracts/token/ERC20/ERC20.sol\":5182:5197  _spendAllowance */\n      tag_113\n        /* \"https://github.com/OpenZeppelin/openzeppelin-contracts/blob/v5.0.0/contracts/token/ERC20/ERC20.sol\":5182:5219  _spendAllowance(from, spender, value) */\n      jump\t// in\n    tag_112:\n        /* \"https://github.com/OpenZeppelin/openzeppelin-contracts/blob/v5.0.0/contracts/token/ERC20/ERC20.sol\":5229:5255  _transfer(from, to, value) */\n      tag_114\n        /* \"https://github.com/OpenZeppelin/openzeppelin-contracts/blob/v5.0.0/contracts/token/ERC20/ERC20.sol\":5239:5243  from */\n      dup6\n        /* \"https://github.com/OpenZeppelin/openzeppelin-contracts/blob/v5.0.0/contracts/token/ERC20/ERC20.sol\":5245:5247  to */\n      dup6\n        /* \"https://github.com/OpenZeppelin/openzeppelin-contracts/blob/v5.0.0/contracts/token/ERC20/ERC20.sol\":5249:5254  value */\n      dup6\n        /* \"https://github.com/OpenZeppelin/openzeppelin-contracts/blob/v5.0.0/contracts/token/ERC20/ERC20.sol\":5229:5238  _transfer */\n      tag_115\n        /* \"https://github.com/OpenZeppelin/openzeppelin-contracts/blob/v5.0.0/contracts/token/ERC20/ERC20.sol\":5229:5255  _transfer(from, to, value) */\n      jump\t// in\n    tag_114:\n      pop\n        /* \"https://github.com/OpenZeppelin/openzeppelin-contracts/blob/v5.0.0/contracts/token/ERC20/ERC20.sol\":5272:5276  true */\n      0x01\n      swap5\n        /* \"https://github.com/OpenZeppelin/openzeppelin-contracts/blob/v5.0.0/contracts/token/ERC20/ERC20.sol\":5039:5283  function transferFrom(address from, address to, uint256 value) public virtual returns (bool) {... */\n      swap4\n      pop\n      pop\n      pop\n      pop\n      jump\t// out\n        /* \"https://github.com/OpenZeppelin/openzeppelin-contracts/blob/v5.0.0/contracts/token/ERC20/extensions/ERC20Permit.sol\":2656:2768  function DOMAIN_SEPARATOR() external view virtual returns (bytes32) {... */\n    tag_51:\n        /* \"https://github.com/OpenZeppelin/openzeppelin-contracts/blob/v5.0.0/contracts/token/ERC20/extensions/ERC20Permit.sol\":2715:2722  bytes32 */\n      0x00\n        /* \"https://github.com/OpenZeppelin/openzeppelin-contracts/blob/v5.0.0/contracts/token/ERC20/extensions/ERC20Permit.sol\":2741:2761  _domainSeparatorV4() */\n      tag_118\n        /* \"https://github.com/OpenZeppelin/openzeppelin-contracts/blob/v5.0.0/contracts/token/ERC20/extensions/ERC20Permit.sol\":2741:2759  _domainSeparatorV4 */\n      tag_119\n        /* \"https://github.com/OpenZeppelin/openzeppelin-contracts/blob/v5.0.0/contracts/token/ERC20/extensions/ERC20Permit.sol\":2741:2761  _domainSeparatorV4() */\n      jump\t// in\n    tag_118:\n        /* \"https://github.com/OpenZeppelin/openzeppelin-contracts/blob/v5.0.0/contracts/token/ERC20/extensions/ERC20Permit.sol\":2734:2761  return _domainSeparatorV4() */\n      swap1\n      pop\n        /* \"https://github.com/OpenZeppelin/openzeppelin-contracts/blob/v5.0.0/contracts/token/ERC20/extensions/ERC20Permit.sol\":2656:2768  function DOMAIN_SEPARATOR() external view virtual returns (bytes32) {... */\n      swap1\n      jump\t// out\n        /* \"Smart-Contract/PNJS.sol\":2367:2492  function burn(uint256 value) public override {... */\n    tag_57:\n        /* \"Smart-Contract/PNJS.sol\":2423:2440  super.burn(value) */\n      tag_121\n        /* \"Smart-Contract/PNJS.sol\":2434:2439  value */\n      dup2\n        /* \"Smart-Contract/PNJS.sol\":2423:2433  super.burn */\n      tag_122\n        /* \"Smart-Contract/PNJS.sol\":2423:2440  super.burn(value) */\n      jump\t// in\n    tag_121:\n        /* \"Smart-Contract/PNJS.sol\":2456:2484  BurnAudit(msg.sender, value) */\n      mload(0x40)\n        /* \"#utility.yul\":1465:1490   */\n      dup2\n      dup2\n      mstore\n        /* \"Smart-Contract/PNJS.sol\":2466:2476  msg.sender */\n      caller\n      swap1\n        /* \"Smart-Contract/PNJS.sol\":2456:2484  BurnAudit(msg.sender, value) */\n      0x1517606112412134e3cff92ed78f89076ab08c0deabe1bcdc573593a2dc98864\n      swap1\n        /* \"#utility.yul\":1453:1455   */\n      0x20\n        /* \"#utility.yul\":1438:1456   */\n      add\n        /* \"Smart-Contract/PNJS.sol\":2456:2484  BurnAudit(msg.sender, value) */\n      mload(0x40)\n      dup1\n      swap2\n      sub\n      swap1\n      log2\n        /* \"Smart-Contract/PNJS.sol\":2367:2492  function burn(uint256 value) public override {... */\n      pop\n      jump\t// out\n        /* \"Smart-Contract/PNJS.sol\":2562:2718  function burnFrom(address account, uint256 value) public override {... */\n    tag_69:\n        /* \"Smart-Contract/PNJS.sol\":2639:2669  super.burnFrom(account, value) */\n      tag_126\n        /* \"Smart-Contract/PNJS.sol\":2654:2661  account */\n      dup3\n        /* \"Smart-Contract/PNJS.sol\":2663:2668  value */\n      dup3\n        /* \"Smart-Contract/PNJS.sol\":2639:2653  super.burnFrom */\n      tag_127\n        /* \"Smart-Contract/PNJS.sol\":2639:2669  super.burnFrom(account, value) */\n      jump\t// in\n    tag_126:\n        /* \"Smart-Contract/PNJS.sol\":2695:2702  account */\n      dup2\n      sub(shl(0xa0, 0x01), 0x01)\n        /* \"Smart-Contract/PNJS.sol\":2685:2710  BurnAudit(account, value) */\n      and\n      0x1517606112412134e3cff92ed78f89076ab08c0deabe1bcdc573593a2dc98864\n        /* \"Smart-Contract/PNJS.sol\":2704:2709  value */\n      dup3\n        /* \"Smart-Contract/PNJS.sol\":2685:2710  BurnAudit(account, value) */\n      mload(0x40)\n      tag_128\n      swap2\n        /* \"#utility.yul\":1465:1490   */\n      dup2\n      mstore\n        /* \"#utility.yul\":1453:1455   */\n      0x20\n        /* \"#utility.yul\":1438:1456   */\n      add\n      swap1\n        /* \"#utility.yul\":1319:1496   */\n      jump\n        /* \"Smart-Contract/PNJS.sol\":2685:2710  BurnAudit(account, value) */\n    tag_128:\n      mload(0x40)\n      dup1\n      swap2\n      sub\n      swap1\n      log2\n        /* \"Smart-Contract/PNJS.sol\":2562:2718  function burnFrom(address account, uint256 value) public override {... */\n      pop\n      pop\n      jump\t// out\n        /* \"https://github.com/OpenZeppelin/openzeppelin-contracts/blob/v5.0.0/contracts/token/ERC20/extensions/ERC20Permit.sol\":2406:2549  function nonces(address owner) public view virtual override(IERC20Permit, Nonces) returns (uint256) {... */\n    tag_72:\n      sub(shl(0xa0, 0x01), 0x01)\n        /* \"https://github.com/OpenZeppelin/openzeppelin-contracts/blob/v5.0.0/contracts/utils/Nonces.sol\":624:638  _nonces[owner] */\n      dup2\n      and\n        /* \"https://github.com/OpenZeppelin/openzeppelin-contracts/blob/v5.0.0/contracts/token/ERC20/extensions/ERC20Permit.sol\":2497:2504  uint256 */\n      0x00\n        /* \"https://github.com/OpenZeppelin/openzeppelin-contracts/blob/v5.0.0/contracts/utils/Nonces.sol\":624:638  _nonces[owner] */\n      swap1\n      dup2\n      mstore\n        /* \"https://github.com/OpenZeppelin/openzeppelin-contracts/blob/v5.0.0/contracts/utils/Nonces.sol\":624:631  _nonces */\n      0x07\n        /* \"https://github.com/OpenZeppelin/openzeppelin-contracts/blob/v5.0.0/contracts/utils/Nonces.sol\":624:638  _nonces[owner] */\n      0x20\n      mstore\n      0x40\n      dup2\n      keccak256\n      sload\n        /* \"https://github.com/OpenZeppelin/openzeppelin-contracts/blob/v5.0.0/contracts/token/ERC20/extensions/ERC20Permit.sol\":2523:2542  super.nonces(owner) */\n      tag_104\n        /* \"https://github.com/OpenZeppelin/openzeppelin-contracts/blob/v5.0.0/contracts/utils/Nonces.sol\":538:645  function nonces(address owner) public view virtual returns (uint256) {... */\n      jump\n        /* \"https://github.com/OpenZeppelin/openzeppelin-contracts/blob/v5.0.0/contracts/utils/cryptography/EIP712.sol\":5144:5701  function eip712Domain()... */\n    tag_75:\n        /* \"https://github.com/OpenZeppelin/openzeppelin-contracts/blob/v5.0.0/contracts/utils/cryptography/EIP712.sol\":5242:5255  bytes1 fields */\n      0x00\n        /* \"https://github.com/OpenZeppelin/openzeppelin-contracts/blob/v5.0.0/contracts/utils/cryptography/EIP712.sol\":5269:5287  string memory name */\n      0x60\n        /* \"https://github.com/OpenZeppelin/openzeppelin-contracts/blob/v5.0.0/contracts/utils/cryptography/EIP712.sol\":5301:5322  string memory version */\n      dup1\n        /* \"https://github.com/OpenZeppelin/openzeppelin-contracts/blob/v5.0.0/contracts/utils/cryptography/EIP712.sol\":5336:5351  uint256 chainId */\n      0x00\n        /* \"https://github.com/OpenZeppelin/openzeppelin-contracts/blob/v5.0.0/contracts/utils/cryptography/EIP712.sol\":5365:5390  address verifyingContract */\n      dup1\n        /* \"https://github.com/OpenZeppelin/openzeppelin-contracts/blob/v5.0.0/contracts/utils/cryptography/EIP712.sol\":5404:5416  bytes32 salt */\n      0x00\n        /* \"https://github.com/OpenZeppelin/openzeppelin-contracts/blob/v5.0.0/contracts/utils/cryptography/EIP712.sol\":5430:5457  uint256[] memory extensions */\n      0x60\n        /* \"https://github.com/OpenZeppelin/openzeppelin-contracts/blob/v5.0.0/contracts/utils/cryptography/EIP712.sol\":5533:5546  _EIP712Name() */\n      tag_133\n        /* \"https://github.com/OpenZeppelin/openzeppelin-contracts/blob/v5.0.0/contracts/utils/cryptography/EIP712.sol\":5533:5544  _EIP712Name */\n      tag_134\n        /* \"https://github.com/OpenZeppelin/openzeppelin-contracts/blob/v5.0.0/contracts/utils/cryptography/EIP712.sol\":5533:5546  _EIP712Name() */\n      jump\t// in\n    tag_133:\n        /* \"https://github.com/OpenZeppelin/openzeppelin-contracts/blob/v5.0.0/contracts/utils/cryptography/EIP712.sol\":5560:5576  _EIP712Version() */\n      tag_135\n        /* \"https://github.com/OpenZeppelin/openzeppelin-contracts/blob/v5.0.0/contracts/utils/cryptography/EIP712.sol\":5560:5574  _EIP712Version */\n      tag_136\n        /* \"https://github.com/OpenZeppelin/openzeppelin-contracts/blob/v5.0.0/contracts/utils/cryptography/EIP712.sol\":5560:5576  _EIP712Version() */\n      jump\t// in\n    tag_135:\n        /* \"https://github.com/OpenZeppelin/openzeppelin-contracts/blob/v5.0.0/contracts/utils/cryptography/EIP712.sol\":5668:5684  new uint256[](0) */\n      0x40\n      dup1\n      mload\n        /* \"https://github.com/OpenZeppelin/openzeppelin-contracts/blob/v5.0.0/contracts/utils/cryptography/EIP712.sol\":5652:5653  0 */\n      0x00\n        /* \"https://github.com/OpenZeppelin/openzeppelin-contracts/blob/v5.0.0/contracts/utils/cryptography/EIP712.sol\":5668:5684  new uint256[](0) */\n      dup1\n      dup3\n      mstore\n      0x20\n      dup3\n      add\n      swap1\n      swap3\n      mstore\n      shl(0xf8, 0x0f)\n        /* \"https://github.com/OpenZeppelin/openzeppelin-contracts/blob/v5.0.0/contracts/utils/cryptography/EIP712.sol\":5482:5694  return (... */\n      swap12\n      swap4\n      swap11\n      pop\n      swap2\n      swap9\n      pop\n        /* \"https://github.com/OpenZeppelin/openzeppelin-contracts/blob/v5.0.0/contracts/utils/cryptography/EIP712.sol\":5590:5603  block.chainid */\n      chainid\n      swap8\n      pop\n        /* \"https://github.com/OpenZeppelin/openzeppelin-contracts/blob/v5.0.0/contracts/utils/cryptography/EIP712.sol\":5625:5629  this */\n      address\n      swap7\n      pop\n        /* \"https://github.com/OpenZeppelin/openzeppelin-contracts/blob/v5.0.0/contracts/utils/cryptography/EIP712.sol\":5652:5653  0 */\n      swap5\n      pop\n        /* \"https://github.com/OpenZeppelin/openzeppelin-contracts/blob/v5.0.0/contracts/utils/cryptography/EIP712.sol\":5668:5684  new uint256[](0) */\n      swap3\n      pop\n        /* \"https://github.com/OpenZeppelin/openzeppelin-contracts/blob/v5.0.0/contracts/utils/cryptography/EIP712.sol\":5482:5694  return (... */\n      swap1\n      pop\n        /* \"https://github.com/OpenZeppelin/openzeppelin-contracts/blob/v5.0.0/contracts/utils/cryptography/EIP712.sol\":5144:5701  function eip712Domain()... */\n      jump\t// out\n        /* \"https://github.com/OpenZeppelin/openzeppelin-contracts/blob/v5.0.0/contracts/token/ERC20/ERC20.sol\":2276:2369  function symbol() public view virtual returns (string memory) {... */\n    tag_79:\n        /* \"https://github.com/OpenZeppelin/openzeppelin-contracts/blob/v5.0.0/contracts/token/ERC20/ERC20.sol\":2323:2336  string memory */\n      0x60\n        /* \"https://github.com/OpenZeppelin/openzeppelin-contracts/blob/v5.0.0/contracts/token/ERC20/ERC20.sol\":2355:2362  _symbol */\n      0x04\n        /* \"https://github.com/OpenZeppelin/openzeppelin-contracts/blob/v5.0.0/contracts/token/ERC20/ERC20.sol\":2348:2362  return _symbol */\n      dup1\n      sload\n      tag_98\n      swap1\n      tag_99\n      jump\t// in\n        /* \"https://github.com/OpenZeppelin/openzeppelin-contracts/blob/v5.0.0/contracts/token/ERC20/ERC20.sol\":3610:3788  function transfer(address to, uint256 value) public virtual returns (bool) {... */\n    tag_83:\n        /* \"https://github.com/OpenZeppelin/openzeppelin-contracts/blob/v5.0.0/contracts/token/ERC20/ERC20.sol\":3679:3683  bool */\n      0x00\n        /* \"https://github.com/OpenZeppelin/openzeppelin-contracts/blob/v5.0.0/contracts/utils/Context.sol\":735:745  msg.sender */\n      caller\n        /* \"https://github.com/OpenZeppelin/openzeppelin-contracts/blob/v5.0.0/contracts/token/ERC20/ERC20.sol\":3733:3760  _transfer(owner, to, value) */\n      tag_107\n        /* \"https://github.com/OpenZeppelin/openzeppelin-contracts/blob/v5.0.0/contracts/utils/Context.sol\":735:745  msg.sender */\n      dup2\n        /* \"https://github.com/OpenZeppelin/openzeppelin-contracts/blob/v5.0.0/contracts/token/ERC20/ERC20.sol\":3750:3752  to */\n      dup6\n        /* \"https://github.com/OpenZeppelin/openzeppelin-contracts/blob/v5.0.0/contracts/token/ERC20/ERC20.sol\":3754:3759  value */\n      dup6\n        /* \"https://github.com/OpenZeppelin/openzeppelin-contracts/blob/v5.0.0/contracts/token/ERC20/ERC20.sol\":3733:3742  _transfer */\n      tag_115\n        /* \"https://github.com/OpenZeppelin/openzeppelin-contracts/blob/v5.0.0/contracts/token/ERC20/ERC20.sol\":3733:3760  _transfer(owner, to, value) */\n      jump\t// in\n        /* \"https://github.com/OpenZeppelin/openzeppelin-contracts/blob/v5.0.0/contracts/token/ERC20/extensions/ERC20Permit.sol\":1680:2352  function permit(... */\n    tag_88:\n        /* \"https://github.com/OpenZeppelin/openzeppelin-contracts/blob/v5.0.0/contracts/token/ERC20/extensions/ERC20Permit.sol\":1901:1909  deadline */\n      dup4\n        /* \"https://github.com/OpenZeppelin/openzeppelin-contracts/blob/v5.0.0/contracts/token/ERC20/extensions/ERC20Permit.sol\":1883:1898  block.timestamp */\n      timestamp\n        /* \"https://github.com/OpenZeppelin/openzeppelin-contracts/blob/v5.0.0/contracts/token/ERC20/extensions/ERC20Permit.sol\":1883:1909  block.timestamp > deadline */\n      gt\n        /* \"https://github.com/OpenZeppelin/openzeppelin-contracts/blob/v5.0.0/contracts/token/ERC20/extensions/ERC20Permit.sol\":1879:1976  if (block.timestamp > deadline) {... */\n      iszero\n      tag_151\n      jumpi\n        /* \"https://github.com/OpenZeppelin/openzeppelin-contracts/blob/v5.0.0/contracts/token/ERC20/extensions/ERC20Permit.sol\":1932:1965  ERC2612ExpiredSignature(deadline) */\n      mload(0x40)\n      shl(0xe1, 0x313c8981)\n      dup2\n      mstore\n      0x04\n      dup2\n      add\n        /* \"#utility.yul\":1465:1490   */\n      dup6\n      swap1\n      mstore\n        /* \"#utility.yul\":1438:1456   */\n      0x24\n      add\n        /* \"https://github.com/OpenZeppelin/openzeppelin-contracts/blob/v5.0.0/contracts/token/ERC20/extensions/ERC20Permit.sol\":1932:1965  ERC2612ExpiredSignature(deadline) */\n    tag_152:\n      mload(0x40)\n      dup1\n      swap2\n      sub\n      swap1\n      revert\n        /* \"https://github.com/OpenZeppelin/openzeppelin-contracts/blob/v5.0.0/contracts/token/ERC20/extensions/ERC20Permit.sol\":1879:1976  if (block.timestamp > deadline) {... */\n    tag_151:\n        /* \"https://github.com/OpenZeppelin/openzeppelin-contracts/blob/v5.0.0/contracts/token/ERC20/extensions/ERC20Permit.sol\":1986:2004  bytes32 structHash */\n      0x00\n        /* \"https://github.com/OpenZeppelin/openzeppelin-contracts/blob/v5.0.0/contracts/token/ERC20/extensions/ERC20Permit.sol\":1022:1117  keccak256(\"Permit(address owner,address spender,uint256 value,uint256 nonce,uint256 deadline)\") */\n      0x6e71edae12b1b97f4d1f60370fef10105fa2faae0126114a169c64845d6126c9\n        /* \"https://github.com/OpenZeppelin/openzeppelin-contracts/blob/v5.0.0/contracts/token/ERC20/extensions/ERC20Permit.sol\":2045:2050  owner */\n      dup9\n        /* \"https://github.com/OpenZeppelin/openzeppelin-contracts/blob/v5.0.0/contracts/token/ERC20/extensions/ERC20Permit.sol\":2052:2059  spender */\n      dup9\n        /* \"https://github.com/OpenZeppelin/openzeppelin-contracts/blob/v5.0.0/contracts/token/ERC20/extensions/ERC20Permit.sol\":2061:2066  value */\n      dup9\n        /* \"https://github.com/OpenZeppelin/openzeppelin-contracts/blob/v5.0.0/contracts/token/ERC20/extensions/ERC20Permit.sol\":2068:2084  _useNonce(owner) */\n      tag_153\n        /* \"https://github.com/OpenZeppelin/openzeppelin-contracts/blob/v5.0.0/contracts/token/ERC20/extensions/ERC20Permit.sol\":2078:2083  owner */\n      dup13\n      sub(shl(0xa0, 0x01), 0x01)\n        /* \"https://github.com/OpenZeppelin/openzeppelin-contracts/blob/v5.0.0/contracts/utils/Nonces.sol\":1121:1135  _nonces[owner] */\n      and\n        /* \"https://github.com/OpenZeppelin/openzeppelin-contracts/blob/v5.0.0/contracts/utils/Nonces.sol\":819:826  uint256 */\n      0x00\n        /* \"https://github.com/OpenZeppelin/openzeppelin-contracts/blob/v5.0.0/contracts/utils/Nonces.sol\":1121:1135  _nonces[owner] */\n      swap1\n      dup2\n      mstore\n        /* \"https://github.com/OpenZeppelin/openzeppelin-contracts/blob/v5.0.0/contracts/utils/Nonces.sol\":1121:1128  _nonces */\n      0x07\n        /* \"https://github.com/OpenZeppelin/openzeppelin-contracts/blob/v5.0.0/contracts/utils/Nonces.sol\":1121:1135  _nonces[owner] */\n      0x20\n      mstore\n      0x40\n      swap1\n      keccak256\n        /* \"https://github.com/OpenZeppelin/openzeppelin-contracts/blob/v5.0.0/contracts/utils/Nonces.sol\":1121:1137  _nonces[owner]++ */\n      dup1\n      sload\n      0x01\n      dup2\n      add\n      swap1\n      swap2\n      sstore\n      swap1\n        /* \"https://github.com/OpenZeppelin/openzeppelin-contracts/blob/v5.0.0/contracts/utils/Nonces.sol\":759:1154  function _useNonce(address owner) internal virtual returns (uint256) {... */\n      jump\n        /* \"https://github.com/OpenZeppelin/openzeppelin-contracts/blob/v5.0.0/contracts/token/ERC20/extensions/ERC20Permit.sol\":2068:2084  _useNonce(owner) */\n    tag_153:\n        /* \"https://github.com/OpenZeppelin/openzeppelin-contracts/blob/v5.0.0/contracts/token/ERC20/extensions/ERC20Permit.sol\":2017:2095  abi.encode(PERMIT_TYPEHASH, owner, spender, value, _useNonce(owner), deadline) */\n      0x40\n      dup1\n      mload\n      0x20\n      dup2\n      add\n        /* \"#utility.yul\":6101:6126   */\n      swap7\n      swap1\n      swap7\n      mstore\n      sub(shl(0xa0, 0x01), 0x01)\n        /* \"#utility.yul\":6162:6194   */\n      swap5\n      dup6\n      and\n        /* \"#utility.yul\":6142:6160   */\n      swap1\n      dup7\n      add\n        /* \"#utility.yul\":6135:6195   */\n      mstore\n        /* \"#utility.yul\":6231:6263   */\n      swap3\n      swap1\n      swap2\n      and\n        /* \"#utility.yul\":6211:6229   */\n      0x60\n      dup5\n      add\n        /* \"#utility.yul\":6204:6264   */\n      mstore\n        /* \"#utility.yul\":6280:6298   */\n      0x80\n      dup4\n      add\n        /* \"#utility.yul\":6273:6307   */\n      mstore\n        /* \"#utility.yul\":6323:6342   */\n      0xa0\n      dup3\n      add\n        /* \"#utility.yul\":6316:6351   */\n      mstore\n        /* \"#utility.yul\":6367:6386   */\n      0xc0\n      dup2\n      add\n        /* \"#utility.yul\":6360:6395   */\n      dup7\n      swap1\n      mstore\n        /* \"#utility.yul\":6073:6092   */\n      0xe0\n      add\n        /* \"https://github.com/OpenZeppelin/openzeppelin-contracts/blob/v5.0.0/contracts/token/ERC20/extensions/ERC20Permit.sol\":2017:2095  abi.encode(PERMIT_TYPEHASH, owner, spender, value, _useNonce(owner), deadline) */\n      mload(0x40)\n      0x20\n      dup2\n      dup4\n      sub\n      sub\n      dup2\n      mstore\n      swap1\n      0x40\n      mstore\n        /* \"https://github.com/OpenZeppelin/openzeppelin-contracts/blob/v5.0.0/contracts/token/ERC20/extensions/ERC20Permit.sol\":2007:2096  keccak256(abi.encode(PERMIT_TYPEHASH, owner, spender, value, _useNonce(owner), deadline)) */\n      dup1\n      mload\n      swap1\n      0x20\n      add\n      keccak256\n        /* \"https://github.com/OpenZeppelin/openzeppelin-contracts/blob/v5.0.0/contracts/token/ERC20/extensions/ERC20Permit.sol\":1986:2096  bytes32 structHash = keccak256(abi.encode(PERMIT_TYPEHASH, owner, spender, value, _useNonce(owner), deadline)) */\n      swap1\n      pop\n        /* \"https://github.com/OpenZeppelin/openzeppelin-contracts/blob/v5.0.0/contracts/token/ERC20/extensions/ERC20Permit.sol\":2107:2119  bytes32 hash */\n      0x00\n        /* \"https://github.com/OpenZeppelin/openzeppelin-contracts/blob/v5.0.0/contracts/token/ERC20/extensions/ERC20Permit.sol\":2122:2150  _hashTypedDataV4(structHash) */\n      tag_157\n        /* \"https://github.com/OpenZeppelin/openzeppelin-contracts/blob/v5.0.0/contracts/token/ERC20/extensions/ERC20Permit.sol\":2139:2149  structHash */\n      dup3\n        /* \"https://github.com/OpenZeppelin/openzeppelin-contracts/blob/v5.0.0/contracts/token/ERC20/extensions/ERC20Permit.sol\":2122:2138  _hashTypedDataV4 */\n      tag_158\n        /* \"https://github.com/OpenZeppelin/openzeppelin-contracts/blob/v5.0.0/contracts/token/ERC20/extensions/ERC20Permit.sol\":2122:2150  _hashTypedDataV4(structHash) */\n      jump\t// in\n    tag_157:\n        /* \"https://github.com/OpenZeppelin/openzeppelin-contracts/blob/v5.0.0/contracts/token/ERC20/extensions/ERC20Permit.sol\":2107:2150  bytes32 hash = _hashTypedDataV4(structHash) */\n      swap1\n      pop\n        /* \"https://github.com/OpenZeppelin/openzeppelin-contracts/blob/v5.0.0/contracts/token/ERC20/extensions/ERC20Permit.sol\":2161:2175  address signer */\n      0x00\n        /* \"https://github.com/OpenZeppelin/openzeppelin-contracts/blob/v5.0.0/contracts/token/ERC20/extensions/ERC20Permit.sol\":2178:2206  ECDSA.recover(hash, v, r, s) */\n      tag_159\n        /* \"https://github.com/OpenZeppelin/openzeppelin-contracts/blob/v5.0.0/contracts/token/ERC20/extensions/ERC20Permit.sol\":2192:2196  hash */\n      dup3\n        /* \"https://github.com/OpenZeppelin/openzeppelin-contracts/blob/v5.0.0/contracts/token/ERC20/extensions/ERC20Permit.sol\":2198:2199  v */\n      dup8\n        /* \"https://github.com/OpenZeppelin/openzeppelin-contracts/blob/v5.0.0/contracts/token/ERC20/extensions/ERC20Permit.sol\":2201:2202  r */\n      dup8\n        /* \"https://github.com/OpenZeppelin/openzeppelin-contracts/blob/v5.0.0/contracts/token/ERC20/extensions/ERC20Permit.sol\":2204:2205  s */\n      dup8\n        /* \"https://github.com/OpenZeppelin/openzeppelin-contracts/blob/v5.0.0/contracts/token/ERC20/extensions/ERC20Permit.sol\":2178:2191  ECDSA.recover */\n      tag_160\n        /* \"https://github.com/OpenZeppelin/openzeppelin-contracts/blob/v5.0.0/contracts/token/ERC20/extensions/ERC20Permit.sol\":2178:2206  ECDSA.recover(hash, v, r, s) */\n      jump\t// in\n    tag_159:\n        /* \"https://github.com/OpenZeppelin/openzeppelin-contracts/blob/v5.0.0/contracts/token/ERC20/extensions/ERC20Permit.sol\":2161:2206  address signer = ECDSA.recover(hash, v, r, s) */\n      swap1\n      pop\n        /* \"https://github.com/OpenZeppelin/openzeppelin-contracts/blob/v5.0.0/contracts/token/ERC20/extensions/ERC20Permit.sol\":2230:2235  owner */\n      dup10\n      sub(shl(0xa0, 0x01), 0x01)\n        /* \"https://github.com/OpenZeppelin/openzeppelin-contracts/blob/v5.0.0/contracts/token/ERC20/extensions/ERC20Permit.sol\":2220:2235  signer != owner */\n      and\n        /* \"https://github.com/OpenZeppelin/openzeppelin-contracts/blob/v5.0.0/contracts/token/ERC20/extensions/ERC20Permit.sol\":2220:2226  signer */\n      dup2\n      sub(shl(0xa0, 0x01), 0x01)\n        /* \"https://github.com/OpenZeppelin/openzeppelin-contracts/blob/v5.0.0/contracts/token/ERC20/extensions/ERC20Permit.sol\":2220:2235  signer != owner */\n      and\n      eq\n        /* \"https://github.com/OpenZeppelin/openzeppelin-contracts/blob/v5.0.0/contracts/token/ERC20/extensions/ERC20Permit.sol\":2216:2304  if (signer != owner) {... */\n      tag_161\n      jumpi\n        /* \"https://github.com/OpenZeppelin/openzeppelin-contracts/blob/v5.0.0/contracts/token/ERC20/extensions/ERC20Permit.sol\":2258:2293  ERC2612InvalidSigner(signer, owner) */\n      mload(0x40)\n      shl(0xe1, 0x25c00723)\n      dup2\n      mstore\n      sub(shl(0xa0, 0x01), 0x01)\n        /* \"#utility.yul\":6598:6630   */\n      dup1\n      dup4\n      and\n        /* \"https://github.com/OpenZeppelin/openzeppelin-contracts/blob/v5.0.0/contracts/token/ERC20/extensions/ERC20Permit.sol\":2258:2293  ERC2612InvalidSigner(signer, owner) */\n      0x04\n      dup4\n      add\n        /* \"#utility.yul\":6580:6631   */\n      mstore\n        /* \"#utility.yul\":6667:6699   */\n      dup12\n      and\n        /* \"#utility.yul\":6647:6665   */\n      0x24\n      dup3\n      add\n        /* \"#utility.yul\":6640:6700   */\n      mstore\n        /* \"#utility.yul\":6553:6571   */\n      0x44\n      add\n        /* \"https://github.com/OpenZeppelin/openzeppelin-contracts/blob/v5.0.0/contracts/token/ERC20/extensions/ERC20Permit.sol\":2258:2293  ERC2612InvalidSigner(signer, owner) */\n      tag_152\n        /* \"#utility.yul\":6406:6706   */\n      jump\n        /* \"https://github.com/OpenZeppelin/openzeppelin-contracts/blob/v5.0.0/contracts/token/ERC20/extensions/ERC20Permit.sol\":2216:2304  if (signer != owner) {... */\n    tag_161:\n        /* \"https://github.com/OpenZeppelin/openzeppelin-contracts/blob/v5.0.0/contracts/token/ERC20/extensions/ERC20Permit.sol\":2314:2345  _approve(owner, spender, value) */\n      tag_164\n        /* \"https://github.com/OpenZeppelin/openzeppelin-contracts/blob/v5.0.0/contracts/token/ERC20/extensions/ERC20Permit.sol\":2323:2328  owner */\n      dup11\n        /* \"https://github.com/OpenZeppelin/openzeppelin-contracts/blob/v5.0.0/contracts/token/ERC20/extensions/ERC20Permit.sol\":2330:2337  spender */\n      dup11\n        /* \"https://github.com/OpenZeppelin/openzeppelin-contracts/blob/v5.0.0/contracts/token/ERC20/extensions/ERC20Permit.sol\":2339:2344  value */\n      dup11\n        /* \"https://github.com/OpenZeppelin/openzeppelin-contracts/blob/v5.0.0/contracts/token/ERC20/extensions/ERC20Permit.sol\":2314:2322  _approve */\n      tag_108\n        /* \"https://github.com/OpenZeppelin/openzeppelin-contracts/blob/v5.0.0/contracts/token/ERC20/extensions/ERC20Permit.sol\":2314:2345  _approve(owner, spender, value) */\n      jump\t// in\n    tag_164:\n        /* \"https://github.com/OpenZeppelin/openzeppelin-contracts/blob/v5.0.0/contracts/token/ERC20/extensions/ERC20Permit.sol\":1869:2352  {... */\n      pop\n      pop\n      pop\n        /* \"https://github.com/OpenZeppelin/openzeppelin-contracts/blob/v5.0.0/contracts/token/ERC20/extensions/ERC20Permit.sol\":1680:2352  function permit(... */\n      pop\n      pop\n      pop\n      pop\n      pop\n      pop\n      pop\n      jump\t// out\n        /* \"https://github.com/OpenZeppelin/openzeppelin-contracts/blob/v5.0.0/contracts/token/ERC20/ERC20.sol\":8989:9117  function _approve(address owner, address spender, uint256 value) internal {... */\n    tag_108:\n        /* \"https://github.com/OpenZeppelin/openzeppelin-contracts/blob/v5.0.0/contracts/token/ERC20/ERC20.sol\":9073:9110  _approve(owner, spender, value, true) */\n      tag_168\n        /* \"https://github.com/OpenZeppelin/openzeppelin-contracts/blob/v5.0.0/contracts/token/ERC20/ERC20.sol\":9082:9087  owner */\n      dup4\n        /* \"https://github.com/OpenZeppelin/openzeppelin-contracts/blob/v5.0.0/contracts/token/ERC20/ERC20.sol\":9089:9096  spender */\n      dup4\n        /* \"https://github.com/OpenZeppelin/openzeppelin-contracts/blob/v5.0.0/contracts/token/ERC20/ERC20.sol\":9098:9103  value */\n      dup4\n        /* \"https://github.com/OpenZeppelin/openzeppelin-contracts/blob/v5.0.0/contracts/token/ERC20/ERC20.sol\":9105:9109  true */\n      0x01\n        /* \"https://github.com/OpenZeppelin/openzeppelin-contracts/blob/v5.0.0/contracts/token/ERC20/ERC20.sol\":9073:9081  _approve */\n      tag_169\n        /* \"https://github.com/OpenZeppelin/openzeppelin-contracts/blob/v5.0.0/contracts/token/ERC20/ERC20.sol\":9073:9110  _approve(owner, spender, value, true) */\n      jump\t// in\n    tag_168:\n        /* \"https://github.com/OpenZeppelin/openzeppelin-contracts/blob/v5.0.0/contracts/token/ERC20/ERC20.sol\":8989:9117  function _approve(address owner, address spender, uint256 value) internal {... */\n      pop\n      pop\n      pop\n      jump\t// out\n        /* \"https://github.com/OpenZeppelin/openzeppelin-contracts/blob/v5.0.0/contracts/token/ERC20/ERC20.sol\":10663:11140  function _spendAllowance(address owner, address spender, uint256 value) internal virtual {... */\n    tag_113:\n      sub(shl(0xa0, 0x01), 0x01)\n        /* \"https://github.com/OpenZeppelin/openzeppelin-contracts/blob/v5.0.0/contracts/token/ERC20/ERC20.sol\":3952:3970  _allowances[owner] */\n      dup4\n      dup2\n      and\n        /* \"https://github.com/OpenZeppelin/openzeppelin-contracts/blob/v5.0.0/contracts/token/ERC20/ERC20.sol\":10762:10786  uint256 currentAllowance */\n      0x00\n        /* \"https://github.com/OpenZeppelin/openzeppelin-contracts/blob/v5.0.0/contracts/token/ERC20/ERC20.sol\":3952:3970  _allowances[owner] */\n      swap1\n      dup2\n      mstore\n        /* \"https://github.com/OpenZeppelin/openzeppelin-contracts/blob/v5.0.0/contracts/token/ERC20/ERC20.sol\":3952:3963  _allowances */\n      0x01\n        /* \"https://github.com/OpenZeppelin/openzeppelin-contracts/blob/v5.0.0/contracts/token/ERC20/ERC20.sol\":3952:3970  _allowances[owner] */\n      0x20\n      swap1\n      dup2\n      mstore\n      0x40\n      dup1\n      dup4\n      keccak256\n        /* \"https://github.com/OpenZeppelin/openzeppelin-contracts/blob/v5.0.0/contracts/token/ERC20/ERC20.sol\":3952:3979  _allowances[owner][spender] */\n      swap4\n      dup7\n      and\n      dup4\n      mstore\n      swap3\n      swap1\n      mstore\n      keccak256\n      sload\n      not(0x00)\n        /* \"https://github.com/OpenZeppelin/openzeppelin-contracts/blob/v5.0.0/contracts/token/ERC20/ERC20.sol\":10828:10865  currentAllowance != type(uint256).max */\n      dup2\n      eq\n        /* \"https://github.com/OpenZeppelin/openzeppelin-contracts/blob/v5.0.0/contracts/token/ERC20/ERC20.sol\":10824:11134  if (currentAllowance != type(uint256).max) {... */\n      tag_176\n      jumpi\n        /* \"https://github.com/OpenZeppelin/openzeppelin-contracts/blob/v5.0.0/contracts/token/ERC20/ERC20.sol\":10904:10909  value */\n      dup2\n        /* \"https://github.com/OpenZeppelin/openzeppelin-contracts/blob/v5.0.0/contracts/token/ERC20/ERC20.sol\":10885:10901  currentAllowance */\n      dup2\n        /* \"https://github.com/OpenZeppelin/openzeppelin-contracts/blob/v5.0.0/contracts/token/ERC20/ERC20.sol\":10885:10909  currentAllowance < value */\n      lt\n        /* \"https://github.com/OpenZeppelin/openzeppelin-contracts/blob/v5.0.0/contracts/token/ERC20/ERC20.sol\":10881:11011  if (currentAllowance < value) {... */\n      iszero\n      tag_173\n      jumpi\n        /* \"https://github.com/OpenZeppelin/openzeppelin-contracts/blob/v5.0.0/contracts/token/ERC20/ERC20.sol\":10936:10996  ERC20InsufficientAllowance(spender, currentAllowance, value) */\n      mload(0x40)\n      shl(0xe1, 0x7dc7a0d9)\n      dup2\n      mstore\n      sub(shl(0xa0, 0x01), 0x01)\n        /* \"#utility.yul\":6931:6963   */\n      dup5\n      and\n        /* \"https://github.com/OpenZeppelin/openzeppelin-contracts/blob/v5.0.0/contracts/token/ERC20/ERC20.sol\":10936:10996  ERC20InsufficientAllowance(spender, currentAllowance, value) */\n      0x04\n      dup3\n      add\n        /* \"#utility.yul\":6913:6964   */\n      mstore\n        /* \"#utility.yul\":6980:6998   */\n      0x24\n      dup2\n      add\n        /* \"#utility.yul\":6973:7007   */\n      dup3\n      swap1\n      mstore\n        /* \"#utility.yul\":7023:7041   */\n      0x44\n      dup2\n      add\n        /* \"#utility.yul\":7016:7050   */\n      dup4\n      swap1\n      mstore\n        /* \"#utility.yul\":6886:6904   */\n      0x64\n      add\n        /* \"https://github.com/OpenZeppelin/openzeppelin-contracts/blob/v5.0.0/contracts/token/ERC20/ERC20.sol\":10936:10996  ERC20InsufficientAllowance(spender, currentAllowance, value) */\n      tag_152\n        /* \"#utility.yul\":6711:7056   */\n      jump\n        /* \"https://github.com/OpenZeppelin/openzeppelin-contracts/blob/v5.0.0/contracts/token/ERC20/ERC20.sol\":10881:11011  if (currentAllowance < value) {... */\n    tag_173:\n        /* \"https://github.com/OpenZeppelin/openzeppelin-contracts/blob/v5.0.0/contracts/token/ERC20/ERC20.sol\":11052:11109  _approve(owner, spender, currentAllowance - value, false) */\n      tag_176\n        /* \"https://github.com/OpenZeppelin/openzeppelin-contracts/blob/v5.0.0/contracts/token/ERC20/ERC20.sol\":11061:11066  owner */\n      dup5\n        /* \"https://github.com/OpenZeppelin/openzeppelin-contracts/blob/v5.0.0/contracts/token/ERC20/ERC20.sol\":11068:11075  spender */\n      dup5\n        /* \"https://github.com/OpenZeppelin/openzeppelin-contracts/blob/v5.0.0/contracts/token/ERC20/ERC20.sol\":11096:11101  value */\n      dup5\n        /* \"https://github.com/OpenZeppelin/openzeppelin-contracts/blob/v5.0.0/contracts/token/ERC20/ERC20.sol\":11077:11093  currentAllowance */\n      dup5\n        /* \"https://github.com/OpenZeppelin/openzeppelin-contracts/blob/v5.0.0/contracts/token/ERC20/ERC20.sol\":11077:11101  currentAllowance - value */\n      sub\n        /* \"https://github.com/OpenZeppelin/openzeppelin-contracts/blob/v5.0.0/contracts/token/ERC20/ERC20.sol\":11103:11108  false */\n      0x00\n        /* \"https://github.com/OpenZeppelin/openzeppelin-contracts/blob/v5.0.0/contracts/token/ERC20/ERC20.sol\":11052:11060  _approve */\n      tag_169\n        /* \"https://github.com/OpenZeppelin/openzeppelin-contracts/blob/v5.0.0/contracts/token/ERC20/ERC20.sol\":11052:11109  _approve(owner, spender, currentAllowance - value, false) */\n      jump\t// in\n    tag_176:\n        /* \"https://github.com/OpenZeppelin/openzeppelin-contracts/blob/v5.0.0/contracts/token/ERC20/ERC20.sol\":10752:11140  {... */\n      pop\n        /* \"https://github.com/OpenZeppelin/openzeppelin-contracts/blob/v5.0.0/contracts/token/ERC20/ERC20.sol\":10663:11140  function _spendAllowance(address owner, address spender, uint256 value) internal virtual {... */\n      pop\n      pop\n      pop\n      jump\t// out\n        /* \"https://github.com/OpenZeppelin/openzeppelin-contracts/blob/v5.0.0/contracts/token/ERC20/ERC20.sol\":5656:5956  function _transfer(address from, address to, uint256 value) internal {... */\n    tag_115:\n      sub(shl(0xa0, 0x01), 0x01)\n        /* \"https://github.com/OpenZeppelin/openzeppelin-contracts/blob/v5.0.0/contracts/token/ERC20/ERC20.sol\":5739:5757  from == address(0) */\n      dup4\n      and\n        /* \"https://github.com/OpenZeppelin/openzeppelin-contracts/blob/v5.0.0/contracts/token/ERC20/ERC20.sol\":5735:5821  if (from == address(0)) {... */\n      tag_178\n      jumpi\n        /* \"https://github.com/OpenZeppelin/openzeppelin-contracts/blob/v5.0.0/contracts/token/ERC20/ERC20.sol\":5780:5810  ERC20InvalidSender(address(0)) */\n      mload(0x40)\n      shl(0xe1, 0x4b637e8f)\n      dup2\n      mstore\n        /* \"https://github.com/OpenZeppelin/openzeppelin-contracts/blob/v5.0.0/contracts/token/ERC20/ERC20.sol\":5807:5808  0 */\n      0x00\n        /* \"https://github.com/OpenZeppelin/openzeppelin-contracts/blob/v5.0.0/contracts/token/ERC20/ERC20.sol\":5780:5810  ERC20InvalidSender(address(0)) */\n      0x04\n      dup3\n      add\n        /* \"#utility.yul\":2628:2679   */\n      mstore\n        /* \"#utility.yul\":2601:2619   */\n      0x24\n      add\n        /* \"https://github.com/OpenZeppelin/openzeppelin-contracts/blob/v5.0.0/contracts/token/ERC20/ERC20.sol\":5780:5810  ERC20InvalidSender(address(0)) */\n      tag_152\n        /* \"#utility.yul\":2482:2685   */\n      jump\n        /* \"https://github.com/OpenZeppelin/openzeppelin-contracts/blob/v5.0.0/contracts/token/ERC20/ERC20.sol\":5735:5821  if (from == address(0)) {... */\n    tag_178:\n      sub(shl(0xa0, 0x01), 0x01)\n        /* \"https://github.com/OpenZeppelin/openzeppelin-contracts/blob/v5.0.0/contracts/token/ERC20/ERC20.sol\":5834:5850  to == address(0) */\n      dup3\n      and\n        /* \"https://github.com/OpenZeppelin/openzeppelin-contracts/blob/v5.0.0/contracts/token/ERC20/ERC20.sol\":5830:5916  if (to == address(0)) {... */\n      tag_180\n      jumpi\n        /* \"https://github.com/OpenZeppelin/openzeppelin-contracts/blob/v5.0.0/contracts/token/ERC20/ERC20.sol\":5873:5905  ERC20InvalidReceiver(address(0)) */\n      mload(0x40)\n      shl(0xe0, 0xec442f05)\n      dup2\n      mstore\n        /* \"https://github.com/OpenZeppelin/openzeppelin-contracts/blob/v5.0.0/contracts/token/ERC20/ERC20.sol\":5902:5903  0 */\n      0x00\n        /* \"https://github.com/OpenZeppelin/openzeppelin-contracts/blob/v5.0.0/contracts/token/ERC20/ERC20.sol\":5873:5905  ERC20InvalidReceiver(address(0)) */\n      0x04\n      dup3\n      add\n        /* \"#utility.yul\":2628:2679   */\n      mstore\n        /* \"#utility.yul\":2601:2619   */\n      0x24\n      add\n        /* \"https://github.com/OpenZeppelin/openzeppelin-contracts/blob/v5.0.0/contracts/token/ERC20/ERC20.sol\":5873:5905  ERC20InvalidReceiver(address(0)) */\n      tag_152\n        /* \"#utility.yul\":2482:2685   */\n      jump\n        /* \"https://github.com/OpenZeppelin/openzeppelin-contracts/blob/v5.0.0/contracts/token/ERC20/ERC20.sol\":5830:5916  if (to == address(0)) {... */\n    tag_180:\n        /* \"https://github.com/OpenZeppelin/openzeppelin-contracts/blob/v5.0.0/contracts/token/ERC20/ERC20.sol\":5925:5949  _update(from, to, value) */\n      tag_168\n        /* \"https://github.com/OpenZeppelin/openzeppelin-contracts/blob/v5.0.0/contracts/token/ERC20/ERC20.sol\":5933:5937  from */\n      dup4\n        /* \"https://github.com/OpenZeppelin/openzeppelin-contracts/blob/v5.0.0/contracts/token/ERC20/ERC20.sol\":5939:5941  to */\n      dup4\n        /* \"https://github.com/OpenZeppelin/openzeppelin-contracts/blob/v5.0.0/contracts/token/ERC20/ERC20.sol\":5943:5948  value */\n      dup4\n        /* \"https://github.com/OpenZeppelin/openzeppelin-contracts/blob/v5.0.0/contracts/token/ERC20/ERC20.sol\":5925:5932  _update */\n      tag_183\n        /* \"https://github.com/OpenZeppelin/openzeppelin-contracts/blob/v5.0.0/contracts/token/ERC20/ERC20.sol\":5925:5949  _update(from, to, value) */\n      jump\t// in\n        /* \"https://github.com/OpenZeppelin/openzeppelin-contracts/blob/v5.0.0/contracts/utils/cryptography/EIP712.sol\":3845:4107  function _domainSeparatorV4() internal view returns (bytes32) {... */\n    tag_119:\n        /* \"https://github.com/OpenZeppelin/openzeppelin-contracts/blob/v5.0.0/contracts/utils/cryptography/EIP712.sol\":3898:3905  bytes32 */\n      0x00\n        /* \"https://github.com/OpenZeppelin/openzeppelin-contracts/blob/v5.0.0/contracts/utils/cryptography/EIP712.sol\":3929:3933  this */\n      address\n      sub(shl(0xa0, 0x01), 0x01)\n        /* \"https://github.com/OpenZeppelin/openzeppelin-contracts/blob/v5.0.0/contracts/utils/cryptography/EIP712.sol\":3938:3949  _cachedThis */\n      immutable(\"0x551ebb3edb72774934e005837770de585c3863f1eef743adee80bd22fdce145f\")\n        /* \"https://github.com/OpenZeppelin/openzeppelin-contracts/blob/v5.0.0/contracts/utils/cryptography/EIP712.sol\":3921:3949  address(this) == _cachedThis */\n      and\n      eq\n        /* \"https://github.com/OpenZeppelin/openzeppelin-contracts/blob/v5.0.0/contracts/utils/cryptography/EIP712.sol\":3921:3984  address(this) == _cachedThis && block.chainid == _cachedChainId */\n      dup1\n      iszero\n      tag_185\n      jumpi\n      pop\n        /* \"https://github.com/OpenZeppelin/openzeppelin-contracts/blob/v5.0.0/contracts/utils/cryptography/EIP712.sol\":3970:3984  _cachedChainId */\n      immutable(\"0xc995e2d85bcc1721e3635c3931b32d6a76ea6ae3e536d9da630ae04bc536ba75\")\n        /* \"https://github.com/OpenZeppelin/openzeppelin-contracts/blob/v5.0.0/contracts/utils/cryptography/EIP712.sol\":3953:3966  block.chainid */\n      chainid\n        /* \"https://github.com/OpenZeppelin/openzeppelin-contracts/blob/v5.0.0/contracts/utils/cryptography/EIP712.sol\":3953:3984  block.chainid == _cachedChainId */\n      eq\n        /* \"https://github.com/OpenZeppelin/openzeppelin-contracts/blob/v5.0.0/contracts/utils/cryptography/EIP712.sol\":3921:3984  address(this) == _cachedThis && block.chainid == _cachedChainId */\n    tag_185:\n        /* \"https://github.com/OpenZeppelin/openzeppelin-contracts/blob/v5.0.0/contracts/utils/cryptography/EIP712.sol\":3917:4101  if (address(this) == _cachedThis && block.chainid == _cachedChainId) {... */\n      iszero\n      tag_186\n      jumpi\n      pop\n        /* \"https://github.com/OpenZeppelin/openzeppelin-contracts/blob/v5.0.0/contracts/utils/cryptography/EIP712.sol\":4007:4029  _cachedDomainSeparator */\n      immutable(\"0x3290d31e6a2b54fc830a5ff8ae8343924ca67faedd9823bbd77d0276caea15ab\")\n      swap1\n        /* \"https://github.com/OpenZeppelin/openzeppelin-contracts/blob/v5.0.0/contracts/utils/cryptography/EIP712.sol\":3845:4107  function _domainSeparatorV4() internal view returns (bytes32) {... */\n      jump\t// out\n        /* \"https://github.com/OpenZeppelin/openzeppelin-contracts/blob/v5.0.0/contracts/utils/cryptography/EIP712.sol\":3917:4101  if (address(this) == _cachedThis && block.chainid == _cachedChainId) {... */\n    tag_186:\n        /* \"https://github.com/OpenZeppelin/openzeppelin-contracts/blob/v5.0.0/contracts/utils/cryptography/EIP712.sol\":4067:4090  _buildDomainSeparator() */\n      tag_118\n        /* \"https://github.com/OpenZeppelin/openzeppelin-contracts/blob/v5.0.0/contracts/utils/cryptography/EIP712.sol\":4204:4284  abi.encode(TYPE_HASH, _hashedName, _hashedVersion, block.chainid, address(this)) */\n      0x40\n      dup1\n      mload\n        /* \"https://github.com/OpenZeppelin/openzeppelin-contracts/blob/v5.0.0/contracts/utils/cryptography/EIP712.sol\":2079:2174  keccak256(\"EIP712Domain(string name,string version,uint256 chainId,address verifyingContract)\") */\n      0x8b73c3c69bb8fe3d512ecc4cf759cc79239f7b179b0ffacaa9a75d522b39400f\n        /* \"https://github.com/OpenZeppelin/openzeppelin-contracts/blob/v5.0.0/contracts/utils/cryptography/EIP712.sol\":4204:4284  abi.encode(TYPE_HASH, _hashedName, _hashedVersion, block.chainid, address(this)) */\n      0x20\n      dup3\n      add\n        /* \"#utility.yul\":7320:7345   */\n      mstore\n        /* \"https://github.com/OpenZeppelin/openzeppelin-contracts/blob/v5.0.0/contracts/utils/cryptography/EIP712.sol\":4226:4237  _hashedName */\n      immutable(\"0xdc63599416520dd17543322b9d519c440b04c19dc80a2f3075d1d8445b8bcfe9\")\n        /* \"#utility.yul\":7361:7379   */\n      swap2\n      dup2\n      add\n        /* \"#utility.yul\":7354:7388   */\n      swap2\n      swap1\n      swap2\n      mstore\n        /* \"https://github.com/OpenZeppelin/openzeppelin-contracts/blob/v5.0.0/contracts/utils/cryptography/EIP712.sol\":4239:4253  _hashedVersion */\n      immutable(\"0x26575d7093b9e2308e84f72221be5a57716e858ab053c2f52c3f486c6b3f791c\")\n        /* \"#utility.yul\":7404:7422   */\n      0x60\n      dup3\n      add\n        /* \"#utility.yul\":7397:7431   */\n      mstore\n        /* \"https://github.com/OpenZeppelin/openzeppelin-contracts/blob/v5.0.0/contracts/utils/cryptography/EIP712.sol\":4255:4268  block.chainid */\n      chainid\n        /* \"#utility.yul\":7447:7465   */\n      0x80\n      dup3\n      add\n        /* \"#utility.yul\":7440:7474   */\n      mstore\n        /* \"https://github.com/OpenZeppelin/openzeppelin-contracts/blob/v5.0.0/contracts/utils/cryptography/EIP712.sol\":4278:4282  this */\n      address\n        /* \"#utility.yul\":7490:7509   */\n      0xa0\n      dup3\n      add\n        /* \"#utility.yul\":7483:7544   */\n      mstore\n        /* \"https://github.com/OpenZeppelin/openzeppelin-contracts/blob/v5.0.0/contracts/utils/cryptography/EIP712.sol\":4168:4175  bytes32 */\n      0x00\n      swap1\n        /* \"#utility.yul\":7292:7311   */\n      0xc0\n      add\n        /* \"https://github.com/OpenZeppelin/openzeppelin-contracts/blob/v5.0.0/contracts/utils/cryptography/EIP712.sol\":4204:4284  abi.encode(TYPE_HASH, _hashedName, _hashedVersion, block.chainid, address(this)) */\n      mload(0x40)\n      0x20\n      dup2\n      dup4\n      sub\n      sub\n      dup2\n      mstore\n      swap1\n      0x40\n      mstore\n        /* \"https://github.com/OpenZeppelin/openzeppelin-contracts/blob/v5.0.0/contracts/utils/cryptography/EIP712.sol\":4194:4285  keccak256(abi.encode(TYPE_HASH, _hashedName, _hashedVersion, block.chainid, address(this))) */\n      dup1\n      mload\n      swap1\n      0x20\n      add\n      keccak256\n        /* \"https://github.com/OpenZeppelin/openzeppelin-contracts/blob/v5.0.0/contracts/utils/cryptography/EIP712.sol\":4187:4285  return keccak256(abi.encode(TYPE_HASH, _hashedName, _hashedVersion, block.chainid, address(this))) */\n      swap1\n      pop\n        /* \"https://github.com/OpenZeppelin/openzeppelin-contracts/blob/v5.0.0/contracts/utils/cryptography/EIP712.sol\":4113:4292  function _buildDomainSeparator() private view returns (bytes32) {... */\n      swap1\n      jump\n        /* \"https://github.com/OpenZeppelin/openzeppelin-contracts/blob/v5.0.0/contracts/token/ERC20/extensions/ERC20Burnable.sol\":618:705  function burn(uint256 value) public virtual {... */\n    tag_122:\n        /* \"https://github.com/OpenZeppelin/openzeppelin-contracts/blob/v5.0.0/contracts/token/ERC20/extensions/ERC20Burnable.sol\":672:698  _burn(_msgSender(), value) */\n      tag_191\n        /* \"https://github.com/OpenZeppelin/openzeppelin-contracts/blob/v5.0.0/contracts/utils/Context.sol\":735:745  msg.sender */\n      caller\n        /* \"https://github.com/OpenZeppelin/openzeppelin-contracts/blob/v5.0.0/contracts/token/ERC20/extensions/ERC20Burnable.sol\":692:697  value */\n      dup3\n        /* \"https://github.com/OpenZeppelin/openzeppelin-contracts/blob/v5.0.0/contracts/token/ERC20/extensions/ERC20Burnable.sol\":672:677  _burn */\n      tag_193\n        /* \"https://github.com/OpenZeppelin/openzeppelin-contracts/blob/v5.0.0/contracts/token/ERC20/extensions/ERC20Burnable.sol\":672:698  _burn(_msgSender(), value) */\n      jump\t// in\n    tag_191:\n        /* \"https://github.com/OpenZeppelin/openzeppelin-contracts/blob/v5.0.0/contracts/token/ERC20/extensions/ERC20Burnable.sol\":618:705  function burn(uint256 value) public virtual {... */\n      pop\n      jump\t// out\n        /* \"https://github.com/OpenZeppelin/openzeppelin-contracts/blob/v5.0.0/contracts/token/ERC20/extensions/ERC20Burnable.sol\":1021:1179  function burnFrom(address account, uint256 value) public virtual {... */\n    tag_127:\n        /* \"https://github.com/OpenZeppelin/openzeppelin-contracts/blob/v5.0.0/contracts/token/ERC20/extensions/ERC20Burnable.sol\":1096:1141  _spendAllowance(account, _msgSender(), value) */\n      tag_195\n        /* \"https://github.com/OpenZeppelin/openzeppelin-contracts/blob/v5.0.0/contracts/token/ERC20/extensions/ERC20Burnable.sol\":1112:1119  account */\n      dup3\n        /* \"https://github.com/OpenZeppelin/openzeppelin-contracts/blob/v5.0.0/contracts/utils/Context.sol\":735:745  msg.sender */\n      caller\n        /* \"https://github.com/OpenZeppelin/openzeppelin-contracts/blob/v5.0.0/contracts/token/ERC20/extensions/ERC20Burnable.sol\":1135:1140  value */\n      dup4\n        /* \"https://github.com/OpenZeppelin/openzeppelin-contracts/blob/v5.0.0/contracts/token/ERC20/extensions/ERC20Burnable.sol\":1096:1111  _spendAllowance */\n      tag_113\n        /* \"https://github.com/OpenZeppelin/openzeppelin-contracts/blob/v5.0.0/contracts/token/ERC20/extensions/ERC20Burnable.sol\":1096:1141  _spendAllowance(account, _msgSender(), value) */\n      jump\t// in\n    tag_195:\n        /* \"https://github.com/OpenZeppelin/openzeppelin-contracts/blob/v5.0.0/contracts/token/ERC20/extensions/ERC20Burnable.sol\":1151:1172  _burn(account, value) */\n      tag_197\n        /* \"https://github.com/OpenZeppelin/openzeppelin-contracts/blob/v5.0.0/contracts/token/ERC20/extensions/ERC20Burnable.sol\":1157:1164  account */\n      dup3\n        /* \"https://github.com/OpenZeppelin/openzeppelin-contracts/blob/v5.0.0/contracts/token/ERC20/extensions/ERC20Burnable.sol\":1166:1171  value */\n      dup3\n        /* \"https://github.com/OpenZeppelin/openzeppelin-contracts/blob/v5.0.0/contracts/token/ERC20/extensions/ERC20Burnable.sol\":1151:1156  _burn */\n      tag_193\n        /* \"https://github.com/OpenZeppelin/openzeppelin-contracts/blob/v5.0.0/contracts/token/ERC20/extensions/ERC20Burnable.sol\":1151:1172  _burn(account, value) */\n      jump\t// in\n    tag_197:\n        /* \"https://github.com/OpenZeppelin/openzeppelin-contracts/blob/v5.0.0/contracts/token/ERC20/extensions/ERC20Burnable.sol\":1021:1179  function burnFrom(address account, uint256 value) public virtual {... */\n      pop\n      pop\n      jump\t// out\n        /* \"https://github.com/OpenZeppelin/openzeppelin-contracts/blob/v5.0.0/contracts/utils/cryptography/EIP712.sol\":6021:6147  function _EIP712Name() internal view returns (string memory) {... */\n    tag_134:\n        /* \"https://github.com/OpenZeppelin/openzeppelin-contracts/blob/v5.0.0/contracts/utils/cryptography/EIP712.sol\":6067:6080  string memory */\n      0x60\n        /* \"https://github.com/OpenZeppelin/openzeppelin-contracts/blob/v5.0.0/contracts/utils/cryptography/EIP712.sol\":6099:6140  _name.toStringWithFallback(_nameFallback) */\n      tag_118\n        /* \"https://github.com/OpenZeppelin/openzeppelin-contracts/blob/v5.0.0/contracts/utils/cryptography/EIP712.sol\":6099:6104  _name */\n      immutable(\"0x0f15169db450d82871226d7ccc49949de9cae10f41fe31bd2fa496ddb5e99790\")\n        /* \"https://github.com/OpenZeppelin/openzeppelin-contracts/blob/v5.0.0/contracts/utils/cryptography/EIP712.sol\":6126:6139  _nameFallback */\n      0x05\n        /* \"https://github.com/OpenZeppelin/openzeppelin-contracts/blob/v5.0.0/contracts/utils/cryptography/EIP712.sol\":6099:6125  _name.toStringWithFallback */\n      tag_201\n        /* \"https://github.com/OpenZeppelin/openzeppelin-contracts/blob/v5.0.0/contracts/utils/cryptography/EIP712.sol\":6099:6140  _name.toStringWithFallback(_nameFallback) */\n      jump\t// in\n        /* \"https://github.com/OpenZeppelin/openzeppelin-contracts/blob/v5.0.0/contracts/utils/cryptography/EIP712.sol\":6473:6608  function _EIP712Version() internal view returns (string memory) {... */\n    tag_136:\n        /* \"https://github.com/OpenZeppelin/openzeppelin-contracts/blob/v5.0.0/contracts/utils/cryptography/EIP712.sol\":6522:6535  string memory */\n      0x60\n        /* \"https://github.com/OpenZeppelin/openzeppelin-contracts/blob/v5.0.0/contracts/utils/cryptography/EIP712.sol\":6554:6601  _version.toStringWithFallback(_versionFallback) */\n      tag_118\n        /* \"https://github.com/OpenZeppelin/openzeppelin-contracts/blob/v5.0.0/contracts/utils/cryptography/EIP712.sol\":6554:6562  _version */\n      immutable(\"0x398a720a8ec2522f64eeb420e5a81c87e49a9144c43a1371044e56d8bd13e393\")\n        /* \"https://github.com/OpenZeppelin/openzeppelin-contracts/blob/v5.0.0/contracts/utils/cryptography/EIP712.sol\":6584:6600  _versionFallback */\n      0x06\n        /* \"https://github.com/OpenZeppelin/openzeppelin-contracts/blob/v5.0.0/contracts/utils/cryptography/EIP712.sol\":6554:6583  _version.toStringWithFallback */\n      tag_201\n        /* \"https://github.com/OpenZeppelin/openzeppelin-contracts/blob/v5.0.0/contracts/utils/cryptography/EIP712.sol\":6554:6601  _version.toStringWithFallback(_versionFallback) */\n      jump\t// in\n        /* \"https://github.com/OpenZeppelin/openzeppelin-contracts/blob/v5.0.0/contracts/utils/cryptography/EIP712.sol\":4917:5093  function _hashTypedDataV4(bytes32 structHash) internal view virtual returns (bytes32) {... */\n    tag_158:\n        /* \"https://github.com/OpenZeppelin/openzeppelin-contracts/blob/v5.0.0/contracts/utils/cryptography/EIP712.sol\":4994:5001  bytes32 */\n      0x00\n        /* \"https://github.com/OpenZeppelin/openzeppelin-contracts/blob/v5.0.0/contracts/utils/cryptography/EIP712.sol\":5020:5086  MessageHashUtils.toTypedDataHash(_domainSeparatorV4(), structHash) */\n      tag_104\n        /* \"https://github.com/OpenZeppelin/openzeppelin-contracts/blob/v5.0.0/contracts/utils/cryptography/EIP712.sol\":5053:5073  _domainSeparatorV4() */\n      tag_207\n        /* \"https://github.com/OpenZeppelin/openzeppelin-contracts/blob/v5.0.0/contracts/utils/cryptography/EIP712.sol\":5053:5071  _domainSeparatorV4 */\n      tag_119\n        /* \"https://github.com/OpenZeppelin/openzeppelin-contracts/blob/v5.0.0/contracts/utils/cryptography/EIP712.sol\":5053:5073  _domainSeparatorV4() */\n      jump\t// in\n    tag_207:\n        /* \"https://github.com/OpenZeppelin/openzeppelin-contracts/blob/v5.0.0/contracts/utils/cryptography/EIP712.sol\":5075:5085  structHash */\n      dup4\n        /* \"https://github.com/OpenZeppelin/openzeppelin-contracts/blob/v5.0.0/contracts/utils/cryptography/MessageHashUtils.sol\":3555:3559  0x40 */\n      0x40\n        /* \"https://github.com/OpenZeppelin/openzeppelin-contracts/blob/v5.0.0/contracts/utils/cryptography/MessageHashUtils.sol\":3549:3560  mload(0x40) */\n      mload\n      shl(0xf0, 0x1901)\n        /* \"https://github.com/OpenZeppelin/openzeppelin-contracts/blob/v5.0.0/contracts/utils/cryptography/MessageHashUtils.sol\":3573:3596  mstore(ptr, hex\"19_01\") */\n      dup2\n      mstore\n        /* \"https://github.com/OpenZeppelin/openzeppelin-contracts/blob/v5.0.0/contracts/utils/cryptography/MessageHashUtils.sol\":3625:3629  0x02 */\n      0x02\n        /* \"https://github.com/OpenZeppelin/openzeppelin-contracts/blob/v5.0.0/contracts/utils/cryptography/MessageHashUtils.sol\":3616:3630  add(ptr, 0x02) */\n      dup2\n      add\n        /* \"https://github.com/OpenZeppelin/openzeppelin-contracts/blob/v5.0.0/contracts/utils/cryptography/MessageHashUtils.sol\":3609:3648  mstore(add(ptr, 0x02), domainSeparator) */\n      swap3\n      swap1\n      swap3\n      mstore\n        /* \"https://github.com/OpenZeppelin/openzeppelin-contracts/blob/v5.0.0/contracts/utils/cryptography/MessageHashUtils.sol\":3677:3681  0x22 */\n      0x22\n        /* \"https://github.com/OpenZeppelin/openzeppelin-contracts/blob/v5.0.0/contracts/utils/cryptography/MessageHashUtils.sol\":3668:3682  add(ptr, 0x22) */\n      dup3\n      add\n        /* \"https://github.com/OpenZeppelin/openzeppelin-contracts/blob/v5.0.0/contracts/utils/cryptography/MessageHashUtils.sol\":3661:3695  mstore(add(ptr, 0x22), structHash) */\n      mstore\n        /* \"https://github.com/OpenZeppelin/openzeppelin-contracts/blob/v5.0.0/contracts/utils/cryptography/MessageHashUtils.sol\":3733:3737  0x42 */\n      0x42\n        /* \"https://github.com/OpenZeppelin/openzeppelin-contracts/blob/v5.0.0/contracts/utils/cryptography/MessageHashUtils.sol\":3718:3738  keccak256(ptr, 0x42) */\n      swap1\n      keccak256\n      swap1\n        /* \"https://github.com/OpenZeppelin/openzeppelin-contracts/blob/v5.0.0/contracts/utils/cryptography/MessageHashUtils.sol\":3353:3754  function toTypedDataHash(bytes32 domainSeparator, bytes32 structHash) internal pure returns (bytes32 digest) {... */\n      jump\n        /* \"https://github.com/OpenZeppelin/openzeppelin-contracts/blob/v5.0.0/contracts/utils/cryptography/ECDSA.sol\":6803:7063  function recover(bytes32 hash, uint8 v, bytes32 r, bytes32 s) internal pure returns (address) {... */\n    tag_160:\n        /* \"https://github.com/OpenZeppelin/openzeppelin-contracts/blob/v5.0.0/contracts/utils/cryptography/ECDSA.sol\":6888:6895  address */\n      0x00\n        /* \"https://github.com/OpenZeppelin/openzeppelin-contracts/blob/v5.0.0/contracts/utils/cryptography/ECDSA.sol\":6908:6925  address recovered */\n      dup1\n        /* \"https://github.com/OpenZeppelin/openzeppelin-contracts/blob/v5.0.0/contracts/utils/cryptography/ECDSA.sol\":6927:6945  RecoverError error */\n      0x00\n        /* \"https://github.com/OpenZeppelin/openzeppelin-contracts/blob/v5.0.0/contracts/utils/cryptography/ECDSA.sol\":6947:6963  bytes32 errorArg */\n      dup1\n        /* \"https://github.com/OpenZeppelin/openzeppelin-contracts/blob/v5.0.0/contracts/utils/cryptography/ECDSA.sol\":6967:6992  tryRecover(hash, v, r, s) */\n      tag_210\n        /* \"https://github.com/OpenZeppelin/openzeppelin-contracts/blob/v5.0.0/contracts/utils/cryptography/ECDSA.sol\":6978:6982  hash */\n      dup9\n        /* \"https://github.com/OpenZeppelin/openzeppelin-contracts/blob/v5.0.0/contracts/utils/cryptography/ECDSA.sol\":6984:6985  v */\n      dup9\n        /* \"https://github.com/OpenZeppelin/openzeppelin-contracts/blob/v5.0.0/contracts/utils/cryptography/ECDSA.sol\":6987:6988  r */\n      dup9\n        /* \"https://github.com/OpenZeppelin/openzeppelin-contracts/blob/v5.0.0/contracts/utils/cryptography/ECDSA.sol\":6990:6991  s */\n      dup9\n        /* \"https://github.com/OpenZeppelin/openzeppelin-contracts/blob/v5.0.0/contracts/utils/cryptography/ECDSA.sol\":6967:6977  tryRecover */\n      tag_211\n        /* \"https://github.com/OpenZeppelin/openzeppelin-contracts/blob/v5.0.0/contracts/utils/cryptography/ECDSA.sol\":6967:6992  tryRecover(hash, v, r, s) */\n      jump\t// in\n    tag_210:\n        /* \"https://github.com/OpenZeppelin/openzeppelin-contracts/blob/v5.0.0/contracts/utils/cryptography/ECDSA.sol\":6907:6992  (address recovered, RecoverError error, bytes32 errorArg) = tryRecover(hash, v, r, s) */\n      swap3\n      pop\n      swap3\n      pop\n      swap3\n      pop\n        /* \"https://github.com/OpenZeppelin/openzeppelin-contracts/blob/v5.0.0/contracts/utils/cryptography/ECDSA.sol\":7002:7030  _throwError(error, errorArg) */\n      tag_212\n        /* \"https://github.com/OpenZeppelin/openzeppelin-contracts/blob/v5.0.0/contracts/utils/cryptography/ECDSA.sol\":7014:7019  error */\n      dup3\n        /* \"https://github.com/OpenZeppelin/openzeppelin-contracts/blob/v5.0.0/contracts/utils/cryptography/ECDSA.sol\":7021:7029  errorArg */\n      dup3\n        /* \"https://github.com/OpenZeppelin/openzeppelin-contracts/blob/v5.0.0/contracts/utils/cryptography/ECDSA.sol\":7002:7013  _throwError */\n      tag_213\n        /* \"https://github.com/OpenZeppelin/openzeppelin-contracts/blob/v5.0.0/contracts/utils/cryptography/ECDSA.sol\":7002:7030  _throwError(error, errorArg) */\n      jump\t// in\n    tag_212:\n      pop\n        /* \"https://github.com/OpenZeppelin/openzeppelin-contracts/blob/v5.0.0/contracts/utils/cryptography/ECDSA.sol\":7047:7056  recovered */\n      swap1\n      swap7\n        /* \"https://github.com/OpenZeppelin/openzeppelin-contracts/blob/v5.0.0/contracts/utils/cryptography/ECDSA.sol\":6803:7063  function recover(bytes32 hash, uint8 v, bytes32 r, bytes32 s) internal pure returns (address) {... */\n      swap6\n      pop\n      pop\n      pop\n      pop\n      pop\n      pop\n      jump\t// out\n        /* \"https://github.com/OpenZeppelin/openzeppelin-contracts/blob/v5.0.0/contracts/token/ERC20/ERC20.sol\":9949:10381  function _approve(address owner, address spender, uint256 value, bool emitEvent) internal virtual {... */\n    tag_169:\n      sub(shl(0xa0, 0x01), 0x01)\n        /* \"https://github.com/OpenZeppelin/openzeppelin-contracts/blob/v5.0.0/contracts/token/ERC20/ERC20.sol\":10061:10080  owner == address(0) */\n      dup5\n      and\n        /* \"https://github.com/OpenZeppelin/openzeppelin-contracts/blob/v5.0.0/contracts/token/ERC20/ERC20.sol\":10057:10146  if (owner == address(0)) {... */\n      tag_215\n      jumpi\n        /* \"https://github.com/OpenZeppelin/openzeppelin-contracts/blob/v5.0.0/contracts/token/ERC20/ERC20.sol\":10103:10135  ERC20InvalidApprover(address(0)) */\n      mload(0x40)\n      shl(0xe0, 0xe602df05)\n      dup2\n      mstore\n        /* \"https://github.com/OpenZeppelin/openzeppelin-contracts/blob/v5.0.0/contracts/token/ERC20/ERC20.sol\":10132:10133  0 */\n      0x00\n        /* \"https://github.com/OpenZeppelin/openzeppelin-contracts/blob/v5.0.0/contracts/token/ERC20/ERC20.sol\":10103:10135  ERC20InvalidApprover(address(0)) */\n      0x04\n      dup3\n      add\n        /* \"#utility.yul\":2628:2679   */\n      mstore\n        /* \"#utility.yul\":2601:2619   */\n      0x24\n      add\n        /* \"https://github.com/OpenZeppelin/openzeppelin-contracts/blob/v5.0.0/contracts/token/ERC20/ERC20.sol\":10103:10135  ERC20InvalidApprover(address(0)) */\n      tag_152\n        /* \"#utility.yul\":2482:2685   */\n      jump\n        /* \"https://github.com/OpenZeppelin/openzeppelin-contracts/blob/v5.0.0/contracts/token/ERC20/ERC20.sol\":10057:10146  if (owner == address(0)) {... */\n    tag_215:\n      sub(shl(0xa0, 0x01), 0x01)\n        /* \"https://github.com/OpenZeppelin/openzeppelin-contracts/blob/v5.0.0/contracts/token/ERC20/ERC20.sol\":10159:10180  spender == address(0) */\n      dup4\n      and\n        /* \"https://github.com/OpenZeppelin/openzeppelin-contracts/blob/v5.0.0/contracts/token/ERC20/ERC20.sol\":10155:10245  if (spender == address(0)) {... */\n      tag_217\n      jumpi\n        /* \"https://github.com/OpenZeppelin/openzeppelin-contracts/blob/v5.0.0/contracts/token/ERC20/ERC20.sol\":10203:10234  ERC20InvalidSpender(address(0)) */\n      mload(0x40)\n      shl(0xe1, 0x4a1406b1)\n      dup2\n      mstore\n        /* \"https://github.com/OpenZeppelin/openzeppelin-contracts/blob/v5.0.0/contracts/token/ERC20/ERC20.sol\":10231:10232  0 */\n      0x00\n        /* \"https://github.com/OpenZeppelin/openzeppelin-contracts/blob/v5.0.0/contracts/token/ERC20/ERC20.sol\":10203:10234  ERC20InvalidSpender(address(0)) */\n      0x04\n      dup3\n      add\n        /* \"#utility.yul\":2628:2679   */\n      mstore\n        /* \"#utility.yul\":2601:2619   */\n      0x24\n      add\n        /* \"https://github.com/OpenZeppelin/openzeppelin-contracts/blob/v5.0.0/contracts/token/ERC20/ERC20.sol\":10203:10234  ERC20InvalidSpender(address(0)) */\n      tag_152\n        /* \"#utility.yul\":2482:2685   */\n      jump\n        /* \"https://github.com/OpenZeppelin/openzeppelin-contracts/blob/v5.0.0/contracts/token/ERC20/ERC20.sol\":10155:10245  if (spender == address(0)) {... */\n    tag_217:\n      sub(shl(0xa0, 0x01), 0x01)\n        /* \"https://github.com/OpenZeppelin/openzeppelin-contracts/blob/v5.0.0/contracts/token/ERC20/ERC20.sol\":10254:10272  _allowances[owner] */\n      dup1\n      dup6\n      and\n      0x00\n      swap1\n      dup2\n      mstore\n        /* \"https://github.com/OpenZeppelin/openzeppelin-contracts/blob/v5.0.0/contracts/token/ERC20/ERC20.sol\":10254:10265  _allowances */\n      0x01\n        /* \"https://github.com/OpenZeppelin/openzeppelin-contracts/blob/v5.0.0/contracts/token/ERC20/ERC20.sol\":10254:10272  _allowances[owner] */\n      0x20\n      swap1\n      dup2\n      mstore\n      0x40\n      dup1\n      dup4\n      keccak256\n        /* \"https://github.com/OpenZeppelin/openzeppelin-contracts/blob/v5.0.0/contracts/token/ERC20/ERC20.sol\":10254:10281  _allowances[owner][spender] */\n      swap4\n      dup8\n      and\n      dup4\n      mstore\n      swap3\n      swap1\n      mstore\n      keccak256\n        /* \"https://github.com/OpenZeppelin/openzeppelin-contracts/blob/v5.0.0/contracts/token/ERC20/ERC20.sol\":10254:10289  _allowances[owner][spender] = value */\n      dup3\n      swap1\n      sstore\n        /* \"https://github.com/OpenZeppelin/openzeppelin-contracts/blob/v5.0.0/contracts/token/ERC20/ERC20.sol\":10299:10375  if (emitEvent) {... */\n      dup1\n      iszero\n      tag_176\n      jumpi\n        /* \"https://github.com/OpenZeppelin/openzeppelin-contracts/blob/v5.0.0/contracts/token/ERC20/ERC20.sol\":10349:10356  spender */\n      dup3\n      sub(shl(0xa0, 0x01), 0x01)\n        /* \"https://github.com/OpenZeppelin/openzeppelin-contracts/blob/v5.0.0/contracts/token/ERC20/ERC20.sol\":10333:10364  Approval(owner, spender, value) */\n      and\n        /* \"https://github.com/OpenZeppelin/openzeppelin-contracts/blob/v5.0.0/contracts/token/ERC20/ERC20.sol\":10342:10347  owner */\n      dup5\n      sub(shl(0xa0, 0x01), 0x01)\n        /* \"https://github.com/OpenZeppelin/openzeppelin-contracts/blob/v5.0.0/contracts/token/ERC20/ERC20.sol\":10333:10364  Approval(owner, spender, value) */\n      and\n      0x8c5be1e5ebec7d5bd14f71427d1e84f3dd0314c0f7b2291e5b200ac8c7c3b925\n        /* \"https://github.com/OpenZeppelin/openzeppelin-contracts/blob/v5.0.0/contracts/token/ERC20/ERC20.sol\":10358:10363  value */\n      dup5\n        /* \"https://github.com/OpenZeppelin/openzeppelin-contracts/blob/v5.0.0/contracts/token/ERC20/ERC20.sol\":10333:10364  Approval(owner, spender, value) */\n      mload(0x40)\n      tag_220\n      swap2\n        /* \"#utility.yul\":1465:1490   */\n      dup2\n      mstore\n        /* \"#utility.yul\":1453:1455   */\n      0x20\n        /* \"#utility.yul\":1438:1456   */\n      add\n      swap1\n        /* \"#utility.yul\":1319:1496   */\n      jump\n        /* \"https://github.com/OpenZeppelin/openzeppelin-contracts/blob/v5.0.0/contracts/token/ERC20/ERC20.sol\":10333:10364  Approval(owner, spender, value) */\n    tag_220:\n      mload(0x40)\n      dup1\n      swap2\n      sub\n      swap1\n      log3\n        /* \"https://github.com/OpenZeppelin/openzeppelin-contracts/blob/v5.0.0/contracts/token/ERC20/ERC20.sol\":9949:10381  function _approve(address owner, address spender, uint256 value, bool emitEvent) internal virtual {... */\n      pop\n      pop\n      pop\n      pop\n      jump\t// out\n        /* \"Smart-Contract/PNJS.sol\":2091:2309  function _update(address from, address to, uint256 value)... */\n    tag_183:\n        /* \"Smart-Contract/PNJS.sol\":2225:2255  super._update(from, to, value) */\n      tag_222\n        /* \"Smart-Contract/PNJS.sol\":2239:2243  from */\n      dup4\n        /* \"Smart-Contract/PNJS.sol\":2245:2247  to */\n      dup4\n        /* \"Smart-Contract/PNJS.sol\":2249:2254  value */\n      dup4\n        /* \"Smart-Contract/PNJS.sol\":2225:2238  super._update */\n      tag_223\n        /* \"Smart-Contract/PNJS.sol\":2225:2255  super._update(from, to, value) */\n      jump\t// in\n    tag_222:\n        /* \"Smart-Contract/PNJS.sol\":2291:2293  to */\n      dup2\n      sub(shl(0xa0, 0x01), 0x01)\n        /* \"Smart-Contract/PNJS.sol\":2271:2301  TransferAudit(from, to, value) */\n      and\n        /* \"Smart-Contract/PNJS.sol\":2285:2289  from */\n      dup4\n      sub(shl(0xa0, 0x01), 0x01)\n        /* \"Smart-Contract/PNJS.sol\":2271:2301  TransferAudit(from, to, value) */\n      and\n      0xb5fd41d87d60aa758b7a3c421993bd379f0df87361be9e07ae8831448ee5ad94\n        /* \"Smart-Contract/PNJS.sol\":2295:2300  value */\n      dup4\n        /* \"Smart-Contract/PNJS.sol\":2271:2301  TransferAudit(from, to, value) */\n      mload(0x40)\n      tag_224\n      swap2\n        /* \"#utility.yul\":1465:1490   */\n      dup2\n      mstore\n        /* \"#utility.yul\":1453:1455   */\n      0x20\n        /* \"#utility.yul\":1438:1456   */\n      add\n      swap1\n        /* \"#utility.yul\":1319:1496   */\n      jump\n        /* \"Smart-Contract/PNJS.sol\":2271:2301  TransferAudit(from, to, value) */\n    tag_224:\n      mload(0x40)\n      dup1\n      swap2\n      sub\n      swap1\n      log3\n        /* \"Smart-Contract/PNJS.sol\":2091:2309  function _update(address from, address to, uint256 value)... */\n      pop\n      pop\n      pop\n      jump\t// out\n        /* \"https://github.com/OpenZeppelin/openzeppelin-contracts/blob/v5.0.0/contracts/token/ERC20/ERC20.sol\":8247:8453  function _burn(address account, uint256 value) internal {... */\n    tag_193:\n      sub(shl(0xa0, 0x01), 0x01)\n        /* \"https://github.com/OpenZeppelin/openzeppelin-contracts/blob/v5.0.0/contracts/token/ERC20/ERC20.sol\":8317:8338  account == address(0) */\n      dup3\n      and\n        /* \"https://github.com/OpenZeppelin/openzeppelin-contracts/blob/v5.0.0/contracts/token/ERC20/ERC20.sol\":8313:8402  if (account == address(0)) {... */\n      tag_229\n      jumpi\n        /* \"https://github.com/OpenZeppelin/openzeppelin-contracts/blob/v5.0.0/contracts/token/ERC20/ERC20.sol\":8361:8391  ERC20InvalidSender(address(0)) */\n      mload(0x40)\n      shl(0xe1, 0x4b637e8f)\n      dup2\n      mstore\n        /* \"https://github.com/OpenZeppelin/openzeppelin-contracts/blob/v5.0.0/contracts/token/ERC20/ERC20.sol\":8388:8389  0 */\n      0x00\n        /* \"https://github.com/OpenZeppelin/openzeppelin-contracts/blob/v5.0.0/contracts/token/ERC20/ERC20.sol\":8361:8391  ERC20InvalidSender(address(0)) */\n      0x04\n      dup3\n      add\n        /* \"#utility.yul\":2628:2679   */\n      mstore\n        /* \"#utility.yul\":2601:2619   */\n      0x24\n      add\n        /* \"https://github.com/OpenZeppelin/openzeppelin-contracts/blob/v5.0.0/contracts/token/ERC20/ERC20.sol\":8361:8391  ERC20InvalidSender(address(0)) */\n      tag_152\n        /* \"#utility.yul\":2482:2685   */\n      jump\n        /* \"https://github.com/OpenZeppelin/openzeppelin-contracts/blob/v5.0.0/contracts/token/ERC20/ERC20.sol\":8313:8402  if (account == address(0)) {... */\n    tag_229:\n        /* \"https://github.com/OpenZeppelin/openzeppelin-contracts/blob/v5.0.0/contracts/token/ERC20/ERC20.sol\":8411:8446  _update(account, address(0), value) */\n      tag_197\n        /* \"https://github.com/OpenZeppelin/openzeppelin-contracts/blob/v5.0.0/contracts/token/ERC20/ERC20.sol\":8419:8426  account */\n      dup3\n        /* \"https://github.com/OpenZeppelin/openzeppelin-contracts/blob/v5.0.0/contracts/token/ERC20/ERC20.sol\":8436:8437  0 */\n      0x00\n        /* \"https://github.com/OpenZeppelin/openzeppelin-contracts/blob/v5.0.0/contracts/token/ERC20/ERC20.sol\":8440:8445  value */\n      dup4\n        /* \"https://github.com/OpenZeppelin/openzeppelin-contracts/blob/v5.0.0/contracts/token/ERC20/ERC20.sol\":8411:8418  _update */\n      tag_183\n        /* \"https://github.com/OpenZeppelin/openzeppelin-contracts/blob/v5.0.0/contracts/token/ERC20/ERC20.sol\":8411:8446  _update(account, address(0), value) */\n      jump\t// in\n        /* \"https://github.com/OpenZeppelin/openzeppelin-contracts/blob/v5.0.0/contracts/utils/ShortStrings.sol\":3385:3652  function toStringWithFallback(ShortString value, string storage store) internal pure returns (string memory) {... */\n    tag_201:\n        /* \"https://github.com/OpenZeppelin/openzeppelin-contracts/blob/v5.0.0/contracts/utils/ShortStrings.sol\":3479:3492  string memory */\n      0x60\n        /* \"https://github.com/OpenZeppelin/openzeppelin-contracts/blob/v5.0.0/contracts/utils/ShortStrings.sol\":1390:1456  0x00000000000000000000000000000000000000000000000000000000000000FF */\n      0xff\n        /* \"https://github.com/OpenZeppelin/openzeppelin-contracts/blob/v5.0.0/contracts/utils/ShortStrings.sol\":3508:3554  ShortString.unwrap(value) != FALLBACK_SENTINEL */\n      dup4\n      eq\n        /* \"https://github.com/OpenZeppelin/openzeppelin-contracts/blob/v5.0.0/contracts/utils/ShortStrings.sol\":3504:3646  if (ShortString.unwrap(value) != FALLBACK_SENTINEL) {... */\n      tag_233\n      jumpi\n        /* \"https://github.com/OpenZeppelin/openzeppelin-contracts/blob/v5.0.0/contracts/utils/ShortStrings.sol\":3577:3592  toString(value) */\n      tag_234\n        /* \"https://github.com/OpenZeppelin/openzeppelin-contracts/blob/v5.0.0/contracts/utils/ShortStrings.sol\":3586:3591  value */\n      dup4\n        /* \"https://github.com/OpenZeppelin/openzeppelin-contracts/blob/v5.0.0/contracts/utils/ShortStrings.sol\":3577:3585  toString */\n      tag_235\n        /* \"https://github.com/OpenZeppelin/openzeppelin-contracts/blob/v5.0.0/contracts/utils/ShortStrings.sol\":3577:3592  toString(value) */\n      jump\t// in\n    tag_234:\n        /* \"https://github.com/OpenZeppelin/openzeppelin-contracts/blob/v5.0.0/contracts/utils/ShortStrings.sol\":3570:3592  return toString(value) */\n      swap1\n      pop\n      jump(tag_104)\n        /* \"https://github.com/OpenZeppelin/openzeppelin-contracts/blob/v5.0.0/contracts/utils/ShortStrings.sol\":3504:3646  if (ShortString.unwrap(value) != FALLBACK_SENTINEL) {... */\n    tag_233:\n        /* \"https://github.com/OpenZeppelin/openzeppelin-contracts/blob/v5.0.0/contracts/utils/ShortStrings.sol\":3630:3635  store */\n      dup2\n        /* \"https://github.com/OpenZeppelin/openzeppelin-contracts/blob/v5.0.0/contracts/utils/ShortStrings.sol\":3623:3635  return store */\n      dup1\n      sload\n      tag_237\n      swap1\n      tag_99\n      jump\t// in\n    tag_237:\n      dup1\n      0x1f\n      add\n      0x20\n      dup1\n      swap2\n      div\n      mul\n      0x20\n      add\n      mload(0x40)\n      swap1\n      dup2\n      add\n      0x40\n      mstore\n      dup1\n      swap3\n      swap2\n      swap1\n      dup2\n      dup2\n      mstore\n      0x20\n      add\n      dup3\n      dup1\n      sload\n      tag_238\n      swap1\n      tag_99\n      jump\t// in\n    tag_238:\n      dup1\n      iszero\n      tag_239\n      jumpi\n      dup1\n      0x1f\n      lt\n      tag_240\n      jumpi\n      0x0100\n      dup1\n      dup4\n      sload\n      div\n      mul\n      dup4\n      mstore\n      swap2\n      0x20\n      add\n      swap2\n      jump(tag_239)\n    tag_240:\n      dup3\n      add\n      swap2\n      swap1\n      0x00\n      mstore\n      keccak256(0x00, 0x20)\n      swap1\n    tag_241:\n      dup2\n      sload\n      dup2\n      mstore\n      swap1\n      0x01\n      add\n      swap1\n      0x20\n      add\n      dup1\n      dup4\n      gt\n      tag_241\n      jumpi\n      dup3\n      swap1\n      sub\n      0x1f\n      and\n      dup3\n      add\n      swap2\n    tag_239:\n      pop\n      pop\n      pop\n      pop\n      pop\n      swap1\n      pop\n      jump(tag_104)\n        /* \"https://github.com/OpenZeppelin/openzeppelin-contracts/blob/v5.0.0/contracts/utils/cryptography/ECDSA.sol\":5140:6670  function tryRecover(... */\n    tag_211:\n        /* \"https://github.com/OpenZeppelin/openzeppelin-contracts/blob/v5.0.0/contracts/utils/cryptography/ECDSA.sol\":5266:5273  address */\n      0x00\n      dup1\n      dup1\n        /* \"https://github.com/OpenZeppelin/openzeppelin-contracts/blob/v5.0.0/contracts/utils/cryptography/ECDSA.sol\":6199:6265  0x7FFFFFFFFFFFFFFFFFFFFFFFFFFFFFFF5D576E7357A4501DDFE92F46681B20A0 */\n      0x7fffffffffffffffffffffffffffffff5d576e7357a4501ddfe92f46681b20a0\n        /* \"https://github.com/OpenZeppelin/openzeppelin-contracts/blob/v5.0.0/contracts/utils/cryptography/ECDSA.sol\":6186:6265  uint256(s) > 0x7FFFFFFFFFFFFFFFFFFFFFFFFFFFFFFF5D576E7357A4501DDFE92F46681B20A0 */\n      dup5\n      gt\n        /* \"https://github.com/OpenZeppelin/openzeppelin-contracts/blob/v5.0.0/contracts/utils/cryptography/ECDSA.sol\":6182:6346  if (uint256(s) > 0x7FFFFFFFFFFFFFFFFFFFFFFFFFFFFFFF5D576E7357A4501DDFE92F46681B20A0) {... */\n      iszero\n      tag_244\n      jumpi\n      pop\n        /* \"https://github.com/OpenZeppelin/openzeppelin-contracts/blob/v5.0.0/contracts/utils/cryptography/ECDSA.sol\":6297:6298  0 */\n      0x00\n      swap2\n      pop\n        /* \"https://github.com/OpenZeppelin/openzeppelin-contracts/blob/v5.0.0/contracts/utils/cryptography/ECDSA.sol\":6301:6331  RecoverError.InvalidSignatureS */\n      0x03\n      swap1\n      pop\n        /* \"https://github.com/OpenZeppelin/openzeppelin-contracts/blob/v5.0.0/contracts/utils/cryptography/ECDSA.sol\":6333:6334  s */\n      dup3\n        /* \"https://github.com/OpenZeppelin/openzeppelin-contracts/blob/v5.0.0/contracts/utils/cryptography/ECDSA.sol\":6281:6335  return (address(0), RecoverError.InvalidSignatureS, s) */\n      jump(tag_243)\n        /* \"https://github.com/OpenZeppelin/openzeppelin-contracts/blob/v5.0.0/contracts/utils/cryptography/ECDSA.sol\":6182:6346  if (uint256(s) > 0x7FFFFFFFFFFFFFFFFFFFFFFFFFFFFFFF5D576E7357A4501DDFE92F46681B20A0) {... */\n    tag_244:\n        /* \"https://github.com/OpenZeppelin/openzeppelin-contracts/blob/v5.0.0/contracts/utils/cryptography/ECDSA.sol\":6457:6481  ecrecover(hash, v, r, s) */\n      0x40\n      dup1\n      mload\n        /* \"https://github.com/OpenZeppelin/openzeppelin-contracts/blob/v5.0.0/contracts/utils/cryptography/ECDSA.sol\":6440:6454  address signer */\n      0x00\n        /* \"https://github.com/OpenZeppelin/openzeppelin-contracts/blob/v5.0.0/contracts/utils/cryptography/ECDSA.sol\":6457:6481  ecrecover(hash, v, r, s) */\n      dup1\n      dup3\n      mstore\n      0x20\n      dup3\n      add\n      dup1\n      dup5\n      mstore\n        /* \"#utility.yul\":7782:7807   */\n      dup11\n      swap1\n      mstore\n        /* \"#utility.yul\":7855:7859   */\n      0xff\n        /* \"#utility.yul\":7843:7860   */\n      dup10\n      and\n        /* \"#utility.yul\":7823:7841   */\n      swap3\n      dup3\n      add\n        /* \"#utility.yul\":7816:7861   */\n      swap3\n      swap1\n      swap3\n      mstore\n        /* \"#utility.yul\":7877:7895   */\n      0x60\n      dup2\n      add\n        /* \"#utility.yul\":7870:7904   */\n      dup8\n      swap1\n      mstore\n        /* \"#utility.yul\":7920:7938   */\n      0x80\n      dup2\n      add\n        /* \"#utility.yul\":7913:7947   */\n      dup7\n      swap1\n      mstore\n        /* \"https://github.com/OpenZeppelin/openzeppelin-contracts/blob/v5.0.0/contracts/utils/cryptography/ECDSA.sol\":6457:6481  ecrecover(hash, v, r, s) */\n      0x01\n      swap1\n        /* \"#utility.yul\":7754:7773   */\n      0xa0\n      add\n        /* \"https://github.com/OpenZeppelin/openzeppelin-contracts/blob/v5.0.0/contracts/utils/cryptography/ECDSA.sol\":6457:6481  ecrecover(hash, v, r, s) */\n      0x20\n      mload(0x40)\n      0x20\n      dup2\n      sub\n      swap1\n      dup1\n      dup5\n      sub\n      swap1\n      dup6\n      gas\n      staticcall\n      iszero\n      dup1\n      iszero\n      tag_248\n      jumpi\n      returndatasize\n      0x00\n      dup1\n      returndatacopy\n      revert(0x00, returndatasize)\n    tag_248:\n      pop\n      pop\n      mload(add(not(0x1f), mload(0x40)))\n      swap2\n      pop\n      pop\n      sub(shl(0xa0, 0x01), 0x01)\n        /* \"https://github.com/OpenZeppelin/openzeppelin-contracts/blob/v5.0.0/contracts/utils/cryptography/ECDSA.sol\":6495:6515  signer == address(0) */\n      dup2\n      and\n        /* \"https://github.com/OpenZeppelin/openzeppelin-contracts/blob/v5.0.0/contracts/utils/cryptography/ECDSA.sol\":6491:6604  if (signer == address(0)) {... */\n      tag_249\n      jumpi\n      pop\n        /* \"https://github.com/OpenZeppelin/openzeppelin-contracts/blob/v5.0.0/contracts/utils/cryptography/ECDSA.sol\":6547:6548  0 */\n      0x00\n      swap3\n      pop\n        /* \"https://github.com/OpenZeppelin/openzeppelin-contracts/blob/v5.0.0/contracts/utils/cryptography/ECDSA.sol\":6551:6580  RecoverError.InvalidSignature */\n      0x01\n      swap2\n      pop\n        /* \"https://github.com/OpenZeppelin/openzeppelin-contracts/blob/v5.0.0/contracts/utils/cryptography/ECDSA.sol\":6547:6548  0 */\n      dup3\n      swap1\n      pop\n        /* \"https://github.com/OpenZeppelin/openzeppelin-contracts/blob/v5.0.0/contracts/utils/cryptography/ECDSA.sol\":6531:6593  return (address(0), RecoverError.InvalidSignature, bytes32(0)) */\n      jump(tag_243)\n        /* \"https://github.com/OpenZeppelin/openzeppelin-contracts/blob/v5.0.0/contracts/utils/cryptography/ECDSA.sol\":6491:6604  if (signer == address(0)) {... */\n    tag_249:\n        /* \"https://github.com/OpenZeppelin/openzeppelin-contracts/blob/v5.0.0/contracts/utils/cryptography/ECDSA.sol\":6622:6628  signer */\n      swap3\n      pop\n        /* \"https://github.com/OpenZeppelin/openzeppelin-contracts/blob/v5.0.0/contracts/utils/cryptography/ECDSA.sol\":6630:6650  RecoverError.NoError */\n      0x00\n      swap2\n      pop\n      dup2\n      swap1\n      pop\n        /* \"https://github.com/OpenZeppelin/openzeppelin-contracts/blob/v5.0.0/contracts/utils/cryptography/ECDSA.sol\":5140:6670  function tryRecover(... */\n    tag_243:\n      swap5\n      pop\n      swap5\n      pop\n      swap5\n      swap2\n      pop\n      pop\n      jump\t// out\n        /* \"https://github.com/OpenZeppelin/openzeppelin-contracts/blob/v5.0.0/contracts/utils/cryptography/ECDSA.sol\":7196:7728  function _throwError(RecoverError error, bytes32 errorArg) private pure {... */\n    tag_213:\n        /* \"https://github.com/OpenZeppelin/openzeppelin-contracts/blob/v5.0.0/contracts/utils/cryptography/ECDSA.sol\":7291:7311  RecoverError.NoError */\n      0x00\n        /* \"https://github.com/OpenZeppelin/openzeppelin-contracts/blob/v5.0.0/contracts/utils/cryptography/ECDSA.sol\":7282:7287  error */\n      dup3\n        /* \"https://github.com/OpenZeppelin/openzeppelin-contracts/blob/v5.0.0/contracts/utils/cryptography/ECDSA.sol\":7282:7311  error == RecoverError.NoError */\n      0x03\n      dup2\n      gt\n      iszero\n      tag_255\n      jumpi\n      tag_255\n      tag_253\n      jump\t// in\n    tag_255:\n      sub\n        /* \"https://github.com/OpenZeppelin/openzeppelin-contracts/blob/v5.0.0/contracts/utils/cryptography/ECDSA.sol\":7278:7722  if (error == RecoverError.NoError) {... */\n      tag_256\n      jumpi\n        /* \"https://github.com/OpenZeppelin/openzeppelin-contracts/blob/v5.0.0/contracts/utils/cryptography/ECDSA.sol\":7196:7728  function _throwError(RecoverError error, bytes32 errorArg) private pure {... */\n      pop\n      pop\n      jump\t// out\n        /* \"https://github.com/OpenZeppelin/openzeppelin-contracts/blob/v5.0.0/contracts/utils/cryptography/ECDSA.sol\":7278:7722  if (error == RecoverError.NoError) {... */\n    tag_256:\n        /* \"https://github.com/OpenZeppelin/openzeppelin-contracts/blob/v5.0.0/contracts/utils/cryptography/ECDSA.sol\":7387:7416  RecoverError.InvalidSignature */\n      0x01\n        /* \"https://github.com/OpenZeppelin/openzeppelin-contracts/blob/v5.0.0/contracts/utils/cryptography/ECDSA.sol\":7378:7383  error */\n      dup3\n        /* \"https://github.com/OpenZeppelin/openzeppelin-contracts/blob/v5.0.0/contracts/utils/cryptography/ECDSA.sol\":7378:7416  error == RecoverError.InvalidSignature */\n      0x03\n      dup2\n      gt\n      iszero\n      tag_261\n      jumpi\n      tag_261\n      tag_253\n      jump\t// in\n    tag_261:\n      sub\n        /* \"https://github.com/OpenZeppelin/openzeppelin-contracts/blob/v5.0.0/contracts/utils/cryptography/ECDSA.sol\":7374:7722  if (error == RecoverError.InvalidSignature) {... */\n      tag_262\n      jumpi\n        /* \"https://github.com/OpenZeppelin/openzeppelin-contracts/blob/v5.0.0/contracts/utils/cryptography/ECDSA.sol\":7439:7462  ECDSAInvalidSignature() */\n      mload(0x40)\n      shl(0xe0, 0xf645eedf)\n      dup2\n      mstore\n      0x04\n      add\n      mload(0x40)\n      dup1\n      swap2\n      sub\n      swap1\n      revert\n        /* \"https://github.com/OpenZeppelin/openzeppelin-contracts/blob/v5.0.0/contracts/utils/cryptography/ECDSA.sol\":7374:7722  if (error == RecoverError.InvalidSignature) {... */\n    tag_262:\n        /* \"https://github.com/OpenZeppelin/openzeppelin-contracts/blob/v5.0.0/contracts/utils/cryptography/ECDSA.sol\":7492:7527  RecoverError.InvalidSignatureLength */\n      0x02\n        /* \"https://github.com/OpenZeppelin/openzeppelin-contracts/blob/v5.0.0/contracts/utils/cryptography/ECDSA.sol\":7483:7488  error */\n      dup3\n        /* \"https://github.com/OpenZeppelin/openzeppelin-contracts/blob/v5.0.0/contracts/utils/cryptography/ECDSA.sol\":7483:7527  error == RecoverError.InvalidSignatureLength */\n      0x03\n      dup2\n      gt\n      iszero\n      tag_267\n      jumpi\n      tag_267\n      tag_253\n      jump\t// in\n    tag_267:\n      sub\n        /* \"https://github.com/OpenZeppelin/openzeppelin-contracts/blob/v5.0.0/contracts/utils/cryptography/ECDSA.sol\":7479:7722  if (error == RecoverError.InvalidSignatureLength) {... */\n      tag_268\n      jumpi\n        /* \"https://github.com/OpenZeppelin/openzeppelin-contracts/blob/v5.0.0/contracts/utils/cryptography/ECDSA.sol\":7550:7596  ECDSAInvalidSignatureLength(uint256(errorArg)) */\n      mload(0x40)\n      shl(0xe0, 0xfce698f7)\n      dup2\n      mstore\n      0x04\n      dup2\n      add\n        /* \"#utility.yul\":1465:1490   */\n      dup3\n      swap1\n      mstore\n        /* \"#utility.yul\":1438:1456   */\n      0x24\n      add\n        /* \"https://github.com/OpenZeppelin/openzeppelin-contracts/blob/v5.0.0/contracts/utils/cryptography/ECDSA.sol\":7550:7596  ECDSAInvalidSignatureLength(uint256(errorArg)) */\n      tag_152\n        /* \"#utility.yul\":1319:1496   */\n      jump\n        /* \"https://github.com/OpenZeppelin/openzeppelin-contracts/blob/v5.0.0/contracts/utils/cryptography/ECDSA.sol\":7479:7722  if (error == RecoverError.InvalidSignatureLength) {... */\n    tag_268:\n        /* \"https://github.com/OpenZeppelin/openzeppelin-contracts/blob/v5.0.0/contracts/utils/cryptography/ECDSA.sol\":7626:7656  RecoverError.InvalidSignatureS */\n      0x03\n        /* \"https://github.com/OpenZeppelin/openzeppelin-contracts/blob/v5.0.0/contracts/utils/cryptography/ECDSA.sol\":7617:7622  error */\n      dup3\n        /* \"https://github.com/OpenZeppelin/openzeppelin-contracts/blob/v5.0.0/contracts/utils/cryptography/ECDSA.sol\":7617:7656  error == RecoverError.InvalidSignatureS */\n      0x03\n      dup2\n      gt\n      iszero\n      tag_274\n      jumpi\n      tag_274\n      tag_253\n      jump\t// in\n    tag_274:\n      sub\n        /* \"https://github.com/OpenZeppelin/openzeppelin-contracts/blob/v5.0.0/contracts/utils/cryptography/ECDSA.sol\":7613:7722  if (error == RecoverError.InvalidSignatureS) {... */\n      tag_197\n      jumpi\n        /* \"https://github.com/OpenZeppelin/openzeppelin-contracts/blob/v5.0.0/contracts/utils/cryptography/ECDSA.sol\":7679:7711  ECDSAInvalidSignatureS(errorArg) */\n      mload(0x40)\n      shl(0xe2, 0x35e2f383)\n      dup2\n      mstore\n      0x04\n      dup2\n      add\n        /* \"#utility.yul\":1465:1490   */\n      dup3\n      swap1\n      mstore\n        /* \"#utility.yul\":1438:1456   */\n      0x24\n      add\n        /* \"https://github.com/OpenZeppelin/openzeppelin-contracts/blob/v5.0.0/contracts/utils/cryptography/ECDSA.sol\":7679:7711  ECDSAInvalidSignatureS(errorArg) */\n      tag_152\n        /* \"#utility.yul\":1319:1496   */\n      jump\n        /* \"https://github.com/OpenZeppelin/openzeppelin-contracts/blob/v5.0.0/contracts/token/ERC20/ERC20.sol\":6271:7378  function _update(address from, address to, uint256 value) internal virtual {... */\n    tag_223:\n      sub(shl(0xa0, 0x01), 0x01)\n        /* \"https://github.com/OpenZeppelin/openzeppelin-contracts/blob/v5.0.0/contracts/token/ERC20/ERC20.sol\":6360:6378  from == address(0) */\n      dup4\n      and\n        /* \"https://github.com/OpenZeppelin/openzeppelin-contracts/blob/v5.0.0/contracts/token/ERC20/ERC20.sol\":6356:6896  if (from == address(0)) {... */\n      tag_278\n      jumpi\n        /* \"https://github.com/OpenZeppelin/openzeppelin-contracts/blob/v5.0.0/contracts/token/ERC20/ERC20.sol\":6512:6517  value */\n      dup1\n        /* \"https://github.com/OpenZeppelin/openzeppelin-contracts/blob/v5.0.0/contracts/token/ERC20/ERC20.sol\":6496:6508  _totalSupply */\n      0x02\n      0x00\n        /* \"https://github.com/OpenZeppelin/openzeppelin-contracts/blob/v5.0.0/contracts/token/ERC20/ERC20.sol\":6496:6517  _totalSupply += value */\n      dup3\n      dup3\n      sload\n      tag_279\n      swap2\n      swap1\n      tag_280\n      jump\t// in\n    tag_279:\n      swap1\n      swap2\n      sstore\n      pop\n        /* \"https://github.com/OpenZeppelin/openzeppelin-contracts/blob/v5.0.0/contracts/token/ERC20/ERC20.sol\":6356:6896  if (from == address(0)) {... */\n      tag_281\n      swap1\n      pop\n      jump\n    tag_278:\n      sub(shl(0xa0, 0x01), 0x01)\n        /* \"https://github.com/OpenZeppelin/openzeppelin-contracts/blob/v5.0.0/contracts/token/ERC20/ERC20.sol\":6570:6585  _balances[from] */\n      dup4\n      and\n        /* \"https://github.com/OpenZeppelin/openzeppelin-contracts/blob/v5.0.0/contracts/token/ERC20/ERC20.sol\":6548:6567  uint256 fromBalance */\n      0x00\n        /* \"https://github.com/OpenZeppelin/openzeppelin-contracts/blob/v5.0.0/contracts/token/ERC20/ERC20.sol\":6570:6585  _balances[from] */\n      swap1\n      dup2\n      mstore\n      0x20\n      dup2\n      swap1\n      mstore\n      0x40\n      swap1\n      keccak256\n      sload\n        /* \"https://github.com/OpenZeppelin/openzeppelin-contracts/blob/v5.0.0/contracts/token/ERC20/ERC20.sol\":6603:6622  fromBalance < value */\n      dup2\n      dup2\n      lt\n        /* \"https://github.com/OpenZeppelin/openzeppelin-contracts/blob/v5.0.0/contracts/token/ERC20/ERC20.sol\":6599:6714  if (fromBalance < value) {... */\n      iszero\n      tag_282\n      jumpi\n        /* \"https://github.com/OpenZeppelin/openzeppelin-contracts/blob/v5.0.0/contracts/token/ERC20/ERC20.sol\":6649:6699  ERC20InsufficientBalance(from, fromBalance, value) */\n      mload(0x40)\n      shl(0xe2, 0x391434e3)\n      dup2\n      mstore\n      sub(shl(0xa0, 0x01), 0x01)\n        /* \"#utility.yul\":6931:6963   */\n      dup6\n      and\n        /* \"https://github.com/OpenZeppelin/openzeppelin-contracts/blob/v5.0.0/contracts/token/ERC20/ERC20.sol\":6649:6699  ERC20InsufficientBalance(from, fromBalance, value) */\n      0x04\n      dup3\n      add\n        /* \"#utility.yul\":6913:6964   */\n      mstore\n        /* \"#utility.yul\":6980:6998   */\n      0x24\n      dup2\n      add\n        /* \"#utility.yul\":6973:7007   */\n      dup3\n      swap1\n      mstore\n        /* \"#utility.yul\":7023:7041   */\n      0x44\n      dup2\n      add\n        /* \"#utility.yul\":7016:7050   */\n      dup4\n      swap1\n      mstore\n        /* \"#utility.yul\":6886:6904   */\n      0x64\n      add\n        /* \"https://github.com/OpenZeppelin/openzeppelin-contracts/blob/v5.0.0/contracts/token/ERC20/ERC20.sol\":6649:6699  ERC20InsufficientBalance(from, fromBalance, value) */\n      tag_152\n        /* \"#utility.yul\":6711:7056   */\n      jump\n        /* \"https://github.com/OpenZeppelin/openzeppelin-contracts/blob/v5.0.0/contracts/token/ERC20/ERC20.sol\":6599:6714  if (fromBalance < value) {... */\n    tag_282:\n      sub(shl(0xa0, 0x01), 0x01)\n        /* \"https://github.com/OpenZeppelin/openzeppelin-contracts/blob/v5.0.0/contracts/token/ERC20/ERC20.sol\":6834:6849  _balances[from] */\n      dup5\n      and\n        /* \"https://github.com/OpenZeppelin/openzeppelin-contracts/blob/v5.0.0/contracts/token/ERC20/ERC20.sol\":6834:6843  _balances */\n      0x00\n        /* \"https://github.com/OpenZeppelin/openzeppelin-contracts/blob/v5.0.0/contracts/token/ERC20/ERC20.sol\":6834:6849  _balances[from] */\n      swap1\n      dup2\n      mstore\n      0x20\n      dup2\n      swap1\n      mstore\n      0x40\n      swap1\n      keccak256\n        /* \"https://github.com/OpenZeppelin/openzeppelin-contracts/blob/v5.0.0/contracts/token/ERC20/ERC20.sol\":6852:6871  fromBalance - value */\n      swap1\n      dup3\n      swap1\n      sub\n        /* \"https://github.com/OpenZeppelin/openzeppelin-contracts/blob/v5.0.0/contracts/token/ERC20/ERC20.sol\":6834:6871  _balances[from] = fromBalance - value */\n      swap1\n      sstore\n        /* \"https://github.com/OpenZeppelin/openzeppelin-contracts/blob/v5.0.0/contracts/token/ERC20/ERC20.sol\":6356:6896  if (from == address(0)) {... */\n    tag_281:\n      sub(shl(0xa0, 0x01), 0x01)\n        /* \"https://github.com/OpenZeppelin/openzeppelin-contracts/blob/v5.0.0/contracts/token/ERC20/ERC20.sol\":6910:6926  to == address(0) */\n      dup3\n      and\n        /* \"https://github.com/OpenZeppelin/openzeppelin-contracts/blob/v5.0.0/contracts/token/ERC20/ERC20.sol\":6906:7331  if (to == address(0)) {... */\n      tag_284\n      jumpi\n        /* \"https://github.com/OpenZeppelin/openzeppelin-contracts/blob/v5.0.0/contracts/token/ERC20/ERC20.sol\":7073:7085  _totalSupply */\n      0x02\n        /* \"https://github.com/OpenZeppelin/openzeppelin-contracts/blob/v5.0.0/contracts/token/ERC20/ERC20.sol\":7073:7094  _totalSupply -= value */\n      dup1\n      sload\n      dup3\n      swap1\n      sub\n      swap1\n      sstore\n        /* \"https://github.com/OpenZeppelin/openzeppelin-contracts/blob/v5.0.0/contracts/token/ERC20/ERC20.sol\":6906:7331  if (to == address(0)) {... */\n      jump(tag_285)\n    tag_284:\n      sub(shl(0xa0, 0x01), 0x01)\n        /* \"https://github.com/OpenZeppelin/openzeppelin-contracts/blob/v5.0.0/contracts/token/ERC20/ERC20.sol\":7284:7297  _balances[to] */\n      dup3\n      and\n        /* \"https://github.com/OpenZeppelin/openzeppelin-contracts/blob/v5.0.0/contracts/token/ERC20/ERC20.sol\":7284:7293  _balances */\n      0x00\n        /* \"https://github.com/OpenZeppelin/openzeppelin-contracts/blob/v5.0.0/contracts/token/ERC20/ERC20.sol\":7284:7297  _balances[to] */\n      swap1\n      dup2\n      mstore\n      0x20\n      dup2\n      swap1\n      mstore\n      0x40\n      swap1\n      keccak256\n        /* \"https://github.com/OpenZeppelin/openzeppelin-contracts/blob/v5.0.0/contracts/token/ERC20/ERC20.sol\":7284:7306  _balances[to] += value */\n      dup1\n      sload\n      dup3\n      add\n      swap1\n      sstore\n        /* \"https://github.com/OpenZeppelin/openzeppelin-contracts/blob/v5.0.0/contracts/token/ERC20/ERC20.sol\":6906:7331  if (to == address(0)) {... */\n    tag_285:\n        /* \"https://github.com/OpenZeppelin/openzeppelin-contracts/blob/v5.0.0/contracts/token/ERC20/ERC20.sol\":7361:7363  to */\n      dup2\n      sub(shl(0xa0, 0x01), 0x01)\n        /* \"https://github.com/OpenZeppelin/openzeppelin-contracts/blob/v5.0.0/contracts/token/ERC20/ERC20.sol\":7346:7371  Transfer(from, to, value) */\n      and\n        /* \"https://github.com/OpenZeppelin/openzeppelin-contracts/blob/v5.0.0/contracts/token/ERC20/ERC20.sol\":7355:7359  from */\n      dup4\n      sub(shl(0xa0, 0x01), 0x01)\n        /* \"https://github.com/OpenZeppelin/openzeppelin-contracts/blob/v5.0.0/contracts/token/ERC20/ERC20.sol\":7346:7371  Transfer(from, to, value) */\n      and\n      0xddf252ad1be2c89b69c2b068fc378daa952ba7f163c4a11628f55a4df523b3ef\n        /* \"https://github.com/OpenZeppelin/openzeppelin-contracts/blob/v5.0.0/contracts/token/ERC20/ERC20.sol\":7365:7370  value */\n      dup4\n        /* \"https://github.com/OpenZeppelin/openzeppelin-contracts/blob/v5.0.0/contracts/token/ERC20/ERC20.sol\":7346:7371  Transfer(from, to, value) */\n      mload(0x40)\n      tag_224\n      swap2\n        /* \"#utility.yul\":1465:1490   */\n      dup2\n      mstore\n        /* \"#utility.yul\":1453:1455   */\n      0x20\n        /* \"#utility.yul\":1438:1456   */\n      add\n      swap1\n        /* \"#utility.yul\":1319:1496   */\n      jump\n        /* \"https://github.com/OpenZeppelin/openzeppelin-contracts/blob/v5.0.0/contracts/utils/ShortStrings.sol\":2078:2483  function toString(ShortString sstr) internal pure returns (string memory) {... */\n    tag_235:\n        /* \"https://github.com/OpenZeppelin/openzeppelin-contracts/blob/v5.0.0/contracts/utils/ShortStrings.sol\":2137:2150  string memory */\n      0x60\n        /* \"https://github.com/OpenZeppelin/openzeppelin-contracts/blob/v5.0.0/contracts/utils/ShortStrings.sol\":2162:2173  uint256 len */\n      0x00\n        /* \"https://github.com/OpenZeppelin/openzeppelin-contracts/blob/v5.0.0/contracts/utils/ShortStrings.sol\":2176:2192  byteLength(sstr) */\n      tag_288\n        /* \"https://github.com/OpenZeppelin/openzeppelin-contracts/blob/v5.0.0/contracts/utils/ShortStrings.sol\":2187:2191  sstr */\n      dup4\n        /* \"https://github.com/OpenZeppelin/openzeppelin-contracts/blob/v5.0.0/contracts/utils/ShortStrings.sol\":2176:2186  byteLength */\n      tag_289\n        /* \"https://github.com/OpenZeppelin/openzeppelin-contracts/blob/v5.0.0/contracts/utils/ShortStrings.sol\":2176:2192  byteLength(sstr) */\n      jump\t// in\n    tag_288:\n        /* \"https://github.com/OpenZeppelin/openzeppelin-contracts/blob/v5.0.0/contracts/utils/ShortStrings.sol\":2300:2314  new string(32) */\n      0x40\n      dup1\n      mload\n        /* \"https://github.com/OpenZeppelin/openzeppelin-contracts/blob/v5.0.0/contracts/utils/ShortStrings.sol\":2311:2313  32 */\n      0x20\n        /* \"https://github.com/OpenZeppelin/openzeppelin-contracts/blob/v5.0.0/contracts/utils/ShortStrings.sol\":2300:2314  new string(32) */\n      dup1\n      dup3\n      mstore\n      dup2\n      dup4\n      add\n      swap1\n      swap3\n      mstore\n        /* \"https://github.com/OpenZeppelin/openzeppelin-contracts/blob/v5.0.0/contracts/utils/ShortStrings.sol\":2162:2192  uint256 len = byteLength(sstr) */\n      swap2\n      swap3\n      pop\n        /* \"https://github.com/OpenZeppelin/openzeppelin-contracts/blob/v5.0.0/contracts/utils/ShortStrings.sol\":2280:2297  string memory str */\n      0x00\n      swap2\n        /* \"https://github.com/OpenZeppelin/openzeppelin-contracts/blob/v5.0.0/contracts/utils/ShortStrings.sol\":2300:2314  new string(32) */\n      swap1\n      0x20\n      dup3\n      add\n      dup2\n      dup1\n      calldatasize\n      dup4\n      calldatacopy\n      pop\n      pop\n      pop\n        /* \"https://github.com/OpenZeppelin/openzeppelin-contracts/blob/v5.0.0/contracts/utils/ShortStrings.sol\":2390:2406  mstore(str, len) */\n      swap2\n      dup3\n      mstore\n      pop\n        /* \"https://github.com/OpenZeppelin/openzeppelin-contracts/blob/v5.0.0/contracts/utils/ShortStrings.sol\":2435:2439  0x20 */\n      0x20\n        /* \"https://github.com/OpenZeppelin/openzeppelin-contracts/blob/v5.0.0/contracts/utils/ShortStrings.sol\":2426:2440  add(str, 0x20) */\n      dup2\n      add\n        /* \"https://github.com/OpenZeppelin/openzeppelin-contracts/blob/v5.0.0/contracts/utils/ShortStrings.sol\":2419:2447  mstore(add(str, 0x20), sstr) */\n      swap3\n      swap1\n      swap3\n      mstore\n      pop\n        /* \"https://github.com/OpenZeppelin/openzeppelin-contracts/blob/v5.0.0/contracts/utils/ShortStrings.sol\":2390:2406  mstore(str, len) */\n      swap1\n        /* \"https://github.com/OpenZeppelin/openzeppelin-contracts/blob/v5.0.0/contracts/utils/ShortStrings.sol\":2078:2483  function toString(ShortString sstr) internal pure returns (string memory) {... */\n      jump\t// out\n        /* \"https://github.com/OpenZeppelin/openzeppelin-contracts/blob/v5.0.0/contracts/utils/ShortStrings.sol\":2555:2800  function byteLength(ShortString sstr) internal pure returns (uint256) {... */\n    tag_289:\n        /* \"https://github.com/OpenZeppelin/openzeppelin-contracts/blob/v5.0.0/contracts/utils/ShortStrings.sol\":2616:2623  uint256 */\n      0x00\n        /* \"https://github.com/OpenZeppelin/openzeppelin-contracts/blob/v5.0.0/contracts/utils/ShortStrings.sol\":2688:2692  0xFF */\n      0xff\n        /* \"https://github.com/OpenZeppelin/openzeppelin-contracts/blob/v5.0.0/contracts/utils/ShortStrings.sol\":2652:2692  uint256(ShortString.unwrap(sstr)) & 0xFF */\n      dup3\n      and\n        /* \"https://github.com/OpenZeppelin/openzeppelin-contracts/blob/v5.0.0/contracts/utils/ShortStrings.sol\":2715:2717  31 */\n      0x1f\n        /* \"https://github.com/OpenZeppelin/openzeppelin-contracts/blob/v5.0.0/contracts/utils/ShortStrings.sol\":2706:2717  result > 31 */\n      dup2\n      gt\n        /* \"https://github.com/OpenZeppelin/openzeppelin-contracts/blob/v5.0.0/contracts/utils/ShortStrings.sol\":2702:2771  if (result > 31) {... */\n      iszero\n      tag_104\n      jumpi\n        /* \"https://github.com/OpenZeppelin/openzeppelin-contracts/blob/v5.0.0/contracts/utils/ShortStrings.sol\":2740:2760  InvalidShortString() */\n      mload(0x40)\n      shl(0xe2, 0x2cd44ac3)\n      dup2\n      mstore\n      0x04\n      add\n      mload(0x40)\n      dup1\n      swap2\n      sub\n      swap1\n      revert\n        /* \"#utility.yul\":14:414   */\n    tag_295:\n        /* \"#utility.yul\":56:59   */\n      0x00\n        /* \"#utility.yul\":94:99   */\n      dup2\n        /* \"#utility.yul\":88:100   */\n      mload\n        /* \"#utility.yul\":121:127   */\n      dup1\n        /* \"#utility.yul\":116:119   */\n      dup5\n        /* \"#utility.yul\":109:128   */\n      mstore\n        /* \"#utility.yul\":146:147   */\n      0x00\n        /* \"#utility.yul\":156:295   */\n    tag_299:\n        /* \"#utility.yul\":170:176   */\n      dup2\n        /* \"#utility.yul\":167:168   */\n      dup2\n        /* \"#utility.yul\":164:177   */\n      lt\n        /* \"#utility.yul\":156:295   */\n      iszero\n      tag_301\n      jumpi\n        /* \"#utility.yul\":278:282   */\n      0x20\n        /* \"#utility.yul\":263:276   */\n      dup2\n      dup6\n      add\n        /* \"#utility.yul\":259:283   */\n      dup2\n      add\n        /* \"#utility.yul\":253:284   */\n      mload\n        /* \"#utility.yul\":233:244   */\n      dup7\n      dup4\n      add\n        /* \"#utility.yul\":229:251   */\n      dup3\n      add\n        /* \"#utility.yul\":222:285   */\n      mstore\n        /* \"#utility.yul\":185:197   */\n      add\n        /* \"#utility.yul\":156:295   */\n      jump(tag_299)\n    tag_301:\n        /* \"#utility.yul\":160:163   */\n      pop\n        /* \"#utility.yul\":340:341   */\n      0x00\n        /* \"#utility.yul\":333:337   */\n      0x20\n        /* \"#utility.yul\":324:330   */\n      dup3\n        /* \"#utility.yul\":319:322   */\n      dup7\n        /* \"#utility.yul\":315:331   */\n      add\n        /* \"#utility.yul\":311:338   */\n      add\n        /* \"#utility.yul\":304:342   */\n      mstore\n        /* \"#utility.yul\":403:407   */\n      0x20\n        /* \"#utility.yul\":396:398   */\n      0x1f\n        /* \"#utility.yul\":392:399   */\n      not\n        /* \"#utility.yul\":387:389   */\n      0x1f\n        /* \"#utility.yul\":379:385   */\n      dup4\n        /* \"#utility.yul\":375:390   */\n      add\n        /* \"#utility.yul\":371:400   */\n      and\n        /* \"#utility.yul\":366:369   */\n      dup6\n        /* \"#utility.yul\":362:401   */\n      add\n        /* \"#utility.yul\":358:408   */\n      add\n        /* \"#utility.yul\":351:408   */\n      swap2\n      pop\n      pop\n        /* \"#utility.yul\":14:414   */\n      swap3\n      swap2\n      pop\n      pop\n      jump\t// out\n        /* \"#utility.yul\":419:639   */\n    tag_27:\n        /* \"#utility.yul\":568:570   */\n      0x20\n        /* \"#utility.yul\":557:566   */\n      dup2\n        /* \"#utility.yul\":550:571   */\n      mstore\n        /* \"#utility.yul\":531:535   */\n      0x00\n        /* \"#utility.yul\":588:633   */\n      tag_303\n        /* \"#utility.yul\":629:631   */\n      0x20\n        /* \"#utility.yul\":618:627   */\n      dup4\n        /* \"#utility.yul\":614:632   */\n      add\n        /* \"#utility.yul\":606:612   */\n      dup5\n        /* \"#utility.yul\":588:633   */\n      tag_295\n      jump\t// in\n    tag_303:\n        /* \"#utility.yul\":580:633   */\n      swap4\n        /* \"#utility.yul\":419:639   */\n      swap3\n      pop\n      pop\n      pop\n      jump\t// out\n        /* \"#utility.yul\":644:817   */\n    tag_296:\n        /* \"#utility.yul\":712:732   */\n      dup1\n      calldataload\n      sub(shl(0xa0, 0x01), 0x01)\n        /* \"#utility.yul\":761:792   */\n      dup2\n      and\n        /* \"#utility.yul\":751:793   */\n      dup2\n      eq\n        /* \"#utility.yul\":741:811   */\n      tag_305\n      jumpi\n        /* \"#utility.yul\":807:808   */\n      0x00\n        /* \"#utility.yul\":804:805   */\n      dup1\n        /* \"#utility.yul\":797:809   */\n      revert\n        /* \"#utility.yul\":741:811   */\n    tag_305:\n        /* \"#utility.yul\":644:817   */\n      swap2\n      swap1\n      pop\n      jump\t// out\n        /* \"#utility.yul\":822:1122   */\n    tag_30:\n        /* \"#utility.yul\":890:896   */\n      0x00\n        /* \"#utility.yul\":898:904   */\n      dup1\n        /* \"#utility.yul\":951:953   */\n      0x40\n        /* \"#utility.yul\":939:948   */\n      dup4\n        /* \"#utility.yul\":930:937   */\n      dup6\n        /* \"#utility.yul\":926:949   */\n      sub\n        /* \"#utility.yul\":922:954   */\n      slt\n        /* \"#utility.yul\":919:971   */\n      iszero\n      tag_307\n      jumpi\n        /* \"#utility.yul\":967:968   */\n      0x00\n        /* \"#utility.yul\":964:965   */\n      dup1\n        /* \"#utility.yul\":957:969   */\n      revert\n        /* \"#utility.yul\":919:971   */\n    tag_307:\n        /* \"#utility.yul\":990:1019   */\n      tag_308\n        /* \"#utility.yul\":1009:1018   */\n      dup4\n        /* \"#utility.yul\":990:1019   */\n      tag_296\n      jump\t// in\n    tag_308:\n        /* \"#utility.yul\":980:1019   */\n      swap5\n        /* \"#utility.yul\":1088:1090   */\n      0x20\n        /* \"#utility.yul\":1073:1091   */\n      swap4\n      swap1\n      swap4\n      add\n        /* \"#utility.yul\":1060:1092   */\n      calldataload\n      swap4\n      pop\n      pop\n      pop\n        /* \"#utility.yul\":822:1122   */\n      jump\t// out\n        /* \"#utility.yul\":1501:1875   */\n    tag_40:\n        /* \"#utility.yul\":1578:1584   */\n      0x00\n        /* \"#utility.yul\":1586:1592   */\n      dup1\n        /* \"#utility.yul\":1594:1600   */\n      0x00\n        /* \"#utility.yul\":1647:1649   */\n      0x60\n        /* \"#utility.yul\":1635:1644   */\n      dup5\n        /* \"#utility.yul\":1626:1633   */\n      dup7\n        /* \"#utility.yul\":1622:1645   */\n      sub\n        /* \"#utility.yul\":1618:1650   */\n      slt\n        /* \"#utility.yul\":1615:1667   */\n      iszero\n      tag_312\n      jumpi\n        /* \"#utility.yul\":1663:1664   */\n      0x00\n        /* \"#utility.yul\":1660:1661   */\n      dup1\n        /* \"#utility.yul\":1653:1665   */\n      revert\n        /* \"#utility.yul\":1615:1667   */\n    tag_312:\n        /* \"#utility.yul\":1686:1715   */\n      tag_313\n        /* \"#utility.yul\":1705:1714   */\n      dup5\n        /* \"#utility.yul\":1686:1715   */\n      tag_296\n      jump\t// in\n    tag_313:\n        /* \"#utility.yul\":1676:1715   */\n      swap3\n      pop\n        /* \"#utility.yul\":1734:1772   */\n      tag_314\n        /* \"#utility.yul\":1768:1770   */\n      0x20\n        /* \"#utility.yul\":1757:1766   */\n      dup6\n        /* \"#utility.yul\":1753:1771   */\n      add\n        /* \"#utility.yul\":1734:1772   */\n      tag_296\n      jump\t// in\n    tag_314:\n        /* \"#utility.yul\":1501:1875   */\n      swap3\n      swap6\n        /* \"#utility.yul\":1724:1772   */\n      swap3\n      swap5\n      pop\n      pop\n      pop\n        /* \"#utility.yul\":1841:1843   */\n      0x40\n        /* \"#utility.yul\":1826:1844   */\n      swap2\n      swap1\n      swap2\n      add\n        /* \"#utility.yul\":1813:1845   */\n      calldataload\n      swap1\n        /* \"#utility.yul\":1501:1875   */\n      jump\t// out\n        /* \"#utility.yul\":2251:2477   */\n    tag_56:\n        /* \"#utility.yul\":2310:2316   */\n      0x00\n        /* \"#utility.yul\":2363:2365   */\n      0x20\n        /* \"#utility.yul\":2351:2360   */\n      dup3\n        /* \"#utility.yul\":2342:2349   */\n      dup5\n        /* \"#utility.yul\":2338:2361   */\n      sub\n        /* \"#utility.yul\":2334:2366   */\n      slt\n        /* \"#utility.yul\":2331:2383   */\n      iszero\n      tag_318\n      jumpi\n        /* \"#utility.yul\":2379:2380   */\n      0x00\n        /* \"#utility.yul\":2376:2377   */\n      dup1\n        /* \"#utility.yul\":2369:2381   */\n      revert\n        /* \"#utility.yul\":2331:2383   */\n    tag_318:\n      pop\n        /* \"#utility.yul\":2424:2447   */\n      calldataload\n      swap2\n        /* \"#utility.yul\":2251:2477   */\n      swap1\n      pop\n      jump\t// out\n        /* \"#utility.yul\":2690:2876   */\n    tag_64:\n        /* \"#utility.yul\":2749:2755   */\n      0x00\n        /* \"#utility.yul\":2802:2804   */\n      0x20\n        /* \"#utility.yul\":2790:2799   */\n      dup3\n        /* \"#utility.yul\":2781:2788   */\n      dup5\n        /* \"#utility.yul\":2777:2800   */\n      sub\n        /* \"#utility.yul\":2773:2805   */\n      slt\n        /* \"#utility.yul\":2770:2822   */\n      iszero\n      tag_321\n      jumpi\n        /* \"#utility.yul\":2818:2819   */\n      0x00\n        /* \"#utility.yul\":2815:2816   */\n      dup1\n        /* \"#utility.yul\":2808:2820   */\n      revert\n        /* \"#utility.yul\":2770:2822   */\n    tag_321:\n        /* \"#utility.yul\":2841:2870   */\n      tag_303\n        /* \"#utility.yul\":2860:2869   */\n      dup3\n        /* \"#utility.yul\":2841:2870   */\n      tag_296\n      jump\t// in\n        /* \"#utility.yul\":2881:4119   */\n    tag_77:\n        /* \"#utility.yul\":3287:3290   */\n      0xff\n        /* \"#utility.yul\":3282:3285   */\n      0xf8\n        /* \"#utility.yul\":3278:3291   */\n      shl\n        /* \"#utility.yul\":3270:3276   */\n      dup9\n        /* \"#utility.yul\":3266:3292   */\n      and\n        /* \"#utility.yul\":3255:3264   */\n      dup2\n        /* \"#utility.yul\":3248:3293   */\n      mstore\n        /* \"#utility.yul\":3329:3332   */\n      0xe0\n        /* \"#utility.yul\":3324:3326   */\n      0x20\n        /* \"#utility.yul\":3313:3322   */\n      dup3\n        /* \"#utility.yul\":3309:3327   */\n      add\n        /* \"#utility.yul\":3302:3333   */\n      mstore\n        /* \"#utility.yul\":3229:3233   */\n      0x00\n        /* \"#utility.yul\":3356:3402   */\n      tag_324\n        /* \"#utility.yul\":3397:3400   */\n      0xe0\n        /* \"#utility.yul\":3386:3395   */\n      dup4\n        /* \"#utility.yul\":3382:3401   */\n      add\n        /* \"#utility.yul\":3374:3380   */\n      dup10\n        /* \"#utility.yul\":3356:3402   */\n      tag_295\n      jump\t// in\n    tag_324:\n        /* \"#utility.yul\":3450:3459   */\n      dup3\n        /* \"#utility.yul\":3442:3448   */\n      dup2\n        /* \"#utility.yul\":3438:3460   */\n      sub\n        /* \"#utility.yul\":3433:3435   */\n      0x40\n        /* \"#utility.yul\":3422:3431   */\n      dup5\n        /* \"#utility.yul\":3418:3436   */\n      add\n        /* \"#utility.yul\":3411:3461   */\n      mstore\n        /* \"#utility.yul\":3484:3517   */\n      tag_325\n        /* \"#utility.yul\":3510:3516   */\n      dup2\n        /* \"#utility.yul\":3502:3508   */\n      dup10\n        /* \"#utility.yul\":3484:3517   */\n      tag_295\n      jump\t// in\n    tag_325:\n        /* \"#utility.yul\":3548:3550   */\n      0x60\n        /* \"#utility.yul\":3533:3551   */\n      dup5\n      add\n        /* \"#utility.yul\":3526:3560   */\n      dup9\n      swap1\n      mstore\n      sub(shl(0xa0, 0x01), 0x01)\n        /* \"#utility.yul\":3597:3629   */\n      dup8\n      and\n        /* \"#utility.yul\":3591:3594   */\n      0x80\n        /* \"#utility.yul\":3576:3595   */\n      dup6\n      add\n        /* \"#utility.yul\":3569:3630   */\n      mstore\n        /* \"#utility.yul\":3617:3620   */\n      0xa0\n        /* \"#utility.yul\":3646:3665   */\n      dup5\n      add\n        /* \"#utility.yul\":3639:3674   */\n      dup7\n      swap1\n      mstore\n        /* \"#utility.yul\":3711:3733   */\n      dup4\n      dup2\n      sub\n        /* \"#utility.yul\":3705:3708   */\n      0xc0\n        /* \"#utility.yul\":3690:3709   */\n      dup6\n      add\n        /* \"#utility.yul\":3683:3734   */\n      mstore\n        /* \"#utility.yul\":3783:3796   */\n      dup5\n      mload\n        /* \"#utility.yul\":3805:3827   */\n      dup1\n      dup3\n      mstore\n        /* \"#utility.yul\":3855:3857   */\n      0x20\n        /* \"#utility.yul\":3881:3896   */\n      dup1\n      dup8\n      add\n      swap4\n      pop\n        /* \"#utility.yul\":3843:3858   */\n      swap1\n      swap2\n      add\n      swap1\n      0x00\n        /* \"#utility.yul\":3924:4093   */\n    tag_326:\n        /* \"#utility.yul\":3938:3944   */\n      dup2\n        /* \"#utility.yul\":3935:3936   */\n      dup2\n        /* \"#utility.yul\":3932:3945   */\n      lt\n        /* \"#utility.yul\":3924:4093   */\n      iszero\n      tag_328\n      jumpi\n        /* \"#utility.yul\":3999:4012   */\n      dup4\n      mload\n        /* \"#utility.yul\":3987:4013   */\n      dup4\n      mstore\n        /* \"#utility.yul\":4042:4044   */\n      0x20\n        /* \"#utility.yul\":4068:4083   */\n      swap4\n      dup5\n      add\n      swap4\n        /* \"#utility.yul\":4033:4045   */\n      swap1\n      swap3\n      add\n      swap2\n        /* \"#utility.yul\":3960:3961   */\n      0x01\n        /* \"#utility.yul\":3953:3962   */\n      add\n        /* \"#utility.yul\":3924:4093   */\n      jump(tag_326)\n    tag_328:\n      pop\n        /* \"#utility.yul\":4110:4113   */\n      swap1\n      swap12\n        /* \"#utility.yul\":2881:4119   */\n      swap11\n      pop\n      pop\n      pop\n      pop\n      pop\n      pop\n      pop\n      pop\n      pop\n      pop\n      pop\n      jump\t// out\n        /* \"#utility.yul\":4124:5027   */\n    tag_87:\n        /* \"#utility.yul\":4235:4241   */\n      0x00\n        /* \"#utility.yul\":4243:4249   */\n      dup1\n        /* \"#utility.yul\":4251:4257   */\n      0x00\n        /* \"#utility.yul\":4259:4265   */\n      dup1\n        /* \"#utility.yul\":4267:4273   */\n      0x00\n        /* \"#utility.yul\":4275:4281   */\n      dup1\n        /* \"#utility.yul\":4283:4289   */\n      0x00\n        /* \"#utility.yul\":4336:4339   */\n      0xe0\n        /* \"#utility.yul\":4324:4333   */\n      dup9\n        /* \"#utility.yul\":4315:4322   */\n      dup11\n        /* \"#utility.yul\":4311:4334   */\n      sub\n        /* \"#utility.yul\":4307:4340   */\n      slt\n        /* \"#utility.yul\":4304:4357   */\n      iszero\n      tag_330\n      jumpi\n        /* \"#utility.yul\":4353:4354   */\n      0x00\n        /* \"#utility.yul\":4350:4351   */\n      dup1\n        /* \"#utility.yul\":4343:4355   */\n      revert\n        /* \"#utility.yul\":4304:4357   */\n    tag_330:\n        /* \"#utility.yul\":4376:4405   */\n      tag_331\n        /* \"#utility.yul\":4395:4404   */\n      dup9\n        /* \"#utility.yul\":4376:4405   */\n      tag_296\n      jump\t// in\n    tag_331:\n        /* \"#utility.yul\":4366:4405   */\n      swap7\n      pop\n        /* \"#utility.yul\":4424:4462   */\n      tag_332\n        /* \"#utility.yul\":4458:4460   */\n      0x20\n        /* \"#utility.yul\":4447:4456   */\n      dup10\n        /* \"#utility.yul\":4443:4461   */\n      add\n        /* \"#utility.yul\":4424:4462   */\n      tag_296\n      jump\t// in\n    tag_332:\n        /* \"#utility.yul\":4414:4462   */\n      swap6\n      pop\n        /* \"#utility.yul\":4531:4533   */\n      0x40\n        /* \"#utility.yul\":4516:4534   */\n      dup9\n      add\n        /* \"#utility.yul\":4503:4535   */\n      calldataload\n      swap5\n      pop\n        /* \"#utility.yul\":4632:4634   */\n      0x60\n        /* \"#utility.yul\":4617:4635   */\n      dup9\n      add\n        /* \"#utility.yul\":4604:4636   */\n      calldataload\n      swap4\n      pop\n        /* \"#utility.yul\":4714:4717   */\n      0x80\n        /* \"#utility.yul\":4699:4718   */\n      dup9\n      add\n        /* \"#utility.yul\":4686:4719   */\n      calldataload\n        /* \"#utility.yul\":4763:4767   */\n      0xff\n        /* \"#utility.yul\":4750:4768   */\n      dup2\n      and\n        /* \"#utility.yul\":4738:4769   */\n      dup2\n      eq\n        /* \"#utility.yul\":4728:4787   */\n      tag_333\n      jumpi\n        /* \"#utility.yul\":4783:4784   */\n      0x00\n        /* \"#utility.yul\":4780:4781   */\n      dup1\n        /* \"#utility.yul\":4773:4785   */\n      revert\n        /* \"#utility.yul\":4728:4787   */\n    tag_333:\n        /* \"#utility.yul\":4124:5027   */\n      swap7\n      swap10\n      swap6\n      swap9\n      pop\n      swap4\n      swap7\n      swap3\n      swap6\n        /* \"#utility.yul\":4806:4813   */\n      swap5\n        /* \"#utility.yul\":4886:4889   */\n      0xa0\n        /* \"#utility.yul\":4871:4890   */\n      dup5\n      add\n        /* \"#utility.yul\":4858:4891   */\n      calldataload\n      swap5\n      pop\n        /* \"#utility.yul\":4990:4993   */\n      0xc0\n        /* \"#utility.yul\":4975:4994   */\n      swap1\n      swap4\n      add\n        /* \"#utility.yul\":4962:4995   */\n      calldataload\n      swap3\n        /* \"#utility.yul\":4124:5027   */\n      swap2\n      pop\n      pop\n      jump\t// out\n        /* \"#utility.yul\":5032:5292   */\n    tag_91:\n        /* \"#utility.yul\":5100:5106   */\n      0x00\n        /* \"#utility.yul\":5108:5114   */\n      dup1\n        /* \"#utility.yul\":5161:5163   */\n      0x40\n        /* \"#utility.yul\":5149:5158   */\n      dup4\n        /* \"#utility.yul\":5140:5147   */\n      dup6\n        /* \"#utility.yul\":5136:5159   */\n      sub\n        /* \"#utility.yul\":5132:5164   */\n      slt\n        /* \"#utility.yul\":5129:5181   */\n      iszero\n      tag_335\n      jumpi\n        /* \"#utility.yul\":5177:5178   */\n      0x00\n        /* \"#utility.yul\":5174:5175   */\n      dup1\n        /* \"#utility.yul\":5167:5179   */\n      revert\n        /* \"#utility.yul\":5129:5181   */\n    tag_335:\n        /* \"#utility.yul\":5200:5229   */\n      tag_336\n        /* \"#utility.yul\":5219:5228   */\n      dup4\n        /* \"#utility.yul\":5200:5229   */\n      tag_296\n      jump\t// in\n    tag_336:\n        /* \"#utility.yul\":5190:5229   */\n      swap2\n      pop\n        /* \"#utility.yul\":5248:5286   */\n      tag_337\n        /* \"#utility.yul\":5282:5284   */\n      0x20\n        /* \"#utility.yul\":5271:5280   */\n      dup5\n        /* \"#utility.yul\":5267:5285   */\n      add\n        /* \"#utility.yul\":5248:5286   */\n      tag_296\n      jump\t// in\n    tag_337:\n        /* \"#utility.yul\":5238:5286   */\n      swap1\n      pop\n        /* \"#utility.yul\":5032:5292   */\n      swap3\n      pop\n      swap3\n      swap1\n      pop\n      jump\t// out\n        /* \"#utility.yul\":5297:5677   */\n    tag_99:\n        /* \"#utility.yul\":5376:5377   */\n      0x01\n        /* \"#utility.yul\":5372:5384   */\n      dup2\n      dup2\n      shr\n      swap1\n        /* \"#utility.yul\":5419:5431   */\n      dup3\n      and\n      dup1\n        /* \"#utility.yul\":5440:5501   */\n      tag_339\n      jumpi\n        /* \"#utility.yul\":5494:5498   */\n      0x7f\n        /* \"#utility.yul\":5486:5492   */\n      dup3\n        /* \"#utility.yul\":5482:5499   */\n      and\n        /* \"#utility.yul\":5472:5499   */\n      swap2\n      pop\n        /* \"#utility.yul\":5440:5501   */\n    tag_339:\n        /* \"#utility.yul\":5547:5549   */\n      0x20\n        /* \"#utility.yul\":5539:5545   */\n      dup3\n        /* \"#utility.yul\":5536:5550   */\n      lt\n        /* \"#utility.yul\":5516:5534   */\n      dup2\n        /* \"#utility.yul\":5513:5551   */\n      sub\n        /* \"#utility.yul\":5510:5671   */\n      tag_340\n      jumpi\n        /* \"#utility.yul\":5593:5603   */\n      0x4e487b71\n        /* \"#utility.yul\":5588:5591   */\n      0xe0\n        /* \"#utility.yul\":5584:5604   */\n      shl\n        /* \"#utility.yul\":5581:5582   */\n      0x00\n        /* \"#utility.yul\":5574:5605   */\n      mstore\n        /* \"#utility.yul\":5628:5632   */\n      0x22\n        /* \"#utility.yul\":5625:5626   */\n      0x04\n        /* \"#utility.yul\":5618:5633   */\n      mstore\n        /* \"#utility.yul\":5656:5660   */\n      0x24\n        /* \"#utility.yul\":5653:5654   */\n      0x00\n        /* \"#utility.yul\":5646:5661   */\n      revert\n        /* \"#utility.yul\":5510:5671   */\n    tag_340:\n      pop\n        /* \"#utility.yul\":5297:5677   */\n      swap2\n      swap1\n      pop\n      jump\t// out\n        /* \"#utility.yul\":7958:8085   */\n    tag_253:\n        /* \"#utility.yul\":8019:8029   */\n      0x4e487b71\n        /* \"#utility.yul\":8014:8017   */\n      0xe0\n        /* \"#utility.yul\":8010:8030   */\n      shl\n        /* \"#utility.yul\":8007:8008   */\n      0x00\n        /* \"#utility.yul\":8000:8031   */\n      mstore\n        /* \"#utility.yul\":8050:8054   */\n      0x21\n        /* \"#utility.yul\":8047:8048   */\n      0x04\n        /* \"#utility.yul\":8040:8055   */\n      mstore\n        /* \"#utility.yul\":8074:8078   */\n      0x24\n        /* \"#utility.yul\":8071:8072   */\n      0x00\n        /* \"#utility.yul\":8064:8079   */\n      revert\n        /* \"#utility.yul\":8090:8312   */\n    tag_280:\n        /* \"#utility.yul\":8155:8164   */\n      dup1\n      dup3\n      add\n        /* \"#utility.yul\":8176:8186   */\n      dup1\n      dup3\n      gt\n        /* \"#utility.yul\":8173:8306   */\n      iszero\n      tag_104\n      jumpi\n        /* \"#utility.yul\":8228:8238   */\n      0x4e487b71\n        /* \"#utility.yul\":8223:8226   */\n      0xe0\n        /* \"#utility.yul\":8219:8239   */\n      shl\n        /* \"#utility.yul\":8216:8217   */\n      0x00\n        /* \"#utility.yul\":8209:8240   */\n      mstore\n        /* \"#utility.yul\":8263:8267   */\n      0x11\n        /* \"#utility.yul\":8260:8261   */\n      0x04\n        /* \"#utility.yul\":8253:8268   */\n      mstore\n        /* \"#utility.yul\":8291:8295   */\n      0x24\n        /* \"#utility.yul\":8288:8289   */\n      0x00\n        /* \"#utility.yul\":8281:8296   */\n      revert\n\n    auxdata: 0xa26469706673582212209966a22137ef03dbd301e0371aa9dbb66a25546fb2c09965abe65c4f893986b264736f6c634300081a0033\n}\n",
				"bytecode": {
					"linkReferences": {},
					"object": "6101a060405234801561001157600080fd5b506040516118553803806118558339810160408190526100309161048c565b604051806040016040528060098152602001682830b73537a1b7b4b760b91b81525080604051806040016040528060018152602001603160f81b815250604051806040016040528060098152602001682830b73537a1b7b4b760b91b81525060405180604001604052806004815260200163504e4a4360e01b81525081600390816100bb919061055b565b5060046100c8828261055b565b506100d891508390506005610267565b610120526100e7816006610267565b61014052815160208084019190912060e052815190820120610100524660a05261017460e05161010051604080517f8b73c3c69bb8fe3d512ecc4cf759cc79239f7b179b0ffacaa9a75d522b39400f60208201529081019290925260608201524660808201523060a082015260009060c00160405160208183030381529060405280519060200120905090565b60805250503060c052506001600160a01b0381166101e75760405162461bcd60e51b815260206004820152602560248201527f504e4a433a2054726561737572792063616e6e6f74206265207a65726f206164604482015264647265737360d81b60648201526084015b60405180910390fd5b6001600160a01b038116610160524261018052610211816c0c9f2c9cd04674edea4000000061029a565b604080516c0c9f2c9cd04674edea4000000081524260208201526001600160a01b038316917f9656fa3ee9769c0d6de8ae1f79cca49ee9cb74a9c3db804cb9544b4e5b63a4f0910160405180910390a2506106ac565b60006020835110156102835761027c836102d4565b9050610294565b8161028e848261055b565b5060ff90505b92915050565b6001600160a01b0382166102c45760405163ec442f0560e01b8152600060048201526024016101de565b6102d060008383610312565b5050565b600080829050601f815111156102ff578260405163305a27a960e01b81526004016101de9190610619565b805161030a82610667565b179392505050565b61031d83838361036f565b816001600160a01b0316836001600160a01b03167fb5fd41d87d60aa758b7a3c421993bd379f0df87361be9e07ae8831448ee5ad948360405161036291815260200190565b60405180910390a3505050565b6001600160a01b03831661039a57806002600082825461038f919061068b565b9091555061040c9050565b6001600160a01b038316600090815260208190526040902054818110156103ed5760405163391434e360e21b81526001600160a01b038516600482015260248101829052604481018390526064016101de565b6001600160a01b03841660009081526020819052604090209082900390555b6001600160a01b03821661042857600280548290039055610447565b6001600160a01b03821660009081526020819052604090208054820190555b816001600160a01b0316836001600160a01b03167fddf252ad1be2c89b69c2b068fc378daa952ba7f163c4a11628f55a4df523b3ef8360405161036291815260200190565b60006020828403121561049e57600080fd5b81516001600160a01b03811681146104b557600080fd5b9392505050565b634e487b7160e01b600052604160045260246000fd5b600181811c908216806104e657607f821691505b60208210810361050657634e487b7160e01b600052602260045260246000fd5b50919050565b601f82111561055657806000526020600020601f840160051c810160208510156105335750805b601f840160051c820191505b81811015610553576000815560010161053f565b50505b505050565b81516001600160401b03811115610574576105746104bc565b6105888161058284546104d2565b8461050c565b6020601f8211600181146105bc57600083156105a45750848201515b600019600385901b1c1916600184901b178455610553565b600084815260208120601f198516915b828110156105ec57878501518255602094850194600190920191016105cc565b508482101561060a5786840151600019600387901b60f8161c191681555b50505050600190811b01905550565b602081526000825180602084015260005b81811015610647576020818601810151604086840101520161062a565b506000604082850101526040601f19601f83011684010191505092915050565b805160208083015191908110156105065760001960209190910360031b1b16919050565b8082018082111561029457634e487b7160e01b600052601160045260246000fd5b60805160a05160c05160e051610100516101205161014051610160516101805161113961071c60003960006102d6015260006101c60152600061089d01526000610870015260006107f2015260006107ca015260006107250152600061074f0152600061077901526111396000f3fe608060405234801561001057600080fd5b50600436106101165760003560e01c806370a08231116100a257806395d89b411161007157806395d89b411461026a578063a9059cbb14610272578063d505accf14610285578063dd62ed3e14610298578063ecda10f5146102d157600080fd5b806370a082311461020057806379cc6790146102295780637ecebe001461023c57806384b0196e1461024f57600080fd5b8063313ce567116100e9578063313ce5671461018157806332cb6b0c146101905780633644e515146101a457806342966c68146101ac57806361d027b3146101c157600080fd5b806306fdde031461011b578063095ea7b31461013957806318160ddd1461015c57806323b872dd1461016e575b600080fd5b6101236102f8565b6040516101309190610e83565b60405180910390f35b61014c610147366004610eb9565b61038a565b6040519015158152602001610130565b6002545b604051908152602001610130565b61014c61017c366004610ee3565b6103a4565b60405160128152602001610130565b6101606c0c9f2c9cd04674edea4000000081565b6101606103c8565b6101bf6101ba366004610f20565b6103d7565b005b6101e87f000000000000000000000000000000000000000000000000000000000000000081565b6040516001600160a01b039091168152602001610130565b61016061020e366004610f39565b6001600160a01b031660009081526020819052604090205490565b6101bf610237366004610eb9565b610418565b61016061024a366004610f39565b610469565b610257610487565b6040516101309796959493929190610f54565b6101236104cd565b61014c610280366004610eb9565b6104dc565b6101bf610293366004610fec565b6104ea565b6101606102a636600461105f565b6001600160a01b03918216600090815260016020908152604080832093909416825291909152205490565b6101607f000000000000000000000000000000000000000000000000000000000000000081565b60606003805461030790611092565b80601f016020809104026020016040519081016040528092919081815260200182805461033390611092565b80156103805780601f1061035557610100808354040283529160200191610380565b820191906000526020600020905b81548152906001019060200180831161036357829003601f168201915b5050505050905090565b600033610398818585610629565b60019150505b92915050565b6000336103b285828561063b565b6103bd8585856106b9565b506001949350505050565b60006103d2610718565b905090565b6103e081610843565b60405181815233907f1517606112412134e3cff92ed78f89076ab08c0deabe1bcdc573593a2dc988649060200160405180910390a250565b6104228282610850565b816001600160a01b03167f1517606112412134e3cff92ed78f89076ab08c0deabe1bcdc573593a2dc988648260405161045d91815260200190565b60405180910390a25050565b6001600160a01b03811660009081526007602052604081205461039e565b60006060806000806000606061049b610869565b6104a3610896565b60408051600080825260208201909252600f60f81b9b939a50919850469750309650945092509050565b60606004805461030790611092565b6000336103988185856106b9565b834211156105135760405163313c898160e11b8152600481018590526024015b60405180910390fd5b60007f6e71edae12b1b97f4d1f60370fef10105fa2faae0126114a169c64845d6126c98888886105608c6001600160a01b0316600090815260076020526040902080546001810190915590565b6040805160208101969096526001600160a01b0394851690860152929091166060840152608083015260a082015260c0810186905260e00160405160208183030381529060405280519060200120905060006105bb826108c3565b905060006105cb828787876108f0565b9050896001600160a01b0316816001600160a01b031614610612576040516325c0072360e11b81526001600160a01b0380831660048301528b16602482015260440161050a565b61061d8a8a8a610629565b50505050505050505050565b610636838383600161091e565b505050565b6001600160a01b0383811660009081526001602090815260408083209386168352929052205460001981146106b357818110156106a457604051637dc7a0d960e11b81526001600160a01b0384166004820152602481018290526044810183905260640161050a565b6106b38484848403600061091e565b50505050565b6001600160a01b0383166106e357604051634b637e8f60e11b81526000600482015260240161050a565b6001600160a01b03821661070d5760405163ec442f0560e01b81526000600482015260240161050a565b6106368383836109f3565b6000306001600160a01b037f00000000000000000000000000000000000000000000000000000000000000001614801561077157507f000000000000000000000000000000000000000000000000000000000000000046145b1561079b57507f000000000000000000000000000000000000000000000000000000000000000090565b6103d2604080517f8b73c3c69bb8fe3d512ecc4cf759cc79239f7b179b0ffacaa9a75d522b39400f60208201527f0000000000000000000000000000000000000000000000000000000000000000918101919091527f000000000000000000000000000000000000000000000000000000000000000060608201524660808201523060a082015260009060c00160405160208183030381529060405280519060200120905090565b61084d3382610a50565b50565b61085b82338361063b565b6108658282610a50565b5050565b60606103d27f00000000000000000000000000000000000000000000000000000000000000006005610a86565b60606103d27f00000000000000000000000000000000000000000000000000000000000000006006610a86565b600061039e6108d0610718565b8360405161190160f01b8152600281019290925260228201526042902090565b60008060008061090288888888610b31565b9250925092506109128282610c00565b50909695505050505050565b6001600160a01b0384166109485760405163e602df0560e01b81526000600482015260240161050a565b6001600160a01b03831661097257604051634a1406b160e11b81526000600482015260240161050a565b6001600160a01b03808516600090815260016020908152604080832093871683529290522082905580156106b357826001600160a01b0316846001600160a01b03167f8c5be1e5ebec7d5bd14f71427d1e84f3dd0314c0f7b2291e5b200ac8c7c3b925846040516109e591815260200190565b60405180910390a350505050565b6109fe838383610cb9565b816001600160a01b0316836001600160a01b03167fb5fd41d87d60aa758b7a3c421993bd379f0df87361be9e07ae8831448ee5ad9483604051610a4391815260200190565b60405180910390a3505050565b6001600160a01b038216610a7a57604051634b637e8f60e11b81526000600482015260240161050a565b610865826000836109f3565b606060ff8314610aa057610a9983610dd6565b905061039e565b818054610aac90611092565b80601f0160208091040260200160405190810160405280929190818152602001828054610ad890611092565b8015610b255780601f10610afa57610100808354040283529160200191610b25565b820191906000526020600020905b815481529060010190602001808311610b0857829003601f168201915b5050505050905061039e565b600080807f7fffffffffffffffffffffffffffffff5d576e7357a4501ddfe92f46681b20a0841115610b6c5750600091506003905082610bf6565b604080516000808252602082018084528a905260ff891692820192909252606081018790526080810186905260019060a0016020604051602081039080840390855afa158015610bc0573d6000803e3d6000fd5b5050604051601f1901519150506001600160a01b038116610bec57506000925060019150829050610bf6565b9250600091508190505b9450945094915050565b6000826003811115610c1457610c146110cc565b03610c1d575050565b6001826003811115610c3157610c316110cc565b03610c4f5760405163f645eedf60e01b815260040160405180910390fd5b6002826003811115610c6357610c636110cc565b03610c845760405163fce698f760e01b81526004810182905260240161050a565b6003826003811115610c9857610c986110cc565b03610865576040516335e2f38360e21b81526004810182905260240161050a565b6001600160a01b038316610ce4578060026000828254610cd991906110e2565b90915550610d569050565b6001600160a01b03831660009081526020819052604090205481811015610d375760405163391434e360e21b81526001600160a01b0385166004820152602481018290526044810183905260640161050a565b6001600160a01b03841660009081526020819052604090209082900390555b6001600160a01b038216610d7257600280548290039055610d91565b6001600160a01b03821660009081526020819052604090208054820190555b816001600160a01b0316836001600160a01b03167fddf252ad1be2c89b69c2b068fc378daa952ba7f163c4a11628f55a4df523b3ef83604051610a4391815260200190565b60606000610de383610e15565b604080516020808252818301909252919250600091906020820181803683375050509182525060208101929092525090565b600060ff8216601f81111561039e57604051632cd44ac360e21b815260040160405180910390fd5b6000815180845260005b81811015610e6357602081850181015186830182015201610e47565b506000602082860101526020601f19601f83011685010191505092915050565b602081526000610e966020830184610e3d565b9392505050565b80356001600160a01b0381168114610eb457600080fd5b919050565b60008060408385031215610ecc57600080fd5b610ed583610e9d565b946020939093013593505050565b600080600060608486031215610ef857600080fd5b610f0184610e9d565b9250610f0f60208501610e9d565b929592945050506040919091013590565b600060208284031215610f3257600080fd5b5035919050565b600060208284031215610f4b57600080fd5b610e9682610e9d565b60ff60f81b8816815260e060208201526000610f7360e0830189610e3d565b8281036040840152610f858189610e3d565b606084018890526001600160a01b038716608085015260a0840186905283810360c08501528451808252602080870193509091019060005b81811015610fdb578351835260209384019390920191600101610fbd565b50909b9a5050505050505050505050565b600080600080600080600060e0888a03121561100757600080fd5b61101088610e9d565b965061101e60208901610e9d565b95506040880135945060608801359350608088013560ff8116811461104257600080fd5b9699959850939692959460a0840135945060c09093013592915050565b6000806040838503121561107257600080fd5b61107b83610e9d565b915061108960208401610e9d565b90509250929050565b600181811c908216806110a657607f821691505b6020821081036110c657634e487b7160e01b600052602260045260246000fd5b50919050565b634e487b7160e01b600052602160045260246000fd5b8082018082111561039e57634e487b7160e01b600052601160045260246000fdfea26469706673582212209966a22137ef03dbd301e0371aa9dbb66a25546fb2c09965abe65c4f893986b264736f6c634300081a0033",
					"opcodes": "PUSH2 0x1A0 PUSH1 0x40 MSTORE CALLVALUE DUP1 ISZERO PUSH2 0x11 JUMPI PUSH1 0x0 DUP1 REVERT JUMPDEST POP PUSH1 0x40 MLOAD PUSH2 0x1855 CODESIZE SUB DUP1 PUSH2 0x1855 DUP4 CODECOPY DUP2 ADD PUSH1 0x40 DUP2 SWAP1 MSTORE PUSH2 0x30 SWAP2 PUSH2 0x48C JUMP JUMPDEST PUSH1 0x40 MLOAD DUP1 PUSH1 0x40 ADD PUSH1 0x40 MSTORE DUP1 PUSH1 0x9 DUP2 MSTORE PUSH1 0x20 ADD PUSH9 0x2830B73537A1B7B4B7 PUSH1 0xB9 SHL DUP2 MSTORE POP DUP1 PUSH1 0x40 MLOAD DUP1 PUSH1 0x40 ADD PUSH1 0x40 MSTORE DUP1 PUSH1 0x1 DUP2 MSTORE PUSH1 0x20 ADD PUSH1 0x31 PUSH1 0xF8 SHL DUP2 MSTORE POP PUSH1 0x40 MLOAD DUP1 PUSH1 0x40 ADD PUSH1 0x40 MSTORE DUP1 PUSH1 0x9 DUP2 MSTORE PUSH1 0x20 ADD PUSH9 0x2830B73537A1B7B4B7 PUSH1 0xB9 SHL DUP2 MSTORE POP PUSH1 0x40 MLOAD DUP1 PUSH1 0x40 ADD PUSH1 0x40 MSTORE DUP1 PUSH1 0x4 DUP2 MSTORE PUSH1 0x20 ADD PUSH4 0x504E4A43 PUSH1 0xE0 SHL DUP2 MSTORE POP DUP2 PUSH1 0x3 SWAP1 DUP2 PUSH2 0xBB SWAP2 SWAP1 PUSH2 0x55B JUMP JUMPDEST POP PUSH1 0x4 PUSH2 0xC8 DUP3 DUP3 PUSH2 0x55B JUMP JUMPDEST POP PUSH2 0xD8 SWAP2 POP DUP4 SWAP1 POP PUSH1 0x5 PUSH2 0x267 JUMP JUMPDEST PUSH2 0x120 MSTORE PUSH2 0xE7 DUP2 PUSH1 0x6 PUSH2 0x267 JUMP JUMPDEST PUSH2 0x140 MSTORE DUP2 MLOAD PUSH1 0x20 DUP1 DUP5 ADD SWAP2 SWAP1 SWAP2 KECCAK256 PUSH1 0xE0 MSTORE DUP2 MLOAD SWAP1 DUP3 ADD KECCAK256 PUSH2 0x100 MSTORE CHAINID PUSH1 0xA0 MSTORE PUSH2 0x174 PUSH1 0xE0 MLOAD PUSH2 0x100 MLOAD PUSH1 0x40 DUP1 MLOAD PUSH32 0x8B73C3C69BB8FE3D512ECC4CF759CC79239F7B179B0FFACAA9A75D522B39400F PUSH1 0x20 DUP3 ADD MSTORE SWAP1 DUP2 ADD SWAP3 SWAP1 SWAP3 MSTORE PUSH1 0x60 DUP3 ADD MSTORE CHAINID PUSH1 0x80 DUP3 ADD MSTORE ADDRESS PUSH1 0xA0 DUP3 ADD MSTORE PUSH1 0x0 SWAP1 PUSH1 0xC0 ADD PUSH1 0x40 MLOAD PUSH1 0x20 DUP2 DUP4 SUB SUB DUP2 MSTORE SWAP1 PUSH1 0x40 MSTORE DUP1 MLOAD SWAP1 PUSH1 0x20 ADD KECCAK256 SWAP1 POP SWAP1 JUMP JUMPDEST PUSH1 0x80 MSTORE POP POP ADDRESS PUSH1 0xC0 MSTORE POP PUSH1 0x1 PUSH1 0x1 PUSH1 0xA0 SHL SUB DUP2 AND PUSH2 0x1E7 JUMPI PUSH1 0x40 MLOAD PUSH3 0x461BCD PUSH1 0xE5 SHL DUP2 MSTORE PUSH1 0x20 PUSH1 0x4 DUP3 ADD MSTORE PUSH1 0x25 PUSH1 0x24 DUP3 ADD MSTORE PUSH32 0x504E4A433A2054726561737572792063616E6E6F74206265207A65726F206164 PUSH1 0x44 DUP3 ADD MSTORE PUSH5 0x6472657373 PUSH1 0xD8 SHL PUSH1 0x64 DUP3 ADD MSTORE PUSH1 0x84 ADD JUMPDEST PUSH1 0x40 MLOAD DUP1 SWAP2 SUB SWAP1 REVERT JUMPDEST PUSH1 0x1 PUSH1 0x1 PUSH1 0xA0 SHL SUB DUP2 AND PUSH2 0x160 MSTORE TIMESTAMP PUSH2 0x180 MSTORE PUSH2 0x211 DUP2 PUSH13 0xC9F2C9CD04674EDEA40000000 PUSH2 0x29A JUMP JUMPDEST PUSH1 0x40 DUP1 MLOAD PUSH13 0xC9F2C9CD04674EDEA40000000 DUP2 MSTORE TIMESTAMP PUSH1 0x20 DUP3 ADD MSTORE PUSH1 0x1 PUSH1 0x1 PUSH1 0xA0 SHL SUB DUP4 AND SWAP2 PUSH32 0x9656FA3EE9769C0D6DE8AE1F79CCA49EE9CB74A9C3DB804CB9544B4E5B63A4F0 SWAP2 ADD PUSH1 0x40 MLOAD DUP1 SWAP2 SUB SWAP1 LOG2 POP PUSH2 0x6AC JUMP JUMPDEST PUSH1 0x0 PUSH1 0x20 DUP4 MLOAD LT ISZERO PUSH2 0x283 JUMPI PUSH2 0x27C DUP4 PUSH2 0x2D4 JUMP JUMPDEST SWAP1 POP PUSH2 0x294 JUMP JUMPDEST DUP2 PUSH2 0x28E DUP5 DUP3 PUSH2 0x55B JUMP JUMPDEST POP PUSH1 0xFF SWAP1 POP JUMPDEST SWAP3 SWAP2 POP POP JUMP JUMPDEST PUSH1 0x1 PUSH1 0x1 PUSH1 0xA0 SHL SUB DUP3 AND PUSH2 0x2C4 JUMPI PUSH1 0x40 MLOAD PUSH4 0xEC442F05 PUSH1 0xE0 SHL DUP2 MSTORE PUSH1 0x0 PUSH1 0x4 DUP3 ADD MSTORE PUSH1 0x24 ADD PUSH2 0x1DE JUMP JUMPDEST PUSH2 0x2D0 PUSH1 0x0 DUP4 DUP4 PUSH2 0x312 JUMP JUMPDEST POP POP JUMP JUMPDEST PUSH1 0x0 DUP1 DUP3 SWAP1 POP PUSH1 0x1F DUP2 MLOAD GT ISZERO PUSH2 0x2FF JUMPI DUP3 PUSH1 0x40 MLOAD PUSH4 0x305A27A9 PUSH1 0xE0 SHL DUP2 MSTORE PUSH1 0x4 ADD PUSH2 0x1DE SWAP2 SWAP1 PUSH2 0x619 JUMP JUMPDEST DUP1 MLOAD PUSH2 0x30A DUP3 PUSH2 0x667 JUMP JUMPDEST OR SWAP4 SWAP3 POP POP POP JUMP JUMPDEST PUSH2 0x31D DUP4 DUP4 DUP4 PUSH2 0x36F JUMP JUMPDEST DUP2 PUSH1 0x1 PUSH1 0x1 PUSH1 0xA0 SHL SUB AND DUP4 PUSH1 0x1 PUSH1 0x1 PUSH1 0xA0 SHL SUB AND PUSH32 0xB5FD41D87D60AA758B7A3C421993BD379F0DF87361BE9E07AE8831448EE5AD94 DUP4 PUSH1 0x40 MLOAD PUSH2 0x362 SWAP2 DUP2 MSTORE PUSH1 0x20 ADD SWAP1 JUMP JUMPDEST PUSH1 0x40 MLOAD DUP1 SWAP2 SUB SWAP1 LOG3 POP POP POP JUMP JUMPDEST PUSH1 0x1 PUSH1 0x1 PUSH1 0xA0 SHL SUB DUP4 AND PUSH2 0x39A JUMPI DUP1 PUSH1 0x2 PUSH1 0x0 DUP3 DUP3 SLOAD PUSH2 0x38F SWAP2 SWAP1 PUSH2 0x68B JUMP JUMPDEST SWAP1 SWAP2 SSTORE POP PUSH2 0x40C SWAP1 POP JUMP JUMPDEST PUSH1 0x1 PUSH1 0x1 PUSH1 0xA0 SHL SUB DUP4 AND PUSH1 0x0 SWAP1 DUP2 MSTORE PUSH1 0x20 DUP2 SWAP1 MSTORE PUSH1 0x40 SWAP1 KECCAK256 SLOAD DUP2 DUP2 LT ISZERO PUSH2 0x3ED JUMPI PUSH1 0x40 MLOAD PUSH4 0x391434E3 PUSH1 0xE2 SHL DUP2 MSTORE PUSH1 0x1 PUSH1 0x1 PUSH1 0xA0 SHL SUB DUP6 AND PUSH1 0x4 DUP3 ADD MSTORE PUSH1 0x24 DUP2 ADD DUP3 SWAP1 MSTORE PUSH1 0x44 DUP2 ADD DUP4 SWAP1 MSTORE PUSH1 0x64 ADD PUSH2 0x1DE JUMP JUMPDEST PUSH1 0x1 PUSH1 0x1 PUSH1 0xA0 SHL SUB DUP5 AND PUSH1 0x0 SWAP1 DUP2 MSTORE PUSH1 0x20 DUP2 SWAP1 MSTORE PUSH1 0x40 SWAP1 KECCAK256 SWAP1 DUP3 SWAP1 SUB SWAP1 SSTORE JUMPDEST PUSH1 0x1 PUSH1 0x1 PUSH1 0xA0 SHL SUB DUP3 AND PUSH2 0x428 JUMPI PUSH1 0x2 DUP1 SLOAD DUP3 SWAP1 SUB SWAP1 SSTORE PUSH2 0x447 JUMP JUMPDEST PUSH1 0x1 PUSH1 0x1 PUSH1 0xA0 SHL SUB DUP3 AND PUSH1 0x0 SWAP1 DUP2 MSTORE PUSH1 0x20 DUP2 SWAP1 MSTORE PUSH1 0x40 SWAP1 KECCAK256 DUP1 SLOAD DUP3 ADD SWAP1 SSTORE JUMPDEST DUP2 PUSH1 0x1 PUSH1 0x1 PUSH1 0xA0 SHL SUB AND DUP4 PUSH1 0x1 PUSH1 0x1 PUSH1 0xA0 SHL SUB AND PUSH32 0xDDF252AD1BE2C89B69C2B068FC378DAA952BA7F163C4A11628F55A4DF523B3EF DUP4 PUSH1 0x40 MLOAD PUSH2 0x362 SWAP2 DUP2 MSTORE PUSH1 0x20 ADD SWAP1 JUMP JUMPDEST PUSH1 0x0 PUSH1 0x20 DUP3 DUP5 SUB SLT ISZERO PUSH2 0x49E JUMPI PUSH1 0x0 DUP1 REVERT JUMPDEST DUP2 MLOAD PUSH1 0x1 PUSH1 0x1 PUSH1 0xA0 SHL SUB DUP2 AND DUP2 EQ PUSH2 0x4B5 JUMPI PUSH1 0x0 DUP1 REVERT JUMPDEST SWAP4 SWAP3 POP POP POP JUMP JUMPDEST PUSH4 0x4E487B71 PUSH1 0xE0 SHL PUSH1 0x0 MSTORE PUSH1 0x41 PUSH1 0x4 MSTORE PUSH1 0x24 PUSH1 0x0 REVERT JUMPDEST PUSH1 0x1 DUP2 DUP2 SHR SWAP1 DUP3 AND DUP1 PUSH2 0x4E6 JUMPI PUSH1 0x7F DUP3 AND SWAP2 POP JUMPDEST PUSH1 0x20 DUP3 LT DUP2 SUB PUSH2 0x506 JUMPI PUSH4 0x4E487B71 PUSH1 0xE0 SHL PUSH1 0x0 MSTORE PUSH1 0x22 PUSH1 0x4 MSTORE PUSH1 0x24 PUSH1 0x0 REVERT JUMPDEST POP SWAP2 SWAP1 POP JUMP JUMPDEST PUSH1 0x1F DUP3 GT ISZERO PUSH2 0x556 JUMPI DUP1 PUSH1 0x0 MSTORE PUSH1 0x20 PUSH1 0x0 KECCAK256 PUSH1 0x1F DUP5 ADD PUSH1 0x5 SHR DUP2 ADD PUSH1 0x20 DUP6 LT ISZERO PUSH2 0x533 JUMPI POP DUP1 JUMPDEST PUSH1 0x1F DUP5 ADD PUSH1 0x5 SHR DUP3 ADD SWAP2 POP JUMPDEST DUP2 DUP2 LT ISZERO PUSH2 0x553 JUMPI PUSH1 0x0 DUP2 SSTORE PUSH1 0x1 ADD PUSH2 0x53F JUMP JUMPDEST POP POP JUMPDEST POP POP POP JUMP JUMPDEST DUP2 MLOAD PUSH1 0x1 PUSH1 0x1 PUSH1 0x40 SHL SUB DUP2 GT ISZERO PUSH2 0x574 JUMPI PUSH2 0x574 PUSH2 0x4BC JUMP JUMPDEST PUSH2 0x588 DUP2 PUSH2 0x582 DUP5 SLOAD PUSH2 0x4D2 JUMP JUMPDEST DUP5 PUSH2 0x50C JUMP JUMPDEST PUSH1 0x20 PUSH1 0x1F DUP3 GT PUSH1 0x1 DUP2 EQ PUSH2 0x5BC JUMPI PUSH1 0x0 DUP4 ISZERO PUSH2 0x5A4 JUMPI POP DUP5 DUP3 ADD MLOAD JUMPDEST PUSH1 0x0 NOT PUSH1 0x3 DUP6 SWAP1 SHL SHR NOT AND PUSH1 0x1 DUP5 SWAP1 SHL OR DUP5 SSTORE PUSH2 0x553 JUMP JUMPDEST PUSH1 0x0 DUP5 DUP2 MSTORE PUSH1 0x20 DUP2 KECCAK256 PUSH1 0x1F NOT DUP6 AND SWAP2 JUMPDEST DUP3 DUP2 LT ISZERO PUSH2 0x5EC JUMPI DUP8 DUP6 ADD MLOAD DUP3 SSTORE PUSH1 0x20 SWAP5 DUP6 ADD SWAP5 PUSH1 0x1 SWAP1 SWAP3 ADD SWAP2 ADD PUSH2 0x5CC JUMP JUMPDEST POP DUP5 DUP3 LT ISZERO PUSH2 0x60A JUMPI DUP7 DUP5 ADD MLOAD PUSH1 0x0 NOT PUSH1 0x3 DUP8 SWAP1 SHL PUSH1 0xF8 AND SHR NOT AND DUP2 SSTORE JUMPDEST POP POP POP POP PUSH1 0x1 SWAP1 DUP2 SHL ADD SWAP1 SSTORE POP JUMP JUMPDEST PUSH1 0x20 DUP2 MSTORE PUSH1 0x0 DUP3 MLOAD DUP1 PUSH1 0x20 DUP5 ADD MSTORE PUSH1 0x0 JUMPDEST DUP2 DUP2 LT ISZERO PUSH2 0x647 JUMPI PUSH1 0x20 DUP2 DUP7 ADD DUP2 ADD MLOAD PUSH1 0x40 DUP7 DUP5 ADD ADD MSTORE ADD PUSH2 0x62A JUMP JUMPDEST POP PUSH1 0x0 PUSH1 0x40 DUP3 DUP6 ADD ADD MSTORE PUSH1 0x40 PUSH1 0x1F NOT PUSH1 0x1F DUP4 ADD AND DUP5 ADD ADD SWAP2 POP POP SWAP3 SWAP2 POP POP JUMP JUMPDEST DUP1 MLOAD PUSH1 0x20 DUP1 DUP4 ADD MLOAD SWAP2 SWAP1 DUP2 LT ISZERO PUSH2 0x506 JUMPI PUSH1 0x0 NOT PUSH1 0x20 SWAP2 SWAP1 SWAP2 SUB PUSH1 0x3 SHL SHL AND SWAP2 SWAP1 POP JUMP JUMPDEST DUP1 DUP3 ADD DUP1 DUP3 GT ISZERO PUSH2 0x294 JUMPI PUSH4 0x4E487B71 PUSH1 0xE0 SHL PUSH1 0x0 MSTORE PUSH1 0x11 PUSH1 0x4 MSTORE PUSH1 0x24 PUSH1 0x0 REVERT JUMPDEST PUSH1 0x80 MLOAD PUSH1 0xA0 MLOAD PUSH1 0xC0 MLOAD PUSH1 0xE0 MLOAD PUSH2 0x100 MLOAD PUSH2 0x120 MLOAD PUSH2 0x140 MLOAD PUSH2 0x160 MLOAD PUSH2 0x180 MLOAD PUSH2 0x1139 PUSH2 0x71C PUSH1 0x0 CODECOPY PUSH1 0x0 PUSH2 0x2D6 ADD MSTORE PUSH1 0x0 PUSH2 0x1C6 ADD MSTORE PUSH1 0x0 PUSH2 0x89D ADD MSTORE PUSH1 0x0 PUSH2 0x870 ADD MSTORE PUSH1 0x0 PUSH2 0x7F2 ADD MSTORE PUSH1 0x0 PUSH2 0x7CA ADD MSTORE PUSH1 0x0 PUSH2 0x725 ADD MSTORE PUSH1 0x0 PUSH2 0x74F ADD MSTORE PUSH1 0x0 PUSH2 0x779 ADD MSTORE PUSH2 0x1139 PUSH1 0x0 RETURN INVALID PUSH1 0x80 PUSH1 0x40 MSTORE CALLVALUE DUP1 ISZERO PUSH2 0x10 JUMPI PUSH1 0x0 DUP1 REVERT JUMPDEST POP PUSH1 0x4 CALLDATASIZE LT PUSH2 0x116 JUMPI PUSH1 0x0 CALLDATALOAD PUSH1 0xE0 SHR DUP1 PUSH4 0x70A08231 GT PUSH2 0xA2 JUMPI DUP1 PUSH4 0x95D89B41 GT PUSH2 0x71 JUMPI DUP1 PUSH4 0x95D89B41 EQ PUSH2 0x26A JUMPI DUP1 PUSH4 0xA9059CBB EQ PUSH2 0x272 JUMPI DUP1 PUSH4 0xD505ACCF EQ PUSH2 0x285 JUMPI DUP1 PUSH4 0xDD62ED3E EQ PUSH2 0x298 JUMPI DUP1 PUSH4 0xECDA10F5 EQ PUSH2 0x2D1 JUMPI PUSH1 0x0 DUP1 REVERT JUMPDEST DUP1 PUSH4 0x70A08231 EQ PUSH2 0x200 JUMPI DUP1 PUSH4 0x79CC6790 EQ PUSH2 0x229 JUMPI DUP1 PUSH4 0x7ECEBE00 EQ PUSH2 0x23C JUMPI DUP1 PUSH4 0x84B0196E EQ PUSH2 0x24F JUMPI PUSH1 0x0 DUP1 REVERT JUMPDEST DUP1 PUSH4 0x313CE567 GT PUSH2 0xE9 JUMPI DUP1 PUSH4 0x313CE567 EQ PUSH2 0x181 JUMPI DUP1 PUSH4 0x32CB6B0C EQ PUSH2 0x190 JUMPI DUP1 PUSH4 0x3644E515 EQ PUSH2 0x1A4 JUMPI DUP1 PUSH4 0x42966C68 EQ PUSH2 0x1AC JUMPI DUP1 PUSH4 0x61D027B3 EQ PUSH2 0x1C1 JUMPI PUSH1 0x0 DUP1 REVERT JUMPDEST DUP1 PUSH4 0x6FDDE03 EQ PUSH2 0x11B JUMPI DUP1 PUSH4 0x95EA7B3 EQ PUSH2 0x139 JUMPI DUP1 PUSH4 0x18160DDD EQ PUSH2 0x15C JUMPI DUP1 PUSH4 0x23B872DD EQ PUSH2 0x16E JUMPI JUMPDEST PUSH1 0x0 DUP1 REVERT JUMPDEST PUSH2 0x123 PUSH2 0x2F8 JUMP JUMPDEST PUSH1 0x40 MLOAD PUSH2 0x130 SWAP2 SWAP1 PUSH2 0xE83 JUMP JUMPDEST PUSH1 0x40 MLOAD DUP1 SWAP2 SUB SWAP1 RETURN JUMPDEST PUSH2 0x14C PUSH2 0x147 CALLDATASIZE PUSH1 0x4 PUSH2 0xEB9 JUMP JUMPDEST PUSH2 0x38A JUMP JUMPDEST PUSH1 0x40 MLOAD SWAP1 ISZERO ISZERO DUP2 MSTORE PUSH1 0x20 ADD PUSH2 0x130 JUMP JUMPDEST PUSH1 0x2 SLOAD JUMPDEST PUSH1 0x40 MLOAD SWAP1 DUP2 MSTORE PUSH1 0x20 ADD PUSH2 0x130 JUMP JUMPDEST PUSH2 0x14C PUSH2 0x17C CALLDATASIZE PUSH1 0x4 PUSH2 0xEE3 JUMP JUMPDEST PUSH2 0x3A4 JUMP JUMPDEST PUSH1 0x40 MLOAD PUSH1 0x12 DUP2 MSTORE PUSH1 0x20 ADD PUSH2 0x130 JUMP JUMPDEST PUSH2 0x160 PUSH13 0xC9F2C9CD04674EDEA40000000 DUP2 JUMP JUMPDEST PUSH2 0x160 PUSH2 0x3C8 JUMP JUMPDEST PUSH2 0x1BF PUSH2 0x1BA CALLDATASIZE PUSH1 0x4 PUSH2 0xF20 JUMP JUMPDEST PUSH2 0x3D7 JUMP JUMPDEST STOP JUMPDEST PUSH2 0x1E8 PUSH32 0x0 DUP2 JUMP JUMPDEST PUSH1 0x40 MLOAD PUSH1 0x1 PUSH1 0x1 PUSH1 0xA0 SHL SUB SWAP1 SWAP2 AND DUP2 MSTORE PUSH1 0x20 ADD PUSH2 0x130 JUMP JUMPDEST PUSH2 0x160 PUSH2 0x20E CALLDATASIZE PUSH1 0x4 PUSH2 0xF39 JUMP JUMPDEST PUSH1 0x1 PUSH1 0x1 PUSH1 0xA0 SHL SUB AND PUSH1 0x0 SWAP1 DUP2 MSTORE PUSH1 0x20 DUP2 SWAP1 MSTORE PUSH1 0x40 SWAP1 KECCAK256 SLOAD SWAP1 JUMP JUMPDEST PUSH2 0x1BF PUSH2 0x237 CALLDATASIZE PUSH1 0x4 PUSH2 0xEB9 JUMP JUMPDEST PUSH2 0x418 JUMP JUMPDEST PUSH2 0x160 PUSH2 0x24A CALLDATASIZE PUSH1 0x4 PUSH2 0xF39 JUMP JUMPDEST PUSH2 0x469 JUMP JUMPDEST PUSH2 0x257 PUSH2 0x487 JUMP JUMPDEST PUSH1 0x40 MLOAD PUSH2 0x130 SWAP8 SWAP7 SWAP6 SWAP5 SWAP4 SWAP3 SWAP2 SWAP1 PUSH2 0xF54 JUMP JUMPDEST PUSH2 0x123 PUSH2 0x4CD JUMP JUMPDEST PUSH2 0x14C PUSH2 0x280 CALLDATASIZE PUSH1 0x4 PUSH2 0xEB9 JUMP JUMPDEST PUSH2 0x4DC JUMP JUMPDEST PUSH2 0x1BF PUSH2 0x293 CALLDATASIZE PUSH1 0x4 PUSH2 0xFEC JUMP JUMPDEST PUSH2 0x4EA JUMP JUMPDEST PUSH2 0x160 PUSH2 0x2A6 CALLDATASIZE PUSH1 0x4 PUSH2 0x105F JUMP JUMPDEST PUSH1 0x1 PUSH1 0x1 PUSH1 0xA0 SHL SUB SWAP2 DUP3 AND PUSH1 0x0 SWAP1 DUP2 MSTORE PUSH1 0x1 PUSH1 0x20 SWAP1 DUP2 MSTORE PUSH1 0x40 DUP1 DUP4 KECCAK256 SWAP4 SWAP1 SWAP5 AND DUP3 MSTORE SWAP2 SWAP1 SWAP2 MSTORE KECCAK256 SLOAD SWAP1 JUMP JUMPDEST PUSH2 0x160 PUSH32 0x0 DUP2 JUMP JUMPDEST PUSH1 0x60 PUSH1 0x3 DUP1 SLOAD PUSH2 0x307 SWAP1 PUSH2 0x1092 JUMP JUMPDEST DUP1 PUSH1 0x1F ADD PUSH1 0x20 DUP1 SWAP2 DIV MUL PUSH1 0x20 ADD PUSH1 0x40 MLOAD SWAP1 DUP2 ADD PUSH1 0x40 MSTORE DUP1 SWAP3 SWAP2 SWAP1 DUP2 DUP2 MSTORE PUSH1 0x20 ADD DUP3 DUP1 SLOAD PUSH2 0x333 SWAP1 PUSH2 0x1092 JUMP JUMPDEST DUP1 ISZERO PUSH2 0x380 JUMPI DUP1 PUSH1 0x1F LT PUSH2 0x355 JUMPI PUSH2 0x100 DUP1 DUP4 SLOAD DIV MUL DUP4 MSTORE SWAP2 PUSH1 0x20 ADD SWAP2 PUSH2 0x380 JUMP JUMPDEST DUP3 ADD SWAP2 SWAP1 PUSH1 0x0 MSTORE PUSH1 0x20 PUSH1 0x0 KECCAK256 SWAP1 JUMPDEST DUP2 SLOAD DUP2 MSTORE SWAP1 PUSH1 0x1 ADD SWAP1 PUSH1 0x20 ADD DUP1 DUP4 GT PUSH2 0x363 JUMPI DUP3 SWAP1 SUB PUSH1 0x1F AND DUP3 ADD SWAP2 JUMPDEST POP POP POP POP POP SWAP1 POP SWAP1 JUMP JUMPDEST PUSH1 0x0 CALLER PUSH2 0x398 DUP2 DUP6 DUP6 PUSH2 0x629 JUMP JUMPDEST PUSH1 0x1 SWAP2 POP POP JUMPDEST SWAP3 SWAP2 POP POP JUMP JUMPDEST PUSH1 0x0 CALLER PUSH2 0x3B2 DUP6 DUP3 DUP6 PUSH2 0x63B JUMP JUMPDEST PUSH2 0x3BD DUP6 DUP6 DUP6 PUSH2 0x6B9 JUMP JUMPDEST POP PUSH1 0x1 SWAP5 SWAP4 POP POP POP POP JUMP JUMPDEST PUSH1 0x0 PUSH2 0x3D2 PUSH2 0x718 JUMP JUMPDEST SWAP1 POP SWAP1 JUMP JUMPDEST PUSH2 0x3E0 DUP2 PUSH2 0x843 JUMP JUMPDEST PUSH1 0x40 MLOAD DUP2 DUP2 MSTORE CALLER SWAP1 PUSH32 0x1517606112412134E3CFF92ED78F89076AB08C0DEABE1BCDC573593A2DC98864 SWAP1 PUSH1 0x20 ADD PUSH1 0x40 MLOAD DUP1 SWAP2 SUB SWAP1 LOG2 POP JUMP JUMPDEST PUSH2 0x422 DUP3 DUP3 PUSH2 0x850 JUMP JUMPDEST DUP2 PUSH1 0x1 PUSH1 0x1 PUSH1 0xA0 SHL SUB AND PUSH32 0x1517606112412134E3CFF92ED78F89076AB08C0DEABE1BCDC573593A2DC98864 DUP3 PUSH1 0x40 MLOAD PUSH2 0x45D SWAP2 DUP2 MSTORE PUSH1 0x20 ADD SWAP1 JUMP JUMPDEST PUSH1 0x40 MLOAD DUP1 SWAP2 SUB SWAP1 LOG2 POP POP JUMP JUMPDEST PUSH1 0x1 PUSH1 0x1 PUSH1 0xA0 SHL SUB DUP2 AND PUSH1 0x0 SWAP1 DUP2 MSTORE PUSH1 0x7 PUSH1 0x20 MSTORE PUSH1 0x40 DUP2 KECCAK256 SLOAD PUSH2 0x39E JUMP JUMPDEST PUSH1 0x0 PUSH1 0x60 DUP1 PUSH1 0x0 DUP1 PUSH1 0x0 PUSH1 0x60 PUSH2 0x49B PUSH2 0x869 JUMP JUMPDEST PUSH2 0x4A3 PUSH2 0x896 JUMP JUMPDEST PUSH1 0x40 DUP1 MLOAD PUSH1 0x0 DUP1 DUP3 MSTORE PUSH1 0x20 DUP3 ADD SWAP1 SWAP3 MSTORE PUSH1 0xF PUSH1 0xF8 SHL SWAP12 SWAP4 SWAP11 POP SWAP2 SWAP9 POP CHAINID SWAP8 POP ADDRESS SWAP7 POP SWAP5 POP SWAP3 POP SWAP1 POP JUMP JUMPDEST PUSH1 0x60 PUSH1 0x4 DUP1 SLOAD PUSH2 0x307 SWAP1 PUSH2 0x1092 JUMP JUMPDEST PUSH1 0x0 CALLER PUSH2 0x398 DUP2 DUP6 DUP6 PUSH2 0x6B9 JUMP JUMPDEST DUP4 TIMESTAMP GT ISZERO PUSH2 0x513 JUMPI PUSH1 0x40 MLOAD PUSH4 0x313C8981 PUSH1 0xE1 SHL DUP2 MSTORE PUSH1 0x4 DUP2 ADD DUP6 SWAP1 MSTORE PUSH1 0x24 ADD JUMPDEST PUSH1 0x40 MLOAD DUP1 SWAP2 SUB SWAP1 REVERT JUMPDEST PUSH1 0x0 PUSH32 0x6E71EDAE12B1B97F4D1F60370FEF10105FA2FAAE0126114A169C64845D6126C9 DUP9 DUP9 DUP9 PUSH2 0x560 DUP13 PUSH1 0x1 PUSH1 0x1 PUSH1 0xA0 SHL SUB AND PUSH1 0x0 SWAP1 DUP2 MSTORE PUSH1 0x7 PUSH1 0x20 MSTORE PUSH1 0x40 SWAP1 KECCAK256 DUP1 SLOAD PUSH1 0x1 DUP2 ADD SWAP1 SWAP2 SSTORE SWAP1 JUMP JUMPDEST PUSH1 0x40 DUP1 MLOAD PUSH1 0x20 DUP2 ADD SWAP7 SWAP1 SWAP7 MSTORE PUSH1 0x1 PUSH1 0x1 PUSH1 0xA0 SHL SUB SWAP5 DUP6 AND SWAP1 DUP7 ADD MSTORE SWAP3 SWAP1 SWAP2 AND PUSH1 0x60 DUP5 ADD MSTORE PUSH1 0x80 DUP4 ADD MSTORE PUSH1 0xA0 DUP3 ADD MSTORE PUSH1 0xC0 DUP2 ADD DUP7 SWAP1 MSTORE PUSH1 0xE0 ADD PUSH1 0x40 MLOAD PUSH1 0x20 DUP2 DUP4 SUB SUB DUP2 MSTORE SWAP1 PUSH1 0x40 MSTORE DUP1 MLOAD SWAP1 PUSH1 0x20 ADD KECCAK256 SWAP1 POP PUSH1 0x0 PUSH2 0x5BB DUP3 PUSH2 0x8C3 JUMP JUMPDEST SWAP1 POP PUSH1 0x0 PUSH2 0x5CB DUP3 DUP8 DUP8 DUP8 PUSH2 0x8F0 JUMP JUMPDEST SWAP1 POP DUP10 PUSH1 0x1 PUSH1 0x1 PUSH1 0xA0 SHL SUB AND DUP2 PUSH1 0x1 PUSH1 0x1 PUSH1 0xA0 SHL SUB AND EQ PUSH2 0x612 JUMPI PUSH1 0x40 MLOAD PUSH4 0x25C00723 PUSH1 0xE1 SHL DUP2 MSTORE PUSH1 0x1 PUSH1 0x1 PUSH1 0xA0 SHL SUB DUP1 DUP4 AND PUSH1 0x4 DUP4 ADD MSTORE DUP12 AND PUSH1 0x24 DUP3 ADD MSTORE PUSH1 0x44 ADD PUSH2 0x50A JUMP JUMPDEST PUSH2 0x61D DUP11 DUP11 DUP11 PUSH2 0x629 JUMP JUMPDEST POP POP POP POP POP POP POP POP POP POP JUMP JUMPDEST PUSH2 0x636 DUP4 DUP4 DUP4 PUSH1 0x1 PUSH2 0x91E JUMP JUMPDEST POP POP POP JUMP JUMPDEST PUSH1 0x1 PUSH1 0x1 PUSH1 0xA0 SHL SUB DUP4 DUP2 AND PUSH1 0x0 SWAP1 DUP2 MSTORE PUSH1 0x1 PUSH1 0x20 SWAP1 DUP2 MSTORE PUSH1 0x40 DUP1 DUP4 KECCAK256 SWAP4 DUP7 AND DUP4 MSTORE SWAP3 SWAP1 MSTORE KECCAK256 SLOAD PUSH1 0x0 NOT DUP2 EQ PUSH2 0x6B3 JUMPI DUP2 DUP2 LT ISZERO PUSH2 0x6A4 JUMPI PUSH1 0x40 MLOAD PUSH4 0x7DC7A0D9 PUSH1 0xE1 SHL DUP2 MSTORE PUSH1 0x1 PUSH1 0x1 PUSH1 0xA0 SHL SUB DUP5 AND PUSH1 0x4 DUP3 ADD MSTORE PUSH1 0x24 DUP2 ADD DUP3 SWAP1 MSTORE PUSH1 0x44 DUP2 ADD DUP4 SWAP1 MSTORE PUSH1 0x64 ADD PUSH2 0x50A JUMP JUMPDEST PUSH2 0x6B3 DUP5 DUP5 DUP5 DUP5 SUB PUSH1 0x0 PUSH2 0x91E JUMP JUMPDEST POP POP POP POP JUMP JUMPDEST PUSH1 0x1 PUSH1 0x1 PUSH1 0xA0 SHL SUB DUP4 AND PUSH2 0x6E3 JUMPI PUSH1 0x40 MLOAD PUSH4 0x4B637E8F PUSH1 0xE1 SHL DUP2 MSTORE PUSH1 0x0 PUSH1 0x4 DUP3 ADD MSTORE PUSH1 0x24 ADD PUSH2 0x50A JUMP JUMPDEST PUSH1 0x1 PUSH1 0x1 PUSH1 0xA0 SHL SUB DUP3 AND PUSH2 0x70D JUMPI PUSH1 0x40 MLOAD PUSH4 0xEC442F05 PUSH1 0xE0 SHL DUP2 MSTORE PUSH1 0x0 PUSH1 0x4 DUP3 ADD MSTORE PUSH1 0x24 ADD PUSH2 0x50A JUMP JUMPDEST PUSH2 0x636 DUP4 DUP4 DUP4 PUSH2 0x9F3 JUMP JUMPDEST PUSH1 0x0 ADDRESS PUSH1 0x1 PUSH1 0x1 PUSH1 0xA0 SHL SUB PUSH32 0x0 AND EQ DUP1 ISZERO PUSH2 0x771 JUMPI POP PUSH32 0x0 CHAINID EQ JUMPDEST ISZERO PUSH2 0x79B JUMPI POP PUSH32 0x0 SWAP1 JUMP JUMPDEST PUSH2 0x3D2 PUSH1 0x40 DUP1 MLOAD PUSH32 0x8B73C3C69BB8FE3D512ECC4CF759CC79239F7B179B0FFACAA9A75D522B39400F PUSH1 0x20 DUP3 ADD MSTORE PUSH32 0x0 SWAP2 DUP2 ADD SWAP2 SWAP1 SWAP2 MSTORE PUSH32 0x0 PUSH1 0x60 DUP3 ADD MSTORE CHAINID PUSH1 0x80 DUP3 ADD MSTORE ADDRESS PUSH1 0xA0 DUP3 ADD MSTORE PUSH1 0x0 SWAP1 PUSH1 0xC0 ADD PUSH1 0x40 MLOAD PUSH1 0x20 DUP2 DUP4 SUB SUB DUP2 MSTORE SWAP1 PUSH1 0x40 MSTORE DUP1 MLOAD SWAP1 PUSH1 0x20 ADD KECCAK256 SWAP1 POP SWAP1 JUMP JUMPDEST PUSH2 0x84D CALLER DUP3 PUSH2 0xA50 JUMP JUMPDEST POP JUMP JUMPDEST PUSH2 0x85B DUP3 CALLER DUP4 PUSH2 0x63B JUMP JUMPDEST PUSH2 0x865 DUP3 DUP3 PUSH2 0xA50 JUMP JUMPDEST POP POP JUMP JUMPDEST PUSH1 0x60 PUSH2 0x3D2 PUSH32 0x0 PUSH1 0x5 PUSH2 0xA86 JUMP JUMPDEST PUSH1 0x60 PUSH2 0x3D2 PUSH32 0x0 PUSH1 0x6 PUSH2 0xA86 JUMP JUMPDEST PUSH1 0x0 PUSH2 0x39E PUSH2 0x8D0 PUSH2 0x718 JUMP JUMPDEST DUP4 PUSH1 0x40 MLOAD PUSH2 0x1901 PUSH1 0xF0 SHL DUP2 MSTORE PUSH1 0x2 DUP2 ADD SWAP3 SWAP1 SWAP3 MSTORE PUSH1 0x22 DUP3 ADD MSTORE PUSH1 0x42 SWAP1 KECCAK256 SWAP1 JUMP JUMPDEST PUSH1 0x0 DUP1 PUSH1 0x0 DUP1 PUSH2 0x902 DUP9 DUP9 DUP9 DUP9 PUSH2 0xB31 JUMP JUMPDEST SWAP3 POP SWAP3 POP SWAP3 POP PUSH2 0x912 DUP3 DUP3 PUSH2 0xC00 JUMP JUMPDEST POP SWAP1 SWAP7 SWAP6 POP POP POP POP POP POP JUMP JUMPDEST PUSH1 0x1 PUSH1 0x1 PUSH1 0xA0 SHL SUB DUP5 AND PUSH2 0x948 JUMPI PUSH1 0x40 MLOAD PUSH4 0xE602DF05 PUSH1 0xE0 SHL DUP2 MSTORE PUSH1 0x0 PUSH1 0x4 DUP3 ADD MSTORE PUSH1 0x24 ADD PUSH2 0x50A JUMP JUMPDEST PUSH1 0x1 PUSH1 0x1 PUSH1 0xA0 SHL SUB DUP4 AND PUSH2 0x972 JUMPI PUSH1 0x40 MLOAD PUSH4 0x4A1406B1 PUSH1 0xE1 SHL DUP2 MSTORE PUSH1 0x0 PUSH1 0x4 DUP3 ADD MSTORE PUSH1 0x24 ADD PUSH2 0x50A JUMP JUMPDEST PUSH1 0x1 PUSH1 0x1 PUSH1 0xA0 SHL SUB DUP1 DUP6 AND PUSH1 0x0 SWAP1 DUP2 MSTORE PUSH1 0x1 PUSH1 0x20 SWAP1 DUP2 MSTORE PUSH1 0x40 DUP1 DUP4 KECCAK256 SWAP4 DUP8 AND DUP4 MSTORE SWAP3 SWAP1 MSTORE KECCAK256 DUP3 SWAP1 SSTORE DUP1 ISZERO PUSH2 0x6B3 JUMPI DUP3 PUSH1 0x1 PUSH1 0x1 PUSH1 0xA0 SHL SUB AND DUP5 PUSH1 0x1 PUSH1 0x1 PUSH1 0xA0 SHL SUB AND PUSH32 0x8C5BE1E5EBEC7D5BD14F71427D1E84F3DD0314C0F7B2291E5B200AC8C7C3B925 DUP5 PUSH1 0x40 MLOAD PUSH2 0x9E5 SWAP2 DUP2 MSTORE PUSH1 0x20 ADD SWAP1 JUMP JUMPDEST PUSH1 0x40 MLOAD DUP1 SWAP2 SUB SWAP1 LOG3 POP POP POP POP JUMP JUMPDEST PUSH2 0x9FE DUP4 DUP4 DUP4 PUSH2 0xCB9 JUMP JUMPDEST DUP2 PUSH1 0x1 PUSH1 0x1 PUSH1 0xA0 SHL SUB AND DUP4 PUSH1 0x1 PUSH1 0x1 PUSH1 0xA0 SHL SUB AND PUSH32 0xB5FD41D87D60AA758B7A3C421993BD379F0DF87361BE9E07AE8831448EE5AD94 DUP4 PUSH1 0x40 MLOAD PUSH2 0xA43 SWAP2 DUP2 MSTORE PUSH1 0x20 ADD SWAP1 JUMP JUMPDEST PUSH1 0x40 MLOAD DUP1 SWAP2 SUB SWAP1 LOG3 POP POP POP JUMP JUMPDEST PUSH1 0x1 PUSH1 0x1 PUSH1 0xA0 SHL SUB DUP3 AND PUSH2 0xA7A JUMPI PUSH1 0x40 MLOAD PUSH4 0x4B637E8F PUSH1 0xE1 SHL DUP2 MSTORE PUSH1 0x0 PUSH1 0x4 DUP3 ADD MSTORE PUSH1 0x24 ADD PUSH2 0x50A JUMP JUMPDEST PUSH2 0x865 DUP3 PUSH1 0x0 DUP4 PUSH2 0x9F3 JUMP JUMPDEST PUSH1 0x60 PUSH1 0xFF DUP4 EQ PUSH2 0xAA0 JUMPI PUSH2 0xA99 DUP4 PUSH2 0xDD6 JUMP JUMPDEST SWAP1 POP PUSH2 0x39E JUMP JUMPDEST DUP2 DUP1 SLOAD PUSH2 0xAAC SWAP1 PUSH2 0x1092 JUMP JUMPDEST DUP1 PUSH1 0x1F ADD PUSH1 0x20 DUP1 SWAP2 DIV MUL PUSH1 0x20 ADD PUSH1 0x40 MLOAD SWAP1 DUP2 ADD PUSH1 0x40 MSTORE DUP1 SWAP3 SWAP2 SWAP1 DUP2 DUP2 MSTORE PUSH1 0x20 ADD DUP3 DUP1 SLOAD PUSH2 0xAD8 SWAP1 PUSH2 0x1092 JUMP JUMPDEST DUP1 ISZERO PUSH2 0xB25 JUMPI DUP1 PUSH1 0x1F LT PUSH2 0xAFA JUMPI PUSH2 0x100 DUP1 DUP4 SLOAD DIV MUL DUP4 MSTORE SWAP2 PUSH1 0x20 ADD SWAP2 PUSH2 0xB25 JUMP JUMPDEST DUP3 ADD SWAP2 SWAP1 PUSH1 0x0 MSTORE PUSH1 0x20 PUSH1 0x0 KECCAK256 SWAP1 JUMPDEST DUP2 SLOAD DUP2 MSTORE SWAP1 PUSH1 0x1 ADD SWAP1 PUSH1 0x20 ADD DUP1 DUP4 GT PUSH2 0xB08 JUMPI DUP3 SWAP1 SUB PUSH1 0x1F AND DUP3 ADD SWAP2 JUMPDEST POP POP POP POP POP SWAP1 POP PUSH2 0x39E JUMP JUMPDEST PUSH1 0x0 DUP1 DUP1 PUSH32 0x7FFFFFFFFFFFFFFFFFFFFFFFFFFFFFFF5D576E7357A4501DDFE92F46681B20A0 DUP5 GT ISZERO PUSH2 0xB6C JUMPI POP PUSH1 0x0 SWAP2 POP PUSH1 0x3 SWAP1 POP DUP3 PUSH2 0xBF6 JUMP JUMPDEST PUSH1 0x40 DUP1 MLOAD PUSH1 0x0 DUP1 DUP3 MSTORE PUSH1 0x20 DUP3 ADD DUP1 DUP5 MSTORE DUP11 SWAP1 MSTORE PUSH1 0xFF DUP10 AND SWAP3 DUP3 ADD SWAP3 SWAP1 SWAP3 MSTORE PUSH1 0x60 DUP2 ADD DUP8 SWAP1 MSTORE PUSH1 0x80 DUP2 ADD DUP7 SWAP1 MSTORE PUSH1 0x1 SWAP1 PUSH1 0xA0 ADD PUSH1 0x20 PUSH1 0x40 MLOAD PUSH1 0x20 DUP2 SUB SWAP1 DUP1 DUP5 SUB SWAP1 DUP6 GAS STATICCALL ISZERO DUP1 ISZERO PUSH2 0xBC0 JUMPI RETURNDATASIZE PUSH1 0x0 DUP1 RETURNDATACOPY RETURNDATASIZE PUSH1 0x0 REVERT JUMPDEST POP POP PUSH1 0x40 MLOAD PUSH1 0x1F NOT ADD MLOAD SWAP2 POP POP PUSH1 0x1 PUSH1 0x1 PUSH1 0xA0 SHL SUB DUP2 AND PUSH2 0xBEC JUMPI POP PUSH1 0x0 SWAP3 POP PUSH1 0x1 SWAP2 POP DUP3 SWAP1 POP PUSH2 0xBF6 JUMP JUMPDEST SWAP3 POP PUSH1 0x0 SWAP2 POP DUP2 SWAP1 POP JUMPDEST SWAP5 POP SWAP5 POP SWAP5 SWAP2 POP POP JUMP JUMPDEST PUSH1 0x0 DUP3 PUSH1 0x3 DUP2 GT ISZERO PUSH2 0xC14 JUMPI PUSH2 0xC14 PUSH2 0x10CC JUMP JUMPDEST SUB PUSH2 0xC1D JUMPI POP POP JUMP JUMPDEST PUSH1 0x1 DUP3 PUSH1 0x3 DUP2 GT ISZERO PUSH2 0xC31 JUMPI PUSH2 0xC31 PUSH2 0x10CC JUMP JUMPDEST SUB PUSH2 0xC4F JUMPI PUSH1 0x40 MLOAD PUSH4 0xF645EEDF PUSH1 0xE0 SHL DUP2 MSTORE PUSH1 0x4 ADD PUSH1 0x40 MLOAD DUP1 SWAP2 SUB SWAP1 REVERT JUMPDEST PUSH1 0x2 DUP3 PUSH1 0x3 DUP2 GT ISZERO PUSH2 0xC63 JUMPI PUSH2 0xC63 PUSH2 0x10CC JUMP JUMPDEST SUB PUSH2 0xC84 JUMPI PUSH1 0x40 MLOAD PUSH4 0xFCE698F7 PUSH1 0xE0 SHL DUP2 MSTORE PUSH1 0x4 DUP2 ADD DUP3 SWAP1 MSTORE PUSH1 0x24 ADD PUSH2 0x50A JUMP JUMPDEST PUSH1 0x3 DUP3 PUSH1 0x3 DUP2 GT ISZERO PUSH2 0xC98 JUMPI PUSH2 0xC98 PUSH2 0x10CC JUMP JUMPDEST SUB PUSH2 0x865 JUMPI PUSH1 0x40 MLOAD PUSH4 0x35E2F383 PUSH1 0xE2 SHL DUP2 MSTORE PUSH1 0x4 DUP2 ADD DUP3 SWAP1 MSTORE PUSH1 0x24 ADD PUSH2 0x50A JUMP JUMPDEST PUSH1 0x1 PUSH1 0x1 PUSH1 0xA0 SHL SUB DUP4 AND PUSH2 0xCE4 JUMPI DUP1 PUSH1 0x2 PUSH1 0x0 DUP3 DUP3 SLOAD PUSH2 0xCD9 SWAP2 SWAP1 PUSH2 0x10E2 JUMP JUMPDEST SWAP1 SWAP2 SSTORE POP PUSH2 0xD56 SWAP1 POP JUMP JUMPDEST PUSH1 0x1 PUSH1 0x1 PUSH1 0xA0 SHL SUB DUP4 AND PUSH1 0x0 SWAP1 DUP2 MSTORE PUSH1 0x20 DUP2 SWAP1 MSTORE PUSH1 0x40 SWAP1 KECCAK256 SLOAD DUP2 DUP2 LT ISZERO PUSH2 0xD37 JUMPI PUSH1 0x40 MLOAD PUSH4 0x391434E3 PUSH1 0xE2 SHL DUP2 MSTORE PUSH1 0x1 PUSH1 0x1 PUSH1 0xA0 SHL SUB DUP6 AND PUSH1 0x4 DUP3 ADD MSTORE PUSH1 0x24 DUP2 ADD DUP3 SWAP1 MSTORE PUSH1 0x44 DUP2 ADD DUP4 SWAP1 MSTORE PUSH1 0x64 ADD PUSH2 0x50A JUMP JUMPDEST PUSH1 0x1 PUSH1 0x1 PUSH1 0xA0 SHL SUB DUP5 AND PUSH1 0x0 SWAP1 DUP2 MSTORE PUSH1 0x20 DUP2 SWAP1 MSTORE PUSH1 0x40 SWAP1 KECCAK256 SWAP1 DUP3 SWAP1 SUB SWAP1 SSTORE JUMPDEST PUSH1 0x1 PUSH1 0x1 PUSH1 0xA0 SHL SUB DUP3 AND PUSH2 0xD72 JUMPI PUSH1 0x2 DUP1 SLOAD DUP3 SWAP1 SUB SWAP1 SSTORE PUSH2 0xD91 JUMP JUMPDEST PUSH1 0x1 PUSH1 0x1 PUSH1 0xA0 SHL SUB DUP3 AND PUSH1 0x0 SWAP1 DUP2 MSTORE PUSH1 0x20 DUP2 SWAP1 MSTORE PUSH1 0x40 SWAP1 KECCAK256 DUP1 SLOAD DUP3 ADD SWAP1 SSTORE JUMPDEST DUP2 PUSH1 0x1 PUSH1 0x1 PUSH1 0xA0 SHL SUB AND DUP4 PUSH1 0x1 PUSH1 0x1 PUSH1 0xA0 SHL SUB AND PUSH32 0xDDF252AD1BE2C89B69C2B068FC378DAA952BA7F163C4A11628F55A4DF523B3EF DUP4 PUSH1 0x40 MLOAD PUSH2 0xA43 SWAP2 DUP2 MSTORE PUSH1 0x20 ADD SWAP1 JUMP JUMPDEST PUSH1 0x60 PUSH1 0x0 PUSH2 0xDE3 DUP4 PUSH2 0xE15 JUMP JUMPDEST PUSH1 0x40 DUP1 MLOAD PUSH1 0x20 DUP1 DUP3 MSTORE DUP2 DUP4 ADD SWAP1 SWAP3 MSTORE SWAP2 SWAP3 POP PUSH1 0x0 SWAP2 SWAP1 PUSH1 0x20 DUP3 ADD DUP2 DUP1 CALLDATASIZE DUP4 CALLDATACOPY POP POP POP SWAP2 DUP3 MSTORE POP PUSH1 0x20 DUP2 ADD SWAP3 SWAP1 SWAP3 MSTORE POP SWAP1 JUMP JUMPDEST PUSH1 0x0 PUSH1 0xFF DUP3 AND PUSH1 0x1F DUP2 GT ISZERO PUSH2 0x39E JUMPI PUSH1 0x40 MLOAD PUSH4 0x2CD44AC3 PUSH1 0xE2 SHL DUP2 MSTORE PUSH1 0x4 ADD PUSH1 0x40 MLOAD DUP1 SWAP2 SUB SWAP1 REVERT JUMPDEST PUSH1 0x0 DUP2 MLOAD DUP1 DUP5 MSTORE PUSH1 0x0 JUMPDEST DUP2 DUP2 LT ISZERO PUSH2 0xE63 JUMPI PUSH1 0x20 DUP2 DUP6 ADD DUP2 ADD MLOAD DUP7 DUP4 ADD DUP3 ADD MSTORE ADD PUSH2 0xE47 JUMP JUMPDEST POP PUSH1 0x0 PUSH1 0x20 DUP3 DUP7 ADD ADD MSTORE PUSH1 0x20 PUSH1 0x1F NOT PUSH1 0x1F DUP4 ADD AND DUP6 ADD ADD SWAP2 POP POP SWAP3 SWAP2 POP POP JUMP JUMPDEST PUSH1 0x20 DUP2 MSTORE PUSH1 0x0 PUSH2 0xE96 PUSH1 0x20 DUP4 ADD DUP5 PUSH2 0xE3D JUMP JUMPDEST SWAP4 SWAP3 POP POP POP JUMP JUMPDEST DUP1 CALLDATALOAD PUSH1 0x1 PUSH1 0x1 PUSH1 0xA0 SHL SUB DUP2 AND DUP2 EQ PUSH2 0xEB4 JUMPI PUSH1 0x0 DUP1 REVERT JUMPDEST SWAP2 SWAP1 POP JUMP JUMPDEST PUSH1 0x0 DUP1 PUSH1 0x40 DUP4 DUP6 SUB SLT ISZERO PUSH2 0xECC JUMPI PUSH1 0x0 DUP1 REVERT JUMPDEST PUSH2 0xED5 DUP4 PUSH2 0xE9D JUMP JUMPDEST SWAP5 PUSH1 0x20 SWAP4 SWAP1 SWAP4 ADD CALLDATALOAD SWAP4 POP POP POP JUMP JUMPDEST PUSH1 0x0 DUP1 PUSH1 0x0 PUSH1 0x60 DUP5 DUP7 SUB SLT ISZERO PUSH2 0xEF8 JUMPI PUSH1 0x0 DUP1 REVERT JUMPDEST PUSH2 0xF01 DUP5 PUSH2 0xE9D JUMP JUMPDEST SWAP3 POP PUSH2 0xF0F PUSH1 0x20 DUP6 ADD PUSH2 0xE9D JUMP JUMPDEST SWAP3 SWAP6 SWAP3 SWAP5 POP POP POP PUSH1 0x40 SWAP2 SWAP1 SWAP2 ADD CALLDATALOAD SWAP1 JUMP JUMPDEST PUSH1 0x0 PUSH1 0x20 DUP3 DUP5 SUB SLT ISZERO PUSH2 0xF32 JUMPI PUSH1 0x0 DUP1 REVERT JUMPDEST POP CALLDATALOAD SWAP2 SWAP1 POP JUMP JUMPDEST PUSH1 0x0 PUSH1 0x20 DUP3 DUP5 SUB SLT ISZERO PUSH2 0xF4B JUMPI PUSH1 0x0 DUP1 REVERT JUMPDEST PUSH2 0xE96 DUP3 PUSH2 0xE9D JUMP JUMPDEST PUSH1 0xFF PUSH1 0xF8 SHL DUP9 AND DUP2 MSTORE PUSH1 0xE0 PUSH1 0x20 DUP3 ADD MSTORE PUSH1 0x0 PUSH2 0xF73 PUSH1 0xE0 DUP4 ADD DUP10 PUSH2 0xE3D JUMP JUMPDEST DUP3 DUP2 SUB PUSH1 0x40 DUP5 ADD MSTORE PUSH2 0xF85 DUP2 DUP10 PUSH2 0xE3D JUMP JUMPDEST PUSH1 0x60 DUP5 ADD DUP9 SWAP1 MSTORE PUSH1 0x1 PUSH1 0x1 PUSH1 0xA0 SHL SUB DUP8 AND PUSH1 0x80 DUP6 ADD MSTORE PUSH1 0xA0 DUP5 ADD DUP7 SWAP1 MSTORE DUP4 DUP2 SUB PUSH1 0xC0 DUP6 ADD MSTORE DUP5 MLOAD DUP1 DUP3 MSTORE PUSH1 0x20 DUP1 DUP8 ADD SWAP4 POP SWAP1 SWAP2 ADD SWAP1 PUSH1 0x0 JUMPDEST DUP2 DUP2 LT ISZERO PUSH2 0xFDB JUMPI DUP4 MLOAD DUP4 MSTORE PUSH1 0x20 SWAP4 DUP5 ADD SWAP4 SWAP1 SWAP3 ADD SWAP2 PUSH1 0x1 ADD PUSH2 0xFBD JUMP JUMPDEST POP SWAP1 SWAP12 SWAP11 POP POP POP POP POP POP POP POP POP POP POP JUMP JUMPDEST PUSH1 0x0 DUP1 PUSH1 0x0 DUP1 PUSH1 0x0 DUP1 PUSH1 0x0 PUSH1 0xE0 DUP9 DUP11 SUB SLT ISZERO PUSH2 0x1007 JUMPI PUSH1 0x0 DUP1 REVERT JUMPDEST PUSH2 0x1010 DUP9 PUSH2 0xE9D JUMP JUMPDEST SWAP7 POP PUSH2 0x101E PUSH1 0x20 DUP10 ADD PUSH2 0xE9D JUMP JUMPDEST SWAP6 POP PUSH1 0x40 DUP9 ADD CALLDATALOAD SWAP5 POP PUSH1 0x60 DUP9 ADD CALLDATALOAD SWAP4 POP PUSH1 0x80 DUP9 ADD CALLDATALOAD PUSH1 0xFF DUP2 AND DUP2 EQ PUSH2 0x1042 JUMPI PUSH1 0x0 DUP1 REVERT JUMPDEST SWAP7 SWAP10 SWAP6 SWAP9 POP SWAP4 SWAP7 SWAP3 SWAP6 SWAP5 PUSH1 0xA0 DUP5 ADD CALLDATALOAD SWAP5 POP PUSH1 0xC0 SWAP1 SWAP4 ADD CALLDATALOAD SWAP3 SWAP2 POP POP JUMP JUMPDEST PUSH1 0x0 DUP1 PUSH1 0x40 DUP4 DUP6 SUB SLT ISZERO PUSH2 0x1072 JUMPI PUSH1 0x0 DUP1 REVERT JUMPDEST PUSH2 0x107B DUP4 PUSH2 0xE9D JUMP JUMPDEST SWAP2 POP PUSH2 0x1089 PUSH1 0x20 DUP5 ADD PUSH2 0xE9D JUMP JUMPDEST SWAP1 POP SWAP3 POP SWAP3 SWAP1 POP JUMP JUMPDEST PUSH1 0x1 DUP2 DUP2 SHR SWAP1 DUP3 AND DUP1 PUSH2 0x10A6 JUMPI PUSH1 0x7F DUP3 AND SWAP2 POP JUMPDEST PUSH1 0x20 DUP3 LT DUP2 SUB PUSH2 0x10C6 JUMPI PUSH4 0x4E487B71 PUSH1 0xE0 SHL PUSH1 0x0 MSTORE PUSH1 0x22 PUSH1 0x4 MSTORE PUSH1 0x24 PUSH1 0x0 REVERT JUMPDEST POP SWAP2 SWAP1 POP JUMP JUMPDEST PUSH4 0x4E487B71 PUSH1 0xE0 SHL PUSH1 0x0 MSTORE PUSH1 0x21 PUSH1 0x4 MSTORE PUSH1 0x24 PUSH1 0x0 REVERT JUMPDEST DUP1 DUP3 ADD DUP1 DUP3 GT ISZERO PUSH2 0x39E JUMPI PUSH4 0x4E487B71 PUSH1 0xE0 SHL PUSH1 0x0 MSTORE PUSH1 0x11 PUSH1 0x4 MSTORE PUSH1 0x24 PUSH1 0x0 REVERT INVALID LOG2 PUSH5 0x6970667358 0x22 SLT KECCAK256 SWAP10 PUSH7 0xA22137EF03DBD3 ADD 0xE0 CALLDATACOPY BYTE 0xA9 0xDB 0xB6 PUSH11 0x25546FB2C09965ABE65C4F DUP10 CODECOPY DUP7 0xB2 PUSH5 0x736F6C6343 STOP ADDMOD BYTE STOP CALLER "
				},
				"gasEstimates": {
					"creation": {
						"codeDepositCost": "881800",
						"executionCost": "infinite",
						"totalCost": "infinite"
					},
					"external": {
						"DOMAIN_SEPARATOR()": "infinite",
						"MAX_SUPPLY()": "240",
						"allowance(address,address)": "infinite",
						"approve(address,uint256)": "24762",
						"balanceOf(address)": "2563",
						"burn(uint256)": "infinite",
						"burnFrom(address,uint256)": "infinite",
						"decimals()": "200",
						"deploymentTime()": "infinite",
						"eip712Domain()": "infinite",
						"name()": "infinite",
						"nonces(address)": "2638",
						"permit(address,address,uint256,uint256,uint8,bytes32,bytes32)": "infinite",
						"symbol()": "infinite",
						"totalSupply()": "2349",
						"transfer(address,uint256)": "infinite",
						"transferFrom(address,address,uint256)": "infinite",
						"treasury()": "infinite"
					},
					"internal": {
						"_update(address,address,uint256)": "infinite"
					}
				},
				"methodIdentifiers": {
					"DOMAIN_SEPARATOR()": "3644e515",
					"MAX_SUPPLY()": "32cb6b0c",
					"allowance(address,address)": "dd62ed3e",
					"approve(address,uint256)": "095ea7b3",
					"balanceOf(address)": "70a08231",
					"burn(uint256)": "42966c68",
					"burnFrom(address,uint256)": "79cc6790",
					"decimals()": "313ce567",
					"deploymentTime()": "ecda10f5",
					"eip712Domain()": "84b0196e",
					"name()": "06fdde03",
					"nonces(address)": "7ecebe00",
					"permit(address,address,uint256,uint256,uint8,bytes32,bytes32)": "d505accf",
					"symbol()": "95d89b41",
					"totalSupply()": "18160ddd",
					"transfer(address,uint256)": "a9059cbb",
					"transferFrom(address,address,uint256)": "23b872dd",
					"treasury()": "61d027b3"
				}
			},
			"storageLayout": {
				"storage": [
					{
						"astId": 339,
						"contract": "Smart-Contract/PNJS.sol:PanjoCoin",
						"label": "_balances",
						"offset": 0,
						"slot": "0",
						"type": "t_mapping(t_address,t_uint256)"
					},
					{
						"astId": 345,
						"contract": "Smart-Contract/PNJS.sol:PanjoCoin",
						"label": "_allowances",
						"offset": 0,
						"slot": "1",
						"type": "t_mapping(t_address,t_mapping(t_address,t_uint256))"
					},
					{
						"astId": 347,
						"contract": "Smart-Contract/PNJS.sol:PanjoCoin",
						"label": "_totalSupply",
						"offset": 0,
						"slot": "2",
						"type": "t_uint256"
					},
					{
						"astId": 349,
						"contract": "Smart-Contract/PNJS.sol:PanjoCoin",
						"label": "_name",
						"offset": 0,
						"slot": "3",
						"type": "t_string_storage"
					},
					{
						"astId": 351,
						"contract": "Smart-Contract/PNJS.sol:PanjoCoin",
						"label": "_symbol",
						"offset": 0,
						"slot": "4",
						"type": "t_string_storage"
					},
					{
						"astId": 2228,
						"contract": "Smart-Contract/PNJS.sol:PanjoCoin",
						"label": "_nameFallback",
						"offset": 0,
						"slot": "5",
						"type": "t_string_storage"
					},
					{
						"astId": 2230,
						"contract": "Smart-Contract/PNJS.sol:PanjoCoin",
						"label": "_versionFallback",
						"offset": 0,
						"slot": "6",
						"type": "t_string_storage"
					},
					{
						"astId": 1207,
						"contract": "Smart-Contract/PNJS.sol:PanjoCoin",
						"label": "_nonces",
						"offset": 0,
						"slot": "7",
						"type": "t_mapping(t_address,t_uint256)"
					}
				],
				"types": {
					"t_address": {
						"encoding": "inplace",
						"label": "address",
						"numberOfBytes": "20"
					},
					"t_mapping(t_address,t_mapping(t_address,t_uint256))": {
						"encoding": "mapping",
						"key": "t_address",
						"label": "mapping(address => mapping(address => uint256))",
						"numberOfBytes": "32",
						"value": "t_mapping(t_address,t_uint256)"
					},
					"t_mapping(t_address,t_uint256)": {
						"encoding": "mapping",
						"key": "t_address",
						"label": "mapping(address => uint256)",
						"numberOfBytes": "32",
						"value": "t_uint256"
					},
					"t_string_storage": {
						"encoding": "bytes",
						"label": "string",
						"numberOfBytes": "32"
					},
					"t_uint256": {
						"encoding": "inplace",
						"label": "uint256",
						"numberOfBytes": "32"
					}
				}
			},
			"userdoc": {
				"kind": "user",
				"methods": {},
				"version": 1
			}
		}
	}
}