{
	"Smart-Contract/PanjoCoin.sol": {
		"ERC20Permit": {
			"abi": [
				{
					"inputs": [
						{
							"internalType": "string",
							"name": "name",
							"type": "string"
						},
						{
							"internalType": "string",
							"name": "symbol",
							"type": "string"
						}
					],
					"stateMutability": "nonpayable",
					"type": "constructor"
				},
				{
					"anonymous": false,
					"inputs": [
						{
							"indexed": true,
							"internalType": "address",
							"name": "owner",
							"type": "address"
						},
						{
							"indexed": true,
							"internalType": "address",
							"name": "spender",
							"type": "address"
						},
						{
							"indexed": false,
							"internalType": "uint256",
							"name": "value",
							"type": "uint256"
						}
					],
					"name": "Approval",
					"type": "event"
				},
				{
					"anonymous": false,
					"inputs": [
						{
							"indexed": true,
							"internalType": "address",
							"name": "from",
							"type": "address"
						},
						{
							"indexed": true,
							"internalType": "address",
							"name": "to",
							"type": "address"
						},
						{
							"indexed": false,
							"internalType": "uint256",
							"name": "value",
							"type": "uint256"
						}
					],
					"name": "Transfer",
					"type": "event"
				},
				{
					"inputs": [],
					"name": "DOMAIN_SEPARATOR",
					"outputs": [
						{
							"internalType": "bytes32",
							"name": "",
							"type": "bytes32"
						}
					],
					"stateMutability": "view",
					"type": "function"
				},
				{
					"inputs": [
						{
							"internalType": "address",
							"name": "owner",
							"type": "address"
						},
						{
							"internalType": "address",
							"name": "spender",
							"type": "address"
						}
					],
					"name": "allowance",
					"outputs": [
						{
							"internalType": "uint256",
							"name": "",
							"type": "uint256"
						}
					],
					"stateMutability": "view",
					"type": "function"
				},
				{
					"inputs": [
						{
							"internalType": "address",
							"name": "spender",
							"type": "address"
						},
						{
							"internalType": "uint256",
							"name": "value",
							"type": "uint256"
						}
					],
					"name": "approve",
					"outputs": [
						{
							"internalType": "bool",
							"name": "",
							"type": "bool"
						}
					],
					"stateMutability": "nonpayable",
					"type": "function"
				},
				{
					"inputs": [
						{
							"internalType": "address",
							"name": "account",
							"type": "address"
						}
					],
					"name": "balanceOf",
					"outputs": [
						{
							"internalType": "uint256",
							"name": "",
							"type": "uint256"
						}
					],
					"stateMutability": "view",
					"type": "function"
				},
				{
					"inputs": [],
					"name": "decimals",
					"outputs": [
						{
							"internalType": "uint8",
							"name": "",
							"type": "uint8"
						}
					],
					"stateMutability": "pure",
					"type": "function"
				},
				{
					"inputs": [
						{
							"internalType": "address",
							"name": "spender",
							"type": "address"
						},
						{
							"internalType": "uint256",
							"name": "subtractedValue",
							"type": "uint256"
						}
					],
					"name": "decreaseAllowance",
					"outputs": [
						{
							"internalType": "bool",
							"name": "",
							"type": "bool"
						}
					],
					"stateMutability": "nonpayable",
					"type": "function"
				},
				{
					"inputs": [
						{
							"internalType": "address",
							"name": "spender",
							"type": "address"
						},
						{
							"internalType": "uint256",
							"name": "addedValue",
							"type": "uint256"
						}
					],
					"name": "increaseAllowance",
					"outputs": [
						{
							"internalType": "bool",
							"name": "",
							"type": "bool"
						}
					],
					"stateMutability": "nonpayable",
					"type": "function"
				},
				{
					"inputs": [],
					"name": "name",
					"outputs": [
						{
							"internalType": "string",
							"name": "",
							"type": "string"
						}
					],
					"stateMutability": "view",
					"type": "function"
				},
				{
					"inputs": [
						{
							"internalType": "address",
							"name": "",
							"type": "address"
						}
					],
					"name": "nonces",
					"outputs": [
						{
							"internalType": "uint256",
							"name": "",
							"type": "uint256"
						}
					],
					"stateMutability": "view",
					"type": "function"
				},
				{
					"inputs": [
						{
							"internalType": "address",
							"name": "owner",
							"type": "address"
						},
						{
							"internalType": "address",
							"name": "spender",
							"type": "address"
						},
						{
							"internalType": "uint256",
							"name": "value",
							"type": "uint256"
						},
						{
							"internalType": "uint256",
							"name": "deadline",
							"type": "uint256"
						},
						{
							"internalType": "uint8",
							"name": "v",
							"type": "uint8"
						},
						{
							"internalType": "bytes32",
							"name": "r",
							"type": "bytes32"
						},
						{
							"internalType": "bytes32",
							"name": "s",
							"type": "bytes32"
						}
					],
					"name": "permit",
					"outputs": [],
					"stateMutability": "nonpayable",
					"type": "function"
				},
				{
					"inputs": [],
					"name": "symbol",
					"outputs": [
						{
							"internalType": "string",
							"name": "",
							"type": "string"
						}
					],
					"stateMutability": "view",
					"type": "function"
				},
				{
					"inputs": [],
					"name": "totalSupply",
					"outputs": [
						{
							"internalType": "uint256",
							"name": "",
							"type": "uint256"
						}
					],
					"stateMutability": "view",
					"type": "function"
				},
				{
					"inputs": [
						{
							"internalType": "address",
							"name": "to",
							"type": "address"
						},
						{
							"internalType": "uint256",
							"name": "value",
							"type": "uint256"
						}
					],
					"name": "transfer",
					"outputs": [
						{
							"internalType": "bool",
							"name": "",
							"type": "bool"
						}
					],
					"stateMutability": "nonpayable",
					"type": "function"
				},
				{
					"inputs": [
						{
							"internalType": "address",
							"name": "from",
							"type": "address"
						},
						{
							"internalType": "address",
							"name": "to",
							"type": "address"
						},
						{
							"internalType": "uint256",
							"name": "value",
							"type": "uint256"
						}
					],
					"name": "transferFrom",
					"outputs": [
						{
							"internalType": "bool",
							"name": "",
							"type": "bool"
						}
					],
					"stateMutability": "nonpayable",
					"type": "function"
				}
			],
			"devdoc": {
				"kind": "dev",
				"methods": {},
				"version": 1
			},
			"evm": {
				"assembly": "    /* \"Smart-Contract/PanjoCoin.sol\":5477:7602  contract ERC20Permit is ERC20 {... */\n  mstore(0x40, 0xc0)\n    /* \"Smart-Contract/PanjoCoin.sol\":5823:6314  constructor(string memory name, string memory symbol)... */\n  callvalue\n  dup1\n  iszero\n  tag_1\n  jumpi\n  0x00\n  dup1\n  revert\ntag_1:\n  pop\n  mload(0x40)\n  sub(codesize, bytecodeSize)\n  dup1\n  bytecodeSize\n  dup4\n  codecopy\n  dup2\n  add\n  0x40\n  dup2\n  swap1\n  mstore\n  tag_2\n  swap2\n  tag_3\n  jump\t// in\ntag_2:\n    /* \"Smart-Contract/PanjoCoin.sol\":5892:5896  name */\n  dup2\n    /* \"Smart-Contract/PanjoCoin.sol\":5898:5904  symbol */\n  dup2\n    /* \"Smart-Contract/PanjoCoin.sol\":1273:1278  _name */\n  0x03\n    /* \"Smart-Contract/PanjoCoin.sol\":1273:1286  _name = name_ */\n  tag_7\n    /* \"Smart-Contract/PanjoCoin.sol\":5892:5896  name */\n  dup4\n    /* \"Smart-Contract/PanjoCoin.sol\":1273:1278  _name */\n  dup3\n    /* \"Smart-Contract/PanjoCoin.sol\":1273:1286  _name = name_ */\n  tag_8\n  jump\t// in\ntag_7:\n  pop\n    /* \"Smart-Contract/PanjoCoin.sol\":1297:1304  _symbol */\n  0x04\n    /* \"Smart-Contract/PanjoCoin.sol\":1297:1314  _symbol = symbol_ */\n  tag_9\n    /* \"Smart-Contract/PanjoCoin.sol\":1307:1314  symbol_ */\n  dup3\n    /* \"Smart-Contract/PanjoCoin.sol\":1297:1304  _symbol */\n  dup3\n    /* \"Smart-Contract/PanjoCoin.sol\":1297:1314  _symbol = symbol_ */\n  tag_8\n  jump\t// in\ntag_9:\n  pop\n  pop\n    /* \"Smart-Contract/PanjoCoin.sol\":5941:5954  block.chainid */\n  chainid\n    /* \"Smart-Contract/PanjoCoin.sol\":5922:5954  _CACHED_CHAIN_ID = block.chainid */\n  0xa0\n  dup2\n  dup2\n  mstore\n    /* \"Smart-Contract/PanjoCoin.sol\":6154:6176  keccak256(bytes(name)) */\n  dup5\n  mload\n  0x20\n  dup1\n  dup8\n  add\n  swap2\n  swap1\n  swap2\n  keccak256\n    /* \"Smart-Contract/PanjoCoin.sol\":6205:6215  bytes(\"1\") */\n  0x40\n  dup1\n  mload\n  dup1\n  dup3\n  add\n  dup3\n  mstore\n  0x01\n  dup2\n  mstore\n  shl(0xf8, 0x31)\n  swap1\n  dup5\n  add\n  mstore\n    /* \"Smart-Contract/PanjoCoin.sol\":6011:6295  abi.encode(... */\n  dup1\n  mload\n    /* \"Smart-Contract/PanjoCoin.sol\":6040:6135  keccak256(\"EIP712Domain(string name,string version,uint256 chainid,address verifyingContract)\") */\n  0x1a83649f11a3e56d58ed3274189f99ab6137d641dfdfdeb45dd06a89f72c4e52\n    /* \"Smart-Contract/PanjoCoin.sol\":6011:6295  abi.encode(... */\n  swap4\n  dup2\n  add\n    /* \"#utility.yul\":4315:4340   */\n  swap4\n  swap1\n  swap4\n  mstore\n    /* \"#utility.yul\":4356:4374   */\n  dup3\n  add\n    /* \"#utility.yul\":4349:4383   */\n  mstore\n    /* \"Smart-Contract/PanjoCoin.sol\":6195:6216  keccak256(bytes(\"1\")) */\n  0xc89efdaa54c0f20c7adf612882df0950f5a951637e0307cdcb4c672f298b8bc6\n  0x60\n    /* \"#utility.yul\":4399:4417   */\n  dup3\n  add\n    /* \"#utility.yul\":4392:4426   */\n  mstore\n    /* \"#utility.yul\":4442:4460   */\n  0x80\n  dup2\n  add\n    /* \"#utility.yul\":4435:4469   */\n  swap3\n  swap1\n  swap3\n  mstore\n    /* \"Smart-Contract/PanjoCoin.sol\":6275:6279  this */\n  address\n    /* \"#utility.yul\":4485:4504   */\n  swap1\n  dup3\n  add\n    /* \"#utility.yul\":4478:4539   */\n  mstore\n    /* \"#utility.yul\":4287:4306   */\n  0xc0\n  add\n  swap1\n  pop\n    /* \"Smart-Contract/PanjoCoin.sol\":6011:6295  abi.encode(... */\n  0x40\n  dup1\n  mload\n  not(0x1f)\n  dup2\n  dup5\n  sub\n  add\n  dup2\n  mstore\n  swap2\n  swap1\n  mstore\n    /* \"Smart-Contract/PanjoCoin.sol\":5987:6306  keccak256(... */\n  dup1\n  mload\n    /* \"Smart-Contract/PanjoCoin.sol\":6011:6295  abi.encode(... */\n  0x20\n    /* \"Smart-Contract/PanjoCoin.sol\":5987:6306  keccak256(... */\n  swap1\n  swap2\n  add\n  keccak256\n    /* \"Smart-Contract/PanjoCoin.sol\":5967:6306  _DOMAIN_SEPARATOR = keccak256(... */\n  0x80\n  mstore\n  pop\n    /* \"Smart-Contract/PanjoCoin.sol\":5477:7602  contract ERC20Permit is ERC20 {... */\n  tag_20\n  swap1\n  pop\n  jump\n    /* \"#utility.yul\":14:141   */\ntag_14:\n    /* \"#utility.yul\":75:85   */\n  0x4e487b71\n    /* \"#utility.yul\":70:73   */\n  0xe0\n    /* \"#utility.yul\":66:86   */\n  shl\n    /* \"#utility.yul\":63:64   */\n  0x00\n    /* \"#utility.yul\":56:87   */\n  mstore\n    /* \"#utility.yul\":106:110   */\n  0x41\n    /* \"#utility.yul\":103:104   */\n  0x04\n    /* \"#utility.yul\":96:111   */\n  mstore\n    /* \"#utility.yul\":130:134   */\n  0x24\n    /* \"#utility.yul\":127:128   */\n  0x00\n    /* \"#utility.yul\":120:135   */\n  revert\n    /* \"#utility.yul\":146:980   */\ntag_15:\n    /* \"#utility.yul\":200:205   */\n  0x00\n    /* \"#utility.yul\":253:256   */\n  dup3\n    /* \"#utility.yul\":246:250   */\n  0x1f\n    /* \"#utility.yul\":238:244   */\n  dup4\n    /* \"#utility.yul\":234:251   */\n  add\n    /* \"#utility.yul\":230:257   */\n  slt\n    /* \"#utility.yul\":220:275   */\n  tag_23\n  jumpi\n    /* \"#utility.yul\":271:272   */\n  0x00\n    /* \"#utility.yul\":268:269   */\n  dup1\n    /* \"#utility.yul\":261:273   */\n  revert\n    /* \"#utility.yul\":220:275   */\ntag_23:\n    /* \"#utility.yul\":298:311   */\n  dup2\n  mload\n  sub(shl(0x40, 0x01), 0x01)\n    /* \"#utility.yul\":323:353   */\n  dup2\n  gt\n    /* \"#utility.yul\":320:376   */\n  iszero\n  tag_25\n  jumpi\n    /* \"#utility.yul\":356:374   */\n  tag_25\n  tag_14\n  jump\t// in\ntag_25:\n    /* \"#utility.yul\":405:407   */\n  0x40\n    /* \"#utility.yul\":399:408   */\n  mload\n    /* \"#utility.yul\":497:499   */\n  0x1f\n    /* \"#utility.yul\":459:476   */\n  dup3\n  add\n  not(0x1f)\n    /* \"#utility.yul\":455:486   */\n  swap1\n  dup2\n  and\n    /* \"#utility.yul\":488:490   */\n  0x3f\n    /* \"#utility.yul\":451:491   */\n  add\n    /* \"#utility.yul\":447:501   */\n  and\n    /* \"#utility.yul\":435:502   */\n  dup2\n  add\n  sub(shl(0x40, 0x01), 0x01)\n    /* \"#utility.yul\":517:551   */\n  dup2\n  gt\n    /* \"#utility.yul\":553:575   */\n  dup3\n  dup3\n  lt\n    /* \"#utility.yul\":514:576   */\n  or\n    /* \"#utility.yul\":511:599   */\n  iszero\n  tag_27\n  jumpi\n    /* \"#utility.yul\":579:597   */\n  tag_27\n  tag_14\n  jump\t// in\ntag_27:\n    /* \"#utility.yul\":615:617   */\n  0x40\n    /* \"#utility.yul\":608:630   */\n  mstore\n    /* \"#utility.yul\":639:661   */\n  dup2\n  dup2\n  mstore\n    /* \"#utility.yul\":680:699   */\n  dup4\n  dup3\n  add\n    /* \"#utility.yul\":701:705   */\n  0x20\n    /* \"#utility.yul\":676:706   */\n  add\n    /* \"#utility.yul\":673:712   */\n  dup6\n  lt\n    /* \"#utility.yul\":670:729   */\n  iszero\n  tag_28\n  jumpi\n    /* \"#utility.yul\":725:726   */\n  0x00\n    /* \"#utility.yul\":722:723   */\n  dup1\n    /* \"#utility.yul\":715:727   */\n  revert\n    /* \"#utility.yul\":670:729   */\ntag_28:\n    /* \"#utility.yul\":747:748   */\n  0x00\n    /* \"#utility.yul\":757:900   */\ntag_29:\n    /* \"#utility.yul\":771:777   */\n  dup3\n    /* \"#utility.yul\":768:769   */\n  dup2\n    /* \"#utility.yul\":765:778   */\n  lt\n    /* \"#utility.yul\":757:900   */\n  iszero\n  tag_31\n  jumpi\n    /* \"#utility.yul\":883:887   */\n  0x20\n    /* \"#utility.yul\":867:881   */\n  dup2\n  dup7\n  add\n    /* \"#utility.yul\":863:888   */\n  dup2\n  add\n    /* \"#utility.yul\":857:889   */\n  mload\n    /* \"#utility.yul\":834:848   */\n  dup4\n  dup4\n  add\n    /* \"#utility.yul\":830:855   */\n  dup3\n  add\n    /* \"#utility.yul\":823:890   */\n  mstore\n    /* \"#utility.yul\":786:798   */\n  add\n    /* \"#utility.yul\":757:900   */\n  jump(tag_29)\ntag_31:\n  pop\n    /* \"#utility.yul\":948:949   */\n  0x00\n    /* \"#utility.yul\":920:939   */\n  swap2\n  dup2\n  add\n    /* \"#utility.yul\":941:945   */\n  0x20\n    /* \"#utility.yul\":916:946   */\n  add\n    /* \"#utility.yul\":909:950   */\n  swap2\n  swap1\n  swap2\n  mstore\n    /* \"#utility.yul\":924:930   */\n  swap4\n    /* \"#utility.yul\":146:980   */\n  swap3\n  pop\n  pop\n  pop\n  jump\t// out\n    /* \"#utility.yul\":985:1542   */\ntag_3:\n    /* \"#utility.yul\":1084:1090   */\n  0x00\n    /* \"#utility.yul\":1092:1098   */\n  dup1\n    /* \"#utility.yul\":1145:1147   */\n  0x40\n    /* \"#utility.yul\":1133:1142   */\n  dup4\n    /* \"#utility.yul\":1124:1131   */\n  dup6\n    /* \"#utility.yul\":1120:1143   */\n  sub\n    /* \"#utility.yul\":1116:1148   */\n  slt\n    /* \"#utility.yul\":1113:1165   */\n  iszero\n  tag_33\n  jumpi\n    /* \"#utility.yul\":1161:1162   */\n  0x00\n    /* \"#utility.yul\":1158:1159   */\n  dup1\n    /* \"#utility.yul\":1151:1163   */\n  revert\n    /* \"#utility.yul\":1113:1165   */\ntag_33:\n    /* \"#utility.yul\":1188:1204   */\n  dup3\n  mload\n  sub(shl(0x40, 0x01), 0x01)\n    /* \"#utility.yul\":1216:1246   */\n  dup2\n  gt\n    /* \"#utility.yul\":1213:1263   */\n  iszero\n  tag_34\n  jumpi\n    /* \"#utility.yul\":1259:1260   */\n  0x00\n    /* \"#utility.yul\":1256:1257   */\n  dup1\n    /* \"#utility.yul\":1249:1261   */\n  revert\n    /* \"#utility.yul\":1213:1263   */\ntag_34:\n    /* \"#utility.yul\":1282:1343   */\n  tag_35\n    /* \"#utility.yul\":1335:1342   */\n  dup6\n    /* \"#utility.yul\":1326:1332   */\n  dup3\n    /* \"#utility.yul\":1315:1324   */\n  dup7\n    /* \"#utility.yul\":1311:1333   */\n  add\n    /* \"#utility.yul\":1282:1343   */\n  tag_15\n  jump\t// in\ntag_35:\n    /* \"#utility.yul\":1389:1391   */\n  0x20\n    /* \"#utility.yul\":1374:1392   */\n  dup6\n  add\n    /* \"#utility.yul\":1368:1393   */\n  mload\n    /* \"#utility.yul\":1272:1343   */\n  swap1\n  swap4\n  pop\n    /* \"#utility.yul\":1368:1393   */\n  swap1\n  pop\n  sub(shl(0x40, 0x01), 0x01)\n    /* \"#utility.yul\":1405:1437   */\n  dup2\n  gt\n    /* \"#utility.yul\":1402:1454   */\n  iszero\n  tag_36\n  jumpi\n    /* \"#utility.yul\":1450:1451   */\n  0x00\n    /* \"#utility.yul\":1447:1448   */\n  dup1\n    /* \"#utility.yul\":1440:1452   */\n  revert\n    /* \"#utility.yul\":1402:1454   */\ntag_36:\n    /* \"#utility.yul\":1473:1536   */\n  tag_37\n    /* \"#utility.yul\":1528:1535   */\n  dup6\n    /* \"#utility.yul\":1517:1525   */\n  dup3\n    /* \"#utility.yul\":1506:1515   */\n  dup7\n    /* \"#utility.yul\":1502:1526   */\n  add\n    /* \"#utility.yul\":1473:1536   */\n  tag_15\n  jump\t// in\ntag_37:\n    /* \"#utility.yul\":1463:1536   */\n  swap2\n  pop\n  pop\n    /* \"#utility.yul\":985:1542   */\n  swap3\n  pop\n  swap3\n  swap1\n  pop\n  jump\t// out\n    /* \"#utility.yul\":1547:1927   */\ntag_16:\n    /* \"#utility.yul\":1626:1627   */\n  0x01\n    /* \"#utility.yul\":1622:1634   */\n  dup2\n  dup2\n  shr\n  swap1\n    /* \"#utility.yul\":1669:1681   */\n  dup3\n  and\n  dup1\n    /* \"#utility.yul\":1690:1751   */\n  tag_39\n  jumpi\n    /* \"#utility.yul\":1744:1748   */\n  0x7f\n    /* \"#utility.yul\":1736:1742   */\n  dup3\n    /* \"#utility.yul\":1732:1749   */\n  and\n    /* \"#utility.yul\":1722:1749   */\n  swap2\n  pop\n    /* \"#utility.yul\":1690:1751   */\ntag_39:\n    /* \"#utility.yul\":1797:1799   */\n  0x20\n    /* \"#utility.yul\":1789:1795   */\n  dup3\n    /* \"#utility.yul\":1786:1800   */\n  lt\n    /* \"#utility.yul\":1766:1784   */\n  dup2\n    /* \"#utility.yul\":1763:1801   */\n  sub\n    /* \"#utility.yul\":1760:1921   */\n  tag_40\n  jumpi\n    /* \"#utility.yul\":1843:1853   */\n  0x4e487b71\n    /* \"#utility.yul\":1838:1841   */\n  0xe0\n    /* \"#utility.yul\":1834:1854   */\n  shl\n    /* \"#utility.yul\":1831:1832   */\n  0x00\n    /* \"#utility.yul\":1824:1855   */\n  mstore\n    /* \"#utility.yul\":1878:1882   */\n  0x22\n    /* \"#utility.yul\":1875:1876   */\n  0x04\n    /* \"#utility.yul\":1868:1883   */\n  mstore\n    /* \"#utility.yul\":1906:1910   */\n  0x24\n    /* \"#utility.yul\":1903:1904   */\n  0x00\n    /* \"#utility.yul\":1896:1911   */\n  revert\n    /* \"#utility.yul\":1760:1921   */\ntag_40:\n  pop\n    /* \"#utility.yul\":1547:1927   */\n  swap2\n  swap1\n  pop\n  jump\t// out\n    /* \"#utility.yul\":2058:2576   */\ntag_18:\n    /* \"#utility.yul\":2160:2162   */\n  0x1f\n    /* \"#utility.yul\":2155:2158   */\n  dup3\n    /* \"#utility.yul\":2152:2163   */\n  gt\n    /* \"#utility.yul\":2149:2570   */\n  iszero\n  tag_43\n  jumpi\n    /* \"#utility.yul\":2196:2201   */\n  dup1\n    /* \"#utility.yul\":2193:2194   */\n  0x00\n    /* \"#utility.yul\":2186:2202   */\n  mstore\n    /* \"#utility.yul\":2240:2244   */\n  0x20\n    /* \"#utility.yul\":2237:2238   */\n  0x00\n    /* \"#utility.yul\":2227:2245   */\n  keccak256\n    /* \"#utility.yul\":2310:2312   */\n  0x1f\n    /* \"#utility.yul\":2298:2308   */\n  dup5\n    /* \"#utility.yul\":2294:2313   */\n  add\n    /* \"#utility.yul\":2291:2292   */\n  0x05\n    /* \"#utility.yul\":2287:2314   */\n  shr\n    /* \"#utility.yul\":2281:2285   */\n  dup2\n    /* \"#utility.yul\":2277:2315   */\n  add\n    /* \"#utility.yul\":2346:2350   */\n  0x20\n    /* \"#utility.yul\":2334:2344   */\n  dup6\n    /* \"#utility.yul\":2331:2351   */\n  lt\n    /* \"#utility.yul\":2328:2375   */\n  iszero\n  tag_44\n  jumpi\n  pop\n    /* \"#utility.yul\":2369:2373   */\n  dup1\n    /* \"#utility.yul\":2328:2375   */\ntag_44:\n    /* \"#utility.yul\":2424:2426   */\n  0x1f\n    /* \"#utility.yul\":2419:2422   */\n  dup5\n    /* \"#utility.yul\":2415:2427   */\n  add\n    /* \"#utility.yul\":2412:2413   */\n  0x05\n    /* \"#utility.yul\":2408:2428   */\n  shr\n    /* \"#utility.yul\":2402:2406   */\n  dup3\n    /* \"#utility.yul\":2398:2429   */\n  add\n    /* \"#utility.yul\":2388:2429   */\n  swap2\n  pop\n    /* \"#utility.yul\":2479:2560   */\ntag_45:\n    /* \"#utility.yul\":2497:2499   */\n  dup2\n    /* \"#utility.yul\":2490:2495   */\n  dup2\n    /* \"#utility.yul\":2487:2500   */\n  lt\n    /* \"#utility.yul\":2479:2560   */\n  iszero\n  tag_47\n  jumpi\n    /* \"#utility.yul\":2556:2557   */\n  0x00\n    /* \"#utility.yul\":2542:2558   */\n  dup2\n  sstore\n    /* \"#utility.yul\":2523:2524   */\n  0x01\n    /* \"#utility.yul\":2512:2525   */\n  add\n    /* \"#utility.yul\":2479:2560   */\n  jump(tag_45)\ntag_47:\n    /* \"#utility.yul\":2483:2486   */\n  pop\n  pop\n    /* \"#utility.yul\":2149:2570   */\ntag_43:\n    /* \"#utility.yul\":2058:2576   */\n  pop\n  pop\n  pop\n  jump\t// out\n    /* \"#utility.yul\":2752:4051   */\ntag_8:\n    /* \"#utility.yul\":2872:2882   */\n  dup2\n  mload\n  sub(shl(0x40, 0x01), 0x01)\n    /* \"#utility.yul\":2894:2924   */\n  dup2\n  gt\n    /* \"#utility.yul\":2891:2947   */\n  iszero\n  tag_51\n  jumpi\n    /* \"#utility.yul\":2927:2945   */\n  tag_51\n  tag_14\n  jump\t// in\ntag_51:\n    /* \"#utility.yul\":2956:3053   */\n  tag_52\n    /* \"#utility.yul\":3046:3052   */\n  dup2\n    /* \"#utility.yul\":3006:3044   */\n  tag_53\n    /* \"#utility.yul\":3038:3042   */\n  dup5\n    /* \"#utility.yul\":3032:3043   */\n  sload\n    /* \"#utility.yul\":3006:3044   */\n  tag_16\n  jump\t// in\ntag_53:\n    /* \"#utility.yul\":3000:3004   */\n  dup5\n    /* \"#utility.yul\":2956:3053   */\n  tag_18\n  jump\t// in\ntag_52:\n    /* \"#utility.yul\":3102:3106   */\n  0x20\n    /* \"#utility.yul\":3133:3135   */\n  0x1f\n    /* \"#utility.yul\":3122:3136   */\n  dup3\n  gt\n    /* \"#utility.yul\":3150:3151   */\n  0x01\n    /* \"#utility.yul\":3145:3794   */\n  dup2\n  eq\n  tag_55\n  jumpi\n    /* \"#utility.yul\":3838:3839   */\n  0x00\n    /* \"#utility.yul\":3855:3861   */\n  dup4\n    /* \"#utility.yul\":3852:3941   */\n  iszero\n  tag_56\n  jumpi\n  pop\n    /* \"#utility.yul\":3907:3926   */\n  dup5\n  dup3\n  add\n    /* \"#utility.yul\":3901:3927   */\n  mload\n    /* \"#utility.yul\":3852:3941   */\ntag_56:\n  not(0x00)\n    /* \"#utility.yul\":2709:2710   */\n  0x03\n    /* \"#utility.yul\":2705:2716   */\n  dup6\n  swap1\n  shl\n    /* \"#utility.yul\":2701:2725   */\n  shr\n    /* \"#utility.yul\":2697:2726   */\n  not\n    /* \"#utility.yul\":2687:2727   */\n  and\n    /* \"#utility.yul\":2733:2734   */\n  0x01\n    /* \"#utility.yul\":2729:2740   */\n  dup5\n  swap1\n  shl\n    /* \"#utility.yul\":2684:2741   */\n  or\n    /* \"#utility.yul\":3954:4035   */\n  dup5\n  sstore\n    /* \"#utility.yul\":3115:4045   */\n  jump(tag_47)\n    /* \"#utility.yul\":3145:3794   */\ntag_55:\n    /* \"#utility.yul\":2005:2006   */\n  0x00\n    /* \"#utility.yul\":1998:2012   */\n  dup5\n  dup2\n  mstore\n    /* \"#utility.yul\":2042:2046   */\n  0x20\n    /* \"#utility.yul\":2029:2047   */\n  dup2\n  keccak256\n  not(0x1f)\n    /* \"#utility.yul\":3181:3201   */\n  dup6\n  and\n  swap2\n    /* \"#utility.yul\":3299:3521   */\ntag_59:\n    /* \"#utility.yul\":3313:3320   */\n  dup3\n    /* \"#utility.yul\":3310:3311   */\n  dup2\n    /* \"#utility.yul\":3307:3321   */\n  lt\n    /* \"#utility.yul\":3299:3521   */\n  iszero\n  tag_61\n  jumpi\n    /* \"#utility.yul\":3395:3414   */\n  dup8\n  dup6\n  add\n    /* \"#utility.yul\":3389:3415   */\n  mload\n    /* \"#utility.yul\":3374:3416   */\n  dup3\n  sstore\n    /* \"#utility.yul\":3502:3506   */\n  0x20\n    /* \"#utility.yul\":3487:3507   */\n  swap5\n  dup6\n  add\n  swap5\n    /* \"#utility.yul\":3455:3456   */\n  0x01\n    /* \"#utility.yul\":3443:3457   */\n  swap1\n  swap3\n  add\n  swap2\n    /* \"#utility.yul\":3329:3341   */\n  add\n    /* \"#utility.yul\":3299:3521   */\n  jump(tag_59)\ntag_61:\n    /* \"#utility.yul\":3303:3306   */\n  pop\n    /* \"#utility.yul\":3549:3555   */\n  dup5\n    /* \"#utility.yul\":3540:3547   */\n  dup3\n    /* \"#utility.yul\":3537:3556   */\n  lt\n    /* \"#utility.yul\":3534:3735   */\n  iszero\n  tag_62\n  jumpi\n    /* \"#utility.yul\":3610:3629   */\n  dup7\n  dup5\n  add\n    /* \"#utility.yul\":3604:3630   */\n  mload\n  not(0x00)\n    /* \"#utility.yul\":3693:3694   */\n  0x03\n    /* \"#utility.yul\":3689:3703   */\n  dup8\n  swap1\n  shl\n    /* \"#utility.yul\":3705:3708   */\n  0xf8\n    /* \"#utility.yul\":3685:3709   */\n  and\n    /* \"#utility.yul\":3681:3718   */\n  shr\n    /* \"#utility.yul\":3677:3719   */\n  not\n    /* \"#utility.yul\":3662:3720   */\n  and\n    /* \"#utility.yul\":3647:3721   */\n  dup2\n  sstore\n    /* \"#utility.yul\":3534:3735   */\ntag_62:\n  pop\n  pop\n  pop\n  pop\n    /* \"#utility.yul\":3781:3782   */\n  0x01\n    /* \"#utility.yul\":3765:3779   */\n  swap1\n  dup2\n  shl\n    /* \"#utility.yul\":3761:3783   */\n  add\n    /* \"#utility.yul\":3748:3784   */\n  swap1\n  sstore\n  pop\n    /* \"#utility.yul\":2752:4051   */\n  jump\t// out\n    /* \"#utility.yul\":4056:4545   */\ntag_20:\n    /* \"Smart-Contract/PanjoCoin.sol\":5477:7602  contract ERC20Permit is ERC20 {... */\n  mload(0x80)\n  mload(0xa0)\n  codecopy(0x00, dataOffset(sub_0), dataSize(sub_0))\n  0x00\n  assignImmutable(\"0xe96cc20f241c05b09b05be99fa40d483e0c60480c24cfabd29fea373217f3b30\")\n  0x00\n  assignImmutable(\"0x4ce4dab4689da140a0c12de1a6af6b8f679594aeb723205f513e052d27f5b26f\")\n  return(0x00, dataSize(sub_0))\nstop\n\nsub_0: assembly {\n        /* \"Smart-Contract/PanjoCoin.sol\":5477:7602  contract ERC20Permit is ERC20 {... */\n      mstore(0x40, 0x80)\n      callvalue\n      dup1\n      iszero\n      tag_1\n      jumpi\n      0x00\n      dup1\n      revert\n    tag_1:\n      pop\n      jumpi(tag_2, lt(calldatasize, 0x04))\n      shr(0xe0, calldataload(0x00))\n      dup1\n      0x70a08231\n      gt\n      tag_17\n      jumpi\n      dup1\n      0xa457c2d7\n      gt\n      tag_18\n      jumpi\n      dup1\n      0xa457c2d7\n      eq\n      tag_13\n      jumpi\n      dup1\n      0xa9059cbb\n      eq\n      tag_14\n      jumpi\n      dup1\n      0xd505accf\n      eq\n      tag_15\n      jumpi\n      dup1\n      0xdd62ed3e\n      eq\n      tag_16\n      jumpi\n      0x00\n      dup1\n      revert\n    tag_18:\n      dup1\n      0x70a08231\n      eq\n      tag_10\n      jumpi\n      dup1\n      0x7ecebe00\n      eq\n      tag_11\n      jumpi\n      dup1\n      0x95d89b41\n      eq\n      tag_12\n      jumpi\n      0x00\n      dup1\n      revert\n    tag_17:\n      dup1\n      0x23b872dd\n      gt\n      tag_19\n      jumpi\n      dup1\n      0x23b872dd\n      eq\n      tag_6\n      jumpi\n      dup1\n      0x313ce567\n      eq\n      tag_7\n      jumpi\n      dup1\n      0x3644e515\n      eq\n      tag_8\n      jumpi\n      dup1\n      0x39509351\n      eq\n      tag_9\n      jumpi\n      0x00\n      dup1\n      revert\n    tag_19:\n      dup1\n      0x06fdde03\n      eq\n      tag_3\n      jumpi\n      dup1\n      0x095ea7b3\n      eq\n      tag_4\n      jumpi\n      dup1\n      0x18160ddd\n      eq\n      tag_5\n      jumpi\n    tag_2:\n      0x00\n      dup1\n      revert\n        /* \"Smart-Contract/PanjoCoin.sol\":1330:1399  function name() public view returns (string memory) { return _name; } */\n    tag_3:\n      tag_20\n      tag_21\n      jump\t// in\n    tag_20:\n      mload(0x40)\n      tag_22\n      swap2\n      swap1\n      tag_23\n      jump\t// in\n    tag_22:\n      mload(0x40)\n      dup1\n      swap2\n      sub\n      swap1\n      return\n        /* \"Smart-Contract/PanjoCoin.sol\":2063:2213  function approve(address spender, uint256 value) public returns (bool) {... */\n    tag_4:\n      tag_24\n      tag_25\n      calldatasize\n      0x04\n      tag_26\n      jump\t// in\n    tag_25:\n      tag_27\n      jump\t// in\n    tag_24:\n      mload(0x40)\n        /* \"#utility.yul\":1194:1208   */\n      swap1\n      iszero\n        /* \"#utility.yul\":1187:1209   */\n      iszero\n        /* \"#utility.yul\":1169:1210   */\n      dup2\n      mstore\n        /* \"#utility.yul\":1157:1159   */\n      0x20\n        /* \"#utility.yul\":1142:1160   */\n      add\n        /* \"Smart-Contract/PanjoCoin.sol\":2063:2213  function approve(address spender, uint256 value) public returns (bool) {... */\n      tag_22\n        /* \"#utility.yul\":1029:1216   */\n      jump\n        /* \"Smart-Contract/PanjoCoin.sol\":1554:1645  function totalSupply() public view returns (uint256) {... */\n    tag_5:\n        /* \"Smart-Contract/PanjoCoin.sol\":1625:1637  _totalSupply */\n      sload(0x02)\n        /* \"Smart-Contract/PanjoCoin.sol\":1554:1645  function totalSupply() public view returns (uint256) {... */\n    tag_30:\n      mload(0x40)\n        /* \"#utility.yul\":1367:1392   */\n      swap1\n      dup2\n      mstore\n        /* \"#utility.yul\":1355:1357   */\n      0x20\n        /* \"#utility.yul\":1340:1358   */\n      add\n        /* \"Smart-Contract/PanjoCoin.sol\":1554:1645  function totalSupply() public view returns (uint256) {... */\n      tag_22\n        /* \"#utility.yul\":1221:1398   */\n      jump\n        /* \"Smart-Contract/PanjoCoin.sol\":2221:2582  function transferFrom(address from, address to, uint256 value) public returns (bool) {... */\n    tag_6:\n      tag_24\n      tag_35\n      calldatasize\n      0x04\n      tag_36\n      jump\t// in\n    tag_35:\n      tag_37\n      jump\t// in\n        /* \"Smart-Contract/PanjoCoin.sol\":1484:1546  function decimals() public pure returns (uint8) { return 18; } */\n    tag_7:\n      mload(0x40)\n        /* \"Smart-Contract/PanjoCoin.sol\":1541:1543  18 */\n      0x12\n        /* \"#utility.yul\":1924:1960   */\n      dup2\n      mstore\n        /* \"#utility.yul\":1912:1914   */\n      0x20\n        /* \"#utility.yul\":1897:1915   */\n      add\n        /* \"Smart-Contract/PanjoCoin.sol\":1484:1546  function decimals() public pure returns (uint8) { return 18; } */\n      tag_22\n        /* \"#utility.yul\":1782:1966   */\n      jump\n        /* \"Smart-Contract/PanjoCoin.sol\":6322:6840  function DOMAIN_SEPARATOR() public view returns (bytes32) {... */\n    tag_8:\n      tag_30\n      tag_44\n      jump\t// in\n        /* \"Smart-Contract/PanjoCoin.sol\":2775:3007  function increaseAllowance(address spender, uint256 addedValue) public returns (bool) {... */\n    tag_9:\n      tag_24\n      tag_48\n      calldatasize\n      0x04\n      tag_26\n      jump\t// in\n    tag_48:\n      tag_49\n      jump\t// in\n        /* \"Smart-Contract/PanjoCoin.sol\":1653:1763  function balanceOf(address account) public view returns (uint256) {... */\n    tag_10:\n      tag_30\n      tag_52\n      calldatasize\n      0x04\n      tag_53\n      jump\t// in\n    tag_52:\n      sub(shl(0xa0, 0x01), 0x01)\n        /* \"Smart-Contract/PanjoCoin.sol\":1737:1755  _balances[account] */\n      and\n        /* \"Smart-Contract/PanjoCoin.sol\":1710:1717  uint256 */\n      0x00\n        /* \"Smart-Contract/PanjoCoin.sol\":1737:1755  _balances[account] */\n      swap1\n      dup2\n      mstore\n      0x20\n      dup2\n      swap1\n      mstore\n      0x40\n      swap1\n      keccak256\n      sload\n      swap1\n        /* \"Smart-Contract/PanjoCoin.sol\":1653:1763  function balanceOf(address account) public view returns (uint256) {... */\n      jump\n        /* \"Smart-Contract/PanjoCoin.sol\":5516:5557  mapping(address => uint256) public nonces */\n    tag_11:\n      tag_30\n      tag_57\n      calldatasize\n      0x04\n      tag_53\n      jump\t// in\n    tag_57:\n      mstore(0x20, 0x05)\n      0x00\n      swap1\n      dup2\n      mstore\n      0x40\n      swap1\n      keccak256\n      sload\n      dup2\n      jump\n        /* \"Smart-Contract/PanjoCoin.sol\":1405:1478  function symbol() public view returns (string memory) { return _symbol; } */\n    tag_12:\n      tag_20\n      tag_61\n      jump\t// in\n        /* \"Smart-Contract/PanjoCoin.sol\":3015:3402  function decreaseAllowance(address spender, uint256 subtractedValue) public returns (bool) {... */\n    tag_13:\n      tag_24\n      tag_64\n      calldatasize\n      0x04\n      tag_26\n      jump\t// in\n    tag_64:\n      tag_65\n      jump\t// in\n        /* \"Smart-Contract/PanjoCoin.sol\":1771:1913  function transfer(address to, uint256 value) public returns (bool) {... */\n    tag_14:\n      tag_24\n      tag_68\n      calldatasize\n      0x04\n      tag_26\n      jump\t// in\n    tag_68:\n      tag_69\n      jump\t// in\n        /* \"Smart-Contract/PanjoCoin.sol\":6848:7599  function permit(... */\n    tag_15:\n      tag_71\n      tag_72\n      calldatasize\n      0x04\n      tag_73\n      jump\t// in\n    tag_72:\n      tag_74\n      jump\t// in\n    tag_71:\n      stop\n        /* \"Smart-Contract/PanjoCoin.sol\":1921:2055  function allowance(address owner, address spender) public view returns (uint256) {... */\n    tag_16:\n      tag_30\n      tag_76\n      calldatasize\n      0x04\n      tag_77\n      jump\t// in\n    tag_76:\n      sub(shl(0xa0, 0x01), 0x01)\n        /* \"Smart-Contract/PanjoCoin.sol\":2020:2038  _allowances[owner] */\n      swap2\n      dup3\n      and\n        /* \"Smart-Contract/PanjoCoin.sol\":1993:2000  uint256 */\n      0x00\n        /* \"Smart-Contract/PanjoCoin.sol\":2020:2038  _allowances[owner] */\n      swap1\n      dup2\n      mstore\n        /* \"Smart-Contract/PanjoCoin.sol\":2020:2031  _allowances */\n      0x01\n        /* \"Smart-Contract/PanjoCoin.sol\":2020:2038  _allowances[owner] */\n      0x20\n      swap1\n      dup2\n      mstore\n      0x40\n      dup1\n      dup4\n      keccak256\n        /* \"Smart-Contract/PanjoCoin.sol\":2020:2047  _allowances[owner][spender] */\n      swap4\n      swap1\n      swap5\n      and\n      dup3\n      mstore\n      swap2\n      swap1\n      swap2\n      mstore\n      keccak256\n      sload\n      swap1\n        /* \"Smart-Contract/PanjoCoin.sol\":1921:2055  function allowance(address owner, address spender) public view returns (uint256) {... */\n      jump\n        /* \"Smart-Contract/PanjoCoin.sol\":1330:1399  function name() public view returns (string memory) { return _name; } */\n    tag_21:\n        /* \"Smart-Contract/PanjoCoin.sol\":1367:1380  string memory */\n      0x60\n        /* \"Smart-Contract/PanjoCoin.sol\":1391:1396  _name */\n      0x03\n        /* \"Smart-Contract/PanjoCoin.sol\":1384:1396  return _name */\n      dup1\n      sload\n      tag_81\n      swap1\n      tag_82\n      jump\t// in\n    tag_81:\n      dup1\n      0x1f\n      add\n      0x20\n      dup1\n      swap2\n      div\n      mul\n      0x20\n      add\n      mload(0x40)\n      swap1\n      dup2\n      add\n      0x40\n      mstore\n      dup1\n      swap3\n      swap2\n      swap1\n      dup2\n      dup2\n      mstore\n      0x20\n      add\n      dup3\n      dup1\n      sload\n      tag_83\n      swap1\n      tag_82\n      jump\t// in\n    tag_83:\n      dup1\n      iszero\n      tag_84\n      jumpi\n      dup1\n      0x1f\n      lt\n      tag_85\n      jumpi\n      0x0100\n      dup1\n      dup4\n      sload\n      div\n      mul\n      dup4\n      mstore\n      swap2\n      0x20\n      add\n      swap2\n      jump(tag_84)\n    tag_85:\n      dup3\n      add\n      swap2\n      swap1\n      0x00\n      mstore\n      keccak256(0x00, 0x20)\n      swap1\n    tag_86:\n      dup2\n      sload\n      dup2\n      mstore\n      swap1\n      0x01\n      add\n      swap1\n      0x20\n      add\n      dup1\n      dup4\n      gt\n      tag_86\n      jumpi\n      dup3\n      swap1\n      sub\n      0x1f\n      and\n      dup3\n      add\n      swap2\n    tag_84:\n      pop\n      pop\n      pop\n      pop\n      pop\n      swap1\n      pop\n        /* \"Smart-Contract/PanjoCoin.sol\":1330:1399  function name() public view returns (string memory) { return _name; } */\n      swap1\n      jump\t// out\n        /* \"Smart-Contract/PanjoCoin.sol\":2063:2213  function approve(address spender, uint256 value) public returns (bool) {... */\n    tag_27:\n        /* \"Smart-Contract/PanjoCoin.sol\":2128:2132  bool */\n      0x00\n        /* \"Smart-Contract/PanjoCoin.sol\":2145:2183  _approve(_msgSender(), spender, value) */\n      tag_88\n        /* \"Smart-Contract/PanjoCoin.sol\":750:760  msg.sender */\n      caller\n        /* \"Smart-Contract/PanjoCoin.sol\":2168:2175  spender */\n      dup5\n        /* \"Smart-Contract/PanjoCoin.sol\":2177:2182  value */\n      dup5\n        /* \"Smart-Contract/PanjoCoin.sol\":2145:2153  _approve */\n      tag_91\n        /* \"Smart-Contract/PanjoCoin.sol\":2145:2183  _approve(_msgSender(), spender, value) */\n      jump\t// in\n    tag_88:\n      pop\n        /* \"Smart-Contract/PanjoCoin.sol\":2201:2205  true */\n      0x01\n        /* \"Smart-Contract/PanjoCoin.sol\":2063:2213  function approve(address spender, uint256 value) public returns (bool) {... */\n    tag_87:\n      swap3\n      swap2\n      pop\n      pop\n      jump\t// out\n        /* \"Smart-Contract/PanjoCoin.sol\":2221:2582  function transferFrom(address from, address to, uint256 value) public returns (bool) {... */\n    tag_37:\n      sub(shl(0xa0, 0x01), 0x01)\n        /* \"Smart-Contract/PanjoCoin.sol\":2335:2352  _allowances[from] */\n      dup4\n      and\n        /* \"Smart-Contract/PanjoCoin.sol\":2300:2304  bool */\n      0x00\n        /* \"Smart-Contract/PanjoCoin.sol\":2335:2352  _allowances[from] */\n      swap1\n      dup2\n      mstore\n        /* \"Smart-Contract/PanjoCoin.sol\":2335:2346  _allowances */\n      0x01\n        /* \"Smart-Contract/PanjoCoin.sol\":2335:2352  _allowances[from] */\n      0x20\n      swap1\n      dup2\n      mstore\n      0x40\n      dup1\n      dup4\n      keccak256\n        /* \"Smart-Contract/PanjoCoin.sol\":750:760  msg.sender */\n      caller\n        /* \"Smart-Contract/PanjoCoin.sol\":2335:2366  _allowances[from][_msgSender()] */\n      dup5\n      mstore\n      swap1\n      swap2\n      mstore\n      dup2\n      keccak256\n      sload\n        /* \"Smart-Contract/PanjoCoin.sol\":2385:2401  current >= value */\n      dup3\n      dup2\n      lt\n      iszero\n        /* \"Smart-Contract/PanjoCoin.sol\":2377:2419  require(current >= value, \"ALLOWANCE_LOW\") */\n      tag_95\n      jumpi\n      mload(0x40)\n      shl(0xe5, 0x461bcd)\n      dup2\n      mstore\n        /* \"#utility.yul\":4104:4106   */\n      0x20\n        /* \"Smart-Contract/PanjoCoin.sol\":2377:2419  require(current >= value, \"ALLOWANCE_LOW\") */\n      0x04\n      dup3\n      add\n        /* \"#utility.yul\":4086:4107   */\n      mstore\n        /* \"#utility.yul\":4143:4145   */\n      0x0d\n        /* \"#utility.yul\":4123:4141   */\n      0x24\n      dup3\n      add\n        /* \"#utility.yul\":4116:4146   */\n      mstore\n      shl(0x98, 0x414c4c4f57414e43455f4c4f57)\n        /* \"#utility.yul\":4162:4180   */\n      0x44\n      dup3\n      add\n        /* \"#utility.yul\":4155:4198   */\n      mstore\n        /* \"#utility.yul\":4215:4233   */\n      0x64\n      add\n        /* \"Smart-Contract/PanjoCoin.sol\":2377:2419  require(current >= value, \"ALLOWANCE_LOW\") */\n    tag_96:\n      mload(0x40)\n      dup1\n      swap2\n      sub\n      swap1\n      revert\n    tag_95:\n        /* \"Smart-Contract/PanjoCoin.sol\":2457:2502  _approve(from, _msgSender(), current - value) */\n      tag_98\n        /* \"Smart-Contract/PanjoCoin.sol\":2466:2470  from */\n      dup6\n        /* \"Smart-Contract/PanjoCoin.sol\":750:760  msg.sender */\n      caller\n        /* \"Smart-Contract/PanjoCoin.sol\":2496:2501  value */\n      dup6\n        /* \"Smart-Contract/PanjoCoin.sol\":2486:2493  current */\n      dup5\n        /* \"Smart-Contract/PanjoCoin.sol\":2486:2501  current - value */\n      sub\n        /* \"Smart-Contract/PanjoCoin.sol\":2457:2465  _approve */\n      tag_91\n        /* \"Smart-Contract/PanjoCoin.sol\":2457:2502  _approve(from, _msgSender(), current - value) */\n      jump\t// in\n    tag_98:\n        /* \"Smart-Contract/PanjoCoin.sol\":2526:2552  _transfer(from, to, value) */\n      tag_100\n        /* \"Smart-Contract/PanjoCoin.sol\":2536:2540  from */\n      dup6\n        /* \"Smart-Contract/PanjoCoin.sol\":2542:2544  to */\n      dup6\n        /* \"Smart-Contract/PanjoCoin.sol\":2546:2551  value */\n      dup6\n        /* \"Smart-Contract/PanjoCoin.sol\":2526:2535  _transfer */\n      tag_101\n        /* \"Smart-Contract/PanjoCoin.sol\":2526:2552  _transfer(from, to, value) */\n      jump\t// in\n    tag_100:\n      pop\n        /* \"Smart-Contract/PanjoCoin.sol\":2570:2574  true */\n      0x01\n      swap5\n        /* \"Smart-Contract/PanjoCoin.sol\":2221:2582  function transferFrom(address from, address to, uint256 value) public returns (bool) {... */\n      swap4\n      pop\n      pop\n      pop\n      pop\n      jump\t// out\n        /* \"Smart-Contract/PanjoCoin.sol\":6322:6840  function DOMAIN_SEPARATOR() public view returns (bytes32) {... */\n    tag_44:\n        /* \"Smart-Contract/PanjoCoin.sol\":6371:6378  bytes32 */\n      0x00\n        /* \"Smart-Contract/PanjoCoin.sol\":6415:6431  _CACHED_CHAIN_ID */\n      immutable(\"0xe96cc20f241c05b09b05be99fa40d483e0c60480c24cfabd29fea373217f3b30\")\n        /* \"Smart-Contract/PanjoCoin.sol\":6398:6411  block.chainid */\n      chainid\n        /* \"Smart-Contract/PanjoCoin.sol\":6398:6431  block.chainid == _CACHED_CHAIN_ID */\n      eq\n        /* \"Smart-Contract/PanjoCoin.sol\":6398:6832  block.chainid == _CACHED_CHAIN_ID... */\n      tag_104\n      jumpi\n        /* \"Smart-Contract/PanjoCoin.sol\":6541:6636  keccak256(\"EIP712Domain(string name,string version,uint256 chainid,address verifyingContract)\") */\n      0x1a83649f11a3e56d58ed3274189f99ab6137d641dfdfdeb45dd06a89f72c4e52\n        /* \"Smart-Contract/PanjoCoin.sol\":6675:6680  _name */\n      0x03\n        /* \"Smart-Contract/PanjoCoin.sol\":6659:6682  keccak256(bytes(_name)) */\n      mload(0x40)\n      tag_105\n      swap2\n      swap1\n      tag_106\n      jump\t// in\n    tag_105:\n      0x40\n      dup1\n      mload\n      swap2\n      dup3\n      swap1\n      sub\n      dup3\n      keccak256\n        /* \"Smart-Contract/PanjoCoin.sol\":6715:6725  bytes(\"1\") */\n      dup3\n      dup3\n      add\n      dup3\n      mstore\n      0x01\n      dup4\n      mstore\n      shl(0xf8, 0x31)\n      0x20\n      swap4\n      dup5\n      add\n      mstore\n        /* \"Smart-Contract/PanjoCoin.sol\":6508:6817  abi.encode(... */\n      dup2\n      mload\n      swap3\n      dup4\n      add\n        /* \"#utility.yul\":5726:5751   */\n      swap4\n      swap1\n      swap4\n      mstore\n        /* \"#utility.yul\":5767:5785   */\n      dup2\n      add\n        /* \"#utility.yul\":5760:5794   */\n      swap2\n      swap1\n      swap2\n      mstore\n        /* \"Smart-Contract/PanjoCoin.sol\":6705:6726  keccak256(bytes(\"1\")) */\n      0xc89efdaa54c0f20c7adf612882df0950f5a951637e0307cdcb4c672f298b8bc6\n        /* \"#utility.yul\":5810:5828   */\n      0x60\n      dup3\n      add\n        /* \"#utility.yul\":5803:5837   */\n      mstore\n        /* \"Smart-Contract/PanjoCoin.sol\":6749:6762  block.chainid */\n      chainid\n        /* \"#utility.yul\":5853:5871   */\n      0x80\n      dup3\n      add\n        /* \"#utility.yul\":5846:5880   */\n      mstore\n        /* \"Smart-Contract/PanjoCoin.sol\":6793:6797  this */\n      address\n        /* \"#utility.yul\":5896:5915   */\n      0xa0\n      dup3\n      add\n        /* \"#utility.yul\":5889:5950   */\n      mstore\n        /* \"#utility.yul\":5698:5717   */\n      0xc0\n      add\n        /* \"Smart-Contract/PanjoCoin.sol\":6508:6817  abi.encode(... */\n      mload(0x40)\n      0x20\n      dup2\n      dup4\n      sub\n      sub\n      dup2\n      mstore\n      swap1\n      0x40\n      mstore\n        /* \"Smart-Contract/PanjoCoin.sol\":6480:6832  keccak256(... */\n      dup1\n      mload\n      swap1\n      0x20\n      add\n      keccak256\n        /* \"Smart-Contract/PanjoCoin.sol\":6391:6832  return block.chainid == _CACHED_CHAIN_ID... */\n      swap1\n      pop\n        /* \"Smart-Contract/PanjoCoin.sol\":6322:6840  function DOMAIN_SEPARATOR() public view returns (bytes32) {... */\n      swap1\n      jump\t// out\n        /* \"Smart-Contract/PanjoCoin.sol\":6398:6832  block.chainid == _CACHED_CHAIN_ID... */\n    tag_104:\n      pop\n        /* \"Smart-Contract/PanjoCoin.sol\":6447:6464  _DOMAIN_SEPARATOR */\n      immutable(\"0x4ce4dab4689da140a0c12de1a6af6b8f679594aeb723205f513e052d27f5b26f\")\n      swap1\n        /* \"Smart-Contract/PanjoCoin.sol\":6322:6840  function DOMAIN_SEPARATOR() public view returns (bytes32) {... */\n      jump\t// out\n        /* \"Smart-Contract/PanjoCoin.sol\":2775:3007  function increaseAllowance(address spender, uint256 addedValue) public returns (bool) {... */\n    tag_49:\n        /* \"Smart-Contract/PanjoCoin.sol\":750:760  msg.sender */\n      caller\n        /* \"Smart-Contract/PanjoCoin.sol\":2855:2859  bool */\n      0x00\n        /* \"Smart-Contract/PanjoCoin.sol\":2936:2954  _allowances[owner] */\n      dup2\n      dup2\n      mstore\n        /* \"Smart-Contract/PanjoCoin.sol\":2936:2947  _allowances */\n      0x01\n        /* \"Smart-Contract/PanjoCoin.sol\":2936:2954  _allowances[owner] */\n      0x20\n      swap1\n      dup2\n      mstore\n      0x40\n      dup1\n      dup4\n      keccak256\n      sub(shl(0xa0, 0x01), 0x01)\n        /* \"Smart-Contract/PanjoCoin.sol\":2936:2963  _allowances[owner][spender] */\n      dup8\n      and\n      dup5\n      mstore\n      swap1\n      swap2\n      mstore\n      dup2\n      keccak256\n      sload\n        /* \"Smart-Contract/PanjoCoin.sol\":2855:2859  bool */\n      swap1\n      swap2\n        /* \"Smart-Contract/PanjoCoin.sol\":750:760  msg.sender */\n      swap1\n        /* \"Smart-Contract/PanjoCoin.sol\":2911:2977  _approve(owner, spender, _allowances[owner][spender] + addedValue) */\n      tag_112\n      swap1\n        /* \"Smart-Contract/PanjoCoin.sol\":750:760  msg.sender */\n      dup3\n      swap1\n        /* \"Smart-Contract/PanjoCoin.sol\":2936:2963  _allowances[owner][spender] */\n      dup7\n      swap1\n        /* \"Smart-Contract/PanjoCoin.sol\":2936:2976  _allowances[owner][spender] + addedValue */\n      tag_113\n      swap1\n        /* \"Smart-Contract/PanjoCoin.sol\":2966:2976  addedValue */\n      dup8\n      swap1\n        /* \"Smart-Contract/PanjoCoin.sol\":2936:2976  _allowances[owner][spender] + addedValue */\n      tag_114\n      jump\t// in\n    tag_113:\n        /* \"Smart-Contract/PanjoCoin.sol\":2911:2919  _approve */\n      tag_91\n        /* \"Smart-Contract/PanjoCoin.sol\":2911:2977  _approve(owner, spender, _allowances[owner][spender] + addedValue) */\n      jump\t// in\n    tag_112:\n      pop\n        /* \"Smart-Contract/PanjoCoin.sol\":2995:2999  true */\n      0x01\n      swap4\n        /* \"Smart-Contract/PanjoCoin.sol\":2775:3007  function increaseAllowance(address spender, uint256 addedValue) public returns (bool) {... */\n      swap3\n      pop\n      pop\n      pop\n      jump\t// out\n        /* \"Smart-Contract/PanjoCoin.sol\":1405:1478  function symbol() public view returns (string memory) { return _symbol; } */\n    tag_61:\n        /* \"Smart-Contract/PanjoCoin.sol\":1444:1457  string memory */\n      0x60\n        /* \"Smart-Contract/PanjoCoin.sol\":1468:1475  _symbol */\n      0x04\n        /* \"Smart-Contract/PanjoCoin.sol\":1461:1475  return _symbol */\n      dup1\n      sload\n      tag_81\n      swap1\n      tag_82\n      jump\t// in\n        /* \"Smart-Contract/PanjoCoin.sol\":3015:3402  function decreaseAllowance(address spender, uint256 subtractedValue) public returns (bool) {... */\n    tag_65:\n        /* \"Smart-Contract/PanjoCoin.sol\":750:760  msg.sender */\n      caller\n        /* \"Smart-Contract/PanjoCoin.sol\":3100:3104  bool */\n      0x00\n        /* \"Smart-Contract/PanjoCoin.sol\":3174:3192  _allowances[owner] */\n      dup2\n      dup2\n      mstore\n        /* \"Smart-Contract/PanjoCoin.sol\":3174:3185  _allowances */\n      0x01\n        /* \"Smart-Contract/PanjoCoin.sol\":3174:3192  _allowances[owner] */\n      0x20\n      swap1\n      dup2\n      mstore\n      0x40\n      dup1\n      dup4\n      keccak256\n      sub(shl(0xa0, 0x01), 0x01)\n        /* \"Smart-Contract/PanjoCoin.sol\":3174:3201  _allowances[owner][spender] */\n      dup8\n      and\n      dup5\n      mstore\n      swap1\n      swap2\n      mstore\n      dup2\n      keccak256\n      sload\n        /* \"Smart-Contract/PanjoCoin.sol\":3100:3104  bool */\n      swap1\n      swap2\n        /* \"Smart-Contract/PanjoCoin.sol\":750:760  msg.sender */\n      swap1\n        /* \"Smart-Contract/PanjoCoin.sol\":3220:3246  current >= subtractedValue */\n      dup4\n      dup2\n      lt\n      iszero\n        /* \"Smart-Contract/PanjoCoin.sol\":3212:3270  require(current >= subtractedValue, \"ALLOWANCE_UNDERFLOW\") */\n      tag_124\n      jumpi\n      mload(0x40)\n      shl(0xe5, 0x461bcd)\n      dup2\n      mstore\n        /* \"#utility.yul\":6425:6427   */\n      0x20\n        /* \"Smart-Contract/PanjoCoin.sol\":3212:3270  require(current >= subtractedValue, \"ALLOWANCE_UNDERFLOW\") */\n      0x04\n      dup3\n      add\n        /* \"#utility.yul\":6407:6428   */\n      mstore\n        /* \"#utility.yul\":6464:6466   */\n      0x13\n        /* \"#utility.yul\":6444:6462   */\n      0x24\n      dup3\n      add\n        /* \"#utility.yul\":6437:6467   */\n      mstore\n      shl(0x68, 0x414c4c4f57414e43455f554e444552464c4f57)\n        /* \"#utility.yul\":6483:6501   */\n      0x44\n      dup3\n      add\n        /* \"#utility.yul\":6476:6525   */\n      mstore\n        /* \"#utility.yul\":6542:6560   */\n      0x64\n      add\n        /* \"Smart-Contract/PanjoCoin.sol\":3212:3270  require(current >= subtractedValue, \"ALLOWANCE_UNDERFLOW\") */\n      tag_96\n        /* \"#utility.yul\":6223:6566   */\n      jump\n        /* \"Smart-Contract/PanjoCoin.sol\":3212:3270  require(current >= subtractedValue, \"ALLOWANCE_UNDERFLOW\") */\n    tag_124:\n        /* \"Smart-Contract/PanjoCoin.sol\":3308:3359  _approve(owner, spender, current - subtractedValue) */\n      tag_100\n        /* \"Smart-Contract/PanjoCoin.sol\":3317:3322  owner */\n      dup3\n        /* \"Smart-Contract/PanjoCoin.sol\":3324:3331  spender */\n      dup7\n        /* \"Smart-Contract/PanjoCoin.sol\":3343:3358  subtractedValue */\n      dup7\n        /* \"Smart-Contract/PanjoCoin.sol\":3333:3340  current */\n      dup5\n        /* \"Smart-Contract/PanjoCoin.sol\":3333:3358  current - subtractedValue */\n      sub\n        /* \"Smart-Contract/PanjoCoin.sol\":3308:3316  _approve */\n      tag_91\n        /* \"Smart-Contract/PanjoCoin.sol\":3308:3359  _approve(owner, spender, current - subtractedValue) */\n      jump\t// in\n        /* \"Smart-Contract/PanjoCoin.sol\":1771:1913  function transfer(address to, uint256 value) public returns (bool) {... */\n    tag_69:\n        /* \"Smart-Contract/PanjoCoin.sol\":1832:1836  bool */\n      0x00\n        /* \"Smart-Contract/PanjoCoin.sol\":1849:1883  _transfer(_msgSender(), to, value) */\n      tag_88\n        /* \"Smart-Contract/PanjoCoin.sol\":750:760  msg.sender */\n      caller\n        /* \"Smart-Contract/PanjoCoin.sol\":1873:1875  to */\n      dup5\n        /* \"Smart-Contract/PanjoCoin.sol\":1877:1882  value */\n      dup5\n        /* \"Smart-Contract/PanjoCoin.sol\":1849:1858  _transfer */\n      tag_101\n        /* \"Smart-Contract/PanjoCoin.sol\":1849:1883  _transfer(_msgSender(), to, value) */\n      jump\t// in\n        /* \"Smart-Contract/PanjoCoin.sol\":6848:7599  function permit(... */\n    tag_74:\n        /* \"Smart-Contract/PanjoCoin.sol\":7077:7085  deadline */\n      dup4\n        /* \"Smart-Contract/PanjoCoin.sol\":7058:7073  block.timestamp */\n      timestamp\n        /* \"Smart-Contract/PanjoCoin.sol\":7058:7085  block.timestamp <= deadline */\n      gt\n      iszero\n        /* \"Smart-Contract/PanjoCoin.sol\":7050:7097  require(block.timestamp <= deadline, \"EXPIRED\") */\n      tag_132\n      jumpi\n      mload(0x40)\n      shl(0xe5, 0x461bcd)\n      dup2\n      mstore\n        /* \"#utility.yul\":6773:6775   */\n      0x20\n        /* \"Smart-Contract/PanjoCoin.sol\":7050:7097  require(block.timestamp <= deadline, \"EXPIRED\") */\n      0x04\n      dup3\n      add\n        /* \"#utility.yul\":6755:6776   */\n      mstore\n        /* \"#utility.yul\":6812:6813   */\n      0x07\n        /* \"#utility.yul\":6792:6810   */\n      0x24\n      dup3\n      add\n        /* \"#utility.yul\":6785:6814   */\n      mstore\n      shl(0xca, 0x11561412549151)\n        /* \"#utility.yul\":6830:6848   */\n      0x44\n      dup3\n      add\n        /* \"#utility.yul\":6823:6860   */\n      mstore\n        /* \"#utility.yul\":6877:6895   */\n      0x64\n      add\n        /* \"Smart-Contract/PanjoCoin.sol\":7050:7097  require(block.timestamp <= deadline, \"EXPIRED\") */\n      tag_96\n        /* \"#utility.yul\":6571:6901   */\n      jump\n        /* \"Smart-Contract/PanjoCoin.sol\":7050:7097  require(block.timestamp <= deadline, \"EXPIRED\") */\n    tag_132:\n      sub(shl(0xa0, 0x01), 0x01)\n        /* \"Smart-Contract/PanjoCoin.sol\":7126:7139  nonces[owner] */\n      dup8\n      and\n        /* \"Smart-Contract/PanjoCoin.sol\":7110:7123  uint256 nonce */\n      0x00\n        /* \"Smart-Contract/PanjoCoin.sol\":7126:7139  nonces[owner] */\n      swap1\n      dup2\n      mstore\n        /* \"Smart-Contract/PanjoCoin.sol\":7126:7132  nonces */\n      0x05\n        /* \"Smart-Contract/PanjoCoin.sol\":7126:7139  nonces[owner] */\n      0x20\n      mstore\n      0x40\n      dup2\n      keccak256\n        /* \"Smart-Contract/PanjoCoin.sol\":7126:7141  nonces[owner]++ */\n      dup1\n      sload\n      swap1\n        /* \"Smart-Contract/PanjoCoin.sol\":7110:7123  uint256 nonce */\n      dup3\n        /* \"Smart-Contract/PanjoCoin.sol\":7126:7141  nonces[owner]++ */\n      tag_135\n      dup4\n      tag_136\n      jump\t// in\n    tag_135:\n      swap1\n      swap2\n      sstore\n      pop\n        /* \"Smart-Contract/PanjoCoin.sol\":7199:7266  abi.encode(PERMIT_TYPEHASH, owner, spender, value, nonce, deadline) */\n      0x40\n      dup1\n      mload\n        /* \"Smart-Contract/PanjoCoin.sol\":5719:5814  keccak256(\"Permit(address owner,address spender,uint256 value,uint256 nonce,uint256 deadline)\") */\n      0x6e71edae12b1b97f4d1f60370fef10105fa2faae0126114a169c64845d6126c9\n        /* \"Smart-Contract/PanjoCoin.sol\":7199:7266  abi.encode(PERMIT_TYPEHASH, owner, spender, value, nonce, deadline) */\n      0x20\n      dup1\n      dup4\n      add\n        /* \"#utility.yul\":7333:7358   */\n      swap2\n      swap1\n      swap2\n      mstore\n      sub(shl(0xa0, 0x01), 0x01)\n        /* \"#utility.yul\":7394:7426   */\n      dup13\n      dup2\n      and\n        /* \"#utility.yul\":7374:7392   */\n      dup4\n      dup6\n      add\n        /* \"#utility.yul\":7367:7427   */\n      mstore\n        /* \"#utility.yul\":7463:7495   */\n      dup12\n      and\n        /* \"#utility.yul\":7443:7461   */\n      0x60\n      dup4\n      add\n        /* \"#utility.yul\":7436:7496   */\n      mstore\n        /* \"#utility.yul\":7512:7530   */\n      0x80\n      dup3\n      add\n        /* \"#utility.yul\":7505:7539   */\n      dup11\n      swap1\n      mstore\n        /* \"#utility.yul\":7555:7574   */\n      0xa0\n      dup3\n      add\n        /* \"#utility.yul\":7548:7583   */\n      dup5\n      swap1\n      mstore\n        /* \"#utility.yul\":7599:7618   */\n      0xc0\n      dup1\n      dup4\n      add\n        /* \"#utility.yul\":7592:7627   */\n      dup11\n      swap1\n      mstore\n        /* \"Smart-Contract/PanjoCoin.sol\":7199:7266  abi.encode(PERMIT_TYPEHASH, owner, spender, value, nonce, deadline) */\n      dup4\n      mload\n      dup1\n      dup5\n      sub\n      swap1\n      swap2\n      add\n      dup2\n      mstore\n        /* \"#utility.yul\":7305:7324   */\n      0xe0\n      swap1\n      swap3\n      add\n        /* \"Smart-Contract/PanjoCoin.sol\":7199:7266  abi.encode(PERMIT_TYPEHASH, owner, spender, value, nonce, deadline) */\n      swap1\n      swap3\n      mstore\n        /* \"Smart-Contract/PanjoCoin.sol\":7175:7277  keccak256(... */\n      dup1\n      mload\n      swap2\n      add\n      keccak256\n        /* \"#utility.yul\":7548:7583   */\n      swap1\n      swap2\n      pop\n      0x00\n        /* \"Smart-Contract/PanjoCoin.sol\":7360:7378  DOMAIN_SEPARATOR() */\n      tag_139\n        /* \"Smart-Contract/PanjoCoin.sol\":7360:7376  DOMAIN_SEPARATOR */\n      tag_44\n        /* \"Smart-Contract/PanjoCoin.sol\":7360:7378  DOMAIN_SEPARATOR() */\n      jump\t// in\n    tag_139:\n        /* \"Smart-Contract/PanjoCoin.sol\":7331:7391  abi.encodePacked(\"\\x19\\x01\", DOMAIN_SEPARATOR(), structHash) */\n      mload(0x40)\n      shl(0xf0, 0x1901)\n      0x20\n      dup3\n      add\n        /* \"#utility.yul\":7896:7923   */\n      mstore\n        /* \"#utility.yul\":7939:7950   */\n      0x22\n      dup2\n      add\n        /* \"#utility.yul\":7932:7959   */\n      swap2\n      swap1\n      swap2\n      mstore\n        /* \"#utility.yul\":7975:7987   */\n      0x42\n      dup2\n      add\n        /* \"#utility.yul\":7968:7996   */\n      dup4\n      swap1\n      mstore\n        /* \"#utility.yul\":8012:8024   */\n      0x62\n      add\n        /* \"Smart-Contract/PanjoCoin.sol\":7331:7391  abi.encodePacked(\"\\x19\\x01\", DOMAIN_SEPARATOR(), structHash) */\n      0x40\n      dup1\n      mload\n      not(0x1f)\n      dup2\n      dup5\n      sub\n      add\n      dup2\n      mstore\n      dup3\n      dup3\n      mstore\n        /* \"Smart-Contract/PanjoCoin.sol\":7307:7402  keccak256(... */\n      dup1\n      mload\n        /* \"Smart-Contract/PanjoCoin.sol\":7331:7391  abi.encodePacked(\"\\x19\\x01\", DOMAIN_SEPARATOR(), structHash) */\n      0x20\n        /* \"Smart-Contract/PanjoCoin.sol\":7307:7402  keccak256(... */\n      swap2\n      dup3\n      add\n      keccak256\n        /* \"Smart-Contract/PanjoCoin.sol\":7415:7432  address recovered */\n      0x00\n        /* \"Smart-Contract/PanjoCoin.sol\":7435:7461  ecrecover(digest, v, r, s) */\n      dup1\n      dup6\n      mstore\n      swap2\n      dup5\n      add\n      dup1\n      dup5\n      mstore\n        /* \"#utility.yul\":8262:8287   */\n      dup2\n      swap1\n      mstore\n        /* \"#utility.yul\":8335:8339   */\n      0xff\n        /* \"#utility.yul\":8323:8340   */\n      dup11\n      and\n        /* \"#utility.yul\":8303:8321   */\n      swap3\n      dup5\n      add\n        /* \"#utility.yul\":8296:8341   */\n      swap3\n      swap1\n      swap3\n      mstore\n        /* \"#utility.yul\":8357:8375   */\n      0x60\n      dup4\n      add\n        /* \"#utility.yul\":8350:8384   */\n      dup9\n      swap1\n      mstore\n        /* \"#utility.yul\":8400:8418   */\n      0x80\n      dup4\n      add\n        /* \"#utility.yul\":8393:8427   */\n      dup8\n      swap1\n      mstore\n        /* \"Smart-Contract/PanjoCoin.sol\":7307:7402  keccak256(... */\n      swap1\n      swap3\n      pop\n        /* \"Smart-Contract/PanjoCoin.sol\":7415:7432  address recovered */\n      swap1\n        /* \"Smart-Contract/PanjoCoin.sol\":7435:7461  ecrecover(digest, v, r, s) */\n      0x01\n      swap1\n        /* \"#utility.yul\":8234:8253   */\n      0xa0\n      add\n        /* \"Smart-Contract/PanjoCoin.sol\":7435:7461  ecrecover(digest, v, r, s) */\n      0x20\n      mload(0x40)\n      0x20\n      dup2\n      sub\n      swap1\n      dup1\n      dup5\n      sub\n      swap1\n      dup6\n      gas\n      staticcall\n      iszero\n      dup1\n      iszero\n      tag_145\n      jumpi\n      returndatasize\n      0x00\n      dup1\n      returndatacopy\n      revert(0x00, returndatasize)\n    tag_145:\n      pop\n      pop\n      pop\n      mload(sub(mload(0x40), 0x20))\n        /* \"Smart-Contract/PanjoCoin.sol\":7415:7461  address recovered = ecrecover(digest, v, r, s) */\n      swap1\n      pop\n        /* \"Smart-Contract/PanjoCoin.sol\":7493:7498  owner */\n      dup11\n      sub(shl(0xa0, 0x01), 0x01)\n        /* \"Smart-Contract/PanjoCoin.sol\":7480:7498  recovered == owner */\n      and\n        /* \"Smart-Contract/PanjoCoin.sol\":7480:7489  recovered */\n      dup2\n      sub(shl(0xa0, 0x01), 0x01)\n        /* \"Smart-Contract/PanjoCoin.sol\":7480:7498  recovered == owner */\n      and\n      eq\n        /* \"Smart-Contract/PanjoCoin.sol\":7480:7525  recovered == owner && recovered != address(0) */\n      dup1\n      iszero\n      tag_146\n      jumpi\n      pop\n      sub(shl(0xa0, 0x01), 0x01)\n        /* \"Smart-Contract/PanjoCoin.sol\":7502:7525  recovered != address(0) */\n      dup2\n      and\n      iszero\n      iszero\n        /* \"Smart-Contract/PanjoCoin.sol\":7480:7525  recovered == owner && recovered != address(0) */\n    tag_146:\n        /* \"Smart-Contract/PanjoCoin.sol\":7472:7547  require(recovered == owner && recovered != address(0), \"INVALID_SIGNATURE\") */\n      tag_147\n      jumpi\n      mload(0x40)\n      shl(0xe5, 0x461bcd)\n      dup2\n      mstore\n        /* \"#utility.yul\":8640:8642   */\n      0x20\n        /* \"Smart-Contract/PanjoCoin.sol\":7472:7547  require(recovered == owner && recovered != address(0), \"INVALID_SIGNATURE\") */\n      0x04\n      dup3\n      add\n        /* \"#utility.yul\":8622:8643   */\n      mstore\n        /* \"#utility.yul\":8679:8681   */\n      0x11\n        /* \"#utility.yul\":8659:8677   */\n      0x24\n      dup3\n      add\n        /* \"#utility.yul\":8652:8682   */\n      mstore\n      shl(0x78, 0x494e56414c49445f5349474e4154555245)\n        /* \"#utility.yul\":8698:8716   */\n      0x44\n      dup3\n      add\n        /* \"#utility.yul\":8691:8738   */\n      mstore\n        /* \"#utility.yul\":8755:8773   */\n      0x64\n      add\n        /* \"Smart-Contract/PanjoCoin.sol\":7472:7547  require(recovered == owner && recovered != address(0), \"INVALID_SIGNATURE\") */\n      tag_96\n        /* \"#utility.yul\":8438:8779   */\n      jump\n        /* \"Smart-Contract/PanjoCoin.sol\":7472:7547  require(recovered == owner && recovered != address(0), \"INVALID_SIGNATURE\") */\n    tag_147:\n        /* \"Smart-Contract/PanjoCoin.sol\":7560:7591  _approve(owner, spender, value) */\n      tag_150\n        /* \"Smart-Contract/PanjoCoin.sol\":7569:7574  owner */\n      dup12\n        /* \"Smart-Contract/PanjoCoin.sol\":7576:7583  spender */\n      dup12\n        /* \"Smart-Contract/PanjoCoin.sol\":7585:7590  value */\n      dup12\n        /* \"Smart-Contract/PanjoCoin.sol\":7560:7568  _approve */\n      tag_91\n        /* \"Smart-Contract/PanjoCoin.sol\":7560:7591  _approve(owner, spender, value) */\n      jump\t// in\n    tag_150:\n        /* \"Smart-Contract/PanjoCoin.sol\":7039:7599  {... */\n      pop\n      pop\n      pop\n      pop\n        /* \"Smart-Contract/PanjoCoin.sol\":6848:7599  function permit(... */\n      pop\n      pop\n      pop\n      pop\n      pop\n      pop\n      pop\n      jump\t// out\n        /* \"Smart-Contract/PanjoCoin.sol\":4666:4953  function _approve(address owner, address spender, uint256 value) internal {... */\n    tag_91:\n      sub(shl(0xa0, 0x01), 0x01)\n        /* \"Smart-Contract/PanjoCoin.sol\":4759:4778  owner != address(0) */\n      dup4\n      and\n        /* \"Smart-Contract/PanjoCoin.sol\":4751:4793  require(owner != address(0), \"OWNER_ZERO\") */\n      tag_154\n      jumpi\n      mload(0x40)\n      shl(0xe5, 0x461bcd)\n      dup2\n      mstore\n        /* \"#utility.yul\":8986:8988   */\n      0x20\n        /* \"Smart-Contract/PanjoCoin.sol\":4751:4793  require(owner != address(0), \"OWNER_ZERO\") */\n      0x04\n      dup3\n      add\n        /* \"#utility.yul\":8968:8989   */\n      mstore\n        /* \"#utility.yul\":9025:9027   */\n      0x0a\n        /* \"#utility.yul\":9005:9023   */\n      0x24\n      dup3\n      add\n        /* \"#utility.yul\":8998:9028   */\n      mstore\n      shl(0xb0, 0x4f574e45525f5a45524f)\n        /* \"#utility.yul\":9044:9062   */\n      0x44\n      dup3\n      add\n        /* \"#utility.yul\":9037:9077   */\n      mstore\n        /* \"#utility.yul\":9094:9112   */\n      0x64\n      add\n        /* \"Smart-Contract/PanjoCoin.sol\":4751:4793  require(owner != address(0), \"OWNER_ZERO\") */\n      tag_96\n        /* \"#utility.yul\":8784:9118   */\n      jump\n        /* \"Smart-Contract/PanjoCoin.sol\":4751:4793  require(owner != address(0), \"OWNER_ZERO\") */\n    tag_154:\n      sub(shl(0xa0, 0x01), 0x01)\n        /* \"Smart-Contract/PanjoCoin.sol\":4812:4833  spender != address(0) */\n      dup3\n      and\n        /* \"Smart-Contract/PanjoCoin.sol\":4804:4850  require(spender != address(0), \"SPENDER_ZERO\") */\n      tag_157\n      jumpi\n      mload(0x40)\n      shl(0xe5, 0x461bcd)\n      dup2\n      mstore\n        /* \"#utility.yul\":9325:9327   */\n      0x20\n        /* \"Smart-Contract/PanjoCoin.sol\":4804:4850  require(spender != address(0), \"SPENDER_ZERO\") */\n      0x04\n      dup3\n      add\n        /* \"#utility.yul\":9307:9328   */\n      mstore\n        /* \"#utility.yul\":9364:9366   */\n      0x0c\n        /* \"#utility.yul\":9344:9362   */\n      0x24\n      dup3\n      add\n        /* \"#utility.yul\":9337:9367   */\n      mstore\n      shl(0xa0, 0x5350454e4445525f5a45524f)\n        /* \"#utility.yul\":9383:9401   */\n      0x44\n      dup3\n      add\n        /* \"#utility.yul\":9376:9418   */\n      mstore\n        /* \"#utility.yul\":9435:9453   */\n      0x64\n      add\n        /* \"Smart-Contract/PanjoCoin.sol\":4804:4850  require(spender != address(0), \"SPENDER_ZERO\") */\n      tag_96\n        /* \"#utility.yul\":9123:9459   */\n      jump\n        /* \"Smart-Contract/PanjoCoin.sol\":4804:4850  require(spender != address(0), \"SPENDER_ZERO\") */\n    tag_157:\n      sub(shl(0xa0, 0x01), 0x01)\n        /* \"Smart-Contract/PanjoCoin.sol\":4863:4881  _allowances[owner] */\n      dup4\n      dup2\n      and\n      0x00\n      dup2\n      dup2\n      mstore\n        /* \"Smart-Contract/PanjoCoin.sol\":4863:4874  _allowances */\n      0x01\n        /* \"Smart-Contract/PanjoCoin.sol\":4863:4881  _allowances[owner] */\n      0x20\n      swap1\n      dup2\n      mstore\n      0x40\n      dup1\n      dup4\n      keccak256\n        /* \"Smart-Contract/PanjoCoin.sol\":4863:4890  _allowances[owner][spender] */\n      swap5\n      dup8\n      and\n      dup1\n      dup5\n      mstore\n      swap5\n      dup3\n      mstore\n      swap2\n      dup3\n      swap1\n      keccak256\n        /* \"Smart-Contract/PanjoCoin.sol\":4863:4898  _allowances[owner][spender] = value */\n      dup6\n      swap1\n      sstore\n        /* \"Smart-Contract/PanjoCoin.sol\":4914:4945  Approval(owner, spender, value) */\n      swap1\n      mload\n        /* \"#utility.yul\":1367:1392   */\n      dup5\n      dup2\n      mstore\n        /* \"Smart-Contract/PanjoCoin.sol\":4914:4945  Approval(owner, spender, value) */\n      0x8c5be1e5ebec7d5bd14f71427d1e84f3dd0314c0f7b2291e5b200ac8c7c3b925\n      swap2\n        /* \"#utility.yul\":1340:1358   */\n      add\n        /* \"Smart-Contract/PanjoCoin.sol\":4914:4945  Approval(owner, spender, value) */\n      mload(0x40)\n      dup1\n      swap2\n      sub\n      swap1\n      log3\n        /* \"Smart-Contract/PanjoCoin.sol\":4666:4953  function _approve(address owner, address spender, uint256 value) internal {... */\n      pop\n      pop\n      pop\n      jump\t// out\n        /* \"Smart-Contract/PanjoCoin.sol\":3596:4016  function _transfer(address from, address to, uint256 value) internal {... */\n    tag_101:\n      sub(shl(0xa0, 0x01), 0x01)\n        /* \"Smart-Contract/PanjoCoin.sol\":3684:3702  from != address(0) */\n      dup4\n      and\n        /* \"Smart-Contract/PanjoCoin.sol\":3676:3716  require(from != address(0), \"FROM_ZERO\") */\n      tag_162\n      jumpi\n      mload(0x40)\n      shl(0xe5, 0x461bcd)\n      dup2\n      mstore\n        /* \"#utility.yul\":9666:9668   */\n      0x20\n        /* \"Smart-Contract/PanjoCoin.sol\":3676:3716  require(from != address(0), \"FROM_ZERO\") */\n      0x04\n      dup3\n      add\n        /* \"#utility.yul\":9648:9669   */\n      mstore\n        /* \"#utility.yul\":9705:9706   */\n      0x09\n        /* \"#utility.yul\":9685:9703   */\n      0x24\n      dup3\n      add\n        /* \"#utility.yul\":9678:9707   */\n      mstore\n      shl(0xb8, 0x46524f4d5f5a45524f)\n        /* \"#utility.yul\":9723:9741   */\n      0x44\n      dup3\n      add\n        /* \"#utility.yul\":9716:9755   */\n      mstore\n        /* \"#utility.yul\":9772:9790   */\n      0x64\n      add\n        /* \"Smart-Contract/PanjoCoin.sol\":3676:3716  require(from != address(0), \"FROM_ZERO\") */\n      tag_96\n        /* \"#utility.yul\":9464:9796   */\n      jump\n        /* \"Smart-Contract/PanjoCoin.sol\":3676:3716  require(from != address(0), \"FROM_ZERO\") */\n    tag_162:\n      sub(shl(0xa0, 0x01), 0x01)\n        /* \"Smart-Contract/PanjoCoin.sol\":3735:3751  to != address(0) */\n      dup3\n      and\n        /* \"Smart-Contract/PanjoCoin.sol\":3727:3763  require(to != address(0), \"TO_ZERO\") */\n      tag_165\n      jumpi\n      mload(0x40)\n      shl(0xe5, 0x461bcd)\n      dup2\n      mstore\n        /* \"#utility.yul\":10003:10005   */\n      0x20\n        /* \"Smart-Contract/PanjoCoin.sol\":3727:3763  require(to != address(0), \"TO_ZERO\") */\n      0x04\n      dup3\n      add\n        /* \"#utility.yul\":9985:10006   */\n      mstore\n        /* \"#utility.yul\":10042:10043   */\n      0x07\n        /* \"#utility.yul\":10022:10040   */\n      0x24\n      dup3\n      add\n        /* \"#utility.yul\":10015:10044   */\n      mstore\n      shl(0xc8, 0x544f5f5a45524f)\n        /* \"#utility.yul\":10060:10078   */\n      0x44\n      dup3\n      add\n        /* \"#utility.yul\":10053:10090   */\n      mstore\n        /* \"#utility.yul\":10107:10125   */\n      0x64\n      add\n        /* \"Smart-Contract/PanjoCoin.sol\":3727:3763  require(to != address(0), \"TO_ZERO\") */\n      tag_96\n        /* \"#utility.yul\":9801:10131   */\n      jump\n        /* \"Smart-Contract/PanjoCoin.sol\":3727:3763  require(to != address(0), \"TO_ZERO\") */\n    tag_165:\n      sub(shl(0xa0, 0x01), 0x01)\n        /* \"Smart-Contract/PanjoCoin.sol\":3790:3805  _balances[from] */\n      dup4\n      and\n        /* \"Smart-Contract/PanjoCoin.sol\":3776:3787  uint256 bal */\n      0x00\n        /* \"Smart-Contract/PanjoCoin.sol\":3790:3805  _balances[from] */\n      swap1\n      dup2\n      mstore\n      0x20\n      dup2\n      swap1\n      mstore\n      0x40\n      swap1\n      keccak256\n      sload\n        /* \"Smart-Contract/PanjoCoin.sol\":3824:3836  bal >= value */\n      dup2\n      dup2\n      lt\n      iszero\n        /* \"Smart-Contract/PanjoCoin.sol\":3816:3852  require(bal >= value, \"BALANCE_LOW\") */\n      tag_168\n      jumpi\n      mload(0x40)\n      shl(0xe5, 0x461bcd)\n      dup2\n      mstore\n        /* \"#utility.yul\":10338:10340   */\n      0x20\n        /* \"Smart-Contract/PanjoCoin.sol\":3816:3852  require(bal >= value, \"BALANCE_LOW\") */\n      0x04\n      dup3\n      add\n        /* \"#utility.yul\":10320:10341   */\n      mstore\n        /* \"#utility.yul\":10377:10379   */\n      0x0b\n        /* \"#utility.yul\":10357:10375   */\n      0x24\n      dup3\n      add\n        /* \"#utility.yul\":10350:10380   */\n      mstore\n      shl(0xa8, 0x42414c414e43455f4c4f57)\n        /* \"#utility.yul\":10396:10414   */\n      0x44\n      dup3\n      add\n        /* \"#utility.yul\":10389:10430   */\n      mstore\n        /* \"#utility.yul\":10447:10465   */\n      0x64\n      add\n        /* \"Smart-Contract/PanjoCoin.sol\":3816:3852  require(bal >= value, \"BALANCE_LOW\") */\n      tag_96\n        /* \"#utility.yul\":10136:10471   */\n      jump\n        /* \"Smart-Contract/PanjoCoin.sol\":3816:3852  require(bal >= value, \"BALANCE_LOW\") */\n    tag_168:\n      sub(shl(0xa0, 0x01), 0x01)\n        /* \"Smart-Contract/PanjoCoin.sol\":3890:3905  _balances[from] */\n      dup1\n      dup6\n      and\n        /* \"Smart-Contract/PanjoCoin.sol\":3890:3899  _balances */\n      0x00\n        /* \"Smart-Contract/PanjoCoin.sol\":3890:3905  _balances[from] */\n      swap1\n      dup2\n      mstore\n      0x20\n      dup2\n      swap1\n      mstore\n      0x40\n      dup1\n      dup3\n      keccak256\n        /* \"Smart-Contract/PanjoCoin.sol\":3908:3919  bal - value */\n      dup6\n      dup6\n      sub\n        /* \"Smart-Contract/PanjoCoin.sol\":3890:3919  _balances[from] = bal - value */\n      swap1\n      sstore\n        /* \"Smart-Contract/PanjoCoin.sol\":3943:3956  _balances[to] */\n      swap2\n      dup6\n      and\n      dup2\n      mstore\n      swap1\n      dup2\n      keccak256\n        /* \"Smart-Contract/PanjoCoin.sol\":3943:3965  _balances[to] += value */\n      dup1\n      sload\n        /* \"Smart-Contract/PanjoCoin.sol\":3914:3919  value */\n      dup5\n      swap3\n        /* \"Smart-Contract/PanjoCoin.sol\":3890:3899  _balances */\n      swap1\n        /* \"Smart-Contract/PanjoCoin.sol\":3943:3965  _balances[to] += value */\n      tag_171\n      swap1\n        /* \"Smart-Contract/PanjoCoin.sol\":3914:3919  value */\n      dup5\n      swap1\n        /* \"Smart-Contract/PanjoCoin.sol\":3943:3965  _balances[to] += value */\n      tag_114\n      jump\t// in\n    tag_171:\n      swap3\n      pop\n      pop\n      dup2\n      swap1\n      sstore\n      pop\n        /* \"Smart-Contract/PanjoCoin.sol\":3998:4000  to */\n      dup3\n      sub(shl(0xa0, 0x01), 0x01)\n        /* \"Smart-Contract/PanjoCoin.sol\":3983:4008  Transfer(from, to, value) */\n      and\n        /* \"Smart-Contract/PanjoCoin.sol\":3992:3996  from */\n      dup5\n      sub(shl(0xa0, 0x01), 0x01)\n        /* \"Smart-Contract/PanjoCoin.sol\":3983:4008  Transfer(from, to, value) */\n      and\n      0xddf252ad1be2c89b69c2b068fc378daa952ba7f163c4a11628f55a4df523b3ef\n        /* \"Smart-Contract/PanjoCoin.sol\":4002:4007  value */\n      dup5\n        /* \"Smart-Contract/PanjoCoin.sol\":3983:4008  Transfer(from, to, value) */\n      mload(0x40)\n      tag_172\n      swap2\n        /* \"#utility.yul\":1367:1392   */\n      dup2\n      mstore\n        /* \"#utility.yul\":1355:1357   */\n      0x20\n        /* \"#utility.yul\":1340:1358   */\n      add\n      swap1\n        /* \"#utility.yul\":1221:1398   */\n      jump\n        /* \"Smart-Contract/PanjoCoin.sol\":3983:4008  Transfer(from, to, value) */\n    tag_172:\n      mload(0x40)\n      dup1\n      swap2\n      sub\n      swap1\n      log3\n        /* \"Smart-Contract/PanjoCoin.sol\":3665:4016  {... */\n      pop\n        /* \"Smart-Contract/PanjoCoin.sol\":3596:4016  function _transfer(address from, address to, uint256 value) internal {... */\n      pop\n      pop\n      pop\n      jump\t// out\n        /* \"#utility.yul\":14:541   */\n    tag_23:\n        /* \"#utility.yul\":163:165   */\n      0x20\n        /* \"#utility.yul\":152:161   */\n      dup2\n        /* \"#utility.yul\":145:166   */\n      mstore\n        /* \"#utility.yul\":126:130   */\n      0x00\n        /* \"#utility.yul\":195:201   */\n      dup3\n        /* \"#utility.yul\":189:202   */\n      mload\n        /* \"#utility.yul\":238:244   */\n      dup1\n        /* \"#utility.yul\":233:235   */\n      0x20\n        /* \"#utility.yul\":222:231   */\n      dup5\n        /* \"#utility.yul\":218:236   */\n      add\n        /* \"#utility.yul\":211:245   */\n      mstore\n        /* \"#utility.yul\":263:264   */\n      0x00\n        /* \"#utility.yul\":273:413   */\n    tag_178:\n        /* \"#utility.yul\":287:293   */\n      dup2\n        /* \"#utility.yul\":284:285   */\n      dup2\n        /* \"#utility.yul\":281:294   */\n      lt\n        /* \"#utility.yul\":273:413   */\n      iszero\n      tag_180\n      jumpi\n        /* \"#utility.yul\":398:400   */\n      0x20\n        /* \"#utility.yul\":382:396   */\n      dup2\n      dup7\n      add\n        /* \"#utility.yul\":378:401   */\n      dup2\n      add\n        /* \"#utility.yul\":372:402   */\n      mload\n        /* \"#utility.yul\":367:369   */\n      0x40\n        /* \"#utility.yul\":348:365   */\n      dup7\n      dup5\n      add\n        /* \"#utility.yul\":344:370   */\n      add\n        /* \"#utility.yul\":337:403   */\n      mstore\n        /* \"#utility.yul\":302:312   */\n      add\n        /* \"#utility.yul\":273:413   */\n      jump(tag_178)\n    tag_180:\n        /* \"#utility.yul\":277:280   */\n      pop\n        /* \"#utility.yul\":462:463   */\n      0x00\n        /* \"#utility.yul\":457:459   */\n      0x40\n        /* \"#utility.yul\":448:454   */\n      dup3\n        /* \"#utility.yul\":437:446   */\n      dup6\n        /* \"#utility.yul\":433:455   */\n      add\n        /* \"#utility.yul\":429:460   */\n      add\n        /* \"#utility.yul\":422:464   */\n      mstore\n        /* \"#utility.yul\":532:534   */\n      0x40\n        /* \"#utility.yul\":525:527   */\n      0x1f\n        /* \"#utility.yul\":521:528   */\n      not\n        /* \"#utility.yul\":516:518   */\n      0x1f\n        /* \"#utility.yul\":508:514   */\n      dup4\n        /* \"#utility.yul\":504:519   */\n      add\n        /* \"#utility.yul\":500:529   */\n      and\n        /* \"#utility.yul\":489:498   */\n      dup5\n        /* \"#utility.yul\":485:530   */\n      add\n        /* \"#utility.yul\":481:535   */\n      add\n        /* \"#utility.yul\":473:535   */\n      swap2\n      pop\n      pop\n        /* \"#utility.yul\":14:541   */\n      swap3\n      swap2\n      pop\n      pop\n      jump\t// out\n        /* \"#utility.yul\":546:719   */\n    tag_173:\n        /* \"#utility.yul\":614:634   */\n      dup1\n      calldataload\n      sub(shl(0xa0, 0x01), 0x01)\n        /* \"#utility.yul\":663:694   */\n      dup2\n      and\n        /* \"#utility.yul\":653:695   */\n      dup2\n      eq\n        /* \"#utility.yul\":643:713   */\n      tag_182\n      jumpi\n        /* \"#utility.yul\":709:710   */\n      0x00\n        /* \"#utility.yul\":706:707   */\n      dup1\n        /* \"#utility.yul\":699:711   */\n      revert\n        /* \"#utility.yul\":643:713   */\n    tag_182:\n        /* \"#utility.yul\":546:719   */\n      swap2\n      swap1\n      pop\n      jump\t// out\n        /* \"#utility.yul\":724:1024   */\n    tag_26:\n        /* \"#utility.yul\":792:798   */\n      0x00\n        /* \"#utility.yul\":800:806   */\n      dup1\n        /* \"#utility.yul\":853:855   */\n      0x40\n        /* \"#utility.yul\":841:850   */\n      dup4\n        /* \"#utility.yul\":832:839   */\n      dup6\n        /* \"#utility.yul\":828:851   */\n      sub\n        /* \"#utility.yul\":824:856   */\n      slt\n        /* \"#utility.yul\":821:873   */\n      iszero\n      tag_184\n      jumpi\n        /* \"#utility.yul\":869:870   */\n      0x00\n        /* \"#utility.yul\":866:867   */\n      dup1\n        /* \"#utility.yul\":859:871   */\n      revert\n        /* \"#utility.yul\":821:873   */\n    tag_184:\n        /* \"#utility.yul\":892:921   */\n      tag_185\n        /* \"#utility.yul\":911:920   */\n      dup4\n        /* \"#utility.yul\":892:921   */\n      tag_173\n      jump\t// in\n    tag_185:\n        /* \"#utility.yul\":882:921   */\n      swap5\n        /* \"#utility.yul\":990:992   */\n      0x20\n        /* \"#utility.yul\":975:993   */\n      swap4\n      swap1\n      swap4\n      add\n        /* \"#utility.yul\":962:994   */\n      calldataload\n      swap4\n      pop\n      pop\n      pop\n        /* \"#utility.yul\":724:1024   */\n      jump\t// out\n        /* \"#utility.yul\":1403:1777   */\n    tag_36:\n        /* \"#utility.yul\":1480:1486   */\n      0x00\n        /* \"#utility.yul\":1488:1494   */\n      dup1\n        /* \"#utility.yul\":1496:1502   */\n      0x00\n        /* \"#utility.yul\":1549:1551   */\n      0x60\n        /* \"#utility.yul\":1537:1546   */\n      dup5\n        /* \"#utility.yul\":1528:1535   */\n      dup7\n        /* \"#utility.yul\":1524:1547   */\n      sub\n        /* \"#utility.yul\":1520:1552   */\n      slt\n        /* \"#utility.yul\":1517:1569   */\n      iszero\n      tag_189\n      jumpi\n        /* \"#utility.yul\":1565:1566   */\n      0x00\n        /* \"#utility.yul\":1562:1563   */\n      dup1\n        /* \"#utility.yul\":1555:1567   */\n      revert\n        /* \"#utility.yul\":1517:1569   */\n    tag_189:\n        /* \"#utility.yul\":1588:1617   */\n      tag_190\n        /* \"#utility.yul\":1607:1616   */\n      dup5\n        /* \"#utility.yul\":1588:1617   */\n      tag_173\n      jump\t// in\n    tag_190:\n        /* \"#utility.yul\":1578:1617   */\n      swap3\n      pop\n        /* \"#utility.yul\":1636:1674   */\n      tag_191\n        /* \"#utility.yul\":1670:1672   */\n      0x20\n        /* \"#utility.yul\":1659:1668   */\n      dup6\n        /* \"#utility.yul\":1655:1673   */\n      add\n        /* \"#utility.yul\":1636:1674   */\n      tag_173\n      jump\t// in\n    tag_191:\n        /* \"#utility.yul\":1403:1777   */\n      swap3\n      swap6\n        /* \"#utility.yul\":1626:1674   */\n      swap3\n      swap5\n      pop\n      pop\n      pop\n        /* \"#utility.yul\":1743:1745   */\n      0x40\n        /* \"#utility.yul\":1728:1746   */\n      swap2\n      swap1\n      swap2\n      add\n        /* \"#utility.yul\":1715:1747   */\n      calldataload\n      swap1\n        /* \"#utility.yul\":1403:1777   */\n      jump\t// out\n        /* \"#utility.yul\":2153:2339   */\n    tag_53:\n        /* \"#utility.yul\":2212:2218   */\n      0x00\n        /* \"#utility.yul\":2265:2267   */\n      0x20\n        /* \"#utility.yul\":2253:2262   */\n      dup3\n        /* \"#utility.yul\":2244:2251   */\n      dup5\n        /* \"#utility.yul\":2240:2263   */\n      sub\n        /* \"#utility.yul\":2236:2268   */\n      slt\n        /* \"#utility.yul\":2233:2285   */\n      iszero\n      tag_195\n      jumpi\n        /* \"#utility.yul\":2281:2282   */\n      0x00\n        /* \"#utility.yul\":2278:2279   */\n      dup1\n        /* \"#utility.yul\":2271:2283   */\n      revert\n        /* \"#utility.yul\":2233:2285   */\n    tag_195:\n        /* \"#utility.yul\":2304:2333   */\n      tag_196\n        /* \"#utility.yul\":2323:2332   */\n      dup3\n        /* \"#utility.yul\":2304:2333   */\n      tag_173\n      jump\t// in\n    tag_196:\n        /* \"#utility.yul\":2294:2333   */\n      swap4\n        /* \"#utility.yul\":2153:2339   */\n      swap3\n      pop\n      pop\n      pop\n      jump\t// out\n        /* \"#utility.yul\":2344:3247   */\n    tag_73:\n        /* \"#utility.yul\":2455:2461   */\n      0x00\n        /* \"#utility.yul\":2463:2469   */\n      dup1\n        /* \"#utility.yul\":2471:2477   */\n      0x00\n        /* \"#utility.yul\":2479:2485   */\n      dup1\n        /* \"#utility.yul\":2487:2493   */\n      0x00\n        /* \"#utility.yul\":2495:2501   */\n      dup1\n        /* \"#utility.yul\":2503:2509   */\n      0x00\n        /* \"#utility.yul\":2556:2559   */\n      0xe0\n        /* \"#utility.yul\":2544:2553   */\n      dup9\n        /* \"#utility.yul\":2535:2542   */\n      dup11\n        /* \"#utility.yul\":2531:2554   */\n      sub\n        /* \"#utility.yul\":2527:2560   */\n      slt\n        /* \"#utility.yul\":2524:2577   */\n      iszero\n      tag_198\n      jumpi\n        /* \"#utility.yul\":2573:2574   */\n      0x00\n        /* \"#utility.yul\":2570:2571   */\n      dup1\n        /* \"#utility.yul\":2563:2575   */\n      revert\n        /* \"#utility.yul\":2524:2577   */\n    tag_198:\n        /* \"#utility.yul\":2596:2625   */\n      tag_199\n        /* \"#utility.yul\":2615:2624   */\n      dup9\n        /* \"#utility.yul\":2596:2625   */\n      tag_173\n      jump\t// in\n    tag_199:\n        /* \"#utility.yul\":2586:2625   */\n      swap7\n      pop\n        /* \"#utility.yul\":2644:2682   */\n      tag_200\n        /* \"#utility.yul\":2678:2680   */\n      0x20\n        /* \"#utility.yul\":2667:2676   */\n      dup10\n        /* \"#utility.yul\":2663:2681   */\n      add\n        /* \"#utility.yul\":2644:2682   */\n      tag_173\n      jump\t// in\n    tag_200:\n        /* \"#utility.yul\":2634:2682   */\n      swap6\n      pop\n        /* \"#utility.yul\":2751:2753   */\n      0x40\n        /* \"#utility.yul\":2736:2754   */\n      dup9\n      add\n        /* \"#utility.yul\":2723:2755   */\n      calldataload\n      swap5\n      pop\n        /* \"#utility.yul\":2852:2854   */\n      0x60\n        /* \"#utility.yul\":2837:2855   */\n      dup9\n      add\n        /* \"#utility.yul\":2824:2856   */\n      calldataload\n      swap4\n      pop\n        /* \"#utility.yul\":2934:2937   */\n      0x80\n        /* \"#utility.yul\":2919:2938   */\n      dup9\n      add\n        /* \"#utility.yul\":2906:2939   */\n      calldataload\n        /* \"#utility.yul\":2983:2987   */\n      0xff\n        /* \"#utility.yul\":2970:2988   */\n      dup2\n      and\n        /* \"#utility.yul\":2958:2989   */\n      dup2\n      eq\n        /* \"#utility.yul\":2948:3007   */\n      tag_201\n      jumpi\n        /* \"#utility.yul\":3003:3004   */\n      0x00\n        /* \"#utility.yul\":3000:3001   */\n      dup1\n        /* \"#utility.yul\":2993:3005   */\n      revert\n        /* \"#utility.yul\":2948:3007   */\n    tag_201:\n        /* \"#utility.yul\":2344:3247   */\n      swap7\n      swap10\n      swap6\n      swap9\n      pop\n      swap4\n      swap7\n      swap3\n      swap6\n        /* \"#utility.yul\":3026:3033   */\n      swap5\n        /* \"#utility.yul\":3106:3109   */\n      0xa0\n        /* \"#utility.yul\":3091:3110   */\n      dup5\n      add\n        /* \"#utility.yul\":3078:3111   */\n      calldataload\n      swap5\n      pop\n        /* \"#utility.yul\":3210:3213   */\n      0xc0\n        /* \"#utility.yul\":3195:3214   */\n      swap1\n      swap4\n      add\n        /* \"#utility.yul\":3182:3215   */\n      calldataload\n      swap3\n        /* \"#utility.yul\":2344:3247   */\n      swap2\n      pop\n      pop\n      jump\t// out\n        /* \"#utility.yul\":3252:3512   */\n    tag_77:\n        /* \"#utility.yul\":3320:3326   */\n      0x00\n        /* \"#utility.yul\":3328:3334   */\n      dup1\n        /* \"#utility.yul\":3381:3383   */\n      0x40\n        /* \"#utility.yul\":3369:3378   */\n      dup4\n        /* \"#utility.yul\":3360:3367   */\n      dup6\n        /* \"#utility.yul\":3356:3379   */\n      sub\n        /* \"#utility.yul\":3352:3384   */\n      slt\n        /* \"#utility.yul\":3349:3401   */\n      iszero\n      tag_203\n      jumpi\n        /* \"#utility.yul\":3397:3398   */\n      0x00\n        /* \"#utility.yul\":3394:3395   */\n      dup1\n        /* \"#utility.yul\":3387:3399   */\n      revert\n        /* \"#utility.yul\":3349:3401   */\n    tag_203:\n        /* \"#utility.yul\":3420:3449   */\n      tag_204\n        /* \"#utility.yul\":3439:3448   */\n      dup4\n        /* \"#utility.yul\":3420:3449   */\n      tag_173\n      jump\t// in\n    tag_204:\n        /* \"#utility.yul\":3410:3449   */\n      swap2\n      pop\n        /* \"#utility.yul\":3468:3506   */\n      tag_205\n        /* \"#utility.yul\":3502:3504   */\n      0x20\n        /* \"#utility.yul\":3491:3500   */\n      dup5\n        /* \"#utility.yul\":3487:3505   */\n      add\n        /* \"#utility.yul\":3468:3506   */\n      tag_173\n      jump\t// in\n    tag_205:\n        /* \"#utility.yul\":3458:3506   */\n      swap1\n      pop\n        /* \"#utility.yul\":3252:3512   */\n      swap3\n      pop\n      swap3\n      swap1\n      pop\n      jump\t// out\n        /* \"#utility.yul\":3517:3897   */\n    tag_82:\n        /* \"#utility.yul\":3596:3597   */\n      0x01\n        /* \"#utility.yul\":3592:3604   */\n      dup2\n      dup2\n      shr\n      swap1\n        /* \"#utility.yul\":3639:3651   */\n      dup3\n      and\n      dup1\n        /* \"#utility.yul\":3660:3721   */\n      tag_207\n      jumpi\n        /* \"#utility.yul\":3714:3718   */\n      0x7f\n        /* \"#utility.yul\":3706:3712   */\n      dup3\n        /* \"#utility.yul\":3702:3719   */\n      and\n        /* \"#utility.yul\":3692:3719   */\n      swap2\n      pop\n        /* \"#utility.yul\":3660:3721   */\n    tag_207:\n        /* \"#utility.yul\":3767:3769   */\n      0x20\n        /* \"#utility.yul\":3759:3765   */\n      dup3\n        /* \"#utility.yul\":3756:3770   */\n      lt\n        /* \"#utility.yul\":3736:3754   */\n      dup2\n        /* \"#utility.yul\":3733:3771   */\n      sub\n        /* \"#utility.yul\":3730:3891   */\n      tag_208\n      jumpi\n        /* \"#utility.yul\":3813:3823   */\n      0x4e487b71\n        /* \"#utility.yul\":3808:3811   */\n      0xe0\n        /* \"#utility.yul\":3804:3824   */\n      shl\n        /* \"#utility.yul\":3801:3802   */\n      0x00\n        /* \"#utility.yul\":3794:3825   */\n      mstore\n        /* \"#utility.yul\":3848:3852   */\n      0x22\n        /* \"#utility.yul\":3845:3846   */\n      0x04\n        /* \"#utility.yul\":3838:3853   */\n      mstore\n        /* \"#utility.yul\":3876:3880   */\n      0x24\n        /* \"#utility.yul\":3873:3874   */\n      0x00\n        /* \"#utility.yul\":3866:3881   */\n      revert\n        /* \"#utility.yul\":3730:3891   */\n    tag_208:\n      pop\n        /* \"#utility.yul\":3517:3897   */\n      swap2\n      swap1\n      pop\n      jump\t// out\n        /* \"#utility.yul\":4373:5462   */\n    tag_106:\n        /* \"#utility.yul\":4503:4506   */\n      0x00\n        /* \"#utility.yul\":4532:4533   */\n      dup1\n        /* \"#utility.yul\":4565:4571   */\n      dup4\n        /* \"#utility.yul\":4559:4572   */\n      sload\n        /* \"#utility.yul\":4595:4598   */\n      dup2\n        /* \"#utility.yul\":4624:4633   */\n      dup2\n        /* \"#utility.yul\":4621:4622   */\n      0x01\n        /* \"#utility.yul\":4617:4634   */\n      shr\n        /* \"#utility.yul\":4607:4634   */\n      swap1\n      pop\n        /* \"#utility.yul\":4684:4685   */\n      0x01\n        /* \"#utility.yul\":4673:4682   */\n      dup3\n        /* \"#utility.yul\":4669:4686   */\n      and\n        /* \"#utility.yul\":4705:4723   */\n      dup1\n        /* \"#utility.yul\":4695:4756   */\n      tag_212\n      jumpi\n        /* \"#utility.yul\":4749:4753   */\n      0x7f\n        /* \"#utility.yul\":4741:4747   */\n      dup3\n        /* \"#utility.yul\":4737:4754   */\n      and\n        /* \"#utility.yul\":4727:4754   */\n      swap2\n      pop\n        /* \"#utility.yul\":4695:4756   */\n    tag_212:\n        /* \"#utility.yul\":4802:4804   */\n      0x20\n        /* \"#utility.yul\":4794:4800   */\n      dup3\n        /* \"#utility.yul\":4791:4805   */\n      lt\n        /* \"#utility.yul\":4771:4789   */\n      dup2\n        /* \"#utility.yul\":4768:4806   */\n      sub\n        /* \"#utility.yul\":4765:4930   */\n      tag_213\n      jumpi\n      shl(0xe0, 0x4e487b71)\n        /* \"#utility.yul\":4829:4862   */\n      dup5\n      mstore\n        /* \"#utility.yul\":4885:4889   */\n      0x22\n        /* \"#utility.yul\":4882:4883   */\n      0x04\n        /* \"#utility.yul\":4875:4890   */\n      mstore\n        /* \"#utility.yul\":4915:4919   */\n      0x24\n        /* \"#utility.yul\":4836:4839   */\n      dup5\n        /* \"#utility.yul\":4903:4920   */\n      revert\n        /* \"#utility.yul\":4765:4930   */\n    tag_213:\n        /* \"#utility.yul\":4946:4964   */\n      dup1\n        /* \"#utility.yul\":4973:5106   */\n      dup1\n      iszero\n      tag_215\n      jumpi\n        /* \"#utility.yul\":5120:5121   */\n      0x01\n        /* \"#utility.yul\":5115:5437   */\n      dup2\n      eq\n      tag_216\n      jumpi\n        /* \"#utility.yul\":4939:5437   */\n      jump(tag_214)\n        /* \"#utility.yul\":4973:5106   */\n    tag_215:\n      not(0xff)\n        /* \"#utility.yul\":5006:5030   */\n      dup5\n      and\n        /* \"#utility.yul\":4994:5031   */\n      dup8\n      mstore\n        /* \"#utility.yul\":5079:5093   */\n      dup3\n      iszero\n        /* \"#utility.yul\":5072:5094   */\n      iszero\n        /* \"#utility.yul\":5060:5095   */\n      dup4\n      mul\n        /* \"#utility.yul\":5051:5096   */\n      dup8\n      add\n      swap5\n      pop\n        /* \"#utility.yul\":4973:5106   */\n      jump(tag_214)\n        /* \"#utility.yul\":5115:5437   */\n    tag_216:\n        /* \"#utility.yul\":4320:4321   */\n      0x00\n        /* \"#utility.yul\":4313:4327   */\n      dup9\n      dup2\n      mstore\n        /* \"#utility.yul\":4357:4361   */\n      0x20\n        /* \"#utility.yul\":4344:4362   */\n      swap1\n      keccak256\n        /* \"#utility.yul\":5213:5214   */\n      0x00\n        /* \"#utility.yul\":5227:5391   */\n    tag_218:\n        /* \"#utility.yul\":5241:5247   */\n      dup5\n        /* \"#utility.yul\":5238:5239   */\n      dup2\n        /* \"#utility.yul\":5235:5248   */\n      lt\n        /* \"#utility.yul\":5227:5391   */\n      iszero\n      tag_220\n      jumpi\n        /* \"#utility.yul\":5319:5333   */\n      dup2\n      sload\n        /* \"#utility.yul\":5306:5317   */\n      dup10\n      dup3\n      add\n        /* \"#utility.yul\":5299:5334   */\n      mstore\n        /* \"#utility.yul\":5375:5376   */\n      0x01\n        /* \"#utility.yul\":5362:5377   */\n      swap1\n      swap2\n      add\n      swap1\n        /* \"#utility.yul\":5263:5265   */\n      0x20\n        /* \"#utility.yul\":5256:5266   */\n      add\n        /* \"#utility.yul\":5227:5391   */\n      jump(tag_218)\n    tag_220:\n        /* \"#utility.yul\":5231:5234   */\n      pop\n      pop\n        /* \"#utility.yul\":5420:5426   */\n      dup3\n        /* \"#utility.yul\":5415:5418   */\n      dup8\n        /* \"#utility.yul\":5411:5427   */\n      add\n        /* \"#utility.yul\":5404:5427   */\n      swap5\n      pop\n        /* \"#utility.yul\":4939:5437   */\n    tag_214:\n      pop\n        /* \"#utility.yul\":5453:5456   */\n      swap3\n      swap7\n        /* \"#utility.yul\":4373:5462   */\n      swap6\n      pop\n      pop\n      pop\n      pop\n      pop\n      pop\n      jump\t// out\n        /* \"#utility.yul\":5961:6088   */\n    tag_175:\n        /* \"#utility.yul\":6022:6032   */\n      0x4e487b71\n        /* \"#utility.yul\":6017:6020   */\n      0xe0\n        /* \"#utility.yul\":6013:6033   */\n      shl\n        /* \"#utility.yul\":6010:6011   */\n      0x00\n        /* \"#utility.yul\":6003:6034   */\n      mstore\n        /* \"#utility.yul\":6053:6057   */\n      0x11\n        /* \"#utility.yul\":6050:6051   */\n      0x04\n        /* \"#utility.yul\":6043:6058   */\n      mstore\n        /* \"#utility.yul\":6077:6081   */\n      0x24\n        /* \"#utility.yul\":6074:6075   */\n      0x00\n        /* \"#utility.yul\":6067:6082   */\n      revert\n        /* \"#utility.yul\":6093:6218   */\n    tag_114:\n        /* \"#utility.yul\":6158:6167   */\n      dup1\n      dup3\n      add\n        /* \"#utility.yul\":6179:6189   */\n      dup1\n      dup3\n      gt\n        /* \"#utility.yul\":6176:6212   */\n      iszero\n      tag_87\n      jumpi\n        /* \"#utility.yul\":6192:6210   */\n      tag_87\n      tag_175\n      jump\t// in\n        /* \"#utility.yul\":6906:7041   */\n    tag_136:\n        /* \"#utility.yul\":6945:6948   */\n      0x00\n        /* \"#utility.yul\":6966:6983   */\n      0x01\n      dup3\n      add\n        /* \"#utility.yul\":6963:7006   */\n      tag_230\n      jumpi\n        /* \"#utility.yul\":6986:7004   */\n      tag_230\n      tag_175\n      jump\t// in\n    tag_230:\n      pop\n        /* \"#utility.yul\":7033:7034   */\n      0x01\n        /* \"#utility.yul\":7022:7035   */\n      add\n      swap1\n        /* \"#utility.yul\":6906:7041   */\n      jump\t// out\n\n    auxdata: 0xa2646970667358221220d9eaa898723f3dcf24860ca11ca14f2b08d646c63ff2dc2e270afe167c80ad5b64736f6c634300081a0033\n}\n",
				"bytecode": {
					"linkReferences": {},
					"object": "60c060405234801561001057600080fd5b5060405161101238038061101283398101604081905261002f916101b4565b8181600361003d83826102a6565b50600461004a82826102a6565b50504660a0818152845160208087019190912060408051808201825260018152603160f81b9084015280517f1a83649f11a3e56d58ed3274189f99ab6137d641dfdfdeb45dd06a89f72c4e52938101939093528201527fc89efdaa54c0f20c7adf612882df0950f5a951637e0307cdcb4c672f298b8bc660608201526080810192909252309082015260c001905060408051601f198184030181529190528051602090910120608052506103649050565b634e487b7160e01b600052604160045260246000fd5b600082601f83011261012257600080fd5b81516001600160401b0381111561013b5761013b6100fb565b604051601f8201601f19908116603f011681016001600160401b0381118282101715610169576101696100fb565b60405281815283820160200185101561018157600080fd5b60005b828110156101a057602081860181015183830182015201610184565b506000918101602001919091529392505050565b600080604083850312156101c757600080fd5b82516001600160401b038111156101dd57600080fd5b6101e985828601610111565b602085015190935090506001600160401b0381111561020757600080fd5b61021385828601610111565b9150509250929050565b600181811c9082168061023157607f821691505b60208210810361025157634e487b7160e01b600052602260045260246000fd5b50919050565b601f8211156102a157806000526020600020601f840160051c8101602085101561027e5750805b601f840160051c820191505b8181101561029e576000815560010161028a565b50505b505050565b81516001600160401b038111156102bf576102bf6100fb565b6102d3816102cd845461021d565b84610257565b6020601f82116001811461030757600083156102ef5750848201515b600019600385901b1c1916600184901b17845561029e565b600084815260208120601f198516915b828110156103375787850151825560209485019460019092019101610317565b50848210156103555786840151600019600387901b60f8161c191681555b50505050600190811b01905550565b60805160a051610c89610389600039600061037d015260006104520152610c896000f3fe608060405234801561001057600080fd5b50600436106100ea5760003560e01c806370a082311161008c578063a457c2d711610066578063a457c2d7146101d0578063a9059cbb146101e3578063d505accf146101f6578063dd62ed3e1461020b57600080fd5b806370a082311461017f5780637ecebe00146101a857806395d89b41146101c857600080fd5b806323b872dd116100c857806323b872dd14610142578063313ce567146101555780633644e51514610164578063395093511461016c57600080fd5b806306fdde03146100ef578063095ea7b31461010d57806318160ddd14610130575b600080fd5b6100f7610244565b604051610104919061099f565b60405180910390f35b61012061011b366004610a09565b6102d6565b6040519015158152602001610104565b6002545b604051908152602001610104565b610120610150366004610a33565b6102ed565b60405160128152602001610104565b610134610379565b61012061017a366004610a09565b610474565b61013461018d366004610a70565b6001600160a01b031660009081526020819052604090205490565b6101346101b6366004610a70565b60056020526000908152604090205481565b6100f76104bd565b6101206101de366004610a09565b6104cc565b6101206101f1366004610a09565b610546565b610209610204366004610a92565b610553565b005b610134610219366004610b05565b6001600160a01b03918216600090815260016020908152604080832093909416825291909152205490565b60606003805461025390610b38565b80601f016020809104026020016040519081016040528092919081815260200182805461027f90610b38565b80156102cc5780601f106102a1576101008083540402835291602001916102cc565b820191906000526020600020905b8154815290600101906020018083116102af57829003601f168201915b5050505050905090565b60006102e333848461074c565b5060015b92915050565b6001600160a01b0383166000908152600160209081526040808320338452909152812054828110156103565760405162461bcd60e51b815260206004820152600d60248201526c414c4c4f57414e43455f4c4f5760981b60448201526064015b60405180910390fd5b610363853385840361074c565b61036e858585610835565b506001949350505050565b60007f0000000000000000000000000000000000000000000000000000000000000000461461044f577f1a83649f11a3e56d58ed3274189f99ab6137d641dfdfdeb45dd06a89f72c4e5260036040516103d29190610b72565b60408051918290038220828201825260018352603160f81b6020938401528151928301939093528101919091527fc89efdaa54c0f20c7adf612882df0950f5a951637e0307cdcb4c672f298b8bc660608201524660808201523060a082015260c00160405160208183030381529060405280519060200120905090565b507f000000000000000000000000000000000000000000000000000000000000000090565b3360008181526001602090815260408083206001600160a01b03871684529091528120549091906104b390829086906104ae908790610c27565b61074c565b5060019392505050565b60606004805461025390610b38565b3360008181526001602090815260408083206001600160a01b0387168452909152812054909190838110156105395760405162461bcd60e51b8152602060048201526013602482015272414c4c4f57414e43455f554e444552464c4f5760681b604482015260640161034d565b61036e828686840361074c565b60006102e3338484610835565b8342111561058d5760405162461bcd60e51b81526020600482015260076024820152661156141254915160ca1b604482015260640161034d565b6001600160a01b0387166000908152600560205260408120805490826105b283610c3a565b90915550604080517f6e71edae12b1b97f4d1f60370fef10105fa2faae0126114a169c64845d6126c96020808301919091526001600160a01b038c8116838501528b166060830152608082018a905260a0820184905260c08083018a90528351808403909101815260e090920190925280519101209091506000610634610379565b60405161190160f01b602082015260228101919091526042810183905260620160408051601f198184030181528282528051602091820120600080855291840180845281905260ff8a169284019290925260608301889052608083018790529092509060019060a0016020604051602081039080840390855afa1580156106bf573d6000803e3d6000fd5b5050506020604051035190508a6001600160a01b0316816001600160a01b03161480156106f457506001600160a01b03811615155b6107345760405162461bcd60e51b8152602060048201526011602482015270494e56414c49445f5349474e415455524560781b604482015260640161034d565b61073f8b8b8b61074c565b5050505050505050505050565b6001600160a01b03831661078f5760405162461bcd60e51b815260206004820152600a6024820152694f574e45525f5a45524f60b01b604482015260640161034d565b6001600160a01b0382166107d45760405162461bcd60e51b815260206004820152600c60248201526b5350454e4445525f5a45524f60a01b604482015260640161034d565b6001600160a01b0383811660008181526001602090815260408083209487168084529482529182902085905590518481527f8c5be1e5ebec7d5bd14f71427d1e84f3dd0314c0f7b2291e5b200ac8c7c3b925910160405180910390a3505050565b6001600160a01b0383166108775760405162461bcd60e51b815260206004820152600960248201526846524f4d5f5a45524f60b81b604482015260640161034d565b6001600160a01b0382166108b75760405162461bcd60e51b8152602060048201526007602482015266544f5f5a45524f60c81b604482015260640161034d565b6001600160a01b0383166000908152602081905260409020548181101561090e5760405162461bcd60e51b815260206004820152600b60248201526a42414c414e43455f4c4f5760a81b604482015260640161034d565b6001600160a01b03808516600090815260208190526040808220858503905591851681529081208054849290610945908490610c27565b92505081905550826001600160a01b0316846001600160a01b03167fddf252ad1be2c89b69c2b068fc378daa952ba7f163c4a11628f55a4df523b3ef8460405161099191815260200190565b60405180910390a350505050565b602081526000825180602084015260005b818110156109cd57602081860181015160408684010152016109b0565b506000604082850101526040601f19601f83011684010191505092915050565b80356001600160a01b0381168114610a0457600080fd5b919050565b60008060408385031215610a1c57600080fd5b610a25836109ed565b946020939093013593505050565b600080600060608486031215610a4857600080fd5b610a51846109ed565b9250610a5f602085016109ed565b929592945050506040919091013590565b600060208284031215610a8257600080fd5b610a8b826109ed565b9392505050565b600080600080600080600060e0888a031215610aad57600080fd5b610ab6886109ed565b9650610ac4602089016109ed565b95506040880135945060608801359350608088013560ff81168114610ae857600080fd5b9699959850939692959460a0840135945060c09093013592915050565b60008060408385031215610b1857600080fd5b610b21836109ed565b9150610b2f602084016109ed565b90509250929050565b600181811c90821680610b4c57607f821691505b602082108103610b6c57634e487b7160e01b600052602260045260246000fd5b50919050565b6000808354818160011c90506001821680610b8e57607f821691505b602082108103610bac57634e487b7160e01b84526022600452602484fd5b808015610bc05760018114610bd557610c05565b60ff1984168752821515830287019450610c05565b60008881526020902060005b84811015610bfd57815489820152600190910190602001610be1565b505082870194505b50929695505050505050565b634e487b7160e01b600052601160045260246000fd5b808201808211156102e7576102e7610c11565b600060018201610c4c57610c4c610c11565b506001019056fea2646970667358221220d9eaa898723f3dcf24860ca11ca14f2b08d646c63ff2dc2e270afe167c80ad5b64736f6c634300081a0033",
					"opcodes": "PUSH1 0xC0 PUSH1 0x40 MSTORE CALLVALUE DUP1 ISZERO PUSH2 0x10 JUMPI PUSH1 0x0 DUP1 REVERT JUMPDEST POP PUSH1 0x40 MLOAD PUSH2 0x1012 CODESIZE SUB DUP1 PUSH2 0x1012 DUP4 CODECOPY DUP2 ADD PUSH1 0x40 DUP2 SWAP1 MSTORE PUSH2 0x2F SWAP2 PUSH2 0x1B4 JUMP JUMPDEST DUP2 DUP2 PUSH1 0x3 PUSH2 0x3D DUP4 DUP3 PUSH2 0x2A6 JUMP JUMPDEST POP PUSH1 0x4 PUSH2 0x4A DUP3 DUP3 PUSH2 0x2A6 JUMP JUMPDEST POP POP CHAINID PUSH1 0xA0 DUP2 DUP2 MSTORE DUP5 MLOAD PUSH1 0x20 DUP1 DUP8 ADD SWAP2 SWAP1 SWAP2 KECCAK256 PUSH1 0x40 DUP1 MLOAD DUP1 DUP3 ADD DUP3 MSTORE PUSH1 0x1 DUP2 MSTORE PUSH1 0x31 PUSH1 0xF8 SHL SWAP1 DUP5 ADD MSTORE DUP1 MLOAD PUSH32 0x1A83649F11A3E56D58ED3274189F99AB6137D641DFDFDEB45DD06A89F72C4E52 SWAP4 DUP2 ADD SWAP4 SWAP1 SWAP4 MSTORE DUP3 ADD MSTORE PUSH32 0xC89EFDAA54C0F20C7ADF612882DF0950F5A951637E0307CDCB4C672F298B8BC6 PUSH1 0x60 DUP3 ADD MSTORE PUSH1 0x80 DUP2 ADD SWAP3 SWAP1 SWAP3 MSTORE ADDRESS SWAP1 DUP3 ADD MSTORE PUSH1 0xC0 ADD SWAP1 POP PUSH1 0x40 DUP1 MLOAD PUSH1 0x1F NOT DUP2 DUP5 SUB ADD DUP2 MSTORE SWAP2 SWAP1 MSTORE DUP1 MLOAD PUSH1 0x20 SWAP1 SWAP2 ADD KECCAK256 PUSH1 0x80 MSTORE POP PUSH2 0x364 SWAP1 POP JUMP JUMPDEST PUSH4 0x4E487B71 PUSH1 0xE0 SHL PUSH1 0x0 MSTORE PUSH1 0x41 PUSH1 0x4 MSTORE PUSH1 0x24 PUSH1 0x0 REVERT JUMPDEST PUSH1 0x0 DUP3 PUSH1 0x1F DUP4 ADD SLT PUSH2 0x122 JUMPI PUSH1 0x0 DUP1 REVERT JUMPDEST DUP2 MLOAD PUSH1 0x1 PUSH1 0x1 PUSH1 0x40 SHL SUB DUP2 GT ISZERO PUSH2 0x13B JUMPI PUSH2 0x13B PUSH2 0xFB JUMP JUMPDEST PUSH1 0x40 MLOAD PUSH1 0x1F DUP3 ADD PUSH1 0x1F NOT SWAP1 DUP2 AND PUSH1 0x3F ADD AND DUP2 ADD PUSH1 0x1 PUSH1 0x1 PUSH1 0x40 SHL SUB DUP2 GT DUP3 DUP3 LT OR ISZERO PUSH2 0x169 JUMPI PUSH2 0x169 PUSH2 0xFB JUMP JUMPDEST PUSH1 0x40 MSTORE DUP2 DUP2 MSTORE DUP4 DUP3 ADD PUSH1 0x20 ADD DUP6 LT ISZERO PUSH2 0x181 JUMPI PUSH1 0x0 DUP1 REVERT JUMPDEST PUSH1 0x0 JUMPDEST DUP3 DUP2 LT ISZERO PUSH2 0x1A0 JUMPI PUSH1 0x20 DUP2 DUP7 ADD DUP2 ADD MLOAD DUP4 DUP4 ADD DUP3 ADD MSTORE ADD PUSH2 0x184 JUMP JUMPDEST POP PUSH1 0x0 SWAP2 DUP2 ADD PUSH1 0x20 ADD SWAP2 SWAP1 SWAP2 MSTORE SWAP4 SWAP3 POP POP POP JUMP JUMPDEST PUSH1 0x0 DUP1 PUSH1 0x40 DUP4 DUP6 SUB SLT ISZERO PUSH2 0x1C7 JUMPI PUSH1 0x0 DUP1 REVERT JUMPDEST DUP3 MLOAD PUSH1 0x1 PUSH1 0x1 PUSH1 0x40 SHL SUB DUP2 GT ISZERO PUSH2 0x1DD JUMPI PUSH1 0x0 DUP1 REVERT JUMPDEST PUSH2 0x1E9 DUP6 DUP3 DUP7 ADD PUSH2 0x111 JUMP JUMPDEST PUSH1 0x20 DUP6 ADD MLOAD SWAP1 SWAP4 POP SWAP1 POP PUSH1 0x1 PUSH1 0x1 PUSH1 0x40 SHL SUB DUP2 GT ISZERO PUSH2 0x207 JUMPI PUSH1 0x0 DUP1 REVERT JUMPDEST PUSH2 0x213 DUP6 DUP3 DUP7 ADD PUSH2 0x111 JUMP JUMPDEST SWAP2 POP POP SWAP3 POP SWAP3 SWAP1 POP JUMP JUMPDEST PUSH1 0x1 DUP2 DUP2 SHR SWAP1 DUP3 AND DUP1 PUSH2 0x231 JUMPI PUSH1 0x7F DUP3 AND SWAP2 POP JUMPDEST PUSH1 0x20 DUP3 LT DUP2 SUB PUSH2 0x251 JUMPI PUSH4 0x4E487B71 PUSH1 0xE0 SHL PUSH1 0x0 MSTORE PUSH1 0x22 PUSH1 0x4 MSTORE PUSH1 0x24 PUSH1 0x0 REVERT JUMPDEST POP SWAP2 SWAP1 POP JUMP JUMPDEST PUSH1 0x1F DUP3 GT ISZERO PUSH2 0x2A1 JUMPI DUP1 PUSH1 0x0 MSTORE PUSH1 0x20 PUSH1 0x0 KECCAK256 PUSH1 0x1F DUP5 ADD PUSH1 0x5 SHR DUP2 ADD PUSH1 0x20 DUP6 LT ISZERO PUSH2 0x27E JUMPI POP DUP1 JUMPDEST PUSH1 0x1F DUP5 ADD PUSH1 0x5 SHR DUP3 ADD SWAP2 POP JUMPDEST DUP2 DUP2 LT ISZERO PUSH2 0x29E JUMPI PUSH1 0x0 DUP2 SSTORE PUSH1 0x1 ADD PUSH2 0x28A JUMP JUMPDEST POP POP JUMPDEST POP POP POP JUMP JUMPDEST DUP2 MLOAD PUSH1 0x1 PUSH1 0x1 PUSH1 0x40 SHL SUB DUP2 GT ISZERO PUSH2 0x2BF JUMPI PUSH2 0x2BF PUSH2 0xFB JUMP JUMPDEST PUSH2 0x2D3 DUP2 PUSH2 0x2CD DUP5 SLOAD PUSH2 0x21D JUMP JUMPDEST DUP5 PUSH2 0x257 JUMP JUMPDEST PUSH1 0x20 PUSH1 0x1F DUP3 GT PUSH1 0x1 DUP2 EQ PUSH2 0x307 JUMPI PUSH1 0x0 DUP4 ISZERO PUSH2 0x2EF JUMPI POP DUP5 DUP3 ADD MLOAD JUMPDEST PUSH1 0x0 NOT PUSH1 0x3 DUP6 SWAP1 SHL SHR NOT AND PUSH1 0x1 DUP5 SWAP1 SHL OR DUP5 SSTORE PUSH2 0x29E JUMP JUMPDEST PUSH1 0x0 DUP5 DUP2 MSTORE PUSH1 0x20 DUP2 KECCAK256 PUSH1 0x1F NOT DUP6 AND SWAP2 JUMPDEST DUP3 DUP2 LT ISZERO PUSH2 0x337 JUMPI DUP8 DUP6 ADD MLOAD DUP3 SSTORE PUSH1 0x20 SWAP5 DUP6 ADD SWAP5 PUSH1 0x1 SWAP1 SWAP3 ADD SWAP2 ADD PUSH2 0x317 JUMP JUMPDEST POP DUP5 DUP3 LT ISZERO PUSH2 0x355 JUMPI DUP7 DUP5 ADD MLOAD PUSH1 0x0 NOT PUSH1 0x3 DUP8 SWAP1 SHL PUSH1 0xF8 AND SHR NOT AND DUP2 SSTORE JUMPDEST POP POP POP POP PUSH1 0x1 SWAP1 DUP2 SHL ADD SWAP1 SSTORE POP JUMP JUMPDEST PUSH1 0x80 MLOAD PUSH1 0xA0 MLOAD PUSH2 0xC89 PUSH2 0x389 PUSH1 0x0 CODECOPY PUSH1 0x0 PUSH2 0x37D ADD MSTORE PUSH1 0x0 PUSH2 0x452 ADD MSTORE PUSH2 0xC89 PUSH1 0x0 RETURN INVALID PUSH1 0x80 PUSH1 0x40 MSTORE CALLVALUE DUP1 ISZERO PUSH2 0x10 JUMPI PUSH1 0x0 DUP1 REVERT JUMPDEST POP PUSH1 0x4 CALLDATASIZE LT PUSH2 0xEA JUMPI PUSH1 0x0 CALLDATALOAD PUSH1 0xE0 SHR DUP1 PUSH4 0x70A08231 GT PUSH2 0x8C JUMPI DUP1 PUSH4 0xA457C2D7 GT PUSH2 0x66 JUMPI DUP1 PUSH4 0xA457C2D7 EQ PUSH2 0x1D0 JUMPI DUP1 PUSH4 0xA9059CBB EQ PUSH2 0x1E3 JUMPI DUP1 PUSH4 0xD505ACCF EQ PUSH2 0x1F6 JUMPI DUP1 PUSH4 0xDD62ED3E EQ PUSH2 0x20B JUMPI PUSH1 0x0 DUP1 REVERT JUMPDEST DUP1 PUSH4 0x70A08231 EQ PUSH2 0x17F JUMPI DUP1 PUSH4 0x7ECEBE00 EQ PUSH2 0x1A8 JUMPI DUP1 PUSH4 0x95D89B41 EQ PUSH2 0x1C8 JUMPI PUSH1 0x0 DUP1 REVERT JUMPDEST DUP1 PUSH4 0x23B872DD GT PUSH2 0xC8 JUMPI DUP1 PUSH4 0x23B872DD EQ PUSH2 0x142 JUMPI DUP1 PUSH4 0x313CE567 EQ PUSH2 0x155 JUMPI DUP1 PUSH4 0x3644E515 EQ PUSH2 0x164 JUMPI DUP1 PUSH4 0x39509351 EQ PUSH2 0x16C JUMPI PUSH1 0x0 DUP1 REVERT JUMPDEST DUP1 PUSH4 0x6FDDE03 EQ PUSH2 0xEF JUMPI DUP1 PUSH4 0x95EA7B3 EQ PUSH2 0x10D JUMPI DUP1 PUSH4 0x18160DDD EQ PUSH2 0x130 JUMPI JUMPDEST PUSH1 0x0 DUP1 REVERT JUMPDEST PUSH2 0xF7 PUSH2 0x244 JUMP JUMPDEST PUSH1 0x40 MLOAD PUSH2 0x104 SWAP2 SWAP1 PUSH2 0x99F JUMP JUMPDEST PUSH1 0x40 MLOAD DUP1 SWAP2 SUB SWAP1 RETURN JUMPDEST PUSH2 0x120 PUSH2 0x11B CALLDATASIZE PUSH1 0x4 PUSH2 0xA09 JUMP JUMPDEST PUSH2 0x2D6 JUMP JUMPDEST PUSH1 0x40 MLOAD SWAP1 ISZERO ISZERO DUP2 MSTORE PUSH1 0x20 ADD PUSH2 0x104 JUMP JUMPDEST PUSH1 0x2 SLOAD JUMPDEST PUSH1 0x40 MLOAD SWAP1 DUP2 MSTORE PUSH1 0x20 ADD PUSH2 0x104 JUMP JUMPDEST PUSH2 0x120 PUSH2 0x150 CALLDATASIZE PUSH1 0x4 PUSH2 0xA33 JUMP JUMPDEST PUSH2 0x2ED JUMP JUMPDEST PUSH1 0x40 MLOAD PUSH1 0x12 DUP2 MSTORE PUSH1 0x20 ADD PUSH2 0x104 JUMP JUMPDEST PUSH2 0x134 PUSH2 0x379 JUMP JUMPDEST PUSH2 0x120 PUSH2 0x17A CALLDATASIZE PUSH1 0x4 PUSH2 0xA09 JUMP JUMPDEST PUSH2 0x474 JUMP JUMPDEST PUSH2 0x134 PUSH2 0x18D CALLDATASIZE PUSH1 0x4 PUSH2 0xA70 JUMP JUMPDEST PUSH1 0x1 PUSH1 0x1 PUSH1 0xA0 SHL SUB AND PUSH1 0x0 SWAP1 DUP2 MSTORE PUSH1 0x20 DUP2 SWAP1 MSTORE PUSH1 0x40 SWAP1 KECCAK256 SLOAD SWAP1 JUMP JUMPDEST PUSH2 0x134 PUSH2 0x1B6 CALLDATASIZE PUSH1 0x4 PUSH2 0xA70 JUMP JUMPDEST PUSH1 0x5 PUSH1 0x20 MSTORE PUSH1 0x0 SWAP1 DUP2 MSTORE PUSH1 0x40 SWAP1 KECCAK256 SLOAD DUP2 JUMP JUMPDEST PUSH2 0xF7 PUSH2 0x4BD JUMP JUMPDEST PUSH2 0x120 PUSH2 0x1DE CALLDATASIZE PUSH1 0x4 PUSH2 0xA09 JUMP JUMPDEST PUSH2 0x4CC JUMP JUMPDEST PUSH2 0x120 PUSH2 0x1F1 CALLDATASIZE PUSH1 0x4 PUSH2 0xA09 JUMP JUMPDEST PUSH2 0x546 JUMP JUMPDEST PUSH2 0x209 PUSH2 0x204 CALLDATASIZE PUSH1 0x4 PUSH2 0xA92 JUMP JUMPDEST PUSH2 0x553 JUMP JUMPDEST STOP JUMPDEST PUSH2 0x134 PUSH2 0x219 CALLDATASIZE PUSH1 0x4 PUSH2 0xB05 JUMP JUMPDEST PUSH1 0x1 PUSH1 0x1 PUSH1 0xA0 SHL SUB SWAP2 DUP3 AND PUSH1 0x0 SWAP1 DUP2 MSTORE PUSH1 0x1 PUSH1 0x20 SWAP1 DUP2 MSTORE PUSH1 0x40 DUP1 DUP4 KECCAK256 SWAP4 SWAP1 SWAP5 AND DUP3 MSTORE SWAP2 SWAP1 SWAP2 MSTORE KECCAK256 SLOAD SWAP1 JUMP JUMPDEST PUSH1 0x60 PUSH1 0x3 DUP1 SLOAD PUSH2 0x253 SWAP1 PUSH2 0xB38 JUMP JUMPDEST DUP1 PUSH1 0x1F ADD PUSH1 0x20 DUP1 SWAP2 DIV MUL PUSH1 0x20 ADD PUSH1 0x40 MLOAD SWAP1 DUP2 ADD PUSH1 0x40 MSTORE DUP1 SWAP3 SWAP2 SWAP1 DUP2 DUP2 MSTORE PUSH1 0x20 ADD DUP3 DUP1 SLOAD PUSH2 0x27F SWAP1 PUSH2 0xB38 JUMP JUMPDEST DUP1 ISZERO PUSH2 0x2CC JUMPI DUP1 PUSH1 0x1F LT PUSH2 0x2A1 JUMPI PUSH2 0x100 DUP1 DUP4 SLOAD DIV MUL DUP4 MSTORE SWAP2 PUSH1 0x20 ADD SWAP2 PUSH2 0x2CC JUMP JUMPDEST DUP3 ADD SWAP2 SWAP1 PUSH1 0x0 MSTORE PUSH1 0x20 PUSH1 0x0 KECCAK256 SWAP1 JUMPDEST DUP2 SLOAD DUP2 MSTORE SWAP1 PUSH1 0x1 ADD SWAP1 PUSH1 0x20 ADD DUP1 DUP4 GT PUSH2 0x2AF JUMPI DUP3 SWAP1 SUB PUSH1 0x1F AND DUP3 ADD SWAP2 JUMPDEST POP POP POP POP POP SWAP1 POP SWAP1 JUMP JUMPDEST PUSH1 0x0 PUSH2 0x2E3 CALLER DUP5 DUP5 PUSH2 0x74C JUMP JUMPDEST POP PUSH1 0x1 JUMPDEST SWAP3 SWAP2 POP POP JUMP JUMPDEST PUSH1 0x1 PUSH1 0x1 PUSH1 0xA0 SHL SUB DUP4 AND PUSH1 0x0 SWAP1 DUP2 MSTORE PUSH1 0x1 PUSH1 0x20 SWAP1 DUP2 MSTORE PUSH1 0x40 DUP1 DUP4 KECCAK256 CALLER DUP5 MSTORE SWAP1 SWAP2 MSTORE DUP2 KECCAK256 SLOAD DUP3 DUP2 LT ISZERO PUSH2 0x356 JUMPI PUSH1 0x40 MLOAD PUSH3 0x461BCD PUSH1 0xE5 SHL DUP2 MSTORE PUSH1 0x20 PUSH1 0x4 DUP3 ADD MSTORE PUSH1 0xD PUSH1 0x24 DUP3 ADD MSTORE PUSH13 0x414C4C4F57414E43455F4C4F57 PUSH1 0x98 SHL PUSH1 0x44 DUP3 ADD MSTORE PUSH1 0x64 ADD JUMPDEST PUSH1 0x40 MLOAD DUP1 SWAP2 SUB SWAP1 REVERT JUMPDEST PUSH2 0x363 DUP6 CALLER DUP6 DUP5 SUB PUSH2 0x74C JUMP JUMPDEST PUSH2 0x36E DUP6 DUP6 DUP6 PUSH2 0x835 JUMP JUMPDEST POP PUSH1 0x1 SWAP5 SWAP4 POP POP POP POP JUMP JUMPDEST PUSH1 0x0 PUSH32 0x0 CHAINID EQ PUSH2 0x44F JUMPI PUSH32 0x1A83649F11A3E56D58ED3274189F99AB6137D641DFDFDEB45DD06A89F72C4E52 PUSH1 0x3 PUSH1 0x40 MLOAD PUSH2 0x3D2 SWAP2 SWAP1 PUSH2 0xB72 JUMP JUMPDEST PUSH1 0x40 DUP1 MLOAD SWAP2 DUP3 SWAP1 SUB DUP3 KECCAK256 DUP3 DUP3 ADD DUP3 MSTORE PUSH1 0x1 DUP4 MSTORE PUSH1 0x31 PUSH1 0xF8 SHL PUSH1 0x20 SWAP4 DUP5 ADD MSTORE DUP2 MLOAD SWAP3 DUP4 ADD SWAP4 SWAP1 SWAP4 MSTORE DUP2 ADD SWAP2 SWAP1 SWAP2 MSTORE PUSH32 0xC89EFDAA54C0F20C7ADF612882DF0950F5A951637E0307CDCB4C672F298B8BC6 PUSH1 0x60 DUP3 ADD MSTORE CHAINID PUSH1 0x80 DUP3 ADD MSTORE ADDRESS PUSH1 0xA0 DUP3 ADD MSTORE PUSH1 0xC0 ADD PUSH1 0x40 MLOAD PUSH1 0x20 DUP2 DUP4 SUB SUB DUP2 MSTORE SWAP1 PUSH1 0x40 MSTORE DUP1 MLOAD SWAP1 PUSH1 0x20 ADD KECCAK256 SWAP1 POP SWAP1 JUMP JUMPDEST POP PUSH32 0x0 SWAP1 JUMP JUMPDEST CALLER PUSH1 0x0 DUP2 DUP2 MSTORE PUSH1 0x1 PUSH1 0x20 SWAP1 DUP2 MSTORE PUSH1 0x40 DUP1 DUP4 KECCAK256 PUSH1 0x1 PUSH1 0x1 PUSH1 0xA0 SHL SUB DUP8 AND DUP5 MSTORE SWAP1 SWAP2 MSTORE DUP2 KECCAK256 SLOAD SWAP1 SWAP2 SWAP1 PUSH2 0x4B3 SWAP1 DUP3 SWAP1 DUP7 SWAP1 PUSH2 0x4AE SWAP1 DUP8 SWAP1 PUSH2 0xC27 JUMP JUMPDEST PUSH2 0x74C JUMP JUMPDEST POP PUSH1 0x1 SWAP4 SWAP3 POP POP POP JUMP JUMPDEST PUSH1 0x60 PUSH1 0x4 DUP1 SLOAD PUSH2 0x253 SWAP1 PUSH2 0xB38 JUMP JUMPDEST CALLER PUSH1 0x0 DUP2 DUP2 MSTORE PUSH1 0x1 PUSH1 0x20 SWAP1 DUP2 MSTORE PUSH1 0x40 DUP1 DUP4 KECCAK256 PUSH1 0x1 PUSH1 0x1 PUSH1 0xA0 SHL SUB DUP8 AND DUP5 MSTORE SWAP1 SWAP2 MSTORE DUP2 KECCAK256 SLOAD SWAP1 SWAP2 SWAP1 DUP4 DUP2 LT ISZERO PUSH2 0x539 JUMPI PUSH1 0x40 MLOAD PUSH3 0x461BCD PUSH1 0xE5 SHL DUP2 MSTORE PUSH1 0x20 PUSH1 0x4 DUP3 ADD MSTORE PUSH1 0x13 PUSH1 0x24 DUP3 ADD MSTORE PUSH19 0x414C4C4F57414E43455F554E444552464C4F57 PUSH1 0x68 SHL PUSH1 0x44 DUP3 ADD MSTORE PUSH1 0x64 ADD PUSH2 0x34D JUMP JUMPDEST PUSH2 0x36E DUP3 DUP7 DUP7 DUP5 SUB PUSH2 0x74C JUMP JUMPDEST PUSH1 0x0 PUSH2 0x2E3 CALLER DUP5 DUP5 PUSH2 0x835 JUMP JUMPDEST DUP4 TIMESTAMP GT ISZERO PUSH2 0x58D JUMPI PUSH1 0x40 MLOAD PUSH3 0x461BCD PUSH1 0xE5 SHL DUP2 MSTORE PUSH1 0x20 PUSH1 0x4 DUP3 ADD MSTORE PUSH1 0x7 PUSH1 0x24 DUP3 ADD MSTORE PUSH7 0x11561412549151 PUSH1 0xCA SHL PUSH1 0x44 DUP3 ADD MSTORE PUSH1 0x64 ADD PUSH2 0x34D JUMP JUMPDEST PUSH1 0x1 PUSH1 0x1 PUSH1 0xA0 SHL SUB DUP8 AND PUSH1 0x0 SWAP1 DUP2 MSTORE PUSH1 0x5 PUSH1 0x20 MSTORE PUSH1 0x40 DUP2 KECCAK256 DUP1 SLOAD SWAP1 DUP3 PUSH2 0x5B2 DUP4 PUSH2 0xC3A JUMP JUMPDEST SWAP1 SWAP2 SSTORE POP PUSH1 0x40 DUP1 MLOAD PUSH32 0x6E71EDAE12B1B97F4D1F60370FEF10105FA2FAAE0126114A169C64845D6126C9 PUSH1 0x20 DUP1 DUP4 ADD SWAP2 SWAP1 SWAP2 MSTORE PUSH1 0x1 PUSH1 0x1 PUSH1 0xA0 SHL SUB DUP13 DUP2 AND DUP4 DUP6 ADD MSTORE DUP12 AND PUSH1 0x60 DUP4 ADD MSTORE PUSH1 0x80 DUP3 ADD DUP11 SWAP1 MSTORE PUSH1 0xA0 DUP3 ADD DUP5 SWAP1 MSTORE PUSH1 0xC0 DUP1 DUP4 ADD DUP11 SWAP1 MSTORE DUP4 MLOAD DUP1 DUP5 SUB SWAP1 SWAP2 ADD DUP2 MSTORE PUSH1 0xE0 SWAP1 SWAP3 ADD SWAP1 SWAP3 MSTORE DUP1 MLOAD SWAP2 ADD KECCAK256 SWAP1 SWAP2 POP PUSH1 0x0 PUSH2 0x634 PUSH2 0x379 JUMP JUMPDEST PUSH1 0x40 MLOAD PUSH2 0x1901 PUSH1 0xF0 SHL PUSH1 0x20 DUP3 ADD MSTORE PUSH1 0x22 DUP2 ADD SWAP2 SWAP1 SWAP2 MSTORE PUSH1 0x42 DUP2 ADD DUP4 SWAP1 MSTORE PUSH1 0x62 ADD PUSH1 0x40 DUP1 MLOAD PUSH1 0x1F NOT DUP2 DUP5 SUB ADD DUP2 MSTORE DUP3 DUP3 MSTORE DUP1 MLOAD PUSH1 0x20 SWAP2 DUP3 ADD KECCAK256 PUSH1 0x0 DUP1 DUP6 MSTORE SWAP2 DUP5 ADD DUP1 DUP5 MSTORE DUP2 SWAP1 MSTORE PUSH1 0xFF DUP11 AND SWAP3 DUP5 ADD SWAP3 SWAP1 SWAP3 MSTORE PUSH1 0x60 DUP4 ADD DUP9 SWAP1 MSTORE PUSH1 0x80 DUP4 ADD DUP8 SWAP1 MSTORE SWAP1 SWAP3 POP SWAP1 PUSH1 0x1 SWAP1 PUSH1 0xA0 ADD PUSH1 0x20 PUSH1 0x40 MLOAD PUSH1 0x20 DUP2 SUB SWAP1 DUP1 DUP5 SUB SWAP1 DUP6 GAS STATICCALL ISZERO DUP1 ISZERO PUSH2 0x6BF JUMPI RETURNDATASIZE PUSH1 0x0 DUP1 RETURNDATACOPY RETURNDATASIZE PUSH1 0x0 REVERT JUMPDEST POP POP POP PUSH1 0x20 PUSH1 0x40 MLOAD SUB MLOAD SWAP1 POP DUP11 PUSH1 0x1 PUSH1 0x1 PUSH1 0xA0 SHL SUB AND DUP2 PUSH1 0x1 PUSH1 0x1 PUSH1 0xA0 SHL SUB AND EQ DUP1 ISZERO PUSH2 0x6F4 JUMPI POP PUSH1 0x1 PUSH1 0x1 PUSH1 0xA0 SHL SUB DUP2 AND ISZERO ISZERO JUMPDEST PUSH2 0x734 JUMPI PUSH1 0x40 MLOAD PUSH3 0x461BCD PUSH1 0xE5 SHL DUP2 MSTORE PUSH1 0x20 PUSH1 0x4 DUP3 ADD MSTORE PUSH1 0x11 PUSH1 0x24 DUP3 ADD MSTORE PUSH17 0x494E56414C49445F5349474E4154555245 PUSH1 0x78 SHL PUSH1 0x44 DUP3 ADD MSTORE PUSH1 0x64 ADD PUSH2 0x34D JUMP JUMPDEST PUSH2 0x73F DUP12 DUP12 DUP12 PUSH2 0x74C JUMP JUMPDEST POP POP POP POP POP POP POP POP POP POP POP JUMP JUMPDEST PUSH1 0x1 PUSH1 0x1 PUSH1 0xA0 SHL SUB DUP4 AND PUSH2 0x78F JUMPI PUSH1 0x40 MLOAD PUSH3 0x461BCD PUSH1 0xE5 SHL DUP2 MSTORE PUSH1 0x20 PUSH1 0x4 DUP3 ADD MSTORE PUSH1 0xA PUSH1 0x24 DUP3 ADD MSTORE PUSH10 0x4F574E45525F5A45524F PUSH1 0xB0 SHL PUSH1 0x44 DUP3 ADD MSTORE PUSH1 0x64 ADD PUSH2 0x34D JUMP JUMPDEST PUSH1 0x1 PUSH1 0x1 PUSH1 0xA0 SHL SUB DUP3 AND PUSH2 0x7D4 JUMPI PUSH1 0x40 MLOAD PUSH3 0x461BCD PUSH1 0xE5 SHL DUP2 MSTORE PUSH1 0x20 PUSH1 0x4 DUP3 ADD MSTORE PUSH1 0xC PUSH1 0x24 DUP3 ADD MSTORE PUSH12 0x5350454E4445525F5A45524F PUSH1 0xA0 SHL PUSH1 0x44 DUP3 ADD MSTORE PUSH1 0x64 ADD PUSH2 0x34D JUMP JUMPDEST PUSH1 0x1 PUSH1 0x1 PUSH1 0xA0 SHL SUB DUP4 DUP2 AND PUSH1 0x0 DUP2 DUP2 MSTORE PUSH1 0x1 PUSH1 0x20 SWAP1 DUP2 MSTORE PUSH1 0x40 DUP1 DUP4 KECCAK256 SWAP5 DUP8 AND DUP1 DUP5 MSTORE SWAP5 DUP3 MSTORE SWAP2 DUP3 SWAP1 KECCAK256 DUP6 SWAP1 SSTORE SWAP1 MLOAD DUP5 DUP2 MSTORE PUSH32 0x8C5BE1E5EBEC7D5BD14F71427D1E84F3DD0314C0F7B2291E5B200AC8C7C3B925 SWAP2 ADD PUSH1 0x40 MLOAD DUP1 SWAP2 SUB SWAP1 LOG3 POP POP POP JUMP JUMPDEST PUSH1 0x1 PUSH1 0x1 PUSH1 0xA0 SHL SUB DUP4 AND PUSH2 0x877 JUMPI PUSH1 0x40 MLOAD PUSH3 0x461BCD PUSH1 0xE5 SHL DUP2 MSTORE PUSH1 0x20 PUSH1 0x4 DUP3 ADD MSTORE PUSH1 0x9 PUSH1 0x24 DUP3 ADD MSTORE PUSH9 0x46524F4D5F5A45524F PUSH1 0xB8 SHL PUSH1 0x44 DUP3 ADD MSTORE PUSH1 0x64 ADD PUSH2 0x34D JUMP JUMPDEST PUSH1 0x1 PUSH1 0x1 PUSH1 0xA0 SHL SUB DUP3 AND PUSH2 0x8B7 JUMPI PUSH1 0x40 MLOAD PUSH3 0x461BCD PUSH1 0xE5 SHL DUP2 MSTORE PUSH1 0x20 PUSH1 0x4 DUP3 ADD MSTORE PUSH1 0x7 PUSH1 0x24 DUP3 ADD MSTORE PUSH7 0x544F5F5A45524F PUSH1 0xC8 SHL PUSH1 0x44 DUP3 ADD MSTORE PUSH1 0x64 ADD PUSH2 0x34D JUMP JUMPDEST PUSH1 0x1 PUSH1 0x1 PUSH1 0xA0 SHL SUB DUP4 AND PUSH1 0x0 SWAP1 DUP2 MSTORE PUSH1 0x20 DUP2 SWAP1 MSTORE PUSH1 0x40 SWAP1 KECCAK256 SLOAD DUP2 DUP2 LT ISZERO PUSH2 0x90E JUMPI PUSH1 0x40 MLOAD PUSH3 0x461BCD PUSH1 0xE5 SHL DUP2 MSTORE PUSH1 0x20 PUSH1 0x4 DUP3 ADD MSTORE PUSH1 0xB PUSH1 0x24 DUP3 ADD MSTORE PUSH11 0x42414C414E43455F4C4F57 PUSH1 0xA8 SHL PUSH1 0x44 DUP3 ADD MSTORE PUSH1 0x64 ADD PUSH2 0x34D JUMP JUMPDEST PUSH1 0x1 PUSH1 0x1 PUSH1 0xA0 SHL SUB DUP1 DUP6 AND PUSH1 0x0 SWAP1 DUP2 MSTORE PUSH1 0x20 DUP2 SWAP1 MSTORE PUSH1 0x40 DUP1 DUP3 KECCAK256 DUP6 DUP6 SUB SWAP1 SSTORE SWAP2 DUP6 AND DUP2 MSTORE SWAP1 DUP2 KECCAK256 DUP1 SLOAD DUP5 SWAP3 SWAP1 PUSH2 0x945 SWAP1 DUP5 SWAP1 PUSH2 0xC27 JUMP JUMPDEST SWAP3 POP POP DUP2 SWAP1 SSTORE POP DUP3 PUSH1 0x1 PUSH1 0x1 PUSH1 0xA0 SHL SUB AND DUP5 PUSH1 0x1 PUSH1 0x1 PUSH1 0xA0 SHL SUB AND PUSH32 0xDDF252AD1BE2C89B69C2B068FC378DAA952BA7F163C4A11628F55A4DF523B3EF DUP5 PUSH1 0x40 MLOAD PUSH2 0x991 SWAP2 DUP2 MSTORE PUSH1 0x20 ADD SWAP1 JUMP JUMPDEST PUSH1 0x40 MLOAD DUP1 SWAP2 SUB SWAP1 LOG3 POP POP POP POP JUMP JUMPDEST PUSH1 0x20 DUP2 MSTORE PUSH1 0x0 DUP3 MLOAD DUP1 PUSH1 0x20 DUP5 ADD MSTORE PUSH1 0x0 JUMPDEST DUP2 DUP2 LT ISZERO PUSH2 0x9CD JUMPI PUSH1 0x20 DUP2 DUP7 ADD DUP2 ADD MLOAD PUSH1 0x40 DUP7 DUP5 ADD ADD MSTORE ADD PUSH2 0x9B0 JUMP JUMPDEST POP PUSH1 0x0 PUSH1 0x40 DUP3 DUP6 ADD ADD MSTORE PUSH1 0x40 PUSH1 0x1F NOT PUSH1 0x1F DUP4 ADD AND DUP5 ADD ADD SWAP2 POP POP SWAP3 SWAP2 POP POP JUMP JUMPDEST DUP1 CALLDATALOAD PUSH1 0x1 PUSH1 0x1 PUSH1 0xA0 SHL SUB DUP2 AND DUP2 EQ PUSH2 0xA04 JUMPI PUSH1 0x0 DUP1 REVERT JUMPDEST SWAP2 SWAP1 POP JUMP JUMPDEST PUSH1 0x0 DUP1 PUSH1 0x40 DUP4 DUP6 SUB SLT ISZERO PUSH2 0xA1C JUMPI PUSH1 0x0 DUP1 REVERT JUMPDEST PUSH2 0xA25 DUP4 PUSH2 0x9ED JUMP JUMPDEST SWAP5 PUSH1 0x20 SWAP4 SWAP1 SWAP4 ADD CALLDATALOAD SWAP4 POP POP POP JUMP JUMPDEST PUSH1 0x0 DUP1 PUSH1 0x0 PUSH1 0x60 DUP5 DUP7 SUB SLT ISZERO PUSH2 0xA48 JUMPI PUSH1 0x0 DUP1 REVERT JUMPDEST PUSH2 0xA51 DUP5 PUSH2 0x9ED JUMP JUMPDEST SWAP3 POP PUSH2 0xA5F PUSH1 0x20 DUP6 ADD PUSH2 0x9ED JUMP JUMPDEST SWAP3 SWAP6 SWAP3 SWAP5 POP POP POP PUSH1 0x40 SWAP2 SWAP1 SWAP2 ADD CALLDATALOAD SWAP1 JUMP JUMPDEST PUSH1 0x0 PUSH1 0x20 DUP3 DUP5 SUB SLT ISZERO PUSH2 0xA82 JUMPI PUSH1 0x0 DUP1 REVERT JUMPDEST PUSH2 0xA8B DUP3 PUSH2 0x9ED JUMP JUMPDEST SWAP4 SWAP3 POP POP POP JUMP JUMPDEST PUSH1 0x0 DUP1 PUSH1 0x0 DUP1 PUSH1 0x0 DUP1 PUSH1 0x0 PUSH1 0xE0 DUP9 DUP11 SUB SLT ISZERO PUSH2 0xAAD JUMPI PUSH1 0x0 DUP1 REVERT JUMPDEST PUSH2 0xAB6 DUP9 PUSH2 0x9ED JUMP JUMPDEST SWAP7 POP PUSH2 0xAC4 PUSH1 0x20 DUP10 ADD PUSH2 0x9ED JUMP JUMPDEST SWAP6 POP PUSH1 0x40 DUP9 ADD CALLDATALOAD SWAP5 POP PUSH1 0x60 DUP9 ADD CALLDATALOAD SWAP4 POP PUSH1 0x80 DUP9 ADD CALLDATALOAD PUSH1 0xFF DUP2 AND DUP2 EQ PUSH2 0xAE8 JUMPI PUSH1 0x0 DUP1 REVERT JUMPDEST SWAP7 SWAP10 SWAP6 SWAP9 POP SWAP4 SWAP7 SWAP3 SWAP6 SWAP5 PUSH1 0xA0 DUP5 ADD CALLDATALOAD SWAP5 POP PUSH1 0xC0 SWAP1 SWAP4 ADD CALLDATALOAD SWAP3 SWAP2 POP POP JUMP JUMPDEST PUSH1 0x0 DUP1 PUSH1 0x40 DUP4 DUP6 SUB SLT ISZERO PUSH2 0xB18 JUMPI PUSH1 0x0 DUP1 REVERT JUMPDEST PUSH2 0xB21 DUP4 PUSH2 0x9ED JUMP JUMPDEST SWAP2 POP PUSH2 0xB2F PUSH1 0x20 DUP5 ADD PUSH2 0x9ED JUMP JUMPDEST SWAP1 POP SWAP3 POP SWAP3 SWAP1 POP JUMP JUMPDEST PUSH1 0x1 DUP2 DUP2 SHR SWAP1 DUP3 AND DUP1 PUSH2 0xB4C JUMPI PUSH1 0x7F DUP3 AND SWAP2 POP JUMPDEST PUSH1 0x20 DUP3 LT DUP2 SUB PUSH2 0xB6C JUMPI PUSH4 0x4E487B71 PUSH1 0xE0 SHL PUSH1 0x0 MSTORE PUSH1 0x22 PUSH1 0x4 MSTORE PUSH1 0x24 PUSH1 0x0 REVERT JUMPDEST POP SWAP2 SWAP1 POP JUMP JUMPDEST PUSH1 0x0 DUP1 DUP4 SLOAD DUP2 DUP2 PUSH1 0x1 SHR SWAP1 POP PUSH1 0x1 DUP3 AND DUP1 PUSH2 0xB8E JUMPI PUSH1 0x7F DUP3 AND SWAP2 POP JUMPDEST PUSH1 0x20 DUP3 LT DUP2 SUB PUSH2 0xBAC JUMPI PUSH4 0x4E487B71 PUSH1 0xE0 SHL DUP5 MSTORE PUSH1 0x22 PUSH1 0x4 MSTORE PUSH1 0x24 DUP5 REVERT JUMPDEST DUP1 DUP1 ISZERO PUSH2 0xBC0 JUMPI PUSH1 0x1 DUP2 EQ PUSH2 0xBD5 JUMPI PUSH2 0xC05 JUMP JUMPDEST PUSH1 0xFF NOT DUP5 AND DUP8 MSTORE DUP3 ISZERO ISZERO DUP4 MUL DUP8 ADD SWAP5 POP PUSH2 0xC05 JUMP JUMPDEST PUSH1 0x0 DUP9 DUP2 MSTORE PUSH1 0x20 SWAP1 KECCAK256 PUSH1 0x0 JUMPDEST DUP5 DUP2 LT ISZERO PUSH2 0xBFD JUMPI DUP2 SLOAD DUP10 DUP3 ADD MSTORE PUSH1 0x1 SWAP1 SWAP2 ADD SWAP1 PUSH1 0x20 ADD PUSH2 0xBE1 JUMP JUMPDEST POP POP DUP3 DUP8 ADD SWAP5 POP JUMPDEST POP SWAP3 SWAP7 SWAP6 POP POP POP POP POP POP JUMP JUMPDEST PUSH4 0x4E487B71 PUSH1 0xE0 SHL PUSH1 0x0 MSTORE PUSH1 0x11 PUSH1 0x4 MSTORE PUSH1 0x24 PUSH1 0x0 REVERT JUMPDEST DUP1 DUP3 ADD DUP1 DUP3 GT ISZERO PUSH2 0x2E7 JUMPI PUSH2 0x2E7 PUSH2 0xC11 JUMP JUMPDEST PUSH1 0x0 PUSH1 0x1 DUP3 ADD PUSH2 0xC4C JUMPI PUSH2 0xC4C PUSH2 0xC11 JUMP JUMPDEST POP PUSH1 0x1 ADD SWAP1 JUMP INVALID LOG2 PUSH5 0x6970667358 0x22 SLT KECCAK256 0xD9 0xEA 0xA8 SWAP9 PUSH19 0x3F3DCF24860CA11CA14F2B08D646C63FF2DC2E 0x27 EXP INVALID AND PUSH29 0x80AD5B64736F6C634300081A0033000000000000000000000000000000 "
				},
				"gasEstimates": {
					"creation": {
						"codeDepositCost": "641800",
						"executionCost": "infinite",
						"totalCost": "infinite"
					},
					"external": {
						"DOMAIN_SEPARATOR()": "infinite",
						"allowance(address,address)": "infinite",
						"approve(address,uint256)": "24643",
						"balanceOf(address)": "2563",
						"decimals()": "222",
						"decreaseAllowance(address,uint256)": "26922",
						"increaseAllowance(address,uint256)": "27039",
						"name()": "infinite",
						"nonces(address)": "2564",
						"permit(address,address,uint256,uint256,uint8,bytes32,bytes32)": "infinite",
						"symbol()": "infinite",
						"totalSupply()": "2349",
						"transfer(address,uint256)": "infinite",
						"transferFrom(address,address,uint256)": "infinite"
					}
				},
				"methodIdentifiers": {
					"DOMAIN_SEPARATOR()": "3644e515",
					"allowance(address,address)": "dd62ed3e",
					"approve(address,uint256)": "095ea7b3",
					"balanceOf(address)": "70a08231",
					"decimals()": "313ce567",
					"decreaseAllowance(address,uint256)": "a457c2d7",
					"increaseAllowance(address,uint256)": "39509351",
					"name()": "06fdde03",
					"nonces(address)": "7ecebe00",
					"permit(address,address,uint256,uint256,uint8,bytes32,bytes32)": "d505accf",
					"symbol()": "95d89b41",
					"totalSupply()": "18160ddd",
					"transfer(address,uint256)": "a9059cbb",
					"transferFrom(address,address,uint256)": "23b872dd"
				}
			},
			"storageLayout": {
				"storage": [
					{
						"astId": 17,
						"contract": "Smart-Contract/PanjoCoin.sol:ERC20Permit",
						"label": "_balances",
						"offset": 0,
						"slot": "0",
						"type": "t_mapping(t_address,t_uint256)"
					},
					{
						"astId": 23,
						"contract": "Smart-Contract/PanjoCoin.sol:ERC20Permit",
						"label": "_allowances",
						"offset": 0,
						"slot": "1",
						"type": "t_mapping(t_address,t_mapping(t_address,t_uint256))"
					},
					{
						"astId": 25,
						"contract": "Smart-Contract/PanjoCoin.sol:ERC20Permit",
						"label": "_totalSupply",
						"offset": 0,
						"slot": "2",
						"type": "t_uint256"
					},
					{
						"astId": 27,
						"contract": "Smart-Contract/PanjoCoin.sol:ERC20Permit",
						"label": "_name",
						"offset": 0,
						"slot": "3",
						"type": "t_string_storage"
					},
					{
						"astId": 29,
						"contract": "Smart-Contract/PanjoCoin.sol:ERC20Permit",
						"label": "_symbol",
						"offset": 0,
						"slot": "4",
						"type": "t_string_storage"
					},
					{
						"astId": 480,
						"contract": "Smart-Contract/PanjoCoin.sol:ERC20Permit",
						"label": "nonces",
						"offset": 0,
						"slot": "5",
						"type": "t_mapping(t_address,t_uint256)"
					}
				],
				"types": {
					"t_address": {
						"encoding": "inplace",
						"label": "address",
						"numberOfBytes": "20"
					},
					"t_mapping(t_address,t_mapping(t_address,t_uint256))": {
						"encoding": "mapping",
						"key": "t_address",
						"label": "mapping(address => mapping(address => uint256))",
						"numberOfBytes": "32",
						"value": "t_mapping(t_address,t_uint256)"
					},
					"t_mapping(t_address,t_uint256)": {
						"encoding": "mapping",
						"key": "t_address",
						"label": "mapping(address => uint256)",
						"numberOfBytes": "32",
						"value": "t_uint256"
					},
					"t_string_storage": {
						"encoding": "bytes",
						"label": "string",
						"numberOfBytes": "32"
					},
					"t_uint256": {
						"encoding": "inplace",
						"label": "uint256",
						"numberOfBytes": "32"
					}
				}
			},
			"userdoc": {
				"kind": "user",
				"methods": {},
				"version": 1
			}
		}
	}
}