{
	"Smart-Contract/PanjoCoin.sol": {
		"PanjoCoin": {
			"abi": [
				{
					"inputs": [
						{
							"internalType": "address",
							"name": "distributionWallet",
							"type": "address"
						}
					],
					"stateMutability": "nonpayable",
					"type": "constructor"
				},
				{
					"anonymous": false,
					"inputs": [
						{
							"indexed": true,
							"internalType": "address",
							"name": "owner",
							"type": "address"
						},
						{
							"indexed": true,
							"internalType": "address",
							"name": "spender",
							"type": "address"
						},
						{
							"indexed": false,
							"internalType": "uint256",
							"name": "value",
							"type": "uint256"
						}
					],
					"name": "Approval",
					"type": "event"
				},
				{
					"anonymous": false,
					"inputs": [
						{
							"indexed": true,
							"internalType": "address",
							"name": "from",
							"type": "address"
						},
						{
							"indexed": false,
							"internalType": "uint256",
							"name": "amount",
							"type": "uint256"
						}
					],
					"name": "Burn",
					"type": "event"
				},
				{
					"anonymous": false,
					"inputs": [
						{
							"indexed": true,
							"internalType": "address",
							"name": "from",
							"type": "address"
						},
						{
							"indexed": true,
							"internalType": "address",
							"name": "to",
							"type": "address"
						},
						{
							"indexed": false,
							"internalType": "uint256",
							"name": "value",
							"type": "uint256"
						}
					],
					"name": "Transfer",
					"type": "event"
				},
				{
					"inputs": [],
					"name": "DOMAIN_SEPARATOR",
					"outputs": [
						{
							"internalType": "bytes32",
							"name": "",
							"type": "bytes32"
						}
					],
					"stateMutability": "view",
					"type": "function"
				},
				{
					"inputs": [],
					"name": "MAX_SUPPLY",
					"outputs": [
						{
							"internalType": "uint256",
							"name": "",
							"type": "uint256"
						}
					],
					"stateMutability": "view",
					"type": "function"
				},
				{
					"inputs": [
						{
							"internalType": "address",
							"name": "owner",
							"type": "address"
						},
						{
							"internalType": "address",
							"name": "spender",
							"type": "address"
						}
					],
					"name": "allowance",
					"outputs": [
						{
							"internalType": "uint256",
							"name": "",
							"type": "uint256"
						}
					],
					"stateMutability": "view",
					"type": "function"
				},
				{
					"inputs": [
						{
							"internalType": "address",
							"name": "spender",
							"type": "address"
						},
						{
							"internalType": "uint256",
							"name": "value",
							"type": "uint256"
						}
					],
					"name": "approve",
					"outputs": [
						{
							"internalType": "bool",
							"name": "",
							"type": "bool"
						}
					],
					"stateMutability": "nonpayable",
					"type": "function"
				},
				{
					"inputs": [
						{
							"internalType": "address",
							"name": "account",
							"type": "address"
						}
					],
					"name": "balanceOf",
					"outputs": [
						{
							"internalType": "uint256",
							"name": "",
							"type": "uint256"
						}
					],
					"stateMutability": "view",
					"type": "function"
				},
				{
					"inputs": [
						{
							"internalType": "uint256",
							"name": "amount",
							"type": "uint256"
						}
					],
					"name": "burn",
					"outputs": [],
					"stateMutability": "nonpayable",
					"type": "function"
				},
				{
					"inputs": [],
					"name": "decimals",
					"outputs": [
						{
							"internalType": "uint8",
							"name": "",
							"type": "uint8"
						}
					],
					"stateMutability": "pure",
					"type": "function"
				},
				{
					"inputs": [
						{
							"internalType": "address",
							"name": "spender",
							"type": "address"
						},
						{
							"internalType": "uint256",
							"name": "subtractedValue",
							"type": "uint256"
						}
					],
					"name": "decreaseAllowance",
					"outputs": [
						{
							"internalType": "bool",
							"name": "",
							"type": "bool"
						}
					],
					"stateMutability": "nonpayable",
					"type": "function"
				},
				{
					"inputs": [
						{
							"internalType": "address",
							"name": "spender",
							"type": "address"
						},
						{
							"internalType": "uint256",
							"name": "addedValue",
							"type": "uint256"
						}
					],
					"name": "increaseAllowance",
					"outputs": [
						{
							"internalType": "bool",
							"name": "",
							"type": "bool"
						}
					],
					"stateMutability": "nonpayable",
					"type": "function"
				},
				{
					"inputs": [],
					"name": "name",
					"outputs": [
						{
							"internalType": "string",
							"name": "",
							"type": "string"
						}
					],
					"stateMutability": "view",
					"type": "function"
				},
				{
					"inputs": [
						{
							"internalType": "address",
							"name": "",
							"type": "address"
						}
					],
					"name": "nonces",
					"outputs": [
						{
							"internalType": "uint256",
							"name": "",
							"type": "uint256"
						}
					],
					"stateMutability": "view",
					"type": "function"
				},
				{
					"inputs": [
						{
							"internalType": "address",
							"name": "owner",
							"type": "address"
						},
						{
							"internalType": "address",
							"name": "spender",
							"type": "address"
						},
						{
							"internalType": "uint256",
							"name": "value",
							"type": "uint256"
						},
						{
							"internalType": "uint256",
							"name": "deadline",
							"type": "uint256"
						},
						{
							"internalType": "uint8",
							"name": "v",
							"type": "uint8"
						},
						{
							"internalType": "bytes32",
							"name": "r",
							"type": "bytes32"
						},
						{
							"internalType": "bytes32",
							"name": "s",
							"type": "bytes32"
						}
					],
					"name": "permit",
					"outputs": [],
					"stateMutability": "nonpayable",
					"type": "function"
				},
				{
					"inputs": [],
					"name": "symbol",
					"outputs": [
						{
							"internalType": "string",
							"name": "",
							"type": "string"
						}
					],
					"stateMutability": "view",
					"type": "function"
				},
				{
					"inputs": [],
					"name": "totalSupply",
					"outputs": [
						{
							"internalType": "uint256",
							"name": "",
							"type": "uint256"
						}
					],
					"stateMutability": "view",
					"type": "function"
				},
				{
					"inputs": [
						{
							"internalType": "address",
							"name": "to",
							"type": "address"
						},
						{
							"internalType": "uint256",
							"name": "value",
							"type": "uint256"
						}
					],
					"name": "transfer",
					"outputs": [
						{
							"internalType": "bool",
							"name": "",
							"type": "bool"
						}
					],
					"stateMutability": "nonpayable",
					"type": "function"
				},
				{
					"inputs": [
						{
							"internalType": "address",
							"name": "from",
							"type": "address"
						},
						{
							"internalType": "address",
							"name": "to",
							"type": "address"
						},
						{
							"internalType": "uint256",
							"name": "value",
							"type": "uint256"
						}
					],
					"name": "transferFrom",
					"outputs": [
						{
							"internalType": "bool",
							"name": "",
							"type": "bool"
						}
					],
					"stateMutability": "nonpayable",
					"type": "function"
				}
			],
			"devdoc": {
				"kind": "dev",
				"methods": {},
				"version": 1
			},
			"evm": {
				"assembly": "    /* \"Smart-Contract/PanjoCoin.sol\":7777:8297  contract PanjoCoin is ERC20Permit {... */\n  mstore(0x40, 0xc0)\n    /* \"Smart-Contract/PanjoCoin.sol\":7949:8159  constructor(address distributionWallet)... */\n  callvalue\n  dup1\n  iszero\n  tag_1\n  jumpi\n  0x00\n  dup1\n  revert\ntag_1:\n  pop\n  mload(0x40)\n  sub(codesize, bytecodeSize)\n  dup1\n  bytecodeSize\n  dup4\n  codecopy\n  dup2\n  add\n  0x40\n  dup2\n  swap1\n  mstore\n  tag_2\n  swap2\n  tag_3\n  jump\t// in\ntag_2:\n    /* \"Smart-Contract/PanjoCoin.sol\":5823:6314  constructor(string memory name, string memory symbol)... */\n  mload(0x40)\n  dup1\n  0x40\n  add\n  0x40\n  mstore\n  dup1\n  0x09\n  dup2\n  mstore\n  0x20\n  add\n  shl(0xb9, 0x2830b73537a1b7b4b7)\n  dup2\n  mstore\n  pop\n  mload(0x40)\n  dup1\n  0x40\n  add\n  0x40\n  mstore\n  dup1\n  0x04\n  dup2\n  mstore\n  0x20\n  add\n  shl(0xe0, 0x504e4a43)\n  dup2\n  mstore\n  pop\n    /* \"Smart-Contract/PanjoCoin.sol\":5892:5896  name */\n  dup2\n    /* \"Smart-Contract/PanjoCoin.sol\":5898:5904  symbol */\n  dup2\n    /* \"Smart-Contract/PanjoCoin.sol\":1281:1286  name_ */\n  dup2\n    /* \"Smart-Contract/PanjoCoin.sol\":1273:1278  _name */\n  0x03\n    /* \"Smart-Contract/PanjoCoin.sol\":1273:1286  _name = name_ */\n  swap1\n  dup2\n  tag_8\n  swap2\n  swap1\n  tag_9\n  jump\t// in\ntag_8:\n  pop\n    /* \"Smart-Contract/PanjoCoin.sol\":1297:1304  _symbol */\n  0x04\n    /* \"Smart-Contract/PanjoCoin.sol\":1297:1314  _symbol = symbol_ */\n  tag_10\n    /* \"Smart-Contract/PanjoCoin.sol\":1307:1314  symbol_ */\n  dup3\n    /* \"Smart-Contract/PanjoCoin.sol\":1297:1304  _symbol */\n  dup3\n    /* \"Smart-Contract/PanjoCoin.sol\":1297:1314  _symbol = symbol_ */\n  tag_9\n  jump\t// in\ntag_10:\n  pop\n  pop\n    /* \"Smart-Contract/PanjoCoin.sol\":5941:5954  block.chainid */\n  chainid\n    /* \"Smart-Contract/PanjoCoin.sol\":5922:5954  _CACHED_CHAIN_ID = block.chainid */\n  0xa0\n  dup2\n  dup2\n  mstore\n    /* \"Smart-Contract/PanjoCoin.sol\":6154:6176  keccak256(bytes(name)) */\n  dup5\n  mload\n  0x20\n  dup1\n  dup8\n  add\n  swap2\n  swap1\n  swap2\n  keccak256\n    /* \"Smart-Contract/PanjoCoin.sol\":6205:6215  bytes(\"1\") */\n  0x40\n  dup1\n  mload\n  dup1\n  dup3\n  add\n  dup3\n  mstore\n  0x01\n  dup2\n  mstore\n  shl(0xf8, 0x31)\n  swap1\n  dup5\n  add\n  mstore\n    /* \"Smart-Contract/PanjoCoin.sol\":6011:6295  abi.encode(... */\n  dup1\n  mload\n    /* \"Smart-Contract/PanjoCoin.sol\":6040:6135  keccak256(\"EIP712Domain(string name,string version,uint256 chainid,address verifyingContract)\") */\n  0x1a83649f11a3e56d58ed3274189f99ab6137d641dfdfdeb45dd06a89f72c4e52\n    /* \"Smart-Contract/PanjoCoin.sol\":6011:6295  abi.encode(... */\n  swap4\n  dup2\n  add\n    /* \"#utility.yul\":3209:3234   */\n  swap4\n  swap1\n  swap4\n  mstore\n    /* \"#utility.yul\":3250:3268   */\n  dup3\n  add\n    /* \"#utility.yul\":3243:3277   */\n  mstore\n    /* \"Smart-Contract/PanjoCoin.sol\":6195:6216  keccak256(bytes(\"1\")) */\n  0xc89efdaa54c0f20c7adf612882df0950f5a951637e0307cdcb4c672f298b8bc6\n  0x60\n    /* \"#utility.yul\":3293:3311   */\n  dup3\n  add\n    /* \"#utility.yul\":3286:3320   */\n  mstore\n    /* \"#utility.yul\":3336:3354   */\n  0x80\n  dup2\n  add\n    /* \"#utility.yul\":3329:3363   */\n  swap3\n  swap1\n  swap3\n  mstore\n    /* \"Smart-Contract/PanjoCoin.sol\":6275:6279  this */\n  address\n    /* \"#utility.yul\":3379:3398   */\n  swap1\n  dup3\n  add\n    /* \"#utility.yul\":3372:3433   */\n  mstore\n    /* \"#utility.yul\":3181:3200   */\n  0xc0\n  add\n  swap1\n  pop\n    /* \"Smart-Contract/PanjoCoin.sol\":6011:6295  abi.encode(... */\n  0x40\n  dup1\n  mload\n  not(0x1f)\n  dup2\n  dup5\n  sub\n  add\n  dup2\n  mstore\n  swap2\n  swap1\n  mstore\n    /* \"Smart-Contract/PanjoCoin.sol\":5987:6306  keccak256(... */\n  dup1\n  mload\n    /* \"Smart-Contract/PanjoCoin.sol\":6011:6295  abi.encode(... */\n  0x20\n    /* \"Smart-Contract/PanjoCoin.sol\":5987:6306  keccak256(... */\n  swap1\n  swap2\n  add\n  keccak256\n    /* \"Smart-Contract/PanjoCoin.sol\":5967:6306  _DOMAIN_SEPARATOR = keccak256(... */\n  0x80\n  mstore\n  pop\n  pop\n  sub(shl(0xa0, 0x01), 0x01)\n    /* \"Smart-Contract/PanjoCoin.sol\":8055:8087  distributionWallet != address(0) */\n  dup2\n  and\n    /* \"Smart-Contract/PanjoCoin.sol\":8047:8103  require(distributionWallet != address(0), \"ZERO_WALLET\") */\n  tag_15\n  jumpi\n  mload(0x40)\n  shl(0xe5, 0x461bcd)\n  dup2\n  mstore\n    /* \"#utility.yul\":3646:3648   */\n  0x20\n    /* \"Smart-Contract/PanjoCoin.sol\":8047:8103  require(distributionWallet != address(0), \"ZERO_WALLET\") */\n  0x04\n  dup3\n  add\n    /* \"#utility.yul\":3628:3649   */\n  mstore\n    /* \"#utility.yul\":3685:3687   */\n  0x0b\n    /* \"#utility.yul\":3665:3683   */\n  0x24\n  dup3\n  add\n    /* \"#utility.yul\":3658:3688   */\n  mstore\n  shl(0xaa, 0x16915493d7d5d053131155)\n    /* \"#utility.yul\":3704:3722   */\n  0x44\n  dup3\n  add\n    /* \"#utility.yul\":3697:3738   */\n  mstore\n    /* \"#utility.yul\":3755:3773   */\n  0x64\n  add\n    /* \"Smart-Contract/PanjoCoin.sol\":8047:8103  require(distributionWallet != address(0), \"ZERO_WALLET\") */\ntag_16:\n  mload(0x40)\n  dup1\n  swap2\n  sub\n  swap1\n  revert\ntag_15:\n    /* \"Smart-Contract/PanjoCoin.sol\":8114:8151  _mint(distributionWallet, MAX_SUPPLY) */\n  tag_18\n    /* \"Smart-Contract/PanjoCoin.sol\":8120:8138  distributionWallet */\n  dup2\n    /* \"Smart-Contract/PanjoCoin.sol\":7857:7883  1_000_000_000_000 * 10**18 */\n  0x0c9f2c9cd04674edea40000000\n    /* \"Smart-Contract/PanjoCoin.sol\":8114:8119  _mint */\n  tag_19\n    /* \"Smart-Contract/PanjoCoin.sol\":8114:8151  _mint(distributionWallet, MAX_SUPPLY) */\n  jump\t// in\ntag_18:\n    /* \"Smart-Contract/PanjoCoin.sol\":7949:8159  constructor(address distributionWallet)... */\n  pop\n    /* \"Smart-Contract/PanjoCoin.sol\":7777:8297  contract PanjoCoin is ERC20Permit {... */\n  jump(tag_35)\n    /* \"Smart-Contract/PanjoCoin.sol\":4024:4268  function _mint(address account, uint256 value) internal {... */\ntag_19:\n  sub(shl(0xa0, 0x01), 0x01)\n    /* \"Smart-Contract/PanjoCoin.sol\":4099:4120  account != address(0) */\n  dup3\n  and\n    /* \"Smart-Contract/PanjoCoin.sol\":4091:4134  require(account != address(0), \"MINT_ZERO\") */\n  tag_22\n  jumpi\n  mload(0x40)\n  shl(0xe5, 0x461bcd)\n  dup2\n  mstore\n    /* \"#utility.yul\":3986:3988   */\n  0x20\n    /* \"Smart-Contract/PanjoCoin.sol\":4091:4134  require(account != address(0), \"MINT_ZERO\") */\n  0x04\n  dup3\n  add\n    /* \"#utility.yul\":3968:3989   */\n  mstore\n    /* \"#utility.yul\":4025:4026   */\n  0x09\n    /* \"#utility.yul\":4005:4023   */\n  0x24\n  dup3\n  add\n    /* \"#utility.yul\":3998:4027   */\n  mstore\n  shl(0xb8, 0x4d494e545f5a45524f)\n    /* \"#utility.yul\":4043:4061   */\n  0x44\n  dup3\n  add\n    /* \"#utility.yul\":4036:4075   */\n  mstore\n    /* \"#utility.yul\":4092:4110   */\n  0x64\n  add\n    /* \"Smart-Contract/PanjoCoin.sol\":4091:4134  require(account != address(0), \"MINT_ZERO\") */\n  tag_16\n    /* \"#utility.yul\":3784:4116   */\n  jump\n    /* \"Smart-Contract/PanjoCoin.sol\":4091:4134  require(account != address(0), \"MINT_ZERO\") */\ntag_22:\n    /* \"Smart-Contract/PanjoCoin.sol\":4163:4168  value */\n  dup1\n    /* \"Smart-Contract/PanjoCoin.sol\":4147:4159  _totalSupply */\n  0x02\n  0x00\n    /* \"Smart-Contract/PanjoCoin.sol\":4147:4168  _totalSupply += value */\n  dup3\n  dup3\n  sload\n  tag_25\n  swap2\n  swap1\n  tag_26\n  jump\t// in\ntag_25:\n  swap1\n  swap2\n  sstore\n  pop\n  pop\n  sub(shl(0xa0, 0x01), 0x01)\n    /* \"Smart-Contract/PanjoCoin.sol\":4179:4197  _balances[account] */\n  dup3\n  and\n    /* \"Smart-Contract/PanjoCoin.sol\":4179:4188  _balances */\n  0x00\n    /* \"Smart-Contract/PanjoCoin.sol\":4179:4197  _balances[account] */\n  swap1\n  dup2\n  mstore\n  0x20\n  dup2\n  swap1\n  mstore\n  0x40\n  dup2\n  keccak256\n    /* \"Smart-Contract/PanjoCoin.sol\":4179:4206  _balances[account] += value */\n  dup1\n  sload\n    /* \"Smart-Contract/PanjoCoin.sol\":4201:4206  value */\n  dup4\n  swap3\n    /* \"Smart-Contract/PanjoCoin.sol\":4179:4188  _balances */\n  swap1\n    /* \"Smart-Contract/PanjoCoin.sol\":4179:4206  _balances[account] += value */\n  tag_27\n  swap1\n    /* \"Smart-Contract/PanjoCoin.sol\":4201:4206  value */\n  dup5\n  swap1\n    /* \"Smart-Contract/PanjoCoin.sol\":4179:4206  _balances[account] += value */\n  tag_26\n  jump\t// in\ntag_27:\n  swap1\n  swap2\n  sstore\n  pop\n  pop\n    /* \"Smart-Contract/PanjoCoin.sol\":4224:4260  Transfer(address(0), account, value) */\n  mload(0x40)\n    /* \"#utility.yul\":4494:4519   */\n  dup2\n  dup2\n  mstore\n  sub(shl(0xa0, 0x01), 0x01)\n    /* \"Smart-Contract/PanjoCoin.sol\":4224:4260  Transfer(address(0), account, value) */\n  dup4\n  and\n  swap1\n    /* \"Smart-Contract/PanjoCoin.sol\":4241:4242  0 */\n  0x00\n  swap1\n    /* \"Smart-Contract/PanjoCoin.sol\":4224:4260  Transfer(address(0), account, value) */\n  0xddf252ad1be2c89b69c2b068fc378daa952ba7f163c4a11628f55a4df523b3ef\n  swap1\n    /* \"#utility.yul\":4482:4484   */\n  0x20\n    /* \"#utility.yul\":4467:4485   */\n  add\n    /* \"Smart-Contract/PanjoCoin.sol\":4224:4260  Transfer(address(0), account, value) */\n  mload(0x40)\n  dup1\n  swap2\n  sub\n  swap1\n  log3\n    /* \"Smart-Contract/PanjoCoin.sol\":4024:4268  function _mint(address account, uint256 value) internal {... */\n  pop\n  pop\n  jump\t// out\n    /* \"#utility.yul\":14:304   */\ntag_3:\n    /* \"#utility.yul\":84:90   */\n  0x00\n    /* \"#utility.yul\":137:139   */\n  0x20\n    /* \"#utility.yul\":125:134   */\n  dup3\n    /* \"#utility.yul\":116:123   */\n  dup5\n    /* \"#utility.yul\":112:135   */\n  sub\n    /* \"#utility.yul\":108:140   */\n  slt\n    /* \"#utility.yul\":105:157   */\n  iszero\n  tag_37\n  jumpi\n    /* \"#utility.yul\":153:154   */\n  0x00\n    /* \"#utility.yul\":150:151   */\n  dup1\n    /* \"#utility.yul\":143:155   */\n  revert\n    /* \"#utility.yul\":105:157   */\ntag_37:\n    /* \"#utility.yul\":179:195   */\n  dup2\n  mload\n  sub(shl(0xa0, 0x01), 0x01)\n    /* \"#utility.yul\":224:255   */\n  dup2\n  and\n    /* \"#utility.yul\":214:256   */\n  dup2\n  eq\n    /* \"#utility.yul\":204:274   */\n  tag_38\n  jumpi\n    /* \"#utility.yul\":270:271   */\n  0x00\n    /* \"#utility.yul\":267:268   */\n  dup1\n    /* \"#utility.yul\":260:272   */\n  revert\n    /* \"#utility.yul\":204:274   */\ntag_38:\n    /* \"#utility.yul\":293:298   */\n  swap4\n    /* \"#utility.yul\":14:304   */\n  swap3\n  pop\n  pop\n  pop\n  jump\t// out\n    /* \"#utility.yul\":309:436   */\ntag_30:\n    /* \"#utility.yul\":370:380   */\n  0x4e487b71\n    /* \"#utility.yul\":365:368   */\n  0xe0\n    /* \"#utility.yul\":361:381   */\n  shl\n    /* \"#utility.yul\":358:359   */\n  0x00\n    /* \"#utility.yul\":351:382   */\n  mstore\n    /* \"#utility.yul\":401:405   */\n  0x41\n    /* \"#utility.yul\":398:399   */\n  0x04\n    /* \"#utility.yul\":391:406   */\n  mstore\n    /* \"#utility.yul\":425:429   */\n  0x24\n    /* \"#utility.yul\":422:423   */\n  0x00\n    /* \"#utility.yul\":415:430   */\n  revert\n    /* \"#utility.yul\":441:821   */\ntag_31:\n    /* \"#utility.yul\":520:521   */\n  0x01\n    /* \"#utility.yul\":516:528   */\n  dup2\n  dup2\n  shr\n  swap1\n    /* \"#utility.yul\":563:575   */\n  dup3\n  and\n  dup1\n    /* \"#utility.yul\":584:645   */\n  tag_41\n  jumpi\n    /* \"#utility.yul\":638:642   */\n  0x7f\n    /* \"#utility.yul\":630:636   */\n  dup3\n    /* \"#utility.yul\":626:643   */\n  and\n    /* \"#utility.yul\":616:643   */\n  swap2\n  pop\n    /* \"#utility.yul\":584:645   */\ntag_41:\n    /* \"#utility.yul\":691:693   */\n  0x20\n    /* \"#utility.yul\":683:689   */\n  dup3\n    /* \"#utility.yul\":680:694   */\n  lt\n    /* \"#utility.yul\":660:678   */\n  dup2\n    /* \"#utility.yul\":657:695   */\n  sub\n    /* \"#utility.yul\":654:815   */\n  tag_42\n  jumpi\n    /* \"#utility.yul\":737:747   */\n  0x4e487b71\n    /* \"#utility.yul\":732:735   */\n  0xe0\n    /* \"#utility.yul\":728:748   */\n  shl\n    /* \"#utility.yul\":725:726   */\n  0x00\n    /* \"#utility.yul\":718:749   */\n  mstore\n    /* \"#utility.yul\":772:776   */\n  0x22\n    /* \"#utility.yul\":769:770   */\n  0x04\n    /* \"#utility.yul\":762:777   */\n  mstore\n    /* \"#utility.yul\":800:804   */\n  0x24\n    /* \"#utility.yul\":797:798   */\n  0x00\n    /* \"#utility.yul\":790:805   */\n  revert\n    /* \"#utility.yul\":654:815   */\ntag_42:\n  pop\n    /* \"#utility.yul\":441:821   */\n  swap2\n  swap1\n  pop\n  jump\t// out\n    /* \"#utility.yul\":952:1470   */\ntag_33:\n    /* \"#utility.yul\":1054:1056   */\n  0x1f\n    /* \"#utility.yul\":1049:1052   */\n  dup3\n    /* \"#utility.yul\":1046:1057   */\n  gt\n    /* \"#utility.yul\":1043:1464   */\n  iszero\n  tag_45\n  jumpi\n    /* \"#utility.yul\":1090:1095   */\n  dup1\n    /* \"#utility.yul\":1087:1088   */\n  0x00\n    /* \"#utility.yul\":1080:1096   */\n  mstore\n    /* \"#utility.yul\":1134:1138   */\n  0x20\n    /* \"#utility.yul\":1131:1132   */\n  0x00\n    /* \"#utility.yul\":1121:1139   */\n  keccak256\n    /* \"#utility.yul\":1204:1206   */\n  0x1f\n    /* \"#utility.yul\":1192:1202   */\n  dup5\n    /* \"#utility.yul\":1188:1207   */\n  add\n    /* \"#utility.yul\":1185:1186   */\n  0x05\n    /* \"#utility.yul\":1181:1208   */\n  shr\n    /* \"#utility.yul\":1175:1179   */\n  dup2\n    /* \"#utility.yul\":1171:1209   */\n  add\n    /* \"#utility.yul\":1240:1244   */\n  0x20\n    /* \"#utility.yul\":1228:1238   */\n  dup6\n    /* \"#utility.yul\":1225:1245   */\n  lt\n    /* \"#utility.yul\":1222:1269   */\n  iszero\n  tag_46\n  jumpi\n  pop\n    /* \"#utility.yul\":1263:1267   */\n  dup1\n    /* \"#utility.yul\":1222:1269   */\ntag_46:\n    /* \"#utility.yul\":1318:1320   */\n  0x1f\n    /* \"#utility.yul\":1313:1316   */\n  dup5\n    /* \"#utility.yul\":1309:1321   */\n  add\n    /* \"#utility.yul\":1306:1307   */\n  0x05\n    /* \"#utility.yul\":1302:1322   */\n  shr\n    /* \"#utility.yul\":1296:1300   */\n  dup3\n    /* \"#utility.yul\":1292:1323   */\n  add\n    /* \"#utility.yul\":1282:1323   */\n  swap2\n  pop\n    /* \"#utility.yul\":1373:1454   */\ntag_47:\n    /* \"#utility.yul\":1391:1393   */\n  dup2\n    /* \"#utility.yul\":1384:1389   */\n  dup2\n    /* \"#utility.yul\":1381:1394   */\n  lt\n    /* \"#utility.yul\":1373:1454   */\n  iszero\n  tag_49\n  jumpi\n    /* \"#utility.yul\":1450:1451   */\n  0x00\n    /* \"#utility.yul\":1436:1452   */\n  dup2\n  sstore\n    /* \"#utility.yul\":1417:1418   */\n  0x01\n    /* \"#utility.yul\":1406:1419   */\n  add\n    /* \"#utility.yul\":1373:1454   */\n  jump(tag_47)\ntag_49:\n    /* \"#utility.yul\":1377:1380   */\n  pop\n  pop\n    /* \"#utility.yul\":1043:1464   */\ntag_45:\n    /* \"#utility.yul\":952:1470   */\n  pop\n  pop\n  pop\n  jump\t// out\n    /* \"#utility.yul\":1646:2945   */\ntag_9:\n    /* \"#utility.yul\":1766:1776   */\n  dup2\n  mload\n  sub(shl(0x40, 0x01), 0x01)\n    /* \"#utility.yul\":1788:1818   */\n  dup2\n  gt\n    /* \"#utility.yul\":1785:1841   */\n  iszero\n  tag_53\n  jumpi\n    /* \"#utility.yul\":1821:1839   */\n  tag_53\n  tag_30\n  jump\t// in\ntag_53:\n    /* \"#utility.yul\":1850:1947   */\n  tag_54\n    /* \"#utility.yul\":1940:1946   */\n  dup2\n    /* \"#utility.yul\":1900:1938   */\n  tag_55\n    /* \"#utility.yul\":1932:1936   */\n  dup5\n    /* \"#utility.yul\":1926:1937   */\n  sload\n    /* \"#utility.yul\":1900:1938   */\n  tag_31\n  jump\t// in\ntag_55:\n    /* \"#utility.yul\":1894:1898   */\n  dup5\n    /* \"#utility.yul\":1850:1947   */\n  tag_33\n  jump\t// in\ntag_54:\n    /* \"#utility.yul\":1996:2000   */\n  0x20\n    /* \"#utility.yul\":2027:2029   */\n  0x1f\n    /* \"#utility.yul\":2016:2030   */\n  dup3\n  gt\n    /* \"#utility.yul\":2044:2045   */\n  0x01\n    /* \"#utility.yul\":2039:2688   */\n  dup2\n  eq\n  tag_57\n  jumpi\n    /* \"#utility.yul\":2732:2733   */\n  0x00\n    /* \"#utility.yul\":2749:2755   */\n  dup4\n    /* \"#utility.yul\":2746:2835   */\n  iszero\n  tag_58\n  jumpi\n  pop\n    /* \"#utility.yul\":2801:2820   */\n  dup5\n  dup3\n  add\n    /* \"#utility.yul\":2795:2821   */\n  mload\n    /* \"#utility.yul\":2746:2835   */\ntag_58:\n  not(0x00)\n    /* \"#utility.yul\":1603:1604   */\n  0x03\n    /* \"#utility.yul\":1599:1610   */\n  dup6\n  swap1\n  shl\n    /* \"#utility.yul\":1595:1619   */\n  shr\n    /* \"#utility.yul\":1591:1620   */\n  not\n    /* \"#utility.yul\":1581:1621   */\n  and\n    /* \"#utility.yul\":1627:1628   */\n  0x01\n    /* \"#utility.yul\":1623:1634   */\n  dup5\n  swap1\n  shl\n    /* \"#utility.yul\":1578:1635   */\n  or\n    /* \"#utility.yul\":2848:2929   */\n  dup5\n  sstore\n    /* \"#utility.yul\":2009:2939   */\n  jump(tag_49)\n    /* \"#utility.yul\":2039:2688   */\ntag_57:\n    /* \"#utility.yul\":899:900   */\n  0x00\n    /* \"#utility.yul\":892:906   */\n  dup5\n  dup2\n  mstore\n    /* \"#utility.yul\":936:940   */\n  0x20\n    /* \"#utility.yul\":923:941   */\n  dup2\n  keccak256\n  not(0x1f)\n    /* \"#utility.yul\":2075:2095   */\n  dup6\n  and\n  swap2\n    /* \"#utility.yul\":2193:2415   */\ntag_61:\n    /* \"#utility.yul\":2207:2214   */\n  dup3\n    /* \"#utility.yul\":2204:2205   */\n  dup2\n    /* \"#utility.yul\":2201:2215   */\n  lt\n    /* \"#utility.yul\":2193:2415   */\n  iszero\n  tag_63\n  jumpi\n    /* \"#utility.yul\":2289:2308   */\n  dup8\n  dup6\n  add\n    /* \"#utility.yul\":2283:2309   */\n  mload\n    /* \"#utility.yul\":2268:2310   */\n  dup3\n  sstore\n    /* \"#utility.yul\":2396:2400   */\n  0x20\n    /* \"#utility.yul\":2381:2401   */\n  swap5\n  dup6\n  add\n  swap5\n    /* \"#utility.yul\":2349:2350   */\n  0x01\n    /* \"#utility.yul\":2337:2351   */\n  swap1\n  swap3\n  add\n  swap2\n    /* \"#utility.yul\":2223:2235   */\n  add\n    /* \"#utility.yul\":2193:2415   */\n  jump(tag_61)\ntag_63:\n    /* \"#utility.yul\":2197:2200   */\n  pop\n    /* \"#utility.yul\":2443:2449   */\n  dup5\n    /* \"#utility.yul\":2434:2441   */\n  dup3\n    /* \"#utility.yul\":2431:2450   */\n  lt\n    /* \"#utility.yul\":2428:2629   */\n  iszero\n  tag_64\n  jumpi\n    /* \"#utility.yul\":2504:2523   */\n  dup7\n  dup5\n  add\n    /* \"#utility.yul\":2498:2524   */\n  mload\n  not(0x00)\n    /* \"#utility.yul\":2587:2588   */\n  0x03\n    /* \"#utility.yul\":2583:2597   */\n  dup8\n  swap1\n  shl\n    /* \"#utility.yul\":2599:2602   */\n  0xf8\n    /* \"#utility.yul\":2579:2603   */\n  and\n    /* \"#utility.yul\":2575:2612   */\n  shr\n    /* \"#utility.yul\":2571:2613   */\n  not\n    /* \"#utility.yul\":2556:2614   */\n  and\n    /* \"#utility.yul\":2541:2615   */\n  dup2\n  sstore\n    /* \"#utility.yul\":2428:2629   */\ntag_64:\n  pop\n  pop\n  pop\n  pop\n    /* \"#utility.yul\":2675:2676   */\n  0x01\n    /* \"#utility.yul\":2659:2673   */\n  swap1\n  dup2\n  shl\n    /* \"#utility.yul\":2655:2677   */\n  add\n    /* \"#utility.yul\":2642:2678   */\n  swap1\n  sstore\n  pop\n    /* \"#utility.yul\":1646:2945   */\n  jump\t// out\n    /* \"#utility.yul\":4121:4343   */\ntag_26:\n    /* \"#utility.yul\":4186:4195   */\n  dup1\n  dup3\n  add\n    /* \"#utility.yul\":4207:4217   */\n  dup1\n  dup3\n  gt\n    /* \"#utility.yul\":4204:4337   */\n  iszero\n  tag_69\n  jumpi\n    /* \"#utility.yul\":4259:4269   */\n  0x4e487b71\n    /* \"#utility.yul\":4254:4257   */\n  0xe0\n    /* \"#utility.yul\":4250:4270   */\n  shl\n    /* \"#utility.yul\":4247:4248   */\n  0x00\n    /* \"#utility.yul\":4240:4271   */\n  mstore\n    /* \"#utility.yul\":4294:4298   */\n  0x11\n    /* \"#utility.yul\":4291:4292   */\n  0x04\n    /* \"#utility.yul\":4284:4299   */\n  mstore\n    /* \"#utility.yul\":4322:4326   */\n  0x24\n    /* \"#utility.yul\":4319:4320   */\n  0x00\n    /* \"#utility.yul\":4312:4327   */\n  revert\n    /* \"#utility.yul\":4204:4337   */\ntag_69:\n    /* \"#utility.yul\":4121:4343   */\n  swap3\n  swap2\n  pop\n  pop\n  jump\t// out\n    /* \"#utility.yul\":4348:4525   */\ntag_35:\n    /* \"Smart-Contract/PanjoCoin.sol\":7777:8297  contract PanjoCoin is ERC20Permit {... */\n  mload(0x80)\n  mload(0xa0)\n  codecopy(0x00, dataOffset(sub_0), dataSize(sub_0))\n  0x00\n  assignImmutable(\"0xe96cc20f241c05b09b05be99fa40d483e0c60480c24cfabd29fea373217f3b30\")\n  0x00\n  assignImmutable(\"0x4ce4dab4689da140a0c12de1a6af6b8f679594aeb723205f513e052d27f5b26f\")\n  return(0x00, dataSize(sub_0))\nstop\n\nsub_0: assembly {\n        /* \"Smart-Contract/PanjoCoin.sol\":7777:8297  contract PanjoCoin is ERC20Permit {... */\n      mstore(0x40, 0x80)\n      callvalue\n      dup1\n      iszero\n      tag_1\n      jumpi\n      0x00\n      dup1\n      revert\n    tag_1:\n      pop\n      jumpi(tag_2, lt(calldatasize, 0x04))\n      shr(0xe0, calldataload(0x00))\n      dup1\n      0x42966c68\n      gt\n      tag_19\n      jumpi\n      dup1\n      0xa457c2d7\n      gt\n      tag_20\n      jumpi\n      dup1\n      0xa457c2d7\n      eq\n      tag_15\n      jumpi\n      dup1\n      0xa9059cbb\n      eq\n      tag_16\n      jumpi\n      dup1\n      0xd505accf\n      eq\n      tag_17\n      jumpi\n      dup1\n      0xdd62ed3e\n      eq\n      tag_18\n      jumpi\n      0x00\n      dup1\n      revert\n    tag_20:\n      dup1\n      0x42966c68\n      eq\n      tag_11\n      jumpi\n      dup1\n      0x70a08231\n      eq\n      tag_12\n      jumpi\n      dup1\n      0x7ecebe00\n      eq\n      tag_13\n      jumpi\n      dup1\n      0x95d89b41\n      eq\n      tag_14\n      jumpi\n      0x00\n      dup1\n      revert\n    tag_19:\n      dup1\n      0x313ce567\n      gt\n      tag_21\n      jumpi\n      dup1\n      0x313ce567\n      eq\n      tag_7\n      jumpi\n      dup1\n      0x32cb6b0c\n      eq\n      tag_8\n      jumpi\n      dup1\n      0x3644e515\n      eq\n      tag_9\n      jumpi\n      dup1\n      0x39509351\n      eq\n      tag_10\n      jumpi\n      0x00\n      dup1\n      revert\n    tag_21:\n      dup1\n      0x06fdde03\n      eq\n      tag_3\n      jumpi\n      dup1\n      0x095ea7b3\n      eq\n      tag_4\n      jumpi\n      dup1\n      0x18160ddd\n      eq\n      tag_5\n      jumpi\n      dup1\n      0x23b872dd\n      eq\n      tag_6\n      jumpi\n    tag_2:\n      0x00\n      dup1\n      revert\n        /* \"Smart-Contract/PanjoCoin.sol\":1330:1399  function name() public view returns (string memory) { return _name; } */\n    tag_3:\n      tag_22\n      tag_23\n      jump\t// in\n    tag_22:\n      mload(0x40)\n      tag_24\n      swap2\n      swap1\n      tag_25\n      jump\t// in\n    tag_24:\n      mload(0x40)\n      dup1\n      swap2\n      sub\n      swap1\n      return\n        /* \"Smart-Contract/PanjoCoin.sol\":2063:2213  function approve(address spender, uint256 value) public returns (bool) {... */\n    tag_4:\n      tag_26\n      tag_27\n      calldatasize\n      0x04\n      tag_28\n      jump\t// in\n    tag_27:\n      tag_29\n      jump\t// in\n    tag_26:\n      mload(0x40)\n        /* \"#utility.yul\":1194:1208   */\n      swap1\n      iszero\n        /* \"#utility.yul\":1187:1209   */\n      iszero\n        /* \"#utility.yul\":1169:1210   */\n      dup2\n      mstore\n        /* \"#utility.yul\":1157:1159   */\n      0x20\n        /* \"#utility.yul\":1142:1160   */\n      add\n        /* \"Smart-Contract/PanjoCoin.sol\":2063:2213  function approve(address spender, uint256 value) public returns (bool) {... */\n      tag_24\n        /* \"#utility.yul\":1029:1216   */\n      jump\n        /* \"Smart-Contract/PanjoCoin.sol\":1554:1645  function totalSupply() public view returns (uint256) {... */\n    tag_5:\n        /* \"Smart-Contract/PanjoCoin.sol\":1625:1637  _totalSupply */\n      sload(0x02)\n        /* \"Smart-Contract/PanjoCoin.sol\":1554:1645  function totalSupply() public view returns (uint256) {... */\n    tag_32:\n      mload(0x40)\n        /* \"#utility.yul\":1367:1392   */\n      swap1\n      dup2\n      mstore\n        /* \"#utility.yul\":1355:1357   */\n      0x20\n        /* \"#utility.yul\":1340:1358   */\n      add\n        /* \"Smart-Contract/PanjoCoin.sol\":1554:1645  function totalSupply() public view returns (uint256) {... */\n      tag_24\n        /* \"#utility.yul\":1221:1398   */\n      jump\n        /* \"Smart-Contract/PanjoCoin.sol\":2221:2582  function transferFrom(address from, address to, uint256 value) public returns (bool) {... */\n    tag_6:\n      tag_26\n      tag_37\n      calldatasize\n      0x04\n      tag_38\n      jump\t// in\n    tag_37:\n      tag_39\n      jump\t// in\n        /* \"Smart-Contract/PanjoCoin.sol\":1484:1546  function decimals() public pure returns (uint8) { return 18; } */\n    tag_7:\n      mload(0x40)\n        /* \"Smart-Contract/PanjoCoin.sol\":1541:1543  18 */\n      0x12\n        /* \"#utility.yul\":1924:1960   */\n      dup2\n      mstore\n        /* \"#utility.yul\":1912:1914   */\n      0x20\n        /* \"#utility.yul\":1897:1915   */\n      add\n        /* \"Smart-Contract/PanjoCoin.sol\":1484:1546  function decimals() public pure returns (uint8) { return 18; } */\n      tag_24\n        /* \"#utility.yul\":1782:1966   */\n      jump\n        /* \"Smart-Contract/PanjoCoin.sol\":7820:7883  uint256 public constant MAX_SUPPLY = 1_000_000_000_000 * 10**18 */\n    tag_8:\n      tag_32\n        /* \"Smart-Contract/PanjoCoin.sol\":7857:7883  1_000_000_000_000 * 10**18 */\n      0x0c9f2c9cd04674edea40000000\n        /* \"Smart-Contract/PanjoCoin.sol\":7820:7883  uint256 public constant MAX_SUPPLY = 1_000_000_000_000 * 10**18 */\n      dup2\n      jump\n        /* \"Smart-Contract/PanjoCoin.sol\":6322:6840  function DOMAIN_SEPARATOR() public view returns (bytes32) {... */\n    tag_9:\n      tag_32\n      tag_49\n      jump\t// in\n        /* \"Smart-Contract/PanjoCoin.sol\":2775:3007  function increaseAllowance(address spender, uint256 addedValue) public returns (bool) {... */\n    tag_10:\n      tag_26\n      tag_53\n      calldatasize\n      0x04\n      tag_28\n      jump\t// in\n    tag_53:\n      tag_54\n      jump\t// in\n        /* \"Smart-Contract/PanjoCoin.sol\":8167:8294  function burn(uint256 amount) external {... */\n    tag_11:\n      tag_56\n      tag_57\n      calldatasize\n      0x04\n      tag_58\n      jump\t// in\n    tag_57:\n      tag_59\n      jump\t// in\n    tag_56:\n      stop\n        /* \"Smart-Contract/PanjoCoin.sol\":1653:1763  function balanceOf(address account) public view returns (uint256) {... */\n    tag_12:\n      tag_32\n      tag_61\n      calldatasize\n      0x04\n      tag_62\n      jump\t// in\n    tag_61:\n      sub(shl(0xa0, 0x01), 0x01)\n        /* \"Smart-Contract/PanjoCoin.sol\":1737:1755  _balances[account] */\n      and\n        /* \"Smart-Contract/PanjoCoin.sol\":1710:1717  uint256 */\n      0x00\n        /* \"Smart-Contract/PanjoCoin.sol\":1737:1755  _balances[account] */\n      swap1\n      dup2\n      mstore\n      0x20\n      dup2\n      swap1\n      mstore\n      0x40\n      swap1\n      keccak256\n      sload\n      swap1\n        /* \"Smart-Contract/PanjoCoin.sol\":1653:1763  function balanceOf(address account) public view returns (uint256) {... */\n      jump\n        /* \"Smart-Contract/PanjoCoin.sol\":5516:5557  mapping(address => uint256) public nonces */\n    tag_13:\n      tag_32\n      tag_66\n      calldatasize\n      0x04\n      tag_62\n      jump\t// in\n    tag_66:\n      mstore(0x20, 0x05)\n      0x00\n      swap1\n      dup2\n      mstore\n      0x40\n      swap1\n      keccak256\n      sload\n      dup2\n      jump\n        /* \"Smart-Contract/PanjoCoin.sol\":1405:1478  function symbol() public view returns (string memory) { return _symbol; } */\n    tag_14:\n      tag_22\n      tag_70\n      jump\t// in\n        /* \"Smart-Contract/PanjoCoin.sol\":3015:3402  function decreaseAllowance(address spender, uint256 subtractedValue) public returns (bool) {... */\n    tag_15:\n      tag_26\n      tag_73\n      calldatasize\n      0x04\n      tag_28\n      jump\t// in\n    tag_73:\n      tag_74\n      jump\t// in\n        /* \"Smart-Contract/PanjoCoin.sol\":1771:1913  function transfer(address to, uint256 value) public returns (bool) {... */\n    tag_16:\n      tag_26\n      tag_77\n      calldatasize\n      0x04\n      tag_28\n      jump\t// in\n    tag_77:\n      tag_78\n      jump\t// in\n        /* \"Smart-Contract/PanjoCoin.sol\":6848:7599  function permit(... */\n    tag_17:\n      tag_56\n      tag_81\n      calldatasize\n      0x04\n      tag_82\n      jump\t// in\n    tag_81:\n      tag_83\n      jump\t// in\n        /* \"Smart-Contract/PanjoCoin.sol\":1921:2055  function allowance(address owner, address spender) public view returns (uint256) {... */\n    tag_18:\n      tag_32\n      tag_85\n      calldatasize\n      0x04\n      tag_86\n      jump\t// in\n    tag_85:\n      sub(shl(0xa0, 0x01), 0x01)\n        /* \"Smart-Contract/PanjoCoin.sol\":2020:2038  _allowances[owner] */\n      swap2\n      dup3\n      and\n        /* \"Smart-Contract/PanjoCoin.sol\":1993:2000  uint256 */\n      0x00\n        /* \"Smart-Contract/PanjoCoin.sol\":2020:2038  _allowances[owner] */\n      swap1\n      dup2\n      mstore\n        /* \"Smart-Contract/PanjoCoin.sol\":2020:2031  _allowances */\n      0x01\n        /* \"Smart-Contract/PanjoCoin.sol\":2020:2038  _allowances[owner] */\n      0x20\n      swap1\n      dup2\n      mstore\n      0x40\n      dup1\n      dup4\n      keccak256\n        /* \"Smart-Contract/PanjoCoin.sol\":2020:2047  _allowances[owner][spender] */\n      swap4\n      swap1\n      swap5\n      and\n      dup3\n      mstore\n      swap2\n      swap1\n      swap2\n      mstore\n      keccak256\n      sload\n      swap1\n        /* \"Smart-Contract/PanjoCoin.sol\":1921:2055  function allowance(address owner, address spender) public view returns (uint256) {... */\n      jump\n        /* \"Smart-Contract/PanjoCoin.sol\":1330:1399  function name() public view returns (string memory) { return _name; } */\n    tag_23:\n        /* \"Smart-Contract/PanjoCoin.sol\":1367:1380  string memory */\n      0x60\n        /* \"Smart-Contract/PanjoCoin.sol\":1391:1396  _name */\n      0x03\n        /* \"Smart-Contract/PanjoCoin.sol\":1384:1396  return _name */\n      dup1\n      sload\n      tag_90\n      swap1\n      tag_91\n      jump\t// in\n    tag_90:\n      dup1\n      0x1f\n      add\n      0x20\n      dup1\n      swap2\n      div\n      mul\n      0x20\n      add\n      mload(0x40)\n      swap1\n      dup2\n      add\n      0x40\n      mstore\n      dup1\n      swap3\n      swap2\n      swap1\n      dup2\n      dup2\n      mstore\n      0x20\n      add\n      dup3\n      dup1\n      sload\n      tag_92\n      swap1\n      tag_91\n      jump\t// in\n    tag_92:\n      dup1\n      iszero\n      tag_93\n      jumpi\n      dup1\n      0x1f\n      lt\n      tag_94\n      jumpi\n      0x0100\n      dup1\n      dup4\n      sload\n      div\n      mul\n      dup4\n      mstore\n      swap2\n      0x20\n      add\n      swap2\n      jump(tag_93)\n    tag_94:\n      dup3\n      add\n      swap2\n      swap1\n      0x00\n      mstore\n      keccak256(0x00, 0x20)\n      swap1\n    tag_95:\n      dup2\n      sload\n      dup2\n      mstore\n      swap1\n      0x01\n      add\n      swap1\n      0x20\n      add\n      dup1\n      dup4\n      gt\n      tag_95\n      jumpi\n      dup3\n      swap1\n      sub\n      0x1f\n      and\n      dup3\n      add\n      swap2\n    tag_93:\n      pop\n      pop\n      pop\n      pop\n      pop\n      swap1\n      pop\n        /* \"Smart-Contract/PanjoCoin.sol\":1330:1399  function name() public view returns (string memory) { return _name; } */\n      swap1\n      jump\t// out\n        /* \"Smart-Contract/PanjoCoin.sol\":2063:2213  function approve(address spender, uint256 value) public returns (bool) {... */\n    tag_29:\n        /* \"Smart-Contract/PanjoCoin.sol\":2128:2132  bool */\n      0x00\n        /* \"Smart-Contract/PanjoCoin.sol\":2145:2183  _approve(_msgSender(), spender, value) */\n      tag_97\n        /* \"Smart-Contract/PanjoCoin.sol\":750:760  msg.sender */\n      caller\n        /* \"Smart-Contract/PanjoCoin.sol\":2168:2175  spender */\n      dup5\n        /* \"Smart-Contract/PanjoCoin.sol\":2177:2182  value */\n      dup5\n        /* \"Smart-Contract/PanjoCoin.sol\":2145:2153  _approve */\n      tag_100\n        /* \"Smart-Contract/PanjoCoin.sol\":2145:2183  _approve(_msgSender(), spender, value) */\n      jump\t// in\n    tag_97:\n      pop\n        /* \"Smart-Contract/PanjoCoin.sol\":2201:2205  true */\n      0x01\n        /* \"Smart-Contract/PanjoCoin.sol\":2063:2213  function approve(address spender, uint256 value) public returns (bool) {... */\n    tag_96:\n      swap3\n      swap2\n      pop\n      pop\n      jump\t// out\n        /* \"Smart-Contract/PanjoCoin.sol\":2221:2582  function transferFrom(address from, address to, uint256 value) public returns (bool) {... */\n    tag_39:\n      sub(shl(0xa0, 0x01), 0x01)\n        /* \"Smart-Contract/PanjoCoin.sol\":2335:2352  _allowances[from] */\n      dup4\n      and\n        /* \"Smart-Contract/PanjoCoin.sol\":2300:2304  bool */\n      0x00\n        /* \"Smart-Contract/PanjoCoin.sol\":2335:2352  _allowances[from] */\n      swap1\n      dup2\n      mstore\n        /* \"Smart-Contract/PanjoCoin.sol\":2335:2346  _allowances */\n      0x01\n        /* \"Smart-Contract/PanjoCoin.sol\":2335:2352  _allowances[from] */\n      0x20\n      swap1\n      dup2\n      mstore\n      0x40\n      dup1\n      dup4\n      keccak256\n        /* \"Smart-Contract/PanjoCoin.sol\":750:760  msg.sender */\n      caller\n        /* \"Smart-Contract/PanjoCoin.sol\":2335:2366  _allowances[from][_msgSender()] */\n      dup5\n      mstore\n      swap1\n      swap2\n      mstore\n      dup2\n      keccak256\n      sload\n        /* \"Smart-Contract/PanjoCoin.sol\":2385:2401  current >= value */\n      dup3\n      dup2\n      lt\n      iszero\n        /* \"Smart-Contract/PanjoCoin.sol\":2377:2419  require(current >= value, \"ALLOWANCE_LOW\") */\n      tag_104\n      jumpi\n      mload(0x40)\n      shl(0xe5, 0x461bcd)\n      dup2\n      mstore\n        /* \"#utility.yul\":4335:4337   */\n      0x20\n        /* \"Smart-Contract/PanjoCoin.sol\":2377:2419  require(current >= value, \"ALLOWANCE_LOW\") */\n      0x04\n      dup3\n      add\n        /* \"#utility.yul\":4317:4338   */\n      mstore\n        /* \"#utility.yul\":4374:4376   */\n      0x0d\n        /* \"#utility.yul\":4354:4372   */\n      0x24\n      dup3\n      add\n        /* \"#utility.yul\":4347:4377   */\n      mstore\n      shl(0x98, 0x414c4c4f57414e43455f4c4f57)\n        /* \"#utility.yul\":4393:4411   */\n      0x44\n      dup3\n      add\n        /* \"#utility.yul\":4386:4429   */\n      mstore\n        /* \"#utility.yul\":4446:4464   */\n      0x64\n      add\n        /* \"Smart-Contract/PanjoCoin.sol\":2377:2419  require(current >= value, \"ALLOWANCE_LOW\") */\n    tag_105:\n      mload(0x40)\n      dup1\n      swap2\n      sub\n      swap1\n      revert\n    tag_104:\n        /* \"Smart-Contract/PanjoCoin.sol\":2457:2502  _approve(from, _msgSender(), current - value) */\n      tag_107\n        /* \"Smart-Contract/PanjoCoin.sol\":2466:2470  from */\n      dup6\n        /* \"Smart-Contract/PanjoCoin.sol\":750:760  msg.sender */\n      caller\n        /* \"Smart-Contract/PanjoCoin.sol\":2496:2501  value */\n      dup6\n        /* \"Smart-Contract/PanjoCoin.sol\":2486:2493  current */\n      dup5\n        /* \"Smart-Contract/PanjoCoin.sol\":2486:2501  current - value */\n      sub\n        /* \"Smart-Contract/PanjoCoin.sol\":2457:2465  _approve */\n      tag_100\n        /* \"Smart-Contract/PanjoCoin.sol\":2457:2502  _approve(from, _msgSender(), current - value) */\n      jump\t// in\n    tag_107:\n        /* \"Smart-Contract/PanjoCoin.sol\":2526:2552  _transfer(from, to, value) */\n      tag_109\n        /* \"Smart-Contract/PanjoCoin.sol\":2536:2540  from */\n      dup6\n        /* \"Smart-Contract/PanjoCoin.sol\":2542:2544  to */\n      dup6\n        /* \"Smart-Contract/PanjoCoin.sol\":2546:2551  value */\n      dup6\n        /* \"Smart-Contract/PanjoCoin.sol\":2526:2535  _transfer */\n      tag_110\n        /* \"Smart-Contract/PanjoCoin.sol\":2526:2552  _transfer(from, to, value) */\n      jump\t// in\n    tag_109:\n      pop\n        /* \"Smart-Contract/PanjoCoin.sol\":2570:2574  true */\n      0x01\n      swap5\n        /* \"Smart-Contract/PanjoCoin.sol\":2221:2582  function transferFrom(address from, address to, uint256 value) public returns (bool) {... */\n      swap4\n      pop\n      pop\n      pop\n      pop\n      jump\t// out\n        /* \"Smart-Contract/PanjoCoin.sol\":6322:6840  function DOMAIN_SEPARATOR() public view returns (bytes32) {... */\n    tag_49:\n        /* \"Smart-Contract/PanjoCoin.sol\":6371:6378  bytes32 */\n      0x00\n        /* \"Smart-Contract/PanjoCoin.sol\":6415:6431  _CACHED_CHAIN_ID */\n      immutable(\"0xe96cc20f241c05b09b05be99fa40d483e0c60480c24cfabd29fea373217f3b30\")\n        /* \"Smart-Contract/PanjoCoin.sol\":6398:6411  block.chainid */\n      chainid\n        /* \"Smart-Contract/PanjoCoin.sol\":6398:6431  block.chainid == _CACHED_CHAIN_ID */\n      eq\n        /* \"Smart-Contract/PanjoCoin.sol\":6398:6832  block.chainid == _CACHED_CHAIN_ID... */\n      tag_113\n      jumpi\n        /* \"Smart-Contract/PanjoCoin.sol\":6541:6636  keccak256(\"EIP712Domain(string name,string version,uint256 chainid,address verifyingContract)\") */\n      0x1a83649f11a3e56d58ed3274189f99ab6137d641dfdfdeb45dd06a89f72c4e52\n        /* \"Smart-Contract/PanjoCoin.sol\":6675:6680  _name */\n      0x03\n        /* \"Smart-Contract/PanjoCoin.sol\":6659:6682  keccak256(bytes(_name)) */\n      mload(0x40)\n      tag_114\n      swap2\n      swap1\n      tag_115\n      jump\t// in\n    tag_114:\n      0x40\n      dup1\n      mload\n      swap2\n      dup3\n      swap1\n      sub\n      dup3\n      keccak256\n        /* \"Smart-Contract/PanjoCoin.sol\":6715:6725  bytes(\"1\") */\n      dup3\n      dup3\n      add\n      dup3\n      mstore\n      0x01\n      dup4\n      mstore\n      shl(0xf8, 0x31)\n      0x20\n      swap4\n      dup5\n      add\n      mstore\n        /* \"Smart-Contract/PanjoCoin.sol\":6508:6817  abi.encode(... */\n      dup2\n      mload\n      swap3\n      dup4\n      add\n        /* \"#utility.yul\":5957:5982   */\n      swap4\n      swap1\n      swap4\n      mstore\n        /* \"#utility.yul\":5998:6016   */\n      dup2\n      add\n        /* \"#utility.yul\":5991:6025   */\n      swap2\n      swap1\n      swap2\n      mstore\n        /* \"Smart-Contract/PanjoCoin.sol\":6705:6726  keccak256(bytes(\"1\")) */\n      0xc89efdaa54c0f20c7adf612882df0950f5a951637e0307cdcb4c672f298b8bc6\n        /* \"#utility.yul\":6041:6059   */\n      0x60\n      dup3\n      add\n        /* \"#utility.yul\":6034:6068   */\n      mstore\n        /* \"Smart-Contract/PanjoCoin.sol\":6749:6762  block.chainid */\n      chainid\n        /* \"#utility.yul\":6084:6102   */\n      0x80\n      dup3\n      add\n        /* \"#utility.yul\":6077:6111   */\n      mstore\n        /* \"Smart-Contract/PanjoCoin.sol\":6793:6797  this */\n      address\n        /* \"#utility.yul\":6127:6146   */\n      0xa0\n      dup3\n      add\n        /* \"#utility.yul\":6120:6181   */\n      mstore\n        /* \"#utility.yul\":5929:5948   */\n      0xc0\n      add\n        /* \"Smart-Contract/PanjoCoin.sol\":6508:6817  abi.encode(... */\n      mload(0x40)\n      0x20\n      dup2\n      dup4\n      sub\n      sub\n      dup2\n      mstore\n      swap1\n      0x40\n      mstore\n        /* \"Smart-Contract/PanjoCoin.sol\":6480:6832  keccak256(... */\n      dup1\n      mload\n      swap1\n      0x20\n      add\n      keccak256\n        /* \"Smart-Contract/PanjoCoin.sol\":6391:6832  return block.chainid == _CACHED_CHAIN_ID... */\n      swap1\n      pop\n        /* \"Smart-Contract/PanjoCoin.sol\":6322:6840  function DOMAIN_SEPARATOR() public view returns (bytes32) {... */\n      swap1\n      jump\t// out\n        /* \"Smart-Contract/PanjoCoin.sol\":6398:6832  block.chainid == _CACHED_CHAIN_ID... */\n    tag_113:\n      pop\n        /* \"Smart-Contract/PanjoCoin.sol\":6447:6464  _DOMAIN_SEPARATOR */\n      immutable(\"0x4ce4dab4689da140a0c12de1a6af6b8f679594aeb723205f513e052d27f5b26f\")\n      swap1\n        /* \"Smart-Contract/PanjoCoin.sol\":6322:6840  function DOMAIN_SEPARATOR() public view returns (bytes32) {... */\n      jump\t// out\n        /* \"Smart-Contract/PanjoCoin.sol\":2775:3007  function increaseAllowance(address spender, uint256 addedValue) public returns (bool) {... */\n    tag_54:\n        /* \"Smart-Contract/PanjoCoin.sol\":750:760  msg.sender */\n      caller\n        /* \"Smart-Contract/PanjoCoin.sol\":2855:2859  bool */\n      0x00\n        /* \"Smart-Contract/PanjoCoin.sol\":2936:2954  _allowances[owner] */\n      dup2\n      dup2\n      mstore\n        /* \"Smart-Contract/PanjoCoin.sol\":2936:2947  _allowances */\n      0x01\n        /* \"Smart-Contract/PanjoCoin.sol\":2936:2954  _allowances[owner] */\n      0x20\n      swap1\n      dup2\n      mstore\n      0x40\n      dup1\n      dup4\n      keccak256\n      sub(shl(0xa0, 0x01), 0x01)\n        /* \"Smart-Contract/PanjoCoin.sol\":2936:2963  _allowances[owner][spender] */\n      dup8\n      and\n      dup5\n      mstore\n      swap1\n      swap2\n      mstore\n      dup2\n      keccak256\n      sload\n        /* \"Smart-Contract/PanjoCoin.sol\":2855:2859  bool */\n      swap1\n      swap2\n        /* \"Smart-Contract/PanjoCoin.sol\":750:760  msg.sender */\n      swap1\n        /* \"Smart-Contract/PanjoCoin.sol\":2911:2977  _approve(owner, spender, _allowances[owner][spender] + addedValue) */\n      tag_121\n      swap1\n        /* \"Smart-Contract/PanjoCoin.sol\":750:760  msg.sender */\n      dup3\n      swap1\n        /* \"Smart-Contract/PanjoCoin.sol\":2936:2963  _allowances[owner][spender] */\n      dup7\n      swap1\n        /* \"Smart-Contract/PanjoCoin.sol\":2936:2976  _allowances[owner][spender] + addedValue */\n      tag_122\n      swap1\n        /* \"Smart-Contract/PanjoCoin.sol\":2966:2976  addedValue */\n      dup8\n      swap1\n        /* \"Smart-Contract/PanjoCoin.sol\":2936:2976  _allowances[owner][spender] + addedValue */\n      tag_123\n      jump\t// in\n    tag_122:\n        /* \"Smart-Contract/PanjoCoin.sol\":2911:2919  _approve */\n      tag_100\n        /* \"Smart-Contract/PanjoCoin.sol\":2911:2977  _approve(owner, spender, _allowances[owner][spender] + addedValue) */\n      jump\t// in\n    tag_121:\n      pop\n        /* \"Smart-Contract/PanjoCoin.sol\":2995:2999  true */\n      0x01\n      swap4\n        /* \"Smart-Contract/PanjoCoin.sol\":2775:3007  function increaseAllowance(address spender, uint256 addedValue) public returns (bool) {... */\n      swap3\n      pop\n      pop\n      pop\n      jump\t// out\n        /* \"Smart-Contract/PanjoCoin.sol\":8167:8294  function burn(uint256 amount) external {... */\n    tag_59:\n        /* \"Smart-Contract/PanjoCoin.sol\":8217:8244  _burn(_msgSender(), amount) */\n      tag_125\n        /* \"Smart-Contract/PanjoCoin.sol\":750:760  msg.sender */\n      caller\n        /* \"Smart-Contract/PanjoCoin.sol\":8237:8243  amount */\n      dup3\n        /* \"Smart-Contract/PanjoCoin.sol\":8217:8222  _burn */\n      tag_127\n        /* \"Smart-Contract/PanjoCoin.sol\":8217:8244  _burn(_msgSender(), amount) */\n      jump\t// in\n    tag_125:\n        /* \"Smart-Contract/PanjoCoin.sol\":8260:8286  Burn(_msgSender(), amount) */\n      mload(0x40)\n        /* \"#utility.yul\":1367:1392   */\n      dup2\n      dup2\n      mstore\n        /* \"Smart-Contract/PanjoCoin.sol\":750:760  msg.sender */\n      caller\n      swap1\n        /* \"Smart-Contract/PanjoCoin.sol\":8260:8286  Burn(_msgSender(), amount) */\n      0xcc16f5dbb4873280815c1ee09dbd06736cffcc184412cf7a71a0fdb75d397ca5\n      swap1\n        /* \"#utility.yul\":1355:1357   */\n      0x20\n        /* \"#utility.yul\":1340:1358   */\n      add\n        /* \"Smart-Contract/PanjoCoin.sol\":8260:8286  Burn(_msgSender(), amount) */\n      mload(0x40)\n      dup1\n      swap2\n      sub\n      swap1\n      log2\n        /* \"Smart-Contract/PanjoCoin.sol\":8167:8294  function burn(uint256 amount) external {... */\n      pop\n      jump\t// out\n        /* \"Smart-Contract/PanjoCoin.sol\":1405:1478  function symbol() public view returns (string memory) { return _symbol; } */\n    tag_70:\n        /* \"Smart-Contract/PanjoCoin.sol\":1444:1457  string memory */\n      0x60\n        /* \"Smart-Contract/PanjoCoin.sol\":1468:1475  _symbol */\n      0x04\n        /* \"Smart-Contract/PanjoCoin.sol\":1461:1475  return _symbol */\n      dup1\n      sload\n      tag_90\n      swap1\n      tag_91\n      jump\t// in\n        /* \"Smart-Contract/PanjoCoin.sol\":3015:3402  function decreaseAllowance(address spender, uint256 subtractedValue) public returns (bool) {... */\n    tag_74:\n        /* \"Smart-Contract/PanjoCoin.sol\":750:760  msg.sender */\n      caller\n        /* \"Smart-Contract/PanjoCoin.sol\":3100:3104  bool */\n      0x00\n        /* \"Smart-Contract/PanjoCoin.sol\":3174:3192  _allowances[owner] */\n      dup2\n      dup2\n      mstore\n        /* \"Smart-Contract/PanjoCoin.sol\":3174:3185  _allowances */\n      0x01\n        /* \"Smart-Contract/PanjoCoin.sol\":3174:3192  _allowances[owner] */\n      0x20\n      swap1\n      dup2\n      mstore\n      0x40\n      dup1\n      dup4\n      keccak256\n      sub(shl(0xa0, 0x01), 0x01)\n        /* \"Smart-Contract/PanjoCoin.sol\":3174:3201  _allowances[owner][spender] */\n      dup8\n      and\n      dup5\n      mstore\n      swap1\n      swap2\n      mstore\n      dup2\n      keccak256\n      sload\n        /* \"Smart-Contract/PanjoCoin.sol\":3100:3104  bool */\n      swap1\n      swap2\n        /* \"Smart-Contract/PanjoCoin.sol\":750:760  msg.sender */\n      swap1\n        /* \"Smart-Contract/PanjoCoin.sol\":3220:3246  current >= subtractedValue */\n      dup4\n      dup2\n      lt\n      iszero\n        /* \"Smart-Contract/PanjoCoin.sol\":3212:3270  require(current >= subtractedValue, \"ALLOWANCE_UNDERFLOW\") */\n      tag_139\n      jumpi\n      mload(0x40)\n      shl(0xe5, 0x461bcd)\n      dup2\n      mstore\n        /* \"#utility.yul\":6656:6658   */\n      0x20\n        /* \"Smart-Contract/PanjoCoin.sol\":3212:3270  require(current >= subtractedValue, \"ALLOWANCE_UNDERFLOW\") */\n      0x04\n      dup3\n      add\n        /* \"#utility.yul\":6638:6659   */\n      mstore\n        /* \"#utility.yul\":6695:6697   */\n      0x13\n        /* \"#utility.yul\":6675:6693   */\n      0x24\n      dup3\n      add\n        /* \"#utility.yul\":6668:6698   */\n      mstore\n      shl(0x68, 0x414c4c4f57414e43455f554e444552464c4f57)\n        /* \"#utility.yul\":6714:6732   */\n      0x44\n      dup3\n      add\n        /* \"#utility.yul\":6707:6756   */\n      mstore\n        /* \"#utility.yul\":6773:6791   */\n      0x64\n      add\n        /* \"Smart-Contract/PanjoCoin.sol\":3212:3270  require(current >= subtractedValue, \"ALLOWANCE_UNDERFLOW\") */\n      tag_105\n        /* \"#utility.yul\":6454:6797   */\n      jump\n        /* \"Smart-Contract/PanjoCoin.sol\":3212:3270  require(current >= subtractedValue, \"ALLOWANCE_UNDERFLOW\") */\n    tag_139:\n        /* \"Smart-Contract/PanjoCoin.sol\":3308:3359  _approve(owner, spender, current - subtractedValue) */\n      tag_109\n        /* \"Smart-Contract/PanjoCoin.sol\":3317:3322  owner */\n      dup3\n        /* \"Smart-Contract/PanjoCoin.sol\":3324:3331  spender */\n      dup7\n        /* \"Smart-Contract/PanjoCoin.sol\":3343:3358  subtractedValue */\n      dup7\n        /* \"Smart-Contract/PanjoCoin.sol\":3333:3340  current */\n      dup5\n        /* \"Smart-Contract/PanjoCoin.sol\":3333:3358  current - subtractedValue */\n      sub\n        /* \"Smart-Contract/PanjoCoin.sol\":3308:3316  _approve */\n      tag_100\n        /* \"Smart-Contract/PanjoCoin.sol\":3308:3359  _approve(owner, spender, current - subtractedValue) */\n      jump\t// in\n        /* \"Smart-Contract/PanjoCoin.sol\":1771:1913  function transfer(address to, uint256 value) public returns (bool) {... */\n    tag_78:\n        /* \"Smart-Contract/PanjoCoin.sol\":1832:1836  bool */\n      0x00\n        /* \"Smart-Contract/PanjoCoin.sol\":1849:1883  _transfer(_msgSender(), to, value) */\n      tag_97\n        /* \"Smart-Contract/PanjoCoin.sol\":750:760  msg.sender */\n      caller\n        /* \"Smart-Contract/PanjoCoin.sol\":1873:1875  to */\n      dup5\n        /* \"Smart-Contract/PanjoCoin.sol\":1877:1882  value */\n      dup5\n        /* \"Smart-Contract/PanjoCoin.sol\":1849:1858  _transfer */\n      tag_110\n        /* \"Smart-Contract/PanjoCoin.sol\":1849:1883  _transfer(_msgSender(), to, value) */\n      jump\t// in\n        /* \"Smart-Contract/PanjoCoin.sol\":6848:7599  function permit(... */\n    tag_83:\n        /* \"Smart-Contract/PanjoCoin.sol\":7077:7085  deadline */\n      dup4\n        /* \"Smart-Contract/PanjoCoin.sol\":7058:7073  block.timestamp */\n      timestamp\n        /* \"Smart-Contract/PanjoCoin.sol\":7058:7085  block.timestamp <= deadline */\n      gt\n      iszero\n        /* \"Smart-Contract/PanjoCoin.sol\":7050:7097  require(block.timestamp <= deadline, \"EXPIRED\") */\n      tag_147\n      jumpi\n      mload(0x40)\n      shl(0xe5, 0x461bcd)\n      dup2\n      mstore\n        /* \"#utility.yul\":7004:7006   */\n      0x20\n        /* \"Smart-Contract/PanjoCoin.sol\":7050:7097  require(block.timestamp <= deadline, \"EXPIRED\") */\n      0x04\n      dup3\n      add\n        /* \"#utility.yul\":6986:7007   */\n      mstore\n        /* \"#utility.yul\":7043:7044   */\n      0x07\n        /* \"#utility.yul\":7023:7041   */\n      0x24\n      dup3\n      add\n        /* \"#utility.yul\":7016:7045   */\n      mstore\n      shl(0xca, 0x11561412549151)\n        /* \"#utility.yul\":7061:7079   */\n      0x44\n      dup3\n      add\n        /* \"#utility.yul\":7054:7091   */\n      mstore\n        /* \"#utility.yul\":7108:7126   */\n      0x64\n      add\n        /* \"Smart-Contract/PanjoCoin.sol\":7050:7097  require(block.timestamp <= deadline, \"EXPIRED\") */\n      tag_105\n        /* \"#utility.yul\":6802:7132   */\n      jump\n        /* \"Smart-Contract/PanjoCoin.sol\":7050:7097  require(block.timestamp <= deadline, \"EXPIRED\") */\n    tag_147:\n      sub(shl(0xa0, 0x01), 0x01)\n        /* \"Smart-Contract/PanjoCoin.sol\":7126:7139  nonces[owner] */\n      dup8\n      and\n        /* \"Smart-Contract/PanjoCoin.sol\":7110:7123  uint256 nonce */\n      0x00\n        /* \"Smart-Contract/PanjoCoin.sol\":7126:7139  nonces[owner] */\n      swap1\n      dup2\n      mstore\n        /* \"Smart-Contract/PanjoCoin.sol\":7126:7132  nonces */\n      0x05\n        /* \"Smart-Contract/PanjoCoin.sol\":7126:7139  nonces[owner] */\n      0x20\n      mstore\n      0x40\n      dup2\n      keccak256\n        /* \"Smart-Contract/PanjoCoin.sol\":7126:7141  nonces[owner]++ */\n      dup1\n      sload\n      swap1\n        /* \"Smart-Contract/PanjoCoin.sol\":7110:7123  uint256 nonce */\n      dup3\n        /* \"Smart-Contract/PanjoCoin.sol\":7126:7141  nonces[owner]++ */\n      tag_150\n      dup4\n      tag_151\n      jump\t// in\n    tag_150:\n      swap1\n      swap2\n      sstore\n      pop\n        /* \"Smart-Contract/PanjoCoin.sol\":7199:7266  abi.encode(PERMIT_TYPEHASH, owner, spender, value, nonce, deadline) */\n      0x40\n      dup1\n      mload\n        /* \"Smart-Contract/PanjoCoin.sol\":5719:5814  keccak256(\"Permit(address owner,address spender,uint256 value,uint256 nonce,uint256 deadline)\") */\n      0x6e71edae12b1b97f4d1f60370fef10105fa2faae0126114a169c64845d6126c9\n        /* \"Smart-Contract/PanjoCoin.sol\":7199:7266  abi.encode(PERMIT_TYPEHASH, owner, spender, value, nonce, deadline) */\n      0x20\n      dup1\n      dup4\n      add\n        /* \"#utility.yul\":7564:7589   */\n      swap2\n      swap1\n      swap2\n      mstore\n      sub(shl(0xa0, 0x01), 0x01)\n        /* \"#utility.yul\":7625:7657   */\n      dup13\n      dup2\n      and\n        /* \"#utility.yul\":7605:7623   */\n      dup4\n      dup6\n      add\n        /* \"#utility.yul\":7598:7658   */\n      mstore\n        /* \"#utility.yul\":7694:7726   */\n      dup12\n      and\n        /* \"#utility.yul\":7674:7692   */\n      0x60\n      dup4\n      add\n        /* \"#utility.yul\":7667:7727   */\n      mstore\n        /* \"#utility.yul\":7743:7761   */\n      0x80\n      dup3\n      add\n        /* \"#utility.yul\":7736:7770   */\n      dup11\n      swap1\n      mstore\n        /* \"#utility.yul\":7786:7805   */\n      0xa0\n      dup3\n      add\n        /* \"#utility.yul\":7779:7814   */\n      dup5\n      swap1\n      mstore\n        /* \"#utility.yul\":7830:7849   */\n      0xc0\n      dup1\n      dup4\n      add\n        /* \"#utility.yul\":7823:7858   */\n      dup11\n      swap1\n      mstore\n        /* \"Smart-Contract/PanjoCoin.sol\":7199:7266  abi.encode(PERMIT_TYPEHASH, owner, spender, value, nonce, deadline) */\n      dup4\n      mload\n      dup1\n      dup5\n      sub\n      swap1\n      swap2\n      add\n      dup2\n      mstore\n        /* \"#utility.yul\":7536:7555   */\n      0xe0\n      swap1\n      swap3\n      add\n        /* \"Smart-Contract/PanjoCoin.sol\":7199:7266  abi.encode(PERMIT_TYPEHASH, owner, spender, value, nonce, deadline) */\n      swap1\n      swap3\n      mstore\n        /* \"Smart-Contract/PanjoCoin.sol\":7175:7277  keccak256(... */\n      dup1\n      mload\n      swap2\n      add\n      keccak256\n        /* \"#utility.yul\":7779:7814   */\n      swap1\n      swap2\n      pop\n      0x00\n        /* \"Smart-Contract/PanjoCoin.sol\":7360:7378  DOMAIN_SEPARATOR() */\n      tag_154\n        /* \"Smart-Contract/PanjoCoin.sol\":7360:7376  DOMAIN_SEPARATOR */\n      tag_49\n        /* \"Smart-Contract/PanjoCoin.sol\":7360:7378  DOMAIN_SEPARATOR() */\n      jump\t// in\n    tag_154:\n        /* \"Smart-Contract/PanjoCoin.sol\":7331:7391  abi.encodePacked(\"\\x19\\x01\", DOMAIN_SEPARATOR(), structHash) */\n      mload(0x40)\n      shl(0xf0, 0x1901)\n      0x20\n      dup3\n      add\n        /* \"#utility.yul\":8127:8154   */\n      mstore\n        /* \"#utility.yul\":8170:8181   */\n      0x22\n      dup2\n      add\n        /* \"#utility.yul\":8163:8190   */\n      swap2\n      swap1\n      swap2\n      mstore\n        /* \"#utility.yul\":8206:8218   */\n      0x42\n      dup2\n      add\n        /* \"#utility.yul\":8199:8227   */\n      dup4\n      swap1\n      mstore\n        /* \"#utility.yul\":8243:8255   */\n      0x62\n      add\n        /* \"Smart-Contract/PanjoCoin.sol\":7331:7391  abi.encodePacked(\"\\x19\\x01\", DOMAIN_SEPARATOR(), structHash) */\n      0x40\n      dup1\n      mload\n      not(0x1f)\n      dup2\n      dup5\n      sub\n      add\n      dup2\n      mstore\n      dup3\n      dup3\n      mstore\n        /* \"Smart-Contract/PanjoCoin.sol\":7307:7402  keccak256(... */\n      dup1\n      mload\n        /* \"Smart-Contract/PanjoCoin.sol\":7331:7391  abi.encodePacked(\"\\x19\\x01\", DOMAIN_SEPARATOR(), structHash) */\n      0x20\n        /* \"Smart-Contract/PanjoCoin.sol\":7307:7402  keccak256(... */\n      swap2\n      dup3\n      add\n      keccak256\n        /* \"Smart-Contract/PanjoCoin.sol\":7415:7432  address recovered */\n      0x00\n        /* \"Smart-Contract/PanjoCoin.sol\":7435:7461  ecrecover(digest, v, r, s) */\n      dup1\n      dup6\n      mstore\n      swap2\n      dup5\n      add\n      dup1\n      dup5\n      mstore\n        /* \"#utility.yul\":8493:8518   */\n      dup2\n      swap1\n      mstore\n        /* \"#utility.yul\":8566:8570   */\n      0xff\n        /* \"#utility.yul\":8554:8571   */\n      dup11\n      and\n        /* \"#utility.yul\":8534:8552   */\n      swap3\n      dup5\n      add\n        /* \"#utility.yul\":8527:8572   */\n      swap3\n      swap1\n      swap3\n      mstore\n        /* \"#utility.yul\":8588:8606   */\n      0x60\n      dup4\n      add\n        /* \"#utility.yul\":8581:8615   */\n      dup9\n      swap1\n      mstore\n        /* \"#utility.yul\":8631:8649   */\n      0x80\n      dup4\n      add\n        /* \"#utility.yul\":8624:8658   */\n      dup8\n      swap1\n      mstore\n        /* \"Smart-Contract/PanjoCoin.sol\":7307:7402  keccak256(... */\n      swap1\n      swap3\n      pop\n        /* \"Smart-Contract/PanjoCoin.sol\":7415:7432  address recovered */\n      swap1\n        /* \"Smart-Contract/PanjoCoin.sol\":7435:7461  ecrecover(digest, v, r, s) */\n      0x01\n      swap1\n        /* \"#utility.yul\":8465:8484   */\n      0xa0\n      add\n        /* \"Smart-Contract/PanjoCoin.sol\":7435:7461  ecrecover(digest, v, r, s) */\n      0x20\n      mload(0x40)\n      0x20\n      dup2\n      sub\n      swap1\n      dup1\n      dup5\n      sub\n      swap1\n      dup6\n      gas\n      staticcall\n      iszero\n      dup1\n      iszero\n      tag_160\n      jumpi\n      returndatasize\n      0x00\n      dup1\n      returndatacopy\n      revert(0x00, returndatasize)\n    tag_160:\n      pop\n      pop\n      pop\n      mload(sub(mload(0x40), 0x20))\n        /* \"Smart-Contract/PanjoCoin.sol\":7415:7461  address recovered = ecrecover(digest, v, r, s) */\n      swap1\n      pop\n        /* \"Smart-Contract/PanjoCoin.sol\":7493:7498  owner */\n      dup11\n      sub(shl(0xa0, 0x01), 0x01)\n        /* \"Smart-Contract/PanjoCoin.sol\":7480:7498  recovered == owner */\n      and\n        /* \"Smart-Contract/PanjoCoin.sol\":7480:7489  recovered */\n      dup2\n      sub(shl(0xa0, 0x01), 0x01)\n        /* \"Smart-Contract/PanjoCoin.sol\":7480:7498  recovered == owner */\n      and\n      eq\n        /* \"Smart-Contract/PanjoCoin.sol\":7480:7525  recovered == owner && recovered != address(0) */\n      dup1\n      iszero\n      tag_161\n      jumpi\n      pop\n      sub(shl(0xa0, 0x01), 0x01)\n        /* \"Smart-Contract/PanjoCoin.sol\":7502:7525  recovered != address(0) */\n      dup2\n      and\n      iszero\n      iszero\n        /* \"Smart-Contract/PanjoCoin.sol\":7480:7525  recovered == owner && recovered != address(0) */\n    tag_161:\n        /* \"Smart-Contract/PanjoCoin.sol\":7472:7547  require(recovered == owner && recovered != address(0), \"INVALID_SIGNATURE\") */\n      tag_162\n      jumpi\n      mload(0x40)\n      shl(0xe5, 0x461bcd)\n      dup2\n      mstore\n        /* \"#utility.yul\":8871:8873   */\n      0x20\n        /* \"Smart-Contract/PanjoCoin.sol\":7472:7547  require(recovered == owner && recovered != address(0), \"INVALID_SIGNATURE\") */\n      0x04\n      dup3\n      add\n        /* \"#utility.yul\":8853:8874   */\n      mstore\n        /* \"#utility.yul\":8910:8912   */\n      0x11\n        /* \"#utility.yul\":8890:8908   */\n      0x24\n      dup3\n      add\n        /* \"#utility.yul\":8883:8913   */\n      mstore\n      shl(0x78, 0x494e56414c49445f5349474e4154555245)\n        /* \"#utility.yul\":8929:8947   */\n      0x44\n      dup3\n      add\n        /* \"#utility.yul\":8922:8969   */\n      mstore\n        /* \"#utility.yul\":8986:9004   */\n      0x64\n      add\n        /* \"Smart-Contract/PanjoCoin.sol\":7472:7547  require(recovered == owner && recovered != address(0), \"INVALID_SIGNATURE\") */\n      tag_105\n        /* \"#utility.yul\":8669:9010   */\n      jump\n        /* \"Smart-Contract/PanjoCoin.sol\":7472:7547  require(recovered == owner && recovered != address(0), \"INVALID_SIGNATURE\") */\n    tag_162:\n        /* \"Smart-Contract/PanjoCoin.sol\":7560:7591  _approve(owner, spender, value) */\n      tag_165\n        /* \"Smart-Contract/PanjoCoin.sol\":7569:7574  owner */\n      dup12\n        /* \"Smart-Contract/PanjoCoin.sol\":7576:7583  spender */\n      dup12\n        /* \"Smart-Contract/PanjoCoin.sol\":7585:7590  value */\n      dup12\n        /* \"Smart-Contract/PanjoCoin.sol\":7560:7568  _approve */\n      tag_100\n        /* \"Smart-Contract/PanjoCoin.sol\":7560:7591  _approve(owner, spender, value) */\n      jump\t// in\n    tag_165:\n        /* \"Smart-Contract/PanjoCoin.sol\":7039:7599  {... */\n      pop\n      pop\n      pop\n      pop\n        /* \"Smart-Contract/PanjoCoin.sol\":6848:7599  function permit(... */\n      pop\n      pop\n      pop\n      pop\n      pop\n      pop\n      pop\n      jump\t// out\n        /* \"Smart-Contract/PanjoCoin.sol\":4666:4953  function _approve(address owner, address spender, uint256 value) internal {... */\n    tag_100:\n      sub(shl(0xa0, 0x01), 0x01)\n        /* \"Smart-Contract/PanjoCoin.sol\":4759:4778  owner != address(0) */\n      dup4\n      and\n        /* \"Smart-Contract/PanjoCoin.sol\":4751:4793  require(owner != address(0), \"OWNER_ZERO\") */\n      tag_169\n      jumpi\n      mload(0x40)\n      shl(0xe5, 0x461bcd)\n      dup2\n      mstore\n        /* \"#utility.yul\":9217:9219   */\n      0x20\n        /* \"Smart-Contract/PanjoCoin.sol\":4751:4793  require(owner != address(0), \"OWNER_ZERO\") */\n      0x04\n      dup3\n      add\n        /* \"#utility.yul\":9199:9220   */\n      mstore\n        /* \"#utility.yul\":9256:9258   */\n      0x0a\n        /* \"#utility.yul\":9236:9254   */\n      0x24\n      dup3\n      add\n        /* \"#utility.yul\":9229:9259   */\n      mstore\n      shl(0xb0, 0x4f574e45525f5a45524f)\n        /* \"#utility.yul\":9275:9293   */\n      0x44\n      dup3\n      add\n        /* \"#utility.yul\":9268:9308   */\n      mstore\n        /* \"#utility.yul\":9325:9343   */\n      0x64\n      add\n        /* \"Smart-Contract/PanjoCoin.sol\":4751:4793  require(owner != address(0), \"OWNER_ZERO\") */\n      tag_105\n        /* \"#utility.yul\":9015:9349   */\n      jump\n        /* \"Smart-Contract/PanjoCoin.sol\":4751:4793  require(owner != address(0), \"OWNER_ZERO\") */\n    tag_169:\n      sub(shl(0xa0, 0x01), 0x01)\n        /* \"Smart-Contract/PanjoCoin.sol\":4812:4833  spender != address(0) */\n      dup3\n      and\n        /* \"Smart-Contract/PanjoCoin.sol\":4804:4850  require(spender != address(0), \"SPENDER_ZERO\") */\n      tag_172\n      jumpi\n      mload(0x40)\n      shl(0xe5, 0x461bcd)\n      dup2\n      mstore\n        /* \"#utility.yul\":9556:9558   */\n      0x20\n        /* \"Smart-Contract/PanjoCoin.sol\":4804:4850  require(spender != address(0), \"SPENDER_ZERO\") */\n      0x04\n      dup3\n      add\n        /* \"#utility.yul\":9538:9559   */\n      mstore\n        /* \"#utility.yul\":9595:9597   */\n      0x0c\n        /* \"#utility.yul\":9575:9593   */\n      0x24\n      dup3\n      add\n        /* \"#utility.yul\":9568:9598   */\n      mstore\n      shl(0xa0, 0x5350454e4445525f5a45524f)\n        /* \"#utility.yul\":9614:9632   */\n      0x44\n      dup3\n      add\n        /* \"#utility.yul\":9607:9649   */\n      mstore\n        /* \"#utility.yul\":9666:9684   */\n      0x64\n      add\n        /* \"Smart-Contract/PanjoCoin.sol\":4804:4850  require(spender != address(0), \"SPENDER_ZERO\") */\n      tag_105\n        /* \"#utility.yul\":9354:9690   */\n      jump\n        /* \"Smart-Contract/PanjoCoin.sol\":4804:4850  require(spender != address(0), \"SPENDER_ZERO\") */\n    tag_172:\n      sub(shl(0xa0, 0x01), 0x01)\n        /* \"Smart-Contract/PanjoCoin.sol\":4863:4881  _allowances[owner] */\n      dup4\n      dup2\n      and\n      0x00\n      dup2\n      dup2\n      mstore\n        /* \"Smart-Contract/PanjoCoin.sol\":4863:4874  _allowances */\n      0x01\n        /* \"Smart-Contract/PanjoCoin.sol\":4863:4881  _allowances[owner] */\n      0x20\n      swap1\n      dup2\n      mstore\n      0x40\n      dup1\n      dup4\n      keccak256\n        /* \"Smart-Contract/PanjoCoin.sol\":4863:4890  _allowances[owner][spender] */\n      swap5\n      dup8\n      and\n      dup1\n      dup5\n      mstore\n      swap5\n      dup3\n      mstore\n      swap2\n      dup3\n      swap1\n      keccak256\n        /* \"Smart-Contract/PanjoCoin.sol\":4863:4898  _allowances[owner][spender] = value */\n      dup6\n      swap1\n      sstore\n        /* \"Smart-Contract/PanjoCoin.sol\":4914:4945  Approval(owner, spender, value) */\n      swap1\n      mload\n        /* \"#utility.yul\":1367:1392   */\n      dup5\n      dup2\n      mstore\n        /* \"Smart-Contract/PanjoCoin.sol\":4914:4945  Approval(owner, spender, value) */\n      0x8c5be1e5ebec7d5bd14f71427d1e84f3dd0314c0f7b2291e5b200ac8c7c3b925\n      swap2\n        /* \"#utility.yul\":1340:1358   */\n      add\n        /* \"Smart-Contract/PanjoCoin.sol\":4914:4945  Approval(owner, spender, value) */\n    tag_175:\n      mload(0x40)\n      dup1\n      swap2\n      sub\n      swap1\n      log3\n        /* \"Smart-Contract/PanjoCoin.sol\":4666:4953  function _approve(address owner, address spender, uint256 value) internal {... */\n      pop\n      pop\n      pop\n      jump\t// out\n        /* \"Smart-Contract/PanjoCoin.sol\":3596:4016  function _transfer(address from, address to, uint256 value) internal {... */\n    tag_110:\n      sub(shl(0xa0, 0x01), 0x01)\n        /* \"Smart-Contract/PanjoCoin.sol\":3684:3702  from != address(0) */\n      dup4\n      and\n        /* \"Smart-Contract/PanjoCoin.sol\":3676:3716  require(from != address(0), \"FROM_ZERO\") */\n      tag_177\n      jumpi\n      mload(0x40)\n      shl(0xe5, 0x461bcd)\n      dup2\n      mstore\n        /* \"#utility.yul\":9897:9899   */\n      0x20\n        /* \"Smart-Contract/PanjoCoin.sol\":3676:3716  require(from != address(0), \"FROM_ZERO\") */\n      0x04\n      dup3\n      add\n        /* \"#utility.yul\":9879:9900   */\n      mstore\n        /* \"#utility.yul\":9936:9937   */\n      0x09\n        /* \"#utility.yul\":9916:9934   */\n      0x24\n      dup3\n      add\n        /* \"#utility.yul\":9909:9938   */\n      mstore\n      shl(0xb8, 0x46524f4d5f5a45524f)\n        /* \"#utility.yul\":9954:9972   */\n      0x44\n      dup3\n      add\n        /* \"#utility.yul\":9947:9986   */\n      mstore\n        /* \"#utility.yul\":10003:10021   */\n      0x64\n      add\n        /* \"Smart-Contract/PanjoCoin.sol\":3676:3716  require(from != address(0), \"FROM_ZERO\") */\n      tag_105\n        /* \"#utility.yul\":9695:10027   */\n      jump\n        /* \"Smart-Contract/PanjoCoin.sol\":3676:3716  require(from != address(0), \"FROM_ZERO\") */\n    tag_177:\n      sub(shl(0xa0, 0x01), 0x01)\n        /* \"Smart-Contract/PanjoCoin.sol\":3735:3751  to != address(0) */\n      dup3\n      and\n        /* \"Smart-Contract/PanjoCoin.sol\":3727:3763  require(to != address(0), \"TO_ZERO\") */\n      tag_180\n      jumpi\n      mload(0x40)\n      shl(0xe5, 0x461bcd)\n      dup2\n      mstore\n        /* \"#utility.yul\":10234:10236   */\n      0x20\n        /* \"Smart-Contract/PanjoCoin.sol\":3727:3763  require(to != address(0), \"TO_ZERO\") */\n      0x04\n      dup3\n      add\n        /* \"#utility.yul\":10216:10237   */\n      mstore\n        /* \"#utility.yul\":10273:10274   */\n      0x07\n        /* \"#utility.yul\":10253:10271   */\n      0x24\n      dup3\n      add\n        /* \"#utility.yul\":10246:10275   */\n      mstore\n      shl(0xc8, 0x544f5f5a45524f)\n        /* \"#utility.yul\":10291:10309   */\n      0x44\n      dup3\n      add\n        /* \"#utility.yul\":10284:10321   */\n      mstore\n        /* \"#utility.yul\":10338:10356   */\n      0x64\n      add\n        /* \"Smart-Contract/PanjoCoin.sol\":3727:3763  require(to != address(0), \"TO_ZERO\") */\n      tag_105\n        /* \"#utility.yul\":10032:10362   */\n      jump\n        /* \"Smart-Contract/PanjoCoin.sol\":3727:3763  require(to != address(0), \"TO_ZERO\") */\n    tag_180:\n      sub(shl(0xa0, 0x01), 0x01)\n        /* \"Smart-Contract/PanjoCoin.sol\":3790:3805  _balances[from] */\n      dup4\n      and\n        /* \"Smart-Contract/PanjoCoin.sol\":3776:3787  uint256 bal */\n      0x00\n        /* \"Smart-Contract/PanjoCoin.sol\":3790:3805  _balances[from] */\n      swap1\n      dup2\n      mstore\n      0x20\n      dup2\n      swap1\n      mstore\n      0x40\n      swap1\n      keccak256\n      sload\n        /* \"Smart-Contract/PanjoCoin.sol\":3824:3836  bal >= value */\n      dup2\n      dup2\n      lt\n      iszero\n        /* \"Smart-Contract/PanjoCoin.sol\":3816:3852  require(bal >= value, \"BALANCE_LOW\") */\n      tag_183\n      jumpi\n      mload(0x40)\n      shl(0xe5, 0x461bcd)\n      dup2\n      mstore\n        /* \"#utility.yul\":10569:10571   */\n      0x20\n        /* \"Smart-Contract/PanjoCoin.sol\":3816:3852  require(bal >= value, \"BALANCE_LOW\") */\n      0x04\n      dup3\n      add\n        /* \"#utility.yul\":10551:10572   */\n      mstore\n        /* \"#utility.yul\":10608:10610   */\n      0x0b\n        /* \"#utility.yul\":10588:10606   */\n      0x24\n      dup3\n      add\n        /* \"#utility.yul\":10581:10611   */\n      mstore\n      shl(0xa8, 0x42414c414e43455f4c4f57)\n        /* \"#utility.yul\":10627:10645   */\n      0x44\n      dup3\n      add\n        /* \"#utility.yul\":10620:10661   */\n      mstore\n        /* \"#utility.yul\":10678:10696   */\n      0x64\n      add\n        /* \"Smart-Contract/PanjoCoin.sol\":3816:3852  require(bal >= value, \"BALANCE_LOW\") */\n      tag_105\n        /* \"#utility.yul\":10367:10702   */\n      jump\n        /* \"Smart-Contract/PanjoCoin.sol\":3816:3852  require(bal >= value, \"BALANCE_LOW\") */\n    tag_183:\n      sub(shl(0xa0, 0x01), 0x01)\n        /* \"Smart-Contract/PanjoCoin.sol\":3890:3905  _balances[from] */\n      dup1\n      dup6\n      and\n        /* \"Smart-Contract/PanjoCoin.sol\":3890:3899  _balances */\n      0x00\n        /* \"Smart-Contract/PanjoCoin.sol\":3890:3905  _balances[from] */\n      swap1\n      dup2\n      mstore\n      0x20\n      dup2\n      swap1\n      mstore\n      0x40\n      dup1\n      dup3\n      keccak256\n        /* \"Smart-Contract/PanjoCoin.sol\":3908:3919  bal - value */\n      dup6\n      dup6\n      sub\n        /* \"Smart-Contract/PanjoCoin.sol\":3890:3919  _balances[from] = bal - value */\n      swap1\n      sstore\n        /* \"Smart-Contract/PanjoCoin.sol\":3943:3956  _balances[to] */\n      swap2\n      dup6\n      and\n      dup2\n      mstore\n      swap1\n      dup2\n      keccak256\n        /* \"Smart-Contract/PanjoCoin.sol\":3943:3965  _balances[to] += value */\n      dup1\n      sload\n        /* \"Smart-Contract/PanjoCoin.sol\":3914:3919  value */\n      dup5\n      swap3\n        /* \"Smart-Contract/PanjoCoin.sol\":3890:3899  _balances */\n      swap1\n        /* \"Smart-Contract/PanjoCoin.sol\":3943:3965  _balances[to] += value */\n      tag_186\n      swap1\n        /* \"Smart-Contract/PanjoCoin.sol\":3914:3919  value */\n      dup5\n      swap1\n        /* \"Smart-Contract/PanjoCoin.sol\":3943:3965  _balances[to] += value */\n      tag_123\n      jump\t// in\n    tag_186:\n      swap3\n      pop\n      pop\n      dup2\n      swap1\n      sstore\n      pop\n        /* \"Smart-Contract/PanjoCoin.sol\":3998:4000  to */\n      dup3\n      sub(shl(0xa0, 0x01), 0x01)\n        /* \"Smart-Contract/PanjoCoin.sol\":3983:4008  Transfer(from, to, value) */\n      and\n        /* \"Smart-Contract/PanjoCoin.sol\":3992:3996  from */\n      dup5\n      sub(shl(0xa0, 0x01), 0x01)\n        /* \"Smart-Contract/PanjoCoin.sol\":3983:4008  Transfer(from, to, value) */\n      and\n      0xddf252ad1be2c89b69c2b068fc378daa952ba7f163c4a11628f55a4df523b3ef\n        /* \"Smart-Contract/PanjoCoin.sol\":4002:4007  value */\n      dup5\n        /* \"Smart-Contract/PanjoCoin.sol\":3983:4008  Transfer(from, to, value) */\n      mload(0x40)\n      tag_187\n      swap2\n        /* \"#utility.yul\":1367:1392   */\n      dup2\n      mstore\n        /* \"#utility.yul\":1355:1357   */\n      0x20\n        /* \"#utility.yul\":1340:1358   */\n      add\n      swap1\n        /* \"#utility.yul\":1221:1398   */\n      jump\n        /* \"Smart-Contract/PanjoCoin.sol\":3983:4008  Transfer(from, to, value) */\n    tag_187:\n      mload(0x40)\n      dup1\n      swap2\n      sub\n      swap1\n      log3\n        /* \"Smart-Contract/PanjoCoin.sol\":3665:4016  {... */\n      pop\n        /* \"Smart-Contract/PanjoCoin.sol\":3596:4016  function _transfer(address from, address to, uint256 value) internal {... */\n      pop\n      pop\n      pop\n      jump\t// out\n        /* \"Smart-Contract/PanjoCoin.sol\":4276:4658  function _burn(address account, uint256 value) internal {... */\n    tag_127:\n      sub(shl(0xa0, 0x01), 0x01)\n        /* \"Smart-Contract/PanjoCoin.sol\":4351:4372  account != address(0) */\n      dup3\n      and\n        /* \"Smart-Contract/PanjoCoin.sol\":4343:4386  require(account != address(0), \"BURN_ZERO\") */\n      tag_189\n      jumpi\n      mload(0x40)\n      shl(0xe5, 0x461bcd)\n      dup2\n      mstore\n        /* \"#utility.yul\":10909:10911   */\n      0x20\n        /* \"Smart-Contract/PanjoCoin.sol\":4343:4386  require(account != address(0), \"BURN_ZERO\") */\n      0x04\n      dup3\n      add\n        /* \"#utility.yul\":10891:10912   */\n      mstore\n        /* \"#utility.yul\":10948:10949   */\n      0x09\n        /* \"#utility.yul\":10928:10946   */\n      0x24\n      dup3\n      add\n        /* \"#utility.yul\":10921:10950   */\n      mstore\n      shl(0xb8, 0x4255524e5f5a45524f)\n        /* \"#utility.yul\":10966:10984   */\n      0x44\n      dup3\n      add\n        /* \"#utility.yul\":10959:10998   */\n      mstore\n        /* \"#utility.yul\":11015:11033   */\n      0x64\n      add\n        /* \"Smart-Contract/PanjoCoin.sol\":4343:4386  require(account != address(0), \"BURN_ZERO\") */\n      tag_105\n        /* \"#utility.yul\":10707:11039   */\n      jump\n        /* \"Smart-Contract/PanjoCoin.sol\":4343:4386  require(account != address(0), \"BURN_ZERO\") */\n    tag_189:\n      sub(shl(0xa0, 0x01), 0x01)\n        /* \"Smart-Contract/PanjoCoin.sol\":4413:4431  _balances[account] */\n      dup3\n      and\n        /* \"Smart-Contract/PanjoCoin.sol\":4399:4410  uint256 bal */\n      0x00\n        /* \"Smart-Contract/PanjoCoin.sol\":4413:4431  _balances[account] */\n      swap1\n      dup2\n      mstore\n      0x20\n      dup2\n      swap1\n      mstore\n      0x40\n      swap1\n      keccak256\n      sload\n        /* \"Smart-Contract/PanjoCoin.sol\":4450:4462  bal >= value */\n      dup2\n      dup2\n      lt\n      iszero\n        /* \"Smart-Contract/PanjoCoin.sol\":4442:4479  require(bal >= value, \"BURN_EXCEEDS\") */\n      tag_192\n      jumpi\n      mload(0x40)\n      shl(0xe5, 0x461bcd)\n      dup2\n      mstore\n        /* \"#utility.yul\":11246:11248   */\n      0x20\n        /* \"Smart-Contract/PanjoCoin.sol\":4442:4479  require(bal >= value, \"BURN_EXCEEDS\") */\n      0x04\n      dup3\n      add\n        /* \"#utility.yul\":11228:11249   */\n      mstore\n        /* \"#utility.yul\":11285:11287   */\n      0x0c\n        /* \"#utility.yul\":11265:11283   */\n      0x24\n      dup3\n      add\n        /* \"#utility.yul\":11258:11288   */\n      mstore\n      shl(0xa0, 0x4255524e5f45584345454453)\n        /* \"#utility.yul\":11304:11322   */\n      0x44\n      dup3\n      add\n        /* \"#utility.yul\":11297:11339   */\n      mstore\n        /* \"#utility.yul\":11356:11374   */\n      0x64\n      add\n        /* \"Smart-Contract/PanjoCoin.sol\":4442:4479  require(bal >= value, \"BURN_EXCEEDS\") */\n      tag_105\n        /* \"#utility.yul\":11044:11380   */\n      jump\n        /* \"Smart-Contract/PanjoCoin.sol\":4442:4479  require(bal >= value, \"BURN_EXCEEDS\") */\n    tag_192:\n      sub(shl(0xa0, 0x01), 0x01)\n        /* \"Smart-Contract/PanjoCoin.sol\":4517:4535  _balances[account] */\n      dup4\n      and\n        /* \"Smart-Contract/PanjoCoin.sol\":4517:4526  _balances */\n      0x00\n        /* \"Smart-Contract/PanjoCoin.sol\":4517:4535  _balances[account] */\n      dup2\n      dup2\n      mstore\n      0x20\n      dup2\n      dup2\n      mstore\n      0x40\n      dup1\n      dup4\n      keccak256\n        /* \"Smart-Contract/PanjoCoin.sol\":4538:4549  bal - value */\n      dup7\n      dup7\n      sub\n        /* \"Smart-Contract/PanjoCoin.sol\":4517:4549  _balances[account] = bal - value */\n      swap1\n      sstore\n        /* \"Smart-Contract/PanjoCoin.sol\":4564:4576  _totalSupply */\n      0x02\n        /* \"Smart-Contract/PanjoCoin.sol\":4564:4585  _totalSupply -= value */\n      dup1\n      sload\n      dup8\n      swap1\n      sub\n      swap1\n      sstore\n        /* \"Smart-Contract/PanjoCoin.sol\":4614:4650  Transfer(account, address(0), value) */\n      mload\n        /* \"#utility.yul\":1367:1392   */\n      dup6\n      dup2\n      mstore\n        /* \"Smart-Contract/PanjoCoin.sol\":4517:4526  _balances */\n      swap2\n      swap3\n        /* \"Smart-Contract/PanjoCoin.sol\":4517:4535  _balances[account] */\n      swap2\n        /* \"Smart-Contract/PanjoCoin.sol\":4614:4650  Transfer(account, address(0), value) */\n      0xddf252ad1be2c89b69c2b068fc378daa952ba7f163c4a11628f55a4df523b3ef\n      swap2\n        /* \"#utility.yul\":1340:1358   */\n      add\n        /* \"Smart-Contract/PanjoCoin.sol\":4614:4650  Transfer(account, address(0), value) */\n      tag_175\n        /* \"#utility.yul\":1221:1398   */\n      jump\n        /* \"#utility.yul\":14:541   */\n    tag_25:\n        /* \"#utility.yul\":163:165   */\n      0x20\n        /* \"#utility.yul\":152:161   */\n      dup2\n        /* \"#utility.yul\":145:166   */\n      mstore\n        /* \"#utility.yul\":126:130   */\n      0x00\n        /* \"#utility.yul\":195:201   */\n      dup3\n        /* \"#utility.yul\":189:202   */\n      mload\n        /* \"#utility.yul\":238:244   */\n      dup1\n        /* \"#utility.yul\":233:235   */\n      0x20\n        /* \"#utility.yul\":222:231   */\n      dup5\n        /* \"#utility.yul\":218:236   */\n      add\n        /* \"#utility.yul\":211:245   */\n      mstore\n        /* \"#utility.yul\":263:264   */\n      0x00\n        /* \"#utility.yul\":273:413   */\n    tag_201:\n        /* \"#utility.yul\":287:293   */\n      dup2\n        /* \"#utility.yul\":284:285   */\n      dup2\n        /* \"#utility.yul\":281:294   */\n      lt\n        /* \"#utility.yul\":273:413   */\n      iszero\n      tag_203\n      jumpi\n        /* \"#utility.yul\":398:400   */\n      0x20\n        /* \"#utility.yul\":382:396   */\n      dup2\n      dup7\n      add\n        /* \"#utility.yul\":378:401   */\n      dup2\n      add\n        /* \"#utility.yul\":372:402   */\n      mload\n        /* \"#utility.yul\":367:369   */\n      0x40\n        /* \"#utility.yul\":348:365   */\n      dup7\n      dup5\n      add\n        /* \"#utility.yul\":344:370   */\n      add\n        /* \"#utility.yul\":337:403   */\n      mstore\n        /* \"#utility.yul\":302:312   */\n      add\n        /* \"#utility.yul\":273:413   */\n      jump(tag_201)\n    tag_203:\n        /* \"#utility.yul\":277:280   */\n      pop\n        /* \"#utility.yul\":462:463   */\n      0x00\n        /* \"#utility.yul\":457:459   */\n      0x40\n        /* \"#utility.yul\":448:454   */\n      dup3\n        /* \"#utility.yul\":437:446   */\n      dup6\n        /* \"#utility.yul\":433:455   */\n      add\n        /* \"#utility.yul\":429:460   */\n      add\n        /* \"#utility.yul\":422:464   */\n      mstore\n        /* \"#utility.yul\":532:534   */\n      0x40\n        /* \"#utility.yul\":525:527   */\n      0x1f\n        /* \"#utility.yul\":521:528   */\n      not\n        /* \"#utility.yul\":516:518   */\n      0x1f\n        /* \"#utility.yul\":508:514   */\n      dup4\n        /* \"#utility.yul\":504:519   */\n      add\n        /* \"#utility.yul\":500:529   */\n      and\n        /* \"#utility.yul\":489:498   */\n      dup5\n        /* \"#utility.yul\":485:530   */\n      add\n        /* \"#utility.yul\":481:535   */\n      add\n        /* \"#utility.yul\":473:535   */\n      swap2\n      pop\n      pop\n        /* \"#utility.yul\":14:541   */\n      swap3\n      swap2\n      pop\n      pop\n      jump\t// out\n        /* \"#utility.yul\":546:719   */\n    tag_196:\n        /* \"#utility.yul\":614:634   */\n      dup1\n      calldataload\n      sub(shl(0xa0, 0x01), 0x01)\n        /* \"#utility.yul\":663:694   */\n      dup2\n      and\n        /* \"#utility.yul\":653:695   */\n      dup2\n      eq\n        /* \"#utility.yul\":643:713   */\n      tag_205\n      jumpi\n        /* \"#utility.yul\":709:710   */\n      0x00\n        /* \"#utility.yul\":706:707   */\n      dup1\n        /* \"#utility.yul\":699:711   */\n      revert\n        /* \"#utility.yul\":643:713   */\n    tag_205:\n        /* \"#utility.yul\":546:719   */\n      swap2\n      swap1\n      pop\n      jump\t// out\n        /* \"#utility.yul\":724:1024   */\n    tag_28:\n        /* \"#utility.yul\":792:798   */\n      0x00\n        /* \"#utility.yul\":800:806   */\n      dup1\n        /* \"#utility.yul\":853:855   */\n      0x40\n        /* \"#utility.yul\":841:850   */\n      dup4\n        /* \"#utility.yul\":832:839   */\n      dup6\n        /* \"#utility.yul\":828:851   */\n      sub\n        /* \"#utility.yul\":824:856   */\n      slt\n        /* \"#utility.yul\":821:873   */\n      iszero\n      tag_207\n      jumpi\n        /* \"#utility.yul\":869:870   */\n      0x00\n        /* \"#utility.yul\":866:867   */\n      dup1\n        /* \"#utility.yul\":859:871   */\n      revert\n        /* \"#utility.yul\":821:873   */\n    tag_207:\n        /* \"#utility.yul\":892:921   */\n      tag_208\n        /* \"#utility.yul\":911:920   */\n      dup4\n        /* \"#utility.yul\":892:921   */\n      tag_196\n      jump\t// in\n    tag_208:\n        /* \"#utility.yul\":882:921   */\n      swap5\n        /* \"#utility.yul\":990:992   */\n      0x20\n        /* \"#utility.yul\":975:993   */\n      swap4\n      swap1\n      swap4\n      add\n        /* \"#utility.yul\":962:994   */\n      calldataload\n      swap4\n      pop\n      pop\n      pop\n        /* \"#utility.yul\":724:1024   */\n      jump\t// out\n        /* \"#utility.yul\":1403:1777   */\n    tag_38:\n        /* \"#utility.yul\":1480:1486   */\n      0x00\n        /* \"#utility.yul\":1488:1494   */\n      dup1\n        /* \"#utility.yul\":1496:1502   */\n      0x00\n        /* \"#utility.yul\":1549:1551   */\n      0x60\n        /* \"#utility.yul\":1537:1546   */\n      dup5\n        /* \"#utility.yul\":1528:1535   */\n      dup7\n        /* \"#utility.yul\":1524:1547   */\n      sub\n        /* \"#utility.yul\":1520:1552   */\n      slt\n        /* \"#utility.yul\":1517:1569   */\n      iszero\n      tag_212\n      jumpi\n        /* \"#utility.yul\":1565:1566   */\n      0x00\n        /* \"#utility.yul\":1562:1563   */\n      dup1\n        /* \"#utility.yul\":1555:1567   */\n      revert\n        /* \"#utility.yul\":1517:1569   */\n    tag_212:\n        /* \"#utility.yul\":1588:1617   */\n      tag_213\n        /* \"#utility.yul\":1607:1616   */\n      dup5\n        /* \"#utility.yul\":1588:1617   */\n      tag_196\n      jump\t// in\n    tag_213:\n        /* \"#utility.yul\":1578:1617   */\n      swap3\n      pop\n        /* \"#utility.yul\":1636:1674   */\n      tag_214\n        /* \"#utility.yul\":1670:1672   */\n      0x20\n        /* \"#utility.yul\":1659:1668   */\n      dup6\n        /* \"#utility.yul\":1655:1673   */\n      add\n        /* \"#utility.yul\":1636:1674   */\n      tag_196\n      jump\t// in\n    tag_214:\n        /* \"#utility.yul\":1403:1777   */\n      swap3\n      swap6\n        /* \"#utility.yul\":1626:1674   */\n      swap3\n      swap5\n      pop\n      pop\n      pop\n        /* \"#utility.yul\":1743:1745   */\n      0x40\n        /* \"#utility.yul\":1728:1746   */\n      swap2\n      swap1\n      swap2\n      add\n        /* \"#utility.yul\":1715:1747   */\n      calldataload\n      swap1\n        /* \"#utility.yul\":1403:1777   */\n      jump\t// out\n        /* \"#utility.yul\":2153:2379   */\n    tag_58:\n        /* \"#utility.yul\":2212:2218   */\n      0x00\n        /* \"#utility.yul\":2265:2267   */\n      0x20\n        /* \"#utility.yul\":2253:2262   */\n      dup3\n        /* \"#utility.yul\":2244:2251   */\n      dup5\n        /* \"#utility.yul\":2240:2263   */\n      sub\n        /* \"#utility.yul\":2236:2268   */\n      slt\n        /* \"#utility.yul\":2233:2285   */\n      iszero\n      tag_218\n      jumpi\n        /* \"#utility.yul\":2281:2282   */\n      0x00\n        /* \"#utility.yul\":2278:2279   */\n      dup1\n        /* \"#utility.yul\":2271:2283   */\n      revert\n        /* \"#utility.yul\":2233:2285   */\n    tag_218:\n      pop\n        /* \"#utility.yul\":2326:2349   */\n      calldataload\n      swap2\n        /* \"#utility.yul\":2153:2379   */\n      swap1\n      pop\n      jump\t// out\n        /* \"#utility.yul\":2384:2570   */\n    tag_62:\n        /* \"#utility.yul\":2443:2449   */\n      0x00\n        /* \"#utility.yul\":2496:2498   */\n      0x20\n        /* \"#utility.yul\":2484:2493   */\n      dup3\n        /* \"#utility.yul\":2475:2482   */\n      dup5\n        /* \"#utility.yul\":2471:2494   */\n      sub\n        /* \"#utility.yul\":2467:2499   */\n      slt\n        /* \"#utility.yul\":2464:2516   */\n      iszero\n      tag_220\n      jumpi\n        /* \"#utility.yul\":2512:2513   */\n      0x00\n        /* \"#utility.yul\":2509:2510   */\n      dup1\n        /* \"#utility.yul\":2502:2514   */\n      revert\n        /* \"#utility.yul\":2464:2516   */\n    tag_220:\n        /* \"#utility.yul\":2535:2564   */\n      tag_221\n        /* \"#utility.yul\":2554:2563   */\n      dup3\n        /* \"#utility.yul\":2535:2564   */\n      tag_196\n      jump\t// in\n    tag_221:\n        /* \"#utility.yul\":2525:2564   */\n      swap4\n        /* \"#utility.yul\":2384:2570   */\n      swap3\n      pop\n      pop\n      pop\n      jump\t// out\n        /* \"#utility.yul\":2575:3478   */\n    tag_82:\n        /* \"#utility.yul\":2686:2692   */\n      0x00\n        /* \"#utility.yul\":2694:2700   */\n      dup1\n        /* \"#utility.yul\":2702:2708   */\n      0x00\n        /* \"#utility.yul\":2710:2716   */\n      dup1\n        /* \"#utility.yul\":2718:2724   */\n      0x00\n        /* \"#utility.yul\":2726:2732   */\n      dup1\n        /* \"#utility.yul\":2734:2740   */\n      0x00\n        /* \"#utility.yul\":2787:2790   */\n      0xe0\n        /* \"#utility.yul\":2775:2784   */\n      dup9\n        /* \"#utility.yul\":2766:2773   */\n      dup11\n        /* \"#utility.yul\":2762:2785   */\n      sub\n        /* \"#utility.yul\":2758:2791   */\n      slt\n        /* \"#utility.yul\":2755:2808   */\n      iszero\n      tag_223\n      jumpi\n        /* \"#utility.yul\":2804:2805   */\n      0x00\n        /* \"#utility.yul\":2801:2802   */\n      dup1\n        /* \"#utility.yul\":2794:2806   */\n      revert\n        /* \"#utility.yul\":2755:2808   */\n    tag_223:\n        /* \"#utility.yul\":2827:2856   */\n      tag_224\n        /* \"#utility.yul\":2846:2855   */\n      dup9\n        /* \"#utility.yul\":2827:2856   */\n      tag_196\n      jump\t// in\n    tag_224:\n        /* \"#utility.yul\":2817:2856   */\n      swap7\n      pop\n        /* \"#utility.yul\":2875:2913   */\n      tag_225\n        /* \"#utility.yul\":2909:2911   */\n      0x20\n        /* \"#utility.yul\":2898:2907   */\n      dup10\n        /* \"#utility.yul\":2894:2912   */\n      add\n        /* \"#utility.yul\":2875:2913   */\n      tag_196\n      jump\t// in\n    tag_225:\n        /* \"#utility.yul\":2865:2913   */\n      swap6\n      pop\n        /* \"#utility.yul\":2982:2984   */\n      0x40\n        /* \"#utility.yul\":2967:2985   */\n      dup9\n      add\n        /* \"#utility.yul\":2954:2986   */\n      calldataload\n      swap5\n      pop\n        /* \"#utility.yul\":3083:3085   */\n      0x60\n        /* \"#utility.yul\":3068:3086   */\n      dup9\n      add\n        /* \"#utility.yul\":3055:3087   */\n      calldataload\n      swap4\n      pop\n        /* \"#utility.yul\":3165:3168   */\n      0x80\n        /* \"#utility.yul\":3150:3169   */\n      dup9\n      add\n        /* \"#utility.yul\":3137:3170   */\n      calldataload\n        /* \"#utility.yul\":3214:3218   */\n      0xff\n        /* \"#utility.yul\":3201:3219   */\n      dup2\n      and\n        /* \"#utility.yul\":3189:3220   */\n      dup2\n      eq\n        /* \"#utility.yul\":3179:3238   */\n      tag_226\n      jumpi\n        /* \"#utility.yul\":3234:3235   */\n      0x00\n        /* \"#utility.yul\":3231:3232   */\n      dup1\n        /* \"#utility.yul\":3224:3236   */\n      revert\n        /* \"#utility.yul\":3179:3238   */\n    tag_226:\n        /* \"#utility.yul\":2575:3478   */\n      swap7\n      swap10\n      swap6\n      swap9\n      pop\n      swap4\n      swap7\n      swap3\n      swap6\n        /* \"#utility.yul\":3257:3264   */\n      swap5\n        /* \"#utility.yul\":3337:3340   */\n      0xa0\n        /* \"#utility.yul\":3322:3341   */\n      dup5\n      add\n        /* \"#utility.yul\":3309:3342   */\n      calldataload\n      swap5\n      pop\n        /* \"#utility.yul\":3441:3444   */\n      0xc0\n        /* \"#utility.yul\":3426:3445   */\n      swap1\n      swap4\n      add\n        /* \"#utility.yul\":3413:3446   */\n      calldataload\n      swap3\n        /* \"#utility.yul\":2575:3478   */\n      swap2\n      pop\n      pop\n      jump\t// out\n        /* \"#utility.yul\":3483:3743   */\n    tag_86:\n        /* \"#utility.yul\":3551:3557   */\n      0x00\n        /* \"#utility.yul\":3559:3565   */\n      dup1\n        /* \"#utility.yul\":3612:3614   */\n      0x40\n        /* \"#utility.yul\":3600:3609   */\n      dup4\n        /* \"#utility.yul\":3591:3598   */\n      dup6\n        /* \"#utility.yul\":3587:3610   */\n      sub\n        /* \"#utility.yul\":3583:3615   */\n      slt\n        /* \"#utility.yul\":3580:3632   */\n      iszero\n      tag_228\n      jumpi\n        /* \"#utility.yul\":3628:3629   */\n      0x00\n        /* \"#utility.yul\":3625:3626   */\n      dup1\n        /* \"#utility.yul\":3618:3630   */\n      revert\n        /* \"#utility.yul\":3580:3632   */\n    tag_228:\n        /* \"#utility.yul\":3651:3680   */\n      tag_229\n        /* \"#utility.yul\":3670:3679   */\n      dup4\n        /* \"#utility.yul\":3651:3680   */\n      tag_196\n      jump\t// in\n    tag_229:\n        /* \"#utility.yul\":3641:3680   */\n      swap2\n      pop\n        /* \"#utility.yul\":3699:3737   */\n      tag_230\n        /* \"#utility.yul\":3733:3735   */\n      0x20\n        /* \"#utility.yul\":3722:3731   */\n      dup5\n        /* \"#utility.yul\":3718:3736   */\n      add\n        /* \"#utility.yul\":3699:3737   */\n      tag_196\n      jump\t// in\n    tag_230:\n        /* \"#utility.yul\":3689:3737   */\n      swap1\n      pop\n        /* \"#utility.yul\":3483:3743   */\n      swap3\n      pop\n      swap3\n      swap1\n      pop\n      jump\t// out\n        /* \"#utility.yul\":3748:4128   */\n    tag_91:\n        /* \"#utility.yul\":3827:3828   */\n      0x01\n        /* \"#utility.yul\":3823:3835   */\n      dup2\n      dup2\n      shr\n      swap1\n        /* \"#utility.yul\":3870:3882   */\n      dup3\n      and\n      dup1\n        /* \"#utility.yul\":3891:3952   */\n      tag_232\n      jumpi\n        /* \"#utility.yul\":3945:3949   */\n      0x7f\n        /* \"#utility.yul\":3937:3943   */\n      dup3\n        /* \"#utility.yul\":3933:3950   */\n      and\n        /* \"#utility.yul\":3923:3950   */\n      swap2\n      pop\n        /* \"#utility.yul\":3891:3952   */\n    tag_232:\n        /* \"#utility.yul\":3998:4000   */\n      0x20\n        /* \"#utility.yul\":3990:3996   */\n      dup3\n        /* \"#utility.yul\":3987:4001   */\n      lt\n        /* \"#utility.yul\":3967:3985   */\n      dup2\n        /* \"#utility.yul\":3964:4002   */\n      sub\n        /* \"#utility.yul\":3961:4122   */\n      tag_233\n      jumpi\n        /* \"#utility.yul\":4044:4054   */\n      0x4e487b71\n        /* \"#utility.yul\":4039:4042   */\n      0xe0\n        /* \"#utility.yul\":4035:4055   */\n      shl\n        /* \"#utility.yul\":4032:4033   */\n      0x00\n        /* \"#utility.yul\":4025:4056   */\n      mstore\n        /* \"#utility.yul\":4079:4083   */\n      0x22\n        /* \"#utility.yul\":4076:4077   */\n      0x04\n        /* \"#utility.yul\":4069:4084   */\n      mstore\n        /* \"#utility.yul\":4107:4111   */\n      0x24\n        /* \"#utility.yul\":4104:4105   */\n      0x00\n        /* \"#utility.yul\":4097:4112   */\n      revert\n        /* \"#utility.yul\":3961:4122   */\n    tag_233:\n      pop\n        /* \"#utility.yul\":3748:4128   */\n      swap2\n      swap1\n      pop\n      jump\t// out\n        /* \"#utility.yul\":4604:5693   */\n    tag_115:\n        /* \"#utility.yul\":4734:4737   */\n      0x00\n        /* \"#utility.yul\":4763:4764   */\n      dup1\n        /* \"#utility.yul\":4796:4802   */\n      dup4\n        /* \"#utility.yul\":4790:4803   */\n      sload\n        /* \"#utility.yul\":4826:4829   */\n      dup2\n        /* \"#utility.yul\":4855:4864   */\n      dup2\n        /* \"#utility.yul\":4852:4853   */\n      0x01\n        /* \"#utility.yul\":4848:4865   */\n      shr\n        /* \"#utility.yul\":4838:4865   */\n      swap1\n      pop\n        /* \"#utility.yul\":4915:4916   */\n      0x01\n        /* \"#utility.yul\":4904:4913   */\n      dup3\n        /* \"#utility.yul\":4900:4917   */\n      and\n        /* \"#utility.yul\":4936:4954   */\n      dup1\n        /* \"#utility.yul\":4926:4987   */\n      tag_237\n      jumpi\n        /* \"#utility.yul\":4980:4984   */\n      0x7f\n        /* \"#utility.yul\":4972:4978   */\n      dup3\n        /* \"#utility.yul\":4968:4985   */\n      and\n        /* \"#utility.yul\":4958:4985   */\n      swap2\n      pop\n        /* \"#utility.yul\":4926:4987   */\n    tag_237:\n        /* \"#utility.yul\":5033:5035   */\n      0x20\n        /* \"#utility.yul\":5025:5031   */\n      dup3\n        /* \"#utility.yul\":5022:5036   */\n      lt\n        /* \"#utility.yul\":5002:5020   */\n      dup2\n        /* \"#utility.yul\":4999:5037   */\n      sub\n        /* \"#utility.yul\":4996:5161   */\n      tag_238\n      jumpi\n      shl(0xe0, 0x4e487b71)\n        /* \"#utility.yul\":5060:5093   */\n      dup5\n      mstore\n        /* \"#utility.yul\":5116:5120   */\n      0x22\n        /* \"#utility.yul\":5113:5114   */\n      0x04\n        /* \"#utility.yul\":5106:5121   */\n      mstore\n        /* \"#utility.yul\":5146:5150   */\n      0x24\n        /* \"#utility.yul\":5067:5070   */\n      dup5\n        /* \"#utility.yul\":5134:5151   */\n      revert\n        /* \"#utility.yul\":4996:5161   */\n    tag_238:\n        /* \"#utility.yul\":5177:5195   */\n      dup1\n        /* \"#utility.yul\":5204:5337   */\n      dup1\n      iszero\n      tag_240\n      jumpi\n        /* \"#utility.yul\":5351:5352   */\n      0x01\n        /* \"#utility.yul\":5346:5668   */\n      dup2\n      eq\n      tag_241\n      jumpi\n        /* \"#utility.yul\":5170:5668   */\n      jump(tag_239)\n        /* \"#utility.yul\":5204:5337   */\n    tag_240:\n      not(0xff)\n        /* \"#utility.yul\":5237:5261   */\n      dup5\n      and\n        /* \"#utility.yul\":5225:5262   */\n      dup8\n      mstore\n        /* \"#utility.yul\":5310:5324   */\n      dup3\n      iszero\n        /* \"#utility.yul\":5303:5325   */\n      iszero\n        /* \"#utility.yul\":5291:5326   */\n      dup4\n      mul\n        /* \"#utility.yul\":5282:5327   */\n      dup8\n      add\n      swap5\n      pop\n        /* \"#utility.yul\":5204:5337   */\n      jump(tag_239)\n        /* \"#utility.yul\":5346:5668   */\n    tag_241:\n        /* \"#utility.yul\":4551:4552   */\n      0x00\n        /* \"#utility.yul\":4544:4558   */\n      dup9\n      dup2\n      mstore\n        /* \"#utility.yul\":4588:4592   */\n      0x20\n        /* \"#utility.yul\":4575:4593   */\n      swap1\n      keccak256\n        /* \"#utility.yul\":5444:5445   */\n      0x00\n        /* \"#utility.yul\":5458:5622   */\n    tag_243:\n        /* \"#utility.yul\":5472:5478   */\n      dup5\n        /* \"#utility.yul\":5469:5470   */\n      dup2\n        /* \"#utility.yul\":5466:5479   */\n      lt\n        /* \"#utility.yul\":5458:5622   */\n      iszero\n      tag_245\n      jumpi\n        /* \"#utility.yul\":5550:5564   */\n      dup2\n      sload\n        /* \"#utility.yul\":5537:5548   */\n      dup10\n      dup3\n      add\n        /* \"#utility.yul\":5530:5565   */\n      mstore\n        /* \"#utility.yul\":5606:5607   */\n      0x01\n        /* \"#utility.yul\":5593:5608   */\n      swap1\n      swap2\n      add\n      swap1\n        /* \"#utility.yul\":5494:5496   */\n      0x20\n        /* \"#utility.yul\":5487:5497   */\n      add\n        /* \"#utility.yul\":5458:5622   */\n      jump(tag_243)\n    tag_245:\n        /* \"#utility.yul\":5462:5465   */\n      pop\n      pop\n        /* \"#utility.yul\":5651:5657   */\n      dup3\n        /* \"#utility.yul\":5646:5649   */\n      dup8\n        /* \"#utility.yul\":5642:5658   */\n      add\n        /* \"#utility.yul\":5635:5658   */\n      swap5\n      pop\n        /* \"#utility.yul\":5170:5668   */\n    tag_239:\n      pop\n        /* \"#utility.yul\":5684:5687   */\n      swap3\n      swap7\n        /* \"#utility.yul\":4604:5693   */\n      swap6\n      pop\n      pop\n      pop\n      pop\n      pop\n      pop\n      jump\t// out\n        /* \"#utility.yul\":6192:6319   */\n    tag_198:\n        /* \"#utility.yul\":6253:6263   */\n      0x4e487b71\n        /* \"#utility.yul\":6248:6251   */\n      0xe0\n        /* \"#utility.yul\":6244:6264   */\n      shl\n        /* \"#utility.yul\":6241:6242   */\n      0x00\n        /* \"#utility.yul\":6234:6265   */\n      mstore\n        /* \"#utility.yul\":6284:6288   */\n      0x11\n        /* \"#utility.yul\":6281:6282   */\n      0x04\n        /* \"#utility.yul\":6274:6289   */\n      mstore\n        /* \"#utility.yul\":6308:6312   */\n      0x24\n        /* \"#utility.yul\":6305:6306   */\n      0x00\n        /* \"#utility.yul\":6298:6313   */\n      revert\n        /* \"#utility.yul\":6324:6449   */\n    tag_123:\n        /* \"#utility.yul\":6389:6398   */\n      dup1\n      dup3\n      add\n        /* \"#utility.yul\":6410:6420   */\n      dup1\n      dup3\n      gt\n        /* \"#utility.yul\":6407:6443   */\n      iszero\n      tag_96\n      jumpi\n        /* \"#utility.yul\":6423:6441   */\n      tag_96\n      tag_198\n      jump\t// in\n        /* \"#utility.yul\":7137:7272   */\n    tag_151:\n        /* \"#utility.yul\":7176:7179   */\n      0x00\n        /* \"#utility.yul\":7197:7214   */\n      0x01\n      dup3\n      add\n        /* \"#utility.yul\":7194:7237   */\n      tag_255\n      jumpi\n        /* \"#utility.yul\":7217:7235   */\n      tag_255\n      tag_198\n      jump\t// in\n    tag_255:\n      pop\n        /* \"#utility.yul\":7264:7265   */\n      0x01\n        /* \"#utility.yul\":7253:7266   */\n      add\n      swap1\n        /* \"#utility.yul\":7137:7272   */\n      jump\t// out\n\n    auxdata: 0xa26469706673582212205728268b6c6edb3af33000dbb3348ea83e4a44b49837d462c9b65bc3a785d8dd64736f6c634300081a0033\n}\n",
				"bytecode": {
					"linkReferences": {},
					"object": "60c060405234801561001057600080fd5b5060405161125338038061125383398101604081905261002f91610268565b604051806040016040528060098152602001682830b73537a1b7b4b760b91b81525060405180604001604052806004815260200163504e4a4360e01b8152508181816003908161007f9190610337565b50600461008c8282610337565b50504660a0818152845160208087019190912060408051808201825260018152603160f81b9084015280517f1a83649f11a3e56d58ed3274189f99ab6137d641dfdfdeb45dd06a89f72c4e52938101939093528201527fc89efdaa54c0f20c7adf612882df0950f5a951637e0307cdcb4c672f298b8bc660608201526080810192909252309082015260c001905060408051601f19818403018152919052805160209091012060805250506001600160a01b0381166101805760405162461bcd60e51b815260206004820152600b60248201526a16915493d7d5d05313115560aa1b60448201526064015b60405180910390fd5b610197816c0c9f2c9cd04674edea4000000061019d565b5061041c565b6001600160a01b0382166101df5760405162461bcd60e51b81526020600482015260096024820152684d494e545f5a45524f60b81b6044820152606401610177565b80600260008282546101f191906103f5565b90915550506001600160a01b0382166000908152602081905260408120805483929061021e9084906103f5565b90915550506040518181526001600160a01b038316906000907fddf252ad1be2c89b69c2b068fc378daa952ba7f163c4a11628f55a4df523b3ef9060200160405180910390a35050565b60006020828403121561027a57600080fd5b81516001600160a01b038116811461029157600080fd5b9392505050565b634e487b7160e01b600052604160045260246000fd5b600181811c908216806102c257607f821691505b6020821081036102e257634e487b7160e01b600052602260045260246000fd5b50919050565b601f82111561033257806000526020600020601f840160051c8101602085101561030f5750805b601f840160051c820191505b8181101561032f576000815560010161031b565b50505b505050565b81516001600160401b0381111561035057610350610298565b6103648161035e84546102ae565b846102e8565b6020601f82116001811461039857600083156103805750848201515b600019600385901b1c1916600184901b17845561032f565b600084815260208120601f198516915b828110156103c857878501518255602094850194600190920191016103a8565b50848210156103e65786840151600019600387901b60f8161c191681555b50505050600190811b01905550565b8082018082111561041657634e487b7160e01b600052601160045260246000fd5b92915050565b60805160a051610e1261044160003960006103ba0152600061048f0152610e126000f3fe608060405234801561001057600080fd5b50600436106101005760003560e01c806342966c6811610097578063a457c2d711610066578063a457c2d71461020f578063a9059cbb14610222578063d505accf14610235578063dd62ed3e1461024857600080fd5b806342966c68146101a957806370a08231146101be5780637ecebe00146101e757806395d89b411461020757600080fd5b8063313ce567116100d3578063313ce5671461016b57806332cb6b0c1461017a5780633644e5151461018e578063395093511461019657600080fd5b806306fdde0314610105578063095ea7b31461012357806318160ddd1461014657806323b872dd14610158575b600080fd5b61010d610281565b60405161011a9190610b0f565b60405180910390f35b610136610131366004610b79565b610313565b604051901515815260200161011a565b6002545b60405190815260200161011a565b610136610166366004610ba3565b61032a565b6040516012815260200161011a565b61014a6c0c9f2c9cd04674edea4000000081565b61014a6103b6565b6101366101a4366004610b79565b6104b1565b6101bc6101b7366004610be0565b6104fa565b005b61014a6101cc366004610bf9565b6001600160a01b031660009081526020819052604090205490565b61014a6101f5366004610bf9565b60056020526000908152604090205481565b61010d61053c565b61013661021d366004610b79565b61054b565b610136610230366004610b79565b6105c5565b6101bc610243366004610c1b565b6105d2565b61014a610256366004610c8e565b6001600160a01b03918216600090815260016020908152604080832093909416825291909152205490565b60606003805461029090610cc1565b80601f01602080910402602001604051908101604052809291908181526020018280546102bc90610cc1565b80156103095780601f106102de57610100808354040283529160200191610309565b820191906000526020600020905b8154815290600101906020018083116102ec57829003601f168201915b5050505050905090565b60006103203384846107cb565b5060015b92915050565b6001600160a01b0383166000908152600160209081526040808320338452909152812054828110156103935760405162461bcd60e51b815260206004820152600d60248201526c414c4c4f57414e43455f4c4f5760981b60448201526064015b60405180910390fd5b6103a085338584036107cb565b6103ab8585856108b5565b506001949350505050565b60007f0000000000000000000000000000000000000000000000000000000000000000461461048c577f1a83649f11a3e56d58ed3274189f99ab6137d641dfdfdeb45dd06a89f72c4e52600360405161040f9190610cfb565b60408051918290038220828201825260018352603160f81b6020938401528151928301939093528101919091527fc89efdaa54c0f20c7adf612882df0950f5a951637e0307cdcb4c672f298b8bc660608201524660808201523060a082015260c00160405160208183030381529060405280519060200120905090565b507f000000000000000000000000000000000000000000000000000000000000000090565b3360008181526001602090815260408083206001600160a01b03871684529091528120549091906104f090829086906104eb908790610db0565b6107cb565b5060019392505050565b6105043382610a1f565b60405181815233907fcc16f5dbb4873280815c1ee09dbd06736cffcc184412cf7a71a0fdb75d397ca59060200160405180910390a250565b60606004805461029090610cc1565b3360008181526001602090815260408083206001600160a01b0387168452909152812054909190838110156105b85760405162461bcd60e51b8152602060048201526013602482015272414c4c4f57414e43455f554e444552464c4f5760681b604482015260640161038a565b6103ab82868684036107cb565b60006103203384846108b5565b8342111561060c5760405162461bcd60e51b81526020600482015260076024820152661156141254915160ca1b604482015260640161038a565b6001600160a01b03871660009081526005602052604081208054908261063183610dc3565b90915550604080517f6e71edae12b1b97f4d1f60370fef10105fa2faae0126114a169c64845d6126c96020808301919091526001600160a01b038c8116838501528b166060830152608082018a905260a0820184905260c08083018a90528351808403909101815260e0909201909252805191012090915060006106b36103b6565b60405161190160f01b602082015260228101919091526042810183905260620160408051601f198184030181528282528051602091820120600080855291840180845281905260ff8a169284019290925260608301889052608083018790529092509060019060a0016020604051602081039080840390855afa15801561073e573d6000803e3d6000fd5b5050506020604051035190508a6001600160a01b0316816001600160a01b031614801561077357506001600160a01b03811615155b6107b35760405162461bcd60e51b8152602060048201526011602482015270494e56414c49445f5349474e415455524560781b604482015260640161038a565b6107be8b8b8b6107cb565b5050505050505050505050565b6001600160a01b03831661080e5760405162461bcd60e51b815260206004820152600a6024820152694f574e45525f5a45524f60b01b604482015260640161038a565b6001600160a01b0382166108535760405162461bcd60e51b815260206004820152600c60248201526b5350454e4445525f5a45524f60a01b604482015260640161038a565b6001600160a01b0383811660008181526001602090815260408083209487168084529482529182902085905590518481527f8c5be1e5ebec7d5bd14f71427d1e84f3dd0314c0f7b2291e5b200ac8c7c3b92591015b60405180910390a3505050565b6001600160a01b0383166108f75760405162461bcd60e51b815260206004820152600960248201526846524f4d5f5a45524f60b81b604482015260640161038a565b6001600160a01b0382166109375760405162461bcd60e51b8152602060048201526007602482015266544f5f5a45524f60c81b604482015260640161038a565b6001600160a01b0383166000908152602081905260409020548181101561098e5760405162461bcd60e51b815260206004820152600b60248201526a42414c414e43455f4c4f5760a81b604482015260640161038a565b6001600160a01b038085166000908152602081905260408082208585039055918516815290812080548492906109c5908490610db0565b92505081905550826001600160a01b0316846001600160a01b03167fddf252ad1be2c89b69c2b068fc378daa952ba7f163c4a11628f55a4df523b3ef84604051610a1191815260200190565b60405180910390a350505050565b6001600160a01b038216610a615760405162461bcd60e51b81526020600482015260096024820152684255524e5f5a45524f60b81b604482015260640161038a565b6001600160a01b03821660009081526020819052604090205481811015610ab95760405162461bcd60e51b815260206004820152600c60248201526b4255524e5f4558434545445360a01b604482015260640161038a565b6001600160a01b0383166000818152602081815260408083208686039055600280548790039055518581529192917fddf252ad1be2c89b69c2b068fc378daa952ba7f163c4a11628f55a4df523b3ef91016108a8565b602081526000825180602084015260005b81811015610b3d5760208186018101516040868401015201610b20565b506000604082850101526040601f19601f83011684010191505092915050565b80356001600160a01b0381168114610b7457600080fd5b919050565b60008060408385031215610b8c57600080fd5b610b9583610b5d565b946020939093013593505050565b600080600060608486031215610bb857600080fd5b610bc184610b5d565b9250610bcf60208501610b5d565b929592945050506040919091013590565b600060208284031215610bf257600080fd5b5035919050565b600060208284031215610c0b57600080fd5b610c1482610b5d565b9392505050565b600080600080600080600060e0888a031215610c3657600080fd5b610c3f88610b5d565b9650610c4d60208901610b5d565b95506040880135945060608801359350608088013560ff81168114610c7157600080fd5b9699959850939692959460a0840135945060c09093013592915050565b60008060408385031215610ca157600080fd5b610caa83610b5d565b9150610cb860208401610b5d565b90509250929050565b600181811c90821680610cd557607f821691505b602082108103610cf557634e487b7160e01b600052602260045260246000fd5b50919050565b6000808354818160011c90506001821680610d1757607f821691505b602082108103610d3557634e487b7160e01b84526022600452602484fd5b808015610d495760018114610d5e57610d8e565b60ff1984168752821515830287019450610d8e565b60008881526020902060005b84811015610d8657815489820152600190910190602001610d6a565b505082870194505b50929695505050505050565b634e487b7160e01b600052601160045260246000fd5b8082018082111561032457610324610d9a565b600060018201610dd557610dd5610d9a565b506001019056fea26469706673582212205728268b6c6edb3af33000dbb3348ea83e4a44b49837d462c9b65bc3a785d8dd64736f6c634300081a0033",
					"opcodes": "PUSH1 0xC0 PUSH1 0x40 MSTORE CALLVALUE DUP1 ISZERO PUSH2 0x10 JUMPI PUSH1 0x0 DUP1 REVERT JUMPDEST POP PUSH1 0x40 MLOAD PUSH2 0x1253 CODESIZE SUB DUP1 PUSH2 0x1253 DUP4 CODECOPY DUP2 ADD PUSH1 0x40 DUP2 SWAP1 MSTORE PUSH2 0x2F SWAP2 PUSH2 0x268 JUMP JUMPDEST PUSH1 0x40 MLOAD DUP1 PUSH1 0x40 ADD PUSH1 0x40 MSTORE DUP1 PUSH1 0x9 DUP2 MSTORE PUSH1 0x20 ADD PUSH9 0x2830B73537A1B7B4B7 PUSH1 0xB9 SHL DUP2 MSTORE POP PUSH1 0x40 MLOAD DUP1 PUSH1 0x40 ADD PUSH1 0x40 MSTORE DUP1 PUSH1 0x4 DUP2 MSTORE PUSH1 0x20 ADD PUSH4 0x504E4A43 PUSH1 0xE0 SHL DUP2 MSTORE POP DUP2 DUP2 DUP2 PUSH1 0x3 SWAP1 DUP2 PUSH2 0x7F SWAP2 SWAP1 PUSH2 0x337 JUMP JUMPDEST POP PUSH1 0x4 PUSH2 0x8C DUP3 DUP3 PUSH2 0x337 JUMP JUMPDEST POP POP CHAINID PUSH1 0xA0 DUP2 DUP2 MSTORE DUP5 MLOAD PUSH1 0x20 DUP1 DUP8 ADD SWAP2 SWAP1 SWAP2 KECCAK256 PUSH1 0x40 DUP1 MLOAD DUP1 DUP3 ADD DUP3 MSTORE PUSH1 0x1 DUP2 MSTORE PUSH1 0x31 PUSH1 0xF8 SHL SWAP1 DUP5 ADD MSTORE DUP1 MLOAD PUSH32 0x1A83649F11A3E56D58ED3274189F99AB6137D641DFDFDEB45DD06A89F72C4E52 SWAP4 DUP2 ADD SWAP4 SWAP1 SWAP4 MSTORE DUP3 ADD MSTORE PUSH32 0xC89EFDAA54C0F20C7ADF612882DF0950F5A951637E0307CDCB4C672F298B8BC6 PUSH1 0x60 DUP3 ADD MSTORE PUSH1 0x80 DUP2 ADD SWAP3 SWAP1 SWAP3 MSTORE ADDRESS SWAP1 DUP3 ADD MSTORE PUSH1 0xC0 ADD SWAP1 POP PUSH1 0x40 DUP1 MLOAD PUSH1 0x1F NOT DUP2 DUP5 SUB ADD DUP2 MSTORE SWAP2 SWAP1 MSTORE DUP1 MLOAD PUSH1 0x20 SWAP1 SWAP2 ADD KECCAK256 PUSH1 0x80 MSTORE POP POP PUSH1 0x1 PUSH1 0x1 PUSH1 0xA0 SHL SUB DUP2 AND PUSH2 0x180 JUMPI PUSH1 0x40 MLOAD PUSH3 0x461BCD PUSH1 0xE5 SHL DUP2 MSTORE PUSH1 0x20 PUSH1 0x4 DUP3 ADD MSTORE PUSH1 0xB PUSH1 0x24 DUP3 ADD MSTORE PUSH11 0x16915493D7D5D053131155 PUSH1 0xAA SHL PUSH1 0x44 DUP3 ADD MSTORE PUSH1 0x64 ADD JUMPDEST PUSH1 0x40 MLOAD DUP1 SWAP2 SUB SWAP1 REVERT JUMPDEST PUSH2 0x197 DUP2 PUSH13 0xC9F2C9CD04674EDEA40000000 PUSH2 0x19D JUMP JUMPDEST POP PUSH2 0x41C JUMP JUMPDEST PUSH1 0x1 PUSH1 0x1 PUSH1 0xA0 SHL SUB DUP3 AND PUSH2 0x1DF JUMPI PUSH1 0x40 MLOAD PUSH3 0x461BCD PUSH1 0xE5 SHL DUP2 MSTORE PUSH1 0x20 PUSH1 0x4 DUP3 ADD MSTORE PUSH1 0x9 PUSH1 0x24 DUP3 ADD MSTORE PUSH9 0x4D494E545F5A45524F PUSH1 0xB8 SHL PUSH1 0x44 DUP3 ADD MSTORE PUSH1 0x64 ADD PUSH2 0x177 JUMP JUMPDEST DUP1 PUSH1 0x2 PUSH1 0x0 DUP3 DUP3 SLOAD PUSH2 0x1F1 SWAP2 SWAP1 PUSH2 0x3F5 JUMP JUMPDEST SWAP1 SWAP2 SSTORE POP POP PUSH1 0x1 PUSH1 0x1 PUSH1 0xA0 SHL SUB DUP3 AND PUSH1 0x0 SWAP1 DUP2 MSTORE PUSH1 0x20 DUP2 SWAP1 MSTORE PUSH1 0x40 DUP2 KECCAK256 DUP1 SLOAD DUP4 SWAP3 SWAP1 PUSH2 0x21E SWAP1 DUP5 SWAP1 PUSH2 0x3F5 JUMP JUMPDEST SWAP1 SWAP2 SSTORE POP POP PUSH1 0x40 MLOAD DUP2 DUP2 MSTORE PUSH1 0x1 PUSH1 0x1 PUSH1 0xA0 SHL SUB DUP4 AND SWAP1 PUSH1 0x0 SWAP1 PUSH32 0xDDF252AD1BE2C89B69C2B068FC378DAA952BA7F163C4A11628F55A4DF523B3EF SWAP1 PUSH1 0x20 ADD PUSH1 0x40 MLOAD DUP1 SWAP2 SUB SWAP1 LOG3 POP POP JUMP JUMPDEST PUSH1 0x0 PUSH1 0x20 DUP3 DUP5 SUB SLT ISZERO PUSH2 0x27A JUMPI PUSH1 0x0 DUP1 REVERT JUMPDEST DUP2 MLOAD PUSH1 0x1 PUSH1 0x1 PUSH1 0xA0 SHL SUB DUP2 AND DUP2 EQ PUSH2 0x291 JUMPI PUSH1 0x0 DUP1 REVERT JUMPDEST SWAP4 SWAP3 POP POP POP JUMP JUMPDEST PUSH4 0x4E487B71 PUSH1 0xE0 SHL PUSH1 0x0 MSTORE PUSH1 0x41 PUSH1 0x4 MSTORE PUSH1 0x24 PUSH1 0x0 REVERT JUMPDEST PUSH1 0x1 DUP2 DUP2 SHR SWAP1 DUP3 AND DUP1 PUSH2 0x2C2 JUMPI PUSH1 0x7F DUP3 AND SWAP2 POP JUMPDEST PUSH1 0x20 DUP3 LT DUP2 SUB PUSH2 0x2E2 JUMPI PUSH4 0x4E487B71 PUSH1 0xE0 SHL PUSH1 0x0 MSTORE PUSH1 0x22 PUSH1 0x4 MSTORE PUSH1 0x24 PUSH1 0x0 REVERT JUMPDEST POP SWAP2 SWAP1 POP JUMP JUMPDEST PUSH1 0x1F DUP3 GT ISZERO PUSH2 0x332 JUMPI DUP1 PUSH1 0x0 MSTORE PUSH1 0x20 PUSH1 0x0 KECCAK256 PUSH1 0x1F DUP5 ADD PUSH1 0x5 SHR DUP2 ADD PUSH1 0x20 DUP6 LT ISZERO PUSH2 0x30F JUMPI POP DUP1 JUMPDEST PUSH1 0x1F DUP5 ADD PUSH1 0x5 SHR DUP3 ADD SWAP2 POP JUMPDEST DUP2 DUP2 LT ISZERO PUSH2 0x32F JUMPI PUSH1 0x0 DUP2 SSTORE PUSH1 0x1 ADD PUSH2 0x31B JUMP JUMPDEST POP POP JUMPDEST POP POP POP JUMP JUMPDEST DUP2 MLOAD PUSH1 0x1 PUSH1 0x1 PUSH1 0x40 SHL SUB DUP2 GT ISZERO PUSH2 0x350 JUMPI PUSH2 0x350 PUSH2 0x298 JUMP JUMPDEST PUSH2 0x364 DUP2 PUSH2 0x35E DUP5 SLOAD PUSH2 0x2AE JUMP JUMPDEST DUP5 PUSH2 0x2E8 JUMP JUMPDEST PUSH1 0x20 PUSH1 0x1F DUP3 GT PUSH1 0x1 DUP2 EQ PUSH2 0x398 JUMPI PUSH1 0x0 DUP4 ISZERO PUSH2 0x380 JUMPI POP DUP5 DUP3 ADD MLOAD JUMPDEST PUSH1 0x0 NOT PUSH1 0x3 DUP6 SWAP1 SHL SHR NOT AND PUSH1 0x1 DUP5 SWAP1 SHL OR DUP5 SSTORE PUSH2 0x32F JUMP JUMPDEST PUSH1 0x0 DUP5 DUP2 MSTORE PUSH1 0x20 DUP2 KECCAK256 PUSH1 0x1F NOT DUP6 AND SWAP2 JUMPDEST DUP3 DUP2 LT ISZERO PUSH2 0x3C8 JUMPI DUP8 DUP6 ADD MLOAD DUP3 SSTORE PUSH1 0x20 SWAP5 DUP6 ADD SWAP5 PUSH1 0x1 SWAP1 SWAP3 ADD SWAP2 ADD PUSH2 0x3A8 JUMP JUMPDEST POP DUP5 DUP3 LT ISZERO PUSH2 0x3E6 JUMPI DUP7 DUP5 ADD MLOAD PUSH1 0x0 NOT PUSH1 0x3 DUP8 SWAP1 SHL PUSH1 0xF8 AND SHR NOT AND DUP2 SSTORE JUMPDEST POP POP POP POP PUSH1 0x1 SWAP1 DUP2 SHL ADD SWAP1 SSTORE POP JUMP JUMPDEST DUP1 DUP3 ADD DUP1 DUP3 GT ISZERO PUSH2 0x416 JUMPI PUSH4 0x4E487B71 PUSH1 0xE0 SHL PUSH1 0x0 MSTORE PUSH1 0x11 PUSH1 0x4 MSTORE PUSH1 0x24 PUSH1 0x0 REVERT JUMPDEST SWAP3 SWAP2 POP POP JUMP JUMPDEST PUSH1 0x80 MLOAD PUSH1 0xA0 MLOAD PUSH2 0xE12 PUSH2 0x441 PUSH1 0x0 CODECOPY PUSH1 0x0 PUSH2 0x3BA ADD MSTORE PUSH1 0x0 PUSH2 0x48F ADD MSTORE PUSH2 0xE12 PUSH1 0x0 RETURN INVALID PUSH1 0x80 PUSH1 0x40 MSTORE CALLVALUE DUP1 ISZERO PUSH2 0x10 JUMPI PUSH1 0x0 DUP1 REVERT JUMPDEST POP PUSH1 0x4 CALLDATASIZE LT PUSH2 0x100 JUMPI PUSH1 0x0 CALLDATALOAD PUSH1 0xE0 SHR DUP1 PUSH4 0x42966C68 GT PUSH2 0x97 JUMPI DUP1 PUSH4 0xA457C2D7 GT PUSH2 0x66 JUMPI DUP1 PUSH4 0xA457C2D7 EQ PUSH2 0x20F JUMPI DUP1 PUSH4 0xA9059CBB EQ PUSH2 0x222 JUMPI DUP1 PUSH4 0xD505ACCF EQ PUSH2 0x235 JUMPI DUP1 PUSH4 0xDD62ED3E EQ PUSH2 0x248 JUMPI PUSH1 0x0 DUP1 REVERT JUMPDEST DUP1 PUSH4 0x42966C68 EQ PUSH2 0x1A9 JUMPI DUP1 PUSH4 0x70A08231 EQ PUSH2 0x1BE JUMPI DUP1 PUSH4 0x7ECEBE00 EQ PUSH2 0x1E7 JUMPI DUP1 PUSH4 0x95D89B41 EQ PUSH2 0x207 JUMPI PUSH1 0x0 DUP1 REVERT JUMPDEST DUP1 PUSH4 0x313CE567 GT PUSH2 0xD3 JUMPI DUP1 PUSH4 0x313CE567 EQ PUSH2 0x16B JUMPI DUP1 PUSH4 0x32CB6B0C EQ PUSH2 0x17A JUMPI DUP1 PUSH4 0x3644E515 EQ PUSH2 0x18E JUMPI DUP1 PUSH4 0x39509351 EQ PUSH2 0x196 JUMPI PUSH1 0x0 DUP1 REVERT JUMPDEST DUP1 PUSH4 0x6FDDE03 EQ PUSH2 0x105 JUMPI DUP1 PUSH4 0x95EA7B3 EQ PUSH2 0x123 JUMPI DUP1 PUSH4 0x18160DDD EQ PUSH2 0x146 JUMPI DUP1 PUSH4 0x23B872DD EQ PUSH2 0x158 JUMPI JUMPDEST PUSH1 0x0 DUP1 REVERT JUMPDEST PUSH2 0x10D PUSH2 0x281 JUMP JUMPDEST PUSH1 0x40 MLOAD PUSH2 0x11A SWAP2 SWAP1 PUSH2 0xB0F JUMP JUMPDEST PUSH1 0x40 MLOAD DUP1 SWAP2 SUB SWAP1 RETURN JUMPDEST PUSH2 0x136 PUSH2 0x131 CALLDATASIZE PUSH1 0x4 PUSH2 0xB79 JUMP JUMPDEST PUSH2 0x313 JUMP JUMPDEST PUSH1 0x40 MLOAD SWAP1 ISZERO ISZERO DUP2 MSTORE PUSH1 0x20 ADD PUSH2 0x11A JUMP JUMPDEST PUSH1 0x2 SLOAD JUMPDEST PUSH1 0x40 MLOAD SWAP1 DUP2 MSTORE PUSH1 0x20 ADD PUSH2 0x11A JUMP JUMPDEST PUSH2 0x136 PUSH2 0x166 CALLDATASIZE PUSH1 0x4 PUSH2 0xBA3 JUMP JUMPDEST PUSH2 0x32A JUMP JUMPDEST PUSH1 0x40 MLOAD PUSH1 0x12 DUP2 MSTORE PUSH1 0x20 ADD PUSH2 0x11A JUMP JUMPDEST PUSH2 0x14A PUSH13 0xC9F2C9CD04674EDEA40000000 DUP2 JUMP JUMPDEST PUSH2 0x14A PUSH2 0x3B6 JUMP JUMPDEST PUSH2 0x136 PUSH2 0x1A4 CALLDATASIZE PUSH1 0x4 PUSH2 0xB79 JUMP JUMPDEST PUSH2 0x4B1 JUMP JUMPDEST PUSH2 0x1BC PUSH2 0x1B7 CALLDATASIZE PUSH1 0x4 PUSH2 0xBE0 JUMP JUMPDEST PUSH2 0x4FA JUMP JUMPDEST STOP JUMPDEST PUSH2 0x14A PUSH2 0x1CC CALLDATASIZE PUSH1 0x4 PUSH2 0xBF9 JUMP JUMPDEST PUSH1 0x1 PUSH1 0x1 PUSH1 0xA0 SHL SUB AND PUSH1 0x0 SWAP1 DUP2 MSTORE PUSH1 0x20 DUP2 SWAP1 MSTORE PUSH1 0x40 SWAP1 KECCAK256 SLOAD SWAP1 JUMP JUMPDEST PUSH2 0x14A PUSH2 0x1F5 CALLDATASIZE PUSH1 0x4 PUSH2 0xBF9 JUMP JUMPDEST PUSH1 0x5 PUSH1 0x20 MSTORE PUSH1 0x0 SWAP1 DUP2 MSTORE PUSH1 0x40 SWAP1 KECCAK256 SLOAD DUP2 JUMP JUMPDEST PUSH2 0x10D PUSH2 0x53C JUMP JUMPDEST PUSH2 0x136 PUSH2 0x21D CALLDATASIZE PUSH1 0x4 PUSH2 0xB79 JUMP JUMPDEST PUSH2 0x54B JUMP JUMPDEST PUSH2 0x136 PUSH2 0x230 CALLDATASIZE PUSH1 0x4 PUSH2 0xB79 JUMP JUMPDEST PUSH2 0x5C5 JUMP JUMPDEST PUSH2 0x1BC PUSH2 0x243 CALLDATASIZE PUSH1 0x4 PUSH2 0xC1B JUMP JUMPDEST PUSH2 0x5D2 JUMP JUMPDEST PUSH2 0x14A PUSH2 0x256 CALLDATASIZE PUSH1 0x4 PUSH2 0xC8E JUMP JUMPDEST PUSH1 0x1 PUSH1 0x1 PUSH1 0xA0 SHL SUB SWAP2 DUP3 AND PUSH1 0x0 SWAP1 DUP2 MSTORE PUSH1 0x1 PUSH1 0x20 SWAP1 DUP2 MSTORE PUSH1 0x40 DUP1 DUP4 KECCAK256 SWAP4 SWAP1 SWAP5 AND DUP3 MSTORE SWAP2 SWAP1 SWAP2 MSTORE KECCAK256 SLOAD SWAP1 JUMP JUMPDEST PUSH1 0x60 PUSH1 0x3 DUP1 SLOAD PUSH2 0x290 SWAP1 PUSH2 0xCC1 JUMP JUMPDEST DUP1 PUSH1 0x1F ADD PUSH1 0x20 DUP1 SWAP2 DIV MUL PUSH1 0x20 ADD PUSH1 0x40 MLOAD SWAP1 DUP2 ADD PUSH1 0x40 MSTORE DUP1 SWAP3 SWAP2 SWAP1 DUP2 DUP2 MSTORE PUSH1 0x20 ADD DUP3 DUP1 SLOAD PUSH2 0x2BC SWAP1 PUSH2 0xCC1 JUMP JUMPDEST DUP1 ISZERO PUSH2 0x309 JUMPI DUP1 PUSH1 0x1F LT PUSH2 0x2DE JUMPI PUSH2 0x100 DUP1 DUP4 SLOAD DIV MUL DUP4 MSTORE SWAP2 PUSH1 0x20 ADD SWAP2 PUSH2 0x309 JUMP JUMPDEST DUP3 ADD SWAP2 SWAP1 PUSH1 0x0 MSTORE PUSH1 0x20 PUSH1 0x0 KECCAK256 SWAP1 JUMPDEST DUP2 SLOAD DUP2 MSTORE SWAP1 PUSH1 0x1 ADD SWAP1 PUSH1 0x20 ADD DUP1 DUP4 GT PUSH2 0x2EC JUMPI DUP3 SWAP1 SUB PUSH1 0x1F AND DUP3 ADD SWAP2 JUMPDEST POP POP POP POP POP SWAP1 POP SWAP1 JUMP JUMPDEST PUSH1 0x0 PUSH2 0x320 CALLER DUP5 DUP5 PUSH2 0x7CB JUMP JUMPDEST POP PUSH1 0x1 JUMPDEST SWAP3 SWAP2 POP POP JUMP JUMPDEST PUSH1 0x1 PUSH1 0x1 PUSH1 0xA0 SHL SUB DUP4 AND PUSH1 0x0 SWAP1 DUP2 MSTORE PUSH1 0x1 PUSH1 0x20 SWAP1 DUP2 MSTORE PUSH1 0x40 DUP1 DUP4 KECCAK256 CALLER DUP5 MSTORE SWAP1 SWAP2 MSTORE DUP2 KECCAK256 SLOAD DUP3 DUP2 LT ISZERO PUSH2 0x393 JUMPI PUSH1 0x40 MLOAD PUSH3 0x461BCD PUSH1 0xE5 SHL DUP2 MSTORE PUSH1 0x20 PUSH1 0x4 DUP3 ADD MSTORE PUSH1 0xD PUSH1 0x24 DUP3 ADD MSTORE PUSH13 0x414C4C4F57414E43455F4C4F57 PUSH1 0x98 SHL PUSH1 0x44 DUP3 ADD MSTORE PUSH1 0x64 ADD JUMPDEST PUSH1 0x40 MLOAD DUP1 SWAP2 SUB SWAP1 REVERT JUMPDEST PUSH2 0x3A0 DUP6 CALLER DUP6 DUP5 SUB PUSH2 0x7CB JUMP JUMPDEST PUSH2 0x3AB DUP6 DUP6 DUP6 PUSH2 0x8B5 JUMP JUMPDEST POP PUSH1 0x1 SWAP5 SWAP4 POP POP POP POP JUMP JUMPDEST PUSH1 0x0 PUSH32 0x0 CHAINID EQ PUSH2 0x48C JUMPI PUSH32 0x1A83649F11A3E56D58ED3274189F99AB6137D641DFDFDEB45DD06A89F72C4E52 PUSH1 0x3 PUSH1 0x40 MLOAD PUSH2 0x40F SWAP2 SWAP1 PUSH2 0xCFB JUMP JUMPDEST PUSH1 0x40 DUP1 MLOAD SWAP2 DUP3 SWAP1 SUB DUP3 KECCAK256 DUP3 DUP3 ADD DUP3 MSTORE PUSH1 0x1 DUP4 MSTORE PUSH1 0x31 PUSH1 0xF8 SHL PUSH1 0x20 SWAP4 DUP5 ADD MSTORE DUP2 MLOAD SWAP3 DUP4 ADD SWAP4 SWAP1 SWAP4 MSTORE DUP2 ADD SWAP2 SWAP1 SWAP2 MSTORE PUSH32 0xC89EFDAA54C0F20C7ADF612882DF0950F5A951637E0307CDCB4C672F298B8BC6 PUSH1 0x60 DUP3 ADD MSTORE CHAINID PUSH1 0x80 DUP3 ADD MSTORE ADDRESS PUSH1 0xA0 DUP3 ADD MSTORE PUSH1 0xC0 ADD PUSH1 0x40 MLOAD PUSH1 0x20 DUP2 DUP4 SUB SUB DUP2 MSTORE SWAP1 PUSH1 0x40 MSTORE DUP1 MLOAD SWAP1 PUSH1 0x20 ADD KECCAK256 SWAP1 POP SWAP1 JUMP JUMPDEST POP PUSH32 0x0 SWAP1 JUMP JUMPDEST CALLER PUSH1 0x0 DUP2 DUP2 MSTORE PUSH1 0x1 PUSH1 0x20 SWAP1 DUP2 MSTORE PUSH1 0x40 DUP1 DUP4 KECCAK256 PUSH1 0x1 PUSH1 0x1 PUSH1 0xA0 SHL SUB DUP8 AND DUP5 MSTORE SWAP1 SWAP2 MSTORE DUP2 KECCAK256 SLOAD SWAP1 SWAP2 SWAP1 PUSH2 0x4F0 SWAP1 DUP3 SWAP1 DUP7 SWAP1 PUSH2 0x4EB SWAP1 DUP8 SWAP1 PUSH2 0xDB0 JUMP JUMPDEST PUSH2 0x7CB JUMP JUMPDEST POP PUSH1 0x1 SWAP4 SWAP3 POP POP POP JUMP JUMPDEST PUSH2 0x504 CALLER DUP3 PUSH2 0xA1F JUMP JUMPDEST PUSH1 0x40 MLOAD DUP2 DUP2 MSTORE CALLER SWAP1 PUSH32 0xCC16F5DBB4873280815C1EE09DBD06736CFFCC184412CF7A71A0FDB75D397CA5 SWAP1 PUSH1 0x20 ADD PUSH1 0x40 MLOAD DUP1 SWAP2 SUB SWAP1 LOG2 POP JUMP JUMPDEST PUSH1 0x60 PUSH1 0x4 DUP1 SLOAD PUSH2 0x290 SWAP1 PUSH2 0xCC1 JUMP JUMPDEST CALLER PUSH1 0x0 DUP2 DUP2 MSTORE PUSH1 0x1 PUSH1 0x20 SWAP1 DUP2 MSTORE PUSH1 0x40 DUP1 DUP4 KECCAK256 PUSH1 0x1 PUSH1 0x1 PUSH1 0xA0 SHL SUB DUP8 AND DUP5 MSTORE SWAP1 SWAP2 MSTORE DUP2 KECCAK256 SLOAD SWAP1 SWAP2 SWAP1 DUP4 DUP2 LT ISZERO PUSH2 0x5B8 JUMPI PUSH1 0x40 MLOAD PUSH3 0x461BCD PUSH1 0xE5 SHL DUP2 MSTORE PUSH1 0x20 PUSH1 0x4 DUP3 ADD MSTORE PUSH1 0x13 PUSH1 0x24 DUP3 ADD MSTORE PUSH19 0x414C4C4F57414E43455F554E444552464C4F57 PUSH1 0x68 SHL PUSH1 0x44 DUP3 ADD MSTORE PUSH1 0x64 ADD PUSH2 0x38A JUMP JUMPDEST PUSH2 0x3AB DUP3 DUP7 DUP7 DUP5 SUB PUSH2 0x7CB JUMP JUMPDEST PUSH1 0x0 PUSH2 0x320 CALLER DUP5 DUP5 PUSH2 0x8B5 JUMP JUMPDEST DUP4 TIMESTAMP GT ISZERO PUSH2 0x60C JUMPI PUSH1 0x40 MLOAD PUSH3 0x461BCD PUSH1 0xE5 SHL DUP2 MSTORE PUSH1 0x20 PUSH1 0x4 DUP3 ADD MSTORE PUSH1 0x7 PUSH1 0x24 DUP3 ADD MSTORE PUSH7 0x11561412549151 PUSH1 0xCA SHL PUSH1 0x44 DUP3 ADD MSTORE PUSH1 0x64 ADD PUSH2 0x38A JUMP JUMPDEST PUSH1 0x1 PUSH1 0x1 PUSH1 0xA0 SHL SUB DUP8 AND PUSH1 0x0 SWAP1 DUP2 MSTORE PUSH1 0x5 PUSH1 0x20 MSTORE PUSH1 0x40 DUP2 KECCAK256 DUP1 SLOAD SWAP1 DUP3 PUSH2 0x631 DUP4 PUSH2 0xDC3 JUMP JUMPDEST SWAP1 SWAP2 SSTORE POP PUSH1 0x40 DUP1 MLOAD PUSH32 0x6E71EDAE12B1B97F4D1F60370FEF10105FA2FAAE0126114A169C64845D6126C9 PUSH1 0x20 DUP1 DUP4 ADD SWAP2 SWAP1 SWAP2 MSTORE PUSH1 0x1 PUSH1 0x1 PUSH1 0xA0 SHL SUB DUP13 DUP2 AND DUP4 DUP6 ADD MSTORE DUP12 AND PUSH1 0x60 DUP4 ADD MSTORE PUSH1 0x80 DUP3 ADD DUP11 SWAP1 MSTORE PUSH1 0xA0 DUP3 ADD DUP5 SWAP1 MSTORE PUSH1 0xC0 DUP1 DUP4 ADD DUP11 SWAP1 MSTORE DUP4 MLOAD DUP1 DUP5 SUB SWAP1 SWAP2 ADD DUP2 MSTORE PUSH1 0xE0 SWAP1 SWAP3 ADD SWAP1 SWAP3 MSTORE DUP1 MLOAD SWAP2 ADD KECCAK256 SWAP1 SWAP2 POP PUSH1 0x0 PUSH2 0x6B3 PUSH2 0x3B6 JUMP JUMPDEST PUSH1 0x40 MLOAD PUSH2 0x1901 PUSH1 0xF0 SHL PUSH1 0x20 DUP3 ADD MSTORE PUSH1 0x22 DUP2 ADD SWAP2 SWAP1 SWAP2 MSTORE PUSH1 0x42 DUP2 ADD DUP4 SWAP1 MSTORE PUSH1 0x62 ADD PUSH1 0x40 DUP1 MLOAD PUSH1 0x1F NOT DUP2 DUP5 SUB ADD DUP2 MSTORE DUP3 DUP3 MSTORE DUP1 MLOAD PUSH1 0x20 SWAP2 DUP3 ADD KECCAK256 PUSH1 0x0 DUP1 DUP6 MSTORE SWAP2 DUP5 ADD DUP1 DUP5 MSTORE DUP2 SWAP1 MSTORE PUSH1 0xFF DUP11 AND SWAP3 DUP5 ADD SWAP3 SWAP1 SWAP3 MSTORE PUSH1 0x60 DUP4 ADD DUP9 SWAP1 MSTORE PUSH1 0x80 DUP4 ADD DUP8 SWAP1 MSTORE SWAP1 SWAP3 POP SWAP1 PUSH1 0x1 SWAP1 PUSH1 0xA0 ADD PUSH1 0x20 PUSH1 0x40 MLOAD PUSH1 0x20 DUP2 SUB SWAP1 DUP1 DUP5 SUB SWAP1 DUP6 GAS STATICCALL ISZERO DUP1 ISZERO PUSH2 0x73E JUMPI RETURNDATASIZE PUSH1 0x0 DUP1 RETURNDATACOPY RETURNDATASIZE PUSH1 0x0 REVERT JUMPDEST POP POP POP PUSH1 0x20 PUSH1 0x40 MLOAD SUB MLOAD SWAP1 POP DUP11 PUSH1 0x1 PUSH1 0x1 PUSH1 0xA0 SHL SUB AND DUP2 PUSH1 0x1 PUSH1 0x1 PUSH1 0xA0 SHL SUB AND EQ DUP1 ISZERO PUSH2 0x773 JUMPI POP PUSH1 0x1 PUSH1 0x1 PUSH1 0xA0 SHL SUB DUP2 AND ISZERO ISZERO JUMPDEST PUSH2 0x7B3 JUMPI PUSH1 0x40 MLOAD PUSH3 0x461BCD PUSH1 0xE5 SHL DUP2 MSTORE PUSH1 0x20 PUSH1 0x4 DUP3 ADD MSTORE PUSH1 0x11 PUSH1 0x24 DUP3 ADD MSTORE PUSH17 0x494E56414C49445F5349474E4154555245 PUSH1 0x78 SHL PUSH1 0x44 DUP3 ADD MSTORE PUSH1 0x64 ADD PUSH2 0x38A JUMP JUMPDEST PUSH2 0x7BE DUP12 DUP12 DUP12 PUSH2 0x7CB JUMP JUMPDEST POP POP POP POP POP POP POP POP POP POP POP JUMP JUMPDEST PUSH1 0x1 PUSH1 0x1 PUSH1 0xA0 SHL SUB DUP4 AND PUSH2 0x80E JUMPI PUSH1 0x40 MLOAD PUSH3 0x461BCD PUSH1 0xE5 SHL DUP2 MSTORE PUSH1 0x20 PUSH1 0x4 DUP3 ADD MSTORE PUSH1 0xA PUSH1 0x24 DUP3 ADD MSTORE PUSH10 0x4F574E45525F5A45524F PUSH1 0xB0 SHL PUSH1 0x44 DUP3 ADD MSTORE PUSH1 0x64 ADD PUSH2 0x38A JUMP JUMPDEST PUSH1 0x1 PUSH1 0x1 PUSH1 0xA0 SHL SUB DUP3 AND PUSH2 0x853 JUMPI PUSH1 0x40 MLOAD PUSH3 0x461BCD PUSH1 0xE5 SHL DUP2 MSTORE PUSH1 0x20 PUSH1 0x4 DUP3 ADD MSTORE PUSH1 0xC PUSH1 0x24 DUP3 ADD MSTORE PUSH12 0x5350454E4445525F5A45524F PUSH1 0xA0 SHL PUSH1 0x44 DUP3 ADD MSTORE PUSH1 0x64 ADD PUSH2 0x38A JUMP JUMPDEST PUSH1 0x1 PUSH1 0x1 PUSH1 0xA0 SHL SUB DUP4 DUP2 AND PUSH1 0x0 DUP2 DUP2 MSTORE PUSH1 0x1 PUSH1 0x20 SWAP1 DUP2 MSTORE PUSH1 0x40 DUP1 DUP4 KECCAK256 SWAP5 DUP8 AND DUP1 DUP5 MSTORE SWAP5 DUP3 MSTORE SWAP2 DUP3 SWAP1 KECCAK256 DUP6 SWAP1 SSTORE SWAP1 MLOAD DUP5 DUP2 MSTORE PUSH32 0x8C5BE1E5EBEC7D5BD14F71427D1E84F3DD0314C0F7B2291E5B200AC8C7C3B925 SWAP2 ADD JUMPDEST PUSH1 0x40 MLOAD DUP1 SWAP2 SUB SWAP1 LOG3 POP POP POP JUMP JUMPDEST PUSH1 0x1 PUSH1 0x1 PUSH1 0xA0 SHL SUB DUP4 AND PUSH2 0x8F7 JUMPI PUSH1 0x40 MLOAD PUSH3 0x461BCD PUSH1 0xE5 SHL DUP2 MSTORE PUSH1 0x20 PUSH1 0x4 DUP3 ADD MSTORE PUSH1 0x9 PUSH1 0x24 DUP3 ADD MSTORE PUSH9 0x46524F4D5F5A45524F PUSH1 0xB8 SHL PUSH1 0x44 DUP3 ADD MSTORE PUSH1 0x64 ADD PUSH2 0x38A JUMP JUMPDEST PUSH1 0x1 PUSH1 0x1 PUSH1 0xA0 SHL SUB DUP3 AND PUSH2 0x937 JUMPI PUSH1 0x40 MLOAD PUSH3 0x461BCD PUSH1 0xE5 SHL DUP2 MSTORE PUSH1 0x20 PUSH1 0x4 DUP3 ADD MSTORE PUSH1 0x7 PUSH1 0x24 DUP3 ADD MSTORE PUSH7 0x544F5F5A45524F PUSH1 0xC8 SHL PUSH1 0x44 DUP3 ADD MSTORE PUSH1 0x64 ADD PUSH2 0x38A JUMP JUMPDEST PUSH1 0x1 PUSH1 0x1 PUSH1 0xA0 SHL SUB DUP4 AND PUSH1 0x0 SWAP1 DUP2 MSTORE PUSH1 0x20 DUP2 SWAP1 MSTORE PUSH1 0x40 SWAP1 KECCAK256 SLOAD DUP2 DUP2 LT ISZERO PUSH2 0x98E JUMPI PUSH1 0x40 MLOAD PUSH3 0x461BCD PUSH1 0xE5 SHL DUP2 MSTORE PUSH1 0x20 PUSH1 0x4 DUP3 ADD MSTORE PUSH1 0xB PUSH1 0x24 DUP3 ADD MSTORE PUSH11 0x42414C414E43455F4C4F57 PUSH1 0xA8 SHL PUSH1 0x44 DUP3 ADD MSTORE PUSH1 0x64 ADD PUSH2 0x38A JUMP JUMPDEST PUSH1 0x1 PUSH1 0x1 PUSH1 0xA0 SHL SUB DUP1 DUP6 AND PUSH1 0x0 SWAP1 DUP2 MSTORE PUSH1 0x20 DUP2 SWAP1 MSTORE PUSH1 0x40 DUP1 DUP3 KECCAK256 DUP6 DUP6 SUB SWAP1 SSTORE SWAP2 DUP6 AND DUP2 MSTORE SWAP1 DUP2 KECCAK256 DUP1 SLOAD DUP5 SWAP3 SWAP1 PUSH2 0x9C5 SWAP1 DUP5 SWAP1 PUSH2 0xDB0 JUMP JUMPDEST SWAP3 POP POP DUP2 SWAP1 SSTORE POP DUP3 PUSH1 0x1 PUSH1 0x1 PUSH1 0xA0 SHL SUB AND DUP5 PUSH1 0x1 PUSH1 0x1 PUSH1 0xA0 SHL SUB AND PUSH32 0xDDF252AD1BE2C89B69C2B068FC378DAA952BA7F163C4A11628F55A4DF523B3EF DUP5 PUSH1 0x40 MLOAD PUSH2 0xA11 SWAP2 DUP2 MSTORE PUSH1 0x20 ADD SWAP1 JUMP JUMPDEST PUSH1 0x40 MLOAD DUP1 SWAP2 SUB SWAP1 LOG3 POP POP POP POP JUMP JUMPDEST PUSH1 0x1 PUSH1 0x1 PUSH1 0xA0 SHL SUB DUP3 AND PUSH2 0xA61 JUMPI PUSH1 0x40 MLOAD PUSH3 0x461BCD PUSH1 0xE5 SHL DUP2 MSTORE PUSH1 0x20 PUSH1 0x4 DUP3 ADD MSTORE PUSH1 0x9 PUSH1 0x24 DUP3 ADD MSTORE PUSH9 0x4255524E5F5A45524F PUSH1 0xB8 SHL PUSH1 0x44 DUP3 ADD MSTORE PUSH1 0x64 ADD PUSH2 0x38A JUMP JUMPDEST PUSH1 0x1 PUSH1 0x1 PUSH1 0xA0 SHL SUB DUP3 AND PUSH1 0x0 SWAP1 DUP2 MSTORE PUSH1 0x20 DUP2 SWAP1 MSTORE PUSH1 0x40 SWAP1 KECCAK256 SLOAD DUP2 DUP2 LT ISZERO PUSH2 0xAB9 JUMPI PUSH1 0x40 MLOAD PUSH3 0x461BCD PUSH1 0xE5 SHL DUP2 MSTORE PUSH1 0x20 PUSH1 0x4 DUP3 ADD MSTORE PUSH1 0xC PUSH1 0x24 DUP3 ADD MSTORE PUSH12 0x4255524E5F45584345454453 PUSH1 0xA0 SHL PUSH1 0x44 DUP3 ADD MSTORE PUSH1 0x64 ADD PUSH2 0x38A JUMP JUMPDEST PUSH1 0x1 PUSH1 0x1 PUSH1 0xA0 SHL SUB DUP4 AND PUSH1 0x0 DUP2 DUP2 MSTORE PUSH1 0x20 DUP2 DUP2 MSTORE PUSH1 0x40 DUP1 DUP4 KECCAK256 DUP7 DUP7 SUB SWAP1 SSTORE PUSH1 0x2 DUP1 SLOAD DUP8 SWAP1 SUB SWAP1 SSTORE MLOAD DUP6 DUP2 MSTORE SWAP2 SWAP3 SWAP2 PUSH32 0xDDF252AD1BE2C89B69C2B068FC378DAA952BA7F163C4A11628F55A4DF523B3EF SWAP2 ADD PUSH2 0x8A8 JUMP JUMPDEST PUSH1 0x20 DUP2 MSTORE PUSH1 0x0 DUP3 MLOAD DUP1 PUSH1 0x20 DUP5 ADD MSTORE PUSH1 0x0 JUMPDEST DUP2 DUP2 LT ISZERO PUSH2 0xB3D JUMPI PUSH1 0x20 DUP2 DUP7 ADD DUP2 ADD MLOAD PUSH1 0x40 DUP7 DUP5 ADD ADD MSTORE ADD PUSH2 0xB20 JUMP JUMPDEST POP PUSH1 0x0 PUSH1 0x40 DUP3 DUP6 ADD ADD MSTORE PUSH1 0x40 PUSH1 0x1F NOT PUSH1 0x1F DUP4 ADD AND DUP5 ADD ADD SWAP2 POP POP SWAP3 SWAP2 POP POP JUMP JUMPDEST DUP1 CALLDATALOAD PUSH1 0x1 PUSH1 0x1 PUSH1 0xA0 SHL SUB DUP2 AND DUP2 EQ PUSH2 0xB74 JUMPI PUSH1 0x0 DUP1 REVERT JUMPDEST SWAP2 SWAP1 POP JUMP JUMPDEST PUSH1 0x0 DUP1 PUSH1 0x40 DUP4 DUP6 SUB SLT ISZERO PUSH2 0xB8C JUMPI PUSH1 0x0 DUP1 REVERT JUMPDEST PUSH2 0xB95 DUP4 PUSH2 0xB5D JUMP JUMPDEST SWAP5 PUSH1 0x20 SWAP4 SWAP1 SWAP4 ADD CALLDATALOAD SWAP4 POP POP POP JUMP JUMPDEST PUSH1 0x0 DUP1 PUSH1 0x0 PUSH1 0x60 DUP5 DUP7 SUB SLT ISZERO PUSH2 0xBB8 JUMPI PUSH1 0x0 DUP1 REVERT JUMPDEST PUSH2 0xBC1 DUP5 PUSH2 0xB5D JUMP JUMPDEST SWAP3 POP PUSH2 0xBCF PUSH1 0x20 DUP6 ADD PUSH2 0xB5D JUMP JUMPDEST SWAP3 SWAP6 SWAP3 SWAP5 POP POP POP PUSH1 0x40 SWAP2 SWAP1 SWAP2 ADD CALLDATALOAD SWAP1 JUMP JUMPDEST PUSH1 0x0 PUSH1 0x20 DUP3 DUP5 SUB SLT ISZERO PUSH2 0xBF2 JUMPI PUSH1 0x0 DUP1 REVERT JUMPDEST POP CALLDATALOAD SWAP2 SWAP1 POP JUMP JUMPDEST PUSH1 0x0 PUSH1 0x20 DUP3 DUP5 SUB SLT ISZERO PUSH2 0xC0B JUMPI PUSH1 0x0 DUP1 REVERT JUMPDEST PUSH2 0xC14 DUP3 PUSH2 0xB5D JUMP JUMPDEST SWAP4 SWAP3 POP POP POP JUMP JUMPDEST PUSH1 0x0 DUP1 PUSH1 0x0 DUP1 PUSH1 0x0 DUP1 PUSH1 0x0 PUSH1 0xE0 DUP9 DUP11 SUB SLT ISZERO PUSH2 0xC36 JUMPI PUSH1 0x0 DUP1 REVERT JUMPDEST PUSH2 0xC3F DUP9 PUSH2 0xB5D JUMP JUMPDEST SWAP7 POP PUSH2 0xC4D PUSH1 0x20 DUP10 ADD PUSH2 0xB5D JUMP JUMPDEST SWAP6 POP PUSH1 0x40 DUP9 ADD CALLDATALOAD SWAP5 POP PUSH1 0x60 DUP9 ADD CALLDATALOAD SWAP4 POP PUSH1 0x80 DUP9 ADD CALLDATALOAD PUSH1 0xFF DUP2 AND DUP2 EQ PUSH2 0xC71 JUMPI PUSH1 0x0 DUP1 REVERT JUMPDEST SWAP7 SWAP10 SWAP6 SWAP9 POP SWAP4 SWAP7 SWAP3 SWAP6 SWAP5 PUSH1 0xA0 DUP5 ADD CALLDATALOAD SWAP5 POP PUSH1 0xC0 SWAP1 SWAP4 ADD CALLDATALOAD SWAP3 SWAP2 POP POP JUMP JUMPDEST PUSH1 0x0 DUP1 PUSH1 0x40 DUP4 DUP6 SUB SLT ISZERO PUSH2 0xCA1 JUMPI PUSH1 0x0 DUP1 REVERT JUMPDEST PUSH2 0xCAA DUP4 PUSH2 0xB5D JUMP JUMPDEST SWAP2 POP PUSH2 0xCB8 PUSH1 0x20 DUP5 ADD PUSH2 0xB5D JUMP JUMPDEST SWAP1 POP SWAP3 POP SWAP3 SWAP1 POP JUMP JUMPDEST PUSH1 0x1 DUP2 DUP2 SHR SWAP1 DUP3 AND DUP1 PUSH2 0xCD5 JUMPI PUSH1 0x7F DUP3 AND SWAP2 POP JUMPDEST PUSH1 0x20 DUP3 LT DUP2 SUB PUSH2 0xCF5 JUMPI PUSH4 0x4E487B71 PUSH1 0xE0 SHL PUSH1 0x0 MSTORE PUSH1 0x22 PUSH1 0x4 MSTORE PUSH1 0x24 PUSH1 0x0 REVERT JUMPDEST POP SWAP2 SWAP1 POP JUMP JUMPDEST PUSH1 0x0 DUP1 DUP4 SLOAD DUP2 DUP2 PUSH1 0x1 SHR SWAP1 POP PUSH1 0x1 DUP3 AND DUP1 PUSH2 0xD17 JUMPI PUSH1 0x7F DUP3 AND SWAP2 POP JUMPDEST PUSH1 0x20 DUP3 LT DUP2 SUB PUSH2 0xD35 JUMPI PUSH4 0x4E487B71 PUSH1 0xE0 SHL DUP5 MSTORE PUSH1 0x22 PUSH1 0x4 MSTORE PUSH1 0x24 DUP5 REVERT JUMPDEST DUP1 DUP1 ISZERO PUSH2 0xD49 JUMPI PUSH1 0x1 DUP2 EQ PUSH2 0xD5E JUMPI PUSH2 0xD8E JUMP JUMPDEST PUSH1 0xFF NOT DUP5 AND DUP8 MSTORE DUP3 ISZERO ISZERO DUP4 MUL DUP8 ADD SWAP5 POP PUSH2 0xD8E JUMP JUMPDEST PUSH1 0x0 DUP9 DUP2 MSTORE PUSH1 0x20 SWAP1 KECCAK256 PUSH1 0x0 JUMPDEST DUP5 DUP2 LT ISZERO PUSH2 0xD86 JUMPI DUP2 SLOAD DUP10 DUP3 ADD MSTORE PUSH1 0x1 SWAP1 SWAP2 ADD SWAP1 PUSH1 0x20 ADD PUSH2 0xD6A JUMP JUMPDEST POP POP DUP3 DUP8 ADD SWAP5 POP JUMPDEST POP SWAP3 SWAP7 SWAP6 POP POP POP POP POP POP JUMP JUMPDEST PUSH4 0x4E487B71 PUSH1 0xE0 SHL PUSH1 0x0 MSTORE PUSH1 0x11 PUSH1 0x4 MSTORE PUSH1 0x24 PUSH1 0x0 REVERT JUMPDEST DUP1 DUP3 ADD DUP1 DUP3 GT ISZERO PUSH2 0x324 JUMPI PUSH2 0x324 PUSH2 0xD9A JUMP JUMPDEST PUSH1 0x0 PUSH1 0x1 DUP3 ADD PUSH2 0xDD5 JUMPI PUSH2 0xDD5 PUSH2 0xD9A JUMP JUMPDEST POP PUSH1 0x1 ADD SWAP1 JUMP INVALID LOG2 PUSH5 0x6970667358 0x22 SLT KECCAK256 JUMPI 0x28 0x26 DUP12 PUSH13 0x6EDB3AF33000DBB3348EA83E4A PREVRANDAO 0xB4 SWAP9 CALLDATACOPY 0xD4 PUSH3 0xC9B65B 0xC3 0xA7 DUP6 0xD8 0xDD PUSH5 0x736F6C6343 STOP ADDMOD BYTE STOP CALLER "
				},
				"gasEstimates": {
					"creation": {
						"codeDepositCost": "720400",
						"executionCost": "infinite",
						"totalCost": "infinite"
					},
					"external": {
						"DOMAIN_SEPARATOR()": "infinite",
						"MAX_SUPPLY()": "240",
						"allowance(address,address)": "infinite",
						"approve(address,uint256)": "24644",
						"balanceOf(address)": "2585",
						"burn(uint256)": "52214",
						"decimals()": "200",
						"decreaseAllowance(address,uint256)": "26923",
						"increaseAllowance(address,uint256)": "27040",
						"name()": "infinite",
						"nonces(address)": "2586",
						"permit(address,address,uint256,uint256,uint8,bytes32,bytes32)": "infinite",
						"symbol()": "infinite",
						"totalSupply()": "2349",
						"transfer(address,uint256)": "infinite",
						"transferFrom(address,address,uint256)": "infinite"
					}
				},
				"methodIdentifiers": {
					"DOMAIN_SEPARATOR()": "3644e515",
					"MAX_SUPPLY()": "32cb6b0c",
					"allowance(address,address)": "dd62ed3e",
					"approve(address,uint256)": "095ea7b3",
					"balanceOf(address)": "70a08231",
					"burn(uint256)": "42966c68",
					"decimals()": "313ce567",
					"decreaseAllowance(address,uint256)": "a457c2d7",
					"increaseAllowance(address,uint256)": "39509351",
					"name()": "06fdde03",
					"nonces(address)": "7ecebe00",
					"permit(address,address,uint256,uint256,uint8,bytes32,bytes32)": "d505accf",
					"symbol()": "95d89b41",
					"totalSupply()": "18160ddd",
					"transfer(address,uint256)": "a9059cbb",
					"transferFrom(address,address,uint256)": "23b872dd"
				}
			},
			"storageLayout": {
				"storage": [
					{
						"astId": 17,
						"contract": "Smart-Contract/PanjoCoin.sol:PanjoCoin",
						"label": "_balances",
						"offset": 0,
						"slot": "0",
						"type": "t_mapping(t_address,t_uint256)"
					},
					{
						"astId": 23,
						"contract": "Smart-Contract/PanjoCoin.sol:PanjoCoin",
						"label": "_allowances",
						"offset": 0,
						"slot": "1",
						"type": "t_mapping(t_address,t_mapping(t_address,t_uint256))"
					},
					{
						"astId": 25,
						"contract": "Smart-Contract/PanjoCoin.sol:PanjoCoin",
						"label": "_totalSupply",
						"offset": 0,
						"slot": "2",
						"type": "t_uint256"
					},
					{
						"astId": 27,
						"contract": "Smart-Contract/PanjoCoin.sol:PanjoCoin",
						"label": "_name",
						"offset": 0,
						"slot": "3",
						"type": "t_string_storage"
					},
					{
						"astId": 29,
						"contract": "Smart-Contract/PanjoCoin.sol:PanjoCoin",
						"label": "_symbol",
						"offset": 0,
						"slot": "4",
						"type": "t_string_storage"
					},
					{
						"astId": 480,
						"contract": "Smart-Contract/PanjoCoin.sol:PanjoCoin",
						"label": "nonces",
						"offset": 0,
						"slot": "5",
						"type": "t_mapping(t_address,t_uint256)"
					}
				],
				"types": {
					"t_address": {
						"encoding": "inplace",
						"label": "address",
						"numberOfBytes": "20"
					},
					"t_mapping(t_address,t_mapping(t_address,t_uint256))": {
						"encoding": "mapping",
						"key": "t_address",
						"label": "mapping(address => mapping(address => uint256))",
						"numberOfBytes": "32",
						"value": "t_mapping(t_address,t_uint256)"
					},
					"t_mapping(t_address,t_uint256)": {
						"encoding": "mapping",
						"key": "t_address",
						"label": "mapping(address => uint256)",
						"numberOfBytes": "32",
						"value": "t_uint256"
					},
					"t_string_storage": {
						"encoding": "bytes",
						"label": "string",
						"numberOfBytes": "32"
					},
					"t_uint256": {
						"encoding": "inplace",
						"label": "uint256",
						"numberOfBytes": "32"
					}
				}
			},
			"userdoc": {
				"kind": "user",
				"methods": {},
				"version": 1
			}
		}
	}
}