{
	"Smart-Contracts/PNJC_Vesting+Cliff.sol": {
		"PanjoCoinVesting": {
			"abi": [
				{
					"inputs": [
						{
							"internalType": "address",
							"name": "_beneficiary",
							"type": "address"
						},
						{
							"internalType": "contract IERC20",
							"name": "_token",
							"type": "address"
						},
						{
							"internalType": "uint256",
							"name": "_totalAmount",
							"type": "uint256"
						},
						{
							"internalType": "uint256",
							"name": "_start",
							"type": "uint256"
						},
						{
							"internalType": "uint256",
							"name": "_cliffDuration",
							"type": "uint256"
						},
						{
							"internalType": "uint256",
							"name": "_vestingDuration",
							"type": "uint256"
						}
					],
					"stateMutability": "nonpayable",
					"type": "constructor"
				},
				{
					"inputs": [
						{
							"internalType": "address",
							"name": "owner",
							"type": "address"
						}
					],
					"name": "OwnableInvalidOwner",
					"type": "error"
				},
				{
					"inputs": [
						{
							"internalType": "address",
							"name": "account",
							"type": "address"
						}
					],
					"name": "OwnableUnauthorizedAccount",
					"type": "error"
				},
				{
					"inputs": [],
					"name": "ReentrancyGuardReentrantCall",
					"type": "error"
				},
				{
					"inputs": [
						{
							"internalType": "address",
							"name": "token",
							"type": "address"
						}
					],
					"name": "SafeERC20FailedOperation",
					"type": "error"
				},
				{
					"anonymous": false,
					"inputs": [
						{
							"indexed": true,
							"internalType": "address",
							"name": "token",
							"type": "address"
						},
						{
							"indexed": false,
							"internalType": "uint256",
							"name": "amount",
							"type": "uint256"
						}
					],
					"name": "EmergencyWithdrawn",
					"type": "event"
				},
				{
					"anonymous": false,
					"inputs": [
						{
							"indexed": true,
							"internalType": "address",
							"name": "previousOwner",
							"type": "address"
						},
						{
							"indexed": true,
							"internalType": "address",
							"name": "newOwner",
							"type": "address"
						}
					],
					"name": "OwnershipTransferred",
					"type": "event"
				},
				{
					"anonymous": false,
					"inputs": [
						{
							"indexed": true,
							"internalType": "address",
							"name": "beneficiary",
							"type": "address"
						},
						{
							"indexed": false,
							"internalType": "uint256",
							"name": "amount",
							"type": "uint256"
						}
					],
					"name": "TokensReleased",
					"type": "event"
				},
				{
					"inputs": [],
					"name": "beneficiary",
					"outputs": [
						{
							"internalType": "address",
							"name": "",
							"type": "address"
						}
					],
					"stateMutability": "view",
					"type": "function"
				},
				{
					"inputs": [],
					"name": "claim",
					"outputs": [],
					"stateMutability": "nonpayable",
					"type": "function"
				},
				{
					"inputs": [],
					"name": "cliff",
					"outputs": [
						{
							"internalType": "uint256",
							"name": "",
							"type": "uint256"
						}
					],
					"stateMutability": "view",
					"type": "function"
				},
				{
					"inputs": [
						{
							"internalType": "contract IERC20",
							"name": "_otherToken",
							"type": "address"
						}
					],
					"name": "emergencyWithdraw",
					"outputs": [],
					"stateMutability": "nonpayable",
					"type": "function"
				},
				{
					"inputs": [],
					"name": "getContractBalance",
					"outputs": [
						{
							"internalType": "uint256",
							"name": "",
							"type": "uint256"
						}
					],
					"stateMutability": "view",
					"type": "function"
				},
				{
					"inputs": [],
					"name": "getCurrentTime",
					"outputs": [
						{
							"internalType": "uint256",
							"name": "",
							"type": "uint256"
						}
					],
					"stateMutability": "view",
					"type": "function"
				},
				{
					"inputs": [],
					"name": "getLockedTokens",
					"outputs": [
						{
							"internalType": "uint256",
							"name": "",
							"type": "uint256"
						}
					],
					"stateMutability": "view",
					"type": "function"
				},
				{
					"inputs": [],
					"name": "owner",
					"outputs": [
						{
							"internalType": "address",
							"name": "",
							"type": "address"
						}
					],
					"stateMutability": "view",
					"type": "function"
				},
				{
					"inputs": [],
					"name": "releasable",
					"outputs": [
						{
							"internalType": "uint256",
							"name": "",
							"type": "uint256"
						}
					],
					"stateMutability": "view",
					"type": "function"
				},
				{
					"inputs": [],
					"name": "released",
					"outputs": [
						{
							"internalType": "uint256",
							"name": "",
							"type": "uint256"
						}
					],
					"stateMutability": "view",
					"type": "function"
				},
				{
					"inputs": [],
					"name": "renounceOwnership",
					"outputs": [],
					"stateMutability": "nonpayable",
					"type": "function"
				},
				{
					"inputs": [],
					"name": "start",
					"outputs": [
						{
							"internalType": "uint256",
							"name": "",
							"type": "uint256"
						}
					],
					"stateMutability": "view",
					"type": "function"
				},
				{
					"inputs": [],
					"name": "token",
					"outputs": [
						{
							"internalType": "contract IERC20",
							"name": "",
							"type": "address"
						}
					],
					"stateMutability": "view",
					"type": "function"
				},
				{
					"inputs": [],
					"name": "totalAmount",
					"outputs": [
						{
							"internalType": "uint256",
							"name": "",
							"type": "uint256"
						}
					],
					"stateMutability": "view",
					"type": "function"
				},
				{
					"inputs": [
						{
							"internalType": "address",
							"name": "newOwner",
							"type": "address"
						}
					],
					"name": "transferOwnership",
					"outputs": [],
					"stateMutability": "nonpayable",
					"type": "function"
				},
				{
					"inputs": [],
					"name": "vestedAmount",
					"outputs": [
						{
							"internalType": "uint256",
							"name": "",
							"type": "uint256"
						}
					],
					"stateMutability": "view",
					"type": "function"
				},
				{
					"inputs": [],
					"name": "vestingDuration",
					"outputs": [
						{
							"internalType": "uint256",
							"name": "",
							"type": "uint256"
						}
					],
					"stateMutability": "view",
					"type": "function"
				}
			],
			"devdoc": {
				"author": "PanjoCoin Team",
				"details": "Vesting contract for PanjoCoin (PNJC) tokens with cliff + linear release. Security highlights:      - All critical parameters are immutable (cannot be changed after deployment)      - ReentrancyGuard protects the claim function      - SafeERC20 prevents token transfer issues      - No backdoors or admin overrides for vested tokens Typical use cases in PanjoCoin:      - Team vesting: cliff 12 months, vesting 36 months      - Treasury vesting: cliff 3 months, vesting 24 months      - Founder vesting: cliff 12 months, vesting 36 months      - Marketing vesting: cliff 0 months, vesting 12 months",
				"errors": {
					"OwnableInvalidOwner(address)": [
						{
							"details": "The owner is not a valid owner account. (eg. `address(0)`)"
						}
					],
					"OwnableUnauthorizedAccount(address)": [
						{
							"details": "The caller account is not authorized to perform an operation."
						}
					],
					"ReentrancyGuardReentrantCall()": [
						{
							"details": "Unauthorized reentrant call."
						}
					],
					"SafeERC20FailedOperation(address)": [
						{
							"details": "An operation with an ERC-20 token failed."
						}
					]
				},
				"events": {
					"EmergencyWithdrawn(address,uint256)": {
						"params": {
							"amount": "Amount of tokens withdrawn",
							"token": "Address of the token that was withdrawn"
						}
					},
					"TokensReleased(address,uint256)": {
						"params": {
							"amount": "Amount of tokens claimed",
							"beneficiary": "Address that received the tokens"
						}
					}
				},
				"kind": "dev",
				"methods": {
					"claim()": {
						"details": "Claim all currently available tokensUses nonReentrant modifier to prevent reentrancy attacks Execution flow:      1. Verify caller is the beneficiary      2. Calculate claimable amount      3. Verify amount > 0      4. Update state (released += amount)      5. Transfer tokens to beneficiary      6. Emit event The checks-effects-interactions pattern is followed:      - State is updated before external call (safeTransfer)      - This prevents reentrancy even without the modifier"
					},
					"constructor": {
						"details": "Deploys the vesting contract and immediately locks the tokens Requirements:      - _beneficiary cannot be address(0)      - _token cannot be address(0)      - _totalAmount must be greater than 0      - _cliffDuration must be less than or equal to _vestingDuration      - The deployer must have approved this contract to spend _totalAmount tokens Example for Team Vesting (12 month cliff, 36 month vesting):      _beneficiary = teamMultisigAddress      _start = block.timestamp + 365 days      _cliffDuration = 365 days      _vestingDuration = 1095 days (3 years)",
						"params": {
							"_beneficiary": "The address that will receive the vested tokens",
							"_cliffDuration": "Duration of the cliff period in seconds",
							"_start": "Timestamp (UNIX seconds) when vesting begins",
							"_token": "The ERC20 token address (PanjoCoin contract address)",
							"_totalAmount": "Total amount of tokens to vest (with decimals, e.g., 1e18 for 1 token)",
							"_vestingDuration": "Total vesting duration in seconds "
						}
					},
					"emergencyWithdraw(address)": {
						"details": "Withdraw ANY OTHER token accidentally sent to this contractSecurity guarantee:      - The function explicitly checks that _otherToken is NOT the vesting token      - Even if the check fails, safeTransfer would fail because the contract owns no PNJC Requirements:      - Only the contract owner can call this function      - The token to withdraw cannot be the vesting token      - The contract must have a balance of the token to withdraw",
						"params": {
							"_otherToken": "The ERC20 token to withdraw "
						}
					},
					"getContractBalance()": {
						"details": "Returns the total balance of tokens held by this contract",
						"returns": {
							"_0": "uint256 Current token balance"
						}
					},
					"getCurrentTime()": {
						"details": "Returns the current block timestamp",
						"returns": {
							"_0": "uint256 Current timestamp in UNIX seconds"
						}
					},
					"getLockedTokens()": {
						"details": "Returns the amount of tokens still locked (not yet claimable)",
						"returns": {
							"_0": "uint256 Amount of locked tokens"
						}
					},
					"owner()": {
						"details": "Returns the address of the current owner."
					},
					"releasable()": {
						"details": "Calculates the amount of tokens currently available to claimReturns 0 if no tokens are available to claim",
						"returns": {
							"_0": "uint256 Amount that can be claimed now (vested - already claimed) "
						}
					},
					"renounceOwnership()": {
						"details": "Leaves the contract without owner. It will not be possible to call `onlyOwner` functions. Can only be called by the current owner. NOTE: Renouncing ownership will leave the contract without an owner, thereby disabling any functionality that is only available to the owner."
					},
					"transferOwnership(address)": {
						"details": "Transfers ownership of the contract to a new account (`newOwner`). Can only be called by the current owner."
					},
					"vestedAmount()": {
						"details": "Calculates the total amount of tokens that have vested so farMathematical formula:      if block.timestamp < cliff:                                    return 0      if block.timestamp >= start + vestingDuration:                 return totalAmount      else:                                                          return totalAmount * (block.timestamp - cliff) / vestingDuration The calculation uses integer math with multiplication before division      to maintain maximum precision. No floating point is used.",
						"returns": {
							"_0": "uint256 Amount vested (includes already claimed tokens) "
						}
					}
				},
				"stateVariables": {
					"beneficiary": {
						"details": "Must be a non-zero address, typically a multisig wallet"
					},
					"cliff": {
						"details": "cliff = start + cliffDuration"
					},
					"released": {
						"details": "Increases each time claim() is calledCannot exceed totalAmount"
					},
					"start": {
						"details": "If start > block.timestamp, cliff period is active"
					},
					"token": {
						"details": "This is the token that will be released over time"
					},
					"totalAmount": {
						"details": "This is the maximum that can ever be claimed"
					},
					"vestingDuration": {
						"details": "After start + vestingDuration, all tokens are vested"
					}
				},
				"title": "PanjoCoinVesting",
				"version": 1
			},
			"evm": {
				"assembly": "    /* \"Smart-Contracts/PNJC_Vesting+Cliff.sol\":2504:15476  contract PanjoCoinVesting is Ownable, ReentrancyGuard {... */\n  mstore(0x40, 0x0140)\n    /* \"Smart-Contracts/PNJC_Vesting+Cliff.sol\":6442:8619  constructor(... */\n  callvalue\n  dup1\n  iszero\n  tag_1\n  jumpi\n  0x00\n  dup1\n  revert\ntag_1:\n  pop\n  mload(0x40)\n  sub(codesize, bytecodeSize)\n  dup1\n  bytecodeSize\n  dup4\n  codecopy\n  dup2\n  add\n  0x40\n  dup2\n  swap1\n  mstore\n  tag_2\n  swap2\n  tag_3\n  jump\t// in\ntag_2:\n    /* \"Smart-Contracts/PNJC_Vesting+Cliff.sol\":6648:6658  msg.sender */\n  caller\n  dup1\n    /* \"@openzeppelin/contracts@5.6.0/access/Ownable.sol\":1269:1364  if (initialOwner == address(0)) {... */\n  tag_8\n  jumpi\n    /* \"@openzeppelin/contracts@5.6.0/access/Ownable.sol\":1322:1353  OwnableInvalidOwner(address(0)) */\n  mload(0x40)\n  shl(0xe0, 0x1e4fbdf7)\n  dup2\n  mstore\n    /* \"@openzeppelin/contracts@5.6.0/access/Ownable.sol\":1350:1351  0 */\n  0x00\n    /* \"@openzeppelin/contracts@5.6.0/access/Ownable.sol\":1322:1353  OwnableInvalidOwner(address(0)) */\n  0x04\n  dup3\n  add\n    /* \"#utility.yul\":947:998   */\n  mstore\n    /* \"#utility.yul\":920:938   */\n  0x24\n  add\n    /* \"@openzeppelin/contracts@5.6.0/access/Ownable.sol\":1322:1353  OwnableInvalidOwner(address(0)) */\ntag_9:\n  mload(0x40)\n  dup1\n  swap2\n  sub\n  swap1\n  revert\n    /* \"@openzeppelin/contracts@5.6.0/access/Ownable.sol\":1269:1364  if (initialOwner == address(0)) {... */\ntag_8:\n    /* \"@openzeppelin/contracts@5.6.0/access/Ownable.sol\":1373:1405  _transferOwnership(initialOwner) */\n  tag_11\n    /* \"@openzeppelin/contracts@5.6.0/access/Ownable.sol\":1392:1404  initialOwner */\n  dup2\n    /* \"@openzeppelin/contracts@5.6.0/access/Ownable.sol\":1373:1391  _transferOwnership */\n  tag_12\n    /* \"@openzeppelin/contracts@5.6.0/access/Ownable.sol\":1373:1405  _transferOwnership(initialOwner) */\n  jump\t// in\ntag_11:\n  pop\n    /* \"@openzeppelin/contracts@5.6.0/utils/ReentrancyGuard.sol\":2365:2366  1 */\n  0x01\n    /* \"@openzeppelin/contracts@5.6.0/utils/ReentrancyGuard.sol\":1505:1571  0x9b779b17422d0df92223018b32b4d1fa46e071723d6817e2486d003becc55f00 */\n  0x9b779b17422d0df92223018b32b4d1fa46e071723d6817e2486d003becc55f00\n    /* \"@openzeppelin/contracts@5.6.0/utils/ReentrancyGuard.sol\":2539:2605  _reentrancyGuardStorageSlot().getUint256Slot().value = NOT_ENTERED */\n  sstore\n  sub(shl(0xa0, 0x01), 0x01)\n    /* \"Smart-Contracts/PNJC_Vesting+Cliff.sol\":7029:7055  _beneficiary != address(0) */\n  dup7\n  and\n    /* \"Smart-Contracts/PNJC_Vesting+Cliff.sol\":7021:7112  require(_beneficiary != address(0), \"PanjoCoinVesting: beneficiary cannot be zero address\") */\n  tag_19\n  jumpi\n  mload(0x40)\n  shl(0xe5, 0x461bcd)\n  dup2\n  mstore\n    /* \"#utility.yul\":1211:1213   */\n  0x20\n    /* \"Smart-Contracts/PNJC_Vesting+Cliff.sol\":7021:7112  require(_beneficiary != address(0), \"PanjoCoinVesting: beneficiary cannot be zero address\") */\n  0x04\n  dup3\n  add\n    /* \"#utility.yul\":1193:1214   */\n  mstore\n    /* \"#utility.yul\":1250:1252   */\n  0x34\n    /* \"#utility.yul\":1230:1248   */\n  0x24\n  dup3\n  add\n    /* \"#utility.yul\":1223:1253   */\n  mstore\n    /* \"#utility.yul\":1289:1323   */\n  0x50616e6a6f436f696e56657374696e673a2062656e6566696369617279206361\n    /* \"#utility.yul\":1269:1287   */\n  0x44\n  dup3\n  add\n    /* \"#utility.yul\":1262:1324   */\n  mstore\n    /* \"#utility.yul\":1360:1382   */\n  0x6e6e6f74206265207a65726f2061646472657373000000000000000000000000\n    /* \"#utility.yul\":1340:1358   */\n  0x64\n  dup3\n  add\n    /* \"#utility.yul\":1333:1383   */\n  mstore\n    /* \"#utility.yul\":1400:1419   */\n  0x84\n  add\n    /* \"Smart-Contracts/PNJC_Vesting+Cliff.sol\":7021:7112  require(_beneficiary != address(0), \"PanjoCoinVesting: beneficiary cannot be zero address\") */\n  tag_9\n    /* \"#utility.yul\":1009:1425   */\n  jump\n    /* \"Smart-Contracts/PNJC_Vesting+Cliff.sol\":7021:7112  require(_beneficiary != address(0), \"PanjoCoinVesting: beneficiary cannot be zero address\") */\ntag_19:\n  sub(shl(0xa0, 0x01), 0x01)\n    /* \"Smart-Contracts/PNJC_Vesting+Cliff.sol\":7131:7160  address(_token) != address(0) */\n  dup6\n  and\n    /* \"Smart-Contracts/PNJC_Vesting+Cliff.sol\":7123:7211  require(address(_token) != address(0), \"PanjoCoinVesting: token cannot be zero address\") */\n  tag_22\n  jumpi\n  mload(0x40)\n  shl(0xe5, 0x461bcd)\n  dup2\n  mstore\n    /* \"#utility.yul\":1632:1634   */\n  0x20\n    /* \"Smart-Contracts/PNJC_Vesting+Cliff.sol\":7123:7211  require(address(_token) != address(0), \"PanjoCoinVesting: token cannot be zero address\") */\n  0x04\n  dup3\n  add\n    /* \"#utility.yul\":1614:1635   */\n  mstore\n    /* \"#utility.yul\":1671:1673   */\n  0x2e\n    /* \"#utility.yul\":1651:1669   */\n  0x24\n  dup3\n  add\n    /* \"#utility.yul\":1644:1674   */\n  mstore\n    /* \"#utility.yul\":1710:1744   */\n  0x50616e6a6f436f696e56657374696e673a20746f6b656e2063616e6e6f742062\n    /* \"#utility.yul\":1690:1708   */\n  0x44\n  dup3\n  add\n    /* \"#utility.yul\":1683:1745   */\n  mstore\n  shl(0x90, 0x65207a65726f2061646472657373)\n    /* \"#utility.yul\":1761:1779   */\n  0x64\n  dup3\n  add\n    /* \"#utility.yul\":1754:1798   */\n  mstore\n    /* \"#utility.yul\":1815:1834   */\n  0x84\n  add\n    /* \"Smart-Contracts/PNJC_Vesting+Cliff.sol\":7123:7211  require(address(_token) != address(0), \"PanjoCoinVesting: token cannot be zero address\") */\n  tag_9\n    /* \"#utility.yul\":1430:1840   */\n  jump\n    /* \"Smart-Contracts/PNJC_Vesting+Cliff.sol\":7123:7211  require(address(_token) != address(0), \"PanjoCoinVesting: token cannot be zero address\") */\ntag_22:\n    /* \"Smart-Contracts/PNJC_Vesting+Cliff.sol\":7245:7246  0 */\n  0x00\n    /* \"Smart-Contracts/PNJC_Vesting+Cliff.sol\":7230:7242  _totalAmount */\n  dup5\n    /* \"Smart-Contracts/PNJC_Vesting+Cliff.sol\":7230:7246  _totalAmount > 0 */\n  gt\n    /* \"Smart-Contracts/PNJC_Vesting+Cliff.sol\":7222:7304  require(_totalAmount > 0, \"PanjoCoinVesting: total amount must be greater than 0\") */\n  tag_25\n  jumpi\n  mload(0x40)\n  shl(0xe5, 0x461bcd)\n  dup2\n  mstore\n    /* \"#utility.yul\":2047:2049   */\n  0x20\n    /* \"Smart-Contracts/PNJC_Vesting+Cliff.sol\":7222:7304  require(_totalAmount > 0, \"PanjoCoinVesting: total amount must be greater than 0\") */\n  0x04\n  dup3\n  add\n    /* \"#utility.yul\":2029:2050   */\n  mstore\n    /* \"#utility.yul\":2086:2088   */\n  0x35\n    /* \"#utility.yul\":2066:2084   */\n  0x24\n  dup3\n  add\n    /* \"#utility.yul\":2059:2089   */\n  mstore\n    /* \"#utility.yul\":2125:2159   */\n  0x50616e6a6f436f696e56657374696e673a20746f74616c20616d6f756e74206d\n    /* \"#utility.yul\":2105:2123   */\n  0x44\n  dup3\n  add\n    /* \"#utility.yul\":2098:2160   */\n  mstore\n    /* \"#utility.yul\":2196:2219   */\n  0x7573742062652067726561746572207468616e20300000000000000000000000\n    /* \"#utility.yul\":2176:2194   */\n  0x64\n  dup3\n  add\n    /* \"#utility.yul\":2169:2220   */\n  mstore\n    /* \"#utility.yul\":2237:2256   */\n  0x84\n  add\n    /* \"Smart-Contracts/PNJC_Vesting+Cliff.sol\":7222:7304  require(_totalAmount > 0, \"PanjoCoinVesting: total amount must be greater than 0\") */\n  tag_9\n    /* \"#utility.yul\":1845:2262   */\n  jump\n    /* \"Smart-Contracts/PNJC_Vesting+Cliff.sol\":7222:7304  require(_totalAmount > 0, \"PanjoCoinVesting: total amount must be greater than 0\") */\ntag_25:\n    /* \"Smart-Contracts/PNJC_Vesting+Cliff.sol\":7341:7357  _vestingDuration */\n  dup1\n    /* \"Smart-Contracts/PNJC_Vesting+Cliff.sol\":7323:7337  _cliffDuration */\n  dup3\n    /* \"Smart-Contracts/PNJC_Vesting+Cliff.sol\":7323:7357  _cliffDuration <= _vestingDuration */\n  gt\n  iszero\n    /* \"Smart-Contracts/PNJC_Vesting+Cliff.sol\":7315:7425  require(_cliffDuration <= _vestingDuration, \"PanjoCoinVesting: cliff duration cannot exceed vesting duration\") */\n  tag_28\n  jumpi\n  mload(0x40)\n  shl(0xe5, 0x461bcd)\n  dup2\n  mstore\n    /* \"#utility.yul\":2469:2471   */\n  0x20\n    /* \"Smart-Contracts/PNJC_Vesting+Cliff.sol\":7315:7425  require(_cliffDuration <= _vestingDuration, \"PanjoCoinVesting: cliff duration cannot exceed vesting duration\") */\n  0x04\n  dup3\n  add\n    /* \"#utility.yul\":2451:2472   */\n  mstore\n    /* \"#utility.yul\":2508:2510   */\n  0x3f\n    /* \"#utility.yul\":2488:2506   */\n  0x24\n  dup3\n  add\n    /* \"#utility.yul\":2481:2511   */\n  mstore\n    /* \"#utility.yul\":2547:2581   */\n  0x50616e6a6f436f696e56657374696e673a20636c696666206475726174696f6e\n    /* \"#utility.yul\":2527:2545   */\n  0x44\n  dup3\n  add\n    /* \"#utility.yul\":2520:2582   */\n  mstore\n    /* \"#utility.yul\":2618:2651   */\n  0x2063616e6e6f74206578636565642076657374696e67206475726174696f6e00\n    /* \"#utility.yul\":2598:2616   */\n  0x64\n  dup3\n  add\n    /* \"#utility.yul\":2591:2652   */\n  mstore\n    /* \"#utility.yul\":2669:2688   */\n  0x84\n  add\n    /* \"Smart-Contracts/PNJC_Vesting+Cliff.sol\":7315:7425  require(_cliffDuration <= _vestingDuration, \"PanjoCoinVesting: cliff duration cannot exceed vesting duration\") */\n  tag_9\n    /* \"#utility.yul\":2267:2694   */\n  jump\n    /* \"Smart-Contracts/PNJC_Vesting+Cliff.sol\":7315:7425  require(_cliffDuration <= _vestingDuration, \"PanjoCoinVesting: cliff duration cannot exceed vesting duration\") */\ntag_28:\n    /* \"Smart-Contracts/PNJC_Vesting+Cliff.sol\":7714:7728  uint256 _cliff */\n  0x00\n    /* \"Smart-Contracts/PNJC_Vesting+Cliff.sol\":7731:7754  _start + _cliffDuration */\n  tag_31\n    /* \"Smart-Contracts/PNJC_Vesting+Cliff.sol\":7740:7754  _cliffDuration */\n  dup4\n    /* \"Smart-Contracts/PNJC_Vesting+Cliff.sol\":7731:7737  _start */\n  dup6\n    /* \"Smart-Contracts/PNJC_Vesting+Cliff.sol\":7731:7754  _start + _cliffDuration */\n  tag_32\n  jump\t// in\ntag_31:\n  sub(shl(0xa0, 0x01), 0x01)\n    /* \"Smart-Contracts/PNJC_Vesting+Cliff.sol\":7857:7883  beneficiary = _beneficiary */\n  dup1\n  dup10\n  and\n  0x80\n  mstore\n    /* \"Smart-Contracts/PNJC_Vesting+Cliff.sol\":7894:7908  token = _token */\n  dup8\n  and\n  0xa0\n  dup2\n  swap1\n  mstore\n    /* \"Smart-Contracts/PNJC_Vesting+Cliff.sol\":7919:7945  totalAmount = _totalAmount */\n  0x0120\n  dup8\n  swap1\n  mstore\n    /* \"Smart-Contracts/PNJC_Vesting+Cliff.sol\":7956:7970  start = _start */\n  0xc0\n  dup7\n  swap1\n  mstore\n    /* \"Smart-Contracts/PNJC_Vesting+Cliff.sol\":7981:7995  cliff = _cliff */\n  0xe0\n  dup3\n  swap1\n  mstore\n    /* \"Smart-Contracts/PNJC_Vesting+Cliff.sol\":8006:8040  vestingDuration = _vestingDuration */\n  0x0100\n  dup5\n  swap1\n  mstore\n    /* \"Smart-Contracts/PNJC_Vesting+Cliff.sol\":8119:8120  0 */\n  0x00\n    /* \"Smart-Contracts/PNJC_Vesting+Cliff.sol\":8108:8116  released */\n  0x01\n    /* \"Smart-Contracts/PNJC_Vesting+Cliff.sol\":8108:8120  released = 0 */\n  sstore\n    /* \"Smart-Contracts/PNJC_Vesting+Cliff.sol\":7714:7754  uint256 _cliff = _start + _cliffDuration */\n  swap1\n  swap2\n  pop\n    /* \"Smart-Contracts/PNJC_Vesting+Cliff.sol\":8547:8611  _token.safeTransferFrom(msg.sender, address(this), _totalAmount) */\n  tag_33\n  swap1\n    /* \"Smart-Contracts/PNJC_Vesting+Cliff.sol\":8571:8581  msg.sender */\n  caller\n    /* \"Smart-Contracts/PNJC_Vesting+Cliff.sol\":8591:8595  this */\n  address\n    /* \"Smart-Contracts/PNJC_Vesting+Cliff.sol\":7933:7945  _totalAmount */\n  dup9\n    /* \"Smart-Contracts/PNJC_Vesting+Cliff.sol\":8547:8570  _token.safeTransferFrom */\n  tag_34\n    /* \"Smart-Contracts/PNJC_Vesting+Cliff.sol\":8547:8611  _token.safeTransferFrom(msg.sender, address(this), _totalAmount) */\n  jump\t// in\ntag_33:\n    /* \"Smart-Contracts/PNJC_Vesting+Cliff.sol\":6660:8619  {... */\n  pop\n    /* \"Smart-Contracts/PNJC_Vesting+Cliff.sol\":6442:8619  constructor(... */\n  pop\n  pop\n  pop\n  pop\n  pop\n  pop\n    /* \"Smart-Contracts/PNJC_Vesting+Cliff.sol\":2504:15476  contract PanjoCoinVesting is Ownable, ReentrancyGuard {... */\n  jump(tag_48)\n    /* \"@openzeppelin/contracts@5.6.0/access/Ownable.sol\":2912:3099  function _transferOwnership(address newOwner) internal virtual {... */\ntag_12:\n    /* \"@openzeppelin/contracts@5.6.0/access/Ownable.sol\":2985:3001  address oldOwner */\n  0x00\n    /* \"@openzeppelin/contracts@5.6.0/access/Ownable.sol\":3004:3010  _owner */\n  dup1\n  sload\n  sub(shl(0xa0, 0x01), 0x01)\n    /* \"@openzeppelin/contracts@5.6.0/access/Ownable.sol\":3020:3037  _owner = newOwner */\n  dup4\n  dup2\n  and\n  not(sub(shl(0xa0, 0x01), 0x01))\n  dup4\n  and\n  dup2\n  or\n  dup5\n  sstore\n    /* \"@openzeppelin/contracts@5.6.0/access/Ownable.sol\":3052:3092  OwnershipTransferred(oldOwner, newOwner) */\n  mload(0x40)\n    /* \"@openzeppelin/contracts@5.6.0/access/Ownable.sol\":3004:3010  _owner */\n  swap2\n  swap1\n  swap3\n  and\n  swap3\n  dup4\n  swap2\n    /* \"@openzeppelin/contracts@5.6.0/access/Ownable.sol\":3052:3092  OwnershipTransferred(oldOwner, newOwner) */\n  0x8be0079c531659141344cd1fd0a4f28419497f9722a3daafe3b4186f6b6457e0\n  swap2\n    /* \"@openzeppelin/contracts@5.6.0/access/Ownable.sol\":2985:3001  address oldOwner */\n  swap1\n    /* \"@openzeppelin/contracts@5.6.0/access/Ownable.sol\":3052:3092  OwnershipTransferred(oldOwner, newOwner) */\n  log3\n    /* \"@openzeppelin/contracts@5.6.0/access/Ownable.sol\":2975:3099  {... */\n  pop\n    /* \"@openzeppelin/contracts@5.6.0/access/Ownable.sol\":2912:3099  function _transferOwnership(address newOwner) internal virtual {... */\n  pop\n  jump\t// out\n    /* \"@openzeppelin/contracts@5.6.0/token/ERC20/utils/SafeERC20.sol\":1662:1894  function safeTransferFrom(IERC20 token, address from, address to, uint256 value) internal {... */\ntag_34:\n    /* \"@openzeppelin/contracts@5.6.0/token/ERC20/utils/SafeERC20.sol\":1767:1814  _safeTransferFrom(token, from, to, value, true) */\n  tag_40\n    /* \"@openzeppelin/contracts@5.6.0/token/ERC20/utils/SafeERC20.sol\":1785:1790  token */\n  dup5\n    /* \"@openzeppelin/contracts@5.6.0/token/ERC20/utils/SafeERC20.sol\":1792:1796  from */\n  dup5\n    /* \"@openzeppelin/contracts@5.6.0/token/ERC20/utils/SafeERC20.sol\":1798:1800  to */\n  dup5\n    /* \"@openzeppelin/contracts@5.6.0/token/ERC20/utils/SafeERC20.sol\":1802:1807  value */\n  dup5\n    /* \"@openzeppelin/contracts@5.6.0/token/ERC20/utils/SafeERC20.sol\":1809:1813  true */\n  0x01\n    /* \"@openzeppelin/contracts@5.6.0/token/ERC20/utils/SafeERC20.sol\":1767:1784  _safeTransferFrom */\n  tag_41\n    /* \"@openzeppelin/contracts@5.6.0/token/ERC20/utils/SafeERC20.sol\":1767:1814  _safeTransferFrom(token, from, to, value, true) */\n  jump\t// in\ntag_40:\n    /* \"@openzeppelin/contracts@5.6.0/token/ERC20/utils/SafeERC20.sol\":1762:1888  if (!_safeTransferFrom(token, from, to, value, true)) {... */\n  tag_42\n  jumpi\n    /* \"@openzeppelin/contracts@5.6.0/token/ERC20/utils/SafeERC20.sol\":1837:1877  SafeERC20FailedOperation(address(token)) */\n  mload(0x40)\n  shl(0xe0, 0x5274afe7)\n  dup2\n  mstore\n  sub(shl(0xa0, 0x01), 0x01)\n    /* \"#utility.yul\":965:997   */\n  dup6\n  and\n    /* \"@openzeppelin/contracts@5.6.0/token/ERC20/utils/SafeERC20.sol\":1837:1877  SafeERC20FailedOperation(address(token)) */\n  0x04\n  dup3\n  add\n    /* \"#utility.yul\":947:998   */\n  mstore\n    /* \"#utility.yul\":920:938   */\n  0x24\n  add\n    /* \"@openzeppelin/contracts@5.6.0/token/ERC20/utils/SafeERC20.sol\":1837:1877  SafeERC20FailedOperation(address(token)) */\n  tag_9\n    /* \"#utility.yul\":801:1004   */\n  jump\n    /* \"@openzeppelin/contracts@5.6.0/token/ERC20/utils/SafeERC20.sol\":1762:1888  if (!_safeTransferFrom(token, from, to, value, true)) {... */\ntag_42:\n    /* \"@openzeppelin/contracts@5.6.0/token/ERC20/utils/SafeERC20.sol\":1662:1894  function safeTransferFrom(IERC20 token, address from, address to, uint256 value) internal {... */\n  pop\n  pop\n  pop\n  pop\n  jump\t// out\n    /* \"@openzeppelin/contracts@5.6.0/token/ERC20/utils/SafeERC20.sol\":10165:11558  function _safeTransferFrom(... */\ntag_41:\n    /* \"@openzeppelin/contracts@5.6.0/token/ERC20/utils/SafeERC20.sol\":10460:10464  0x40 */\n  0x40\n    /* \"@openzeppelin/contracts@5.6.0/token/ERC20/utils/SafeERC20.sol\":10454:10465  mload(0x40) */\n  mload\n  shl(0xe0, 0x23b872dd)\n    /* \"@openzeppelin/contracts@5.6.0/token/ERC20/utils/SafeERC20.sol\":10323:10335  bool success */\n  0x00\n    /* \"@openzeppelin/contracts@5.6.0/token/ERC20/utils/SafeERC20.sol\":10478:10500  mstore(0x00, selector) */\n  dup2\n  dup2\n  mstore\n  sub(shl(0xa0, 0x01), 0x01)\n    /* \"@openzeppelin/contracts@5.6.0/token/ERC20/utils/SafeERC20.sol\":10526:10552  and(from, shr(96, not(0))) */\n  dup8\n  dup2\n  and\n    /* \"@openzeppelin/contracts@5.6.0/token/ERC20/utils/SafeERC20.sol\":10520:10524  0x04 */\n  0x04\n    /* \"@openzeppelin/contracts@5.6.0/token/ERC20/utils/SafeERC20.sol\":10513:10553  mstore(0x04, and(from, shr(96, not(0)))) */\n  mstore\n    /* \"@openzeppelin/contracts@5.6.0/token/ERC20/utils/SafeERC20.sol\":10579:10603  and(to, shr(96, not(0))) */\n  dup7\n  and\n    /* \"@openzeppelin/contracts@5.6.0/token/ERC20/utils/SafeERC20.sol\":10573:10577  0x24 */\n  0x24\n    /* \"@openzeppelin/contracts@5.6.0/token/ERC20/utils/SafeERC20.sol\":10566:10604  mstore(0x24, and(to, shr(96, not(0)))) */\n  mstore\n    /* \"@openzeppelin/contracts@5.6.0/token/ERC20/utils/SafeERC20.sol\":10624:10628  0x44 */\n  0x44\n    /* \"@openzeppelin/contracts@5.6.0/token/ERC20/utils/SafeERC20.sol\":10617:10636  mstore(0x44, value) */\n  dup6\n  swap1\n  mstore\n    /* \"@openzeppelin/contracts@5.6.0/token/ERC20/utils/SafeERC20.sol\":10323:10335  bool success */\n  swap2\n    /* \"@openzeppelin/contracts@5.6.0/token/ERC20/utils/SafeERC20.sol\":10700:10704  0x20 */\n  0x20\n    /* \"@openzeppelin/contracts@5.6.0/token/ERC20/utils/SafeERC20.sol\":10323:10335  bool success */\n  dup4\n    /* \"@openzeppelin/contracts@5.6.0/token/ERC20/utils/SafeERC20.sol\":10688:10692  0x64 */\n  0x64\n    /* \"@openzeppelin/contracts@5.6.0/token/ERC20/utils/SafeERC20.sol\":10323:10335  bool success */\n  dup2\n  dup1\n    /* \"@openzeppelin/contracts@5.6.0/token/ERC20/utils/SafeERC20.sol\":10672:10677  token */\n  dup13\n    /* \"@openzeppelin/contracts@5.6.0/token/ERC20/utils/SafeERC20.sol\":10665:10670  gas() */\n  gas\n    /* \"@openzeppelin/contracts@5.6.0/token/ERC20/utils/SafeERC20.sol\":10660:10705  call(gas(), token, 0, 0x00, 0x64, 0x00, 0x20) */\n  call\n    /* \"@openzeppelin/contracts@5.6.0/token/ERC20/utils/SafeERC20.sol\":10649:10705  success := call(gas(), token, 0, 0x00, 0x64, 0x00, 0x20) */\n  swap3\n  pop\n    /* \"@openzeppelin/contracts@5.6.0/token/ERC20/utils/SafeERC20.sol\":10917:10918  1 */\n  0x01\n    /* \"@openzeppelin/contracts@5.6.0/token/ERC20/utils/SafeERC20.sol\":10910:10914  0x00 */\n  0x00\n    /* \"@openzeppelin/contracts@5.6.0/token/ERC20/utils/SafeERC20.sol\":10904:10915  mload(0x00) */\n  mload\n    /* \"@openzeppelin/contracts@5.6.0/token/ERC20/utils/SafeERC20.sol\":10901:10919  eq(mload(0x00), 1) */\n  eq\n    /* \"@openzeppelin/contracts@5.6.0/token/ERC20/utils/SafeERC20.sol\":10892:10899  success */\n  dup4\n    /* \"@openzeppelin/contracts@5.6.0/token/ERC20/utils/SafeERC20.sol\":10888:10920  and(success, eq(mload(0x00), 1)) */\n  and\n    /* \"@openzeppelin/contracts@5.6.0/token/ERC20/utils/SafeERC20.sol\":10878:11484  if iszero(and(success, eq(mload(0x00), 1))) {... */\n  tag_45\n  jumpi\n    /* \"@openzeppelin/contracts@5.6.0/token/ERC20/utils/SafeERC20.sol\":11049:11055  bubble */\n  dup4\n    /* \"@openzeppelin/contracts@5.6.0/token/ERC20/utils/SafeERC20.sol\":11039:11046  success */\n  dup4\n    /* \"@openzeppelin/contracts@5.6.0/token/ERC20/utils/SafeERC20.sol\":11032:11047  iszero(success) */\n  iszero\n    /* \"@openzeppelin/contracts@5.6.0/token/ERC20/utils/SafeERC20.sol\":11028:11056  and(iszero(success), bubble) */\n  and\n    /* \"@openzeppelin/contracts@5.6.0/token/ERC20/utils/SafeERC20.sol\":11025:11190  if and(iszero(success), bubble) {... */\n  iszero\n  tag_46\n  jumpi\n    /* \"@openzeppelin/contracts@5.6.0/token/ERC20/utils/SafeERC20.sol\":11105:11121  returndatasize() */\n  returndatasize\n    /* \"@openzeppelin/contracts@5.6.0/token/ERC20/utils/SafeERC20.sol\":11099:11103  0x00 */\n  0x00\n    /* \"@openzeppelin/contracts@5.6.0/token/ERC20/utils/SafeERC20.sol\":11094:11097  fmp */\n  dup3\n    /* \"@openzeppelin/contracts@5.6.0/token/ERC20/utils/SafeERC20.sol\":11079:11122  returndatacopy(fmp, 0x00, returndatasize()) */\n  returndatacopy\n    /* \"@openzeppelin/contracts@5.6.0/token/ERC20/utils/SafeERC20.sol\":11155:11171  returndatasize() */\n  returndatasize\n    /* \"@openzeppelin/contracts@5.6.0/token/ERC20/utils/SafeERC20.sol\":11150:11153  fmp */\n  dup2\n    /* \"@openzeppelin/contracts@5.6.0/token/ERC20/utils/SafeERC20.sol\":11143:11172  revert(fmp, returndatasize()) */\n  revert\n    /* \"@openzeppelin/contracts@5.6.0/token/ERC20/utils/SafeERC20.sol\":11025:11190  if and(iszero(success), bubble) {... */\ntag_46:\n    /* \"@openzeppelin/contracts@5.6.0/token/ERC20/utils/SafeERC20.sol\":11466:11467  0 */\n  0x00\n    /* \"@openzeppelin/contracts@5.6.0/token/ERC20/utils/SafeERC20.sol\":11458:11463  token */\n  dup9\n    /* \"@openzeppelin/contracts@5.6.0/token/ERC20/utils/SafeERC20.sol\":11446:11464  extcodesize(token) */\n  extcodesize\n    /* \"@openzeppelin/contracts@5.6.0/token/ERC20/utils/SafeERC20.sol\":11443:11468  gt(extcodesize(token), 0) */\n  gt\n    /* \"@openzeppelin/contracts@5.6.0/token/ERC20/utils/SafeERC20.sol\":11424:11440  returndatasize() */\n  returndatasize\n    /* \"@openzeppelin/contracts@5.6.0/token/ERC20/utils/SafeERC20.sol\":11417:11441  iszero(returndatasize()) */\n  iszero\n    /* \"@openzeppelin/contracts@5.6.0/token/ERC20/utils/SafeERC20.sol\":11413:11469  and(iszero(returndatasize()), gt(extcodesize(token), 0)) */\n  and\n    /* \"@openzeppelin/contracts@5.6.0/token/ERC20/utils/SafeERC20.sol\":11404:11411  success */\n  dup4\n    /* \"@openzeppelin/contracts@5.6.0/token/ERC20/utils/SafeERC20.sol\":11400:11470  and(success, and(iszero(returndatasize()), gt(extcodesize(token), 0))) */\n  and\n    /* \"@openzeppelin/contracts@5.6.0/token/ERC20/utils/SafeERC20.sol\":11389:11470  success := and(success, and(iszero(returndatasize()), gt(extcodesize(token), 0))) */\n  swap3\n  pop\n    /* \"@openzeppelin/contracts@5.6.0/token/ERC20/utils/SafeERC20.sol\":10878:11484  if iszero(and(success, eq(mload(0x00), 1))) {... */\ntag_45:\n    /* \"@openzeppelin/contracts@5.6.0/token/ERC20/utils/SafeERC20.sol\":11504:11508  0x40 */\n  0x40\n    /* \"@openzeppelin/contracts@5.6.0/token/ERC20/utils/SafeERC20.sol\":11497:11514  mstore(0x40, fmp) */\n  mstore\n  pop\n    /* \"@openzeppelin/contracts@5.6.0/token/ERC20/utils/SafeERC20.sol\":11540:11541  0 */\n  0x00\n    /* \"@openzeppelin/contracts@5.6.0/token/ERC20/utils/SafeERC20.sol\":11534:11538  0x60 */\n  0x60\n    /* \"@openzeppelin/contracts@5.6.0/token/ERC20/utils/SafeERC20.sol\":11527:11542  mstore(0x60, 0) */\n  mstore\n    /* \"@openzeppelin/contracts@5.6.0/token/ERC20/utils/SafeERC20.sol\":10165:11558  function _safeTransferFrom(... */\n  swap6\n  swap5\n  pop\n  pop\n  pop\n  pop\n  pop\n  jump\t// out\n    /* \"#utility.yul\":14:145   */\ntag_47:\n  sub(shl(0xa0, 0x01), 0x01)\n    /* \"#utility.yul\":89:120   */\n  dup2\n  and\n    /* \"#utility.yul\":79:121   */\n  dup2\n  eq\n    /* \"#utility.yul\":69:139   */\n  tag_50\n  jumpi\n    /* \"#utility.yul\":135:136   */\n  0x00\n    /* \"#utility.yul\":132:133   */\n  dup1\n    /* \"#utility.yul\":125:137   */\n  revert\n    /* \"#utility.yul\":69:139   */\ntag_50:\n    /* \"#utility.yul\":14:145   */\n  pop\n  jump\t// out\n    /* \"#utility.yul\":150:796   */\ntag_3:\n    /* \"#utility.yul\":279:285   */\n  0x00\n    /* \"#utility.yul\":287:293   */\n  dup1\n    /* \"#utility.yul\":295:301   */\n  0x00\n    /* \"#utility.yul\":303:309   */\n  dup1\n    /* \"#utility.yul\":311:317   */\n  0x00\n    /* \"#utility.yul\":319:325   */\n  dup1\n    /* \"#utility.yul\":372:375   */\n  0xc0\n    /* \"#utility.yul\":360:369   */\n  dup8\n    /* \"#utility.yul\":351:358   */\n  dup10\n    /* \"#utility.yul\":347:370   */\n  sub\n    /* \"#utility.yul\":343:376   */\n  slt\n    /* \"#utility.yul\":340:393   */\n  iszero\n  tag_52\n  jumpi\n    /* \"#utility.yul\":389:390   */\n  0x00\n    /* \"#utility.yul\":386:387   */\n  dup1\n    /* \"#utility.yul\":379:391   */\n  revert\n    /* \"#utility.yul\":340:393   */\ntag_52:\n    /* \"#utility.yul\":421:430   */\n  dup7\n    /* \"#utility.yul\":415:431   */\n  mload\n    /* \"#utility.yul\":440:471   */\n  tag_53\n    /* \"#utility.yul\":465:470   */\n  dup2\n    /* \"#utility.yul\":440:471   */\n  tag_47\n  jump\t// in\ntag_53:\n    /* \"#utility.yul\":540:542   */\n  0x20\n    /* \"#utility.yul\":525:543   */\n  dup9\n  add\n    /* \"#utility.yul\":519:544   */\n  mload\n    /* \"#utility.yul\":490:495   */\n  swap1\n  swap7\n  pop\n    /* \"#utility.yul\":553:586   */\n  tag_54\n    /* \"#utility.yul\":519:544   */\n  dup2\n    /* \"#utility.yul\":553:586   */\n  tag_47\n  jump\t// in\ntag_54:\n    /* \"#utility.yul\":652:654   */\n  0x40\n    /* \"#utility.yul\":637:655   */\n  dup9\n  add\n    /* \"#utility.yul\":631:656   */\n  mload\n    /* \"#utility.yul\":696:698   */\n  0x60\n    /* \"#utility.yul\":681:699   */\n  dup10\n  add\n    /* \"#utility.yul\":675:700   */\n  mload\n    /* \"#utility.yul\":740:743   */\n  0x80\n    /* \"#utility.yul\":725:744   */\n  dup11\n  add\n    /* \"#utility.yul\":719:745   */\n  mload\n    /* \"#utility.yul\":785:788   */\n  0xa0\n    /* \"#utility.yul\":770:789   */\n  swap1\n  swap11\n  add\n    /* \"#utility.yul\":764:790   */\n  mload\n    /* \"#utility.yul\":150:796   */\n  swap9\n  swap12\n    /* \"#utility.yul\":605:612   */\n  swap3\n  swap11\n  pop\n    /* \"#utility.yul\":631:656   */\n  swap1\n  swap9\n    /* \"#utility.yul\":675:700   */\n  swap1\n  swap8\n    /* \"#utility.yul\":719:745   */\n  swap1\n  swap7\n  pop\n    /* \"#utility.yul\":764:790   */\n  swap5\n  pop\n    /* \"#utility.yul\":150:796   */\n  swap3\n  pop\n  pop\n  pop\n  jump\t// out\n    /* \"#utility.yul\":2699:2921   */\ntag_32:\n    /* \"#utility.yul\":2764:2773   */\n  dup1\n  dup3\n  add\n    /* \"#utility.yul\":2785:2795   */\n  dup1\n  dup3\n  gt\n    /* \"#utility.yul\":2782:2915   */\n  iszero\n  tag_61\n  jumpi\n    /* \"#utility.yul\":2837:2847   */\n  0x4e487b71\n    /* \"#utility.yul\":2832:2835   */\n  0xe0\n    /* \"#utility.yul\":2828:2848   */\n  shl\n    /* \"#utility.yul\":2825:2826   */\n  0x00\n    /* \"#utility.yul\":2818:2849   */\n  mstore\n    /* \"#utility.yul\":2872:2876   */\n  0x11\n    /* \"#utility.yul\":2869:2870   */\n  0x04\n    /* \"#utility.yul\":2862:2877   */\n  mstore\n    /* \"#utility.yul\":2900:2904   */\n  0x24\n    /* \"#utility.yul\":2897:2898   */\n  0x00\n    /* \"#utility.yul\":2890:2905   */\n  revert\n    /* \"#utility.yul\":2782:2915   */\ntag_61:\n    /* \"#utility.yul\":2699:2921   */\n  swap3\n  swap2\n  pop\n  pop\n  jump\t// out\ntag_48:\n    /* \"Smart-Contracts/PNJC_Vesting+Cliff.sol\":2504:15476  contract PanjoCoinVesting is Ownable, ReentrancyGuard {... */\n  mload(0x80)\n  mload(0xa0)\n  mload(0xc0)\n  mload(0xe0)\n  mload(0x0100)\n  mload(0x0120)\n  codecopy(0x00, dataOffset(sub_0), dataSize(sub_0))\n  0x00\n  assignImmutable(\"0xd4fdba55a337451fb821a44ca705320b9065ad6ec4ab5b29c1056e12ca3c3cb3\")\n  0x00\n  assignImmutable(\"0xbf25779d1393d2c2274e7e2385238bcd97ceff951c2c4e220093f7d5ddca9559\")\n  0x00\n  assignImmutable(\"0xff1ab02643eadb0c7a522e84a04ff399ed34421e7276a9310d6b291aaca0628a\")\n  0x00\n  assignImmutable(\"0xb37328d1c6f33416cc50b9168b9894b89e743919cc7edc16d1bdc20660330b9f\")\n  0x00\n  assignImmutable(\"0x2cb91fc5071ce68ef9b5c3d22f907d3713bf81a6de447784d50617a233aa6c29\")\n  0x00\n  assignImmutable(\"0x660f1ef9e3e1418f1b6266ae4066b343713b2e7ef8c7065c7ae6ce5ccded547b\")\n  return(0x00, dataSize(sub_0))\nstop\n\nsub_0: assembly {\n        /* \"Smart-Contracts/PNJC_Vesting+Cliff.sol\":2504:15476  contract PanjoCoinVesting is Ownable, ReentrancyGuard {... */\n      mstore(0x40, 0x80)\n      callvalue\n      dup1\n      iszero\n      tag_1\n      jumpi\n      0x00\n      dup1\n      revert\n    tag_1:\n      pop\n      jumpi(tag_2, lt(calldatasize, 0x04))\n      shr(0xe0, calldataload(0x00))\n      dup1\n      0x6f9fb98a\n      gt\n      tag_20\n      jumpi\n      dup1\n      0x96132521\n      gt\n      tag_21\n      jumpi\n      dup1\n      0x96132521\n      eq\n      tag_15\n      jumpi\n      dup1\n      0xbe9a6555\n      eq\n      tag_16\n      jumpi\n      dup1\n      0xf2fde38b\n      eq\n      tag_17\n      jumpi\n      dup1\n      0xfbccedae\n      eq\n      tag_18\n      jumpi\n      dup1\n      0xfc0c546a\n      eq\n      tag_19\n      jumpi\n      0x00\n      dup1\n      revert\n    tag_21:\n      dup1\n      0x6f9fb98a\n      eq\n      tag_11\n      jumpi\n      dup1\n      0x6ff1c9bc\n      eq\n      tag_12\n      jumpi\n      dup1\n      0x715018a6\n      eq\n      tag_13\n      jumpi\n      dup1\n      0x8da5cb5b\n      eq\n      tag_14\n      jumpi\n      0x00\n      dup1\n      revert\n    tag_20:\n      dup1\n      0x3317bbcc\n      gt\n      tag_22\n      jumpi\n      dup1\n      0x3317bbcc\n      eq\n      tag_7\n      jumpi\n      dup1\n      0x38af3eed\n      eq\n      tag_8\n      jumpi\n      dup1\n      0x44b1231f\n      eq\n      tag_9\n      jumpi\n      dup1\n      0x4e71d92d\n      eq\n      tag_10\n      jumpi\n      0x00\n      dup1\n      revert\n    tag_22:\n      dup1\n      0x13d033c0\n      eq\n      tag_3\n      jumpi\n      dup1\n      0x1514617e\n      eq\n      tag_4\n      jumpi\n      dup1\n      0x1a39d8ef\n      eq\n      tag_5\n      jumpi\n      dup1\n      0x29cb924d\n      eq\n      tag_6\n      jumpi\n    tag_2:\n      0x00\n      dup1\n      revert\n        /* \"Smart-Contracts/PNJC_Vesting+Cliff.sol\":3610:3640  uint256 public immutable cliff */\n    tag_3:\n      tag_23\n      immutable(\"0xff1ab02643eadb0c7a522e84a04ff399ed34421e7276a9310d6b291aaca0628a\")\n      dup2\n      jump\n    tag_23:\n      mload(0x40)\n        /* \"#utility.yul\":160:185   */\n      swap1\n      dup2\n      mstore\n        /* \"#utility.yul\":148:150   */\n      0x20\n        /* \"#utility.yul\":133:151   */\n      add\n        /* \"Smart-Contracts/PNJC_Vesting+Cliff.sol\":3610:3640  uint256 public immutable cliff */\n    tag_25:\n      mload(0x40)\n      dup1\n      swap2\n      sub\n      swap1\n      return\n        /* \"Smart-Contracts/PNJC_Vesting+Cliff.sol\":3786:3826  uint256 public immutable vestingDuration */\n    tag_4:\n      tag_23\n      immutable(\"0xbf25779d1393d2c2274e7e2385238bcd97ceff951c2c4e220093f7d5ddca9559\")\n      dup2\n      jump\n        /* \"Smart-Contracts/PNJC_Vesting+Cliff.sol\":3962:3998  uint256 public immutable totalAmount */\n    tag_5:\n      tag_23\n      immutable(\"0xd4fdba55a337451fb821a44ca705320b9065ad6ec4ab5b29c1056e12ca3c3cb3\")\n      dup2\n      jump\n        /* \"Smart-Contracts/PNJC_Vesting+Cliff.sol\":11462:11561  function getCurrentTime() external view returns (uint256) {... */\n    tag_6:\n        /* \"Smart-Contracts/PNJC_Vesting+Cliff.sol\":11538:11553  block.timestamp */\n      timestamp\n        /* \"Smart-Contracts/PNJC_Vesting+Cliff.sol\":11462:11561  function getCurrentTime() external view returns (uint256) {... */\n      jump(tag_23)\n        /* \"Smart-Contracts/PNJC_Vesting+Cliff.sol\":12143:12256  function getLockedTokens() external view returns (uint256) {... */\n    tag_7:\n      tag_23\n      tag_37\n      jump\t// in\n        /* \"Smart-Contracts/PNJC_Vesting+Cliff.sol\":3086:3122  address public immutable beneficiary */\n    tag_8:\n      tag_39\n      immutable(\"0x660f1ef9e3e1418f1b6266ae4066b343713b2e7ef8c7065c7ae6ce5ccded547b\")\n      dup2\n      jump\n    tag_39:\n      mload(0x40)\n      sub(shl(0xa0, 0x01), 0x01)\n        /* \"#utility.yul\":360:392   */\n      swap1\n      swap2\n      and\n        /* \"#utility.yul\":342:393   */\n      dup2\n      mstore\n        /* \"#utility.yul\":330:332   */\n      0x20\n        /* \"#utility.yul\":315:333   */\n      add\n        /* \"Smart-Contracts/PNJC_Vesting+Cliff.sol\":3086:3122  address public immutable beneficiary */\n      tag_25\n        /* \"#utility.yul\":196:399   */\n      jump\n        /* \"Smart-Contracts/PNJC_Vesting+Cliff.sol\":9751:10588  function vestedAmount() public view returns (uint256) {... */\n    tag_9:\n      tag_23\n      tag_44\n      jump\t// in\n        /* \"Smart-Contracts/PNJC_Vesting+Cliff.sol\":13158:13853  function claim() external nonReentrant {... */\n    tag_10:\n      tag_46\n      tag_47\n      jump\t// in\n    tag_46:\n      stop\n        /* \"Smart-Contracts/PNJC_Vesting+Cliff.sol\":11784:11902  function getContractBalance() external view returns (uint256) {... */\n    tag_11:\n      tag_23\n      tag_49\n      jump\t// in\n        /* \"Smart-Contracts/PNJC_Vesting+Cliff.sol\":14842:15473  function emergencyWithdraw(IERC20 _otherToken) external onlyOwner nonReentrant {... */\n    tag_12:\n      tag_46\n      tag_52\n      calldatasize\n      0x04\n      tag_53\n      jump\t// in\n    tag_52:\n      tag_54\n      jump\t// in\n        /* \"@openzeppelin/contracts@5.6.0/access/Ownable.sol\":2293:2394  function renounceOwnership() public virtual onlyOwner {... */\n    tag_13:\n      tag_46\n      tag_56\n      jump\t// in\n        /* \"@openzeppelin/contracts@5.6.0/access/Ownable.sol\":1638:1723  function owner() public view virtual returns (address) {... */\n    tag_14:\n        /* \"@openzeppelin/contracts@5.6.0/access/Ownable.sol\":1684:1691  address */\n      0x00\n        /* \"@openzeppelin/contracts@5.6.0/access/Ownable.sol\":1710:1716  _owner */\n      sload\n      sub(shl(0xa0, 0x01), 0x01)\n      and\n        /* \"@openzeppelin/contracts@5.6.0/access/Ownable.sol\":1638:1723  function owner() public view virtual returns (address) {... */\n      jump(tag_39)\n        /* \"Smart-Contracts/PNJC_Vesting+Cliff.sol\":4367:4390  uint256 public released */\n    tag_15:\n      tag_23\n      sload(0x01)\n      dup2\n      jump\n        /* \"Smart-Contracts/PNJC_Vesting+Cliff.sol\":3431:3461  uint256 public immutable start */\n    tag_16:\n      tag_23\n      immutable(\"0xb37328d1c6f33416cc50b9168b9894b89e743919cc7edc16d1bdc20660330b9f\")\n      dup2\n      jump\n        /* \"@openzeppelin/contracts@5.6.0/access/Ownable.sol\":2543:2758  function transferOwnership(address newOwner) public virtual onlyOwner {... */\n    tag_17:\n      tag_46\n      tag_67\n      calldatasize\n      0x04\n      tag_53\n      jump\t// in\n    tag_67:\n      tag_69\n      jump\t// in\n        /* \"Smart-Contracts/PNJC_Vesting+Cliff.sol\":10924:11255  function releasable() public view returns (uint256) {... */\n    tag_18:\n      tag_23\n      tag_71\n      jump\t// in\n        /* \"Smart-Contracts/PNJC_Vesting+Cliff.sol\":3262:3291  IERC20 public immutable token */\n    tag_19:\n      tag_39\n      immutable(\"0x2cb91fc5071ce68ef9b5c3d22f907d3713bf81a6de447784d50617a233aa6c29\")\n      dup2\n      jump\n        /* \"Smart-Contracts/PNJC_Vesting+Cliff.sol\":12143:12256  function getLockedTokens() external view returns (uint256) {... */\n    tag_37:\n        /* \"Smart-Contracts/PNJC_Vesting+Cliff.sol\":12193:12200  uint256 */\n      0x00\n        /* \"Smart-Contracts/PNJC_Vesting+Cliff.sol\":12234:12248  vestedAmount() */\n      tag_79\n        /* \"Smart-Contracts/PNJC_Vesting+Cliff.sol\":12234:12246  vestedAmount */\n      tag_44\n        /* \"Smart-Contracts/PNJC_Vesting+Cliff.sol\":12234:12248  vestedAmount() */\n      jump\t// in\n    tag_79:\n        /* \"Smart-Contracts/PNJC_Vesting+Cliff.sol\":12220:12248  totalAmount - vestedAmount() */\n      tag_80\n      swap1\n        /* \"Smart-Contracts/PNJC_Vesting+Cliff.sol\":12220:12231  totalAmount */\n      immutable(\"0xd4fdba55a337451fb821a44ca705320b9065ad6ec4ab5b29c1056e12ca3c3cb3\")\n        /* \"Smart-Contracts/PNJC_Vesting+Cliff.sol\":12220:12248  totalAmount - vestedAmount() */\n      tag_81\n      jump\t// in\n    tag_80:\n        /* \"Smart-Contracts/PNJC_Vesting+Cliff.sol\":12213:12248  return totalAmount - vestedAmount() */\n      swap1\n      pop\n        /* \"Smart-Contracts/PNJC_Vesting+Cliff.sol\":12143:12256  function getLockedTokens() external view returns (uint256) {... */\n      swap1\n      jump\t// out\n        /* \"Smart-Contracts/PNJC_Vesting+Cliff.sol\":9751:10588  function vestedAmount() public view returns (uint256) {... */\n    tag_44:\n        /* \"Smart-Contracts/PNJC_Vesting+Cliff.sol\":9796:9803  uint256 */\n      0x00\n        /* \"Smart-Contracts/PNJC_Vesting+Cliff.sol\":9838:9853  block.timestamp */\n      timestamp\n        /* \"Smart-Contracts/PNJC_Vesting+Cliff.sol\":9952:9957  cliff */\n      immutable(\"0xff1ab02643eadb0c7a522e84a04ff399ed34421e7276a9310d6b291aaca0628a\")\n        /* \"Smart-Contracts/PNJC_Vesting+Cliff.sol\":9938:9957  currentTime < cliff */\n      dup2\n      lt\n        /* \"Smart-Contracts/PNJC_Vesting+Cliff.sol\":9934:9994  if (currentTime < cliff) {... */\n      iszero\n      tag_83\n      jumpi\n        /* \"Smart-Contracts/PNJC_Vesting+Cliff.sol\":9981:9982  0 */\n      0x00\n        /* \"Smart-Contracts/PNJC_Vesting+Cliff.sol\":9974:9982  return 0 */\n      swap2\n      pop\n      pop\n        /* \"Smart-Contracts/PNJC_Vesting+Cliff.sol\":9751:10588  function vestedAmount() public view returns (uint256) {... */\n      swap1\n      jump\t// out\n        /* \"Smart-Contracts/PNJC_Vesting+Cliff.sol\":9934:9994  if (currentTime < cliff) {... */\n    tag_83:\n        /* \"Smart-Contracts/PNJC_Vesting+Cliff.sol\":10102:10125  start + vestingDuration */\n      tag_84\n        /* \"Smart-Contracts/PNJC_Vesting+Cliff.sol\":10110:10125  vestingDuration */\n      immutable(\"0xbf25779d1393d2c2274e7e2385238bcd97ceff951c2c4e220093f7d5ddca9559\")\n        /* \"Smart-Contracts/PNJC_Vesting+Cliff.sol\":10102:10107  start */\n      immutable(\"0xb37328d1c6f33416cc50b9168b9894b89e743919cc7edc16d1bdc20660330b9f\")\n        /* \"Smart-Contracts/PNJC_Vesting+Cliff.sol\":10102:10125  start + vestingDuration */\n      tag_85\n      jump\t// in\n    tag_84:\n        /* \"Smart-Contracts/PNJC_Vesting+Cliff.sol\":10087:10098  currentTime */\n      dup2\n        /* \"Smart-Contracts/PNJC_Vesting+Cliff.sol\":10087:10125  currentTime >= start + vestingDuration */\n      lt\n        /* \"Smart-Contracts/PNJC_Vesting+Cliff.sol\":10083:10172  if (currentTime >= start + vestingDuration) {... */\n      tag_86\n      jumpi\n        /* \"Smart-Contracts/PNJC_Vesting+Cliff.sol\":10149:10160  totalAmount */\n      immutable(\"0xd4fdba55a337451fb821a44ca705320b9065ad6ec4ab5b29c1056e12ca3c3cb3\")\n        /* \"Smart-Contracts/PNJC_Vesting+Cliff.sol\":10142:10160  return totalAmount */\n      swap2\n      pop\n      pop\n        /* \"Smart-Contracts/PNJC_Vesting+Cliff.sol\":9751:10588  function vestedAmount() public view returns (uint256) {... */\n      swap1\n      jump\t// out\n        /* \"Smart-Contracts/PNJC_Vesting+Cliff.sol\":10083:10172  if (currentTime >= start + vestingDuration) {... */\n    tag_86:\n        /* \"Smart-Contracts/PNJC_Vesting+Cliff.sol\":10309:10331  uint256 timeSinceCliff */\n      0x00\n        /* \"Smart-Contracts/PNJC_Vesting+Cliff.sol\":10334:10353  currentTime - cliff */\n      tag_87\n        /* \"Smart-Contracts/PNJC_Vesting+Cliff.sol\":10348:10353  cliff */\n      immutable(\"0xff1ab02643eadb0c7a522e84a04ff399ed34421e7276a9310d6b291aaca0628a\")\n        /* \"Smart-Contracts/PNJC_Vesting+Cliff.sol\":10334:10345  currentTime */\n      dup4\n        /* \"Smart-Contracts/PNJC_Vesting+Cliff.sol\":10334:10353  currentTime - cliff */\n      tag_81\n      jump\t// in\n    tag_87:\n        /* \"Smart-Contracts/PNJC_Vesting+Cliff.sol\":10309:10353  uint256 timeSinceCliff = currentTime - cliff */\n      swap1\n      pop\n        /* \"Smart-Contracts/PNJC_Vesting+Cliff.sol\":10481:10495  uint256 vested */\n      0x00\n        /* \"Smart-Contracts/PNJC_Vesting+Cliff.sol\":10531:10546  vestingDuration */\n      immutable(\"0xbf25779d1393d2c2274e7e2385238bcd97ceff951c2c4e220093f7d5ddca9559\")\n        /* \"Smart-Contracts/PNJC_Vesting+Cliff.sol\":10499:10527  totalAmount * timeSinceCliff */\n      tag_88\n        /* \"Smart-Contracts/PNJC_Vesting+Cliff.sol\":10309:10353  uint256 timeSinceCliff = currentTime - cliff */\n      dup4\n        /* \"Smart-Contracts/PNJC_Vesting+Cliff.sol\":10499:10510  totalAmount */\n      immutable(\"0xd4fdba55a337451fb821a44ca705320b9065ad6ec4ab5b29c1056e12ca3c3cb3\")\n        /* \"Smart-Contracts/PNJC_Vesting+Cliff.sol\":10499:10527  totalAmount * timeSinceCliff */\n      tag_89\n      jump\t// in\n    tag_88:\n        /* \"Smart-Contracts/PNJC_Vesting+Cliff.sol\":10498:10546  (totalAmount * timeSinceCliff) / vestingDuration */\n      tag_90\n      swap2\n      swap1\n      tag_91\n      jump\t// in\n    tag_90:\n        /* \"Smart-Contracts/PNJC_Vesting+Cliff.sol\":10481:10546  uint256 vested = (totalAmount * timeSinceCliff) / vestingDuration */\n      swap5\n        /* \"Smart-Contracts/PNJC_Vesting+Cliff.sol\":9751:10588  function vestedAmount() public view returns (uint256) {... */\n      swap4\n      pop\n      pop\n      pop\n      pop\n      jump\t// out\n        /* \"Smart-Contracts/PNJC_Vesting+Cliff.sol\":13158:13853  function claim() external nonReentrant {... */\n    tag_47:\n        /* \"@openzeppelin/contracts@5.6.0/utils/ReentrancyGuard.sol\":3023:3044  _nonReentrantBefore() */\n      tag_93\n        /* \"@openzeppelin/contracts@5.6.0/utils/ReentrancyGuard.sol\":3023:3042  _nonReentrantBefore */\n      tag_94\n        /* \"@openzeppelin/contracts@5.6.0/utils/ReentrancyGuard.sol\":3023:3044  _nonReentrantBefore() */\n      jump\t// in\n    tag_93:\n        /* \"Smart-Contracts/PNJC_Vesting+Cliff.sol\":13272:13282  msg.sender */\n      caller\n      sub(shl(0xa0, 0x01), 0x01)\n        /* \"Smart-Contracts/PNJC_Vesting+Cliff.sol\":13286:13297  beneficiary */\n      immutable(\"0x660f1ef9e3e1418f1b6266ae4066b343713b2e7ef8c7065c7ae6ce5ccded547b\")\n        /* \"Smart-Contracts/PNJC_Vesting+Cliff.sol\":13272:13297  msg.sender == beneficiary */\n      and\n      eq\n        /* \"Smart-Contracts/PNJC_Vesting+Cliff.sol\":13264:13349  require(msg.sender == beneficiary, \"PanjoCoinVesting: caller is not the beneficiary\") */\n      tag_96\n      jumpi\n      mload(0x40)\n      shl(0xe5, 0x461bcd)\n      dup2\n      mstore\n        /* \"#utility.yul\":2296:2298   */\n      0x20\n        /* \"Smart-Contracts/PNJC_Vesting+Cliff.sol\":13264:13349  require(msg.sender == beneficiary, \"PanjoCoinVesting: caller is not the beneficiary\") */\n      0x04\n      dup3\n      add\n        /* \"#utility.yul\":2278:2299   */\n      mstore\n        /* \"#utility.yul\":2335:2337   */\n      0x2f\n        /* \"#utility.yul\":2315:2333   */\n      0x24\n      dup3\n      add\n        /* \"#utility.yul\":2308:2338   */\n      mstore\n        /* \"#utility.yul\":2374:2408   */\n      0x50616e6a6f436f696e56657374696e673a2063616c6c6572206973206e6f7420\n        /* \"#utility.yul\":2354:2372   */\n      0x44\n      dup3\n      add\n        /* \"#utility.yul\":2347:2409   */\n      mstore\n      shl(0x88, 0x7468652062656e6566696369617279)\n        /* \"#utility.yul\":2425:2443   */\n      0x64\n      dup3\n      add\n        /* \"#utility.yul\":2418:2463   */\n      mstore\n        /* \"#utility.yul\":2480:2499   */\n      0x84\n      add\n        /* \"Smart-Contracts/PNJC_Vesting+Cliff.sol\":13264:13349  require(msg.sender == beneficiary, \"PanjoCoinVesting: caller is not the beneficiary\") */\n    tag_97:\n      mload(0x40)\n      dup1\n      swap2\n      sub\n      swap1\n      revert\n    tag_96:\n        /* \"Smart-Contracts/PNJC_Vesting+Cliff.sol\":13409:13423  uint256 amount */\n      0x00\n        /* \"Smart-Contracts/PNJC_Vesting+Cliff.sol\":13426:13438  releasable() */\n      tag_99\n        /* \"Smart-Contracts/PNJC_Vesting+Cliff.sol\":13426:13436  releasable */\n      tag_71\n        /* \"Smart-Contracts/PNJC_Vesting+Cliff.sol\":13426:13438  releasable() */\n      jump\t// in\n    tag_99:\n        /* \"Smart-Contracts/PNJC_Vesting+Cliff.sol\":13409:13438  uint256 amount = releasable() */\n      swap1\n      pop\n        /* \"Smart-Contracts/PNJC_Vesting+Cliff.sol\":13466:13467  0 */\n      0x00\n        /* \"Smart-Contracts/PNJC_Vesting+Cliff.sol\":13457:13463  amount */\n      dup2\n        /* \"Smart-Contracts/PNJC_Vesting+Cliff.sol\":13457:13467  amount > 0 */\n      gt\n        /* \"Smart-Contracts/PNJC_Vesting+Cliff.sol\":13449:13518  require(amount > 0, \"PanjoCoinVesting: no tokens available to claim\") */\n      tag_100\n      jumpi\n      mload(0x40)\n      shl(0xe5, 0x461bcd)\n      dup2\n      mstore\n        /* \"#utility.yul\":2712:2714   */\n      0x20\n        /* \"Smart-Contracts/PNJC_Vesting+Cliff.sol\":13449:13518  require(amount > 0, \"PanjoCoinVesting: no tokens available to claim\") */\n      0x04\n      dup3\n      add\n        /* \"#utility.yul\":2694:2715   */\n      mstore\n        /* \"#utility.yul\":2751:2753   */\n      0x2e\n        /* \"#utility.yul\":2731:2749   */\n      0x24\n      dup3\n      add\n        /* \"#utility.yul\":2724:2754   */\n      mstore\n        /* \"#utility.yul\":2790:2824   */\n      0x50616e6a6f436f696e56657374696e673a206e6f20746f6b656e732061766169\n        /* \"#utility.yul\":2770:2788   */\n      0x44\n      dup3\n      add\n        /* \"#utility.yul\":2763:2825   */\n      mstore\n      shl(0x90, 0x6c61626c6520746f20636c61696d)\n        /* \"#utility.yul\":2841:2859   */\n      0x64\n      dup3\n      add\n        /* \"#utility.yul\":2834:2878   */\n      mstore\n        /* \"#utility.yul\":2895:2914   */\n      0x84\n      add\n        /* \"Smart-Contracts/PNJC_Vesting+Cliff.sol\":13449:13518  require(amount > 0, \"PanjoCoinVesting: no tokens available to claim\") */\n      tag_97\n        /* \"#utility.yul\":2510:2920   */\n      jump\n        /* \"Smart-Contracts/PNJC_Vesting+Cliff.sol\":13449:13518  require(amount > 0, \"PanjoCoinVesting: no tokens available to claim\") */\n    tag_100:\n        /* \"Smart-Contracts/PNJC_Vesting+Cliff.sol\":13625:13631  amount */\n      dup1\n        /* \"Smart-Contracts/PNJC_Vesting+Cliff.sol\":13613:13621  released */\n      0x01\n      0x00\n        /* \"Smart-Contracts/PNJC_Vesting+Cliff.sol\":13613:13631  released += amount */\n      dup3\n      dup3\n      sload\n      tag_103\n      swap2\n      swap1\n      tag_85\n      jump\t// in\n    tag_103:\n      swap1\n      swap2\n      sstore\n      pop\n        /* \"Smart-Contracts/PNJC_Vesting+Cliff.sol\":13699:13738  token.safeTransfer(beneficiary, amount) */\n      tag_104\n      swap1\n      pop\n      sub(shl(0xa0, 0x01), 0x01)\n        /* \"Smart-Contracts/PNJC_Vesting+Cliff.sol\":13699:13704  token */\n      immutable(\"0x2cb91fc5071ce68ef9b5c3d22f907d3713bf81a6de447784d50617a233aa6c29\")\n        /* \"Smart-Contracts/PNJC_Vesting+Cliff.sol\":13699:13717  token.safeTransfer */\n      and\n        /* \"Smart-Contracts/PNJC_Vesting+Cliff.sol\":13718:13729  beneficiary */\n      immutable(\"0x660f1ef9e3e1418f1b6266ae4066b343713b2e7ef8c7065c7ae6ce5ccded547b\")\n        /* \"Smart-Contracts/PNJC_Vesting+Cliff.sol\":13731:13737  amount */\n      dup4\n        /* \"Smart-Contracts/PNJC_Vesting+Cliff.sol\":13699:13717  token.safeTransfer */\n      tag_105\n        /* \"Smart-Contracts/PNJC_Vesting+Cliff.sol\":13699:13738  token.safeTransfer(beneficiary, amount) */\n      jump\t// in\n    tag_104:\n        /* \"Smart-Contracts/PNJC_Vesting+Cliff.sol\":13825:13836  beneficiary */\n      immutable(\"0x660f1ef9e3e1418f1b6266ae4066b343713b2e7ef8c7065c7ae6ce5ccded547b\")\n      sub(shl(0xa0, 0x01), 0x01)\n        /* \"Smart-Contracts/PNJC_Vesting+Cliff.sol\":13810:13845  TokensReleased(beneficiary, amount) */\n      and\n      0xc7798891864187665ac6dd119286e44ec13f014527aeeb2b8eb3fd413df93179\n        /* \"Smart-Contracts/PNJC_Vesting+Cliff.sol\":13838:13844  amount */\n      dup3\n        /* \"Smart-Contracts/PNJC_Vesting+Cliff.sol\":13810:13845  TokensReleased(beneficiary, amount) */\n      mload(0x40)\n      tag_106\n      swap2\n        /* \"#utility.yul\":160:185   */\n      dup2\n      mstore\n        /* \"#utility.yul\":148:150   */\n      0x20\n        /* \"#utility.yul\":133:151   */\n      add\n      swap1\n        /* \"#utility.yul\":14:191   */\n      jump\n        /* \"Smart-Contracts/PNJC_Vesting+Cliff.sol\":13810:13845  TokensReleased(beneficiary, amount) */\n    tag_106:\n      mload(0x40)\n      dup1\n      swap2\n      sub\n      swap1\n      log2\n        /* \"Smart-Contracts/PNJC_Vesting+Cliff.sol\":13197:13853  {... */\n      pop\n        /* \"@openzeppelin/contracts@5.6.0/utils/ReentrancyGuard.sol\":3065:3085  _nonReentrantAfter() */\n      tag_107\n        /* \"@openzeppelin/contracts@5.6.0/utils/ReentrancyGuard.sol\":2365:2366  1 */\n      0x01\n      0x00\n      dup1\n      mload\n      0x20\n      data_c8669cf8eaf883002b9f48e28846a8d408c9b58ea6613bace374265e43c9bc43\n      dup4\n      codecopy\n      dup2\n      mload\n      swap2\n      mstore\n        /* \"@openzeppelin/contracts@5.6.0/utils/ReentrancyGuard.sol\":3972:4034  _reentrancyGuardStorageSlot().getUint256Slot().value = ENTERED */\n      sstore\n        /* \"@openzeppelin/contracts@5.6.0/utils/ReentrancyGuard.sol\":3749:4041  function _nonReentrantBefore() private {... */\n      jump\n        /* \"@openzeppelin/contracts@5.6.0/utils/ReentrancyGuard.sol\":3065:3085  _nonReentrantAfter() */\n    tag_107:\n        /* \"Smart-Contracts/PNJC_Vesting+Cliff.sol\":13158:13853  function claim() external nonReentrant {... */\n      jump\t// out\n        /* \"Smart-Contracts/PNJC_Vesting+Cliff.sol\":11784:11902  function getContractBalance() external view returns (uint256) {... */\n    tag_49:\n        /* \"Smart-Contracts/PNJC_Vesting+Cliff.sol\":11864:11894  token.balanceOf(address(this)) */\n      mload(0x40)\n      shl(0xe0, 0x70a08231)\n      dup2\n      mstore\n        /* \"Smart-Contracts/PNJC_Vesting+Cliff.sol\":11888:11892  this */\n      address\n        /* \"Smart-Contracts/PNJC_Vesting+Cliff.sol\":11864:11894  token.balanceOf(address(this)) */\n      0x04\n      dup3\n      add\n        /* \"#utility.yul\":342:393   */\n      mstore\n        /* \"Smart-Contracts/PNJC_Vesting+Cliff.sol\":11837:11844  uint256 */\n      0x00\n      swap1\n        /* \"Smart-Contracts/PNJC_Vesting+Cliff.sol\":11864:11869  token */\n      immutable(\"0x2cb91fc5071ce68ef9b5c3d22f907d3713bf81a6de447784d50617a233aa6c29\")\n      sub(shl(0xa0, 0x01), 0x01)\n        /* \"Smart-Contracts/PNJC_Vesting+Cliff.sol\":11864:11879  token.balanceOf */\n      and\n      swap1\n      0x70a08231\n      swap1\n        /* \"#utility.yul\":315:333   */\n      0x24\n      add\n        /* \"Smart-Contracts/PNJC_Vesting+Cliff.sol\":11864:11894  token.balanceOf(address(this)) */\n      0x20\n      mload(0x40)\n      dup1\n      dup4\n      sub\n      dup2\n      dup7\n      gas\n      staticcall\n      iszero\n      dup1\n      iszero\n      tag_112\n      jumpi\n      returndatasize\n      0x00\n      dup1\n      returndatacopy\n      revert(0x00, returndatasize)\n    tag_112:\n      pop\n      pop\n      pop\n      pop\n      mload(0x40)\n      returndatasize\n      not(0x1f)\n      0x1f\n      dup3\n      add\n      and\n      dup3\n      add\n      dup1\n      0x40\n      mstore\n      pop\n      dup2\n      add\n      swap1\n      tag_80\n      swap2\n      swap1\n      tag_114\n      jump\t// in\n        /* \"Smart-Contracts/PNJC_Vesting+Cliff.sol\":14842:15473  function emergencyWithdraw(IERC20 _otherToken) external onlyOwner nonReentrant {... */\n    tag_54:\n        /* \"@openzeppelin/contracts@5.6.0/access/Ownable.sol\":1531:1544  _checkOwner() */\n      tag_116\n        /* \"@openzeppelin/contracts@5.6.0/access/Ownable.sol\":1531:1542  _checkOwner */\n      tag_117\n        /* \"@openzeppelin/contracts@5.6.0/access/Ownable.sol\":1531:1544  _checkOwner() */\n      jump\t// in\n    tag_116:\n        /* \"@openzeppelin/contracts@5.6.0/utils/ReentrancyGuard.sol\":3023:3044  _nonReentrantBefore() */\n      tag_119\n        /* \"@openzeppelin/contracts@5.6.0/utils/ReentrancyGuard.sol\":3023:3042  _nonReentrantBefore */\n      tag_94\n        /* \"@openzeppelin/contracts@5.6.0/utils/ReentrancyGuard.sol\":3023:3044  _nonReentrantBefore() */\n      jump\t// in\n    tag_119:\n        /* \"Smart-Contracts/PNJC_Vesting+Cliff.sol\":15038:15043  token */\n      immutable(\"0x2cb91fc5071ce68ef9b5c3d22f907d3713bf81a6de447784d50617a233aa6c29\")\n      sub(shl(0xa0, 0x01), 0x01)\n        /* \"Smart-Contracts/PNJC_Vesting+Cliff.sol\":15006:15044  address(_otherToken) != address(token) */\n      and\n        /* \"Smart-Contracts/PNJC_Vesting+Cliff.sol\":15014:15025  _otherToken */\n      dup2\n      sub(shl(0xa0, 0x01), 0x01)\n        /* \"Smart-Contracts/PNJC_Vesting+Cliff.sol\":15006:15044  address(_otherToken) != address(token) */\n      and\n      sub\n        /* \"Smart-Contracts/PNJC_Vesting+Cliff.sol\":14998:15099  require(address(_otherToken) != address(token), \"PanjoCoinVesting: cannot withdraw the vested token\") */\n      tag_121\n      jumpi\n      mload(0x40)\n      shl(0xe5, 0x461bcd)\n      dup2\n      mstore\n        /* \"#utility.yul\":3316:3318   */\n      0x20\n        /* \"Smart-Contracts/PNJC_Vesting+Cliff.sol\":14998:15099  require(address(_otherToken) != address(token), \"PanjoCoinVesting: cannot withdraw the vested token\") */\n      0x04\n      dup3\n      add\n        /* \"#utility.yul\":3298:3319   */\n      mstore\n        /* \"#utility.yul\":3355:3357   */\n      0x32\n        /* \"#utility.yul\":3335:3353   */\n      0x24\n      dup3\n      add\n        /* \"#utility.yul\":3328:3358   */\n      mstore\n        /* \"#utility.yul\":3394:3428   */\n      0x50616e6a6f436f696e56657374696e673a2063616e6e6f742077697468647261\n        /* \"#utility.yul\":3374:3392   */\n      0x44\n      dup3\n      add\n        /* \"#utility.yul\":3367:3429   */\n      mstore\n      shl(0x71, 0x3b903a3432903b32b9ba32b2103a37b5b2b7)\n        /* \"#utility.yul\":3445:3463   */\n      0x64\n      dup3\n      add\n        /* \"#utility.yul\":3438:3486   */\n      mstore\n        /* \"#utility.yul\":3503:3522   */\n      0x84\n      add\n        /* \"Smart-Contracts/PNJC_Vesting+Cliff.sol\":14998:15099  require(address(_otherToken) != address(token), \"PanjoCoinVesting: cannot withdraw the vested token\") */\n      tag_97\n        /* \"#utility.yul\":3114:3528   */\n      jump\n        /* \"Smart-Contracts/PNJC_Vesting+Cliff.sol\":14998:15099  require(address(_otherToken) != address(token), \"PanjoCoinVesting: cannot withdraw the vested token\") */\n    tag_121:\n        /* \"Smart-Contracts/PNJC_Vesting+Cliff.sol\":15138:15174  _otherToken.balanceOf(address(this)) */\n      mload(0x40)\n      shl(0xe0, 0x70a08231)\n      dup2\n      mstore\n        /* \"Smart-Contracts/PNJC_Vesting+Cliff.sol\":15168:15172  this */\n      address\n        /* \"Smart-Contracts/PNJC_Vesting+Cliff.sol\":15138:15174  _otherToken.balanceOf(address(this)) */\n      0x04\n      dup3\n      add\n        /* \"#utility.yul\":342:393   */\n      mstore\n        /* \"Smart-Contracts/PNJC_Vesting+Cliff.sol\":15120:15135  uint256 balance */\n      0x00\n      swap1\n      sub(shl(0xa0, 0x01), 0x01)\n        /* \"Smart-Contracts/PNJC_Vesting+Cliff.sol\":15138:15159  _otherToken.balanceOf */\n      dup4\n      and\n      swap1\n      0x70a08231\n      swap1\n        /* \"#utility.yul\":315:333   */\n      0x24\n      add\n        /* \"Smart-Contracts/PNJC_Vesting+Cliff.sol\":15138:15174  _otherToken.balanceOf(address(this)) */\n      0x20\n      mload(0x40)\n      dup1\n      dup4\n      sub\n      dup2\n      dup7\n      gas\n      staticcall\n      iszero\n      dup1\n      iszero\n      tag_126\n      jumpi\n      returndatasize\n      0x00\n      dup1\n      returndatacopy\n      revert(0x00, returndatasize)\n    tag_126:\n      pop\n      pop\n      pop\n      pop\n      mload(0x40)\n      returndatasize\n      not(0x1f)\n      0x1f\n      dup3\n      add\n      and\n      dup3\n      add\n      dup1\n      0x40\n      mstore\n      pop\n      dup2\n      add\n      swap1\n      tag_127\n      swap2\n      swap1\n      tag_114\n      jump\t// in\n    tag_127:\n        /* \"Smart-Contracts/PNJC_Vesting+Cliff.sol\":15120:15174  uint256 balance = _otherToken.balanceOf(address(this)) */\n      swap1\n      pop\n        /* \"Smart-Contracts/PNJC_Vesting+Cliff.sol\":15203:15204  0 */\n      0x00\n        /* \"Smart-Contracts/PNJC_Vesting+Cliff.sol\":15193:15200  balance */\n      dup2\n        /* \"Smart-Contracts/PNJC_Vesting+Cliff.sol\":15193:15204  balance > 0 */\n      gt\n        /* \"Smart-Contracts/PNJC_Vesting+Cliff.sol\":15185:15249  require(balance > 0, \"PanjoCoinVesting: no balance to withdraw\") */\n      tag_128\n      jumpi\n      mload(0x40)\n      shl(0xe5, 0x461bcd)\n      dup2\n      mstore\n        /* \"#utility.yul\":3735:3737   */\n      0x20\n        /* \"Smart-Contracts/PNJC_Vesting+Cliff.sol\":15185:15249  require(balance > 0, \"PanjoCoinVesting: no balance to withdraw\") */\n      0x04\n      dup3\n      add\n        /* \"#utility.yul\":3717:3738   */\n      mstore\n        /* \"#utility.yul\":3774:3776   */\n      0x28\n        /* \"#utility.yul\":3754:3772   */\n      0x24\n      dup3\n      add\n        /* \"#utility.yul\":3747:3777   */\n      mstore\n        /* \"#utility.yul\":3813:3847   */\n      0x50616e6a6f436f696e56657374696e673a206e6f2062616c616e636520746f20\n        /* \"#utility.yul\":3793:3811   */\n      0x44\n      dup3\n      add\n        /* \"#utility.yul\":3786:3848   */\n      mstore\n      shl(0xc0, 0x7769746864726177)\n        /* \"#utility.yul\":3864:3882   */\n      0x64\n      dup3\n      add\n        /* \"#utility.yul\":3857:3895   */\n      mstore\n        /* \"#utility.yul\":3912:3931   */\n      0x84\n      add\n        /* \"Smart-Contracts/PNJC_Vesting+Cliff.sol\":15185:15249  require(balance > 0, \"PanjoCoinVesting: no balance to withdraw\") */\n      tag_97\n        /* \"#utility.yul\":3533:3937   */\n      jump\n        /* \"Smart-Contracts/PNJC_Vesting+Cliff.sol\":15185:15249  require(balance > 0, \"PanjoCoinVesting: no balance to withdraw\") */\n    tag_128:\n        /* \"Smart-Contracts/PNJC_Vesting+Cliff.sol\":15348:15390  _otherToken.safeTransfer(owner(), balance) */\n      tag_131\n        /* \"Smart-Contracts/PNJC_Vesting+Cliff.sol\":15373:15380  owner() */\n      tag_132\n        /* \"@openzeppelin/contracts@5.6.0/access/Ownable.sol\":1684:1691  address */\n      0x00\n        /* \"@openzeppelin/contracts@5.6.0/access/Ownable.sol\":1710:1716  _owner */\n      sload\n      sub(shl(0xa0, 0x01), 0x01)\n      and\n      swap1\n        /* \"@openzeppelin/contracts@5.6.0/access/Ownable.sol\":1638:1723  function owner() public view virtual returns (address) {... */\n      jump\n        /* \"Smart-Contracts/PNJC_Vesting+Cliff.sol\":15373:15380  owner() */\n    tag_132:\n      sub(shl(0xa0, 0x01), 0x01)\n        /* \"Smart-Contracts/PNJC_Vesting+Cliff.sol\":15348:15372  _otherToken.safeTransfer */\n      dup5\n      and\n      swap1\n        /* \"Smart-Contracts/PNJC_Vesting+Cliff.sol\":15382:15389  balance */\n      dup4\n        /* \"Smart-Contracts/PNJC_Vesting+Cliff.sol\":15348:15372  _otherToken.safeTransfer */\n      tag_105\n        /* \"Smart-Contracts/PNJC_Vesting+Cliff.sol\":15348:15390  _otherToken.safeTransfer(owner(), balance) */\n      jump\t// in\n    tag_131:\n        /* \"Smart-Contracts/PNJC_Vesting+Cliff.sol\":15443:15454  _otherToken */\n      dup2\n      sub(shl(0xa0, 0x01), 0x01)\n        /* \"Smart-Contracts/PNJC_Vesting+Cliff.sol\":15416:15465  EmergencyWithdrawn(address(_otherToken), balance) */\n      and\n      0x2e39961a70a10f4d46383948095ac2752b3ee642a7c76aa827410aaff08c2e51\n        /* \"Smart-Contracts/PNJC_Vesting+Cliff.sol\":15457:15464  balance */\n      dup3\n        /* \"Smart-Contracts/PNJC_Vesting+Cliff.sol\":15416:15465  EmergencyWithdrawn(address(_otherToken), balance) */\n      mload(0x40)\n      tag_133\n      swap2\n        /* \"#utility.yul\":160:185   */\n      dup2\n      mstore\n        /* \"#utility.yul\":148:150   */\n      0x20\n        /* \"#utility.yul\":133:151   */\n      add\n      swap1\n        /* \"#utility.yul\":14:191   */\n      jump\n        /* \"Smart-Contracts/PNJC_Vesting+Cliff.sol\":15416:15465  EmergencyWithdrawn(address(_otherToken), balance) */\n    tag_133:\n      mload(0x40)\n      dup1\n      swap2\n      sub\n      swap1\n      log2\n        /* \"Smart-Contracts/PNJC_Vesting+Cliff.sol\":14921:15473  {... */\n      pop\n        /* \"@openzeppelin/contracts@5.6.0/utils/ReentrancyGuard.sol\":3065:3085  _nonReentrantAfter() */\n      tag_134\n        /* \"@openzeppelin/contracts@5.6.0/utils/ReentrancyGuard.sol\":2365:2366  1 */\n      0x01\n      0x00\n      dup1\n      mload\n      0x20\n      data_c8669cf8eaf883002b9f48e28846a8d408c9b58ea6613bace374265e43c9bc43\n      dup4\n      codecopy\n      dup2\n      mload\n      swap2\n      mstore\n        /* \"@openzeppelin/contracts@5.6.0/utils/ReentrancyGuard.sol\":3972:4034  _reentrancyGuardStorageSlot().getUint256Slot().value = ENTERED */\n      sstore\n        /* \"@openzeppelin/contracts@5.6.0/utils/ReentrancyGuard.sol\":3749:4041  function _nonReentrantBefore() private {... */\n      jump\n        /* \"@openzeppelin/contracts@5.6.0/utils/ReentrancyGuard.sol\":3065:3085  _nonReentrantAfter() */\n    tag_134:\n        /* \"Smart-Contracts/PNJC_Vesting+Cliff.sol\":14842:15473  function emergencyWithdraw(IERC20 _otherToken) external onlyOwner nonReentrant {... */\n      pop\n      jump\t// out\n        /* \"@openzeppelin/contracts@5.6.0/access/Ownable.sol\":2293:2394  function renounceOwnership() public virtual onlyOwner {... */\n    tag_56:\n        /* \"@openzeppelin/contracts@5.6.0/access/Ownable.sol\":1531:1544  _checkOwner() */\n      tag_136\n        /* \"@openzeppelin/contracts@5.6.0/access/Ownable.sol\":1531:1542  _checkOwner */\n      tag_117\n        /* \"@openzeppelin/contracts@5.6.0/access/Ownable.sol\":1531:1544  _checkOwner() */\n      jump\t// in\n    tag_136:\n        /* \"@openzeppelin/contracts@5.6.0/access/Ownable.sol\":2357:2387  _transferOwnership(address(0)) */\n      tag_107\n        /* \"@openzeppelin/contracts@5.6.0/access/Ownable.sol\":2384:2385  0 */\n      0x00\n        /* \"@openzeppelin/contracts@5.6.0/access/Ownable.sol\":2357:2375  _transferOwnership */\n      tag_139\n        /* \"@openzeppelin/contracts@5.6.0/access/Ownable.sol\":2357:2387  _transferOwnership(address(0)) */\n      jump\t// in\n        /* \"@openzeppelin/contracts@5.6.0/access/Ownable.sol\":2543:2758  function transferOwnership(address newOwner) public virtual onlyOwner {... */\n    tag_69:\n        /* \"@openzeppelin/contracts@5.6.0/access/Ownable.sol\":1531:1544  _checkOwner() */\n      tag_142\n        /* \"@openzeppelin/contracts@5.6.0/access/Ownable.sol\":1531:1542  _checkOwner */\n      tag_117\n        /* \"@openzeppelin/contracts@5.6.0/access/Ownable.sol\":1531:1544  _checkOwner() */\n      jump\t// in\n    tag_142:\n      sub(shl(0xa0, 0x01), 0x01)\n        /* \"@openzeppelin/contracts@5.6.0/access/Ownable.sol\":2627:2649  newOwner == address(0) */\n      dup2\n      and\n        /* \"@openzeppelin/contracts@5.6.0/access/Ownable.sol\":2623:2714  if (newOwner == address(0)) {... */\n      tag_144\n      jumpi\n        /* \"@openzeppelin/contracts@5.6.0/access/Ownable.sol\":2672:2703  OwnableInvalidOwner(address(0)) */\n      mload(0x40)\n      shl(0xe0, 0x1e4fbdf7)\n      dup2\n      mstore\n        /* \"@openzeppelin/contracts@5.6.0/access/Ownable.sol\":2700:2701  0 */\n      0x00\n        /* \"@openzeppelin/contracts@5.6.0/access/Ownable.sol\":2672:2703  OwnableInvalidOwner(address(0)) */\n      0x04\n      dup3\n      add\n        /* \"#utility.yul\":342:393   */\n      mstore\n        /* \"#utility.yul\":315:333   */\n      0x24\n      add\n        /* \"@openzeppelin/contracts@5.6.0/access/Ownable.sol\":2672:2703  OwnableInvalidOwner(address(0)) */\n      tag_97\n        /* \"#utility.yul\":196:399   */\n      jump\n        /* \"@openzeppelin/contracts@5.6.0/access/Ownable.sol\":2623:2714  if (newOwner == address(0)) {... */\n    tag_144:\n        /* \"@openzeppelin/contracts@5.6.0/access/Ownable.sol\":2723:2751  _transferOwnership(newOwner) */\n      tag_134\n        /* \"@openzeppelin/contracts@5.6.0/access/Ownable.sol\":2742:2750  newOwner */\n      dup2\n        /* \"@openzeppelin/contracts@5.6.0/access/Ownable.sol\":2723:2741  _transferOwnership */\n      tag_139\n        /* \"@openzeppelin/contracts@5.6.0/access/Ownable.sol\":2723:2751  _transferOwnership(newOwner) */\n      jump\t// in\n        /* \"Smart-Contracts/PNJC_Vesting+Cliff.sol\":10924:11255  function releasable() public view returns (uint256) {... */\n    tag_71:\n        /* \"Smart-Contracts/PNJC_Vesting+Cliff.sol\":10967:10974  uint256 */\n      0x00\n        /* \"Smart-Contracts/PNJC_Vesting+Cliff.sol\":10987:11001  uint256 vested */\n      dup1\n        /* \"Smart-Contracts/PNJC_Vesting+Cliff.sol\":11004:11018  vestedAmount() */\n      tag_148\n        /* \"Smart-Contracts/PNJC_Vesting+Cliff.sol\":11004:11016  vestedAmount */\n      tag_44\n        /* \"Smart-Contracts/PNJC_Vesting+Cliff.sol\":11004:11018  vestedAmount() */\n      jump\t// in\n    tag_148:\n        /* \"Smart-Contracts/PNJC_Vesting+Cliff.sol\":11055:11063  released */\n      sload(0x01)\n        /* \"Smart-Contracts/PNJC_Vesting+Cliff.sol\":10987:11018  uint256 vested = vestedAmount() */\n      swap1\n      swap2\n      pop\n        /* \"Smart-Contracts/PNJC_Vesting+Cliff.sol\":11134:11159  vested <= alreadyReleased */\n      dup1\n      dup3\n      gt\n        /* \"Smart-Contracts/PNJC_Vesting+Cliff.sol\":11130:11196  if (vested <= alreadyReleased) {... */\n      tag_149\n      jumpi\n        /* \"Smart-Contracts/PNJC_Vesting+Cliff.sol\":11183:11184  0 */\n      0x00\n        /* \"Smart-Contracts/PNJC_Vesting+Cliff.sol\":11176:11184  return 0 */\n      swap3\n      pop\n      pop\n      pop\n        /* \"Smart-Contracts/PNJC_Vesting+Cliff.sol\":10924:11255  function releasable() public view returns (uint256) {... */\n      swap1\n      jump\t// out\n        /* \"Smart-Contracts/PNJC_Vesting+Cliff.sol\":11130:11196  if (vested <= alreadyReleased) {... */\n    tag_149:\n        /* \"Smart-Contracts/PNJC_Vesting+Cliff.sol\":11223:11247  vested - alreadyReleased */\n      tag_150\n        /* \"Smart-Contracts/PNJC_Vesting+Cliff.sol\":11232:11247  alreadyReleased */\n      dup2\n        /* \"Smart-Contracts/PNJC_Vesting+Cliff.sol\":11223:11229  vested */\n      dup4\n        /* \"Smart-Contracts/PNJC_Vesting+Cliff.sol\":11223:11247  vested - alreadyReleased */\n      tag_81\n      jump\t// in\n    tag_150:\n        /* \"Smart-Contracts/PNJC_Vesting+Cliff.sol\":11216:11247  return vested - alreadyReleased */\n      swap3\n      pop\n      pop\n      pop\n        /* \"Smart-Contracts/PNJC_Vesting+Cliff.sol\":10924:11255  function releasable() public view returns (uint256) {... */\n      swap1\n      jump\t// out\n        /* \"@openzeppelin/contracts@5.6.0/utils/ReentrancyGuard.sol\":3749:4041  function _nonReentrantBefore() private {... */\n    tag_94:\n        /* \"@openzeppelin/contracts@5.6.0/utils/ReentrancyGuard.sol\":3872:3897  _nonReentrantBeforeView() */\n      tag_152\n        /* \"@openzeppelin/contracts@5.6.0/utils/ReentrancyGuard.sol\":3872:3895  _nonReentrantBeforeView */\n      tag_153\n        /* \"@openzeppelin/contracts@5.6.0/utils/ReentrancyGuard.sol\":3872:3897  _nonReentrantBeforeView() */\n      jump\t// in\n    tag_152:\n        /* \"@openzeppelin/contracts@5.6.0/utils/ReentrancyGuard.sol\":2407:2408  2 */\n      0x02\n      0x00\n      dup1\n      mload\n      0x20\n      data_c8669cf8eaf883002b9f48e28846a8d408c9b58ea6613bace374265e43c9bc43\n      dup4\n      codecopy\n      dup2\n      mload\n      swap2\n      mstore\n        /* \"@openzeppelin/contracts@5.6.0/utils/ReentrancyGuard.sol\":3972:4034  _reentrancyGuardStorageSlot().getUint256Slot().value = ENTERED */\n      sstore\n        /* \"@openzeppelin/contracts@5.6.0/utils/ReentrancyGuard.sol\":3749:4041  function _nonReentrantBefore() private {... */\n      jump\t// out\n        /* \"@openzeppelin/contracts@5.6.0/token/ERC20/utils/SafeERC20.sol\":1219:1423  function safeTransfer(IERC20 token, address to, uint256 value) internal {... */\n    tag_105:\n        /* \"@openzeppelin/contracts@5.6.0/token/ERC20/utils/SafeERC20.sol\":1306:1343  _safeTransfer(token, to, value, true) */\n      tag_159\n        /* \"@openzeppelin/contracts@5.6.0/token/ERC20/utils/SafeERC20.sol\":1320:1325  token */\n      dup4\n        /* \"@openzeppelin/contracts@5.6.0/token/ERC20/utils/SafeERC20.sol\":1327:1329  to */\n      dup4\n        /* \"@openzeppelin/contracts@5.6.0/token/ERC20/utils/SafeERC20.sol\":1331:1336  value */\n      dup4\n        /* \"@openzeppelin/contracts@5.6.0/token/ERC20/utils/SafeERC20.sol\":1338:1342  true */\n      0x01\n        /* \"@openzeppelin/contracts@5.6.0/token/ERC20/utils/SafeERC20.sol\":1306:1319  _safeTransfer */\n      tag_160\n        /* \"@openzeppelin/contracts@5.6.0/token/ERC20/utils/SafeERC20.sol\":1306:1343  _safeTransfer(token, to, value, true) */\n      jump\t// in\n    tag_159:\n        /* \"@openzeppelin/contracts@5.6.0/token/ERC20/utils/SafeERC20.sol\":1301:1417  if (!_safeTransfer(token, to, value, true)) {... */\n      tag_161\n      jumpi\n        /* \"@openzeppelin/contracts@5.6.0/token/ERC20/utils/SafeERC20.sol\":1366:1406  SafeERC20FailedOperation(address(token)) */\n      mload(0x40)\n      shl(0xe0, 0x5274afe7)\n      dup2\n      mstore\n      sub(shl(0xa0, 0x01), 0x01)\n        /* \"#utility.yul\":360:392   */\n      dup5\n      and\n        /* \"@openzeppelin/contracts@5.6.0/token/ERC20/utils/SafeERC20.sol\":1366:1406  SafeERC20FailedOperation(address(token)) */\n      0x04\n      dup3\n      add\n        /* \"#utility.yul\":342:393   */\n      mstore\n        /* \"#utility.yul\":315:333   */\n      0x24\n      add\n        /* \"@openzeppelin/contracts@5.6.0/token/ERC20/utils/SafeERC20.sol\":1366:1406  SafeERC20FailedOperation(address(token)) */\n      tag_97\n        /* \"#utility.yul\":196:399   */\n      jump\n        /* \"@openzeppelin/contracts@5.6.0/token/ERC20/utils/SafeERC20.sol\":1301:1417  if (!_safeTransfer(token, to, value, true)) {... */\n    tag_161:\n        /* \"@openzeppelin/contracts@5.6.0/token/ERC20/utils/SafeERC20.sol\":1219:1423  function safeTransfer(IERC20 token, address to, uint256 value) internal {... */\n      pop\n      pop\n      pop\n      jump\t// out\n        /* \"@openzeppelin/contracts@5.6.0/access/Ownable.sol\":1796:1958  function _checkOwner() internal view virtual {... */\n    tag_117:\n        /* \"@openzeppelin/contracts@5.6.0/access/Ownable.sol\":1684:1691  address */\n      0x00\n        /* \"@openzeppelin/contracts@5.6.0/access/Ownable.sol\":1710:1716  _owner */\n      sload\n      sub(shl(0xa0, 0x01), 0x01)\n      and\n        /* \"@openzeppelin/contracts@5.6.0/utils/Context.sol\":735:745  msg.sender */\n      caller\n        /* \"@openzeppelin/contracts@5.6.0/access/Ownable.sol\":1855:1878  owner() != _msgSender() */\n      eq\n        /* \"@openzeppelin/contracts@5.6.0/access/Ownable.sol\":1851:1952  if (owner() != _msgSender()) {... */\n      tag_107\n      jumpi\n        /* \"@openzeppelin/contracts@5.6.0/access/Ownable.sol\":1901:1941  OwnableUnauthorizedAccount(_msgSender()) */\n      mload(0x40)\n      shl(0xe0, 0x118cdaa7)\n      dup2\n      mstore\n        /* \"@openzeppelin/contracts@5.6.0/utils/Context.sol\":735:745  msg.sender */\n      caller\n        /* \"@openzeppelin/contracts@5.6.0/access/Ownable.sol\":1901:1941  OwnableUnauthorizedAccount(_msgSender()) */\n      0x04\n      dup3\n      add\n        /* \"#utility.yul\":342:393   */\n      mstore\n        /* \"#utility.yul\":315:333   */\n      0x24\n      add\n        /* \"@openzeppelin/contracts@5.6.0/access/Ownable.sol\":1901:1941  OwnableUnauthorizedAccount(_msgSender()) */\n      tag_97\n        /* \"#utility.yul\":196:399   */\n      jump\n        /* \"@openzeppelin/contracts@5.6.0/access/Ownable.sol\":2912:3099  function _transferOwnership(address newOwner) internal virtual {... */\n    tag_139:\n        /* \"@openzeppelin/contracts@5.6.0/access/Ownable.sol\":2985:3001  address oldOwner */\n      0x00\n        /* \"@openzeppelin/contracts@5.6.0/access/Ownable.sol\":3004:3010  _owner */\n      dup1\n      sload\n      sub(shl(0xa0, 0x01), 0x01)\n        /* \"@openzeppelin/contracts@5.6.0/access/Ownable.sol\":3020:3037  _owner = newOwner */\n      dup4\n      dup2\n      and\n      not(sub(shl(0xa0, 0x01), 0x01))\n      dup4\n      and\n      dup2\n      or\n      dup5\n      sstore\n        /* \"@openzeppelin/contracts@5.6.0/access/Ownable.sol\":3052:3092  OwnershipTransferred(oldOwner, newOwner) */\n      mload(0x40)\n        /* \"@openzeppelin/contracts@5.6.0/access/Ownable.sol\":3004:3010  _owner */\n      swap2\n      swap1\n      swap3\n      and\n      swap3\n      dup4\n      swap2\n        /* \"@openzeppelin/contracts@5.6.0/access/Ownable.sol\":3052:3092  OwnershipTransferred(oldOwner, newOwner) */\n      0x8be0079c531659141344cd1fd0a4f28419497f9722a3daafe3b4186f6b6457e0\n      swap2\n        /* \"@openzeppelin/contracts@5.6.0/access/Ownable.sol\":2985:3001  address oldOwner */\n      swap1\n        /* \"@openzeppelin/contracts@5.6.0/access/Ownable.sol\":3052:3092  OwnershipTransferred(oldOwner, newOwner) */\n      log3\n        /* \"@openzeppelin/contracts@5.6.0/access/Ownable.sol\":2975:3099  {... */\n      pop\n        /* \"@openzeppelin/contracts@5.6.0/access/Ownable.sol\":2912:3099  function _transferOwnership(address newOwner) internal virtual {... */\n      pop\n      jump\t// out\n        /* \"@openzeppelin/contracts@5.6.0/utils/ReentrancyGuard.sol\":3586:3743  function _nonReentrantBeforeView() private view {... */\n    tag_153:\n      0x00\n      dup1\n      mload\n      0x20\n      data_c8669cf8eaf883002b9f48e28846a8d408c9b58ea6613bace374265e43c9bc43\n      dup4\n      codecopy\n      dup2\n      mload\n      swap2\n      mstore\n        /* \"@openzeppelin/contracts@5.6.0/utils/ReentrancyGuard.sol\":4560:4612  _reentrancyGuardStorageSlot().getUint256Slot().value */\n      sload\n        /* \"@openzeppelin/contracts@5.6.0/utils/ReentrancyGuard.sol\":2407:2408  2 */\n      0x02\n        /* \"@openzeppelin/contracts@5.6.0/utils/ReentrancyGuard.sol\":4560:4623  _reentrancyGuardStorageSlot().getUint256Slot().value == ENTERED */\n      sub\n        /* \"@openzeppelin/contracts@5.6.0/utils/ReentrancyGuard.sol\":3644:3737  if (_reentrancyGuardEntered()) {... */\n      tag_107\n      jumpi\n        /* \"@openzeppelin/contracts@5.6.0/utils/ReentrancyGuard.sol\":3696:3726  ReentrancyGuardReentrantCall() */\n      mload(0x40)\n      shl(0xe0, 0x3ee5aeb5)\n      dup2\n      mstore\n      0x04\n      add\n      mload(0x40)\n      dup1\n      swap2\n      sub\n      swap1\n      revert\n        /* \"@openzeppelin/contracts@5.6.0/token/ERC20/utils/SafeERC20.sol\":8373:9617  function _safeTransfer(IERC20 token, address to, uint256 value, bool bubble) private returns (bool success) {... */\n    tag_160:\n        /* \"@openzeppelin/contracts@5.6.0/token/ERC20/utils/SafeERC20.sol\":8600:8604  0x40 */\n      0x40\n        /* \"@openzeppelin/contracts@5.6.0/token/ERC20/utils/SafeERC20.sol\":8594:8605  mload(0x40) */\n      mload\n      shl(0xe0, 0xa9059cbb)\n        /* \"@openzeppelin/contracts@5.6.0/token/ERC20/utils/SafeERC20.sol\":8467:8479  bool success */\n      0x00\n        /* \"@openzeppelin/contracts@5.6.0/token/ERC20/utils/SafeERC20.sol\":8618:8640  mstore(0x00, selector) */\n      dup2\n      dup2\n      mstore\n      sub(shl(0xa0, 0x01), 0x01)\n        /* \"@openzeppelin/contracts@5.6.0/token/ERC20/utils/SafeERC20.sol\":8666:8690  and(to, shr(96, not(0))) */\n      dup7\n      and\n        /* \"@openzeppelin/contracts@5.6.0/token/ERC20/utils/SafeERC20.sol\":8660:8664  0x04 */\n      0x04\n        /* \"@openzeppelin/contracts@5.6.0/token/ERC20/utils/SafeERC20.sol\":8653:8691  mstore(0x04, and(to, shr(96, not(0)))) */\n      mstore\n        /* \"@openzeppelin/contracts@5.6.0/token/ERC20/utils/SafeERC20.sol\":8711:8715  0x24 */\n      0x24\n        /* \"@openzeppelin/contracts@5.6.0/token/ERC20/utils/SafeERC20.sol\":8704:8723  mstore(0x24, value) */\n      dup6\n      swap1\n      mstore\n        /* \"@openzeppelin/contracts@5.6.0/token/ERC20/utils/SafeERC20.sol\":8467:8479  bool success */\n      swap2\n        /* \"@openzeppelin/contracts@5.6.0/token/ERC20/utils/SafeERC20.sol\":8787:8791  0x20 */\n      0x20\n        /* \"@openzeppelin/contracts@5.6.0/token/ERC20/utils/SafeERC20.sol\":8467:8479  bool success */\n      dup4\n        /* \"@openzeppelin/contracts@5.6.0/token/ERC20/utils/SafeERC20.sol\":8775:8779  0x44 */\n      0x44\n        /* \"@openzeppelin/contracts@5.6.0/token/ERC20/utils/SafeERC20.sol\":8467:8479  bool success */\n      dup2\n      dup1\n        /* \"@openzeppelin/contracts@5.6.0/token/ERC20/utils/SafeERC20.sol\":8759:8764  token */\n      dup12\n        /* \"@openzeppelin/contracts@5.6.0/token/ERC20/utils/SafeERC20.sol\":8752:8757  gas() */\n      gas\n        /* \"@openzeppelin/contracts@5.6.0/token/ERC20/utils/SafeERC20.sol\":8747:8792  call(gas(), token, 0, 0x00, 0x44, 0x00, 0x20) */\n      call\n        /* \"@openzeppelin/contracts@5.6.0/token/ERC20/utils/SafeERC20.sol\":8736:8792  success := call(gas(), token, 0, 0x00, 0x44, 0x00, 0x20) */\n      swap3\n      pop\n        /* \"@openzeppelin/contracts@5.6.0/token/ERC20/utils/SafeERC20.sol\":9004:9005  1 */\n      0x01\n        /* \"@openzeppelin/contracts@5.6.0/token/ERC20/utils/SafeERC20.sol\":8997:9001  0x00 */\n      0x00\n        /* \"@openzeppelin/contracts@5.6.0/token/ERC20/utils/SafeERC20.sol\":8991:9002  mload(0x00) */\n      mload\n        /* \"@openzeppelin/contracts@5.6.0/token/ERC20/utils/SafeERC20.sol\":8988:9006  eq(mload(0x00), 1) */\n      eq\n        /* \"@openzeppelin/contracts@5.6.0/token/ERC20/utils/SafeERC20.sol\":8979:8986  success */\n      dup4\n        /* \"@openzeppelin/contracts@5.6.0/token/ERC20/utils/SafeERC20.sol\":8975:9007  and(success, eq(mload(0x00), 1)) */\n      and\n        /* \"@openzeppelin/contracts@5.6.0/token/ERC20/utils/SafeERC20.sol\":8965:9571  if iszero(and(success, eq(mload(0x00), 1))) {... */\n      tag_181\n      jumpi\n        /* \"@openzeppelin/contracts@5.6.0/token/ERC20/utils/SafeERC20.sol\":9136:9142  bubble */\n      dup4\n        /* \"@openzeppelin/contracts@5.6.0/token/ERC20/utils/SafeERC20.sol\":9126:9133  success */\n      dup4\n        /* \"@openzeppelin/contracts@5.6.0/token/ERC20/utils/SafeERC20.sol\":9119:9134  iszero(success) */\n      iszero\n        /* \"@openzeppelin/contracts@5.6.0/token/ERC20/utils/SafeERC20.sol\":9115:9143  and(iszero(success), bubble) */\n      and\n        /* \"@openzeppelin/contracts@5.6.0/token/ERC20/utils/SafeERC20.sol\":9112:9277  if and(iszero(success), bubble) {... */\n      iszero\n      tag_182\n      jumpi\n        /* \"@openzeppelin/contracts@5.6.0/token/ERC20/utils/SafeERC20.sol\":9192:9208  returndatasize() */\n      returndatasize\n        /* \"@openzeppelin/contracts@5.6.0/token/ERC20/utils/SafeERC20.sol\":9186:9190  0x00 */\n      0x00\n        /* \"@openzeppelin/contracts@5.6.0/token/ERC20/utils/SafeERC20.sol\":9181:9184  fmp */\n      dup3\n        /* \"@openzeppelin/contracts@5.6.0/token/ERC20/utils/SafeERC20.sol\":9166:9209  returndatacopy(fmp, 0x00, returndatasize()) */\n      returndatacopy\n        /* \"@openzeppelin/contracts@5.6.0/token/ERC20/utils/SafeERC20.sol\":9242:9258  returndatasize() */\n      returndatasize\n        /* \"@openzeppelin/contracts@5.6.0/token/ERC20/utils/SafeERC20.sol\":9237:9240  fmp */\n      dup2\n        /* \"@openzeppelin/contracts@5.6.0/token/ERC20/utils/SafeERC20.sol\":9230:9259  revert(fmp, returndatasize()) */\n      revert\n        /* \"@openzeppelin/contracts@5.6.0/token/ERC20/utils/SafeERC20.sol\":9112:9277  if and(iszero(success), bubble) {... */\n    tag_182:\n        /* \"@openzeppelin/contracts@5.6.0/token/ERC20/utils/SafeERC20.sol\":9553:9554  0 */\n      0x00\n        /* \"@openzeppelin/contracts@5.6.0/token/ERC20/utils/SafeERC20.sol\":9545:9550  token */\n      dup8\n        /* \"@openzeppelin/contracts@5.6.0/token/ERC20/utils/SafeERC20.sol\":9533:9551  extcodesize(token) */\n      extcodesize\n        /* \"@openzeppelin/contracts@5.6.0/token/ERC20/utils/SafeERC20.sol\":9530:9555  gt(extcodesize(token), 0) */\n      gt\n        /* \"@openzeppelin/contracts@5.6.0/token/ERC20/utils/SafeERC20.sol\":9511:9527  returndatasize() */\n      returndatasize\n        /* \"@openzeppelin/contracts@5.6.0/token/ERC20/utils/SafeERC20.sol\":9504:9528  iszero(returndatasize()) */\n      iszero\n        /* \"@openzeppelin/contracts@5.6.0/token/ERC20/utils/SafeERC20.sol\":9500:9556  and(iszero(returndatasize()), gt(extcodesize(token), 0)) */\n      and\n        /* \"@openzeppelin/contracts@5.6.0/token/ERC20/utils/SafeERC20.sol\":9491:9498  success */\n      dup4\n        /* \"@openzeppelin/contracts@5.6.0/token/ERC20/utils/SafeERC20.sol\":9487:9557  and(success, and(iszero(returndatasize()), gt(extcodesize(token), 0))) */\n      and\n        /* \"@openzeppelin/contracts@5.6.0/token/ERC20/utils/SafeERC20.sol\":9476:9557  success := and(success, and(iszero(returndatasize()), gt(extcodesize(token), 0))) */\n      swap3\n      pop\n        /* \"@openzeppelin/contracts@5.6.0/token/ERC20/utils/SafeERC20.sol\":8965:9571  if iszero(and(success, eq(mload(0x00), 1))) {... */\n    tag_181:\n        /* \"@openzeppelin/contracts@5.6.0/token/ERC20/utils/SafeERC20.sol\":9591:9595  0x40 */\n      0x40\n        /* \"@openzeppelin/contracts@5.6.0/token/ERC20/utils/SafeERC20.sol\":9584:9601  mstore(0x40, fmp) */\n      mstore\n      pop\n        /* \"@openzeppelin/contracts@5.6.0/token/ERC20/utils/SafeERC20.sol\":8373:9617  function _safeTransfer(IERC20 token, address to, uint256 value, bool bubble) private returns (bool success) {... */\n      swap5\n      swap4\n      pop\n      pop\n      pop\n      pop\n      jump\t// out\n        /* \"#utility.yul\":404:543   */\n    tag_187:\n      sub(shl(0xa0, 0x01), 0x01)\n        /* \"#utility.yul\":487:518   */\n      dup2\n      and\n        /* \"#utility.yul\":477:519   */\n      dup2\n      eq\n        /* \"#utility.yul\":467:537   */\n      tag_134\n      jumpi\n        /* \"#utility.yul\":533:534   */\n      0x00\n        /* \"#utility.yul\":530:531   */\n      dup1\n        /* \"#utility.yul\":523:535   */\n      revert\n        /* \"#utility.yul\":548:817   */\n    tag_53:\n        /* \"#utility.yul\":621:627   */\n      0x00\n        /* \"#utility.yul\":674:676   */\n      0x20\n        /* \"#utility.yul\":662:671   */\n      dup3\n        /* \"#utility.yul\":653:660   */\n      dup5\n        /* \"#utility.yul\":649:672   */\n      sub\n        /* \"#utility.yul\":645:677   */\n      slt\n        /* \"#utility.yul\":642:694   */\n      iszero\n      tag_195\n      jumpi\n        /* \"#utility.yul\":690:691   */\n      0x00\n        /* \"#utility.yul\":687:688   */\n      dup1\n        /* \"#utility.yul\":680:692   */\n      revert\n        /* \"#utility.yul\":642:694   */\n    tag_195:\n        /* \"#utility.yul\":729:738   */\n      dup2\n        /* \"#utility.yul\":716:739   */\n      calldataload\n        /* \"#utility.yul\":748:787   */\n      tag_196\n        /* \"#utility.yul\":781:786   */\n      dup2\n        /* \"#utility.yul\":748:787   */\n      tag_187\n      jump\t// in\n    tag_196:\n        /* \"#utility.yul\":806:811   */\n      swap4\n        /* \"#utility.yul\":548:817   */\n      swap3\n      pop\n      pop\n      pop\n      jump\t// out\n        /* \"#utility.yul\":1304:1431   */\n    tag_188:\n        /* \"#utility.yul\":1365:1375   */\n      0x4e487b71\n        /* \"#utility.yul\":1360:1363   */\n      0xe0\n        /* \"#utility.yul\":1356:1376   */\n      shl\n        /* \"#utility.yul\":1353:1354   */\n      0x00\n        /* \"#utility.yul\":1346:1377   */\n      mstore\n        /* \"#utility.yul\":1396:1400   */\n      0x11\n        /* \"#utility.yul\":1393:1394   */\n      0x04\n        /* \"#utility.yul\":1386:1401   */\n      mstore\n        /* \"#utility.yul\":1420:1424   */\n      0x24\n        /* \"#utility.yul\":1417:1418   */\n      0x00\n        /* \"#utility.yul\":1410:1425   */\n      revert\n        /* \"#utility.yul\":1436:1564   */\n    tag_81:\n        /* \"#utility.yul\":1503:1512   */\n      dup2\n      dup2\n      sub\n        /* \"#utility.yul\":1524:1535   */\n      dup2\n      dup2\n      gt\n        /* \"#utility.yul\":1521:1558   */\n      iszero\n      tag_204\n      jumpi\n        /* \"#utility.yul\":1538:1556   */\n      tag_204\n      tag_188\n      jump\t// in\n    tag_204:\n        /* \"#utility.yul\":1436:1564   */\n      swap3\n      swap2\n      pop\n      pop\n      jump\t// out\n        /* \"#utility.yul\":1569:1694   */\n    tag_85:\n        /* \"#utility.yul\":1634:1643   */\n      dup1\n      dup3\n      add\n        /* \"#utility.yul\":1655:1665   */\n      dup1\n      dup3\n      gt\n        /* \"#utility.yul\":1652:1688   */\n      iszero\n      tag_204\n      jumpi\n        /* \"#utility.yul\":1668:1686   */\n      tag_204\n      tag_188\n      jump\t// in\n        /* \"#utility.yul\":1699:1867   */\n    tag_89:\n        /* \"#utility.yul\":1772:1781   */\n      dup1\n      dup3\n      mul\n        /* \"#utility.yul\":1803:1812   */\n      dup2\n      iszero\n        /* \"#utility.yul\":1820:1835   */\n      dup3\n      dup3\n      div\n        /* \"#utility.yul\":1814:1836   */\n      dup5\n      eq\n        /* \"#utility.yul\":1800:1837   */\n      or\n        /* \"#utility.yul\":1790:1861   */\n      tag_204\n      jumpi\n        /* \"#utility.yul\":1841:1859   */\n      tag_204\n      tag_188\n      jump\t// in\n        /* \"#utility.yul\":1872:2089   */\n    tag_91:\n        /* \"#utility.yul\":1912:1913   */\n      0x00\n        /* \"#utility.yul\":1938:1939   */\n      dup3\n        /* \"#utility.yul\":1928:2060   */\n      tag_212\n      jumpi\n        /* \"#utility.yul\":1982:1992   */\n      0x4e487b71\n        /* \"#utility.yul\":1977:1980   */\n      0xe0\n        /* \"#utility.yul\":1973:1993   */\n      shl\n        /* \"#utility.yul\":1970:1971   */\n      0x00\n        /* \"#utility.yul\":1963:1994   */\n      mstore\n        /* \"#utility.yul\":2017:2021   */\n      0x12\n        /* \"#utility.yul\":2014:2015   */\n      0x04\n        /* \"#utility.yul\":2007:2022   */\n      mstore\n        /* \"#utility.yul\":2045:2049   */\n      0x24\n        /* \"#utility.yul\":2042:2043   */\n      0x00\n        /* \"#utility.yul\":2035:2050   */\n      revert\n        /* \"#utility.yul\":1928:2060   */\n    tag_212:\n      pop\n        /* \"#utility.yul\":2074:2083   */\n      div\n      swap1\n        /* \"#utility.yul\":1872:2089   */\n      jump\t// out\n        /* \"#utility.yul\":2925:3109   */\n    tag_114:\n        /* \"#utility.yul\":2995:3001   */\n      0x00\n        /* \"#utility.yul\":3048:3050   */\n      0x20\n        /* \"#utility.yul\":3036:3045   */\n      dup3\n        /* \"#utility.yul\":3027:3034   */\n      dup5\n        /* \"#utility.yul\":3023:3046   */\n      sub\n        /* \"#utility.yul\":3019:3051   */\n      slt\n        /* \"#utility.yul\":3016:3068   */\n      iszero\n      tag_216\n      jumpi\n        /* \"#utility.yul\":3064:3065   */\n      0x00\n        /* \"#utility.yul\":3061:3062   */\n      dup1\n        /* \"#utility.yul\":3054:3066   */\n      revert\n        /* \"#utility.yul\":3016:3068   */\n    tag_216:\n      pop\n        /* \"#utility.yul\":3087:3103   */\n      mload\n      swap2\n        /* \"#utility.yul\":2925:3109   */\n      swap1\n      pop\n      jump\t// out\n    stop\n    data_c8669cf8eaf883002b9f48e28846a8d408c9b58ea6613bace374265e43c9bc43 9b779b17422d0df92223018b32b4d1fa46e071723d6817e2486d003becc55f00\n\n    auxdata: 0xa2646970667358221220bd1dc8625cfea139725438028c8b5a210771eafd295dbc42f41031106428882664736f6c63430008180033\n}\n",
				"bytecode": {
					"linkReferences": {},
					"object": "61014060405234801562000011575f80fd5b5060405162001071380380620010718339810160408190526200003491620003d7565b33806200005b57604051631e4fbdf760e01b81525f60048201526024015b60405180910390fd5b6200006681620002c1565b5060017f9b779b17422d0df92223018b32b4d1fa46e071723d6817e2486d003becc55f00556001600160a01b038616620001095760405162461bcd60e51b815260206004820152603460248201527f50616e6a6f436f696e56657374696e673a2062656e656669636961727920636160448201527f6e6e6f74206265207a65726f2061646472657373000000000000000000000000606482015260840162000052565b6001600160a01b038516620001785760405162461bcd60e51b815260206004820152602e60248201527f50616e6a6f436f696e56657374696e673a20746f6b656e2063616e6e6f74206260448201526d65207a65726f206164647265737360901b606482015260840162000052565b5f8411620001ef5760405162461bcd60e51b815260206004820152603560248201527f50616e6a6f436f696e56657374696e673a20746f74616c20616d6f756e74206d60448201527f7573742062652067726561746572207468616e20300000000000000000000000606482015260840162000052565b80821115620002675760405162461bcd60e51b815260206004820152603f60248201527f50616e6a6f436f696e56657374696e673a20636c696666206475726174696f6e60448201527f2063616e6e6f74206578636565642076657374696e67206475726174696f6e00606482015260840162000052565b5f62000274838562000436565b6001600160a01b03808916608052871660a081905261012087905260c086905260e08290526101008490525f600155909150620002b49033308862000310565b505050505050506200045c565b5f80546001600160a01b038381166001600160a01b0319831681178455604051919092169283917f8be0079c531659141344cd1fd0a4f28419497f9722a3daafe3b4186f6b6457e09190a35050565b6200032084848484600162000350565b6200034a57604051635274afe760e01b81526001600160a01b038516600482015260240162000052565b50505050565b6040516323b872dd60e01b5f8181526001600160a01b038781166004528616602452604485905291602083606481808c5af1925060015f51148316620003ae578383151615620003a2573d5f823e3d81fd5b5f883b113d1516831692505b604052505f60605295945050505050565b6001600160a01b0381168114620003d4575f80fd5b50565b5f805f805f8060c08789031215620003ed575f80fd5b8651620003fa81620003bf565b60208801519096506200040d81620003bf565b6040880151606089015160808a015160a0909a0151989b929a5090989097909650945092505050565b808201808211156200045657634e487b7160e01b5f52601160045260245ffd5b92915050565b60805160a05160c05160e0516101005161012051610b6b620005065f395f8181610170015281816102a50152818161035101526103cb01525f81816101490152818161030401526103a601525f818161010f015281816102d2015261037c01525f8181610232015261032501525f8181610274015281816105330152818161060d015261069001525f81816101a50152818161041401528181610555015261057c0152610b6b5ff3fe608060405234801561000f575f80fd5b5060043610610106575f3560e01c80636f9fb98a1161009e578063961325211161006e5780639613252114610224578063be9a65551461022d578063f2fde38b14610254578063fbccedae14610267578063fc0c546a1461026f575f80fd5b80636f9fb98a146101f15780636ff1c9bc146101f9578063715018a61461020c5780638da5cb5b14610214575f80fd5b80633317bbcc116100d95780633317bbcc1461019857806338af3eed146101a057806344b1231f146101df5780634e71d92d146101e7575f80fd5b806313d033c01461010a5780631514617e146101445780631a39d8ef1461016b57806329cb924d14610192575b5f80fd5b6101317f000000000000000000000000000000000000000000000000000000000000000081565b6040519081526020015b60405180910390f35b6101317f000000000000000000000000000000000000000000000000000000000000000081565b6101317f000000000000000000000000000000000000000000000000000000000000000081565b42610131565b610131610296565b6101c77f000000000000000000000000000000000000000000000000000000000000000081565b6040516001600160a01b03909116815260200161013b565b6101316102ce565b6101ef610401565b005b6101316105f6565b6101ef610207366004610a66565b61067e565b6101ef610876565b5f546001600160a01b03166101c7565b61013160015481565b6101317f000000000000000000000000000000000000000000000000000000000000000081565b6101ef610262366004610a66565b610887565b6101316108c1565b6101c77f000000000000000000000000000000000000000000000000000000000000000081565b5f61029f6102ce565b6102c9907f0000000000000000000000000000000000000000000000000000000000000000610a9c565b905090565b5f427f00000000000000000000000000000000000000000000000000000000000000008110156102ff575f91505090565b6103497f00000000000000000000000000000000000000000000000000000000000000007f0000000000000000000000000000000000000000000000000000000000000000610ab5565b8110610376577f000000000000000000000000000000000000000000000000000000000000000091505090565b5f6103a17f000000000000000000000000000000000000000000000000000000000000000083610a9c565b90505f7f00000000000000000000000000000000000000000000000000000000000000006103ef837f0000000000000000000000000000000000000000000000000000000000000000610ac8565b6103f99190610adf565b949350505050565b6104096108f1565b336001600160a01b037f0000000000000000000000000000000000000000000000000000000000000000161461049e5760405162461bcd60e51b815260206004820152602f60248201527f50616e6a6f436f696e56657374696e673a2063616c6c6572206973206e6f742060448201526e7468652062656e656669636961727960881b60648201526084015b60405180910390fd5b5f6104a76108c1565b90505f811161050f5760405162461bcd60e51b815260206004820152602e60248201527f50616e6a6f436f696e56657374696e673a206e6f20746f6b656e73206176616960448201526d6c61626c6520746f20636c61696d60901b6064820152608401610495565b8060015f8282546105209190610ab5565b9091555061057a90506001600160a01b037f0000000000000000000000000000000000000000000000000000000000000000167f00000000000000000000000000000000000000000000000000000000000000008361090c565b7f00000000000000000000000000000000000000000000000000000000000000006001600160a01b03167fc7798891864187665ac6dd119286e44ec13f014527aeeb2b8eb3fd413df93179826040516105d591815260200190565b60405180910390a2506105f460015f80516020610b1683398151915255565b565b6040516370a0823160e01b81523060048201525f907f00000000000000000000000000000000000000000000000000000000000000006001600160a01b0316906370a0823190602401602060405180830381865afa15801561065a573d5f803e3d5ffd5b505050506040513d601f19601f820116820180604052508101906102c99190610afe565b610686610946565b61068e6108f1565b7f00000000000000000000000000000000000000000000000000000000000000006001600160a01b0316816001600160a01b03160361072a5760405162461bcd60e51b815260206004820152603260248201527f50616e6a6f436f696e56657374696e673a2063616e6e6f7420776974686472616044820152713b903a3432903b32b9ba32b2103a37b5b2b760711b6064820152608401610495565b6040516370a0823160e01b81523060048201525f906001600160a01b038316906370a0823190602401602060405180830381865afa15801561076e573d5f803e3d5ffd5b505050506040513d601f19601f820116820180604052508101906107929190610afe565b90505f81116107f45760405162461bcd60e51b815260206004820152602860248201527f50616e6a6f436f696e56657374696e673a206e6f2062616c616e636520746f20604482015267776974686472617760c01b6064820152608401610495565b6108196108085f546001600160a01b031690565b6001600160a01b038416908361090c565b816001600160a01b03167f2e39961a70a10f4d46383948095ac2752b3ee642a7c76aa827410aaff08c2e518260405161085491815260200190565b60405180910390a25061087360015f80516020610b1683398151915255565b50565b61087e610946565b6105f45f610972565b61088f610946565b6001600160a01b0381166108b857604051631e4fbdf760e01b81525f6004820152602401610495565b61087381610972565b5f806108cb6102ce565b6001549091508082116108e0575f9250505090565b6108ea8183610a9c565b9250505090565b6108f96109c1565b60025f80516020610b1683398151915255565b61091983838360016109f0565b61094157604051635274afe760e01b81526001600160a01b0384166004820152602401610495565b505050565b5f546001600160a01b031633146105f45760405163118cdaa760e01b8152336004820152602401610495565b5f80546001600160a01b038381166001600160a01b0319831681178455604051919092169283917f8be0079c531659141344cd1fd0a4f28419497f9722a3daafe3b4186f6b6457e09190a35050565b5f80516020610b16833981519152546002036105f457604051633ee5aeb560e01b815260040160405180910390fd5b60405163a9059cbb60e01b5f8181526001600160a01b038616600452602485905291602083604481808b5af1925060015f51148316610a46578383151615610a3a573d5f823e3d81fd5b5f873b113d1516831692505b60405250949350505050565b6001600160a01b0381168114610873575f80fd5b5f60208284031215610a76575f80fd5b8135610a8181610a52565b9392505050565b634e487b7160e01b5f52601160045260245ffd5b81810381811115610aaf57610aaf610a88565b92915050565b80820180821115610aaf57610aaf610a88565b8082028115828204841417610aaf57610aaf610a88565b5f82610af957634e487b7160e01b5f52601260045260245ffd5b500490565b5f60208284031215610b0e575f80fd5b505191905056fe9b779b17422d0df92223018b32b4d1fa46e071723d6817e2486d003becc55f00a2646970667358221220bd1dc8625cfea139725438028c8b5a210771eafd295dbc42f41031106428882664736f6c63430008180033",
					"opcodes": "PUSH2 0x140 PUSH1 0x40 MSTORE CALLVALUE DUP1 ISZERO PUSH3 0x11 JUMPI PUSH0 DUP1 REVERT JUMPDEST POP PUSH1 0x40 MLOAD PUSH3 0x1071 CODESIZE SUB DUP1 PUSH3 0x1071 DUP4 CODECOPY DUP2 ADD PUSH1 0x40 DUP2 SWAP1 MSTORE PUSH3 0x34 SWAP2 PUSH3 0x3D7 JUMP JUMPDEST CALLER DUP1 PUSH3 0x5B JUMPI PUSH1 0x40 MLOAD PUSH4 0x1E4FBDF7 PUSH1 0xE0 SHL DUP2 MSTORE PUSH0 PUSH1 0x4 DUP3 ADD MSTORE PUSH1 0x24 ADD JUMPDEST PUSH1 0x40 MLOAD DUP1 SWAP2 SUB SWAP1 REVERT JUMPDEST PUSH3 0x66 DUP2 PUSH3 0x2C1 JUMP JUMPDEST POP PUSH1 0x1 PUSH32 0x9B779B17422D0DF92223018B32B4D1FA46E071723D6817E2486D003BECC55F00 SSTORE PUSH1 0x1 PUSH1 0x1 PUSH1 0xA0 SHL SUB DUP7 AND PUSH3 0x109 JUMPI PUSH1 0x40 MLOAD PUSH3 0x461BCD PUSH1 0xE5 SHL DUP2 MSTORE PUSH1 0x20 PUSH1 0x4 DUP3 ADD MSTORE PUSH1 0x34 PUSH1 0x24 DUP3 ADD MSTORE PUSH32 0x50616E6A6F436F696E56657374696E673A2062656E6566696369617279206361 PUSH1 0x44 DUP3 ADD MSTORE PUSH32 0x6E6E6F74206265207A65726F2061646472657373000000000000000000000000 PUSH1 0x64 DUP3 ADD MSTORE PUSH1 0x84 ADD PUSH3 0x52 JUMP JUMPDEST PUSH1 0x1 PUSH1 0x1 PUSH1 0xA0 SHL SUB DUP6 AND PUSH3 0x178 JUMPI PUSH1 0x40 MLOAD PUSH3 0x461BCD PUSH1 0xE5 SHL DUP2 MSTORE PUSH1 0x20 PUSH1 0x4 DUP3 ADD MSTORE PUSH1 0x2E PUSH1 0x24 DUP3 ADD MSTORE PUSH32 0x50616E6A6F436F696E56657374696E673A20746F6B656E2063616E6E6F742062 PUSH1 0x44 DUP3 ADD MSTORE PUSH14 0x65207A65726F2061646472657373 PUSH1 0x90 SHL PUSH1 0x64 DUP3 ADD MSTORE PUSH1 0x84 ADD PUSH3 0x52 JUMP JUMPDEST PUSH0 DUP5 GT PUSH3 0x1EF JUMPI PUSH1 0x40 MLOAD PUSH3 0x461BCD PUSH1 0xE5 SHL DUP2 MSTORE PUSH1 0x20 PUSH1 0x4 DUP3 ADD MSTORE PUSH1 0x35 PUSH1 0x24 DUP3 ADD MSTORE PUSH32 0x50616E6A6F436F696E56657374696E673A20746F74616C20616D6F756E74206D PUSH1 0x44 DUP3 ADD MSTORE PUSH32 0x7573742062652067726561746572207468616E20300000000000000000000000 PUSH1 0x64 DUP3 ADD MSTORE PUSH1 0x84 ADD PUSH3 0x52 JUMP JUMPDEST DUP1 DUP3 GT ISZERO PUSH3 0x267 JUMPI PUSH1 0x40 MLOAD PUSH3 0x461BCD PUSH1 0xE5 SHL DUP2 MSTORE PUSH1 0x20 PUSH1 0x4 DUP3 ADD MSTORE PUSH1 0x3F PUSH1 0x24 DUP3 ADD MSTORE PUSH32 0x50616E6A6F436F696E56657374696E673A20636C696666206475726174696F6E PUSH1 0x44 DUP3 ADD MSTORE PUSH32 0x2063616E6E6F74206578636565642076657374696E67206475726174696F6E00 PUSH1 0x64 DUP3 ADD MSTORE PUSH1 0x84 ADD PUSH3 0x52 JUMP JUMPDEST PUSH0 PUSH3 0x274 DUP4 DUP6 PUSH3 0x436 JUMP JUMPDEST PUSH1 0x1 PUSH1 0x1 PUSH1 0xA0 SHL SUB DUP1 DUP10 AND PUSH1 0x80 MSTORE DUP8 AND PUSH1 0xA0 DUP2 SWAP1 MSTORE PUSH2 0x120 DUP8 SWAP1 MSTORE PUSH1 0xC0 DUP7 SWAP1 MSTORE PUSH1 0xE0 DUP3 SWAP1 MSTORE PUSH2 0x100 DUP5 SWAP1 MSTORE PUSH0 PUSH1 0x1 SSTORE SWAP1 SWAP2 POP PUSH3 0x2B4 SWAP1 CALLER ADDRESS DUP9 PUSH3 0x310 JUMP JUMPDEST POP POP POP POP POP POP POP PUSH3 0x45C JUMP JUMPDEST PUSH0 DUP1 SLOAD PUSH1 0x1 PUSH1 0x1 PUSH1 0xA0 SHL SUB DUP4 DUP2 AND PUSH1 0x1 PUSH1 0x1 PUSH1 0xA0 SHL SUB NOT DUP4 AND DUP2 OR DUP5 SSTORE PUSH1 0x40 MLOAD SWAP2 SWAP1 SWAP3 AND SWAP3 DUP4 SWAP2 PUSH32 0x8BE0079C531659141344CD1FD0A4F28419497F9722A3DAAFE3B4186F6B6457E0 SWAP2 SWAP1 LOG3 POP POP JUMP JUMPDEST PUSH3 0x320 DUP5 DUP5 DUP5 DUP5 PUSH1 0x1 PUSH3 0x350 JUMP JUMPDEST PUSH3 0x34A JUMPI PUSH1 0x40 MLOAD PUSH4 0x5274AFE7 PUSH1 0xE0 SHL DUP2 MSTORE PUSH1 0x1 PUSH1 0x1 PUSH1 0xA0 SHL SUB DUP6 AND PUSH1 0x4 DUP3 ADD MSTORE PUSH1 0x24 ADD PUSH3 0x52 JUMP JUMPDEST POP POP POP POP JUMP JUMPDEST PUSH1 0x40 MLOAD PUSH4 0x23B872DD PUSH1 0xE0 SHL PUSH0 DUP2 DUP2 MSTORE PUSH1 0x1 PUSH1 0x1 PUSH1 0xA0 SHL SUB DUP8 DUP2 AND PUSH1 0x4 MSTORE DUP7 AND PUSH1 0x24 MSTORE PUSH1 0x44 DUP6 SWAP1 MSTORE SWAP2 PUSH1 0x20 DUP4 PUSH1 0x64 DUP2 DUP1 DUP13 GAS CALL SWAP3 POP PUSH1 0x1 PUSH0 MLOAD EQ DUP4 AND PUSH3 0x3AE JUMPI DUP4 DUP4 ISZERO AND ISZERO PUSH3 0x3A2 JUMPI RETURNDATASIZE PUSH0 DUP3 RETURNDATACOPY RETURNDATASIZE DUP2 REVERT JUMPDEST PUSH0 DUP9 EXTCODESIZE GT RETURNDATASIZE ISZERO AND DUP4 AND SWAP3 POP JUMPDEST PUSH1 0x40 MSTORE POP PUSH0 PUSH1 0x60 MSTORE SWAP6 SWAP5 POP POP POP POP POP JUMP JUMPDEST PUSH1 0x1 PUSH1 0x1 PUSH1 0xA0 SHL SUB DUP2 AND DUP2 EQ PUSH3 0x3D4 JUMPI PUSH0 DUP1 REVERT JUMPDEST POP JUMP JUMPDEST PUSH0 DUP1 PUSH0 DUP1 PUSH0 DUP1 PUSH1 0xC0 DUP8 DUP10 SUB SLT ISZERO PUSH3 0x3ED JUMPI PUSH0 DUP1 REVERT JUMPDEST DUP7 MLOAD PUSH3 0x3FA DUP2 PUSH3 0x3BF JUMP JUMPDEST PUSH1 0x20 DUP9 ADD MLOAD SWAP1 SWAP7 POP PUSH3 0x40D DUP2 PUSH3 0x3BF JUMP JUMPDEST PUSH1 0x40 DUP9 ADD MLOAD PUSH1 0x60 DUP10 ADD MLOAD PUSH1 0x80 DUP11 ADD MLOAD PUSH1 0xA0 SWAP1 SWAP11 ADD MLOAD SWAP9 SWAP12 SWAP3 SWAP11 POP SWAP1 SWAP9 SWAP1 SWAP8 SWAP1 SWAP7 POP SWAP5 POP SWAP3 POP POP POP JUMP JUMPDEST DUP1 DUP3 ADD DUP1 DUP3 GT ISZERO PUSH3 0x456 JUMPI PUSH4 0x4E487B71 PUSH1 0xE0 SHL PUSH0 MSTORE PUSH1 0x11 PUSH1 0x4 MSTORE PUSH1 0x24 PUSH0 REVERT JUMPDEST SWAP3 SWAP2 POP POP JUMP JUMPDEST PUSH1 0x80 MLOAD PUSH1 0xA0 MLOAD PUSH1 0xC0 MLOAD PUSH1 0xE0 MLOAD PUSH2 0x100 MLOAD PUSH2 0x120 MLOAD PUSH2 0xB6B PUSH3 0x506 PUSH0 CODECOPY PUSH0 DUP2 DUP2 PUSH2 0x170 ADD MSTORE DUP2 DUP2 PUSH2 0x2A5 ADD MSTORE DUP2 DUP2 PUSH2 0x351 ADD MSTORE PUSH2 0x3CB ADD MSTORE PUSH0 DUP2 DUP2 PUSH2 0x149 ADD MSTORE DUP2 DUP2 PUSH2 0x304 ADD MSTORE PUSH2 0x3A6 ADD MSTORE PUSH0 DUP2 DUP2 PUSH2 0x10F ADD MSTORE DUP2 DUP2 PUSH2 0x2D2 ADD MSTORE PUSH2 0x37C ADD MSTORE PUSH0 DUP2 DUP2 PUSH2 0x232 ADD MSTORE PUSH2 0x325 ADD MSTORE PUSH0 DUP2 DUP2 PUSH2 0x274 ADD MSTORE DUP2 DUP2 PUSH2 0x533 ADD MSTORE DUP2 DUP2 PUSH2 0x60D ADD MSTORE PUSH2 0x690 ADD MSTORE PUSH0 DUP2 DUP2 PUSH2 0x1A5 ADD MSTORE DUP2 DUP2 PUSH2 0x414 ADD MSTORE DUP2 DUP2 PUSH2 0x555 ADD MSTORE PUSH2 0x57C ADD MSTORE PUSH2 0xB6B PUSH0 RETURN INVALID PUSH1 0x80 PUSH1 0x40 MSTORE CALLVALUE DUP1 ISZERO PUSH2 0xF JUMPI PUSH0 DUP1 REVERT JUMPDEST POP PUSH1 0x4 CALLDATASIZE LT PUSH2 0x106 JUMPI PUSH0 CALLDATALOAD PUSH1 0xE0 SHR DUP1 PUSH4 0x6F9FB98A GT PUSH2 0x9E JUMPI DUP1 PUSH4 0x96132521 GT PUSH2 0x6E JUMPI DUP1 PUSH4 0x96132521 EQ PUSH2 0x224 JUMPI DUP1 PUSH4 0xBE9A6555 EQ PUSH2 0x22D JUMPI DUP1 PUSH4 0xF2FDE38B EQ PUSH2 0x254 JUMPI DUP1 PUSH4 0xFBCCEDAE EQ PUSH2 0x267 JUMPI DUP1 PUSH4 0xFC0C546A EQ PUSH2 0x26F JUMPI PUSH0 DUP1 REVERT JUMPDEST DUP1 PUSH4 0x6F9FB98A EQ PUSH2 0x1F1 JUMPI DUP1 PUSH4 0x6FF1C9BC EQ PUSH2 0x1F9 JUMPI DUP1 PUSH4 0x715018A6 EQ PUSH2 0x20C JUMPI DUP1 PUSH4 0x8DA5CB5B EQ PUSH2 0x214 JUMPI PUSH0 DUP1 REVERT JUMPDEST DUP1 PUSH4 0x3317BBCC GT PUSH2 0xD9 JUMPI DUP1 PUSH4 0x3317BBCC EQ PUSH2 0x198 JUMPI DUP1 PUSH4 0x38AF3EED EQ PUSH2 0x1A0 JUMPI DUP1 PUSH4 0x44B1231F EQ PUSH2 0x1DF JUMPI DUP1 PUSH4 0x4E71D92D EQ PUSH2 0x1E7 JUMPI PUSH0 DUP1 REVERT JUMPDEST DUP1 PUSH4 0x13D033C0 EQ PUSH2 0x10A JUMPI DUP1 PUSH4 0x1514617E EQ PUSH2 0x144 JUMPI DUP1 PUSH4 0x1A39D8EF EQ PUSH2 0x16B JUMPI DUP1 PUSH4 0x29CB924D EQ PUSH2 0x192 JUMPI JUMPDEST PUSH0 DUP1 REVERT JUMPDEST PUSH2 0x131 PUSH32 0x0 DUP2 JUMP JUMPDEST PUSH1 0x40 MLOAD SWAP1 DUP2 MSTORE PUSH1 0x20 ADD JUMPDEST PUSH1 0x40 MLOAD DUP1 SWAP2 SUB SWAP1 RETURN JUMPDEST PUSH2 0x131 PUSH32 0x0 DUP2 JUMP JUMPDEST PUSH2 0x131 PUSH32 0x0 DUP2 JUMP JUMPDEST TIMESTAMP PUSH2 0x131 JUMP JUMPDEST PUSH2 0x131 PUSH2 0x296 JUMP JUMPDEST PUSH2 0x1C7 PUSH32 0x0 DUP2 JUMP JUMPDEST PUSH1 0x40 MLOAD PUSH1 0x1 PUSH1 0x1 PUSH1 0xA0 SHL SUB SWAP1 SWAP2 AND DUP2 MSTORE PUSH1 0x20 ADD PUSH2 0x13B JUMP JUMPDEST PUSH2 0x131 PUSH2 0x2CE JUMP JUMPDEST PUSH2 0x1EF PUSH2 0x401 JUMP JUMPDEST STOP JUMPDEST PUSH2 0x131 PUSH2 0x5F6 JUMP JUMPDEST PUSH2 0x1EF PUSH2 0x207 CALLDATASIZE PUSH1 0x4 PUSH2 0xA66 JUMP JUMPDEST PUSH2 0x67E JUMP JUMPDEST PUSH2 0x1EF PUSH2 0x876 JUMP JUMPDEST PUSH0 SLOAD PUSH1 0x1 PUSH1 0x1 PUSH1 0xA0 SHL SUB AND PUSH2 0x1C7 JUMP JUMPDEST PUSH2 0x131 PUSH1 0x1 SLOAD DUP2 JUMP JUMPDEST PUSH2 0x131 PUSH32 0x0 DUP2 JUMP JUMPDEST PUSH2 0x1EF PUSH2 0x262 CALLDATASIZE PUSH1 0x4 PUSH2 0xA66 JUMP JUMPDEST PUSH2 0x887 JUMP JUMPDEST PUSH2 0x131 PUSH2 0x8C1 JUMP JUMPDEST PUSH2 0x1C7 PUSH32 0x0 DUP2 JUMP JUMPDEST PUSH0 PUSH2 0x29F PUSH2 0x2CE JUMP JUMPDEST PUSH2 0x2C9 SWAP1 PUSH32 0x0 PUSH2 0xA9C JUMP JUMPDEST SWAP1 POP SWAP1 JUMP JUMPDEST PUSH0 TIMESTAMP PUSH32 0x0 DUP2 LT ISZERO PUSH2 0x2FF JUMPI PUSH0 SWAP2 POP POP SWAP1 JUMP JUMPDEST PUSH2 0x349 PUSH32 0x0 PUSH32 0x0 PUSH2 0xAB5 JUMP JUMPDEST DUP2 LT PUSH2 0x376 JUMPI PUSH32 0x0 SWAP2 POP POP SWAP1 JUMP JUMPDEST PUSH0 PUSH2 0x3A1 PUSH32 0x0 DUP4 PUSH2 0xA9C JUMP JUMPDEST SWAP1 POP PUSH0 PUSH32 0x0 PUSH2 0x3EF DUP4 PUSH32 0x0 PUSH2 0xAC8 JUMP JUMPDEST PUSH2 0x3F9 SWAP2 SWAP1 PUSH2 0xADF JUMP JUMPDEST SWAP5 SWAP4 POP POP POP POP JUMP JUMPDEST PUSH2 0x409 PUSH2 0x8F1 JUMP JUMPDEST CALLER PUSH1 0x1 PUSH1 0x1 PUSH1 0xA0 SHL SUB PUSH32 0x0 AND EQ PUSH2 0x49E JUMPI PUSH1 0x40 MLOAD PUSH3 0x461BCD PUSH1 0xE5 SHL DUP2 MSTORE PUSH1 0x20 PUSH1 0x4 DUP3 ADD MSTORE PUSH1 0x2F PUSH1 0x24 DUP3 ADD MSTORE PUSH32 0x50616E6A6F436F696E56657374696E673A2063616C6C6572206973206E6F7420 PUSH1 0x44 DUP3 ADD MSTORE PUSH15 0x7468652062656E6566696369617279 PUSH1 0x88 SHL PUSH1 0x64 DUP3 ADD MSTORE PUSH1 0x84 ADD JUMPDEST PUSH1 0x40 MLOAD DUP1 SWAP2 SUB SWAP1 REVERT JUMPDEST PUSH0 PUSH2 0x4A7 PUSH2 0x8C1 JUMP JUMPDEST SWAP1 POP PUSH0 DUP2 GT PUSH2 0x50F JUMPI PUSH1 0x40 MLOAD PUSH3 0x461BCD PUSH1 0xE5 SHL DUP2 MSTORE PUSH1 0x20 PUSH1 0x4 DUP3 ADD MSTORE PUSH1 0x2E PUSH1 0x24 DUP3 ADD MSTORE PUSH32 0x50616E6A6F436F696E56657374696E673A206E6F20746F6B656E732061766169 PUSH1 0x44 DUP3 ADD MSTORE PUSH14 0x6C61626C6520746F20636C61696D PUSH1 0x90 SHL PUSH1 0x64 DUP3 ADD MSTORE PUSH1 0x84 ADD PUSH2 0x495 JUMP JUMPDEST DUP1 PUSH1 0x1 PUSH0 DUP3 DUP3 SLOAD PUSH2 0x520 SWAP2 SWAP1 PUSH2 0xAB5 JUMP JUMPDEST SWAP1 SWAP2 SSTORE POP PUSH2 0x57A SWAP1 POP PUSH1 0x1 PUSH1 0x1 PUSH1 0xA0 SHL SUB PUSH32 0x0 AND PUSH32 0x0 DUP4 PUSH2 0x90C JUMP JUMPDEST PUSH32 0x0 PUSH1 0x1 PUSH1 0x1 PUSH1 0xA0 SHL SUB AND PUSH32 0xC7798891864187665AC6DD119286E44EC13F014527AEEB2B8EB3FD413DF93179 DUP3 PUSH1 0x40 MLOAD PUSH2 0x5D5 SWAP2 DUP2 MSTORE PUSH1 0x20 ADD SWAP1 JUMP JUMPDEST PUSH1 0x40 MLOAD DUP1 SWAP2 SUB SWAP1 LOG2 POP PUSH2 0x5F4 PUSH1 0x1 PUSH0 DUP1 MLOAD PUSH1 0x20 PUSH2 0xB16 DUP4 CODECOPY DUP2 MLOAD SWAP2 MSTORE SSTORE JUMP JUMPDEST JUMP JUMPDEST PUSH1 0x40 MLOAD PUSH4 0x70A08231 PUSH1 0xE0 SHL DUP2 MSTORE ADDRESS PUSH1 0x4 DUP3 ADD MSTORE PUSH0 SWAP1 PUSH32 0x0 PUSH1 0x1 PUSH1 0x1 PUSH1 0xA0 SHL SUB AND SWAP1 PUSH4 0x70A08231 SWAP1 PUSH1 0x24 ADD PUSH1 0x20 PUSH1 0x40 MLOAD DUP1 DUP4 SUB DUP2 DUP7 GAS STATICCALL ISZERO DUP1 ISZERO PUSH2 0x65A JUMPI RETURNDATASIZE PUSH0 DUP1 RETURNDATACOPY RETURNDATASIZE PUSH0 REVERT JUMPDEST POP POP POP POP PUSH1 0x40 MLOAD RETURNDATASIZE PUSH1 0x1F NOT PUSH1 0x1F DUP3 ADD AND DUP3 ADD DUP1 PUSH1 0x40 MSTORE POP DUP2 ADD SWAP1 PUSH2 0x2C9 SWAP2 SWAP1 PUSH2 0xAFE JUMP JUMPDEST PUSH2 0x686 PUSH2 0x946 JUMP JUMPDEST PUSH2 0x68E PUSH2 0x8F1 JUMP JUMPDEST PUSH32 0x0 PUSH1 0x1 PUSH1 0x1 PUSH1 0xA0 SHL SUB AND DUP2 PUSH1 0x1 PUSH1 0x1 PUSH1 0xA0 SHL SUB AND SUB PUSH2 0x72A JUMPI PUSH1 0x40 MLOAD PUSH3 0x461BCD PUSH1 0xE5 SHL DUP2 MSTORE PUSH1 0x20 PUSH1 0x4 DUP3 ADD MSTORE PUSH1 0x32 PUSH1 0x24 DUP3 ADD MSTORE PUSH32 0x50616E6A6F436F696E56657374696E673A2063616E6E6F742077697468647261 PUSH1 0x44 DUP3 ADD MSTORE PUSH18 0x3B903A3432903B32B9BA32B2103A37B5B2B7 PUSH1 0x71 SHL PUSH1 0x64 DUP3 ADD MSTORE PUSH1 0x84 ADD PUSH2 0x495 JUMP JUMPDEST PUSH1 0x40 MLOAD PUSH4 0x70A08231 PUSH1 0xE0 SHL DUP2 MSTORE ADDRESS PUSH1 0x4 DUP3 ADD MSTORE PUSH0 SWAP1 PUSH1 0x1 PUSH1 0x1 PUSH1 0xA0 SHL SUB DUP4 AND SWAP1 PUSH4 0x70A08231 SWAP1 PUSH1 0x24 ADD PUSH1 0x20 PUSH1 0x40 MLOAD DUP1 DUP4 SUB DUP2 DUP7 GAS STATICCALL ISZERO DUP1 ISZERO PUSH2 0x76E JUMPI RETURNDATASIZE PUSH0 DUP1 RETURNDATACOPY RETURNDATASIZE PUSH0 REVERT JUMPDEST POP POP POP POP PUSH1 0x40 MLOAD RETURNDATASIZE PUSH1 0x1F NOT PUSH1 0x1F DUP3 ADD AND DUP3 ADD DUP1 PUSH1 0x40 MSTORE POP DUP2 ADD SWAP1 PUSH2 0x792 SWAP2 SWAP1 PUSH2 0xAFE JUMP JUMPDEST SWAP1 POP PUSH0 DUP2 GT PUSH2 0x7F4 JUMPI PUSH1 0x40 MLOAD PUSH3 0x461BCD PUSH1 0xE5 SHL DUP2 MSTORE PUSH1 0x20 PUSH1 0x4 DUP3 ADD MSTORE PUSH1 0x28 PUSH1 0x24 DUP3 ADD MSTORE PUSH32 0x50616E6A6F436F696E56657374696E673A206E6F2062616C616E636520746F20 PUSH1 0x44 DUP3 ADD MSTORE PUSH8 0x7769746864726177 PUSH1 0xC0 SHL PUSH1 0x64 DUP3 ADD MSTORE PUSH1 0x84 ADD PUSH2 0x495 JUMP JUMPDEST PUSH2 0x819 PUSH2 0x808 PUSH0 SLOAD PUSH1 0x1 PUSH1 0x1 PUSH1 0xA0 SHL SUB AND SWAP1 JUMP JUMPDEST PUSH1 0x1 PUSH1 0x1 PUSH1 0xA0 SHL SUB DUP5 AND SWAP1 DUP4 PUSH2 0x90C JUMP JUMPDEST DUP2 PUSH1 0x1 PUSH1 0x1 PUSH1 0xA0 SHL SUB AND PUSH32 0x2E39961A70A10F4D46383948095AC2752B3EE642A7C76AA827410AAFF08C2E51 DUP3 PUSH1 0x40 MLOAD PUSH2 0x854 SWAP2 DUP2 MSTORE PUSH1 0x20 ADD SWAP1 JUMP JUMPDEST PUSH1 0x40 MLOAD DUP1 SWAP2 SUB SWAP1 LOG2 POP PUSH2 0x873 PUSH1 0x1 PUSH0 DUP1 MLOAD PUSH1 0x20 PUSH2 0xB16 DUP4 CODECOPY DUP2 MLOAD SWAP2 MSTORE SSTORE JUMP JUMPDEST POP JUMP JUMPDEST PUSH2 0x87E PUSH2 0x946 JUMP JUMPDEST PUSH2 0x5F4 PUSH0 PUSH2 0x972 JUMP JUMPDEST PUSH2 0x88F PUSH2 0x946 JUMP JUMPDEST PUSH1 0x1 PUSH1 0x1 PUSH1 0xA0 SHL SUB DUP2 AND PUSH2 0x8B8 JUMPI PUSH1 0x40 MLOAD PUSH4 0x1E4FBDF7 PUSH1 0xE0 SHL DUP2 MSTORE PUSH0 PUSH1 0x4 DUP3 ADD MSTORE PUSH1 0x24 ADD PUSH2 0x495 JUMP JUMPDEST PUSH2 0x873 DUP2 PUSH2 0x972 JUMP JUMPDEST PUSH0 DUP1 PUSH2 0x8CB PUSH2 0x2CE JUMP JUMPDEST PUSH1 0x1 SLOAD SWAP1 SWAP2 POP DUP1 DUP3 GT PUSH2 0x8E0 JUMPI PUSH0 SWAP3 POP POP POP SWAP1 JUMP JUMPDEST PUSH2 0x8EA DUP2 DUP4 PUSH2 0xA9C JUMP JUMPDEST SWAP3 POP POP POP SWAP1 JUMP JUMPDEST PUSH2 0x8F9 PUSH2 0x9C1 JUMP JUMPDEST PUSH1 0x2 PUSH0 DUP1 MLOAD PUSH1 0x20 PUSH2 0xB16 DUP4 CODECOPY DUP2 MLOAD SWAP2 MSTORE SSTORE JUMP JUMPDEST PUSH2 0x919 DUP4 DUP4 DUP4 PUSH1 0x1 PUSH2 0x9F0 JUMP JUMPDEST PUSH2 0x941 JUMPI PUSH1 0x40 MLOAD PUSH4 0x5274AFE7 PUSH1 0xE0 SHL DUP2 MSTORE PUSH1 0x1 PUSH1 0x1 PUSH1 0xA0 SHL SUB DUP5 AND PUSH1 0x4 DUP3 ADD MSTORE PUSH1 0x24 ADD PUSH2 0x495 JUMP JUMPDEST POP POP POP JUMP JUMPDEST PUSH0 SLOAD PUSH1 0x1 PUSH1 0x1 PUSH1 0xA0 SHL SUB AND CALLER EQ PUSH2 0x5F4 JUMPI PUSH1 0x40 MLOAD PUSH4 0x118CDAA7 PUSH1 0xE0 SHL DUP2 MSTORE CALLER PUSH1 0x4 DUP3 ADD MSTORE PUSH1 0x24 ADD PUSH2 0x495 JUMP JUMPDEST PUSH0 DUP1 SLOAD PUSH1 0x1 PUSH1 0x1 PUSH1 0xA0 SHL SUB DUP4 DUP2 AND PUSH1 0x1 PUSH1 0x1 PUSH1 0xA0 SHL SUB NOT DUP4 AND DUP2 OR DUP5 SSTORE PUSH1 0x40 MLOAD SWAP2 SWAP1 SWAP3 AND SWAP3 DUP4 SWAP2 PUSH32 0x8BE0079C531659141344CD1FD0A4F28419497F9722A3DAAFE3B4186F6B6457E0 SWAP2 SWAP1 LOG3 POP POP JUMP JUMPDEST PUSH0 DUP1 MLOAD PUSH1 0x20 PUSH2 0xB16 DUP4 CODECOPY DUP2 MLOAD SWAP2 MSTORE SLOAD PUSH1 0x2 SUB PUSH2 0x5F4 JUMPI PUSH1 0x40 MLOAD PUSH4 0x3EE5AEB5 PUSH1 0xE0 SHL DUP2 MSTORE PUSH1 0x4 ADD PUSH1 0x40 MLOAD DUP1 SWAP2 SUB SWAP1 REVERT JUMPDEST PUSH1 0x40 MLOAD PUSH4 0xA9059CBB PUSH1 0xE0 SHL PUSH0 DUP2 DUP2 MSTORE PUSH1 0x1 PUSH1 0x1 PUSH1 0xA0 SHL SUB DUP7 AND PUSH1 0x4 MSTORE PUSH1 0x24 DUP6 SWAP1 MSTORE SWAP2 PUSH1 0x20 DUP4 PUSH1 0x44 DUP2 DUP1 DUP12 GAS CALL SWAP3 POP PUSH1 0x1 PUSH0 MLOAD EQ DUP4 AND PUSH2 0xA46 JUMPI DUP4 DUP4 ISZERO AND ISZERO PUSH2 0xA3A JUMPI RETURNDATASIZE PUSH0 DUP3 RETURNDATACOPY RETURNDATASIZE DUP2 REVERT JUMPDEST PUSH0 DUP8 EXTCODESIZE GT RETURNDATASIZE ISZERO AND DUP4 AND SWAP3 POP JUMPDEST PUSH1 0x40 MSTORE POP SWAP5 SWAP4 POP POP POP POP JUMP JUMPDEST PUSH1 0x1 PUSH1 0x1 PUSH1 0xA0 SHL SUB DUP2 AND DUP2 EQ PUSH2 0x873 JUMPI PUSH0 DUP1 REVERT JUMPDEST PUSH0 PUSH1 0x20 DUP3 DUP5 SUB SLT ISZERO PUSH2 0xA76 JUMPI PUSH0 DUP1 REVERT JUMPDEST DUP2 CALLDATALOAD PUSH2 0xA81 DUP2 PUSH2 0xA52 JUMP JUMPDEST SWAP4 SWAP3 POP POP POP JUMP JUMPDEST PUSH4 0x4E487B71 PUSH1 0xE0 SHL PUSH0 MSTORE PUSH1 0x11 PUSH1 0x4 MSTORE PUSH1 0x24 PUSH0 REVERT JUMPDEST DUP2 DUP2 SUB DUP2 DUP2 GT ISZERO PUSH2 0xAAF JUMPI PUSH2 0xAAF PUSH2 0xA88 JUMP JUMPDEST SWAP3 SWAP2 POP POP JUMP JUMPDEST DUP1 DUP3 ADD DUP1 DUP3 GT ISZERO PUSH2 0xAAF JUMPI PUSH2 0xAAF PUSH2 0xA88 JUMP JUMPDEST DUP1 DUP3 MUL DUP2 ISZERO DUP3 DUP3 DIV DUP5 EQ OR PUSH2 0xAAF JUMPI PUSH2 0xAAF PUSH2 0xA88 JUMP JUMPDEST PUSH0 DUP3 PUSH2 0xAF9 JUMPI PUSH4 0x4E487B71 PUSH1 0xE0 SHL PUSH0 MSTORE PUSH1 0x12 PUSH1 0x4 MSTORE PUSH1 0x24 PUSH0 REVERT JUMPDEST POP DIV SWAP1 JUMP JUMPDEST PUSH0 PUSH1 0x20 DUP3 DUP5 SUB SLT ISZERO PUSH2 0xB0E JUMPI PUSH0 DUP1 REVERT JUMPDEST POP MLOAD SWAP2 SWAP1 POP JUMP INVALID SWAP12 PUSH24 0x9B17422D0DF92223018B32B4D1FA46E071723D6817E2486D STOP EXTCODESIZE 0xEC 0xC5 PUSH0 STOP LOG2 PUSH5 0x6970667358 0x22 SLT KECCAK256 0xBD SAR 0xC8 PUSH3 0x5CFEA1 CODECOPY PUSH19 0x5438028C8B5A210771EAFD295DBC42F4103110 PUSH5 0x2888266473 PUSH16 0x6C634300081800330000000000000000 "
				},
				"gasEstimates": {
					"creation": {
						"codeDepositCost": "584600",
						"executionCost": "infinite",
						"totalCost": "infinite"
					},
					"external": {
						"beneficiary()": "infinite",
						"claim()": "infinite",
						"cliff()": "infinite",
						"emergencyWithdraw(address)": "infinite",
						"getContractBalance()": "infinite",
						"getCurrentTime()": "269",
						"getLockedTokens()": "infinite",
						"owner()": "2418",
						"releasable()": "infinite",
						"released()": "2305",
						"renounceOwnership()": "infinite",
						"start()": "infinite",
						"token()": "infinite",
						"totalAmount()": "infinite",
						"transferOwnership(address)": "infinite",
						"vestedAmount()": "infinite",
						"vestingDuration()": "infinite"
					}
				},
				"methodIdentifiers": {
					"beneficiary()": "38af3eed",
					"claim()": "4e71d92d",
					"cliff()": "13d033c0",
					"emergencyWithdraw(address)": "6ff1c9bc",
					"getContractBalance()": "6f9fb98a",
					"getCurrentTime()": "29cb924d",
					"getLockedTokens()": "3317bbcc",
					"owner()": "8da5cb5b",
					"releasable()": "fbccedae",
					"released()": "96132521",
					"renounceOwnership()": "715018a6",
					"start()": "be9a6555",
					"token()": "fc0c546a",
					"totalAmount()": "1a39d8ef",
					"transferOwnership(address)": "f2fde38b",
					"vestedAmount()": "44b1231f",
					"vestingDuration()": "1514617e"
				}
			},
			"storageLayout": {
				"storage": [
					{
						"astId": 8,
						"contract": "Smart-Contracts/PNJC_Vesting+Cliff.sol:PanjoCoinVesting",
						"label": "_owner",
						"offset": 0,
						"slot": "0",
						"type": "t_address"
					},
					{
						"astId": 1086,
						"contract": "Smart-Contracts/PNJC_Vesting+Cliff.sol:PanjoCoinVesting",
						"label": "released",
						"offset": 0,
						"slot": "1",
						"type": "t_uint256"
					}
				],
				"types": {
					"t_address": {
						"encoding": "inplace",
						"label": "address",
						"numberOfBytes": "20"
					},
					"t_uint256": {
						"encoding": "inplace",
						"label": "uint256",
						"numberOfBytes": "32"
					}
				}
			},
			"userdoc": {
				"events": {
					"EmergencyWithdrawn(address,uint256)": {
						"notice": "Emitted when owner withdraws a non-vested token sent by mistake"
					},
					"TokensReleased(address,uint256)": {
						"notice": "Emitted when beneficiary successfully claims tokens"
					}
				},
				"kind": "user",
				"methods": {
					"beneficiary()": {
						"notice": "Address that can claim vested tokens (cannot be changed)"
					},
					"claim()": {
						"notice": "Can be called multiple times; only the beneficiary can call"
					},
					"cliff()": {
						"notice": "Timestamp (UNIX seconds) when cliff ends and first tokens become available"
					},
					"emergencyWithdraw(address)": {
						"notice": "This function exists to rescue tokens that were sent to this contract by mistakeThis CANNOT be used to withdraw the vested token (PanjoCoin PNJC) "
					},
					"getContractBalance()": {
						"notice": "Should equal totalAmount - released under normal conditions"
					},
					"getCurrentTime()": {
						"notice": "Useful for off-chain verification of vesting progress"
					},
					"getLockedTokens()": {
						"notice": "Locked tokens = totalAmount - vestedAmount (NOT totalAmount - released)"
					},
					"releasable()": {
						"notice": "This is the amount that would be transferred if claim() is called"
					},
					"released()": {
						"notice": "Amount of tokens already claimed by the beneficiary"
					},
					"start()": {
						"notice": "Timestamp (UNIX seconds) when vesting starts"
					},
					"token()": {
						"notice": "The ERC20 token being vested (PanjoCoin PNJC)"
					},
					"totalAmount()": {
						"notice": "Total amount of tokens locked in this contract"
					},
					"vestedAmount()": {
						"notice": "Vested amount is calculated as:         - 0% before cliff         - Linear from 0% to 100% between cliff and start+vestingDuration         - 100% after start+vestingDuration "
					},
					"vestingDuration()": {
						"notice": "Duration of the linear vesting period in seconds"
					}
				},
				"notice": "This contract implements a standard vesting schedule where:         - Tokens are completely locked during the cliff period         - After cliff, tokens unlock linearly over the vesting duration         - Only the beneficiary can claim tokens         - The owner can only rescue non-PNJC tokens sent by mistake ",
				"version": 1
			}
		}
	}
}