{
	"Smart-Contract/PNJC.sol": {
		"PanjoCoin": {
			"abi": [
				{
					"inputs": [
						{
							"internalType": "address",
							"name": "_treasury",
							"type": "address"
						}
					],
					"stateMutability": "nonpayable",
					"type": "constructor"
				},
				{
					"inputs": [],
					"name": "ECDSAInvalidSignature",
					"type": "error"
				},
				{
					"inputs": [
						{
							"internalType": "uint256",
							"name": "length",
							"type": "uint256"
						}
					],
					"name": "ECDSAInvalidSignatureLength",
					"type": "error"
				},
				{
					"inputs": [
						{
							"internalType": "bytes32",
							"name": "s",
							"type": "bytes32"
						}
					],
					"name": "ECDSAInvalidSignatureS",
					"type": "error"
				},
				{
					"inputs": [
						{
							"internalType": "address",
							"name": "spender",
							"type": "address"
						},
						{
							"internalType": "uint256",
							"name": "allowance",
							"type": "uint256"
						},
						{
							"internalType": "uint256",
							"name": "needed",
							"type": "uint256"
						}
					],
					"name": "ERC20InsufficientAllowance",
					"type": "error"
				},
				{
					"inputs": [
						{
							"internalType": "address",
							"name": "sender",
							"type": "address"
						},
						{
							"internalType": "uint256",
							"name": "balance",
							"type": "uint256"
						},
						{
							"internalType": "uint256",
							"name": "needed",
							"type": "uint256"
						}
					],
					"name": "ERC20InsufficientBalance",
					"type": "error"
				},
				{
					"inputs": [
						{
							"internalType": "address",
							"name": "approver",
							"type": "address"
						}
					],
					"name": "ERC20InvalidApprover",
					"type": "error"
				},
				{
					"inputs": [
						{
							"internalType": "address",
							"name": "receiver",
							"type": "address"
						}
					],
					"name": "ERC20InvalidReceiver",
					"type": "error"
				},
				{
					"inputs": [
						{
							"internalType": "address",
							"name": "sender",
							"type": "address"
						}
					],
					"name": "ERC20InvalidSender",
					"type": "error"
				},
				{
					"inputs": [
						{
							"internalType": "address",
							"name": "spender",
							"type": "address"
						}
					],
					"name": "ERC20InvalidSpender",
					"type": "error"
				},
				{
					"inputs": [
						{
							"internalType": "uint256",
							"name": "deadline",
							"type": "uint256"
						}
					],
					"name": "ERC2612ExpiredSignature",
					"type": "error"
				},
				{
					"inputs": [
						{
							"internalType": "address",
							"name": "signer",
							"type": "address"
						},
						{
							"internalType": "address",
							"name": "owner",
							"type": "address"
						}
					],
					"name": "ERC2612InvalidSigner",
					"type": "error"
				},
				{
					"inputs": [
						{
							"internalType": "address",
							"name": "account",
							"type": "address"
						},
						{
							"internalType": "uint256",
							"name": "currentNonce",
							"type": "uint256"
						}
					],
					"name": "InvalidAccountNonce",
					"type": "error"
				},
				{
					"inputs": [],
					"name": "InvalidShortString",
					"type": "error"
				},
				{
					"inputs": [],
					"name": "InvalidTreasuryAddress",
					"type": "error"
				},
				{
					"inputs": [
						{
							"internalType": "string",
							"name": "str",
							"type": "string"
						}
					],
					"name": "StringTooLong",
					"type": "error"
				},
				{
					"anonymous": false,
					"inputs": [
						{
							"indexed": true,
							"internalType": "address",
							"name": "owner",
							"type": "address"
						},
						{
							"indexed": true,
							"internalType": "address",
							"name": "spender",
							"type": "address"
						},
						{
							"indexed": false,
							"internalType": "uint256",
							"name": "value",
							"type": "uint256"
						}
					],
					"name": "Approval",
					"type": "event"
				},
				{
					"anonymous": false,
					"inputs": [],
					"name": "EIP712DomainChanged",
					"type": "event"
				},
				{
					"anonymous": false,
					"inputs": [
						{
							"indexed": true,
							"internalType": "address",
							"name": "from",
							"type": "address"
						},
						{
							"indexed": true,
							"internalType": "address",
							"name": "to",
							"type": "address"
						},
						{
							"indexed": false,
							"internalType": "uint256",
							"name": "value",
							"type": "uint256"
						}
					],
					"name": "Transfer",
					"type": "event"
				},
				{
					"inputs": [],
					"name": "DOMAIN_SEPARATOR",
					"outputs": [
						{
							"internalType": "bytes32",
							"name": "",
							"type": "bytes32"
						}
					],
					"stateMutability": "view",
					"type": "function"
				},
				{
					"inputs": [],
					"name": "MAX_SUPPLY",
					"outputs": [
						{
							"internalType": "uint256",
							"name": "",
							"type": "uint256"
						}
					],
					"stateMutability": "view",
					"type": "function"
				},
				{
					"inputs": [
						{
							"internalType": "address",
							"name": "owner",
							"type": "address"
						},
						{
							"internalType": "address",
							"name": "spender",
							"type": "address"
						}
					],
					"name": "allowance",
					"outputs": [
						{
							"internalType": "uint256",
							"name": "",
							"type": "uint256"
						}
					],
					"stateMutability": "view",
					"type": "function"
				},
				{
					"inputs": [
						{
							"internalType": "address",
							"name": "spender",
							"type": "address"
						},
						{
							"internalType": "uint256",
							"name": "value",
							"type": "uint256"
						}
					],
					"name": "approve",
					"outputs": [
						{
							"internalType": "bool",
							"name": "",
							"type": "bool"
						}
					],
					"stateMutability": "nonpayable",
					"type": "function"
				},
				{
					"inputs": [
						{
							"internalType": "address",
							"name": "account",
							"type": "address"
						}
					],
					"name": "balanceOf",
					"outputs": [
						{
							"internalType": "uint256",
							"name": "",
							"type": "uint256"
						}
					],
					"stateMutability": "view",
					"type": "function"
				},
				{
					"inputs": [
						{
							"internalType": "uint256",
							"name": "value",
							"type": "uint256"
						}
					],
					"name": "burn",
					"outputs": [],
					"stateMutability": "nonpayable",
					"type": "function"
				},
				{
					"inputs": [
						{
							"internalType": "address",
							"name": "account",
							"type": "address"
						},
						{
							"internalType": "uint256",
							"name": "value",
							"type": "uint256"
						}
					],
					"name": "burnFrom",
					"outputs": [],
					"stateMutability": "nonpayable",
					"type": "function"
				},
				{
					"inputs": [],
					"name": "decimals",
					"outputs": [
						{
							"internalType": "uint8",
							"name": "",
							"type": "uint8"
						}
					],
					"stateMutability": "view",
					"type": "function"
				},
				{
					"inputs": [],
					"name": "eip712Domain",
					"outputs": [
						{
							"internalType": "bytes1",
							"name": "fields",
							"type": "bytes1"
						},
						{
							"internalType": "string",
							"name": "name",
							"type": "string"
						},
						{
							"internalType": "string",
							"name": "version",
							"type": "string"
						},
						{
							"internalType": "uint256",
							"name": "chainId",
							"type": "uint256"
						},
						{
							"internalType": "address",
							"name": "verifyingContract",
							"type": "address"
						},
						{
							"internalType": "bytes32",
							"name": "salt",
							"type": "bytes32"
						},
						{
							"internalType": "uint256[]",
							"name": "extensions",
							"type": "uint256[]"
						}
					],
					"stateMutability": "view",
					"type": "function"
				},
				{
					"inputs": [],
					"name": "name",
					"outputs": [
						{
							"internalType": "string",
							"name": "",
							"type": "string"
						}
					],
					"stateMutability": "view",
					"type": "function"
				},
				{
					"inputs": [
						{
							"internalType": "address",
							"name": "owner",
							"type": "address"
						}
					],
					"name": "nonces",
					"outputs": [
						{
							"internalType": "uint256",
							"name": "",
							"type": "uint256"
						}
					],
					"stateMutability": "view",
					"type": "function"
				},
				{
					"inputs": [
						{
							"internalType": "address",
							"name": "owner",
							"type": "address"
						},
						{
							"internalType": "address",
							"name": "spender",
							"type": "address"
						},
						{
							"internalType": "uint256",
							"name": "value",
							"type": "uint256"
						},
						{
							"internalType": "uint256",
							"name": "deadline",
							"type": "uint256"
						},
						{
							"internalType": "uint8",
							"name": "v",
							"type": "uint8"
						},
						{
							"internalType": "bytes32",
							"name": "r",
							"type": "bytes32"
						},
						{
							"internalType": "bytes32",
							"name": "s",
							"type": "bytes32"
						}
					],
					"name": "permit",
					"outputs": [],
					"stateMutability": "nonpayable",
					"type": "function"
				},
				{
					"inputs": [],
					"name": "symbol",
					"outputs": [
						{
							"internalType": "string",
							"name": "",
							"type": "string"
						}
					],
					"stateMutability": "view",
					"type": "function"
				},
				{
					"inputs": [],
					"name": "totalSupply",
					"outputs": [
						{
							"internalType": "uint256",
							"name": "",
							"type": "uint256"
						}
					],
					"stateMutability": "view",
					"type": "function"
				},
				{
					"inputs": [
						{
							"internalType": "address",
							"name": "to",
							"type": "address"
						},
						{
							"internalType": "uint256",
							"name": "value",
							"type": "uint256"
						}
					],
					"name": "transfer",
					"outputs": [
						{
							"internalType": "bool",
							"name": "",
							"type": "bool"
						}
					],
					"stateMutability": "nonpayable",
					"type": "function"
				},
				{
					"inputs": [
						{
							"internalType": "address",
							"name": "from",
							"type": "address"
						},
						{
							"internalType": "address",
							"name": "to",
							"type": "address"
						},
						{
							"internalType": "uint256",
							"name": "value",
							"type": "uint256"
						}
					],
					"name": "transferFrom",
					"outputs": [
						{
							"internalType": "bool",
							"name": "",
							"type": "bool"
						}
					],
					"stateMutability": "nonpayable",
					"type": "function"
				}
			],
			"devdoc": {
				"author": "CryptoTengo | ONE+ Ecosystem",
				"details": "AUDIT & INVESTOR NOTES: 1. Fixed Supply: Total supply is minted at deployment. No 'mint' function exists. 2. Trustless Architecture: No 'onlyOwner' or 'admin' roles. Contract is immutable post-deployment. 3. Rug-Proof: Developer cannot freeze accounts, blacklist users, or pause transfers. 4. Gasless Approvals: Supports EIP-2612 (Permit) for better UX and DeFi compatibility. 5. Modern Standards: Built using OpenZeppelin 5.0.0 libraries for maximum security.",
				"errors": {
					"ECDSAInvalidSignature()": [
						{
							"details": "The signature derives the `address(0)`."
						}
					],
					"ECDSAInvalidSignatureLength(uint256)": [
						{
							"details": "The signature has an invalid length."
						}
					],
					"ECDSAInvalidSignatureS(bytes32)": [
						{
							"details": "The signature has an S value that is in the upper half order."
						}
					],
					"ERC20InsufficientAllowance(address,uint256,uint256)": [
						{
							"details": "Indicates a failure with the `spender`’s `allowance`. Used in transfers.",
							"params": {
								"allowance": "Amount of tokens a `spender` is allowed to operate with.",
								"needed": "Minimum amount required to perform a transfer.",
								"spender": "Address that may be allowed to operate on tokens without being their owner."
							}
						}
					],
					"ERC20InsufficientBalance(address,uint256,uint256)": [
						{
							"details": "Indicates an error related to the current `balance` of a `sender`. Used in transfers.",
							"params": {
								"balance": "Current balance for the interacting account.",
								"needed": "Minimum amount required to perform a transfer.",
								"sender": "Address whose tokens are being transferred."
							}
						}
					],
					"ERC20InvalidApprover(address)": [
						{
							"details": "Indicates a failure with the `approver` of a token to be approved. Used in approvals.",
							"params": {
								"approver": "Address initiating an approval operation."
							}
						}
					],
					"ERC20InvalidReceiver(address)": [
						{
							"details": "Indicates a failure with the token `receiver`. Used in transfers.",
							"params": {
								"receiver": "Address to which tokens are being transferred."
							}
						}
					],
					"ERC20InvalidSender(address)": [
						{
							"details": "Indicates a failure with the token `sender`. Used in transfers.",
							"params": {
								"sender": "Address whose tokens are being transferred."
							}
						}
					],
					"ERC20InvalidSpender(address)": [
						{
							"details": "Indicates a failure with the `spender` to be approved. Used in approvals.",
							"params": {
								"spender": "Address that may be allowed to operate on tokens without being their owner."
							}
						}
					],
					"ERC2612ExpiredSignature(uint256)": [
						{
							"details": "Permit deadline has expired."
						}
					],
					"ERC2612InvalidSigner(address,address)": [
						{
							"details": "Mismatched signature."
						}
					],
					"InvalidAccountNonce(address,uint256)": [
						{
							"details": "The nonce used for an `account` is not the expected current nonce."
						}
					]
				},
				"events": {
					"Approval(address,address,uint256)": {
						"details": "Emitted when the allowance of a `spender` for an `owner` is set by a call to {approve}. `value` is the new allowance."
					},
					"EIP712DomainChanged()": {
						"details": "MAY be emitted to signal that the domain could have changed."
					},
					"Transfer(address,address,uint256)": {
						"details": "Emitted when `value` tokens are moved from one account (`from`) to another (`to`). Note that `value` may be zero."
					}
				},
				"kind": "dev",
				"methods": {
					"DOMAIN_SEPARATOR()": {
						"details": "Returns the domain separator used in the encoding of the signature for {permit}, as defined by {EIP712}."
					},
					"allowance(address,address)": {
						"details": "See {IERC20-allowance}."
					},
					"approve(address,uint256)": {
						"details": "See {IERC20-approve}. NOTE: If `value` is the maximum `uint256`, the allowance is not updated on `transferFrom`. This is semantically equivalent to an infinite approval. Requirements: - `spender` cannot be the zero address."
					},
					"balanceOf(address)": {
						"details": "See {IERC20-balanceOf}."
					},
					"burn(uint256)": {
						"details": "Destroys a `value` amount of tokens from the caller. See {ERC20-_burn}."
					},
					"burnFrom(address,uint256)": {
						"details": "Destroys a `value` amount of tokens from `account`, deducting from the caller's allowance. See {ERC20-_burn} and {ERC20-allowance}. Requirements: - the caller must have allowance for ``accounts``'s tokens of at least `value`."
					},
					"constructor": {
						"details": "Minting happens only once in the constructor to ensure non-inflationary supply.",
						"params": {
							"_treasury": "The address where the total supply will be initially distributed."
						}
					},
					"decimals()": {
						"details": "Returns the number of decimals used to get its user representation. For example, if `decimals` equals `2`, a balance of `505` tokens should be displayed to a user as `5.05` (`505 / 10 ** 2`). Tokens usually opt for a value of 18, imitating the relationship between Ether and Wei. This is the default value returned by this function, unless it's overridden. NOTE: This information is only used for _display_ purposes: it in no way affects any of the arithmetic of the contract, including {IERC20-balanceOf} and {IERC20-transfer}."
					},
					"eip712Domain()": {
						"details": "See {IERC-5267}."
					},
					"name()": {
						"details": "Returns the name of the token."
					},
					"nonces(address)": {
						"details": "Returns the current nonce for `owner`. This value must be included whenever a signature is generated for {permit}. Every successful call to {permit} increases ``owner``'s nonce by one. This prevents a signature from being used multiple times."
					},
					"permit(address,address,uint256,uint256,uint8,bytes32,bytes32)": {
						"details": "Sets `value` as the allowance of `spender` over ``owner``'s tokens, given ``owner``'s signed approval. IMPORTANT: The same issues {IERC20-approve} has related to transaction ordering also apply here. Emits an {Approval} event. Requirements: - `spender` cannot be the zero address. - `deadline` must be a timestamp in the future. - `v`, `r` and `s` must be a valid `secp256k1` signature from `owner` over the EIP712-formatted function arguments. - the signature must use ``owner``'s current nonce (see {nonces}). For more information on the signature format, see the https://eips.ethereum.org/EIPS/eip-2612#specification[relevant EIP section]. CAUTION: See Security Considerations above."
					},
					"symbol()": {
						"details": "Returns the symbol of the token, usually a shorter version of the name."
					},
					"totalSupply()": {
						"details": "See {IERC20-totalSupply}."
					},
					"transfer(address,uint256)": {
						"details": "See {IERC20-transfer}. Requirements: - `to` cannot be the zero address. - the caller must have a balance of at least `value`."
					},
					"transferFrom(address,address,uint256)": {
						"details": "See {IERC20-transferFrom}. Emits an {Approval} event indicating the updated allowance. This is not required by the EIP. See the note at the beginning of {ERC20}. NOTE: Does not update the allowance if the current allowance is the maximum `uint256`. Requirements: - `from` and `to` cannot be the zero address. - `from` must have a balance of at least `value`. - the caller must have allowance for ``from``'s tokens of at least `value`."
					}
				},
				"stateVariables": {
					"MAX_SUPPLY": {
						"details": "Use underscores for readability; 18 decimals are standard for ERC20."
					}
				},
				"title": "PanjoCoin (PNJC)",
				"version": 1
			},
			"evm": {
				"assembly": "    /* \"Smart-Contract/PNJC.sol\":960:2512  contract PanjoCoin is ERC20, ERC20Burnable, ERC20Permit {... */\n  mstore(0x40, 0x0160)\n    /* \"Smart-Contract/PNJC.sol\":1598:1913  constructor(address _treasury) ... */\n  callvalue\n  dup1\n  iszero\n  tag_1\n  jumpi\n  0x00\n  dup1\n  revert\ntag_1:\n  pop\n  mload(0x40)\n  sub(codesize, bytecodeSize)\n  dup1\n  bytecodeSize\n  dup4\n  codecopy\n  dup2\n  add\n  0x40\n  dup2\n  swap1\n  mstore\n  tag_2\n  swap2\n  tag_3\n  jump\t// in\ntag_2:\n    /* \"@openzeppelin/contracts@5.0.0/token/ERC20/extensions/ERC20Permit.sol\":1574:1626  constructor(string memory name) EIP712(name, \"1\") {} */\n  mload(0x40)\n  dup1\n  0x40\n  add\n  0x40\n  mstore\n  dup1\n  0x09\n  dup2\n  mstore\n  0x20\n  add\n  shl(0xb9, 0x2830b73537a1b7b4b7)\n  dup2\n  mstore\n  pop\n    /* \"@openzeppelin/contracts@5.0.0/token/ERC20/extensions/ERC20Permit.sol\":1613:1617  name */\n  dup1\n    /* \"@openzeppelin/contracts@5.0.0/utils/cryptography/EIP712.sol\":3328:3759  constructor(string memory name, string memory version) {... */\n  mload(0x40)\n  dup1\n  0x40\n  add\n  0x40\n  mstore\n  dup1\n  0x01\n  dup2\n  mstore\n  0x20\n  add\n  shl(0xf8, 0x31)\n  dup2\n  mstore\n  pop\n    /* \"@openzeppelin/contracts@5.0.0/token/ERC20/ERC20.sol\":1896:2009  constructor(string memory name_, string memory symbol_) {... */\n  mload(0x40)\n  dup1\n  0x40\n  add\n  0x40\n  mstore\n  dup1\n  0x09\n  dup2\n  mstore\n  0x20\n  add\n  shl(0xb9, 0x2830b73537a1b7b4b7)\n  dup2\n  mstore\n  pop\n  mload(0x40)\n  dup1\n  0x40\n  add\n  0x40\n  mstore\n  dup1\n  0x04\n  dup2\n  mstore\n  0x20\n  add\n  shl(0xe0, 0x504e4a43)\n  dup2\n  mstore\n  pop\n    /* \"@openzeppelin/contracts@5.0.0/token/ERC20/ERC20.sol\":1970:1975  name_ */\n  dup2\n    /* \"@openzeppelin/contracts@5.0.0/token/ERC20/ERC20.sol\":1962:1967  _name */\n  0x03\n    /* \"@openzeppelin/contracts@5.0.0/token/ERC20/ERC20.sol\":1962:1975  _name = name_ */\n  swap1\n  dup2\n  tag_9\n  swap2\n  swap1\n  tag_10\n  jump\t// in\ntag_9:\n  pop\n    /* \"@openzeppelin/contracts@5.0.0/token/ERC20/ERC20.sol\":1985:1992  _symbol */\n  0x04\n    /* \"@openzeppelin/contracts@5.0.0/token/ERC20/ERC20.sol\":1985:2002  _symbol = symbol_ */\n  tag_11\n    /* \"@openzeppelin/contracts@5.0.0/token/ERC20/ERC20.sol\":1995:2002  symbol_ */\n  dup3\n    /* \"@openzeppelin/contracts@5.0.0/token/ERC20/ERC20.sol\":1985:1992  _symbol */\n  dup3\n    /* \"@openzeppelin/contracts@5.0.0/token/ERC20/ERC20.sol\":1985:2002  _symbol = symbol_ */\n  tag_10\n  jump\t// in\ntag_11:\n  pop\n    /* \"@openzeppelin/contracts@5.0.0/utils/cryptography/EIP712.sol\":3401:3446  name.toShortStringWithFallback(_nameFallback) */\n  tag_13\n  swap2\n  pop\n    /* \"@openzeppelin/contracts@5.0.0/utils/cryptography/EIP712.sol\":3401:3405  name */\n  dup4\n  swap1\n  pop\n    /* \"@openzeppelin/contracts@5.0.0/utils/cryptography/EIP712.sol\":3432:3445  _nameFallback */\n  0x05\n    /* \"@openzeppelin/contracts@5.0.0/utils/cryptography/EIP712.sol\":3401:3431  name.toShortStringWithFallback */\n  tag_14\n    /* \"@openzeppelin/contracts@5.0.0/utils/cryptography/EIP712.sol\":3401:3446  name.toShortStringWithFallback(_nameFallback) */\n  jump\t// in\ntag_13:\n    /* \"@openzeppelin/contracts@5.0.0/utils/cryptography/EIP712.sol\":3393:3446  _name = name.toShortStringWithFallback(_nameFallback) */\n  0x0120\n  mstore\n    /* \"@openzeppelin/contracts@5.0.0/utils/cryptography/EIP712.sol\":3467:3518  version.toShortStringWithFallback(_versionFallback) */\n  tag_15\n    /* \"@openzeppelin/contracts@5.0.0/utils/cryptography/EIP712.sol\":3467:3474  version */\n  dup2\n    /* \"@openzeppelin/contracts@5.0.0/utils/cryptography/EIP712.sol\":3501:3517  _versionFallback */\n  0x06\n    /* \"@openzeppelin/contracts@5.0.0/utils/cryptography/EIP712.sol\":3467:3500  version.toShortStringWithFallback */\n  tag_14\n    /* \"@openzeppelin/contracts@5.0.0/utils/cryptography/EIP712.sol\":3467:3518  version.toShortStringWithFallback(_versionFallback) */\n  jump\t// in\ntag_15:\n    /* \"@openzeppelin/contracts@5.0.0/utils/cryptography/EIP712.sol\":3456:3518  _version = version.toShortStringWithFallback(_versionFallback) */\n  0x0140\n  mstore\n    /* \"@openzeppelin/contracts@5.0.0/utils/cryptography/EIP712.sol\":3542:3564  keccak256(bytes(name)) */\n  dup2\n  mload\n  0x20\n  dup1\n  dup5\n  add\n  swap2\n  swap1\n  swap2\n  keccak256\n    /* \"@openzeppelin/contracts@5.0.0/utils/cryptography/EIP712.sol\":3528:3564  _hashedName = keccak256(bytes(name)) */\n  0xe0\n  mstore\n    /* \"@openzeppelin/contracts@5.0.0/utils/cryptography/EIP712.sol\":3591:3616  keccak256(bytes(version)) */\n  dup2\n  mload\n  swap1\n  dup3\n  add\n  keccak256\n    /* \"@openzeppelin/contracts@5.0.0/utils/cryptography/EIP712.sol\":3574:3616  _hashedVersion = keccak256(bytes(version)) */\n  0x0100\n  mstore\n    /* \"@openzeppelin/contracts@5.0.0/utils/cryptography/EIP712.sol\":3644:3657  block.chainid */\n  chainid\n    /* \"@openzeppelin/contracts@5.0.0/utils/cryptography/EIP712.sol\":3627:3657  _cachedChainId = block.chainid */\n  0xa0\n  mstore\n    /* \"@openzeppelin/contracts@5.0.0/utils/cryptography/EIP712.sol\":3692:3715  _buildDomainSeparator() */\n  tag_16\n    /* \"@openzeppelin/contracts@5.0.0/utils/cryptography/EIP712.sol\":4226:4237  _hashedName */\n  mload(0xe0)\n    /* \"@openzeppelin/contracts@5.0.0/utils/cryptography/EIP712.sol\":4239:4253  _hashedVersion */\n  mload(0x0100)\n    /* \"@openzeppelin/contracts@5.0.0/utils/cryptography/EIP712.sol\":4204:4284  abi.encode(TYPE_HASH, _hashedName, _hashedVersion, block.chainid, address(this)) */\n  0x40\n  dup1\n  mload\n    /* \"@openzeppelin/contracts@5.0.0/utils/cryptography/EIP712.sol\":2079:2174  keccak256(\"EIP712Domain(string name,string version,uint256 chainId,address verifyingContract)\") */\n  0x8b73c3c69bb8fe3d512ecc4cf759cc79239f7b179b0ffacaa9a75d522b39400f\n    /* \"@openzeppelin/contracts@5.0.0/utils/cryptography/EIP712.sol\":4204:4284  abi.encode(TYPE_HASH, _hashedName, _hashedVersion, block.chainid, address(this)) */\n  0x20\n  dup3\n  add\n    /* \"#utility.yul\":3209:3234   */\n  mstore\n    /* \"#utility.yul\":3250:3268   */\n  swap1\n  dup2\n  add\n    /* \"#utility.yul\":3243:3277   */\n  swap3\n  swap1\n  swap3\n  mstore\n    /* \"#utility.yul\":3293:3311   */\n  0x60\n  dup3\n  add\n    /* \"#utility.yul\":3286:3320   */\n  mstore\n    /* \"@openzeppelin/contracts@5.0.0/utils/cryptography/EIP712.sol\":4255:4268  block.chainid */\n  chainid\n    /* \"#utility.yul\":3336:3354   */\n  0x80\n  dup3\n  add\n    /* \"#utility.yul\":3329:3363   */\n  mstore\n    /* \"@openzeppelin/contracts@5.0.0/utils/cryptography/EIP712.sol\":4278:4282  this */\n  address\n    /* \"#utility.yul\":3379:3398   */\n  0xa0\n  dup3\n  add\n    /* \"#utility.yul\":3372:3433   */\n  mstore\n    /* \"@openzeppelin/contracts@5.0.0/utils/cryptography/EIP712.sol\":4168:4175  bytes32 */\n  0x00\n  swap1\n    /* \"#utility.yul\":3181:3200   */\n  0xc0\n  add\n    /* \"@openzeppelin/contracts@5.0.0/utils/cryptography/EIP712.sol\":4204:4284  abi.encode(TYPE_HASH, _hashedName, _hashedVersion, block.chainid, address(this)) */\n  mload(0x40)\n  0x20\n  dup2\n  dup4\n  sub\n  sub\n  dup2\n  mstore\n  swap1\n  0x40\n  mstore\n    /* \"@openzeppelin/contracts@5.0.0/utils/cryptography/EIP712.sol\":4194:4285  keccak256(abi.encode(TYPE_HASH, _hashedName, _hashedVersion, block.chainid, address(this))) */\n  dup1\n  mload\n  swap1\n  0x20\n  add\n  keccak256\n    /* \"@openzeppelin/contracts@5.0.0/utils/cryptography/EIP712.sol\":4187:4285  return keccak256(abi.encode(TYPE_HASH, _hashedName, _hashedVersion, block.chainid, address(this))) */\n  swap1\n  pop\n    /* \"@openzeppelin/contracts@5.0.0/utils/cryptography/EIP712.sol\":4113:4292  function _buildDomainSeparator() private view returns (bytes32) {... */\n  swap1\n  jump\n    /* \"@openzeppelin/contracts@5.0.0/utils/cryptography/EIP712.sol\":3692:3715  _buildDomainSeparator() */\ntag_16:\n    /* \"@openzeppelin/contracts@5.0.0/utils/cryptography/EIP712.sol\":3667:3715  _cachedDomainSeparator = _buildDomainSeparator() */\n  0x80\n  mstore\n  pop\n  pop\n    /* \"@openzeppelin/contracts@5.0.0/utils/cryptography/EIP712.sol\":3747:3751  this */\n  address\n    /* \"@openzeppelin/contracts@5.0.0/utils/cryptography/EIP712.sol\":3725:3752  _cachedThis = address(this) */\n  0xc0\n  mstore\n  pop\n  sub(shl(0xa0, 0x01), 0x01)\n    /* \"Smart-Contract/PNJC.sol\":1722:1745  _treasury == address(0) */\n  dup2\n  and\n    /* \"Smart-Contract/PNJC.sol\":1718:1778  if (_treasury == address(0)) revert InvalidTreasuryAddress() */\n  tag_20\n  jumpi\n    /* \"Smart-Contract/PNJC.sol\":1754:1778  InvalidTreasuryAddress() */\n  mload(0x40)\n  shl(0xe0, 0xcfe2ea63)\n  dup2\n  mstore\n  0x04\n  add\n  mload(0x40)\n  dup1\n  swap2\n  sub\n  swap1\n  revert\n    /* \"Smart-Contract/PNJC.sol\":1718:1778  if (_treasury == address(0)) revert InvalidTreasuryAddress() */\ntag_20:\n    /* \"Smart-Contract/PNJC.sol\":1877:1905  _mint(_treasury, MAX_SUPPLY) */\n  tag_21\n    /* \"Smart-Contract/PNJC.sol\":1883:1892  _treasury */\n  dup2\n    /* \"Smart-Contract/PNJC.sol\":1236:1262  1_000_000_000_000 * 10**18 */\n  0x0c9f2c9cd04674edea40000000\n    /* \"Smart-Contract/PNJC.sol\":1877:1882  _mint */\n  tag_22\n    /* \"Smart-Contract/PNJC.sol\":1877:1905  _mint(_treasury, MAX_SUPPLY) */\n  jump\t// in\ntag_21:\n    /* \"Smart-Contract/PNJC.sol\":1598:1913  constructor(address _treasury) ... */\n  pop\n    /* \"Smart-Contract/PNJC.sol\":960:2512  contract PanjoCoin is ERC20, ERC20Burnable, ERC20Permit {... */\n  jump(tag_68)\n    /* \"@openzeppelin/contracts@5.0.0/utils/ShortStrings.sol\":2914:3254  function toShortStringWithFallback(string memory value, string storage store) internal returns (ShortString) {... */\ntag_14:\n    /* \"@openzeppelin/contracts@5.0.0/utils/ShortStrings.sol\":3010:3021  ShortString */\n  0x00\n    /* \"@openzeppelin/contracts@5.0.0/utils/ShortStrings.sol\":3059:3061  32 */\n  0x20\n    /* \"@openzeppelin/contracts@5.0.0/utils/ShortStrings.sol\":3043:3048  value */\n  dup4\n    /* \"@openzeppelin/contracts@5.0.0/utils/ShortStrings.sol\":3037:3056  bytes(value).length */\n  mload\n    /* \"@openzeppelin/contracts@5.0.0/utils/ShortStrings.sol\":3037:3061  bytes(value).length < 32 */\n  lt\n    /* \"@openzeppelin/contracts@5.0.0/utils/ShortStrings.sol\":3033:3248  if (bytes(value).length < 32) {... */\n  iszero\n  tag_25\n  jumpi\n    /* \"@openzeppelin/contracts@5.0.0/utils/ShortStrings.sol\":3084:3104  toShortString(value) */\n  tag_26\n    /* \"@openzeppelin/contracts@5.0.0/utils/ShortStrings.sol\":3098:3103  value */\n  dup4\n    /* \"@openzeppelin/contracts@5.0.0/utils/ShortStrings.sol\":3084:3097  toShortString */\n  tag_27\n    /* \"@openzeppelin/contracts@5.0.0/utils/ShortStrings.sol\":3084:3104  toShortString(value) */\n  jump\t// in\ntag_26:\n    /* \"@openzeppelin/contracts@5.0.0/utils/ShortStrings.sol\":3077:3104  return toShortString(value) */\n  swap1\n  pop\n  jump(tag_28)\n    /* \"@openzeppelin/contracts@5.0.0/utils/ShortStrings.sol\":3033:3248  if (bytes(value).length < 32) {... */\ntag_25:\n    /* \"@openzeppelin/contracts@5.0.0/utils/ShortStrings.sol\":3161:3166  store */\n  dup2\n    /* \"@openzeppelin/contracts@5.0.0/utils/ShortStrings.sol\":3135:3181  StorageSlot.getStringSlot(store).value = value */\n  tag_31\n    /* \"@openzeppelin/contracts@5.0.0/utils/ShortStrings.sol\":3176:3181  value */\n  dup5\n    /* \"@openzeppelin/contracts@5.0.0/utils/ShortStrings.sol\":3161:3166  store */\n  dup3\n    /* \"@openzeppelin/contracts@5.0.0/utils/ShortStrings.sol\":3135:3181  StorageSlot.getStringSlot(store).value = value */\n  tag_10\n  jump\t// in\ntag_31:\n  pop\n    /* \"@openzeppelin/contracts@5.0.0/utils/ShortStrings.sol\":1390:1456  0x00000000000000000000000000000000000000000000000000000000000000FF */\n  0xff\n  swap1\n  pop\n    /* \"@openzeppelin/contracts@5.0.0/utils/ShortStrings.sol\":3033:3248  if (bytes(value).length < 32) {... */\ntag_28:\n    /* \"@openzeppelin/contracts@5.0.0/utils/ShortStrings.sol\":2914:3254  function toShortStringWithFallback(string memory value, string storage store) internal returns (ShortString) {... */\n  swap3\n  swap2\n  pop\n  pop\n  jump\t// out\n    /* \"@openzeppelin/contracts@5.0.0/token/ERC20/ERC20.sol\":7721:7929  function _mint(address account, uint256 value) internal {... */\ntag_22:\n  sub(shl(0xa0, 0x01), 0x01)\n    /* \"@openzeppelin/contracts@5.0.0/token/ERC20/ERC20.sol\":7791:7812  account == address(0) */\n  dup3\n  and\n    /* \"@openzeppelin/contracts@5.0.0/token/ERC20/ERC20.sol\":7787:7878  if (account == address(0)) {... */\n  tag_36\n  jumpi\n    /* \"@openzeppelin/contracts@5.0.0/token/ERC20/ERC20.sol\":7835:7867  ERC20InvalidReceiver(address(0)) */\n  mload(0x40)\n  shl(0xe0, 0xec442f05)\n  dup2\n  mstore\n    /* \"@openzeppelin/contracts@5.0.0/token/ERC20/ERC20.sol\":7864:7865  0 */\n  0x00\n    /* \"@openzeppelin/contracts@5.0.0/token/ERC20/ERC20.sol\":7835:7867  ERC20InvalidReceiver(address(0)) */\n  0x04\n  dup3\n  add\n    /* \"#utility.yul\":3590:3641   */\n  mstore\n    /* \"#utility.yul\":3563:3581   */\n  0x24\n  add\n    /* \"@openzeppelin/contracts@5.0.0/token/ERC20/ERC20.sol\":7835:7867  ERC20InvalidReceiver(address(0)) */\ntag_37:\n  mload(0x40)\n  dup1\n  swap2\n  sub\n  swap1\n  revert\n    /* \"@openzeppelin/contracts@5.0.0/token/ERC20/ERC20.sol\":7787:7878  if (account == address(0)) {... */\ntag_36:\n    /* \"@openzeppelin/contracts@5.0.0/token/ERC20/ERC20.sol\":7887:7922  _update(address(0), account, value) */\n  tag_39\n    /* \"@openzeppelin/contracts@5.0.0/token/ERC20/ERC20.sol\":7903:7904  0 */\n  0x00\n    /* \"@openzeppelin/contracts@5.0.0/token/ERC20/ERC20.sol\":7907:7914  account */\n  dup4\n    /* \"@openzeppelin/contracts@5.0.0/token/ERC20/ERC20.sol\":7916:7921  value */\n  dup4\n    /* \"@openzeppelin/contracts@5.0.0/token/ERC20/ERC20.sol\":7887:7894  _update */\n  tag_40\n    /* \"@openzeppelin/contracts@5.0.0/token/ERC20/ERC20.sol\":7887:7922  _update(address(0), account, value) */\n  jump\t// in\ntag_39:\n    /* \"@openzeppelin/contracts@5.0.0/token/ERC20/ERC20.sol\":7721:7929  function _mint(address account, uint256 value) internal {... */\n  pop\n  pop\n  jump\t// out\n    /* \"@openzeppelin/contracts@5.0.0/utils/ShortStrings.sol\":1708:1994  function toShortString(string memory str) internal pure returns (ShortString) {... */\ntag_27:\n    /* \"@openzeppelin/contracts@5.0.0/utils/ShortStrings.sol\":1773:1784  ShortString */\n  0x00\n    /* \"@openzeppelin/contracts@5.0.0/utils/ShortStrings.sol\":1796:1813  bytes memory bstr */\n  dup1\n    /* \"@openzeppelin/contracts@5.0.0/utils/ShortStrings.sol\":1822:1825  str */\n  dup3\n    /* \"@openzeppelin/contracts@5.0.0/utils/ShortStrings.sol\":1796:1826  bytes memory bstr = bytes(str) */\n  swap1\n  pop\n    /* \"@openzeppelin/contracts@5.0.0/utils/ShortStrings.sol\":1854:1856  31 */\n  0x1f\n    /* \"@openzeppelin/contracts@5.0.0/utils/ShortStrings.sol\":1840:1844  bstr */\n  dup2\n    /* \"@openzeppelin/contracts@5.0.0/utils/ShortStrings.sol\":1840:1851  bstr.length */\n  mload\n    /* \"@openzeppelin/contracts@5.0.0/utils/ShortStrings.sol\":1840:1856  bstr.length > 31 */\n  gt\n    /* \"@openzeppelin/contracts@5.0.0/utils/ShortStrings.sol\":1836:1908  if (bstr.length > 31) {... */\n  iszero\n  tag_42\n  jumpi\n    /* \"@openzeppelin/contracts@5.0.0/utils/ShortStrings.sol\":1893:1896  str */\n  dup3\n    /* \"@openzeppelin/contracts@5.0.0/utils/ShortStrings.sol\":1879:1897  StringTooLong(str) */\n  mload(0x40)\n  shl(0xe0, 0x305a27a9)\n  dup2\n  mstore\n  0x04\n  add\n  tag_37\n  swap2\n  swap1\n  tag_44\n  jump\t// in\n    /* \"@openzeppelin/contracts@5.0.0/utils/ShortStrings.sol\":1836:1908  if (bstr.length > 31) {... */\ntag_42:\n    /* \"@openzeppelin/contracts@5.0.0/utils/ShortStrings.sol\":1974:1985  bstr.length */\n  dup1\n  mload\n    /* \"@openzeppelin/contracts@5.0.0/utils/ShortStrings.sol\":1957:1970  bytes32(bstr) */\n  tag_45\n    /* \"@openzeppelin/contracts@5.0.0/utils/ShortStrings.sol\":1974:1978  bstr */\n  dup3\n    /* \"@openzeppelin/contracts@5.0.0/utils/ShortStrings.sol\":1957:1970  bytes32(bstr) */\n  tag_46\n  jump\t// in\ntag_45:\n    /* \"@openzeppelin/contracts@5.0.0/utils/ShortStrings.sol\":1949:1985  uint256(bytes32(bstr)) | bstr.length */\n  or\n  swap4\n    /* \"@openzeppelin/contracts@5.0.0/utils/ShortStrings.sol\":1708:1994  function toShortString(string memory str) internal pure returns (ShortString) {... */\n  swap3\n  pop\n  pop\n  pop\n  jump\t// out\n    /* \"Smart-Contract/PNJC.sol\":2351:2509  function _update(address from, address to, uint256 value) ... */\ntag_40:\n    /* \"Smart-Contract/PNJC.sol\":2471:2501  super._update(from, to, value) */\n  tag_49\n    /* \"Smart-Contract/PNJC.sol\":2485:2489  from */\n  dup4\n    /* \"Smart-Contract/PNJC.sol\":2491:2493  to */\n  dup4\n    /* \"Smart-Contract/PNJC.sol\":2495:2500  value */\n  dup4\n    /* \"Smart-Contract/PNJC.sol\":2471:2484  super._update */\n  tag_50\n    /* \"Smart-Contract/PNJC.sol\":2471:2501  super._update(from, to, value) */\n  jump\t// in\ntag_49:\n    /* \"Smart-Contract/PNJC.sol\":2351:2509  function _update(address from, address to, uint256 value) ... */\n  pop\n  pop\n  pop\n  jump\t// out\n    /* \"@openzeppelin/contracts@5.0.0/token/ERC20/ERC20.sol\":6271:7378  function _update(address from, address to, uint256 value) internal virtual {... */\ntag_50:\n  sub(shl(0xa0, 0x01), 0x01)\n    /* \"@openzeppelin/contracts@5.0.0/token/ERC20/ERC20.sol\":6360:6378  from == address(0) */\n  dup4\n  and\n    /* \"@openzeppelin/contracts@5.0.0/token/ERC20/ERC20.sol\":6356:6896  if (from == address(0)) {... */\n  tag_52\n  jumpi\n    /* \"@openzeppelin/contracts@5.0.0/token/ERC20/ERC20.sol\":6512:6517  value */\n  dup1\n    /* \"@openzeppelin/contracts@5.0.0/token/ERC20/ERC20.sol\":6496:6508  _totalSupply */\n  0x02\n  0x00\n    /* \"@openzeppelin/contracts@5.0.0/token/ERC20/ERC20.sol\":6496:6517  _totalSupply += value */\n  dup3\n  dup3\n  sload\n  tag_53\n  swap2\n  swap1\n  tag_54\n  jump\t// in\ntag_53:\n  swap1\n  swap2\n  sstore\n  pop\n    /* \"@openzeppelin/contracts@5.0.0/token/ERC20/ERC20.sol\":6356:6896  if (from == address(0)) {... */\n  tag_55\n  swap1\n  pop\n  jump\ntag_52:\n  sub(shl(0xa0, 0x01), 0x01)\n    /* \"@openzeppelin/contracts@5.0.0/token/ERC20/ERC20.sol\":6570:6585  _balances[from] */\n  dup4\n  and\n    /* \"@openzeppelin/contracts@5.0.0/token/ERC20/ERC20.sol\":6548:6567  uint256 fromBalance */\n  0x00\n    /* \"@openzeppelin/contracts@5.0.0/token/ERC20/ERC20.sol\":6570:6585  _balances[from] */\n  swap1\n  dup2\n  mstore\n  0x20\n  dup2\n  swap1\n  mstore\n  0x40\n  swap1\n  keccak256\n  sload\n    /* \"@openzeppelin/contracts@5.0.0/token/ERC20/ERC20.sol\":6603:6622  fromBalance < value */\n  dup2\n  dup2\n  lt\n    /* \"@openzeppelin/contracts@5.0.0/token/ERC20/ERC20.sol\":6599:6714  if (fromBalance < value) {... */\n  iszero\n  tag_56\n  jumpi\n    /* \"@openzeppelin/contracts@5.0.0/token/ERC20/ERC20.sol\":6649:6699  ERC20InsufficientBalance(from, fromBalance, value) */\n  mload(0x40)\n  shl(0xe2, 0x391434e3)\n  dup2\n  mstore\n  sub(shl(0xa0, 0x01), 0x01)\n    /* \"#utility.yul\":4933:4965   */\n  dup6\n  and\n    /* \"@openzeppelin/contracts@5.0.0/token/ERC20/ERC20.sol\":6649:6699  ERC20InsufficientBalance(from, fromBalance, value) */\n  0x04\n  dup3\n  add\n    /* \"#utility.yul\":4915:4966   */\n  mstore\n    /* \"#utility.yul\":4982:5000   */\n  0x24\n  dup2\n  add\n    /* \"#utility.yul\":4975:5009   */\n  dup3\n  swap1\n  mstore\n    /* \"#utility.yul\":5025:5043   */\n  0x44\n  dup2\n  add\n    /* \"#utility.yul\":5018:5052   */\n  dup4\n  swap1\n  mstore\n    /* \"#utility.yul\":4888:4906   */\n  0x64\n  add\n    /* \"@openzeppelin/contracts@5.0.0/token/ERC20/ERC20.sol\":6649:6699  ERC20InsufficientBalance(from, fromBalance, value) */\n  tag_37\n    /* \"#utility.yul\":4713:5058   */\n  jump\n    /* \"@openzeppelin/contracts@5.0.0/token/ERC20/ERC20.sol\":6599:6714  if (fromBalance < value) {... */\ntag_56:\n  sub(shl(0xa0, 0x01), 0x01)\n    /* \"@openzeppelin/contracts@5.0.0/token/ERC20/ERC20.sol\":6834:6849  _balances[from] */\n  dup5\n  and\n    /* \"@openzeppelin/contracts@5.0.0/token/ERC20/ERC20.sol\":6834:6843  _balances */\n  0x00\n    /* \"@openzeppelin/contracts@5.0.0/token/ERC20/ERC20.sol\":6834:6849  _balances[from] */\n  swap1\n  dup2\n  mstore\n  0x20\n  dup2\n  swap1\n  mstore\n  0x40\n  swap1\n  keccak256\n    /* \"@openzeppelin/contracts@5.0.0/token/ERC20/ERC20.sol\":6852:6871  fromBalance - value */\n  swap1\n  dup3\n  swap1\n  sub\n    /* \"@openzeppelin/contracts@5.0.0/token/ERC20/ERC20.sol\":6834:6871  _balances[from] = fromBalance - value */\n  swap1\n  sstore\n    /* \"@openzeppelin/contracts@5.0.0/token/ERC20/ERC20.sol\":6356:6896  if (from == address(0)) {... */\ntag_55:\n  sub(shl(0xa0, 0x01), 0x01)\n    /* \"@openzeppelin/contracts@5.0.0/token/ERC20/ERC20.sol\":6910:6926  to == address(0) */\n  dup3\n  and\n    /* \"@openzeppelin/contracts@5.0.0/token/ERC20/ERC20.sol\":6906:7331  if (to == address(0)) {... */\n  tag_59\n  jumpi\n    /* \"@openzeppelin/contracts@5.0.0/token/ERC20/ERC20.sol\":7073:7085  _totalSupply */\n  0x02\n    /* \"@openzeppelin/contracts@5.0.0/token/ERC20/ERC20.sol\":7073:7094  _totalSupply -= value */\n  dup1\n  sload\n  dup3\n  swap1\n  sub\n  swap1\n  sstore\n    /* \"@openzeppelin/contracts@5.0.0/token/ERC20/ERC20.sol\":6906:7331  if (to == address(0)) {... */\n  jump(tag_60)\ntag_59:\n  sub(shl(0xa0, 0x01), 0x01)\n    /* \"@openzeppelin/contracts@5.0.0/token/ERC20/ERC20.sol\":7284:7297  _balances[to] */\n  dup3\n  and\n    /* \"@openzeppelin/contracts@5.0.0/token/ERC20/ERC20.sol\":7284:7293  _balances */\n  0x00\n    /* \"@openzeppelin/contracts@5.0.0/token/ERC20/ERC20.sol\":7284:7297  _balances[to] */\n  swap1\n  dup2\n  mstore\n  0x20\n  dup2\n  swap1\n  mstore\n  0x40\n  swap1\n  keccak256\n    /* \"@openzeppelin/contracts@5.0.0/token/ERC20/ERC20.sol\":7284:7306  _balances[to] += value */\n  dup1\n  sload\n  dup3\n  add\n  swap1\n  sstore\n    /* \"@openzeppelin/contracts@5.0.0/token/ERC20/ERC20.sol\":6906:7331  if (to == address(0)) {... */\ntag_60:\n    /* \"@openzeppelin/contracts@5.0.0/token/ERC20/ERC20.sol\":7361:7363  to */\n  dup2\n  sub(shl(0xa0, 0x01), 0x01)\n    /* \"@openzeppelin/contracts@5.0.0/token/ERC20/ERC20.sol\":7346:7371  Transfer(from, to, value) */\n  and\n    /* \"@openzeppelin/contracts@5.0.0/token/ERC20/ERC20.sol\":7355:7359  from */\n  dup4\n  sub(shl(0xa0, 0x01), 0x01)\n    /* \"@openzeppelin/contracts@5.0.0/token/ERC20/ERC20.sol\":7346:7371  Transfer(from, to, value) */\n  and\n  0xddf252ad1be2c89b69c2b068fc378daa952ba7f163c4a11628f55a4df523b3ef\n    /* \"@openzeppelin/contracts@5.0.0/token/ERC20/ERC20.sol\":7365:7370  value */\n  dup4\n    /* \"@openzeppelin/contracts@5.0.0/token/ERC20/ERC20.sol\":7346:7371  Transfer(from, to, value) */\n  mload(0x40)\n  tag_61\n  swap2\n    /* \"#utility.yul\":5209:5234   */\n  dup2\n  mstore\n    /* \"#utility.yul\":5197:5199   */\n  0x20\n    /* \"#utility.yul\":5182:5200   */\n  add\n  swap1\n    /* \"#utility.yul\":5063:5240   */\n  jump\n    /* \"@openzeppelin/contracts@5.0.0/token/ERC20/ERC20.sol\":7346:7371  Transfer(from, to, value) */\ntag_61:\n  mload(0x40)\n  dup1\n  swap2\n  sub\n  swap1\n  log3\n    /* \"@openzeppelin/contracts@5.0.0/token/ERC20/ERC20.sol\":6271:7378  function _update(address from, address to, uint256 value) internal virtual {... */\n  pop\n  pop\n  pop\n  jump\t// out\n    /* \"#utility.yul\":14:304   */\ntag_3:\n    /* \"#utility.yul\":84:90   */\n  0x00\n    /* \"#utility.yul\":137:139   */\n  0x20\n    /* \"#utility.yul\":125:134   */\n  dup3\n    /* \"#utility.yul\":116:123   */\n  dup5\n    /* \"#utility.yul\":112:135   */\n  sub\n    /* \"#utility.yul\":108:140   */\n  slt\n    /* \"#utility.yul\":105:157   */\n  iszero\n  tag_70\n  jumpi\n    /* \"#utility.yul\":153:154   */\n  0x00\n    /* \"#utility.yul\":150:151   */\n  dup1\n    /* \"#utility.yul\":143:155   */\n  revert\n    /* \"#utility.yul\":105:157   */\ntag_70:\n    /* \"#utility.yul\":179:195   */\n  dup2\n  mload\n  sub(shl(0xa0, 0x01), 0x01)\n    /* \"#utility.yul\":224:255   */\n  dup2\n  and\n    /* \"#utility.yul\":214:256   */\n  dup2\n  eq\n    /* \"#utility.yul\":204:274   */\n  tag_71\n  jumpi\n    /* \"#utility.yul\":270:271   */\n  0x00\n    /* \"#utility.yul\":267:268   */\n  dup1\n    /* \"#utility.yul\":260:272   */\n  revert\n    /* \"#utility.yul\":204:274   */\ntag_71:\n    /* \"#utility.yul\":293:298   */\n  swap4\n    /* \"#utility.yul\":14:304   */\n  swap3\n  pop\n  pop\n  pop\n  jump\t// out\n    /* \"#utility.yul\":309:436   */\ntag_63:\n    /* \"#utility.yul\":370:380   */\n  0x4e487b71\n    /* \"#utility.yul\":365:368   */\n  0xe0\n    /* \"#utility.yul\":361:381   */\n  shl\n    /* \"#utility.yul\":358:359   */\n  0x00\n    /* \"#utility.yul\":351:382   */\n  mstore\n    /* \"#utility.yul\":401:405   */\n  0x41\n    /* \"#utility.yul\":398:399   */\n  0x04\n    /* \"#utility.yul\":391:406   */\n  mstore\n    /* \"#utility.yul\":425:429   */\n  0x24\n    /* \"#utility.yul\":422:423   */\n  0x00\n    /* \"#utility.yul\":415:430   */\n  revert\n    /* \"#utility.yul\":441:821   */\ntag_64:\n    /* \"#utility.yul\":520:521   */\n  0x01\n    /* \"#utility.yul\":516:528   */\n  dup2\n  dup2\n  shr\n  swap1\n    /* \"#utility.yul\":563:575   */\n  dup3\n  and\n  dup1\n    /* \"#utility.yul\":584:645   */\n  tag_74\n  jumpi\n    /* \"#utility.yul\":638:642   */\n  0x7f\n    /* \"#utility.yul\":630:636   */\n  dup3\n    /* \"#utility.yul\":626:643   */\n  and\n    /* \"#utility.yul\":616:643   */\n  swap2\n  pop\n    /* \"#utility.yul\":584:645   */\ntag_74:\n    /* \"#utility.yul\":691:693   */\n  0x20\n    /* \"#utility.yul\":683:689   */\n  dup3\n    /* \"#utility.yul\":680:694   */\n  lt\n    /* \"#utility.yul\":660:678   */\n  dup2\n    /* \"#utility.yul\":657:695   */\n  sub\n    /* \"#utility.yul\":654:815   */\n  tag_75\n  jumpi\n    /* \"#utility.yul\":737:747   */\n  0x4e487b71\n    /* \"#utility.yul\":732:735   */\n  0xe0\n    /* \"#utility.yul\":728:748   */\n  shl\n    /* \"#utility.yul\":725:726   */\n  0x00\n    /* \"#utility.yul\":718:749   */\n  mstore\n    /* \"#utility.yul\":772:776   */\n  0x22\n    /* \"#utility.yul\":769:770   */\n  0x04\n    /* \"#utility.yul\":762:777   */\n  mstore\n    /* \"#utility.yul\":800:804   */\n  0x24\n    /* \"#utility.yul\":797:798   */\n  0x00\n    /* \"#utility.yul\":790:805   */\n  revert\n    /* \"#utility.yul\":654:815   */\ntag_75:\n  pop\n    /* \"#utility.yul\":441:821   */\n  swap2\n  swap1\n  pop\n  jump\t// out\n    /* \"#utility.yul\":952:1470   */\ntag_66:\n    /* \"#utility.yul\":1054:1056   */\n  0x1f\n    /* \"#utility.yul\":1049:1052   */\n  dup3\n    /* \"#utility.yul\":1046:1057   */\n  gt\n    /* \"#utility.yul\":1043:1464   */\n  iszero\n  tag_49\n  jumpi\n    /* \"#utility.yul\":1090:1095   */\n  dup1\n    /* \"#utility.yul\":1087:1088   */\n  0x00\n    /* \"#utility.yul\":1080:1096   */\n  mstore\n    /* \"#utility.yul\":1134:1138   */\n  0x20\n    /* \"#utility.yul\":1131:1132   */\n  0x00\n    /* \"#utility.yul\":1121:1139   */\n  keccak256\n    /* \"#utility.yul\":1204:1206   */\n  0x1f\n    /* \"#utility.yul\":1192:1202   */\n  dup5\n    /* \"#utility.yul\":1188:1207   */\n  add\n    /* \"#utility.yul\":1185:1186   */\n  0x05\n    /* \"#utility.yul\":1181:1208   */\n  shr\n    /* \"#utility.yul\":1175:1179   */\n  dup2\n    /* \"#utility.yul\":1171:1209   */\n  add\n    /* \"#utility.yul\":1240:1244   */\n  0x20\n    /* \"#utility.yul\":1228:1238   */\n  dup6\n    /* \"#utility.yul\":1225:1245   */\n  lt\n    /* \"#utility.yul\":1222:1269   */\n  iszero\n  tag_79\n  jumpi\n  pop\n    /* \"#utility.yul\":1263:1267   */\n  dup1\n    /* \"#utility.yul\":1222:1269   */\ntag_79:\n    /* \"#utility.yul\":1318:1320   */\n  0x1f\n    /* \"#utility.yul\":1313:1316   */\n  dup5\n    /* \"#utility.yul\":1309:1321   */\n  add\n    /* \"#utility.yul\":1306:1307   */\n  0x05\n    /* \"#utility.yul\":1302:1322   */\n  shr\n    /* \"#utility.yul\":1296:1300   */\n  dup3\n    /* \"#utility.yul\":1292:1323   */\n  add\n    /* \"#utility.yul\":1282:1323   */\n  swap2\n  pop\n    /* \"#utility.yul\":1373:1454   */\ntag_80:\n    /* \"#utility.yul\":1391:1393   */\n  dup2\n    /* \"#utility.yul\":1384:1389   */\n  dup2\n    /* \"#utility.yul\":1381:1394   */\n  lt\n    /* \"#utility.yul\":1373:1454   */\n  iszero\n  tag_82\n  jumpi\n    /* \"#utility.yul\":1450:1451   */\n  0x00\n    /* \"#utility.yul\":1436:1452   */\n  dup2\n  sstore\n    /* \"#utility.yul\":1417:1418   */\n  0x01\n    /* \"#utility.yul\":1406:1419   */\n  add\n    /* \"#utility.yul\":1373:1454   */\n  jump(tag_80)\ntag_82:\n    /* \"#utility.yul\":1377:1380   */\n  pop\n  pop\n    /* \"#utility.yul\":952:1470   */\n  pop\n  pop\n  pop\n  jump\t// out\n    /* \"#utility.yul\":1646:2945   */\ntag_10:\n    /* \"#utility.yul\":1766:1776   */\n  dup2\n  mload\n  sub(shl(0x40, 0x01), 0x01)\n    /* \"#utility.yul\":1788:1818   */\n  dup2\n  gt\n    /* \"#utility.yul\":1785:1841   */\n  iszero\n  tag_86\n  jumpi\n    /* \"#utility.yul\":1821:1839   */\n  tag_86\n  tag_63\n  jump\t// in\ntag_86:\n    /* \"#utility.yul\":1850:1947   */\n  tag_87\n    /* \"#utility.yul\":1940:1946   */\n  dup2\n    /* \"#utility.yul\":1900:1938   */\n  tag_88\n    /* \"#utility.yul\":1932:1936   */\n  dup5\n    /* \"#utility.yul\":1926:1937   */\n  sload\n    /* \"#utility.yul\":1900:1938   */\n  tag_64\n  jump\t// in\ntag_88:\n    /* \"#utility.yul\":1894:1898   */\n  dup5\n    /* \"#utility.yul\":1850:1947   */\n  tag_66\n  jump\t// in\ntag_87:\n    /* \"#utility.yul\":1996:2000   */\n  0x20\n    /* \"#utility.yul\":2027:2029   */\n  0x1f\n    /* \"#utility.yul\":2016:2030   */\n  dup3\n  gt\n    /* \"#utility.yul\":2044:2045   */\n  0x01\n    /* \"#utility.yul\":2039:2688   */\n  dup2\n  eq\n  tag_90\n  jumpi\n    /* \"#utility.yul\":2732:2733   */\n  0x00\n    /* \"#utility.yul\":2749:2755   */\n  dup4\n    /* \"#utility.yul\":2746:2835   */\n  iszero\n  tag_91\n  jumpi\n  pop\n    /* \"#utility.yul\":2801:2820   */\n  dup5\n  dup3\n  add\n    /* \"#utility.yul\":2795:2821   */\n  mload\n    /* \"#utility.yul\":2746:2835   */\ntag_91:\n  not(0x00)\n    /* \"#utility.yul\":1603:1604   */\n  0x03\n    /* \"#utility.yul\":1599:1610   */\n  dup6\n  swap1\n  shl\n    /* \"#utility.yul\":1595:1619   */\n  shr\n    /* \"#utility.yul\":1591:1620   */\n  not\n    /* \"#utility.yul\":1581:1621   */\n  and\n    /* \"#utility.yul\":1627:1628   */\n  0x01\n    /* \"#utility.yul\":1623:1634   */\n  dup5\n  swap1\n  shl\n    /* \"#utility.yul\":1578:1635   */\n  or\n    /* \"#utility.yul\":2848:2929   */\n  dup5\n  sstore\n    /* \"#utility.yul\":2009:2939   */\n  jump(tag_82)\n    /* \"#utility.yul\":2039:2688   */\ntag_90:\n    /* \"#utility.yul\":899:900   */\n  0x00\n    /* \"#utility.yul\":892:906   */\n  dup5\n  dup2\n  mstore\n    /* \"#utility.yul\":936:940   */\n  0x20\n    /* \"#utility.yul\":923:941   */\n  dup2\n  keccak256\n  not(0x1f)\n    /* \"#utility.yul\":2075:2095   */\n  dup6\n  and\n  swap2\n    /* \"#utility.yul\":2193:2415   */\ntag_94:\n    /* \"#utility.yul\":2207:2214   */\n  dup3\n    /* \"#utility.yul\":2204:2205   */\n  dup2\n    /* \"#utility.yul\":2201:2215   */\n  lt\n    /* \"#utility.yul\":2193:2415   */\n  iszero\n  tag_96\n  jumpi\n    /* \"#utility.yul\":2289:2308   */\n  dup8\n  dup6\n  add\n    /* \"#utility.yul\":2283:2309   */\n  mload\n    /* \"#utility.yul\":2268:2310   */\n  dup3\n  sstore\n    /* \"#utility.yul\":2396:2400   */\n  0x20\n    /* \"#utility.yul\":2381:2401   */\n  swap5\n  dup6\n  add\n  swap5\n    /* \"#utility.yul\":2349:2350   */\n  0x01\n    /* \"#utility.yul\":2337:2351   */\n  swap1\n  swap3\n  add\n  swap2\n    /* \"#utility.yul\":2223:2235   */\n  add\n    /* \"#utility.yul\":2193:2415   */\n  jump(tag_94)\ntag_96:\n    /* \"#utility.yul\":2197:2200   */\n  pop\n    /* \"#utility.yul\":2443:2449   */\n  dup5\n    /* \"#utility.yul\":2434:2441   */\n  dup3\n    /* \"#utility.yul\":2431:2450   */\n  lt\n    /* \"#utility.yul\":2428:2629   */\n  iszero\n  tag_97\n  jumpi\n    /* \"#utility.yul\":2504:2523   */\n  dup7\n  dup5\n  add\n    /* \"#utility.yul\":2498:2524   */\n  mload\n  not(0x00)\n    /* \"#utility.yul\":2587:2588   */\n  0x03\n    /* \"#utility.yul\":2583:2597   */\n  dup8\n  swap1\n  shl\n    /* \"#utility.yul\":2599:2602   */\n  0xf8\n    /* \"#utility.yul\":2579:2603   */\n  and\n    /* \"#utility.yul\":2575:2612   */\n  shr\n    /* \"#utility.yul\":2571:2613   */\n  not\n    /* \"#utility.yul\":2556:2614   */\n  and\n    /* \"#utility.yul\":2541:2615   */\n  dup2\n  sstore\n    /* \"#utility.yul\":2428:2629   */\ntag_97:\n  pop\n  pop\n  pop\n  pop\n    /* \"#utility.yul\":2675:2676   */\n  0x01\n    /* \"#utility.yul\":2659:2673   */\n  swap1\n  dup2\n  shl\n    /* \"#utility.yul\":2655:2677   */\n  add\n    /* \"#utility.yul\":2642:2678   */\n  swap1\n  sstore\n  pop\n    /* \"#utility.yul\":1646:2945   */\n  jump\t// out\n    /* \"#utility.yul\":3652:4179   */\ntag_44:\n    /* \"#utility.yul\":3801:3803   */\n  0x20\n    /* \"#utility.yul\":3790:3799   */\n  dup2\n    /* \"#utility.yul\":3783:3804   */\n  mstore\n    /* \"#utility.yul\":3764:3768   */\n  0x00\n    /* \"#utility.yul\":3833:3839   */\n  dup3\n    /* \"#utility.yul\":3827:3840   */\n  mload\n    /* \"#utility.yul\":3876:3882   */\n  dup1\n    /* \"#utility.yul\":3871:3873   */\n  0x20\n    /* \"#utility.yul\":3860:3869   */\n  dup5\n    /* \"#utility.yul\":3856:3874   */\n  add\n    /* \"#utility.yul\":3849:3883   */\n  mstore\n    /* \"#utility.yul\":3901:3902   */\n  0x00\n    /* \"#utility.yul\":3911:4051   */\ntag_101:\n    /* \"#utility.yul\":3925:3931   */\n  dup2\n    /* \"#utility.yul\":3922:3923   */\n  dup2\n    /* \"#utility.yul\":3919:3932   */\n  lt\n    /* \"#utility.yul\":3911:4051   */\n  iszero\n  tag_103\n  jumpi\n    /* \"#utility.yul\":4036:4038   */\n  0x20\n    /* \"#utility.yul\":4020:4034   */\n  dup2\n  dup7\n  add\n    /* \"#utility.yul\":4016:4039   */\n  dup2\n  add\n    /* \"#utility.yul\":4010:4040   */\n  mload\n    /* \"#utility.yul\":4005:4007   */\n  0x40\n    /* \"#utility.yul\":3986:4003   */\n  dup7\n  dup5\n  add\n    /* \"#utility.yul\":3982:4008   */\n  add\n    /* \"#utility.yul\":3975:4041   */\n  mstore\n    /* \"#utility.yul\":3940:3950   */\n  add\n    /* \"#utility.yul\":3911:4051   */\n  jump(tag_101)\ntag_103:\n    /* \"#utility.yul\":3915:3918   */\n  pop\n    /* \"#utility.yul\":4100:4101   */\n  0x00\n    /* \"#utility.yul\":4095:4097   */\n  0x40\n    /* \"#utility.yul\":4086:4092   */\n  dup3\n    /* \"#utility.yul\":4075:4084   */\n  dup6\n    /* \"#utility.yul\":4071:4093   */\n  add\n    /* \"#utility.yul\":4067:4098   */\n  add\n    /* \"#utility.yul\":4060:4102   */\n  mstore\n    /* \"#utility.yul\":4170:4172   */\n  0x40\n    /* \"#utility.yul\":4163:4165   */\n  0x1f\n    /* \"#utility.yul\":4159:4166   */\n  not\n    /* \"#utility.yul\":4154:4156   */\n  0x1f\n    /* \"#utility.yul\":4146:4152   */\n  dup4\n    /* \"#utility.yul\":4142:4157   */\n  add\n    /* \"#utility.yul\":4138:4167   */\n  and\n    /* \"#utility.yul\":4127:4136   */\n  dup5\n    /* \"#utility.yul\":4123:4168   */\n  add\n    /* \"#utility.yul\":4119:4173   */\n  add\n    /* \"#utility.yul\":4111:4173   */\n  swap2\n  pop\n  pop\n    /* \"#utility.yul\":3652:4179   */\n  swap3\n  swap2\n  pop\n  pop\n  jump\t// out\n    /* \"#utility.yul\":4184:4481   */\ntag_46:\n    /* \"#utility.yul\":4302:4314   */\n  dup1\n  mload\n    /* \"#utility.yul\":4349:4353   */\n  0x20\n    /* \"#utility.yul\":4338:4354   */\n  dup1\n  dup4\n  add\n    /* \"#utility.yul\":4332:4355   */\n  mload\n  swap2\n    /* \"#utility.yul\":4302:4314   */\n  swap1\n    /* \"#utility.yul\":4367:4383   */\n  dup2\n  lt\n    /* \"#utility.yul\":4364:4475   */\n  iszero\n  tag_75\n  jumpi\n  not(0x00)\n    /* \"#utility.yul\":4441:4445   */\n  0x20\n    /* \"#utility.yul\":4437:4454   */\n  swap2\n  swap1\n  swap2\n  sub\n    /* \"#utility.yul\":4434:4435   */\n  0x03\n    /* \"#utility.yul\":4430:4455   */\n  shl\n    /* \"#utility.yul\":4426:4464   */\n  shl\n    /* \"#utility.yul\":4415:4465   */\n  and\n  swap2\n    /* \"#utility.yul\":4184:4481   */\n  swap1\n  pop\n  jump\t// out\n    /* \"#utility.yul\":4486:4708   */\ntag_54:\n    /* \"#utility.yul\":4551:4560   */\n  dup1\n  dup3\n  add\n    /* \"#utility.yul\":4572:4582   */\n  dup1\n  dup3\n  gt\n    /* \"#utility.yul\":4569:4702   */\n  iszero\n  tag_28\n  jumpi\n    /* \"#utility.yul\":4624:4634   */\n  0x4e487b71\n    /* \"#utility.yul\":4619:4622   */\n  0xe0\n    /* \"#utility.yul\":4615:4635   */\n  shl\n    /* \"#utility.yul\":4612:4613   */\n  0x00\n    /* \"#utility.yul\":4605:4636   */\n  mstore\n    /* \"#utility.yul\":4659:4663   */\n  0x11\n    /* \"#utility.yul\":4656:4657   */\n  0x04\n    /* \"#utility.yul\":4649:4664   */\n  mstore\n    /* \"#utility.yul\":4687:4691   */\n  0x24\n    /* \"#utility.yul\":4684:4685   */\n  0x00\n    /* \"#utility.yul\":4677:4692   */\n  revert\n    /* \"#utility.yul\":5063:5240   */\ntag_68:\n    /* \"Smart-Contract/PNJC.sol\":960:2512  contract PanjoCoin is ERC20, ERC20Burnable, ERC20Permit {... */\n  mload(0x80)\n  mload(0xa0)\n  mload(0xc0)\n  mload(0xe0)\n  mload(0x0100)\n  mload(0x0120)\n  mload(0x0140)\n  codecopy(0x00, dataOffset(sub_0), dataSize(sub_0))\n  0x00\n  assignImmutable(\"0xdd6ebedecc3782991b040722d05346ae76115706b237b0f241066a60ee7c2169\")\n  0x00\n  assignImmutable(\"0xf598d05e51facafddb4666a870ba9c91ee31463df052628aed50dc3216257420\")\n  0x00\n  assignImmutable(\"0xd188a1da6d6dfc972f5d1614b9a5ea681202f643e26bdaa8898fb08d79dc84fc\")\n  0x00\n  assignImmutable(\"0x4e669ebbfc9e66ba0d4cc2f926c330636a2f58d7a9b7cd75440140ab15886cf5\")\n  0x00\n  assignImmutable(\"0xbbcd1c28ce682af6448978891f662eb3dc81396033e42cf25613829f0d41f2f6\")\n  0x00\n  assignImmutable(\"0x1cecd53757ff41334b0aac95136e45c28b8f0c7557fa90afd0025eaeb7956e02\")\n  0x00\n  assignImmutable(\"0x214fa292011259fa3e2a454aff2965073026e84fae83737d5134727cec419afa\")\n  return(0x00, dataSize(sub_0))\nstop\n\nsub_0: assembly {\n        /* \"Smart-Contract/PNJC.sol\":960:2512  contract PanjoCoin is ERC20, ERC20Burnable, ERC20Permit {... */\n      mstore(0x40, 0x80)\n      callvalue\n      dup1\n      iszero\n      tag_1\n      jumpi\n      0x00\n      dup1\n      revert\n    tag_1:\n      pop\n      jumpi(tag_2, lt(calldatasize, 0x04))\n      shr(0xe0, calldataload(0x00))\n      dup1\n      0x70a08231\n      gt\n      tag_19\n      jumpi\n      dup1\n      0x95d89b41\n      gt\n      tag_20\n      jumpi\n      dup1\n      0x95d89b41\n      eq\n      tag_15\n      jumpi\n      dup1\n      0xa9059cbb\n      eq\n      tag_16\n      jumpi\n      dup1\n      0xd505accf\n      eq\n      tag_17\n      jumpi\n      dup1\n      0xdd62ed3e\n      eq\n      tag_18\n      jumpi\n      0x00\n      dup1\n      revert\n    tag_20:\n      dup1\n      0x70a08231\n      eq\n      tag_11\n      jumpi\n      dup1\n      0x79cc6790\n      eq\n      tag_12\n      jumpi\n      dup1\n      0x7ecebe00\n      eq\n      tag_13\n      jumpi\n      dup1\n      0x84b0196e\n      eq\n      tag_14\n      jumpi\n      0x00\n      dup1\n      revert\n    tag_19:\n      dup1\n      0x313ce567\n      gt\n      tag_21\n      jumpi\n      dup1\n      0x313ce567\n      eq\n      tag_7\n      jumpi\n      dup1\n      0x32cb6b0c\n      eq\n      tag_8\n      jumpi\n      dup1\n      0x3644e515\n      eq\n      tag_9\n      jumpi\n      dup1\n      0x42966c68\n      eq\n      tag_10\n      jumpi\n      0x00\n      dup1\n      revert\n    tag_21:\n      dup1\n      0x06fdde03\n      eq\n      tag_3\n      jumpi\n      dup1\n      0x095ea7b3\n      eq\n      tag_4\n      jumpi\n      dup1\n      0x18160ddd\n      eq\n      tag_5\n      jumpi\n      dup1\n      0x23b872dd\n      eq\n      tag_6\n      jumpi\n    tag_2:\n      0x00\n      dup1\n      revert\n        /* \"@openzeppelin/contracts@5.0.0/token/ERC20/ERC20.sol\":2074:2163  function name() public view virtual returns (string memory) {... */\n    tag_3:\n      tag_22\n      tag_23\n      jump\t// in\n    tag_22:\n      mload(0x40)\n      tag_24\n      swap2\n      swap1\n      tag_25\n      jump\t// in\n    tag_24:\n      mload(0x40)\n      dup1\n      swap2\n      sub\n      swap1\n      return\n        /* \"@openzeppelin/contracts@5.0.0/token/ERC20/ERC20.sol\":4293:4479  function approve(address spender, uint256 value) public virtual returns (bool) {... */\n    tag_4:\n      tag_26\n      tag_27\n      calldatasize\n      0x04\n      tag_28\n      jump\t// in\n    tag_27:\n      tag_29\n      jump\t// in\n    tag_26:\n      mload(0x40)\n        /* \"#utility.yul\":1292:1306   */\n      swap1\n      iszero\n        /* \"#utility.yul\":1285:1307   */\n      iszero\n        /* \"#utility.yul\":1267:1308   */\n      dup2\n      mstore\n        /* \"#utility.yul\":1255:1257   */\n      0x20\n        /* \"#utility.yul\":1240:1258   */\n      add\n        /* \"@openzeppelin/contracts@5.0.0/token/ERC20/ERC20.sol\":4293:4479  function approve(address spender, uint256 value) public virtual returns (bool) {... */\n      tag_24\n        /* \"#utility.yul\":1127:1314   */\n      jump\n        /* \"@openzeppelin/contracts@5.0.0/token/ERC20/ERC20.sol\":3144:3241  function totalSupply() public view virtual returns (uint256) {... */\n    tag_5:\n        /* \"@openzeppelin/contracts@5.0.0/token/ERC20/ERC20.sol\":3222:3234  _totalSupply */\n      sload(0x02)\n        /* \"@openzeppelin/contracts@5.0.0/token/ERC20/ERC20.sol\":3144:3241  function totalSupply() public view virtual returns (uint256) {... */\n    tag_32:\n      mload(0x40)\n        /* \"#utility.yul\":1465:1490   */\n      swap1\n      dup2\n      mstore\n        /* \"#utility.yul\":1453:1455   */\n      0x20\n        /* \"#utility.yul\":1438:1456   */\n      add\n        /* \"@openzeppelin/contracts@5.0.0/token/ERC20/ERC20.sol\":3144:3241  function totalSupply() public view virtual returns (uint256) {... */\n      tag_24\n        /* \"#utility.yul\":1319:1496   */\n      jump\n        /* \"@openzeppelin/contracts@5.0.0/token/ERC20/ERC20.sol\":5039:5283  function transferFrom(address from, address to, uint256 value) public virtual returns (bool) {... */\n    tag_6:\n      tag_26\n      tag_37\n      calldatasize\n      0x04\n      tag_38\n      jump\t// in\n    tag_37:\n      tag_39\n      jump\t// in\n        /* \"@openzeppelin/contracts@5.0.0/token/ERC20/ERC20.sol\":3002:3084  function decimals() public view virtual returns (uint8) {... */\n    tag_7:\n      mload(0x40)\n        /* \"@openzeppelin/contracts@5.0.0/token/ERC20/ERC20.sol\":3075:3077  18 */\n      0x12\n        /* \"#utility.yul\":2022:2058   */\n      dup2\n      mstore\n        /* \"#utility.yul\":2010:2012   */\n      0x20\n        /* \"#utility.yul\":1995:2013   */\n      add\n        /* \"@openzeppelin/contracts@5.0.0/token/ERC20/ERC20.sol\":3002:3084  function decimals() public view virtual returns (uint8) {... */\n      tag_24\n        /* \"#utility.yul\":1880:2064   */\n      jump\n        /* \"Smart-Contract/PNJC.sol\":1199:1262  uint256 public constant MAX_SUPPLY = 1_000_000_000_000 * 10**18 */\n    tag_8:\n      tag_32\n        /* \"Smart-Contract/PNJC.sol\":1236:1262  1_000_000_000_000 * 10**18 */\n      0x0c9f2c9cd04674edea40000000\n        /* \"Smart-Contract/PNJC.sol\":1199:1262  uint256 public constant MAX_SUPPLY = 1_000_000_000_000 * 10**18 */\n      dup2\n      jump\n        /* \"@openzeppelin/contracts@5.0.0/token/ERC20/extensions/ERC20Permit.sol\":2656:2768  function DOMAIN_SEPARATOR() external view virtual returns (bytes32) {... */\n    tag_9:\n      tag_32\n      tag_49\n      jump\t// in\n        /* \"@openzeppelin/contracts@5.0.0/token/ERC20/extensions/ERC20Burnable.sol\":618:705  function burn(uint256 value) public virtual {... */\n    tag_10:\n      tag_52\n      tag_53\n      calldatasize\n      0x04\n      tag_54\n      jump\t// in\n    tag_53:\n      tag_55\n      jump\t// in\n    tag_52:\n      stop\n        /* \"@openzeppelin/contracts@5.0.0/token/ERC20/ERC20.sol\":3299:3415  function balanceOf(address account) public view virtual returns (uint256) {... */\n    tag_11:\n      tag_32\n      tag_57\n      calldatasize\n      0x04\n      tag_58\n      jump\t// in\n    tag_57:\n      sub(shl(0xa0, 0x01), 0x01)\n        /* \"@openzeppelin/contracts@5.0.0/token/ERC20/ERC20.sol\":3390:3408  _balances[account] */\n      and\n        /* \"@openzeppelin/contracts@5.0.0/token/ERC20/ERC20.sol\":3364:3371  uint256 */\n      0x00\n        /* \"@openzeppelin/contracts@5.0.0/token/ERC20/ERC20.sol\":3390:3408  _balances[account] */\n      swap1\n      dup2\n      mstore\n      0x20\n      dup2\n      swap1\n      mstore\n      0x40\n      swap1\n      keccak256\n      sload\n      swap1\n        /* \"@openzeppelin/contracts@5.0.0/token/ERC20/ERC20.sol\":3299:3415  function balanceOf(address account) public view virtual returns (uint256) {... */\n      jump\n        /* \"@openzeppelin/contracts@5.0.0/token/ERC20/extensions/ERC20Burnable.sol\":1021:1179  function burnFrom(address account, uint256 value) public virtual {... */\n    tag_12:\n      tag_52\n      tag_62\n      calldatasize\n      0x04\n      tag_28\n      jump\t// in\n    tag_62:\n      tag_63\n      jump\t// in\n        /* \"@openzeppelin/contracts@5.0.0/token/ERC20/extensions/ERC20Permit.sol\":2406:2549  function nonces(address owner) public view virtual override(IERC20Permit, Nonces) returns (uint256) {... */\n    tag_13:\n      tag_32\n      tag_65\n      calldatasize\n      0x04\n      tag_58\n      jump\t// in\n    tag_65:\n      tag_66\n      jump\t// in\n        /* \"@openzeppelin/contracts@5.0.0/utils/cryptography/EIP712.sol\":5144:5701  function eip712Domain()... */\n    tag_14:\n      tag_68\n      tag_69\n      jump\t// in\n    tag_68:\n      mload(0x40)\n      tag_24\n      swap8\n      swap7\n      swap6\n      swap5\n      swap4\n      swap3\n      swap2\n      swap1\n      tag_71\n      jump\t// in\n        /* \"@openzeppelin/contracts@5.0.0/token/ERC20/ERC20.sol\":2276:2369  function symbol() public view virtual returns (string memory) {... */\n    tag_15:\n      tag_22\n      tag_73\n      jump\t// in\n        /* \"@openzeppelin/contracts@5.0.0/token/ERC20/ERC20.sol\":3610:3788  function transfer(address to, uint256 value) public virtual returns (bool) {... */\n    tag_16:\n      tag_26\n      tag_76\n      calldatasize\n      0x04\n      tag_28\n      jump\t// in\n    tag_76:\n      tag_77\n      jump\t// in\n        /* \"@openzeppelin/contracts@5.0.0/token/ERC20/extensions/ERC20Permit.sol\":1680:2352  function permit(... */\n    tag_17:\n      tag_52\n      tag_80\n      calldatasize\n      0x04\n      tag_81\n      jump\t// in\n    tag_80:\n      tag_82\n      jump\t// in\n        /* \"@openzeppelin/contracts@5.0.0/token/ERC20/ERC20.sol\":3846:3986  function allowance(address owner, address spender) public view virtual returns (uint256) {... */\n    tag_18:\n      tag_32\n      tag_84\n      calldatasize\n      0x04\n      tag_85\n      jump\t// in\n    tag_84:\n      sub(shl(0xa0, 0x01), 0x01)\n        /* \"@openzeppelin/contracts@5.0.0/token/ERC20/ERC20.sol\":3952:3970  _allowances[owner] */\n      swap2\n      dup3\n      and\n        /* \"@openzeppelin/contracts@5.0.0/token/ERC20/ERC20.sol\":3926:3933  uint256 */\n      0x00\n        /* \"@openzeppelin/contracts@5.0.0/token/ERC20/ERC20.sol\":3952:3970  _allowances[owner] */\n      swap1\n      dup2\n      mstore\n        /* \"@openzeppelin/contracts@5.0.0/token/ERC20/ERC20.sol\":3952:3963  _allowances */\n      0x01\n        /* \"@openzeppelin/contracts@5.0.0/token/ERC20/ERC20.sol\":3952:3970  _allowances[owner] */\n      0x20\n      swap1\n      dup2\n      mstore\n      0x40\n      dup1\n      dup4\n      keccak256\n        /* \"@openzeppelin/contracts@5.0.0/token/ERC20/ERC20.sol\":3952:3979  _allowances[owner][spender] */\n      swap4\n      swap1\n      swap5\n      and\n      dup3\n      mstore\n      swap2\n      swap1\n      swap2\n      mstore\n      keccak256\n      sload\n      swap1\n        /* \"@openzeppelin/contracts@5.0.0/token/ERC20/ERC20.sol\":3846:3986  function allowance(address owner, address spender) public view virtual returns (uint256) {... */\n      jump\n        /* \"@openzeppelin/contracts@5.0.0/token/ERC20/ERC20.sol\":2074:2163  function name() public view virtual returns (string memory) {... */\n    tag_23:\n        /* \"@openzeppelin/contracts@5.0.0/token/ERC20/ERC20.sol\":2119:2132  string memory */\n      0x60\n        /* \"@openzeppelin/contracts@5.0.0/token/ERC20/ERC20.sol\":2151:2156  _name */\n      0x03\n        /* \"@openzeppelin/contracts@5.0.0/token/ERC20/ERC20.sol\":2144:2156  return _name */\n      dup1\n      sload\n      tag_89\n      swap1\n      tag_90\n      jump\t// in\n    tag_89:\n      dup1\n      0x1f\n      add\n      0x20\n      dup1\n      swap2\n      div\n      mul\n      0x20\n      add\n      mload(0x40)\n      swap1\n      dup2\n      add\n      0x40\n      mstore\n      dup1\n      swap3\n      swap2\n      swap1\n      dup2\n      dup2\n      mstore\n      0x20\n      add\n      dup3\n      dup1\n      sload\n      tag_91\n      swap1\n      tag_90\n      jump\t// in\n    tag_91:\n      dup1\n      iszero\n      tag_92\n      jumpi\n      dup1\n      0x1f\n      lt\n      tag_93\n      jumpi\n      0x0100\n      dup1\n      dup4\n      sload\n      div\n      mul\n      dup4\n      mstore\n      swap2\n      0x20\n      add\n      swap2\n      jump(tag_92)\n    tag_93:\n      dup3\n      add\n      swap2\n      swap1\n      0x00\n      mstore\n      keccak256(0x00, 0x20)\n      swap1\n    tag_94:\n      dup2\n      sload\n      dup2\n      mstore\n      swap1\n      0x01\n      add\n      swap1\n      0x20\n      add\n      dup1\n      dup4\n      gt\n      tag_94\n      jumpi\n      dup3\n      swap1\n      sub\n      0x1f\n      and\n      dup3\n      add\n      swap2\n    tag_92:\n      pop\n      pop\n      pop\n      pop\n      pop\n      swap1\n      pop\n        /* \"@openzeppelin/contracts@5.0.0/token/ERC20/ERC20.sol\":2074:2163  function name() public view virtual returns (string memory) {... */\n      swap1\n      jump\t// out\n        /* \"@openzeppelin/contracts@5.0.0/token/ERC20/ERC20.sol\":4293:4479  function approve(address spender, uint256 value) public virtual returns (bool) {... */\n    tag_29:\n        /* \"@openzeppelin/contracts@5.0.0/token/ERC20/ERC20.sol\":4366:4370  bool */\n      0x00\n        /* \"@openzeppelin/contracts@5.0.0/utils/Context.sol\":735:745  msg.sender */\n      caller\n        /* \"@openzeppelin/contracts@5.0.0/token/ERC20/ERC20.sol\":4420:4451  _approve(owner, spender, value) */\n      tag_98\n        /* \"@openzeppelin/contracts@5.0.0/utils/Context.sol\":735:745  msg.sender */\n      dup2\n        /* \"@openzeppelin/contracts@5.0.0/token/ERC20/ERC20.sol\":4436:4443  spender */\n      dup6\n        /* \"@openzeppelin/contracts@5.0.0/token/ERC20/ERC20.sol\":4445:4450  value */\n      dup6\n        /* \"@openzeppelin/contracts@5.0.0/token/ERC20/ERC20.sol\":4420:4428  _approve */\n      tag_99\n        /* \"@openzeppelin/contracts@5.0.0/token/ERC20/ERC20.sol\":4420:4451  _approve(owner, spender, value) */\n      jump\t// in\n    tag_98:\n        /* \"@openzeppelin/contracts@5.0.0/token/ERC20/ERC20.sol\":4468:4472  true */\n      0x01\n        /* \"@openzeppelin/contracts@5.0.0/token/ERC20/ERC20.sol\":4461:4472  return true */\n      swap2\n      pop\n      pop\n        /* \"@openzeppelin/contracts@5.0.0/token/ERC20/ERC20.sol\":4293:4479  function approve(address spender, uint256 value) public virtual returns (bool) {... */\n    tag_95:\n      swap3\n      swap2\n      pop\n      pop\n      jump\t// out\n        /* \"@openzeppelin/contracts@5.0.0/token/ERC20/ERC20.sol\":5039:5283  function transferFrom(address from, address to, uint256 value) public virtual returns (bool) {... */\n    tag_39:\n        /* \"@openzeppelin/contracts@5.0.0/token/ERC20/ERC20.sol\":5126:5130  bool */\n      0x00\n        /* \"@openzeppelin/contracts@5.0.0/utils/Context.sol\":735:745  msg.sender */\n      caller\n        /* \"@openzeppelin/contracts@5.0.0/token/ERC20/ERC20.sol\":5182:5219  _spendAllowance(from, spender, value) */\n      tag_103\n        /* \"@openzeppelin/contracts@5.0.0/token/ERC20/ERC20.sol\":5198:5202  from */\n      dup6\n        /* \"@openzeppelin/contracts@5.0.0/utils/Context.sol\":735:745  msg.sender */\n      dup3\n        /* \"@openzeppelin/contracts@5.0.0/token/ERC20/ERC20.sol\":5213:5218  value */\n      dup6\n        /* \"@openzeppelin/contracts@5.0.0/token/ERC20/ERC20.sol\":5182:5197  _spendAllowance */\n      tag_104\n        /* \"@openzeppelin/contracts@5.0.0/token/ERC20/ERC20.sol\":5182:5219  _spendAllowance(from, spender, value) */\n      jump\t// in\n    tag_103:\n        /* \"@openzeppelin/contracts@5.0.0/token/ERC20/ERC20.sol\":5229:5255  _transfer(from, to, value) */\n      tag_105\n        /* \"@openzeppelin/contracts@5.0.0/token/ERC20/ERC20.sol\":5239:5243  from */\n      dup6\n        /* \"@openzeppelin/contracts@5.0.0/token/ERC20/ERC20.sol\":5245:5247  to */\n      dup6\n        /* \"@openzeppelin/contracts@5.0.0/token/ERC20/ERC20.sol\":5249:5254  value */\n      dup6\n        /* \"@openzeppelin/contracts@5.0.0/token/ERC20/ERC20.sol\":5229:5238  _transfer */\n      tag_106\n        /* \"@openzeppelin/contracts@5.0.0/token/ERC20/ERC20.sol\":5229:5255  _transfer(from, to, value) */\n      jump\t// in\n    tag_105:\n      pop\n        /* \"@openzeppelin/contracts@5.0.0/token/ERC20/ERC20.sol\":5272:5276  true */\n      0x01\n      swap5\n        /* \"@openzeppelin/contracts@5.0.0/token/ERC20/ERC20.sol\":5039:5283  function transferFrom(address from, address to, uint256 value) public virtual returns (bool) {... */\n      swap4\n      pop\n      pop\n      pop\n      pop\n      jump\t// out\n        /* \"@openzeppelin/contracts@5.0.0/token/ERC20/extensions/ERC20Permit.sol\":2656:2768  function DOMAIN_SEPARATOR() external view virtual returns (bytes32) {... */\n    tag_49:\n        /* \"@openzeppelin/contracts@5.0.0/token/ERC20/extensions/ERC20Permit.sol\":2715:2722  bytes32 */\n      0x00\n        /* \"@openzeppelin/contracts@5.0.0/token/ERC20/extensions/ERC20Permit.sol\":2741:2761  _domainSeparatorV4() */\n      tag_109\n        /* \"@openzeppelin/contracts@5.0.0/token/ERC20/extensions/ERC20Permit.sol\":2741:2759  _domainSeparatorV4 */\n      tag_110\n        /* \"@openzeppelin/contracts@5.0.0/token/ERC20/extensions/ERC20Permit.sol\":2741:2761  _domainSeparatorV4() */\n      jump\t// in\n    tag_109:\n        /* \"@openzeppelin/contracts@5.0.0/token/ERC20/extensions/ERC20Permit.sol\":2734:2761  return _domainSeparatorV4() */\n      swap1\n      pop\n        /* \"@openzeppelin/contracts@5.0.0/token/ERC20/extensions/ERC20Permit.sol\":2656:2768  function DOMAIN_SEPARATOR() external view virtual returns (bytes32) {... */\n      swap1\n      jump\t// out\n        /* \"@openzeppelin/contracts@5.0.0/token/ERC20/extensions/ERC20Burnable.sol\":618:705  function burn(uint256 value) public virtual {... */\n    tag_55:\n        /* \"@openzeppelin/contracts@5.0.0/token/ERC20/extensions/ERC20Burnable.sol\":672:698  _burn(_msgSender(), value) */\n      tag_112\n        /* \"@openzeppelin/contracts@5.0.0/utils/Context.sol\":735:745  msg.sender */\n      caller\n        /* \"@openzeppelin/contracts@5.0.0/token/ERC20/extensions/ERC20Burnable.sol\":692:697  value */\n      dup3\n        /* \"@openzeppelin/contracts@5.0.0/token/ERC20/extensions/ERC20Burnable.sol\":672:677  _burn */\n      tag_114\n        /* \"@openzeppelin/contracts@5.0.0/token/ERC20/extensions/ERC20Burnable.sol\":672:698  _burn(_msgSender(), value) */\n      jump\t// in\n    tag_112:\n        /* \"@openzeppelin/contracts@5.0.0/token/ERC20/extensions/ERC20Burnable.sol\":618:705  function burn(uint256 value) public virtual {... */\n      pop\n      jump\t// out\n        /* \"@openzeppelin/contracts@5.0.0/token/ERC20/extensions/ERC20Burnable.sol\":1021:1179  function burnFrom(address account, uint256 value) public virtual {... */\n    tag_63:\n        /* \"@openzeppelin/contracts@5.0.0/token/ERC20/extensions/ERC20Burnable.sol\":1096:1141  _spendAllowance(account, _msgSender(), value) */\n      tag_117\n        /* \"@openzeppelin/contracts@5.0.0/token/ERC20/extensions/ERC20Burnable.sol\":1112:1119  account */\n      dup3\n        /* \"@openzeppelin/contracts@5.0.0/utils/Context.sol\":735:745  msg.sender */\n      caller\n        /* \"@openzeppelin/contracts@5.0.0/token/ERC20/extensions/ERC20Burnable.sol\":1135:1140  value */\n      dup4\n        /* \"@openzeppelin/contracts@5.0.0/token/ERC20/extensions/ERC20Burnable.sol\":1096:1111  _spendAllowance */\n      tag_104\n        /* \"@openzeppelin/contracts@5.0.0/token/ERC20/extensions/ERC20Burnable.sol\":1096:1141  _spendAllowance(account, _msgSender(), value) */\n      jump\t// in\n    tag_117:\n        /* \"@openzeppelin/contracts@5.0.0/token/ERC20/extensions/ERC20Burnable.sol\":1151:1172  _burn(account, value) */\n      tag_119\n        /* \"@openzeppelin/contracts@5.0.0/token/ERC20/extensions/ERC20Burnable.sol\":1157:1164  account */\n      dup3\n        /* \"@openzeppelin/contracts@5.0.0/token/ERC20/extensions/ERC20Burnable.sol\":1166:1171  value */\n      dup3\n        /* \"@openzeppelin/contracts@5.0.0/token/ERC20/extensions/ERC20Burnable.sol\":1151:1156  _burn */\n      tag_114\n        /* \"@openzeppelin/contracts@5.0.0/token/ERC20/extensions/ERC20Burnable.sol\":1151:1172  _burn(account, value) */\n      jump\t// in\n    tag_119:\n        /* \"@openzeppelin/contracts@5.0.0/token/ERC20/extensions/ERC20Burnable.sol\":1021:1179  function burnFrom(address account, uint256 value) public virtual {... */\n      pop\n      pop\n      jump\t// out\n        /* \"@openzeppelin/contracts@5.0.0/token/ERC20/extensions/ERC20Permit.sol\":2406:2549  function nonces(address owner) public view virtual override(IERC20Permit, Nonces) returns (uint256) {... */\n    tag_66:\n      sub(shl(0xa0, 0x01), 0x01)\n        /* \"@openzeppelin/contracts@5.0.0/utils/Nonces.sol\":624:638  _nonces[owner] */\n      dup2\n      and\n        /* \"@openzeppelin/contracts@5.0.0/token/ERC20/extensions/ERC20Permit.sol\":2497:2504  uint256 */\n      0x00\n        /* \"@openzeppelin/contracts@5.0.0/utils/Nonces.sol\":624:638  _nonces[owner] */\n      swap1\n      dup2\n      mstore\n        /* \"@openzeppelin/contracts@5.0.0/utils/Nonces.sol\":624:631  _nonces */\n      0x07\n        /* \"@openzeppelin/contracts@5.0.0/utils/Nonces.sol\":624:638  _nonces[owner] */\n      0x20\n      mstore\n      0x40\n      dup2\n      keccak256\n      sload\n        /* \"@openzeppelin/contracts@5.0.0/token/ERC20/extensions/ERC20Permit.sol\":2523:2542  super.nonces(owner) */\n      tag_95\n        /* \"@openzeppelin/contracts@5.0.0/utils/Nonces.sol\":538:645  function nonces(address owner) public view virtual returns (uint256) {... */\n      jump\n        /* \"@openzeppelin/contracts@5.0.0/utils/cryptography/EIP712.sol\":5144:5701  function eip712Domain()... */\n    tag_69:\n        /* \"@openzeppelin/contracts@5.0.0/utils/cryptography/EIP712.sol\":5242:5255  bytes1 fields */\n      0x00\n        /* \"@openzeppelin/contracts@5.0.0/utils/cryptography/EIP712.sol\":5269:5287  string memory name */\n      0x60\n        /* \"@openzeppelin/contracts@5.0.0/utils/cryptography/EIP712.sol\":5301:5322  string memory version */\n      dup1\n        /* \"@openzeppelin/contracts@5.0.0/utils/cryptography/EIP712.sol\":5336:5351  uint256 chainId */\n      0x00\n        /* \"@openzeppelin/contracts@5.0.0/utils/cryptography/EIP712.sol\":5365:5390  address verifyingContract */\n      dup1\n        /* \"@openzeppelin/contracts@5.0.0/utils/cryptography/EIP712.sol\":5404:5416  bytes32 salt */\n      0x00\n        /* \"@openzeppelin/contracts@5.0.0/utils/cryptography/EIP712.sol\":5430:5457  uint256[] memory extensions */\n      0x60\n        /* \"@openzeppelin/contracts@5.0.0/utils/cryptography/EIP712.sol\":5533:5546  _EIP712Name() */\n      tag_124\n        /* \"@openzeppelin/contracts@5.0.0/utils/cryptography/EIP712.sol\":5533:5544  _EIP712Name */\n      tag_125\n        /* \"@openzeppelin/contracts@5.0.0/utils/cryptography/EIP712.sol\":5533:5546  _EIP712Name() */\n      jump\t// in\n    tag_124:\n        /* \"@openzeppelin/contracts@5.0.0/utils/cryptography/EIP712.sol\":5560:5576  _EIP712Version() */\n      tag_126\n        /* \"@openzeppelin/contracts@5.0.0/utils/cryptography/EIP712.sol\":5560:5574  _EIP712Version */\n      tag_127\n        /* \"@openzeppelin/contracts@5.0.0/utils/cryptography/EIP712.sol\":5560:5576  _EIP712Version() */\n      jump\t// in\n    tag_126:\n        /* \"@openzeppelin/contracts@5.0.0/utils/cryptography/EIP712.sol\":5668:5684  new uint256[](0) */\n      0x40\n      dup1\n      mload\n        /* \"@openzeppelin/contracts@5.0.0/utils/cryptography/EIP712.sol\":5652:5653  0 */\n      0x00\n        /* \"@openzeppelin/contracts@5.0.0/utils/cryptography/EIP712.sol\":5668:5684  new uint256[](0) */\n      dup1\n      dup3\n      mstore\n      0x20\n      dup3\n      add\n      swap1\n      swap3\n      mstore\n      shl(0xf8, 0x0f)\n        /* \"@openzeppelin/contracts@5.0.0/utils/cryptography/EIP712.sol\":5482:5694  return (... */\n      swap12\n      swap4\n      swap11\n      pop\n      swap2\n      swap9\n      pop\n        /* \"@openzeppelin/contracts@5.0.0/utils/cryptography/EIP712.sol\":5590:5603  block.chainid */\n      chainid\n      swap8\n      pop\n        /* \"@openzeppelin/contracts@5.0.0/utils/cryptography/EIP712.sol\":5625:5629  this */\n      address\n      swap7\n      pop\n        /* \"@openzeppelin/contracts@5.0.0/utils/cryptography/EIP712.sol\":5652:5653  0 */\n      swap5\n      pop\n        /* \"@openzeppelin/contracts@5.0.0/utils/cryptography/EIP712.sol\":5668:5684  new uint256[](0) */\n      swap3\n      pop\n        /* \"@openzeppelin/contracts@5.0.0/utils/cryptography/EIP712.sol\":5482:5694  return (... */\n      swap1\n      pop\n        /* \"@openzeppelin/contracts@5.0.0/utils/cryptography/EIP712.sol\":5144:5701  function eip712Domain()... */\n      jump\t// out\n        /* \"@openzeppelin/contracts@5.0.0/token/ERC20/ERC20.sol\":2276:2369  function symbol() public view virtual returns (string memory) {... */\n    tag_73:\n        /* \"@openzeppelin/contracts@5.0.0/token/ERC20/ERC20.sol\":2323:2336  string memory */\n      0x60\n        /* \"@openzeppelin/contracts@5.0.0/token/ERC20/ERC20.sol\":2355:2362  _symbol */\n      0x04\n        /* \"@openzeppelin/contracts@5.0.0/token/ERC20/ERC20.sol\":2348:2362  return _symbol */\n      dup1\n      sload\n      tag_89\n      swap1\n      tag_90\n      jump\t// in\n        /* \"@openzeppelin/contracts@5.0.0/token/ERC20/ERC20.sol\":3610:3788  function transfer(address to, uint256 value) public virtual returns (bool) {... */\n    tag_77:\n        /* \"@openzeppelin/contracts@5.0.0/token/ERC20/ERC20.sol\":3679:3683  bool */\n      0x00\n        /* \"@openzeppelin/contracts@5.0.0/utils/Context.sol\":735:745  msg.sender */\n      caller\n        /* \"@openzeppelin/contracts@5.0.0/token/ERC20/ERC20.sol\":3733:3760  _transfer(owner, to, value) */\n      tag_98\n        /* \"@openzeppelin/contracts@5.0.0/utils/Context.sol\":735:745  msg.sender */\n      dup2\n        /* \"@openzeppelin/contracts@5.0.0/token/ERC20/ERC20.sol\":3750:3752  to */\n      dup6\n        /* \"@openzeppelin/contracts@5.0.0/token/ERC20/ERC20.sol\":3754:3759  value */\n      dup6\n        /* \"@openzeppelin/contracts@5.0.0/token/ERC20/ERC20.sol\":3733:3742  _transfer */\n      tag_106\n        /* \"@openzeppelin/contracts@5.0.0/token/ERC20/ERC20.sol\":3733:3760  _transfer(owner, to, value) */\n      jump\t// in\n        /* \"@openzeppelin/contracts@5.0.0/token/ERC20/extensions/ERC20Permit.sol\":1680:2352  function permit(... */\n    tag_82:\n        /* \"@openzeppelin/contracts@5.0.0/token/ERC20/extensions/ERC20Permit.sol\":1901:1909  deadline */\n      dup4\n        /* \"@openzeppelin/contracts@5.0.0/token/ERC20/extensions/ERC20Permit.sol\":1883:1898  block.timestamp */\n      timestamp\n        /* \"@openzeppelin/contracts@5.0.0/token/ERC20/extensions/ERC20Permit.sol\":1883:1909  block.timestamp > deadline */\n      gt\n        /* \"@openzeppelin/contracts@5.0.0/token/ERC20/extensions/ERC20Permit.sol\":1879:1976  if (block.timestamp > deadline) {... */\n      iszero\n      tag_142\n      jumpi\n        /* \"@openzeppelin/contracts@5.0.0/token/ERC20/extensions/ERC20Permit.sol\":1932:1965  ERC2612ExpiredSignature(deadline) */\n      mload(0x40)\n      shl(0xe1, 0x313c8981)\n      dup2\n      mstore\n      0x04\n      dup2\n      add\n        /* \"#utility.yul\":1465:1490   */\n      dup6\n      swap1\n      mstore\n        /* \"#utility.yul\":1438:1456   */\n      0x24\n      add\n        /* \"@openzeppelin/contracts@5.0.0/token/ERC20/extensions/ERC20Permit.sol\":1932:1965  ERC2612ExpiredSignature(deadline) */\n    tag_143:\n      mload(0x40)\n      dup1\n      swap2\n      sub\n      swap1\n      revert\n        /* \"@openzeppelin/contracts@5.0.0/token/ERC20/extensions/ERC20Permit.sol\":1879:1976  if (block.timestamp > deadline) {... */\n    tag_142:\n        /* \"@openzeppelin/contracts@5.0.0/token/ERC20/extensions/ERC20Permit.sol\":1986:2004  bytes32 structHash */\n      0x00\n        /* \"@openzeppelin/contracts@5.0.0/token/ERC20/extensions/ERC20Permit.sol\":1022:1117  keccak256(\"Permit(address owner,address spender,uint256 value,uint256 nonce,uint256 deadline)\") */\n      0x6e71edae12b1b97f4d1f60370fef10105fa2faae0126114a169c64845d6126c9\n        /* \"@openzeppelin/contracts@5.0.0/token/ERC20/extensions/ERC20Permit.sol\":2045:2050  owner */\n      dup9\n        /* \"@openzeppelin/contracts@5.0.0/token/ERC20/extensions/ERC20Permit.sol\":2052:2059  spender */\n      dup9\n        /* \"@openzeppelin/contracts@5.0.0/token/ERC20/extensions/ERC20Permit.sol\":2061:2066  value */\n      dup9\n        /* \"@openzeppelin/contracts@5.0.0/token/ERC20/extensions/ERC20Permit.sol\":2068:2084  _useNonce(owner) */\n      tag_144\n        /* \"@openzeppelin/contracts@5.0.0/token/ERC20/extensions/ERC20Permit.sol\":2078:2083  owner */\n      dup13\n      sub(shl(0xa0, 0x01), 0x01)\n        /* \"@openzeppelin/contracts@5.0.0/utils/Nonces.sol\":1121:1135  _nonces[owner] */\n      and\n        /* \"@openzeppelin/contracts@5.0.0/utils/Nonces.sol\":819:826  uint256 */\n      0x00\n        /* \"@openzeppelin/contracts@5.0.0/utils/Nonces.sol\":1121:1135  _nonces[owner] */\n      swap1\n      dup2\n      mstore\n        /* \"@openzeppelin/contracts@5.0.0/utils/Nonces.sol\":1121:1128  _nonces */\n      0x07\n        /* \"@openzeppelin/contracts@5.0.0/utils/Nonces.sol\":1121:1135  _nonces[owner] */\n      0x20\n      mstore\n      0x40\n      swap1\n      keccak256\n        /* \"@openzeppelin/contracts@5.0.0/utils/Nonces.sol\":1121:1137  _nonces[owner]++ */\n      dup1\n      sload\n      0x01\n      dup2\n      add\n      swap1\n      swap2\n      sstore\n      swap1\n        /* \"@openzeppelin/contracts@5.0.0/utils/Nonces.sol\":759:1154  function _useNonce(address owner) internal virtual returns (uint256) {... */\n      jump\n        /* \"@openzeppelin/contracts@5.0.0/token/ERC20/extensions/ERC20Permit.sol\":2068:2084  _useNonce(owner) */\n    tag_144:\n        /* \"@openzeppelin/contracts@5.0.0/token/ERC20/extensions/ERC20Permit.sol\":2017:2095  abi.encode(PERMIT_TYPEHASH, owner, spender, value, _useNonce(owner), deadline) */\n      0x40\n      dup1\n      mload\n      0x20\n      dup2\n      add\n        /* \"#utility.yul\":5893:5918   */\n      swap7\n      swap1\n      swap7\n      mstore\n      sub(shl(0xa0, 0x01), 0x01)\n        /* \"#utility.yul\":5954:5986   */\n      swap5\n      dup6\n      and\n        /* \"#utility.yul\":5934:5952   */\n      swap1\n      dup7\n      add\n        /* \"#utility.yul\":5927:5987   */\n      mstore\n        /* \"#utility.yul\":6023:6055   */\n      swap3\n      swap1\n      swap2\n      and\n        /* \"#utility.yul\":6003:6021   */\n      0x60\n      dup5\n      add\n        /* \"#utility.yul\":5996:6056   */\n      mstore\n        /* \"#utility.yul\":6072:6090   */\n      0x80\n      dup4\n      add\n        /* \"#utility.yul\":6065:6099   */\n      mstore\n        /* \"#utility.yul\":6115:6134   */\n      0xa0\n      dup3\n      add\n        /* \"#utility.yul\":6108:6143   */\n      mstore\n        /* \"#utility.yul\":6159:6178   */\n      0xc0\n      dup2\n      add\n        /* \"#utility.yul\":6152:6187   */\n      dup7\n      swap1\n      mstore\n        /* \"#utility.yul\":5865:5884   */\n      0xe0\n      add\n        /* \"@openzeppelin/contracts@5.0.0/token/ERC20/extensions/ERC20Permit.sol\":2017:2095  abi.encode(PERMIT_TYPEHASH, owner, spender, value, _useNonce(owner), deadline) */\n      mload(0x40)\n      0x20\n      dup2\n      dup4\n      sub\n      sub\n      dup2\n      mstore\n      swap1\n      0x40\n      mstore\n        /* \"@openzeppelin/contracts@5.0.0/token/ERC20/extensions/ERC20Permit.sol\":2007:2096  keccak256(abi.encode(PERMIT_TYPEHASH, owner, spender, value, _useNonce(owner), deadline)) */\n      dup1\n      mload\n      swap1\n      0x20\n      add\n      keccak256\n        /* \"@openzeppelin/contracts@5.0.0/token/ERC20/extensions/ERC20Permit.sol\":1986:2096  bytes32 structHash = keccak256(abi.encode(PERMIT_TYPEHASH, owner, spender, value, _useNonce(owner), deadline)) */\n      swap1\n      pop\n        /* \"@openzeppelin/contracts@5.0.0/token/ERC20/extensions/ERC20Permit.sol\":2107:2119  bytes32 hash */\n      0x00\n        /* \"@openzeppelin/contracts@5.0.0/token/ERC20/extensions/ERC20Permit.sol\":2122:2150  _hashTypedDataV4(structHash) */\n      tag_148\n        /* \"@openzeppelin/contracts@5.0.0/token/ERC20/extensions/ERC20Permit.sol\":2139:2149  structHash */\n      dup3\n        /* \"@openzeppelin/contracts@5.0.0/token/ERC20/extensions/ERC20Permit.sol\":2122:2138  _hashTypedDataV4 */\n      tag_149\n        /* \"@openzeppelin/contracts@5.0.0/token/ERC20/extensions/ERC20Permit.sol\":2122:2150  _hashTypedDataV4(structHash) */\n      jump\t// in\n    tag_148:\n        /* \"@openzeppelin/contracts@5.0.0/token/ERC20/extensions/ERC20Permit.sol\":2107:2150  bytes32 hash = _hashTypedDataV4(structHash) */\n      swap1\n      pop\n        /* \"@openzeppelin/contracts@5.0.0/token/ERC20/extensions/ERC20Permit.sol\":2161:2175  address signer */\n      0x00\n        /* \"@openzeppelin/contracts@5.0.0/token/ERC20/extensions/ERC20Permit.sol\":2178:2206  ECDSA.recover(hash, v, r, s) */\n      tag_150\n        /* \"@openzeppelin/contracts@5.0.0/token/ERC20/extensions/ERC20Permit.sol\":2192:2196  hash */\n      dup3\n        /* \"@openzeppelin/contracts@5.0.0/token/ERC20/extensions/ERC20Permit.sol\":2198:2199  v */\n      dup8\n        /* \"@openzeppelin/contracts@5.0.0/token/ERC20/extensions/ERC20Permit.sol\":2201:2202  r */\n      dup8\n        /* \"@openzeppelin/contracts@5.0.0/token/ERC20/extensions/ERC20Permit.sol\":2204:2205  s */\n      dup8\n        /* \"@openzeppelin/contracts@5.0.0/token/ERC20/extensions/ERC20Permit.sol\":2178:2191  ECDSA.recover */\n      tag_151\n        /* \"@openzeppelin/contracts@5.0.0/token/ERC20/extensions/ERC20Permit.sol\":2178:2206  ECDSA.recover(hash, v, r, s) */\n      jump\t// in\n    tag_150:\n        /* \"@openzeppelin/contracts@5.0.0/token/ERC20/extensions/ERC20Permit.sol\":2161:2206  address signer = ECDSA.recover(hash, v, r, s) */\n      swap1\n      pop\n        /* \"@openzeppelin/contracts@5.0.0/token/ERC20/extensions/ERC20Permit.sol\":2230:2235  owner */\n      dup10\n      sub(shl(0xa0, 0x01), 0x01)\n        /* \"@openzeppelin/contracts@5.0.0/token/ERC20/extensions/ERC20Permit.sol\":2220:2235  signer != owner */\n      and\n        /* \"@openzeppelin/contracts@5.0.0/token/ERC20/extensions/ERC20Permit.sol\":2220:2226  signer */\n      dup2\n      sub(shl(0xa0, 0x01), 0x01)\n        /* \"@openzeppelin/contracts@5.0.0/token/ERC20/extensions/ERC20Permit.sol\":2220:2235  signer != owner */\n      and\n      eq\n        /* \"@openzeppelin/contracts@5.0.0/token/ERC20/extensions/ERC20Permit.sol\":2216:2304  if (signer != owner) {... */\n      tag_152\n      jumpi\n        /* \"@openzeppelin/contracts@5.0.0/token/ERC20/extensions/ERC20Permit.sol\":2258:2293  ERC2612InvalidSigner(signer, owner) */\n      mload(0x40)\n      shl(0xe1, 0x25c00723)\n      dup2\n      mstore\n      sub(shl(0xa0, 0x01), 0x01)\n        /* \"#utility.yul\":6390:6422   */\n      dup1\n      dup4\n      and\n        /* \"@openzeppelin/contracts@5.0.0/token/ERC20/extensions/ERC20Permit.sol\":2258:2293  ERC2612InvalidSigner(signer, owner) */\n      0x04\n      dup4\n      add\n        /* \"#utility.yul\":6372:6423   */\n      mstore\n        /* \"#utility.yul\":6459:6491   */\n      dup12\n      and\n        /* \"#utility.yul\":6439:6457   */\n      0x24\n      dup3\n      add\n        /* \"#utility.yul\":6432:6492   */\n      mstore\n        /* \"#utility.yul\":6345:6363   */\n      0x44\n      add\n        /* \"@openzeppelin/contracts@5.0.0/token/ERC20/extensions/ERC20Permit.sol\":2258:2293  ERC2612InvalidSigner(signer, owner) */\n      tag_143\n        /* \"#utility.yul\":6198:6498   */\n      jump\n        /* \"@openzeppelin/contracts@5.0.0/token/ERC20/extensions/ERC20Permit.sol\":2216:2304  if (signer != owner) {... */\n    tag_152:\n        /* \"@openzeppelin/contracts@5.0.0/token/ERC20/extensions/ERC20Permit.sol\":2314:2345  _approve(owner, spender, value) */\n      tag_155\n        /* \"@openzeppelin/contracts@5.0.0/token/ERC20/extensions/ERC20Permit.sol\":2323:2328  owner */\n      dup11\n        /* \"@openzeppelin/contracts@5.0.0/token/ERC20/extensions/ERC20Permit.sol\":2330:2337  spender */\n      dup11\n        /* \"@openzeppelin/contracts@5.0.0/token/ERC20/extensions/ERC20Permit.sol\":2339:2344  value */\n      dup11\n        /* \"@openzeppelin/contracts@5.0.0/token/ERC20/extensions/ERC20Permit.sol\":2314:2322  _approve */\n      tag_99\n        /* \"@openzeppelin/contracts@5.0.0/token/ERC20/extensions/ERC20Permit.sol\":2314:2345  _approve(owner, spender, value) */\n      jump\t// in\n    tag_155:\n        /* \"@openzeppelin/contracts@5.0.0/token/ERC20/extensions/ERC20Permit.sol\":1869:2352  {... */\n      pop\n      pop\n      pop\n        /* \"@openzeppelin/contracts@5.0.0/token/ERC20/extensions/ERC20Permit.sol\":1680:2352  function permit(... */\n      pop\n      pop\n      pop\n      pop\n      pop\n      pop\n      pop\n      jump\t// out\n        /* \"@openzeppelin/contracts@5.0.0/token/ERC20/ERC20.sol\":8989:9117  function _approve(address owner, address spender, uint256 value) internal {... */\n    tag_99:\n        /* \"@openzeppelin/contracts@5.0.0/token/ERC20/ERC20.sol\":9073:9110  _approve(owner, spender, value, true) */\n      tag_159\n        /* \"@openzeppelin/contracts@5.0.0/token/ERC20/ERC20.sol\":9082:9087  owner */\n      dup4\n        /* \"@openzeppelin/contracts@5.0.0/token/ERC20/ERC20.sol\":9089:9096  spender */\n      dup4\n        /* \"@openzeppelin/contracts@5.0.0/token/ERC20/ERC20.sol\":9098:9103  value */\n      dup4\n        /* \"@openzeppelin/contracts@5.0.0/token/ERC20/ERC20.sol\":9105:9109  true */\n      0x01\n        /* \"@openzeppelin/contracts@5.0.0/token/ERC20/ERC20.sol\":9073:9081  _approve */\n      tag_160\n        /* \"@openzeppelin/contracts@5.0.0/token/ERC20/ERC20.sol\":9073:9110  _approve(owner, spender, value, true) */\n      jump\t// in\n    tag_159:\n        /* \"@openzeppelin/contracts@5.0.0/token/ERC20/ERC20.sol\":8989:9117  function _approve(address owner, address spender, uint256 value) internal {... */\n      pop\n      pop\n      pop\n      jump\t// out\n        /* \"@openzeppelin/contracts@5.0.0/token/ERC20/ERC20.sol\":10663:11140  function _spendAllowance(address owner, address spender, uint256 value) internal virtual {... */\n    tag_104:\n      sub(shl(0xa0, 0x01), 0x01)\n        /* \"@openzeppelin/contracts@5.0.0/token/ERC20/ERC20.sol\":3952:3970  _allowances[owner] */\n      dup4\n      dup2\n      and\n        /* \"@openzeppelin/contracts@5.0.0/token/ERC20/ERC20.sol\":10762:10786  uint256 currentAllowance */\n      0x00\n        /* \"@openzeppelin/contracts@5.0.0/token/ERC20/ERC20.sol\":3952:3970  _allowances[owner] */\n      swap1\n      dup2\n      mstore\n        /* \"@openzeppelin/contracts@5.0.0/token/ERC20/ERC20.sol\":3952:3963  _allowances */\n      0x01\n        /* \"@openzeppelin/contracts@5.0.0/token/ERC20/ERC20.sol\":3952:3970  _allowances[owner] */\n      0x20\n      swap1\n      dup2\n      mstore\n      0x40\n      dup1\n      dup4\n      keccak256\n        /* \"@openzeppelin/contracts@5.0.0/token/ERC20/ERC20.sol\":3952:3979  _allowances[owner][spender] */\n      swap4\n      dup7\n      and\n      dup4\n      mstore\n      swap3\n      swap1\n      mstore\n      keccak256\n      sload\n      not(0x00)\n        /* \"@openzeppelin/contracts@5.0.0/token/ERC20/ERC20.sol\":10828:10865  currentAllowance != type(uint256).max */\n      dup2\n      eq\n        /* \"@openzeppelin/contracts@5.0.0/token/ERC20/ERC20.sol\":10824:11134  if (currentAllowance != type(uint256).max) {... */\n      tag_167\n      jumpi\n        /* \"@openzeppelin/contracts@5.0.0/token/ERC20/ERC20.sol\":10904:10909  value */\n      dup2\n        /* \"@openzeppelin/contracts@5.0.0/token/ERC20/ERC20.sol\":10885:10901  currentAllowance */\n      dup2\n        /* \"@openzeppelin/contracts@5.0.0/token/ERC20/ERC20.sol\":10885:10909  currentAllowance < value */\n      lt\n        /* \"@openzeppelin/contracts@5.0.0/token/ERC20/ERC20.sol\":10881:11011  if (currentAllowance < value) {... */\n      iszero\n      tag_164\n      jumpi\n        /* \"@openzeppelin/contracts@5.0.0/token/ERC20/ERC20.sol\":10936:10996  ERC20InsufficientAllowance(spender, currentAllowance, value) */\n      mload(0x40)\n      shl(0xe1, 0x7dc7a0d9)\n      dup2\n      mstore\n      sub(shl(0xa0, 0x01), 0x01)\n        /* \"#utility.yul\":6723:6755   */\n      dup5\n      and\n        /* \"@openzeppelin/contracts@5.0.0/token/ERC20/ERC20.sol\":10936:10996  ERC20InsufficientAllowance(spender, currentAllowance, value) */\n      0x04\n      dup3\n      add\n        /* \"#utility.yul\":6705:6756   */\n      mstore\n        /* \"#utility.yul\":6772:6790   */\n      0x24\n      dup2\n      add\n        /* \"#utility.yul\":6765:6799   */\n      dup3\n      swap1\n      mstore\n        /* \"#utility.yul\":6815:6833   */\n      0x44\n      dup2\n      add\n        /* \"#utility.yul\":6808:6842   */\n      dup4\n      swap1\n      mstore\n        /* \"#utility.yul\":6678:6696   */\n      0x64\n      add\n        /* \"@openzeppelin/contracts@5.0.0/token/ERC20/ERC20.sol\":10936:10996  ERC20InsufficientAllowance(spender, currentAllowance, value) */\n      tag_143\n        /* \"#utility.yul\":6503:6848   */\n      jump\n        /* \"@openzeppelin/contracts@5.0.0/token/ERC20/ERC20.sol\":10881:11011  if (currentAllowance < value) {... */\n    tag_164:\n        /* \"@openzeppelin/contracts@5.0.0/token/ERC20/ERC20.sol\":11052:11109  _approve(owner, spender, currentAllowance - value, false) */\n      tag_167\n        /* \"@openzeppelin/contracts@5.0.0/token/ERC20/ERC20.sol\":11061:11066  owner */\n      dup5\n        /* \"@openzeppelin/contracts@5.0.0/token/ERC20/ERC20.sol\":11068:11075  spender */\n      dup5\n        /* \"@openzeppelin/contracts@5.0.0/token/ERC20/ERC20.sol\":11096:11101  value */\n      dup5\n        /* \"@openzeppelin/contracts@5.0.0/token/ERC20/ERC20.sol\":11077:11093  currentAllowance */\n      dup5\n        /* \"@openzeppelin/contracts@5.0.0/token/ERC20/ERC20.sol\":11077:11101  currentAllowance - value */\n      sub\n        /* \"@openzeppelin/contracts@5.0.0/token/ERC20/ERC20.sol\":11103:11108  false */\n      0x00\n        /* \"@openzeppelin/contracts@5.0.0/token/ERC20/ERC20.sol\":11052:11060  _approve */\n      tag_160\n        /* \"@openzeppelin/contracts@5.0.0/token/ERC20/ERC20.sol\":11052:11109  _approve(owner, spender, currentAllowance - value, false) */\n      jump\t// in\n    tag_167:\n        /* \"@openzeppelin/contracts@5.0.0/token/ERC20/ERC20.sol\":10752:11140  {... */\n      pop\n        /* \"@openzeppelin/contracts@5.0.0/token/ERC20/ERC20.sol\":10663:11140  function _spendAllowance(address owner, address spender, uint256 value) internal virtual {... */\n      pop\n      pop\n      pop\n      jump\t// out\n        /* \"@openzeppelin/contracts@5.0.0/token/ERC20/ERC20.sol\":5656:5956  function _transfer(address from, address to, uint256 value) internal {... */\n    tag_106:\n      sub(shl(0xa0, 0x01), 0x01)\n        /* \"@openzeppelin/contracts@5.0.0/token/ERC20/ERC20.sol\":5739:5757  from == address(0) */\n      dup4\n      and\n        /* \"@openzeppelin/contracts@5.0.0/token/ERC20/ERC20.sol\":5735:5821  if (from == address(0)) {... */\n      tag_169\n      jumpi\n        /* \"@openzeppelin/contracts@5.0.0/token/ERC20/ERC20.sol\":5780:5810  ERC20InvalidSender(address(0)) */\n      mload(0x40)\n      shl(0xe1, 0x4b637e8f)\n      dup2\n      mstore\n        /* \"@openzeppelin/contracts@5.0.0/token/ERC20/ERC20.sol\":5807:5808  0 */\n      0x00\n        /* \"@openzeppelin/contracts@5.0.0/token/ERC20/ERC20.sol\":5780:5810  ERC20InvalidSender(address(0)) */\n      0x04\n      dup3\n      add\n        /* \"#utility.yul\":6999:7050   */\n      mstore\n        /* \"#utility.yul\":6972:6990   */\n      0x24\n      add\n        /* \"@openzeppelin/contracts@5.0.0/token/ERC20/ERC20.sol\":5780:5810  ERC20InvalidSender(address(0)) */\n      tag_143\n        /* \"#utility.yul\":6853:7056   */\n      jump\n        /* \"@openzeppelin/contracts@5.0.0/token/ERC20/ERC20.sol\":5735:5821  if (from == address(0)) {... */\n    tag_169:\n      sub(shl(0xa0, 0x01), 0x01)\n        /* \"@openzeppelin/contracts@5.0.0/token/ERC20/ERC20.sol\":5834:5850  to == address(0) */\n      dup3\n      and\n        /* \"@openzeppelin/contracts@5.0.0/token/ERC20/ERC20.sol\":5830:5916  if (to == address(0)) {... */\n      tag_172\n      jumpi\n        /* \"@openzeppelin/contracts@5.0.0/token/ERC20/ERC20.sol\":5873:5905  ERC20InvalidReceiver(address(0)) */\n      mload(0x40)\n      shl(0xe0, 0xec442f05)\n      dup2\n      mstore\n        /* \"@openzeppelin/contracts@5.0.0/token/ERC20/ERC20.sol\":5902:5903  0 */\n      0x00\n        /* \"@openzeppelin/contracts@5.0.0/token/ERC20/ERC20.sol\":5873:5905  ERC20InvalidReceiver(address(0)) */\n      0x04\n      dup3\n      add\n        /* \"#utility.yul\":6999:7050   */\n      mstore\n        /* \"#utility.yul\":6972:6990   */\n      0x24\n      add\n        /* \"@openzeppelin/contracts@5.0.0/token/ERC20/ERC20.sol\":5873:5905  ERC20InvalidReceiver(address(0)) */\n      tag_143\n        /* \"#utility.yul\":6853:7056   */\n      jump\n        /* \"@openzeppelin/contracts@5.0.0/token/ERC20/ERC20.sol\":5830:5916  if (to == address(0)) {... */\n    tag_172:\n        /* \"@openzeppelin/contracts@5.0.0/token/ERC20/ERC20.sol\":5925:5949  _update(from, to, value) */\n      tag_159\n        /* \"@openzeppelin/contracts@5.0.0/token/ERC20/ERC20.sol\":5933:5937  from */\n      dup4\n        /* \"@openzeppelin/contracts@5.0.0/token/ERC20/ERC20.sol\":5939:5941  to */\n      dup4\n        /* \"@openzeppelin/contracts@5.0.0/token/ERC20/ERC20.sol\":5943:5948  value */\n      dup4\n        /* \"@openzeppelin/contracts@5.0.0/token/ERC20/ERC20.sol\":5925:5932  _update */\n      tag_175\n        /* \"@openzeppelin/contracts@5.0.0/token/ERC20/ERC20.sol\":5925:5949  _update(from, to, value) */\n      jump\t// in\n        /* \"@openzeppelin/contracts@5.0.0/utils/cryptography/EIP712.sol\":3845:4107  function _domainSeparatorV4() internal view returns (bytes32) {... */\n    tag_110:\n        /* \"@openzeppelin/contracts@5.0.0/utils/cryptography/EIP712.sol\":3898:3905  bytes32 */\n      0x00\n        /* \"@openzeppelin/contracts@5.0.0/utils/cryptography/EIP712.sol\":3929:3933  this */\n      address\n      sub(shl(0xa0, 0x01), 0x01)\n        /* \"@openzeppelin/contracts@5.0.0/utils/cryptography/EIP712.sol\":3938:3949  _cachedThis */\n      immutable(\"0xbbcd1c28ce682af6448978891f662eb3dc81396033e42cf25613829f0d41f2f6\")\n        /* \"@openzeppelin/contracts@5.0.0/utils/cryptography/EIP712.sol\":3921:3949  address(this) == _cachedThis */\n      and\n      eq\n        /* \"@openzeppelin/contracts@5.0.0/utils/cryptography/EIP712.sol\":3921:3984  address(this) == _cachedThis && block.chainid == _cachedChainId */\n      dup1\n      iszero\n      tag_177\n      jumpi\n      pop\n        /* \"@openzeppelin/contracts@5.0.0/utils/cryptography/EIP712.sol\":3970:3984  _cachedChainId */\n      immutable(\"0x1cecd53757ff41334b0aac95136e45c28b8f0c7557fa90afd0025eaeb7956e02\")\n        /* \"@openzeppelin/contracts@5.0.0/utils/cryptography/EIP712.sol\":3953:3966  block.chainid */\n      chainid\n        /* \"@openzeppelin/contracts@5.0.0/utils/cryptography/EIP712.sol\":3953:3984  block.chainid == _cachedChainId */\n      eq\n        /* \"@openzeppelin/contracts@5.0.0/utils/cryptography/EIP712.sol\":3921:3984  address(this) == _cachedThis && block.chainid == _cachedChainId */\n    tag_177:\n        /* \"@openzeppelin/contracts@5.0.0/utils/cryptography/EIP712.sol\":3917:4101  if (address(this) == _cachedThis && block.chainid == _cachedChainId) {... */\n      iszero\n      tag_178\n      jumpi\n      pop\n        /* \"@openzeppelin/contracts@5.0.0/utils/cryptography/EIP712.sol\":4007:4029  _cachedDomainSeparator */\n      immutable(\"0x214fa292011259fa3e2a454aff2965073026e84fae83737d5134727cec419afa\")\n      swap1\n        /* \"@openzeppelin/contracts@5.0.0/utils/cryptography/EIP712.sol\":3845:4107  function _domainSeparatorV4() internal view returns (bytes32) {... */\n      jump\t// out\n        /* \"@openzeppelin/contracts@5.0.0/utils/cryptography/EIP712.sol\":3917:4101  if (address(this) == _cachedThis && block.chainid == _cachedChainId) {... */\n    tag_178:\n        /* \"@openzeppelin/contracts@5.0.0/utils/cryptography/EIP712.sol\":4067:4090  _buildDomainSeparator() */\n      tag_109\n        /* \"@openzeppelin/contracts@5.0.0/utils/cryptography/EIP712.sol\":4204:4284  abi.encode(TYPE_HASH, _hashedName, _hashedVersion, block.chainid, address(this)) */\n      0x40\n      dup1\n      mload\n        /* \"@openzeppelin/contracts@5.0.0/utils/cryptography/EIP712.sol\":2079:2174  keccak256(\"EIP712Domain(string name,string version,uint256 chainId,address verifyingContract)\") */\n      0x8b73c3c69bb8fe3d512ecc4cf759cc79239f7b179b0ffacaa9a75d522b39400f\n        /* \"@openzeppelin/contracts@5.0.0/utils/cryptography/EIP712.sol\":4204:4284  abi.encode(TYPE_HASH, _hashedName, _hashedVersion, block.chainid, address(this)) */\n      0x20\n      dup3\n      add\n        /* \"#utility.yul\":7320:7345   */\n      mstore\n        /* \"@openzeppelin/contracts@5.0.0/utils/cryptography/EIP712.sol\":4226:4237  _hashedName */\n      immutable(\"0x4e669ebbfc9e66ba0d4cc2f926c330636a2f58d7a9b7cd75440140ab15886cf5\")\n        /* \"#utility.yul\":7361:7379   */\n      swap2\n      dup2\n      add\n        /* \"#utility.yul\":7354:7388   */\n      swap2\n      swap1\n      swap2\n      mstore\n        /* \"@openzeppelin/contracts@5.0.0/utils/cryptography/EIP712.sol\":4239:4253  _hashedVersion */\n      immutable(\"0xd188a1da6d6dfc972f5d1614b9a5ea681202f643e26bdaa8898fb08d79dc84fc\")\n        /* \"#utility.yul\":7404:7422   */\n      0x60\n      dup3\n      add\n        /* \"#utility.yul\":7397:7431   */\n      mstore\n        /* \"@openzeppelin/contracts@5.0.0/utils/cryptography/EIP712.sol\":4255:4268  block.chainid */\n      chainid\n        /* \"#utility.yul\":7447:7465   */\n      0x80\n      dup3\n      add\n        /* \"#utility.yul\":7440:7474   */\n      mstore\n        /* \"@openzeppelin/contracts@5.0.0/utils/cryptography/EIP712.sol\":4278:4282  this */\n      address\n        /* \"#utility.yul\":7490:7509   */\n      0xa0\n      dup3\n      add\n        /* \"#utility.yul\":7483:7544   */\n      mstore\n        /* \"@openzeppelin/contracts@5.0.0/utils/cryptography/EIP712.sol\":4168:4175  bytes32 */\n      0x00\n      swap1\n        /* \"#utility.yul\":7292:7311   */\n      0xc0\n      add\n        /* \"@openzeppelin/contracts@5.0.0/utils/cryptography/EIP712.sol\":4204:4284  abi.encode(TYPE_HASH, _hashedName, _hashedVersion, block.chainid, address(this)) */\n      mload(0x40)\n      0x20\n      dup2\n      dup4\n      sub\n      sub\n      dup2\n      mstore\n      swap1\n      0x40\n      mstore\n        /* \"@openzeppelin/contracts@5.0.0/utils/cryptography/EIP712.sol\":4194:4285  keccak256(abi.encode(TYPE_HASH, _hashedName, _hashedVersion, block.chainid, address(this))) */\n      dup1\n      mload\n      swap1\n      0x20\n      add\n      keccak256\n        /* \"@openzeppelin/contracts@5.0.0/utils/cryptography/EIP712.sol\":4187:4285  return keccak256(abi.encode(TYPE_HASH, _hashedName, _hashedVersion, block.chainid, address(this))) */\n      swap1\n      pop\n        /* \"@openzeppelin/contracts@5.0.0/utils/cryptography/EIP712.sol\":4113:4292  function _buildDomainSeparator() private view returns (bytes32) {... */\n      swap1\n      jump\n        /* \"@openzeppelin/contracts@5.0.0/token/ERC20/ERC20.sol\":8247:8453  function _burn(address account, uint256 value) internal {... */\n    tag_114:\n      sub(shl(0xa0, 0x01), 0x01)\n        /* \"@openzeppelin/contracts@5.0.0/token/ERC20/ERC20.sol\":8317:8338  account == address(0) */\n      dup3\n      and\n        /* \"@openzeppelin/contracts@5.0.0/token/ERC20/ERC20.sol\":8313:8402  if (account == address(0)) {... */\n      tag_183\n      jumpi\n        /* \"@openzeppelin/contracts@5.0.0/token/ERC20/ERC20.sol\":8361:8391  ERC20InvalidSender(address(0)) */\n      mload(0x40)\n      shl(0xe1, 0x4b637e8f)\n      dup2\n      mstore\n        /* \"@openzeppelin/contracts@5.0.0/token/ERC20/ERC20.sol\":8388:8389  0 */\n      0x00\n        /* \"@openzeppelin/contracts@5.0.0/token/ERC20/ERC20.sol\":8361:8391  ERC20InvalidSender(address(0)) */\n      0x04\n      dup3\n      add\n        /* \"#utility.yul\":6999:7050   */\n      mstore\n        /* \"#utility.yul\":6972:6990   */\n      0x24\n      add\n        /* \"@openzeppelin/contracts@5.0.0/token/ERC20/ERC20.sol\":8361:8391  ERC20InvalidSender(address(0)) */\n      tag_143\n        /* \"#utility.yul\":6853:7056   */\n      jump\n        /* \"@openzeppelin/contracts@5.0.0/token/ERC20/ERC20.sol\":8313:8402  if (account == address(0)) {... */\n    tag_183:\n        /* \"@openzeppelin/contracts@5.0.0/token/ERC20/ERC20.sol\":8411:8446  _update(account, address(0), value) */\n      tag_119\n        /* \"@openzeppelin/contracts@5.0.0/token/ERC20/ERC20.sol\":8419:8426  account */\n      dup3\n        /* \"@openzeppelin/contracts@5.0.0/token/ERC20/ERC20.sol\":8436:8437  0 */\n      0x00\n        /* \"@openzeppelin/contracts@5.0.0/token/ERC20/ERC20.sol\":8440:8445  value */\n      dup4\n        /* \"@openzeppelin/contracts@5.0.0/token/ERC20/ERC20.sol\":8411:8418  _update */\n      tag_175\n        /* \"@openzeppelin/contracts@5.0.0/token/ERC20/ERC20.sol\":8411:8446  _update(account, address(0), value) */\n      jump\t// in\n        /* \"@openzeppelin/contracts@5.0.0/utils/cryptography/EIP712.sol\":6021:6147  function _EIP712Name() internal view returns (string memory) {... */\n    tag_125:\n        /* \"@openzeppelin/contracts@5.0.0/utils/cryptography/EIP712.sol\":6067:6080  string memory */\n      0x60\n        /* \"@openzeppelin/contracts@5.0.0/utils/cryptography/EIP712.sol\":6099:6140  _name.toStringWithFallback(_nameFallback) */\n      tag_109\n        /* \"@openzeppelin/contracts@5.0.0/utils/cryptography/EIP712.sol\":6099:6104  _name */\n      immutable(\"0xf598d05e51facafddb4666a870ba9c91ee31463df052628aed50dc3216257420\")\n        /* \"@openzeppelin/contracts@5.0.0/utils/cryptography/EIP712.sol\":6126:6139  _nameFallback */\n      0x05\n        /* \"@openzeppelin/contracts@5.0.0/utils/cryptography/EIP712.sol\":6099:6125  _name.toStringWithFallback */\n      tag_189\n        /* \"@openzeppelin/contracts@5.0.0/utils/cryptography/EIP712.sol\":6099:6140  _name.toStringWithFallback(_nameFallback) */\n      jump\t// in\n        /* \"@openzeppelin/contracts@5.0.0/utils/cryptography/EIP712.sol\":6473:6608  function _EIP712Version() internal view returns (string memory) {... */\n    tag_127:\n        /* \"@openzeppelin/contracts@5.0.0/utils/cryptography/EIP712.sol\":6522:6535  string memory */\n      0x60\n        /* \"@openzeppelin/contracts@5.0.0/utils/cryptography/EIP712.sol\":6554:6601  _version.toStringWithFallback(_versionFallback) */\n      tag_109\n        /* \"@openzeppelin/contracts@5.0.0/utils/cryptography/EIP712.sol\":6554:6562  _version */\n      immutable(\"0xdd6ebedecc3782991b040722d05346ae76115706b237b0f241066a60ee7c2169\")\n        /* \"@openzeppelin/contracts@5.0.0/utils/cryptography/EIP712.sol\":6584:6600  _versionFallback */\n      0x06\n        /* \"@openzeppelin/contracts@5.0.0/utils/cryptography/EIP712.sol\":6554:6583  _version.toStringWithFallback */\n      tag_189\n        /* \"@openzeppelin/contracts@5.0.0/utils/cryptography/EIP712.sol\":6554:6601  _version.toStringWithFallback(_versionFallback) */\n      jump\t// in\n        /* \"@openzeppelin/contracts@5.0.0/utils/cryptography/EIP712.sol\":4917:5093  function _hashTypedDataV4(bytes32 structHash) internal view virtual returns (bytes32) {... */\n    tag_149:\n        /* \"@openzeppelin/contracts@5.0.0/utils/cryptography/EIP712.sol\":4994:5001  bytes32 */\n      0x00\n        /* \"@openzeppelin/contracts@5.0.0/utils/cryptography/EIP712.sol\":5020:5086  MessageHashUtils.toTypedDataHash(_domainSeparatorV4(), structHash) */\n      tag_95\n        /* \"@openzeppelin/contracts@5.0.0/utils/cryptography/EIP712.sol\":5053:5073  _domainSeparatorV4() */\n      tag_195\n        /* \"@openzeppelin/contracts@5.0.0/utils/cryptography/EIP712.sol\":5053:5071  _domainSeparatorV4 */\n      tag_110\n        /* \"@openzeppelin/contracts@5.0.0/utils/cryptography/EIP712.sol\":5053:5073  _domainSeparatorV4() */\n      jump\t// in\n    tag_195:\n        /* \"@openzeppelin/contracts@5.0.0/utils/cryptography/EIP712.sol\":5075:5085  structHash */\n      dup4\n        /* \"@openzeppelin/contracts@5.0.0/utils/cryptography/MessageHashUtils.sol\":3555:3559  0x40 */\n      0x40\n        /* \"@openzeppelin/contracts@5.0.0/utils/cryptography/MessageHashUtils.sol\":3549:3560  mload(0x40) */\n      mload\n      shl(0xf0, 0x1901)\n        /* \"@openzeppelin/contracts@5.0.0/utils/cryptography/MessageHashUtils.sol\":3573:3596  mstore(ptr, hex\"19_01\") */\n      dup2\n      mstore\n        /* \"@openzeppelin/contracts@5.0.0/utils/cryptography/MessageHashUtils.sol\":3625:3629  0x02 */\n      0x02\n        /* \"@openzeppelin/contracts@5.0.0/utils/cryptography/MessageHashUtils.sol\":3616:3630  add(ptr, 0x02) */\n      dup2\n      add\n        /* \"@openzeppelin/contracts@5.0.0/utils/cryptography/MessageHashUtils.sol\":3609:3648  mstore(add(ptr, 0x02), domainSeparator) */\n      swap3\n      swap1\n      swap3\n      mstore\n        /* \"@openzeppelin/contracts@5.0.0/utils/cryptography/MessageHashUtils.sol\":3677:3681  0x22 */\n      0x22\n        /* \"@openzeppelin/contracts@5.0.0/utils/cryptography/MessageHashUtils.sol\":3668:3682  add(ptr, 0x22) */\n      dup3\n      add\n        /* \"@openzeppelin/contracts@5.0.0/utils/cryptography/MessageHashUtils.sol\":3661:3695  mstore(add(ptr, 0x22), structHash) */\n      mstore\n        /* \"@openzeppelin/contracts@5.0.0/utils/cryptography/MessageHashUtils.sol\":3733:3737  0x42 */\n      0x42\n        /* \"@openzeppelin/contracts@5.0.0/utils/cryptography/MessageHashUtils.sol\":3718:3738  keccak256(ptr, 0x42) */\n      swap1\n      keccak256\n      swap1\n        /* \"@openzeppelin/contracts@5.0.0/utils/cryptography/MessageHashUtils.sol\":3353:3754  function toTypedDataHash(bytes32 domainSeparator, bytes32 structHash) internal pure returns (bytes32 digest) {... */\n      jump\n        /* \"@openzeppelin/contracts@5.0.0/utils/cryptography/ECDSA.sol\":6803:7063  function recover(bytes32 hash, uint8 v, bytes32 r, bytes32 s) internal pure returns (address) {... */\n    tag_151:\n        /* \"@openzeppelin/contracts@5.0.0/utils/cryptography/ECDSA.sol\":6888:6895  address */\n      0x00\n        /* \"@openzeppelin/contracts@5.0.0/utils/cryptography/ECDSA.sol\":6908:6925  address recovered */\n      dup1\n        /* \"@openzeppelin/contracts@5.0.0/utils/cryptography/ECDSA.sol\":6927:6945  RecoverError error */\n      0x00\n        /* \"@openzeppelin/contracts@5.0.0/utils/cryptography/ECDSA.sol\":6947:6963  bytes32 errorArg */\n      dup1\n        /* \"@openzeppelin/contracts@5.0.0/utils/cryptography/ECDSA.sol\":6967:6992  tryRecover(hash, v, r, s) */\n      tag_198\n        /* \"@openzeppelin/contracts@5.0.0/utils/cryptography/ECDSA.sol\":6978:6982  hash */\n      dup9\n        /* \"@openzeppelin/contracts@5.0.0/utils/cryptography/ECDSA.sol\":6984:6985  v */\n      dup9\n        /* \"@openzeppelin/contracts@5.0.0/utils/cryptography/ECDSA.sol\":6987:6988  r */\n      dup9\n        /* \"@openzeppelin/contracts@5.0.0/utils/cryptography/ECDSA.sol\":6990:6991  s */\n      dup9\n        /* \"@openzeppelin/contracts@5.0.0/utils/cryptography/ECDSA.sol\":6967:6977  tryRecover */\n      tag_199\n        /* \"@openzeppelin/contracts@5.0.0/utils/cryptography/ECDSA.sol\":6967:6992  tryRecover(hash, v, r, s) */\n      jump\t// in\n    tag_198:\n        /* \"@openzeppelin/contracts@5.0.0/utils/cryptography/ECDSA.sol\":6907:6992  (address recovered, RecoverError error, bytes32 errorArg) = tryRecover(hash, v, r, s) */\n      swap3\n      pop\n      swap3\n      pop\n      swap3\n      pop\n        /* \"@openzeppelin/contracts@5.0.0/utils/cryptography/ECDSA.sol\":7002:7030  _throwError(error, errorArg) */\n      tag_200\n        /* \"@openzeppelin/contracts@5.0.0/utils/cryptography/ECDSA.sol\":7014:7019  error */\n      dup3\n        /* \"@openzeppelin/contracts@5.0.0/utils/cryptography/ECDSA.sol\":7021:7029  errorArg */\n      dup3\n        /* \"@openzeppelin/contracts@5.0.0/utils/cryptography/ECDSA.sol\":7002:7013  _throwError */\n      tag_201\n        /* \"@openzeppelin/contracts@5.0.0/utils/cryptography/ECDSA.sol\":7002:7030  _throwError(error, errorArg) */\n      jump\t// in\n    tag_200:\n      pop\n        /* \"@openzeppelin/contracts@5.0.0/utils/cryptography/ECDSA.sol\":7047:7056  recovered */\n      swap1\n      swap7\n        /* \"@openzeppelin/contracts@5.0.0/utils/cryptography/ECDSA.sol\":6803:7063  function recover(bytes32 hash, uint8 v, bytes32 r, bytes32 s) internal pure returns (address) {... */\n      swap6\n      pop\n      pop\n      pop\n      pop\n      pop\n      pop\n      jump\t// out\n        /* \"@openzeppelin/contracts@5.0.0/token/ERC20/ERC20.sol\":9949:10381  function _approve(address owner, address spender, uint256 value, bool emitEvent) internal virtual {... */\n    tag_160:\n      sub(shl(0xa0, 0x01), 0x01)\n        /* \"@openzeppelin/contracts@5.0.0/token/ERC20/ERC20.sol\":10061:10080  owner == address(0) */\n      dup5\n      and\n        /* \"@openzeppelin/contracts@5.0.0/token/ERC20/ERC20.sol\":10057:10146  if (owner == address(0)) {... */\n      tag_203\n      jumpi\n        /* \"@openzeppelin/contracts@5.0.0/token/ERC20/ERC20.sol\":10103:10135  ERC20InvalidApprover(address(0)) */\n      mload(0x40)\n      shl(0xe0, 0xe602df05)\n      dup2\n      mstore\n        /* \"@openzeppelin/contracts@5.0.0/token/ERC20/ERC20.sol\":10132:10133  0 */\n      0x00\n        /* \"@openzeppelin/contracts@5.0.0/token/ERC20/ERC20.sol\":10103:10135  ERC20InvalidApprover(address(0)) */\n      0x04\n      dup3\n      add\n        /* \"#utility.yul\":6999:7050   */\n      mstore\n        /* \"#utility.yul\":6972:6990   */\n      0x24\n      add\n        /* \"@openzeppelin/contracts@5.0.0/token/ERC20/ERC20.sol\":10103:10135  ERC20InvalidApprover(address(0)) */\n      tag_143\n        /* \"#utility.yul\":6853:7056   */\n      jump\n        /* \"@openzeppelin/contracts@5.0.0/token/ERC20/ERC20.sol\":10057:10146  if (owner == address(0)) {... */\n    tag_203:\n      sub(shl(0xa0, 0x01), 0x01)\n        /* \"@openzeppelin/contracts@5.0.0/token/ERC20/ERC20.sol\":10159:10180  spender == address(0) */\n      dup4\n      and\n        /* \"@openzeppelin/contracts@5.0.0/token/ERC20/ERC20.sol\":10155:10245  if (spender == address(0)) {... */\n      tag_205\n      jumpi\n        /* \"@openzeppelin/contracts@5.0.0/token/ERC20/ERC20.sol\":10203:10234  ERC20InvalidSpender(address(0)) */\n      mload(0x40)\n      shl(0xe1, 0x4a1406b1)\n      dup2\n      mstore\n        /* \"@openzeppelin/contracts@5.0.0/token/ERC20/ERC20.sol\":10231:10232  0 */\n      0x00\n        /* \"@openzeppelin/contracts@5.0.0/token/ERC20/ERC20.sol\":10203:10234  ERC20InvalidSpender(address(0)) */\n      0x04\n      dup3\n      add\n        /* \"#utility.yul\":6999:7050   */\n      mstore\n        /* \"#utility.yul\":6972:6990   */\n      0x24\n      add\n        /* \"@openzeppelin/contracts@5.0.0/token/ERC20/ERC20.sol\":10203:10234  ERC20InvalidSpender(address(0)) */\n      tag_143\n        /* \"#utility.yul\":6853:7056   */\n      jump\n        /* \"@openzeppelin/contracts@5.0.0/token/ERC20/ERC20.sol\":10155:10245  if (spender == address(0)) {... */\n    tag_205:\n      sub(shl(0xa0, 0x01), 0x01)\n        /* \"@openzeppelin/contracts@5.0.0/token/ERC20/ERC20.sol\":10254:10272  _allowances[owner] */\n      dup1\n      dup6\n      and\n      0x00\n      swap1\n      dup2\n      mstore\n        /* \"@openzeppelin/contracts@5.0.0/token/ERC20/ERC20.sol\":10254:10265  _allowances */\n      0x01\n        /* \"@openzeppelin/contracts@5.0.0/token/ERC20/ERC20.sol\":10254:10272  _allowances[owner] */\n      0x20\n      swap1\n      dup2\n      mstore\n      0x40\n      dup1\n      dup4\n      keccak256\n        /* \"@openzeppelin/contracts@5.0.0/token/ERC20/ERC20.sol\":10254:10281  _allowances[owner][spender] */\n      swap4\n      dup8\n      and\n      dup4\n      mstore\n      swap3\n      swap1\n      mstore\n      keccak256\n        /* \"@openzeppelin/contracts@5.0.0/token/ERC20/ERC20.sol\":10254:10289  _allowances[owner][spender] = value */\n      dup3\n      swap1\n      sstore\n        /* \"@openzeppelin/contracts@5.0.0/token/ERC20/ERC20.sol\":10299:10375  if (emitEvent) {... */\n      dup1\n      iszero\n      tag_167\n      jumpi\n        /* \"@openzeppelin/contracts@5.0.0/token/ERC20/ERC20.sol\":10349:10356  spender */\n      dup3\n      sub(shl(0xa0, 0x01), 0x01)\n        /* \"@openzeppelin/contracts@5.0.0/token/ERC20/ERC20.sol\":10333:10364  Approval(owner, spender, value) */\n      and\n        /* \"@openzeppelin/contracts@5.0.0/token/ERC20/ERC20.sol\":10342:10347  owner */\n      dup5\n      sub(shl(0xa0, 0x01), 0x01)\n        /* \"@openzeppelin/contracts@5.0.0/token/ERC20/ERC20.sol\":10333:10364  Approval(owner, spender, value) */\n      and\n      0x8c5be1e5ebec7d5bd14f71427d1e84f3dd0314c0f7b2291e5b200ac8c7c3b925\n        /* \"@openzeppelin/contracts@5.0.0/token/ERC20/ERC20.sol\":10358:10363  value */\n      dup5\n        /* \"@openzeppelin/contracts@5.0.0/token/ERC20/ERC20.sol\":10333:10364  Approval(owner, spender, value) */\n      mload(0x40)\n      tag_208\n      swap2\n        /* \"#utility.yul\":1465:1490   */\n      dup2\n      mstore\n        /* \"#utility.yul\":1453:1455   */\n      0x20\n        /* \"#utility.yul\":1438:1456   */\n      add\n      swap1\n        /* \"#utility.yul\":1319:1496   */\n      jump\n        /* \"@openzeppelin/contracts@5.0.0/token/ERC20/ERC20.sol\":10333:10364  Approval(owner, spender, value) */\n    tag_208:\n      mload(0x40)\n      dup1\n      swap2\n      sub\n      swap1\n      log3\n        /* \"@openzeppelin/contracts@5.0.0/token/ERC20/ERC20.sol\":9949:10381  function _approve(address owner, address spender, uint256 value, bool emitEvent) internal virtual {... */\n      pop\n      pop\n      pop\n      pop\n      jump\t// out\n        /* \"Smart-Contract/PNJC.sol\":2351:2509  function _update(address from, address to, uint256 value) ... */\n    tag_175:\n        /* \"Smart-Contract/PNJC.sol\":2471:2501  super._update(from, to, value) */\n      tag_159\n        /* \"Smart-Contract/PNJC.sol\":2485:2489  from */\n      dup4\n        /* \"Smart-Contract/PNJC.sol\":2491:2493  to */\n      dup4\n        /* \"Smart-Contract/PNJC.sol\":2495:2500  value */\n      dup4\n        /* \"Smart-Contract/PNJC.sol\":2471:2484  super._update */\n      tag_211\n        /* \"Smart-Contract/PNJC.sol\":2471:2501  super._update(from, to, value) */\n      jump\t// in\n        /* \"@openzeppelin/contracts@5.0.0/utils/ShortStrings.sol\":3385:3652  function toStringWithFallback(ShortString value, string storage store) internal pure returns (string memory) {... */\n    tag_189:\n        /* \"@openzeppelin/contracts@5.0.0/utils/ShortStrings.sol\":3479:3492  string memory */\n      0x60\n        /* \"@openzeppelin/contracts@5.0.0/utils/ShortStrings.sol\":1390:1456  0x00000000000000000000000000000000000000000000000000000000000000FF */\n      0xff\n        /* \"@openzeppelin/contracts@5.0.0/utils/ShortStrings.sol\":3508:3554  ShortString.unwrap(value) != FALLBACK_SENTINEL */\n      dup4\n      eq\n        /* \"@openzeppelin/contracts@5.0.0/utils/ShortStrings.sol\":3504:3646  if (ShortString.unwrap(value) != FALLBACK_SENTINEL) {... */\n      tag_216\n      jumpi\n        /* \"@openzeppelin/contracts@5.0.0/utils/ShortStrings.sol\":3577:3592  toString(value) */\n      tag_217\n        /* \"@openzeppelin/contracts@5.0.0/utils/ShortStrings.sol\":3586:3591  value */\n      dup4\n        /* \"@openzeppelin/contracts@5.0.0/utils/ShortStrings.sol\":3577:3585  toString */\n      tag_218\n        /* \"@openzeppelin/contracts@5.0.0/utils/ShortStrings.sol\":3577:3592  toString(value) */\n      jump\t// in\n    tag_217:\n        /* \"@openzeppelin/contracts@5.0.0/utils/ShortStrings.sol\":3570:3592  return toString(value) */\n      swap1\n      pop\n      jump(tag_95)\n        /* \"@openzeppelin/contracts@5.0.0/utils/ShortStrings.sol\":3504:3646  if (ShortString.unwrap(value) != FALLBACK_SENTINEL) {... */\n    tag_216:\n        /* \"@openzeppelin/contracts@5.0.0/utils/ShortStrings.sol\":3630:3635  store */\n      dup2\n        /* \"@openzeppelin/contracts@5.0.0/utils/ShortStrings.sol\":3623:3635  return store */\n      dup1\n      sload\n      tag_220\n      swap1\n      tag_90\n      jump\t// in\n    tag_220:\n      dup1\n      0x1f\n      add\n      0x20\n      dup1\n      swap2\n      div\n      mul\n      0x20\n      add\n      mload(0x40)\n      swap1\n      dup2\n      add\n      0x40\n      mstore\n      dup1\n      swap3\n      swap2\n      swap1\n      dup2\n      dup2\n      mstore\n      0x20\n      add\n      dup3\n      dup1\n      sload\n      tag_221\n      swap1\n      tag_90\n      jump\t// in\n    tag_221:\n      dup1\n      iszero\n      tag_222\n      jumpi\n      dup1\n      0x1f\n      lt\n      tag_223\n      jumpi\n      0x0100\n      dup1\n      dup4\n      sload\n      div\n      mul\n      dup4\n      mstore\n      swap2\n      0x20\n      add\n      swap2\n      jump(tag_222)\n    tag_223:\n      dup3\n      add\n      swap2\n      swap1\n      0x00\n      mstore\n      keccak256(0x00, 0x20)\n      swap1\n    tag_224:\n      dup2\n      sload\n      dup2\n      mstore\n      swap1\n      0x01\n      add\n      swap1\n      0x20\n      add\n      dup1\n      dup4\n      gt\n      tag_224\n      jumpi\n      dup3\n      swap1\n      sub\n      0x1f\n      and\n      dup3\n      add\n      swap2\n    tag_222:\n      pop\n      pop\n      pop\n      pop\n      pop\n      swap1\n      pop\n      jump(tag_95)\n        /* \"@openzeppelin/contracts@5.0.0/utils/cryptography/ECDSA.sol\":5140:6670  function tryRecover(... */\n    tag_199:\n        /* \"@openzeppelin/contracts@5.0.0/utils/cryptography/ECDSA.sol\":5266:5273  address */\n      0x00\n      dup1\n      dup1\n        /* \"@openzeppelin/contracts@5.0.0/utils/cryptography/ECDSA.sol\":6199:6265  0x7FFFFFFFFFFFFFFFFFFFFFFFFFFFFFFF5D576E7357A4501DDFE92F46681B20A0 */\n      0x7fffffffffffffffffffffffffffffff5d576e7357a4501ddfe92f46681b20a0\n        /* \"@openzeppelin/contracts@5.0.0/utils/cryptography/ECDSA.sol\":6186:6265  uint256(s) > 0x7FFFFFFFFFFFFFFFFFFFFFFFFFFFFFFF5D576E7357A4501DDFE92F46681B20A0 */\n      dup5\n      gt\n        /* \"@openzeppelin/contracts@5.0.0/utils/cryptography/ECDSA.sol\":6182:6346  if (uint256(s) > 0x7FFFFFFFFFFFFFFFFFFFFFFFFFFFFFFF5D576E7357A4501DDFE92F46681B20A0) {... */\n      iszero\n      tag_227\n      jumpi\n      pop\n        /* \"@openzeppelin/contracts@5.0.0/utils/cryptography/ECDSA.sol\":6297:6298  0 */\n      0x00\n      swap2\n      pop\n        /* \"@openzeppelin/contracts@5.0.0/utils/cryptography/ECDSA.sol\":6301:6331  RecoverError.InvalidSignatureS */\n      0x03\n      swap1\n      pop\n        /* \"@openzeppelin/contracts@5.0.0/utils/cryptography/ECDSA.sol\":6333:6334  s */\n      dup3\n        /* \"@openzeppelin/contracts@5.0.0/utils/cryptography/ECDSA.sol\":6281:6335  return (address(0), RecoverError.InvalidSignatureS, s) */\n      jump(tag_226)\n        /* \"@openzeppelin/contracts@5.0.0/utils/cryptography/ECDSA.sol\":6182:6346  if (uint256(s) > 0x7FFFFFFFFFFFFFFFFFFFFFFFFFFFFFFF5D576E7357A4501DDFE92F46681B20A0) {... */\n    tag_227:\n        /* \"@openzeppelin/contracts@5.0.0/utils/cryptography/ECDSA.sol\":6457:6481  ecrecover(hash, v, r, s) */\n      0x40\n      dup1\n      mload\n        /* \"@openzeppelin/contracts@5.0.0/utils/cryptography/ECDSA.sol\":6440:6454  address signer */\n      0x00\n        /* \"@openzeppelin/contracts@5.0.0/utils/cryptography/ECDSA.sol\":6457:6481  ecrecover(hash, v, r, s) */\n      dup1\n      dup3\n      mstore\n      0x20\n      dup3\n      add\n      dup1\n      dup5\n      mstore\n        /* \"#utility.yul\":7782:7807   */\n      dup11\n      swap1\n      mstore\n        /* \"#utility.yul\":7855:7859   */\n      0xff\n        /* \"#utility.yul\":7843:7860   */\n      dup10\n      and\n        /* \"#utility.yul\":7823:7841   */\n      swap3\n      dup3\n      add\n        /* \"#utility.yul\":7816:7861   */\n      swap3\n      swap1\n      swap3\n      mstore\n        /* \"#utility.yul\":7877:7895   */\n      0x60\n      dup2\n      add\n        /* \"#utility.yul\":7870:7904   */\n      dup8\n      swap1\n      mstore\n        /* \"#utility.yul\":7920:7938   */\n      0x80\n      dup2\n      add\n        /* \"#utility.yul\":7913:7947   */\n      dup7\n      swap1\n      mstore\n        /* \"@openzeppelin/contracts@5.0.0/utils/cryptography/ECDSA.sol\":6457:6481  ecrecover(hash, v, r, s) */\n      0x01\n      swap1\n        /* \"#utility.yul\":7754:7773   */\n      0xa0\n      add\n        /* \"@openzeppelin/contracts@5.0.0/utils/cryptography/ECDSA.sol\":6457:6481  ecrecover(hash, v, r, s) */\n      0x20\n      mload(0x40)\n      0x20\n      dup2\n      sub\n      swap1\n      dup1\n      dup5\n      sub\n      swap1\n      dup6\n      gas\n      staticcall\n      iszero\n      dup1\n      iszero\n      tag_231\n      jumpi\n      returndatasize\n      0x00\n      dup1\n      returndatacopy\n      revert(0x00, returndatasize)\n    tag_231:\n      pop\n      pop\n      mload(add(not(0x1f), mload(0x40)))\n      swap2\n      pop\n      pop\n      sub(shl(0xa0, 0x01), 0x01)\n        /* \"@openzeppelin/contracts@5.0.0/utils/cryptography/ECDSA.sol\":6495:6515  signer == address(0) */\n      dup2\n      and\n        /* \"@openzeppelin/contracts@5.0.0/utils/cryptography/ECDSA.sol\":6491:6604  if (signer == address(0)) {... */\n      tag_232\n      jumpi\n      pop\n        /* \"@openzeppelin/contracts@5.0.0/utils/cryptography/ECDSA.sol\":6547:6548  0 */\n      0x00\n      swap3\n      pop\n        /* \"@openzeppelin/contracts@5.0.0/utils/cryptography/ECDSA.sol\":6551:6580  RecoverError.InvalidSignature */\n      0x01\n      swap2\n      pop\n        /* \"@openzeppelin/contracts@5.0.0/utils/cryptography/ECDSA.sol\":6547:6548  0 */\n      dup3\n      swap1\n      pop\n        /* \"@openzeppelin/contracts@5.0.0/utils/cryptography/ECDSA.sol\":6531:6593  return (address(0), RecoverError.InvalidSignature, bytes32(0)) */\n      jump(tag_226)\n        /* \"@openzeppelin/contracts@5.0.0/utils/cryptography/ECDSA.sol\":6491:6604  if (signer == address(0)) {... */\n    tag_232:\n        /* \"@openzeppelin/contracts@5.0.0/utils/cryptography/ECDSA.sol\":6622:6628  signer */\n      swap3\n      pop\n        /* \"@openzeppelin/contracts@5.0.0/utils/cryptography/ECDSA.sol\":6630:6650  RecoverError.NoError */\n      0x00\n      swap2\n      pop\n      dup2\n      swap1\n      pop\n        /* \"@openzeppelin/contracts@5.0.0/utils/cryptography/ECDSA.sol\":5140:6670  function tryRecover(... */\n    tag_226:\n      swap5\n      pop\n      swap5\n      pop\n      swap5\n      swap2\n      pop\n      pop\n      jump\t// out\n        /* \"@openzeppelin/contracts@5.0.0/utils/cryptography/ECDSA.sol\":7196:7728  function _throwError(RecoverError error, bytes32 errorArg) private pure {... */\n    tag_201:\n        /* \"@openzeppelin/contracts@5.0.0/utils/cryptography/ECDSA.sol\":7291:7311  RecoverError.NoError */\n      0x00\n        /* \"@openzeppelin/contracts@5.0.0/utils/cryptography/ECDSA.sol\":7282:7287  error */\n      dup3\n        /* \"@openzeppelin/contracts@5.0.0/utils/cryptography/ECDSA.sol\":7282:7311  error == RecoverError.NoError */\n      0x03\n      dup2\n      gt\n      iszero\n      tag_238\n      jumpi\n      tag_238\n      tag_236\n      jump\t// in\n    tag_238:\n      sub\n        /* \"@openzeppelin/contracts@5.0.0/utils/cryptography/ECDSA.sol\":7278:7722  if (error == RecoverError.NoError) {... */\n      tag_239\n      jumpi\n        /* \"@openzeppelin/contracts@5.0.0/utils/cryptography/ECDSA.sol\":7196:7728  function _throwError(RecoverError error, bytes32 errorArg) private pure {... */\n      pop\n      pop\n      jump\t// out\n        /* \"@openzeppelin/contracts@5.0.0/utils/cryptography/ECDSA.sol\":7278:7722  if (error == RecoverError.NoError) {... */\n    tag_239:\n        /* \"@openzeppelin/contracts@5.0.0/utils/cryptography/ECDSA.sol\":7387:7416  RecoverError.InvalidSignature */\n      0x01\n        /* \"@openzeppelin/contracts@5.0.0/utils/cryptography/ECDSA.sol\":7378:7383  error */\n      dup3\n        /* \"@openzeppelin/contracts@5.0.0/utils/cryptography/ECDSA.sol\":7378:7416  error == RecoverError.InvalidSignature */\n      0x03\n      dup2\n      gt\n      iszero\n      tag_244\n      jumpi\n      tag_244\n      tag_236\n      jump\t// in\n    tag_244:\n      sub\n        /* \"@openzeppelin/contracts@5.0.0/utils/cryptography/ECDSA.sol\":7374:7722  if (error == RecoverError.InvalidSignature) {... */\n      tag_245\n      jumpi\n        /* \"@openzeppelin/contracts@5.0.0/utils/cryptography/ECDSA.sol\":7439:7462  ECDSAInvalidSignature() */\n      mload(0x40)\n      shl(0xe0, 0xf645eedf)\n      dup2\n      mstore\n      0x04\n      add\n      mload(0x40)\n      dup1\n      swap2\n      sub\n      swap1\n      revert\n        /* \"@openzeppelin/contracts@5.0.0/utils/cryptography/ECDSA.sol\":7374:7722  if (error == RecoverError.InvalidSignature) {... */\n    tag_245:\n        /* \"@openzeppelin/contracts@5.0.0/utils/cryptography/ECDSA.sol\":7492:7527  RecoverError.InvalidSignatureLength */\n      0x02\n        /* \"@openzeppelin/contracts@5.0.0/utils/cryptography/ECDSA.sol\":7483:7488  error */\n      dup3\n        /* \"@openzeppelin/contracts@5.0.0/utils/cryptography/ECDSA.sol\":7483:7527  error == RecoverError.InvalidSignatureLength */\n      0x03\n      dup2\n      gt\n      iszero\n      tag_250\n      jumpi\n      tag_250\n      tag_236\n      jump\t// in\n    tag_250:\n      sub\n        /* \"@openzeppelin/contracts@5.0.0/utils/cryptography/ECDSA.sol\":7479:7722  if (error == RecoverError.InvalidSignatureLength) {... */\n      tag_251\n      jumpi\n        /* \"@openzeppelin/contracts@5.0.0/utils/cryptography/ECDSA.sol\":7550:7596  ECDSAInvalidSignatureLength(uint256(errorArg)) */\n      mload(0x40)\n      shl(0xe0, 0xfce698f7)\n      dup2\n      mstore\n      0x04\n      dup2\n      add\n        /* \"#utility.yul\":1465:1490   */\n      dup3\n      swap1\n      mstore\n        /* \"#utility.yul\":1438:1456   */\n      0x24\n      add\n        /* \"@openzeppelin/contracts@5.0.0/utils/cryptography/ECDSA.sol\":7550:7596  ECDSAInvalidSignatureLength(uint256(errorArg)) */\n      tag_143\n        /* \"#utility.yul\":1319:1496   */\n      jump\n        /* \"@openzeppelin/contracts@5.0.0/utils/cryptography/ECDSA.sol\":7479:7722  if (error == RecoverError.InvalidSignatureLength) {... */\n    tag_251:\n        /* \"@openzeppelin/contracts@5.0.0/utils/cryptography/ECDSA.sol\":7626:7656  RecoverError.InvalidSignatureS */\n      0x03\n        /* \"@openzeppelin/contracts@5.0.0/utils/cryptography/ECDSA.sol\":7617:7622  error */\n      dup3\n        /* \"@openzeppelin/contracts@5.0.0/utils/cryptography/ECDSA.sol\":7617:7656  error == RecoverError.InvalidSignatureS */\n      0x03\n      dup2\n      gt\n      iszero\n      tag_257\n      jumpi\n      tag_257\n      tag_236\n      jump\t// in\n    tag_257:\n      sub\n        /* \"@openzeppelin/contracts@5.0.0/utils/cryptography/ECDSA.sol\":7613:7722  if (error == RecoverError.InvalidSignatureS) {... */\n      tag_119\n      jumpi\n        /* \"@openzeppelin/contracts@5.0.0/utils/cryptography/ECDSA.sol\":7679:7711  ECDSAInvalidSignatureS(errorArg) */\n      mload(0x40)\n      shl(0xe2, 0x35e2f383)\n      dup2\n      mstore\n      0x04\n      dup2\n      add\n        /* \"#utility.yul\":1465:1490   */\n      dup3\n      swap1\n      mstore\n        /* \"#utility.yul\":1438:1456   */\n      0x24\n      add\n        /* \"@openzeppelin/contracts@5.0.0/utils/cryptography/ECDSA.sol\":7679:7711  ECDSAInvalidSignatureS(errorArg) */\n      tag_143\n        /* \"#utility.yul\":1319:1496   */\n      jump\n        /* \"@openzeppelin/contracts@5.0.0/token/ERC20/ERC20.sol\":6271:7378  function _update(address from, address to, uint256 value) internal virtual {... */\n    tag_211:\n      sub(shl(0xa0, 0x01), 0x01)\n        /* \"@openzeppelin/contracts@5.0.0/token/ERC20/ERC20.sol\":6360:6378  from == address(0) */\n      dup4\n      and\n        /* \"@openzeppelin/contracts@5.0.0/token/ERC20/ERC20.sol\":6356:6896  if (from == address(0)) {... */\n      tag_261\n      jumpi\n        /* \"@openzeppelin/contracts@5.0.0/token/ERC20/ERC20.sol\":6512:6517  value */\n      dup1\n        /* \"@openzeppelin/contracts@5.0.0/token/ERC20/ERC20.sol\":6496:6508  _totalSupply */\n      0x02\n      0x00\n        /* \"@openzeppelin/contracts@5.0.0/token/ERC20/ERC20.sol\":6496:6517  _totalSupply += value */\n      dup3\n      dup3\n      sload\n      tag_262\n      swap2\n      swap1\n      tag_263\n      jump\t// in\n    tag_262:\n      swap1\n      swap2\n      sstore\n      pop\n        /* \"@openzeppelin/contracts@5.0.0/token/ERC20/ERC20.sol\":6356:6896  if (from == address(0)) {... */\n      tag_264\n      swap1\n      pop\n      jump\n    tag_261:\n      sub(shl(0xa0, 0x01), 0x01)\n        /* \"@openzeppelin/contracts@5.0.0/token/ERC20/ERC20.sol\":6570:6585  _balances[from] */\n      dup4\n      and\n        /* \"@openzeppelin/contracts@5.0.0/token/ERC20/ERC20.sol\":6548:6567  uint256 fromBalance */\n      0x00\n        /* \"@openzeppelin/contracts@5.0.0/token/ERC20/ERC20.sol\":6570:6585  _balances[from] */\n      swap1\n      dup2\n      mstore\n      0x20\n      dup2\n      swap1\n      mstore\n      0x40\n      swap1\n      keccak256\n      sload\n        /* \"@openzeppelin/contracts@5.0.0/token/ERC20/ERC20.sol\":6603:6622  fromBalance < value */\n      dup2\n      dup2\n      lt\n        /* \"@openzeppelin/contracts@5.0.0/token/ERC20/ERC20.sol\":6599:6714  if (fromBalance < value) {... */\n      iszero\n      tag_265\n      jumpi\n        /* \"@openzeppelin/contracts@5.0.0/token/ERC20/ERC20.sol\":6649:6699  ERC20InsufficientBalance(from, fromBalance, value) */\n      mload(0x40)\n      shl(0xe2, 0x391434e3)\n      dup2\n      mstore\n      sub(shl(0xa0, 0x01), 0x01)\n        /* \"#utility.yul\":6723:6755   */\n      dup6\n      and\n        /* \"@openzeppelin/contracts@5.0.0/token/ERC20/ERC20.sol\":6649:6699  ERC20InsufficientBalance(from, fromBalance, value) */\n      0x04\n      dup3\n      add\n        /* \"#utility.yul\":6705:6756   */\n      mstore\n        /* \"#utility.yul\":6772:6790   */\n      0x24\n      dup2\n      add\n        /* \"#utility.yul\":6765:6799   */\n      dup3\n      swap1\n      mstore\n        /* \"#utility.yul\":6815:6833   */\n      0x44\n      dup2\n      add\n        /* \"#utility.yul\":6808:6842   */\n      dup4\n      swap1\n      mstore\n        /* \"#utility.yul\":6678:6696   */\n      0x64\n      add\n        /* \"@openzeppelin/contracts@5.0.0/token/ERC20/ERC20.sol\":6649:6699  ERC20InsufficientBalance(from, fromBalance, value) */\n      tag_143\n        /* \"#utility.yul\":6503:6848   */\n      jump\n        /* \"@openzeppelin/contracts@5.0.0/token/ERC20/ERC20.sol\":6599:6714  if (fromBalance < value) {... */\n    tag_265:\n      sub(shl(0xa0, 0x01), 0x01)\n        /* \"@openzeppelin/contracts@5.0.0/token/ERC20/ERC20.sol\":6834:6849  _balances[from] */\n      dup5\n      and\n        /* \"@openzeppelin/contracts@5.0.0/token/ERC20/ERC20.sol\":6834:6843  _balances */\n      0x00\n        /* \"@openzeppelin/contracts@5.0.0/token/ERC20/ERC20.sol\":6834:6849  _balances[from] */\n      swap1\n      dup2\n      mstore\n      0x20\n      dup2\n      swap1\n      mstore\n      0x40\n      swap1\n      keccak256\n        /* \"@openzeppelin/contracts@5.0.0/token/ERC20/ERC20.sol\":6852:6871  fromBalance - value */\n      swap1\n      dup3\n      swap1\n      sub\n        /* \"@openzeppelin/contracts@5.0.0/token/ERC20/ERC20.sol\":6834:6871  _balances[from] = fromBalance - value */\n      swap1\n      sstore\n        /* \"@openzeppelin/contracts@5.0.0/token/ERC20/ERC20.sol\":6356:6896  if (from == address(0)) {... */\n    tag_264:\n      sub(shl(0xa0, 0x01), 0x01)\n        /* \"@openzeppelin/contracts@5.0.0/token/ERC20/ERC20.sol\":6910:6926  to == address(0) */\n      dup3\n      and\n        /* \"@openzeppelin/contracts@5.0.0/token/ERC20/ERC20.sol\":6906:7331  if (to == address(0)) {... */\n      tag_267\n      jumpi\n        /* \"@openzeppelin/contracts@5.0.0/token/ERC20/ERC20.sol\":7073:7085  _totalSupply */\n      0x02\n        /* \"@openzeppelin/contracts@5.0.0/token/ERC20/ERC20.sol\":7073:7094  _totalSupply -= value */\n      dup1\n      sload\n      dup3\n      swap1\n      sub\n      swap1\n      sstore\n        /* \"@openzeppelin/contracts@5.0.0/token/ERC20/ERC20.sol\":6906:7331  if (to == address(0)) {... */\n      jump(tag_268)\n    tag_267:\n      sub(shl(0xa0, 0x01), 0x01)\n        /* \"@openzeppelin/contracts@5.0.0/token/ERC20/ERC20.sol\":7284:7297  _balances[to] */\n      dup3\n      and\n        /* \"@openzeppelin/contracts@5.0.0/token/ERC20/ERC20.sol\":7284:7293  _balances */\n      0x00\n        /* \"@openzeppelin/contracts@5.0.0/token/ERC20/ERC20.sol\":7284:7297  _balances[to] */\n      swap1\n      dup2\n      mstore\n      0x20\n      dup2\n      swap1\n      mstore\n      0x40\n      swap1\n      keccak256\n        /* \"@openzeppelin/contracts@5.0.0/token/ERC20/ERC20.sol\":7284:7306  _balances[to] += value */\n      dup1\n      sload\n      dup3\n      add\n      swap1\n      sstore\n        /* \"@openzeppelin/contracts@5.0.0/token/ERC20/ERC20.sol\":6906:7331  if (to == address(0)) {... */\n    tag_268:\n        /* \"@openzeppelin/contracts@5.0.0/token/ERC20/ERC20.sol\":7361:7363  to */\n      dup2\n      sub(shl(0xa0, 0x01), 0x01)\n        /* \"@openzeppelin/contracts@5.0.0/token/ERC20/ERC20.sol\":7346:7371  Transfer(from, to, value) */\n      and\n        /* \"@openzeppelin/contracts@5.0.0/token/ERC20/ERC20.sol\":7355:7359  from */\n      dup4\n      sub(shl(0xa0, 0x01), 0x01)\n        /* \"@openzeppelin/contracts@5.0.0/token/ERC20/ERC20.sol\":7346:7371  Transfer(from, to, value) */\n      and\n      0xddf252ad1be2c89b69c2b068fc378daa952ba7f163c4a11628f55a4df523b3ef\n        /* \"@openzeppelin/contracts@5.0.0/token/ERC20/ERC20.sol\":7365:7370  value */\n      dup4\n        /* \"@openzeppelin/contracts@5.0.0/token/ERC20/ERC20.sol\":7346:7371  Transfer(from, to, value) */\n      mload(0x40)\n      tag_269\n      swap2\n        /* \"#utility.yul\":1465:1490   */\n      dup2\n      mstore\n        /* \"#utility.yul\":1453:1455   */\n      0x20\n        /* \"#utility.yul\":1438:1456   */\n      add\n      swap1\n        /* \"#utility.yul\":1319:1496   */\n      jump\n        /* \"@openzeppelin/contracts@5.0.0/token/ERC20/ERC20.sol\":7346:7371  Transfer(from, to, value) */\n    tag_269:\n      mload(0x40)\n      dup1\n      swap2\n      sub\n      swap1\n      log3\n        /* \"@openzeppelin/contracts@5.0.0/token/ERC20/ERC20.sol\":6271:7378  function _update(address from, address to, uint256 value) internal virtual {... */\n      pop\n      pop\n      pop\n      jump\t// out\n        /* \"@openzeppelin/contracts@5.0.0/utils/ShortStrings.sol\":2078:2483  function toString(ShortString sstr) internal pure returns (string memory) {... */\n    tag_218:\n        /* \"@openzeppelin/contracts@5.0.0/utils/ShortStrings.sol\":2137:2150  string memory */\n      0x60\n        /* \"@openzeppelin/contracts@5.0.0/utils/ShortStrings.sol\":2162:2173  uint256 len */\n      0x00\n        /* \"@openzeppelin/contracts@5.0.0/utils/ShortStrings.sol\":2176:2192  byteLength(sstr) */\n      tag_271\n        /* \"@openzeppelin/contracts@5.0.0/utils/ShortStrings.sol\":2187:2191  sstr */\n      dup4\n        /* \"@openzeppelin/contracts@5.0.0/utils/ShortStrings.sol\":2176:2186  byteLength */\n      tag_272\n        /* \"@openzeppelin/contracts@5.0.0/utils/ShortStrings.sol\":2176:2192  byteLength(sstr) */\n      jump\t// in\n    tag_271:\n        /* \"@openzeppelin/contracts@5.0.0/utils/ShortStrings.sol\":2300:2314  new string(32) */\n      0x40\n      dup1\n      mload\n        /* \"@openzeppelin/contracts@5.0.0/utils/ShortStrings.sol\":2311:2313  32 */\n      0x20\n        /* \"@openzeppelin/contracts@5.0.0/utils/ShortStrings.sol\":2300:2314  new string(32) */\n      dup1\n      dup3\n      mstore\n      dup2\n      dup4\n      add\n      swap1\n      swap3\n      mstore\n        /* \"@openzeppelin/contracts@5.0.0/utils/ShortStrings.sol\":2162:2192  uint256 len = byteLength(sstr) */\n      swap2\n      swap3\n      pop\n        /* \"@openzeppelin/contracts@5.0.0/utils/ShortStrings.sol\":2280:2297  string memory str */\n      0x00\n      swap2\n        /* \"@openzeppelin/contracts@5.0.0/utils/ShortStrings.sol\":2300:2314  new string(32) */\n      swap1\n      0x20\n      dup3\n      add\n      dup2\n      dup1\n      calldatasize\n      dup4\n      calldatacopy\n      pop\n      pop\n      pop\n        /* \"@openzeppelin/contracts@5.0.0/utils/ShortStrings.sol\":2390:2406  mstore(str, len) */\n      swap2\n      dup3\n      mstore\n      pop\n        /* \"@openzeppelin/contracts@5.0.0/utils/ShortStrings.sol\":2435:2439  0x20 */\n      0x20\n        /* \"@openzeppelin/contracts@5.0.0/utils/ShortStrings.sol\":2426:2440  add(str, 0x20) */\n      dup2\n      add\n        /* \"@openzeppelin/contracts@5.0.0/utils/ShortStrings.sol\":2419:2447  mstore(add(str, 0x20), sstr) */\n      swap3\n      swap1\n      swap3\n      mstore\n      pop\n        /* \"@openzeppelin/contracts@5.0.0/utils/ShortStrings.sol\":2390:2406  mstore(str, len) */\n      swap1\n        /* \"@openzeppelin/contracts@5.0.0/utils/ShortStrings.sol\":2078:2483  function toString(ShortString sstr) internal pure returns (string memory) {... */\n      jump\t// out\n        /* \"@openzeppelin/contracts@5.0.0/utils/ShortStrings.sol\":2555:2800  function byteLength(ShortString sstr) internal pure returns (uint256) {... */\n    tag_272:\n        /* \"@openzeppelin/contracts@5.0.0/utils/ShortStrings.sol\":2616:2623  uint256 */\n      0x00\n        /* \"@openzeppelin/contracts@5.0.0/utils/ShortStrings.sol\":2688:2692  0xFF */\n      0xff\n        /* \"@openzeppelin/contracts@5.0.0/utils/ShortStrings.sol\":2652:2692  uint256(ShortString.unwrap(sstr)) & 0xFF */\n      dup3\n      and\n        /* \"@openzeppelin/contracts@5.0.0/utils/ShortStrings.sol\":2715:2717  31 */\n      0x1f\n        /* \"@openzeppelin/contracts@5.0.0/utils/ShortStrings.sol\":2706:2717  result > 31 */\n      dup2\n      gt\n        /* \"@openzeppelin/contracts@5.0.0/utils/ShortStrings.sol\":2702:2771  if (result > 31) {... */\n      iszero\n      tag_95\n      jumpi\n        /* \"@openzeppelin/contracts@5.0.0/utils/ShortStrings.sol\":2740:2760  InvalidShortString() */\n      mload(0x40)\n      shl(0xe2, 0x2cd44ac3)\n      dup2\n      mstore\n      0x04\n      add\n      mload(0x40)\n      dup1\n      swap2\n      sub\n      swap1\n      revert\n        /* \"#utility.yul\":14:414   */\n    tag_278:\n        /* \"#utility.yul\":56:59   */\n      0x00\n        /* \"#utility.yul\":94:99   */\n      dup2\n        /* \"#utility.yul\":88:100   */\n      mload\n        /* \"#utility.yul\":121:127   */\n      dup1\n        /* \"#utility.yul\":116:119   */\n      dup5\n        /* \"#utility.yul\":109:128   */\n      mstore\n        /* \"#utility.yul\":146:147   */\n      0x00\n        /* \"#utility.yul\":156:295   */\n    tag_282:\n        /* \"#utility.yul\":170:176   */\n      dup2\n        /* \"#utility.yul\":167:168   */\n      dup2\n        /* \"#utility.yul\":164:177   */\n      lt\n        /* \"#utility.yul\":156:295   */\n      iszero\n      tag_284\n      jumpi\n        /* \"#utility.yul\":278:282   */\n      0x20\n        /* \"#utility.yul\":263:276   */\n      dup2\n      dup6\n      add\n        /* \"#utility.yul\":259:283   */\n      dup2\n      add\n        /* \"#utility.yul\":253:284   */\n      mload\n        /* \"#utility.yul\":233:244   */\n      dup7\n      dup4\n      add\n        /* \"#utility.yul\":229:251   */\n      dup3\n      add\n        /* \"#utility.yul\":222:285   */\n      mstore\n        /* \"#utility.yul\":185:197   */\n      add\n        /* \"#utility.yul\":156:295   */\n      jump(tag_282)\n    tag_284:\n        /* \"#utility.yul\":160:163   */\n      pop\n        /* \"#utility.yul\":340:341   */\n      0x00\n        /* \"#utility.yul\":333:337   */\n      0x20\n        /* \"#utility.yul\":324:330   */\n      dup3\n        /* \"#utility.yul\":319:322   */\n      dup7\n        /* \"#utility.yul\":315:331   */\n      add\n        /* \"#utility.yul\":311:338   */\n      add\n        /* \"#utility.yul\":304:342   */\n      mstore\n        /* \"#utility.yul\":403:407   */\n      0x20\n        /* \"#utility.yul\":396:398   */\n      0x1f\n        /* \"#utility.yul\":392:399   */\n      not\n        /* \"#utility.yul\":387:389   */\n      0x1f\n        /* \"#utility.yul\":379:385   */\n      dup4\n        /* \"#utility.yul\":375:390   */\n      add\n        /* \"#utility.yul\":371:400   */\n      and\n        /* \"#utility.yul\":366:369   */\n      dup6\n        /* \"#utility.yul\":362:401   */\n      add\n        /* \"#utility.yul\":358:408   */\n      add\n        /* \"#utility.yul\":351:408   */\n      swap2\n      pop\n      pop\n        /* \"#utility.yul\":14:414   */\n      swap3\n      swap2\n      pop\n      pop\n      jump\t// out\n        /* \"#utility.yul\":419:639   */\n    tag_25:\n        /* \"#utility.yul\":568:570   */\n      0x20\n        /* \"#utility.yul\":557:566   */\n      dup2\n        /* \"#utility.yul\":550:571   */\n      mstore\n        /* \"#utility.yul\":531:535   */\n      0x00\n        /* \"#utility.yul\":588:633   */\n      tag_286\n        /* \"#utility.yul\":629:631   */\n      0x20\n        /* \"#utility.yul\":618:627   */\n      dup4\n        /* \"#utility.yul\":614:632   */\n      add\n        /* \"#utility.yul\":606:612   */\n      dup5\n        /* \"#utility.yul\":588:633   */\n      tag_278\n      jump\t// in\n    tag_286:\n        /* \"#utility.yul\":580:633   */\n      swap4\n        /* \"#utility.yul\":419:639   */\n      swap3\n      pop\n      pop\n      pop\n      jump\t// out\n        /* \"#utility.yul\":644:817   */\n    tag_279:\n        /* \"#utility.yul\":712:732   */\n      dup1\n      calldataload\n      sub(shl(0xa0, 0x01), 0x01)\n        /* \"#utility.yul\":761:792   */\n      dup2\n      and\n        /* \"#utility.yul\":751:793   */\n      dup2\n      eq\n        /* \"#utility.yul\":741:811   */\n      tag_288\n      jumpi\n        /* \"#utility.yul\":807:808   */\n      0x00\n        /* \"#utility.yul\":804:805   */\n      dup1\n        /* \"#utility.yul\":797:809   */\n      revert\n        /* \"#utility.yul\":741:811   */\n    tag_288:\n        /* \"#utility.yul\":644:817   */\n      swap2\n      swap1\n      pop\n      jump\t// out\n        /* \"#utility.yul\":822:1122   */\n    tag_28:\n        /* \"#utility.yul\":890:896   */\n      0x00\n        /* \"#utility.yul\":898:904   */\n      dup1\n        /* \"#utility.yul\":951:953   */\n      0x40\n        /* \"#utility.yul\":939:948   */\n      dup4\n        /* \"#utility.yul\":930:937   */\n      dup6\n        /* \"#utility.yul\":926:949   */\n      sub\n        /* \"#utility.yul\":922:954   */\n      slt\n        /* \"#utility.yul\":919:971   */\n      iszero\n      tag_290\n      jumpi\n        /* \"#utility.yul\":967:968   */\n      0x00\n        /* \"#utility.yul\":964:965   */\n      dup1\n        /* \"#utility.yul\":957:969   */\n      revert\n        /* \"#utility.yul\":919:971   */\n    tag_290:\n        /* \"#utility.yul\":990:1019   */\n      tag_291\n        /* \"#utility.yul\":1009:1018   */\n      dup4\n        /* \"#utility.yul\":990:1019   */\n      tag_279\n      jump\t// in\n    tag_291:\n        /* \"#utility.yul\":980:1019   */\n      swap5\n        /* \"#utility.yul\":1088:1090   */\n      0x20\n        /* \"#utility.yul\":1073:1091   */\n      swap4\n      swap1\n      swap4\n      add\n        /* \"#utility.yul\":1060:1092   */\n      calldataload\n      swap4\n      pop\n      pop\n      pop\n        /* \"#utility.yul\":822:1122   */\n      jump\t// out\n        /* \"#utility.yul\":1501:1875   */\n    tag_38:\n        /* \"#utility.yul\":1578:1584   */\n      0x00\n        /* \"#utility.yul\":1586:1592   */\n      dup1\n        /* \"#utility.yul\":1594:1600   */\n      0x00\n        /* \"#utility.yul\":1647:1649   */\n      0x60\n        /* \"#utility.yul\":1635:1644   */\n      dup5\n        /* \"#utility.yul\":1626:1633   */\n      dup7\n        /* \"#utility.yul\":1622:1645   */\n      sub\n        /* \"#utility.yul\":1618:1650   */\n      slt\n        /* \"#utility.yul\":1615:1667   */\n      iszero\n      tag_295\n      jumpi\n        /* \"#utility.yul\":1663:1664   */\n      0x00\n        /* \"#utility.yul\":1660:1661   */\n      dup1\n        /* \"#utility.yul\":1653:1665   */\n      revert\n        /* \"#utility.yul\":1615:1667   */\n    tag_295:\n        /* \"#utility.yul\":1686:1715   */\n      tag_296\n        /* \"#utility.yul\":1705:1714   */\n      dup5\n        /* \"#utility.yul\":1686:1715   */\n      tag_279\n      jump\t// in\n    tag_296:\n        /* \"#utility.yul\":1676:1715   */\n      swap3\n      pop\n        /* \"#utility.yul\":1734:1772   */\n      tag_297\n        /* \"#utility.yul\":1768:1770   */\n      0x20\n        /* \"#utility.yul\":1757:1766   */\n      dup6\n        /* \"#utility.yul\":1753:1771   */\n      add\n        /* \"#utility.yul\":1734:1772   */\n      tag_279\n      jump\t// in\n    tag_297:\n        /* \"#utility.yul\":1501:1875   */\n      swap3\n      swap6\n        /* \"#utility.yul\":1724:1772   */\n      swap3\n      swap5\n      pop\n      pop\n      pop\n        /* \"#utility.yul\":1841:1843   */\n      0x40\n        /* \"#utility.yul\":1826:1844   */\n      swap2\n      swap1\n      swap2\n      add\n        /* \"#utility.yul\":1813:1845   */\n      calldataload\n      swap1\n        /* \"#utility.yul\":1501:1875   */\n      jump\t// out\n        /* \"#utility.yul\":2251:2477   */\n    tag_54:\n        /* \"#utility.yul\":2310:2316   */\n      0x00\n        /* \"#utility.yul\":2363:2365   */\n      0x20\n        /* \"#utility.yul\":2351:2360   */\n      dup3\n        /* \"#utility.yul\":2342:2349   */\n      dup5\n        /* \"#utility.yul\":2338:2361   */\n      sub\n        /* \"#utility.yul\":2334:2366   */\n      slt\n        /* \"#utility.yul\":2331:2383   */\n      iszero\n      tag_301\n      jumpi\n        /* \"#utility.yul\":2379:2380   */\n      0x00\n        /* \"#utility.yul\":2376:2377   */\n      dup1\n        /* \"#utility.yul\":2369:2381   */\n      revert\n        /* \"#utility.yul\":2331:2383   */\n    tag_301:\n      pop\n        /* \"#utility.yul\":2424:2447   */\n      calldataload\n      swap2\n        /* \"#utility.yul\":2251:2477   */\n      swap1\n      pop\n      jump\t// out\n        /* \"#utility.yul\":2482:2668   */\n    tag_58:\n        /* \"#utility.yul\":2541:2547   */\n      0x00\n        /* \"#utility.yul\":2594:2596   */\n      0x20\n        /* \"#utility.yul\":2582:2591   */\n      dup3\n        /* \"#utility.yul\":2573:2580   */\n      dup5\n        /* \"#utility.yul\":2569:2592   */\n      sub\n        /* \"#utility.yul\":2565:2597   */\n      slt\n        /* \"#utility.yul\":2562:2614   */\n      iszero\n      tag_303\n      jumpi\n        /* \"#utility.yul\":2610:2611   */\n      0x00\n        /* \"#utility.yul\":2607:2608   */\n      dup1\n        /* \"#utility.yul\":2600:2612   */\n      revert\n        /* \"#utility.yul\":2562:2614   */\n    tag_303:\n        /* \"#utility.yul\":2633:2662   */\n      tag_286\n        /* \"#utility.yul\":2652:2661   */\n      dup3\n        /* \"#utility.yul\":2633:2662   */\n      tag_279\n      jump\t// in\n        /* \"#utility.yul\":2673:3911   */\n    tag_71:\n        /* \"#utility.yul\":3079:3082   */\n      0xff\n        /* \"#utility.yul\":3074:3077   */\n      0xf8\n        /* \"#utility.yul\":3070:3083   */\n      shl\n        /* \"#utility.yul\":3062:3068   */\n      dup9\n        /* \"#utility.yul\":3058:3084   */\n      and\n        /* \"#utility.yul\":3047:3056   */\n      dup2\n        /* \"#utility.yul\":3040:3085   */\n      mstore\n        /* \"#utility.yul\":3121:3124   */\n      0xe0\n        /* \"#utility.yul\":3116:3118   */\n      0x20\n        /* \"#utility.yul\":3105:3114   */\n      dup3\n        /* \"#utility.yul\":3101:3119   */\n      add\n        /* \"#utility.yul\":3094:3125   */\n      mstore\n        /* \"#utility.yul\":3021:3025   */\n      0x00\n        /* \"#utility.yul\":3148:3194   */\n      tag_306\n        /* \"#utility.yul\":3189:3192   */\n      0xe0\n        /* \"#utility.yul\":3178:3187   */\n      dup4\n        /* \"#utility.yul\":3174:3193   */\n      add\n        /* \"#utility.yul\":3166:3172   */\n      dup10\n        /* \"#utility.yul\":3148:3194   */\n      tag_278\n      jump\t// in\n    tag_306:\n        /* \"#utility.yul\":3242:3251   */\n      dup3\n        /* \"#utility.yul\":3234:3240   */\n      dup2\n        /* \"#utility.yul\":3230:3252   */\n      sub\n        /* \"#utility.yul\":3225:3227   */\n      0x40\n        /* \"#utility.yul\":3214:3223   */\n      dup5\n        /* \"#utility.yul\":3210:3228   */\n      add\n        /* \"#utility.yul\":3203:3253   */\n      mstore\n        /* \"#utility.yul\":3276:3309   */\n      tag_307\n        /* \"#utility.yul\":3302:3308   */\n      dup2\n        /* \"#utility.yul\":3294:3300   */\n      dup10\n        /* \"#utility.yul\":3276:3309   */\n      tag_278\n      jump\t// in\n    tag_307:\n        /* \"#utility.yul\":3340:3342   */\n      0x60\n        /* \"#utility.yul\":3325:3343   */\n      dup5\n      add\n        /* \"#utility.yul\":3318:3352   */\n      dup9\n      swap1\n      mstore\n      sub(shl(0xa0, 0x01), 0x01)\n        /* \"#utility.yul\":3389:3421   */\n      dup8\n      and\n        /* \"#utility.yul\":3383:3386   */\n      0x80\n        /* \"#utility.yul\":3368:3387   */\n      dup6\n      add\n        /* \"#utility.yul\":3361:3422   */\n      mstore\n        /* \"#utility.yul\":3409:3412   */\n      0xa0\n        /* \"#utility.yul\":3438:3457   */\n      dup5\n      add\n        /* \"#utility.yul\":3431:3466   */\n      dup7\n      swap1\n      mstore\n        /* \"#utility.yul\":3503:3525   */\n      dup4\n      dup2\n      sub\n        /* \"#utility.yul\":3497:3500   */\n      0xc0\n        /* \"#utility.yul\":3482:3501   */\n      dup6\n      add\n        /* \"#utility.yul\":3475:3526   */\n      mstore\n        /* \"#utility.yul\":3575:3588   */\n      dup5\n      mload\n        /* \"#utility.yul\":3597:3619   */\n      dup1\n      dup3\n      mstore\n        /* \"#utility.yul\":3647:3649   */\n      0x20\n        /* \"#utility.yul\":3673:3688   */\n      dup1\n      dup8\n      add\n      swap4\n      pop\n        /* \"#utility.yul\":3635:3650   */\n      swap1\n      swap2\n      add\n      swap1\n      0x00\n        /* \"#utility.yul\":3716:3885   */\n    tag_308:\n        /* \"#utility.yul\":3730:3736   */\n      dup2\n        /* \"#utility.yul\":3727:3728   */\n      dup2\n        /* \"#utility.yul\":3724:3737   */\n      lt\n        /* \"#utility.yul\":3716:3885   */\n      iszero\n      tag_310\n      jumpi\n        /* \"#utility.yul\":3791:3804   */\n      dup4\n      mload\n        /* \"#utility.yul\":3779:3805   */\n      dup4\n      mstore\n        /* \"#utility.yul\":3834:3836   */\n      0x20\n        /* \"#utility.yul\":3860:3875   */\n      swap4\n      dup5\n      add\n      swap4\n        /* \"#utility.yul\":3825:3837   */\n      swap1\n      swap3\n      add\n      swap2\n        /* \"#utility.yul\":3752:3753   */\n      0x01\n        /* \"#utility.yul\":3745:3754   */\n      add\n        /* \"#utility.yul\":3716:3885   */\n      jump(tag_308)\n    tag_310:\n      pop\n        /* \"#utility.yul\":3902:3905   */\n      swap1\n      swap12\n        /* \"#utility.yul\":2673:3911   */\n      swap11\n      pop\n      pop\n      pop\n      pop\n      pop\n      pop\n      pop\n      pop\n      pop\n      pop\n      pop\n      jump\t// out\n        /* \"#utility.yul\":3916:4819   */\n    tag_81:\n        /* \"#utility.yul\":4027:4033   */\n      0x00\n        /* \"#utility.yul\":4035:4041   */\n      dup1\n        /* \"#utility.yul\":4043:4049   */\n      0x00\n        /* \"#utility.yul\":4051:4057   */\n      dup1\n        /* \"#utility.yul\":4059:4065   */\n      0x00\n        /* \"#utility.yul\":4067:4073   */\n      dup1\n        /* \"#utility.yul\":4075:4081   */\n      0x00\n        /* \"#utility.yul\":4128:4131   */\n      0xe0\n        /* \"#utility.yul\":4116:4125   */\n      dup9\n        /* \"#utility.yul\":4107:4114   */\n      dup11\n        /* \"#utility.yul\":4103:4126   */\n      sub\n        /* \"#utility.yul\":4099:4132   */\n      slt\n        /* \"#utility.yul\":4096:4149   */\n      iszero\n      tag_312\n      jumpi\n        /* \"#utility.yul\":4145:4146   */\n      0x00\n        /* \"#utility.yul\":4142:4143   */\n      dup1\n        /* \"#utility.yul\":4135:4147   */\n      revert\n        /* \"#utility.yul\":4096:4149   */\n    tag_312:\n        /* \"#utility.yul\":4168:4197   */\n      tag_313\n        /* \"#utility.yul\":4187:4196   */\n      dup9\n        /* \"#utility.yul\":4168:4197   */\n      tag_279\n      jump\t// in\n    tag_313:\n        /* \"#utility.yul\":4158:4197   */\n      swap7\n      pop\n        /* \"#utility.yul\":4216:4254   */\n      tag_314\n        /* \"#utility.yul\":4250:4252   */\n      0x20\n        /* \"#utility.yul\":4239:4248   */\n      dup10\n        /* \"#utility.yul\":4235:4253   */\n      add\n        /* \"#utility.yul\":4216:4254   */\n      tag_279\n      jump\t// in\n    tag_314:\n        /* \"#utility.yul\":4206:4254   */\n      swap6\n      pop\n        /* \"#utility.yul\":4323:4325   */\n      0x40\n        /* \"#utility.yul\":4308:4326   */\n      dup9\n      add\n        /* \"#utility.yul\":4295:4327   */\n      calldataload\n      swap5\n      pop\n        /* \"#utility.yul\":4424:4426   */\n      0x60\n        /* \"#utility.yul\":4409:4427   */\n      dup9\n      add\n        /* \"#utility.yul\":4396:4428   */\n      calldataload\n      swap4\n      pop\n        /* \"#utility.yul\":4506:4509   */\n      0x80\n        /* \"#utility.yul\":4491:4510   */\n      dup9\n      add\n        /* \"#utility.yul\":4478:4511   */\n      calldataload\n        /* \"#utility.yul\":4555:4559   */\n      0xff\n        /* \"#utility.yul\":4542:4560   */\n      dup2\n      and\n        /* \"#utility.yul\":4530:4561   */\n      dup2\n      eq\n        /* \"#utility.yul\":4520:4579   */\n      tag_315\n      jumpi\n        /* \"#utility.yul\":4575:4576   */\n      0x00\n        /* \"#utility.yul\":4572:4573   */\n      dup1\n        /* \"#utility.yul\":4565:4577   */\n      revert\n        /* \"#utility.yul\":4520:4579   */\n    tag_315:\n        /* \"#utility.yul\":3916:4819   */\n      swap7\n      swap10\n      swap6\n      swap9\n      pop\n      swap4\n      swap7\n      swap3\n      swap6\n        /* \"#utility.yul\":4598:4605   */\n      swap5\n        /* \"#utility.yul\":4678:4681   */\n      0xa0\n        /* \"#utility.yul\":4663:4682   */\n      dup5\n      add\n        /* \"#utility.yul\":4650:4683   */\n      calldataload\n      swap5\n      pop\n        /* \"#utility.yul\":4782:4785   */\n      0xc0\n        /* \"#utility.yul\":4767:4786   */\n      swap1\n      swap4\n      add\n        /* \"#utility.yul\":4754:4787   */\n      calldataload\n      swap3\n        /* \"#utility.yul\":3916:4819   */\n      swap2\n      pop\n      pop\n      jump\t// out\n        /* \"#utility.yul\":4824:5084   */\n    tag_85:\n        /* \"#utility.yul\":4892:4898   */\n      0x00\n        /* \"#utility.yul\":4900:4906   */\n      dup1\n        /* \"#utility.yul\":4953:4955   */\n      0x40\n        /* \"#utility.yul\":4941:4950   */\n      dup4\n        /* \"#utility.yul\":4932:4939   */\n      dup6\n        /* \"#utility.yul\":4928:4951   */\n      sub\n        /* \"#utility.yul\":4924:4956   */\n      slt\n        /* \"#utility.yul\":4921:4973   */\n      iszero\n      tag_317\n      jumpi\n        /* \"#utility.yul\":4969:4970   */\n      0x00\n        /* \"#utility.yul\":4966:4967   */\n      dup1\n        /* \"#utility.yul\":4959:4971   */\n      revert\n        /* \"#utility.yul\":4921:4973   */\n    tag_317:\n        /* \"#utility.yul\":4992:5021   */\n      tag_318\n        /* \"#utility.yul\":5011:5020   */\n      dup4\n        /* \"#utility.yul\":4992:5021   */\n      tag_279\n      jump\t// in\n    tag_318:\n        /* \"#utility.yul\":4982:5021   */\n      swap2\n      pop\n        /* \"#utility.yul\":5040:5078   */\n      tag_319\n        /* \"#utility.yul\":5074:5076   */\n      0x20\n        /* \"#utility.yul\":5063:5072   */\n      dup5\n        /* \"#utility.yul\":5059:5077   */\n      add\n        /* \"#utility.yul\":5040:5078   */\n      tag_279\n      jump\t// in\n    tag_319:\n        /* \"#utility.yul\":5030:5078   */\n      swap1\n      pop\n        /* \"#utility.yul\":4824:5084   */\n      swap3\n      pop\n      swap3\n      swap1\n      pop\n      jump\t// out\n        /* \"#utility.yul\":5089:5469   */\n    tag_90:\n        /* \"#utility.yul\":5168:5169   */\n      0x01\n        /* \"#utility.yul\":5164:5176   */\n      dup2\n      dup2\n      shr\n      swap1\n        /* \"#utility.yul\":5211:5223   */\n      dup3\n      and\n      dup1\n        /* \"#utility.yul\":5232:5293   */\n      tag_321\n      jumpi\n        /* \"#utility.yul\":5286:5290   */\n      0x7f\n        /* \"#utility.yul\":5278:5284   */\n      dup3\n        /* \"#utility.yul\":5274:5291   */\n      and\n        /* \"#utility.yul\":5264:5291   */\n      swap2\n      pop\n        /* \"#utility.yul\":5232:5293   */\n    tag_321:\n        /* \"#utility.yul\":5339:5341   */\n      0x20\n        /* \"#utility.yul\":5331:5337   */\n      dup3\n        /* \"#utility.yul\":5328:5342   */\n      lt\n        /* \"#utility.yul\":5308:5326   */\n      dup2\n        /* \"#utility.yul\":5305:5343   */\n      sub\n        /* \"#utility.yul\":5302:5463   */\n      tag_322\n      jumpi\n        /* \"#utility.yul\":5385:5395   */\n      0x4e487b71\n        /* \"#utility.yul\":5380:5383   */\n      0xe0\n        /* \"#utility.yul\":5376:5396   */\n      shl\n        /* \"#utility.yul\":5373:5374   */\n      0x00\n        /* \"#utility.yul\":5366:5397   */\n      mstore\n        /* \"#utility.yul\":5420:5424   */\n      0x22\n        /* \"#utility.yul\":5417:5418   */\n      0x04\n        /* \"#utility.yul\":5410:5425   */\n      mstore\n        /* \"#utility.yul\":5448:5452   */\n      0x24\n        /* \"#utility.yul\":5445:5446   */\n      0x00\n        /* \"#utility.yul\":5438:5453   */\n      revert\n        /* \"#utility.yul\":5302:5463   */\n    tag_322:\n      pop\n        /* \"#utility.yul\":5089:5469   */\n      swap2\n      swap1\n      pop\n      jump\t// out\n        /* \"#utility.yul\":7958:8085   */\n    tag_236:\n        /* \"#utility.yul\":8019:8029   */\n      0x4e487b71\n        /* \"#utility.yul\":8014:8017   */\n      0xe0\n        /* \"#utility.yul\":8010:8030   */\n      shl\n        /* \"#utility.yul\":8007:8008   */\n      0x00\n        /* \"#utility.yul\":8000:8031   */\n      mstore\n        /* \"#utility.yul\":8050:8054   */\n      0x21\n        /* \"#utility.yul\":8047:8048   */\n      0x04\n        /* \"#utility.yul\":8040:8055   */\n      mstore\n        /* \"#utility.yul\":8074:8078   */\n      0x24\n        /* \"#utility.yul\":8071:8072   */\n      0x00\n        /* \"#utility.yul\":8064:8079   */\n      revert\n        /* \"#utility.yul\":8090:8312   */\n    tag_263:\n        /* \"#utility.yul\":8155:8164   */\n      dup1\n      dup3\n      add\n        /* \"#utility.yul\":8176:8186   */\n      dup1\n      dup3\n      gt\n        /* \"#utility.yul\":8173:8306   */\n      iszero\n      tag_95\n      jumpi\n        /* \"#utility.yul\":8228:8238   */\n      0x4e487b71\n        /* \"#utility.yul\":8223:8226   */\n      0xe0\n        /* \"#utility.yul\":8219:8239   */\n      shl\n        /* \"#utility.yul\":8216:8217   */\n      0x00\n        /* \"#utility.yul\":8209:8240   */\n      mstore\n        /* \"#utility.yul\":8263:8267   */\n      0x11\n        /* \"#utility.yul\":8260:8261   */\n      0x04\n        /* \"#utility.yul\":8253:8268   */\n      mstore\n        /* \"#utility.yul\":8291:8295   */\n      0x24\n        /* \"#utility.yul\":8288:8289   */\n      0x00\n        /* \"#utility.yul\":8281:8296   */\n      revert\n\n    auxdata: 0xa2646970667358221220b1f8dfb20c56cccf1e9f0b7a4013a2e92a5239257f1e1ae53a8743f9c2ee422264736f6c634300081a0033\n}\n",
				"bytecode": {
					"linkReferences": {},
					"object": "61016060405234801561001157600080fd5b5060405161160b38038061160b833981016040819052610030916103ac565b604051806040016040528060098152602001682830b73537a1b7b4b760b91b81525080604051806040016040528060018152602001603160f81b815250604051806040016040528060098152602001682830b73537a1b7b4b760b91b81525060405180604001604052806004815260200163504e4a4360e01b81525081600390816100bb919061047a565b5060046100c8828261047a565b506100d8915083905060056101c2565b610120526100e78160066101c2565b61014052815160208084019190912060e052815190820120610100524660a05261017460e05161010051604080517f8b73c3c69bb8fe3d512ecc4cf759cc79239f7b179b0ffacaa9a75d522b39400f60208201529081019290925260608201524660808201523060a082015260009060c00160405160208183030381529060405280519060200120905090565b60805250503060c052506001600160a01b0381166101a55760405163cfe2ea6360e01b815260040160405180910390fd5b6101bc816c0c9f2c9cd04674edea400000006101f5565b506105cb565b60006020835110156101de576101d783610234565b90506101ef565b816101e9848261047a565b5060ff90505b92915050565b6001600160a01b0382166102245760405163ec442f0560e01b8152600060048201526024015b60405180910390fd5b61023060008383610272565b5050565b600080829050601f8151111561025f578260405163305a27a960e01b815260040161021b9190610538565b805161026a82610586565b179392505050565b61027d838383610282565b505050565b6001600160a01b0383166102ad5780600260008282546102a291906105aa565b9091555061031f9050565b6001600160a01b038316600090815260208190526040902054818110156103005760405163391434e360e21b81526001600160a01b0385166004820152602481018290526044810183905260640161021b565b6001600160a01b03841660009081526020819052604090209082900390555b6001600160a01b03821661033b5760028054829003905561035a565b6001600160a01b03821660009081526020819052604090208054820190555b816001600160a01b0316836001600160a01b03167fddf252ad1be2c89b69c2b068fc378daa952ba7f163c4a11628f55a4df523b3ef8360405161039f91815260200190565b60405180910390a3505050565b6000602082840312156103be57600080fd5b81516001600160a01b03811681146103d557600080fd5b9392505050565b634e487b7160e01b600052604160045260246000fd5b600181811c9082168061040657607f821691505b60208210810361042657634e487b7160e01b600052602260045260246000fd5b50919050565b601f82111561027d57806000526020600020601f840160051c810160208510156104535750805b601f840160051c820191505b81811015610473576000815560010161045f565b5050505050565b81516001600160401b03811115610493576104936103dc565b6104a7816104a184546103f2565b8461042c565b6020601f8211600181146104db57600083156104c35750848201515b600019600385901b1c1916600184901b178455610473565b600084815260208120601f198516915b8281101561050b57878501518255602094850194600190920191016104eb565b50848210156105295786840151600019600387901b60f8161c191681555b50505050600190811b01905550565b602081526000825180602084015260005b818110156105665760208186018101516040868401015201610549565b506000604082850101526040601f19601f83011684010191505092915050565b805160208083015191908110156104265760001960209190910360031b1b16919050565b808201808211156101ef57634e487b7160e01b600052601160045260246000fd5b60805160a05160c05160e051610100516101205161014051610fe661062560003960006107c5015260006107980152600061070a015260006106e20152600061063d01526000610667015260006106910152610fe66000f3fe608060405234801561001057600080fd5b50600436106101005760003560e01c806370a082311161009757806395d89b411161006657806395d89b4114610215578063a9059cbb1461021d578063d505accf14610230578063dd62ed3e1461024357600080fd5b806370a08231146101ab57806379cc6790146101d45780637ecebe00146101e757806384b0196e146101fa57600080fd5b8063313ce567116100d3578063313ce5671461016b57806332cb6b0c1461017a5780633644e5151461018e57806342966c681461019657600080fd5b806306fdde0314610105578063095ea7b31461012357806318160ddd1461014657806323b872dd14610158575b600080fd5b61010d61027c565b60405161011a9190610d30565b60405180910390f35b610136610131366004610d66565b61030e565b604051901515815260200161011a565b6002545b60405190815260200161011a565b610136610166366004610d90565b610328565b6040516012815260200161011a565b61014a6c0c9f2c9cd04674edea4000000081565b61014a61034c565b6101a96101a4366004610dcd565b61035b565b005b61014a6101b9366004610de6565b6001600160a01b031660009081526020819052604090205490565b6101a96101e2366004610d66565b610368565b61014a6101f5366004610de6565b610381565b61020261039f565b60405161011a9796959493929190610e01565b61010d6103e5565b61013661022b366004610d66565b6103f4565b6101a961023e366004610e99565b610402565b61014a610251366004610f0c565b6001600160a01b03918216600090815260016020908152604080832093909416825291909152205490565b60606003805461028b90610f3f565b80601f01602080910402602001604051908101604052809291908181526020018280546102b790610f3f565b80156103045780601f106102d957610100808354040283529160200191610304565b820191906000526020600020905b8154815290600101906020018083116102e757829003601f168201915b5050505050905090565b60003361031c818585610541565b60019150505b92915050565b600033610336858285610553565b6103418585856105d1565b506001949350505050565b6000610356610630565b905090565b610365338261075b565b50565b610373823383610553565b61037d828261075b565b5050565b6001600160a01b038116600090815260076020526040812054610322565b6000606080600080600060606103b3610791565b6103bb6107be565b60408051600080825260208201909252600f60f81b9b939a50919850469750309650945092509050565b60606004805461028b90610f3f565b60003361031c8185856105d1565b8342111561042b5760405163313c898160e11b8152600481018590526024015b60405180910390fd5b60007f6e71edae12b1b97f4d1f60370fef10105fa2faae0126114a169c64845d6126c98888886104788c6001600160a01b0316600090815260076020526040902080546001810190915590565b6040805160208101969096526001600160a01b0394851690860152929091166060840152608083015260a082015260c0810186905260e00160405160208183030381529060405280519060200120905060006104d3826107eb565b905060006104e382878787610818565b9050896001600160a01b0316816001600160a01b03161461052a576040516325c0072360e11b81526001600160a01b0380831660048301528b166024820152604401610422565b6105358a8a8a610541565b50505050505050505050565b61054e8383836001610846565b505050565b6001600160a01b0383811660009081526001602090815260408083209386168352929052205460001981146105cb57818110156105bc57604051637dc7a0d960e11b81526001600160a01b03841660048201526024810182905260448101839052606401610422565b6105cb84848484036000610846565b50505050565b6001600160a01b0383166105fb57604051634b637e8f60e11b815260006004820152602401610422565b6001600160a01b0382166106255760405163ec442f0560e01b815260006004820152602401610422565b61054e83838361091b565b6000306001600160a01b037f00000000000000000000000000000000000000000000000000000000000000001614801561068957507f000000000000000000000000000000000000000000000000000000000000000046145b156106b357507f000000000000000000000000000000000000000000000000000000000000000090565b610356604080517f8b73c3c69bb8fe3d512ecc4cf759cc79239f7b179b0ffacaa9a75d522b39400f60208201527f0000000000000000000000000000000000000000000000000000000000000000918101919091527f000000000000000000000000000000000000000000000000000000000000000060608201524660808201523060a082015260009060c00160405160208183030381529060405280519060200120905090565b6001600160a01b03821661078557604051634b637e8f60e11b815260006004820152602401610422565b61037d8260008361091b565b60606103567f00000000000000000000000000000000000000000000000000000000000000006005610926565b60606103567f00000000000000000000000000000000000000000000000000000000000000006006610926565b60006103226107f8610630565b8360405161190160f01b8152600281019290925260228201526042902090565b60008060008061082a888888886109d1565b92509250925061083a8282610aa0565b50909695505050505050565b6001600160a01b0384166108705760405163e602df0560e01b815260006004820152602401610422565b6001600160a01b03831661089a57604051634a1406b160e11b815260006004820152602401610422565b6001600160a01b03808516600090815260016020908152604080832093871683529290522082905580156105cb57826001600160a01b0316846001600160a01b03167f8c5be1e5ebec7d5bd14f71427d1e84f3dd0314c0f7b2291e5b200ac8c7c3b9258460405161090d91815260200190565b60405180910390a350505050565b61054e838383610b59565b606060ff83146109405761093983610c83565b9050610322565b81805461094c90610f3f565b80601f016020809104026020016040519081016040528092919081815260200182805461097890610f3f565b80156109c55780601f1061099a576101008083540402835291602001916109c5565b820191906000526020600020905b8154815290600101906020018083116109a857829003601f168201915b50505050509050610322565b600080807f7fffffffffffffffffffffffffffffff5d576e7357a4501ddfe92f46681b20a0841115610a0c5750600091506003905082610a96565b604080516000808252602082018084528a905260ff891692820192909252606081018790526080810186905260019060a0016020604051602081039080840390855afa158015610a60573d6000803e3d6000fd5b5050604051601f1901519150506001600160a01b038116610a8c57506000925060019150829050610a96565b9250600091508190505b9450945094915050565b6000826003811115610ab457610ab4610f79565b03610abd575050565b6001826003811115610ad157610ad1610f79565b03610aef5760405163f645eedf60e01b815260040160405180910390fd5b6002826003811115610b0357610b03610f79565b03610b245760405163fce698f760e01b815260048101829052602401610422565b6003826003811115610b3857610b38610f79565b0361037d576040516335e2f38360e21b815260048101829052602401610422565b6001600160a01b038316610b84578060026000828254610b799190610f8f565b90915550610bf69050565b6001600160a01b03831660009081526020819052604090205481811015610bd75760405163391434e360e21b81526001600160a01b03851660048201526024810182905260448101839052606401610422565b6001600160a01b03841660009081526020819052604090209082900390555b6001600160a01b038216610c1257600280548290039055610c31565b6001600160a01b03821660009081526020819052604090208054820190555b816001600160a01b0316836001600160a01b03167fddf252ad1be2c89b69c2b068fc378daa952ba7f163c4a11628f55a4df523b3ef83604051610c7691815260200190565b60405180910390a3505050565b60606000610c9083610cc2565b604080516020808252818301909252919250600091906020820181803683375050509182525060208101929092525090565b600060ff8216601f81111561032257604051632cd44ac360e21b815260040160405180910390fd5b6000815180845260005b81811015610d1057602081850181015186830182015201610cf4565b506000602082860101526020601f19601f83011685010191505092915050565b602081526000610d436020830184610cea565b9392505050565b80356001600160a01b0381168114610d6157600080fd5b919050565b60008060408385031215610d7957600080fd5b610d8283610d4a565b946020939093013593505050565b600080600060608486031215610da557600080fd5b610dae84610d4a565b9250610dbc60208501610d4a565b929592945050506040919091013590565b600060208284031215610ddf57600080fd5b5035919050565b600060208284031215610df857600080fd5b610d4382610d4a565b60ff60f81b8816815260e060208201526000610e2060e0830189610cea565b8281036040840152610e328189610cea565b606084018890526001600160a01b038716608085015260a0840186905283810360c08501528451808252602080870193509091019060005b81811015610e88578351835260209384019390920191600101610e6a565b50909b9a5050505050505050505050565b600080600080600080600060e0888a031215610eb457600080fd5b610ebd88610d4a565b9650610ecb60208901610d4a565b95506040880135945060608801359350608088013560ff81168114610eef57600080fd5b9699959850939692959460a0840135945060c09093013592915050565b60008060408385031215610f1f57600080fd5b610f2883610d4a565b9150610f3660208401610d4a565b90509250929050565b600181811c90821680610f5357607f821691505b602082108103610f7357634e487b7160e01b600052602260045260246000fd5b50919050565b634e487b7160e01b600052602160045260246000fd5b8082018082111561032257634e487b7160e01b600052601160045260246000fdfea2646970667358221220b1f8dfb20c56cccf1e9f0b7a4013a2e92a5239257f1e1ae53a8743f9c2ee422264736f6c634300081a0033",
					"opcodes": "PUSH2 0x160 PUSH1 0x40 MSTORE CALLVALUE DUP1 ISZERO PUSH2 0x11 JUMPI PUSH1 0x0 DUP1 REVERT JUMPDEST POP PUSH1 0x40 MLOAD PUSH2 0x160B CODESIZE SUB DUP1 PUSH2 0x160B DUP4 CODECOPY DUP2 ADD PUSH1 0x40 DUP2 SWAP1 MSTORE PUSH2 0x30 SWAP2 PUSH2 0x3AC JUMP JUMPDEST PUSH1 0x40 MLOAD DUP1 PUSH1 0x40 ADD PUSH1 0x40 MSTORE DUP1 PUSH1 0x9 DUP2 MSTORE PUSH1 0x20 ADD PUSH9 0x2830B73537A1B7B4B7 PUSH1 0xB9 SHL DUP2 MSTORE POP DUP1 PUSH1 0x40 MLOAD DUP1 PUSH1 0x40 ADD PUSH1 0x40 MSTORE DUP1 PUSH1 0x1 DUP2 MSTORE PUSH1 0x20 ADD PUSH1 0x31 PUSH1 0xF8 SHL DUP2 MSTORE POP PUSH1 0x40 MLOAD DUP1 PUSH1 0x40 ADD PUSH1 0x40 MSTORE DUP1 PUSH1 0x9 DUP2 MSTORE PUSH1 0x20 ADD PUSH9 0x2830B73537A1B7B4B7 PUSH1 0xB9 SHL DUP2 MSTORE POP PUSH1 0x40 MLOAD DUP1 PUSH1 0x40 ADD PUSH1 0x40 MSTORE DUP1 PUSH1 0x4 DUP2 MSTORE PUSH1 0x20 ADD PUSH4 0x504E4A43 PUSH1 0xE0 SHL DUP2 MSTORE POP DUP2 PUSH1 0x3 SWAP1 DUP2 PUSH2 0xBB SWAP2 SWAP1 PUSH2 0x47A JUMP JUMPDEST POP PUSH1 0x4 PUSH2 0xC8 DUP3 DUP3 PUSH2 0x47A JUMP JUMPDEST POP PUSH2 0xD8 SWAP2 POP DUP4 SWAP1 POP PUSH1 0x5 PUSH2 0x1C2 JUMP JUMPDEST PUSH2 0x120 MSTORE PUSH2 0xE7 DUP2 PUSH1 0x6 PUSH2 0x1C2 JUMP JUMPDEST PUSH2 0x140 MSTORE DUP2 MLOAD PUSH1 0x20 DUP1 DUP5 ADD SWAP2 SWAP1 SWAP2 KECCAK256 PUSH1 0xE0 MSTORE DUP2 MLOAD SWAP1 DUP3 ADD KECCAK256 PUSH2 0x100 MSTORE CHAINID PUSH1 0xA0 MSTORE PUSH2 0x174 PUSH1 0xE0 MLOAD PUSH2 0x100 MLOAD PUSH1 0x40 DUP1 MLOAD PUSH32 0x8B73C3C69BB8FE3D512ECC4CF759CC79239F7B179B0FFACAA9A75D522B39400F PUSH1 0x20 DUP3 ADD MSTORE SWAP1 DUP2 ADD SWAP3 SWAP1 SWAP3 MSTORE PUSH1 0x60 DUP3 ADD MSTORE CHAINID PUSH1 0x80 DUP3 ADD MSTORE ADDRESS PUSH1 0xA0 DUP3 ADD MSTORE PUSH1 0x0 SWAP1 PUSH1 0xC0 ADD PUSH1 0x40 MLOAD PUSH1 0x20 DUP2 DUP4 SUB SUB DUP2 MSTORE SWAP1 PUSH1 0x40 MSTORE DUP1 MLOAD SWAP1 PUSH1 0x20 ADD KECCAK256 SWAP1 POP SWAP1 JUMP JUMPDEST PUSH1 0x80 MSTORE POP POP ADDRESS PUSH1 0xC0 MSTORE POP PUSH1 0x1 PUSH1 0x1 PUSH1 0xA0 SHL SUB DUP2 AND PUSH2 0x1A5 JUMPI PUSH1 0x40 MLOAD PUSH4 0xCFE2EA63 PUSH1 0xE0 SHL DUP2 MSTORE PUSH1 0x4 ADD PUSH1 0x40 MLOAD DUP1 SWAP2 SUB SWAP1 REVERT JUMPDEST PUSH2 0x1BC DUP2 PUSH13 0xC9F2C9CD04674EDEA40000000 PUSH2 0x1F5 JUMP JUMPDEST POP PUSH2 0x5CB JUMP JUMPDEST PUSH1 0x0 PUSH1 0x20 DUP4 MLOAD LT ISZERO PUSH2 0x1DE JUMPI PUSH2 0x1D7 DUP4 PUSH2 0x234 JUMP JUMPDEST SWAP1 POP PUSH2 0x1EF JUMP JUMPDEST DUP2 PUSH2 0x1E9 DUP5 DUP3 PUSH2 0x47A JUMP JUMPDEST POP PUSH1 0xFF SWAP1 POP JUMPDEST SWAP3 SWAP2 POP POP JUMP JUMPDEST PUSH1 0x1 PUSH1 0x1 PUSH1 0xA0 SHL SUB DUP3 AND PUSH2 0x224 JUMPI PUSH1 0x40 MLOAD PUSH4 0xEC442F05 PUSH1 0xE0 SHL DUP2 MSTORE PUSH1 0x0 PUSH1 0x4 DUP3 ADD MSTORE PUSH1 0x24 ADD JUMPDEST PUSH1 0x40 MLOAD DUP1 SWAP2 SUB SWAP1 REVERT JUMPDEST PUSH2 0x230 PUSH1 0x0 DUP4 DUP4 PUSH2 0x272 JUMP JUMPDEST POP POP JUMP JUMPDEST PUSH1 0x0 DUP1 DUP3 SWAP1 POP PUSH1 0x1F DUP2 MLOAD GT ISZERO PUSH2 0x25F JUMPI DUP3 PUSH1 0x40 MLOAD PUSH4 0x305A27A9 PUSH1 0xE0 SHL DUP2 MSTORE PUSH1 0x4 ADD PUSH2 0x21B SWAP2 SWAP1 PUSH2 0x538 JUMP JUMPDEST DUP1 MLOAD PUSH2 0x26A DUP3 PUSH2 0x586 JUMP JUMPDEST OR SWAP4 SWAP3 POP POP POP JUMP JUMPDEST PUSH2 0x27D DUP4 DUP4 DUP4 PUSH2 0x282 JUMP JUMPDEST POP POP POP JUMP JUMPDEST PUSH1 0x1 PUSH1 0x1 PUSH1 0xA0 SHL SUB DUP4 AND PUSH2 0x2AD JUMPI DUP1 PUSH1 0x2 PUSH1 0x0 DUP3 DUP3 SLOAD PUSH2 0x2A2 SWAP2 SWAP1 PUSH2 0x5AA JUMP JUMPDEST SWAP1 SWAP2 SSTORE POP PUSH2 0x31F SWAP1 POP JUMP JUMPDEST PUSH1 0x1 PUSH1 0x1 PUSH1 0xA0 SHL SUB DUP4 AND PUSH1 0x0 SWAP1 DUP2 MSTORE PUSH1 0x20 DUP2 SWAP1 MSTORE PUSH1 0x40 SWAP1 KECCAK256 SLOAD DUP2 DUP2 LT ISZERO PUSH2 0x300 JUMPI PUSH1 0x40 MLOAD PUSH4 0x391434E3 PUSH1 0xE2 SHL DUP2 MSTORE PUSH1 0x1 PUSH1 0x1 PUSH1 0xA0 SHL SUB DUP6 AND PUSH1 0x4 DUP3 ADD MSTORE PUSH1 0x24 DUP2 ADD DUP3 SWAP1 MSTORE PUSH1 0x44 DUP2 ADD DUP4 SWAP1 MSTORE PUSH1 0x64 ADD PUSH2 0x21B JUMP JUMPDEST PUSH1 0x1 PUSH1 0x1 PUSH1 0xA0 SHL SUB DUP5 AND PUSH1 0x0 SWAP1 DUP2 MSTORE PUSH1 0x20 DUP2 SWAP1 MSTORE PUSH1 0x40 SWAP1 KECCAK256 SWAP1 DUP3 SWAP1 SUB SWAP1 SSTORE JUMPDEST PUSH1 0x1 PUSH1 0x1 PUSH1 0xA0 SHL SUB DUP3 AND PUSH2 0x33B JUMPI PUSH1 0x2 DUP1 SLOAD DUP3 SWAP1 SUB SWAP1 SSTORE PUSH2 0x35A JUMP JUMPDEST PUSH1 0x1 PUSH1 0x1 PUSH1 0xA0 SHL SUB DUP3 AND PUSH1 0x0 SWAP1 DUP2 MSTORE PUSH1 0x20 DUP2 SWAP1 MSTORE PUSH1 0x40 SWAP1 KECCAK256 DUP1 SLOAD DUP3 ADD SWAP1 SSTORE JUMPDEST DUP2 PUSH1 0x1 PUSH1 0x1 PUSH1 0xA0 SHL SUB AND DUP4 PUSH1 0x1 PUSH1 0x1 PUSH1 0xA0 SHL SUB AND PUSH32 0xDDF252AD1BE2C89B69C2B068FC378DAA952BA7F163C4A11628F55A4DF523B3EF DUP4 PUSH1 0x40 MLOAD PUSH2 0x39F SWAP2 DUP2 MSTORE PUSH1 0x20 ADD SWAP1 JUMP JUMPDEST PUSH1 0x40 MLOAD DUP1 SWAP2 SUB SWAP1 LOG3 POP POP POP JUMP JUMPDEST PUSH1 0x0 PUSH1 0x20 DUP3 DUP5 SUB SLT ISZERO PUSH2 0x3BE JUMPI PUSH1 0x0 DUP1 REVERT JUMPDEST DUP2 MLOAD PUSH1 0x1 PUSH1 0x1 PUSH1 0xA0 SHL SUB DUP2 AND DUP2 EQ PUSH2 0x3D5 JUMPI PUSH1 0x0 DUP1 REVERT JUMPDEST SWAP4 SWAP3 POP POP POP JUMP JUMPDEST PUSH4 0x4E487B71 PUSH1 0xE0 SHL PUSH1 0x0 MSTORE PUSH1 0x41 PUSH1 0x4 MSTORE PUSH1 0x24 PUSH1 0x0 REVERT JUMPDEST PUSH1 0x1 DUP2 DUP2 SHR SWAP1 DUP3 AND DUP1 PUSH2 0x406 JUMPI PUSH1 0x7F DUP3 AND SWAP2 POP JUMPDEST PUSH1 0x20 DUP3 LT DUP2 SUB PUSH2 0x426 JUMPI PUSH4 0x4E487B71 PUSH1 0xE0 SHL PUSH1 0x0 MSTORE PUSH1 0x22 PUSH1 0x4 MSTORE PUSH1 0x24 PUSH1 0x0 REVERT JUMPDEST POP SWAP2 SWAP1 POP JUMP JUMPDEST PUSH1 0x1F DUP3 GT ISZERO PUSH2 0x27D JUMPI DUP1 PUSH1 0x0 MSTORE PUSH1 0x20 PUSH1 0x0 KECCAK256 PUSH1 0x1F DUP5 ADD PUSH1 0x5 SHR DUP2 ADD PUSH1 0x20 DUP6 LT ISZERO PUSH2 0x453 JUMPI POP DUP1 JUMPDEST PUSH1 0x1F DUP5 ADD PUSH1 0x5 SHR DUP3 ADD SWAP2 POP JUMPDEST DUP2 DUP2 LT ISZERO PUSH2 0x473 JUMPI PUSH1 0x0 DUP2 SSTORE PUSH1 0x1 ADD PUSH2 0x45F JUMP JUMPDEST POP POP POP POP POP JUMP JUMPDEST DUP2 MLOAD PUSH1 0x1 PUSH1 0x1 PUSH1 0x40 SHL SUB DUP2 GT ISZERO PUSH2 0x493 JUMPI PUSH2 0x493 PUSH2 0x3DC JUMP JUMPDEST PUSH2 0x4A7 DUP2 PUSH2 0x4A1 DUP5 SLOAD PUSH2 0x3F2 JUMP JUMPDEST DUP5 PUSH2 0x42C JUMP JUMPDEST PUSH1 0x20 PUSH1 0x1F DUP3 GT PUSH1 0x1 DUP2 EQ PUSH2 0x4DB JUMPI PUSH1 0x0 DUP4 ISZERO PUSH2 0x4C3 JUMPI POP DUP5 DUP3 ADD MLOAD JUMPDEST PUSH1 0x0 NOT PUSH1 0x3 DUP6 SWAP1 SHL SHR NOT AND PUSH1 0x1 DUP5 SWAP1 SHL OR DUP5 SSTORE PUSH2 0x473 JUMP JUMPDEST PUSH1 0x0 DUP5 DUP2 MSTORE PUSH1 0x20 DUP2 KECCAK256 PUSH1 0x1F NOT DUP6 AND SWAP2 JUMPDEST DUP3 DUP2 LT ISZERO PUSH2 0x50B JUMPI DUP8 DUP6 ADD MLOAD DUP3 SSTORE PUSH1 0x20 SWAP5 DUP6 ADD SWAP5 PUSH1 0x1 SWAP1 SWAP3 ADD SWAP2 ADD PUSH2 0x4EB JUMP JUMPDEST POP DUP5 DUP3 LT ISZERO PUSH2 0x529 JUMPI DUP7 DUP5 ADD MLOAD PUSH1 0x0 NOT PUSH1 0x3 DUP8 SWAP1 SHL PUSH1 0xF8 AND SHR NOT AND DUP2 SSTORE JUMPDEST POP POP POP POP PUSH1 0x1 SWAP1 DUP2 SHL ADD SWAP1 SSTORE POP JUMP JUMPDEST PUSH1 0x20 DUP2 MSTORE PUSH1 0x0 DUP3 MLOAD DUP1 PUSH1 0x20 DUP5 ADD MSTORE PUSH1 0x0 JUMPDEST DUP2 DUP2 LT ISZERO PUSH2 0x566 JUMPI PUSH1 0x20 DUP2 DUP7 ADD DUP2 ADD MLOAD PUSH1 0x40 DUP7 DUP5 ADD ADD MSTORE ADD PUSH2 0x549 JUMP JUMPDEST POP PUSH1 0x0 PUSH1 0x40 DUP3 DUP6 ADD ADD MSTORE PUSH1 0x40 PUSH1 0x1F NOT PUSH1 0x1F DUP4 ADD AND DUP5 ADD ADD SWAP2 POP POP SWAP3 SWAP2 POP POP JUMP JUMPDEST DUP1 MLOAD PUSH1 0x20 DUP1 DUP4 ADD MLOAD SWAP2 SWAP1 DUP2 LT ISZERO PUSH2 0x426 JUMPI PUSH1 0x0 NOT PUSH1 0x20 SWAP2 SWAP1 SWAP2 SUB PUSH1 0x3 SHL SHL AND SWAP2 SWAP1 POP JUMP JUMPDEST DUP1 DUP3 ADD DUP1 DUP3 GT ISZERO PUSH2 0x1EF JUMPI PUSH4 0x4E487B71 PUSH1 0xE0 SHL PUSH1 0x0 MSTORE PUSH1 0x11 PUSH1 0x4 MSTORE PUSH1 0x24 PUSH1 0x0 REVERT JUMPDEST PUSH1 0x80 MLOAD PUSH1 0xA0 MLOAD PUSH1 0xC0 MLOAD PUSH1 0xE0 MLOAD PUSH2 0x100 MLOAD PUSH2 0x120 MLOAD PUSH2 0x140 MLOAD PUSH2 0xFE6 PUSH2 0x625 PUSH1 0x0 CODECOPY PUSH1 0x0 PUSH2 0x7C5 ADD MSTORE PUSH1 0x0 PUSH2 0x798 ADD MSTORE PUSH1 0x0 PUSH2 0x70A ADD MSTORE PUSH1 0x0 PUSH2 0x6E2 ADD MSTORE PUSH1 0x0 PUSH2 0x63D ADD MSTORE PUSH1 0x0 PUSH2 0x667 ADD MSTORE PUSH1 0x0 PUSH2 0x691 ADD MSTORE PUSH2 0xFE6 PUSH1 0x0 RETURN INVALID PUSH1 0x80 PUSH1 0x40 MSTORE CALLVALUE DUP1 ISZERO PUSH2 0x10 JUMPI PUSH1 0x0 DUP1 REVERT JUMPDEST POP PUSH1 0x4 CALLDATASIZE LT PUSH2 0x100 JUMPI PUSH1 0x0 CALLDATALOAD PUSH1 0xE0 SHR DUP1 PUSH4 0x70A08231 GT PUSH2 0x97 JUMPI DUP1 PUSH4 0x95D89B41 GT PUSH2 0x66 JUMPI DUP1 PUSH4 0x95D89B41 EQ PUSH2 0x215 JUMPI DUP1 PUSH4 0xA9059CBB EQ PUSH2 0x21D JUMPI DUP1 PUSH4 0xD505ACCF EQ PUSH2 0x230 JUMPI DUP1 PUSH4 0xDD62ED3E EQ PUSH2 0x243 JUMPI PUSH1 0x0 DUP1 REVERT JUMPDEST DUP1 PUSH4 0x70A08231 EQ PUSH2 0x1AB JUMPI DUP1 PUSH4 0x79CC6790 EQ PUSH2 0x1D4 JUMPI DUP1 PUSH4 0x7ECEBE00 EQ PUSH2 0x1E7 JUMPI DUP1 PUSH4 0x84B0196E EQ PUSH2 0x1FA JUMPI PUSH1 0x0 DUP1 REVERT JUMPDEST DUP1 PUSH4 0x313CE567 GT PUSH2 0xD3 JUMPI DUP1 PUSH4 0x313CE567 EQ PUSH2 0x16B JUMPI DUP1 PUSH4 0x32CB6B0C EQ PUSH2 0x17A JUMPI DUP1 PUSH4 0x3644E515 EQ PUSH2 0x18E JUMPI DUP1 PUSH4 0x42966C68 EQ PUSH2 0x196 JUMPI PUSH1 0x0 DUP1 REVERT JUMPDEST DUP1 PUSH4 0x6FDDE03 EQ PUSH2 0x105 JUMPI DUP1 PUSH4 0x95EA7B3 EQ PUSH2 0x123 JUMPI DUP1 PUSH4 0x18160DDD EQ PUSH2 0x146 JUMPI DUP1 PUSH4 0x23B872DD EQ PUSH2 0x158 JUMPI JUMPDEST PUSH1 0x0 DUP1 REVERT JUMPDEST PUSH2 0x10D PUSH2 0x27C JUMP JUMPDEST PUSH1 0x40 MLOAD PUSH2 0x11A SWAP2 SWAP1 PUSH2 0xD30 JUMP JUMPDEST PUSH1 0x40 MLOAD DUP1 SWAP2 SUB SWAP1 RETURN JUMPDEST PUSH2 0x136 PUSH2 0x131 CALLDATASIZE PUSH1 0x4 PUSH2 0xD66 JUMP JUMPDEST PUSH2 0x30E JUMP JUMPDEST PUSH1 0x40 MLOAD SWAP1 ISZERO ISZERO DUP2 MSTORE PUSH1 0x20 ADD PUSH2 0x11A JUMP JUMPDEST PUSH1 0x2 SLOAD JUMPDEST PUSH1 0x40 MLOAD SWAP1 DUP2 MSTORE PUSH1 0x20 ADD PUSH2 0x11A JUMP JUMPDEST PUSH2 0x136 PUSH2 0x166 CALLDATASIZE PUSH1 0x4 PUSH2 0xD90 JUMP JUMPDEST PUSH2 0x328 JUMP JUMPDEST PUSH1 0x40 MLOAD PUSH1 0x12 DUP2 MSTORE PUSH1 0x20 ADD PUSH2 0x11A JUMP JUMPDEST PUSH2 0x14A PUSH13 0xC9F2C9CD04674EDEA40000000 DUP2 JUMP JUMPDEST PUSH2 0x14A PUSH2 0x34C JUMP JUMPDEST PUSH2 0x1A9 PUSH2 0x1A4 CALLDATASIZE PUSH1 0x4 PUSH2 0xDCD JUMP JUMPDEST PUSH2 0x35B JUMP JUMPDEST STOP JUMPDEST PUSH2 0x14A PUSH2 0x1B9 CALLDATASIZE PUSH1 0x4 PUSH2 0xDE6 JUMP JUMPDEST PUSH1 0x1 PUSH1 0x1 PUSH1 0xA0 SHL SUB AND PUSH1 0x0 SWAP1 DUP2 MSTORE PUSH1 0x20 DUP2 SWAP1 MSTORE PUSH1 0x40 SWAP1 KECCAK256 SLOAD SWAP1 JUMP JUMPDEST PUSH2 0x1A9 PUSH2 0x1E2 CALLDATASIZE PUSH1 0x4 PUSH2 0xD66 JUMP JUMPDEST PUSH2 0x368 JUMP JUMPDEST PUSH2 0x14A PUSH2 0x1F5 CALLDATASIZE PUSH1 0x4 PUSH2 0xDE6 JUMP JUMPDEST PUSH2 0x381 JUMP JUMPDEST PUSH2 0x202 PUSH2 0x39F JUMP JUMPDEST PUSH1 0x40 MLOAD PUSH2 0x11A SWAP8 SWAP7 SWAP6 SWAP5 SWAP4 SWAP3 SWAP2 SWAP1 PUSH2 0xE01 JUMP JUMPDEST PUSH2 0x10D PUSH2 0x3E5 JUMP JUMPDEST PUSH2 0x136 PUSH2 0x22B CALLDATASIZE PUSH1 0x4 PUSH2 0xD66 JUMP JUMPDEST PUSH2 0x3F4 JUMP JUMPDEST PUSH2 0x1A9 PUSH2 0x23E CALLDATASIZE PUSH1 0x4 PUSH2 0xE99 JUMP JUMPDEST PUSH2 0x402 JUMP JUMPDEST PUSH2 0x14A PUSH2 0x251 CALLDATASIZE PUSH1 0x4 PUSH2 0xF0C JUMP JUMPDEST PUSH1 0x1 PUSH1 0x1 PUSH1 0xA0 SHL SUB SWAP2 DUP3 AND PUSH1 0x0 SWAP1 DUP2 MSTORE PUSH1 0x1 PUSH1 0x20 SWAP1 DUP2 MSTORE PUSH1 0x40 DUP1 DUP4 KECCAK256 SWAP4 SWAP1 SWAP5 AND DUP3 MSTORE SWAP2 SWAP1 SWAP2 MSTORE KECCAK256 SLOAD SWAP1 JUMP JUMPDEST PUSH1 0x60 PUSH1 0x3 DUP1 SLOAD PUSH2 0x28B SWAP1 PUSH2 0xF3F JUMP JUMPDEST DUP1 PUSH1 0x1F ADD PUSH1 0x20 DUP1 SWAP2 DIV MUL PUSH1 0x20 ADD PUSH1 0x40 MLOAD SWAP1 DUP2 ADD PUSH1 0x40 MSTORE DUP1 SWAP3 SWAP2 SWAP1 DUP2 DUP2 MSTORE PUSH1 0x20 ADD DUP3 DUP1 SLOAD PUSH2 0x2B7 SWAP1 PUSH2 0xF3F JUMP JUMPDEST DUP1 ISZERO PUSH2 0x304 JUMPI DUP1 PUSH1 0x1F LT PUSH2 0x2D9 JUMPI PUSH2 0x100 DUP1 DUP4 SLOAD DIV MUL DUP4 MSTORE SWAP2 PUSH1 0x20 ADD SWAP2 PUSH2 0x304 JUMP JUMPDEST DUP3 ADD SWAP2 SWAP1 PUSH1 0x0 MSTORE PUSH1 0x20 PUSH1 0x0 KECCAK256 SWAP1 JUMPDEST DUP2 SLOAD DUP2 MSTORE SWAP1 PUSH1 0x1 ADD SWAP1 PUSH1 0x20 ADD DUP1 DUP4 GT PUSH2 0x2E7 JUMPI DUP3 SWAP1 SUB PUSH1 0x1F AND DUP3 ADD SWAP2 JUMPDEST POP POP POP POP POP SWAP1 POP SWAP1 JUMP JUMPDEST PUSH1 0x0 CALLER PUSH2 0x31C DUP2 DUP6 DUP6 PUSH2 0x541 JUMP JUMPDEST PUSH1 0x1 SWAP2 POP POP JUMPDEST SWAP3 SWAP2 POP POP JUMP JUMPDEST PUSH1 0x0 CALLER PUSH2 0x336 DUP6 DUP3 DUP6 PUSH2 0x553 JUMP JUMPDEST PUSH2 0x341 DUP6 DUP6 DUP6 PUSH2 0x5D1 JUMP JUMPDEST POP PUSH1 0x1 SWAP5 SWAP4 POP POP POP POP JUMP JUMPDEST PUSH1 0x0 PUSH2 0x356 PUSH2 0x630 JUMP JUMPDEST SWAP1 POP SWAP1 JUMP JUMPDEST PUSH2 0x365 CALLER DUP3 PUSH2 0x75B JUMP JUMPDEST POP JUMP JUMPDEST PUSH2 0x373 DUP3 CALLER DUP4 PUSH2 0x553 JUMP JUMPDEST PUSH2 0x37D DUP3 DUP3 PUSH2 0x75B JUMP JUMPDEST POP POP JUMP JUMPDEST PUSH1 0x1 PUSH1 0x1 PUSH1 0xA0 SHL SUB DUP2 AND PUSH1 0x0 SWAP1 DUP2 MSTORE PUSH1 0x7 PUSH1 0x20 MSTORE PUSH1 0x40 DUP2 KECCAK256 SLOAD PUSH2 0x322 JUMP JUMPDEST PUSH1 0x0 PUSH1 0x60 DUP1 PUSH1 0x0 DUP1 PUSH1 0x0 PUSH1 0x60 PUSH2 0x3B3 PUSH2 0x791 JUMP JUMPDEST PUSH2 0x3BB PUSH2 0x7BE JUMP JUMPDEST PUSH1 0x40 DUP1 MLOAD PUSH1 0x0 DUP1 DUP3 MSTORE PUSH1 0x20 DUP3 ADD SWAP1 SWAP3 MSTORE PUSH1 0xF PUSH1 0xF8 SHL SWAP12 SWAP4 SWAP11 POP SWAP2 SWAP9 POP CHAINID SWAP8 POP ADDRESS SWAP7 POP SWAP5 POP SWAP3 POP SWAP1 POP JUMP JUMPDEST PUSH1 0x60 PUSH1 0x4 DUP1 SLOAD PUSH2 0x28B SWAP1 PUSH2 0xF3F JUMP JUMPDEST PUSH1 0x0 CALLER PUSH2 0x31C DUP2 DUP6 DUP6 PUSH2 0x5D1 JUMP JUMPDEST DUP4 TIMESTAMP GT ISZERO PUSH2 0x42B JUMPI PUSH1 0x40 MLOAD PUSH4 0x313C8981 PUSH1 0xE1 SHL DUP2 MSTORE PUSH1 0x4 DUP2 ADD DUP6 SWAP1 MSTORE PUSH1 0x24 ADD JUMPDEST PUSH1 0x40 MLOAD DUP1 SWAP2 SUB SWAP1 REVERT JUMPDEST PUSH1 0x0 PUSH32 0x6E71EDAE12B1B97F4D1F60370FEF10105FA2FAAE0126114A169C64845D6126C9 DUP9 DUP9 DUP9 PUSH2 0x478 DUP13 PUSH1 0x1 PUSH1 0x1 PUSH1 0xA0 SHL SUB AND PUSH1 0x0 SWAP1 DUP2 MSTORE PUSH1 0x7 PUSH1 0x20 MSTORE PUSH1 0x40 SWAP1 KECCAK256 DUP1 SLOAD PUSH1 0x1 DUP2 ADD SWAP1 SWAP2 SSTORE SWAP1 JUMP JUMPDEST PUSH1 0x40 DUP1 MLOAD PUSH1 0x20 DUP2 ADD SWAP7 SWAP1 SWAP7 MSTORE PUSH1 0x1 PUSH1 0x1 PUSH1 0xA0 SHL SUB SWAP5 DUP6 AND SWAP1 DUP7 ADD MSTORE SWAP3 SWAP1 SWAP2 AND PUSH1 0x60 DUP5 ADD MSTORE PUSH1 0x80 DUP4 ADD MSTORE PUSH1 0xA0 DUP3 ADD MSTORE PUSH1 0xC0 DUP2 ADD DUP7 SWAP1 MSTORE PUSH1 0xE0 ADD PUSH1 0x40 MLOAD PUSH1 0x20 DUP2 DUP4 SUB SUB DUP2 MSTORE SWAP1 PUSH1 0x40 MSTORE DUP1 MLOAD SWAP1 PUSH1 0x20 ADD KECCAK256 SWAP1 POP PUSH1 0x0 PUSH2 0x4D3 DUP3 PUSH2 0x7EB JUMP JUMPDEST SWAP1 POP PUSH1 0x0 PUSH2 0x4E3 DUP3 DUP8 DUP8 DUP8 PUSH2 0x818 JUMP JUMPDEST SWAP1 POP DUP10 PUSH1 0x1 PUSH1 0x1 PUSH1 0xA0 SHL SUB AND DUP2 PUSH1 0x1 PUSH1 0x1 PUSH1 0xA0 SHL SUB AND EQ PUSH2 0x52A JUMPI PUSH1 0x40 MLOAD PUSH4 0x25C00723 PUSH1 0xE1 SHL DUP2 MSTORE PUSH1 0x1 PUSH1 0x1 PUSH1 0xA0 SHL SUB DUP1 DUP4 AND PUSH1 0x4 DUP4 ADD MSTORE DUP12 AND PUSH1 0x24 DUP3 ADD MSTORE PUSH1 0x44 ADD PUSH2 0x422 JUMP JUMPDEST PUSH2 0x535 DUP11 DUP11 DUP11 PUSH2 0x541 JUMP JUMPDEST POP POP POP POP POP POP POP POP POP POP JUMP JUMPDEST PUSH2 0x54E DUP4 DUP4 DUP4 PUSH1 0x1 PUSH2 0x846 JUMP JUMPDEST POP POP POP JUMP JUMPDEST PUSH1 0x1 PUSH1 0x1 PUSH1 0xA0 SHL SUB DUP4 DUP2 AND PUSH1 0x0 SWAP1 DUP2 MSTORE PUSH1 0x1 PUSH1 0x20 SWAP1 DUP2 MSTORE PUSH1 0x40 DUP1 DUP4 KECCAK256 SWAP4 DUP7 AND DUP4 MSTORE SWAP3 SWAP1 MSTORE KECCAK256 SLOAD PUSH1 0x0 NOT DUP2 EQ PUSH2 0x5CB JUMPI DUP2 DUP2 LT ISZERO PUSH2 0x5BC JUMPI PUSH1 0x40 MLOAD PUSH4 0x7DC7A0D9 PUSH1 0xE1 SHL DUP2 MSTORE PUSH1 0x1 PUSH1 0x1 PUSH1 0xA0 SHL SUB DUP5 AND PUSH1 0x4 DUP3 ADD MSTORE PUSH1 0x24 DUP2 ADD DUP3 SWAP1 MSTORE PUSH1 0x44 DUP2 ADD DUP4 SWAP1 MSTORE PUSH1 0x64 ADD PUSH2 0x422 JUMP JUMPDEST PUSH2 0x5CB DUP5 DUP5 DUP5 DUP5 SUB PUSH1 0x0 PUSH2 0x846 JUMP JUMPDEST POP POP POP POP JUMP JUMPDEST PUSH1 0x1 PUSH1 0x1 PUSH1 0xA0 SHL SUB DUP4 AND PUSH2 0x5FB JUMPI PUSH1 0x40 MLOAD PUSH4 0x4B637E8F PUSH1 0xE1 SHL DUP2 MSTORE PUSH1 0x0 PUSH1 0x4 DUP3 ADD MSTORE PUSH1 0x24 ADD PUSH2 0x422 JUMP JUMPDEST PUSH1 0x1 PUSH1 0x1 PUSH1 0xA0 SHL SUB DUP3 AND PUSH2 0x625 JUMPI PUSH1 0x40 MLOAD PUSH4 0xEC442F05 PUSH1 0xE0 SHL DUP2 MSTORE PUSH1 0x0 PUSH1 0x4 DUP3 ADD MSTORE PUSH1 0x24 ADD PUSH2 0x422 JUMP JUMPDEST PUSH2 0x54E DUP4 DUP4 DUP4 PUSH2 0x91B JUMP JUMPDEST PUSH1 0x0 ADDRESS PUSH1 0x1 PUSH1 0x1 PUSH1 0xA0 SHL SUB PUSH32 0x0 AND EQ DUP1 ISZERO PUSH2 0x689 JUMPI POP PUSH32 0x0 CHAINID EQ JUMPDEST ISZERO PUSH2 0x6B3 JUMPI POP PUSH32 0x0 SWAP1 JUMP JUMPDEST PUSH2 0x356 PUSH1 0x40 DUP1 MLOAD PUSH32 0x8B73C3C69BB8FE3D512ECC4CF759CC79239F7B179B0FFACAA9A75D522B39400F PUSH1 0x20 DUP3 ADD MSTORE PUSH32 0x0 SWAP2 DUP2 ADD SWAP2 SWAP1 SWAP2 MSTORE PUSH32 0x0 PUSH1 0x60 DUP3 ADD MSTORE CHAINID PUSH1 0x80 DUP3 ADD MSTORE ADDRESS PUSH1 0xA0 DUP3 ADD MSTORE PUSH1 0x0 SWAP1 PUSH1 0xC0 ADD PUSH1 0x40 MLOAD PUSH1 0x20 DUP2 DUP4 SUB SUB DUP2 MSTORE SWAP1 PUSH1 0x40 MSTORE DUP1 MLOAD SWAP1 PUSH1 0x20 ADD KECCAK256 SWAP1 POP SWAP1 JUMP JUMPDEST PUSH1 0x1 PUSH1 0x1 PUSH1 0xA0 SHL SUB DUP3 AND PUSH2 0x785 JUMPI PUSH1 0x40 MLOAD PUSH4 0x4B637E8F PUSH1 0xE1 SHL DUP2 MSTORE PUSH1 0x0 PUSH1 0x4 DUP3 ADD MSTORE PUSH1 0x24 ADD PUSH2 0x422 JUMP JUMPDEST PUSH2 0x37D DUP3 PUSH1 0x0 DUP4 PUSH2 0x91B JUMP JUMPDEST PUSH1 0x60 PUSH2 0x356 PUSH32 0x0 PUSH1 0x5 PUSH2 0x926 JUMP JUMPDEST PUSH1 0x60 PUSH2 0x356 PUSH32 0x0 PUSH1 0x6 PUSH2 0x926 JUMP JUMPDEST PUSH1 0x0 PUSH2 0x322 PUSH2 0x7F8 PUSH2 0x630 JUMP JUMPDEST DUP4 PUSH1 0x40 MLOAD PUSH2 0x1901 PUSH1 0xF0 SHL DUP2 MSTORE PUSH1 0x2 DUP2 ADD SWAP3 SWAP1 SWAP3 MSTORE PUSH1 0x22 DUP3 ADD MSTORE PUSH1 0x42 SWAP1 KECCAK256 SWAP1 JUMP JUMPDEST PUSH1 0x0 DUP1 PUSH1 0x0 DUP1 PUSH2 0x82A DUP9 DUP9 DUP9 DUP9 PUSH2 0x9D1 JUMP JUMPDEST SWAP3 POP SWAP3 POP SWAP3 POP PUSH2 0x83A DUP3 DUP3 PUSH2 0xAA0 JUMP JUMPDEST POP SWAP1 SWAP7 SWAP6 POP POP POP POP POP POP JUMP JUMPDEST PUSH1 0x1 PUSH1 0x1 PUSH1 0xA0 SHL SUB DUP5 AND PUSH2 0x870 JUMPI PUSH1 0x40 MLOAD PUSH4 0xE602DF05 PUSH1 0xE0 SHL DUP2 MSTORE PUSH1 0x0 PUSH1 0x4 DUP3 ADD MSTORE PUSH1 0x24 ADD PUSH2 0x422 JUMP JUMPDEST PUSH1 0x1 PUSH1 0x1 PUSH1 0xA0 SHL SUB DUP4 AND PUSH2 0x89A JUMPI PUSH1 0x40 MLOAD PUSH4 0x4A1406B1 PUSH1 0xE1 SHL DUP2 MSTORE PUSH1 0x0 PUSH1 0x4 DUP3 ADD MSTORE PUSH1 0x24 ADD PUSH2 0x422 JUMP JUMPDEST PUSH1 0x1 PUSH1 0x1 PUSH1 0xA0 SHL SUB DUP1 DUP6 AND PUSH1 0x0 SWAP1 DUP2 MSTORE PUSH1 0x1 PUSH1 0x20 SWAP1 DUP2 MSTORE PUSH1 0x40 DUP1 DUP4 KECCAK256 SWAP4 DUP8 AND DUP4 MSTORE SWAP3 SWAP1 MSTORE KECCAK256 DUP3 SWAP1 SSTORE DUP1 ISZERO PUSH2 0x5CB JUMPI DUP3 PUSH1 0x1 PUSH1 0x1 PUSH1 0xA0 SHL SUB AND DUP5 PUSH1 0x1 PUSH1 0x1 PUSH1 0xA0 SHL SUB AND PUSH32 0x8C5BE1E5EBEC7D5BD14F71427D1E84F3DD0314C0F7B2291E5B200AC8C7C3B925 DUP5 PUSH1 0x40 MLOAD PUSH2 0x90D SWAP2 DUP2 MSTORE PUSH1 0x20 ADD SWAP1 JUMP JUMPDEST PUSH1 0x40 MLOAD DUP1 SWAP2 SUB SWAP1 LOG3 POP POP POP POP JUMP JUMPDEST PUSH2 0x54E DUP4 DUP4 DUP4 PUSH2 0xB59 JUMP JUMPDEST PUSH1 0x60 PUSH1 0xFF DUP4 EQ PUSH2 0x940 JUMPI PUSH2 0x939 DUP4 PUSH2 0xC83 JUMP JUMPDEST SWAP1 POP PUSH2 0x322 JUMP JUMPDEST DUP2 DUP1 SLOAD PUSH2 0x94C SWAP1 PUSH2 0xF3F JUMP JUMPDEST DUP1 PUSH1 0x1F ADD PUSH1 0x20 DUP1 SWAP2 DIV MUL PUSH1 0x20 ADD PUSH1 0x40 MLOAD SWAP1 DUP2 ADD PUSH1 0x40 MSTORE DUP1 SWAP3 SWAP2 SWAP1 DUP2 DUP2 MSTORE PUSH1 0x20 ADD DUP3 DUP1 SLOAD PUSH2 0x978 SWAP1 PUSH2 0xF3F JUMP JUMPDEST DUP1 ISZERO PUSH2 0x9C5 JUMPI DUP1 PUSH1 0x1F LT PUSH2 0x99A JUMPI PUSH2 0x100 DUP1 DUP4 SLOAD DIV MUL DUP4 MSTORE SWAP2 PUSH1 0x20 ADD SWAP2 PUSH2 0x9C5 JUMP JUMPDEST DUP3 ADD SWAP2 SWAP1 PUSH1 0x0 MSTORE PUSH1 0x20 PUSH1 0x0 KECCAK256 SWAP1 JUMPDEST DUP2 SLOAD DUP2 MSTORE SWAP1 PUSH1 0x1 ADD SWAP1 PUSH1 0x20 ADD DUP1 DUP4 GT PUSH2 0x9A8 JUMPI DUP3 SWAP1 SUB PUSH1 0x1F AND DUP3 ADD SWAP2 JUMPDEST POP POP POP POP POP SWAP1 POP PUSH2 0x322 JUMP JUMPDEST PUSH1 0x0 DUP1 DUP1 PUSH32 0x7FFFFFFFFFFFFFFFFFFFFFFFFFFFFFFF5D576E7357A4501DDFE92F46681B20A0 DUP5 GT ISZERO PUSH2 0xA0C JUMPI POP PUSH1 0x0 SWAP2 POP PUSH1 0x3 SWAP1 POP DUP3 PUSH2 0xA96 JUMP JUMPDEST PUSH1 0x40 DUP1 MLOAD PUSH1 0x0 DUP1 DUP3 MSTORE PUSH1 0x20 DUP3 ADD DUP1 DUP5 MSTORE DUP11 SWAP1 MSTORE PUSH1 0xFF DUP10 AND SWAP3 DUP3 ADD SWAP3 SWAP1 SWAP3 MSTORE PUSH1 0x60 DUP2 ADD DUP8 SWAP1 MSTORE PUSH1 0x80 DUP2 ADD DUP7 SWAP1 MSTORE PUSH1 0x1 SWAP1 PUSH1 0xA0 ADD PUSH1 0x20 PUSH1 0x40 MLOAD PUSH1 0x20 DUP2 SUB SWAP1 DUP1 DUP5 SUB SWAP1 DUP6 GAS STATICCALL ISZERO DUP1 ISZERO PUSH2 0xA60 JUMPI RETURNDATASIZE PUSH1 0x0 DUP1 RETURNDATACOPY RETURNDATASIZE PUSH1 0x0 REVERT JUMPDEST POP POP PUSH1 0x40 MLOAD PUSH1 0x1F NOT ADD MLOAD SWAP2 POP POP PUSH1 0x1 PUSH1 0x1 PUSH1 0xA0 SHL SUB DUP2 AND PUSH2 0xA8C JUMPI POP PUSH1 0x0 SWAP3 POP PUSH1 0x1 SWAP2 POP DUP3 SWAP1 POP PUSH2 0xA96 JUMP JUMPDEST SWAP3 POP PUSH1 0x0 SWAP2 POP DUP2 SWAP1 POP JUMPDEST SWAP5 POP SWAP5 POP SWAP5 SWAP2 POP POP JUMP JUMPDEST PUSH1 0x0 DUP3 PUSH1 0x3 DUP2 GT ISZERO PUSH2 0xAB4 JUMPI PUSH2 0xAB4 PUSH2 0xF79 JUMP JUMPDEST SUB PUSH2 0xABD JUMPI POP POP JUMP JUMPDEST PUSH1 0x1 DUP3 PUSH1 0x3 DUP2 GT ISZERO PUSH2 0xAD1 JUMPI PUSH2 0xAD1 PUSH2 0xF79 JUMP JUMPDEST SUB PUSH2 0xAEF JUMPI PUSH1 0x40 MLOAD PUSH4 0xF645EEDF PUSH1 0xE0 SHL DUP2 MSTORE PUSH1 0x4 ADD PUSH1 0x40 MLOAD DUP1 SWAP2 SUB SWAP1 REVERT JUMPDEST PUSH1 0x2 DUP3 PUSH1 0x3 DUP2 GT ISZERO PUSH2 0xB03 JUMPI PUSH2 0xB03 PUSH2 0xF79 JUMP JUMPDEST SUB PUSH2 0xB24 JUMPI PUSH1 0x40 MLOAD PUSH4 0xFCE698F7 PUSH1 0xE0 SHL DUP2 MSTORE PUSH1 0x4 DUP2 ADD DUP3 SWAP1 MSTORE PUSH1 0x24 ADD PUSH2 0x422 JUMP JUMPDEST PUSH1 0x3 DUP3 PUSH1 0x3 DUP2 GT ISZERO PUSH2 0xB38 JUMPI PUSH2 0xB38 PUSH2 0xF79 JUMP JUMPDEST SUB PUSH2 0x37D JUMPI PUSH1 0x40 MLOAD PUSH4 0x35E2F383 PUSH1 0xE2 SHL DUP2 MSTORE PUSH1 0x4 DUP2 ADD DUP3 SWAP1 MSTORE PUSH1 0x24 ADD PUSH2 0x422 JUMP JUMPDEST PUSH1 0x1 PUSH1 0x1 PUSH1 0xA0 SHL SUB DUP4 AND PUSH2 0xB84 JUMPI DUP1 PUSH1 0x2 PUSH1 0x0 DUP3 DUP3 SLOAD PUSH2 0xB79 SWAP2 SWAP1 PUSH2 0xF8F JUMP JUMPDEST SWAP1 SWAP2 SSTORE POP PUSH2 0xBF6 SWAP1 POP JUMP JUMPDEST PUSH1 0x1 PUSH1 0x1 PUSH1 0xA0 SHL SUB DUP4 AND PUSH1 0x0 SWAP1 DUP2 MSTORE PUSH1 0x20 DUP2 SWAP1 MSTORE PUSH1 0x40 SWAP1 KECCAK256 SLOAD DUP2 DUP2 LT ISZERO PUSH2 0xBD7 JUMPI PUSH1 0x40 MLOAD PUSH4 0x391434E3 PUSH1 0xE2 SHL DUP2 MSTORE PUSH1 0x1 PUSH1 0x1 PUSH1 0xA0 SHL SUB DUP6 AND PUSH1 0x4 DUP3 ADD MSTORE PUSH1 0x24 DUP2 ADD DUP3 SWAP1 MSTORE PUSH1 0x44 DUP2 ADD DUP4 SWAP1 MSTORE PUSH1 0x64 ADD PUSH2 0x422 JUMP JUMPDEST PUSH1 0x1 PUSH1 0x1 PUSH1 0xA0 SHL SUB DUP5 AND PUSH1 0x0 SWAP1 DUP2 MSTORE PUSH1 0x20 DUP2 SWAP1 MSTORE PUSH1 0x40 SWAP1 KECCAK256 SWAP1 DUP3 SWAP1 SUB SWAP1 SSTORE JUMPDEST PUSH1 0x1 PUSH1 0x1 PUSH1 0xA0 SHL SUB DUP3 AND PUSH2 0xC12 JUMPI PUSH1 0x2 DUP1 SLOAD DUP3 SWAP1 SUB SWAP1 SSTORE PUSH2 0xC31 JUMP JUMPDEST PUSH1 0x1 PUSH1 0x1 PUSH1 0xA0 SHL SUB DUP3 AND PUSH1 0x0 SWAP1 DUP2 MSTORE PUSH1 0x20 DUP2 SWAP1 MSTORE PUSH1 0x40 SWAP1 KECCAK256 DUP1 SLOAD DUP3 ADD SWAP1 SSTORE JUMPDEST DUP2 PUSH1 0x1 PUSH1 0x1 PUSH1 0xA0 SHL SUB AND DUP4 PUSH1 0x1 PUSH1 0x1 PUSH1 0xA0 SHL SUB AND PUSH32 0xDDF252AD1BE2C89B69C2B068FC378DAA952BA7F163C4A11628F55A4DF523B3EF DUP4 PUSH1 0x40 MLOAD PUSH2 0xC76 SWAP2 DUP2 MSTORE PUSH1 0x20 ADD SWAP1 JUMP JUMPDEST PUSH1 0x40 MLOAD DUP1 SWAP2 SUB SWAP1 LOG3 POP POP POP JUMP JUMPDEST PUSH1 0x60 PUSH1 0x0 PUSH2 0xC90 DUP4 PUSH2 0xCC2 JUMP JUMPDEST PUSH1 0x40 DUP1 MLOAD PUSH1 0x20 DUP1 DUP3 MSTORE DUP2 DUP4 ADD SWAP1 SWAP3 MSTORE SWAP2 SWAP3 POP PUSH1 0x0 SWAP2 SWAP1 PUSH1 0x20 DUP3 ADD DUP2 DUP1 CALLDATASIZE DUP4 CALLDATACOPY POP POP POP SWAP2 DUP3 MSTORE POP PUSH1 0x20 DUP2 ADD SWAP3 SWAP1 SWAP3 MSTORE POP SWAP1 JUMP JUMPDEST PUSH1 0x0 PUSH1 0xFF DUP3 AND PUSH1 0x1F DUP2 GT ISZERO PUSH2 0x322 JUMPI PUSH1 0x40 MLOAD PUSH4 0x2CD44AC3 PUSH1 0xE2 SHL DUP2 MSTORE PUSH1 0x4 ADD PUSH1 0x40 MLOAD DUP1 SWAP2 SUB SWAP1 REVERT JUMPDEST PUSH1 0x0 DUP2 MLOAD DUP1 DUP5 MSTORE PUSH1 0x0 JUMPDEST DUP2 DUP2 LT ISZERO PUSH2 0xD10 JUMPI PUSH1 0x20 DUP2 DUP6 ADD DUP2 ADD MLOAD DUP7 DUP4 ADD DUP3 ADD MSTORE ADD PUSH2 0xCF4 JUMP JUMPDEST POP PUSH1 0x0 PUSH1 0x20 DUP3 DUP7 ADD ADD MSTORE PUSH1 0x20 PUSH1 0x1F NOT PUSH1 0x1F DUP4 ADD AND DUP6 ADD ADD SWAP2 POP POP SWAP3 SWAP2 POP POP JUMP JUMPDEST PUSH1 0x20 DUP2 MSTORE PUSH1 0x0 PUSH2 0xD43 PUSH1 0x20 DUP4 ADD DUP5 PUSH2 0xCEA JUMP JUMPDEST SWAP4 SWAP3 POP POP POP JUMP JUMPDEST DUP1 CALLDATALOAD PUSH1 0x1 PUSH1 0x1 PUSH1 0xA0 SHL SUB DUP2 AND DUP2 EQ PUSH2 0xD61 JUMPI PUSH1 0x0 DUP1 REVERT JUMPDEST SWAP2 SWAP1 POP JUMP JUMPDEST PUSH1 0x0 DUP1 PUSH1 0x40 DUP4 DUP6 SUB SLT ISZERO PUSH2 0xD79 JUMPI PUSH1 0x0 DUP1 REVERT JUMPDEST PUSH2 0xD82 DUP4 PUSH2 0xD4A JUMP JUMPDEST SWAP5 PUSH1 0x20 SWAP4 SWAP1 SWAP4 ADD CALLDATALOAD SWAP4 POP POP POP JUMP JUMPDEST PUSH1 0x0 DUP1 PUSH1 0x0 PUSH1 0x60 DUP5 DUP7 SUB SLT ISZERO PUSH2 0xDA5 JUMPI PUSH1 0x0 DUP1 REVERT JUMPDEST PUSH2 0xDAE DUP5 PUSH2 0xD4A JUMP JUMPDEST SWAP3 POP PUSH2 0xDBC PUSH1 0x20 DUP6 ADD PUSH2 0xD4A JUMP JUMPDEST SWAP3 SWAP6 SWAP3 SWAP5 POP POP POP PUSH1 0x40 SWAP2 SWAP1 SWAP2 ADD CALLDATALOAD SWAP1 JUMP JUMPDEST PUSH1 0x0 PUSH1 0x20 DUP3 DUP5 SUB SLT ISZERO PUSH2 0xDDF JUMPI PUSH1 0x0 DUP1 REVERT JUMPDEST POP CALLDATALOAD SWAP2 SWAP1 POP JUMP JUMPDEST PUSH1 0x0 PUSH1 0x20 DUP3 DUP5 SUB SLT ISZERO PUSH2 0xDF8 JUMPI PUSH1 0x0 DUP1 REVERT JUMPDEST PUSH2 0xD43 DUP3 PUSH2 0xD4A JUMP JUMPDEST PUSH1 0xFF PUSH1 0xF8 SHL DUP9 AND DUP2 MSTORE PUSH1 0xE0 PUSH1 0x20 DUP3 ADD MSTORE PUSH1 0x0 PUSH2 0xE20 PUSH1 0xE0 DUP4 ADD DUP10 PUSH2 0xCEA JUMP JUMPDEST DUP3 DUP2 SUB PUSH1 0x40 DUP5 ADD MSTORE PUSH2 0xE32 DUP2 DUP10 PUSH2 0xCEA JUMP JUMPDEST PUSH1 0x60 DUP5 ADD DUP9 SWAP1 MSTORE PUSH1 0x1 PUSH1 0x1 PUSH1 0xA0 SHL SUB DUP8 AND PUSH1 0x80 DUP6 ADD MSTORE PUSH1 0xA0 DUP5 ADD DUP7 SWAP1 MSTORE DUP4 DUP2 SUB PUSH1 0xC0 DUP6 ADD MSTORE DUP5 MLOAD DUP1 DUP3 MSTORE PUSH1 0x20 DUP1 DUP8 ADD SWAP4 POP SWAP1 SWAP2 ADD SWAP1 PUSH1 0x0 JUMPDEST DUP2 DUP2 LT ISZERO PUSH2 0xE88 JUMPI DUP4 MLOAD DUP4 MSTORE PUSH1 0x20 SWAP4 DUP5 ADD SWAP4 SWAP1 SWAP3 ADD SWAP2 PUSH1 0x1 ADD PUSH2 0xE6A JUMP JUMPDEST POP SWAP1 SWAP12 SWAP11 POP POP POP POP POP POP POP POP POP POP POP JUMP JUMPDEST PUSH1 0x0 DUP1 PUSH1 0x0 DUP1 PUSH1 0x0 DUP1 PUSH1 0x0 PUSH1 0xE0 DUP9 DUP11 SUB SLT ISZERO PUSH2 0xEB4 JUMPI PUSH1 0x0 DUP1 REVERT JUMPDEST PUSH2 0xEBD DUP9 PUSH2 0xD4A JUMP JUMPDEST SWAP7 POP PUSH2 0xECB PUSH1 0x20 DUP10 ADD PUSH2 0xD4A JUMP JUMPDEST SWAP6 POP PUSH1 0x40 DUP9 ADD CALLDATALOAD SWAP5 POP PUSH1 0x60 DUP9 ADD CALLDATALOAD SWAP4 POP PUSH1 0x80 DUP9 ADD CALLDATALOAD PUSH1 0xFF DUP2 AND DUP2 EQ PUSH2 0xEEF JUMPI PUSH1 0x0 DUP1 REVERT JUMPDEST SWAP7 SWAP10 SWAP6 SWAP9 POP SWAP4 SWAP7 SWAP3 SWAP6 SWAP5 PUSH1 0xA0 DUP5 ADD CALLDATALOAD SWAP5 POP PUSH1 0xC0 SWAP1 SWAP4 ADD CALLDATALOAD SWAP3 SWAP2 POP POP JUMP JUMPDEST PUSH1 0x0 DUP1 PUSH1 0x40 DUP4 DUP6 SUB SLT ISZERO PUSH2 0xF1F JUMPI PUSH1 0x0 DUP1 REVERT JUMPDEST PUSH2 0xF28 DUP4 PUSH2 0xD4A JUMP JUMPDEST SWAP2 POP PUSH2 0xF36 PUSH1 0x20 DUP5 ADD PUSH2 0xD4A JUMP JUMPDEST SWAP1 POP SWAP3 POP SWAP3 SWAP1 POP JUMP JUMPDEST PUSH1 0x1 DUP2 DUP2 SHR SWAP1 DUP3 AND DUP1 PUSH2 0xF53 JUMPI PUSH1 0x7F DUP3 AND SWAP2 POP JUMPDEST PUSH1 0x20 DUP3 LT DUP2 SUB PUSH2 0xF73 JUMPI PUSH4 0x4E487B71 PUSH1 0xE0 SHL PUSH1 0x0 MSTORE PUSH1 0x22 PUSH1 0x4 MSTORE PUSH1 0x24 PUSH1 0x0 REVERT JUMPDEST POP SWAP2 SWAP1 POP JUMP JUMPDEST PUSH4 0x4E487B71 PUSH1 0xE0 SHL PUSH1 0x0 MSTORE PUSH1 0x21 PUSH1 0x4 MSTORE PUSH1 0x24 PUSH1 0x0 REVERT JUMPDEST DUP1 DUP3 ADD DUP1 DUP3 GT ISZERO PUSH2 0x322 JUMPI PUSH4 0x4E487B71 PUSH1 0xE0 SHL PUSH1 0x0 MSTORE PUSH1 0x11 PUSH1 0x4 MSTORE PUSH1 0x24 PUSH1 0x0 REVERT INVALID LOG2 PUSH5 0x6970667358 0x22 SLT KECCAK256 0xB1 0xF8 0xDF 0xB2 0xC JUMP 0xCC 0xCF 0x1E SWAP16 SIGNEXTEND PUSH27 0x4013A2E92A5239257F1E1AE53A8743F9C2EE422264736F6C634300 ADDMOD BYTE STOP CALLER "
				},
				"gasEstimates": {
					"creation": {
						"codeDepositCost": "814000",
						"executionCost": "infinite",
						"totalCost": "infinite"
					},
					"external": {
						"DOMAIN_SEPARATOR()": "infinite",
						"MAX_SUPPLY()": "240",
						"allowance(address,address)": "infinite",
						"approve(address,uint256)": "24762",
						"balanceOf(address)": "2563",
						"burn(uint256)": "51049",
						"burnFrom(address,uint256)": "infinite",
						"decimals()": "200",
						"eip712Domain()": "infinite",
						"name()": "infinite",
						"nonces(address)": "2638",
						"permit(address,address,uint256,uint256,uint8,bytes32,bytes32)": "infinite",
						"symbol()": "infinite",
						"totalSupply()": "2349",
						"transfer(address,uint256)": "infinite",
						"transferFrom(address,address,uint256)": "infinite"
					},
					"internal": {
						"_update(address,address,uint256)": "infinite"
					}
				},
				"methodIdentifiers": {
					"DOMAIN_SEPARATOR()": "3644e515",
					"MAX_SUPPLY()": "32cb6b0c",
					"allowance(address,address)": "dd62ed3e",
					"approve(address,uint256)": "095ea7b3",
					"balanceOf(address)": "70a08231",
					"burn(uint256)": "42966c68",
					"burnFrom(address,uint256)": "79cc6790",
					"decimals()": "313ce567",
					"eip712Domain()": "84b0196e",
					"name()": "06fdde03",
					"nonces(address)": "7ecebe00",
					"permit(address,address,uint256,uint256,uint8,bytes32,bytes32)": "d505accf",
					"symbol()": "95d89b41",
					"totalSupply()": "18160ddd",
					"transfer(address,uint256)": "a9059cbb",
					"transferFrom(address,address,uint256)": "23b872dd"
				}
			},
			"storageLayout": {
				"storage": [
					{
						"astId": 184,
						"contract": "Smart-Contract/PNJC.sol:PanjoCoin",
						"label": "_balances",
						"offset": 0,
						"slot": "0",
						"type": "t_mapping(t_address,t_uint256)"
					},
					{
						"astId": 190,
						"contract": "Smart-Contract/PNJC.sol:PanjoCoin",
						"label": "_allowances",
						"offset": 0,
						"slot": "1",
						"type": "t_mapping(t_address,t_mapping(t_address,t_uint256))"
					},
					{
						"astId": 192,
						"contract": "Smart-Contract/PNJC.sol:PanjoCoin",
						"label": "_totalSupply",
						"offset": 0,
						"slot": "2",
						"type": "t_uint256"
					},
					{
						"astId": 194,
						"contract": "Smart-Contract/PNJC.sol:PanjoCoin",
						"label": "_name",
						"offset": 0,
						"slot": "3",
						"type": "t_string_storage"
					},
					{
						"astId": 196,
						"contract": "Smart-Contract/PNJC.sol:PanjoCoin",
						"label": "_symbol",
						"offset": 0,
						"slot": "4",
						"type": "t_string_storage"
					},
					{
						"astId": 2073,
						"contract": "Smart-Contract/PNJC.sol:PanjoCoin",
						"label": "_nameFallback",
						"offset": 0,
						"slot": "5",
						"type": "t_string_storage"
					},
					{
						"astId": 2075,
						"contract": "Smart-Contract/PNJC.sol:PanjoCoin",
						"label": "_versionFallback",
						"offset": 0,
						"slot": "6",
						"type": "t_string_storage"
					},
					{
						"astId": 1052,
						"contract": "Smart-Contract/PNJC.sol:PanjoCoin",
						"label": "_nonces",
						"offset": 0,
						"slot": "7",
						"type": "t_mapping(t_address,t_uint256)"
					}
				],
				"types": {
					"t_address": {
						"encoding": "inplace",
						"label": "address",
						"numberOfBytes": "20"
					},
					"t_mapping(t_address,t_mapping(t_address,t_uint256))": {
						"encoding": "mapping",
						"key": "t_address",
						"label": "mapping(address => mapping(address => uint256))",
						"numberOfBytes": "32",
						"value": "t_mapping(t_address,t_uint256)"
					},
					"t_mapping(t_address,t_uint256)": {
						"encoding": "mapping",
						"key": "t_address",
						"label": "mapping(address => uint256)",
						"numberOfBytes": "32",
						"value": "t_uint256"
					},
					"t_string_storage": {
						"encoding": "bytes",
						"label": "string",
						"numberOfBytes": "32"
					},
					"t_uint256": {
						"encoding": "inplace",
						"label": "uint256",
						"numberOfBytes": "32"
					}
				}
			},
			"userdoc": {
				"errors": {
					"InvalidTreasuryAddress()": [
						{
							"notice": "Error thrown when the provided treasury address is the zero address."
						}
					]
				},
				"kind": "user",
				"methods": {
					"MAX_SUPPLY()": {
						"notice": "Maximum total supply: 1,000,000,000,000 PNJC (1 Trillion)"
					}
				},
				"notice": "Standard ERC20 token with fixed supply, burn functionality, and EIP-2612 Permit support.",
				"version": 1
			}
		}
	}
}