{
	"Smart-Contracts/PNJC_Multisig.sol": {
		"PNJCMasterTreasury": {
			"abi": [
				{
					"inputs": [
						{
							"internalType": "address[]",
							"name": "_owners",
							"type": "address[]"
						},
						{
							"internalType": "uint256",
							"name": "_requiredSignatures",
							"type": "uint256"
						}
					],
					"stateMutability": "nonpayable",
					"type": "constructor"
				},
				{
					"inputs": [],
					"name": "ReentrancyGuardReentrantCall",
					"type": "error"
				},
				{
					"anonymous": false,
					"inputs": [
						{
							"indexed": false,
							"internalType": "uint256",
							"name": "newRequiredCount",
							"type": "uint256"
						}
					],
					"name": "RequiredSignaturesUpdated",
					"type": "event"
				},
				{
					"anonymous": false,
					"inputs": [
						{
							"indexed": true,
							"internalType": "uint256",
							"name": "txIndex",
							"type": "uint256"
						},
						{
							"indexed": true,
							"internalType": "address",
							"name": "owner",
							"type": "address"
						}
					],
					"name": "TransactionConfirmed",
					"type": "event"
				},
				{
					"anonymous": false,
					"inputs": [
						{
							"indexed": true,
							"internalType": "uint256",
							"name": "txIndex",
							"type": "uint256"
						},
						{
							"indexed": true,
							"internalType": "address",
							"name": "owner",
							"type": "address"
						}
					],
					"name": "TransactionExecuted",
					"type": "event"
				},
				{
					"anonymous": false,
					"inputs": [
						{
							"indexed": true,
							"internalType": "uint256",
							"name": "txIndex",
							"type": "uint256"
						},
						{
							"indexed": true,
							"internalType": "address",
							"name": "owner",
							"type": "address"
						}
					],
					"name": "TransactionRevoked",
					"type": "event"
				},
				{
					"anonymous": false,
					"inputs": [
						{
							"indexed": true,
							"internalType": "uint256",
							"name": "txIndex",
							"type": "uint256"
						},
						{
							"indexed": true,
							"internalType": "address",
							"name": "owner",
							"type": "address"
						},
						{
							"indexed": true,
							"internalType": "address",
							"name": "to",
							"type": "address"
						},
						{
							"indexed": false,
							"internalType": "uint256",
							"name": "value",
							"type": "uint256"
						},
						{
							"indexed": false,
							"internalType": "bytes",
							"name": "data",
							"type": "bytes"
						}
					],
					"name": "TransactionSubmitted",
					"type": "event"
				},
				{
					"inputs": [
						{
							"internalType": "uint256",
							"name": "_txIndex",
							"type": "uint256"
						}
					],
					"name": "confirmTransaction",
					"outputs": [],
					"stateMutability": "nonpayable",
					"type": "function"
				},
				{
					"inputs": [
						{
							"internalType": "uint256",
							"name": "_txIndex",
							"type": "uint256"
						}
					],
					"name": "executeTransaction",
					"outputs": [],
					"stateMutability": "nonpayable",
					"type": "function"
				},
				{
					"inputs": [],
					"name": "getOwners",
					"outputs": [
						{
							"internalType": "address[]",
							"name": "",
							"type": "address[]"
						}
					],
					"stateMutability": "view",
					"type": "function"
				},
				{
					"inputs": [
						{
							"internalType": "uint256",
							"name": "",
							"type": "uint256"
						},
						{
							"internalType": "address",
							"name": "",
							"type": "address"
						}
					],
					"name": "isConfirmed",
					"outputs": [
						{
							"internalType": "bool",
							"name": "",
							"type": "bool"
						}
					],
					"stateMutability": "view",
					"type": "function"
				},
				{
					"inputs": [
						{
							"internalType": "address",
							"name": "",
							"type": "address"
						}
					],
					"name": "isOwner",
					"outputs": [
						{
							"internalType": "bool",
							"name": "",
							"type": "bool"
						}
					],
					"stateMutability": "view",
					"type": "function"
				},
				{
					"inputs": [
						{
							"internalType": "uint256",
							"name": "",
							"type": "uint256"
						}
					],
					"name": "owners",
					"outputs": [
						{
							"internalType": "address",
							"name": "",
							"type": "address"
						}
					],
					"stateMutability": "view",
					"type": "function"
				},
				{
					"inputs": [],
					"name": "requiredSignatures",
					"outputs": [
						{
							"internalType": "uint256",
							"name": "",
							"type": "uint256"
						}
					],
					"stateMutability": "view",
					"type": "function"
				},
				{
					"inputs": [
						{
							"internalType": "uint256",
							"name": "_txIndex",
							"type": "uint256"
						}
					],
					"name": "revokeConfirmation",
					"outputs": [],
					"stateMutability": "nonpayable",
					"type": "function"
				},
				{
					"inputs": [
						{
							"internalType": "address",
							"name": "_to",
							"type": "address"
						},
						{
							"internalType": "uint256",
							"name": "_value",
							"type": "uint256"
						},
						{
							"internalType": "bytes",
							"name": "_data",
							"type": "bytes"
						}
					],
					"name": "submitTransaction",
					"outputs": [],
					"stateMutability": "nonpayable",
					"type": "function"
				},
				{
					"inputs": [
						{
							"internalType": "uint256",
							"name": "",
							"type": "uint256"
						}
					],
					"name": "transactions",
					"outputs": [
						{
							"internalType": "address",
							"name": "to",
							"type": "address"
						},
						{
							"internalType": "uint256",
							"name": "value",
							"type": "uint256"
						},
						{
							"internalType": "bytes",
							"name": "data",
							"type": "bytes"
						},
						{
							"internalType": "bool",
							"name": "executed",
							"type": "bool"
						},
						{
							"internalType": "uint256",
							"name": "approvalCount",
							"type": "uint256"
						}
					],
					"stateMutability": "view",
					"type": "function"
				},
				{
					"stateMutability": "payable",
					"type": "receive"
				}
			],
			"devdoc": {
				"errors": {
					"ReentrancyGuardReentrantCall()": [
						{
							"details": "Unauthorized reentrant call."
						}
					]
				},
				"events": {
					"TransactionSubmitted(uint256,address,address,uint256,bytes)": {
						"details": "Events are indexed to ensure full traceability on Etherscan/Polygonscan."
					}
				},
				"kind": "dev",
				"methods": {
					"confirmTransaction(uint256)": {
						"details": "Once 'requiredSignatures' is met, the transaction can be executed.",
						"params": {
							"_txIndex": "The unique identifier of the transaction."
						}
					},
					"constructor": {
						"params": {
							"_owners": "Array of initial owner addresses (e.g., 3 hardware wallet addresses).",
							"_requiredSignatures": "Minimum consensus threshold (e.g., 2 for a 2-of-3 setup)."
						}
					},
					"executeTransaction(uint256)": {
						"details": "Uses low-level '.call' to ensure compatibility with Fee Router's gas requirements. Implements Check-Effects-Interactions (CEI) security pattern."
					},
					"revokeConfirmation(uint256)": {
						"params": {
							"_txIndex": "The unique identifier of the transaction."
						}
					},
					"submitTransaction(address,uint256,bytes)": {
						"params": {
							"_data": "The calldata representing the function to be executed.",
							"_to": "The destination address for the transaction.",
							"_value": "The amount of native currency to be sent."
						}
					}
				},
				"version": 1
			},
			"evm": {
				"assembly": "    /* \"Smart-Contracts/PNJC_Multisig.sol\":804:7592  contract PNJCMasterTreasury is ReentrancyGuard {... */\n  mstore(0x40, 0x80)\n    /* \"Smart-Contracts/PNJC_Multisig.sol\":3206:3933  constructor(address[] memory _owners, uint256 _requiredSignatures) {... */\n  callvalue\n  dup1\n  iszero\n  tag_1\n  jumpi\n  0x00\n  dup1\n  revert\ntag_1:\n  pop\n  mload(0x40)\n  sub(codesize, bytecodeSize)\n  dup1\n  bytecodeSize\n  dup4\n  codecopy\n  dup2\n  add\n  0x40\n  dup2\n  swap1\n  mstore\n  tag_2\n  swap2\n  tag_3\n  jump\t// in\ntag_2:\n    /* \"@openzeppelin/contracts@5.6.0/utils/ReentrancyGuard.sol\":2365:2366  1 */\n  0x01\n    /* \"@openzeppelin/contracts@5.6.0/utils/ReentrancyGuard.sol\":1505:1571  0x9b779b17422d0df92223018b32b4d1fa46e071723d6817e2486d003becc55f00 */\n  0x9b779b17422d0df92223018b32b4d1fa46e071723d6817e2486d003becc55f00\n    /* \"@openzeppelin/contracts@5.6.0/utils/ReentrancyGuard.sol\":2539:2605  _reentrancyGuardStorageSlot().getUint256Slot().value = NOT_ENTERED */\n  sstore\n    /* \"Smart-Contracts/PNJC_Multisig.sol\":3292:3306  _owners.length */\n  dup2\n  mload\n    /* \"Smart-Contracts/PNJC_Multisig.sol\":3284:3357  require(_owners.length > 0, \"PNJC Treasury: Owners list cannot be empty\") */\n  tag_12\n  jumpi\n  mload(0x40)\n  shl(0xe5, 0x461bcd)\n  dup2\n  mstore\n    /* \"#utility.yul\":1727:1729   */\n  0x20\n    /* \"Smart-Contracts/PNJC_Multisig.sol\":3284:3357  require(_owners.length > 0, \"PNJC Treasury: Owners list cannot be empty\") */\n  0x04\n  dup3\n  add\n    /* \"#utility.yul\":1709:1730   */\n  mstore\n    /* \"#utility.yul\":1766:1768   */\n  0x2a\n    /* \"#utility.yul\":1746:1764   */\n  0x24\n  dup3\n  add\n    /* \"#utility.yul\":1739:1769   */\n  mstore\n    /* \"#utility.yul\":1805:1839   */\n  0x504e4a432054726561737572793a204f776e657273206c6973742063616e6e6f\n    /* \"#utility.yul\":1785:1803   */\n  0x44\n  dup3\n  add\n    /* \"#utility.yul\":1778:1840   */\n  mstore\n  shl(0xb0, 0x7420626520656d707479)\n    /* \"#utility.yul\":1856:1874   */\n  0x64\n  dup3\n  add\n    /* \"#utility.yul\":1849:1889   */\n  mstore\n    /* \"#utility.yul\":1906:1925   */\n  0x84\n  add\n    /* \"Smart-Contracts/PNJC_Multisig.sol\":3284:3357  require(_owners.length > 0, \"PNJC Treasury: Owners list cannot be empty\") */\ntag_13:\n  mload(0x40)\n  dup1\n  swap2\n  sub\n  swap1\n  revert\ntag_12:\n    /* \"Smart-Contracts/PNJC_Multisig.sol\":3412:3413  0 */\n  0x00\n    /* \"Smart-Contracts/PNJC_Multisig.sol\":3390:3409  _requiredSignatures */\n  dup2\n    /* \"Smart-Contracts/PNJC_Multisig.sol\":3390:3413  _requiredSignatures > 0 */\n  gt\n    /* \"Smart-Contracts/PNJC_Multisig.sol\":3390:3454  _requiredSignatures > 0 && _requiredSignatures <= _owners.length */\n  dup1\n  iszero\n  tag_15\n  jumpi\n  pop\n    /* \"Smart-Contracts/PNJC_Multisig.sol\":3440:3447  _owners */\n  dup2\n    /* \"Smart-Contracts/PNJC_Multisig.sol\":3440:3454  _owners.length */\n  mload\n    /* \"Smart-Contracts/PNJC_Multisig.sol\":3417:3436  _requiredSignatures */\n  dup2\n    /* \"Smart-Contracts/PNJC_Multisig.sol\":3417:3454  _requiredSignatures <= _owners.length */\n  gt\n  iszero\n    /* \"Smart-Contracts/PNJC_Multisig.sol\":3390:3454  _requiredSignatures > 0 && _requiredSignatures <= _owners.length */\ntag_15:\n    /* \"Smart-Contracts/PNJC_Multisig.sol\":3368:3524  require(... */\n  tag_16\n  jumpi\n  mload(0x40)\n  shl(0xe5, 0x461bcd)\n  dup2\n  mstore\n    /* \"#utility.yul\":2138:2140   */\n  0x20\n    /* \"Smart-Contracts/PNJC_Multisig.sol\":3368:3524  require(... */\n  0x04\n  dup3\n  add\n    /* \"#utility.yul\":2120:2141   */\n  mstore\n    /* \"#utility.yul\":2177:2179   */\n  0x2a\n    /* \"#utility.yul\":2157:2175   */\n  0x24\n  dup3\n  add\n    /* \"#utility.yul\":2150:2180   */\n  mstore\n    /* \"#utility.yul\":2216:2250   */\n  0x504e4a432054726561737572793a20496e76616c6964207369676e6174757265\n    /* \"#utility.yul\":2196:2214   */\n  0x44\n  dup3\n  add\n    /* \"#utility.yul\":2189:2251   */\n  mstore\n  shl(0xb2, 0x081d1a1c995cda1bdb19)\n    /* \"#utility.yul\":2267:2285   */\n  0x64\n  dup3\n  add\n    /* \"#utility.yul\":2260:2300   */\n  mstore\n    /* \"#utility.yul\":2317:2336   */\n  0x84\n  add\n    /* \"Smart-Contracts/PNJC_Multisig.sol\":3368:3524  require(... */\n  tag_13\n    /* \"#utility.yul\":1936:2342   */\n  jump\n    /* \"Smart-Contracts/PNJC_Multisig.sol\":3368:3524  require(... */\ntag_16:\n    /* \"Smart-Contracts/PNJC_Multisig.sol\":3542:3551  uint256 i */\n  0x00\n    /* \"Smart-Contracts/PNJC_Multisig.sol\":3537:3875  for (uint256 i = 0; i < _owners.length; i++) {... */\ntag_19:\n    /* \"Smart-Contracts/PNJC_Multisig.sol\":3561:3568  _owners */\n  dup3\n    /* \"Smart-Contracts/PNJC_Multisig.sol\":3561:3575  _owners.length */\n  mload\n    /* \"Smart-Contracts/PNJC_Multisig.sol\":3557:3558  i */\n  dup2\n    /* \"Smart-Contracts/PNJC_Multisig.sol\":3557:3575  i < _owners.length */\n  lt\n    /* \"Smart-Contracts/PNJC_Multisig.sol\":3537:3875  for (uint256 i = 0; i < _owners.length; i++) {... */\n  iszero\n  tag_20\n  jumpi\n    /* \"Smart-Contracts/PNJC_Multisig.sol\":3597:3610  address owner */\n  0x00\n    /* \"Smart-Contracts/PNJC_Multisig.sol\":3613:3620  _owners */\n  dup4\n    /* \"Smart-Contracts/PNJC_Multisig.sol\":3621:3622  i */\n  dup3\n    /* \"Smart-Contracts/PNJC_Multisig.sol\":3613:3623  _owners[i] */\n  dup2\n  mload\n  dup2\n  lt\n  tag_23\n  jumpi\n  tag_23\n  tag_24\n  jump\t// in\ntag_23:\n  0x20\n  mul\n  0x20\n  add\n  add\n  mload\n    /* \"Smart-Contracts/PNJC_Multisig.sol\":3597:3623  address owner = _owners[i] */\n  swap1\n  pop\n    /* \"Smart-Contracts/PNJC_Multisig.sol\":3663:3664  0 */\n  0x00\n  sub(shl(0xa0, 0x01), 0x01)\n    /* \"Smart-Contracts/PNJC_Multisig.sol\":3646:3665  owner != address(0) */\n  and\n    /* \"Smart-Contracts/PNJC_Multisig.sol\":3646:3651  owner */\n  dup2\n  sub(shl(0xa0, 0x01), 0x01)\n    /* \"Smart-Contracts/PNJC_Multisig.sol\":3646:3665  owner != address(0) */\n  and\n  sub\n    /* \"Smart-Contracts/PNJC_Multisig.sol\":3638:3706  require(owner != address(0), \"PNJC Treasury: Zero address detected\") */\n  tag_25\n  jumpi\n  mload(0x40)\n  shl(0xe5, 0x461bcd)\n  dup2\n  mstore\n    /* \"#utility.yul\":2681:2683   */\n  0x20\n    /* \"Smart-Contracts/PNJC_Multisig.sol\":3638:3706  require(owner != address(0), \"PNJC Treasury: Zero address detected\") */\n  0x04\n  dup3\n  add\n    /* \"#utility.yul\":2663:2684   */\n  mstore\n    /* \"#utility.yul\":2720:2722   */\n  0x24\n    /* \"#utility.yul\":2700:2718   */\n  dup1\n  dup3\n  add\n    /* \"#utility.yul\":2693:2723   */\n  mstore\n    /* \"#utility.yul\":2759:2793   */\n  0x504e4a432054726561737572793a205a65726f20616464726573732064657465\n    /* \"#utility.yul\":2739:2757   */\n  0x44\n  dup3\n  add\n    /* \"#utility.yul\":2732:2794   */\n  mstore\n  shl(0xe2, 0x18dd1959)\n    /* \"#utility.yul\":2810:2828   */\n  0x64\n  dup3\n  add\n    /* \"#utility.yul\":2803:2837   */\n  mstore\n    /* \"#utility.yul\":2854:2873   */\n  0x84\n  add\n    /* \"Smart-Contracts/PNJC_Multisig.sol\":3638:3706  require(owner != address(0), \"PNJC Treasury: Zero address detected\") */\n  tag_13\n    /* \"#utility.yul\":2479:2879   */\n  jump\n    /* \"Smart-Contracts/PNJC_Multisig.sol\":3638:3706  require(owner != address(0), \"PNJC Treasury: Zero address detected\") */\ntag_25:\n  sub(shl(0xa0, 0x01), 0x01)\n    /* \"Smart-Contracts/PNJC_Multisig.sol\":3730:3744  isOwner[owner] */\n  dup2\n  and\n  0x00\n  swap1\n  dup2\n  mstore\n    /* \"Smart-Contracts/PNJC_Multisig.sol\":3730:3737  isOwner */\n  0x01\n    /* \"Smart-Contracts/PNJC_Multisig.sol\":3730:3744  isOwner[owner] */\n  0x20\n  mstore\n  0x40\n  swap1\n  keccak256\n  sload\n  0xff\n  and\n    /* \"Smart-Contracts/PNJC_Multisig.sol\":3729:3744  !isOwner[owner] */\n  iszero\n    /* \"Smart-Contracts/PNJC_Multisig.sol\":3721:3792  require(!isOwner[owner], \"PNJC Treasury: Duplicate owners not allowed\") */\n  tag_28\n  jumpi\n  mload(0x40)\n  shl(0xe5, 0x461bcd)\n  dup2\n  mstore\n    /* \"#utility.yul\":3086:3088   */\n  0x20\n    /* \"Smart-Contracts/PNJC_Multisig.sol\":3721:3792  require(!isOwner[owner], \"PNJC Treasury: Duplicate owners not allowed\") */\n  0x04\n  dup3\n  add\n    /* \"#utility.yul\":3068:3089   */\n  mstore\n    /* \"#utility.yul\":3125:3127   */\n  0x2b\n    /* \"#utility.yul\":3105:3123   */\n  0x24\n  dup3\n  add\n    /* \"#utility.yul\":3098:3128   */\n  mstore\n    /* \"#utility.yul\":3164:3198   */\n  0x504e4a432054726561737572793a204475706c6963617465206f776e65727320\n    /* \"#utility.yul\":3144:3162   */\n  0x44\n  dup3\n  add\n    /* \"#utility.yul\":3137:3199   */\n  mstore\n  shl(0xaa, 0x1b9bdd08185b1b1bddd959)\n    /* \"#utility.yul\":3215:3233   */\n  0x64\n  dup3\n  add\n    /* \"#utility.yul\":3208:3249   */\n  mstore\n    /* \"#utility.yul\":3266:3285   */\n  0x84\n  add\n    /* \"Smart-Contracts/PNJC_Multisig.sol\":3721:3792  require(!isOwner[owner], \"PNJC Treasury: Duplicate owners not allowed\") */\n  tag_13\n    /* \"#utility.yul\":2884:3291   */\n  jump\n    /* \"Smart-Contracts/PNJC_Multisig.sol\":3721:3792  require(!isOwner[owner], \"PNJC Treasury: Duplicate owners not allowed\") */\ntag_28:\n  sub(shl(0xa0, 0x01), 0x01)\n    /* \"Smart-Contracts/PNJC_Multisig.sol\":3809:3823  isOwner[owner] */\n  and\n  0x00\n  dup2\n  dup2\n  mstore\n    /* \"Smart-Contracts/PNJC_Multisig.sol\":3826:3830  true */\n  0x01\n    /* \"Smart-Contracts/PNJC_Multisig.sol\":3809:3823  isOwner[owner] */\n  0x20\n  dup2\n  swap1\n  mstore\n  0x40\n  dup3\n  keccak256\n    /* \"Smart-Contracts/PNJC_Multisig.sol\":3809:3830  isOwner[owner] = true */\n  dup1\n  sload\n  not(0xff)\n  and\n  dup3\n  or\n  swap1\n  sstore\n    /* \"Smart-Contracts/PNJC_Multisig.sol\":3845:3863  owners.push(owner) */\n  dup2\n  sload\n  dup1\n  dup3\n  add\n  dup4\n  sstore\n  swap2\n  dup1\n  mstore\n  0x290decd9548b62a8d60345a988386fc84ba6bc95484008f6362f93160ef3e563\n  swap1\n  swap2\n  add\n  dup1\n  sload\n  not(sub(shl(0xa0, 0x01), 0x01))\n  and\n  swap1\n  swap3\n  or\n  swap1\n  swap2\n  sstore\n    /* \"Smart-Contracts/PNJC_Multisig.sol\":3577:3580  i++ */\n  add\n    /* \"Smart-Contracts/PNJC_Multisig.sol\":3537:3875  for (uint256 i = 0; i < _owners.length; i++) {... */\n  jump(tag_19)\ntag_20:\n  pop\n    /* \"Smart-Contracts/PNJC_Multisig.sol\":3885:3903  requiredSignatures */\n  0x02\n    /* \"Smart-Contracts/PNJC_Multisig.sol\":3885:3925  requiredSignatures = _requiredSignatures */\n  sstore\n  pop\n    /* \"Smart-Contracts/PNJC_Multisig.sol\":804:7592  contract PNJCMasterTreasury is ReentrancyGuard {... */\n  jump(tag_37)\n    /* \"#utility.yul\":14:141   */\ntag_35:\n    /* \"#utility.yul\":75:85   */\n  0x4e487b71\n    /* \"#utility.yul\":70:73   */\n  0xe0\n    /* \"#utility.yul\":66:86   */\n  shl\n    /* \"#utility.yul\":63:64   */\n  0x00\n    /* \"#utility.yul\":56:87   */\n  mstore\n    /* \"#utility.yul\":106:110   */\n  0x41\n    /* \"#utility.yul\":103:104   */\n  0x04\n    /* \"#utility.yul\":96:111   */\n  mstore\n    /* \"#utility.yul\":130:134   */\n  0x24\n    /* \"#utility.yul\":127:128   */\n  0x00\n    /* \"#utility.yul\":120:135   */\n  revert\n    /* \"#utility.yul\":146:323   */\ntag_36:\n    /* \"#utility.yul\":225:238   */\n  dup1\n  mload\n  sub(shl(0xa0, 0x01), 0x01)\n    /* \"#utility.yul\":267:298   */\n  dup2\n  and\n    /* \"#utility.yul\":257:299   */\n  dup2\n  eq\n    /* \"#utility.yul\":247:317   */\n  tag_40\n  jumpi\n    /* \"#utility.yul\":313:314   */\n  0x00\n    /* \"#utility.yul\":310:311   */\n  dup1\n    /* \"#utility.yul\":303:315   */\n  revert\n    /* \"#utility.yul\":247:317   */\ntag_40:\n    /* \"#utility.yul\":146:323   */\n  swap2\n  swap1\n  pop\n  jump\t// out\n    /* \"#utility.yul\":328:1520   */\ntag_3:\n    /* \"#utility.yul\":432:438   */\n  0x00\n    /* \"#utility.yul\":440:446   */\n  dup1\n    /* \"#utility.yul\":493:495   */\n  0x40\n    /* \"#utility.yul\":481:490   */\n  dup4\n    /* \"#utility.yul\":472:479   */\n  dup6\n    /* \"#utility.yul\":468:491   */\n  sub\n    /* \"#utility.yul\":464:496   */\n  slt\n    /* \"#utility.yul\":461:513   */\n  iszero\n  tag_42\n  jumpi\n    /* \"#utility.yul\":509:510   */\n  0x00\n    /* \"#utility.yul\":506:507   */\n  dup1\n    /* \"#utility.yul\":499:511   */\n  revert\n    /* \"#utility.yul\":461:513   */\ntag_42:\n    /* \"#utility.yul\":536:552   */\n  dup3\n  mload\n  sub(shl(0x40, 0x01), 0x01)\n    /* \"#utility.yul\":601:615   */\n  dup1\n  dup3\n  gt\n    /* \"#utility.yul\":598:632   */\n  iszero\n  tag_43\n  jumpi\n    /* \"#utility.yul\":628:629   */\n  0x00\n    /* \"#utility.yul\":625:626   */\n  dup1\n    /* \"#utility.yul\":618:630   */\n  revert\n    /* \"#utility.yul\":598:632   */\ntag_43:\n    /* \"#utility.yul\":666:672   */\n  dup2\n    /* \"#utility.yul\":655:664   */\n  dup6\n    /* \"#utility.yul\":651:673   */\n  add\n    /* \"#utility.yul\":641:673   */\n  swap2\n  pop\n    /* \"#utility.yul\":711:718   */\n  dup6\n    /* \"#utility.yul\":704:708   */\n  0x1f\n    /* \"#utility.yul\":700:702   */\n  dup4\n    /* \"#utility.yul\":696:709   */\n  add\n    /* \"#utility.yul\":692:719   */\n  slt\n    /* \"#utility.yul\":682:737   */\n  tag_44\n  jumpi\n    /* \"#utility.yul\":733:734   */\n  0x00\n    /* \"#utility.yul\":730:731   */\n  dup1\n    /* \"#utility.yul\":723:735   */\n  revert\n    /* \"#utility.yul\":682:737   */\ntag_44:\n    /* \"#utility.yul\":762:764   */\n  dup2\n    /* \"#utility.yul\":756:765   */\n  mload\n    /* \"#utility.yul\":784:788   */\n  0x20\n    /* \"#utility.yul\":807:809   */\n  dup3\n    /* \"#utility.yul\":803:805   */\n  dup3\n    /* \"#utility.yul\":800:810   */\n  gt\n    /* \"#utility.yul\":797:833   */\n  iszero\n  tag_46\n  jumpi\n    /* \"#utility.yul\":813:831   */\n  tag_46\n  tag_35\n  jump\t// in\ntag_46:\n    /* \"#utility.yul\":859:861   */\n  dup2\n    /* \"#utility.yul\":856:857   */\n  0x05\n    /* \"#utility.yul\":852:862   */\n  shl\n    /* \"#utility.yul\":891:893   */\n  0x40\n    /* \"#utility.yul\":885:894   */\n  mload\n    /* \"#utility.yul\":954:956   */\n  0x1f\n    /* \"#utility.yul\":950:957   */\n  not\n    /* \"#utility.yul\":945:947   */\n  0x3f\n    /* \"#utility.yul\":941:943   */\n  dup4\n    /* \"#utility.yul\":937:948   */\n  add\n    /* \"#utility.yul\":933:958   */\n  and\n    /* \"#utility.yul\":925:931   */\n  dup2\n    /* \"#utility.yul\":921:959   */\n  add\n    /* \"#utility.yul\":1009:1015   */\n  dup2\n    /* \"#utility.yul\":997:1007   */\n  dup2\n    /* \"#utility.yul\":994:1016   */\n  lt\n    /* \"#utility.yul\":989:991   */\n  dup7\n    /* \"#utility.yul\":977:987   */\n  dup3\n    /* \"#utility.yul\":974:992   */\n  gt\n    /* \"#utility.yul\":971:1017   */\n  or\n    /* \"#utility.yul\":968:1040   */\n  iszero\n  tag_48\n  jumpi\n    /* \"#utility.yul\":1020:1038   */\n  tag_48\n  tag_35\n  jump\t// in\ntag_48:\n    /* \"#utility.yul\":1056:1058   */\n  0x40\n    /* \"#utility.yul\":1049:1071   */\n  mstore\n    /* \"#utility.yul\":1106:1124   */\n  swap3\n  dup4\n  mstore\n    /* \"#utility.yul\":1140:1155   */\n  dup2\n  dup4\n  add\n  swap4\n  pop\n    /* \"#utility.yul\":1182:1193   */\n  dup5\n  dup2\n  add\n    /* \"#utility.yul\":1178:1198   */\n  dup3\n  add\n  swap3\n    /* \"#utility.yul\":1210:1229   */\n  dup10\n  dup5\n  gt\n    /* \"#utility.yul\":1207:1246   */\n  iszero\n  tag_49\n  jumpi\n    /* \"#utility.yul\":1242:1243   */\n  0x00\n    /* \"#utility.yul\":1239:1240   */\n  dup1\n    /* \"#utility.yul\":1232:1244   */\n  revert\n    /* \"#utility.yul\":1207:1246   */\ntag_49:\n    /* \"#utility.yul\":1266:1277   */\n  swap5\n  dup3\n  add\n  swap5\n    /* \"#utility.yul\":1286:1445   */\ntag_50:\n    /* \"#utility.yul\":1302:1308   */\n  dup4\n    /* \"#utility.yul\":1297:1300   */\n  dup7\n    /* \"#utility.yul\":1294:1309   */\n  lt\n    /* \"#utility.yul\":1286:1445   */\n  iszero\n  tag_52\n  jumpi\n    /* \"#utility.yul\":1368:1402   */\n  tag_53\n    /* \"#utility.yul\":1398:1401   */\n  dup7\n    /* \"#utility.yul\":1368:1402   */\n  tag_36\n  jump\t// in\ntag_53:\n    /* \"#utility.yul\":1356:1403   */\n  dup6\n  mstore\n    /* \"#utility.yul\":1319:1331   */\n  swap5\n  dup3\n  add\n  swap5\n    /* \"#utility.yul\":1423:1435   */\n  swap4\n  dup3\n  add\n  swap4\n    /* \"#utility.yul\":1286:1445   */\n  jump(tag_50)\ntag_52:\n    /* \"#utility.yul\":1495:1513   */\n  swap8\n  swap1\n  swap2\n  add\n    /* \"#utility.yul\":1489:1514   */\n  mload\n    /* \"#utility.yul\":1464:1470   */\n  swap7\n  swap9\n    /* \"#utility.yul\":1489:1514   */\n  swap7\n  swap8\n  pop\n  pop\n  pop\n  pop\n  pop\n  pop\n  pop\n    /* \"#utility.yul\":328:1520   */\n  jump\t// out\n    /* \"#utility.yul\":2347:2474   */\ntag_24:\n    /* \"#utility.yul\":2408:2418   */\n  0x4e487b71\n    /* \"#utility.yul\":2403:2406   */\n  0xe0\n    /* \"#utility.yul\":2399:2419   */\n  shl\n    /* \"#utility.yul\":2396:2397   */\n  0x00\n    /* \"#utility.yul\":2389:2420   */\n  mstore\n    /* \"#utility.yul\":2439:2443   */\n  0x32\n    /* \"#utility.yul\":2436:2437   */\n  0x04\n    /* \"#utility.yul\":2429:2444   */\n  mstore\n    /* \"#utility.yul\":2463:2467   */\n  0x24\n    /* \"#utility.yul\":2460:2461   */\n  0x00\n    /* \"#utility.yul\":2453:2468   */\n  revert\n    /* \"#utility.yul\":2884:3291   */\ntag_37:\n    /* \"Smart-Contracts/PNJC_Multisig.sol\":804:7592  contract PNJCMasterTreasury is ReentrancyGuard {... */\n  dataSize(sub_0)\n  dup1\n  dataOffset(sub_0)\n  0x00\n  codecopy\n  0x00\n  return\nstop\n\nsub_0: assembly {\n        /* \"Smart-Contracts/PNJC_Multisig.sol\":804:7592  contract PNJCMasterTreasury is ReentrancyGuard {... */\n      mstore(0x40, 0x80)\n      jumpi(tag_1, lt(calldatasize, 0x04))\n      shr(0xe0, calldataload(0x00))\n      dup1\n      0x9ace38c2\n      gt\n      tag_13\n      jumpi\n      dup1\n      0x9ace38c2\n      eq\n      tag_8\n      jumpi\n      dup1\n      0xa0e67e2b\n      eq\n      tag_9\n      jumpi\n      dup1\n      0xc01a8c84\n      eq\n      tag_10\n      jumpi\n      dup1\n      0xc6427474\n      eq\n      tag_11\n      jumpi\n      dup1\n      0xee22610b\n      eq\n      tag_12\n      jumpi\n      0x00\n      dup1\n      revert\n    tag_13:\n      dup1\n      0x025e7c27\n      eq\n      tag_3\n      jumpi\n      dup1\n      0x20ea8d86\n      eq\n      tag_4\n      jumpi\n      dup1\n      0x2f54bf6e\n      eq\n      tag_5\n      jumpi\n      dup1\n      0x80f59a65\n      eq\n      tag_6\n      jumpi\n      dup1\n      0x8d068043\n      eq\n      tag_7\n      jumpi\n      0x00\n      dup1\n      revert\n    tag_1:\n      jumpi(tag_2, calldatasize)\n      stop\n    tag_2:\n      0x00\n      dup1\n      revert\n        /* \"Smart-Contracts/PNJC_Multisig.sol\":1502:1525  address[] public owners */\n    tag_3:\n      callvalue\n      dup1\n      iszero\n      tag_16\n      jumpi\n      0x00\n      dup1\n      revert\n    tag_16:\n      pop\n      tag_17\n      tag_18\n      calldatasize\n      0x04\n      tag_19\n      jump\t// in\n    tag_18:\n      tag_20\n      jump\t// in\n    tag_17:\n      mload(0x40)\n      sub(shl(0xa0, 0x01), 0x01)\n        /* \"#utility.yul\":363:395   */\n      swap1\n      swap2\n      and\n        /* \"#utility.yul\":345:396   */\n      dup2\n      mstore\n        /* \"#utility.yul\":333:335   */\n      0x20\n        /* \"#utility.yul\":318:336   */\n      add\n        /* \"Smart-Contracts/PNJC_Multisig.sol\":1502:1525  address[] public owners */\n    tag_21:\n      mload(0x40)\n      dup1\n      swap2\n      sub\n      swap1\n      return\n        /* \"Smart-Contracts/PNJC_Multisig.sol\":6951:7373  function revokeConfirmation(uint256 _txIndex) ... */\n    tag_4:\n      callvalue\n      dup1\n      iszero\n      tag_23\n      jumpi\n      0x00\n      dup1\n      revert\n    tag_23:\n      pop\n      tag_24\n      tag_25\n      calldatasize\n      0x04\n      tag_19\n      jump\t// in\n    tag_25:\n      tag_26\n      jump\t// in\n    tag_24:\n      stop\n        /* \"Smart-Contracts/PNJC_Multisig.sol\":1532:1571  mapping(address => bool) public isOwner */\n    tag_5:\n      callvalue\n      dup1\n      iszero\n      tag_27\n      jumpi\n      0x00\n      dup1\n      revert\n    tag_27:\n      pop\n      tag_28\n      tag_29\n      calldatasize\n      0x04\n      tag_30\n      jump\t// in\n    tag_29:\n      mstore(0x20, 0x01)\n      0x00\n      swap1\n      dup2\n      mstore\n      0x40\n      swap1\n      keccak256\n      sload\n      0xff\n      and\n      dup2\n      jump\n    tag_28:\n      mload(0x40)\n        /* \"#utility.yul\":941:955   */\n      swap1\n      iszero\n        /* \"#utility.yul\":934:956   */\n      iszero\n        /* \"#utility.yul\":916:957   */\n      dup2\n      mstore\n        /* \"#utility.yul\":904:906   */\n      0x20\n        /* \"#utility.yul\":889:907   */\n      add\n        /* \"Smart-Contracts/PNJC_Multisig.sol\":1532:1571  mapping(address => bool) public isOwner */\n      tag_21\n        /* \"#utility.yul\":776:963   */\n      jump\n        /* \"Smart-Contracts/PNJC_Multisig.sol\":2057:2120  mapping(uint256 => mapping(address => bool)) public isConfirmed */\n    tag_6:\n      callvalue\n      dup1\n      iszero\n      tag_34\n      jumpi\n      0x00\n      dup1\n      revert\n    tag_34:\n      pop\n      tag_28\n      tag_36\n      calldatasize\n      0x04\n      tag_37\n      jump\t// in\n    tag_36:\n      0x03\n      0x20\n      swap1\n      dup2\n      mstore\n      0x00\n      swap3\n      dup4\n      mstore\n      0x40\n      dup1\n      dup5\n      keccak256\n      swap1\n      swap2\n      mstore\n      swap1\n      dup3\n      mstore\n      swap1\n      keccak256\n      sload\n      0xff\n      and\n      dup2\n      jump\n        /* \"Smart-Contracts/PNJC_Multisig.sol\":1578:1611  uint256 public requiredSignatures */\n    tag_7:\n      callvalue\n      dup1\n      iszero\n      tag_40\n      jumpi\n      0x00\n      dup1\n      revert\n    tag_40:\n      pop\n      tag_41\n      sload(0x02)\n      dup2\n      jump\n    tag_41:\n      mload(0x40)\n        /* \"#utility.yul\":1373:1398   */\n      swap1\n      dup2\n      mstore\n        /* \"#utility.yul\":1361:1363   */\n      0x20\n        /* \"#utility.yul\":1346:1364   */\n      add\n        /* \"Smart-Contracts/PNJC_Multisig.sol\":1578:1611  uint256 public requiredSignatures */\n      tag_21\n        /* \"#utility.yul\":1227:1404   */\n      jump\n        /* \"Smart-Contracts/PNJC_Multisig.sol\":2127:2160  Transaction[] public transactions */\n    tag_8:\n      callvalue\n      dup1\n      iszero\n      tag_45\n      jumpi\n      0x00\n      dup1\n      revert\n    tag_45:\n      pop\n      tag_46\n      tag_47\n      calldatasize\n      0x04\n      tag_19\n      jump\t// in\n    tag_47:\n      tag_48\n      jump\t// in\n    tag_46:\n      mload(0x40)\n      tag_21\n      swap6\n      swap5\n      swap4\n      swap3\n      swap2\n      swap1\n      tag_50\n      jump\t// in\n        /* \"Smart-Contracts/PNJC_Multisig.sol\":7495:7589  function getOwners() external view returns (address[] memory) {... */\n    tag_9:\n      callvalue\n      dup1\n      iszero\n      tag_51\n      jumpi\n      0x00\n      dup1\n      revert\n    tag_51:\n      pop\n      tag_52\n      tag_53\n      jump\t// in\n    tag_52:\n      mload(0x40)\n      tag_21\n      swap2\n      swap1\n      tag_55\n      jump\t// in\n        /* \"Smart-Contracts/PNJC_Multisig.sol\":5164:5789  function confirmTransaction(uint256 _txIndex) ... */\n    tag_10:\n      callvalue\n      dup1\n      iszero\n      tag_56\n      jumpi\n      0x00\n      dup1\n      revert\n    tag_56:\n      pop\n      tag_24\n      tag_58\n      calldatasize\n      0x04\n      tag_19\n      jump\t// in\n    tag_58:\n      tag_59\n      jump\t// in\n        /* \"Smart-Contracts/PNJC_Multisig.sol\":4375:4925  function submitTransaction(address _to, uint256 _value, bytes memory _data) ... */\n    tag_11:\n      callvalue\n      dup1\n      iszero\n      tag_60\n      jumpi\n      0x00\n      dup1\n      revert\n    tag_60:\n      pop\n      tag_24\n      tag_62\n      calldatasize\n      0x04\n      tag_63\n      jump\t// in\n    tag_62:\n      tag_64\n      jump\t// in\n        /* \"Smart-Contracts/PNJC_Multisig.sol\":6052:6800  function executeTransaction(uint256 _txIndex) ... */\n    tag_12:\n      callvalue\n      dup1\n      iszero\n      tag_65\n      jumpi\n      0x00\n      dup1\n      revert\n    tag_65:\n      pop\n      tag_24\n      tag_67\n      calldatasize\n      0x04\n      tag_19\n      jump\t// in\n    tag_67:\n      tag_68\n      jump\t// in\n        /* \"Smart-Contracts/PNJC_Multisig.sol\":1502:1525  address[] public owners */\n    tag_20:\n      0x00\n      dup2\n      dup2\n      sload\n      dup2\n      lt\n      tag_69\n      jumpi\n      0x00\n      dup1\n      revert\n    tag_69:\n      0x00\n      swap2\n      dup3\n      mstore\n      0x20\n      swap1\n      swap2\n      keccak256\n      add\n      sload\n      sub(shl(0xa0, 0x01), 0x01)\n      and\n      swap1\n      pop\n      dup2\n      jump\t// out\n        /* \"Smart-Contracts/PNJC_Multisig.sol\":6951:7373  function revokeConfirmation(uint256 _txIndex) ... */\n    tag_26:\n        /* \"Smart-Contracts/PNJC_Multisig.sol\":2356:2366  msg.sender */\n      caller\n        /* \"Smart-Contracts/PNJC_Multisig.sol\":2348:2367  isOwner[msg.sender] */\n      0x00\n      swap1\n      dup2\n      mstore\n        /* \"Smart-Contracts/PNJC_Multisig.sol\":2348:2355  isOwner */\n      0x01\n        /* \"Smart-Contracts/PNJC_Multisig.sol\":2348:2367  isOwner[msg.sender] */\n      0x20\n      mstore\n      0x40\n      swap1\n      keccak256\n      sload\n      0xff\n      and\n        /* \"Smart-Contracts/PNJC_Multisig.sol\":2340:2400  require(isOwner[msg.sender], \"PNJC Treasury: Access denied\") */\n      tag_72\n      jumpi\n      mload(0x40)\n      shl(0xe5, 0x461bcd)\n      dup2\n      mstore\n      0x04\n      add\n      tag_73\n      swap1\n      tag_74\n      jump\t// in\n    tag_73:\n      mload(0x40)\n      dup1\n      swap2\n      sub\n      swap1\n      revert\n    tag_72:\n        /* \"Smart-Contracts/PNJC_Multisig.sol\":2588:2600  transactions */\n      0x04\n        /* \"Smart-Contracts/PNJC_Multisig.sol\":2588:2607  transactions.length */\n      sload\n        /* \"Smart-Contracts/PNJC_Multisig.sol\":7055:7063  _txIndex */\n      dup2\n      swap1\n        /* \"Smart-Contracts/PNJC_Multisig.sol\":2577:2607  _txIndex < transactions.length */\n      dup2\n      lt\n        /* \"Smart-Contracts/PNJC_Multisig.sol\":2569:2644  require(_txIndex < transactions.length, \"PNJC Treasury: Tx does not exist\") */\n      tag_76\n      jumpi\n      mload(0x40)\n      shl(0xe5, 0x461bcd)\n      dup2\n      mstore\n      0x04\n      add\n      tag_73\n      swap1\n      tag_78\n      jump\t// in\n    tag_76:\n        /* \"Smart-Contracts/PNJC_Multisig.sol\":7087:7095  _txIndex */\n      dup2\n        /* \"Smart-Contracts/PNJC_Multisig.sol\":2829:2841  transactions */\n      0x04\n        /* \"Smart-Contracts/PNJC_Multisig.sol\":2842:2850  _txIndex */\n      dup2\n        /* \"Smart-Contracts/PNJC_Multisig.sol\":2829:2851  transactions[_txIndex] */\n      dup2\n      sload\n      dup2\n      lt\n      tag_81\n      jumpi\n      tag_81\n      tag_82\n      jump\t// in\n    tag_81:\n      0x00\n      swap2\n      dup3\n      mstore\n      0x20\n      swap1\n      swap2\n      keccak256\n        /* \"Smart-Contracts/PNJC_Multisig.sol\":2829:2860  transactions[_txIndex].executed */\n      0x03\n        /* \"Smart-Contracts/PNJC_Multisig.sol\":2829:2851  transactions[_txIndex] */\n      0x05\n      swap1\n      swap3\n      mul\n      add\n        /* \"Smart-Contracts/PNJC_Multisig.sol\":2829:2860  transactions[_txIndex].executed */\n      add\n      sload\n      0xff\n      and\n        /* \"Smart-Contracts/PNJC_Multisig.sol\":2828:2860  !transactions[_txIndex].executed */\n      iszero\n        /* \"Smart-Contracts/PNJC_Multisig.sol\":2820:2900  require(!transactions[_txIndex].executed, \"PNJC Treasury: Tx already processed\") */\n      tag_84\n      jumpi\n      mload(0x40)\n      shl(0xe5, 0x461bcd)\n      dup2\n      mstore\n      0x04\n      add\n      tag_73\n      swap1\n      tag_86\n      jump\t// in\n    tag_84:\n        /* \"Smart-Contracts/PNJC_Multisig.sol\":7122:7143  isConfirmed[_txIndex] */\n      0x00\n      dup4\n      dup2\n      mstore\n        /* \"Smart-Contracts/PNJC_Multisig.sol\":7122:7133  isConfirmed */\n      0x03\n        /* \"Smart-Contracts/PNJC_Multisig.sol\":7122:7143  isConfirmed[_txIndex] */\n      0x20\n      swap1\n      dup2\n      mstore\n      0x40\n      dup1\n      dup4\n      keccak256\n        /* \"Smart-Contracts/PNJC_Multisig.sol\":7144:7154  msg.sender */\n      caller\n        /* \"Smart-Contracts/PNJC_Multisig.sol\":7122:7155  isConfirmed[_txIndex][msg.sender] */\n      dup5\n      mstore\n      swap1\n      swap2\n      mstore\n      swap1\n      keccak256\n      sload\n      0xff\n      and\n        /* \"Smart-Contracts/PNJC_Multisig.sol\":7114:7201  require(isConfirmed[_txIndex][msg.sender], \"PNJC Treasury: Tx not confirmed by caller\") */\n      tag_88\n      jumpi\n      mload(0x40)\n      shl(0xe5, 0x461bcd)\n      dup2\n      mstore\n        /* \"#utility.yul\":5700:5702   */\n      0x20\n        /* \"Smart-Contracts/PNJC_Multisig.sol\":7114:7201  require(isConfirmed[_txIndex][msg.sender], \"PNJC Treasury: Tx not confirmed by caller\") */\n      0x04\n      dup3\n      add\n        /* \"#utility.yul\":5682:5703   */\n      mstore\n        /* \"#utility.yul\":5739:5741   */\n      0x29\n        /* \"#utility.yul\":5719:5737   */\n      0x24\n      dup3\n      add\n        /* \"#utility.yul\":5712:5742   */\n      mstore\n        /* \"#utility.yul\":5778:5812   */\n      0x504e4a432054726561737572793a205478206e6f7420636f6e6669726d656420\n        /* \"#utility.yul\":5758:5776   */\n      0x44\n      dup3\n      add\n        /* \"#utility.yul\":5751:5813   */\n      mstore\n      shl(0xb9, 0x313c9031b0b63632b9)\n        /* \"#utility.yul\":5829:5847   */\n      0x64\n      dup3\n      add\n        /* \"#utility.yul\":5822:5861   */\n      mstore\n        /* \"#utility.yul\":5878:5897   */\n      0x84\n      add\n        /* \"Smart-Contracts/PNJC_Multisig.sol\":7114:7201  require(isConfirmed[_txIndex][msg.sender], \"PNJC Treasury: Tx not confirmed by caller\") */\n      tag_73\n        /* \"#utility.yul\":5498:5903   */\n      jump\n        /* \"Smart-Contracts/PNJC_Multisig.sol\":7114:7201  require(isConfirmed[_txIndex][msg.sender], \"PNJC Treasury: Tx not confirmed by caller\") */\n    tag_88:\n        /* \"Smart-Contracts/PNJC_Multisig.sol\":7254:7255  1 */\n      0x01\n        /* \"Smart-Contracts/PNJC_Multisig.sol\":7214:7226  transactions */\n      0x04\n        /* \"Smart-Contracts/PNJC_Multisig.sol\":7227:7235  _txIndex */\n      dup5\n        /* \"Smart-Contracts/PNJC_Multisig.sol\":7214:7236  transactions[_txIndex] */\n      dup2\n      sload\n      dup2\n      lt\n      tag_92\n      jumpi\n      tag_92\n      tag_82\n      jump\t// in\n    tag_92:\n      swap1\n      0x00\n      mstore\n      keccak256(0x00, 0x20)\n      swap1\n      0x05\n      mul\n      add\n        /* \"Smart-Contracts/PNJC_Multisig.sol\":7214:7250  transactions[_txIndex].approvalCount */\n      0x04\n      add\n      0x00\n        /* \"Smart-Contracts/PNJC_Multisig.sol\":7214:7255  transactions[_txIndex].approvalCount -= 1 */\n      dup3\n      dup3\n      sload\n      tag_94\n      swap2\n      swap1\n      tag_95\n      jump\t// in\n    tag_94:\n      swap1\n      swap2\n      sstore\n      pop\n      pop\n        /* \"Smart-Contracts/PNJC_Multisig.sol\":7302:7307  false */\n      0x00\n        /* \"Smart-Contracts/PNJC_Multisig.sol\":7266:7287  isConfirmed[_txIndex] */\n      dup4\n      dup2\n      mstore\n        /* \"Smart-Contracts/PNJC_Multisig.sol\":7266:7277  isConfirmed */\n      0x03\n        /* \"Smart-Contracts/PNJC_Multisig.sol\":7266:7287  isConfirmed[_txIndex] */\n      0x20\n      swap1\n      dup2\n      mstore\n      0x40\n      dup1\n      dup4\n      keccak256\n        /* \"Smart-Contracts/PNJC_Multisig.sol\":7288:7298  msg.sender */\n      caller\n        /* \"Smart-Contracts/PNJC_Multisig.sol\":7266:7299  isConfirmed[_txIndex][msg.sender] */\n      dup1\n      dup6\n      mstore\n      swap3\n      mstore\n      dup1\n      dup4\n      keccak256\n        /* \"Smart-Contracts/PNJC_Multisig.sol\":7266:7307  isConfirmed[_txIndex][msg.sender] = false */\n      dup1\n      sload\n      not(0xff)\n      and\n      swap1\n      sstore\n        /* \"Smart-Contracts/PNJC_Multisig.sol\":7325:7365  TransactionRevoked(_txIndex, msg.sender) */\n      mload\n        /* \"Smart-Contracts/PNJC_Multisig.sol\":7288:7298  msg.sender */\n      swap1\n      swap2\n        /* \"Smart-Contracts/PNJC_Multisig.sol\":7278:7286  _txIndex */\n      dup6\n      swap2\n        /* \"Smart-Contracts/PNJC_Multisig.sol\":7325:7365  TransactionRevoked(_txIndex, msg.sender) */\n      0x4cd471041f6b9ff47536a54a3d3ab62d0fa9dd5e36c0418b294b1673acb31881\n      swap2\n        /* \"Smart-Contracts/PNJC_Multisig.sol\":7302:7307  false */\n      swap1\n        /* \"Smart-Contracts/PNJC_Multisig.sol\":7325:7365  TransactionRevoked(_txIndex, msg.sender) */\n      log3\n        /* \"Smart-Contracts/PNJC_Multisig.sol\":2655:2656  _ */\n      pop\n        /* \"Smart-Contracts/PNJC_Multisig.sol\":2411:2412  _ */\n      pop\n        /* \"Smart-Contracts/PNJC_Multisig.sol\":6951:7373  function revokeConfirmation(uint256 _txIndex) ... */\n      pop\n      jump\t// out\n        /* \"Smart-Contracts/PNJC_Multisig.sol\":2127:2160  Transaction[] public transactions */\n    tag_48:\n      0x04\n      dup2\n      dup2\n      sload\n      dup2\n      lt\n      tag_96\n      jumpi\n      0x00\n      dup1\n      revert\n    tag_96:\n      0x00\n      swap2\n      dup3\n      mstore\n      0x20\n      swap1\n      swap2\n      keccak256\n      0x05\n      swap1\n      swap2\n      mul\n      add\n      dup1\n      sload\n      0x01\n      dup3\n      add\n      sload\n      0x02\n      dup4\n      add\n      dup1\n      sload\n      sub(shl(0xa0, 0x01), 0x01)\n      swap1\n      swap4\n      and\n      swap5\n      pop\n      swap1\n      swap3\n      swap2\n      tag_98\n      swap1\n      tag_99\n      jump\t// in\n    tag_98:\n      dup1\n      0x1f\n      add\n      0x20\n      dup1\n      swap2\n      div\n      mul\n      0x20\n      add\n      mload(0x40)\n      swap1\n      dup2\n      add\n      0x40\n      mstore\n      dup1\n      swap3\n      swap2\n      swap1\n      dup2\n      dup2\n      mstore\n      0x20\n      add\n      dup3\n      dup1\n      sload\n      tag_100\n      swap1\n      tag_99\n      jump\t// in\n    tag_100:\n      dup1\n      iszero\n      tag_101\n      jumpi\n      dup1\n      0x1f\n      lt\n      tag_102\n      jumpi\n      0x0100\n      dup1\n      dup4\n      sload\n      div\n      mul\n      dup4\n      mstore\n      swap2\n      0x20\n      add\n      swap2\n      jump(tag_101)\n    tag_102:\n      dup3\n      add\n      swap2\n      swap1\n      0x00\n      mstore\n      keccak256(0x00, 0x20)\n      swap1\n    tag_103:\n      dup2\n      sload\n      dup2\n      mstore\n      swap1\n      0x01\n      add\n      swap1\n      0x20\n      add\n      dup1\n      dup4\n      gt\n      tag_103\n      jumpi\n      dup3\n      swap1\n      sub\n      0x1f\n      and\n      dup3\n      add\n      swap2\n    tag_101:\n      pop\n      pop\n      pop\n      pop\n      0x03\n      dup4\n      add\n      sload\n      0x04\n      swap1\n      swap4\n      add\n      sload\n      swap2\n      swap3\n      0xff\n      and\n      swap2\n      swap1\n      pop\n      dup6\n      jump\t// out\n        /* \"Smart-Contracts/PNJC_Multisig.sol\":7495:7589  function getOwners() external view returns (address[] memory) {... */\n    tag_53:\n        /* \"Smart-Contracts/PNJC_Multisig.sol\":7539:7555  address[] memory */\n      0x60\n        /* \"Smart-Contracts/PNJC_Multisig.sol\":7575:7581  owners */\n      0x00\n        /* \"Smart-Contracts/PNJC_Multisig.sol\":7568:7581  return owners */\n      dup1\n      sload\n      dup1\n      0x20\n      mul\n      0x20\n      add\n      mload(0x40)\n      swap1\n      dup2\n      add\n      0x40\n      mstore\n      dup1\n      swap3\n      swap2\n      swap1\n      dup2\n      dup2\n      mstore\n      0x20\n      add\n      dup3\n      dup1\n      sload\n      dup1\n      iszero\n      tag_105\n      jumpi\n      0x20\n      mul\n      dup3\n      add\n      swap2\n      swap1\n      0x00\n      mstore\n      keccak256(0x00, 0x20)\n      swap1\n    tag_106:\n      dup2\n      sload\n      sub(shl(0xa0, 0x01), 0x01)\n      and\n      dup2\n      mstore\n      0x01\n      swap1\n      swap2\n      add\n      swap1\n      0x20\n      add\n      dup1\n      dup4\n      gt\n      tag_106\n      jumpi\n    tag_105:\n      pop\n      pop\n      pop\n      pop\n      pop\n      swap1\n      pop\n        /* \"Smart-Contracts/PNJC_Multisig.sol\":7495:7589  function getOwners() external view returns (address[] memory) {... */\n      swap1\n      jump\t// out\n        /* \"Smart-Contracts/PNJC_Multisig.sol\":5164:5789  function confirmTransaction(uint256 _txIndex) ... */\n    tag_59:\n        /* \"Smart-Contracts/PNJC_Multisig.sol\":2356:2366  msg.sender */\n      caller\n        /* \"Smart-Contracts/PNJC_Multisig.sol\":2348:2367  isOwner[msg.sender] */\n      0x00\n      swap1\n      dup2\n      mstore\n        /* \"Smart-Contracts/PNJC_Multisig.sol\":2348:2355  isOwner */\n      0x01\n        /* \"Smart-Contracts/PNJC_Multisig.sol\":2348:2367  isOwner[msg.sender] */\n      0x20\n      mstore\n      0x40\n      swap1\n      keccak256\n      sload\n      0xff\n      and\n        /* \"Smart-Contracts/PNJC_Multisig.sol\":2340:2400  require(isOwner[msg.sender], \"PNJC Treasury: Access denied\") */\n      tag_108\n      jumpi\n      mload(0x40)\n      shl(0xe5, 0x461bcd)\n      dup2\n      mstore\n      0x04\n      add\n      tag_73\n      swap1\n      tag_74\n      jump\t// in\n    tag_108:\n        /* \"Smart-Contracts/PNJC_Multisig.sol\":2588:2600  transactions */\n      0x04\n        /* \"Smart-Contracts/PNJC_Multisig.sol\":2588:2607  transactions.length */\n      sload\n        /* \"Smart-Contracts/PNJC_Multisig.sol\":5266:5274  _txIndex */\n      dup2\n      swap1\n        /* \"Smart-Contracts/PNJC_Multisig.sol\":2577:2607  _txIndex < transactions.length */\n      dup2\n      lt\n        /* \"Smart-Contracts/PNJC_Multisig.sol\":2569:2644  require(_txIndex < transactions.length, \"PNJC Treasury: Tx does not exist\") */\n      tag_111\n      jumpi\n      mload(0x40)\n      shl(0xe5, 0x461bcd)\n      dup2\n      mstore\n      0x04\n      add\n      tag_73\n      swap1\n      tag_78\n      jump\t// in\n    tag_111:\n        /* \"Smart-Contracts/PNJC_Multisig.sol\":5298:5306  _txIndex */\n      dup2\n        /* \"Smart-Contracts/PNJC_Multisig.sol\":2829:2841  transactions */\n      0x04\n        /* \"Smart-Contracts/PNJC_Multisig.sol\":2842:2850  _txIndex */\n      dup2\n        /* \"Smart-Contracts/PNJC_Multisig.sol\":2829:2851  transactions[_txIndex] */\n      dup2\n      sload\n      dup2\n      lt\n      tag_115\n      jumpi\n      tag_115\n      tag_82\n      jump\t// in\n    tag_115:\n      0x00\n      swap2\n      dup3\n      mstore\n      0x20\n      swap1\n      swap2\n      keccak256\n        /* \"Smart-Contracts/PNJC_Multisig.sol\":2829:2860  transactions[_txIndex].executed */\n      0x03\n        /* \"Smart-Contracts/PNJC_Multisig.sol\":2829:2851  transactions[_txIndex] */\n      0x05\n      swap1\n      swap3\n      mul\n      add\n        /* \"Smart-Contracts/PNJC_Multisig.sol\":2829:2860  transactions[_txIndex].executed */\n      add\n      sload\n      0xff\n      and\n        /* \"Smart-Contracts/PNJC_Multisig.sol\":2828:2860  !transactions[_txIndex].executed */\n      iszero\n        /* \"Smart-Contracts/PNJC_Multisig.sol\":2820:2900  require(!transactions[_txIndex].executed, \"PNJC Treasury: Tx already processed\") */\n      tag_117\n      jumpi\n      mload(0x40)\n      shl(0xe5, 0x461bcd)\n      dup2\n      mstore\n      0x04\n      add\n      tag_73\n      swap1\n      tag_86\n      jump\t// in\n    tag_117:\n        /* \"Smart-Contracts/PNJC_Multisig.sol\":5334:5355  isConfirmed[_txIndex] */\n      0x00\n      dup4\n      dup2\n      mstore\n        /* \"Smart-Contracts/PNJC_Multisig.sol\":5334:5345  isConfirmed */\n      0x03\n        /* \"Smart-Contracts/PNJC_Multisig.sol\":5334:5355  isConfirmed[_txIndex] */\n      0x20\n      swap1\n      dup2\n      mstore\n      0x40\n      dup1\n      dup4\n      keccak256\n        /* \"Smart-Contracts/PNJC_Multisig.sol\":5356:5366  msg.sender */\n      caller\n        /* \"Smart-Contracts/PNJC_Multisig.sol\":5334:5367  isConfirmed[_txIndex][msg.sender] */\n      dup5\n      mstore\n      swap1\n      swap2\n      mstore\n      swap1\n      keccak256\n      sload\n      0xff\n      and\n        /* \"Smart-Contracts/PNJC_Multisig.sol\":5333:5367  !isConfirmed[_txIndex][msg.sender] */\n      iszero\n        /* \"Smart-Contracts/PNJC_Multisig.sol\":5325:5414  require(!isConfirmed[_txIndex][msg.sender], \"PNJC Treasury: Already confirmed by caller\") */\n      tag_120\n      jumpi\n      mload(0x40)\n      shl(0xe5, 0x461bcd)\n      dup2\n      mstore\n        /* \"#utility.yul\":6760:6762   */\n      0x20\n        /* \"Smart-Contracts/PNJC_Multisig.sol\":5325:5414  require(!isConfirmed[_txIndex][msg.sender], \"PNJC Treasury: Already confirmed by caller\") */\n      0x04\n      dup3\n      add\n        /* \"#utility.yul\":6742:6763   */\n      mstore\n        /* \"#utility.yul\":6799:6801   */\n      0x2a\n        /* \"#utility.yul\":6779:6797   */\n      0x24\n      dup3\n      add\n        /* \"#utility.yul\":6772:6802   */\n      mstore\n        /* \"#utility.yul\":6838:6872   */\n      0x504e4a432054726561737572793a20416c726561647920636f6e6669726d6564\n        /* \"#utility.yul\":6818:6836   */\n      0x44\n      dup3\n      add\n        /* \"#utility.yul\":6811:6873   */\n      mstore\n      shl(0xb1, 0x10313c9031b0b63632b9)\n        /* \"#utility.yul\":6889:6907   */\n      0x64\n      dup3\n      add\n        /* \"#utility.yul\":6882:6922   */\n      mstore\n        /* \"#utility.yul\":6939:6958   */\n      0x84\n      add\n        /* \"Smart-Contracts/PNJC_Multisig.sol\":5325:5414  require(!isConfirmed[_txIndex][msg.sender], \"PNJC Treasury: Already confirmed by caller\") */\n      tag_73\n        /* \"#utility.yul\":6558:6964   */\n      jump\n        /* \"Smart-Contracts/PNJC_Multisig.sol\":5325:5414  require(!isConfirmed[_txIndex][msg.sender], \"PNJC Treasury: Already confirmed by caller\") */\n    tag_120:\n        /* \"Smart-Contracts/PNJC_Multisig.sol\":5475:5476  1 */\n      0x01\n        /* \"Smart-Contracts/PNJC_Multisig.sol\":5435:5447  transactions */\n      0x04\n        /* \"Smart-Contracts/PNJC_Multisig.sol\":5448:5456  _txIndex */\n      dup5\n        /* \"Smart-Contracts/PNJC_Multisig.sol\":5435:5457  transactions[_txIndex] */\n      dup2\n      sload\n      dup2\n      lt\n      tag_124\n      jumpi\n      tag_124\n      tag_82\n      jump\t// in\n    tag_124:\n      swap1\n      0x00\n      mstore\n      keccak256(0x00, 0x20)\n      swap1\n      0x05\n      mul\n      add\n        /* \"Smart-Contracts/PNJC_Multisig.sol\":5435:5471  transactions[_txIndex].approvalCount */\n      0x04\n      add\n      0x00\n        /* \"Smart-Contracts/PNJC_Multisig.sol\":5435:5476  transactions[_txIndex].approvalCount += 1 */\n      dup3\n      dup3\n      sload\n      tag_126\n      swap2\n      swap1\n      tag_127\n      jump\t// in\n    tag_126:\n      swap1\n      swap2\n      sstore\n      pop\n      pop\n        /* \"Smart-Contracts/PNJC_Multisig.sol\":5487:5508  isConfirmed[_txIndex] */\n      0x00\n      dup4\n      dup2\n      mstore\n        /* \"Smart-Contracts/PNJC_Multisig.sol\":5487:5498  isConfirmed */\n      0x03\n        /* \"Smart-Contracts/PNJC_Multisig.sol\":5487:5508  isConfirmed[_txIndex] */\n      0x20\n      swap1\n      dup2\n      mstore\n      0x40\n      dup1\n      dup4\n      keccak256\n        /* \"Smart-Contracts/PNJC_Multisig.sol\":5509:5519  msg.sender */\n      caller\n        /* \"Smart-Contracts/PNJC_Multisig.sol\":5487:5520  isConfirmed[_txIndex][msg.sender] */\n      dup1\n      dup6\n      mstore\n      swap3\n      mstore\n      dup1\n      dup4\n      keccak256\n        /* \"Smart-Contracts/PNJC_Multisig.sol\":5487:5527  isConfirmed[_txIndex][msg.sender] = true */\n      dup1\n      sload\n      not(0xff)\n      and\n        /* \"Smart-Contracts/PNJC_Multisig.sol\":5523:5527  true */\n      0x01\n        /* \"Smart-Contracts/PNJC_Multisig.sol\":5487:5527  isConfirmed[_txIndex][msg.sender] = true */\n      or\n      swap1\n      sstore\n        /* \"Smart-Contracts/PNJC_Multisig.sol\":5545:5587  TransactionConfirmed(_txIndex, msg.sender) */\n      mload\n        /* \"Smart-Contracts/PNJC_Multisig.sol\":5509:5519  msg.sender */\n      swap1\n      swap2\n        /* \"Smart-Contracts/PNJC_Multisig.sol\":5499:5507  _txIndex */\n      dup6\n      swap2\n        /* \"Smart-Contracts/PNJC_Multisig.sol\":5545:5587  TransactionConfirmed(_txIndex, msg.sender) */\n      0x15c2f311c9e0f53b50388279894aeff029a3457884a6601e924fca879e12adcc\n      swap2\n        /* \"Smart-Contracts/PNJC_Multisig.sol\":5487:5508  isConfirmed[_txIndex] */\n      swap1\n        /* \"Smart-Contracts/PNJC_Multisig.sol\":5545:5587  TransactionConfirmed(_txIndex, msg.sender) */\n      log3\n        /* \"Smart-Contracts/PNJC_Multisig.sol\":5707:5725  requiredSignatures */\n      sload(0x02)\n        /* \"Smart-Contracts/PNJC_Multisig.sol\":5667:5679  transactions */\n      0x04\n        /* \"Smart-Contracts/PNJC_Multisig.sol\":5680:5688  _txIndex */\n      dup5\n        /* \"Smart-Contracts/PNJC_Multisig.sol\":5667:5689  transactions[_txIndex] */\n      dup2\n      sload\n      dup2\n      lt\n      tag_129\n      jumpi\n      tag_129\n      tag_82\n      jump\t// in\n    tag_129:\n      swap1\n      0x00\n      mstore\n      keccak256(0x00, 0x20)\n      swap1\n      0x05\n      mul\n      add\n        /* \"Smart-Contracts/PNJC_Multisig.sol\":5667:5703  transactions[_txIndex].approvalCount */\n      0x04\n      add\n      sload\n        /* \"Smart-Contracts/PNJC_Multisig.sol\":5667:5725  transactions[_txIndex].approvalCount >= requiredSignatures */\n      lt\n        /* \"Smart-Contracts/PNJC_Multisig.sol\":5663:5782  if (transactions[_txIndex].approvalCount >= requiredSignatures) {... */\n      tag_132\n      jumpi\n        /* \"Smart-Contracts/PNJC_Multisig.sol\":5742:5770  executeTransaction(_txIndex) */\n      tag_132\n        /* \"Smart-Contracts/PNJC_Multisig.sol\":5761:5769  _txIndex */\n      dup4\n        /* \"Smart-Contracts/PNJC_Multisig.sol\":5742:5760  executeTransaction */\n      tag_68\n        /* \"Smart-Contracts/PNJC_Multisig.sol\":5742:5770  executeTransaction(_txIndex) */\n      jump\t// in\n    tag_132:\n        /* \"Smart-Contracts/PNJC_Multisig.sol\":2655:2656  _ */\n      pop\n        /* \"Smart-Contracts/PNJC_Multisig.sol\":2411:2412  _ */\n      pop\n        /* \"Smart-Contracts/PNJC_Multisig.sol\":5164:5789  function confirmTransaction(uint256 _txIndex) ... */\n      pop\n      jump\t// out\n        /* \"Smart-Contracts/PNJC_Multisig.sol\":4375:4925  function submitTransaction(address _to, uint256 _value, bytes memory _data) ... */\n    tag_64:\n        /* \"Smart-Contracts/PNJC_Multisig.sol\":2356:2366  msg.sender */\n      caller\n        /* \"Smart-Contracts/PNJC_Multisig.sol\":2348:2367  isOwner[msg.sender] */\n      0x00\n      swap1\n      dup2\n      mstore\n        /* \"Smart-Contracts/PNJC_Multisig.sol\":2348:2355  isOwner */\n      0x01\n        /* \"Smart-Contracts/PNJC_Multisig.sol\":2348:2367  isOwner[msg.sender] */\n      0x20\n      mstore\n      0x40\n      swap1\n      keccak256\n      sload\n      0xff\n      and\n        /* \"Smart-Contracts/PNJC_Multisig.sol\":2340:2400  require(isOwner[msg.sender], \"PNJC Treasury: Access denied\") */\n      tag_134\n      jumpi\n      mload(0x40)\n      shl(0xe5, 0x461bcd)\n      dup2\n      mstore\n      0x04\n      add\n      tag_73\n      swap1\n      tag_74\n      jump\t// in\n    tag_134:\n        /* \"Smart-Contracts/PNJC_Multisig.sol\":4525:4537  transactions */\n      0x04\n        /* \"Smart-Contracts/PNJC_Multisig.sol\":4525:4544  transactions.length */\n      dup1\n      sload\n        /* \"Smart-Contracts/PNJC_Multisig.sol\":4573:4734  Transaction({... */\n      0x40\n      dup1\n      mload\n      0xa0\n      dup2\n      add\n      dup3\n      mstore\n      sub(shl(0xa0, 0x01), 0x01)\n      dup8\n      dup2\n      and\n      dup3\n      mstore\n      0x20\n      dup3\n      add\n      dup8\n      dup2\n      mstore\n      swap3\n      dup3\n      add\n      dup7\n      dup2\n      mstore\n      0x00\n      0x60\n      dup5\n      add\n      dup2\n      swap1\n      mstore\n      0x80\n      dup5\n      add\n      dup2\n      swap1\n      mstore\n      0x01\n        /* \"Smart-Contracts/PNJC_Multisig.sol\":4555:4735  transactions.push(Transaction({... */\n      dup7\n      add\n      dup8\n      sstore\n      swap6\n      swap1\n      swap6\n      mstore\n      dup2\n      mload\n      0x8a35acfbc15ff81a39ae7d344fd709f28e8600b4aa8c65c6b64bfe7fe36bd19b\n      0x05\n      dup7\n      mul\n      swap1\n      dup2\n      add\n      dup1\n      sload\n      not(sub(shl(0xa0, 0x01), 0x01))\n      and\n      swap3\n      swap1\n      swap4\n      and\n      swap2\n      swap1\n      swap2\n      or\n      dup3\n      sstore\n      swap3\n      mload\n      0x8a35acfbc15ff81a39ae7d344fd709f28e8600b4aa8c65c6b64bfe7fe36bd19c\n      dup5\n      add\n      sstore\n      swap4\n      mload\n        /* \"Smart-Contracts/PNJC_Multisig.sol\":4525:4544  transactions.length */\n      swap3\n      swap4\n        /* \"Smart-Contracts/PNJC_Multisig.sol\":4573:4734  Transaction({... */\n      swap1\n      swap3\n        /* \"Smart-Contracts/PNJC_Multisig.sol\":4555:4735  transactions.push(Transaction({... */\n      swap1\n      swap2\n      0x8a35acfbc15ff81a39ae7d344fd709f28e8600b4aa8c65c6b64bfe7fe36bd19d\n      add\n      swap1\n      tag_138\n      swap1\n      dup3\n      tag_139\n      jump\t// in\n    tag_138:\n      pop\n      0x60\n      dup3\n      add\n      mload\n      0x03\n      dup3\n      add\n      dup1\n      sload\n      not(0xff)\n      and\n      swap2\n      iszero\n      iszero\n      swap2\n      swap1\n      swap2\n      or\n      swap1\n      sstore\n      0x80\n      swap1\n      swap2\n      add\n      mload\n      0x04\n      swap1\n      swap2\n      add\n      sstore\n        /* \"Smart-Contracts/PNJC_Multisig.sol\":4753:4814  TransactionSubmitted(txIndex, msg.sender, _to, _value, _data) */\n      mload(0x40)\n      sub(shl(0xa0, 0x01), 0x01)\n      dup6\n      and\n      swap1\n        /* \"Smart-Contracts/PNJC_Multisig.sol\":4783:4793  msg.sender */\n      caller\n      swap1\n        /* \"Smart-Contracts/PNJC_Multisig.sol\":4774:4781  txIndex */\n      dup4\n      swap1\n        /* \"Smart-Contracts/PNJC_Multisig.sol\":4753:4814  TransactionSubmitted(txIndex, msg.sender, _to, _value, _data) */\n      0x2ecf8c4571be1f8a0b1e6feaa711128f3f8038e97869aa59d0f595e21f50eaa0\n      swap1\n      tag_140\n      swap1\n        /* \"Smart-Contracts/PNJC_Multisig.sol\":4800:4806  _value */\n      dup9\n      swap1\n        /* \"Smart-Contracts/PNJC_Multisig.sol\":4808:4813  _data */\n      dup9\n      swap1\n        /* \"Smart-Contracts/PNJC_Multisig.sol\":4753:4814  TransactionSubmitted(txIndex, msg.sender, _to, _value, _data) */\n      tag_141\n      jump\t// in\n    tag_140:\n      mload(0x40)\n      dup1\n      swap2\n      sub\n      swap1\n      log4\n        /* \"Smart-Contracts/PNJC_Multisig.sol\":4890:4917  confirmTransaction(txIndex) */\n      tag_142\n        /* \"Smart-Contracts/PNJC_Multisig.sol\":4909:4916  txIndex */\n      dup2\n        /* \"Smart-Contracts/PNJC_Multisig.sol\":4890:4908  confirmTransaction */\n      tag_59\n        /* \"Smart-Contracts/PNJC_Multisig.sol\":4890:4917  confirmTransaction(txIndex) */\n      jump\t// in\n    tag_142:\n        /* \"Smart-Contracts/PNJC_Multisig.sol\":4496:4925  {... */\n      pop\n        /* \"Smart-Contracts/PNJC_Multisig.sol\":4375:4925  function submitTransaction(address _to, uint256 _value, bytes memory _data) ... */\n      pop\n      pop\n      pop\n      jump\t// out\n        /* \"Smart-Contracts/PNJC_Multisig.sol\":6052:6800  function executeTransaction(uint256 _txIndex) ... */\n    tag_68:\n        /* \"Smart-Contracts/PNJC_Multisig.sol\":2356:2366  msg.sender */\n      caller\n        /* \"Smart-Contracts/PNJC_Multisig.sol\":2348:2367  isOwner[msg.sender] */\n      0x00\n      swap1\n      dup2\n      mstore\n        /* \"Smart-Contracts/PNJC_Multisig.sol\":2348:2355  isOwner */\n      0x01\n        /* \"Smart-Contracts/PNJC_Multisig.sol\":2348:2367  isOwner[msg.sender] */\n      0x20\n      mstore\n      0x40\n      swap1\n      keccak256\n      sload\n      0xff\n      and\n        /* \"Smart-Contracts/PNJC_Multisig.sol\":2340:2400  require(isOwner[msg.sender], \"PNJC Treasury: Access denied\") */\n      tag_144\n      jumpi\n      mload(0x40)\n      shl(0xe5, 0x461bcd)\n      dup2\n      mstore\n      0x04\n      add\n      tag_73\n      swap1\n      tag_74\n      jump\t// in\n    tag_144:\n        /* \"Smart-Contracts/PNJC_Multisig.sol\":2588:2600  transactions */\n      0x04\n        /* \"Smart-Contracts/PNJC_Multisig.sol\":2588:2607  transactions.length */\n      sload\n        /* \"Smart-Contracts/PNJC_Multisig.sol\":6154:6162  _txIndex */\n      dup2\n      swap1\n        /* \"Smart-Contracts/PNJC_Multisig.sol\":2577:2607  _txIndex < transactions.length */\n      dup2\n      lt\n        /* \"Smart-Contracts/PNJC_Multisig.sol\":2569:2644  require(_txIndex < transactions.length, \"PNJC Treasury: Tx does not exist\") */\n      tag_147\n      jumpi\n      mload(0x40)\n      shl(0xe5, 0x461bcd)\n      dup2\n      mstore\n      0x04\n      add\n      tag_73\n      swap1\n      tag_78\n      jump\t// in\n    tag_147:\n        /* \"Smart-Contracts/PNJC_Multisig.sol\":6186:6194  _txIndex */\n      dup2\n        /* \"Smart-Contracts/PNJC_Multisig.sol\":2829:2841  transactions */\n      0x04\n        /* \"Smart-Contracts/PNJC_Multisig.sol\":2842:2850  _txIndex */\n      dup2\n        /* \"Smart-Contracts/PNJC_Multisig.sol\":2829:2851  transactions[_txIndex] */\n      dup2\n      sload\n      dup2\n      lt\n      tag_151\n      jumpi\n      tag_151\n      tag_82\n      jump\t// in\n    tag_151:\n      0x00\n      swap2\n      dup3\n      mstore\n      0x20\n      swap1\n      swap2\n      keccak256\n        /* \"Smart-Contracts/PNJC_Multisig.sol\":2829:2860  transactions[_txIndex].executed */\n      0x03\n        /* \"Smart-Contracts/PNJC_Multisig.sol\":2829:2851  transactions[_txIndex] */\n      0x05\n      swap1\n      swap3\n      mul\n      add\n        /* \"Smart-Contracts/PNJC_Multisig.sol\":2829:2860  transactions[_txIndex].executed */\n      add\n      sload\n      0xff\n      and\n        /* \"Smart-Contracts/PNJC_Multisig.sol\":2828:2860  !transactions[_txIndex].executed */\n      iszero\n        /* \"Smart-Contracts/PNJC_Multisig.sol\":2820:2900  require(!transactions[_txIndex].executed, \"PNJC Treasury: Tx already processed\") */\n      tag_153\n      jumpi\n      mload(0x40)\n      shl(0xe5, 0x461bcd)\n      dup2\n      mstore\n      0x04\n      add\n      tag_73\n      swap1\n      tag_86\n      jump\t// in\n    tag_153:\n        /* \"@openzeppelin/contracts@5.6.0/utils/ReentrancyGuard.sol\":3023:3044  _nonReentrantBefore() */\n      tag_156\n        /* \"@openzeppelin/contracts@5.6.0/utils/ReentrancyGuard.sol\":3023:3042  _nonReentrantBefore */\n      tag_157\n        /* \"@openzeppelin/contracts@5.6.0/utils/ReentrancyGuard.sol\":3023:3044  _nonReentrantBefore() */\n      jump\t// in\n    tag_156:\n        /* \"Smart-Contracts/PNJC_Multisig.sol\":6236:6267  Transaction storage transaction */\n      0x00\n        /* \"Smart-Contracts/PNJC_Multisig.sol\":6270:6282  transactions */\n      0x04\n        /* \"Smart-Contracts/PNJC_Multisig.sol\":6283:6291  _txIndex */\n      dup5\n        /* \"Smart-Contracts/PNJC_Multisig.sol\":6270:6292  transactions[_txIndex] */\n      dup2\n      sload\n      dup2\n      lt\n      tag_160\n      jumpi\n      tag_160\n      tag_82\n      jump\t// in\n    tag_160:\n      swap1\n      0x00\n      mstore\n      keccak256(0x00, 0x20)\n      swap1\n      0x05\n      mul\n      add\n        /* \"Smart-Contracts/PNJC_Multisig.sol\":6236:6292  Transaction storage transaction = transactions[_txIndex] */\n      swap1\n      pop\n        /* \"Smart-Contracts/PNJC_Multisig.sol\":6340:6358  requiredSignatures */\n      sload(0x02)\n        /* \"Smart-Contracts/PNJC_Multisig.sol\":6311:6322  transaction */\n      dup2\n        /* \"Smart-Contracts/PNJC_Multisig.sol\":6311:6336  transaction.approvalCount */\n      0x04\n      add\n      sload\n        /* \"Smart-Contracts/PNJC_Multisig.sol\":6311:6358  transaction.approvalCount >= requiredSignatures */\n      lt\n      iszero\n        /* \"Smart-Contracts/PNJC_Multisig.sol\":6303:6399  require(transaction.approvalCount >= requiredSignatures, \"PNJC Treasury: Consensus not reached\") */\n      tag_162\n      jumpi\n      mload(0x40)\n      shl(0xe5, 0x461bcd)\n      dup2\n      mstore\n        /* \"#utility.yul\":9758:9760   */\n      0x20\n        /* \"Smart-Contracts/PNJC_Multisig.sol\":6303:6399  require(transaction.approvalCount >= requiredSignatures, \"PNJC Treasury: Consensus not reached\") */\n      0x04\n      dup3\n      add\n        /* \"#utility.yul\":9740:9761   */\n      mstore\n        /* \"#utility.yul\":9797:9799   */\n      0x24\n        /* \"#utility.yul\":9777:9795   */\n      dup1\n      dup3\n      add\n        /* \"#utility.yul\":9770:9800   */\n      mstore\n        /* \"#utility.yul\":9836:9870   */\n      0x504e4a432054726561737572793a20436f6e73656e737573206e6f7420726561\n        /* \"#utility.yul\":9816:9834   */\n      0x44\n      dup3\n      add\n        /* \"#utility.yul\":9809:9871   */\n      mstore\n      shl(0xe2, 0x18da1959)\n        /* \"#utility.yul\":9887:9905   */\n      0x64\n      dup3\n      add\n        /* \"#utility.yul\":9880:9914   */\n      mstore\n        /* \"#utility.yul\":9931:9950   */\n      0x84\n      add\n        /* \"Smart-Contracts/PNJC_Multisig.sol\":6303:6399  require(transaction.approvalCount >= requiredSignatures, \"PNJC Treasury: Consensus not reached\") */\n      tag_73\n        /* \"#utility.yul\":9556:9956   */\n      jump\n        /* \"Smart-Contracts/PNJC_Multisig.sol\":6303:6399  require(transaction.approvalCount >= requiredSignatures, \"PNJC Treasury: Consensus not reached\") */\n    tag_162:\n        /* \"Smart-Contracts/PNJC_Multisig.sol\":6490:6510  transaction.executed */\n      0x03\n      dup2\n      add\n        /* \"Smart-Contracts/PNJC_Multisig.sol\":6490:6517  transaction.executed = true */\n      dup1\n      sload\n      not(0xff)\n      and\n        /* \"Smart-Contracts/PNJC_Multisig.sol\":6513:6517  true */\n      0x01\n        /* \"Smart-Contracts/PNJC_Multisig.sol\":6490:6517  transaction.executed = true */\n      swap1\n      dup2\n      or\n      swap1\n      swap2\n      sstore\n        /* \"Smart-Contracts/PNJC_Multisig.sol\":6603:6617  transaction.to */\n      dup2\n      sload\n        /* \"Smart-Contracts/PNJC_Multisig.sol\":6630:6647  transaction.value */\n      swap1\n      dup3\n      add\n      sload\n        /* \"Smart-Contracts/PNJC_Multisig.sol\":6603:6666  transaction.to.call{value: transaction.value}(transaction.data) */\n      mload(0x40)\n        /* \"Smart-Contracts/PNJC_Multisig.sol\":6490:6510  transaction.executed */\n      0x00\n      swap3\n      sub(shl(0xa0, 0x01), 0x01)\n        /* \"Smart-Contracts/PNJC_Multisig.sol\":6603:6617  transaction.to */\n      and\n      swap2\n        /* \"Smart-Contracts/PNJC_Multisig.sol\":6630:6647  transaction.value */\n      swap1\n        /* \"Smart-Contracts/PNJC_Multisig.sol\":6603:6666  transaction.to.call{value: transaction.value}(transaction.data) */\n      tag_165\n      swap1\n        /* \"Smart-Contracts/PNJC_Multisig.sol\":6649:6665  transaction.data */\n      0x02\n      dup7\n      add\n      swap1\n        /* \"Smart-Contracts/PNJC_Multisig.sol\":6603:6666  transaction.to.call{value: transaction.value}(transaction.data) */\n      tag_166\n      jump\t// in\n    tag_165:\n      0x00\n      mload(0x40)\n      dup1\n      dup4\n      sub\n      dup2\n      dup6\n      dup8\n      gas\n      call\n      swap3\n      pop\n      pop\n      pop\n      returndatasize\n      dup1\n      0x00\n      dup2\n      eq\n      tag_169\n      jumpi\n      mload(0x40)\n      swap2\n      pop\n      and(add(returndatasize, 0x3f), not(0x1f))\n      dup3\n      add\n      0x40\n      mstore\n      returndatasize\n      dup3\n      mstore\n      returndatasize\n      0x00\n      0x20\n      dup5\n      add\n      returndatacopy\n      jump(tag_168)\n    tag_169:\n      0x60\n      swap2\n      pop\n    tag_168:\n      pop\n        /* \"Smart-Contracts/PNJC_Multisig.sol\":6584:6666  (bool success, ) = transaction.to.call{value: transaction.value}(transaction.data) */\n      pop\n      swap1\n      pop\n        /* \"Smart-Contracts/PNJC_Multisig.sol\":6685:6692  success */\n      dup1\n        /* \"Smart-Contracts/PNJC_Multisig.sol\":6677:6733  require(success, \"PNJC Treasury: Call execution failed\") */\n      tag_170\n      jumpi\n      mload(0x40)\n      shl(0xe5, 0x461bcd)\n      dup2\n      mstore\n        /* \"#utility.yul\":11009:11011   */\n      0x20\n        /* \"Smart-Contracts/PNJC_Multisig.sol\":6677:6733  require(success, \"PNJC Treasury: Call execution failed\") */\n      0x04\n      dup3\n      add\n        /* \"#utility.yul\":10991:11012   */\n      mstore\n        /* \"#utility.yul\":11048:11050   */\n      0x24\n        /* \"#utility.yul\":11028:11046   */\n      dup1\n      dup3\n      add\n        /* \"#utility.yul\":11021:11051   */\n      mstore\n        /* \"#utility.yul\":11087:11121   */\n      0x504e4a432054726561737572793a2043616c6c20657865637574696f6e206661\n        /* \"#utility.yul\":11067:11085   */\n      0x44\n      dup3\n      add\n        /* \"#utility.yul\":11060:11122   */\n      mstore\n      shl(0xe2, 0x1a5b1959)\n        /* \"#utility.yul\":11138:11156   */\n      0x64\n      dup3\n      add\n        /* \"#utility.yul\":11131:11165   */\n      mstore\n        /* \"#utility.yul\":11182:11201   */\n      0x84\n      add\n        /* \"Smart-Contracts/PNJC_Multisig.sol\":6677:6733  require(success, \"PNJC Treasury: Call execution failed\") */\n      tag_73\n        /* \"#utility.yul\":10807:11207   */\n      jump\n        /* \"Smart-Contracts/PNJC_Multisig.sol\":6677:6733  require(success, \"PNJC Treasury: Call execution failed\") */\n    tag_170:\n        /* \"Smart-Contracts/PNJC_Multisig.sol\":6751:6792  TransactionExecuted(_txIndex, msg.sender) */\n      mload(0x40)\n        /* \"Smart-Contracts/PNJC_Multisig.sol\":6781:6791  msg.sender */\n      caller\n      swap1\n        /* \"Smart-Contracts/PNJC_Multisig.sol\":6771:6779  _txIndex */\n      dup7\n      swap1\n        /* \"Smart-Contracts/PNJC_Multisig.sol\":6751:6792  TransactionExecuted(_txIndex, msg.sender) */\n      0xefc13bdcf58f184ea7cae26b499fb33b539e01d0197cea456f3ada289b8cf19b\n      swap1\n      0x00\n      swap1\n      log3\n        /* \"Smart-Contracts/PNJC_Multisig.sol\":6225:6800  {... */\n      pop\n      pop\n        /* \"@openzeppelin/contracts@5.6.0/utils/ReentrancyGuard.sol\":3065:3085  _nonReentrantAfter() */\n      tag_132\n        /* \"@openzeppelin/contracts@5.6.0/utils/ReentrancyGuard.sol\":2365:2366  1 */\n      0x01\n        /* \"@openzeppelin/contracts@5.6.0/utils/ReentrancyGuard.sol\":1505:1571  0x9b779b17422d0df92223018b32b4d1fa46e071723d6817e2486d003becc55f00 */\n      0x9b779b17422d0df92223018b32b4d1fa46e071723d6817e2486d003becc55f00\n        /* \"@openzeppelin/contracts@5.6.0/utils/ReentrancyGuard.sol\":3972:4034  _reentrancyGuardStorageSlot().getUint256Slot().value = ENTERED */\n      sstore\n        /* \"@openzeppelin/contracts@5.6.0/utils/ReentrancyGuard.sol\":3749:4041  function _nonReentrantBefore() private {... */\n      jump\n    tag_157:\n        /* \"@openzeppelin/contracts@5.6.0/utils/ReentrancyGuard.sol\":3872:3897  _nonReentrantBeforeView() */\n      tag_176\n        /* \"@openzeppelin/contracts@5.6.0/utils/ReentrancyGuard.sol\":3872:3895  _nonReentrantBeforeView */\n      tag_177\n        /* \"@openzeppelin/contracts@5.6.0/utils/ReentrancyGuard.sol\":3872:3897  _nonReentrantBeforeView() */\n      jump\t// in\n    tag_176:\n        /* \"@openzeppelin/contracts@5.6.0/utils/ReentrancyGuard.sol\":2407:2408  2 */\n      0x02\n        /* \"@openzeppelin/contracts@5.6.0/utils/ReentrancyGuard.sol\":1505:1571  0x9b779b17422d0df92223018b32b4d1fa46e071723d6817e2486d003becc55f00 */\n      0x9b779b17422d0df92223018b32b4d1fa46e071723d6817e2486d003becc55f00\n        /* \"@openzeppelin/contracts@5.6.0/utils/ReentrancyGuard.sol\":3972:4034  _reentrancyGuardStorageSlot().getUint256Slot().value = ENTERED */\n      sstore\n        /* \"@openzeppelin/contracts@5.6.0/utils/ReentrancyGuard.sol\":3749:4041  function _nonReentrantBefore() private {... */\n      jump\t// out\n        /* \"@openzeppelin/contracts@5.6.0/utils/ReentrancyGuard.sol\":3586:3743  function _nonReentrantBeforeView() private view {... */\n    tag_177:\n        /* \"@openzeppelin/contracts@5.6.0/utils/ReentrancyGuard.sol\":1505:1571  0x9b779b17422d0df92223018b32b4d1fa46e071723d6817e2486d003becc55f00 */\n      0x9b779b17422d0df92223018b32b4d1fa46e071723d6817e2486d003becc55f00\n        /* \"@openzeppelin/contracts@5.6.0/utils/ReentrancyGuard.sol\":4560:4612  _reentrancyGuardStorageSlot().getUint256Slot().value */\n      sload\n        /* \"@openzeppelin/contracts@5.6.0/utils/ReentrancyGuard.sol\":2407:2408  2 */\n      0x02\n        /* \"@openzeppelin/contracts@5.6.0/utils/ReentrancyGuard.sol\":4560:4623  _reentrancyGuardStorageSlot().getUint256Slot().value == ENTERED */\n      sub\n        /* \"@openzeppelin/contracts@5.6.0/utils/ReentrancyGuard.sol\":3644:3737  if (_reentrancyGuardEntered()) {... */\n      tag_188\n      jumpi\n        /* \"@openzeppelin/contracts@5.6.0/utils/ReentrancyGuard.sol\":3696:3726  ReentrancyGuardReentrantCall() */\n      mload(0x40)\n      shl(0xe0, 0x3ee5aeb5)\n      dup2\n      mstore\n      0x04\n      add\n      mload(0x40)\n      dup1\n      swap2\n      sub\n      swap1\n      revert\n        /* \"@openzeppelin/contracts@5.6.0/utils/ReentrancyGuard.sol\":3644:3737  if (_reentrancyGuardEntered()) {... */\n    tag_188:\n        /* \"@openzeppelin/contracts@5.6.0/utils/ReentrancyGuard.sol\":3586:3743  function _nonReentrantBeforeView() private view {... */\n      jump\t// out\n        /* \"#utility.yul\":14:194   */\n    tag_19:\n        /* \"#utility.yul\":73:79   */\n      0x00\n        /* \"#utility.yul\":126:128   */\n      0x20\n        /* \"#utility.yul\":114:123   */\n      dup3\n        /* \"#utility.yul\":105:112   */\n      dup5\n        /* \"#utility.yul\":101:124   */\n      sub\n        /* \"#utility.yul\":97:129   */\n      slt\n        /* \"#utility.yul\":94:146   */\n      iszero\n      tag_203\n      jumpi\n        /* \"#utility.yul\":142:143   */\n      0x00\n        /* \"#utility.yul\":139:140   */\n      dup1\n        /* \"#utility.yul\":132:144   */\n      revert\n        /* \"#utility.yul\":94:146   */\n    tag_203:\n      pop\n        /* \"#utility.yul\":165:188   */\n      calldataload\n      swap2\n        /* \"#utility.yul\":14:194   */\n      swap1\n      pop\n      jump\t// out\n        /* \"#utility.yul\":407:580   */\n    tag_194:\n        /* \"#utility.yul\":475:495   */\n      dup1\n      calldataload\n      sub(shl(0xa0, 0x01), 0x01)\n        /* \"#utility.yul\":524:555   */\n      dup2\n      and\n        /* \"#utility.yul\":514:556   */\n      dup2\n      eq\n        /* \"#utility.yul\":504:574   */\n      tag_206\n      jumpi\n        /* \"#utility.yul\":570:571   */\n      0x00\n        /* \"#utility.yul\":567:568   */\n      dup1\n        /* \"#utility.yul\":560:572   */\n      revert\n        /* \"#utility.yul\":504:574   */\n    tag_206:\n        /* \"#utility.yul\":407:580   */\n      swap2\n      swap1\n      pop\n      jump\t// out\n        /* \"#utility.yul\":585:771   */\n    tag_30:\n        /* \"#utility.yul\":644:650   */\n      0x00\n        /* \"#utility.yul\":697:699   */\n      0x20\n        /* \"#utility.yul\":685:694   */\n      dup3\n        /* \"#utility.yul\":676:683   */\n      dup5\n        /* \"#utility.yul\":672:695   */\n      sub\n        /* \"#utility.yul\":668:700   */\n      slt\n        /* \"#utility.yul\":665:717   */\n      iszero\n      tag_208\n      jumpi\n        /* \"#utility.yul\":713:714   */\n      0x00\n        /* \"#utility.yul\":710:711   */\n      dup1\n        /* \"#utility.yul\":703:715   */\n      revert\n        /* \"#utility.yul\":665:717   */\n    tag_208:\n        /* \"#utility.yul\":736:765   */\n      tag_209\n        /* \"#utility.yul\":755:764   */\n      dup3\n        /* \"#utility.yul\":736:765   */\n      tag_194\n      jump\t// in\n    tag_209:\n        /* \"#utility.yul\":726:765   */\n      swap4\n        /* \"#utility.yul\":585:771   */\n      swap3\n      pop\n      pop\n      pop\n      jump\t// out\n        /* \"#utility.yul\":968:1222   */\n    tag_37:\n        /* \"#utility.yul\":1036:1042   */\n      0x00\n        /* \"#utility.yul\":1044:1050   */\n      dup1\n        /* \"#utility.yul\":1097:1099   */\n      0x40\n        /* \"#utility.yul\":1085:1094   */\n      dup4\n        /* \"#utility.yul\":1076:1083   */\n      dup6\n        /* \"#utility.yul\":1072:1095   */\n      sub\n        /* \"#utility.yul\":1068:1100   */\n      slt\n        /* \"#utility.yul\":1065:1117   */\n      iszero\n      tag_212\n      jumpi\n        /* \"#utility.yul\":1113:1114   */\n      0x00\n        /* \"#utility.yul\":1110:1111   */\n      dup1\n        /* \"#utility.yul\":1103:1115   */\n      revert\n        /* \"#utility.yul\":1065:1117   */\n    tag_212:\n        /* \"#utility.yul\":1149:1158   */\n      dup3\n        /* \"#utility.yul\":1136:1159   */\n      calldataload\n        /* \"#utility.yul\":1126:1159   */\n      swap2\n      pop\n        /* \"#utility.yul\":1178:1216   */\n      tag_213\n        /* \"#utility.yul\":1212:1214   */\n      0x20\n        /* \"#utility.yul\":1201:1210   */\n      dup5\n        /* \"#utility.yul\":1197:1215   */\n      add\n        /* \"#utility.yul\":1178:1216   */\n      tag_194\n      jump\t// in\n    tag_213:\n        /* \"#utility.yul\":1168:1216   */\n      swap1\n      pop\n        /* \"#utility.yul\":968:1222   */\n      swap3\n      pop\n      swap3\n      swap1\n      pop\n      jump\t// out\n        /* \"#utility.yul\":1409:1831   */\n    tag_195:\n        /* \"#utility.yul\":1450:1453   */\n      0x00\n        /* \"#utility.yul\":1488:1493   */\n      dup2\n        /* \"#utility.yul\":1482:1494   */\n      mload\n        /* \"#utility.yul\":1515:1521   */\n      dup1\n        /* \"#utility.yul\":1510:1513   */\n      dup5\n        /* \"#utility.yul\":1503:1522   */\n      mstore\n        /* \"#utility.yul\":1540:1541   */\n      0x00\n        /* \"#utility.yul\":1550:1712   */\n    tag_216:\n        /* \"#utility.yul\":1564:1570   */\n      dup2\n        /* \"#utility.yul\":1561:1562   */\n      dup2\n        /* \"#utility.yul\":1558:1571   */\n      lt\n        /* \"#utility.yul\":1550:1712   */\n      iszero\n      tag_218\n      jumpi\n        /* \"#utility.yul\":1626:1630   */\n      0x20\n        /* \"#utility.yul\":1682:1695   */\n      dup2\n      dup6\n      add\n        /* \"#utility.yul\":1678:1700   */\n      dup2\n      add\n        /* \"#utility.yul\":1672:1701   */\n      mload\n        /* \"#utility.yul\":1654:1665   */\n      dup7\n      dup4\n      add\n        /* \"#utility.yul\":1650:1670   */\n      dup3\n      add\n        /* \"#utility.yul\":1643:1702   */\n      mstore\n        /* \"#utility.yul\":1579:1591   */\n      add\n        /* \"#utility.yul\":1550:1712   */\n      jump(tag_216)\n    tag_218:\n        /* \"#utility.yul\":1554:1557   */\n      pop\n        /* \"#utility.yul\":1757:1758   */\n      0x00\n        /* \"#utility.yul\":1750:1754   */\n      0x20\n        /* \"#utility.yul\":1741:1747   */\n      dup3\n        /* \"#utility.yul\":1736:1739   */\n      dup7\n        /* \"#utility.yul\":1732:1748   */\n      add\n        /* \"#utility.yul\":1728:1755   */\n      add\n        /* \"#utility.yul\":1721:1759   */\n      mstore\n        /* \"#utility.yul\":1820:1824   */\n      0x20\n        /* \"#utility.yul\":1813:1815   */\n      0x1f\n        /* \"#utility.yul\":1809:1816   */\n      not\n        /* \"#utility.yul\":1804:1806   */\n      0x1f\n        /* \"#utility.yul\":1796:1802   */\n      dup4\n        /* \"#utility.yul\":1792:1807   */\n      add\n        /* \"#utility.yul\":1788:1817   */\n      and\n        /* \"#utility.yul\":1783:1786   */\n      dup6\n        /* \"#utility.yul\":1779:1818   */\n      add\n        /* \"#utility.yul\":1775:1825   */\n      add\n        /* \"#utility.yul\":1768:1825   */\n      swap2\n      pop\n      pop\n        /* \"#utility.yul\":1409:1831   */\n      swap3\n      swap2\n      pop\n      pop\n      jump\t// out\n        /* \"#utility.yul\":1836:2376   */\n    tag_50:\n        /* \"#utility.yul\":2118:2119   */\n      0x01\n        /* \"#utility.yul\":2114:2115   */\n      dup1\n        /* \"#utility.yul\":2109:2112   */\n      0xa0\n        /* \"#utility.yul\":2105:2116   */\n      shl\n        /* \"#utility.yul\":2101:2120   */\n      sub\n        /* \"#utility.yul\":2093:2099   */\n      dup7\n        /* \"#utility.yul\":2089:2121   */\n      and\n        /* \"#utility.yul\":2078:2087   */\n      dup2\n        /* \"#utility.yul\":2071:2122   */\n      mstore\n        /* \"#utility.yul\":2158:2164   */\n      dup5\n        /* \"#utility.yul\":2153:2155   */\n      0x20\n        /* \"#utility.yul\":2142:2151   */\n      dup3\n        /* \"#utility.yul\":2138:2156   */\n      add\n        /* \"#utility.yul\":2131:2165   */\n      mstore\n        /* \"#utility.yul\":2201:2204   */\n      0xa0\n        /* \"#utility.yul\":2196:2198   */\n      0x40\n        /* \"#utility.yul\":2185:2194   */\n      dup3\n        /* \"#utility.yul\":2181:2199   */\n      add\n        /* \"#utility.yul\":2174:2205   */\n      mstore\n        /* \"#utility.yul\":2052:2056   */\n      0x00\n        /* \"#utility.yul\":2222:2267   */\n      tag_220\n        /* \"#utility.yul\":2262:2265   */\n      0xa0\n        /* \"#utility.yul\":2251:2260   */\n      dup4\n        /* \"#utility.yul\":2247:2266   */\n      add\n        /* \"#utility.yul\":2239:2245   */\n      dup7\n        /* \"#utility.yul\":2222:2267   */\n      tag_195\n      jump\t// in\n    tag_220:\n        /* \"#utility.yul\":2310:2324   */\n      swap4\n      iszero\n        /* \"#utility.yul\":2303:2325   */\n      iszero\n        /* \"#utility.yul\":2298:2300   */\n      0x60\n        /* \"#utility.yul\":2283:2301   */\n      dup4\n      add\n        /* \"#utility.yul\":2276:2326   */\n      mstore\n      pop\n        /* \"#utility.yul\":2357:2360   */\n      0x80\n        /* \"#utility.yul\":2342:2361   */\n      add\n        /* \"#utility.yul\":2335:2370   */\n      mstore\n        /* \"#utility.yul\":2214:2267   */\n      swap4\n        /* \"#utility.yul\":1836:2376   */\n      swap3\n      pop\n      pop\n      pop\n      jump\t// out\n        /* \"#utility.yul\":2381:3039   */\n    tag_55:\n        /* \"#utility.yul\":2552:2554   */\n      0x20\n        /* \"#utility.yul\":2604:2625   */\n      dup1\n      dup3\n      mstore\n        /* \"#utility.yul\":2674:2687   */\n      dup3\n      mload\n        /* \"#utility.yul\":2577:2595   */\n      dup3\n      dup3\n      add\n        /* \"#utility.yul\":2696:2718   */\n      dup2\n      swap1\n      mstore\n        /* \"#utility.yul\":2523:2527   */\n      0x00\n      swap2\n        /* \"#utility.yul\":2552:2554   */\n      swap1\n        /* \"#utility.yul\":2775:2790   */\n      dup5\n      dup3\n      add\n      swap1\n        /* \"#utility.yul\":2749:2751   */\n      0x40\n        /* \"#utility.yul\":2734:2752   */\n      dup6\n      add\n      swap1\n        /* \"#utility.yul\":2523:2527   */\n      dup5\n        /* \"#utility.yul\":2818:3013   */\n    tag_222:\n        /* \"#utility.yul\":2832:2838   */\n      dup2\n        /* \"#utility.yul\":2829:2830   */\n      dup2\n        /* \"#utility.yul\":2826:2839   */\n      lt\n        /* \"#utility.yul\":2818:3013   */\n      iszero\n      tag_224\n      jumpi\n        /* \"#utility.yul\":2897:2910   */\n      dup4\n      mload\n      sub(shl(0xa0, 0x01), 0x01)\n        /* \"#utility.yul\":2893:2932   */\n      and\n        /* \"#utility.yul\":2881:2933   */\n      dup4\n      mstore\n        /* \"#utility.yul\":2988:3003   */\n      swap3\n      dup5\n      add\n      swap3\n        /* \"#utility.yul\":2953:2965   */\n      swap2\n      dup5\n      add\n      swap2\n        /* \"#utility.yul\":2929:2930   */\n      0x01\n        /* \"#utility.yul\":2847:2856   */\n      add\n        /* \"#utility.yul\":2818:3013   */\n      jump(tag_222)\n    tag_224:\n      pop\n        /* \"#utility.yul\":3030:3033   */\n      swap1\n      swap7\n        /* \"#utility.yul\":2381:3039   */\n      swap6\n      pop\n      pop\n      pop\n      pop\n      pop\n      pop\n      jump\t// out\n        /* \"#utility.yul\":3044:3171   */\n    tag_196:\n        /* \"#utility.yul\":3105:3115   */\n      0x4e487b71\n        /* \"#utility.yul\":3100:3103   */\n      0xe0\n        /* \"#utility.yul\":3096:3116   */\n      shl\n        /* \"#utility.yul\":3093:3094   */\n      0x00\n        /* \"#utility.yul\":3086:3117   */\n      mstore\n        /* \"#utility.yul\":3136:3140   */\n      0x41\n        /* \"#utility.yul\":3133:3134   */\n      0x04\n        /* \"#utility.yul\":3126:3141   */\n      mstore\n        /* \"#utility.yul\":3160:3164   */\n      0x24\n        /* \"#utility.yul\":3157:3158   */\n      0x00\n        /* \"#utility.yul\":3150:3165   */\n      revert\n        /* \"#utility.yul\":3176:4239   */\n    tag_63:\n        /* \"#utility.yul\":3262:3268   */\n      0x00\n        /* \"#utility.yul\":3270:3276   */\n      dup1\n        /* \"#utility.yul\":3278:3284   */\n      0x00\n        /* \"#utility.yul\":3331:3333   */\n      0x60\n        /* \"#utility.yul\":3319:3328   */\n      dup5\n        /* \"#utility.yul\":3310:3317   */\n      dup7\n        /* \"#utility.yul\":3306:3329   */\n      sub\n        /* \"#utility.yul\":3302:3334   */\n      slt\n        /* \"#utility.yul\":3299:3351   */\n      iszero\n      tag_227\n      jumpi\n        /* \"#utility.yul\":3347:3348   */\n      0x00\n        /* \"#utility.yul\":3344:3345   */\n      dup1\n        /* \"#utility.yul\":3337:3349   */\n      revert\n        /* \"#utility.yul\":3299:3351   */\n    tag_227:\n        /* \"#utility.yul\":3370:3399   */\n      tag_228\n        /* \"#utility.yul\":3389:3398   */\n      dup5\n        /* \"#utility.yul\":3370:3399   */\n      tag_194\n      jump\t// in\n    tag_228:\n        /* \"#utility.yul\":3360:3399   */\n      swap3\n      pop\n        /* \"#utility.yul\":3446:3448   */\n      0x20\n        /* \"#utility.yul\":3435:3444   */\n      dup5\n        /* \"#utility.yul\":3431:3449   */\n      add\n        /* \"#utility.yul\":3418:3450   */\n      calldataload\n        /* \"#utility.yul\":3408:3450   */\n      swap2\n      pop\n        /* \"#utility.yul\":3501:3503   */\n      0x40\n        /* \"#utility.yul\":3490:3499   */\n      dup5\n        /* \"#utility.yul\":3486:3504   */\n      add\n        /* \"#utility.yul\":3473:3505   */\n      calldataload\n        /* \"#utility.yul\":3524:3542   */\n      0xffffffffffffffff\n        /* \"#utility.yul\":3565:3567   */\n      dup1\n        /* \"#utility.yul\":3557:3563   */\n      dup3\n        /* \"#utility.yul\":3554:3568   */\n      gt\n        /* \"#utility.yul\":3551:3585   */\n      iszero\n      tag_229\n      jumpi\n        /* \"#utility.yul\":3581:3582   */\n      0x00\n        /* \"#utility.yul\":3578:3579   */\n      dup1\n        /* \"#utility.yul\":3571:3583   */\n      revert\n        /* \"#utility.yul\":3551:3585   */\n    tag_229:\n        /* \"#utility.yul\":3619:3625   */\n      dup2\n        /* \"#utility.yul\":3608:3617   */\n      dup7\n        /* \"#utility.yul\":3604:3626   */\n      add\n        /* \"#utility.yul\":3594:3626   */\n      swap2\n      pop\n        /* \"#utility.yul\":3664:3671   */\n      dup7\n        /* \"#utility.yul\":3657:3661   */\n      0x1f\n        /* \"#utility.yul\":3653:3655   */\n      dup4\n        /* \"#utility.yul\":3649:3662   */\n      add\n        /* \"#utility.yul\":3645:3672   */\n      slt\n        /* \"#utility.yul\":3635:3690   */\n      tag_230\n      jumpi\n        /* \"#utility.yul\":3686:3687   */\n      0x00\n        /* \"#utility.yul\":3683:3684   */\n      dup1\n        /* \"#utility.yul\":3676:3688   */\n      revert\n        /* \"#utility.yul\":3635:3690   */\n    tag_230:\n        /* \"#utility.yul\":3722:3724   */\n      dup2\n        /* \"#utility.yul\":3709:3725   */\n      calldataload\n        /* \"#utility.yul\":3744:3746   */\n      dup2\n        /* \"#utility.yul\":3740:3742   */\n      dup2\n        /* \"#utility.yul\":3737:3747   */\n      gt\n        /* \"#utility.yul\":3734:3770   */\n      iszero\n      tag_232\n      jumpi\n        /* \"#utility.yul\":3750:3768   */\n      tag_232\n      tag_196\n      jump\t// in\n    tag_232:\n        /* \"#utility.yul\":3825:3827   */\n      0x40\n        /* \"#utility.yul\":3819:3828   */\n      mload\n        /* \"#utility.yul\":3793:3795   */\n      0x1f\n        /* \"#utility.yul\":3879:3892   */\n      dup3\n      add\n      not(0x1f)\n        /* \"#utility.yul\":3875:3897   */\n      swap1\n      dup2\n      and\n        /* \"#utility.yul\":3899:3901   */\n      0x3f\n        /* \"#utility.yul\":3871:3902   */\n      add\n        /* \"#utility.yul\":3867:3907   */\n      and\n        /* \"#utility.yul\":3855:3908   */\n      dup2\n      add\n      swap1\n        /* \"#utility.yul\":3923:3941   */\n      dup4\n      dup3\n      gt\n        /* \"#utility.yul\":3943:3965   */\n      dup2\n      dup4\n      lt\n        /* \"#utility.yul\":3920:3966   */\n      or\n        /* \"#utility.yul\":3917:3989   */\n      iszero\n      tag_234\n      jumpi\n        /* \"#utility.yul\":3969:3987   */\n      tag_234\n      tag_196\n      jump\t// in\n    tag_234:\n        /* \"#utility.yul\":4009:4019   */\n      dup2\n        /* \"#utility.yul\":4005:4007   */\n      0x40\n        /* \"#utility.yul\":3998:4020   */\n      mstore\n        /* \"#utility.yul\":4044:4046   */\n      dup3\n        /* \"#utility.yul\":4036:4042   */\n      dup2\n        /* \"#utility.yul\":4029:4047   */\n      mstore\n        /* \"#utility.yul\":4084:4091   */\n      dup10\n        /* \"#utility.yul\":4079:4081   */\n      0x20\n        /* \"#utility.yul\":4074:4076   */\n      dup5\n        /* \"#utility.yul\":4070:4072   */\n      dup8\n        /* \"#utility.yul\":4066:4077   */\n      add\n        /* \"#utility.yul\":4062:4082   */\n      add\n        /* \"#utility.yul\":4059:4092   */\n      gt\n        /* \"#utility.yul\":4056:4109   */\n      iszero\n      tag_235\n      jumpi\n        /* \"#utility.yul\":4105:4106   */\n      0x00\n        /* \"#utility.yul\":4102:4103   */\n      dup1\n        /* \"#utility.yul\":4095:4107   */\n      revert\n        /* \"#utility.yul\":4056:4109   */\n    tag_235:\n        /* \"#utility.yul\":4161:4163   */\n      dup3\n        /* \"#utility.yul\":4156:4158   */\n      0x20\n        /* \"#utility.yul\":4152:4154   */\n      dup7\n        /* \"#utility.yul\":4148:4159   */\n      add\n        /* \"#utility.yul\":4143:4145   */\n      0x20\n        /* \"#utility.yul\":4135:4141   */\n      dup4\n        /* \"#utility.yul\":4131:4146   */\n      add\n        /* \"#utility.yul\":4118:4164   */\n      calldatacopy\n        /* \"#utility.yul\":4206:4207   */\n      0x00\n        /* \"#utility.yul\":4201:4203   */\n      0x20\n        /* \"#utility.yul\":4196:4198   */\n      dup5\n        /* \"#utility.yul\":4188:4194   */\n      dup4\n        /* \"#utility.yul\":4184:4199   */\n      add\n        /* \"#utility.yul\":4180:4204   */\n      add\n        /* \"#utility.yul\":4173:4208   */\n      mstore\n        /* \"#utility.yul\":4227:4233   */\n      dup1\n        /* \"#utility.yul\":4217:4233   */\n      swap6\n      pop\n      pop\n      pop\n      pop\n      pop\n      pop\n        /* \"#utility.yul\":3176:4239   */\n      swap3\n      pop\n      swap3\n      pop\n      swap3\n      jump\t// out\n        /* \"#utility.yul\":4244:4596   */\n    tag_74:\n        /* \"#utility.yul\":4446:4448   */\n      0x20\n        /* \"#utility.yul\":4428:4449   */\n      dup1\n      dup3\n      mstore\n        /* \"#utility.yul\":4485:4487   */\n      0x1c\n        /* \"#utility.yul\":4465:4483   */\n      swap1\n      dup3\n      add\n        /* \"#utility.yul\":4458:4488   */\n      mstore\n        /* \"#utility.yul\":4524:4554   */\n      0x504e4a432054726561737572793a204163636573732064656e69656400000000\n        /* \"#utility.yul\":4519:4521   */\n      0x40\n        /* \"#utility.yul\":4504:4522   */\n      dup3\n      add\n        /* \"#utility.yul\":4497:4555   */\n      mstore\n        /* \"#utility.yul\":4587:4589   */\n      0x60\n        /* \"#utility.yul\":4572:4590   */\n      add\n      swap1\n        /* \"#utility.yul\":4244:4596   */\n      jump\t// out\n        /* \"#utility.yul\":4601:4957   */\n    tag_78:\n        /* \"#utility.yul\":4803:4805   */\n      0x20\n        /* \"#utility.yul\":4785:4806   */\n      dup1\n      dup3\n      mstore\n        /* \"#utility.yul\":4822:4840   */\n      dup2\n      dup2\n      add\n        /* \"#utility.yul\":4815:4845   */\n      mstore\n        /* \"#utility.yul\":4881:4915   */\n      0x504e4a432054726561737572793a20547820646f6573206e6f74206578697374\n        /* \"#utility.yul\":4876:4878   */\n      0x40\n        /* \"#utility.yul\":4861:4879   */\n      dup3\n      add\n        /* \"#utility.yul\":4854:4916   */\n      mstore\n        /* \"#utility.yul\":4948:4950   */\n      0x60\n        /* \"#utility.yul\":4933:4951   */\n      add\n      swap1\n        /* \"#utility.yul\":4601:4957   */\n      jump\t// out\n        /* \"#utility.yul\":4962:5089   */\n    tag_82:\n        /* \"#utility.yul\":5023:5033   */\n      0x4e487b71\n        /* \"#utility.yul\":5018:5021   */\n      0xe0\n        /* \"#utility.yul\":5014:5034   */\n      shl\n        /* \"#utility.yul\":5011:5012   */\n      0x00\n        /* \"#utility.yul\":5004:5035   */\n      mstore\n        /* \"#utility.yul\":5054:5058   */\n      0x32\n        /* \"#utility.yul\":5051:5052   */\n      0x04\n        /* \"#utility.yul\":5044:5059   */\n      mstore\n        /* \"#utility.yul\":5078:5082   */\n      0x24\n        /* \"#utility.yul\":5075:5076   */\n      0x00\n        /* \"#utility.yul\":5068:5083   */\n      revert\n        /* \"#utility.yul\":5094:5493   */\n    tag_86:\n        /* \"#utility.yul\":5296:5298   */\n      0x20\n        /* \"#utility.yul\":5278:5299   */\n      dup1\n      dup3\n      mstore\n        /* \"#utility.yul\":5335:5337   */\n      0x23\n        /* \"#utility.yul\":5315:5333   */\n      swap1\n      dup3\n      add\n        /* \"#utility.yul\":5308:5338   */\n      mstore\n        /* \"#utility.yul\":5374:5408   */\n      0x504e4a432054726561737572793a20547820616c72656164792070726f636573\n        /* \"#utility.yul\":5369:5371   */\n      0x40\n        /* \"#utility.yul\":5354:5372   */\n      dup3\n      add\n        /* \"#utility.yul\":5347:5409   */\n      mstore\n      shl(0xea, 0x1cd959)\n        /* \"#utility.yul\":5440:5442   */\n      0x60\n        /* \"#utility.yul\":5425:5443   */\n      dup3\n      add\n        /* \"#utility.yul\":5418:5451   */\n      mstore\n        /* \"#utility.yul\":5483:5486   */\n      0x80\n        /* \"#utility.yul\":5468:5487   */\n      add\n      swap1\n        /* \"#utility.yul\":5094:5493   */\n      jump\t// out\n        /* \"#utility.yul\":5908:6035   */\n    tag_197:\n        /* \"#utility.yul\":5969:5979   */\n      0x4e487b71\n        /* \"#utility.yul\":5964:5967   */\n      0xe0\n        /* \"#utility.yul\":5960:5980   */\n      shl\n        /* \"#utility.yul\":5957:5958   */\n      0x00\n        /* \"#utility.yul\":5950:5981   */\n      mstore\n        /* \"#utility.yul\":6000:6004   */\n      0x11\n        /* \"#utility.yul\":5997:5998   */\n      0x04\n        /* \"#utility.yul\":5990:6005   */\n      mstore\n        /* \"#utility.yul\":6024:6028   */\n      0x24\n        /* \"#utility.yul\":6021:6022   */\n      0x00\n        /* \"#utility.yul\":6014:6029   */\n      revert\n        /* \"#utility.yul\":6040:6168   */\n    tag_95:\n        /* \"#utility.yul\":6107:6116   */\n      dup2\n      dup2\n      sub\n        /* \"#utility.yul\":6128:6139   */\n      dup2\n      dup2\n      gt\n        /* \"#utility.yul\":6125:6162   */\n      iszero\n      tag_244\n      jumpi\n        /* \"#utility.yul\":6142:6160   */\n      tag_244\n      tag_197\n      jump\t// in\n    tag_244:\n        /* \"#utility.yul\":6040:6168   */\n      swap3\n      swap2\n      pop\n      pop\n      jump\t// out\n        /* \"#utility.yul\":6173:6553   */\n    tag_99:\n        /* \"#utility.yul\":6252:6253   */\n      0x01\n        /* \"#utility.yul\":6248:6260   */\n      dup2\n      dup2\n      shr\n      swap1\n        /* \"#utility.yul\":6295:6307   */\n      dup3\n      and\n      dup1\n        /* \"#utility.yul\":6316:6377   */\n      tag_246\n      jumpi\n        /* \"#utility.yul\":6370:6374   */\n      0x7f\n        /* \"#utility.yul\":6362:6368   */\n      dup3\n        /* \"#utility.yul\":6358:6375   */\n      and\n        /* \"#utility.yul\":6348:6375   */\n      swap2\n      pop\n        /* \"#utility.yul\":6316:6377   */\n    tag_246:\n        /* \"#utility.yul\":6423:6425   */\n      0x20\n        /* \"#utility.yul\":6415:6421   */\n      dup3\n        /* \"#utility.yul\":6412:6426   */\n      lt\n        /* \"#utility.yul\":6392:6410   */\n      dup2\n        /* \"#utility.yul\":6389:6427   */\n      sub\n        /* \"#utility.yul\":6386:6547   */\n      tag_247\n      jumpi\n        /* \"#utility.yul\":6469:6479   */\n      0x4e487b71\n        /* \"#utility.yul\":6464:6467   */\n      0xe0\n        /* \"#utility.yul\":6460:6480   */\n      shl\n        /* \"#utility.yul\":6457:6458   */\n      0x00\n        /* \"#utility.yul\":6450:6481   */\n      mstore\n        /* \"#utility.yul\":6504:6508   */\n      0x22\n        /* \"#utility.yul\":6501:6502   */\n      0x04\n        /* \"#utility.yul\":6494:6509   */\n      mstore\n        /* \"#utility.yul\":6532:6536   */\n      0x24\n        /* \"#utility.yul\":6529:6530   */\n      0x00\n        /* \"#utility.yul\":6522:6537   */\n      revert\n        /* \"#utility.yul\":6386:6547   */\n    tag_247:\n      pop\n        /* \"#utility.yul\":6173:6553   */\n      swap2\n      swap1\n      pop\n      jump\t// out\n        /* \"#utility.yul\":6969:7094   */\n    tag_127:\n        /* \"#utility.yul\":7034:7043   */\n      dup1\n      dup3\n      add\n        /* \"#utility.yul\":7055:7065   */\n      dup1\n      dup3\n      gt\n        /* \"#utility.yul\":7052:7088   */\n      iszero\n      tag_244\n      jumpi\n        /* \"#utility.yul\":7068:7086   */\n      tag_244\n      tag_197\n      jump\t// in\n        /* \"#utility.yul\":7224:7741   */\n    tag_199:\n        /* \"#utility.yul\":7325:7327   */\n      0x1f\n        /* \"#utility.yul\":7320:7323   */\n      dup3\n        /* \"#utility.yul\":7317:7328   */\n      gt\n        /* \"#utility.yul\":7314:7735   */\n      iszero\n      tag_132\n      jumpi\n        /* \"#utility.yul\":7361:7366   */\n      dup1\n        /* \"#utility.yul\":7358:7359   */\n      0x00\n        /* \"#utility.yul\":7351:7367   */\n      mstore\n        /* \"#utility.yul\":7405:7409   */\n      0x20\n        /* \"#utility.yul\":7402:7403   */\n      0x00\n        /* \"#utility.yul\":7392:7410   */\n      keccak256\n        /* \"#utility.yul\":7475:7477   */\n      0x1f\n        /* \"#utility.yul\":7463:7473   */\n      dup5\n        /* \"#utility.yul\":7459:7478   */\n      add\n        /* \"#utility.yul\":7456:7457   */\n      0x05\n        /* \"#utility.yul\":7452:7479   */\n      shr\n        /* \"#utility.yul\":7446:7450   */\n      dup2\n        /* \"#utility.yul\":7442:7480   */\n      add\n        /* \"#utility.yul\":7511:7515   */\n      0x20\n        /* \"#utility.yul\":7499:7509   */\n      dup6\n        /* \"#utility.yul\":7496:7516   */\n      lt\n        /* \"#utility.yul\":7493:7540   */\n      iszero\n      tag_255\n      jumpi\n      pop\n        /* \"#utility.yul\":7534:7538   */\n      dup1\n        /* \"#utility.yul\":7493:7540   */\n    tag_255:\n        /* \"#utility.yul\":7589:7591   */\n      0x1f\n        /* \"#utility.yul\":7584:7587   */\n      dup5\n        /* \"#utility.yul\":7580:7592   */\n      add\n        /* \"#utility.yul\":7577:7578   */\n      0x05\n        /* \"#utility.yul\":7573:7593   */\n      shr\n        /* \"#utility.yul\":7567:7571   */\n      dup3\n        /* \"#utility.yul\":7563:7594   */\n      add\n        /* \"#utility.yul\":7553:7594   */\n      swap2\n      pop\n        /* \"#utility.yul\":7644:7725   */\n    tag_256:\n        /* \"#utility.yul\":7662:7664   */\n      dup2\n        /* \"#utility.yul\":7655:7660   */\n      dup2\n        /* \"#utility.yul\":7652:7665   */\n      lt\n        /* \"#utility.yul\":7644:7725   */\n      iszero\n      tag_258\n      jumpi\n        /* \"#utility.yul\":7721:7722   */\n      0x00\n        /* \"#utility.yul\":7707:7723   */\n      dup2\n      sstore\n        /* \"#utility.yul\":7688:7689   */\n      0x01\n        /* \"#utility.yul\":7677:7690   */\n      add\n        /* \"#utility.yul\":7644:7725   */\n      jump(tag_256)\n    tag_258:\n        /* \"#utility.yul\":7648:7651   */\n      pop\n      pop\n        /* \"#utility.yul\":7224:7741   */\n      pop\n      pop\n      pop\n      jump\t// out\n        /* \"#utility.yul\":7917:9258   */\n    tag_139:\n        /* \"#utility.yul\":8041:8044   */\n      dup2\n        /* \"#utility.yul\":8035:8045   */\n      mload\n        /* \"#utility.yul\":8068:8086   */\n      0xffffffffffffffff\n        /* \"#utility.yul\":8060:8066   */\n      dup2\n        /* \"#utility.yul\":8057:8087   */\n      gt\n        /* \"#utility.yul\":8054:8110   */\n      iszero\n      tag_262\n      jumpi\n        /* \"#utility.yul\":8090:8108   */\n      tag_262\n      tag_196\n      jump\t// in\n    tag_262:\n        /* \"#utility.yul\":8119:8215   */\n      tag_263\n        /* \"#utility.yul\":8208:8214   */\n      dup2\n        /* \"#utility.yul\":8168:8206   */\n      tag_264\n        /* \"#utility.yul\":8200:8204   */\n      dup5\n        /* \"#utility.yul\":8194:8205   */\n      sload\n        /* \"#utility.yul\":8168:8206   */\n      tag_99\n      jump\t// in\n    tag_264:\n        /* \"#utility.yul\":8162:8166   */\n      dup5\n        /* \"#utility.yul\":8119:8215   */\n      tag_199\n      jump\t// in\n    tag_263:\n        /* \"#utility.yul\":8270:8274   */\n      0x20\n      dup1\n        /* \"#utility.yul\":8327:8329   */\n      0x1f\n        /* \"#utility.yul\":8316:8330   */\n      dup4\n      gt\n        /* \"#utility.yul\":8344:8345   */\n      0x01\n        /* \"#utility.yul\":8339:9001   */\n      dup2\n      eq\n      tag_266\n      jumpi\n        /* \"#utility.yul\":9045:9046   */\n      0x00\n        /* \"#utility.yul\":9062:9068   */\n      dup5\n        /* \"#utility.yul\":9059:9148   */\n      iszero\n      tag_267\n      jumpi\n      pop\n        /* \"#utility.yul\":9114:9133   */\n      dup6\n      dup4\n      add\n        /* \"#utility.yul\":9108:9134   */\n      mload\n        /* \"#utility.yul\":9059:9148   */\n    tag_267:\n      not(0x00)\n        /* \"#utility.yul\":7874:7875   */\n      0x03\n        /* \"#utility.yul\":7870:7881   */\n      dup7\n      swap1\n      shl\n        /* \"#utility.yul\":7866:7890   */\n      shr\n        /* \"#utility.yul\":7862:7891   */\n      not\n        /* \"#utility.yul\":7852:7892   */\n      and\n        /* \"#utility.yul\":7898:7899   */\n      0x01\n        /* \"#utility.yul\":7894:7905   */\n      dup6\n      swap1\n      shl\n        /* \"#utility.yul\":7849:7906   */\n      or\n        /* \"#utility.yul\":9161:9242   */\n      dup6\n      sstore\n        /* \"#utility.yul\":8309:9252   */\n      jump(tag_265)\n        /* \"#utility.yul\":8339:9001   */\n    tag_266:\n        /* \"#utility.yul\":7171:7172   */\n      0x00\n        /* \"#utility.yul\":7164:7178   */\n      dup6\n      dup2\n      mstore\n        /* \"#utility.yul\":7208:7212   */\n      0x20\n        /* \"#utility.yul\":7195:7213   */\n      dup2\n      keccak256\n      not(0x1f)\n        /* \"#utility.yul\":8375:8395   */\n      dup7\n      and\n      swap2\n        /* \"#utility.yul\":8492:8728   */\n    tag_270:\n        /* \"#utility.yul\":8506:8513   */\n      dup3\n        /* \"#utility.yul\":8503:8504   */\n      dup2\n        /* \"#utility.yul\":8500:8514   */\n      lt\n        /* \"#utility.yul\":8492:8728   */\n      iszero\n      tag_272\n      jumpi\n        /* \"#utility.yul\":8595:8614   */\n      dup9\n      dup7\n      add\n        /* \"#utility.yul\":8589:8615   */\n      mload\n        /* \"#utility.yul\":8574:8616   */\n      dup3\n      sstore\n        /* \"#utility.yul\":8687:8714   */\n      swap5\n      dup5\n      add\n      swap5\n        /* \"#utility.yul\":8655:8656   */\n      0x01\n        /* \"#utility.yul\":8643:8657   */\n      swap1\n      swap2\n      add\n      swap1\n        /* \"#utility.yul\":8522:8541   */\n      dup5\n      add\n        /* \"#utility.yul\":8492:8728   */\n      jump(tag_270)\n    tag_272:\n        /* \"#utility.yul\":8496:8499   */\n      pop\n        /* \"#utility.yul\":8756:8762   */\n      dup6\n        /* \"#utility.yul\":8747:8754   */\n      dup3\n        /* \"#utility.yul\":8744:8763   */\n      lt\n        /* \"#utility.yul\":8741:8942   */\n      iszero\n      tag_273\n      jumpi\n        /* \"#utility.yul\":8817:8836   */\n      dup8\n      dup6\n      add\n        /* \"#utility.yul\":8811:8837   */\n      mload\n      not(0x00)\n        /* \"#utility.yul\":8900:8901   */\n      0x03\n        /* \"#utility.yul\":8896:8910   */\n      dup9\n      swap1\n      shl\n        /* \"#utility.yul\":8912:8915   */\n      0xf8\n        /* \"#utility.yul\":8892:8916   */\n      and\n        /* \"#utility.yul\":8888:8925   */\n      shr\n        /* \"#utility.yul\":8884:8926   */\n      not\n        /* \"#utility.yul\":8869:8927   */\n      and\n        /* \"#utility.yul\":8854:8928   */\n      dup2\n      sstore\n        /* \"#utility.yul\":8741:8942   */\n    tag_273:\n      pop\n      pop\n        /* \"#utility.yul\":8988:8989   */\n      0x01\n        /* \"#utility.yul\":8979:8985   */\n      dup5\n        /* \"#utility.yul\":8976:8977   */\n      0x01\n        /* \"#utility.yul\":8972:8986   */\n      shl\n        /* \"#utility.yul\":8968:8990   */\n      add\n        /* \"#utility.yul\":8962:8966   */\n      dup6\n        /* \"#utility.yul\":8955:8991   */\n      sstore\n        /* \"#utility.yul\":8309:9252   */\n    tag_265:\n      pop\n      pop\n      pop\n      pop\n        /* \"#utility.yul\":7917:9258   */\n      pop\n      pop\n      jump\t// out\n        /* \"#utility.yul\":9263:9551   */\n    tag_141:\n        /* \"#utility.yul\":9438:9444   */\n      dup3\n        /* \"#utility.yul\":9427:9436   */\n      dup2\n        /* \"#utility.yul\":9420:9445   */\n      mstore\n        /* \"#utility.yul\":9481:9483   */\n      0x40\n        /* \"#utility.yul\":9476:9478   */\n      0x20\n        /* \"#utility.yul\":9465:9474   */\n      dup3\n        /* \"#utility.yul\":9461:9479   */\n      add\n        /* \"#utility.yul\":9454:9484   */\n      mstore\n        /* \"#utility.yul\":9401:9405   */\n      0x00\n        /* \"#utility.yul\":9501:9545   */\n      tag_275\n        /* \"#utility.yul\":9541:9543   */\n      0x40\n        /* \"#utility.yul\":9530:9539   */\n      dup4\n        /* \"#utility.yul\":9526:9544   */\n      add\n        /* \"#utility.yul\":9518:9524   */\n      dup5\n        /* \"#utility.yul\":9501:9545   */\n      tag_195\n      jump\t// in\n    tag_275:\n        /* \"#utility.yul\":9493:9545   */\n      swap5\n        /* \"#utility.yul\":9263:9551   */\n      swap4\n      pop\n      pop\n      pop\n      pop\n      jump\t// out\n        /* \"#utility.yul\":9961:10802   */\n    tag_166:\n        /* \"#utility.yul\":10087:10090   */\n      0x00\n        /* \"#utility.yul\":10116:10117   */\n      dup1\n        /* \"#utility.yul\":10149:10155   */\n      dup4\n        /* \"#utility.yul\":10143:10156   */\n      sload\n        /* \"#utility.yul\":10179:10215   */\n      tag_278\n        /* \"#utility.yul\":10205:10214   */\n      dup2\n        /* \"#utility.yul\":10179:10215   */\n      tag_99\n      jump\t// in\n    tag_278:\n        /* \"#utility.yul\":10234:10235   */\n      0x01\n        /* \"#utility.yul\":10251:10268   */\n      dup3\n      dup2\n      and\n        /* \"#utility.yul\":10277:10410   */\n      dup1\n      iszero\n      tag_280\n      jumpi\n        /* \"#utility.yul\":10424:10425   */\n      0x01\n        /* \"#utility.yul\":10419:10777   */\n      dup2\n      eq\n      tag_281\n      jumpi\n        /* \"#utility.yul\":10244:10777   */\n      jump(tag_279)\n        /* \"#utility.yul\":10277:10410   */\n    tag_280:\n      not(0xff)\n        /* \"#utility.yul\":10310:10334   */\n      dup5\n      and\n        /* \"#utility.yul\":10298:10335   */\n      dup8\n      mstore\n        /* \"#utility.yul\":10383:10397   */\n      dup3\n      iszero\n        /* \"#utility.yul\":10376:10398   */\n      iszero\n        /* \"#utility.yul\":10364:10399   */\n      dup4\n      mul\n        /* \"#utility.yul\":10355:10400   */\n      dup8\n      add\n      swap5\n      pop\n        /* \"#utility.yul\":10277:10410   */\n      jump(tag_279)\n        /* \"#utility.yul\":10419:10777   */\n    tag_281:\n        /* \"#utility.yul\":10450:10456   */\n      dup8\n        /* \"#utility.yul\":10447:10448   */\n      0x00\n        /* \"#utility.yul\":10440:10457   */\n      mstore\n        /* \"#utility.yul\":10480:10484   */\n      0x20\n        /* \"#utility.yul\":10525:10529   */\n      dup1\n        /* \"#utility.yul\":10522:10523   */\n      0x00\n        /* \"#utility.yul\":10512:10530   */\n      keccak256\n        /* \"#utility.yul\":10552:10553   */\n      0x00\n        /* \"#utility.yul\":10566:10731   */\n    tag_282:\n        /* \"#utility.yul\":10580:10586   */\n      dup6\n        /* \"#utility.yul\":10577:10578   */\n      dup2\n        /* \"#utility.yul\":10574:10587   */\n      lt\n        /* \"#utility.yul\":10566:10731   */\n      iszero\n      tag_284\n      jumpi\n        /* \"#utility.yul\":10658:10672   */\n      dup2\n      sload\n        /* \"#utility.yul\":10645:10656   */\n      dup11\n      dup3\n      add\n        /* \"#utility.yul\":10638:10673   */\n      mstore\n        /* \"#utility.yul\":10701:10717   */\n      swap1\n      dup5\n      add\n      swap1\n        /* \"#utility.yul\":10595:10605   */\n      dup3\n      add\n        /* \"#utility.yul\":10566:10731   */\n      jump(tag_282)\n    tag_284:\n        /* \"#utility.yul\":10570:10573   */\n      pop\n      pop\n      pop\n        /* \"#utility.yul\":10760:10766   */\n      dup3\n        /* \"#utility.yul\":10755:10758   */\n      dup8\n        /* \"#utility.yul\":10751:10767   */\n      add\n        /* \"#utility.yul\":10744:10767   */\n      swap5\n      pop\n        /* \"#utility.yul\":10244:10777   */\n    tag_279:\n      pop\n        /* \"#utility.yul\":10793:10796   */\n      swap3\n      swap7\n        /* \"#utility.yul\":9961:10802   */\n      swap6\n      pop\n      pop\n      pop\n      pop\n      pop\n      pop\n      jump\t// out\n\n    auxdata: 0xa2646970667358221220278113e49a8f3867f2449482ad31d259db9d3e2ceaf6ec0efeaeeff598cf901764736f6c63430008180033\n}\n",
				"bytecode": {
					"linkReferences": {},
					"object": "608060405234801562000010575f80fd5b5060405162001464380380620014648339810160408190526200003391620002ed565b60017f9b779b17422d0df92223018b32b4d1fa46e071723d6817e2486d003becc55f00558151620000be5760405162461bcd60e51b815260206004820152602a60248201527f504e4a432054726561737572793a204f776e657273206c6973742063616e6e6f6044820152697420626520656d70747960b01b60648201526084015b60405180910390fd5b5f81118015620000cf575081518111155b620001305760405162461bcd60e51b815260206004820152602a60248201527f504e4a432054726561737572793a20496e76616c6964207369676e6174757265604482015269081d1a1c995cda1bdb1960b21b6064820152608401620000b5565b5f5b8251811015620002b2575f838281518110620001525762000152620003c2565b602002602001015190505f6001600160a01b0316816001600160a01b031603620001cb5760405162461bcd60e51b8152602060048201526024808201527f504e4a432054726561737572793a205a65726f2061646472657373206465746560448201526318dd195960e21b6064820152608401620000b5565b6001600160a01b0381165f9081526001602052604090205460ff1615620002495760405162461bcd60e51b815260206004820152602b60248201527f504e4a432054726561737572793a204475706c6963617465206f776e6572732060448201526a1b9bdd08185b1b1bddd95960aa1b6064820152608401620000b5565b6001600160a01b03165f8181526001602081905260408220805460ff191682179055815480820183559180527f290decd9548b62a8d60345a988386fc84ba6bc95484008f6362f93160ef3e56390910180546001600160a01b0319169092179091550162000132565b5060025550620003d6565b634e487b7160e01b5f52604160045260245ffd5b80516001600160a01b0381168114620002e8575f80fd5b919050565b5f8060408385031215620002ff575f80fd5b82516001600160401b038082111562000316575f80fd5b818501915085601f8301126200032a575f80fd5b8151602082821115620003415762000341620002bd565b8160051b604051601f19603f83011681018181108682111715620003695762000369620002bd565b60405292835281830193508481018201928984111562000387575f80fd5b948201945b83861015620003b057620003a086620002d1565b855294820194938201936200038c565b97909101519698969750505050505050565b634e487b7160e01b5f52603260045260245ffd5b61108080620003e45f395ff3fe608060405260043610610092575f3560e01c80639ace38c2116100575780639ace38c214610194578063a0e67e2b146101c4578063c01a8c84146101e5578063c642747414610204578063ee22610b14610223575f80fd5b8063025e7c271461009d57806320ea8d86146100d95780632f54bf6e146100fa57806380f59a65146101385780638d06804314610171575f80fd5b3661009957005b5f80fd5b3480156100a8575f80fd5b506100bc6100b7366004610b55565b610242565b6040516001600160a01b0390911681526020015b60405180910390f35b3480156100e4575f80fd5b506100f86100f3366004610b55565b610269565b005b348015610105575f80fd5b50610128610114366004610b87565b60016020525f908152604090205460ff1681565b60405190151581526020016100d0565b348015610143575f80fd5b50610128610152366004610ba7565b600360209081525f928352604080842090915290825290205460ff1681565b34801561017c575f80fd5b5061018660025481565b6040519081526020016100d0565b34801561019f575f80fd5b506101b36101ae366004610b55565b61040a565b6040516100d0959493929190610c14565b3480156101cf575f80fd5b506101d86104df565b6040516100d09190610c4e565b3480156101f0575f80fd5b506100f86101ff366004610b55565b61053e565b34801561020f575f80fd5b506100f861021e366004610cae565b61070f565b34801561022e575f80fd5b506100f861023d366004610b55565b610896565b5f8181548110610250575f80fd5b5f918252602090912001546001600160a01b0316905081565b335f9081526001602052604090205460ff166102a05760405162461bcd60e51b815260040161029790610d72565b60405180910390fd5b600454819081106102c35760405162461bcd60e51b815260040161029790610da9565b81600481815481106102d7576102d7610dde565b5f91825260209091206003600590920201015460ff161561030a5760405162461bcd60e51b815260040161029790610df2565b5f83815260036020908152604080832033845290915290205460ff166103845760405162461bcd60e51b815260206004820152602960248201527f504e4a432054726561737572793a205478206e6f7420636f6e6669726d656420604482015268313c9031b0b63632b960b91b6064820152608401610297565b60016004848154811061039957610399610dde565b905f5260205f2090600502016004015f8282546103b69190610e49565b90915550505f838152600360209081526040808320338085529252808320805460ff1916905551909185917f4cd471041f6b9ff47536a54a3d3ab62d0fa9dd5e36c0418b294b1673acb318819190a3505050565b60048181548110610419575f80fd5b5f9182526020909120600590910201805460018201546002830180546001600160a01b03909316945090929161044e90610e62565b80601f016020809104026020016040519081016040528092919081815260200182805461047a90610e62565b80156104c55780601f1061049c576101008083540402835291602001916104c5565b820191905f5260205f20905b8154815290600101906020018083116104a857829003601f168201915b505050506003830154600490930154919260ff1691905085565b60605f80548060200260200160405190810160405280929190818152602001828054801561053457602002820191905f5260205f20905b81546001600160a01b03168152600190910190602001808311610516575b5050505050905090565b335f9081526001602052604090205460ff1661056c5760405162461bcd60e51b815260040161029790610d72565b6004548190811061058f5760405162461bcd60e51b815260040161029790610da9565b81600481815481106105a3576105a3610dde565b5f91825260209091206003600590920201015460ff16156105d65760405162461bcd60e51b815260040161029790610df2565b5f83815260036020908152604080832033845290915290205460ff16156106525760405162461bcd60e51b815260206004820152602a60248201527f504e4a432054726561737572793a20416c726561647920636f6e6669726d656460448201526910313c9031b0b63632b960b11b6064820152608401610297565b60016004848154811061066757610667610dde565b905f5260205f2090600502016004015f8282546106849190610e9a565b90915550505f838152600360209081526040808320338085529252808320805460ff1916600117905551909185917f15c2f311c9e0f53b50388279894aeff029a3457884a6601e924fca879e12adcc9190a3600254600484815481106106ec576106ec610dde565b905f5260205f209060050201600401541061070a5761070a83610896565b505050565b335f9081526001602052604090205460ff1661073d5760405162461bcd60e51b815260040161029790610d72565b600480546040805160a0810182526001600160a01b038781168252602082018781529282018681525f60608401819052608084018190526001860187559590955281517f8a35acfbc15ff81a39ae7d344fd709f28e8600b4aa8c65c6b64bfe7fe36bd19b6005860290810180546001600160a01b0319169290931691909117825592517f8a35acfbc15ff81a39ae7d344fd709f28e8600b4aa8c65c6b64bfe7fe36bd19c84015593519293909290917f8a35acfbc15ff81a39ae7d344fd709f28e8600b4aa8c65c6b64bfe7fe36bd19d01906108199082610ef8565b50606082015160038201805460ff19169115159190911790556080909101516004909101556040516001600160a01b03851690339083907f2ecf8c4571be1f8a0b1e6feaa711128f3f8038e97869aa59d0f595e21f50eaa09061087f9088908890610fb8565b60405180910390a46108908161053e565b50505050565b335f9081526001602052604090205460ff166108c45760405162461bcd60e51b815260040161029790610d72565b600454819081106108e75760405162461bcd60e51b815260040161029790610da9565b81600481815481106108fb576108fb610dde565b5f91825260209091206003600590920201015460ff161561092e5760405162461bcd60e51b815260040161029790610df2565b610936610ae3565b5f6004848154811061094a5761094a610dde565b905f5260205f2090600502019050600254816004015410156109ba5760405162461bcd60e51b8152602060048201526024808201527f504e4a432054726561737572793a20436f6e73656e737573206e6f742072656160448201526318da195960e21b6064820152608401610297565b60038101805460ff191660019081179091558154908201546040515f926001600160a01b031691906109f0906002860190610fd8565b5f6040518083038185875af1925050503d805f8114610a2a576040519150601f19603f3d011682016040523d82523d5f602084013e610a2f565b606091505b5050905080610a8c5760405162461bcd60e51b8152602060048201526024808201527f504e4a432054726561737572793a2043616c6c20657865637574696f6e2066616044820152631a5b195960e21b6064820152608401610297565b604051339086907fefc13bdcf58f184ea7cae26b499fb33b539e01d0197cea456f3ada289b8cf19b905f90a3505061070a60017f9b779b17422d0df92223018b32b4d1fa46e071723d6817e2486d003becc55f0055565b610aeb610b11565b60027f9b779b17422d0df92223018b32b4d1fa46e071723d6817e2486d003becc55f0055565b7f9b779b17422d0df92223018b32b4d1fa46e071723d6817e2486d003becc55f0054600203610b5357604051633ee5aeb560e01b815260040160405180910390fd5b565b5f60208284031215610b65575f80fd5b5035919050565b80356001600160a01b0381168114610b82575f80fd5b919050565b5f60208284031215610b97575f80fd5b610ba082610b6c565b9392505050565b5f8060408385031215610bb8575f80fd5b82359150610bc860208401610b6c565b90509250929050565b5f81518084525f5b81811015610bf557602081850181015186830182015201610bd9565b505f602082860101526020601f19601f83011685010191505092915050565b60018060a01b038616815284602082015260a060408201525f610c3a60a0830186610bd1565b931515606083015250608001529392505050565b602080825282518282018190525f9190848201906040850190845b81811015610c8e5783516001600160a01b031683529284019291840191600101610c69565b50909695505050505050565b634e487b7160e01b5f52604160045260245ffd5b5f805f60608486031215610cc0575f80fd5b610cc984610b6c565b925060208401359150604084013567ffffffffffffffff80821115610cec575f80fd5b818601915086601f830112610cff575f80fd5b813581811115610d1157610d11610c9a565b604051601f8201601f19908116603f01168101908382118183101715610d3957610d39610c9a565b81604052828152896020848701011115610d51575f80fd5b826020860160208301375f6020848301015280955050505050509250925092565b6020808252601c908201527f504e4a432054726561737572793a204163636573732064656e69656400000000604082015260600190565b6020808252818101527f504e4a432054726561737572793a20547820646f6573206e6f74206578697374604082015260600190565b634e487b7160e01b5f52603260045260245ffd5b60208082526023908201527f504e4a432054726561737572793a20547820616c72656164792070726f6365736040820152621cd95960ea1b606082015260800190565b634e487b7160e01b5f52601160045260245ffd5b81810381811115610e5c57610e5c610e35565b92915050565b600181811c90821680610e7657607f821691505b602082108103610e9457634e487b7160e01b5f52602260045260245ffd5b50919050565b80820180821115610e5c57610e5c610e35565b601f82111561070a57805f5260205f20601f840160051c81016020851015610ed25750805b601f840160051c820191505b81811015610ef1575f8155600101610ede565b5050505050565b815167ffffffffffffffff811115610f1257610f12610c9a565b610f2681610f208454610e62565b84610ead565b602080601f831160018114610f59575f8415610f425750858301515b5f19600386901b1c1916600185901b178555610fb0565b5f85815260208120601f198616915b82811015610f8757888601518255948401946001909101908401610f68565b5085821015610fa457878501515f19600388901b60f8161c191681555b505060018460011b0185555b505050505050565b828152604060208201525f610fd06040830184610bd1565b949350505050565b5f808354610fe581610e62565b60018281168015610ffd57600181146110125761103e565b60ff198416875282151583028701945061103e565b875f526020805f205f5b858110156110355781548a82015290840190820161101c565b50505082870194505b5092969550505050505056fea2646970667358221220278113e49a8f3867f2449482ad31d259db9d3e2ceaf6ec0efeaeeff598cf901764736f6c63430008180033",
					"opcodes": "PUSH1 0x80 PUSH1 0x40 MSTORE CALLVALUE DUP1 ISZERO PUSH3 0x10 JUMPI PUSH0 DUP1 REVERT JUMPDEST POP PUSH1 0x40 MLOAD PUSH3 0x1464 CODESIZE SUB DUP1 PUSH3 0x1464 DUP4 CODECOPY DUP2 ADD PUSH1 0x40 DUP2 SWAP1 MSTORE PUSH3 0x33 SWAP2 PUSH3 0x2ED JUMP JUMPDEST PUSH1 0x1 PUSH32 0x9B779B17422D0DF92223018B32B4D1FA46E071723D6817E2486D003BECC55F00 SSTORE DUP2 MLOAD PUSH3 0xBE JUMPI PUSH1 0x40 MLOAD PUSH3 0x461BCD PUSH1 0xE5 SHL DUP2 MSTORE PUSH1 0x20 PUSH1 0x4 DUP3 ADD MSTORE PUSH1 0x2A PUSH1 0x24 DUP3 ADD MSTORE PUSH32 0x504E4A432054726561737572793A204F776E657273206C6973742063616E6E6F PUSH1 0x44 DUP3 ADD MSTORE PUSH10 0x7420626520656D707479 PUSH1 0xB0 SHL PUSH1 0x64 DUP3 ADD MSTORE PUSH1 0x84 ADD JUMPDEST PUSH1 0x40 MLOAD DUP1 SWAP2 SUB SWAP1 REVERT JUMPDEST PUSH0 DUP2 GT DUP1 ISZERO PUSH3 0xCF JUMPI POP DUP2 MLOAD DUP2 GT ISZERO JUMPDEST PUSH3 0x130 JUMPI PUSH1 0x40 MLOAD PUSH3 0x461BCD PUSH1 0xE5 SHL DUP2 MSTORE PUSH1 0x20 PUSH1 0x4 DUP3 ADD MSTORE PUSH1 0x2A PUSH1 0x24 DUP3 ADD MSTORE PUSH32 0x504E4A432054726561737572793A20496E76616C6964207369676E6174757265 PUSH1 0x44 DUP3 ADD MSTORE PUSH10 0x81D1A1C995CDA1BDB19 PUSH1 0xB2 SHL PUSH1 0x64 DUP3 ADD MSTORE PUSH1 0x84 ADD PUSH3 0xB5 JUMP JUMPDEST PUSH0 JUMPDEST DUP3 MLOAD DUP2 LT ISZERO PUSH3 0x2B2 JUMPI PUSH0 DUP4 DUP3 DUP2 MLOAD DUP2 LT PUSH3 0x152 JUMPI PUSH3 0x152 PUSH3 0x3C2 JUMP JUMPDEST PUSH1 0x20 MUL PUSH1 0x20 ADD ADD MLOAD SWAP1 POP PUSH0 PUSH1 0x1 PUSH1 0x1 PUSH1 0xA0 SHL SUB AND DUP2 PUSH1 0x1 PUSH1 0x1 PUSH1 0xA0 SHL SUB AND SUB PUSH3 0x1CB JUMPI PUSH1 0x40 MLOAD PUSH3 0x461BCD PUSH1 0xE5 SHL DUP2 MSTORE PUSH1 0x20 PUSH1 0x4 DUP3 ADD MSTORE PUSH1 0x24 DUP1 DUP3 ADD MSTORE PUSH32 0x504E4A432054726561737572793A205A65726F20616464726573732064657465 PUSH1 0x44 DUP3 ADD MSTORE PUSH4 0x18DD1959 PUSH1 0xE2 SHL PUSH1 0x64 DUP3 ADD MSTORE PUSH1 0x84 ADD PUSH3 0xB5 JUMP JUMPDEST PUSH1 0x1 PUSH1 0x1 PUSH1 0xA0 SHL SUB DUP2 AND PUSH0 SWAP1 DUP2 MSTORE PUSH1 0x1 PUSH1 0x20 MSTORE PUSH1 0x40 SWAP1 KECCAK256 SLOAD PUSH1 0xFF AND ISZERO PUSH3 0x249 JUMPI PUSH1 0x40 MLOAD PUSH3 0x461BCD PUSH1 0xE5 SHL DUP2 MSTORE PUSH1 0x20 PUSH1 0x4 DUP3 ADD MSTORE PUSH1 0x2B PUSH1 0x24 DUP3 ADD MSTORE PUSH32 0x504E4A432054726561737572793A204475706C6963617465206F776E65727320 PUSH1 0x44 DUP3 ADD MSTORE PUSH11 0x1B9BDD08185B1B1BDDD959 PUSH1 0xAA SHL PUSH1 0x64 DUP3 ADD MSTORE PUSH1 0x84 ADD PUSH3 0xB5 JUMP JUMPDEST PUSH1 0x1 PUSH1 0x1 PUSH1 0xA0 SHL SUB AND PUSH0 DUP2 DUP2 MSTORE PUSH1 0x1 PUSH1 0x20 DUP2 SWAP1 MSTORE PUSH1 0x40 DUP3 KECCAK256 DUP1 SLOAD PUSH1 0xFF NOT AND DUP3 OR SWAP1 SSTORE DUP2 SLOAD DUP1 DUP3 ADD DUP4 SSTORE SWAP2 DUP1 MSTORE PUSH32 0x290DECD9548B62A8D60345A988386FC84BA6BC95484008F6362F93160EF3E563 SWAP1 SWAP2 ADD DUP1 SLOAD PUSH1 0x1 PUSH1 0x1 PUSH1 0xA0 SHL SUB NOT AND SWAP1 SWAP3 OR SWAP1 SWAP2 SSTORE ADD PUSH3 0x132 JUMP JUMPDEST POP PUSH1 0x2 SSTORE POP PUSH3 0x3D6 JUMP JUMPDEST PUSH4 0x4E487B71 PUSH1 0xE0 SHL PUSH0 MSTORE PUSH1 0x41 PUSH1 0x4 MSTORE PUSH1 0x24 PUSH0 REVERT JUMPDEST DUP1 MLOAD PUSH1 0x1 PUSH1 0x1 PUSH1 0xA0 SHL SUB DUP2 AND DUP2 EQ PUSH3 0x2E8 JUMPI PUSH0 DUP1 REVERT JUMPDEST SWAP2 SWAP1 POP JUMP JUMPDEST PUSH0 DUP1 PUSH1 0x40 DUP4 DUP6 SUB SLT ISZERO PUSH3 0x2FF JUMPI PUSH0 DUP1 REVERT JUMPDEST DUP3 MLOAD PUSH1 0x1 PUSH1 0x1 PUSH1 0x40 SHL SUB DUP1 DUP3 GT ISZERO PUSH3 0x316 JUMPI PUSH0 DUP1 REVERT JUMPDEST DUP2 DUP6 ADD SWAP2 POP DUP6 PUSH1 0x1F DUP4 ADD SLT PUSH3 0x32A JUMPI PUSH0 DUP1 REVERT JUMPDEST DUP2 MLOAD PUSH1 0x20 DUP3 DUP3 GT ISZERO PUSH3 0x341 JUMPI PUSH3 0x341 PUSH3 0x2BD JUMP JUMPDEST DUP2 PUSH1 0x5 SHL PUSH1 0x40 MLOAD PUSH1 0x1F NOT PUSH1 0x3F DUP4 ADD AND DUP2 ADD DUP2 DUP2 LT DUP7 DUP3 GT OR ISZERO PUSH3 0x369 JUMPI PUSH3 0x369 PUSH3 0x2BD JUMP JUMPDEST PUSH1 0x40 MSTORE SWAP3 DUP4 MSTORE DUP2 DUP4 ADD SWAP4 POP DUP5 DUP2 ADD DUP3 ADD SWAP3 DUP10 DUP5 GT ISZERO PUSH3 0x387 JUMPI PUSH0 DUP1 REVERT JUMPDEST SWAP5 DUP3 ADD SWAP5 JUMPDEST DUP4 DUP7 LT ISZERO PUSH3 0x3B0 JUMPI PUSH3 0x3A0 DUP7 PUSH3 0x2D1 JUMP JUMPDEST DUP6 MSTORE SWAP5 DUP3 ADD SWAP5 SWAP4 DUP3 ADD SWAP4 PUSH3 0x38C JUMP JUMPDEST SWAP8 SWAP1 SWAP2 ADD MLOAD SWAP7 SWAP9 SWAP7 SWAP8 POP POP POP POP POP POP POP JUMP JUMPDEST PUSH4 0x4E487B71 PUSH1 0xE0 SHL PUSH0 MSTORE PUSH1 0x32 PUSH1 0x4 MSTORE PUSH1 0x24 PUSH0 REVERT JUMPDEST PUSH2 0x1080 DUP1 PUSH3 0x3E4 PUSH0 CODECOPY PUSH0 RETURN INVALID PUSH1 0x80 PUSH1 0x40 MSTORE PUSH1 0x4 CALLDATASIZE LT PUSH2 0x92 JUMPI PUSH0 CALLDATALOAD PUSH1 0xE0 SHR DUP1 PUSH4 0x9ACE38C2 GT PUSH2 0x57 JUMPI DUP1 PUSH4 0x9ACE38C2 EQ PUSH2 0x194 JUMPI DUP1 PUSH4 0xA0E67E2B EQ PUSH2 0x1C4 JUMPI DUP1 PUSH4 0xC01A8C84 EQ PUSH2 0x1E5 JUMPI DUP1 PUSH4 0xC6427474 EQ PUSH2 0x204 JUMPI DUP1 PUSH4 0xEE22610B EQ PUSH2 0x223 JUMPI PUSH0 DUP1 REVERT JUMPDEST DUP1 PUSH4 0x25E7C27 EQ PUSH2 0x9D JUMPI DUP1 PUSH4 0x20EA8D86 EQ PUSH2 0xD9 JUMPI DUP1 PUSH4 0x2F54BF6E EQ PUSH2 0xFA JUMPI DUP1 PUSH4 0x80F59A65 EQ PUSH2 0x138 JUMPI DUP1 PUSH4 0x8D068043 EQ PUSH2 0x171 JUMPI PUSH0 DUP1 REVERT JUMPDEST CALLDATASIZE PUSH2 0x99 JUMPI STOP JUMPDEST PUSH0 DUP1 REVERT JUMPDEST CALLVALUE DUP1 ISZERO PUSH2 0xA8 JUMPI PUSH0 DUP1 REVERT JUMPDEST POP PUSH2 0xBC PUSH2 0xB7 CALLDATASIZE PUSH1 0x4 PUSH2 0xB55 JUMP JUMPDEST PUSH2 0x242 JUMP JUMPDEST PUSH1 0x40 MLOAD PUSH1 0x1 PUSH1 0x1 PUSH1 0xA0 SHL SUB SWAP1 SWAP2 AND DUP2 MSTORE PUSH1 0x20 ADD JUMPDEST PUSH1 0x40 MLOAD DUP1 SWAP2 SUB SWAP1 RETURN JUMPDEST CALLVALUE DUP1 ISZERO PUSH2 0xE4 JUMPI PUSH0 DUP1 REVERT JUMPDEST POP PUSH2 0xF8 PUSH2 0xF3 CALLDATASIZE PUSH1 0x4 PUSH2 0xB55 JUMP JUMPDEST PUSH2 0x269 JUMP JUMPDEST STOP JUMPDEST CALLVALUE DUP1 ISZERO PUSH2 0x105 JUMPI PUSH0 DUP1 REVERT JUMPDEST POP PUSH2 0x128 PUSH2 0x114 CALLDATASIZE PUSH1 0x4 PUSH2 0xB87 JUMP JUMPDEST PUSH1 0x1 PUSH1 0x20 MSTORE PUSH0 SWAP1 DUP2 MSTORE PUSH1 0x40 SWAP1 KECCAK256 SLOAD PUSH1 0xFF AND DUP2 JUMP JUMPDEST PUSH1 0x40 MLOAD SWAP1 ISZERO ISZERO DUP2 MSTORE PUSH1 0x20 ADD PUSH2 0xD0 JUMP JUMPDEST CALLVALUE DUP1 ISZERO PUSH2 0x143 JUMPI PUSH0 DUP1 REVERT JUMPDEST POP PUSH2 0x128 PUSH2 0x152 CALLDATASIZE PUSH1 0x4 PUSH2 0xBA7 JUMP JUMPDEST PUSH1 0x3 PUSH1 0x20 SWAP1 DUP2 MSTORE PUSH0 SWAP3 DUP4 MSTORE PUSH1 0x40 DUP1 DUP5 KECCAK256 SWAP1 SWAP2 MSTORE SWAP1 DUP3 MSTORE SWAP1 KECCAK256 SLOAD PUSH1 0xFF AND DUP2 JUMP JUMPDEST CALLVALUE DUP1 ISZERO PUSH2 0x17C JUMPI PUSH0 DUP1 REVERT JUMPDEST POP PUSH2 0x186 PUSH1 0x2 SLOAD DUP2 JUMP JUMPDEST PUSH1 0x40 MLOAD SWAP1 DUP2 MSTORE PUSH1 0x20 ADD PUSH2 0xD0 JUMP JUMPDEST CALLVALUE DUP1 ISZERO PUSH2 0x19F JUMPI PUSH0 DUP1 REVERT JUMPDEST POP PUSH2 0x1B3 PUSH2 0x1AE CALLDATASIZE PUSH1 0x4 PUSH2 0xB55 JUMP JUMPDEST PUSH2 0x40A JUMP JUMPDEST PUSH1 0x40 MLOAD PUSH2 0xD0 SWAP6 SWAP5 SWAP4 SWAP3 SWAP2 SWAP1 PUSH2 0xC14 JUMP JUMPDEST CALLVALUE DUP1 ISZERO PUSH2 0x1CF JUMPI PUSH0 DUP1 REVERT JUMPDEST POP PUSH2 0x1D8 PUSH2 0x4DF JUMP JUMPDEST PUSH1 0x40 MLOAD PUSH2 0xD0 SWAP2 SWAP1 PUSH2 0xC4E JUMP JUMPDEST CALLVALUE DUP1 ISZERO PUSH2 0x1F0 JUMPI PUSH0 DUP1 REVERT JUMPDEST POP PUSH2 0xF8 PUSH2 0x1FF CALLDATASIZE PUSH1 0x4 PUSH2 0xB55 JUMP JUMPDEST PUSH2 0x53E JUMP JUMPDEST CALLVALUE DUP1 ISZERO PUSH2 0x20F JUMPI PUSH0 DUP1 REVERT JUMPDEST POP PUSH2 0xF8 PUSH2 0x21E CALLDATASIZE PUSH1 0x4 PUSH2 0xCAE JUMP JUMPDEST PUSH2 0x70F JUMP JUMPDEST CALLVALUE DUP1 ISZERO PUSH2 0x22E JUMPI PUSH0 DUP1 REVERT JUMPDEST POP PUSH2 0xF8 PUSH2 0x23D CALLDATASIZE PUSH1 0x4 PUSH2 0xB55 JUMP JUMPDEST PUSH2 0x896 JUMP JUMPDEST PUSH0 DUP2 DUP2 SLOAD DUP2 LT PUSH2 0x250 JUMPI PUSH0 DUP1 REVERT JUMPDEST PUSH0 SWAP2 DUP3 MSTORE PUSH1 0x20 SWAP1 SWAP2 KECCAK256 ADD SLOAD PUSH1 0x1 PUSH1 0x1 PUSH1 0xA0 SHL SUB AND SWAP1 POP DUP2 JUMP JUMPDEST CALLER PUSH0 SWAP1 DUP2 MSTORE PUSH1 0x1 PUSH1 0x20 MSTORE PUSH1 0x40 SWAP1 KECCAK256 SLOAD PUSH1 0xFF AND PUSH2 0x2A0 JUMPI PUSH1 0x40 MLOAD PUSH3 0x461BCD PUSH1 0xE5 SHL DUP2 MSTORE PUSH1 0x4 ADD PUSH2 0x297 SWAP1 PUSH2 0xD72 JUMP JUMPDEST PUSH1 0x40 MLOAD DUP1 SWAP2 SUB SWAP1 REVERT JUMPDEST PUSH1 0x4 SLOAD DUP2 SWAP1 DUP2 LT PUSH2 0x2C3 JUMPI PUSH1 0x40 MLOAD PUSH3 0x461BCD PUSH1 0xE5 SHL DUP2 MSTORE PUSH1 0x4 ADD PUSH2 0x297 SWAP1 PUSH2 0xDA9 JUMP JUMPDEST DUP2 PUSH1 0x4 DUP2 DUP2 SLOAD DUP2 LT PUSH2 0x2D7 JUMPI PUSH2 0x2D7 PUSH2 0xDDE JUMP JUMPDEST PUSH0 SWAP2 DUP3 MSTORE PUSH1 0x20 SWAP1 SWAP2 KECCAK256 PUSH1 0x3 PUSH1 0x5 SWAP1 SWAP3 MUL ADD ADD SLOAD PUSH1 0xFF AND ISZERO PUSH2 0x30A JUMPI PUSH1 0x40 MLOAD PUSH3 0x461BCD PUSH1 0xE5 SHL DUP2 MSTORE PUSH1 0x4 ADD PUSH2 0x297 SWAP1 PUSH2 0xDF2 JUMP JUMPDEST PUSH0 DUP4 DUP2 MSTORE PUSH1 0x3 PUSH1 0x20 SWAP1 DUP2 MSTORE PUSH1 0x40 DUP1 DUP4 KECCAK256 CALLER DUP5 MSTORE SWAP1 SWAP2 MSTORE SWAP1 KECCAK256 SLOAD PUSH1 0xFF AND PUSH2 0x384 JUMPI PUSH1 0x40 MLOAD PUSH3 0x461BCD PUSH1 0xE5 SHL DUP2 MSTORE PUSH1 0x20 PUSH1 0x4 DUP3 ADD MSTORE PUSH1 0x29 PUSH1 0x24 DUP3 ADD MSTORE PUSH32 0x504E4A432054726561737572793A205478206E6F7420636F6E6669726D656420 PUSH1 0x44 DUP3 ADD MSTORE PUSH9 0x313C9031B0B63632B9 PUSH1 0xB9 SHL PUSH1 0x64 DUP3 ADD MSTORE PUSH1 0x84 ADD PUSH2 0x297 JUMP JUMPDEST PUSH1 0x1 PUSH1 0x4 DUP5 DUP2 SLOAD DUP2 LT PUSH2 0x399 JUMPI PUSH2 0x399 PUSH2 0xDDE JUMP JUMPDEST SWAP1 PUSH0 MSTORE PUSH1 0x20 PUSH0 KECCAK256 SWAP1 PUSH1 0x5 MUL ADD PUSH1 0x4 ADD PUSH0 DUP3 DUP3 SLOAD PUSH2 0x3B6 SWAP2 SWAP1 PUSH2 0xE49 JUMP JUMPDEST SWAP1 SWAP2 SSTORE POP POP PUSH0 DUP4 DUP2 MSTORE PUSH1 0x3 PUSH1 0x20 SWAP1 DUP2 MSTORE PUSH1 0x40 DUP1 DUP4 KECCAK256 CALLER DUP1 DUP6 MSTORE SWAP3 MSTORE DUP1 DUP4 KECCAK256 DUP1 SLOAD PUSH1 0xFF NOT AND SWAP1 SSTORE MLOAD SWAP1 SWAP2 DUP6 SWAP2 PUSH32 0x4CD471041F6B9FF47536A54A3D3AB62D0FA9DD5E36C0418B294B1673ACB31881 SWAP2 SWAP1 LOG3 POP POP POP JUMP JUMPDEST PUSH1 0x4 DUP2 DUP2 SLOAD DUP2 LT PUSH2 0x419 JUMPI PUSH0 DUP1 REVERT JUMPDEST PUSH0 SWAP2 DUP3 MSTORE PUSH1 0x20 SWAP1 SWAP2 KECCAK256 PUSH1 0x5 SWAP1 SWAP2 MUL ADD DUP1 SLOAD PUSH1 0x1 DUP3 ADD SLOAD PUSH1 0x2 DUP4 ADD DUP1 SLOAD PUSH1 0x1 PUSH1 0x1 PUSH1 0xA0 SHL SUB SWAP1 SWAP4 AND SWAP5 POP SWAP1 SWAP3 SWAP2 PUSH2 0x44E SWAP1 PUSH2 0xE62 JUMP JUMPDEST DUP1 PUSH1 0x1F ADD PUSH1 0x20 DUP1 SWAP2 DIV MUL PUSH1 0x20 ADD PUSH1 0x40 MLOAD SWAP1 DUP2 ADD PUSH1 0x40 MSTORE DUP1 SWAP3 SWAP2 SWAP1 DUP2 DUP2 MSTORE PUSH1 0x20 ADD DUP3 DUP1 SLOAD PUSH2 0x47A SWAP1 PUSH2 0xE62 JUMP JUMPDEST DUP1 ISZERO PUSH2 0x4C5 JUMPI DUP1 PUSH1 0x1F LT PUSH2 0x49C JUMPI PUSH2 0x100 DUP1 DUP4 SLOAD DIV MUL DUP4 MSTORE SWAP2 PUSH1 0x20 ADD SWAP2 PUSH2 0x4C5 JUMP JUMPDEST DUP3 ADD SWAP2 SWAP1 PUSH0 MSTORE PUSH1 0x20 PUSH0 KECCAK256 SWAP1 JUMPDEST DUP2 SLOAD DUP2 MSTORE SWAP1 PUSH1 0x1 ADD SWAP1 PUSH1 0x20 ADD DUP1 DUP4 GT PUSH2 0x4A8 JUMPI DUP3 SWAP1 SUB PUSH1 0x1F AND DUP3 ADD SWAP2 JUMPDEST POP POP POP POP PUSH1 0x3 DUP4 ADD SLOAD PUSH1 0x4 SWAP1 SWAP4 ADD SLOAD SWAP2 SWAP3 PUSH1 0xFF AND SWAP2 SWAP1 POP DUP6 JUMP JUMPDEST PUSH1 0x60 PUSH0 DUP1 SLOAD DUP1 PUSH1 0x20 MUL PUSH1 0x20 ADD PUSH1 0x40 MLOAD SWAP1 DUP2 ADD PUSH1 0x40 MSTORE DUP1 SWAP3 SWAP2 SWAP1 DUP2 DUP2 MSTORE PUSH1 0x20 ADD DUP3 DUP1 SLOAD DUP1 ISZERO PUSH2 0x534 JUMPI PUSH1 0x20 MUL DUP3 ADD SWAP2 SWAP1 PUSH0 MSTORE PUSH1 0x20 PUSH0 KECCAK256 SWAP1 JUMPDEST DUP2 SLOAD PUSH1 0x1 PUSH1 0x1 PUSH1 0xA0 SHL SUB AND DUP2 MSTORE PUSH1 0x1 SWAP1 SWAP2 ADD SWAP1 PUSH1 0x20 ADD DUP1 DUP4 GT PUSH2 0x516 JUMPI JUMPDEST POP POP POP POP POP SWAP1 POP SWAP1 JUMP JUMPDEST CALLER PUSH0 SWAP1 DUP2 MSTORE PUSH1 0x1 PUSH1 0x20 MSTORE PUSH1 0x40 SWAP1 KECCAK256 SLOAD PUSH1 0xFF AND PUSH2 0x56C JUMPI PUSH1 0x40 MLOAD PUSH3 0x461BCD PUSH1 0xE5 SHL DUP2 MSTORE PUSH1 0x4 ADD PUSH2 0x297 SWAP1 PUSH2 0xD72 JUMP JUMPDEST PUSH1 0x4 SLOAD DUP2 SWAP1 DUP2 LT PUSH2 0x58F JUMPI PUSH1 0x40 MLOAD PUSH3 0x461BCD PUSH1 0xE5 SHL DUP2 MSTORE PUSH1 0x4 ADD PUSH2 0x297 SWAP1 PUSH2 0xDA9 JUMP JUMPDEST DUP2 PUSH1 0x4 DUP2 DUP2 SLOAD DUP2 LT PUSH2 0x5A3 JUMPI PUSH2 0x5A3 PUSH2 0xDDE JUMP JUMPDEST PUSH0 SWAP2 DUP3 MSTORE PUSH1 0x20 SWAP1 SWAP2 KECCAK256 PUSH1 0x3 PUSH1 0x5 SWAP1 SWAP3 MUL ADD ADD SLOAD PUSH1 0xFF AND ISZERO PUSH2 0x5D6 JUMPI PUSH1 0x40 MLOAD PUSH3 0x461BCD PUSH1 0xE5 SHL DUP2 MSTORE PUSH1 0x4 ADD PUSH2 0x297 SWAP1 PUSH2 0xDF2 JUMP JUMPDEST PUSH0 DUP4 DUP2 MSTORE PUSH1 0x3 PUSH1 0x20 SWAP1 DUP2 MSTORE PUSH1 0x40 DUP1 DUP4 KECCAK256 CALLER DUP5 MSTORE SWAP1 SWAP2 MSTORE SWAP1 KECCAK256 SLOAD PUSH1 0xFF AND ISZERO PUSH2 0x652 JUMPI PUSH1 0x40 MLOAD PUSH3 0x461BCD PUSH1 0xE5 SHL DUP2 MSTORE PUSH1 0x20 PUSH1 0x4 DUP3 ADD MSTORE PUSH1 0x2A PUSH1 0x24 DUP3 ADD MSTORE PUSH32 0x504E4A432054726561737572793A20416C726561647920636F6E6669726D6564 PUSH1 0x44 DUP3 ADD MSTORE PUSH10 0x10313C9031B0B63632B9 PUSH1 0xB1 SHL PUSH1 0x64 DUP3 ADD MSTORE PUSH1 0x84 ADD PUSH2 0x297 JUMP JUMPDEST PUSH1 0x1 PUSH1 0x4 DUP5 DUP2 SLOAD DUP2 LT PUSH2 0x667 JUMPI PUSH2 0x667 PUSH2 0xDDE JUMP JUMPDEST SWAP1 PUSH0 MSTORE PUSH1 0x20 PUSH0 KECCAK256 SWAP1 PUSH1 0x5 MUL ADD PUSH1 0x4 ADD PUSH0 DUP3 DUP3 SLOAD PUSH2 0x684 SWAP2 SWAP1 PUSH2 0xE9A JUMP JUMPDEST SWAP1 SWAP2 SSTORE POP POP PUSH0 DUP4 DUP2 MSTORE PUSH1 0x3 PUSH1 0x20 SWAP1 DUP2 MSTORE PUSH1 0x40 DUP1 DUP4 KECCAK256 CALLER DUP1 DUP6 MSTORE SWAP3 MSTORE DUP1 DUP4 KECCAK256 DUP1 SLOAD PUSH1 0xFF NOT AND PUSH1 0x1 OR SWAP1 SSTORE MLOAD SWAP1 SWAP2 DUP6 SWAP2 PUSH32 0x15C2F311C9E0F53B50388279894AEFF029A3457884A6601E924FCA879E12ADCC SWAP2 SWAP1 LOG3 PUSH1 0x2 SLOAD PUSH1 0x4 DUP5 DUP2 SLOAD DUP2 LT PUSH2 0x6EC JUMPI PUSH2 0x6EC PUSH2 0xDDE JUMP JUMPDEST SWAP1 PUSH0 MSTORE PUSH1 0x20 PUSH0 KECCAK256 SWAP1 PUSH1 0x5 MUL ADD PUSH1 0x4 ADD SLOAD LT PUSH2 0x70A JUMPI PUSH2 0x70A DUP4 PUSH2 0x896 JUMP JUMPDEST POP POP POP JUMP JUMPDEST CALLER PUSH0 SWAP1 DUP2 MSTORE PUSH1 0x1 PUSH1 0x20 MSTORE PUSH1 0x40 SWAP1 KECCAK256 SLOAD PUSH1 0xFF AND PUSH2 0x73D JUMPI PUSH1 0x40 MLOAD PUSH3 0x461BCD PUSH1 0xE5 SHL DUP2 MSTORE PUSH1 0x4 ADD PUSH2 0x297 SWAP1 PUSH2 0xD72 JUMP JUMPDEST PUSH1 0x4 DUP1 SLOAD PUSH1 0x40 DUP1 MLOAD PUSH1 0xA0 DUP2 ADD DUP3 MSTORE PUSH1 0x1 PUSH1 0x1 PUSH1 0xA0 SHL SUB DUP8 DUP2 AND DUP3 MSTORE PUSH1 0x20 DUP3 ADD DUP8 DUP2 MSTORE SWAP3 DUP3 ADD DUP7 DUP2 MSTORE PUSH0 PUSH1 0x60 DUP5 ADD DUP2 SWAP1 MSTORE PUSH1 0x80 DUP5 ADD DUP2 SWAP1 MSTORE PUSH1 0x1 DUP7 ADD DUP8 SSTORE SWAP6 SWAP1 SWAP6 MSTORE DUP2 MLOAD PUSH32 0x8A35ACFBC15FF81A39AE7D344FD709F28E8600B4AA8C65C6B64BFE7FE36BD19B PUSH1 0x5 DUP7 MUL SWAP1 DUP2 ADD DUP1 SLOAD PUSH1 0x1 PUSH1 0x1 PUSH1 0xA0 SHL SUB NOT AND SWAP3 SWAP1 SWAP4 AND SWAP2 SWAP1 SWAP2 OR DUP3 SSTORE SWAP3 MLOAD PUSH32 0x8A35ACFBC15FF81A39AE7D344FD709F28E8600B4AA8C65C6B64BFE7FE36BD19C DUP5 ADD SSTORE SWAP4 MLOAD SWAP3 SWAP4 SWAP1 SWAP3 SWAP1 SWAP2 PUSH32 0x8A35ACFBC15FF81A39AE7D344FD709F28E8600B4AA8C65C6B64BFE7FE36BD19D ADD SWAP1 PUSH2 0x819 SWAP1 DUP3 PUSH2 0xEF8 JUMP JUMPDEST POP PUSH1 0x60 DUP3 ADD MLOAD PUSH1 0x3 DUP3 ADD DUP1 SLOAD PUSH1 0xFF NOT AND SWAP2 ISZERO ISZERO SWAP2 SWAP1 SWAP2 OR SWAP1 SSTORE PUSH1 0x80 SWAP1 SWAP2 ADD MLOAD PUSH1 0x4 SWAP1 SWAP2 ADD SSTORE PUSH1 0x40 MLOAD PUSH1 0x1 PUSH1 0x1 PUSH1 0xA0 SHL SUB DUP6 AND SWAP1 CALLER SWAP1 DUP4 SWAP1 PUSH32 0x2ECF8C4571BE1F8A0B1E6FEAA711128F3F8038E97869AA59D0F595E21F50EAA0 SWAP1 PUSH2 0x87F SWAP1 DUP9 SWAP1 DUP9 SWAP1 PUSH2 0xFB8 JUMP JUMPDEST PUSH1 0x40 MLOAD DUP1 SWAP2 SUB SWAP1 LOG4 PUSH2 0x890 DUP2 PUSH2 0x53E JUMP JUMPDEST POP POP POP POP JUMP JUMPDEST CALLER PUSH0 SWAP1 DUP2 MSTORE PUSH1 0x1 PUSH1 0x20 MSTORE PUSH1 0x40 SWAP1 KECCAK256 SLOAD PUSH1 0xFF AND PUSH2 0x8C4 JUMPI PUSH1 0x40 MLOAD PUSH3 0x461BCD PUSH1 0xE5 SHL DUP2 MSTORE PUSH1 0x4 ADD PUSH2 0x297 SWAP1 PUSH2 0xD72 JUMP JUMPDEST PUSH1 0x4 SLOAD DUP2 SWAP1 DUP2 LT PUSH2 0x8E7 JUMPI PUSH1 0x40 MLOAD PUSH3 0x461BCD PUSH1 0xE5 SHL DUP2 MSTORE PUSH1 0x4 ADD PUSH2 0x297 SWAP1 PUSH2 0xDA9 JUMP JUMPDEST DUP2 PUSH1 0x4 DUP2 DUP2 SLOAD DUP2 LT PUSH2 0x8FB JUMPI PUSH2 0x8FB PUSH2 0xDDE JUMP JUMPDEST PUSH0 SWAP2 DUP3 MSTORE PUSH1 0x20 SWAP1 SWAP2 KECCAK256 PUSH1 0x3 PUSH1 0x5 SWAP1 SWAP3 MUL ADD ADD SLOAD PUSH1 0xFF AND ISZERO PUSH2 0x92E JUMPI PUSH1 0x40 MLOAD PUSH3 0x461BCD PUSH1 0xE5 SHL DUP2 MSTORE PUSH1 0x4 ADD PUSH2 0x297 SWAP1 PUSH2 0xDF2 JUMP JUMPDEST PUSH2 0x936 PUSH2 0xAE3 JUMP JUMPDEST PUSH0 PUSH1 0x4 DUP5 DUP2 SLOAD DUP2 LT PUSH2 0x94A JUMPI PUSH2 0x94A PUSH2 0xDDE JUMP JUMPDEST SWAP1 PUSH0 MSTORE PUSH1 0x20 PUSH0 KECCAK256 SWAP1 PUSH1 0x5 MUL ADD SWAP1 POP PUSH1 0x2 SLOAD DUP2 PUSH1 0x4 ADD SLOAD LT ISZERO PUSH2 0x9BA JUMPI PUSH1 0x40 MLOAD PUSH3 0x461BCD PUSH1 0xE5 SHL DUP2 MSTORE PUSH1 0x20 PUSH1 0x4 DUP3 ADD MSTORE PUSH1 0x24 DUP1 DUP3 ADD MSTORE PUSH32 0x504E4A432054726561737572793A20436F6E73656E737573206E6F7420726561 PUSH1 0x44 DUP3 ADD MSTORE PUSH4 0x18DA1959 PUSH1 0xE2 SHL PUSH1 0x64 DUP3 ADD MSTORE PUSH1 0x84 ADD PUSH2 0x297 JUMP JUMPDEST PUSH1 0x3 DUP2 ADD DUP1 SLOAD PUSH1 0xFF NOT AND PUSH1 0x1 SWAP1 DUP2 OR SWAP1 SWAP2 SSTORE DUP2 SLOAD SWAP1 DUP3 ADD SLOAD PUSH1 0x40 MLOAD PUSH0 SWAP3 PUSH1 0x1 PUSH1 0x1 PUSH1 0xA0 SHL SUB AND SWAP2 SWAP1 PUSH2 0x9F0 SWAP1 PUSH1 0x2 DUP7 ADD SWAP1 PUSH2 0xFD8 JUMP JUMPDEST PUSH0 PUSH1 0x40 MLOAD DUP1 DUP4 SUB DUP2 DUP6 DUP8 GAS CALL SWAP3 POP POP POP RETURNDATASIZE DUP1 PUSH0 DUP2 EQ PUSH2 0xA2A JUMPI PUSH1 0x40 MLOAD SWAP2 POP PUSH1 0x1F NOT PUSH1 0x3F RETURNDATASIZE ADD AND DUP3 ADD PUSH1 0x40 MSTORE RETURNDATASIZE DUP3 MSTORE RETURNDATASIZE PUSH0 PUSH1 0x20 DUP5 ADD RETURNDATACOPY PUSH2 0xA2F JUMP JUMPDEST PUSH1 0x60 SWAP2 POP JUMPDEST POP POP SWAP1 POP DUP1 PUSH2 0xA8C JUMPI PUSH1 0x40 MLOAD PUSH3 0x461BCD PUSH1 0xE5 SHL DUP2 MSTORE PUSH1 0x20 PUSH1 0x4 DUP3 ADD MSTORE PUSH1 0x24 DUP1 DUP3 ADD MSTORE PUSH32 0x504E4A432054726561737572793A2043616C6C20657865637574696F6E206661 PUSH1 0x44 DUP3 ADD MSTORE PUSH4 0x1A5B1959 PUSH1 0xE2 SHL PUSH1 0x64 DUP3 ADD MSTORE PUSH1 0x84 ADD PUSH2 0x297 JUMP JUMPDEST PUSH1 0x40 MLOAD CALLER SWAP1 DUP7 SWAP1 PUSH32 0xEFC13BDCF58F184EA7CAE26B499FB33B539E01D0197CEA456F3ADA289B8CF19B SWAP1 PUSH0 SWAP1 LOG3 POP POP PUSH2 0x70A PUSH1 0x1 PUSH32 0x9B779B17422D0DF92223018B32B4D1FA46E071723D6817E2486D003BECC55F00 SSTORE JUMP JUMPDEST PUSH2 0xAEB PUSH2 0xB11 JUMP JUMPDEST PUSH1 0x2 PUSH32 0x9B779B17422D0DF92223018B32B4D1FA46E071723D6817E2486D003BECC55F00 SSTORE JUMP JUMPDEST PUSH32 0x9B779B17422D0DF92223018B32B4D1FA46E071723D6817E2486D003BECC55F00 SLOAD PUSH1 0x2 SUB PUSH2 0xB53 JUMPI PUSH1 0x40 MLOAD PUSH4 0x3EE5AEB5 PUSH1 0xE0 SHL DUP2 MSTORE PUSH1 0x4 ADD PUSH1 0x40 MLOAD DUP1 SWAP2 SUB SWAP1 REVERT JUMPDEST JUMP JUMPDEST PUSH0 PUSH1 0x20 DUP3 DUP5 SUB SLT ISZERO PUSH2 0xB65 JUMPI PUSH0 DUP1 REVERT JUMPDEST POP CALLDATALOAD SWAP2 SWAP1 POP JUMP JUMPDEST DUP1 CALLDATALOAD PUSH1 0x1 PUSH1 0x1 PUSH1 0xA0 SHL SUB DUP2 AND DUP2 EQ PUSH2 0xB82 JUMPI PUSH0 DUP1 REVERT JUMPDEST SWAP2 SWAP1 POP JUMP JUMPDEST PUSH0 PUSH1 0x20 DUP3 DUP5 SUB SLT ISZERO PUSH2 0xB97 JUMPI PUSH0 DUP1 REVERT JUMPDEST PUSH2 0xBA0 DUP3 PUSH2 0xB6C JUMP JUMPDEST SWAP4 SWAP3 POP POP POP JUMP JUMPDEST PUSH0 DUP1 PUSH1 0x40 DUP4 DUP6 SUB SLT ISZERO PUSH2 0xBB8 JUMPI PUSH0 DUP1 REVERT JUMPDEST DUP3 CALLDATALOAD SWAP2 POP PUSH2 0xBC8 PUSH1 0x20 DUP5 ADD PUSH2 0xB6C JUMP JUMPDEST SWAP1 POP SWAP3 POP SWAP3 SWAP1 POP JUMP JUMPDEST PUSH0 DUP2 MLOAD DUP1 DUP5 MSTORE PUSH0 JUMPDEST DUP2 DUP2 LT ISZERO PUSH2 0xBF5 JUMPI PUSH1 0x20 DUP2 DUP6 ADD DUP2 ADD MLOAD DUP7 DUP4 ADD DUP3 ADD MSTORE ADD PUSH2 0xBD9 JUMP JUMPDEST POP PUSH0 PUSH1 0x20 DUP3 DUP7 ADD ADD MSTORE PUSH1 0x20 PUSH1 0x1F NOT PUSH1 0x1F DUP4 ADD AND DUP6 ADD ADD SWAP2 POP POP SWAP3 SWAP2 POP POP JUMP JUMPDEST PUSH1 0x1 DUP1 PUSH1 0xA0 SHL SUB DUP7 AND DUP2 MSTORE DUP5 PUSH1 0x20 DUP3 ADD MSTORE PUSH1 0xA0 PUSH1 0x40 DUP3 ADD MSTORE PUSH0 PUSH2 0xC3A PUSH1 0xA0 DUP4 ADD DUP7 PUSH2 0xBD1 JUMP JUMPDEST SWAP4 ISZERO ISZERO PUSH1 0x60 DUP4 ADD MSTORE POP PUSH1 0x80 ADD MSTORE SWAP4 SWAP3 POP POP POP JUMP JUMPDEST PUSH1 0x20 DUP1 DUP3 MSTORE DUP3 MLOAD DUP3 DUP3 ADD DUP2 SWAP1 MSTORE PUSH0 SWAP2 SWAP1 DUP5 DUP3 ADD SWAP1 PUSH1 0x40 DUP6 ADD SWAP1 DUP5 JUMPDEST DUP2 DUP2 LT ISZERO PUSH2 0xC8E JUMPI DUP4 MLOAD PUSH1 0x1 PUSH1 0x1 PUSH1 0xA0 SHL SUB AND DUP4 MSTORE SWAP3 DUP5 ADD SWAP3 SWAP2 DUP5 ADD SWAP2 PUSH1 0x1 ADD PUSH2 0xC69 JUMP JUMPDEST POP SWAP1 SWAP7 SWAP6 POP POP POP POP POP POP JUMP JUMPDEST PUSH4 0x4E487B71 PUSH1 0xE0 SHL PUSH0 MSTORE PUSH1 0x41 PUSH1 0x4 MSTORE PUSH1 0x24 PUSH0 REVERT JUMPDEST PUSH0 DUP1 PUSH0 PUSH1 0x60 DUP5 DUP7 SUB SLT ISZERO PUSH2 0xCC0 JUMPI PUSH0 DUP1 REVERT JUMPDEST PUSH2 0xCC9 DUP5 PUSH2 0xB6C JUMP JUMPDEST SWAP3 POP PUSH1 0x20 DUP5 ADD CALLDATALOAD SWAP2 POP PUSH1 0x40 DUP5 ADD CALLDATALOAD PUSH8 0xFFFFFFFFFFFFFFFF DUP1 DUP3 GT ISZERO PUSH2 0xCEC JUMPI PUSH0 DUP1 REVERT JUMPDEST DUP2 DUP7 ADD SWAP2 POP DUP7 PUSH1 0x1F DUP4 ADD SLT PUSH2 0xCFF JUMPI PUSH0 DUP1 REVERT JUMPDEST DUP2 CALLDATALOAD DUP2 DUP2 GT ISZERO PUSH2 0xD11 JUMPI PUSH2 0xD11 PUSH2 0xC9A JUMP JUMPDEST PUSH1 0x40 MLOAD PUSH1 0x1F DUP3 ADD PUSH1 0x1F NOT SWAP1 DUP2 AND PUSH1 0x3F ADD AND DUP2 ADD SWAP1 DUP4 DUP3 GT DUP2 DUP4 LT OR ISZERO PUSH2 0xD39 JUMPI PUSH2 0xD39 PUSH2 0xC9A JUMP JUMPDEST DUP2 PUSH1 0x40 MSTORE DUP3 DUP2 MSTORE DUP10 PUSH1 0x20 DUP5 DUP8 ADD ADD GT ISZERO PUSH2 0xD51 JUMPI PUSH0 DUP1 REVERT JUMPDEST DUP3 PUSH1 0x20 DUP7 ADD PUSH1 0x20 DUP4 ADD CALLDATACOPY PUSH0 PUSH1 0x20 DUP5 DUP4 ADD ADD MSTORE DUP1 SWAP6 POP POP POP POP POP POP SWAP3 POP SWAP3 POP SWAP3 JUMP JUMPDEST PUSH1 0x20 DUP1 DUP3 MSTORE PUSH1 0x1C SWAP1 DUP3 ADD MSTORE PUSH32 0x504E4A432054726561737572793A204163636573732064656E69656400000000 PUSH1 0x40 DUP3 ADD MSTORE PUSH1 0x60 ADD SWAP1 JUMP JUMPDEST PUSH1 0x20 DUP1 DUP3 MSTORE DUP2 DUP2 ADD MSTORE PUSH32 0x504E4A432054726561737572793A20547820646F6573206E6F74206578697374 PUSH1 0x40 DUP3 ADD MSTORE PUSH1 0x60 ADD SWAP1 JUMP JUMPDEST PUSH4 0x4E487B71 PUSH1 0xE0 SHL PUSH0 MSTORE PUSH1 0x32 PUSH1 0x4 MSTORE PUSH1 0x24 PUSH0 REVERT JUMPDEST PUSH1 0x20 DUP1 DUP3 MSTORE PUSH1 0x23 SWAP1 DUP3 ADD MSTORE PUSH32 0x504E4A432054726561737572793A20547820616C72656164792070726F636573 PUSH1 0x40 DUP3 ADD MSTORE PUSH3 0x1CD959 PUSH1 0xEA SHL PUSH1 0x60 DUP3 ADD MSTORE PUSH1 0x80 ADD SWAP1 JUMP JUMPDEST PUSH4 0x4E487B71 PUSH1 0xE0 SHL PUSH0 MSTORE PUSH1 0x11 PUSH1 0x4 MSTORE PUSH1 0x24 PUSH0 REVERT JUMPDEST DUP2 DUP2 SUB DUP2 DUP2 GT ISZERO PUSH2 0xE5C JUMPI PUSH2 0xE5C PUSH2 0xE35 JUMP JUMPDEST SWAP3 SWAP2 POP POP JUMP JUMPDEST PUSH1 0x1 DUP2 DUP2 SHR SWAP1 DUP3 AND DUP1 PUSH2 0xE76 JUMPI PUSH1 0x7F DUP3 AND SWAP2 POP JUMPDEST PUSH1 0x20 DUP3 LT DUP2 SUB PUSH2 0xE94 JUMPI PUSH4 0x4E487B71 PUSH1 0xE0 SHL PUSH0 MSTORE PUSH1 0x22 PUSH1 0x4 MSTORE PUSH1 0x24 PUSH0 REVERT JUMPDEST POP SWAP2 SWAP1 POP JUMP JUMPDEST DUP1 DUP3 ADD DUP1 DUP3 GT ISZERO PUSH2 0xE5C JUMPI PUSH2 0xE5C PUSH2 0xE35 JUMP JUMPDEST PUSH1 0x1F DUP3 GT ISZERO PUSH2 0x70A JUMPI DUP1 PUSH0 MSTORE PUSH1 0x20 PUSH0 KECCAK256 PUSH1 0x1F DUP5 ADD PUSH1 0x5 SHR DUP2 ADD PUSH1 0x20 DUP6 LT ISZERO PUSH2 0xED2 JUMPI POP DUP1 JUMPDEST PUSH1 0x1F DUP5 ADD PUSH1 0x5 SHR DUP3 ADD SWAP2 POP JUMPDEST DUP2 DUP2 LT ISZERO PUSH2 0xEF1 JUMPI PUSH0 DUP2 SSTORE PUSH1 0x1 ADD PUSH2 0xEDE JUMP JUMPDEST POP POP POP POP POP JUMP JUMPDEST DUP2 MLOAD PUSH8 0xFFFFFFFFFFFFFFFF DUP2 GT ISZERO PUSH2 0xF12 JUMPI PUSH2 0xF12 PUSH2 0xC9A JUMP JUMPDEST PUSH2 0xF26 DUP2 PUSH2 0xF20 DUP5 SLOAD PUSH2 0xE62 JUMP JUMPDEST DUP5 PUSH2 0xEAD JUMP JUMPDEST PUSH1 0x20 DUP1 PUSH1 0x1F DUP4 GT PUSH1 0x1 DUP2 EQ PUSH2 0xF59 JUMPI PUSH0 DUP5 ISZERO PUSH2 0xF42 JUMPI POP DUP6 DUP4 ADD MLOAD JUMPDEST PUSH0 NOT PUSH1 0x3 DUP7 SWAP1 SHL SHR NOT AND PUSH1 0x1 DUP6 SWAP1 SHL OR DUP6 SSTORE PUSH2 0xFB0 JUMP JUMPDEST PUSH0 DUP6 DUP2 MSTORE PUSH1 0x20 DUP2 KECCAK256 PUSH1 0x1F NOT DUP7 AND SWAP2 JUMPDEST DUP3 DUP2 LT ISZERO PUSH2 0xF87 JUMPI DUP9 DUP7 ADD MLOAD DUP3 SSTORE SWAP5 DUP5 ADD SWAP5 PUSH1 0x1 SWAP1 SWAP2 ADD SWAP1 DUP5 ADD PUSH2 0xF68 JUMP JUMPDEST POP DUP6 DUP3 LT ISZERO PUSH2 0xFA4 JUMPI DUP8 DUP6 ADD MLOAD PUSH0 NOT PUSH1 0x3 DUP9 SWAP1 SHL PUSH1 0xF8 AND SHR NOT AND DUP2 SSTORE JUMPDEST POP POP PUSH1 0x1 DUP5 PUSH1 0x1 SHL ADD DUP6 SSTORE JUMPDEST POP POP POP POP POP POP JUMP JUMPDEST DUP3 DUP2 MSTORE PUSH1 0x40 PUSH1 0x20 DUP3 ADD MSTORE PUSH0 PUSH2 0xFD0 PUSH1 0x40 DUP4 ADD DUP5 PUSH2 0xBD1 JUMP JUMPDEST SWAP5 SWAP4 POP POP POP POP JUMP JUMPDEST PUSH0 DUP1 DUP4 SLOAD PUSH2 0xFE5 DUP2 PUSH2 0xE62 JUMP JUMPDEST PUSH1 0x1 DUP3 DUP2 AND DUP1 ISZERO PUSH2 0xFFD JUMPI PUSH1 0x1 DUP2 EQ PUSH2 0x1012 JUMPI PUSH2 0x103E JUMP JUMPDEST PUSH1 0xFF NOT DUP5 AND DUP8 MSTORE DUP3 ISZERO ISZERO DUP4 MUL DUP8 ADD SWAP5 POP PUSH2 0x103E JUMP JUMPDEST DUP8 PUSH0 MSTORE PUSH1 0x20 DUP1 PUSH0 KECCAK256 PUSH0 JUMPDEST DUP6 DUP2 LT ISZERO PUSH2 0x1035 JUMPI DUP2 SLOAD DUP11 DUP3 ADD MSTORE SWAP1 DUP5 ADD SWAP1 DUP3 ADD PUSH2 0x101C JUMP JUMPDEST POP POP POP DUP3 DUP8 ADD SWAP5 POP JUMPDEST POP SWAP3 SWAP7 SWAP6 POP POP POP POP POP POP JUMP INVALID LOG2 PUSH5 0x6970667358 0x22 SLT KECCAK256 0x27 DUP2 SGT 0xE4 SWAP11 DUP16 CODESIZE PUSH8 0xF2449482AD31D259 0xDB SWAP14 RETURNDATACOPY 0x2C 0xEA 0xF6 0xEC 0xE INVALID 0xAE 0xEF CREATE2 SWAP9 0xCF SWAP1 OR PUSH5 0x736F6C6343 STOP ADDMOD XOR STOP CALLER "
				},
				"gasEstimates": {
					"creation": {
						"codeDepositCost": "844800",
						"executionCost": "infinite",
						"totalCost": "infinite"
					},
					"external": {
						"confirmTransaction(uint256)": "infinite",
						"executeTransaction(uint256)": "infinite",
						"getOwners()": "infinite",
						"isConfirmed(uint256,address)": "2693",
						"isOwner(address)": "2573",
						"owners(uint256)": "4600",
						"requiredSignatures()": "2383",
						"revokeConfirmation(uint256)": "63535",
						"submitTransaction(address,uint256,bytes)": "infinite",
						"transactions(uint256)": "infinite"
					}
				},
				"methodIdentifiers": {
					"confirmTransaction(uint256)": "c01a8c84",
					"executeTransaction(uint256)": "ee22610b",
					"getOwners()": "a0e67e2b",
					"isConfirmed(uint256,address)": "80f59a65",
					"isOwner(address)": "2f54bf6e",
					"owners(uint256)": "025e7c27",
					"requiredSignatures()": "8d068043",
					"revokeConfirmation(uint256)": "20ea8d86",
					"submitTransaction(address,uint256,bytes)": "c6427474",
					"transactions(uint256)": "9ace38c2"
				}
			},
			"storageLayout": {
				"storage": [
					{
						"astId": 923,
						"contract": "Smart-Contracts/PNJC_Multisig.sol:PNJCMasterTreasury",
						"label": "owners",
						"offset": 0,
						"slot": "0",
						"type": "t_array(t_address)dyn_storage"
					},
					{
						"astId": 927,
						"contract": "Smart-Contracts/PNJC_Multisig.sol:PNJCMasterTreasury",
						"label": "isOwner",
						"offset": 0,
						"slot": "1",
						"type": "t_mapping(t_address,t_bool)"
					},
					{
						"astId": 929,
						"contract": "Smart-Contracts/PNJC_Multisig.sol:PNJCMasterTreasury",
						"label": "requiredSignatures",
						"offset": 0,
						"slot": "2",
						"type": "t_uint256"
					},
					{
						"astId": 946,
						"contract": "Smart-Contracts/PNJC_Multisig.sol:PNJCMasterTreasury",
						"label": "isConfirmed",
						"offset": 0,
						"slot": "3",
						"type": "t_mapping(t_uint256,t_mapping(t_address,t_bool))"
					},
					{
						"astId": 950,
						"contract": "Smart-Contracts/PNJC_Multisig.sol:PNJCMasterTreasury",
						"label": "transactions",
						"offset": 0,
						"slot": "4",
						"type": "t_array(t_struct(Transaction)940_storage)dyn_storage"
					}
				],
				"types": {
					"t_address": {
						"encoding": "inplace",
						"label": "address",
						"numberOfBytes": "20"
					},
					"t_array(t_address)dyn_storage": {
						"base": "t_address",
						"encoding": "dynamic_array",
						"label": "address[]",
						"numberOfBytes": "32"
					},
					"t_array(t_struct(Transaction)940_storage)dyn_storage": {
						"base": "t_struct(Transaction)940_storage",
						"encoding": "dynamic_array",
						"label": "struct PNJCMasterTreasury.Transaction[]",
						"numberOfBytes": "32"
					},
					"t_bool": {
						"encoding": "inplace",
						"label": "bool",
						"numberOfBytes": "1"
					},
					"t_bytes_storage": {
						"encoding": "bytes",
						"label": "bytes",
						"numberOfBytes": "32"
					},
					"t_mapping(t_address,t_bool)": {
						"encoding": "mapping",
						"key": "t_address",
						"label": "mapping(address => bool)",
						"numberOfBytes": "32",
						"value": "t_bool"
					},
					"t_mapping(t_uint256,t_mapping(t_address,t_bool))": {
						"encoding": "mapping",
						"key": "t_uint256",
						"label": "mapping(uint256 => mapping(address => bool))",
						"numberOfBytes": "32",
						"value": "t_mapping(t_address,t_bool)"
					},
					"t_struct(Transaction)940_storage": {
						"encoding": "inplace",
						"label": "struct PNJCMasterTreasury.Transaction",
						"members": [
							{
								"astId": 931,
								"contract": "Smart-Contracts/PNJC_Multisig.sol:PNJCMasterTreasury",
								"label": "to",
								"offset": 0,
								"slot": "0",
								"type": "t_address"
							},
							{
								"astId": 933,
								"contract": "Smart-Contracts/PNJC_Multisig.sol:PNJCMasterTreasury",
								"label": "value",
								"offset": 0,
								"slot": "1",
								"type": "t_uint256"
							},
							{
								"astId": 935,
								"contract": "Smart-Contracts/PNJC_Multisig.sol:PNJCMasterTreasury",
								"label": "data",
								"offset": 0,
								"slot": "2",
								"type": "t_bytes_storage"
							},
							{
								"astId": 937,
								"contract": "Smart-Contracts/PNJC_Multisig.sol:PNJCMasterTreasury",
								"label": "executed",
								"offset": 0,
								"slot": "3",
								"type": "t_bool"
							},
							{
								"astId": 939,
								"contract": "Smart-Contracts/PNJC_Multisig.sol:PNJCMasterTreasury",
								"label": "approvalCount",
								"offset": 0,
								"slot": "4",
								"type": "t_uint256"
							}
						],
						"numberOfBytes": "160"
					},
					"t_uint256": {
						"encoding": "inplace",
						"label": "uint256",
						"numberOfBytes": "32"
					}
				}
			},
			"userdoc": {
				"kind": "user",
				"methods": {
					"confirmTransaction(uint256)": {
						"notice": "Adds an owner's approval to a pending transaction."
					},
					"constructor": {
						"notice": "Constructor initializes the decentralized governing body."
					},
					"executeTransaction(uint256)": {
						"notice": "Triggers the external call of a confirmed transaction."
					},
					"getOwners()": {
						"notice": "Returns the list of all current Treasury owners."
					},
					"revokeConfirmation(uint256)": {
						"notice": "Revokes a previously granted confirmation."
					},
					"submitTransaction(address,uint256,bytes)": {
						"notice": "Propose a new administrative action or fund transfer."
					}
				},
				"version": 1
			}
		}
	}
}