{
	"Smart-Contracts/PNJC_Staking.sol": {
		"PNJC_Staking_Advanced": {
			"abi": [
				{
					"inputs": [
						{
							"internalType": "address",
							"name": "_pnjcToken",
							"type": "address"
						},
						{
							"internalType": "address",
							"name": "_charityVault",
							"type": "address"
						}
					],
					"stateMutability": "nonpayable",
					"type": "constructor"
				},
				{
					"inputs": [
						{
							"internalType": "address",
							"name": "owner",
							"type": "address"
						}
					],
					"name": "OwnableInvalidOwner",
					"type": "error"
				},
				{
					"inputs": [
						{
							"internalType": "address",
							"name": "account",
							"type": "address"
						}
					],
					"name": "OwnableUnauthorizedAccount",
					"type": "error"
				},
				{
					"inputs": [],
					"name": "ReentrancyGuardReentrantCall",
					"type": "error"
				},
				{
					"inputs": [
						{
							"internalType": "address",
							"name": "token",
							"type": "address"
						}
					],
					"name": "SafeERC20FailedOperation",
					"type": "error"
				},
				{
					"anonymous": false,
					"inputs": [
						{
							"indexed": true,
							"internalType": "address",
							"name": "newVault",
							"type": "address"
						}
					],
					"name": "CharityVaultUpdated",
					"type": "event"
				},
				{
					"anonymous": false,
					"inputs": [
						{
							"indexed": true,
							"internalType": "address",
							"name": "previousOwner",
							"type": "address"
						},
						{
							"indexed": true,
							"internalType": "address",
							"name": "newOwner",
							"type": "address"
						}
					],
					"name": "OwnershipTransferred",
					"type": "event"
				},
				{
					"anonymous": false,
					"inputs": [
						{
							"indexed": true,
							"internalType": "address",
							"name": "user",
							"type": "address"
						},
						{
							"indexed": false,
							"internalType": "uint256",
							"name": "userAmount",
							"type": "uint256"
						},
						{
							"indexed": false,
							"internalType": "uint256",
							"name": "charityAmount",
							"type": "uint256"
						}
					],
					"name": "RewardPaid",
					"type": "event"
				},
				{
					"anonymous": false,
					"inputs": [
						{
							"indexed": true,
							"internalType": "address",
							"name": "user",
							"type": "address"
						},
						{
							"indexed": false,
							"internalType": "uint256",
							"name": "amount",
							"type": "uint256"
						}
					],
					"name": "Staked",
					"type": "event"
				},
				{
					"anonymous": false,
					"inputs": [
						{
							"indexed": true,
							"internalType": "address",
							"name": "user",
							"type": "address"
						},
						{
							"indexed": false,
							"internalType": "uint256",
							"name": "amount",
							"type": "uint256"
						}
					],
					"name": "Withdrawn",
					"type": "event"
				},
				{
					"inputs": [
						{
							"internalType": "address",
							"name": "account",
							"type": "address"
						}
					],
					"name": "balanceOf",
					"outputs": [
						{
							"internalType": "uint256",
							"name": "",
							"type": "uint256"
						}
					],
					"stateMutability": "view",
					"type": "function"
				},
				{
					"inputs": [],
					"name": "charityTaxRate",
					"outputs": [
						{
							"internalType": "uint256",
							"name": "",
							"type": "uint256"
						}
					],
					"stateMutability": "view",
					"type": "function"
				},
				{
					"inputs": [],
					"name": "charityVault",
					"outputs": [
						{
							"internalType": "address",
							"name": "",
							"type": "address"
						}
					],
					"stateMutability": "view",
					"type": "function"
				},
				{
					"inputs": [
						{
							"internalType": "address",
							"name": "account",
							"type": "address"
						}
					],
					"name": "earned",
					"outputs": [
						{
							"internalType": "uint256",
							"name": "",
							"type": "uint256"
						}
					],
					"stateMutability": "view",
					"type": "function"
				},
				{
					"inputs": [],
					"name": "getReward",
					"outputs": [],
					"stateMutability": "nonpayable",
					"type": "function"
				},
				{
					"inputs": [
						{
							"internalType": "address",
							"name": "account",
							"type": "address"
						}
					],
					"name": "getVotingPower",
					"outputs": [
						{
							"internalType": "uint256",
							"name": "",
							"type": "uint256"
						}
					],
					"stateMutability": "view",
					"type": "function"
				},
				{
					"inputs": [],
					"name": "lastUpdateTime",
					"outputs": [
						{
							"internalType": "uint256",
							"name": "",
							"type": "uint256"
						}
					],
					"stateMutability": "view",
					"type": "function"
				},
				{
					"inputs": [],
					"name": "owner",
					"outputs": [
						{
							"internalType": "address",
							"name": "",
							"type": "address"
						}
					],
					"stateMutability": "view",
					"type": "function"
				},
				{
					"inputs": [],
					"name": "pnjcToken",
					"outputs": [
						{
							"internalType": "contract IERC20",
							"name": "",
							"type": "address"
						}
					],
					"stateMutability": "view",
					"type": "function"
				},
				{
					"inputs": [],
					"name": "renounceOwnership",
					"outputs": [],
					"stateMutability": "nonpayable",
					"type": "function"
				},
				{
					"inputs": [],
					"name": "rewardPerToken",
					"outputs": [
						{
							"internalType": "uint256",
							"name": "",
							"type": "uint256"
						}
					],
					"stateMutability": "view",
					"type": "function"
				},
				{
					"inputs": [],
					"name": "rewardPerTokenStored",
					"outputs": [
						{
							"internalType": "uint256",
							"name": "",
							"type": "uint256"
						}
					],
					"stateMutability": "view",
					"type": "function"
				},
				{
					"inputs": [],
					"name": "rewardRate",
					"outputs": [
						{
							"internalType": "uint256",
							"name": "",
							"type": "uint256"
						}
					],
					"stateMutability": "view",
					"type": "function"
				},
				{
					"inputs": [
						{
							"internalType": "address",
							"name": "",
							"type": "address"
						}
					],
					"name": "rewards",
					"outputs": [
						{
							"internalType": "uint256",
							"name": "",
							"type": "uint256"
						}
					],
					"stateMutability": "view",
					"type": "function"
				},
				{
					"inputs": [
						{
							"internalType": "uint256",
							"name": "_newRate",
							"type": "uint256"
						}
					],
					"name": "setCharityTax",
					"outputs": [],
					"stateMutability": "nonpayable",
					"type": "function"
				},
				{
					"inputs": [
						{
							"internalType": "uint256",
							"name": "_rewardRate",
							"type": "uint256"
						}
					],
					"name": "setRewardRate",
					"outputs": [],
					"stateMutability": "nonpayable",
					"type": "function"
				},
				{
					"inputs": [
						{
							"internalType": "uint256",
							"name": "amount",
							"type": "uint256"
						}
					],
					"name": "stake",
					"outputs": [],
					"stateMutability": "nonpayable",
					"type": "function"
				},
				{
					"inputs": [
						{
							"internalType": "address",
							"name": "",
							"type": "address"
						}
					],
					"name": "stakeTimestamp",
					"outputs": [
						{
							"internalType": "uint256",
							"name": "",
							"type": "uint256"
						}
					],
					"stateMutability": "view",
					"type": "function"
				},
				{
					"inputs": [],
					"name": "totalSupply",
					"outputs": [
						{
							"internalType": "uint256",
							"name": "",
							"type": "uint256"
						}
					],
					"stateMutability": "view",
					"type": "function"
				},
				{
					"inputs": [
						{
							"internalType": "address",
							"name": "newOwner",
							"type": "address"
						}
					],
					"name": "transferOwnership",
					"outputs": [],
					"stateMutability": "nonpayable",
					"type": "function"
				},
				{
					"inputs": [
						{
							"internalType": "address",
							"name": "_newVault",
							"type": "address"
						}
					],
					"name": "updateCharityVault",
					"outputs": [],
					"stateMutability": "nonpayable",
					"type": "function"
				},
				{
					"inputs": [
						{
							"internalType": "address",
							"name": "",
							"type": "address"
						}
					],
					"name": "userRewardPerTokenPaid",
					"outputs": [
						{
							"internalType": "uint256",
							"name": "",
							"type": "uint256"
						}
					],
					"stateMutability": "view",
					"type": "function"
				},
				{
					"inputs": [
						{
							"internalType": "uint256",
							"name": "amount",
							"type": "uint256"
						}
					],
					"name": "withdraw",
					"outputs": [],
					"stateMutability": "nonpayable",
					"type": "function"
				}
			],
			"devdoc": {
				"errors": {
					"OwnableInvalidOwner(address)": [
						{
							"details": "The owner is not a valid owner account. (eg. `address(0)`)"
						}
					],
					"OwnableUnauthorizedAccount(address)": [
						{
							"details": "The caller account is not authorized to perform an operation."
						}
					],
					"ReentrancyGuardReentrantCall()": [
						{
							"details": "Unauthorized reentrant call."
						}
					],
					"SafeERC20FailedOperation(address)": [
						{
							"details": "An operation with an ERC-20 token failed."
						}
					]
				},
				"kind": "dev",
				"methods": {
					"constructor": {
						"details": "Initialize contract with PNJC token address and Charity Vault address."
					},
					"getVotingPower(address)": {
						"params": {
							"account": "The address of the stakeholder."
						}
					},
					"owner()": {
						"details": "Returns the address of the current owner."
					},
					"renounceOwnership()": {
						"details": "Leaves the contract without owner. It will not be possible to call `onlyOwner` functions. Can only be called by the current owner. NOTE: Renouncing ownership will leave the contract without an owner, thereby disabling any functionality that is only available to the owner."
					},
					"stake(uint256)": {
						"params": {
							"amount": "Quantity of PNJC to stake."
						}
					},
					"transferOwnership(address)": {
						"details": "Transfers ownership of the contract to a new account (`newOwner`). Can only be called by the current owner."
					},
					"withdraw(uint256)": {
						"params": {
							"amount": "Quantity of PNJC to withdraw."
						}
					}
				},
				"version": 1
			},
			"evm": {
				"assembly": "    /* \"Smart-Contracts/PNJC_Staking.sol\":1094:6288  contract PNJC_Staking_Advanced is Ownable, ReentrancyGuard {... */\n  mstore(0x40, 0xa0)\n    /* \"Smart-Contracts/PNJC_Staking.sol\":1416:1419  500 */\n  0x01f4\n    /* \"Smart-Contracts/PNJC_Staking.sol\":1384:1419  uint256 public charityTaxRate = 500 */\n  0x03\n  sstore\n    /* \"Smart-Contracts/PNJC_Staking.sol\":2247:2410  constructor(address _pnjcToken, address _charityVault) Ownable(msg.sender) {... */\n  callvalue\n  dup1\n  iszero\n  tag_1\n  jumpi\n  0x00\n  dup1\n  revert\ntag_1:\n  pop\n  mload(0x40)\n  sub(codesize, bytecodeSize)\n  dup1\n  bytecodeSize\n  dup4\n  codecopy\n  dup2\n  add\n  0x40\n  dup2\n  swap1\n  mstore\n  tag_2\n  swap2\n  tag_3\n  jump\t// in\ntag_2:\n    /* \"Smart-Contracts/PNJC_Staking.sol\":2310:2320  msg.sender */\n  caller\n  dup1\n    /* \"@openzeppelin/contracts@5.6.0/access/Ownable.sol\":1269:1364  if (initialOwner == address(0)) {... */\n  tag_8\n  jumpi\n    /* \"@openzeppelin/contracts@5.6.0/access/Ownable.sol\":1322:1353  OwnableInvalidOwner(address(0)) */\n  mload(0x40)\n  shl(0xe0, 0x1e4fbdf7)\n  dup2\n  mstore\n    /* \"@openzeppelin/contracts@5.6.0/access/Ownable.sol\":1350:1351  0 */\n  0x00\n    /* \"@openzeppelin/contracts@5.6.0/access/Ownable.sol\":1322:1353  OwnableInvalidOwner(address(0)) */\n  0x04\n  dup3\n  add\n    /* \"#utility.yul\":640:691   */\n  mstore\n    /* \"#utility.yul\":613:631   */\n  0x24\n  add\n    /* \"@openzeppelin/contracts@5.6.0/access/Ownable.sol\":1322:1353  OwnableInvalidOwner(address(0)) */\n  mload(0x40)\n  dup1\n  swap2\n  sub\n  swap1\n  revert\n    /* \"@openzeppelin/contracts@5.6.0/access/Ownable.sol\":1269:1364  if (initialOwner == address(0)) {... */\ntag_8:\n    /* \"@openzeppelin/contracts@5.6.0/access/Ownable.sol\":1373:1405  _transferOwnership(initialOwner) */\n  tag_11\n    /* \"@openzeppelin/contracts@5.6.0/access/Ownable.sol\":1392:1404  initialOwner */\n  dup2\n    /* \"@openzeppelin/contracts@5.6.0/access/Ownable.sol\":1373:1391  _transferOwnership */\n  tag_12\n    /* \"@openzeppelin/contracts@5.6.0/access/Ownable.sol\":1373:1405  _transferOwnership(initialOwner) */\n  jump\t// in\ntag_11:\n  pop\n    /* \"@openzeppelin/contracts@5.6.0/utils/ReentrancyGuard.sol\":2365:2366  1 */\n  0x01\n    /* \"@openzeppelin/contracts@5.6.0/utils/ReentrancyGuard.sol\":1505:1571  0x9b779b17422d0df92223018b32b4d1fa46e071723d6817e2486d003becc55f00 */\n  0x9b779b17422d0df92223018b32b4d1fa46e071723d6817e2486d003becc55f00\n    /* \"@openzeppelin/contracts@5.6.0/utils/ReentrancyGuard.sol\":2539:2605  _reentrancyGuardStorageSlot().getUint256Slot().value = NOT_ENTERED */\n  sstore\n  sub(shl(0xa0, 0x01), 0x01)\n    /* \"Smart-Contracts/PNJC_Staking.sol\":2333:2363  pnjcToken = IERC20(_pnjcToken) */\n  swap2\n  dup3\n  and\n  0x80\n  mstore\n    /* \"Smart-Contracts/PNJC_Staking.sol\":2374:2386  charityVault */\n  0x01\n    /* \"Smart-Contracts/PNJC_Staking.sol\":2374:2402  charityVault = _charityVault */\n  dup1\n  sload\n  not(sub(shl(0xa0, 0x01), 0x01))\n  and\n  swap2\n  swap1\n  swap3\n  and\n  or\n  swap1\n  sstore\n    /* \"Smart-Contracts/PNJC_Staking.sol\":1094:6288  contract PNJC_Staking_Advanced is Ownable, ReentrancyGuard {... */\n  jump(tag_24)\n    /* \"@openzeppelin/contracts@5.6.0/access/Ownable.sol\":2912:3099  function _transferOwnership(address newOwner) internal virtual {... */\ntag_12:\n    /* \"@openzeppelin/contracts@5.6.0/access/Ownable.sol\":2985:3001  address oldOwner */\n  0x00\n    /* \"@openzeppelin/contracts@5.6.0/access/Ownable.sol\":3004:3010  _owner */\n  dup1\n  sload\n  sub(shl(0xa0, 0x01), 0x01)\n    /* \"@openzeppelin/contracts@5.6.0/access/Ownable.sol\":3020:3037  _owner = newOwner */\n  dup4\n  dup2\n  and\n  not(sub(shl(0xa0, 0x01), 0x01))\n  dup4\n  and\n  dup2\n  or\n  dup5\n  sstore\n    /* \"@openzeppelin/contracts@5.6.0/access/Ownable.sol\":3052:3092  OwnershipTransferred(oldOwner, newOwner) */\n  mload(0x40)\n    /* \"@openzeppelin/contracts@5.6.0/access/Ownable.sol\":3004:3010  _owner */\n  swap2\n  swap1\n  swap3\n  and\n  swap3\n  dup4\n  swap2\n    /* \"@openzeppelin/contracts@5.6.0/access/Ownable.sol\":3052:3092  OwnershipTransferred(oldOwner, newOwner) */\n  0x8be0079c531659141344cd1fd0a4f28419497f9722a3daafe3b4186f6b6457e0\n  swap2\n    /* \"@openzeppelin/contracts@5.6.0/access/Ownable.sol\":2985:3001  address oldOwner */\n  swap1\n    /* \"@openzeppelin/contracts@5.6.0/access/Ownable.sol\":3052:3092  OwnershipTransferred(oldOwner, newOwner) */\n  log3\n    /* \"@openzeppelin/contracts@5.6.0/access/Ownable.sol\":2975:3099  {... */\n  pop\n    /* \"@openzeppelin/contracts@5.6.0/access/Ownable.sol\":2912:3099  function _transferOwnership(address newOwner) internal virtual {... */\n  pop\n  jump\t// out\n    /* \"#utility.yul\":14:191   */\ntag_23:\n    /* \"#utility.yul\":93:106   */\n  dup1\n  mload\n  sub(shl(0xa0, 0x01), 0x01)\n    /* \"#utility.yul\":135:166   */\n  dup2\n  and\n    /* \"#utility.yul\":125:167   */\n  dup2\n  eq\n    /* \"#utility.yul\":115:185   */\n  tag_26\n  jumpi\n    /* \"#utility.yul\":181:182   */\n  0x00\n    /* \"#utility.yul\":178:179   */\n  dup1\n    /* \"#utility.yul\":171:183   */\n  revert\n    /* \"#utility.yul\":115:185   */\ntag_26:\n    /* \"#utility.yul\":14:191   */\n  swap2\n  swap1\n  pop\n  jump\t// out\n    /* \"#utility.yul\":196:489   */\ntag_3:\n    /* \"#utility.yul\":275:281   */\n  0x00\n    /* \"#utility.yul\":283:289   */\n  dup1\n    /* \"#utility.yul\":336:338   */\n  0x40\n    /* \"#utility.yul\":324:333   */\n  dup4\n    /* \"#utility.yul\":315:322   */\n  dup6\n    /* \"#utility.yul\":311:334   */\n  sub\n    /* \"#utility.yul\":307:339   */\n  slt\n    /* \"#utility.yul\":304:356   */\n  iszero\n  tag_28\n  jumpi\n    /* \"#utility.yul\":352:353   */\n  0x00\n    /* \"#utility.yul\":349:350   */\n  dup1\n    /* \"#utility.yul\":342:354   */\n  revert\n    /* \"#utility.yul\":304:356   */\ntag_28:\n    /* \"#utility.yul\":375:415   */\n  tag_29\n    /* \"#utility.yul\":405:414   */\n  dup4\n    /* \"#utility.yul\":375:415   */\n  tag_23\n  jump\t// in\ntag_29:\n    /* \"#utility.yul\":365:415   */\n  swap2\n  pop\n    /* \"#utility.yul\":434:483   */\n  tag_30\n    /* \"#utility.yul\":479:481   */\n  0x20\n    /* \"#utility.yul\":468:477   */\n  dup5\n    /* \"#utility.yul\":464:482   */\n  add\n    /* \"#utility.yul\":434:483   */\n  tag_23\n  jump\t// in\ntag_30:\n    /* \"#utility.yul\":424:483   */\n  swap1\n  pop\n    /* \"#utility.yul\":196:489   */\n  swap3\n  pop\n  swap3\n  swap1\n  pop\n  jump\t// out\n    /* \"#utility.yul\":494:697   */\ntag_24:\n    /* \"Smart-Contracts/PNJC_Staking.sol\":1094:6288  contract PNJC_Staking_Advanced is Ownable, ReentrancyGuard {... */\n  mload(0x80)\n  codecopy(0x00, dataOffset(sub_0), dataSize(sub_0))\n  0x00\n  assignImmutable(\"0x5d0e843169a959565868d1bb90146ec5c40092bfd7808c444f36bb919316c421\")\n  return(0x00, dataSize(sub_0))\nstop\n\nsub_0: assembly {\n        /* \"Smart-Contracts/PNJC_Staking.sol\":1094:6288  contract PNJC_Staking_Advanced is Ownable, ReentrancyGuard {... */\n      mstore(0x40, 0x80)\n      callvalue\n      dup1\n      iszero\n      tag_1\n      jumpi\n      0x00\n      dup1\n      revert\n    tag_1:\n      pop\n      jumpi(tag_2, lt(calldatasize, 0x04))\n      shr(0xe0, calldataload(0x00))\n      dup1\n      0x715018a6\n      gt\n      tag_26\n      jumpi\n      dup1\n      0xbb4d4436\n      gt\n      tag_27\n      jumpi\n      dup1\n      0xbb4d4436\n      eq\n      tag_20\n      jumpi\n      dup1\n      0xc8f33c91\n      eq\n      tag_21\n      jumpi\n      dup1\n      0xcd3daf9d\n      eq\n      tag_22\n      jumpi\n      dup1\n      0xdf136d65\n      eq\n      tag_23\n      jumpi\n      dup1\n      0xe16d685d\n      eq\n      tag_24\n      jumpi\n      dup1\n      0xf2fde38b\n      eq\n      tag_25\n      jumpi\n      0x00\n      dup1\n      revert\n    tag_27:\n      dup1\n      0x715018a6\n      eq\n      tag_14\n      jumpi\n      dup1\n      0x7b0a47ee\n      eq\n      tag_15\n      jumpi\n      dup1\n      0x8b876347\n      eq\n      tag_16\n      jumpi\n      dup1\n      0x8da5cb5b\n      eq\n      tag_17\n      jumpi\n      dup1\n      0x9e447fc6\n      eq\n      tag_18\n      jumpi\n      dup1\n      0xa694fc3a\n      eq\n      tag_19\n      jumpi\n      0x00\n      dup1\n      revert\n    tag_26:\n      dup1\n      0x2ae64628\n      gt\n      tag_28\n      jumpi\n      dup1\n      0x2ae64628\n      eq\n      tag_8\n      jumpi\n      dup1\n      0x2e1a7d4d\n      eq\n      tag_9\n      jumpi\n      dup1\n      0x3b4f68b3\n      eq\n      tag_10\n      jumpi\n      dup1\n      0x3d18b912\n      eq\n      tag_11\n      jumpi\n      dup1\n      0x70259077\n      eq\n      tag_12\n      jumpi\n      dup1\n      0x70a08231\n      eq\n      tag_13\n      jumpi\n      0x00\n      dup1\n      revert\n    tag_28:\n      dup1\n      0x8cc262\n      eq\n      tag_3\n      jumpi\n      dup1\n      0x02b09ac5\n      eq\n      tag_4\n      jumpi\n      dup1\n      0x0700037d\n      eq\n      tag_5\n      jumpi\n      dup1\n      0x18160ddd\n      eq\n      tag_6\n      jumpi\n      dup1\n      0x26ccb9ea\n      eq\n      tag_7\n      jumpi\n    tag_2:\n      0x00\n      dup1\n      revert\n        /* \"Smart-Contracts/PNJC_Staking.sol\":3021:3213  function earned(address account) public view returns (uint256) {... */\n    tag_3:\n      tag_29\n      tag_30\n      calldatasize\n      0x04\n      tag_31\n      jump\t// in\n    tag_30:\n      tag_32\n      jump\t// in\n    tag_29:\n      mload(0x40)\n        /* \"#utility.yul\":451:476   */\n      swap1\n      dup2\n      mstore\n        /* \"#utility.yul\":439:441   */\n      0x20\n        /* \"#utility.yul\":424:442   */\n      add\n        /* \"Smart-Contracts/PNJC_Staking.sol\":3021:3213  function earned(address account) public view returns (uint256) {... */\n    tag_33:\n      mload(0x40)\n      dup1\n      swap2\n      sub\n      swap1\n      return\n        /* \"Smart-Contracts/PNJC_Staking.sol\":1274:1301  address public charityVault */\n    tag_4:\n      sload(0x01)\n      tag_35\n      swap1\n      sub(shl(0xa0, 0x01), 0x01)\n      and\n      dup2\n      jump\n    tag_35:\n      mload(0x40)\n      sub(shl(0xa0, 0x01), 0x01)\n        /* \"#utility.yul\":651:683   */\n      swap1\n      swap2\n      and\n        /* \"#utility.yul\":633:684   */\n      dup2\n      mstore\n        /* \"#utility.yul\":621:623   */\n      0x20\n        /* \"#utility.yul\":606:624   */\n      add\n        /* \"Smart-Contracts/PNJC_Staking.sol\":1274:1301  address public charityVault */\n      tag_33\n        /* \"#utility.yul\":487:690   */\n      jump\n        /* \"Smart-Contracts/PNJC_Staking.sol\":1644:1686  mapping(address => uint256) public rewards */\n    tag_5:\n      tag_29\n      tag_40\n      calldatasize\n      0x04\n      tag_31\n      jump\t// in\n    tag_40:\n      mstore(0x20, 0x07)\n      0x00\n      swap1\n      dup2\n      mstore\n      0x40\n      swap1\n      keccak256\n      sload\n      dup2\n      jump\n        /* \"Smart-Contracts/PNJC_Staking.sol\":6072:6165  function totalSupply() external view returns (uint256) {... */\n    tag_6:\n        /* \"Smart-Contracts/PNJC_Staking.sol\":6145:6157  _totalSupply */\n      sload(0x0a)\n        /* \"Smart-Contracts/PNJC_Staking.sol\":6072:6165  function totalSupply() external view returns (uint256) {... */\n      jump(tag_29)\n        /* \"Smart-Contracts/PNJC_Staking.sol\":1234:1267  IERC20 public immutable pnjcToken */\n    tag_7:\n      tag_35\n      immutable(\"0x5d0e843169a959565868d1bb90146ec5c40092bfd7808c444f36bb919316c421\")\n      dup2\n      jump\n        /* \"Smart-Contracts/PNJC_Staking.sol\":1384:1419  uint256 public charityTaxRate = 500 */\n    tag_8:\n      tag_29\n      sload(0x03)\n      dup2\n      jump\n        /* \"Smart-Contracts/PNJC_Staking.sol\":3883:4276  function withdraw(uint256 amount) public nonReentrant updateReward(msg.sender) {... */\n    tag_9:\n      tag_53\n      tag_54\n      calldatasize\n      0x04\n      tag_55\n      jump\t// in\n    tag_54:\n      tag_56\n      jump\t// in\n    tag_53:\n      stop\n        /* \"Smart-Contracts/PNJC_Staking.sol\":5899:6064  function setCharityTax(uint256 _newRate) external onlyOwner {... */\n    tag_10:\n      tag_53\n      tag_58\n      calldatasize\n      0x04\n      tag_55\n      jump\t// in\n    tag_58:\n      tag_59\n      jump\t// in\n        /* \"Smart-Contracts/PNJC_Staking.sol\":4453:5007  function getReward() public nonReentrant updateReward(msg.sender) {... */\n    tag_11:\n      tag_53\n      tag_61\n      jump\t// in\n        /* \"Smart-Contracts/PNJC_Staking.sol\":1745:1794  mapping(address => uint256) public stakeTimestamp */\n    tag_12:\n      tag_29\n      tag_63\n      calldatasize\n      0x04\n      tag_31\n      jump\t// in\n    tag_63:\n      mstore(0x20, 0x09)\n      0x00\n      swap1\n      dup2\n      mstore\n      0x40\n      swap1\n      keccak256\n      sload\n      dup2\n      jump\n        /* \"Smart-Contracts/PNJC_Staking.sol\":6173:6285  function balanceOf(address account) external view returns (uint256) {... */\n    tag_13:\n      tag_29\n      tag_67\n      calldatasize\n      0x04\n      tag_31\n      jump\t// in\n    tag_67:\n      sub(shl(0xa0, 0x01), 0x01)\n        /* \"Smart-Contracts/PNJC_Staking.sol\":6259:6277  _balances[account] */\n      and\n        /* \"Smart-Contracts/PNJC_Staking.sol\":6232:6239  uint256 */\n      0x00\n        /* \"Smart-Contracts/PNJC_Staking.sol\":6259:6277  _balances[account] */\n      swap1\n      dup2\n      mstore\n        /* \"Smart-Contracts/PNJC_Staking.sol\":6259:6268  _balances */\n      0x08\n        /* \"Smart-Contracts/PNJC_Staking.sol\":6259:6277  _balances[account] */\n      0x20\n      mstore\n      0x40\n      swap1\n      keccak256\n      sload\n      swap1\n        /* \"Smart-Contracts/PNJC_Staking.sol\":6173:6285  function balanceOf(address account) external view returns (uint256) {... */\n      jump\n        /* \"@openzeppelin/contracts@5.6.0/access/Ownable.sol\":2293:2394  function renounceOwnership() public virtual onlyOwner {... */\n    tag_14:\n      tag_53\n      tag_71\n      jump\t// in\n        /* \"Smart-Contracts/PNJC_Staking.sol\":1351:1376  uint256 public rewardRate */\n    tag_15:\n      tag_29\n      sload(0x02)\n      dup2\n      jump\n        /* \"Smart-Contracts/PNJC_Staking.sol\":1580:1637  mapping(address => uint256) public userRewardPerTokenPaid */\n    tag_16:\n      tag_29\n      tag_76\n      calldatasize\n      0x04\n      tag_31\n      jump\t// in\n    tag_76:\n      mstore(0x20, 0x06)\n      0x00\n      swap1\n      dup2\n      mstore\n      0x40\n      swap1\n      keccak256\n      sload\n      dup2\n      jump\n        /* \"@openzeppelin/contracts@5.6.0/access/Ownable.sol\":1638:1723  function owner() public view virtual returns (address) {... */\n    tag_17:\n        /* \"@openzeppelin/contracts@5.6.0/access/Ownable.sol\":1684:1691  address */\n      0x00\n        /* \"@openzeppelin/contracts@5.6.0/access/Ownable.sol\":1710:1716  _owner */\n      sload\n      sub(shl(0xa0, 0x01), 0x01)\n      and\n        /* \"@openzeppelin/contracts@5.6.0/access/Ownable.sol\":1638:1723  function owner() public view virtual returns (address) {... */\n      jump(tag_35)\n        /* \"Smart-Contracts/PNJC_Staking.sol\":5529:5660  function setRewardRate(uint256 _rewardRate) external onlyOwner updateReward(address(0)) {... */\n    tag_18:\n      tag_53\n      tag_83\n      calldatasize\n      0x04\n      tag_55\n      jump\t// in\n    tag_83:\n      tag_84\n      jump\t// in\n        /* \"Smart-Contracts/PNJC_Staking.sol\":3372:3750  function stake(uint256 amount) external nonReentrant updateReward(msg.sender) {... */\n    tag_19:\n      tag_53\n      tag_86\n      calldatasize\n      0x04\n      tag_55\n      jump\t// in\n    tag_86:\n      tag_87\n      jump\t// in\n        /* \"Smart-Contracts/PNJC_Staking.sol\":5203:5465  function getVotingPower(address account) external view returns (uint256) {... */\n    tag_20:\n      tag_29\n      tag_89\n      calldatasize\n      0x04\n      tag_31\n      jump\t// in\n    tag_89:\n      tag_90\n      jump\t// in\n        /* \"Smart-Contracts/PNJC_Staking.sol\":1469:1498  uint256 public lastUpdateTime */\n    tag_21:\n      tag_29\n      sload(0x04)\n      dup2\n      jump\n        /* \"Smart-Contracts/PNJC_Staking.sol\":2774:3013  function rewardPerToken() public view returns (uint256) {... */\n    tag_22:\n      tag_29\n      tag_96\n      jump\t// in\n        /* \"Smart-Contracts/PNJC_Staking.sol\":1505:1540  uint256 public rewardPerTokenStored */\n    tag_23:\n      tag_29\n      sload(0x05)\n      dup2\n      jump\n        /* \"Smart-Contracts/PNJC_Staking.sol\":5668:5891  function updateCharityVault(address _newVault) external onlyOwner {... */\n    tag_24:\n      tag_53\n      tag_102\n      calldatasize\n      0x04\n      tag_31\n      jump\t// in\n    tag_102:\n      tag_103\n      jump\t// in\n        /* \"@openzeppelin/contracts@5.6.0/access/Ownable.sol\":2543:2758  function transferOwnership(address newOwner) public virtual onlyOwner {... */\n    tag_25:\n      tag_53\n      tag_105\n      calldatasize\n      0x04\n      tag_31\n      jump\t// in\n    tag_105:\n      tag_106\n      jump\t// in\n        /* \"Smart-Contracts/PNJC_Staking.sol\":3021:3213  function earned(address account) public view returns (uint256) {... */\n    tag_32:\n      sub(shl(0xa0, 0x01), 0x01)\n        /* \"Smart-Contracts/PNJC_Staking.sol\":3189:3205  rewards[account] */\n      dup2\n      and\n        /* \"Smart-Contracts/PNJC_Staking.sol\":3075:3082  uint256 */\n      0x00\n        /* \"Smart-Contracts/PNJC_Staking.sol\":3189:3205  rewards[account] */\n      swap1\n      dup2\n      mstore\n        /* \"Smart-Contracts/PNJC_Staking.sol\":3189:3196  rewards */\n      0x07\n        /* \"Smart-Contracts/PNJC_Staking.sol\":3189:3205  rewards[account] */\n      0x20\n      swap1\n      dup2\n      mstore\n      0x40\n      dup1\n      dup4\n      keccak256\n      sload\n        /* \"Smart-Contracts/PNJC_Staking.sol\":3145:3167  userRewardPerTokenPaid */\n      0x06\n        /* \"Smart-Contracts/PNJC_Staking.sol\":3145:3176  userRewardPerTokenPaid[account] */\n      swap1\n      swap3\n      mstore\n      dup3\n      keccak256\n      sload\n        /* \"Smart-Contracts/PNJC_Staking.sol\":3181:3185  1e18 */\n      0x0de0b6b3a7640000\n      swap1\n        /* \"Smart-Contracts/PNJC_Staking.sol\":3126:3142  rewardPerToken() */\n      tag_108\n        /* \"Smart-Contracts/PNJC_Staking.sol\":3126:3140  rewardPerToken */\n      tag_96\n        /* \"Smart-Contracts/PNJC_Staking.sol\":3126:3142  rewardPerToken() */\n      jump\t// in\n    tag_108:\n        /* \"Smart-Contracts/PNJC_Staking.sol\":3126:3176  rewardPerToken() - userRewardPerTokenPaid[account] */\n      tag_109\n      swap2\n      swap1\n      tag_110\n      jump\t// in\n    tag_109:\n      sub(shl(0xa0, 0x01), 0x01)\n        /* \"Smart-Contracts/PNJC_Staking.sol\":3104:3122  _balances[account] */\n      dup6\n      and\n      0x00\n      swap1\n      dup2\n      mstore\n        /* \"Smart-Contracts/PNJC_Staking.sol\":3104:3113  _balances */\n      0x08\n        /* \"Smart-Contracts/PNJC_Staking.sol\":3104:3122  _balances[account] */\n      0x20\n      mstore\n      0x40\n      swap1\n      keccak256\n      sload\n        /* \"Smart-Contracts/PNJC_Staking.sol\":3104:3177  _balances[account] * (rewardPerToken() - userRewardPerTokenPaid[account]) */\n      tag_111\n      swap2\n      swap1\n      tag_112\n      jump\t// in\n    tag_111:\n        /* \"Smart-Contracts/PNJC_Staking.sol\":3103:3185  (_balances[account] * (rewardPerToken() - userRewardPerTokenPaid[account])) / 1e18 */\n      tag_113\n      swap2\n      swap1\n      tag_114\n      jump\t// in\n    tag_113:\n        /* \"Smart-Contracts/PNJC_Staking.sol\":3102:3205  ((_balances[account] * (rewardPerToken() - userRewardPerTokenPaid[account])) / 1e18) + rewards[account] */\n      tag_115\n      swap2\n      swap1\n      tag_116\n      jump\t// in\n    tag_115:\n        /* \"Smart-Contracts/PNJC_Staking.sol\":3095:3205  return ((_balances[account] * (rewardPerToken() - userRewardPerTokenPaid[account])) / 1e18) + rewards[account] */\n      swap3\n        /* \"Smart-Contracts/PNJC_Staking.sol\":3021:3213  function earned(address account) public view returns (uint256) {... */\n      swap2\n      pop\n      pop\n      jump\t// out\n        /* \"Smart-Contracts/PNJC_Staking.sol\":3883:4276  function withdraw(uint256 amount) public nonReentrant updateReward(msg.sender) {... */\n    tag_56:\n        /* \"@openzeppelin/contracts@5.6.0/utils/ReentrancyGuard.sol\":3023:3044  _nonReentrantBefore() */\n      tag_119\n        /* \"@openzeppelin/contracts@5.6.0/utils/ReentrancyGuard.sol\":3023:3042  _nonReentrantBefore */\n      tag_120\n        /* \"@openzeppelin/contracts@5.6.0/utils/ReentrancyGuard.sol\":3023:3044  _nonReentrantBefore() */\n      jump\t// in\n    tag_119:\n        /* \"Smart-Contracts/PNJC_Staking.sol\":3950:3960  msg.sender */\n      caller\n        /* \"Smart-Contracts/PNJC_Staking.sol\":2520:2536  rewardPerToken() */\n      tag_122\n        /* \"Smart-Contracts/PNJC_Staking.sol\":2520:2534  rewardPerToken */\n      tag_96\n        /* \"Smart-Contracts/PNJC_Staking.sol\":2520:2536  rewardPerToken() */\n      jump\t// in\n    tag_122:\n        /* \"Smart-Contracts/PNJC_Staking.sol\":2497:2517  rewardPerTokenStored */\n      0x05\n        /* \"Smart-Contracts/PNJC_Staking.sol\":2497:2536  rewardPerTokenStored = rewardPerToken() */\n      sstore\n        /* \"Smart-Contracts/PNJC_Staking.sol\":2564:2579  block.timestamp */\n      timestamp\n        /* \"Smart-Contracts/PNJC_Staking.sol\":2547:2561  lastUpdateTime */\n      0x04\n        /* \"Smart-Contracts/PNJC_Staking.sol\":2547:2579  lastUpdateTime = block.timestamp */\n      sstore\n      sub(shl(0xa0, 0x01), 0x01)\n        /* \"Smart-Contracts/PNJC_Staking.sol\":2594:2615  account != address(0) */\n      dup2\n      and\n      iszero\n        /* \"Smart-Contracts/PNJC_Staking.sol\":2590:2747  if (account != address(0)) {... */\n      tag_123\n      jumpi\n        /* \"Smart-Contracts/PNJC_Staking.sol\":2651:2666  earned(account) */\n      tag_124\n        /* \"Smart-Contracts/PNJC_Staking.sol\":2658:2665  account */\n      dup2\n        /* \"Smart-Contracts/PNJC_Staking.sol\":2651:2657  earned */\n      tag_32\n        /* \"Smart-Contracts/PNJC_Staking.sol\":2651:2666  earned(account) */\n      jump\t// in\n    tag_124:\n      sub(shl(0xa0, 0x01), 0x01)\n        /* \"Smart-Contracts/PNJC_Staking.sol\":2632:2648  rewards[account] */\n      dup3\n      and\n      0x00\n      swap1\n      dup2\n      mstore\n        /* \"Smart-Contracts/PNJC_Staking.sol\":2632:2639  rewards */\n      0x07\n        /* \"Smart-Contracts/PNJC_Staking.sol\":2632:2648  rewards[account] */\n      0x20\n      swap1\n      dup2\n      mstore\n      0x40\n      dup1\n      dup4\n      keccak256\n        /* \"Smart-Contracts/PNJC_Staking.sol\":2632:2666  rewards[account] = earned(account) */\n      swap4\n      swap1\n      swap4\n      sstore\n        /* \"Smart-Contracts/PNJC_Staking.sol\":2715:2735  rewardPerTokenStored */\n      sload(0x05)\n        /* \"Smart-Contracts/PNJC_Staking.sol\":2681:2703  userRewardPerTokenPaid */\n      0x06\n        /* \"Smart-Contracts/PNJC_Staking.sol\":2681:2712  userRewardPerTokenPaid[account] */\n      swap1\n      swap2\n      mstore\n      swap2\n      swap1\n      keccak256\n        /* \"Smart-Contracts/PNJC_Staking.sol\":2681:2735  userRewardPerTokenPaid[account] = rewardPerTokenStored */\n      sstore\n        /* \"Smart-Contracts/PNJC_Staking.sol\":2590:2747  if (account != address(0)) {... */\n    tag_123:\n        /* \"Smart-Contracts/PNJC_Staking.sol\":3990:3991  0 */\n      0x00\n        /* \"Smart-Contracts/PNJC_Staking.sol\":3981:3987  amount */\n      dup3\n        /* \"Smart-Contracts/PNJC_Staking.sol\":3981:3991  amount > 0 */\n      gt\n        /* \"Smart-Contracts/PNJC_Staking.sol\":3973:4013  require(amount > 0, \"Cannot withdraw 0\") */\n      tag_126\n      jumpi\n      mload(0x40)\n      shl(0xe5, 0x461bcd)\n      dup2\n      mstore\n        /* \"#utility.yul\":2094:2096   */\n      0x20\n        /* \"Smart-Contracts/PNJC_Staking.sol\":3973:4013  require(amount > 0, \"Cannot withdraw 0\") */\n      0x04\n      dup3\n      add\n        /* \"#utility.yul\":2076:2097   */\n      mstore\n        /* \"#utility.yul\":2133:2135   */\n      0x11\n        /* \"#utility.yul\":2113:2131   */\n      0x24\n      dup3\n      add\n        /* \"#utility.yul\":2106:2136   */\n      mstore\n      shl(0x7c, 0x043616e6e6f74207769746864726177203)\n        /* \"#utility.yul\":2152:2170   */\n      0x44\n      dup3\n      add\n        /* \"#utility.yul\":2145:2192   */\n      mstore\n        /* \"#utility.yul\":2209:2227   */\n      0x64\n      add\n        /* \"Smart-Contracts/PNJC_Staking.sol\":3973:4013  require(amount > 0, \"Cannot withdraw 0\") */\n    tag_127:\n      mload(0x40)\n      dup1\n      swap2\n      sub\n      swap1\n      revert\n    tag_126:\n        /* \"Smart-Contracts/PNJC_Staking.sol\":4042:4052  msg.sender */\n      caller\n        /* \"Smart-Contracts/PNJC_Staking.sol\":4032:4053  _balances[msg.sender] */\n      0x00\n      swap1\n      dup2\n      mstore\n        /* \"Smart-Contracts/PNJC_Staking.sol\":4032:4041  _balances */\n      0x08\n        /* \"Smart-Contracts/PNJC_Staking.sol\":4032:4053  _balances[msg.sender] */\n      0x20\n      mstore\n      0x40\n      swap1\n      keccak256\n      sload\n        /* \"Smart-Contracts/PNJC_Staking.sol\":4032:4063  _balances[msg.sender] >= amount */\n      dup3\n      gt\n      iszero\n        /* \"Smart-Contracts/PNJC_Staking.sol\":4024:4095  require(_balances[msg.sender] >= amount, \"Insufficient staked balance\") */\n      tag_129\n      jumpi\n      mload(0x40)\n      shl(0xe5, 0x461bcd)\n      dup2\n      mstore\n        /* \"#utility.yul\":2440:2442   */\n      0x20\n        /* \"Smart-Contracts/PNJC_Staking.sol\":4024:4095  require(_balances[msg.sender] >= amount, \"Insufficient staked balance\") */\n      0x04\n      dup3\n      add\n        /* \"#utility.yul\":2422:2443   */\n      mstore\n        /* \"#utility.yul\":2479:2481   */\n      0x1b\n        /* \"#utility.yul\":2459:2477   */\n      0x24\n      dup3\n      add\n        /* \"#utility.yul\":2452:2482   */\n      mstore\n        /* \"#utility.yul\":2518:2547   */\n      0x496e73756666696369656e74207374616b65642062616c616e63650000000000\n        /* \"#utility.yul\":2498:2516   */\n      0x44\n      dup3\n      add\n        /* \"#utility.yul\":2491:2548   */\n      mstore\n        /* \"#utility.yul\":2565:2583   */\n      0x64\n      add\n        /* \"Smart-Contracts/PNJC_Staking.sol\":4024:4095  require(_balances[msg.sender] >= amount, \"Insufficient staked balance\") */\n      tag_127\n        /* \"#utility.yul\":2238:2589   */\n      jump\n        /* \"Smart-Contracts/PNJC_Staking.sol\":4024:4095  require(_balances[msg.sender] >= amount, \"Insufficient staked balance\") */\n    tag_129:\n        /* \"Smart-Contracts/PNJC_Staking.sol\":4122:4128  amount */\n      dup2\n        /* \"Smart-Contracts/PNJC_Staking.sol\":4106:4118  _totalSupply */\n      0x0a\n      0x00\n        /* \"Smart-Contracts/PNJC_Staking.sol\":4106:4128  _totalSupply -= amount */\n      dup3\n      dup3\n      sload\n      tag_132\n      swap2\n      swap1\n      tag_110\n      jump\t// in\n    tag_132:\n      swap1\n      swap2\n      sstore\n      pop\n      pop\n        /* \"Smart-Contracts/PNJC_Staking.sol\":4149:4159  msg.sender */\n      caller\n        /* \"Smart-Contracts/PNJC_Staking.sol\":4139:4160  _balances[msg.sender] */\n      0x00\n      swap1\n      dup2\n      mstore\n        /* \"Smart-Contracts/PNJC_Staking.sol\":4139:4148  _balances */\n      0x08\n        /* \"Smart-Contracts/PNJC_Staking.sol\":4139:4160  _balances[msg.sender] */\n      0x20\n      mstore\n      0x40\n      dup2\n      keccak256\n        /* \"Smart-Contracts/PNJC_Staking.sol\":4139:4170  _balances[msg.sender] -= amount */\n      dup1\n      sload\n        /* \"Smart-Contracts/PNJC_Staking.sol\":4164:4170  amount */\n      dup5\n      swap3\n        /* \"Smart-Contracts/PNJC_Staking.sol\":4139:4160  _balances[msg.sender] */\n      swap1\n        /* \"Smart-Contracts/PNJC_Staking.sol\":4139:4170  _balances[msg.sender] -= amount */\n      tag_133\n      swap1\n        /* \"Smart-Contracts/PNJC_Staking.sol\":4164:4170  amount */\n      dup5\n      swap1\n        /* \"Smart-Contracts/PNJC_Staking.sol\":4139:4170  _balances[msg.sender] -= amount */\n      tag_110\n      jump\t// in\n    tag_133:\n      swap1\n      swap2\n      sstore\n      pop\n        /* \"Smart-Contracts/PNJC_Staking.sol\":4181:4223  pnjcToken.safeTransfer(msg.sender, amount) */\n      tag_134\n      swap1\n      pop\n      sub(shl(0xa0, 0x01), 0x01)\n        /* \"Smart-Contracts/PNJC_Staking.sol\":4181:4190  pnjcToken */\n      immutable(\"0x5d0e843169a959565868d1bb90146ec5c40092bfd7808c444f36bb919316c421\")\n        /* \"Smart-Contracts/PNJC_Staking.sol\":4181:4203  pnjcToken.safeTransfer */\n      and\n        /* \"Smart-Contracts/PNJC_Staking.sol\":4204:4214  msg.sender */\n      caller\n        /* \"Smart-Contracts/PNJC_Staking.sol\":4216:4222  amount */\n      dup5\n        /* \"Smart-Contracts/PNJC_Staking.sol\":4181:4203  pnjcToken.safeTransfer */\n      tag_135\n        /* \"Smart-Contracts/PNJC_Staking.sol\":4181:4223  pnjcToken.safeTransfer(msg.sender, amount) */\n      jump\t// in\n    tag_134:\n        /* \"Smart-Contracts/PNJC_Staking.sol\":4239:4268  Withdrawn(msg.sender, amount) */\n      mload(0x40)\n        /* \"#utility.yul\":451:476   */\n      dup3\n      dup2\n      mstore\n        /* \"Smart-Contracts/PNJC_Staking.sol\":4249:4259  msg.sender */\n      caller\n      swap1\n        /* \"Smart-Contracts/PNJC_Staking.sol\":4239:4268  Withdrawn(msg.sender, amount) */\n      0x7084f5476618d8e60b11ef0d7d3f06914655adb8793e28ff7f018d4c76d505d5\n      swap1\n        /* \"#utility.yul\":439:441   */\n      0x20\n        /* \"#utility.yul\":424:442   */\n      add\n        /* \"Smart-Contracts/PNJC_Staking.sol\":4239:4268  Withdrawn(msg.sender, amount) */\n    tag_136:\n      mload(0x40)\n      dup1\n      swap2\n      sub\n      swap1\n      log2\n        /* \"@openzeppelin/contracts@5.6.0/utils/ReentrancyGuard.sol\":3054:3055  _ */\n      pop\n        /* \"@openzeppelin/contracts@5.6.0/utils/ReentrancyGuard.sol\":3065:3085  _nonReentrantAfter() */\n      tag_137\n        /* \"@openzeppelin/contracts@5.6.0/utils/ReentrancyGuard.sol\":2365:2366  1 */\n      0x01\n      0x00\n      dup1\n      mload\n      0x20\n      data_c8669cf8eaf883002b9f48e28846a8d408c9b58ea6613bace374265e43c9bc43\n      dup4\n      codecopy\n      dup2\n      mload\n      swap2\n      mstore\n        /* \"@openzeppelin/contracts@5.6.0/utils/ReentrancyGuard.sol\":3972:4034  _reentrancyGuardStorageSlot().getUint256Slot().value = ENTERED */\n      sstore\n        /* \"@openzeppelin/contracts@5.6.0/utils/ReentrancyGuard.sol\":3749:4041  function _nonReentrantBefore() private {... */\n      jump\n        /* \"@openzeppelin/contracts@5.6.0/utils/ReentrancyGuard.sol\":3065:3085  _nonReentrantAfter() */\n    tag_137:\n        /* \"Smart-Contracts/PNJC_Staking.sol\":3883:4276  function withdraw(uint256 amount) public nonReentrant updateReward(msg.sender) {... */\n      pop\n      jump\t// out\n        /* \"Smart-Contracts/PNJC_Staking.sol\":5899:6064  function setCharityTax(uint256 _newRate) external onlyOwner {... */\n    tag_59:\n        /* \"@openzeppelin/contracts@5.6.0/access/Ownable.sol\":1531:1544  _checkOwner() */\n      tag_140\n        /* \"@openzeppelin/contracts@5.6.0/access/Ownable.sol\":1531:1542  _checkOwner */\n      tag_141\n        /* \"@openzeppelin/contracts@5.6.0/access/Ownable.sol\":1531:1544  _checkOwner() */\n      jump\t// in\n    tag_140:\n        /* \"Smart-Contracts/PNJC_Staking.sol\":5990:5994  2000 */\n      0x07d0\n        /* \"Smart-Contracts/PNJC_Staking.sol\":5978:5986  _newRate */\n      dup2\n        /* \"Smart-Contracts/PNJC_Staking.sol\":5978:5994  _newRate <= 2000 */\n      gt\n      iszero\n        /* \"Smart-Contracts/PNJC_Staking.sol\":5970:6020  require(_newRate <= 2000, \"Tax cannot exceed 20%\") */\n      tag_143\n      jumpi\n      mload(0x40)\n      shl(0xe5, 0x461bcd)\n      dup2\n      mstore\n        /* \"#utility.yul\":2796:2798   */\n      0x20\n        /* \"Smart-Contracts/PNJC_Staking.sol\":5970:6020  require(_newRate <= 2000, \"Tax cannot exceed 20%\") */\n      0x04\n      dup3\n      add\n        /* \"#utility.yul\":2778:2799   */\n      mstore\n        /* \"#utility.yul\":2835:2837   */\n      0x15\n        /* \"#utility.yul\":2815:2833   */\n      0x24\n      dup3\n      add\n        /* \"#utility.yul\":2808:2838   */\n      mstore\n      shl(0x58, 0x5461782063616e6e6f742065786365656420323025)\n        /* \"#utility.yul\":2854:2872   */\n      0x44\n      dup3\n      add\n        /* \"#utility.yul\":2847:2898   */\n      mstore\n        /* \"#utility.yul\":2915:2933   */\n      0x64\n      add\n        /* \"Smart-Contracts/PNJC_Staking.sol\":5970:6020  require(_newRate <= 2000, \"Tax cannot exceed 20%\") */\n      tag_127\n        /* \"#utility.yul\":2594:2939   */\n      jump\n        /* \"Smart-Contracts/PNJC_Staking.sol\":5970:6020  require(_newRate <= 2000, \"Tax cannot exceed 20%\") */\n    tag_143:\n        /* \"Smart-Contracts/PNJC_Staking.sol\":6031:6045  charityTaxRate */\n      0x03\n        /* \"Smart-Contracts/PNJC_Staking.sol\":6031:6056  charityTaxRate = _newRate */\n      sstore\n        /* \"Smart-Contracts/PNJC_Staking.sol\":5899:6064  function setCharityTax(uint256 _newRate) external onlyOwner {... */\n      jump\t// out\n        /* \"Smart-Contracts/PNJC_Staking.sol\":4453:5007  function getReward() public nonReentrant updateReward(msg.sender) {... */\n    tag_61:\n        /* \"@openzeppelin/contracts@5.6.0/utils/ReentrancyGuard.sol\":3023:3044  _nonReentrantBefore() */\n      tag_147\n        /* \"@openzeppelin/contracts@5.6.0/utils/ReentrancyGuard.sol\":3023:3042  _nonReentrantBefore */\n      tag_120\n        /* \"@openzeppelin/contracts@5.6.0/utils/ReentrancyGuard.sol\":3023:3044  _nonReentrantBefore() */\n      jump\t// in\n    tag_147:\n        /* \"Smart-Contracts/PNJC_Staking.sol\":4507:4517  msg.sender */\n      caller\n        /* \"Smart-Contracts/PNJC_Staking.sol\":2520:2536  rewardPerToken() */\n      tag_149\n        /* \"Smart-Contracts/PNJC_Staking.sol\":2520:2534  rewardPerToken */\n      tag_96\n        /* \"Smart-Contracts/PNJC_Staking.sol\":2520:2536  rewardPerToken() */\n      jump\t// in\n    tag_149:\n        /* \"Smart-Contracts/PNJC_Staking.sol\":2497:2517  rewardPerTokenStored */\n      0x05\n        /* \"Smart-Contracts/PNJC_Staking.sol\":2497:2536  rewardPerTokenStored = rewardPerToken() */\n      sstore\n        /* \"Smart-Contracts/PNJC_Staking.sol\":2564:2579  block.timestamp */\n      timestamp\n        /* \"Smart-Contracts/PNJC_Staking.sol\":2547:2561  lastUpdateTime */\n      0x04\n        /* \"Smart-Contracts/PNJC_Staking.sol\":2547:2579  lastUpdateTime = block.timestamp */\n      sstore\n      sub(shl(0xa0, 0x01), 0x01)\n        /* \"Smart-Contracts/PNJC_Staking.sol\":2594:2615  account != address(0) */\n      dup2\n      and\n      iszero\n        /* \"Smart-Contracts/PNJC_Staking.sol\":2590:2747  if (account != address(0)) {... */\n      tag_150\n      jumpi\n        /* \"Smart-Contracts/PNJC_Staking.sol\":2651:2666  earned(account) */\n      tag_151\n        /* \"Smart-Contracts/PNJC_Staking.sol\":2658:2665  account */\n      dup2\n        /* \"Smart-Contracts/PNJC_Staking.sol\":2651:2657  earned */\n      tag_32\n        /* \"Smart-Contracts/PNJC_Staking.sol\":2651:2666  earned(account) */\n      jump\t// in\n    tag_151:\n      sub(shl(0xa0, 0x01), 0x01)\n        /* \"Smart-Contracts/PNJC_Staking.sol\":2632:2648  rewards[account] */\n      dup3\n      and\n      0x00\n      swap1\n      dup2\n      mstore\n        /* \"Smart-Contracts/PNJC_Staking.sol\":2632:2639  rewards */\n      0x07\n        /* \"Smart-Contracts/PNJC_Staking.sol\":2632:2648  rewards[account] */\n      0x20\n      swap1\n      dup2\n      mstore\n      0x40\n      dup1\n      dup4\n      keccak256\n        /* \"Smart-Contracts/PNJC_Staking.sol\":2632:2666  rewards[account] = earned(account) */\n      swap4\n      swap1\n      swap4\n      sstore\n        /* \"Smart-Contracts/PNJC_Staking.sol\":2715:2735  rewardPerTokenStored */\n      sload(0x05)\n        /* \"Smart-Contracts/PNJC_Staking.sol\":2681:2703  userRewardPerTokenPaid */\n      0x06\n        /* \"Smart-Contracts/PNJC_Staking.sol\":2681:2712  userRewardPerTokenPaid[account] */\n      swap1\n      swap2\n      mstore\n      swap2\n      swap1\n      keccak256\n        /* \"Smart-Contracts/PNJC_Staking.sol\":2681:2735  userRewardPerTokenPaid[account] = rewardPerTokenStored */\n      sstore\n        /* \"Smart-Contracts/PNJC_Staking.sol\":2590:2747  if (account != address(0)) {... */\n    tag_150:\n        /* \"Smart-Contracts/PNJC_Staking.sol\":4560:4570  msg.sender */\n      caller\n        /* \"Smart-Contracts/PNJC_Staking.sol\":4530:4549  uint256 totalReward */\n      0x00\n        /* \"Smart-Contracts/PNJC_Staking.sol\":4552:4571  rewards[msg.sender] */\n      swap1\n      dup2\n      mstore\n        /* \"Smart-Contracts/PNJC_Staking.sol\":4552:4559  rewards */\n      0x07\n        /* \"Smart-Contracts/PNJC_Staking.sol\":4552:4571  rewards[msg.sender] */\n      0x20\n      mstore\n      0x40\n      swap1\n      keccak256\n      sload\n        /* \"Smart-Contracts/PNJC_Staking.sol\":4586:4601  totalReward > 0 */\n      dup1\n      iszero\n        /* \"Smart-Contracts/PNJC_Staking.sol\":4582:5000  if (totalReward > 0) {... */\n      tag_153\n      jumpi\n        /* \"Smart-Contracts/PNJC_Staking.sol\":4626:4636  msg.sender */\n      caller\n        /* \"Smart-Contracts/PNJC_Staking.sol\":4640:4641  0 */\n      0x00\n        /* \"Smart-Contracts/PNJC_Staking.sol\":4618:4637  rewards[msg.sender] */\n      swap1\n      dup2\n      mstore\n        /* \"Smart-Contracts/PNJC_Staking.sol\":4618:4625  rewards */\n      0x07\n        /* \"Smart-Contracts/PNJC_Staking.sol\":4618:4637  rewards[msg.sender] */\n      0x20\n      mstore\n      0x40\n      dup2\n      keccak256\n        /* \"Smart-Contracts/PNJC_Staking.sol\":4618:4641  rewards[msg.sender] = 0 */\n      dup2\n      swap1\n      sstore\n        /* \"Smart-Contracts/PNJC_Staking.sol\":4708:4722  charityTaxRate */\n      sload(0x03)\n        /* \"Smart-Contracts/PNJC_Staking.sol\":4726:4731  10000 */\n      0x2710\n      swap1\n        /* \"Smart-Contracts/PNJC_Staking.sol\":4694:4722  totalReward * charityTaxRate */\n      tag_154\n      swap1\n        /* \"Smart-Contracts/PNJC_Staking.sol\":4694:4705  totalReward */\n      dup5\n        /* \"Smart-Contracts/PNJC_Staking.sol\":4694:4722  totalReward * charityTaxRate */\n      tag_112\n      jump\t// in\n    tag_154:\n        /* \"Smart-Contracts/PNJC_Staking.sol\":4693:4731  (totalReward * charityTaxRate) / 10000 */\n      tag_155\n      swap2\n      swap1\n      tag_114\n      jump\t// in\n    tag_155:\n        /* \"Smart-Contracts/PNJC_Staking.sol\":4670:4731  uint256 charityShare = (totalReward * charityTaxRate) / 10000 */\n      swap1\n      pop\n        /* \"Smart-Contracts/PNJC_Staking.sol\":4746:4763  uint256 userShare */\n      0x00\n        /* \"Smart-Contracts/PNJC_Staking.sol\":4766:4792  totalReward - charityShare */\n      tag_156\n        /* \"Smart-Contracts/PNJC_Staking.sol\":4670:4731  uint256 charityShare = (totalReward * charityTaxRate) / 10000 */\n      dup3\n        /* \"Smart-Contracts/PNJC_Staking.sol\":4766:4777  totalReward */\n      dup5\n        /* \"Smart-Contracts/PNJC_Staking.sol\":4766:4792  totalReward - charityShare */\n      tag_110\n      jump\t// in\n    tag_156:\n        /* \"Smart-Contracts/PNJC_Staking.sol\":4746:4792  uint256 userShare = totalReward - charityShare */\n      swap1\n      pop\n        /* \"Smart-Contracts/PNJC_Staking.sol\":4809:4854  pnjcToken.safeTransfer(msg.sender, userShare) */\n      tag_157\n      sub(shl(0xa0, 0x01), 0x01)\n        /* \"Smart-Contracts/PNJC_Staking.sol\":4809:4818  pnjcToken */\n      immutable(\"0x5d0e843169a959565868d1bb90146ec5c40092bfd7808c444f36bb919316c421\")\n        /* \"Smart-Contracts/PNJC_Staking.sol\":4809:4831  pnjcToken.safeTransfer */\n      and\n        /* \"Smart-Contracts/PNJC_Staking.sol\":4832:4842  msg.sender */\n      caller\n        /* \"Smart-Contracts/PNJC_Staking.sol\":4746:4792  uint256 userShare = totalReward - charityShare */\n      dup4\n        /* \"Smart-Contracts/PNJC_Staking.sol\":4809:4831  pnjcToken.safeTransfer */\n      tag_135\n        /* \"Smart-Contracts/PNJC_Staking.sol\":4809:4854  pnjcToken.safeTransfer(msg.sender, userShare) */\n      jump\t// in\n    tag_157:\n        /* \"Smart-Contracts/PNJC_Staking.sol\":4892:4904  charityVault */\n      sload(0x01)\n        /* \"Smart-Contracts/PNJC_Staking.sol\":4869:4919  pnjcToken.safeTransfer(charityVault, charityShare) */\n      tag_158\n      swap1\n      sub(shl(0xa0, 0x01), 0x01)\n        /* \"Smart-Contracts/PNJC_Staking.sol\":4869:4878  pnjcToken */\n      immutable(\"0x5d0e843169a959565868d1bb90146ec5c40092bfd7808c444f36bb919316c421\")\n        /* \"Smart-Contracts/PNJC_Staking.sol\":4869:4891  pnjcToken.safeTransfer */\n      dup2\n      and\n      swap2\n        /* \"Smart-Contracts/PNJC_Staking.sol\":4892:4904  charityVault */\n      and\n        /* \"Smart-Contracts/PNJC_Staking.sol\":4906:4918  charityShare */\n      dup5\n        /* \"Smart-Contracts/PNJC_Staking.sol\":4869:4891  pnjcToken.safeTransfer */\n      tag_135\n        /* \"Smart-Contracts/PNJC_Staking.sol\":4869:4919  pnjcToken.safeTransfer(charityVault, charityShare) */\n      jump\t// in\n    tag_158:\n        /* \"Smart-Contracts/PNJC_Staking.sol\":4941:4988  RewardPaid(msg.sender, userShare, charityShare) */\n      0x40\n      dup1\n      mload\n        /* \"#utility.yul\":3118:3143   */\n      dup3\n      dup2\n      mstore\n        /* \"#utility.yul\":3174:3176   */\n      0x20\n        /* \"#utility.yul\":3159:3177   */\n      dup2\n      add\n        /* \"#utility.yul\":3152:3186   */\n      dup5\n      swap1\n      mstore\n        /* \"Smart-Contracts/PNJC_Staking.sol\":4952:4962  msg.sender */\n      caller\n      swap2\n        /* \"Smart-Contracts/PNJC_Staking.sol\":4941:4988  RewardPaid(msg.sender, userShare, charityShare) */\n      0xd6f2c8500df5b44f11e9e48b91ff9f1b9d81bc496d55570c2b1b75bf65243f51\n      swap2\n        /* \"#utility.yul\":3091:3109   */\n      add\n        /* \"Smart-Contracts/PNJC_Staking.sol\":4941:4988  RewardPaid(msg.sender, userShare, charityShare) */\n      mload(0x40)\n      dup1\n      swap2\n      sub\n      swap1\n      log2\n        /* \"Smart-Contracts/PNJC_Staking.sol\":4603:5000  {... */\n      pop\n      pop\n        /* \"Smart-Contracts/PNJC_Staking.sol\":4582:5000  if (totalReward > 0) {... */\n    tag_153:\n        /* \"Smart-Contracts/PNJC_Staking.sol\":4519:5007  {... */\n      pop\n        /* \"@openzeppelin/contracts@5.6.0/utils/ReentrancyGuard.sol\":3054:3055  _ */\n      pop\n        /* \"@openzeppelin/contracts@5.6.0/utils/ReentrancyGuard.sol\":3065:3085  _nonReentrantAfter() */\n      tag_161\n        /* \"@openzeppelin/contracts@5.6.0/utils/ReentrancyGuard.sol\":2365:2366  1 */\n      0x01\n      0x00\n      dup1\n      mload\n      0x20\n      data_c8669cf8eaf883002b9f48e28846a8d408c9b58ea6613bace374265e43c9bc43\n      dup4\n      codecopy\n      dup2\n      mload\n      swap2\n      mstore\n        /* \"@openzeppelin/contracts@5.6.0/utils/ReentrancyGuard.sol\":3972:4034  _reentrancyGuardStorageSlot().getUint256Slot().value = ENTERED */\n      sstore\n        /* \"@openzeppelin/contracts@5.6.0/utils/ReentrancyGuard.sol\":3749:4041  function _nonReentrantBefore() private {... */\n      jump\n        /* \"@openzeppelin/contracts@5.6.0/utils/ReentrancyGuard.sol\":3065:3085  _nonReentrantAfter() */\n    tag_161:\n        /* \"Smart-Contracts/PNJC_Staking.sol\":4453:5007  function getReward() public nonReentrant updateReward(msg.sender) {... */\n      jump\t// out\n        /* \"@openzeppelin/contracts@5.6.0/access/Ownable.sol\":2293:2394  function renounceOwnership() public virtual onlyOwner {... */\n    tag_71:\n        /* \"@openzeppelin/contracts@5.6.0/access/Ownable.sol\":1531:1544  _checkOwner() */\n      tag_164\n        /* \"@openzeppelin/contracts@5.6.0/access/Ownable.sol\":1531:1542  _checkOwner */\n      tag_141\n        /* \"@openzeppelin/contracts@5.6.0/access/Ownable.sol\":1531:1544  _checkOwner() */\n      jump\t// in\n    tag_164:\n        /* \"@openzeppelin/contracts@5.6.0/access/Ownable.sol\":2357:2387  _transferOwnership(address(0)) */\n      tag_161\n        /* \"@openzeppelin/contracts@5.6.0/access/Ownable.sol\":2384:2385  0 */\n      0x00\n        /* \"@openzeppelin/contracts@5.6.0/access/Ownable.sol\":2357:2375  _transferOwnership */\n      tag_167\n        /* \"@openzeppelin/contracts@5.6.0/access/Ownable.sol\":2357:2387  _transferOwnership(address(0)) */\n      jump\t// in\n        /* \"Smart-Contracts/PNJC_Staking.sol\":5529:5660  function setRewardRate(uint256 _rewardRate) external onlyOwner updateReward(address(0)) {... */\n    tag_84:\n        /* \"@openzeppelin/contracts@5.6.0/access/Ownable.sol\":1531:1544  _checkOwner() */\n      tag_170\n        /* \"@openzeppelin/contracts@5.6.0/access/Ownable.sol\":1531:1542  _checkOwner */\n      tag_141\n        /* \"@openzeppelin/contracts@5.6.0/access/Ownable.sol\":1531:1544  _checkOwner() */\n      jump\t// in\n    tag_170:\n        /* \"Smart-Contracts/PNJC_Staking.sol\":5613:5614  0 */\n      0x00\n        /* \"Smart-Contracts/PNJC_Staking.sol\":2520:2536  rewardPerToken() */\n      tag_172\n        /* \"Smart-Contracts/PNJC_Staking.sol\":2520:2534  rewardPerToken */\n      tag_96\n        /* \"Smart-Contracts/PNJC_Staking.sol\":2520:2536  rewardPerToken() */\n      jump\t// in\n    tag_172:\n        /* \"Smart-Contracts/PNJC_Staking.sol\":2497:2517  rewardPerTokenStored */\n      0x05\n        /* \"Smart-Contracts/PNJC_Staking.sol\":2497:2536  rewardPerTokenStored = rewardPerToken() */\n      sstore\n        /* \"Smart-Contracts/PNJC_Staking.sol\":2564:2579  block.timestamp */\n      timestamp\n        /* \"Smart-Contracts/PNJC_Staking.sol\":2547:2561  lastUpdateTime */\n      0x04\n        /* \"Smart-Contracts/PNJC_Staking.sol\":2547:2579  lastUpdateTime = block.timestamp */\n      sstore\n      sub(shl(0xa0, 0x01), 0x01)\n        /* \"Smart-Contracts/PNJC_Staking.sol\":2594:2615  account != address(0) */\n      dup2\n      and\n      iszero\n        /* \"Smart-Contracts/PNJC_Staking.sol\":2590:2747  if (account != address(0)) {... */\n      tag_173\n      jumpi\n        /* \"Smart-Contracts/PNJC_Staking.sol\":2651:2666  earned(account) */\n      tag_174\n        /* \"Smart-Contracts/PNJC_Staking.sol\":2658:2665  account */\n      dup2\n        /* \"Smart-Contracts/PNJC_Staking.sol\":2651:2657  earned */\n      tag_32\n        /* \"Smart-Contracts/PNJC_Staking.sol\":2651:2666  earned(account) */\n      jump\t// in\n    tag_174:\n      sub(shl(0xa0, 0x01), 0x01)\n        /* \"Smart-Contracts/PNJC_Staking.sol\":2632:2648  rewards[account] */\n      dup3\n      and\n      0x00\n      swap1\n      dup2\n      mstore\n        /* \"Smart-Contracts/PNJC_Staking.sol\":2632:2639  rewards */\n      0x07\n        /* \"Smart-Contracts/PNJC_Staking.sol\":2632:2648  rewards[account] */\n      0x20\n      swap1\n      dup2\n      mstore\n      0x40\n      dup1\n      dup4\n      keccak256\n        /* \"Smart-Contracts/PNJC_Staking.sol\":2632:2666  rewards[account] = earned(account) */\n      swap4\n      swap1\n      swap4\n      sstore\n        /* \"Smart-Contracts/PNJC_Staking.sol\":2715:2735  rewardPerTokenStored */\n      sload(0x05)\n        /* \"Smart-Contracts/PNJC_Staking.sol\":2681:2703  userRewardPerTokenPaid */\n      0x06\n        /* \"Smart-Contracts/PNJC_Staking.sol\":2681:2712  userRewardPerTokenPaid[account] */\n      swap1\n      swap2\n      mstore\n      swap2\n      swap1\n      keccak256\n        /* \"Smart-Contracts/PNJC_Staking.sol\":2681:2735  userRewardPerTokenPaid[account] = rewardPerTokenStored */\n      sstore\n        /* \"Smart-Contracts/PNJC_Staking.sol\":2590:2747  if (account != address(0)) {... */\n    tag_173:\n      pop\n        /* \"Smart-Contracts/PNJC_Staking.sol\":5628:5638  rewardRate */\n      0x02\n        /* \"Smart-Contracts/PNJC_Staking.sol\":5628:5652  rewardRate = _rewardRate */\n      sstore\n        /* \"Smart-Contracts/PNJC_Staking.sol\":5529:5660  function setRewardRate(uint256 _rewardRate) external onlyOwner updateReward(address(0)) {... */\n      jump\t// out\n        /* \"Smart-Contracts/PNJC_Staking.sol\":3372:3750  function stake(uint256 amount) external nonReentrant updateReward(msg.sender) {... */\n    tag_87:\n        /* \"@openzeppelin/contracts@5.6.0/utils/ReentrancyGuard.sol\":3023:3044  _nonReentrantBefore() */\n      tag_177\n        /* \"@openzeppelin/contracts@5.6.0/utils/ReentrancyGuard.sol\":3023:3042  _nonReentrantBefore */\n      tag_120\n        /* \"@openzeppelin/contracts@5.6.0/utils/ReentrancyGuard.sol\":3023:3044  _nonReentrantBefore() */\n      jump\t// in\n    tag_177:\n        /* \"Smart-Contracts/PNJC_Staking.sol\":3438:3448  msg.sender */\n      caller\n        /* \"Smart-Contracts/PNJC_Staking.sol\":2520:2536  rewardPerToken() */\n      tag_179\n        /* \"Smart-Contracts/PNJC_Staking.sol\":2520:2534  rewardPerToken */\n      tag_96\n        /* \"Smart-Contracts/PNJC_Staking.sol\":2520:2536  rewardPerToken() */\n      jump\t// in\n    tag_179:\n        /* \"Smart-Contracts/PNJC_Staking.sol\":2497:2517  rewardPerTokenStored */\n      0x05\n        /* \"Smart-Contracts/PNJC_Staking.sol\":2497:2536  rewardPerTokenStored = rewardPerToken() */\n      sstore\n        /* \"Smart-Contracts/PNJC_Staking.sol\":2564:2579  block.timestamp */\n      timestamp\n        /* \"Smart-Contracts/PNJC_Staking.sol\":2547:2561  lastUpdateTime */\n      0x04\n        /* \"Smart-Contracts/PNJC_Staking.sol\":2547:2579  lastUpdateTime = block.timestamp */\n      sstore\n      sub(shl(0xa0, 0x01), 0x01)\n        /* \"Smart-Contracts/PNJC_Staking.sol\":2594:2615  account != address(0) */\n      dup2\n      and\n      iszero\n        /* \"Smart-Contracts/PNJC_Staking.sol\":2590:2747  if (account != address(0)) {... */\n      tag_180\n      jumpi\n        /* \"Smart-Contracts/PNJC_Staking.sol\":2651:2666  earned(account) */\n      tag_181\n        /* \"Smart-Contracts/PNJC_Staking.sol\":2658:2665  account */\n      dup2\n        /* \"Smart-Contracts/PNJC_Staking.sol\":2651:2657  earned */\n      tag_32\n        /* \"Smart-Contracts/PNJC_Staking.sol\":2651:2666  earned(account) */\n      jump\t// in\n    tag_181:\n      sub(shl(0xa0, 0x01), 0x01)\n        /* \"Smart-Contracts/PNJC_Staking.sol\":2632:2648  rewards[account] */\n      dup3\n      and\n      0x00\n      swap1\n      dup2\n      mstore\n        /* \"Smart-Contracts/PNJC_Staking.sol\":2632:2639  rewards */\n      0x07\n        /* \"Smart-Contracts/PNJC_Staking.sol\":2632:2648  rewards[account] */\n      0x20\n      swap1\n      dup2\n      mstore\n      0x40\n      dup1\n      dup4\n      keccak256\n        /* \"Smart-Contracts/PNJC_Staking.sol\":2632:2666  rewards[account] = earned(account) */\n      swap4\n      swap1\n      swap4\n      sstore\n        /* \"Smart-Contracts/PNJC_Staking.sol\":2715:2735  rewardPerTokenStored */\n      sload(0x05)\n        /* \"Smart-Contracts/PNJC_Staking.sol\":2681:2703  userRewardPerTokenPaid */\n      0x06\n        /* \"Smart-Contracts/PNJC_Staking.sol\":2681:2712  userRewardPerTokenPaid[account] */\n      swap1\n      swap2\n      mstore\n      swap2\n      swap1\n      keccak256\n        /* \"Smart-Contracts/PNJC_Staking.sol\":2681:2735  userRewardPerTokenPaid[account] = rewardPerTokenStored */\n      sstore\n        /* \"Smart-Contracts/PNJC_Staking.sol\":2590:2747  if (account != address(0)) {... */\n    tag_180:\n        /* \"Smart-Contracts/PNJC_Staking.sol\":3478:3479  0 */\n      0x00\n        /* \"Smart-Contracts/PNJC_Staking.sol\":3469:3475  amount */\n      dup3\n        /* \"Smart-Contracts/PNJC_Staking.sol\":3469:3479  amount > 0 */\n      gt\n        /* \"Smart-Contracts/PNJC_Staking.sol\":3461:3498  require(amount > 0, \"Cannot stake 0\") */\n      tag_183\n      jumpi\n      mload(0x40)\n      shl(0xe5, 0x461bcd)\n      dup2\n      mstore\n        /* \"#utility.yul\":3399:3401   */\n      0x20\n        /* \"Smart-Contracts/PNJC_Staking.sol\":3461:3498  require(amount > 0, \"Cannot stake 0\") */\n      0x04\n      dup3\n      add\n        /* \"#utility.yul\":3381:3402   */\n      mstore\n        /* \"#utility.yul\":3438:3440   */\n      0x0e\n        /* \"#utility.yul\":3418:3436   */\n      0x24\n      dup3\n      add\n        /* \"#utility.yul\":3411:3441   */\n      mstore\n      shl(0x94, 0x043616e6e6f74207374616b65203)\n        /* \"#utility.yul\":3457:3475   */\n      0x44\n      dup3\n      add\n        /* \"#utility.yul\":3450:3494   */\n      mstore\n        /* \"#utility.yul\":3511:3529   */\n      0x64\n      add\n        /* \"Smart-Contracts/PNJC_Staking.sol\":3461:3498  require(amount > 0, \"Cannot stake 0\") */\n      tag_127\n        /* \"#utility.yul\":3197:3535   */\n      jump\n        /* \"Smart-Contracts/PNJC_Staking.sol\":3461:3498  require(amount > 0, \"Cannot stake 0\") */\n    tag_183:\n        /* \"Smart-Contracts/PNJC_Staking.sol\":3525:3531  amount */\n      dup2\n        /* \"Smart-Contracts/PNJC_Staking.sol\":3509:3521  _totalSupply */\n      0x0a\n      0x00\n        /* \"Smart-Contracts/PNJC_Staking.sol\":3509:3531  _totalSupply += amount */\n      dup3\n      dup3\n      sload\n      tag_186\n      swap2\n      swap1\n      tag_116\n      jump\t// in\n    tag_186:\n      swap1\n      swap2\n      sstore\n      pop\n      pop\n        /* \"Smart-Contracts/PNJC_Staking.sol\":3552:3562  msg.sender */\n      caller\n        /* \"Smart-Contracts/PNJC_Staking.sol\":3542:3563  _balances[msg.sender] */\n      0x00\n      swap1\n      dup2\n      mstore\n        /* \"Smart-Contracts/PNJC_Staking.sol\":3542:3551  _balances */\n      0x08\n        /* \"Smart-Contracts/PNJC_Staking.sol\":3542:3563  _balances[msg.sender] */\n      0x20\n      mstore\n      0x40\n      dup2\n      keccak256\n        /* \"Smart-Contracts/PNJC_Staking.sol\":3542:3573  _balances[msg.sender] += amount */\n      dup1\n      sload\n        /* \"Smart-Contracts/PNJC_Staking.sol\":3567:3573  amount */\n      dup5\n      swap3\n        /* \"Smart-Contracts/PNJC_Staking.sol\":3542:3563  _balances[msg.sender] */\n      swap1\n        /* \"Smart-Contracts/PNJC_Staking.sol\":3542:3573  _balances[msg.sender] += amount */\n      tag_187\n      swap1\n        /* \"Smart-Contracts/PNJC_Staking.sol\":3567:3573  amount */\n      dup5\n      swap1\n        /* \"Smart-Contracts/PNJC_Staking.sol\":3542:3573  _balances[msg.sender] += amount */\n      tag_116\n      jump\t// in\n    tag_187:\n      swap1\n      swap2\n      sstore\n      pop\n      pop\n        /* \"Smart-Contracts/PNJC_Staking.sol\":3599:3609  msg.sender */\n      caller\n        /* \"Smart-Contracts/PNJC_Staking.sol\":3584:3610  stakeTimestamp[msg.sender] */\n      0x00\n      dup2\n      dup2\n      mstore\n        /* \"Smart-Contracts/PNJC_Staking.sol\":3584:3598  stakeTimestamp */\n      0x09\n        /* \"Smart-Contracts/PNJC_Staking.sol\":3584:3610  stakeTimestamp[msg.sender] */\n      0x20\n      mstore\n      0x40\n      swap1\n      keccak256\n        /* \"Smart-Contracts/PNJC_Staking.sol\":3613:3628  block.timestamp */\n      timestamp\n        /* \"Smart-Contracts/PNJC_Staking.sol\":3584:3628  stakeTimestamp[msg.sender] = block.timestamp */\n      swap1\n      sstore\n        /* \"Smart-Contracts/PNJC_Staking.sol\":3639:3700  pnjcToken.safeTransferFrom(msg.sender, address(this), amount) */\n      tag_188\n      swap1\n        /* \"Smart-Contracts/PNJC_Staking.sol\":3639:3648  pnjcToken */\n      immutable(\"0x5d0e843169a959565868d1bb90146ec5c40092bfd7808c444f36bb919316c421\")\n      sub(shl(0xa0, 0x01), 0x01)\n        /* \"Smart-Contracts/PNJC_Staking.sol\":3639:3665  pnjcToken.safeTransferFrom */\n      and\n      swap1\n        /* \"Smart-Contracts/PNJC_Staking.sol\":3686:3690  this */\n      address\n        /* \"Smart-Contracts/PNJC_Staking.sol\":3693:3699  amount */\n      dup6\n        /* \"Smart-Contracts/PNJC_Staking.sol\":3639:3665  pnjcToken.safeTransferFrom */\n      tag_189\n        /* \"Smart-Contracts/PNJC_Staking.sol\":3639:3700  pnjcToken.safeTransferFrom(msg.sender, address(this), amount) */\n      jump\t// in\n    tag_188:\n        /* \"Smart-Contracts/PNJC_Staking.sol\":3716:3742  Staked(msg.sender, amount) */\n      mload(0x40)\n        /* \"#utility.yul\":451:476   */\n      dup3\n      dup2\n      mstore\n        /* \"Smart-Contracts/PNJC_Staking.sol\":3723:3733  msg.sender */\n      caller\n      swap1\n        /* \"Smart-Contracts/PNJC_Staking.sol\":3716:3742  Staked(msg.sender, amount) */\n      0x9e71bc8eea02a63969f509818f2dafb9254532904319f9dbda79b67bd34a5f3d\n      swap1\n        /* \"#utility.yul\":439:441   */\n      0x20\n        /* \"#utility.yul\":424:442   */\n      add\n        /* \"Smart-Contracts/PNJC_Staking.sol\":3716:3742  Staked(msg.sender, amount) */\n      tag_136\n        /* \"#utility.yul\":305:482   */\n      jump\n        /* \"Smart-Contracts/PNJC_Staking.sol\":5203:5465  function getVotingPower(address account) external view returns (uint256) {... */\n    tag_90:\n      sub(shl(0xa0, 0x01), 0x01)\n        /* \"Smart-Contracts/PNJC_Staking.sol\":5326:5349  stakeTimestamp[account] */\n      dup2\n      and\n        /* \"Smart-Contracts/PNJC_Staking.sol\":5267:5274  uint256 */\n      0x00\n        /* \"Smart-Contracts/PNJC_Staking.sol\":5326:5349  stakeTimestamp[account] */\n      swap1\n      dup2\n      mstore\n        /* \"Smart-Contracts/PNJC_Staking.sol\":5326:5340  stakeTimestamp */\n      0x09\n        /* \"Smart-Contracts/PNJC_Staking.sol\":5326:5349  stakeTimestamp[account] */\n      0x20\n      mstore\n      0x40\n      dup2\n      keccak256\n      sload\n        /* \"Smart-Contracts/PNJC_Staking.sol\":5267:5274  uint256 */\n      dup2\n      swap1\n        /* \"Smart-Contracts/PNJC_Staking.sol\":5308:5349  block.timestamp - stakeTimestamp[account] */\n      tag_193\n      swap1\n        /* \"Smart-Contracts/PNJC_Staking.sol\":5308:5323  block.timestamp */\n      timestamp\n        /* \"Smart-Contracts/PNJC_Staking.sol\":5308:5349  block.timestamp - stakeTimestamp[account] */\n      tag_110\n      jump\t// in\n    tag_193:\n        /* \"Smart-Contracts/PNJC_Staking.sol\":5287:5349  uint256 timeStaked = block.timestamp - stakeTimestamp[account] */\n      swap1\n      pop\n        /* \"Smart-Contracts/PNJC_Staking.sol\":5360:5378  uint256 multiplier */\n      0x00\n        /* \"Smart-Contracts/PNJC_Staking.sol\":5386:5406  timeStaked / 30 days */\n      tag_194\n        /* \"Smart-Contracts/PNJC_Staking.sol\":5399:5406  30 days */\n      0x278d00\n        /* \"Smart-Contracts/PNJC_Staking.sol\":5287:5349  uint256 timeStaked = block.timestamp - stakeTimestamp[account] */\n      dup4\n        /* \"Smart-Contracts/PNJC_Staking.sol\":5386:5406  timeStaked / 30 days */\n      tag_114\n      jump\t// in\n    tag_194:\n        /* \"Smart-Contracts/PNJC_Staking.sol\":5381:5407  1 + (timeStaked / 30 days) */\n      tag_195\n      swap1\n        /* \"Smart-Contracts/PNJC_Staking.sol\":5381:5382  1 */\n      0x01\n        /* \"Smart-Contracts/PNJC_Staking.sol\":5381:5407  1 + (timeStaked / 30 days) */\n      tag_116\n      jump\t// in\n    tag_195:\n      sub(shl(0xa0, 0x01), 0x01)\n        /* \"Smart-Contracts/PNJC_Staking.sol\":5426:5444  _balances[account] */\n      dup6\n      and\n      0x00\n      swap1\n      dup2\n      mstore\n        /* \"Smart-Contracts/PNJC_Staking.sol\":5426:5435  _balances */\n      0x08\n        /* \"Smart-Contracts/PNJC_Staking.sol\":5426:5444  _balances[account] */\n      0x20\n      mstore\n      0x40\n      swap1\n      keccak256\n      sload\n        /* \"Smart-Contracts/PNJC_Staking.sol\":5360:5407  uint256 multiplier = 1 + (timeStaked / 30 days) */\n      swap1\n      swap2\n      pop\n        /* \"Smart-Contracts/PNJC_Staking.sol\":5426:5457  _balances[account] * multiplier */\n      tag_196\n      swap1\n        /* \"Smart-Contracts/PNJC_Staking.sol\":5360:5407  uint256 multiplier = 1 + (timeStaked / 30 days) */\n      dup3\n      swap1\n        /* \"Smart-Contracts/PNJC_Staking.sol\":5426:5457  _balances[account] * multiplier */\n      tag_112\n      jump\t// in\n    tag_196:\n        /* \"Smart-Contracts/PNJC_Staking.sol\":5419:5457  return _balances[account] * multiplier */\n      swap5\n        /* \"Smart-Contracts/PNJC_Staking.sol\":5203:5465  function getVotingPower(address account) external view returns (uint256) {... */\n      swap4\n      pop\n      pop\n      pop\n      pop\n      jump\t// out\n        /* \"Smart-Contracts/PNJC_Staking.sol\":2774:3013  function rewardPerToken() public view returns (uint256) {... */\n    tag_96:\n        /* \"Smart-Contracts/PNJC_Staking.sol\":2821:2828  uint256 */\n      0x00\n        /* \"Smart-Contracts/PNJC_Staking.sol\":2845:2857  _totalSupply */\n      sload(0x0a)\n        /* \"Smart-Contracts/PNJC_Staking.sol\":2861:2862  0 */\n      0x00\n        /* \"Smart-Contracts/PNJC_Staking.sol\":2845:2862  _totalSupply == 0 */\n      sub\n        /* \"Smart-Contracts/PNJC_Staking.sol\":2841:2891  if (_totalSupply == 0) return rewardPerTokenStored */\n      tag_198\n      jumpi\n      pop\n        /* \"Smart-Contracts/PNJC_Staking.sol\":2871:2891  rewardPerTokenStored */\n      sload(0x05)\n      swap1\n        /* \"Smart-Contracts/PNJC_Staking.sol\":2774:3013  function rewardPerToken() public view returns (uint256) {... */\n      jump\t// out\n        /* \"Smart-Contracts/PNJC_Staking.sol\":2841:2891  if (_totalSupply == 0) return rewardPerTokenStored */\n    tag_198:\n        /* \"Smart-Contracts/PNJC_Staking.sol\":2992:3004  _totalSupply */\n      sload(0x0a)\n        /* \"Smart-Contracts/PNJC_Staking.sol\":2971:2981  rewardRate */\n      sload(0x02)\n        /* \"Smart-Contracts/PNJC_Staking.sol\":2953:2967  lastUpdateTime */\n      sload(0x04)\n        /* \"Smart-Contracts/PNJC_Staking.sol\":2935:2967  block.timestamp - lastUpdateTime */\n      tag_199\n      swap1\n        /* \"Smart-Contracts/PNJC_Staking.sol\":2935:2950  block.timestamp */\n      timestamp\n        /* \"Smart-Contracts/PNJC_Staking.sol\":2935:2967  block.timestamp - lastUpdateTime */\n      tag_110\n      jump\t// in\n    tag_199:\n        /* \"Smart-Contracts/PNJC_Staking.sol\":2934:2981  (block.timestamp - lastUpdateTime) * rewardRate */\n      tag_200\n      swap2\n      swap1\n      tag_112\n      jump\t// in\n    tag_200:\n        /* \"Smart-Contracts/PNJC_Staking.sol\":2934:2988  (block.timestamp - lastUpdateTime) * rewardRate * 1e18 */\n      tag_201\n      swap1\n        /* \"Smart-Contracts/PNJC_Staking.sol\":2984:2988  1e18 */\n      0x0de0b6b3a7640000\n        /* \"Smart-Contracts/PNJC_Staking.sol\":2934:2988  (block.timestamp - lastUpdateTime) * rewardRate * 1e18 */\n      tag_112\n      jump\t// in\n    tag_201:\n        /* \"Smart-Contracts/PNJC_Staking.sol\":2933:3004  ((block.timestamp - lastUpdateTime) * rewardRate * 1e18) / _totalSupply */\n      tag_202\n      swap2\n      swap1\n      tag_114\n      jump\t// in\n    tag_202:\n        /* \"Smart-Contracts/PNJC_Staking.sol\":2909:2929  rewardPerTokenStored */\n      sload(0x05)\n        /* \"Smart-Contracts/PNJC_Staking.sol\":2909:3005  rewardPerTokenStored + (((block.timestamp - lastUpdateTime) * rewardRate * 1e18) / _totalSupply) */\n      tag_203\n      swap2\n      swap1\n      tag_116\n      jump\t// in\n    tag_203:\n        /* \"Smart-Contracts/PNJC_Staking.sol\":2902:3005  return rewardPerTokenStored + (((block.timestamp - lastUpdateTime) * rewardRate * 1e18) / _totalSupply) */\n      swap1\n      pop\n        /* \"Smart-Contracts/PNJC_Staking.sol\":2774:3013  function rewardPerToken() public view returns (uint256) {... */\n      swap1\n      jump\t// out\n        /* \"Smart-Contracts/PNJC_Staking.sol\":5668:5891  function updateCharityVault(address _newVault) external onlyOwner {... */\n    tag_103:\n        /* \"@openzeppelin/contracts@5.6.0/access/Ownable.sol\":1531:1544  _checkOwner() */\n      tag_205\n        /* \"@openzeppelin/contracts@5.6.0/access/Ownable.sol\":1531:1542  _checkOwner */\n      tag_141\n        /* \"@openzeppelin/contracts@5.6.0/access/Ownable.sol\":1531:1544  _checkOwner() */\n      jump\t// in\n    tag_205:\n      sub(shl(0xa0, 0x01), 0x01)\n        /* \"Smart-Contracts/PNJC_Staking.sol\":5753:5776  _newVault != address(0) */\n      dup2\n      and\n        /* \"Smart-Contracts/PNJC_Staking.sol\":5745:5802  require(_newVault != address(0), \"Invalid vault address\") */\n      tag_207\n      jumpi\n      mload(0x40)\n      shl(0xe5, 0x461bcd)\n      dup2\n      mstore\n        /* \"#utility.yul\":3742:3744   */\n      0x20\n        /* \"Smart-Contracts/PNJC_Staking.sol\":5745:5802  require(_newVault != address(0), \"Invalid vault address\") */\n      0x04\n      dup3\n      add\n        /* \"#utility.yul\":3724:3745   */\n      mstore\n        /* \"#utility.yul\":3781:3783   */\n      0x15\n        /* \"#utility.yul\":3761:3779   */\n      0x24\n      dup3\n      add\n        /* \"#utility.yul\":3754:3784   */\n      mstore\n      shl(0x58, 0x496e76616c6964207661756c742061646472657373)\n        /* \"#utility.yul\":3800:3818   */\n      0x44\n      dup3\n      add\n        /* \"#utility.yul\":3793:3844   */\n      mstore\n        /* \"#utility.yul\":3861:3879   */\n      0x64\n      add\n        /* \"Smart-Contracts/PNJC_Staking.sol\":5745:5802  require(_newVault != address(0), \"Invalid vault address\") */\n      tag_127\n        /* \"#utility.yul\":3540:3885   */\n      jump\n        /* \"Smart-Contracts/PNJC_Staking.sol\":5745:5802  require(_newVault != address(0), \"Invalid vault address\") */\n    tag_207:\n        /* \"Smart-Contracts/PNJC_Staking.sol\":5813:5825  charityVault */\n      0x01\n        /* \"Smart-Contracts/PNJC_Staking.sol\":5813:5837  charityVault = _newVault */\n      dup1\n      sload\n      not(sub(shl(0xa0, 0x01), 0x01))\n      and\n      sub(shl(0xa0, 0x01), 0x01)\n      dup4\n      and\n      swap1\n      dup2\n      or\n      swap1\n      swap2\n      sstore\n        /* \"Smart-Contracts/PNJC_Staking.sol\":5853:5883  CharityVaultUpdated(_newVault) */\n      mload(0x40)\n      0xdf1230ab3eeb5a856667df0c3f17cbf609c7c38795db733eaac2b6eda9fe36cd\n      swap1\n      0x00\n      swap1\n      log2\n        /* \"Smart-Contracts/PNJC_Staking.sol\":5668:5891  function updateCharityVault(address _newVault) external onlyOwner {... */\n      pop\n      jump\t// out\n        /* \"@openzeppelin/contracts@5.6.0/access/Ownable.sol\":2543:2758  function transferOwnership(address newOwner) public virtual onlyOwner {... */\n    tag_106:\n        /* \"@openzeppelin/contracts@5.6.0/access/Ownable.sol\":1531:1544  _checkOwner() */\n      tag_211\n        /* \"@openzeppelin/contracts@5.6.0/access/Ownable.sol\":1531:1542  _checkOwner */\n      tag_141\n        /* \"@openzeppelin/contracts@5.6.0/access/Ownable.sol\":1531:1544  _checkOwner() */\n      jump\t// in\n    tag_211:\n      sub(shl(0xa0, 0x01), 0x01)\n        /* \"@openzeppelin/contracts@5.6.0/access/Ownable.sol\":2627:2649  newOwner == address(0) */\n      dup2\n      and\n        /* \"@openzeppelin/contracts@5.6.0/access/Ownable.sol\":2623:2714  if (newOwner == address(0)) {... */\n      tag_213\n      jumpi\n        /* \"@openzeppelin/contracts@5.6.0/access/Ownable.sol\":2672:2703  OwnableInvalidOwner(address(0)) */\n      mload(0x40)\n      shl(0xe0, 0x1e4fbdf7)\n      dup2\n      mstore\n        /* \"@openzeppelin/contracts@5.6.0/access/Ownable.sol\":2700:2701  0 */\n      0x00\n        /* \"@openzeppelin/contracts@5.6.0/access/Ownable.sol\":2672:2703  OwnableInvalidOwner(address(0)) */\n      0x04\n      dup3\n      add\n        /* \"#utility.yul\":633:684   */\n      mstore\n        /* \"#utility.yul\":606:624   */\n      0x24\n      add\n        /* \"@openzeppelin/contracts@5.6.0/access/Ownable.sol\":2672:2703  OwnableInvalidOwner(address(0)) */\n      tag_127\n        /* \"#utility.yul\":487:690   */\n      jump\n        /* \"@openzeppelin/contracts@5.6.0/access/Ownable.sol\":2623:2714  if (newOwner == address(0)) {... */\n    tag_213:\n        /* \"@openzeppelin/contracts@5.6.0/access/Ownable.sol\":2723:2751  _transferOwnership(newOwner) */\n      tag_137\n        /* \"@openzeppelin/contracts@5.6.0/access/Ownable.sol\":2742:2750  newOwner */\n      dup2\n        /* \"@openzeppelin/contracts@5.6.0/access/Ownable.sol\":2723:2741  _transferOwnership */\n      tag_167\n        /* \"@openzeppelin/contracts@5.6.0/access/Ownable.sol\":2723:2751  _transferOwnership(newOwner) */\n      jump\t// in\n        /* \"@openzeppelin/contracts@5.6.0/utils/ReentrancyGuard.sol\":3749:4041  function _nonReentrantBefore() private {... */\n    tag_120:\n        /* \"@openzeppelin/contracts@5.6.0/utils/ReentrancyGuard.sol\":3872:3897  _nonReentrantBeforeView() */\n      tag_217\n        /* \"@openzeppelin/contracts@5.6.0/utils/ReentrancyGuard.sol\":3872:3895  _nonReentrantBeforeView */\n      tag_218\n        /* \"@openzeppelin/contracts@5.6.0/utils/ReentrancyGuard.sol\":3872:3897  _nonReentrantBeforeView() */\n      jump\t// in\n    tag_217:\n        /* \"@openzeppelin/contracts@5.6.0/utils/ReentrancyGuard.sol\":2407:2408  2 */\n      0x02\n      0x00\n      dup1\n      mload\n      0x20\n      data_c8669cf8eaf883002b9f48e28846a8d408c9b58ea6613bace374265e43c9bc43\n      dup4\n      codecopy\n      dup2\n      mload\n      swap2\n      mstore\n        /* \"@openzeppelin/contracts@5.6.0/utils/ReentrancyGuard.sol\":3972:4034  _reentrancyGuardStorageSlot().getUint256Slot().value = ENTERED */\n      sstore\n        /* \"@openzeppelin/contracts@5.6.0/utils/ReentrancyGuard.sol\":3749:4041  function _nonReentrantBefore() private {... */\n      jump\t// out\n        /* \"@openzeppelin/contracts@5.6.0/token/ERC20/utils/SafeERC20.sol\":1219:1423  function safeTransfer(IERC20 token, address to, uint256 value) internal {... */\n    tag_135:\n        /* \"@openzeppelin/contracts@5.6.0/token/ERC20/utils/SafeERC20.sol\":1306:1343  _safeTransfer(token, to, value, true) */\n      tag_224\n        /* \"@openzeppelin/contracts@5.6.0/token/ERC20/utils/SafeERC20.sol\":1320:1325  token */\n      dup4\n        /* \"@openzeppelin/contracts@5.6.0/token/ERC20/utils/SafeERC20.sol\":1327:1329  to */\n      dup4\n        /* \"@openzeppelin/contracts@5.6.0/token/ERC20/utils/SafeERC20.sol\":1331:1336  value */\n      dup4\n        /* \"@openzeppelin/contracts@5.6.0/token/ERC20/utils/SafeERC20.sol\":1338:1342  true */\n      0x01\n        /* \"@openzeppelin/contracts@5.6.0/token/ERC20/utils/SafeERC20.sol\":1306:1319  _safeTransfer */\n      tag_225\n        /* \"@openzeppelin/contracts@5.6.0/token/ERC20/utils/SafeERC20.sol\":1306:1343  _safeTransfer(token, to, value, true) */\n      jump\t// in\n    tag_224:\n        /* \"@openzeppelin/contracts@5.6.0/token/ERC20/utils/SafeERC20.sol\":1301:1417  if (!_safeTransfer(token, to, value, true)) {... */\n      tag_226\n      jumpi\n        /* \"@openzeppelin/contracts@5.6.0/token/ERC20/utils/SafeERC20.sol\":1366:1406  SafeERC20FailedOperation(address(token)) */\n      mload(0x40)\n      shl(0xe0, 0x5274afe7)\n      dup2\n      mstore\n      sub(shl(0xa0, 0x01), 0x01)\n        /* \"#utility.yul\":651:683   */\n      dup5\n      and\n        /* \"@openzeppelin/contracts@5.6.0/token/ERC20/utils/SafeERC20.sol\":1366:1406  SafeERC20FailedOperation(address(token)) */\n      0x04\n      dup3\n      add\n        /* \"#utility.yul\":633:684   */\n      mstore\n        /* \"#utility.yul\":606:624   */\n      0x24\n      add\n        /* \"@openzeppelin/contracts@5.6.0/token/ERC20/utils/SafeERC20.sol\":1366:1406  SafeERC20FailedOperation(address(token)) */\n      tag_127\n        /* \"#utility.yul\":487:690   */\n      jump\n        /* \"@openzeppelin/contracts@5.6.0/token/ERC20/utils/SafeERC20.sol\":1301:1417  if (!_safeTransfer(token, to, value, true)) {... */\n    tag_226:\n        /* \"@openzeppelin/contracts@5.6.0/token/ERC20/utils/SafeERC20.sol\":1219:1423  function safeTransfer(IERC20 token, address to, uint256 value) internal {... */\n      pop\n      pop\n      pop\n      jump\t// out\n        /* \"@openzeppelin/contracts@5.6.0/access/Ownable.sol\":1796:1958  function _checkOwner() internal view virtual {... */\n    tag_141:\n        /* \"@openzeppelin/contracts@5.6.0/access/Ownable.sol\":1684:1691  address */\n      0x00\n        /* \"@openzeppelin/contracts@5.6.0/access/Ownable.sol\":1710:1716  _owner */\n      sload\n      sub(shl(0xa0, 0x01), 0x01)\n      and\n        /* \"@openzeppelin/contracts@5.6.0/utils/Context.sol\":735:745  msg.sender */\n      caller\n        /* \"@openzeppelin/contracts@5.6.0/access/Ownable.sol\":1855:1878  owner() != _msgSender() */\n      eq\n        /* \"@openzeppelin/contracts@5.6.0/access/Ownable.sol\":1851:1952  if (owner() != _msgSender()) {... */\n      tag_161\n      jumpi\n        /* \"@openzeppelin/contracts@5.6.0/access/Ownable.sol\":1901:1941  OwnableUnauthorizedAccount(_msgSender()) */\n      mload(0x40)\n      shl(0xe0, 0x118cdaa7)\n      dup2\n      mstore\n        /* \"@openzeppelin/contracts@5.6.0/utils/Context.sol\":735:745  msg.sender */\n      caller\n        /* \"@openzeppelin/contracts@5.6.0/access/Ownable.sol\":1901:1941  OwnableUnauthorizedAccount(_msgSender()) */\n      0x04\n      dup3\n      add\n        /* \"#utility.yul\":633:684   */\n      mstore\n        /* \"#utility.yul\":606:624   */\n      0x24\n      add\n        /* \"@openzeppelin/contracts@5.6.0/access/Ownable.sol\":1901:1941  OwnableUnauthorizedAccount(_msgSender()) */\n      tag_127\n        /* \"#utility.yul\":487:690   */\n      jump\n        /* \"@openzeppelin/contracts@5.6.0/access/Ownable.sol\":2912:3099  function _transferOwnership(address newOwner) internal virtual {... */\n    tag_167:\n        /* \"@openzeppelin/contracts@5.6.0/access/Ownable.sol\":2985:3001  address oldOwner */\n      0x00\n        /* \"@openzeppelin/contracts@5.6.0/access/Ownable.sol\":3004:3010  _owner */\n      dup1\n      sload\n      sub(shl(0xa0, 0x01), 0x01)\n        /* \"@openzeppelin/contracts@5.6.0/access/Ownable.sol\":3020:3037  _owner = newOwner */\n      dup4\n      dup2\n      and\n      not(sub(shl(0xa0, 0x01), 0x01))\n      dup4\n      and\n      dup2\n      or\n      dup5\n      sstore\n        /* \"@openzeppelin/contracts@5.6.0/access/Ownable.sol\":3052:3092  OwnershipTransferred(oldOwner, newOwner) */\n      mload(0x40)\n        /* \"@openzeppelin/contracts@5.6.0/access/Ownable.sol\":3004:3010  _owner */\n      swap2\n      swap1\n      swap3\n      and\n      swap3\n      dup4\n      swap2\n        /* \"@openzeppelin/contracts@5.6.0/access/Ownable.sol\":3052:3092  OwnershipTransferred(oldOwner, newOwner) */\n      0x8be0079c531659141344cd1fd0a4f28419497f9722a3daafe3b4186f6b6457e0\n      swap2\n        /* \"@openzeppelin/contracts@5.6.0/access/Ownable.sol\":2985:3001  address oldOwner */\n      swap1\n        /* \"@openzeppelin/contracts@5.6.0/access/Ownable.sol\":3052:3092  OwnershipTransferred(oldOwner, newOwner) */\n      log3\n        /* \"@openzeppelin/contracts@5.6.0/access/Ownable.sol\":2975:3099  {... */\n      pop\n        /* \"@openzeppelin/contracts@5.6.0/access/Ownable.sol\":2912:3099  function _transferOwnership(address newOwner) internal virtual {... */\n      pop\n      jump\t// out\n        /* \"@openzeppelin/contracts@5.6.0/token/ERC20/utils/SafeERC20.sol\":1662:1894  function safeTransferFrom(IERC20 token, address from, address to, uint256 value) internal {... */\n    tag_189:\n        /* \"@openzeppelin/contracts@5.6.0/token/ERC20/utils/SafeERC20.sol\":1767:1814  _safeTransferFrom(token, from, to, value, true) */\n      tag_240\n        /* \"@openzeppelin/contracts@5.6.0/token/ERC20/utils/SafeERC20.sol\":1785:1790  token */\n      dup5\n        /* \"@openzeppelin/contracts@5.6.0/token/ERC20/utils/SafeERC20.sol\":1792:1796  from */\n      dup5\n        /* \"@openzeppelin/contracts@5.6.0/token/ERC20/utils/SafeERC20.sol\":1798:1800  to */\n      dup5\n        /* \"@openzeppelin/contracts@5.6.0/token/ERC20/utils/SafeERC20.sol\":1802:1807  value */\n      dup5\n        /* \"@openzeppelin/contracts@5.6.0/token/ERC20/utils/SafeERC20.sol\":1809:1813  true */\n      0x01\n        /* \"@openzeppelin/contracts@5.6.0/token/ERC20/utils/SafeERC20.sol\":1767:1784  _safeTransferFrom */\n      tag_241\n        /* \"@openzeppelin/contracts@5.6.0/token/ERC20/utils/SafeERC20.sol\":1767:1814  _safeTransferFrom(token, from, to, value, true) */\n      jump\t// in\n    tag_240:\n        /* \"@openzeppelin/contracts@5.6.0/token/ERC20/utils/SafeERC20.sol\":1762:1888  if (!_safeTransferFrom(token, from, to, value, true)) {... */\n      tag_242\n      jumpi\n        /* \"@openzeppelin/contracts@5.6.0/token/ERC20/utils/SafeERC20.sol\":1837:1877  SafeERC20FailedOperation(address(token)) */\n      mload(0x40)\n      shl(0xe0, 0x5274afe7)\n      dup2\n      mstore\n      sub(shl(0xa0, 0x01), 0x01)\n        /* \"#utility.yul\":651:683   */\n      dup6\n      and\n        /* \"@openzeppelin/contracts@5.6.0/token/ERC20/utils/SafeERC20.sol\":1837:1877  SafeERC20FailedOperation(address(token)) */\n      0x04\n      dup3\n      add\n        /* \"#utility.yul\":633:684   */\n      mstore\n        /* \"#utility.yul\":606:624   */\n      0x24\n      add\n        /* \"@openzeppelin/contracts@5.6.0/token/ERC20/utils/SafeERC20.sol\":1837:1877  SafeERC20FailedOperation(address(token)) */\n      tag_127\n        /* \"#utility.yul\":487:690   */\n      jump\n        /* \"@openzeppelin/contracts@5.6.0/token/ERC20/utils/SafeERC20.sol\":1762:1888  if (!_safeTransferFrom(token, from, to, value, true)) {... */\n    tag_242:\n        /* \"@openzeppelin/contracts@5.6.0/token/ERC20/utils/SafeERC20.sol\":1662:1894  function safeTransferFrom(IERC20 token, address from, address to, uint256 value) internal {... */\n      pop\n      pop\n      pop\n      pop\n      jump\t// out\n        /* \"@openzeppelin/contracts@5.6.0/utils/ReentrancyGuard.sol\":3586:3743  function _nonReentrantBeforeView() private view {... */\n    tag_218:\n      0x00\n      dup1\n      mload\n      0x20\n      data_c8669cf8eaf883002b9f48e28846a8d408c9b58ea6613bace374265e43c9bc43\n      dup4\n      codecopy\n      dup2\n      mload\n      swap2\n      mstore\n        /* \"@openzeppelin/contracts@5.6.0/utils/ReentrancyGuard.sol\":4560:4612  _reentrancyGuardStorageSlot().getUint256Slot().value */\n      sload\n        /* \"@openzeppelin/contracts@5.6.0/utils/ReentrancyGuard.sol\":2407:2408  2 */\n      0x02\n        /* \"@openzeppelin/contracts@5.6.0/utils/ReentrancyGuard.sol\":4560:4623  _reentrancyGuardStorageSlot().getUint256Slot().value == ENTERED */\n      sub\n        /* \"@openzeppelin/contracts@5.6.0/utils/ReentrancyGuard.sol\":3644:3737  if (_reentrancyGuardEntered()) {... */\n      tag_161\n      jumpi\n        /* \"@openzeppelin/contracts@5.6.0/utils/ReentrancyGuard.sol\":3696:3726  ReentrancyGuardReentrantCall() */\n      mload(0x40)\n      shl(0xe0, 0x3ee5aeb5)\n      dup2\n      mstore\n      0x04\n      add\n      mload(0x40)\n      dup1\n      swap2\n      sub\n      swap1\n      revert\n        /* \"@openzeppelin/contracts@5.6.0/token/ERC20/utils/SafeERC20.sol\":8373:9617  function _safeTransfer(IERC20 token, address to, uint256 value, bool bubble) private returns (bool success) {... */\n    tag_225:\n        /* \"@openzeppelin/contracts@5.6.0/token/ERC20/utils/SafeERC20.sol\":8600:8604  0x40 */\n      0x40\n        /* \"@openzeppelin/contracts@5.6.0/token/ERC20/utils/SafeERC20.sol\":8594:8605  mload(0x40) */\n      mload\n      shl(0xe0, 0xa9059cbb)\n        /* \"@openzeppelin/contracts@5.6.0/token/ERC20/utils/SafeERC20.sol\":8467:8479  bool success */\n      0x00\n        /* \"@openzeppelin/contracts@5.6.0/token/ERC20/utils/SafeERC20.sol\":8618:8640  mstore(0x00, selector) */\n      dup2\n      dup2\n      mstore\n      sub(shl(0xa0, 0x01), 0x01)\n        /* \"@openzeppelin/contracts@5.6.0/token/ERC20/utils/SafeERC20.sol\":8666:8690  and(to, shr(96, not(0))) */\n      dup7\n      and\n        /* \"@openzeppelin/contracts@5.6.0/token/ERC20/utils/SafeERC20.sol\":8660:8664  0x04 */\n      0x04\n        /* \"@openzeppelin/contracts@5.6.0/token/ERC20/utils/SafeERC20.sol\":8653:8691  mstore(0x04, and(to, shr(96, not(0)))) */\n      mstore\n        /* \"@openzeppelin/contracts@5.6.0/token/ERC20/utils/SafeERC20.sol\":8711:8715  0x24 */\n      0x24\n        /* \"@openzeppelin/contracts@5.6.0/token/ERC20/utils/SafeERC20.sol\":8704:8723  mstore(0x24, value) */\n      dup6\n      swap1\n      mstore\n        /* \"@openzeppelin/contracts@5.6.0/token/ERC20/utils/SafeERC20.sol\":8467:8479  bool success */\n      swap2\n        /* \"@openzeppelin/contracts@5.6.0/token/ERC20/utils/SafeERC20.sol\":8787:8791  0x20 */\n      0x20\n        /* \"@openzeppelin/contracts@5.6.0/token/ERC20/utils/SafeERC20.sol\":8467:8479  bool success */\n      dup4\n        /* \"@openzeppelin/contracts@5.6.0/token/ERC20/utils/SafeERC20.sol\":8775:8779  0x44 */\n      0x44\n        /* \"@openzeppelin/contracts@5.6.0/token/ERC20/utils/SafeERC20.sol\":8467:8479  bool success */\n      dup2\n      dup1\n        /* \"@openzeppelin/contracts@5.6.0/token/ERC20/utils/SafeERC20.sol\":8759:8764  token */\n      dup12\n        /* \"@openzeppelin/contracts@5.6.0/token/ERC20/utils/SafeERC20.sol\":8752:8757  gas() */\n      gas\n        /* \"@openzeppelin/contracts@5.6.0/token/ERC20/utils/SafeERC20.sol\":8747:8792  call(gas(), token, 0, 0x00, 0x44, 0x00, 0x20) */\n      call\n        /* \"@openzeppelin/contracts@5.6.0/token/ERC20/utils/SafeERC20.sol\":8736:8792  success := call(gas(), token, 0, 0x00, 0x44, 0x00, 0x20) */\n      swap3\n      pop\n        /* \"@openzeppelin/contracts@5.6.0/token/ERC20/utils/SafeERC20.sol\":9004:9005  1 */\n      0x01\n        /* \"@openzeppelin/contracts@5.6.0/token/ERC20/utils/SafeERC20.sol\":8997:9001  0x00 */\n      0x00\n        /* \"@openzeppelin/contracts@5.6.0/token/ERC20/utils/SafeERC20.sol\":8991:9002  mload(0x00) */\n      mload\n        /* \"@openzeppelin/contracts@5.6.0/token/ERC20/utils/SafeERC20.sol\":8988:9006  eq(mload(0x00), 1) */\n      eq\n        /* \"@openzeppelin/contracts@5.6.0/token/ERC20/utils/SafeERC20.sol\":8979:8986  success */\n      dup4\n        /* \"@openzeppelin/contracts@5.6.0/token/ERC20/utils/SafeERC20.sol\":8975:9007  and(success, eq(mload(0x00), 1)) */\n      and\n        /* \"@openzeppelin/contracts@5.6.0/token/ERC20/utils/SafeERC20.sol\":8965:9571  if iszero(and(success, eq(mload(0x00), 1))) {... */\n      tag_251\n      jumpi\n        /* \"@openzeppelin/contracts@5.6.0/token/ERC20/utils/SafeERC20.sol\":9136:9142  bubble */\n      dup4\n        /* \"@openzeppelin/contracts@5.6.0/token/ERC20/utils/SafeERC20.sol\":9126:9133  success */\n      dup4\n        /* \"@openzeppelin/contracts@5.6.0/token/ERC20/utils/SafeERC20.sol\":9119:9134  iszero(success) */\n      iszero\n        /* \"@openzeppelin/contracts@5.6.0/token/ERC20/utils/SafeERC20.sol\":9115:9143  and(iszero(success), bubble) */\n      and\n        /* \"@openzeppelin/contracts@5.6.0/token/ERC20/utils/SafeERC20.sol\":9112:9277  if and(iszero(success), bubble) {... */\n      iszero\n      tag_252\n      jumpi\n        /* \"@openzeppelin/contracts@5.6.0/token/ERC20/utils/SafeERC20.sol\":9192:9208  returndatasize() */\n      returndatasize\n        /* \"@openzeppelin/contracts@5.6.0/token/ERC20/utils/SafeERC20.sol\":9186:9190  0x00 */\n      0x00\n        /* \"@openzeppelin/contracts@5.6.0/token/ERC20/utils/SafeERC20.sol\":9181:9184  fmp */\n      dup3\n        /* \"@openzeppelin/contracts@5.6.0/token/ERC20/utils/SafeERC20.sol\":9166:9209  returndatacopy(fmp, 0x00, returndatasize()) */\n      returndatacopy\n        /* \"@openzeppelin/contracts@5.6.0/token/ERC20/utils/SafeERC20.sol\":9242:9258  returndatasize() */\n      returndatasize\n        /* \"@openzeppelin/contracts@5.6.0/token/ERC20/utils/SafeERC20.sol\":9237:9240  fmp */\n      dup2\n        /* \"@openzeppelin/contracts@5.6.0/token/ERC20/utils/SafeERC20.sol\":9230:9259  revert(fmp, returndatasize()) */\n      revert\n        /* \"@openzeppelin/contracts@5.6.0/token/ERC20/utils/SafeERC20.sol\":9112:9277  if and(iszero(success), bubble) {... */\n    tag_252:\n        /* \"@openzeppelin/contracts@5.6.0/token/ERC20/utils/SafeERC20.sol\":9553:9554  0 */\n      0x00\n        /* \"@openzeppelin/contracts@5.6.0/token/ERC20/utils/SafeERC20.sol\":9545:9550  token */\n      dup8\n        /* \"@openzeppelin/contracts@5.6.0/token/ERC20/utils/SafeERC20.sol\":9533:9551  extcodesize(token) */\n      extcodesize\n        /* \"@openzeppelin/contracts@5.6.0/token/ERC20/utils/SafeERC20.sol\":9530:9555  gt(extcodesize(token), 0) */\n      gt\n        /* \"@openzeppelin/contracts@5.6.0/token/ERC20/utils/SafeERC20.sol\":9511:9527  returndatasize() */\n      returndatasize\n        /* \"@openzeppelin/contracts@5.6.0/token/ERC20/utils/SafeERC20.sol\":9504:9528  iszero(returndatasize()) */\n      iszero\n        /* \"@openzeppelin/contracts@5.6.0/token/ERC20/utils/SafeERC20.sol\":9500:9556  and(iszero(returndatasize()), gt(extcodesize(token), 0)) */\n      and\n        /* \"@openzeppelin/contracts@5.6.0/token/ERC20/utils/SafeERC20.sol\":9491:9498  success */\n      dup4\n        /* \"@openzeppelin/contracts@5.6.0/token/ERC20/utils/SafeERC20.sol\":9487:9557  and(success, and(iszero(returndatasize()), gt(extcodesize(token), 0))) */\n      and\n        /* \"@openzeppelin/contracts@5.6.0/token/ERC20/utils/SafeERC20.sol\":9476:9557  success := and(success, and(iszero(returndatasize()), gt(extcodesize(token), 0))) */\n      swap3\n      pop\n        /* \"@openzeppelin/contracts@5.6.0/token/ERC20/utils/SafeERC20.sol\":8965:9571  if iszero(and(success, eq(mload(0x00), 1))) {... */\n    tag_251:\n        /* \"@openzeppelin/contracts@5.6.0/token/ERC20/utils/SafeERC20.sol\":9591:9595  0x40 */\n      0x40\n        /* \"@openzeppelin/contracts@5.6.0/token/ERC20/utils/SafeERC20.sol\":9584:9601  mstore(0x40, fmp) */\n      mstore\n      pop\n        /* \"@openzeppelin/contracts@5.6.0/token/ERC20/utils/SafeERC20.sol\":8373:9617  function _safeTransfer(IERC20 token, address to, uint256 value, bool bubble) private returns (bool success) {... */\n      swap5\n      swap4\n      pop\n      pop\n      pop\n      pop\n      jump\t// out\n        /* \"@openzeppelin/contracts@5.6.0/token/ERC20/utils/SafeERC20.sol\":10165:11558  function _safeTransferFrom(... */\n    tag_241:\n        /* \"@openzeppelin/contracts@5.6.0/token/ERC20/utils/SafeERC20.sol\":10460:10464  0x40 */\n      0x40\n        /* \"@openzeppelin/contracts@5.6.0/token/ERC20/utils/SafeERC20.sol\":10454:10465  mload(0x40) */\n      mload\n      shl(0xe0, 0x23b872dd)\n        /* \"@openzeppelin/contracts@5.6.0/token/ERC20/utils/SafeERC20.sol\":10323:10335  bool success */\n      0x00\n        /* \"@openzeppelin/contracts@5.6.0/token/ERC20/utils/SafeERC20.sol\":10478:10500  mstore(0x00, selector) */\n      dup2\n      dup2\n      mstore\n      sub(shl(0xa0, 0x01), 0x01)\n        /* \"@openzeppelin/contracts@5.6.0/token/ERC20/utils/SafeERC20.sol\":10526:10552  and(from, shr(96, not(0))) */\n      dup8\n      dup2\n      and\n        /* \"@openzeppelin/contracts@5.6.0/token/ERC20/utils/SafeERC20.sol\":10520:10524  0x04 */\n      0x04\n        /* \"@openzeppelin/contracts@5.6.0/token/ERC20/utils/SafeERC20.sol\":10513:10553  mstore(0x04, and(from, shr(96, not(0)))) */\n      mstore\n        /* \"@openzeppelin/contracts@5.6.0/token/ERC20/utils/SafeERC20.sol\":10579:10603  and(to, shr(96, not(0))) */\n      dup7\n      and\n        /* \"@openzeppelin/contracts@5.6.0/token/ERC20/utils/SafeERC20.sol\":10573:10577  0x24 */\n      0x24\n        /* \"@openzeppelin/contracts@5.6.0/token/ERC20/utils/SafeERC20.sol\":10566:10604  mstore(0x24, and(to, shr(96, not(0)))) */\n      mstore\n        /* \"@openzeppelin/contracts@5.6.0/token/ERC20/utils/SafeERC20.sol\":10624:10628  0x44 */\n      0x44\n        /* \"@openzeppelin/contracts@5.6.0/token/ERC20/utils/SafeERC20.sol\":10617:10636  mstore(0x44, value) */\n      dup6\n      swap1\n      mstore\n        /* \"@openzeppelin/contracts@5.6.0/token/ERC20/utils/SafeERC20.sol\":10323:10335  bool success */\n      swap2\n        /* \"@openzeppelin/contracts@5.6.0/token/ERC20/utils/SafeERC20.sol\":10700:10704  0x20 */\n      0x20\n        /* \"@openzeppelin/contracts@5.6.0/token/ERC20/utils/SafeERC20.sol\":10323:10335  bool success */\n      dup4\n        /* \"@openzeppelin/contracts@5.6.0/token/ERC20/utils/SafeERC20.sol\":10688:10692  0x64 */\n      0x64\n        /* \"@openzeppelin/contracts@5.6.0/token/ERC20/utils/SafeERC20.sol\":10323:10335  bool success */\n      dup2\n      dup1\n        /* \"@openzeppelin/contracts@5.6.0/token/ERC20/utils/SafeERC20.sol\":10672:10677  token */\n      dup13\n        /* \"@openzeppelin/contracts@5.6.0/token/ERC20/utils/SafeERC20.sol\":10665:10670  gas() */\n      gas\n        /* \"@openzeppelin/contracts@5.6.0/token/ERC20/utils/SafeERC20.sol\":10660:10705  call(gas(), token, 0, 0x00, 0x64, 0x00, 0x20) */\n      call\n        /* \"@openzeppelin/contracts@5.6.0/token/ERC20/utils/SafeERC20.sol\":10649:10705  success := call(gas(), token, 0, 0x00, 0x64, 0x00, 0x20) */\n      swap3\n      pop\n        /* \"@openzeppelin/contracts@5.6.0/token/ERC20/utils/SafeERC20.sol\":10917:10918  1 */\n      0x01\n        /* \"@openzeppelin/contracts@5.6.0/token/ERC20/utils/SafeERC20.sol\":10910:10914  0x00 */\n      0x00\n        /* \"@openzeppelin/contracts@5.6.0/token/ERC20/utils/SafeERC20.sol\":10904:10915  mload(0x00) */\n      mload\n        /* \"@openzeppelin/contracts@5.6.0/token/ERC20/utils/SafeERC20.sol\":10901:10919  eq(mload(0x00), 1) */\n      eq\n        /* \"@openzeppelin/contracts@5.6.0/token/ERC20/utils/SafeERC20.sol\":10892:10899  success */\n      dup4\n        /* \"@openzeppelin/contracts@5.6.0/token/ERC20/utils/SafeERC20.sol\":10888:10920  and(success, eq(mload(0x00), 1)) */\n      and\n        /* \"@openzeppelin/contracts@5.6.0/token/ERC20/utils/SafeERC20.sol\":10878:11484  if iszero(and(success, eq(mload(0x00), 1))) {... */\n      tag_255\n      jumpi\n        /* \"@openzeppelin/contracts@5.6.0/token/ERC20/utils/SafeERC20.sol\":11049:11055  bubble */\n      dup4\n        /* \"@openzeppelin/contracts@5.6.0/token/ERC20/utils/SafeERC20.sol\":11039:11046  success */\n      dup4\n        /* \"@openzeppelin/contracts@5.6.0/token/ERC20/utils/SafeERC20.sol\":11032:11047  iszero(success) */\n      iszero\n        /* \"@openzeppelin/contracts@5.6.0/token/ERC20/utils/SafeERC20.sol\":11028:11056  and(iszero(success), bubble) */\n      and\n        /* \"@openzeppelin/contracts@5.6.0/token/ERC20/utils/SafeERC20.sol\":11025:11190  if and(iszero(success), bubble) {... */\n      iszero\n      tag_256\n      jumpi\n        /* \"@openzeppelin/contracts@5.6.0/token/ERC20/utils/SafeERC20.sol\":11105:11121  returndatasize() */\n      returndatasize\n        /* \"@openzeppelin/contracts@5.6.0/token/ERC20/utils/SafeERC20.sol\":11099:11103  0x00 */\n      0x00\n        /* \"@openzeppelin/contracts@5.6.0/token/ERC20/utils/SafeERC20.sol\":11094:11097  fmp */\n      dup3\n        /* \"@openzeppelin/contracts@5.6.0/token/ERC20/utils/SafeERC20.sol\":11079:11122  returndatacopy(fmp, 0x00, returndatasize()) */\n      returndatacopy\n        /* \"@openzeppelin/contracts@5.6.0/token/ERC20/utils/SafeERC20.sol\":11155:11171  returndatasize() */\n      returndatasize\n        /* \"@openzeppelin/contracts@5.6.0/token/ERC20/utils/SafeERC20.sol\":11150:11153  fmp */\n      dup2\n        /* \"@openzeppelin/contracts@5.6.0/token/ERC20/utils/SafeERC20.sol\":11143:11172  revert(fmp, returndatasize()) */\n      revert\n        /* \"@openzeppelin/contracts@5.6.0/token/ERC20/utils/SafeERC20.sol\":11025:11190  if and(iszero(success), bubble) {... */\n    tag_256:\n        /* \"@openzeppelin/contracts@5.6.0/token/ERC20/utils/SafeERC20.sol\":11466:11467  0 */\n      0x00\n        /* \"@openzeppelin/contracts@5.6.0/token/ERC20/utils/SafeERC20.sol\":11458:11463  token */\n      dup9\n        /* \"@openzeppelin/contracts@5.6.0/token/ERC20/utils/SafeERC20.sol\":11446:11464  extcodesize(token) */\n      extcodesize\n        /* \"@openzeppelin/contracts@5.6.0/token/ERC20/utils/SafeERC20.sol\":11443:11468  gt(extcodesize(token), 0) */\n      gt\n        /* \"@openzeppelin/contracts@5.6.0/token/ERC20/utils/SafeERC20.sol\":11424:11440  returndatasize() */\n      returndatasize\n        /* \"@openzeppelin/contracts@5.6.0/token/ERC20/utils/SafeERC20.sol\":11417:11441  iszero(returndatasize()) */\n      iszero\n        /* \"@openzeppelin/contracts@5.6.0/token/ERC20/utils/SafeERC20.sol\":11413:11469  and(iszero(returndatasize()), gt(extcodesize(token), 0)) */\n      and\n        /* \"@openzeppelin/contracts@5.6.0/token/ERC20/utils/SafeERC20.sol\":11404:11411  success */\n      dup4\n        /* \"@openzeppelin/contracts@5.6.0/token/ERC20/utils/SafeERC20.sol\":11400:11470  and(success, and(iszero(returndatasize()), gt(extcodesize(token), 0))) */\n      and\n        /* \"@openzeppelin/contracts@5.6.0/token/ERC20/utils/SafeERC20.sol\":11389:11470  success := and(success, and(iszero(returndatasize()), gt(extcodesize(token), 0))) */\n      swap3\n      pop\n        /* \"@openzeppelin/contracts@5.6.0/token/ERC20/utils/SafeERC20.sol\":10878:11484  if iszero(and(success, eq(mload(0x00), 1))) {... */\n    tag_255:\n        /* \"@openzeppelin/contracts@5.6.0/token/ERC20/utils/SafeERC20.sol\":11504:11508  0x40 */\n      0x40\n        /* \"@openzeppelin/contracts@5.6.0/token/ERC20/utils/SafeERC20.sol\":11497:11514  mstore(0x40, fmp) */\n      mstore\n      pop\n        /* \"@openzeppelin/contracts@5.6.0/token/ERC20/utils/SafeERC20.sol\":11540:11541  0 */\n      0x00\n        /* \"@openzeppelin/contracts@5.6.0/token/ERC20/utils/SafeERC20.sol\":11534:11538  0x60 */\n      0x60\n        /* \"@openzeppelin/contracts@5.6.0/token/ERC20/utils/SafeERC20.sol\":11527:11542  mstore(0x60, 0) */\n      mstore\n        /* \"@openzeppelin/contracts@5.6.0/token/ERC20/utils/SafeERC20.sol\":10165:11558  function _safeTransferFrom(... */\n      swap6\n      swap5\n      pop\n      pop\n      pop\n      pop\n      pop\n      jump\t// out\n        /* \"#utility.yul\":14:300   */\n    tag_31:\n        /* \"#utility.yul\":73:79   */\n      0x00\n        /* \"#utility.yul\":126:128   */\n      0x20\n        /* \"#utility.yul\":114:123   */\n      dup3\n        /* \"#utility.yul\":105:112   */\n      dup5\n        /* \"#utility.yul\":101:124   */\n      sub\n        /* \"#utility.yul\":97:129   */\n      slt\n        /* \"#utility.yul\":94:146   */\n      iszero\n      tag_263\n      jumpi\n        /* \"#utility.yul\":142:143   */\n      0x00\n        /* \"#utility.yul\":139:140   */\n      dup1\n        /* \"#utility.yul\":132:144   */\n      revert\n        /* \"#utility.yul\":94:146   */\n    tag_263:\n        /* \"#utility.yul\":168:191   */\n      dup2\n      calldataload\n      sub(shl(0xa0, 0x01), 0x01)\n        /* \"#utility.yul\":220:251   */\n      dup2\n      and\n        /* \"#utility.yul\":210:252   */\n      dup2\n      eq\n        /* \"#utility.yul\":200:270   */\n      tag_264\n      jumpi\n        /* \"#utility.yul\":266:267   */\n      0x00\n        /* \"#utility.yul\":263:264   */\n      dup1\n        /* \"#utility.yul\":256:268   */\n      revert\n        /* \"#utility.yul\":200:270   */\n    tag_264:\n        /* \"#utility.yul\":289:294   */\n      swap4\n        /* \"#utility.yul\":14:300   */\n      swap3\n      pop\n      pop\n      pop\n      jump\t// out\n        /* \"#utility.yul\":917:1097   */\n    tag_55:\n        /* \"#utility.yul\":976:982   */\n      0x00\n        /* \"#utility.yul\":1029:1031   */\n      0x20\n        /* \"#utility.yul\":1017:1026   */\n      dup3\n        /* \"#utility.yul\":1008:1015   */\n      dup5\n        /* \"#utility.yul\":1004:1027   */\n      sub\n        /* \"#utility.yul\":1000:1032   */\n      slt\n        /* \"#utility.yul\":997:1049   */\n      iszero\n      tag_269\n      jumpi\n        /* \"#utility.yul\":1045:1046   */\n      0x00\n        /* \"#utility.yul\":1042:1043   */\n      dup1\n        /* \"#utility.yul\":1035:1047   */\n      revert\n        /* \"#utility.yul\":997:1049   */\n    tag_269:\n      pop\n        /* \"#utility.yul\":1068:1091   */\n      calldataload\n      swap2\n        /* \"#utility.yul\":917:1097   */\n      swap1\n      pop\n      jump\t// out\n        /* \"#utility.yul\":1102:1229   */\n    tag_260:\n        /* \"#utility.yul\":1163:1173   */\n      0x4e487b71\n        /* \"#utility.yul\":1158:1161   */\n      0xe0\n        /* \"#utility.yul\":1154:1174   */\n      shl\n        /* \"#utility.yul\":1151:1152   */\n      0x00\n        /* \"#utility.yul\":1144:1175   */\n      mstore\n        /* \"#utility.yul\":1194:1198   */\n      0x11\n        /* \"#utility.yul\":1191:1192   */\n      0x04\n        /* \"#utility.yul\":1184:1199   */\n      mstore\n        /* \"#utility.yul\":1218:1222   */\n      0x24\n        /* \"#utility.yul\":1215:1216   */\n      0x00\n        /* \"#utility.yul\":1208:1223   */\n      revert\n        /* \"#utility.yul\":1234:1362   */\n    tag_110:\n        /* \"#utility.yul\":1301:1310   */\n      dup2\n      dup2\n      sub\n        /* \"#utility.yul\":1322:1333   */\n      dup2\n      dup2\n      gt\n        /* \"#utility.yul\":1319:1356   */\n      iszero\n      tag_115\n      jumpi\n        /* \"#utility.yul\":1336:1354   */\n      tag_115\n      tag_260\n      jump\t// in\n        /* \"#utility.yul\":1367:1535   */\n    tag_112:\n        /* \"#utility.yul\":1440:1449   */\n      dup1\n      dup3\n      mul\n        /* \"#utility.yul\":1471:1480   */\n      dup2\n      iszero\n        /* \"#utility.yul\":1488:1503   */\n      dup3\n      dup3\n      div\n        /* \"#utility.yul\":1482:1504   */\n      dup5\n      eq\n        /* \"#utility.yul\":1468:1505   */\n      or\n        /* \"#utility.yul\":1458:1529   */\n      tag_115\n      jumpi\n        /* \"#utility.yul\":1509:1527   */\n      tag_115\n      tag_260\n      jump\t// in\n        /* \"#utility.yul\":1540:1757   */\n    tag_114:\n        /* \"#utility.yul\":1580:1581   */\n      0x00\n        /* \"#utility.yul\":1606:1607   */\n      dup3\n        /* \"#utility.yul\":1596:1728   */\n      tag_278\n      jumpi\n        /* \"#utility.yul\":1650:1660   */\n      0x4e487b71\n        /* \"#utility.yul\":1645:1648   */\n      0xe0\n        /* \"#utility.yul\":1641:1661   */\n      shl\n        /* \"#utility.yul\":1638:1639   */\n      0x00\n        /* \"#utility.yul\":1631:1662   */\n      mstore\n        /* \"#utility.yul\":1685:1689   */\n      0x12\n        /* \"#utility.yul\":1682:1683   */\n      0x04\n        /* \"#utility.yul\":1675:1690   */\n      mstore\n        /* \"#utility.yul\":1713:1717   */\n      0x24\n        /* \"#utility.yul\":1710:1711   */\n      0x00\n        /* \"#utility.yul\":1703:1718   */\n      revert\n        /* \"#utility.yul\":1596:1728   */\n    tag_278:\n      pop\n        /* \"#utility.yul\":1742:1751   */\n      div\n      swap1\n        /* \"#utility.yul\":1540:1757   */\n      jump\t// out\n        /* \"#utility.yul\":1762:1887   */\n    tag_116:\n        /* \"#utility.yul\":1827:1836   */\n      dup1\n      dup3\n      add\n        /* \"#utility.yul\":1848:1858   */\n      dup1\n      dup3\n      gt\n        /* \"#utility.yul\":1845:1881   */\n      iszero\n      tag_115\n      jumpi\n        /* \"#utility.yul\":1861:1879   */\n      tag_115\n      tag_260\n      jump\t// in\n    stop\n    data_c8669cf8eaf883002b9f48e28846a8d408c9b58ea6613bace374265e43c9bc43 9b779b17422d0df92223018b32b4d1fa46e071723d6817e2486d003becc55f00\n\n    auxdata: 0xa2646970667358221220ce4be1768e1aac2866c67e4eb03bb7f1db9d6781f2936ffe5676aff9416f7ea664736f6c63430008180033\n}\n",
				"bytecode": {
					"linkReferences": {},
					"object": "60a06040526101f4600355348015610015575f80fd5b50604051610f18380380610f1883398101604081905261003491610119565b338061005957604051631e4fbdf760e01b81525f600482015260240160405180910390fd5b610062816100af565b5060017f9b779b17422d0df92223018b32b4d1fa46e071723d6817e2486d003becc55f00556001600160a01b03918216608052600180546001600160a01b0319169190921617905561014a565b5f80546001600160a01b038381166001600160a01b0319831681178455604051919092169283917f8be0079c531659141344cd1fd0a4f28419497f9722a3daafe3b4186f6b6457e09190a35050565b80516001600160a01b0381168114610114575f80fd5b919050565b5f806040838503121561012a575f80fd5b610133836100fe565b9150610141602084016100fe565b90509250929050565b608051610d9a61017e5f395f81816101c8015281816104e60152818161066c015281816106a401526108820152610d9a5ff3fe608060405234801561000f575f80fd5b5060043610610147575f3560e01c8063715018a6116100bf578063bb4d443611610079578063bb4d4436146102d0578063c8f33c91146102e3578063cd3daf9d146102ec578063df136d65146102f4578063e16d685d146102fd578063f2fde38b14610310575f80fd5b8063715018a61461026a5780637b0a47ee146102725780638b8763471461027b5780638da5cb5b1461029a5780639e447fc6146102aa578063a694fc3a146102bd575f80fd5b80632ae64628116101105780632ae64628146101ea5780632e1a7d4d146101f35780633b4f68b3146102085780633d18b9121461021b578063702590771461022357806370a0823114610242575f80fd5b80628cc2621461014b57806302b09ac5146101715780630700037d1461019c57806318160ddd146101bb57806326ccb9ea146101c3575b5f80fd5b61015e610159366004610c90565b610323565b6040519081526020015b60405180910390f35b600154610184906001600160a01b031681565b6040516001600160a01b039091168152602001610168565b61015e6101aa366004610c90565b60076020525f908152604090205481565b600a5461015e565b6101847f000000000000000000000000000000000000000000000000000000000000000081565b61015e60035481565b610206610201366004610cbd565b61039e565b005b610206610216366004610cbd565b61055d565b6102066105b4565b61015e610231366004610c90565b60096020525f908152604090205481565b61015e610250366004610c90565b6001600160a01b03165f9081526008602052604090205490565b610206610725565b61015e60025481565b61015e610289366004610c90565b60066020525f908152604090205481565b5f546001600160a01b0316610184565b6102066102b8366004610cbd565b610736565b6102066102cb366004610cbd565b610797565b61015e6102de366004610c90565b6108e4565b61015e60045481565b61015e610951565b61015e60055481565b61020661030b366004610c90565b6109ad565b61020661031e366004610c90565b610a4c565b6001600160a01b0381165f908152600760209081526040808320546006909252822054670de0b6b3a764000090610358610951565b6103629190610ce8565b6001600160a01b0385165f908152600860205260409020546103849190610cfb565b61038e9190610d12565b6103989190610d31565b92915050565b6103a6610a86565b336103af610951565b600555426004556001600160a01b038116156103f9576103ce81610323565b6001600160a01b0382165f908152600760209081526040808320939093556005546006909152919020555b5f82116104415760405162461bcd60e51b8152602060048201526011602482015270043616e6e6f74207769746864726177203607c1b60448201526064015b60405180910390fd5b335f9081526008602052604090205482111561049f5760405162461bcd60e51b815260206004820152601b60248201527f496e73756666696369656e74207374616b65642062616c616e636500000000006044820152606401610438565b81600a5f8282546104b09190610ce8565b9091555050335f90815260086020526040812080548492906104d3908490610ce8565b9091555061050d90506001600160a01b037f0000000000000000000000000000000000000000000000000000000000000000163384610aa1565b60405182815233907f7084f5476618d8e60b11ef0d7d3f06914655adb8793e28ff7f018d4c76d505d5906020015b60405180910390a25061055a60015f80516020610d4583398151915255565b50565b610565610adb565b6107d08111156105af5760405162461bcd60e51b81526020600482015260156024820152745461782063616e6e6f74206578636565642032302560581b6044820152606401610438565b600355565b6105bc610a86565b336105c5610951565b600555426004556001600160a01b0381161561060f576105e481610323565b6001600160a01b0382165f908152600760209081526040808320939093556005546006909152919020555b335f90815260076020526040902054801561070b57335f908152600760205260408120819055600354612710906106469084610cfb565b6106509190610d12565b90505f61065d8284610ce8565b90506106936001600160a01b037f0000000000000000000000000000000000000000000000000000000000000000163383610aa1565b6001546106cd906001600160a01b037f00000000000000000000000000000000000000000000000000000000000000008116911684610aa1565b604080518281526020810184905233917fd6f2c8500df5b44f11e9e48b91ff9f1b9d81bc496d55570c2b1b75bf65243f51910160405180910390a250505b505061072360015f80516020610d4583398151915255565b565b61072d610adb565b6107235f610b07565b61073e610adb565b5f610747610951565b600555426004556001600160a01b038116156107915761076681610323565b6001600160a01b0382165f908152600760209081526040808320939093556005546006909152919020555b50600255565b61079f610a86565b336107a8610951565b600555426004556001600160a01b038116156107f2576107c781610323565b6001600160a01b0382165f908152600760209081526040808320939093556005546006909152919020555b5f82116108325760405162461bcd60e51b815260206004820152600e60248201526d043616e6e6f74207374616b6520360941b6044820152606401610438565b81600a5f8282546108439190610d31565b9091555050335f9081526008602052604081208054849290610866908490610d31565b9091555050335f8181526009602052604090204290556108b2907f00000000000000000000000000000000000000000000000000000000000000006001600160a01b0316903085610b56565b60405182815233907f9e71bc8eea02a63969f509818f2dafb9254532904319f9dbda79b67bd34a5f3d9060200161053b565b6001600160a01b0381165f9081526009602052604081205481906109089042610ce8565b90505f61091862278d0083610d12565b610923906001610d31565b6001600160a01b0385165f90815260086020526040902054909150610949908290610cfb565b949350505050565b5f600a545f03610962575060055490565b600a546002546004546109759042610ce8565b61097f9190610cfb565b61099190670de0b6b3a7640000610cfb565b61099b9190610d12565b6005546109a89190610d31565b905090565b6109b5610adb565b6001600160a01b038116610a035760405162461bcd60e51b8152602060048201526015602482015274496e76616c6964207661756c74206164647265737360581b6044820152606401610438565b600180546001600160a01b0319166001600160a01b0383169081179091556040517fdf1230ab3eeb5a856667df0c3f17cbf609c7c38795db733eaac2b6eda9fe36cd905f90a250565b610a54610adb565b6001600160a01b038116610a7d57604051631e4fbdf760e01b81525f6004820152602401610438565b61055a81610b07565b610a8e610b92565b60025f80516020610d4583398151915255565b610aae8383836001610bc1565b610ad657604051635274afe760e01b81526001600160a01b0384166004820152602401610438565b505050565b5f546001600160a01b031633146107235760405163118cdaa760e01b8152336004820152602401610438565b5f80546001600160a01b038381166001600160a01b0319831681178455604051919092169283917f8be0079c531659141344cd1fd0a4f28419497f9722a3daafe3b4186f6b6457e09190a35050565b610b64848484846001610c23565b610b8c57604051635274afe760e01b81526001600160a01b0385166004820152602401610438565b50505050565b5f80516020610d458339815191525460020361072357604051633ee5aeb560e01b815260040160405180910390fd5b60405163a9059cbb60e01b5f8181526001600160a01b038616600452602485905291602083604481808b5af1925060015f51148316610c17578383151615610c0b573d5f823e3d81fd5b5f873b113d1516831692505b60405250949350505050565b6040516323b872dd60e01b5f8181526001600160a01b038781166004528616602452604485905291602083606481808c5af1925060015f51148316610c7f578383151615610c73573d5f823e3d81fd5b5f883b113d1516831692505b604052505f60605295945050505050565b5f60208284031215610ca0575f80fd5b81356001600160a01b0381168114610cb6575f80fd5b9392505050565b5f60208284031215610ccd575f80fd5b5035919050565b634e487b7160e01b5f52601160045260245ffd5b8181038181111561039857610398610cd4565b808202811582820484141761039857610398610cd4565b5f82610d2c57634e487b7160e01b5f52601260045260245ffd5b500490565b8082018082111561039857610398610cd456fe9b779b17422d0df92223018b32b4d1fa46e071723d6817e2486d003becc55f00a2646970667358221220ce4be1768e1aac2866c67e4eb03bb7f1db9d6781f2936ffe5676aff9416f7ea664736f6c63430008180033",
					"opcodes": "PUSH1 0xA0 PUSH1 0x40 MSTORE PUSH2 0x1F4 PUSH1 0x3 SSTORE CALLVALUE DUP1 ISZERO PUSH2 0x15 JUMPI PUSH0 DUP1 REVERT JUMPDEST POP PUSH1 0x40 MLOAD PUSH2 0xF18 CODESIZE SUB DUP1 PUSH2 0xF18 DUP4 CODECOPY DUP2 ADD PUSH1 0x40 DUP2 SWAP1 MSTORE PUSH2 0x34 SWAP2 PUSH2 0x119 JUMP JUMPDEST CALLER DUP1 PUSH2 0x59 JUMPI PUSH1 0x40 MLOAD PUSH4 0x1E4FBDF7 PUSH1 0xE0 SHL DUP2 MSTORE PUSH0 PUSH1 0x4 DUP3 ADD MSTORE PUSH1 0x24 ADD PUSH1 0x40 MLOAD DUP1 SWAP2 SUB SWAP1 REVERT JUMPDEST PUSH2 0x62 DUP2 PUSH2 0xAF JUMP JUMPDEST POP PUSH1 0x1 PUSH32 0x9B779B17422D0DF92223018B32B4D1FA46E071723D6817E2486D003BECC55F00 SSTORE PUSH1 0x1 PUSH1 0x1 PUSH1 0xA0 SHL SUB SWAP2 DUP3 AND PUSH1 0x80 MSTORE PUSH1 0x1 DUP1 SLOAD PUSH1 0x1 PUSH1 0x1 PUSH1 0xA0 SHL SUB NOT AND SWAP2 SWAP1 SWAP3 AND OR SWAP1 SSTORE PUSH2 0x14A JUMP JUMPDEST PUSH0 DUP1 SLOAD PUSH1 0x1 PUSH1 0x1 PUSH1 0xA0 SHL SUB DUP4 DUP2 AND PUSH1 0x1 PUSH1 0x1 PUSH1 0xA0 SHL SUB NOT DUP4 AND DUP2 OR DUP5 SSTORE PUSH1 0x40 MLOAD SWAP2 SWAP1 SWAP3 AND SWAP3 DUP4 SWAP2 PUSH32 0x8BE0079C531659141344CD1FD0A4F28419497F9722A3DAAFE3B4186F6B6457E0 SWAP2 SWAP1 LOG3 POP POP JUMP JUMPDEST DUP1 MLOAD PUSH1 0x1 PUSH1 0x1 PUSH1 0xA0 SHL SUB DUP2 AND DUP2 EQ PUSH2 0x114 JUMPI PUSH0 DUP1 REVERT JUMPDEST SWAP2 SWAP1 POP JUMP JUMPDEST PUSH0 DUP1 PUSH1 0x40 DUP4 DUP6 SUB SLT ISZERO PUSH2 0x12A JUMPI PUSH0 DUP1 REVERT JUMPDEST PUSH2 0x133 DUP4 PUSH2 0xFE JUMP JUMPDEST SWAP2 POP PUSH2 0x141 PUSH1 0x20 DUP5 ADD PUSH2 0xFE JUMP JUMPDEST SWAP1 POP SWAP3 POP SWAP3 SWAP1 POP JUMP JUMPDEST PUSH1 0x80 MLOAD PUSH2 0xD9A PUSH2 0x17E PUSH0 CODECOPY PUSH0 DUP2 DUP2 PUSH2 0x1C8 ADD MSTORE DUP2 DUP2 PUSH2 0x4E6 ADD MSTORE DUP2 DUP2 PUSH2 0x66C ADD MSTORE DUP2 DUP2 PUSH2 0x6A4 ADD MSTORE PUSH2 0x882 ADD MSTORE PUSH2 0xD9A PUSH0 RETURN INVALID PUSH1 0x80 PUSH1 0x40 MSTORE CALLVALUE DUP1 ISZERO PUSH2 0xF JUMPI PUSH0 DUP1 REVERT JUMPDEST POP PUSH1 0x4 CALLDATASIZE LT PUSH2 0x147 JUMPI PUSH0 CALLDATALOAD PUSH1 0xE0 SHR DUP1 PUSH4 0x715018A6 GT PUSH2 0xBF JUMPI DUP1 PUSH4 0xBB4D4436 GT PUSH2 0x79 JUMPI DUP1 PUSH4 0xBB4D4436 EQ PUSH2 0x2D0 JUMPI DUP1 PUSH4 0xC8F33C91 EQ PUSH2 0x2E3 JUMPI DUP1 PUSH4 0xCD3DAF9D EQ PUSH2 0x2EC JUMPI DUP1 PUSH4 0xDF136D65 EQ PUSH2 0x2F4 JUMPI DUP1 PUSH4 0xE16D685D EQ PUSH2 0x2FD JUMPI DUP1 PUSH4 0xF2FDE38B EQ PUSH2 0x310 JUMPI PUSH0 DUP1 REVERT JUMPDEST DUP1 PUSH4 0x715018A6 EQ PUSH2 0x26A JUMPI DUP1 PUSH4 0x7B0A47EE EQ PUSH2 0x272 JUMPI DUP1 PUSH4 0x8B876347 EQ PUSH2 0x27B JUMPI DUP1 PUSH4 0x8DA5CB5B EQ PUSH2 0x29A JUMPI DUP1 PUSH4 0x9E447FC6 EQ PUSH2 0x2AA JUMPI DUP1 PUSH4 0xA694FC3A EQ PUSH2 0x2BD JUMPI PUSH0 DUP1 REVERT JUMPDEST DUP1 PUSH4 0x2AE64628 GT PUSH2 0x110 JUMPI DUP1 PUSH4 0x2AE64628 EQ PUSH2 0x1EA JUMPI DUP1 PUSH4 0x2E1A7D4D EQ PUSH2 0x1F3 JUMPI DUP1 PUSH4 0x3B4F68B3 EQ PUSH2 0x208 JUMPI DUP1 PUSH4 0x3D18B912 EQ PUSH2 0x21B JUMPI DUP1 PUSH4 0x70259077 EQ PUSH2 0x223 JUMPI DUP1 PUSH4 0x70A08231 EQ PUSH2 0x242 JUMPI PUSH0 DUP1 REVERT JUMPDEST DUP1 PUSH3 0x8CC262 EQ PUSH2 0x14B JUMPI DUP1 PUSH4 0x2B09AC5 EQ PUSH2 0x171 JUMPI DUP1 PUSH4 0x700037D EQ PUSH2 0x19C JUMPI DUP1 PUSH4 0x18160DDD EQ PUSH2 0x1BB JUMPI DUP1 PUSH4 0x26CCB9EA EQ PUSH2 0x1C3 JUMPI JUMPDEST PUSH0 DUP1 REVERT JUMPDEST PUSH2 0x15E PUSH2 0x159 CALLDATASIZE PUSH1 0x4 PUSH2 0xC90 JUMP JUMPDEST PUSH2 0x323 JUMP JUMPDEST PUSH1 0x40 MLOAD SWAP1 DUP2 MSTORE PUSH1 0x20 ADD JUMPDEST PUSH1 0x40 MLOAD DUP1 SWAP2 SUB SWAP1 RETURN JUMPDEST PUSH1 0x1 SLOAD PUSH2 0x184 SWAP1 PUSH1 0x1 PUSH1 0x1 PUSH1 0xA0 SHL SUB AND DUP2 JUMP JUMPDEST PUSH1 0x40 MLOAD PUSH1 0x1 PUSH1 0x1 PUSH1 0xA0 SHL SUB SWAP1 SWAP2 AND DUP2 MSTORE PUSH1 0x20 ADD PUSH2 0x168 JUMP JUMPDEST PUSH2 0x15E PUSH2 0x1AA CALLDATASIZE PUSH1 0x4 PUSH2 0xC90 JUMP JUMPDEST PUSH1 0x7 PUSH1 0x20 MSTORE PUSH0 SWAP1 DUP2 MSTORE PUSH1 0x40 SWAP1 KECCAK256 SLOAD DUP2 JUMP JUMPDEST PUSH1 0xA SLOAD PUSH2 0x15E JUMP JUMPDEST PUSH2 0x184 PUSH32 0x0 DUP2 JUMP JUMPDEST PUSH2 0x15E PUSH1 0x3 SLOAD DUP2 JUMP JUMPDEST PUSH2 0x206 PUSH2 0x201 CALLDATASIZE PUSH1 0x4 PUSH2 0xCBD JUMP JUMPDEST PUSH2 0x39E JUMP JUMPDEST STOP JUMPDEST PUSH2 0x206 PUSH2 0x216 CALLDATASIZE PUSH1 0x4 PUSH2 0xCBD JUMP JUMPDEST PUSH2 0x55D JUMP JUMPDEST PUSH2 0x206 PUSH2 0x5B4 JUMP JUMPDEST PUSH2 0x15E PUSH2 0x231 CALLDATASIZE PUSH1 0x4 PUSH2 0xC90 JUMP JUMPDEST PUSH1 0x9 PUSH1 0x20 MSTORE PUSH0 SWAP1 DUP2 MSTORE PUSH1 0x40 SWAP1 KECCAK256 SLOAD DUP2 JUMP JUMPDEST PUSH2 0x15E PUSH2 0x250 CALLDATASIZE PUSH1 0x4 PUSH2 0xC90 JUMP JUMPDEST PUSH1 0x1 PUSH1 0x1 PUSH1 0xA0 SHL SUB AND PUSH0 SWAP1 DUP2 MSTORE PUSH1 0x8 PUSH1 0x20 MSTORE PUSH1 0x40 SWAP1 KECCAK256 SLOAD SWAP1 JUMP JUMPDEST PUSH2 0x206 PUSH2 0x725 JUMP JUMPDEST PUSH2 0x15E PUSH1 0x2 SLOAD DUP2 JUMP JUMPDEST PUSH2 0x15E PUSH2 0x289 CALLDATASIZE PUSH1 0x4 PUSH2 0xC90 JUMP JUMPDEST PUSH1 0x6 PUSH1 0x20 MSTORE PUSH0 SWAP1 DUP2 MSTORE PUSH1 0x40 SWAP1 KECCAK256 SLOAD DUP2 JUMP JUMPDEST PUSH0 SLOAD PUSH1 0x1 PUSH1 0x1 PUSH1 0xA0 SHL SUB AND PUSH2 0x184 JUMP JUMPDEST PUSH2 0x206 PUSH2 0x2B8 CALLDATASIZE PUSH1 0x4 PUSH2 0xCBD JUMP JUMPDEST PUSH2 0x736 JUMP JUMPDEST PUSH2 0x206 PUSH2 0x2CB CALLDATASIZE PUSH1 0x4 PUSH2 0xCBD JUMP JUMPDEST PUSH2 0x797 JUMP JUMPDEST PUSH2 0x15E PUSH2 0x2DE CALLDATASIZE PUSH1 0x4 PUSH2 0xC90 JUMP JUMPDEST PUSH2 0x8E4 JUMP JUMPDEST PUSH2 0x15E PUSH1 0x4 SLOAD DUP2 JUMP JUMPDEST PUSH2 0x15E PUSH2 0x951 JUMP JUMPDEST PUSH2 0x15E PUSH1 0x5 SLOAD DUP2 JUMP JUMPDEST PUSH2 0x206 PUSH2 0x30B CALLDATASIZE PUSH1 0x4 PUSH2 0xC90 JUMP JUMPDEST PUSH2 0x9AD JUMP JUMPDEST PUSH2 0x206 PUSH2 0x31E CALLDATASIZE PUSH1 0x4 PUSH2 0xC90 JUMP JUMPDEST PUSH2 0xA4C JUMP JUMPDEST PUSH1 0x1 PUSH1 0x1 PUSH1 0xA0 SHL SUB DUP2 AND PUSH0 SWAP1 DUP2 MSTORE PUSH1 0x7 PUSH1 0x20 SWAP1 DUP2 MSTORE PUSH1 0x40 DUP1 DUP4 KECCAK256 SLOAD PUSH1 0x6 SWAP1 SWAP3 MSTORE DUP3 KECCAK256 SLOAD PUSH8 0xDE0B6B3A7640000 SWAP1 PUSH2 0x358 PUSH2 0x951 JUMP JUMPDEST PUSH2 0x362 SWAP2 SWAP1 PUSH2 0xCE8 JUMP JUMPDEST PUSH1 0x1 PUSH1 0x1 PUSH1 0xA0 SHL SUB DUP6 AND PUSH0 SWAP1 DUP2 MSTORE PUSH1 0x8 PUSH1 0x20 MSTORE PUSH1 0x40 SWAP1 KECCAK256 SLOAD PUSH2 0x384 SWAP2 SWAP1 PUSH2 0xCFB JUMP JUMPDEST PUSH2 0x38E SWAP2 SWAP1 PUSH2 0xD12 JUMP JUMPDEST PUSH2 0x398 SWAP2 SWAP1 PUSH2 0xD31 JUMP JUMPDEST SWAP3 SWAP2 POP POP JUMP JUMPDEST PUSH2 0x3A6 PUSH2 0xA86 JUMP JUMPDEST CALLER PUSH2 0x3AF PUSH2 0x951 JUMP JUMPDEST PUSH1 0x5 SSTORE TIMESTAMP PUSH1 0x4 SSTORE PUSH1 0x1 PUSH1 0x1 PUSH1 0xA0 SHL SUB DUP2 AND ISZERO PUSH2 0x3F9 JUMPI PUSH2 0x3CE DUP2 PUSH2 0x323 JUMP JUMPDEST PUSH1 0x1 PUSH1 0x1 PUSH1 0xA0 SHL SUB DUP3 AND PUSH0 SWAP1 DUP2 MSTORE PUSH1 0x7 PUSH1 0x20 SWAP1 DUP2 MSTORE PUSH1 0x40 DUP1 DUP4 KECCAK256 SWAP4 SWAP1 SWAP4 SSTORE PUSH1 0x5 SLOAD PUSH1 0x6 SWAP1 SWAP2 MSTORE SWAP2 SWAP1 KECCAK256 SSTORE JUMPDEST PUSH0 DUP3 GT PUSH2 0x441 JUMPI PUSH1 0x40 MLOAD PUSH3 0x461BCD PUSH1 0xE5 SHL DUP2 MSTORE PUSH1 0x20 PUSH1 0x4 DUP3 ADD MSTORE PUSH1 0x11 PUSH1 0x24 DUP3 ADD MSTORE PUSH17 0x43616E6E6F74207769746864726177203 PUSH1 0x7C SHL PUSH1 0x44 DUP3 ADD MSTORE PUSH1 0x64 ADD JUMPDEST PUSH1 0x40 MLOAD DUP1 SWAP2 SUB SWAP1 REVERT JUMPDEST CALLER PUSH0 SWAP1 DUP2 MSTORE PUSH1 0x8 PUSH1 0x20 MSTORE PUSH1 0x40 SWAP1 KECCAK256 SLOAD DUP3 GT ISZERO PUSH2 0x49F JUMPI PUSH1 0x40 MLOAD PUSH3 0x461BCD PUSH1 0xE5 SHL DUP2 MSTORE PUSH1 0x20 PUSH1 0x4 DUP3 ADD MSTORE PUSH1 0x1B PUSH1 0x24 DUP3 ADD MSTORE PUSH32 0x496E73756666696369656E74207374616B65642062616C616E63650000000000 PUSH1 0x44 DUP3 ADD MSTORE PUSH1 0x64 ADD PUSH2 0x438 JUMP JUMPDEST DUP2 PUSH1 0xA PUSH0 DUP3 DUP3 SLOAD PUSH2 0x4B0 SWAP2 SWAP1 PUSH2 0xCE8 JUMP JUMPDEST SWAP1 SWAP2 SSTORE POP POP CALLER PUSH0 SWAP1 DUP2 MSTORE PUSH1 0x8 PUSH1 0x20 MSTORE PUSH1 0x40 DUP2 KECCAK256 DUP1 SLOAD DUP5 SWAP3 SWAP1 PUSH2 0x4D3 SWAP1 DUP5 SWAP1 PUSH2 0xCE8 JUMP JUMPDEST SWAP1 SWAP2 SSTORE POP PUSH2 0x50D SWAP1 POP PUSH1 0x1 PUSH1 0x1 PUSH1 0xA0 SHL SUB PUSH32 0x0 AND CALLER DUP5 PUSH2 0xAA1 JUMP JUMPDEST PUSH1 0x40 MLOAD DUP3 DUP2 MSTORE CALLER SWAP1 PUSH32 0x7084F5476618D8E60B11EF0D7D3F06914655ADB8793E28FF7F018D4C76D505D5 SWAP1 PUSH1 0x20 ADD JUMPDEST PUSH1 0x40 MLOAD DUP1 SWAP2 SUB SWAP1 LOG2 POP PUSH2 0x55A PUSH1 0x1 PUSH0 DUP1 MLOAD PUSH1 0x20 PUSH2 0xD45 DUP4 CODECOPY DUP2 MLOAD SWAP2 MSTORE SSTORE JUMP JUMPDEST POP JUMP JUMPDEST PUSH2 0x565 PUSH2 0xADB JUMP JUMPDEST PUSH2 0x7D0 DUP2 GT ISZERO PUSH2 0x5AF JUMPI PUSH1 0x40 MLOAD PUSH3 0x461BCD PUSH1 0xE5 SHL DUP2 MSTORE PUSH1 0x20 PUSH1 0x4 DUP3 ADD MSTORE PUSH1 0x15 PUSH1 0x24 DUP3 ADD MSTORE PUSH21 0x5461782063616E6E6F742065786365656420323025 PUSH1 0x58 SHL PUSH1 0x44 DUP3 ADD MSTORE PUSH1 0x64 ADD PUSH2 0x438 JUMP JUMPDEST PUSH1 0x3 SSTORE JUMP JUMPDEST PUSH2 0x5BC PUSH2 0xA86 JUMP JUMPDEST CALLER PUSH2 0x5C5 PUSH2 0x951 JUMP JUMPDEST PUSH1 0x5 SSTORE TIMESTAMP PUSH1 0x4 SSTORE PUSH1 0x1 PUSH1 0x1 PUSH1 0xA0 SHL SUB DUP2 AND ISZERO PUSH2 0x60F JUMPI PUSH2 0x5E4 DUP2 PUSH2 0x323 JUMP JUMPDEST PUSH1 0x1 PUSH1 0x1 PUSH1 0xA0 SHL SUB DUP3 AND PUSH0 SWAP1 DUP2 MSTORE PUSH1 0x7 PUSH1 0x20 SWAP1 DUP2 MSTORE PUSH1 0x40 DUP1 DUP4 KECCAK256 SWAP4 SWAP1 SWAP4 SSTORE PUSH1 0x5 SLOAD PUSH1 0x6 SWAP1 SWAP2 MSTORE SWAP2 SWAP1 KECCAK256 SSTORE JUMPDEST CALLER PUSH0 SWAP1 DUP2 MSTORE PUSH1 0x7 PUSH1 0x20 MSTORE PUSH1 0x40 SWAP1 KECCAK256 SLOAD DUP1 ISZERO PUSH2 0x70B JUMPI CALLER PUSH0 SWAP1 DUP2 MSTORE PUSH1 0x7 PUSH1 0x20 MSTORE PUSH1 0x40 DUP2 KECCAK256 DUP2 SWAP1 SSTORE PUSH1 0x3 SLOAD PUSH2 0x2710 SWAP1 PUSH2 0x646 SWAP1 DUP5 PUSH2 0xCFB JUMP JUMPDEST PUSH2 0x650 SWAP2 SWAP1 PUSH2 0xD12 JUMP JUMPDEST SWAP1 POP PUSH0 PUSH2 0x65D DUP3 DUP5 PUSH2 0xCE8 JUMP JUMPDEST SWAP1 POP PUSH2 0x693 PUSH1 0x1 PUSH1 0x1 PUSH1 0xA0 SHL SUB PUSH32 0x0 AND CALLER DUP4 PUSH2 0xAA1 JUMP JUMPDEST PUSH1 0x1 SLOAD PUSH2 0x6CD SWAP1 PUSH1 0x1 PUSH1 0x1 PUSH1 0xA0 SHL SUB PUSH32 0x0 DUP2 AND SWAP2 AND DUP5 PUSH2 0xAA1 JUMP JUMPDEST PUSH1 0x40 DUP1 MLOAD DUP3 DUP2 MSTORE PUSH1 0x20 DUP2 ADD DUP5 SWAP1 MSTORE CALLER SWAP2 PUSH32 0xD6F2C8500DF5B44F11E9E48B91FF9F1B9D81BC496D55570C2B1B75BF65243F51 SWAP2 ADD PUSH1 0x40 MLOAD DUP1 SWAP2 SUB SWAP1 LOG2 POP POP JUMPDEST POP POP PUSH2 0x723 PUSH1 0x1 PUSH0 DUP1 MLOAD PUSH1 0x20 PUSH2 0xD45 DUP4 CODECOPY DUP2 MLOAD SWAP2 MSTORE SSTORE JUMP JUMPDEST JUMP JUMPDEST PUSH2 0x72D PUSH2 0xADB JUMP JUMPDEST PUSH2 0x723 PUSH0 PUSH2 0xB07 JUMP JUMPDEST PUSH2 0x73E PUSH2 0xADB JUMP JUMPDEST PUSH0 PUSH2 0x747 PUSH2 0x951 JUMP JUMPDEST PUSH1 0x5 SSTORE TIMESTAMP PUSH1 0x4 SSTORE PUSH1 0x1 PUSH1 0x1 PUSH1 0xA0 SHL SUB DUP2 AND ISZERO PUSH2 0x791 JUMPI PUSH2 0x766 DUP2 PUSH2 0x323 JUMP JUMPDEST PUSH1 0x1 PUSH1 0x1 PUSH1 0xA0 SHL SUB DUP3 AND PUSH0 SWAP1 DUP2 MSTORE PUSH1 0x7 PUSH1 0x20 SWAP1 DUP2 MSTORE PUSH1 0x40 DUP1 DUP4 KECCAK256 SWAP4 SWAP1 SWAP4 SSTORE PUSH1 0x5 SLOAD PUSH1 0x6 SWAP1 SWAP2 MSTORE SWAP2 SWAP1 KECCAK256 SSTORE JUMPDEST POP PUSH1 0x2 SSTORE JUMP JUMPDEST PUSH2 0x79F PUSH2 0xA86 JUMP JUMPDEST CALLER PUSH2 0x7A8 PUSH2 0x951 JUMP JUMPDEST PUSH1 0x5 SSTORE TIMESTAMP PUSH1 0x4 SSTORE PUSH1 0x1 PUSH1 0x1 PUSH1 0xA0 SHL SUB DUP2 AND ISZERO PUSH2 0x7F2 JUMPI PUSH2 0x7C7 DUP2 PUSH2 0x323 JUMP JUMPDEST PUSH1 0x1 PUSH1 0x1 PUSH1 0xA0 SHL SUB DUP3 AND PUSH0 SWAP1 DUP2 MSTORE PUSH1 0x7 PUSH1 0x20 SWAP1 DUP2 MSTORE PUSH1 0x40 DUP1 DUP4 KECCAK256 SWAP4 SWAP1 SWAP4 SSTORE PUSH1 0x5 SLOAD PUSH1 0x6 SWAP1 SWAP2 MSTORE SWAP2 SWAP1 KECCAK256 SSTORE JUMPDEST PUSH0 DUP3 GT PUSH2 0x832 JUMPI PUSH1 0x40 MLOAD PUSH3 0x461BCD PUSH1 0xE5 SHL DUP2 MSTORE PUSH1 0x20 PUSH1 0x4 DUP3 ADD MSTORE PUSH1 0xE PUSH1 0x24 DUP3 ADD MSTORE PUSH14 0x43616E6E6F74207374616B65203 PUSH1 0x94 SHL PUSH1 0x44 DUP3 ADD MSTORE PUSH1 0x64 ADD PUSH2 0x438 JUMP JUMPDEST DUP2 PUSH1 0xA PUSH0 DUP3 DUP3 SLOAD PUSH2 0x843 SWAP2 SWAP1 PUSH2 0xD31 JUMP JUMPDEST SWAP1 SWAP2 SSTORE POP POP CALLER PUSH0 SWAP1 DUP2 MSTORE PUSH1 0x8 PUSH1 0x20 MSTORE PUSH1 0x40 DUP2 KECCAK256 DUP1 SLOAD DUP5 SWAP3 SWAP1 PUSH2 0x866 SWAP1 DUP5 SWAP1 PUSH2 0xD31 JUMP JUMPDEST SWAP1 SWAP2 SSTORE POP POP CALLER PUSH0 DUP2 DUP2 MSTORE PUSH1 0x9 PUSH1 0x20 MSTORE PUSH1 0x40 SWAP1 KECCAK256 TIMESTAMP SWAP1 SSTORE PUSH2 0x8B2 SWAP1 PUSH32 0x0 PUSH1 0x1 PUSH1 0x1 PUSH1 0xA0 SHL SUB AND SWAP1 ADDRESS DUP6 PUSH2 0xB56 JUMP JUMPDEST PUSH1 0x40 MLOAD DUP3 DUP2 MSTORE CALLER SWAP1 PUSH32 0x9E71BC8EEA02A63969F509818F2DAFB9254532904319F9DBDA79B67BD34A5F3D SWAP1 PUSH1 0x20 ADD PUSH2 0x53B JUMP JUMPDEST PUSH1 0x1 PUSH1 0x1 PUSH1 0xA0 SHL SUB DUP2 AND PUSH0 SWAP1 DUP2 MSTORE PUSH1 0x9 PUSH1 0x20 MSTORE PUSH1 0x40 DUP2 KECCAK256 SLOAD DUP2 SWAP1 PUSH2 0x908 SWAP1 TIMESTAMP PUSH2 0xCE8 JUMP JUMPDEST SWAP1 POP PUSH0 PUSH2 0x918 PUSH3 0x278D00 DUP4 PUSH2 0xD12 JUMP JUMPDEST PUSH2 0x923 SWAP1 PUSH1 0x1 PUSH2 0xD31 JUMP JUMPDEST PUSH1 0x1 PUSH1 0x1 PUSH1 0xA0 SHL SUB DUP6 AND PUSH0 SWAP1 DUP2 MSTORE PUSH1 0x8 PUSH1 0x20 MSTORE PUSH1 0x40 SWAP1 KECCAK256 SLOAD SWAP1 SWAP2 POP PUSH2 0x949 SWAP1 DUP3 SWAP1 PUSH2 0xCFB JUMP JUMPDEST SWAP5 SWAP4 POP POP POP POP JUMP JUMPDEST PUSH0 PUSH1 0xA SLOAD PUSH0 SUB PUSH2 0x962 JUMPI POP PUSH1 0x5 SLOAD SWAP1 JUMP JUMPDEST PUSH1 0xA SLOAD PUSH1 0x2 SLOAD PUSH1 0x4 SLOAD PUSH2 0x975 SWAP1 TIMESTAMP PUSH2 0xCE8 JUMP JUMPDEST PUSH2 0x97F SWAP2 SWAP1 PUSH2 0xCFB JUMP JUMPDEST PUSH2 0x991 SWAP1 PUSH8 0xDE0B6B3A7640000 PUSH2 0xCFB JUMP JUMPDEST PUSH2 0x99B SWAP2 SWAP1 PUSH2 0xD12 JUMP JUMPDEST PUSH1 0x5 SLOAD PUSH2 0x9A8 SWAP2 SWAP1 PUSH2 0xD31 JUMP JUMPDEST SWAP1 POP SWAP1 JUMP JUMPDEST PUSH2 0x9B5 PUSH2 0xADB JUMP JUMPDEST PUSH1 0x1 PUSH1 0x1 PUSH1 0xA0 SHL SUB DUP2 AND PUSH2 0xA03 JUMPI PUSH1 0x40 MLOAD PUSH3 0x461BCD PUSH1 0xE5 SHL DUP2 MSTORE PUSH1 0x20 PUSH1 0x4 DUP3 ADD MSTORE PUSH1 0x15 PUSH1 0x24 DUP3 ADD MSTORE PUSH21 0x496E76616C6964207661756C742061646472657373 PUSH1 0x58 SHL PUSH1 0x44 DUP3 ADD MSTORE PUSH1 0x64 ADD PUSH2 0x438 JUMP JUMPDEST PUSH1 0x1 DUP1 SLOAD PUSH1 0x1 PUSH1 0x1 PUSH1 0xA0 SHL SUB NOT AND PUSH1 0x1 PUSH1 0x1 PUSH1 0xA0 SHL SUB DUP4 AND SWAP1 DUP2 OR SWAP1 SWAP2 SSTORE PUSH1 0x40 MLOAD PUSH32 0xDF1230AB3EEB5A856667DF0C3F17CBF609C7C38795DB733EAAC2B6EDA9FE36CD SWAP1 PUSH0 SWAP1 LOG2 POP JUMP JUMPDEST PUSH2 0xA54 PUSH2 0xADB JUMP JUMPDEST PUSH1 0x1 PUSH1 0x1 PUSH1 0xA0 SHL SUB DUP2 AND PUSH2 0xA7D JUMPI PUSH1 0x40 MLOAD PUSH4 0x1E4FBDF7 PUSH1 0xE0 SHL DUP2 MSTORE PUSH0 PUSH1 0x4 DUP3 ADD MSTORE PUSH1 0x24 ADD PUSH2 0x438 JUMP JUMPDEST PUSH2 0x55A DUP2 PUSH2 0xB07 JUMP JUMPDEST PUSH2 0xA8E PUSH2 0xB92 JUMP JUMPDEST PUSH1 0x2 PUSH0 DUP1 MLOAD PUSH1 0x20 PUSH2 0xD45 DUP4 CODECOPY DUP2 MLOAD SWAP2 MSTORE SSTORE JUMP JUMPDEST PUSH2 0xAAE DUP4 DUP4 DUP4 PUSH1 0x1 PUSH2 0xBC1 JUMP JUMPDEST PUSH2 0xAD6 JUMPI PUSH1 0x40 MLOAD PUSH4 0x5274AFE7 PUSH1 0xE0 SHL DUP2 MSTORE PUSH1 0x1 PUSH1 0x1 PUSH1 0xA0 SHL SUB DUP5 AND PUSH1 0x4 DUP3 ADD MSTORE PUSH1 0x24 ADD PUSH2 0x438 JUMP JUMPDEST POP POP POP JUMP JUMPDEST PUSH0 SLOAD PUSH1 0x1 PUSH1 0x1 PUSH1 0xA0 SHL SUB AND CALLER EQ PUSH2 0x723 JUMPI PUSH1 0x40 MLOAD PUSH4 0x118CDAA7 PUSH1 0xE0 SHL DUP2 MSTORE CALLER PUSH1 0x4 DUP3 ADD MSTORE PUSH1 0x24 ADD PUSH2 0x438 JUMP JUMPDEST PUSH0 DUP1 SLOAD PUSH1 0x1 PUSH1 0x1 PUSH1 0xA0 SHL SUB DUP4 DUP2 AND PUSH1 0x1 PUSH1 0x1 PUSH1 0xA0 SHL SUB NOT DUP4 AND DUP2 OR DUP5 SSTORE PUSH1 0x40 MLOAD SWAP2 SWAP1 SWAP3 AND SWAP3 DUP4 SWAP2 PUSH32 0x8BE0079C531659141344CD1FD0A4F28419497F9722A3DAAFE3B4186F6B6457E0 SWAP2 SWAP1 LOG3 POP POP JUMP JUMPDEST PUSH2 0xB64 DUP5 DUP5 DUP5 DUP5 PUSH1 0x1 PUSH2 0xC23 JUMP JUMPDEST PUSH2 0xB8C JUMPI PUSH1 0x40 MLOAD PUSH4 0x5274AFE7 PUSH1 0xE0 SHL DUP2 MSTORE PUSH1 0x1 PUSH1 0x1 PUSH1 0xA0 SHL SUB DUP6 AND PUSH1 0x4 DUP3 ADD MSTORE PUSH1 0x24 ADD PUSH2 0x438 JUMP JUMPDEST POP POP POP POP JUMP JUMPDEST PUSH0 DUP1 MLOAD PUSH1 0x20 PUSH2 0xD45 DUP4 CODECOPY DUP2 MLOAD SWAP2 MSTORE SLOAD PUSH1 0x2 SUB PUSH2 0x723 JUMPI PUSH1 0x40 MLOAD PUSH4 0x3EE5AEB5 PUSH1 0xE0 SHL DUP2 MSTORE PUSH1 0x4 ADD PUSH1 0x40 MLOAD DUP1 SWAP2 SUB SWAP1 REVERT JUMPDEST PUSH1 0x40 MLOAD PUSH4 0xA9059CBB PUSH1 0xE0 SHL PUSH0 DUP2 DUP2 MSTORE PUSH1 0x1 PUSH1 0x1 PUSH1 0xA0 SHL SUB DUP7 AND PUSH1 0x4 MSTORE PUSH1 0x24 DUP6 SWAP1 MSTORE SWAP2 PUSH1 0x20 DUP4 PUSH1 0x44 DUP2 DUP1 DUP12 GAS CALL SWAP3 POP PUSH1 0x1 PUSH0 MLOAD EQ DUP4 AND PUSH2 0xC17 JUMPI DUP4 DUP4 ISZERO AND ISZERO PUSH2 0xC0B JUMPI RETURNDATASIZE PUSH0 DUP3 RETURNDATACOPY RETURNDATASIZE DUP2 REVERT JUMPDEST PUSH0 DUP8 EXTCODESIZE GT RETURNDATASIZE ISZERO AND DUP4 AND SWAP3 POP JUMPDEST PUSH1 0x40 MSTORE POP SWAP5 SWAP4 POP POP POP POP JUMP JUMPDEST PUSH1 0x40 MLOAD PUSH4 0x23B872DD PUSH1 0xE0 SHL PUSH0 DUP2 DUP2 MSTORE PUSH1 0x1 PUSH1 0x1 PUSH1 0xA0 SHL SUB DUP8 DUP2 AND PUSH1 0x4 MSTORE DUP7 AND PUSH1 0x24 MSTORE PUSH1 0x44 DUP6 SWAP1 MSTORE SWAP2 PUSH1 0x20 DUP4 PUSH1 0x64 DUP2 DUP1 DUP13 GAS CALL SWAP3 POP PUSH1 0x1 PUSH0 MLOAD EQ DUP4 AND PUSH2 0xC7F JUMPI DUP4 DUP4 ISZERO AND ISZERO PUSH2 0xC73 JUMPI RETURNDATASIZE PUSH0 DUP3 RETURNDATACOPY RETURNDATASIZE DUP2 REVERT JUMPDEST PUSH0 DUP9 EXTCODESIZE GT RETURNDATASIZE ISZERO AND DUP4 AND SWAP3 POP JUMPDEST PUSH1 0x40 MSTORE POP PUSH0 PUSH1 0x60 MSTORE SWAP6 SWAP5 POP POP POP POP POP JUMP JUMPDEST PUSH0 PUSH1 0x20 DUP3 DUP5 SUB SLT ISZERO PUSH2 0xCA0 JUMPI PUSH0 DUP1 REVERT JUMPDEST DUP2 CALLDATALOAD PUSH1 0x1 PUSH1 0x1 PUSH1 0xA0 SHL SUB DUP2 AND DUP2 EQ PUSH2 0xCB6 JUMPI PUSH0 DUP1 REVERT JUMPDEST SWAP4 SWAP3 POP POP POP JUMP JUMPDEST PUSH0 PUSH1 0x20 DUP3 DUP5 SUB SLT ISZERO PUSH2 0xCCD JUMPI PUSH0 DUP1 REVERT JUMPDEST POP CALLDATALOAD SWAP2 SWAP1 POP JUMP JUMPDEST PUSH4 0x4E487B71 PUSH1 0xE0 SHL PUSH0 MSTORE PUSH1 0x11 PUSH1 0x4 MSTORE PUSH1 0x24 PUSH0 REVERT JUMPDEST DUP2 DUP2 SUB DUP2 DUP2 GT ISZERO PUSH2 0x398 JUMPI PUSH2 0x398 PUSH2 0xCD4 JUMP JUMPDEST DUP1 DUP3 MUL DUP2 ISZERO DUP3 DUP3 DIV DUP5 EQ OR PUSH2 0x398 JUMPI PUSH2 0x398 PUSH2 0xCD4 JUMP JUMPDEST PUSH0 DUP3 PUSH2 0xD2C JUMPI PUSH4 0x4E487B71 PUSH1 0xE0 SHL PUSH0 MSTORE PUSH1 0x12 PUSH1 0x4 MSTORE PUSH1 0x24 PUSH0 REVERT JUMPDEST POP DIV SWAP1 JUMP JUMPDEST DUP1 DUP3 ADD DUP1 DUP3 GT ISZERO PUSH2 0x398 JUMPI PUSH2 0x398 PUSH2 0xCD4 JUMP INVALID SWAP12 PUSH24 0x9B17422D0DF92223018B32B4D1FA46E071723D6817E2486D STOP EXTCODESIZE 0xEC 0xC5 PUSH0 STOP LOG2 PUSH5 0x6970667358 0x22 SLT KECCAK256 0xCE 0x4B 0xE1 PUSH23 0x8E1AAC2866C67E4EB03BB7F1DB9D6781F2936FFE5676AF 0xF9 COINBASE PUSH16 0x7EA664736F6C63430008180033000000 "
				},
				"gasEstimates": {
					"creation": {
						"codeDepositCost": "696400",
						"executionCost": "infinite",
						"totalCost": "infinite"
					},
					"external": {
						"balanceOf(address)": "2621",
						"charityTaxRate()": "2306",
						"charityVault()": "2382",
						"earned(address)": "infinite",
						"getReward()": "infinite",
						"getVotingPower(address)": "infinite",
						"lastUpdateTime()": "2327",
						"owner()": "2418",
						"pnjcToken()": "infinite",
						"renounceOwnership()": "infinite",
						"rewardPerToken()": "infinite",
						"rewardPerTokenStored()": "2371",
						"rewardRate()": "2328",
						"rewards(address)": "2538",
						"setCharityTax(uint256)": "24578",
						"setRewardRate(uint256)": "infinite",
						"stake(uint256)": "infinite",
						"stakeTimestamp(address)": "2581",
						"totalSupply()": "2370",
						"transferOwnership(address)": "28426",
						"updateCharityVault(address)": "27980",
						"userRewardPerTokenPaid(address)": "2537",
						"withdraw(uint256)": "infinite"
					}
				},
				"methodIdentifiers": {
					"balanceOf(address)": "70a08231",
					"charityTaxRate()": "2ae64628",
					"charityVault()": "02b09ac5",
					"earned(address)": "008cc262",
					"getReward()": "3d18b912",
					"getVotingPower(address)": "bb4d4436",
					"lastUpdateTime()": "c8f33c91",
					"owner()": "8da5cb5b",
					"pnjcToken()": "26ccb9ea",
					"renounceOwnership()": "715018a6",
					"rewardPerToken()": "cd3daf9d",
					"rewardPerTokenStored()": "df136d65",
					"rewardRate()": "7b0a47ee",
					"rewards(address)": "0700037d",
					"setCharityTax(uint256)": "3b4f68b3",
					"setRewardRate(uint256)": "9e447fc6",
					"stake(uint256)": "a694fc3a",
					"stakeTimestamp(address)": "70259077",
					"totalSupply()": "18160ddd",
					"transferOwnership(address)": "f2fde38b",
					"updateCharityVault(address)": "e16d685d",
					"userRewardPerTokenPaid(address)": "8b876347",
					"withdraw(uint256)": "2e1a7d4d"
				}
			},
			"storageLayout": {
				"storage": [
					{
						"astId": 8,
						"contract": "Smart-Contracts/PNJC_Staking.sol:PNJC_Staking_Advanced",
						"label": "_owner",
						"offset": 0,
						"slot": "0",
						"type": "t_address"
					},
					{
						"astId": 1068,
						"contract": "Smart-Contracts/PNJC_Staking.sol:PNJC_Staking_Advanced",
						"label": "charityVault",
						"offset": 0,
						"slot": "1",
						"type": "t_address"
					},
					{
						"astId": 1070,
						"contract": "Smart-Contracts/PNJC_Staking.sol:PNJC_Staking_Advanced",
						"label": "rewardRate",
						"offset": 0,
						"slot": "2",
						"type": "t_uint256"
					},
					{
						"astId": 1073,
						"contract": "Smart-Contracts/PNJC_Staking.sol:PNJC_Staking_Advanced",
						"label": "charityTaxRate",
						"offset": 0,
						"slot": "3",
						"type": "t_uint256"
					},
					{
						"astId": 1075,
						"contract": "Smart-Contracts/PNJC_Staking.sol:PNJC_Staking_Advanced",
						"label": "lastUpdateTime",
						"offset": 0,
						"slot": "4",
						"type": "t_uint256"
					},
					{
						"astId": 1077,
						"contract": "Smart-Contracts/PNJC_Staking.sol:PNJC_Staking_Advanced",
						"label": "rewardPerTokenStored",
						"offset": 0,
						"slot": "5",
						"type": "t_uint256"
					},
					{
						"astId": 1081,
						"contract": "Smart-Contracts/PNJC_Staking.sol:PNJC_Staking_Advanced",
						"label": "userRewardPerTokenPaid",
						"offset": 0,
						"slot": "6",
						"type": "t_mapping(t_address,t_uint256)"
					},
					{
						"astId": 1085,
						"contract": "Smart-Contracts/PNJC_Staking.sol:PNJC_Staking_Advanced",
						"label": "rewards",
						"offset": 0,
						"slot": "7",
						"type": "t_mapping(t_address,t_uint256)"
					},
					{
						"astId": 1089,
						"contract": "Smart-Contracts/PNJC_Staking.sol:PNJC_Staking_Advanced",
						"label": "_balances",
						"offset": 0,
						"slot": "8",
						"type": "t_mapping(t_address,t_uint256)"
					},
					{
						"astId": 1093,
						"contract": "Smart-Contracts/PNJC_Staking.sol:PNJC_Staking_Advanced",
						"label": "stakeTimestamp",
						"offset": 0,
						"slot": "9",
						"type": "t_mapping(t_address,t_uint256)"
					},
					{
						"astId": 1095,
						"contract": "Smart-Contracts/PNJC_Staking.sol:PNJC_Staking_Advanced",
						"label": "_totalSupply",
						"offset": 0,
						"slot": "10",
						"type": "t_uint256"
					}
				],
				"types": {
					"t_address": {
						"encoding": "inplace",
						"label": "address",
						"numberOfBytes": "20"
					},
					"t_mapping(t_address,t_uint256)": {
						"encoding": "mapping",
						"key": "t_address",
						"label": "mapping(address => uint256)",
						"numberOfBytes": "32",
						"value": "t_uint256"
					},
					"t_uint256": {
						"encoding": "inplace",
						"label": "uint256",
						"numberOfBytes": "32"
					}
				}
			},
			"userdoc": {
				"kind": "user",
				"methods": {
					"getReward()": {
						"notice": "Claims rewards with automated Charity Sync logic. Sends the user's share to their wallet and the charity share to Smiledonate."
					},
					"getVotingPower(address)": {
						"notice": "Provides DAO Voting Power calculation. Formula: Amount Staked * (1 + Months Staked bonus)."
					},
					"stake(uint256)": {
						"notice": "Stakes PNJC tokens. Improves ecosystem stability by locking supply."
					},
					"withdraw(uint256)": {
						"notice": "Withdraws staked tokens from the pool."
					}
				},
				"version": 1
			}
		}
	}
}