{
	"Smart-Contracts/PNJC_Free_Router.sol": {
		"PNJCFeeRouter": {
			"abi": [
				{
					"inputs": [
						{
							"internalType": "address",
							"name": "_clownCareWallet",
							"type": "address"
						},
						{
							"internalType": "address",
							"name": "_liquidityWallet",
							"type": "address"
						},
						{
							"internalType": "address",
							"name": "_devWallet",
							"type": "address"
						},
						{
							"internalType": "address",
							"name": "_daoTreasury",
							"type": "address"
						},
						{
							"internalType": "address",
							"name": "admin",
							"type": "address"
						}
					],
					"stateMutability": "nonpayable",
					"type": "constructor"
				},
				{
					"inputs": [],
					"name": "AccessControlBadConfirmation",
					"type": "error"
				},
				{
					"inputs": [
						{
							"internalType": "address",
							"name": "account",
							"type": "address"
						},
						{
							"internalType": "bytes32",
							"name": "neededRole",
							"type": "bytes32"
						}
					],
					"name": "AccessControlUnauthorizedAccount",
					"type": "error"
				},
				{
					"inputs": [],
					"name": "ReentrancyGuardReentrantCall",
					"type": "error"
				},
				{
					"inputs": [
						{
							"internalType": "address",
							"name": "token",
							"type": "address"
						}
					],
					"name": "SafeERC20FailedOperation",
					"type": "error"
				},
				{
					"anonymous": false,
					"inputs": [
						{
							"indexed": false,
							"internalType": "address",
							"name": "clownCare",
							"type": "address"
						},
						{
							"indexed": false,
							"internalType": "address",
							"name": "liquidity",
							"type": "address"
						},
						{
							"indexed": false,
							"internalType": "address",
							"name": "dev",
							"type": "address"
						},
						{
							"indexed": false,
							"internalType": "address",
							"name": "dao",
							"type": "address"
						}
					],
					"name": "BeneficiariesUpdated",
					"type": "event"
				},
				{
					"anonymous": false,
					"inputs": [
						{
							"indexed": true,
							"internalType": "address",
							"name": "token",
							"type": "address"
						},
						{
							"indexed": false,
							"internalType": "uint256",
							"name": "totalAmount",
							"type": "uint256"
						}
					],
					"name": "FeesDistributed",
					"type": "event"
				},
				{
					"anonymous": false,
					"inputs": [
						{
							"indexed": false,
							"internalType": "uint256",
							"name": "clownCare",
							"type": "uint256"
						},
						{
							"indexed": false,
							"internalType": "uint256",
							"name": "liquidity",
							"type": "uint256"
						},
						{
							"indexed": false,
							"internalType": "uint256",
							"name": "dev",
							"type": "uint256"
						},
						{
							"indexed": false,
							"internalType": "uint256",
							"name": "dao",
							"type": "uint256"
						}
					],
					"name": "RatesUpdated",
					"type": "event"
				},
				{
					"anonymous": false,
					"inputs": [
						{
							"indexed": true,
							"internalType": "bytes32",
							"name": "role",
							"type": "bytes32"
						},
						{
							"indexed": true,
							"internalType": "bytes32",
							"name": "previousAdminRole",
							"type": "bytes32"
						},
						{
							"indexed": true,
							"internalType": "bytes32",
							"name": "newAdminRole",
							"type": "bytes32"
						}
					],
					"name": "RoleAdminChanged",
					"type": "event"
				},
				{
					"anonymous": false,
					"inputs": [
						{
							"indexed": true,
							"internalType": "bytes32",
							"name": "role",
							"type": "bytes32"
						},
						{
							"indexed": true,
							"internalType": "address",
							"name": "account",
							"type": "address"
						},
						{
							"indexed": true,
							"internalType": "address",
							"name": "sender",
							"type": "address"
						}
					],
					"name": "RoleGranted",
					"type": "event"
				},
				{
					"anonymous": false,
					"inputs": [
						{
							"indexed": true,
							"internalType": "bytes32",
							"name": "role",
							"type": "bytes32"
						},
						{
							"indexed": true,
							"internalType": "address",
							"name": "account",
							"type": "address"
						},
						{
							"indexed": true,
							"internalType": "address",
							"name": "sender",
							"type": "address"
						}
					],
					"name": "RoleRevoked",
					"type": "event"
				},
				{
					"inputs": [],
					"name": "ADMIN_ROLE",
					"outputs": [
						{
							"internalType": "bytes32",
							"name": "",
							"type": "bytes32"
						}
					],
					"stateMutability": "view",
					"type": "function"
				},
				{
					"inputs": [],
					"name": "BASIS_POINTS_DENOMINATOR",
					"outputs": [
						{
							"internalType": "uint256",
							"name": "",
							"type": "uint256"
						}
					],
					"stateMutability": "view",
					"type": "function"
				},
				{
					"inputs": [],
					"name": "DEFAULT_ADMIN_ROLE",
					"outputs": [
						{
							"internalType": "bytes32",
							"name": "",
							"type": "bytes32"
						}
					],
					"stateMutability": "view",
					"type": "function"
				},
				{
					"inputs": [],
					"name": "MAX_TOTAL_FEE_CAP",
					"outputs": [
						{
							"internalType": "uint256",
							"name": "",
							"type": "uint256"
						}
					],
					"stateMutability": "view",
					"type": "function"
				},
				{
					"inputs": [],
					"name": "clownCareFee",
					"outputs": [
						{
							"internalType": "uint256",
							"name": "",
							"type": "uint256"
						}
					],
					"stateMutability": "view",
					"type": "function"
				},
				{
					"inputs": [],
					"name": "clownCareWallet",
					"outputs": [
						{
							"internalType": "address",
							"name": "",
							"type": "address"
						}
					],
					"stateMutability": "view",
					"type": "function"
				},
				{
					"inputs": [],
					"name": "daoFee",
					"outputs": [
						{
							"internalType": "uint256",
							"name": "",
							"type": "uint256"
						}
					],
					"stateMutability": "view",
					"type": "function"
				},
				{
					"inputs": [],
					"name": "daoTreasury",
					"outputs": [
						{
							"internalType": "address",
							"name": "",
							"type": "address"
						}
					],
					"stateMutability": "view",
					"type": "function"
				},
				{
					"inputs": [],
					"name": "devFee",
					"outputs": [
						{
							"internalType": "uint256",
							"name": "",
							"type": "uint256"
						}
					],
					"stateMutability": "view",
					"type": "function"
				},
				{
					"inputs": [],
					"name": "devWallet",
					"outputs": [
						{
							"internalType": "address",
							"name": "",
							"type": "address"
						}
					],
					"stateMutability": "view",
					"type": "function"
				},
				{
					"inputs": [],
					"name": "distributeNative",
					"outputs": [],
					"stateMutability": "nonpayable",
					"type": "function"
				},
				{
					"inputs": [
						{
							"internalType": "address",
							"name": "token",
							"type": "address"
						}
					],
					"name": "distributeToken",
					"outputs": [],
					"stateMutability": "nonpayable",
					"type": "function"
				},
				{
					"inputs": [
						{
							"internalType": "address",
							"name": "token",
							"type": "address"
						},
						{
							"internalType": "address",
							"name": "to",
							"type": "address"
						}
					],
					"name": "emergencyWithdraw",
					"outputs": [],
					"stateMutability": "nonpayable",
					"type": "function"
				},
				{
					"inputs": [
						{
							"internalType": "bytes32",
							"name": "role",
							"type": "bytes32"
						}
					],
					"name": "getRoleAdmin",
					"outputs": [
						{
							"internalType": "bytes32",
							"name": "",
							"type": "bytes32"
						}
					],
					"stateMutability": "view",
					"type": "function"
				},
				{
					"inputs": [
						{
							"internalType": "bytes32",
							"name": "role",
							"type": "bytes32"
						},
						{
							"internalType": "address",
							"name": "account",
							"type": "address"
						}
					],
					"name": "grantRole",
					"outputs": [],
					"stateMutability": "nonpayable",
					"type": "function"
				},
				{
					"inputs": [
						{
							"internalType": "bytes32",
							"name": "role",
							"type": "bytes32"
						},
						{
							"internalType": "address",
							"name": "account",
							"type": "address"
						}
					],
					"name": "hasRole",
					"outputs": [
						{
							"internalType": "bool",
							"name": "",
							"type": "bool"
						}
					],
					"stateMutability": "view",
					"type": "function"
				},
				{
					"inputs": [],
					"name": "liquidityFee",
					"outputs": [
						{
							"internalType": "uint256",
							"name": "",
							"type": "uint256"
						}
					],
					"stateMutability": "view",
					"type": "function"
				},
				{
					"inputs": [],
					"name": "liquidityWallet",
					"outputs": [
						{
							"internalType": "address",
							"name": "",
							"type": "address"
						}
					],
					"stateMutability": "view",
					"type": "function"
				},
				{
					"inputs": [
						{
							"internalType": "bytes32",
							"name": "role",
							"type": "bytes32"
						},
						{
							"internalType": "address",
							"name": "callerConfirmation",
							"type": "address"
						}
					],
					"name": "renounceRole",
					"outputs": [],
					"stateMutability": "nonpayable",
					"type": "function"
				},
				{
					"inputs": [
						{
							"internalType": "bytes32",
							"name": "role",
							"type": "bytes32"
						},
						{
							"internalType": "address",
							"name": "account",
							"type": "address"
						}
					],
					"name": "revokeRole",
					"outputs": [],
					"stateMutability": "nonpayable",
					"type": "function"
				},
				{
					"inputs": [
						{
							"internalType": "bytes4",
							"name": "interfaceId",
							"type": "bytes4"
						}
					],
					"name": "supportsInterface",
					"outputs": [
						{
							"internalType": "bool",
							"name": "",
							"type": "bool"
						}
					],
					"stateMutability": "view",
					"type": "function"
				},
				{
					"inputs": [
						{
							"internalType": "address",
							"name": "_clownCare",
							"type": "address"
						},
						{
							"internalType": "address",
							"name": "_liquidity",
							"type": "address"
						},
						{
							"internalType": "address",
							"name": "_dev",
							"type": "address"
						},
						{
							"internalType": "address",
							"name": "_dao",
							"type": "address"
						}
					],
					"name": "updateBeneficiaries",
					"outputs": [],
					"stateMutability": "nonpayable",
					"type": "function"
				},
				{
					"inputs": [
						{
							"internalType": "uint256",
							"name": "_clownCare",
							"type": "uint256"
						},
						{
							"internalType": "uint256",
							"name": "_liquidity",
							"type": "uint256"
						},
						{
							"internalType": "uint256",
							"name": "_dev",
							"type": "uint256"
						},
						{
							"internalType": "uint256",
							"name": "_dao",
							"type": "uint256"
						}
					],
					"name": "updateRates",
					"outputs": [],
					"stateMutability": "nonpayable",
					"type": "function"
				},
				{
					"stateMutability": "payable",
					"type": "receive"
				}
			],
			"devdoc": {
				"errors": {
					"AccessControlBadConfirmation()": [
						{
							"details": "The caller of a function is not the expected one. NOTE: Don't confuse with {AccessControlUnauthorizedAccount}."
						}
					],
					"AccessControlUnauthorizedAccount(address,bytes32)": [
						{
							"details": "The `account` is missing a role."
						}
					],
					"ReentrancyGuardReentrantCall()": [
						{
							"details": "Unauthorized reentrant call."
						}
					],
					"SafeERC20FailedOperation(address)": [
						{
							"details": "An operation with an ERC-20 token failed."
						}
					]
				},
				"events": {
					"RoleAdminChanged(bytes32,bytes32,bytes32)": {
						"details": "Emitted when `newAdminRole` is set as ``role``'s admin role, replacing `previousAdminRole` `DEFAULT_ADMIN_ROLE` is the starting admin for all roles, despite {RoleAdminChanged} not being emitted to signal this."
					},
					"RoleGranted(bytes32,address,address)": {
						"details": "Emitted when `account` is granted `role`. `sender` is the account that originated the contract call. This account bears the admin role (for the granted role). Expected in cases where the role was granted using the internal {AccessControl-_grantRole}."
					},
					"RoleRevoked(bytes32,address,address)": {
						"details": "Emitted when `account` is revoked `role`. `sender` is the account that originated the contract call:   - if using `revokeRole`, it is the admin role bearer   - if using `renounceRole`, it is the role bearer (i.e. `account`)"
					}
				},
				"kind": "dev",
				"methods": {
					"constructor": {
						"details": "Initializes roles and beneficiary addresses."
					},
					"distributeToken(address)": {
						"params": {
							"token": "The address of the ERC20 token to be distributed."
						}
					},
					"getRoleAdmin(bytes32)": {
						"details": "Returns the admin role that controls `role`. See {grantRole} and {revokeRole}. To change a role's admin, use {_setRoleAdmin}."
					},
					"grantRole(bytes32,address)": {
						"details": "Grants `role` to `account`. If `account` had not been already granted `role`, emits a {RoleGranted} event. Requirements: - the caller must have ``role``'s admin role. May emit a {RoleGranted} event."
					},
					"hasRole(bytes32,address)": {
						"details": "Returns `true` if `account` has been granted `role`."
					},
					"renounceRole(bytes32,address)": {
						"details": "Revokes `role` from the calling account. Roles are often managed via {grantRole} and {revokeRole}: this function's purpose is to provide a mechanism for accounts to lose their privileges if they are compromised (such as when a trusted device is misplaced). If the calling account had been revoked `role`, emits a {RoleRevoked} event. Requirements: - the caller must be `callerConfirmation`. May emit a {RoleRevoked} event."
					},
					"revokeRole(bytes32,address)": {
						"details": "Revokes `role` from `account`. If `account` had been granted `role`, emits a {RoleRevoked} event. Requirements: - the caller must have ``role``'s admin role. May emit a {RoleRevoked} event."
					},
					"supportsInterface(bytes4)": {
						"details": "Returns true if this contract implements the interface defined by `interfaceId`. See the corresponding https://eips.ethereum.org/EIPS/eip-165#how-interfaces-are-identified[ERC section] to learn more about how these ids are created. This function call must use less than 30 000 gas."
					},
					"updateRates(uint256,uint256,uint256,uint256)": {
						"details": "Total sum must not exceed 15% (1500 BPS)."
					}
				},
				"version": 1
			},
			"evm": {
				"assembly": "    /* \"Smart-Contracts/PNJC_Free_Router.sol\":648:6563  contract PNJCFeeRouter is AccessControl, ReentrancyGuard {... */\n  mstore(0x40, 0x80)\n    /* \"Smart-Contracts/PNJC_Free_Router.sol\":1148:1151  200 */\n  0xc8\n    /* \"Smart-Contracts/PNJC_Free_Router.sol\":1118:1151  uint256 public clownCareFee = 200 */\n  0x05\n  sstore\n    /* \"Smart-Contracts/PNJC_Free_Router.sol\":1198:1201  100 */\n  0x64\n    /* \"Smart-Contracts/PNJC_Free_Router.sol\":1168:1201  uint256 public liquidityFee = 100 */\n  0x06\n  sstore\n    /* \"Smart-Contracts/PNJC_Free_Router.sol\":1243:1246  100 */\n  0x64\n    /* \"Smart-Contracts/PNJC_Free_Router.sol\":1219:1246  uint256 public devFee = 100 */\n  0x07\n  sstore\n    /* \"Smart-Contracts/PNJC_Free_Router.sol\":1294:1296  50 */\n  0x32\n    /* \"Smart-Contracts/PNJC_Free_Router.sol\":1270:1296  uint256 public daoFee = 50 */\n  0x08\n  sstore\n    /* \"Smart-Contracts/PNJC_Free_Router.sol\":1845:2368  constructor(... */\n  callvalue\n  dup1\n  iszero\n  tag_1\n  jumpi\n  0x00\n  dup1\n  revert\ntag_1:\n  pop\n  mload(0x40)\n  sub(codesize, bytecodeSize)\n  dup1\n  bytecodeSize\n  dup4\n  codecopy\n  dup2\n  add\n  0x40\n  dup2\n  swap1\n  mstore\n  tag_2\n  swap2\n  tag_3\n  jump\t// in\ntag_2:\n    /* \"@openzeppelin/contracts@5.6.0/utils/ReentrancyGuard.sol\":2365:2366  1 */\n  0x01\n    /* \"@openzeppelin/contracts@5.6.0/utils/ReentrancyGuard.sol\":1505:1571  0x9b779b17422d0df92223018b32b4d1fa46e071723d6817e2486d003becc55f00 */\n  0x9b779b17422d0df92223018b32b4d1fa46e071723d6817e2486d003becc55f00\n    /* \"@openzeppelin/contracts@5.6.0/utils/ReentrancyGuard.sol\":2539:2605  _reentrancyGuardStorageSlot().getUint256Slot().value = NOT_ENTERED */\n  sstore\n  sub(shl(0xa0, 0x01), 0x01)\n    /* \"Smart-Contracts/PNJC_Free_Router.sol\":2033:2052  admin == address(0) */\n  dup2\n  and\n    /* \"Smart-Contracts/PNJC_Free_Router.sol\":2029:2100  if (admin == address(0)) revert(\"Router: Admin cannot be zero address\") */\n  tag_12\n  jumpi\n    /* \"Smart-Contracts/PNJC_Free_Router.sol\":2054:2100  revert(\"Router: Admin cannot be zero address\") */\n  mload(0x40)\n  shl(0xe5, 0x461bcd)\n  dup2\n  mstore\n    /* \"#utility.yul\":953:955   */\n  0x20\n    /* \"Smart-Contracts/PNJC_Free_Router.sol\":2054:2100  revert(\"Router: Admin cannot be zero address\") */\n  0x04\n  dup3\n  add\n    /* \"#utility.yul\":935:956   */\n  mstore\n    /* \"#utility.yul\":992:994   */\n  0x24\n    /* \"#utility.yul\":972:990   */\n  dup1\n  dup3\n  add\n    /* \"#utility.yul\":965:995   */\n  mstore\n    /* \"#utility.yul\":1031:1065   */\n  0x526f757465723a2041646d696e2063616e6e6f74206265207a65726f20616464\n    /* \"#utility.yul\":1011:1029   */\n  0x44\n  dup3\n  add\n    /* \"#utility.yul\":1004:1066   */\n  mstore\n  shl(0xe0, 0x72657373)\n    /* \"#utility.yul\":1082:1100   */\n  0x64\n  dup3\n  add\n    /* \"#utility.yul\":1075:1109   */\n  mstore\n    /* \"#utility.yul\":1126:1145   */\n  0x84\n  add\n    /* \"Smart-Contracts/PNJC_Free_Router.sol\":2054:2100  revert(\"Router: Admin cannot be zero address\") */\n  mload(0x40)\n  dup1\n  swap2\n  sub\n  swap1\n  revert\n    /* \"Smart-Contracts/PNJC_Free_Router.sol\":2029:2100  if (admin == address(0)) revert(\"Router: Admin cannot be zero address\") */\ntag_12:\n    /* \"Smart-Contracts/PNJC_Free_Router.sol\":2121:2136  clownCareWallet */\n  0x01\n    /* \"Smart-Contracts/PNJC_Free_Router.sol\":2121:2155  clownCareWallet = _clownCareWallet */\n  dup1\n  sload\n  sub(shl(0xa0, 0x01), 0x01)\n  dup1\n  dup9\n  and\n  not(sub(shl(0xa0, 0x01), 0x01))\n  swap3\n  dup4\n  and\n  or\n  swap1\n  swap3\n  sstore\n    /* \"Smart-Contracts/PNJC_Free_Router.sol\":2166:2181  liquidityWallet */\n  0x02\n    /* \"Smart-Contracts/PNJC_Free_Router.sol\":2166:2200  liquidityWallet = _liquidityWallet */\n  dup1\n  sload\n  dup8\n  dup5\n  and\n  swap1\n  dup4\n  and\n  or\n  swap1\n  sstore\n    /* \"Smart-Contracts/PNJC_Free_Router.sol\":2211:2220  devWallet */\n  0x03\n    /* \"Smart-Contracts/PNJC_Free_Router.sol\":2211:2233  devWallet = _devWallet */\n  dup1\n  sload\n  dup7\n  dup5\n  and\n  swap1\n  dup4\n  and\n  or\n  swap1\n  sstore\n    /* \"Smart-Contracts/PNJC_Free_Router.sol\":2244:2255  daoTreasury */\n  0x04\n    /* \"Smart-Contracts/PNJC_Free_Router.sol\":2244:2270  daoTreasury = _daoTreasury */\n  dup1\n  sload\n  swap3\n  dup6\n  and\n  swap3\n  swap1\n  swap2\n  and\n  swap2\n  swap1\n  swap2\n  or\n  swap1\n  sstore\n    /* \"Smart-Contracts/PNJC_Free_Router.sol\":2283:2320  _grantRole(DEFAULT_ADMIN_ROLE, admin) */\n  tag_15\n    /* \"Smart-Contracts/PNJC_Free_Router.sol\":2121:2136  clownCareWallet */\n  0x00\n    /* \"Smart-Contracts/PNJC_Free_Router.sol\":2314:2319  admin */\n  dup3\n    /* \"Smart-Contracts/PNJC_Free_Router.sol\":2283:2293  _grantRole */\n  tag_16\n    /* \"Smart-Contracts/PNJC_Free_Router.sol\":2283:2320  _grantRole(DEFAULT_ADMIN_ROLE, admin) */\n  jump\t// in\ntag_15:\n  pop\n    /* \"Smart-Contracts/PNJC_Free_Router.sol\":2331:2360  _grantRole(ADMIN_ROLE, admin) */\n  tag_17\n    /* \"Smart-Contracts/PNJC_Free_Router.sol\":817:840  keccak256(\"ADMIN_ROLE\") */\n  0xa49807205ce4d355092ef5a8a18f56e8913cf4a201fbe287825b095693c21775\n    /* \"Smart-Contracts/PNJC_Free_Router.sol\":2354:2359  admin */\n  dup3\n    /* \"Smart-Contracts/PNJC_Free_Router.sol\":2331:2341  _grantRole */\n  tag_16\n    /* \"Smart-Contracts/PNJC_Free_Router.sol\":2331:2360  _grantRole(ADMIN_ROLE, admin) */\n  jump\t// in\ntag_17:\n  pop\n    /* \"Smart-Contracts/PNJC_Free_Router.sol\":1845:2368  constructor(... */\n  pop\n  pop\n  pop\n  pop\n  pop\n    /* \"Smart-Contracts/PNJC_Free_Router.sol\":648:6563  contract PNJCFeeRouter is AccessControl, ReentrancyGuard {... */\n  jump(tag_31)\n    /* \"@openzeppelin/contracts@5.6.0/access/AccessControl.sol\":6145:6461  function _grantRole(bytes32 role, address account) internal virtual returns (bool) {... */\ntag_16:\n    /* \"@openzeppelin/contracts@5.6.0/access/AccessControl.sol\":6222:6226  bool */\n  0x00\n    /* \"@openzeppelin/contracts@5.6.0/access/AccessControl.sol\":2920:2932  _roles[role] */\n  dup3\n  dup2\n  mstore\n  0x20\n  dup2\n  dup2\n  mstore\n  0x40\n  dup1\n  dup4\n  keccak256\n  sub(shl(0xa0, 0x01), 0x01)\n    /* \"@openzeppelin/contracts@5.6.0/access/AccessControl.sol\":2920:2949  _roles[role].hasRole[account] */\n  dup6\n  and\n  dup5\n  mstore\n  swap1\n  swap2\n  mstore\n  dup2\n  keccak256\n  sload\n  0xff\n  and\n    /* \"@openzeppelin/contracts@5.6.0/access/AccessControl.sol\":6238:6455  if (!hasRole(role, account)) {... */\n  tag_24\n  jumpi\n    /* \"@openzeppelin/contracts@5.6.0/access/AccessControl.sol\":6281:6287  _roles */\n  0x00\n    /* \"@openzeppelin/contracts@5.6.0/access/AccessControl.sol\":6281:6293  _roles[role] */\n  dup4\n  dup2\n  mstore\n  0x20\n  dup2\n  dup2\n  mstore\n  0x40\n  dup1\n  dup4\n  keccak256\n  sub(shl(0xa0, 0x01), 0x01)\n    /* \"@openzeppelin/contracts@5.6.0/access/AccessControl.sol\":6281:6310  _roles[role].hasRole[account] */\n  dup7\n  and\n  dup5\n  mstore\n  swap1\n  swap2\n  mstore\n  swap1\n  keccak256\n    /* \"@openzeppelin/contracts@5.6.0/access/AccessControl.sol\":6281:6317  _roles[role].hasRole[account] = true */\n  dup1\n  sload\n  not(0xff)\n  and\n    /* \"@openzeppelin/contracts@5.6.0/access/AccessControl.sol\":6313:6317  true */\n  0x01\n    /* \"@openzeppelin/contracts@5.6.0/access/AccessControl.sol\":6281:6317  _roles[role].hasRole[account] = true */\n  or\n  swap1\n  sstore\n    /* \"@openzeppelin/contracts@5.6.0/access/AccessControl.sol\":6363:6375  _msgSender() */\n  tag_25\n    /* \"@openzeppelin/contracts@5.6.0/utils/Context.sol\":735:745  msg.sender */\n  caller\n  swap1\n    /* \"@openzeppelin/contracts@5.6.0/utils/Context.sol\":656:752  function _msgSender() internal view virtual returns (address) {... */\n  jump\n    /* \"@openzeppelin/contracts@5.6.0/access/AccessControl.sol\":6363:6375  _msgSender() */\ntag_25:\n  sub(shl(0xa0, 0x01), 0x01)\n    /* \"@openzeppelin/contracts@5.6.0/access/AccessControl.sol\":6336:6376  RoleGranted(role, account, _msgSender()) */\n  and\n    /* \"@openzeppelin/contracts@5.6.0/access/AccessControl.sol\":6354:6361  account */\n  dup3\n  sub(shl(0xa0, 0x01), 0x01)\n    /* \"@openzeppelin/contracts@5.6.0/access/AccessControl.sol\":6336:6376  RoleGranted(role, account, _msgSender()) */\n  and\n    /* \"@openzeppelin/contracts@5.6.0/access/AccessControl.sol\":6348:6352  role */\n  dup5\n    /* \"@openzeppelin/contracts@5.6.0/access/AccessControl.sol\":6336:6376  RoleGranted(role, account, _msgSender()) */\n  0x2f8788117e7eff1d82e926ec794901d17c78024a50270940304540a733656f0d\n  mload(0x40)\n  mload(0x40)\n  dup1\n  swap2\n  sub\n  swap1\n  log4\n  pop\n    /* \"@openzeppelin/contracts@5.6.0/access/AccessControl.sol\":6397:6401  true */\n  0x01\n    /* \"@openzeppelin/contracts@5.6.0/access/AccessControl.sol\":6390:6401  return true */\n  jump(tag_27)\n    /* \"@openzeppelin/contracts@5.6.0/access/AccessControl.sol\":6238:6455  if (!hasRole(role, account)) {... */\ntag_24:\n  pop\n    /* \"@openzeppelin/contracts@5.6.0/access/AccessControl.sol\":6439:6444  false */\n  0x00\n    /* \"@openzeppelin/contracts@5.6.0/access/AccessControl.sol\":6238:6455  if (!hasRole(role, account)) {... */\ntag_27:\n    /* \"@openzeppelin/contracts@5.6.0/access/AccessControl.sol\":6145:6461  function _grantRole(bytes32 role, address account) internal virtual returns (bool) {... */\n  swap3\n  swap2\n  pop\n  pop\n  jump\t// out\n    /* \"#utility.yul\":14:191   */\ntag_30:\n    /* \"#utility.yul\":93:106   */\n  dup1\n  mload\n  sub(shl(0xa0, 0x01), 0x01)\n    /* \"#utility.yul\":135:166   */\n  dup2\n  and\n    /* \"#utility.yul\":125:167   */\n  dup2\n  eq\n    /* \"#utility.yul\":115:185   */\n  tag_33\n  jumpi\n    /* \"#utility.yul\":181:182   */\n  0x00\n    /* \"#utility.yul\":178:179   */\n  dup1\n    /* \"#utility.yul\":171:183   */\n  revert\n    /* \"#utility.yul\":115:185   */\ntag_33:\n    /* \"#utility.yul\":14:191   */\n  swap2\n  swap1\n  pop\n  jump\t// out\n    /* \"#utility.yul\":196:746   */\ntag_3:\n    /* \"#utility.yul\":302:308   */\n  0x00\n    /* \"#utility.yul\":310:316   */\n  dup1\n    /* \"#utility.yul\":318:324   */\n  0x00\n    /* \"#utility.yul\":326:332   */\n  dup1\n    /* \"#utility.yul\":334:340   */\n  0x00\n    /* \"#utility.yul\":387:390   */\n  0xa0\n    /* \"#utility.yul\":375:384   */\n  dup7\n    /* \"#utility.yul\":366:373   */\n  dup9\n    /* \"#utility.yul\":362:385   */\n  sub\n    /* \"#utility.yul\":358:391   */\n  slt\n    /* \"#utility.yul\":355:408   */\n  iszero\n  tag_35\n  jumpi\n    /* \"#utility.yul\":404:405   */\n  0x00\n    /* \"#utility.yul\":401:402   */\n  dup1\n    /* \"#utility.yul\":394:406   */\n  revert\n    /* \"#utility.yul\":355:408   */\ntag_35:\n    /* \"#utility.yul\":427:467   */\n  tag_36\n    /* \"#utility.yul\":457:466   */\n  dup7\n    /* \"#utility.yul\":427:467   */\n  tag_30\n  jump\t// in\ntag_36:\n    /* \"#utility.yul\":417:467   */\n  swap5\n  pop\n    /* \"#utility.yul\":486:535   */\n  tag_37\n    /* \"#utility.yul\":531:533   */\n  0x20\n    /* \"#utility.yul\":520:529   */\n  dup8\n    /* \"#utility.yul\":516:534   */\n  add\n    /* \"#utility.yul\":486:535   */\n  tag_30\n  jump\t// in\ntag_37:\n    /* \"#utility.yul\":476:535   */\n  swap4\n  pop\n    /* \"#utility.yul\":554:603   */\n  tag_38\n    /* \"#utility.yul\":599:601   */\n  0x40\n    /* \"#utility.yul\":588:597   */\n  dup8\n    /* \"#utility.yul\":584:602   */\n  add\n    /* \"#utility.yul\":554:603   */\n  tag_30\n  jump\t// in\ntag_38:\n    /* \"#utility.yul\":544:603   */\n  swap3\n  pop\n    /* \"#utility.yul\":622:671   */\n  tag_39\n    /* \"#utility.yul\":667:669   */\n  0x60\n    /* \"#utility.yul\":656:665   */\n  dup8\n    /* \"#utility.yul\":652:670   */\n  add\n    /* \"#utility.yul\":622:671   */\n  tag_30\n  jump\t// in\ntag_39:\n    /* \"#utility.yul\":612:671   */\n  swap2\n  pop\n    /* \"#utility.yul\":690:740   */\n  tag_40\n    /* \"#utility.yul\":735:738   */\n  0x80\n    /* \"#utility.yul\":724:733   */\n  dup8\n    /* \"#utility.yul\":720:739   */\n  add\n    /* \"#utility.yul\":690:740   */\n  tag_30\n  jump\t// in\ntag_40:\n    /* \"#utility.yul\":680:740   */\n  swap1\n  pop\n    /* \"#utility.yul\":196:746   */\n  swap3\n  swap6\n  pop\n  swap3\n  swap6\n  swap1\n  swap4\n  pop\n  jump\t// out\n    /* \"#utility.yul\":751:1151   */\ntag_31:\n    /* \"Smart-Contracts/PNJC_Free_Router.sol\":648:6563  contract PNJCFeeRouter is AccessControl, ReentrancyGuard {... */\n  dataSize(sub_0)\n  dup1\n  dataOffset(sub_0)\n  0x00\n  codecopy\n  0x00\n  return\nstop\n\nsub_0: assembly {\n        /* \"Smart-Contracts/PNJC_Free_Router.sol\":648:6563  contract PNJCFeeRouter is AccessControl, ReentrancyGuard {... */\n      mstore(0x40, 0x80)\n      jumpi(tag_1, lt(calldatasize, 0x04))\n      shr(0xe0, calldataload(0x00))\n      dup1\n      0x702b0284\n      gt\n      tag_26\n      jumpi\n      dup1\n      0x98118cb4\n      gt\n      tag_27\n      jumpi\n      dup1\n      0x98118cb4\n      eq\n      tag_20\n      jumpi\n      dup1\n      0xa217fddf\n      eq\n      tag_21\n      jumpi\n      dup1\n      0xcfa498a3\n      eq\n      tag_22\n      jumpi\n      dup1\n      0xd1949729\n      eq\n      tag_23\n      jumpi\n      dup1\n      0xd4698016\n      eq\n      tag_24\n      jumpi\n      dup1\n      0xd547741f\n      eq\n      tag_25\n      jumpi\n      0x00\n      dup1\n      revert\n    tag_27:\n      dup1\n      0x702b0284\n      eq\n      tag_14\n      jumpi\n      dup1\n      0x75b238fc\n      eq\n      tag_15\n      jumpi\n      dup1\n      0x79022a9f\n      eq\n      tag_16\n      jumpi\n      dup1\n      0x86d74037\n      eq\n      tag_17\n      jumpi\n      dup1\n      0x8ea5220f\n      eq\n      tag_18\n      jumpi\n      dup1\n      0x91d14854\n      eq\n      tag_19\n      jumpi\n      0x00\n      dup1\n      revert\n    tag_26:\n      dup1\n      0x41497c2b\n      gt\n      tag_28\n      jumpi\n      dup1\n      0x41497c2b\n      eq\n      tag_8\n      jumpi\n      dup1\n      0x4b00ec63\n      eq\n      tag_9\n      jumpi\n      dup1\n      0x5a9a268b\n      eq\n      tag_10\n      jumpi\n      dup1\n      0x5e126c1c\n      eq\n      tag_11\n      jumpi\n      dup1\n      0x6382d9ad\n      eq\n      tag_12\n      jumpi\n      dup1\n      0x6827e764\n      eq\n      tag_13\n      jumpi\n      0x00\n      dup1\n      revert\n    tag_28:\n      dup1\n      0x01ffc9a7\n      eq\n      tag_3\n      jumpi\n      dup1\n      0x248a9ca3\n      eq\n      tag_4\n      jumpi\n      dup1\n      0x2957b839\n      eq\n      tag_5\n      jumpi\n      dup1\n      0x2f2ff15d\n      eq\n      tag_6\n      jumpi\n      dup1\n      0x36568abe\n      eq\n      tag_7\n      jumpi\n      0x00\n      dup1\n      revert\n    tag_1:\n      jumpi(tag_2, calldatasize)\n      stop\n    tag_2:\n      0x00\n      dup1\n      revert\n        /* \"@openzeppelin/contracts@5.6.0/access/AccessControl.sol\":2531:2733  function supportsInterface(bytes4 interfaceId) public view virtual override returns (bool) {... */\n    tag_3:\n      callvalue\n      dup1\n      iszero\n      tag_31\n      jumpi\n      0x00\n      dup1\n      revert\n    tag_31:\n      pop\n      tag_32\n      tag_33\n      calldatasize\n      0x04\n      tag_34\n      jump\t// in\n    tag_33:\n      tag_35\n      jump\t// in\n    tag_32:\n      mload(0x40)\n        /* \"#utility.yul\":470:484   */\n      swap1\n      iszero\n        /* \"#utility.yul\":463:485   */\n      iszero\n        /* \"#utility.yul\":445:486   */\n      dup2\n      mstore\n        /* \"#utility.yul\":433:435   */\n      0x20\n        /* \"#utility.yul\":418:436   */\n      add\n        /* \"@openzeppelin/contracts@5.6.0/access/AccessControl.sol\":2531:2733  function supportsInterface(bytes4 interfaceId) public view virtual override returns (bool) {... */\n    tag_36:\n      mload(0x40)\n      dup1\n      swap2\n      sub\n      swap1\n      return\n        /* \"@openzeppelin/contracts@5.6.0/access/AccessControl.sol\":3776:3896  function getRoleAdmin(bytes32 role) public view virtual returns (bytes32) {... */\n    tag_4:\n      callvalue\n      dup1\n      iszero\n      tag_38\n      jumpi\n      0x00\n      dup1\n      revert\n    tag_38:\n      pop\n      tag_39\n      tag_40\n      calldatasize\n      0x04\n      tag_41\n      jump\t// in\n    tag_40:\n        /* \"@openzeppelin/contracts@5.6.0/access/AccessControl.sol\":3841:3848  bytes32 */\n      0x00\n        /* \"@openzeppelin/contracts@5.6.0/access/AccessControl.sol\":3867:3879  _roles[role] */\n      swap1\n      dup2\n      mstore\n      0x20\n      dup2\n      swap1\n      mstore\n      0x40\n      swap1\n      keccak256\n        /* \"@openzeppelin/contracts@5.6.0/access/AccessControl.sol\":3867:3889  _roles[role].adminRole */\n      0x01\n      add\n      sload\n      swap1\n        /* \"@openzeppelin/contracts@5.6.0/access/AccessControl.sol\":3776:3896  function getRoleAdmin(bytes32 role) public view virtual returns (bytes32) {... */\n      jump\n    tag_39:\n      mload(0x40)\n        /* \"#utility.yul\":828:853   */\n      swap1\n      dup2\n      mstore\n        /* \"#utility.yul\":816:818   */\n      0x20\n        /* \"#utility.yul\":801:819   */\n      add\n        /* \"@openzeppelin/contracts@5.6.0/access/AccessControl.sol\":3776:3896  function getRoleAdmin(bytes32 role) public view virtual returns (bytes32) {... */\n      tag_36\n        /* \"#utility.yul\":682:859   */\n      jump\n        /* \"Smart-Contracts/PNJC_Free_Router.sol\":1270:1296  uint256 public daoFee = 50 */\n    tag_5:\n      callvalue\n      dup1\n      iszero\n      tag_45\n      jumpi\n      0x00\n      dup1\n      revert\n    tag_45:\n      pop\n      tag_39\n      sload(0x08)\n      dup2\n      jump\n        /* \"@openzeppelin/contracts@5.6.0/access/AccessControl.sol\":4192:4328  function grantRole(bytes32 role, address account) public virtual onlyRole(getRoleAdmin(role)) {... */\n    tag_6:\n      callvalue\n      dup1\n      iszero\n      tag_50\n      jumpi\n      0x00\n      dup1\n      revert\n    tag_50:\n      pop\n      tag_51\n      tag_52\n      calldatasize\n      0x04\n      tag_53\n      jump\t// in\n    tag_52:\n      tag_54\n      jump\t// in\n    tag_51:\n      stop\n        /* \"@openzeppelin/contracts@5.6.0/access/AccessControl.sol\":5294:5539  function renounceRole(bytes32 role, address callerConfirmation) public virtual {... */\n    tag_7:\n      callvalue\n      dup1\n      iszero\n      tag_55\n      jumpi\n      0x00\n      dup1\n      revert\n    tag_55:\n      pop\n      tag_51\n      tag_57\n      calldatasize\n      0x04\n      tag_53\n      jump\t// in\n    tag_57:\n      tag_58\n      jump\t// in\n        /* \"Smart-Contracts/PNJC_Free_Router.sol\":4956:5445  function updateBeneficiaries(... */\n    tag_8:\n      callvalue\n      dup1\n      iszero\n      tag_59\n      jumpi\n      0x00\n      dup1\n      revert\n    tag_59:\n      pop\n      tag_51\n      tag_61\n      calldatasize\n      0x04\n      tag_62\n      jump\t// in\n    tag_61:\n      tag_63\n      jump\t// in\n        /* \"Smart-Contracts/PNJC_Free_Router.sol\":5571:6051  function updateRates(... */\n    tag_9:\n      callvalue\n      dup1\n      iszero\n      tag_64\n      jumpi\n      0x00\n      dup1\n      revert\n    tag_64:\n      pop\n      tag_51\n      tag_66\n      calldatasize\n      0x04\n      tag_67\n      jump\t// in\n    tag_66:\n      tag_68\n      jump\t// in\n        /* \"Smart-Contracts/PNJC_Free_Router.sol\":2598:2842  function distributeNative() external nonReentrant {... */\n    tag_10:\n      callvalue\n      dup1\n      iszero\n      tag_69\n      jumpi\n      0x00\n      dup1\n      revert\n    tag_69:\n      pop\n      tag_51\n      tag_71\n      jump\t// in\n        /* \"Smart-Contracts/PNJC_Free_Router.sol\":902:932  address public clownCareWallet */\n    tag_11:\n      callvalue\n      dup1\n      iszero\n      tag_72\n      jumpi\n      0x00\n      dup1\n      revert\n    tag_72:\n      pop\n      sload(0x01)\n      tag_73\n      swap1\n      sub(shl(0xa0, 0x01), 0x01)\n      and\n      dup2\n      jump\n    tag_73:\n      mload(0x40)\n      sub(shl(0xa0, 0x01), 0x01)\n        /* \"#utility.yul\":2451:2483   */\n      swap1\n      swap2\n      and\n        /* \"#utility.yul\":2433:2484   */\n      dup2\n      mstore\n        /* \"#utility.yul\":2421:2423   */\n      0x20\n        /* \"#utility.yul\":2406:2424   */\n      add\n        /* \"Smart-Contracts/PNJC_Free_Router.sol\":902:932  address public clownCareWallet */\n      tag_36\n        /* \"#utility.yul\":2287:2490   */\n      jump\n        /* \"Smart-Contracts/PNJC_Free_Router.sol\":6143:6560  function emergencyWithdraw(address token, address to) external onlyRole(DEFAULT_ADMIN_ROLE) {... */\n    tag_12:\n      callvalue\n      dup1\n      iszero\n      tag_77\n      jumpi\n      0x00\n      dup1\n      revert\n    tag_77:\n      pop\n      tag_51\n      tag_79\n      calldatasize\n      0x04\n      tag_80\n      jump\t// in\n    tag_79:\n      tag_81\n      jump\t// in\n        /* \"Smart-Contracts/PNJC_Free_Router.sol\":1219:1246  uint256 public devFee = 100 */\n    tag_13:\n      callvalue\n      dup1\n      iszero\n      tag_82\n      jumpi\n      0x00\n      dup1\n      revert\n    tag_82:\n      pop\n      tag_39\n      sload(0x07)\n      dup2\n      jump\n        /* \"Smart-Contracts/PNJC_Free_Router.sol\":1390:1438  uint256 public constant MAX_TOTAL_FEE_CAP = 1500 */\n    tag_14:\n      callvalue\n      dup1\n      iszero\n      tag_86\n      jumpi\n      0x00\n      dup1\n      revert\n    tag_86:\n      pop\n      tag_39\n        /* \"Smart-Contracts/PNJC_Free_Router.sol\":1434:1438  1500 */\n      0x05dc\n        /* \"Smart-Contracts/PNJC_Free_Router.sol\":1390:1438  uint256 public constant MAX_TOTAL_FEE_CAP = 1500 */\n      dup2\n      jump\n        /* \"Smart-Contracts/PNJC_Free_Router.sol\":780:840  bytes32 public constant ADMIN_ROLE = keccak256(\"ADMIN_ROLE\") */\n    tag_15:\n      callvalue\n      dup1\n      iszero\n      tag_90\n      jumpi\n      0x00\n      dup1\n      revert\n    tag_90:\n      pop\n      tag_39\n        /* \"Smart-Contracts/PNJC_Free_Router.sol\":817:840  keccak256(\"ADMIN_ROLE\") */\n      0xa49807205ce4d355092ef5a8a18f56e8913cf4a201fbe287825b095693c21775\n        /* \"Smart-Contracts/PNJC_Free_Router.sol\":780:840  bytes32 public constant ADMIN_ROLE = keccak256(\"ADMIN_ROLE\") */\n      dup2\n      jump\n        /* \"Smart-Contracts/PNJC_Free_Router.sol\":1007:1033  address public daoTreasury */\n    tag_16:\n      callvalue\n      dup1\n      iszero\n      tag_94\n      jumpi\n      0x00\n      dup1\n      revert\n    tag_94:\n      pop\n      sload(0x04)\n      tag_73\n      swap1\n      sub(shl(0xa0, 0x01), 0x01)\n      and\n      dup2\n      jump\n        /* \"Smart-Contracts/PNJC_Free_Router.sol\":3013:3355  function distributeToken(address token) external nonReentrant {... */\n    tag_17:\n      callvalue\n      dup1\n      iszero\n      tag_98\n      jumpi\n      0x00\n      dup1\n      revert\n    tag_98:\n      pop\n      tag_51\n      tag_100\n      calldatasize\n      0x04\n      tag_101\n      jump\t// in\n    tag_100:\n      tag_102\n      jump\t// in\n        /* \"Smart-Contracts/PNJC_Free_Router.sol\":976:1000  address public devWallet */\n    tag_18:\n      callvalue\n      dup1\n      iszero\n      tag_103\n      jumpi\n      0x00\n      dup1\n      revert\n    tag_103:\n      pop\n      sload(0x03)\n      tag_73\n      swap1\n      sub(shl(0xa0, 0x01), 0x01)\n      and\n      dup2\n      jump\n        /* \"@openzeppelin/contracts@5.6.0/access/AccessControl.sol\":2820:2956  function hasRole(bytes32 role, address account) public view virtual returns (bool) {... */\n    tag_19:\n      callvalue\n      dup1\n      iszero\n      tag_107\n      jumpi\n      0x00\n      dup1\n      revert\n    tag_107:\n      pop\n      tag_32\n      tag_109\n      calldatasize\n      0x04\n      tag_53\n      jump\t// in\n    tag_109:\n      tag_110\n      jump\t// in\n        /* \"Smart-Contracts/PNJC_Free_Router.sol\":1168:1201  uint256 public liquidityFee = 100 */\n    tag_20:\n      callvalue\n      dup1\n      iszero\n      tag_112\n      jumpi\n      0x00\n      dup1\n      revert\n    tag_112:\n      pop\n      tag_39\n      sload(0x06)\n      dup2\n      jump\n        /* \"@openzeppelin/contracts@5.6.0/access/AccessControl.sol\":2187:2236  bytes32 public constant DEFAULT_ADMIN_ROLE = 0x00 */\n    tag_21:\n      callvalue\n      dup1\n      iszero\n      tag_116\n      jumpi\n      0x00\n      dup1\n      revert\n    tag_116:\n      pop\n      tag_39\n        /* \"@openzeppelin/contracts@5.6.0/access/AccessControl.sol\":2232:2236  0x00 */\n      0x00\n        /* \"@openzeppelin/contracts@5.6.0/access/AccessControl.sol\":2187:2236  bytes32 public constant DEFAULT_ADMIN_ROLE = 0x00 */\n      dup2\n      jump\n        /* \"Smart-Contracts/PNJC_Free_Router.sol\":1327:1383  uint256 public constant BASIS_POINTS_DENOMINATOR = 10000 */\n    tag_22:\n      callvalue\n      dup1\n      iszero\n      tag_120\n      jumpi\n      0x00\n      dup1\n      revert\n    tag_120:\n      pop\n      tag_39\n        /* \"Smart-Contracts/PNJC_Free_Router.sol\":1378:1383  10000 */\n      0x2710\n        /* \"Smart-Contracts/PNJC_Free_Router.sol\":1327:1383  uint256 public constant BASIS_POINTS_DENOMINATOR = 10000 */\n      dup2\n      jump\n        /* \"Smart-Contracts/PNJC_Free_Router.sol\":1118:1151  uint256 public clownCareFee = 200 */\n    tag_23:\n      callvalue\n      dup1\n      iszero\n      tag_124\n      jumpi\n      0x00\n      dup1\n      revert\n    tag_124:\n      pop\n      tag_39\n      sload(0x05)\n      dup2\n      jump\n        /* \"Smart-Contracts/PNJC_Free_Router.sol\":939:969  address public liquidityWallet */\n    tag_24:\n      callvalue\n      dup1\n      iszero\n      tag_128\n      jumpi\n      0x00\n      dup1\n      revert\n    tag_128:\n      pop\n      sload(0x02)\n      tag_73\n      swap1\n      sub(shl(0xa0, 0x01), 0x01)\n      and\n      dup2\n      jump\n        /* \"@openzeppelin/contracts@5.6.0/access/AccessControl.sol\":4608:4746  function revokeRole(bytes32 role, address account) public virtual onlyRole(getRoleAdmin(role)) {... */\n    tag_25:\n      callvalue\n      dup1\n      iszero\n      tag_132\n      jumpi\n      0x00\n      dup1\n      revert\n    tag_132:\n      pop\n      tag_51\n      tag_134\n      calldatasize\n      0x04\n      tag_53\n      jump\t// in\n    tag_134:\n      tag_135\n      jump\t// in\n        /* \"@openzeppelin/contracts@5.6.0/access/AccessControl.sol\":2531:2733  function supportsInterface(bytes4 interfaceId) public view virtual override returns (bool) {... */\n    tag_35:\n        /* \"@openzeppelin/contracts@5.6.0/access/AccessControl.sol\":2616:2620  bool */\n      0x00\n      not(sub(shl(0xe0, 0x01), 0x01))\n        /* \"@openzeppelin/contracts@5.6.0/access/AccessControl.sol\":2639:2686  interfaceId == type(IAccessControl).interfaceId */\n      dup3\n      and\n      shl(0xe0, 0x7965db0b)\n      eq\n      dup1\n        /* \"@openzeppelin/contracts@5.6.0/access/AccessControl.sol\":2639:2726  interfaceId == type(IAccessControl).interfaceId || super.supportsInterface(interfaceId) */\n      tag_138\n      jumpi\n      pop\n      shl(0xe0, 0x01ffc9a7)\n      not(sub(shl(0xe0, 0x01), 0x01))\n        /* \"@openzeppelin/contracts@5.6.0/utils/introspection/ERC165.sol\":829:869  interfaceId == type(IERC165).interfaceId */\n      dup4\n      and\n      eq\n        /* \"@openzeppelin/contracts@5.6.0/access/AccessControl.sol\":2690:2726  super.supportsInterface(interfaceId) */\n    tag_138:\n        /* \"@openzeppelin/contracts@5.6.0/access/AccessControl.sol\":2632:2726  return interfaceId == type(IAccessControl).interfaceId || super.supportsInterface(interfaceId) */\n      swap3\n        /* \"@openzeppelin/contracts@5.6.0/access/AccessControl.sol\":2531:2733  function supportsInterface(bytes4 interfaceId) public view virtual override returns (bool) {... */\n      swap2\n      pop\n      pop\n      jump\t// out\n        /* \"@openzeppelin/contracts@5.6.0/access/AccessControl.sol\":4192:4328  function grantRole(bytes32 role, address account) public virtual onlyRole(getRoleAdmin(role)) {... */\n    tag_54:\n        /* \"@openzeppelin/contracts@5.6.0/access/AccessControl.sol\":3841:3848  bytes32 */\n      0x00\n        /* \"@openzeppelin/contracts@5.6.0/access/AccessControl.sol\":3867:3879  _roles[role] */\n      dup3\n      dup2\n      mstore\n      0x20\n      dup2\n      swap1\n      mstore\n      0x40\n      swap1\n      keccak256\n        /* \"@openzeppelin/contracts@5.6.0/access/AccessControl.sol\":3867:3889  _roles[role].adminRole */\n      0x01\n      add\n      sload\n        /* \"@openzeppelin/contracts@5.6.0/access/AccessControl.sol\":2464:2480  _checkRole(role) */\n      tag_143\n        /* \"@openzeppelin/contracts@5.6.0/access/AccessControl.sol\":2475:2479  role */\n      dup2\n        /* \"@openzeppelin/contracts@5.6.0/access/AccessControl.sol\":2464:2474  _checkRole */\n      tag_144\n        /* \"@openzeppelin/contracts@5.6.0/access/AccessControl.sol\":2464:2480  _checkRole(role) */\n      jump\t// in\n    tag_143:\n        /* \"@openzeppelin/contracts@5.6.0/access/AccessControl.sol\":4296:4321  _grantRole(role, account) */\n      tag_146\n        /* \"@openzeppelin/contracts@5.6.0/access/AccessControl.sol\":4307:4311  role */\n      dup4\n        /* \"@openzeppelin/contracts@5.6.0/access/AccessControl.sol\":4313:4320  account */\n      dup4\n        /* \"@openzeppelin/contracts@5.6.0/access/AccessControl.sol\":4296:4306  _grantRole */\n      tag_147\n        /* \"@openzeppelin/contracts@5.6.0/access/AccessControl.sol\":4296:4321  _grantRole(role, account) */\n      jump\t// in\n    tag_146:\n      pop\n        /* \"@openzeppelin/contracts@5.6.0/access/AccessControl.sol\":4192:4328  function grantRole(bytes32 role, address account) public virtual onlyRole(getRoleAdmin(role)) {... */\n      pop\n      pop\n      pop\n      jump\t// out\n        /* \"@openzeppelin/contracts@5.6.0/access/AccessControl.sol\":5294:5539  function renounceRole(bytes32 role, address callerConfirmation) public virtual {... */\n    tag_58:\n      sub(shl(0xa0, 0x01), 0x01)\n        /* \"@openzeppelin/contracts@5.6.0/access/AccessControl.sol\":5387:5421  callerConfirmation != _msgSender() */\n      dup2\n      and\n        /* \"@openzeppelin/contracts@5.6.0/utils/Context.sol\":735:745  msg.sender */\n      caller\n        /* \"@openzeppelin/contracts@5.6.0/access/AccessControl.sol\":5387:5421  callerConfirmation != _msgSender() */\n      eq\n        /* \"@openzeppelin/contracts@5.6.0/access/AccessControl.sol\":5383:5485  if (callerConfirmation != _msgSender()) {... */\n      tag_151\n      jumpi\n        /* \"@openzeppelin/contracts@5.6.0/access/AccessControl.sol\":5444:5474  AccessControlBadConfirmation() */\n      mload(0x40)\n      shl(0xe1, 0x334bd919)\n      dup2\n      mstore\n      0x04\n      add\n      mload(0x40)\n      dup1\n      swap2\n      sub\n      swap1\n      revert\n        /* \"@openzeppelin/contracts@5.6.0/access/AccessControl.sol\":5383:5485  if (callerConfirmation != _msgSender()) {... */\n    tag_151:\n        /* \"@openzeppelin/contracts@5.6.0/access/AccessControl.sol\":5495:5532  _revokeRole(role, callerConfirmation) */\n      tag_152\n        /* \"@openzeppelin/contracts@5.6.0/access/AccessControl.sol\":5507:5511  role */\n      dup3\n        /* \"@openzeppelin/contracts@5.6.0/access/AccessControl.sol\":5513:5531  callerConfirmation */\n      dup3\n        /* \"@openzeppelin/contracts@5.6.0/access/AccessControl.sol\":5495:5506  _revokeRole */\n      tag_153\n        /* \"@openzeppelin/contracts@5.6.0/access/AccessControl.sol\":5495:5532  _revokeRole(role, callerConfirmation) */\n      jump\t// in\n    tag_152:\n      pop\n        /* \"@openzeppelin/contracts@5.6.0/access/AccessControl.sol\":5294:5539  function renounceRole(bytes32 role, address callerConfirmation) public virtual {... */\n      pop\n      pop\n      jump\t// out\n        /* \"Smart-Contracts/PNJC_Free_Router.sol\":4956:5445  function updateBeneficiaries(... */\n    tag_63:\n        /* \"Smart-Contracts/PNJC_Free_Router.sol\":817:840  keccak256(\"ADMIN_ROLE\") */\n      0xa49807205ce4d355092ef5a8a18f56e8913cf4a201fbe287825b095693c21775\n        /* \"@openzeppelin/contracts@5.6.0/access/AccessControl.sol\":2464:2480  _checkRole(role) */\n      tag_155\n        /* \"@openzeppelin/contracts@5.6.0/access/AccessControl.sol\":2475:2479  role */\n      dup2\n        /* \"@openzeppelin/contracts@5.6.0/access/AccessControl.sol\":2464:2474  _checkRole */\n      tag_144\n        /* \"@openzeppelin/contracts@5.6.0/access/AccessControl.sol\":2464:2480  _checkRole(role) */\n      jump\t// in\n    tag_155:\n      sub(shl(0xa0, 0x01), 0x01)\n        /* \"Smart-Contracts/PNJC_Free_Router.sol\":5144:5168  _clownCare == address(0) */\n      dup6\n      and\n      iszero\n      dup1\n        /* \"Smart-Contracts/PNJC_Free_Router.sol\":5144:5196  _clownCare == address(0) || _liquidity == address(0) */\n      tag_157\n      jumpi\n      pop\n      sub(shl(0xa0, 0x01), 0x01)\n        /* \"Smart-Contracts/PNJC_Free_Router.sol\":5172:5196  _liquidity == address(0) */\n      dup5\n      and\n      iszero\n        /* \"Smart-Contracts/PNJC_Free_Router.sol\":5144:5196  _clownCare == address(0) || _liquidity == address(0) */\n    tag_157:\n        /* \"Smart-Contracts/PNJC_Free_Router.sol\":5140:5231  if (_clownCare == address(0) || _liquidity == address(0)) revert(\"Router: Invalid address\") */\n      iszero\n      tag_158\n      jumpi\n        /* \"Smart-Contracts/PNJC_Free_Router.sol\":5198:5231  revert(\"Router: Invalid address\") */\n      mload(0x40)\n      shl(0xe5, 0x461bcd)\n      dup2\n      mstore\n        /* \"#utility.yul\":3153:3155   */\n      0x20\n        /* \"Smart-Contracts/PNJC_Free_Router.sol\":5198:5231  revert(\"Router: Invalid address\") */\n      0x04\n      dup3\n      add\n        /* \"#utility.yul\":3135:3156   */\n      mstore\n        /* \"#utility.yul\":3192:3194   */\n      0x17\n        /* \"#utility.yul\":3172:3190   */\n      0x24\n      dup3\n      add\n        /* \"#utility.yul\":3165:3195   */\n      mstore\n        /* \"#utility.yul\":3231:3256   */\n      0x526f757465723a20496e76616c69642061646472657373000000000000000000\n        /* \"#utility.yul\":3211:3229   */\n      0x44\n      dup3\n      add\n        /* \"#utility.yul\":3204:3257   */\n      mstore\n        /* \"#utility.yul\":3274:3292   */\n      0x64\n      add\n        /* \"Smart-Contracts/PNJC_Free_Router.sol\":5198:5231  revert(\"Router: Invalid address\") */\n    tag_159:\n      mload(0x40)\n      dup1\n      swap2\n      sub\n      swap1\n      revert\n        /* \"Smart-Contracts/PNJC_Free_Router.sol\":5140:5231  if (_clownCare == address(0) || _liquidity == address(0)) revert(\"Router: Invalid address\") */\n    tag_158:\n        /* \"Smart-Contracts/PNJC_Free_Router.sol\":5242:5257  clownCareWallet */\n      0x01\n        /* \"Smart-Contracts/PNJC_Free_Router.sol\":5242:5270  clownCareWallet = _clownCare */\n      dup1\n      sload\n      sub(shl(0xa0, 0x01), 0x01)\n      dup8\n      dup2\n      and\n      not(sub(shl(0xa0, 0x01), 0x01))\n      swap3\n      dup4\n      and\n      dup2\n      or\n      swap1\n      swap4\n      sstore\n        /* \"Smart-Contracts/PNJC_Free_Router.sol\":5281:5296  liquidityWallet */\n      0x02\n        /* \"Smart-Contracts/PNJC_Free_Router.sol\":5281:5309  liquidityWallet = _liquidity */\n      dup1\n      sload\n      dup9\n      dup4\n      and\n      swap1\n      dup5\n      and\n      dup2\n      or\n      swap1\n      swap2\n      sstore\n        /* \"Smart-Contracts/PNJC_Free_Router.sol\":5320:5329  devWallet */\n      0x03\n        /* \"Smart-Contracts/PNJC_Free_Router.sol\":5320:5336  devWallet = _dev */\n      dup1\n      sload\n      dup9\n      dup5\n      and\n      swap1\n      dup6\n      and\n      dup2\n      or\n      swap1\n      swap2\n      sstore\n        /* \"Smart-Contracts/PNJC_Free_Router.sol\":5347:5358  daoTreasury */\n      0x04\n        /* \"Smart-Contracts/PNJC_Free_Router.sol\":5347:5365  daoTreasury = _dao */\n      dup1\n      sload\n      swap4\n      dup9\n      and\n      swap4\n      swap1\n      swap5\n      and\n      dup4\n      or\n      swap1\n      swap4\n      sstore\n        /* \"Smart-Contracts/PNJC_Free_Router.sol\":5381:5437  BeneficiariesUpdated(_clownCare, _liquidity, _dev, _dao) */\n      0x40\n      dup1\n      mload\n        /* \"#utility.yul\":3572:3606   */\n      swap5\n      dup6\n      mstore\n        /* \"#utility.yul\":3637:3639   */\n      0x20\n        /* \"#utility.yul\":3622:3640   */\n      dup6\n      add\n        /* \"#utility.yul\":3615:3658   */\n      swap2\n      swap1\n      swap2\n      mstore\n        /* \"#utility.yul\":3674:3692   */\n      dup4\n      add\n        /* \"#utility.yul\":3667:3710   */\n      swap2\n      swap1\n      swap2\n      mstore\n        /* \"#utility.yul\":3741:3743   */\n      0x60\n        /* \"#utility.yul\":3726:3744   */\n      dup3\n      add\n        /* \"#utility.yul\":3719:3762   */\n      mstore\n        /* \"Smart-Contracts/PNJC_Free_Router.sol\":5381:5437  BeneficiariesUpdated(_clownCare, _liquidity, _dev, _dao) */\n      0x79682415cfa64e052618862f7b7011cf1953948315f402b476e7bacac0417e64\n      swap1\n        /* \"#utility.yul\":3521:3524   */\n      0x80\n        /* \"#utility.yul\":3506:3525   */\n      add\n        /* \"Smart-Contracts/PNJC_Free_Router.sol\":5381:5437  BeneficiariesUpdated(_clownCare, _liquidity, _dev, _dao) */\n    tag_161:\n      mload(0x40)\n      dup1\n      swap2\n      sub\n      swap1\n      log1\n        /* \"Smart-Contracts/PNJC_Free_Router.sol\":4956:5445  function updateBeneficiaries(... */\n      pop\n      pop\n      pop\n      pop\n      pop\n      jump\t// out\n        /* \"Smart-Contracts/PNJC_Free_Router.sol\":5571:6051  function updateRates(... */\n    tag_68:\n        /* \"Smart-Contracts/PNJC_Free_Router.sol\":817:840  keccak256(\"ADMIN_ROLE\") */\n      0xa49807205ce4d355092ef5a8a18f56e8913cf4a201fbe287825b095693c21775\n        /* \"@openzeppelin/contracts@5.6.0/access/AccessControl.sol\":2464:2480  _checkRole(role) */\n      tag_164\n        /* \"@openzeppelin/contracts@5.6.0/access/AccessControl.sol\":2475:2479  role */\n      dup2\n        /* \"@openzeppelin/contracts@5.6.0/access/AccessControl.sol\":2464:2474  _checkRole */\n      tag_144\n        /* \"@openzeppelin/contracts@5.6.0/access/AccessControl.sol\":2464:2480  _checkRole(role) */\n      jump\t// in\n    tag_164:\n        /* \"Smart-Contracts/PNJC_Free_Router.sol\":1434:1438  1500 */\n      0x05dc\n        /* \"Smart-Contracts/PNJC_Free_Router.sol\":5784:5788  _dao */\n      dup3\n        /* \"Smart-Contracts/PNJC_Free_Router.sol\":5777:5781  _dev */\n      dup5\n        /* \"Smart-Contracts/PNJC_Free_Router.sol\":5751:5774  _clownCare + _liquidity */\n      tag_166\n        /* \"Smart-Contracts/PNJC_Free_Router.sol\":5764:5774  _liquidity */\n      dup8\n        /* \"Smart-Contracts/PNJC_Free_Router.sol\":5751:5761  _clownCare */\n      dup10\n        /* \"Smart-Contracts/PNJC_Free_Router.sol\":5751:5774  _clownCare + _liquidity */\n      tag_167\n      jump\t// in\n    tag_166:\n        /* \"Smart-Contracts/PNJC_Free_Router.sol\":5751:5781  _clownCare + _liquidity + _dev */\n      tag_168\n      swap2\n      swap1\n      tag_167\n      jump\t// in\n    tag_168:\n        /* \"Smart-Contracts/PNJC_Free_Router.sol\":5751:5788  _clownCare + _liquidity + _dev + _dao */\n      tag_169\n      swap2\n      swap1\n      tag_167\n      jump\t// in\n    tag_169:\n        /* \"Smart-Contracts/PNJC_Free_Router.sol\":5751:5808  _clownCare + _liquidity + _dev + _dao > MAX_TOTAL_FEE_CAP */\n      gt\n        /* \"Smart-Contracts/PNJC_Free_Router.sol\":5747:5839  if (_clownCare + _liquidity + _dev + _dao > MAX_TOTAL_FEE_CAP) revert(\"Router: Exceeds cap\") */\n      iszero\n      tag_170\n      jumpi\n        /* \"Smart-Contracts/PNJC_Free_Router.sol\":5810:5839  revert(\"Router: Exceeds cap\") */\n      mload(0x40)\n      shl(0xe5, 0x461bcd)\n      dup2\n      mstore\n        /* \"#utility.yul\":4237:4239   */\n      0x20\n        /* \"Smart-Contracts/PNJC_Free_Router.sol\":5810:5839  revert(\"Router: Exceeds cap\") */\n      0x04\n      dup3\n      add\n        /* \"#utility.yul\":4219:4240   */\n      mstore\n        /* \"#utility.yul\":4276:4278   */\n      0x13\n        /* \"#utility.yul\":4256:4274   */\n      0x24\n      dup3\n      add\n        /* \"#utility.yul\":4249:4279   */\n      mstore\n      shl(0x6c, 0x0526f757465723a20457863656564732063617)\n        /* \"#utility.yul\":4295:4313   */\n      0x44\n      dup3\n      add\n        /* \"#utility.yul\":4288:4337   */\n      mstore\n        /* \"#utility.yul\":4354:4372   */\n      0x64\n      add\n        /* \"Smart-Contracts/PNJC_Free_Router.sol\":5810:5839  revert(\"Router: Exceeds cap\") */\n      tag_159\n        /* \"#utility.yul\":4035:4378   */\n      jump\n        /* \"Smart-Contracts/PNJC_Free_Router.sol\":5747:5839  if (_clownCare + _liquidity + _dev + _dao > MAX_TOTAL_FEE_CAP) revert(\"Router: Exceeds cap\") */\n    tag_170:\n        /* \"Smart-Contracts/PNJC_Free_Router.sol\":5860:5872  clownCareFee */\n      0x05\n        /* \"Smart-Contracts/PNJC_Free_Router.sol\":5860:5885  clownCareFee = _clownCare */\n      dup6\n      swap1\n      sstore\n        /* \"Smart-Contracts/PNJC_Free_Router.sol\":5896:5908  liquidityFee */\n      0x06\n        /* \"Smart-Contracts/PNJC_Free_Router.sol\":5896:5921  liquidityFee = _liquidity */\n      dup5\n      swap1\n      sstore\n        /* \"Smart-Contracts/PNJC_Free_Router.sol\":5932:5938  devFee */\n      0x07\n        /* \"Smart-Contracts/PNJC_Free_Router.sol\":5932:5945  devFee = _dev */\n      dup4\n      swap1\n      sstore\n        /* \"Smart-Contracts/PNJC_Free_Router.sol\":5956:5962  daoFee */\n      0x08\n        /* \"Smart-Contracts/PNJC_Free_Router.sol\":5956:5969  daoFee = _dao */\n      dup3\n      swap1\n      sstore\n        /* \"Smart-Contracts/PNJC_Free_Router.sol\":5995:6043  RatesUpdated(_clownCare, _liquidity, _dev, _dao) */\n      0x40\n      dup1\n      mload\n        /* \"#utility.yul\":4614:4639   */\n      dup7\n      dup2\n      mstore\n        /* \"#utility.yul\":4670:4672   */\n      0x20\n        /* \"#utility.yul\":4655:4673   */\n      dup2\n      add\n        /* \"#utility.yul\":4648:4682   */\n      dup7\n      swap1\n      mstore\n        /* \"#utility.yul\":4698:4716   */\n      swap1\n      dup2\n      add\n        /* \"#utility.yul\":4691:4725   */\n      dup5\n      swap1\n      mstore\n        /* \"#utility.yul\":4756:4758   */\n      0x60\n        /* \"#utility.yul\":4741:4759   */\n      dup2\n      add\n        /* \"#utility.yul\":4734:4768   */\n      dup4\n      swap1\n      mstore\n        /* \"Smart-Contracts/PNJC_Free_Router.sol\":5995:6043  RatesUpdated(_clownCare, _liquidity, _dev, _dao) */\n      0x83ee137d4eea1eef0029a0cb811df31b555f216d3a45c791729e226eb145a7d5\n      swap1\n        /* \"#utility.yul\":4601:4604   */\n      0x80\n        /* \"#utility.yul\":4586:4605   */\n      add\n        /* \"Smart-Contracts/PNJC_Free_Router.sol\":5995:6043  RatesUpdated(_clownCare, _liquidity, _dev, _dao) */\n      tag_161\n        /* \"#utility.yul\":4383:4774   */\n      jump\n        /* \"Smart-Contracts/PNJC_Free_Router.sol\":2598:2842  function distributeNative() external nonReentrant {... */\n    tag_71:\n        /* \"@openzeppelin/contracts@5.6.0/utils/ReentrancyGuard.sol\":3023:3044  _nonReentrantBefore() */\n      tag_176\n        /* \"@openzeppelin/contracts@5.6.0/utils/ReentrancyGuard.sol\":3023:3042  _nonReentrantBefore */\n      tag_177\n        /* \"@openzeppelin/contracts@5.6.0/utils/ReentrancyGuard.sol\":3023:3044  _nonReentrantBefore() */\n      jump\t// in\n    tag_176:\n        /* \"Smart-Contracts/PNJC_Free_Router.sol\":2677:2698  address(this).balance */\n      selfbalance\n        /* \"Smart-Contracts/PNJC_Free_Router.sol\":2659:2674  uint256 balance */\n      0x00\n        /* \"Smart-Contracts/PNJC_Free_Router.sol\":2713:2725  balance == 0 */\n      dup2\n      swap1\n      sub\n        /* \"Smart-Contracts/PNJC_Free_Router.sol\":2709:2772  if (balance == 0) revert(\"Router: No Native balance available\") */\n      tag_179\n      jumpi\n        /* \"Smart-Contracts/PNJC_Free_Router.sol\":2727:2772  revert(\"Router: No Native balance available\") */\n      mload(0x40)\n      shl(0xe5, 0x461bcd)\n      dup2\n      mstore\n        /* \"#utility.yul\":4981:4983   */\n      0x20\n        /* \"Smart-Contracts/PNJC_Free_Router.sol\":2727:2772  revert(\"Router: No Native balance available\") */\n      0x04\n      dup3\n      add\n        /* \"#utility.yul\":4963:4984   */\n      mstore\n        /* \"#utility.yul\":5020:5022   */\n      0x23\n        /* \"#utility.yul\":5000:5018   */\n      0x24\n      dup3\n      add\n        /* \"#utility.yul\":4993:5023   */\n      mstore\n        /* \"#utility.yul\":5059:5093   */\n      0x526f757465723a204e6f204e61746976652062616c616e636520617661696c61\n        /* \"#utility.yul\":5039:5057   */\n      0x44\n      dup3\n      add\n        /* \"#utility.yul\":5032:5094   */\n      mstore\n      shl(0xe8, 0x626c65)\n        /* \"#utility.yul\":5110:5128   */\n      0x64\n      dup3\n      add\n        /* \"#utility.yul\":5103:5136   */\n      mstore\n        /* \"#utility.yul\":5153:5172   */\n      0x84\n      add\n        /* \"Smart-Contracts/PNJC_Free_Router.sol\":2727:2772  revert(\"Router: No Native balance available\") */\n      tag_159\n        /* \"#utility.yul\":4779:5178   */\n      jump\n        /* \"Smart-Contracts/PNJC_Free_Router.sol\":2709:2772  if (balance == 0) revert(\"Router: No Native balance available\") */\n    tag_179:\n        /* \"Smart-Contracts/PNJC_Free_Router.sol\":2793:2834  _processDistribution(address(0), balance) */\n      tag_182\n        /* \"Smart-Contracts/PNJC_Free_Router.sol\":2822:2823  0 */\n      0x00\n        /* \"Smart-Contracts/PNJC_Free_Router.sol\":2826:2833  balance */\n      dup3\n        /* \"Smart-Contracts/PNJC_Free_Router.sol\":2793:2813  _processDistribution */\n      tag_183\n        /* \"Smart-Contracts/PNJC_Free_Router.sol\":2793:2834  _processDistribution(address(0), balance) */\n      jump\t// in\n    tag_182:\n        /* \"Smart-Contracts/PNJC_Free_Router.sol\":2648:2842  {... */\n      pop\n        /* \"@openzeppelin/contracts@5.6.0/utils/ReentrancyGuard.sol\":3065:3085  _nonReentrantAfter() */\n      tag_184\n        /* \"@openzeppelin/contracts@5.6.0/utils/ReentrancyGuard.sol\":2365:2366  1 */\n      0x01\n      0x00\n      dup1\n      mload\n      0x20\n      data_c8669cf8eaf883002b9f48e28846a8d408c9b58ea6613bace374265e43c9bc43\n      dup4\n      codecopy\n      dup2\n      mload\n      swap2\n      mstore\n        /* \"@openzeppelin/contracts@5.6.0/utils/ReentrancyGuard.sol\":3972:4034  _reentrancyGuardStorageSlot().getUint256Slot().value = ENTERED */\n      sstore\n        /* \"@openzeppelin/contracts@5.6.0/utils/ReentrancyGuard.sol\":3749:4041  function _nonReentrantBefore() private {... */\n      jump\n        /* \"@openzeppelin/contracts@5.6.0/utils/ReentrancyGuard.sol\":3065:3085  _nonReentrantAfter() */\n    tag_184:\n        /* \"Smart-Contracts/PNJC_Free_Router.sol\":2598:2842  function distributeNative() external nonReentrant {... */\n      jump\t// out\n        /* \"Smart-Contracts/PNJC_Free_Router.sol\":6143:6560  function emergencyWithdraw(address token, address to) external onlyRole(DEFAULT_ADMIN_ROLE) {... */\n    tag_81:\n        /* \"@openzeppelin/contracts@5.6.0/access/AccessControl.sol\":2232:2236  0x00 */\n      0x00\n        /* \"@openzeppelin/contracts@5.6.0/access/AccessControl.sol\":2464:2480  _checkRole(role) */\n      tag_187\n        /* \"@openzeppelin/contracts@5.6.0/access/AccessControl.sol\":2232:2236  0x00 */\n      dup2\n        /* \"@openzeppelin/contracts@5.6.0/access/AccessControl.sol\":2464:2474  _checkRole */\n      tag_144\n        /* \"@openzeppelin/contracts@5.6.0/access/AccessControl.sol\":2464:2480  _checkRole(role) */\n      jump\t// in\n    tag_187:\n      sub(shl(0xa0, 0x01), 0x01)\n        /* \"Smart-Contracts/PNJC_Free_Router.sol\":6250:6266  to == address(0) */\n      dup3\n      and\n        /* \"Smart-Contracts/PNJC_Free_Router.sol\":6246:6305  if (to == address(0)) revert(\"Router: Target address zero\") */\n      tag_189\n      jumpi\n        /* \"Smart-Contracts/PNJC_Free_Router.sol\":6268:6305  revert(\"Router: Target address zero\") */\n      mload(0x40)\n      shl(0xe5, 0x461bcd)\n      dup2\n      mstore\n        /* \"#utility.yul\":5385:5387   */\n      0x20\n        /* \"Smart-Contracts/PNJC_Free_Router.sol\":6268:6305  revert(\"Router: Target address zero\") */\n      0x04\n      dup3\n      add\n        /* \"#utility.yul\":5367:5388   */\n      mstore\n        /* \"#utility.yul\":5424:5426   */\n      0x1b\n        /* \"#utility.yul\":5404:5422   */\n      0x24\n      dup3\n      add\n        /* \"#utility.yul\":5397:5427   */\n      mstore\n        /* \"#utility.yul\":5463:5492   */\n      0x526f757465723a205461726765742061646472657373207a65726f0000000000\n        /* \"#utility.yul\":5443:5461   */\n      0x44\n      dup3\n      add\n        /* \"#utility.yul\":5436:5493   */\n      mstore\n        /* \"#utility.yul\":5510:5528   */\n      0x64\n      add\n        /* \"Smart-Contracts/PNJC_Free_Router.sol\":6268:6305  revert(\"Router: Target address zero\") */\n      tag_159\n        /* \"#utility.yul\":5183:5534   */\n      jump\n        /* \"Smart-Contracts/PNJC_Free_Router.sol\":6246:6305  if (to == address(0)) revert(\"Router: Target address zero\") */\n    tag_189:\n      sub(shl(0xa0, 0x01), 0x01)\n        /* \"Smart-Contracts/PNJC_Free_Router.sol\":6320:6339  token == address(0) */\n      dup4\n      and\n        /* \"Smart-Contracts/PNJC_Free_Router.sol\":6316:6553  if (token == address(0)) {... */\n      tag_192\n      jumpi\n        /* \"Smart-Contracts/PNJC_Free_Router.sol\":6356:6398  _dispatchNative(to, address(this).balance) */\n      tag_152\n        /* \"Smart-Contracts/PNJC_Free_Router.sol\":6372:6374  to */\n      dup3\n        /* \"Smart-Contracts/PNJC_Free_Router.sol\":6376:6397  address(this).balance */\n      selfbalance\n        /* \"Smart-Contracts/PNJC_Free_Router.sol\":6356:6371  _dispatchNative */\n      tag_194\n        /* \"Smart-Contracts/PNJC_Free_Router.sol\":6356:6398  _dispatchNative(to, address(this).balance) */\n      jump\t// in\n        /* \"Smart-Contracts/PNJC_Free_Router.sol\":6316:6553  if (token == address(0)) {... */\n    tag_192:\n        /* \"Smart-Contracts/PNJC_Free_Router.sol\":6449:6487  IERC20(token).balanceOf(address(this)) */\n      mload(0x40)\n      shl(0xe0, 0x70a08231)\n      dup2\n      mstore\n        /* \"Smart-Contracts/PNJC_Free_Router.sol\":6481:6485  this */\n      address\n        /* \"Smart-Contracts/PNJC_Free_Router.sol\":6449:6487  IERC20(token).balanceOf(address(this)) */\n      0x04\n      dup3\n      add\n        /* \"#utility.yul\":2433:2484   */\n      mstore\n        /* \"Smart-Contracts/PNJC_Free_Router.sol\":6431:6446  uint256 balance */\n      0x00\n      swap1\n      sub(shl(0xa0, 0x01), 0x01)\n        /* \"Smart-Contracts/PNJC_Free_Router.sol\":6449:6472  IERC20(token).balanceOf */\n      dup6\n      and\n      swap1\n      0x70a08231\n      swap1\n        /* \"#utility.yul\":2406:2424   */\n      0x24\n      add\n        /* \"Smart-Contracts/PNJC_Free_Router.sol\":6449:6487  IERC20(token).balanceOf(address(this)) */\n      0x20\n      mload(0x40)\n      dup1\n      dup4\n      sub\n      dup2\n      dup7\n      gas\n      staticcall\n      iszero\n      dup1\n      iszero\n      tag_198\n      jumpi\n      returndatasize\n      0x00\n      dup1\n      returndatacopy\n      revert(0x00, returndatasize)\n    tag_198:\n      pop\n      pop\n      pop\n      pop\n      mload(0x40)\n      returndatasize\n      not(0x1f)\n      0x1f\n      dup3\n      add\n      and\n      dup3\n      add\n      dup1\n      0x40\n      mstore\n      pop\n      dup2\n      add\n      swap1\n      tag_199\n      swap2\n      swap1\n      tag_200\n      jump\t// in\n    tag_199:\n        /* \"Smart-Contracts/PNJC_Free_Router.sol\":6431:6487  uint256 balance = IERC20(token).balanceOf(address(this)) */\n      swap1\n      pop\n        /* \"Smart-Contracts/PNJC_Free_Router.sol\":6502:6541  IERC20(token).safeTransfer(to, balance) */\n      tag_146\n      sub(shl(0xa0, 0x01), 0x01)\n        /* \"Smart-Contracts/PNJC_Free_Router.sol\":6502:6528  IERC20(token).safeTransfer */\n      dup6\n      and\n        /* \"Smart-Contracts/PNJC_Free_Router.sol\":6529:6531  to */\n      dup5\n        /* \"Smart-Contracts/PNJC_Free_Router.sol\":6431:6487  uint256 balance = IERC20(token).balanceOf(address(this)) */\n      dup4\n        /* \"Smart-Contracts/PNJC_Free_Router.sol\":6502:6528  IERC20(token).safeTransfer */\n      tag_202\n        /* \"Smart-Contracts/PNJC_Free_Router.sol\":6502:6541  IERC20(token).safeTransfer(to, balance) */\n      jump\t// in\n        /* \"Smart-Contracts/PNJC_Free_Router.sol\":3013:3355  function distributeToken(address token) external nonReentrant {... */\n    tag_102:\n        /* \"@openzeppelin/contracts@5.6.0/utils/ReentrancyGuard.sol\":3023:3044  _nonReentrantBefore() */\n      tag_204\n        /* \"@openzeppelin/contracts@5.6.0/utils/ReentrancyGuard.sol\":3023:3042  _nonReentrantBefore */\n      tag_177\n        /* \"@openzeppelin/contracts@5.6.0/utils/ReentrancyGuard.sol\":3023:3044  _nonReentrantBefore() */\n      jump\t// in\n    tag_204:\n      sub(shl(0xa0, 0x01), 0x01)\n        /* \"Smart-Contracts/PNJC_Free_Router.sol\":3090:3109  token == address(0) */\n      dup2\n      and\n        /* \"Smart-Contracts/PNJC_Free_Router.sol\":3086:3150  if (token == address(0)) revert(\"Router: Invalid token address\") */\n      tag_206\n      jumpi\n        /* \"Smart-Contracts/PNJC_Free_Router.sol\":3111:3150  revert(\"Router: Invalid token address\") */\n      mload(0x40)\n      shl(0xe5, 0x461bcd)\n      dup2\n      mstore\n        /* \"#utility.yul\":5930:5932   */\n      0x20\n        /* \"Smart-Contracts/PNJC_Free_Router.sol\":3111:3150  revert(\"Router: Invalid token address\") */\n      0x04\n      dup3\n      add\n        /* \"#utility.yul\":5912:5933   */\n      mstore\n        /* \"#utility.yul\":5969:5971   */\n      0x1d\n        /* \"#utility.yul\":5949:5967   */\n      0x24\n      dup3\n      add\n        /* \"#utility.yul\":5942:5972   */\n      mstore\n        /* \"#utility.yul\":6008:6039   */\n      0x526f757465723a20496e76616c696420746f6b656e2061646472657373000000\n        /* \"#utility.yul\":5988:6006   */\n      0x44\n      dup3\n      add\n        /* \"#utility.yul\":5981:6040   */\n      mstore\n        /* \"#utility.yul\":6057:6075   */\n      0x64\n      add\n        /* \"Smart-Contracts/PNJC_Free_Router.sol\":3111:3150  revert(\"Router: Invalid token address\") */\n      tag_159\n        /* \"#utility.yul\":5728:6081   */\n      jump\n        /* \"Smart-Contracts/PNJC_Free_Router.sol\":3086:3150  if (token == address(0)) revert(\"Router: Invalid token address\") */\n    tag_206:\n        /* \"Smart-Contracts/PNJC_Free_Router.sol\":3179:3217  IERC20(token).balanceOf(address(this)) */\n      mload(0x40)\n      shl(0xe0, 0x70a08231)\n      dup2\n      mstore\n        /* \"Smart-Contracts/PNJC_Free_Router.sol\":3211:3215  this */\n      address\n        /* \"Smart-Contracts/PNJC_Free_Router.sol\":3179:3217  IERC20(token).balanceOf(address(this)) */\n      0x04\n      dup3\n      add\n        /* \"#utility.yul\":2433:2484   */\n      mstore\n        /* \"Smart-Contracts/PNJC_Free_Router.sol\":3161:3176  uint256 balance */\n      0x00\n      swap1\n      sub(shl(0xa0, 0x01), 0x01)\n        /* \"Smart-Contracts/PNJC_Free_Router.sol\":3179:3202  IERC20(token).balanceOf */\n      dup4\n      and\n      swap1\n      0x70a08231\n      swap1\n        /* \"#utility.yul\":2406:2424   */\n      0x24\n      add\n        /* \"Smart-Contracts/PNJC_Free_Router.sol\":3179:3217  IERC20(token).balanceOf(address(this)) */\n      0x20\n      mload(0x40)\n      dup1\n      dup4\n      sub\n      dup2\n      dup7\n      gas\n      staticcall\n      iszero\n      dup1\n      iszero\n      tag_211\n      jumpi\n      returndatasize\n      0x00\n      dup1\n      returndatacopy\n      revert(0x00, returndatasize)\n    tag_211:\n      pop\n      pop\n      pop\n      pop\n      mload(0x40)\n      returndatasize\n      not(0x1f)\n      0x1f\n      dup3\n      add\n      and\n      dup3\n      add\n      dup1\n      0x40\n      mstore\n      pop\n      dup2\n      add\n      swap1\n      tag_212\n      swap2\n      swap1\n      tag_200\n      jump\t// in\n    tag_212:\n        /* \"Smart-Contracts/PNJC_Free_Router.sol\":3161:3217  uint256 balance = IERC20(token).balanceOf(address(this)) */\n      swap1\n      pop\n        /* \"Smart-Contracts/PNJC_Free_Router.sol\":3232:3239  balance */\n      dup1\n        /* \"Smart-Contracts/PNJC_Free_Router.sol\":3243:3244  0 */\n      0x00\n        /* \"Smart-Contracts/PNJC_Free_Router.sol\":3232:3244  balance == 0 */\n      sub\n        /* \"Smart-Contracts/PNJC_Free_Router.sol\":3228:3290  if (balance == 0) revert(\"Router: No token balance available\") */\n      tag_213\n      jumpi\n        /* \"Smart-Contracts/PNJC_Free_Router.sol\":3246:3290  revert(\"Router: No token balance available\") */\n      mload(0x40)\n      shl(0xe5, 0x461bcd)\n      dup2\n      mstore\n        /* \"#utility.yul\":6288:6290   */\n      0x20\n        /* \"Smart-Contracts/PNJC_Free_Router.sol\":3246:3290  revert(\"Router: No token balance available\") */\n      0x04\n      dup3\n      add\n        /* \"#utility.yul\":6270:6291   */\n      mstore\n        /* \"#utility.yul\":6327:6329   */\n      0x22\n        /* \"#utility.yul\":6307:6325   */\n      0x24\n      dup3\n      add\n        /* \"#utility.yul\":6300:6330   */\n      mstore\n        /* \"#utility.yul\":6366:6400   */\n      0x526f757465723a204e6f20746f6b656e2062616c616e636520617661696c6162\n        /* \"#utility.yul\":6346:6364   */\n      0x44\n      dup3\n      add\n        /* \"#utility.yul\":6339:6401   */\n      mstore\n      shl(0xf0, 0x6c65)\n        /* \"#utility.yul\":6417:6435   */\n      0x64\n      dup3\n      add\n        /* \"#utility.yul\":6410:6442   */\n      mstore\n        /* \"#utility.yul\":6459:6478   */\n      0x84\n      add\n        /* \"Smart-Contracts/PNJC_Free_Router.sol\":3246:3290  revert(\"Router: No token balance available\") */\n      tag_159\n        /* \"#utility.yul\":6086:6484   */\n      jump\n        /* \"Smart-Contracts/PNJC_Free_Router.sol\":3228:3290  if (balance == 0) revert(\"Router: No token balance available\") */\n    tag_213:\n        /* \"Smart-Contracts/PNJC_Free_Router.sol\":3311:3347  _processDistribution(token, balance) */\n      tag_216\n        /* \"Smart-Contracts/PNJC_Free_Router.sol\":3332:3337  token */\n      dup3\n        /* \"Smart-Contracts/PNJC_Free_Router.sol\":3339:3346  balance */\n      dup3\n        /* \"Smart-Contracts/PNJC_Free_Router.sol\":3311:3331  _processDistribution */\n      tag_183\n        /* \"Smart-Contracts/PNJC_Free_Router.sol\":3311:3347  _processDistribution(token, balance) */\n      jump\t// in\n    tag_216:\n        /* \"Smart-Contracts/PNJC_Free_Router.sol\":3075:3355  {... */\n      pop\n        /* \"@openzeppelin/contracts@5.6.0/utils/ReentrancyGuard.sol\":3065:3085  _nonReentrantAfter() */\n      tag_217\n        /* \"@openzeppelin/contracts@5.6.0/utils/ReentrancyGuard.sol\":2365:2366  1 */\n      0x01\n      0x00\n      dup1\n      mload\n      0x20\n      data_c8669cf8eaf883002b9f48e28846a8d408c9b58ea6613bace374265e43c9bc43\n      dup4\n      codecopy\n      dup2\n      mload\n      swap2\n      mstore\n        /* \"@openzeppelin/contracts@5.6.0/utils/ReentrancyGuard.sol\":3972:4034  _reentrancyGuardStorageSlot().getUint256Slot().value = ENTERED */\n      sstore\n        /* \"@openzeppelin/contracts@5.6.0/utils/ReentrancyGuard.sol\":3749:4041  function _nonReentrantBefore() private {... */\n      jump\n        /* \"@openzeppelin/contracts@5.6.0/utils/ReentrancyGuard.sol\":3065:3085  _nonReentrantAfter() */\n    tag_217:\n        /* \"Smart-Contracts/PNJC_Free_Router.sol\":3013:3355  function distributeToken(address token) external nonReentrant {... */\n      pop\n      jump\t// out\n        /* \"@openzeppelin/contracts@5.6.0/access/AccessControl.sol\":2820:2956  function hasRole(bytes32 role, address account) public view virtual returns (bool) {... */\n    tag_110:\n        /* \"@openzeppelin/contracts@5.6.0/access/AccessControl.sol\":2897:2901  bool */\n      0x00\n        /* \"@openzeppelin/contracts@5.6.0/access/AccessControl.sol\":2920:2932  _roles[role] */\n      swap2\n      dup3\n      mstore\n      0x20\n      dup3\n      dup2\n      mstore\n      0x40\n      dup1\n      dup5\n      keccak256\n      sub(shl(0xa0, 0x01), 0x01)\n        /* \"@openzeppelin/contracts@5.6.0/access/AccessControl.sol\":2920:2949  _roles[role].hasRole[account] */\n      swap4\n      swap1\n      swap4\n      and\n      dup5\n      mstore\n      swap2\n      swap1\n      mstore\n      swap1\n      keccak256\n      sload\n      0xff\n      and\n      swap1\n        /* \"@openzeppelin/contracts@5.6.0/access/AccessControl.sol\":2820:2956  function hasRole(bytes32 role, address account) public view virtual returns (bool) {... */\n      jump\t// out\n        /* \"@openzeppelin/contracts@5.6.0/access/AccessControl.sol\":4608:4746  function revokeRole(bytes32 role, address account) public virtual onlyRole(getRoleAdmin(role)) {... */\n    tag_135:\n        /* \"@openzeppelin/contracts@5.6.0/access/AccessControl.sol\":3841:3848  bytes32 */\n      0x00\n        /* \"@openzeppelin/contracts@5.6.0/access/AccessControl.sol\":3867:3879  _roles[role] */\n      dup3\n      dup2\n      mstore\n      0x20\n      dup2\n      swap1\n      mstore\n      0x40\n      swap1\n      keccak256\n        /* \"@openzeppelin/contracts@5.6.0/access/AccessControl.sol\":3867:3889  _roles[role].adminRole */\n      0x01\n      add\n      sload\n        /* \"@openzeppelin/contracts@5.6.0/access/AccessControl.sol\":2464:2480  _checkRole(role) */\n      tag_221\n        /* \"@openzeppelin/contracts@5.6.0/access/AccessControl.sol\":2475:2479  role */\n      dup2\n        /* \"@openzeppelin/contracts@5.6.0/access/AccessControl.sol\":2464:2474  _checkRole */\n      tag_144\n        /* \"@openzeppelin/contracts@5.6.0/access/AccessControl.sol\":2464:2480  _checkRole(role) */\n      jump\t// in\n    tag_221:\n        /* \"@openzeppelin/contracts@5.6.0/access/AccessControl.sol\":4713:4739  _revokeRole(role, account) */\n      tag_146\n        /* \"@openzeppelin/contracts@5.6.0/access/AccessControl.sol\":4725:4729  role */\n      dup4\n        /* \"@openzeppelin/contracts@5.6.0/access/AccessControl.sol\":4731:4738  account */\n      dup4\n        /* \"@openzeppelin/contracts@5.6.0/access/AccessControl.sol\":4713:4724  _revokeRole */\n      tag_153\n        /* \"@openzeppelin/contracts@5.6.0/access/AccessControl.sol\":4713:4739  _revokeRole(role, account) */\n      jump\t// in\n        /* \"@openzeppelin/contracts@5.6.0/access/AccessControl.sol\":3165:3268  function _checkRole(bytes32 role) internal view virtual {... */\n    tag_144:\n        /* \"@openzeppelin/contracts@5.6.0/access/AccessControl.sol\":3231:3261  _checkRole(role, _msgSender()) */\n      tag_217\n        /* \"@openzeppelin/contracts@5.6.0/access/AccessControl.sol\":3242:3246  role */\n      dup2\n        /* \"@openzeppelin/contracts@5.6.0/utils/Context.sol\":735:745  msg.sender */\n      caller\n        /* \"@openzeppelin/contracts@5.6.0/access/AccessControl.sol\":3231:3241  _checkRole */\n      tag_228\n        /* \"@openzeppelin/contracts@5.6.0/access/AccessControl.sol\":3231:3261  _checkRole(role, _msgSender()) */\n      jump\t// in\n        /* \"@openzeppelin/contracts@5.6.0/access/AccessControl.sol\":6145:6461  function _grantRole(bytes32 role, address account) internal virtual returns (bool) {... */\n    tag_147:\n        /* \"@openzeppelin/contracts@5.6.0/access/AccessControl.sol\":6222:6226  bool */\n      0x00\n        /* \"@openzeppelin/contracts@5.6.0/access/AccessControl.sol\":6243:6265  hasRole(role, account) */\n      tag_230\n        /* \"@openzeppelin/contracts@5.6.0/access/AccessControl.sol\":6251:6255  role */\n      dup4\n        /* \"@openzeppelin/contracts@5.6.0/access/AccessControl.sol\":6257:6264  account */\n      dup4\n        /* \"@openzeppelin/contracts@5.6.0/access/AccessControl.sol\":6243:6250  hasRole */\n      tag_110\n        /* \"@openzeppelin/contracts@5.6.0/access/AccessControl.sol\":6243:6265  hasRole(role, account) */\n      jump\t// in\n    tag_230:\n        /* \"@openzeppelin/contracts@5.6.0/access/AccessControl.sol\":6238:6455  if (!hasRole(role, account)) {... */\n      tag_231\n      jumpi\n        /* \"@openzeppelin/contracts@5.6.0/access/AccessControl.sol\":6281:6287  _roles */\n      0x00\n        /* \"@openzeppelin/contracts@5.6.0/access/AccessControl.sol\":6281:6293  _roles[role] */\n      dup4\n      dup2\n      mstore\n      0x20\n      dup2\n      dup2\n      mstore\n      0x40\n      dup1\n      dup4\n      keccak256\n      sub(shl(0xa0, 0x01), 0x01)\n        /* \"@openzeppelin/contracts@5.6.0/access/AccessControl.sol\":6281:6310  _roles[role].hasRole[account] */\n      dup7\n      and\n      dup5\n      mstore\n      swap1\n      swap2\n      mstore\n      swap1\n      keccak256\n        /* \"@openzeppelin/contracts@5.6.0/access/AccessControl.sol\":6281:6317  _roles[role].hasRole[account] = true */\n      dup1\n      sload\n      not(0xff)\n      and\n        /* \"@openzeppelin/contracts@5.6.0/access/AccessControl.sol\":6313:6317  true */\n      0x01\n        /* \"@openzeppelin/contracts@5.6.0/access/AccessControl.sol\":6281:6317  _roles[role].hasRole[account] = true */\n      or\n      swap1\n      sstore\n        /* \"@openzeppelin/contracts@5.6.0/access/AccessControl.sol\":6363:6375  _msgSender() */\n      tag_232\n        /* \"@openzeppelin/contracts@5.6.0/utils/Context.sol\":735:745  msg.sender */\n      caller\n      swap1\n        /* \"@openzeppelin/contracts@5.6.0/utils/Context.sol\":656:752  function _msgSender() internal view virtual returns (address) {... */\n      jump\n        /* \"@openzeppelin/contracts@5.6.0/access/AccessControl.sol\":6363:6375  _msgSender() */\n    tag_232:\n      sub(shl(0xa0, 0x01), 0x01)\n        /* \"@openzeppelin/contracts@5.6.0/access/AccessControl.sol\":6336:6376  RoleGranted(role, account, _msgSender()) */\n      and\n        /* \"@openzeppelin/contracts@5.6.0/access/AccessControl.sol\":6354:6361  account */\n      dup3\n      sub(shl(0xa0, 0x01), 0x01)\n        /* \"@openzeppelin/contracts@5.6.0/access/AccessControl.sol\":6336:6376  RoleGranted(role, account, _msgSender()) */\n      and\n        /* \"@openzeppelin/contracts@5.6.0/access/AccessControl.sol\":6348:6352  role */\n      dup5\n        /* \"@openzeppelin/contracts@5.6.0/access/AccessControl.sol\":6336:6376  RoleGranted(role, account, _msgSender()) */\n      0x2f8788117e7eff1d82e926ec794901d17c78024a50270940304540a733656f0d\n      mload(0x40)\n      mload(0x40)\n      dup1\n      swap2\n      sub\n      swap1\n      log4\n      pop\n        /* \"@openzeppelin/contracts@5.6.0/access/AccessControl.sol\":6397:6401  true */\n      0x01\n        /* \"@openzeppelin/contracts@5.6.0/access/AccessControl.sol\":6390:6401  return true */\n      jump(tag_138)\n        /* \"@openzeppelin/contracts@5.6.0/access/AccessControl.sol\":6238:6455  if (!hasRole(role, account)) {... */\n    tag_231:\n      pop\n        /* \"@openzeppelin/contracts@5.6.0/access/AccessControl.sol\":6439:6444  false */\n      0x00\n        /* \"@openzeppelin/contracts@5.6.0/access/AccessControl.sol\":6432:6444  return false */\n      jump(tag_138)\n        /* \"@openzeppelin/contracts@5.6.0/access/AccessControl.sol\":6698:7015  function _revokeRole(bytes32 role, address account) internal virtual returns (bool) {... */\n    tag_153:\n        /* \"@openzeppelin/contracts@5.6.0/access/AccessControl.sol\":6776:6780  bool */\n      0x00\n        /* \"@openzeppelin/contracts@5.6.0/access/AccessControl.sol\":6796:6818  hasRole(role, account) */\n      tag_236\n        /* \"@openzeppelin/contracts@5.6.0/access/AccessControl.sol\":6804:6808  role */\n      dup4\n        /* \"@openzeppelin/contracts@5.6.0/access/AccessControl.sol\":6810:6817  account */\n      dup4\n        /* \"@openzeppelin/contracts@5.6.0/access/AccessControl.sol\":6796:6803  hasRole */\n      tag_110\n        /* \"@openzeppelin/contracts@5.6.0/access/AccessControl.sol\":6796:6818  hasRole(role, account) */\n      jump\t// in\n    tag_236:\n        /* \"@openzeppelin/contracts@5.6.0/access/AccessControl.sol\":6792:7009  if (hasRole(role, account)) {... */\n      iszero\n      tag_231\n      jumpi\n        /* \"@openzeppelin/contracts@5.6.0/access/AccessControl.sol\":6866:6871  false */\n      0x00\n        /* \"@openzeppelin/contracts@5.6.0/access/AccessControl.sol\":6834:6846  _roles[role] */\n      dup4\n      dup2\n      mstore\n      0x20\n      dup2\n      dup2\n      mstore\n      0x40\n      dup1\n      dup4\n      keccak256\n      sub(shl(0xa0, 0x01), 0x01)\n        /* \"@openzeppelin/contracts@5.6.0/access/AccessControl.sol\":6834:6863  _roles[role].hasRole[account] */\n      dup7\n      and\n      dup1\n      dup6\n      mstore\n      swap3\n      mstore\n      dup1\n      dup4\n      keccak256\n        /* \"@openzeppelin/contracts@5.6.0/access/AccessControl.sol\":6834:6871  _roles[role].hasRole[account] = false */\n      dup1\n      sload\n      not(0xff)\n      and\n      swap1\n      sstore\n        /* \"@openzeppelin/contracts@5.6.0/access/AccessControl.sol\":6890:6930  RoleRevoked(role, account, _msgSender()) */\n      mload\n        /* \"@openzeppelin/contracts@5.6.0/utils/Context.sol\":735:745  msg.sender */\n      caller\n      swap3\n        /* \"@openzeppelin/contracts@5.6.0/access/AccessControl.sol\":6834:6846  _roles[role] */\n      dup7\n      swap2\n        /* \"@openzeppelin/contracts@5.6.0/access/AccessControl.sol\":6890:6930  RoleRevoked(role, account, _msgSender()) */\n      0xf6391f5c32d9c69d2a47ea670b442974b53935d1edc7fd64eb21e047a839171b\n      swap2\n        /* \"@openzeppelin/contracts@5.6.0/access/AccessControl.sol\":6866:6871  false */\n      swap1\n        /* \"@openzeppelin/contracts@5.6.0/access/AccessControl.sol\":6890:6930  RoleRevoked(role, account, _msgSender()) */\n      log4\n      pop\n        /* \"@openzeppelin/contracts@5.6.0/access/AccessControl.sol\":6951:6955  true */\n      0x01\n        /* \"@openzeppelin/contracts@5.6.0/access/AccessControl.sol\":6944:6955  return true */\n      jump(tag_138)\n        /* \"@openzeppelin/contracts@5.6.0/utils/ReentrancyGuard.sol\":3749:4041  function _nonReentrantBefore() private {... */\n    tag_177:\n        /* \"@openzeppelin/contracts@5.6.0/utils/ReentrancyGuard.sol\":3872:3897  _nonReentrantBeforeView() */\n      tag_241\n        /* \"@openzeppelin/contracts@5.6.0/utils/ReentrancyGuard.sol\":3872:3895  _nonReentrantBeforeView */\n      tag_242\n        /* \"@openzeppelin/contracts@5.6.0/utils/ReentrancyGuard.sol\":3872:3897  _nonReentrantBeforeView() */\n      jump\t// in\n    tag_241:\n        /* \"@openzeppelin/contracts@5.6.0/utils/ReentrancyGuard.sol\":2407:2408  2 */\n      0x02\n      0x00\n      dup1\n      mload\n      0x20\n      data_c8669cf8eaf883002b9f48e28846a8d408c9b58ea6613bace374265e43c9bc43\n      dup4\n      codecopy\n      dup2\n      mload\n      swap2\n      mstore\n        /* \"@openzeppelin/contracts@5.6.0/utils/ReentrancyGuard.sol\":3972:4034  _reentrancyGuardStorageSlot().getUint256Slot().value = ENTERED */\n      sstore\n        /* \"@openzeppelin/contracts@5.6.0/utils/ReentrancyGuard.sol\":3749:4041  function _nonReentrantBefore() private {... */\n      jump\t// out\n        /* \"Smart-Contracts/PNJC_Free_Router.sol\":3459:4458  function _processDistribution(address token, uint256 amount) internal {... */\n    tag_183:\n        /* \"Smart-Contracts/PNJC_Free_Router.sol\":3540:3559  uint256 clownAmount */\n      0x00\n        /* \"Smart-Contracts/PNJC_Free_Router.sol\":1378:1383  10000 */\n      0x2710\n        /* \"Smart-Contracts/PNJC_Free_Router.sol\":3572:3584  clownCareFee */\n      sload(0x05)\n        /* \"Smart-Contracts/PNJC_Free_Router.sol\":3563:3569  amount */\n      dup4\n        /* \"Smart-Contracts/PNJC_Free_Router.sol\":3563:3584  amount * clownCareFee */\n      tag_248\n      swap2\n      swap1\n      tag_249\n      jump\t// in\n    tag_248:\n        /* \"Smart-Contracts/PNJC_Free_Router.sol\":3562:3612  (amount * clownCareFee) / BASIS_POINTS_DENOMINATOR */\n      tag_250\n      swap2\n      swap1\n      tag_251\n      jump\t// in\n    tag_250:\n        /* \"Smart-Contracts/PNJC_Free_Router.sol\":3540:3612  uint256 clownAmount = (amount * clownCareFee) / BASIS_POINTS_DENOMINATOR */\n      swap1\n      pop\n        /* \"Smart-Contracts/PNJC_Free_Router.sol\":3623:3640  uint256 liqAmount */\n      0x00\n        /* \"Smart-Contracts/PNJC_Free_Router.sol\":1378:1383  10000 */\n      0x2710\n        /* \"Smart-Contracts/PNJC_Free_Router.sol\":3653:3665  liquidityFee */\n      sload(0x06)\n        /* \"Smart-Contracts/PNJC_Free_Router.sol\":3644:3650  amount */\n      dup5\n        /* \"Smart-Contracts/PNJC_Free_Router.sol\":3644:3665  amount * liquidityFee */\n      tag_252\n      swap2\n      swap1\n      tag_249\n      jump\t// in\n    tag_252:\n        /* \"Smart-Contracts/PNJC_Free_Router.sol\":3643:3693  (amount * liquidityFee) / BASIS_POINTS_DENOMINATOR */\n      tag_253\n      swap2\n      swap1\n      tag_251\n      jump\t// in\n    tag_253:\n        /* \"Smart-Contracts/PNJC_Free_Router.sol\":3623:3693  uint256 liqAmount = (amount * liquidityFee) / BASIS_POINTS_DENOMINATOR */\n      swap1\n      pop\n        /* \"Smart-Contracts/PNJC_Free_Router.sol\":3704:3721  uint256 devAmount */\n      0x00\n        /* \"Smart-Contracts/PNJC_Free_Router.sol\":1378:1383  10000 */\n      0x2710\n        /* \"Smart-Contracts/PNJC_Free_Router.sol\":3734:3740  devFee */\n      sload(0x07)\n        /* \"Smart-Contracts/PNJC_Free_Router.sol\":3725:3731  amount */\n      dup6\n        /* \"Smart-Contracts/PNJC_Free_Router.sol\":3725:3740  amount * devFee */\n      tag_254\n      swap2\n      swap1\n      tag_249\n      jump\t// in\n    tag_254:\n        /* \"Smart-Contracts/PNJC_Free_Router.sol\":3724:3768  (amount * devFee) / BASIS_POINTS_DENOMINATOR */\n      tag_255\n      swap2\n      swap1\n      tag_251\n      jump\t// in\n    tag_255:\n        /* \"Smart-Contracts/PNJC_Free_Router.sol\":3704:3768  uint256 devAmount = (amount * devFee) / BASIS_POINTS_DENOMINATOR */\n      swap1\n      pop\n        /* \"Smart-Contracts/PNJC_Free_Router.sol\":3779:3796  uint256 daoAmount */\n      0x00\n        /* \"Smart-Contracts/PNJC_Free_Router.sol\":1378:1383  10000 */\n      0x2710\n        /* \"Smart-Contracts/PNJC_Free_Router.sol\":3809:3815  daoFee */\n      sload(0x08)\n        /* \"Smart-Contracts/PNJC_Free_Router.sol\":3800:3806  amount */\n      dup7\n        /* \"Smart-Contracts/PNJC_Free_Router.sol\":3800:3815  amount * daoFee */\n      tag_256\n      swap2\n      swap1\n      tag_249\n      jump\t// in\n    tag_256:\n        /* \"Smart-Contracts/PNJC_Free_Router.sol\":3799:3843  (amount * daoFee) / BASIS_POINTS_DENOMINATOR */\n      tag_257\n      swap2\n      swap1\n      tag_251\n      jump\t// in\n    tag_257:\n        /* \"Smart-Contracts/PNJC_Free_Router.sol\":3779:3843  uint256 daoAmount = (amount * daoFee) / BASIS_POINTS_DENOMINATOR */\n      swap1\n      pop\n      sub(shl(0xa0, 0x01), 0x01)\n        /* \"Smart-Contracts/PNJC_Free_Router.sol\":3860:3879  token == address(0) */\n      dup7\n      and\n        /* \"Smart-Contracts/PNJC_Free_Router.sol\":3856:4403  if (token == address(0)) {... */\n      tag_258\n      jumpi\n        /* \"Smart-Contracts/PNJC_Free_Router.sol\":3912:3927  clownCareWallet */\n      sload(0x01)\n        /* \"Smart-Contracts/PNJC_Free_Router.sol\":3896:3941  _dispatchNative(clownCareWallet, clownAmount) */\n      tag_259\n      swap1\n      sub(shl(0xa0, 0x01), 0x01)\n        /* \"Smart-Contracts/PNJC_Free_Router.sol\":3912:3927  clownCareWallet */\n      and\n        /* \"Smart-Contracts/PNJC_Free_Router.sol\":3929:3940  clownAmount */\n      dup6\n        /* \"Smart-Contracts/PNJC_Free_Router.sol\":3896:3911  _dispatchNative */\n      tag_194\n        /* \"Smart-Contracts/PNJC_Free_Router.sol\":3896:3941  _dispatchNative(clownCareWallet, clownAmount) */\n      jump\t// in\n    tag_259:\n        /* \"Smart-Contracts/PNJC_Free_Router.sol\":3972:3987  liquidityWallet */\n      sload(0x02)\n        /* \"Smart-Contracts/PNJC_Free_Router.sol\":3956:3999  _dispatchNative(liquidityWallet, liqAmount) */\n      tag_260\n      swap1\n      sub(shl(0xa0, 0x01), 0x01)\n        /* \"Smart-Contracts/PNJC_Free_Router.sol\":3972:3987  liquidityWallet */\n      and\n        /* \"Smart-Contracts/PNJC_Free_Router.sol\":3989:3998  liqAmount */\n      dup5\n        /* \"Smart-Contracts/PNJC_Free_Router.sol\":3956:3971  _dispatchNative */\n      tag_194\n        /* \"Smart-Contracts/PNJC_Free_Router.sol\":3956:3999  _dispatchNative(liquidityWallet, liqAmount) */\n      jump\t// in\n    tag_260:\n        /* \"Smart-Contracts/PNJC_Free_Router.sol\":4030:4039  devWallet */\n      sload(0x03)\n        /* \"Smart-Contracts/PNJC_Free_Router.sol\":4014:4051  _dispatchNative(devWallet, devAmount) */\n      tag_261\n      swap1\n      sub(shl(0xa0, 0x01), 0x01)\n        /* \"Smart-Contracts/PNJC_Free_Router.sol\":4030:4039  devWallet */\n      and\n        /* \"Smart-Contracts/PNJC_Free_Router.sol\":4041:4050  devAmount */\n      dup4\n        /* \"Smart-Contracts/PNJC_Free_Router.sol\":4014:4029  _dispatchNative */\n      tag_194\n        /* \"Smart-Contracts/PNJC_Free_Router.sol\":4014:4051  _dispatchNative(devWallet, devAmount) */\n      jump\t// in\n    tag_261:\n        /* \"Smart-Contracts/PNJC_Free_Router.sol\":4082:4093  daoTreasury */\n      sload(0x04)\n        /* \"Smart-Contracts/PNJC_Free_Router.sol\":4066:4105  _dispatchNative(daoTreasury, daoAmount) */\n      tag_262\n      swap1\n      sub(shl(0xa0, 0x01), 0x01)\n        /* \"Smart-Contracts/PNJC_Free_Router.sol\":4082:4093  daoTreasury */\n      and\n        /* \"Smart-Contracts/PNJC_Free_Router.sol\":4095:4104  daoAmount */\n      dup3\n        /* \"Smart-Contracts/PNJC_Free_Router.sol\":4066:4081  _dispatchNative */\n      tag_194\n        /* \"Smart-Contracts/PNJC_Free_Router.sol\":4066:4105  _dispatchNative(daoTreasury, daoAmount) */\n      jump\t// in\n    tag_262:\n        /* \"Smart-Contracts/PNJC_Free_Router.sol\":3856:4403  if (token == address(0)) {... */\n      jump(tag_267)\n    tag_258:\n        /* \"Smart-Contracts/PNJC_Free_Router.sol\":4165:4180  clownCareWallet */\n      sload(0x01)\n        /* \"Smart-Contracts/PNJC_Free_Router.sol\":4138:4194  IERC20(token).safeTransfer(clownCareWallet, clownAmount) */\n      tag_264\n      swap1\n      sub(shl(0xa0, 0x01), 0x01)\n        /* \"Smart-Contracts/PNJC_Free_Router.sol\":4138:4164  IERC20(token).safeTransfer */\n      dup9\n      dup2\n      and\n      swap2\n        /* \"Smart-Contracts/PNJC_Free_Router.sol\":4165:4180  clownCareWallet */\n      and\n        /* \"Smart-Contracts/PNJC_Free_Router.sol\":4182:4193  clownAmount */\n      dup7\n        /* \"Smart-Contracts/PNJC_Free_Router.sol\":4138:4164  IERC20(token).safeTransfer */\n      tag_202\n        /* \"Smart-Contracts/PNJC_Free_Router.sol\":4138:4194  IERC20(token).safeTransfer(clownCareWallet, clownAmount) */\n      jump\t// in\n    tag_264:\n        /* \"Smart-Contracts/PNJC_Free_Router.sol\":4236:4251  liquidityWallet */\n      sload(0x02)\n        /* \"Smart-Contracts/PNJC_Free_Router.sol\":4209:4263  IERC20(token).safeTransfer(liquidityWallet, liqAmount) */\n      tag_265\n      swap1\n      sub(shl(0xa0, 0x01), 0x01)\n        /* \"Smart-Contracts/PNJC_Free_Router.sol\":4209:4235  IERC20(token).safeTransfer */\n      dup9\n      dup2\n      and\n      swap2\n        /* \"Smart-Contracts/PNJC_Free_Router.sol\":4236:4251  liquidityWallet */\n      and\n        /* \"Smart-Contracts/PNJC_Free_Router.sol\":4253:4262  liqAmount */\n      dup6\n        /* \"Smart-Contracts/PNJC_Free_Router.sol\":4209:4235  IERC20(token).safeTransfer */\n      tag_202\n        /* \"Smart-Contracts/PNJC_Free_Router.sol\":4209:4263  IERC20(token).safeTransfer(liquidityWallet, liqAmount) */\n      jump\t// in\n    tag_265:\n        /* \"Smart-Contracts/PNJC_Free_Router.sol\":4305:4314  devWallet */\n      sload(0x03)\n        /* \"Smart-Contracts/PNJC_Free_Router.sol\":4278:4326  IERC20(token).safeTransfer(devWallet, devAmount) */\n      tag_266\n      swap1\n      sub(shl(0xa0, 0x01), 0x01)\n        /* \"Smart-Contracts/PNJC_Free_Router.sol\":4278:4304  IERC20(token).safeTransfer */\n      dup9\n      dup2\n      and\n      swap2\n        /* \"Smart-Contracts/PNJC_Free_Router.sol\":4305:4314  devWallet */\n      and\n        /* \"Smart-Contracts/PNJC_Free_Router.sol\":4316:4325  devAmount */\n      dup5\n        /* \"Smart-Contracts/PNJC_Free_Router.sol\":4278:4304  IERC20(token).safeTransfer */\n      tag_202\n        /* \"Smart-Contracts/PNJC_Free_Router.sol\":4278:4326  IERC20(token).safeTransfer(devWallet, devAmount) */\n      jump\t// in\n    tag_266:\n        /* \"Smart-Contracts/PNJC_Free_Router.sol\":4368:4379  daoTreasury */\n      sload(0x04)\n        /* \"Smart-Contracts/PNJC_Free_Router.sol\":4341:4391  IERC20(token).safeTransfer(daoTreasury, daoAmount) */\n      tag_267\n      swap1\n      sub(shl(0xa0, 0x01), 0x01)\n        /* \"Smart-Contracts/PNJC_Free_Router.sol\":4341:4367  IERC20(token).safeTransfer */\n      dup9\n      dup2\n      and\n      swap2\n        /* \"Smart-Contracts/PNJC_Free_Router.sol\":4368:4379  daoTreasury */\n      and\n        /* \"Smart-Contracts/PNJC_Free_Router.sol\":4381:4390  daoAmount */\n      dup4\n        /* \"Smart-Contracts/PNJC_Free_Router.sol\":4341:4367  IERC20(token).safeTransfer */\n      tag_202\n        /* \"Smart-Contracts/PNJC_Free_Router.sol\":4341:4391  IERC20(token).safeTransfer(daoTreasury, daoAmount) */\n      jump\t// in\n    tag_267:\n        /* \"Smart-Contracts/PNJC_Free_Router.sol\":4436:4441  token */\n      dup6\n      sub(shl(0xa0, 0x01), 0x01)\n        /* \"Smart-Contracts/PNJC_Free_Router.sol\":4420:4450  FeesDistributed(token, amount) */\n      and\n      0x63be20cc905d5ba0cf65db405c4999f99f2575e521875f13a8009d6eed7a09d9\n        /* \"Smart-Contracts/PNJC_Free_Router.sol\":4443:4449  amount */\n      dup7\n        /* \"Smart-Contracts/PNJC_Free_Router.sol\":4420:4450  FeesDistributed(token, amount) */\n      mload(0x40)\n      tag_268\n      swap2\n        /* \"#utility.yul\":828:853   */\n      dup2\n      mstore\n        /* \"#utility.yul\":816:818   */\n      0x20\n        /* \"#utility.yul\":801:819   */\n      add\n      swap1\n        /* \"#utility.yul\":682:859   */\n      jump\n        /* \"Smart-Contracts/PNJC_Free_Router.sol\":4420:4450  FeesDistributed(token, amount) */\n    tag_268:\n      mload(0x40)\n      dup1\n      swap2\n      sub\n      swap1\n      log2\n        /* \"Smart-Contracts/PNJC_Free_Router.sol\":3529:4458  {... */\n      pop\n      pop\n      pop\n      pop\n        /* \"Smart-Contracts/PNJC_Free_Router.sol\":3459:4458  function _processDistribution(address token, uint256 amount) internal {... */\n      pop\n      pop\n      jump\t// out\n        /* \"Smart-Contracts/PNJC_Free_Router.sol\":4570:4804  function _dispatchNative(address to, uint256 amount) internal {... */\n    tag_194:\n        /* \"Smart-Contracts/PNJC_Free_Router.sol\":4647:4653  amount */\n      dup1\n        /* \"Smart-Contracts/PNJC_Free_Router.sol\":4657:4658  0 */\n      0x00\n        /* \"Smart-Contracts/PNJC_Free_Router.sol\":4647:4658  amount == 0 */\n      sub\n        /* \"Smart-Contracts/PNJC_Free_Router.sol\":4643:4667  if (amount == 0) return; */\n      tag_273\n      jumpi\n        /* \"Smart-Contracts/PNJC_Free_Router.sol\":4570:4804  function _dispatchNative(address to, uint256 amount) internal {... */\n      pop\n      pop\n      jump\t// out\n        /* \"Smart-Contracts/PNJC_Free_Router.sol\":4643:4667  if (amount == 0) return; */\n    tag_273:\n        /* \"Smart-Contracts/PNJC_Free_Router.sol\":4678:4690  bool success */\n      0x00\n        /* \"Smart-Contracts/PNJC_Free_Router.sol\":4704:4706  to */\n      dup3\n      sub(shl(0xa0, 0x01), 0x01)\n        /* \"Smart-Contracts/PNJC_Free_Router.sol\":4696:4712  payable(to).call */\n      and\n        /* \"Smart-Contracts/PNJC_Free_Router.sol\":4720:4726  amount */\n      dup3\n        /* \"Smart-Contracts/PNJC_Free_Router.sol\":4696:4731  payable(to).call{value: amount}(\"\") */\n      mload(0x40)\n      0x00\n      mload(0x40)\n      dup1\n      dup4\n      sub\n      dup2\n      dup6\n      dup8\n      gas\n      call\n      swap3\n      pop\n      pop\n      pop\n      returndatasize\n      dup1\n      0x00\n      dup2\n      eq\n      tag_278\n      jumpi\n      mload(0x40)\n      swap2\n      pop\n      and(add(returndatasize, 0x3f), not(0x1f))\n      dup3\n      add\n      0x40\n      mstore\n      returndatasize\n      dup3\n      mstore\n      returndatasize\n      0x00\n      0x20\n      dup5\n      add\n      returndatacopy\n      jump(tag_277)\n    tag_278:\n      0x60\n      swap2\n      pop\n    tag_277:\n      pop\n        /* \"Smart-Contracts/PNJC_Free_Router.sol\":4677:4731  (bool success, ) = payable(to).call{value: amount}(\"\") */\n      pop\n      swap1\n      pop\n        /* \"Smart-Contracts/PNJC_Free_Router.sol\":4747:4754  success */\n      dup1\n        /* \"Smart-Contracts/PNJC_Free_Router.sol\":4742:4796  if (!success) revert(\"Router: Native transfer failed\") */\n      tag_152\n      jumpi\n        /* \"Smart-Contracts/PNJC_Free_Router.sol\":4756:4796  revert(\"Router: Native transfer failed\") */\n      mload(0x40)\n      shl(0xe5, 0x461bcd)\n      dup2\n      mstore\n        /* \"#utility.yul\":7296:7298   */\n      0x20\n        /* \"Smart-Contracts/PNJC_Free_Router.sol\":4756:4796  revert(\"Router: Native transfer failed\") */\n      0x04\n      dup3\n      add\n        /* \"#utility.yul\":7278:7299   */\n      mstore\n        /* \"#utility.yul\":7335:7337   */\n      0x1e\n        /* \"#utility.yul\":7315:7333   */\n      0x24\n      dup3\n      add\n        /* \"#utility.yul\":7308:7338   */\n      mstore\n        /* \"#utility.yul\":7374:7406   */\n      0x526f757465723a204e6174697665207472616e73666572206661696c65640000\n        /* \"#utility.yul\":7354:7372   */\n      0x44\n      dup3\n      add\n        /* \"#utility.yul\":7347:7407   */\n      mstore\n        /* \"#utility.yul\":7424:7442   */\n      0x64\n      add\n        /* \"Smart-Contracts/PNJC_Free_Router.sol\":4756:4796  revert(\"Router: Native transfer failed\") */\n      tag_159\n        /* \"#utility.yul\":7094:7448   */\n      jump\n        /* \"@openzeppelin/contracts@5.6.0/token/ERC20/utils/SafeERC20.sol\":1219:1423  function safeTransfer(IERC20 token, address to, uint256 value) internal {... */\n    tag_202:\n        /* \"@openzeppelin/contracts@5.6.0/token/ERC20/utils/SafeERC20.sol\":1306:1343  _safeTransfer(token, to, value, true) */\n      tag_283\n        /* \"@openzeppelin/contracts@5.6.0/token/ERC20/utils/SafeERC20.sol\":1320:1325  token */\n      dup4\n        /* \"@openzeppelin/contracts@5.6.0/token/ERC20/utils/SafeERC20.sol\":1327:1329  to */\n      dup4\n        /* \"@openzeppelin/contracts@5.6.0/token/ERC20/utils/SafeERC20.sol\":1331:1336  value */\n      dup4\n        /* \"@openzeppelin/contracts@5.6.0/token/ERC20/utils/SafeERC20.sol\":1338:1342  true */\n      0x01\n        /* \"@openzeppelin/contracts@5.6.0/token/ERC20/utils/SafeERC20.sol\":1306:1319  _safeTransfer */\n      tag_284\n        /* \"@openzeppelin/contracts@5.6.0/token/ERC20/utils/SafeERC20.sol\":1306:1343  _safeTransfer(token, to, value, true) */\n      jump\t// in\n    tag_283:\n        /* \"@openzeppelin/contracts@5.6.0/token/ERC20/utils/SafeERC20.sol\":1301:1417  if (!_safeTransfer(token, to, value, true)) {... */\n      tag_152\n      jumpi\n        /* \"@openzeppelin/contracts@5.6.0/token/ERC20/utils/SafeERC20.sol\":1366:1406  SafeERC20FailedOperation(address(token)) */\n      mload(0x40)\n      shl(0xe0, 0x5274afe7)\n      dup2\n      mstore\n      sub(shl(0xa0, 0x01), 0x01)\n        /* \"#utility.yul\":2451:2483   */\n      dup5\n      and\n        /* \"@openzeppelin/contracts@5.6.0/token/ERC20/utils/SafeERC20.sol\":1366:1406  SafeERC20FailedOperation(address(token)) */\n      0x04\n      dup3\n      add\n        /* \"#utility.yul\":2433:2484   */\n      mstore\n        /* \"#utility.yul\":2406:2424   */\n      0x24\n      add\n        /* \"@openzeppelin/contracts@5.6.0/token/ERC20/utils/SafeERC20.sol\":1366:1406  SafeERC20FailedOperation(address(token)) */\n      tag_159\n        /* \"#utility.yul\":2287:2490   */\n      jump\n        /* \"@openzeppelin/contracts@5.6.0/access/AccessControl.sol\":3398:3595  function _checkRole(bytes32 role, address account) internal view virtual {... */\n    tag_228:\n        /* \"@openzeppelin/contracts@5.6.0/access/AccessControl.sol\":3486:3508  hasRole(role, account) */\n      tag_288\n        /* \"@openzeppelin/contracts@5.6.0/access/AccessControl.sol\":3494:3498  role */\n      dup3\n        /* \"@openzeppelin/contracts@5.6.0/access/AccessControl.sol\":3500:3507  account */\n      dup3\n        /* \"@openzeppelin/contracts@5.6.0/access/AccessControl.sol\":3486:3493  hasRole */\n      tag_110\n        /* \"@openzeppelin/contracts@5.6.0/access/AccessControl.sol\":3486:3508  hasRole(role, account) */\n      jump\t// in\n    tag_288:\n        /* \"@openzeppelin/contracts@5.6.0/access/AccessControl.sol\":3481:3589  if (!hasRole(role, account)) {... */\n      tag_289\n      jumpi\n        /* \"@openzeppelin/contracts@5.6.0/access/AccessControl.sol\":3531:3578  AccessControlUnauthorizedAccount(account, role) */\n      mload(0x40)\n      shl(0xe0, 0xe2517d3f)\n      dup2\n      mstore\n      sub(shl(0xa0, 0x01), 0x01)\n        /* \"#utility.yul\":7645:7677   */\n      dup3\n      and\n        /* \"@openzeppelin/contracts@5.6.0/access/AccessControl.sol\":3531:3578  AccessControlUnauthorizedAccount(account, role) */\n      0x04\n      dup3\n      add\n        /* \"#utility.yul\":7627:7678   */\n      mstore\n        /* \"#utility.yul\":7694:7712   */\n      0x24\n      dup2\n      add\n        /* \"#utility.yul\":7687:7721   */\n      dup4\n      swap1\n      mstore\n        /* \"#utility.yul\":7600:7618   */\n      0x44\n      add\n        /* \"@openzeppelin/contracts@5.6.0/access/AccessControl.sol\":3531:3578  AccessControlUnauthorizedAccount(account, role) */\n      tag_159\n        /* \"#utility.yul\":7453:7727   */\n      jump\n        /* \"@openzeppelin/contracts@5.6.0/access/AccessControl.sol\":3481:3589  if (!hasRole(role, account)) {... */\n    tag_289:\n        /* \"@openzeppelin/contracts@5.6.0/access/AccessControl.sol\":3398:3595  function _checkRole(bytes32 role, address account) internal view virtual {... */\n      pop\n      pop\n      jump\t// out\n        /* \"@openzeppelin/contracts@5.6.0/utils/ReentrancyGuard.sol\":3586:3743  function _nonReentrantBeforeView() private view {... */\n    tag_242:\n      0x00\n      dup1\n      mload\n      0x20\n      data_c8669cf8eaf883002b9f48e28846a8d408c9b58ea6613bace374265e43c9bc43\n      dup4\n      codecopy\n      dup2\n      mload\n      swap2\n      mstore\n        /* \"@openzeppelin/contracts@5.6.0/utils/ReentrancyGuard.sol\":4560:4612  _reentrancyGuardStorageSlot().getUint256Slot().value */\n      sload\n        /* \"@openzeppelin/contracts@5.6.0/utils/ReentrancyGuard.sol\":2407:2408  2 */\n      0x02\n        /* \"@openzeppelin/contracts@5.6.0/utils/ReentrancyGuard.sol\":4560:4623  _reentrancyGuardStorageSlot().getUint256Slot().value == ENTERED */\n      sub\n        /* \"@openzeppelin/contracts@5.6.0/utils/ReentrancyGuard.sol\":3644:3737  if (_reentrancyGuardEntered()) {... */\n      tag_184\n      jumpi\n        /* \"@openzeppelin/contracts@5.6.0/utils/ReentrancyGuard.sol\":3696:3726  ReentrancyGuardReentrantCall() */\n      mload(0x40)\n      shl(0xe0, 0x3ee5aeb5)\n      dup2\n      mstore\n      0x04\n      add\n      mload(0x40)\n      dup1\n      swap2\n      sub\n      swap1\n      revert\n        /* \"@openzeppelin/contracts@5.6.0/token/ERC20/utils/SafeERC20.sol\":8373:9617  function _safeTransfer(IERC20 token, address to, uint256 value, bool bubble) private returns (bool success) {... */\n    tag_284:\n        /* \"@openzeppelin/contracts@5.6.0/token/ERC20/utils/SafeERC20.sol\":8600:8604  0x40 */\n      0x40\n        /* \"@openzeppelin/contracts@5.6.0/token/ERC20/utils/SafeERC20.sol\":8594:8605  mload(0x40) */\n      mload\n      shl(0xe0, 0xa9059cbb)\n        /* \"@openzeppelin/contracts@5.6.0/token/ERC20/utils/SafeERC20.sol\":8467:8479  bool success */\n      0x00\n        /* \"@openzeppelin/contracts@5.6.0/token/ERC20/utils/SafeERC20.sol\":8618:8640  mstore(0x00, selector) */\n      dup2\n      dup2\n      mstore\n      sub(shl(0xa0, 0x01), 0x01)\n        /* \"@openzeppelin/contracts@5.6.0/token/ERC20/utils/SafeERC20.sol\":8666:8690  and(to, shr(96, not(0))) */\n      dup7\n      and\n        /* \"@openzeppelin/contracts@5.6.0/token/ERC20/utils/SafeERC20.sol\":8660:8664  0x04 */\n      0x04\n        /* \"@openzeppelin/contracts@5.6.0/token/ERC20/utils/SafeERC20.sol\":8653:8691  mstore(0x04, and(to, shr(96, not(0)))) */\n      mstore\n        /* \"@openzeppelin/contracts@5.6.0/token/ERC20/utils/SafeERC20.sol\":8711:8715  0x24 */\n      0x24\n        /* \"@openzeppelin/contracts@5.6.0/token/ERC20/utils/SafeERC20.sol\":8704:8723  mstore(0x24, value) */\n      dup6\n      swap1\n      mstore\n        /* \"@openzeppelin/contracts@5.6.0/token/ERC20/utils/SafeERC20.sol\":8467:8479  bool success */\n      swap2\n        /* \"@openzeppelin/contracts@5.6.0/token/ERC20/utils/SafeERC20.sol\":8787:8791  0x20 */\n      0x20\n        /* \"@openzeppelin/contracts@5.6.0/token/ERC20/utils/SafeERC20.sol\":8467:8479  bool success */\n      dup4\n        /* \"@openzeppelin/contracts@5.6.0/token/ERC20/utils/SafeERC20.sol\":8775:8779  0x44 */\n      0x44\n        /* \"@openzeppelin/contracts@5.6.0/token/ERC20/utils/SafeERC20.sol\":8467:8479  bool success */\n      dup2\n      dup1\n        /* \"@openzeppelin/contracts@5.6.0/token/ERC20/utils/SafeERC20.sol\":8759:8764  token */\n      dup12\n        /* \"@openzeppelin/contracts@5.6.0/token/ERC20/utils/SafeERC20.sol\":8752:8757  gas() */\n      gas\n        /* \"@openzeppelin/contracts@5.6.0/token/ERC20/utils/SafeERC20.sol\":8747:8792  call(gas(), token, 0, 0x00, 0x44, 0x00, 0x20) */\n      call\n        /* \"@openzeppelin/contracts@5.6.0/token/ERC20/utils/SafeERC20.sol\":8736:8792  success := call(gas(), token, 0, 0x00, 0x44, 0x00, 0x20) */\n      swap3\n      pop\n        /* \"@openzeppelin/contracts@5.6.0/token/ERC20/utils/SafeERC20.sol\":9004:9005  1 */\n      0x01\n        /* \"@openzeppelin/contracts@5.6.0/token/ERC20/utils/SafeERC20.sol\":8997:9001  0x00 */\n      0x00\n        /* \"@openzeppelin/contracts@5.6.0/token/ERC20/utils/SafeERC20.sol\":8991:9002  mload(0x00) */\n      mload\n        /* \"@openzeppelin/contracts@5.6.0/token/ERC20/utils/SafeERC20.sol\":8988:9006  eq(mload(0x00), 1) */\n      eq\n        /* \"@openzeppelin/contracts@5.6.0/token/ERC20/utils/SafeERC20.sol\":8979:8986  success */\n      dup4\n        /* \"@openzeppelin/contracts@5.6.0/token/ERC20/utils/SafeERC20.sol\":8975:9007  and(success, eq(mload(0x00), 1)) */\n      and\n        /* \"@openzeppelin/contracts@5.6.0/token/ERC20/utils/SafeERC20.sol\":8965:9571  if iszero(and(success, eq(mload(0x00), 1))) {... */\n      tag_299\n      jumpi\n        /* \"@openzeppelin/contracts@5.6.0/token/ERC20/utils/SafeERC20.sol\":9136:9142  bubble */\n      dup4\n        /* \"@openzeppelin/contracts@5.6.0/token/ERC20/utils/SafeERC20.sol\":9126:9133  success */\n      dup4\n        /* \"@openzeppelin/contracts@5.6.0/token/ERC20/utils/SafeERC20.sol\":9119:9134  iszero(success) */\n      iszero\n        /* \"@openzeppelin/contracts@5.6.0/token/ERC20/utils/SafeERC20.sol\":9115:9143  and(iszero(success), bubble) */\n      and\n        /* \"@openzeppelin/contracts@5.6.0/token/ERC20/utils/SafeERC20.sol\":9112:9277  if and(iszero(success), bubble) {... */\n      iszero\n      tag_300\n      jumpi\n        /* \"@openzeppelin/contracts@5.6.0/token/ERC20/utils/SafeERC20.sol\":9192:9208  returndatasize() */\n      returndatasize\n        /* \"@openzeppelin/contracts@5.6.0/token/ERC20/utils/SafeERC20.sol\":9186:9190  0x00 */\n      0x00\n        /* \"@openzeppelin/contracts@5.6.0/token/ERC20/utils/SafeERC20.sol\":9181:9184  fmp */\n      dup3\n        /* \"@openzeppelin/contracts@5.6.0/token/ERC20/utils/SafeERC20.sol\":9166:9209  returndatacopy(fmp, 0x00, returndatasize()) */\n      returndatacopy\n        /* \"@openzeppelin/contracts@5.6.0/token/ERC20/utils/SafeERC20.sol\":9242:9258  returndatasize() */\n      returndatasize\n        /* \"@openzeppelin/contracts@5.6.0/token/ERC20/utils/SafeERC20.sol\":9237:9240  fmp */\n      dup2\n        /* \"@openzeppelin/contracts@5.6.0/token/ERC20/utils/SafeERC20.sol\":9230:9259  revert(fmp, returndatasize()) */\n      revert\n        /* \"@openzeppelin/contracts@5.6.0/token/ERC20/utils/SafeERC20.sol\":9112:9277  if and(iszero(success), bubble) {... */\n    tag_300:\n        /* \"@openzeppelin/contracts@5.6.0/token/ERC20/utils/SafeERC20.sol\":9553:9554  0 */\n      0x00\n        /* \"@openzeppelin/contracts@5.6.0/token/ERC20/utils/SafeERC20.sol\":9545:9550  token */\n      dup8\n        /* \"@openzeppelin/contracts@5.6.0/token/ERC20/utils/SafeERC20.sol\":9533:9551  extcodesize(token) */\n      extcodesize\n        /* \"@openzeppelin/contracts@5.6.0/token/ERC20/utils/SafeERC20.sol\":9530:9555  gt(extcodesize(token), 0) */\n      gt\n        /* \"@openzeppelin/contracts@5.6.0/token/ERC20/utils/SafeERC20.sol\":9511:9527  returndatasize() */\n      returndatasize\n        /* \"@openzeppelin/contracts@5.6.0/token/ERC20/utils/SafeERC20.sol\":9504:9528  iszero(returndatasize()) */\n      iszero\n        /* \"@openzeppelin/contracts@5.6.0/token/ERC20/utils/SafeERC20.sol\":9500:9556  and(iszero(returndatasize()), gt(extcodesize(token), 0)) */\n      and\n        /* \"@openzeppelin/contracts@5.6.0/token/ERC20/utils/SafeERC20.sol\":9491:9498  success */\n      dup4\n        /* \"@openzeppelin/contracts@5.6.0/token/ERC20/utils/SafeERC20.sol\":9487:9557  and(success, and(iszero(returndatasize()), gt(extcodesize(token), 0))) */\n      and\n        /* \"@openzeppelin/contracts@5.6.0/token/ERC20/utils/SafeERC20.sol\":9476:9557  success := and(success, and(iszero(returndatasize()), gt(extcodesize(token), 0))) */\n      swap3\n      pop\n        /* \"@openzeppelin/contracts@5.6.0/token/ERC20/utils/SafeERC20.sol\":8965:9571  if iszero(and(success, eq(mload(0x00), 1))) {... */\n    tag_299:\n        /* \"@openzeppelin/contracts@5.6.0/token/ERC20/utils/SafeERC20.sol\":9591:9595  0x40 */\n      0x40\n        /* \"@openzeppelin/contracts@5.6.0/token/ERC20/utils/SafeERC20.sol\":9584:9601  mstore(0x40, fmp) */\n      mstore\n      pop\n        /* \"@openzeppelin/contracts@5.6.0/token/ERC20/utils/SafeERC20.sol\":8373:9617  function _safeTransfer(IERC20 token, address to, uint256 value, bool bubble) private returns (bool success) {... */\n      swap5\n      swap4\n      pop\n      pop\n      pop\n      pop\n      jump\t// out\n        /* \"#utility.yul\":14:300   */\n    tag_34:\n        /* \"#utility.yul\":72:78   */\n      0x00\n        /* \"#utility.yul\":125:127   */\n      0x20\n        /* \"#utility.yul\":113:122   */\n      dup3\n        /* \"#utility.yul\":104:111   */\n      dup5\n        /* \"#utility.yul\":100:123   */\n      sub\n        /* \"#utility.yul\":96:128   */\n      slt\n        /* \"#utility.yul\":93:145   */\n      iszero\n      tag_308\n      jumpi\n        /* \"#utility.yul\":141:142   */\n      0x00\n        /* \"#utility.yul\":138:139   */\n      dup1\n        /* \"#utility.yul\":131:143   */\n      revert\n        /* \"#utility.yul\":93:145   */\n    tag_308:\n        /* \"#utility.yul\":167:190   */\n      dup2\n      calldataload\n      not(sub(shl(0xe0, 0x01), 0x01))\n        /* \"#utility.yul\":219:251   */\n      dup2\n      and\n        /* \"#utility.yul\":209:252   */\n      dup2\n      eq\n        /* \"#utility.yul\":199:270   */\n      tag_309\n      jumpi\n        /* \"#utility.yul\":266:267   */\n      0x00\n        /* \"#utility.yul\":263:264   */\n      dup1\n        /* \"#utility.yul\":256:268   */\n      revert\n        /* \"#utility.yul\":199:270   */\n    tag_309:\n        /* \"#utility.yul\":289:294   */\n      swap4\n        /* \"#utility.yul\":14:300   */\n      swap3\n      pop\n      pop\n      pop\n      jump\t// out\n        /* \"#utility.yul\":497:677   */\n    tag_41:\n        /* \"#utility.yul\":556:562   */\n      0x00\n        /* \"#utility.yul\":609:611   */\n      0x20\n        /* \"#utility.yul\":597:606   */\n      dup3\n        /* \"#utility.yul\":588:595   */\n      dup5\n        /* \"#utility.yul\":584:607   */\n      sub\n        /* \"#utility.yul\":580:612   */\n      slt\n        /* \"#utility.yul\":577:629   */\n      iszero\n      tag_312\n      jumpi\n        /* \"#utility.yul\":625:626   */\n      0x00\n        /* \"#utility.yul\":622:623   */\n      dup1\n        /* \"#utility.yul\":615:627   */\n      revert\n        /* \"#utility.yul\":577:629   */\n    tag_312:\n      pop\n        /* \"#utility.yul\":648:671   */\n      calldataload\n      swap2\n        /* \"#utility.yul\":497:677   */\n      swap1\n      pop\n      jump\t// out\n        /* \"#utility.yul\":1046:1219   */\n    tag_304:\n        /* \"#utility.yul\":1114:1134   */\n      dup1\n      calldataload\n      sub(shl(0xa0, 0x01), 0x01)\n        /* \"#utility.yul\":1163:1194   */\n      dup2\n      and\n        /* \"#utility.yul\":1153:1195   */\n      dup2\n      eq\n        /* \"#utility.yul\":1143:1213   */\n      tag_316\n      jumpi\n        /* \"#utility.yul\":1209:1210   */\n      0x00\n        /* \"#utility.yul\":1206:1207   */\n      dup1\n        /* \"#utility.yul\":1199:1211   */\n      revert\n        /* \"#utility.yul\":1143:1213   */\n    tag_316:\n        /* \"#utility.yul\":1046:1219   */\n      swap2\n      swap1\n      pop\n      jump\t// out\n        /* \"#utility.yul\":1224:1478   */\n    tag_53:\n        /* \"#utility.yul\":1292:1298   */\n      0x00\n        /* \"#utility.yul\":1300:1306   */\n      dup1\n        /* \"#utility.yul\":1353:1355   */\n      0x40\n        /* \"#utility.yul\":1341:1350   */\n      dup4\n        /* \"#utility.yul\":1332:1339   */\n      dup6\n        /* \"#utility.yul\":1328:1351   */\n      sub\n        /* \"#utility.yul\":1324:1356   */\n      slt\n        /* \"#utility.yul\":1321:1373   */\n      iszero\n      tag_318\n      jumpi\n        /* \"#utility.yul\":1369:1370   */\n      0x00\n        /* \"#utility.yul\":1366:1367   */\n      dup1\n        /* \"#utility.yul\":1359:1371   */\n      revert\n        /* \"#utility.yul\":1321:1373   */\n    tag_318:\n        /* \"#utility.yul\":1405:1414   */\n      dup3\n        /* \"#utility.yul\":1392:1415   */\n      calldataload\n        /* \"#utility.yul\":1382:1415   */\n      swap2\n      pop\n        /* \"#utility.yul\":1434:1472   */\n      tag_319\n        /* \"#utility.yul\":1468:1470   */\n      0x20\n        /* \"#utility.yul\":1457:1466   */\n      dup5\n        /* \"#utility.yul\":1453:1471   */\n      add\n        /* \"#utility.yul\":1434:1472   */\n      tag_304\n      jump\t// in\n    tag_319:\n        /* \"#utility.yul\":1424:1472   */\n      swap1\n      pop\n        /* \"#utility.yul\":1224:1478   */\n      swap3\n      pop\n      swap3\n      swap1\n      pop\n      jump\t// out\n        /* \"#utility.yul\":1483:1892   */\n    tag_62:\n        /* \"#utility.yul\":1569:1575   */\n      0x00\n        /* \"#utility.yul\":1577:1583   */\n      dup1\n        /* \"#utility.yul\":1585:1591   */\n      0x00\n        /* \"#utility.yul\":1593:1599   */\n      dup1\n        /* \"#utility.yul\":1646:1649   */\n      0x80\n        /* \"#utility.yul\":1634:1643   */\n      dup6\n        /* \"#utility.yul\":1625:1632   */\n      dup8\n        /* \"#utility.yul\":1621:1644   */\n      sub\n        /* \"#utility.yul\":1617:1650   */\n      slt\n        /* \"#utility.yul\":1614:1667   */\n      iszero\n      tag_321\n      jumpi\n        /* \"#utility.yul\":1663:1664   */\n      0x00\n        /* \"#utility.yul\":1660:1661   */\n      dup1\n        /* \"#utility.yul\":1653:1665   */\n      revert\n        /* \"#utility.yul\":1614:1667   */\n    tag_321:\n        /* \"#utility.yul\":1686:1715   */\n      tag_322\n        /* \"#utility.yul\":1705:1714   */\n      dup6\n        /* \"#utility.yul\":1686:1715   */\n      tag_304\n      jump\t// in\n    tag_322:\n        /* \"#utility.yul\":1676:1715   */\n      swap4\n      pop\n        /* \"#utility.yul\":1734:1772   */\n      tag_323\n        /* \"#utility.yul\":1768:1770   */\n      0x20\n        /* \"#utility.yul\":1757:1766   */\n      dup7\n        /* \"#utility.yul\":1753:1771   */\n      add\n        /* \"#utility.yul\":1734:1772   */\n      tag_304\n      jump\t// in\n    tag_323:\n        /* \"#utility.yul\":1724:1772   */\n      swap3\n      pop\n        /* \"#utility.yul\":1791:1829   */\n      tag_324\n        /* \"#utility.yul\":1825:1827   */\n      0x40\n        /* \"#utility.yul\":1814:1823   */\n      dup7\n        /* \"#utility.yul\":1810:1828   */\n      add\n        /* \"#utility.yul\":1791:1829   */\n      tag_304\n      jump\t// in\n    tag_324:\n        /* \"#utility.yul\":1781:1829   */\n      swap2\n      pop\n        /* \"#utility.yul\":1848:1886   */\n      tag_325\n        /* \"#utility.yul\":1882:1884   */\n      0x60\n        /* \"#utility.yul\":1871:1880   */\n      dup7\n        /* \"#utility.yul\":1867:1885   */\n      add\n        /* \"#utility.yul\":1848:1886   */\n      tag_304\n      jump\t// in\n    tag_325:\n        /* \"#utility.yul\":1838:1886   */\n      swap1\n      pop\n        /* \"#utility.yul\":1483:1892   */\n      swap3\n      swap6\n      swap2\n      swap5\n      pop\n      swap3\n      pop\n      jump\t// out\n        /* \"#utility.yul\":1897:2282   */\n    tag_67:\n        /* \"#utility.yul\":1983:1989   */\n      0x00\n        /* \"#utility.yul\":1991:1997   */\n      dup1\n        /* \"#utility.yul\":1999:2005   */\n      0x00\n        /* \"#utility.yul\":2007:2013   */\n      dup1\n        /* \"#utility.yul\":2060:2063   */\n      0x80\n        /* \"#utility.yul\":2048:2057   */\n      dup6\n        /* \"#utility.yul\":2039:2046   */\n      dup8\n        /* \"#utility.yul\":2035:2058   */\n      sub\n        /* \"#utility.yul\":2031:2064   */\n      slt\n        /* \"#utility.yul\":2028:2081   */\n      iszero\n      tag_327\n      jumpi\n        /* \"#utility.yul\":2077:2078   */\n      0x00\n        /* \"#utility.yul\":2074:2075   */\n      dup1\n        /* \"#utility.yul\":2067:2079   */\n      revert\n        /* \"#utility.yul\":2028:2081   */\n    tag_327:\n      pop\n      pop\n        /* \"#utility.yul\":2100:2123   */\n      dup3\n      calldataload\n      swap5\n        /* \"#utility.yul\":2170:2172   */\n      0x20\n        /* \"#utility.yul\":2155:2173   */\n      dup5\n      add\n        /* \"#utility.yul\":2142:2174   */\n      calldataload\n      swap5\n      pop\n        /* \"#utility.yul\":2221:2223   */\n      0x40\n        /* \"#utility.yul\":2206:2224   */\n      dup5\n      add\n        /* \"#utility.yul\":2193:2225   */\n      calldataload\n      swap4\n        /* \"#utility.yul\":2272:2274   */\n      0x60\n        /* \"#utility.yul\":2257:2275   */\n      add\n        /* \"#utility.yul\":2244:2276   */\n      calldataload\n      swap3\n      pop\n        /* \"#utility.yul\":1897:2282   */\n      swap1\n      pop\n      jump\t// out\n        /* \"#utility.yul\":2495:2755   */\n    tag_80:\n        /* \"#utility.yul\":2563:2569   */\n      0x00\n        /* \"#utility.yul\":2571:2577   */\n      dup1\n        /* \"#utility.yul\":2624:2626   */\n      0x40\n        /* \"#utility.yul\":2612:2621   */\n      dup4\n        /* \"#utility.yul\":2603:2610   */\n      dup6\n        /* \"#utility.yul\":2599:2622   */\n      sub\n        /* \"#utility.yul\":2595:2627   */\n      slt\n        /* \"#utility.yul\":2592:2644   */\n      iszero\n      tag_330\n      jumpi\n        /* \"#utility.yul\":2640:2641   */\n      0x00\n        /* \"#utility.yul\":2637:2638   */\n      dup1\n        /* \"#utility.yul\":2630:2642   */\n      revert\n        /* \"#utility.yul\":2592:2644   */\n    tag_330:\n        /* \"#utility.yul\":2663:2692   */\n      tag_331\n        /* \"#utility.yul\":2682:2691   */\n      dup4\n        /* \"#utility.yul\":2663:2692   */\n      tag_304\n      jump\t// in\n    tag_331:\n        /* \"#utility.yul\":2653:2692   */\n      swap2\n      pop\n        /* \"#utility.yul\":2711:2749   */\n      tag_319\n        /* \"#utility.yul\":2745:2747   */\n      0x20\n        /* \"#utility.yul\":2734:2743   */\n      dup5\n        /* \"#utility.yul\":2730:2748   */\n      add\n        /* \"#utility.yul\":2711:2749   */\n      tag_304\n      jump\t// in\n        /* \"#utility.yul\":2760:2946   */\n    tag_101:\n        /* \"#utility.yul\":2819:2825   */\n      0x00\n        /* \"#utility.yul\":2872:2874   */\n      0x20\n        /* \"#utility.yul\":2860:2869   */\n      dup3\n        /* \"#utility.yul\":2851:2858   */\n      dup5\n        /* \"#utility.yul\":2847:2870   */\n      sub\n        /* \"#utility.yul\":2843:2875   */\n      slt\n        /* \"#utility.yul\":2840:2892   */\n      iszero\n      tag_334\n      jumpi\n        /* \"#utility.yul\":2888:2889   */\n      0x00\n        /* \"#utility.yul\":2885:2886   */\n      dup1\n        /* \"#utility.yul\":2878:2890   */\n      revert\n        /* \"#utility.yul\":2840:2892   */\n    tag_334:\n        /* \"#utility.yul\":2911:2940   */\n      tag_309\n        /* \"#utility.yul\":2930:2939   */\n      dup3\n        /* \"#utility.yul\":2911:2940   */\n      tag_304\n      jump\t// in\n        /* \"#utility.yul\":3773:3900   */\n    tag_305:\n        /* \"#utility.yul\":3834:3844   */\n      0x4e487b71\n        /* \"#utility.yul\":3829:3832   */\n      0xe0\n        /* \"#utility.yul\":3825:3845   */\n      shl\n        /* \"#utility.yul\":3822:3823   */\n      0x00\n        /* \"#utility.yul\":3815:3846   */\n      mstore\n        /* \"#utility.yul\":3865:3869   */\n      0x11\n        /* \"#utility.yul\":3862:3863   */\n      0x04\n        /* \"#utility.yul\":3855:3870   */\n      mstore\n        /* \"#utility.yul\":3889:3893   */\n      0x24\n        /* \"#utility.yul\":3886:3887   */\n      0x00\n        /* \"#utility.yul\":3879:3894   */\n      revert\n        /* \"#utility.yul\":3905:4030   */\n    tag_167:\n        /* \"#utility.yul\":3970:3979   */\n      dup1\n      dup3\n      add\n        /* \"#utility.yul\":3991:4001   */\n      dup1\n      dup3\n      gt\n        /* \"#utility.yul\":3988:4024   */\n      iszero\n      tag_138\n      jumpi\n        /* \"#utility.yul\":4004:4022   */\n      tag_138\n      tag_305\n      jump\t// in\n        /* \"#utility.yul\":5539:5723   */\n    tag_200:\n        /* \"#utility.yul\":5609:5615   */\n      0x00\n        /* \"#utility.yul\":5662:5664   */\n      0x20\n        /* \"#utility.yul\":5650:5659   */\n      dup3\n        /* \"#utility.yul\":5641:5648   */\n      dup5\n        /* \"#utility.yul\":5637:5660   */\n      sub\n        /* \"#utility.yul\":5633:5665   */\n      slt\n        /* \"#utility.yul\":5630:5682   */\n      iszero\n      tag_347\n      jumpi\n        /* \"#utility.yul\":5678:5679   */\n      0x00\n        /* \"#utility.yul\":5675:5676   */\n      dup1\n        /* \"#utility.yul\":5668:5680   */\n      revert\n        /* \"#utility.yul\":5630:5682   */\n    tag_347:\n      pop\n        /* \"#utility.yul\":5701:5717   */\n      mload\n      swap2\n        /* \"#utility.yul\":5539:5723   */\n      swap1\n      pop\n      jump\t// out\n        /* \"#utility.yul\":6489:6657   */\n    tag_249:\n        /* \"#utility.yul\":6562:6571   */\n      dup1\n      dup3\n      mul\n        /* \"#utility.yul\":6593:6602   */\n      dup2\n      iszero\n        /* \"#utility.yul\":6610:6625   */\n      dup3\n      dup3\n      div\n        /* \"#utility.yul\":6604:6626   */\n      dup5\n      eq\n        /* \"#utility.yul\":6590:6627   */\n      or\n        /* \"#utility.yul\":6580:6651   */\n      tag_138\n      jumpi\n        /* \"#utility.yul\":6631:6649   */\n      tag_138\n      tag_305\n      jump\t// in\n        /* \"#utility.yul\":6662:6879   */\n    tag_251:\n        /* \"#utility.yul\":6702:6703   */\n      0x00\n        /* \"#utility.yul\":6728:6729   */\n      dup3\n        /* \"#utility.yul\":6718:6850   */\n      tag_354\n      jumpi\n        /* \"#utility.yul\":6772:6782   */\n      0x4e487b71\n        /* \"#utility.yul\":6767:6770   */\n      0xe0\n        /* \"#utility.yul\":6763:6783   */\n      shl\n        /* \"#utility.yul\":6760:6761   */\n      0x00\n        /* \"#utility.yul\":6753:6784   */\n      mstore\n        /* \"#utility.yul\":6807:6811   */\n      0x12\n        /* \"#utility.yul\":6804:6805   */\n      0x04\n        /* \"#utility.yul\":6797:6812   */\n      mstore\n        /* \"#utility.yul\":6835:6839   */\n      0x24\n        /* \"#utility.yul\":6832:6833   */\n      0x00\n        /* \"#utility.yul\":6825:6840   */\n      revert\n        /* \"#utility.yul\":6718:6850   */\n    tag_354:\n      pop\n        /* \"#utility.yul\":6864:6873   */\n      div\n      swap1\n        /* \"#utility.yul\":6662:6879   */\n      jump\t// out\n    stop\n    data_c8669cf8eaf883002b9f48e28846a8d408c9b58ea6613bace374265e43c9bc43 9b779b17422d0df92223018b32b4d1fa46e071723d6817e2486d003becc55f00\n\n    auxdata: 0xa2646970667358221220a3254e95906fb088d6a63bd5e3624caab05cfddfb0874da6b0da41cb2ac7d22564736f6c63430008180033\n}\n",
				"bytecode": {
					"linkReferences": {},
					"object": "608060405260c860055560646006556064600755603260085534801562000024575f80fd5b506040516200130038038062001300833981016040819052620000479162000229565b60017f9b779b17422d0df92223018b32b4d1fa46e071723d6817e2486d003becc55f00556001600160a01b038116620000d25760405162461bcd60e51b8152602060048201526024808201527f526f757465723a2041646d696e2063616e6e6f74206265207a65726f206164646044820152637265737360e01b606482015260840160405180910390fd5b600180546001600160a01b038088166001600160a01b03199283161790925560028054878416908316179055600380548684169083161790556004805492851692909116919091179055620001285f8262000161565b50620001557fa49807205ce4d355092ef5a8a18f56e8913cf4a201fbe287825b095693c217758262000161565b50505050505062000295565b5f828152602081815260408083206001600160a01b038516845290915281205460ff1662000204575f838152602081815260408083206001600160a01b03861684529091529020805460ff19166001179055620001bb3390565b6001600160a01b0316826001600160a01b0316847f2f8788117e7eff1d82e926ec794901d17c78024a50270940304540a733656f0d60405160405180910390a450600162000207565b505f5b92915050565b80516001600160a01b038116811462000224575f80fd5b919050565b5f805f805f60a086880312156200023e575f80fd5b62000249866200020d565b945062000259602087016200020d565b935062000269604087016200020d565b925062000279606087016200020d565b915062000289608087016200020d565b90509295509295909350565b61105d80620002a35f395ff3fe60806040526004361061013f575f3560e01c8063702b0284116100b357806398118cb41161006d57806398118cb414610390578063a217fddf146103a5578063cfa498a3146103b8578063d1949729146103cd578063d4698016146103e2578063d547741f14610401575f80fd5b8063702b0284146102cc57806375b238fc146102e157806379022a9f1461031457806386d74037146103335780638ea5220f1461035257806391d1485414610371575f80fd5b806341497c2b1161010457806341497c2b1461020f5780634b00ec631461022e5780635a9a268b1461024d5780635e126c1c146102615780636382d9ad146102985780636827e764146102b7575f80fd5b806301ffc9a71461014a578063248a9ca31461017e5780632957b839146101ba5780632f2ff15d146101cf57806336568abe146101f0575f80fd5b3661014657005b5f80fd5b348015610155575f80fd5b50610169610164366004610e48565b610420565b60405190151581526020015b60405180910390f35b348015610189575f80fd5b506101ac610198366004610e76565b5f9081526020819052604090206001015490565b604051908152602001610175565b3480156101c5575f80fd5b506101ac60085481565b3480156101da575f80fd5b506101ee6101e9366004610ea8565b610456565b005b3480156101fb575f80fd5b506101ee61020a366004610ea8565b610480565b34801561021a575f80fd5b506101ee610229366004610ed2565b6104b8565b348015610239575f80fd5b506101ee610248366004610f23565b6105ee565b348015610258575f80fd5b506101ee6106d8565b34801561026c575f80fd5b50600154610280906001600160a01b031681565b6040516001600160a01b039091168152602001610175565b3480156102a3575f80fd5b506101ee6102b2366004610f52565b610760565b3480156102c2575f80fd5b506101ac60075481565b3480156102d7575f80fd5b506101ac6105dc81565b3480156102ec575f80fd5b506101ac7fa49807205ce4d355092ef5a8a18f56e8913cf4a201fbe287825b095693c2177581565b34801561031f575f80fd5b50600454610280906001600160a01b031681565b34801561033e575f80fd5b506101ee61034d366004610f7a565b610856565b34801561035d575f80fd5b50600354610280906001600160a01b031681565b34801561037c575f80fd5b5061016961038b366004610ea8565b61099c565b34801561039b575f80fd5b506101ac60065481565b3480156103b0575f80fd5b506101ac5f81565b3480156103c3575f80fd5b506101ac61271081565b3480156103d8575f80fd5b506101ac60055481565b3480156103ed575f80fd5b50600254610280906001600160a01b031681565b34801561040c575f80fd5b506101ee61041b366004610ea8565b6109c4565b5f6001600160e01b03198216637965db0b60e01b148061045057506301ffc9a760e01b6001600160e01b03198316145b92915050565b5f82815260208190526040902060010154610470816109e8565b61047a83836109f2565b50505050565b6001600160a01b03811633146104a95760405163334bd91960e11b815260040160405180910390fd5b6104b38282610a81565b505050565b7fa49807205ce4d355092ef5a8a18f56e8913cf4a201fbe287825b095693c217756104e2816109e8565b6001600160a01b03851615806104ff57506001600160a01b038416155b156105515760405162461bcd60e51b815260206004820152601760248201527f526f757465723a20496e76616c6964206164647265737300000000000000000060448201526064015b60405180910390fd5b600180546001600160a01b038781166001600160a01b031992831681179093556002805488831690841681179091556003805488841690851681179091556004805493881693909416831790935560408051948552602085019190915283019190915260608201527f79682415cfa64e052618862f7b7011cf1953948315f402b476e7bacac0417e64906080015b60405180910390a15050505050565b7fa49807205ce4d355092ef5a8a18f56e8913cf4a201fbe287825b095693c21775610618816109e8565b6105dc82846106278789610fa7565b6106319190610fa7565b61063b9190610fa7565b111561067f5760405162461bcd60e51b81526020600482015260136024820152720526f757465723a20457863656564732063617606c1b6044820152606401610548565b60058590556006849055600783905560088290556040805186815260208101869052908101849052606081018390527f83ee137d4eea1eef0029a0cb811df31b555f216d3a45c791729e226eb145a7d5906080016105df565b6106e0610aea565b475f81900361073d5760405162461bcd60e51b815260206004820152602360248201527f526f757465723a204e6f204e61746976652062616c616e636520617661696c61604482015262626c6560e81b6064820152608401610548565b6107475f82610b05565b5061075e60015f8051602061100883398151915255565b565b5f61076a816109e8565b6001600160a01b0382166107c05760405162461bcd60e51b815260206004820152601b60248201527f526f757465723a205461726765742061646472657373207a65726f00000000006044820152606401610548565b6001600160a01b0383166107d8576104b38247610c9b565b6040516370a0823160e01b81523060048201525f906001600160a01b038516906370a0823190602401602060405180830381865afa15801561081c573d5f803e3d5ffd5b505050506040513d601f19601f820116820180604052508101906108409190610fba565b905061047a6001600160a01b0385168483610d45565b61085e610aea565b6001600160a01b0381166108b45760405162461bcd60e51b815260206004820152601d60248201527f526f757465723a20496e76616c696420746f6b656e20616464726573730000006044820152606401610548565b6040516370a0823160e01b81523060048201525f906001600160a01b038316906370a0823190602401602060405180830381865afa1580156108f8573d5f803e3d5ffd5b505050506040513d601f19601f8201168201806040525081019061091c9190610fba565b9050805f036109785760405162461bcd60e51b815260206004820152602260248201527f526f757465723a204e6f20746f6b656e2062616c616e636520617661696c61626044820152616c6560f01b6064820152608401610548565b6109828282610b05565b5061099960015f8051602061100883398151915255565b50565b5f918252602082815260408084206001600160a01b0393909316845291905290205460ff1690565b5f828152602081905260409020600101546109de816109e8565b61047a8383610a81565b6109998133610d7a565b5f6109fd838361099c565b610a7a575f838152602081815260408083206001600160a01b03861684529091529020805460ff19166001179055610a323390565b6001600160a01b0316826001600160a01b0316847f2f8788117e7eff1d82e926ec794901d17c78024a50270940304540a733656f0d60405160405180910390a4506001610450565b505f610450565b5f610a8c838361099c565b15610a7a575f838152602081815260408083206001600160a01b0386168085529252808320805460ff1916905551339286917ff6391f5c32d9c69d2a47ea670b442974b53935d1edc7fd64eb21e047a839171b9190a4506001610450565b610af2610db7565b60025f8051602061100883398151915255565b5f61271060055483610b179190610fd1565b610b219190610fe8565b90505f61271060065484610b359190610fd1565b610b3f9190610fe8565b90505f61271060075485610b539190610fd1565b610b5d9190610fe8565b90505f61271060085486610b719190610fd1565b610b7b9190610fe8565b90506001600160a01b038616610be857600154610ba1906001600160a01b031685610c9b565b600254610bb7906001600160a01b031684610c9b565b600354610bcd906001600160a01b031683610c9b565b600454610be3906001600160a01b031682610c9b565b610c50565b600154610c02906001600160a01b03888116911686610d45565b600254610c1c906001600160a01b03888116911685610d45565b600354610c36906001600160a01b03888116911684610d45565b600454610c50906001600160a01b03888116911683610d45565b856001600160a01b03167f63be20cc905d5ba0cf65db405c4999f99f2575e521875f13a8009d6eed7a09d986604051610c8b91815260200190565b60405180910390a2505050505050565b805f03610ca6575050565b5f826001600160a01b0316826040515f6040518083038185875af1925050503d805f8114610cef576040519150601f19603f3d011682016040523d82523d5f602084013e610cf4565b606091505b50509050806104b35760405162461bcd60e51b815260206004820152601e60248201527f526f757465723a204e6174697665207472616e73666572206661696c656400006044820152606401610548565b610d528383836001610de6565b6104b357604051635274afe760e01b81526001600160a01b0384166004820152602401610548565b610d84828261099c565b610db35760405163e2517d3f60e01b81526001600160a01b038216600482015260248101839052604401610548565b5050565b5f805160206110088339815191525460020361075e57604051633ee5aeb560e01b815260040160405180910390fd5b60405163a9059cbb60e01b5f8181526001600160a01b038616600452602485905291602083604481808b5af1925060015f51148316610e3c578383151615610e30573d5f823e3d81fd5b5f873b113d1516831692505b60405250949350505050565b5f60208284031215610e58575f80fd5b81356001600160e01b031981168114610e6f575f80fd5b9392505050565b5f60208284031215610e86575f80fd5b5035919050565b80356001600160a01b0381168114610ea3575f80fd5b919050565b5f8060408385031215610eb9575f80fd5b82359150610ec960208401610e8d565b90509250929050565b5f805f8060808587031215610ee5575f80fd5b610eee85610e8d565b9350610efc60208601610e8d565b9250610f0a60408601610e8d565b9150610f1860608601610e8d565b905092959194509250565b5f805f8060808587031215610f36575f80fd5b5050823594602084013594506040840135936060013592509050565b5f8060408385031215610f63575f80fd5b610f6c83610e8d565b9150610ec960208401610e8d565b5f60208284031215610f8a575f80fd5b610e6f82610e8d565b634e487b7160e01b5f52601160045260245ffd5b8082018082111561045057610450610f93565b5f60208284031215610fca575f80fd5b5051919050565b808202811582820484141761045057610450610f93565b5f8261100257634e487b7160e01b5f52601260045260245ffd5b50049056fe9b779b17422d0df92223018b32b4d1fa46e071723d6817e2486d003becc55f00a2646970667358221220a3254e95906fb088d6a63bd5e3624caab05cfddfb0874da6b0da41cb2ac7d22564736f6c63430008180033",
					"opcodes": "PUSH1 0x80 PUSH1 0x40 MSTORE PUSH1 0xC8 PUSH1 0x5 SSTORE PUSH1 0x64 PUSH1 0x6 SSTORE PUSH1 0x64 PUSH1 0x7 SSTORE PUSH1 0x32 PUSH1 0x8 SSTORE CALLVALUE DUP1 ISZERO PUSH3 0x24 JUMPI PUSH0 DUP1 REVERT JUMPDEST POP PUSH1 0x40 MLOAD PUSH3 0x1300 CODESIZE SUB DUP1 PUSH3 0x1300 DUP4 CODECOPY DUP2 ADD PUSH1 0x40 DUP2 SWAP1 MSTORE PUSH3 0x47 SWAP2 PUSH3 0x229 JUMP JUMPDEST PUSH1 0x1 PUSH32 0x9B779B17422D0DF92223018B32B4D1FA46E071723D6817E2486D003BECC55F00 SSTORE PUSH1 0x1 PUSH1 0x1 PUSH1 0xA0 SHL SUB DUP2 AND PUSH3 0xD2 JUMPI PUSH1 0x40 MLOAD PUSH3 0x461BCD PUSH1 0xE5 SHL DUP2 MSTORE PUSH1 0x20 PUSH1 0x4 DUP3 ADD MSTORE PUSH1 0x24 DUP1 DUP3 ADD MSTORE PUSH32 0x526F757465723A2041646D696E2063616E6E6F74206265207A65726F20616464 PUSH1 0x44 DUP3 ADD MSTORE PUSH4 0x72657373 PUSH1 0xE0 SHL PUSH1 0x64 DUP3 ADD MSTORE PUSH1 0x84 ADD PUSH1 0x40 MLOAD DUP1 SWAP2 SUB SWAP1 REVERT JUMPDEST PUSH1 0x1 DUP1 SLOAD PUSH1 0x1 PUSH1 0x1 PUSH1 0xA0 SHL SUB DUP1 DUP9 AND PUSH1 0x1 PUSH1 0x1 PUSH1 0xA0 SHL SUB NOT SWAP3 DUP4 AND OR SWAP1 SWAP3 SSTORE PUSH1 0x2 DUP1 SLOAD DUP8 DUP5 AND SWAP1 DUP4 AND OR SWAP1 SSTORE PUSH1 0x3 DUP1 SLOAD DUP7 DUP5 AND SWAP1 DUP4 AND OR SWAP1 SSTORE PUSH1 0x4 DUP1 SLOAD SWAP3 DUP6 AND SWAP3 SWAP1 SWAP2 AND SWAP2 SWAP1 SWAP2 OR SWAP1 SSTORE PUSH3 0x128 PUSH0 DUP3 PUSH3 0x161 JUMP JUMPDEST POP PUSH3 0x155 PUSH32 0xA49807205CE4D355092EF5A8A18F56E8913CF4A201FBE287825B095693C21775 DUP3 PUSH3 0x161 JUMP JUMPDEST POP POP POP POP POP POP PUSH3 0x295 JUMP JUMPDEST PUSH0 DUP3 DUP2 MSTORE PUSH1 0x20 DUP2 DUP2 MSTORE PUSH1 0x40 DUP1 DUP4 KECCAK256 PUSH1 0x1 PUSH1 0x1 PUSH1 0xA0 SHL SUB DUP6 AND DUP5 MSTORE SWAP1 SWAP2 MSTORE DUP2 KECCAK256 SLOAD PUSH1 0xFF AND PUSH3 0x204 JUMPI PUSH0 DUP4 DUP2 MSTORE PUSH1 0x20 DUP2 DUP2 MSTORE PUSH1 0x40 DUP1 DUP4 KECCAK256 PUSH1 0x1 PUSH1 0x1 PUSH1 0xA0 SHL SUB DUP7 AND DUP5 MSTORE SWAP1 SWAP2 MSTORE SWAP1 KECCAK256 DUP1 SLOAD PUSH1 0xFF NOT AND PUSH1 0x1 OR SWAP1 SSTORE PUSH3 0x1BB CALLER SWAP1 JUMP JUMPDEST PUSH1 0x1 PUSH1 0x1 PUSH1 0xA0 SHL SUB AND DUP3 PUSH1 0x1 PUSH1 0x1 PUSH1 0xA0 SHL SUB AND DUP5 PUSH32 0x2F8788117E7EFF1D82E926EC794901D17C78024A50270940304540A733656F0D PUSH1 0x40 MLOAD PUSH1 0x40 MLOAD DUP1 SWAP2 SUB SWAP1 LOG4 POP PUSH1 0x1 PUSH3 0x207 JUMP JUMPDEST POP PUSH0 JUMPDEST SWAP3 SWAP2 POP POP JUMP JUMPDEST DUP1 MLOAD PUSH1 0x1 PUSH1 0x1 PUSH1 0xA0 SHL SUB DUP2 AND DUP2 EQ PUSH3 0x224 JUMPI PUSH0 DUP1 REVERT JUMPDEST SWAP2 SWAP1 POP JUMP JUMPDEST PUSH0 DUP1 PUSH0 DUP1 PUSH0 PUSH1 0xA0 DUP7 DUP9 SUB SLT ISZERO PUSH3 0x23E JUMPI PUSH0 DUP1 REVERT JUMPDEST PUSH3 0x249 DUP7 PUSH3 0x20D JUMP JUMPDEST SWAP5 POP PUSH3 0x259 PUSH1 0x20 DUP8 ADD PUSH3 0x20D JUMP JUMPDEST SWAP4 POP PUSH3 0x269 PUSH1 0x40 DUP8 ADD PUSH3 0x20D JUMP JUMPDEST SWAP3 POP PUSH3 0x279 PUSH1 0x60 DUP8 ADD PUSH3 0x20D JUMP JUMPDEST SWAP2 POP PUSH3 0x289 PUSH1 0x80 DUP8 ADD PUSH3 0x20D JUMP JUMPDEST SWAP1 POP SWAP3 SWAP6 POP SWAP3 SWAP6 SWAP1 SWAP4 POP JUMP JUMPDEST PUSH2 0x105D DUP1 PUSH3 0x2A3 PUSH0 CODECOPY PUSH0 RETURN INVALID PUSH1 0x80 PUSH1 0x40 MSTORE PUSH1 0x4 CALLDATASIZE LT PUSH2 0x13F JUMPI PUSH0 CALLDATALOAD PUSH1 0xE0 SHR DUP1 PUSH4 0x702B0284 GT PUSH2 0xB3 JUMPI DUP1 PUSH4 0x98118CB4 GT PUSH2 0x6D JUMPI DUP1 PUSH4 0x98118CB4 EQ PUSH2 0x390 JUMPI DUP1 PUSH4 0xA217FDDF EQ PUSH2 0x3A5 JUMPI DUP1 PUSH4 0xCFA498A3 EQ PUSH2 0x3B8 JUMPI DUP1 PUSH4 0xD1949729 EQ PUSH2 0x3CD JUMPI DUP1 PUSH4 0xD4698016 EQ PUSH2 0x3E2 JUMPI DUP1 PUSH4 0xD547741F EQ PUSH2 0x401 JUMPI PUSH0 DUP1 REVERT JUMPDEST DUP1 PUSH4 0x702B0284 EQ PUSH2 0x2CC JUMPI DUP1 PUSH4 0x75B238FC EQ PUSH2 0x2E1 JUMPI DUP1 PUSH4 0x79022A9F EQ PUSH2 0x314 JUMPI DUP1 PUSH4 0x86D74037 EQ PUSH2 0x333 JUMPI DUP1 PUSH4 0x8EA5220F EQ PUSH2 0x352 JUMPI DUP1 PUSH4 0x91D14854 EQ PUSH2 0x371 JUMPI PUSH0 DUP1 REVERT JUMPDEST DUP1 PUSH4 0x41497C2B GT PUSH2 0x104 JUMPI DUP1 PUSH4 0x41497C2B EQ PUSH2 0x20F JUMPI DUP1 PUSH4 0x4B00EC63 EQ PUSH2 0x22E JUMPI DUP1 PUSH4 0x5A9A268B EQ PUSH2 0x24D JUMPI DUP1 PUSH4 0x5E126C1C EQ PUSH2 0x261 JUMPI DUP1 PUSH4 0x6382D9AD EQ PUSH2 0x298 JUMPI DUP1 PUSH4 0x6827E764 EQ PUSH2 0x2B7 JUMPI PUSH0 DUP1 REVERT JUMPDEST DUP1 PUSH4 0x1FFC9A7 EQ PUSH2 0x14A JUMPI DUP1 PUSH4 0x248A9CA3 EQ PUSH2 0x17E JUMPI DUP1 PUSH4 0x2957B839 EQ PUSH2 0x1BA JUMPI DUP1 PUSH4 0x2F2FF15D EQ PUSH2 0x1CF JUMPI DUP1 PUSH4 0x36568ABE EQ PUSH2 0x1F0 JUMPI PUSH0 DUP1 REVERT JUMPDEST CALLDATASIZE PUSH2 0x146 JUMPI STOP JUMPDEST PUSH0 DUP1 REVERT JUMPDEST CALLVALUE DUP1 ISZERO PUSH2 0x155 JUMPI PUSH0 DUP1 REVERT JUMPDEST POP PUSH2 0x169 PUSH2 0x164 CALLDATASIZE PUSH1 0x4 PUSH2 0xE48 JUMP JUMPDEST PUSH2 0x420 JUMP JUMPDEST PUSH1 0x40 MLOAD SWAP1 ISZERO ISZERO DUP2 MSTORE PUSH1 0x20 ADD JUMPDEST PUSH1 0x40 MLOAD DUP1 SWAP2 SUB SWAP1 RETURN JUMPDEST CALLVALUE DUP1 ISZERO PUSH2 0x189 JUMPI PUSH0 DUP1 REVERT JUMPDEST POP PUSH2 0x1AC PUSH2 0x198 CALLDATASIZE PUSH1 0x4 PUSH2 0xE76 JUMP JUMPDEST PUSH0 SWAP1 DUP2 MSTORE PUSH1 0x20 DUP2 SWAP1 MSTORE PUSH1 0x40 SWAP1 KECCAK256 PUSH1 0x1 ADD SLOAD SWAP1 JUMP JUMPDEST PUSH1 0x40 MLOAD SWAP1 DUP2 MSTORE PUSH1 0x20 ADD PUSH2 0x175 JUMP JUMPDEST CALLVALUE DUP1 ISZERO PUSH2 0x1C5 JUMPI PUSH0 DUP1 REVERT JUMPDEST POP PUSH2 0x1AC PUSH1 0x8 SLOAD DUP2 JUMP JUMPDEST CALLVALUE DUP1 ISZERO PUSH2 0x1DA JUMPI PUSH0 DUP1 REVERT JUMPDEST POP PUSH2 0x1EE PUSH2 0x1E9 CALLDATASIZE PUSH1 0x4 PUSH2 0xEA8 JUMP JUMPDEST PUSH2 0x456 JUMP JUMPDEST STOP JUMPDEST CALLVALUE DUP1 ISZERO PUSH2 0x1FB JUMPI PUSH0 DUP1 REVERT JUMPDEST POP PUSH2 0x1EE PUSH2 0x20A CALLDATASIZE PUSH1 0x4 PUSH2 0xEA8 JUMP JUMPDEST PUSH2 0x480 JUMP JUMPDEST CALLVALUE DUP1 ISZERO PUSH2 0x21A JUMPI PUSH0 DUP1 REVERT JUMPDEST POP PUSH2 0x1EE PUSH2 0x229 CALLDATASIZE PUSH1 0x4 PUSH2 0xED2 JUMP JUMPDEST PUSH2 0x4B8 JUMP JUMPDEST CALLVALUE DUP1 ISZERO PUSH2 0x239 JUMPI PUSH0 DUP1 REVERT JUMPDEST POP PUSH2 0x1EE PUSH2 0x248 CALLDATASIZE PUSH1 0x4 PUSH2 0xF23 JUMP JUMPDEST PUSH2 0x5EE JUMP JUMPDEST CALLVALUE DUP1 ISZERO PUSH2 0x258 JUMPI PUSH0 DUP1 REVERT JUMPDEST POP PUSH2 0x1EE PUSH2 0x6D8 JUMP JUMPDEST CALLVALUE DUP1 ISZERO PUSH2 0x26C JUMPI PUSH0 DUP1 REVERT JUMPDEST POP PUSH1 0x1 SLOAD PUSH2 0x280 SWAP1 PUSH1 0x1 PUSH1 0x1 PUSH1 0xA0 SHL SUB AND DUP2 JUMP JUMPDEST PUSH1 0x40 MLOAD PUSH1 0x1 PUSH1 0x1 PUSH1 0xA0 SHL SUB SWAP1 SWAP2 AND DUP2 MSTORE PUSH1 0x20 ADD PUSH2 0x175 JUMP JUMPDEST CALLVALUE DUP1 ISZERO PUSH2 0x2A3 JUMPI PUSH0 DUP1 REVERT JUMPDEST POP PUSH2 0x1EE PUSH2 0x2B2 CALLDATASIZE PUSH1 0x4 PUSH2 0xF52 JUMP JUMPDEST PUSH2 0x760 JUMP JUMPDEST CALLVALUE DUP1 ISZERO PUSH2 0x2C2 JUMPI PUSH0 DUP1 REVERT JUMPDEST POP PUSH2 0x1AC PUSH1 0x7 SLOAD DUP2 JUMP JUMPDEST CALLVALUE DUP1 ISZERO PUSH2 0x2D7 JUMPI PUSH0 DUP1 REVERT JUMPDEST POP PUSH2 0x1AC PUSH2 0x5DC DUP2 JUMP JUMPDEST CALLVALUE DUP1 ISZERO PUSH2 0x2EC JUMPI PUSH0 DUP1 REVERT JUMPDEST POP PUSH2 0x1AC PUSH32 0xA49807205CE4D355092EF5A8A18F56E8913CF4A201FBE287825B095693C21775 DUP2 JUMP JUMPDEST CALLVALUE DUP1 ISZERO PUSH2 0x31F JUMPI PUSH0 DUP1 REVERT JUMPDEST POP PUSH1 0x4 SLOAD PUSH2 0x280 SWAP1 PUSH1 0x1 PUSH1 0x1 PUSH1 0xA0 SHL SUB AND DUP2 JUMP JUMPDEST CALLVALUE DUP1 ISZERO PUSH2 0x33E JUMPI PUSH0 DUP1 REVERT JUMPDEST POP PUSH2 0x1EE PUSH2 0x34D CALLDATASIZE PUSH1 0x4 PUSH2 0xF7A JUMP JUMPDEST PUSH2 0x856 JUMP JUMPDEST CALLVALUE DUP1 ISZERO PUSH2 0x35D JUMPI PUSH0 DUP1 REVERT JUMPDEST POP PUSH1 0x3 SLOAD PUSH2 0x280 SWAP1 PUSH1 0x1 PUSH1 0x1 PUSH1 0xA0 SHL SUB AND DUP2 JUMP JUMPDEST CALLVALUE DUP1 ISZERO PUSH2 0x37C JUMPI PUSH0 DUP1 REVERT JUMPDEST POP PUSH2 0x169 PUSH2 0x38B CALLDATASIZE PUSH1 0x4 PUSH2 0xEA8 JUMP JUMPDEST PUSH2 0x99C JUMP JUMPDEST CALLVALUE DUP1 ISZERO PUSH2 0x39B JUMPI PUSH0 DUP1 REVERT JUMPDEST POP PUSH2 0x1AC PUSH1 0x6 SLOAD DUP2 JUMP JUMPDEST CALLVALUE DUP1 ISZERO PUSH2 0x3B0 JUMPI PUSH0 DUP1 REVERT JUMPDEST POP PUSH2 0x1AC PUSH0 DUP2 JUMP JUMPDEST CALLVALUE DUP1 ISZERO PUSH2 0x3C3 JUMPI PUSH0 DUP1 REVERT JUMPDEST POP PUSH2 0x1AC PUSH2 0x2710 DUP2 JUMP JUMPDEST CALLVALUE DUP1 ISZERO PUSH2 0x3D8 JUMPI PUSH0 DUP1 REVERT JUMPDEST POP PUSH2 0x1AC PUSH1 0x5 SLOAD DUP2 JUMP JUMPDEST CALLVALUE DUP1 ISZERO PUSH2 0x3ED JUMPI PUSH0 DUP1 REVERT JUMPDEST POP PUSH1 0x2 SLOAD PUSH2 0x280 SWAP1 PUSH1 0x1 PUSH1 0x1 PUSH1 0xA0 SHL SUB AND DUP2 JUMP JUMPDEST CALLVALUE DUP1 ISZERO PUSH2 0x40C JUMPI PUSH0 DUP1 REVERT JUMPDEST POP PUSH2 0x1EE PUSH2 0x41B CALLDATASIZE PUSH1 0x4 PUSH2 0xEA8 JUMP JUMPDEST PUSH2 0x9C4 JUMP JUMPDEST PUSH0 PUSH1 0x1 PUSH1 0x1 PUSH1 0xE0 SHL SUB NOT DUP3 AND PUSH4 0x7965DB0B PUSH1 0xE0 SHL EQ DUP1 PUSH2 0x450 JUMPI POP PUSH4 0x1FFC9A7 PUSH1 0xE0 SHL PUSH1 0x1 PUSH1 0x1 PUSH1 0xE0 SHL SUB NOT DUP4 AND EQ JUMPDEST SWAP3 SWAP2 POP POP JUMP JUMPDEST PUSH0 DUP3 DUP2 MSTORE PUSH1 0x20 DUP2 SWAP1 MSTORE PUSH1 0x40 SWAP1 KECCAK256 PUSH1 0x1 ADD SLOAD PUSH2 0x470 DUP2 PUSH2 0x9E8 JUMP JUMPDEST PUSH2 0x47A DUP4 DUP4 PUSH2 0x9F2 JUMP JUMPDEST POP POP POP POP JUMP JUMPDEST PUSH1 0x1 PUSH1 0x1 PUSH1 0xA0 SHL SUB DUP2 AND CALLER EQ PUSH2 0x4A9 JUMPI PUSH1 0x40 MLOAD PUSH4 0x334BD919 PUSH1 0xE1 SHL DUP2 MSTORE PUSH1 0x4 ADD PUSH1 0x40 MLOAD DUP1 SWAP2 SUB SWAP1 REVERT JUMPDEST PUSH2 0x4B3 DUP3 DUP3 PUSH2 0xA81 JUMP JUMPDEST POP POP POP JUMP JUMPDEST PUSH32 0xA49807205CE4D355092EF5A8A18F56E8913CF4A201FBE287825B095693C21775 PUSH2 0x4E2 DUP2 PUSH2 0x9E8 JUMP JUMPDEST PUSH1 0x1 PUSH1 0x1 PUSH1 0xA0 SHL SUB DUP6 AND ISZERO DUP1 PUSH2 0x4FF JUMPI POP PUSH1 0x1 PUSH1 0x1 PUSH1 0xA0 SHL SUB DUP5 AND ISZERO JUMPDEST ISZERO PUSH2 0x551 JUMPI PUSH1 0x40 MLOAD PUSH3 0x461BCD PUSH1 0xE5 SHL DUP2 MSTORE PUSH1 0x20 PUSH1 0x4 DUP3 ADD MSTORE PUSH1 0x17 PUSH1 0x24 DUP3 ADD MSTORE PUSH32 0x526F757465723A20496E76616C69642061646472657373000000000000000000 PUSH1 0x44 DUP3 ADD MSTORE PUSH1 0x64 ADD JUMPDEST PUSH1 0x40 MLOAD DUP1 SWAP2 SUB SWAP1 REVERT JUMPDEST PUSH1 0x1 DUP1 SLOAD PUSH1 0x1 PUSH1 0x1 PUSH1 0xA0 SHL SUB DUP8 DUP2 AND PUSH1 0x1 PUSH1 0x1 PUSH1 0xA0 SHL SUB NOT SWAP3 DUP4 AND DUP2 OR SWAP1 SWAP4 SSTORE PUSH1 0x2 DUP1 SLOAD DUP9 DUP4 AND SWAP1 DUP5 AND DUP2 OR SWAP1 SWAP2 SSTORE PUSH1 0x3 DUP1 SLOAD DUP9 DUP5 AND SWAP1 DUP6 AND DUP2 OR SWAP1 SWAP2 SSTORE PUSH1 0x4 DUP1 SLOAD SWAP4 DUP9 AND SWAP4 SWAP1 SWAP5 AND DUP4 OR SWAP1 SWAP4 SSTORE PUSH1 0x40 DUP1 MLOAD SWAP5 DUP6 MSTORE PUSH1 0x20 DUP6 ADD SWAP2 SWAP1 SWAP2 MSTORE DUP4 ADD SWAP2 SWAP1 SWAP2 MSTORE PUSH1 0x60 DUP3 ADD MSTORE PUSH32 0x79682415CFA64E052618862F7B7011CF1953948315F402B476E7BACAC0417E64 SWAP1 PUSH1 0x80 ADD JUMPDEST PUSH1 0x40 MLOAD DUP1 SWAP2 SUB SWAP1 LOG1 POP POP POP POP POP JUMP JUMPDEST PUSH32 0xA49807205CE4D355092EF5A8A18F56E8913CF4A201FBE287825B095693C21775 PUSH2 0x618 DUP2 PUSH2 0x9E8 JUMP JUMPDEST PUSH2 0x5DC DUP3 DUP5 PUSH2 0x627 DUP8 DUP10 PUSH2 0xFA7 JUMP JUMPDEST PUSH2 0x631 SWAP2 SWAP1 PUSH2 0xFA7 JUMP JUMPDEST PUSH2 0x63B SWAP2 SWAP1 PUSH2 0xFA7 JUMP JUMPDEST GT ISZERO PUSH2 0x67F JUMPI PUSH1 0x40 MLOAD PUSH3 0x461BCD PUSH1 0xE5 SHL DUP2 MSTORE PUSH1 0x20 PUSH1 0x4 DUP3 ADD MSTORE PUSH1 0x13 PUSH1 0x24 DUP3 ADD MSTORE PUSH19 0x526F757465723A20457863656564732063617 PUSH1 0x6C SHL PUSH1 0x44 DUP3 ADD MSTORE PUSH1 0x64 ADD PUSH2 0x548 JUMP JUMPDEST PUSH1 0x5 DUP6 SWAP1 SSTORE PUSH1 0x6 DUP5 SWAP1 SSTORE PUSH1 0x7 DUP4 SWAP1 SSTORE PUSH1 0x8 DUP3 SWAP1 SSTORE PUSH1 0x40 DUP1 MLOAD DUP7 DUP2 MSTORE PUSH1 0x20 DUP2 ADD DUP7 SWAP1 MSTORE SWAP1 DUP2 ADD DUP5 SWAP1 MSTORE PUSH1 0x60 DUP2 ADD DUP4 SWAP1 MSTORE PUSH32 0x83EE137D4EEA1EEF0029A0CB811DF31B555F216D3A45C791729E226EB145A7D5 SWAP1 PUSH1 0x80 ADD PUSH2 0x5DF JUMP JUMPDEST PUSH2 0x6E0 PUSH2 0xAEA JUMP JUMPDEST SELFBALANCE PUSH0 DUP2 SWAP1 SUB PUSH2 0x73D JUMPI PUSH1 0x40 MLOAD PUSH3 0x461BCD PUSH1 0xE5 SHL DUP2 MSTORE PUSH1 0x20 PUSH1 0x4 DUP3 ADD MSTORE PUSH1 0x23 PUSH1 0x24 DUP3 ADD MSTORE PUSH32 0x526F757465723A204E6F204E61746976652062616C616E636520617661696C61 PUSH1 0x44 DUP3 ADD MSTORE PUSH3 0x626C65 PUSH1 0xE8 SHL PUSH1 0x64 DUP3 ADD MSTORE PUSH1 0x84 ADD PUSH2 0x548 JUMP JUMPDEST PUSH2 0x747 PUSH0 DUP3 PUSH2 0xB05 JUMP JUMPDEST POP PUSH2 0x75E PUSH1 0x1 PUSH0 DUP1 MLOAD PUSH1 0x20 PUSH2 0x1008 DUP4 CODECOPY DUP2 MLOAD SWAP2 MSTORE SSTORE JUMP JUMPDEST JUMP JUMPDEST PUSH0 PUSH2 0x76A DUP2 PUSH2 0x9E8 JUMP JUMPDEST PUSH1 0x1 PUSH1 0x1 PUSH1 0xA0 SHL SUB DUP3 AND PUSH2 0x7C0 JUMPI PUSH1 0x40 MLOAD PUSH3 0x461BCD PUSH1 0xE5 SHL DUP2 MSTORE PUSH1 0x20 PUSH1 0x4 DUP3 ADD MSTORE PUSH1 0x1B PUSH1 0x24 DUP3 ADD MSTORE PUSH32 0x526F757465723A205461726765742061646472657373207A65726F0000000000 PUSH1 0x44 DUP3 ADD MSTORE PUSH1 0x64 ADD PUSH2 0x548 JUMP JUMPDEST PUSH1 0x1 PUSH1 0x1 PUSH1 0xA0 SHL SUB DUP4 AND PUSH2 0x7D8 JUMPI PUSH2 0x4B3 DUP3 SELFBALANCE PUSH2 0xC9B JUMP JUMPDEST PUSH1 0x40 MLOAD PUSH4 0x70A08231 PUSH1 0xE0 SHL DUP2 MSTORE ADDRESS PUSH1 0x4 DUP3 ADD MSTORE PUSH0 SWAP1 PUSH1 0x1 PUSH1 0x1 PUSH1 0xA0 SHL SUB DUP6 AND SWAP1 PUSH4 0x70A08231 SWAP1 PUSH1 0x24 ADD PUSH1 0x20 PUSH1 0x40 MLOAD DUP1 DUP4 SUB DUP2 DUP7 GAS STATICCALL ISZERO DUP1 ISZERO PUSH2 0x81C JUMPI RETURNDATASIZE PUSH0 DUP1 RETURNDATACOPY RETURNDATASIZE PUSH0 REVERT JUMPDEST POP POP POP POP PUSH1 0x40 MLOAD RETURNDATASIZE PUSH1 0x1F NOT PUSH1 0x1F DUP3 ADD AND DUP3 ADD DUP1 PUSH1 0x40 MSTORE POP DUP2 ADD SWAP1 PUSH2 0x840 SWAP2 SWAP1 PUSH2 0xFBA JUMP JUMPDEST SWAP1 POP PUSH2 0x47A PUSH1 0x1 PUSH1 0x1 PUSH1 0xA0 SHL SUB DUP6 AND DUP5 DUP4 PUSH2 0xD45 JUMP JUMPDEST PUSH2 0x85E PUSH2 0xAEA JUMP JUMPDEST PUSH1 0x1 PUSH1 0x1 PUSH1 0xA0 SHL SUB DUP2 AND PUSH2 0x8B4 JUMPI PUSH1 0x40 MLOAD PUSH3 0x461BCD PUSH1 0xE5 SHL DUP2 MSTORE PUSH1 0x20 PUSH1 0x4 DUP3 ADD MSTORE PUSH1 0x1D PUSH1 0x24 DUP3 ADD MSTORE PUSH32 0x526F757465723A20496E76616C696420746F6B656E2061646472657373000000 PUSH1 0x44 DUP3 ADD MSTORE PUSH1 0x64 ADD PUSH2 0x548 JUMP JUMPDEST PUSH1 0x40 MLOAD PUSH4 0x70A08231 PUSH1 0xE0 SHL DUP2 MSTORE ADDRESS PUSH1 0x4 DUP3 ADD MSTORE PUSH0 SWAP1 PUSH1 0x1 PUSH1 0x1 PUSH1 0xA0 SHL SUB DUP4 AND SWAP1 PUSH4 0x70A08231 SWAP1 PUSH1 0x24 ADD PUSH1 0x20 PUSH1 0x40 MLOAD DUP1 DUP4 SUB DUP2 DUP7 GAS STATICCALL ISZERO DUP1 ISZERO PUSH2 0x8F8 JUMPI RETURNDATASIZE PUSH0 DUP1 RETURNDATACOPY RETURNDATASIZE PUSH0 REVERT JUMPDEST POP POP POP POP PUSH1 0x40 MLOAD RETURNDATASIZE PUSH1 0x1F NOT PUSH1 0x1F DUP3 ADD AND DUP3 ADD DUP1 PUSH1 0x40 MSTORE POP DUP2 ADD SWAP1 PUSH2 0x91C SWAP2 SWAP1 PUSH2 0xFBA JUMP JUMPDEST SWAP1 POP DUP1 PUSH0 SUB PUSH2 0x978 JUMPI PUSH1 0x40 MLOAD PUSH3 0x461BCD PUSH1 0xE5 SHL DUP2 MSTORE PUSH1 0x20 PUSH1 0x4 DUP3 ADD MSTORE PUSH1 0x22 PUSH1 0x24 DUP3 ADD MSTORE PUSH32 0x526F757465723A204E6F20746F6B656E2062616C616E636520617661696C6162 PUSH1 0x44 DUP3 ADD MSTORE PUSH2 0x6C65 PUSH1 0xF0 SHL PUSH1 0x64 DUP3 ADD MSTORE PUSH1 0x84 ADD PUSH2 0x548 JUMP JUMPDEST PUSH2 0x982 DUP3 DUP3 PUSH2 0xB05 JUMP JUMPDEST POP PUSH2 0x999 PUSH1 0x1 PUSH0 DUP1 MLOAD PUSH1 0x20 PUSH2 0x1008 DUP4 CODECOPY DUP2 MLOAD SWAP2 MSTORE SSTORE JUMP JUMPDEST POP JUMP JUMPDEST PUSH0 SWAP2 DUP3 MSTORE PUSH1 0x20 DUP3 DUP2 MSTORE PUSH1 0x40 DUP1 DUP5 KECCAK256 PUSH1 0x1 PUSH1 0x1 PUSH1 0xA0 SHL SUB SWAP4 SWAP1 SWAP4 AND DUP5 MSTORE SWAP2 SWAP1 MSTORE SWAP1 KECCAK256 SLOAD PUSH1 0xFF AND SWAP1 JUMP JUMPDEST PUSH0 DUP3 DUP2 MSTORE PUSH1 0x20 DUP2 SWAP1 MSTORE PUSH1 0x40 SWAP1 KECCAK256 PUSH1 0x1 ADD SLOAD PUSH2 0x9DE DUP2 PUSH2 0x9E8 JUMP JUMPDEST PUSH2 0x47A DUP4 DUP4 PUSH2 0xA81 JUMP JUMPDEST PUSH2 0x999 DUP2 CALLER PUSH2 0xD7A JUMP JUMPDEST PUSH0 PUSH2 0x9FD DUP4 DUP4 PUSH2 0x99C JUMP JUMPDEST PUSH2 0xA7A JUMPI PUSH0 DUP4 DUP2 MSTORE PUSH1 0x20 DUP2 DUP2 MSTORE PUSH1 0x40 DUP1 DUP4 KECCAK256 PUSH1 0x1 PUSH1 0x1 PUSH1 0xA0 SHL SUB DUP7 AND DUP5 MSTORE SWAP1 SWAP2 MSTORE SWAP1 KECCAK256 DUP1 SLOAD PUSH1 0xFF NOT AND PUSH1 0x1 OR SWAP1 SSTORE PUSH2 0xA32 CALLER SWAP1 JUMP JUMPDEST PUSH1 0x1 PUSH1 0x1 PUSH1 0xA0 SHL SUB AND DUP3 PUSH1 0x1 PUSH1 0x1 PUSH1 0xA0 SHL SUB AND DUP5 PUSH32 0x2F8788117E7EFF1D82E926EC794901D17C78024A50270940304540A733656F0D PUSH1 0x40 MLOAD PUSH1 0x40 MLOAD DUP1 SWAP2 SUB SWAP1 LOG4 POP PUSH1 0x1 PUSH2 0x450 JUMP JUMPDEST POP PUSH0 PUSH2 0x450 JUMP JUMPDEST PUSH0 PUSH2 0xA8C DUP4 DUP4 PUSH2 0x99C JUMP JUMPDEST ISZERO PUSH2 0xA7A JUMPI PUSH0 DUP4 DUP2 MSTORE PUSH1 0x20 DUP2 DUP2 MSTORE PUSH1 0x40 DUP1 DUP4 KECCAK256 PUSH1 0x1 PUSH1 0x1 PUSH1 0xA0 SHL SUB DUP7 AND DUP1 DUP6 MSTORE SWAP3 MSTORE DUP1 DUP4 KECCAK256 DUP1 SLOAD PUSH1 0xFF NOT AND SWAP1 SSTORE MLOAD CALLER SWAP3 DUP7 SWAP2 PUSH32 0xF6391F5C32D9C69D2A47EA670B442974B53935D1EDC7FD64EB21E047A839171B SWAP2 SWAP1 LOG4 POP PUSH1 0x1 PUSH2 0x450 JUMP JUMPDEST PUSH2 0xAF2 PUSH2 0xDB7 JUMP JUMPDEST PUSH1 0x2 PUSH0 DUP1 MLOAD PUSH1 0x20 PUSH2 0x1008 DUP4 CODECOPY DUP2 MLOAD SWAP2 MSTORE SSTORE JUMP JUMPDEST PUSH0 PUSH2 0x2710 PUSH1 0x5 SLOAD DUP4 PUSH2 0xB17 SWAP2 SWAP1 PUSH2 0xFD1 JUMP JUMPDEST PUSH2 0xB21 SWAP2 SWAP1 PUSH2 0xFE8 JUMP JUMPDEST SWAP1 POP PUSH0 PUSH2 0x2710 PUSH1 0x6 SLOAD DUP5 PUSH2 0xB35 SWAP2 SWAP1 PUSH2 0xFD1 JUMP JUMPDEST PUSH2 0xB3F SWAP2 SWAP1 PUSH2 0xFE8 JUMP JUMPDEST SWAP1 POP PUSH0 PUSH2 0x2710 PUSH1 0x7 SLOAD DUP6 PUSH2 0xB53 SWAP2 SWAP1 PUSH2 0xFD1 JUMP JUMPDEST PUSH2 0xB5D SWAP2 SWAP1 PUSH2 0xFE8 JUMP JUMPDEST SWAP1 POP PUSH0 PUSH2 0x2710 PUSH1 0x8 SLOAD DUP7 PUSH2 0xB71 SWAP2 SWAP1 PUSH2 0xFD1 JUMP JUMPDEST PUSH2 0xB7B SWAP2 SWAP1 PUSH2 0xFE8 JUMP JUMPDEST SWAP1 POP PUSH1 0x1 PUSH1 0x1 PUSH1 0xA0 SHL SUB DUP7 AND PUSH2 0xBE8 JUMPI PUSH1 0x1 SLOAD PUSH2 0xBA1 SWAP1 PUSH1 0x1 PUSH1 0x1 PUSH1 0xA0 SHL SUB AND DUP6 PUSH2 0xC9B JUMP JUMPDEST PUSH1 0x2 SLOAD PUSH2 0xBB7 SWAP1 PUSH1 0x1 PUSH1 0x1 PUSH1 0xA0 SHL SUB AND DUP5 PUSH2 0xC9B JUMP JUMPDEST PUSH1 0x3 SLOAD PUSH2 0xBCD SWAP1 PUSH1 0x1 PUSH1 0x1 PUSH1 0xA0 SHL SUB AND DUP4 PUSH2 0xC9B JUMP JUMPDEST PUSH1 0x4 SLOAD PUSH2 0xBE3 SWAP1 PUSH1 0x1 PUSH1 0x1 PUSH1 0xA0 SHL SUB AND DUP3 PUSH2 0xC9B JUMP JUMPDEST PUSH2 0xC50 JUMP JUMPDEST PUSH1 0x1 SLOAD PUSH2 0xC02 SWAP1 PUSH1 0x1 PUSH1 0x1 PUSH1 0xA0 SHL SUB DUP9 DUP2 AND SWAP2 AND DUP7 PUSH2 0xD45 JUMP JUMPDEST PUSH1 0x2 SLOAD PUSH2 0xC1C SWAP1 PUSH1 0x1 PUSH1 0x1 PUSH1 0xA0 SHL SUB DUP9 DUP2 AND SWAP2 AND DUP6 PUSH2 0xD45 JUMP JUMPDEST PUSH1 0x3 SLOAD PUSH2 0xC36 SWAP1 PUSH1 0x1 PUSH1 0x1 PUSH1 0xA0 SHL SUB DUP9 DUP2 AND SWAP2 AND DUP5 PUSH2 0xD45 JUMP JUMPDEST PUSH1 0x4 SLOAD PUSH2 0xC50 SWAP1 PUSH1 0x1 PUSH1 0x1 PUSH1 0xA0 SHL SUB DUP9 DUP2 AND SWAP2 AND DUP4 PUSH2 0xD45 JUMP JUMPDEST DUP6 PUSH1 0x1 PUSH1 0x1 PUSH1 0xA0 SHL SUB AND PUSH32 0x63BE20CC905D5BA0CF65DB405C4999F99F2575E521875F13A8009D6EED7A09D9 DUP7 PUSH1 0x40 MLOAD PUSH2 0xC8B SWAP2 DUP2 MSTORE PUSH1 0x20 ADD SWAP1 JUMP JUMPDEST PUSH1 0x40 MLOAD DUP1 SWAP2 SUB SWAP1 LOG2 POP POP POP POP POP POP JUMP JUMPDEST DUP1 PUSH0 SUB PUSH2 0xCA6 JUMPI POP POP JUMP JUMPDEST PUSH0 DUP3 PUSH1 0x1 PUSH1 0x1 PUSH1 0xA0 SHL SUB AND DUP3 PUSH1 0x40 MLOAD PUSH0 PUSH1 0x40 MLOAD DUP1 DUP4 SUB DUP2 DUP6 DUP8 GAS CALL SWAP3 POP POP POP RETURNDATASIZE DUP1 PUSH0 DUP2 EQ PUSH2 0xCEF JUMPI PUSH1 0x40 MLOAD SWAP2 POP PUSH1 0x1F NOT PUSH1 0x3F RETURNDATASIZE ADD AND DUP3 ADD PUSH1 0x40 MSTORE RETURNDATASIZE DUP3 MSTORE RETURNDATASIZE PUSH0 PUSH1 0x20 DUP5 ADD RETURNDATACOPY PUSH2 0xCF4 JUMP JUMPDEST PUSH1 0x60 SWAP2 POP JUMPDEST POP POP SWAP1 POP DUP1 PUSH2 0x4B3 JUMPI PUSH1 0x40 MLOAD PUSH3 0x461BCD PUSH1 0xE5 SHL DUP2 MSTORE PUSH1 0x20 PUSH1 0x4 DUP3 ADD MSTORE PUSH1 0x1E PUSH1 0x24 DUP3 ADD MSTORE PUSH32 0x526F757465723A204E6174697665207472616E73666572206661696C65640000 PUSH1 0x44 DUP3 ADD MSTORE PUSH1 0x64 ADD PUSH2 0x548 JUMP JUMPDEST PUSH2 0xD52 DUP4 DUP4 DUP4 PUSH1 0x1 PUSH2 0xDE6 JUMP JUMPDEST PUSH2 0x4B3 JUMPI PUSH1 0x40 MLOAD PUSH4 0x5274AFE7 PUSH1 0xE0 SHL DUP2 MSTORE PUSH1 0x1 PUSH1 0x1 PUSH1 0xA0 SHL SUB DUP5 AND PUSH1 0x4 DUP3 ADD MSTORE PUSH1 0x24 ADD PUSH2 0x548 JUMP JUMPDEST PUSH2 0xD84 DUP3 DUP3 PUSH2 0x99C JUMP JUMPDEST PUSH2 0xDB3 JUMPI PUSH1 0x40 MLOAD PUSH4 0xE2517D3F PUSH1 0xE0 SHL DUP2 MSTORE PUSH1 0x1 PUSH1 0x1 PUSH1 0xA0 SHL SUB DUP3 AND PUSH1 0x4 DUP3 ADD MSTORE PUSH1 0x24 DUP2 ADD DUP4 SWAP1 MSTORE PUSH1 0x44 ADD PUSH2 0x548 JUMP JUMPDEST POP POP JUMP JUMPDEST PUSH0 DUP1 MLOAD PUSH1 0x20 PUSH2 0x1008 DUP4 CODECOPY DUP2 MLOAD SWAP2 MSTORE SLOAD PUSH1 0x2 SUB PUSH2 0x75E JUMPI PUSH1 0x40 MLOAD PUSH4 0x3EE5AEB5 PUSH1 0xE0 SHL DUP2 MSTORE PUSH1 0x4 ADD PUSH1 0x40 MLOAD DUP1 SWAP2 SUB SWAP1 REVERT JUMPDEST PUSH1 0x40 MLOAD PUSH4 0xA9059CBB PUSH1 0xE0 SHL PUSH0 DUP2 DUP2 MSTORE PUSH1 0x1 PUSH1 0x1 PUSH1 0xA0 SHL SUB DUP7 AND PUSH1 0x4 MSTORE PUSH1 0x24 DUP6 SWAP1 MSTORE SWAP2 PUSH1 0x20 DUP4 PUSH1 0x44 DUP2 DUP1 DUP12 GAS CALL SWAP3 POP PUSH1 0x1 PUSH0 MLOAD EQ DUP4 AND PUSH2 0xE3C JUMPI DUP4 DUP4 ISZERO AND ISZERO PUSH2 0xE30 JUMPI RETURNDATASIZE PUSH0 DUP3 RETURNDATACOPY RETURNDATASIZE DUP2 REVERT JUMPDEST PUSH0 DUP8 EXTCODESIZE GT RETURNDATASIZE ISZERO AND DUP4 AND SWAP3 POP JUMPDEST PUSH1 0x40 MSTORE POP SWAP5 SWAP4 POP POP POP POP JUMP JUMPDEST PUSH0 PUSH1 0x20 DUP3 DUP5 SUB SLT ISZERO PUSH2 0xE58 JUMPI PUSH0 DUP1 REVERT JUMPDEST DUP2 CALLDATALOAD PUSH1 0x1 PUSH1 0x1 PUSH1 0xE0 SHL SUB NOT DUP2 AND DUP2 EQ PUSH2 0xE6F JUMPI PUSH0 DUP1 REVERT JUMPDEST SWAP4 SWAP3 POP POP POP JUMP JUMPDEST PUSH0 PUSH1 0x20 DUP3 DUP5 SUB SLT ISZERO PUSH2 0xE86 JUMPI PUSH0 DUP1 REVERT JUMPDEST POP CALLDATALOAD SWAP2 SWAP1 POP JUMP JUMPDEST DUP1 CALLDATALOAD PUSH1 0x1 PUSH1 0x1 PUSH1 0xA0 SHL SUB DUP2 AND DUP2 EQ PUSH2 0xEA3 JUMPI PUSH0 DUP1 REVERT JUMPDEST SWAP2 SWAP1 POP JUMP JUMPDEST PUSH0 DUP1 PUSH1 0x40 DUP4 DUP6 SUB SLT ISZERO PUSH2 0xEB9 JUMPI PUSH0 DUP1 REVERT JUMPDEST DUP3 CALLDATALOAD SWAP2 POP PUSH2 0xEC9 PUSH1 0x20 DUP5 ADD PUSH2 0xE8D JUMP JUMPDEST SWAP1 POP SWAP3 POP SWAP3 SWAP1 POP JUMP JUMPDEST PUSH0 DUP1 PUSH0 DUP1 PUSH1 0x80 DUP6 DUP8 SUB SLT ISZERO PUSH2 0xEE5 JUMPI PUSH0 DUP1 REVERT JUMPDEST PUSH2 0xEEE DUP6 PUSH2 0xE8D JUMP JUMPDEST SWAP4 POP PUSH2 0xEFC PUSH1 0x20 DUP7 ADD PUSH2 0xE8D JUMP JUMPDEST SWAP3 POP PUSH2 0xF0A PUSH1 0x40 DUP7 ADD PUSH2 0xE8D JUMP JUMPDEST SWAP2 POP PUSH2 0xF18 PUSH1 0x60 DUP7 ADD PUSH2 0xE8D JUMP JUMPDEST SWAP1 POP SWAP3 SWAP6 SWAP2 SWAP5 POP SWAP3 POP JUMP JUMPDEST PUSH0 DUP1 PUSH0 DUP1 PUSH1 0x80 DUP6 DUP8 SUB SLT ISZERO PUSH2 0xF36 JUMPI PUSH0 DUP1 REVERT JUMPDEST POP POP DUP3 CALLDATALOAD SWAP5 PUSH1 0x20 DUP5 ADD CALLDATALOAD SWAP5 POP PUSH1 0x40 DUP5 ADD CALLDATALOAD SWAP4 PUSH1 0x60 ADD CALLDATALOAD SWAP3 POP SWAP1 POP JUMP JUMPDEST PUSH0 DUP1 PUSH1 0x40 DUP4 DUP6 SUB SLT ISZERO PUSH2 0xF63 JUMPI PUSH0 DUP1 REVERT JUMPDEST PUSH2 0xF6C DUP4 PUSH2 0xE8D JUMP JUMPDEST SWAP2 POP PUSH2 0xEC9 PUSH1 0x20 DUP5 ADD PUSH2 0xE8D JUMP JUMPDEST PUSH0 PUSH1 0x20 DUP3 DUP5 SUB SLT ISZERO PUSH2 0xF8A JUMPI PUSH0 DUP1 REVERT JUMPDEST PUSH2 0xE6F DUP3 PUSH2 0xE8D JUMP JUMPDEST PUSH4 0x4E487B71 PUSH1 0xE0 SHL PUSH0 MSTORE PUSH1 0x11 PUSH1 0x4 MSTORE PUSH1 0x24 PUSH0 REVERT JUMPDEST DUP1 DUP3 ADD DUP1 DUP3 GT ISZERO PUSH2 0x450 JUMPI PUSH2 0x450 PUSH2 0xF93 JUMP JUMPDEST PUSH0 PUSH1 0x20 DUP3 DUP5 SUB SLT ISZERO PUSH2 0xFCA JUMPI PUSH0 DUP1 REVERT JUMPDEST POP MLOAD SWAP2 SWAP1 POP JUMP JUMPDEST DUP1 DUP3 MUL DUP2 ISZERO DUP3 DUP3 DIV DUP5 EQ OR PUSH2 0x450 JUMPI PUSH2 0x450 PUSH2 0xF93 JUMP JUMPDEST PUSH0 DUP3 PUSH2 0x1002 JUMPI PUSH4 0x4E487B71 PUSH1 0xE0 SHL PUSH0 MSTORE PUSH1 0x12 PUSH1 0x4 MSTORE PUSH1 0x24 PUSH0 REVERT JUMPDEST POP DIV SWAP1 JUMP INVALID SWAP12 PUSH24 0x9B17422D0DF92223018B32B4D1FA46E071723D6817E2486D STOP EXTCODESIZE 0xEC 0xC5 PUSH0 STOP LOG2 PUSH5 0x6970667358 0x22 SLT KECCAK256 LOG3 0x25 0x4E SWAP6 SWAP1 PUSH16 0xB088D6A63BD5E3624CAAB05CFDDFB087 0x4D 0xA6 0xB0 0xDA COINBASE 0xCB 0x2A 0xC7 0xD2 0x25 PUSH5 0x736F6C6343 STOP ADDMOD XOR STOP CALLER "
				},
				"gasEstimates": {
					"creation": {
						"codeDepositCost": "837800",
						"executionCost": "infinite",
						"totalCost": "infinite"
					},
					"external": {
						"ADMIN_ROLE()": "239",
						"BASIS_POINTS_DENOMINATOR()": "260",
						"DEFAULT_ADMIN_ROLE()": "237",
						"MAX_TOTAL_FEE_CAP()": "217",
						"clownCareFee()": "2382",
						"clownCareWallet()": "2425",
						"daoFee()": "2362",
						"daoTreasury()": "2403",
						"devFee()": "2427",
						"devWallet()": "2447",
						"distributeNative()": "infinite",
						"distributeToken(address)": "infinite",
						"emergencyWithdraw(address,address)": "infinite",
						"getRoleAdmin(bytes32)": "2490",
						"grantRole(bytes32,address)": "infinite",
						"hasRole(bytes32,address)": "2781",
						"liquidityFee()": "2316",
						"liquidityWallet()": "2446",
						"renounceRole(bytes32,address)": "29130",
						"revokeRole(bytes32,address)": "infinite",
						"supportsInterface(bytes4)": "447",
						"updateBeneficiaries(address,address,address,address)": "infinite",
						"updateRates(uint256,uint256,uint256,uint256)": "infinite"
					},
					"internal": {
						"_dispatchNative(address,uint256)": "infinite",
						"_processDistribution(address,uint256)": "infinite"
					}
				},
				"methodIdentifiers": {
					"ADMIN_ROLE()": "75b238fc",
					"BASIS_POINTS_DENOMINATOR()": "cfa498a3",
					"DEFAULT_ADMIN_ROLE()": "a217fddf",
					"MAX_TOTAL_FEE_CAP()": "702b0284",
					"clownCareFee()": "d1949729",
					"clownCareWallet()": "5e126c1c",
					"daoFee()": "2957b839",
					"daoTreasury()": "79022a9f",
					"devFee()": "6827e764",
					"devWallet()": "8ea5220f",
					"distributeNative()": "5a9a268b",
					"distributeToken(address)": "86d74037",
					"emergencyWithdraw(address,address)": "6382d9ad",
					"getRoleAdmin(bytes32)": "248a9ca3",
					"grantRole(bytes32,address)": "2f2ff15d",
					"hasRole(bytes32,address)": "91d14854",
					"liquidityFee()": "98118cb4",
					"liquidityWallet()": "d4698016",
					"renounceRole(bytes32,address)": "36568abe",
					"revokeRole(bytes32,address)": "d547741f",
					"supportsInterface(bytes4)": "01ffc9a7",
					"updateBeneficiaries(address,address,address,address)": "41497c2b",
					"updateRates(uint256,uint256,uint256,uint256)": "4b00ec63"
				}
			},
			"storageLayout": {
				"storage": [
					{
						"astId": 26,
						"contract": "Smart-Contracts/PNJC_Free_Router.sol:PNJCFeeRouter",
						"label": "_roles",
						"offset": 0,
						"slot": "0",
						"type": "t_mapping(t_bytes32,t_struct(RoleData)21_storage)"
					},
					{
						"astId": 1329,
						"contract": "Smart-Contracts/PNJC_Free_Router.sol:PNJCFeeRouter",
						"label": "clownCareWallet",
						"offset": 0,
						"slot": "1",
						"type": "t_address"
					},
					{
						"astId": 1331,
						"contract": "Smart-Contracts/PNJC_Free_Router.sol:PNJCFeeRouter",
						"label": "liquidityWallet",
						"offset": 0,
						"slot": "2",
						"type": "t_address"
					},
					{
						"astId": 1333,
						"contract": "Smart-Contracts/PNJC_Free_Router.sol:PNJCFeeRouter",
						"label": "devWallet",
						"offset": 0,
						"slot": "3",
						"type": "t_address"
					},
					{
						"astId": 1335,
						"contract": "Smart-Contracts/PNJC_Free_Router.sol:PNJCFeeRouter",
						"label": "daoTreasury",
						"offset": 0,
						"slot": "4",
						"type": "t_address"
					},
					{
						"astId": 1338,
						"contract": "Smart-Contracts/PNJC_Free_Router.sol:PNJCFeeRouter",
						"label": "clownCareFee",
						"offset": 0,
						"slot": "5",
						"type": "t_uint256"
					},
					{
						"astId": 1341,
						"contract": "Smart-Contracts/PNJC_Free_Router.sol:PNJCFeeRouter",
						"label": "liquidityFee",
						"offset": 0,
						"slot": "6",
						"type": "t_uint256"
					},
					{
						"astId": 1344,
						"contract": "Smart-Contracts/PNJC_Free_Router.sol:PNJCFeeRouter",
						"label": "devFee",
						"offset": 0,
						"slot": "7",
						"type": "t_uint256"
					},
					{
						"astId": 1347,
						"contract": "Smart-Contracts/PNJC_Free_Router.sol:PNJCFeeRouter",
						"label": "daoFee",
						"offset": 0,
						"slot": "8",
						"type": "t_uint256"
					}
				],
				"types": {
					"t_address": {
						"encoding": "inplace",
						"label": "address",
						"numberOfBytes": "20"
					},
					"t_bool": {
						"encoding": "inplace",
						"label": "bool",
						"numberOfBytes": "1"
					},
					"t_bytes32": {
						"encoding": "inplace",
						"label": "bytes32",
						"numberOfBytes": "32"
					},
					"t_mapping(t_address,t_bool)": {
						"encoding": "mapping",
						"key": "t_address",
						"label": "mapping(address => bool)",
						"numberOfBytes": "32",
						"value": "t_bool"
					},
					"t_mapping(t_bytes32,t_struct(RoleData)21_storage)": {
						"encoding": "mapping",
						"key": "t_bytes32",
						"label": "mapping(bytes32 => struct AccessControl.RoleData)",
						"numberOfBytes": "32",
						"value": "t_struct(RoleData)21_storage"
					},
					"t_struct(RoleData)21_storage": {
						"encoding": "inplace",
						"label": "struct AccessControl.RoleData",
						"members": [
							{
								"astId": 18,
								"contract": "Smart-Contracts/PNJC_Free_Router.sol:PNJCFeeRouter",
								"label": "hasRole",
								"offset": 0,
								"slot": "0",
								"type": "t_mapping(t_address,t_bool)"
							},
							{
								"astId": 20,
								"contract": "Smart-Contracts/PNJC_Free_Router.sol:PNJCFeeRouter",
								"label": "adminRole",
								"offset": 0,
								"slot": "1",
								"type": "t_bytes32"
							}
						],
						"numberOfBytes": "64"
					},
					"t_uint256": {
						"encoding": "inplace",
						"label": "uint256",
						"numberOfBytes": "32"
					}
				}
			},
			"userdoc": {
				"kind": "user",
				"methods": {
					"distributeNative()": {
						"notice": "Distributes accumulated Native assets among beneficiaries."
					},
					"distributeToken(address)": {
						"notice": "Distributes accumulated ERC20 tokens among beneficiaries."
					},
					"emergencyWithdraw(address,address)": {
						"notice": "Emergency withdrawal of funds by the super admin."
					},
					"updateBeneficiaries(address,address,address,address)": {
						"notice": "Updates the recipient addresses for the distribution."
					},
					"updateRates(uint256,uint256,uint256,uint256)": {
						"notice": "Updates the fee percentages."
					}
				},
				"version": 1
			}
		}
	}
}