{
	"Smart-Contracts/PNJC_Airdrop.sol": {
		"HybridAirdrop": {
			"abi": [
				{
					"inputs": [
						{
							"internalType": "contract IERC20",
							"name": "token_",
							"type": "address"
						},
						{
							"internalType": "uint256",
							"name": "vestingStart_",
							"type": "uint256"
						},
						{
							"internalType": "uint256",
							"name": "tgeUnlockBps_",
							"type": "uint256"
						}
					],
					"stateMutability": "nonpayable",
					"type": "constructor"
				},
				{
					"inputs": [],
					"name": "ArrayLengthMismatch",
					"type": "error"
				},
				{
					"inputs": [],
					"name": "CannotRescueAirdropToken",
					"type": "error"
				},
				{
					"inputs": [],
					"name": "ContractFinalized",
					"type": "error"
				},
				{
					"inputs": [],
					"name": "EnforcedPause",
					"type": "error"
				},
				{
					"inputs": [],
					"name": "ExpectedPause",
					"type": "error"
				},
				{
					"inputs": [],
					"name": "InsufficientContractBalance",
					"type": "error"
				},
				{
					"inputs": [],
					"name": "MigrationAlreadyActive",
					"type": "error"
				},
				{
					"inputs": [],
					"name": "MigrationNotActive",
					"type": "error"
				},
				{
					"inputs": [],
					"name": "NothingToClaim",
					"type": "error"
				},
				{
					"inputs": [],
					"name": "NothingToRevoke",
					"type": "error"
				},
				{
					"inputs": [
						{
							"internalType": "address",
							"name": "owner",
							"type": "address"
						}
					],
					"name": "OwnableInvalidOwner",
					"type": "error"
				},
				{
					"inputs": [
						{
							"internalType": "address",
							"name": "account",
							"type": "address"
						}
					],
					"name": "OwnableUnauthorizedAccount",
					"type": "error"
				},
				{
					"inputs": [],
					"name": "ReentrancyGuardReentrantCall",
					"type": "error"
				},
				{
					"inputs": [],
					"name": "RevokeAmountExceedsUnvested",
					"type": "error"
				},
				{
					"inputs": [
						{
							"internalType": "address",
							"name": "token",
							"type": "address"
						}
					],
					"name": "SafeERC20FailedOperation",
					"type": "error"
				},
				{
					"inputs": [],
					"name": "TgeBpsExceedsDenominator",
					"type": "error"
				},
				{
					"inputs": [],
					"name": "ZeroAddressNotAllowed",
					"type": "error"
				},
				{
					"inputs": [],
					"name": "ZeroAmount",
					"type": "error"
				},
				{
					"anonymous": false,
					"inputs": [
						{
							"indexed": true,
							"internalType": "address",
							"name": "user",
							"type": "address"
						},
						{
							"indexed": false,
							"internalType": "uint256",
							"name": "totalAmount",
							"type": "uint256"
						}
					],
					"name": "AllocationSet",
					"type": "event"
				},
				{
					"anonymous": false,
					"inputs": [
						{
							"indexed": false,
							"internalType": "uint256",
							"name": "burnedAmount",
							"type": "uint256"
						},
						{
							"indexed": false,
							"internalType": "uint256",
							"name": "timestamp",
							"type": "uint256"
						}
					],
					"name": "AutoBurned",
					"type": "event"
				},
				{
					"anonymous": false,
					"inputs": [],
					"name": "Finalized",
					"type": "event"
				},
				{
					"anonymous": false,
					"inputs": [
						{
							"indexed": true,
							"internalType": "address",
							"name": "user",
							"type": "address"
						},
						{
							"indexed": false,
							"internalType": "uint256",
							"name": "amount",
							"type": "uint256"
						}
					],
					"name": "Migrated",
					"type": "event"
				},
				{
					"anonymous": false,
					"inputs": [
						{
							"indexed": true,
							"internalType": "address",
							"name": "newContract",
							"type": "address"
						}
					],
					"name": "MigrationActivated",
					"type": "event"
				},
				{
					"anonymous": false,
					"inputs": [
						{
							"indexed": true,
							"internalType": "address",
							"name": "rescuedToken",
							"type": "address"
						},
						{
							"indexed": false,
							"internalType": "uint256",
							"name": "amount",
							"type": "uint256"
						}
					],
					"name": "NonAirdropTokenRescued",
					"type": "event"
				},
				{
					"anonymous": false,
					"inputs": [
						{
							"indexed": true,
							"internalType": "address",
							"name": "previousOwner",
							"type": "address"
						},
						{
							"indexed": true,
							"internalType": "address",
							"name": "newOwner",
							"type": "address"
						}
					],
					"name": "OwnershipTransferred",
					"type": "event"
				},
				{
					"anonymous": false,
					"inputs": [
						{
							"indexed": false,
							"internalType": "address",
							"name": "account",
							"type": "address"
						}
					],
					"name": "Paused",
					"type": "event"
				},
				{
					"anonymous": false,
					"inputs": [
						{
							"indexed": true,
							"internalType": "address",
							"name": "user",
							"type": "address"
						},
						{
							"indexed": false,
							"internalType": "uint256",
							"name": "amount",
							"type": "uint256"
						}
					],
					"name": "TokensClaimed",
					"type": "event"
				},
				{
					"anonymous": false,
					"inputs": [
						{
							"indexed": false,
							"internalType": "address",
							"name": "account",
							"type": "address"
						}
					],
					"name": "Unpaused",
					"type": "event"
				},
				{
					"anonymous": false,
					"inputs": [
						{
							"indexed": true,
							"internalType": "address",
							"name": "user",
							"type": "address"
						},
						{
							"indexed": false,
							"internalType": "uint256",
							"name": "revokedAmount",
							"type": "uint256"
						}
					],
					"name": "VestingRevokedAndBurned",
					"type": "event"
				},
				{
					"inputs": [],
					"name": "AIRDROP_DURATION",
					"outputs": [
						{
							"internalType": "uint256",
							"name": "",
							"type": "uint256"
						}
					],
					"stateMutability": "view",
					"type": "function"
				},
				{
					"inputs": [],
					"name": "AIRDROP_END",
					"outputs": [
						{
							"internalType": "uint256",
							"name": "",
							"type": "uint256"
						}
					],
					"stateMutability": "view",
					"type": "function"
				},
				{
					"inputs": [],
					"name": "TGE_UNLOCK_BPS",
					"outputs": [
						{
							"internalType": "uint256",
							"name": "",
							"type": "uint256"
						}
					],
					"stateMutability": "view",
					"type": "function"
				},
				{
					"inputs": [],
					"name": "TOKEN",
					"outputs": [
						{
							"internalType": "contract IERC20",
							"name": "",
							"type": "address"
						}
					],
					"stateMutability": "view",
					"type": "function"
				},
				{
					"inputs": [],
					"name": "VESTING_START",
					"outputs": [
						{
							"internalType": "uint256",
							"name": "",
							"type": "uint256"
						}
					],
					"stateMutability": "view",
					"type": "function"
				},
				{
					"inputs": [
						{
							"internalType": "address",
							"name": "newContract_",
							"type": "address"
						}
					],
					"name": "activateMigration",
					"outputs": [],
					"stateMutability": "nonpayable",
					"type": "function"
				},
				{
					"inputs": [],
					"name": "autoBurned",
					"outputs": [
						{
							"internalType": "bool",
							"name": "",
							"type": "bool"
						}
					],
					"stateMutability": "view",
					"type": "function"
				},
				{
					"inputs": [],
					"name": "claim",
					"outputs": [],
					"stateMutability": "nonpayable",
					"type": "function"
				},
				{
					"inputs": [],
					"name": "claimable",
					"outputs": [
						{
							"internalType": "uint256",
							"name": "claimable_",
							"type": "uint256"
						}
					],
					"stateMutability": "view",
					"type": "function"
				},
				{
					"inputs": [],
					"name": "finalize",
					"outputs": [],
					"stateMutability": "nonpayable",
					"type": "function"
				},
				{
					"inputs": [],
					"name": "getAllocation",
					"outputs": [
						{
							"internalType": "uint256",
							"name": "total",
							"type": "uint256"
						},
						{
							"internalType": "uint256",
							"name": "claimed",
							"type": "uint256"
						},
						{
							"internalType": "uint256",
							"name": "revocable",
							"type": "uint256"
						},
						{
							"internalType": "bool",
							"name": "isBurned",
							"type": "bool"
						}
					],
					"stateMutability": "view",
					"type": "function"
				},
				{
					"inputs": [],
					"name": "isFinalized",
					"outputs": [
						{
							"internalType": "bool",
							"name": "",
							"type": "bool"
						}
					],
					"stateMutability": "view",
					"type": "function"
				},
				{
					"inputs": [],
					"name": "migrate",
					"outputs": [],
					"stateMutability": "nonpayable",
					"type": "function"
				},
				{
					"inputs": [],
					"name": "migrationActive",
					"outputs": [
						{
							"internalType": "bool",
							"name": "",
							"type": "bool"
						}
					],
					"stateMutability": "view",
					"type": "function"
				},
				{
					"inputs": [],
					"name": "migrationContract",
					"outputs": [
						{
							"internalType": "address",
							"name": "",
							"type": "address"
						}
					],
					"stateMutability": "view",
					"type": "function"
				},
				{
					"inputs": [],
					"name": "owner",
					"outputs": [
						{
							"internalType": "address",
							"name": "",
							"type": "address"
						}
					],
					"stateMutability": "view",
					"type": "function"
				},
				{
					"inputs": [],
					"name": "participantCount",
					"outputs": [
						{
							"internalType": "uint256",
							"name": "",
							"type": "uint256"
						}
					],
					"stateMutability": "view",
					"type": "function"
				},
				{
					"inputs": [],
					"name": "pause",
					"outputs": [],
					"stateMutability": "nonpayable",
					"type": "function"
				},
				{
					"inputs": [],
					"name": "paused",
					"outputs": [
						{
							"internalType": "bool",
							"name": "",
							"type": "bool"
						}
					],
					"stateMutability": "view",
					"type": "function"
				},
				{
					"inputs": [],
					"name": "renounceOwnership",
					"outputs": [],
					"stateMutability": "nonpayable",
					"type": "function"
				},
				{
					"inputs": [
						{
							"internalType": "contract IERC20",
							"name": "token_",
							"type": "address"
						}
					],
					"name": "rescueNonAirdropTokens",
					"outputs": [],
					"stateMutability": "nonpayable",
					"type": "function"
				},
				{
					"inputs": [
						{
							"internalType": "address",
							"name": "user_",
							"type": "address"
						}
					],
					"name": "revokeVesting",
					"outputs": [],
					"stateMutability": "nonpayable",
					"type": "function"
				},
				{
					"inputs": [
						{
							"internalType": "address",
							"name": "user_",
							"type": "address"
						},
						{
							"internalType": "uint256",
							"name": "amount_",
							"type": "uint256"
						}
					],
					"name": "revokeVestingPartial",
					"outputs": [],
					"stateMutability": "nonpayable",
					"type": "function"
				},
				{
					"inputs": [
						{
							"internalType": "address[]",
							"name": "users_",
							"type": "address[]"
						},
						{
							"internalType": "uint256[]",
							"name": "amounts_",
							"type": "uint256[]"
						}
					],
					"name": "setAllocations",
					"outputs": [],
					"stateMutability": "nonpayable",
					"type": "function"
				},
				{
					"inputs": [],
					"name": "totalAutoBurned",
					"outputs": [
						{
							"internalType": "uint256",
							"name": "",
							"type": "uint256"
						}
					],
					"stateMutability": "view",
					"type": "function"
				},
				{
					"inputs": [],
					"name": "totalBurned",
					"outputs": [
						{
							"internalType": "uint256",
							"name": "",
							"type": "uint256"
						}
					],
					"stateMutability": "view",
					"type": "function"
				},
				{
					"inputs": [],
					"name": "totalRevokedBurned",
					"outputs": [
						{
							"internalType": "uint256",
							"name": "",
							"type": "uint256"
						}
					],
					"stateMutability": "view",
					"type": "function"
				},
				{
					"inputs": [
						{
							"internalType": "address",
							"name": "newOwner",
							"type": "address"
						}
					],
					"name": "transferOwnership",
					"outputs": [],
					"stateMutability": "nonpayable",
					"type": "function"
				},
				{
					"inputs": [],
					"name": "unpause",
					"outputs": [],
					"stateMutability": "nonpayable",
					"type": "function"
				},
				{
					"inputs": [],
					"name": "unvestedAmount",
					"outputs": [
						{
							"internalType": "uint256",
							"name": "unvested_",
							"type": "uint256"
						}
					],
					"stateMutability": "view",
					"type": "function"
				}
			],
			"devdoc": {
				"errors": {
					"EnforcedPause()": [
						{
							"details": "The operation failed because the contract is paused."
						}
					],
					"ExpectedPause()": [
						{
							"details": "The operation failed because the contract is not paused."
						}
					],
					"OwnableInvalidOwner(address)": [
						{
							"details": "The owner is not a valid owner account. (eg. `address(0)`)"
						}
					],
					"OwnableUnauthorizedAccount(address)": [
						{
							"details": "The caller account is not authorized to perform an operation."
						}
					],
					"ReentrancyGuardReentrantCall()": [
						{
							"details": "Unauthorized reentrant call."
						}
					],
					"SafeERC20FailedOperation(address)": [
						{
							"details": "An operation with an ERC-20 token failed."
						}
					]
				},
				"events": {
					"Paused(address)": {
						"details": "Emitted when the pause is triggered by `account`."
					},
					"Unpaused(address)": {
						"details": "Emitted when the pause is lifted by `account`."
					}
				},
				"kind": "dev",
				"methods": {
					"owner()": {
						"details": "Returns the address of the current owner."
					},
					"paused()": {
						"details": "Returns true if the contract is paused, and false otherwise."
					},
					"renounceOwnership()": {
						"details": "Leaves the contract without owner. It will not be possible to call `onlyOwner` functions. Can only be called by the current owner. NOTE: Renouncing ownership will leave the contract without an owner, thereby disabling any functionality that is only available to the owner."
					},
					"transferOwnership(address)": {
						"details": "Transfers ownership of the contract to a new account (`newOwner`). Can only be called by the current owner."
					}
				},
				"version": 1
			},
			"evm": {
				"assembly": "    /* \"Smart-Contracts/PNJC_Airdrop.sol\":561:9640  contract HybridAirdrop is Ownable, ReentrancyGuard, Pausable {... */\n  mstore(0x40, 0x0100)\n    /* \"Smart-Contracts/PNJC_Airdrop.sol\":2339:2797  constructor(... */\n  callvalue\n  dup1\n  iszero\n  tag_1\n  jumpi\n  0x00\n  dup1\n  revert\ntag_1:\n  pop\n  mload(0x40)\n  sub(codesize, bytecodeSize)\n  dup1\n  bytecodeSize\n  dup4\n  codecopy\n  dup2\n  add\n  0x40\n  dup2\n  swap1\n  mstore\n  tag_2\n  swap2\n  tag_3\n  jump\t// in\ntag_2:\n    /* \"Smart-Contracts/PNJC_Airdrop.sol\":2454:2464  msg.sender */\n  caller\n  dup1\n    /* \"@openzeppelin/contracts@5.6.0/access/Ownable.sol\":1269:1364  if (initialOwner == address(0)) {... */\n  tag_8\n  jumpi\n    /* \"@openzeppelin/contracts@5.6.0/access/Ownable.sol\":1322:1353  OwnableInvalidOwner(address(0)) */\n  mload(0x40)\n  shl(0xe0, 0x1e4fbdf7)\n  dup2\n  mstore\n    /* \"@openzeppelin/contracts@5.6.0/access/Ownable.sol\":1350:1351  0 */\n  0x00\n    /* \"@openzeppelin/contracts@5.6.0/access/Ownable.sol\":1322:1353  OwnableInvalidOwner(address(0)) */\n  0x04\n  dup3\n  add\n    /* \"#utility.yul\":591:642   */\n  mstore\n    /* \"#utility.yul\":564:582   */\n  0x24\n  add\n    /* \"@openzeppelin/contracts@5.6.0/access/Ownable.sol\":1322:1353  OwnableInvalidOwner(address(0)) */\n  mload(0x40)\n  dup1\n  swap2\n  sub\n  swap1\n  revert\n    /* \"@openzeppelin/contracts@5.6.0/access/Ownable.sol\":1269:1364  if (initialOwner == address(0)) {... */\ntag_8:\n    /* \"@openzeppelin/contracts@5.6.0/access/Ownable.sol\":1373:1405  _transferOwnership(initialOwner) */\n  tag_11\n    /* \"@openzeppelin/contracts@5.6.0/access/Ownable.sol\":1392:1404  initialOwner */\n  dup2\n    /* \"@openzeppelin/contracts@5.6.0/access/Ownable.sol\":1373:1391  _transferOwnership */\n  tag_12\n    /* \"@openzeppelin/contracts@5.6.0/access/Ownable.sol\":1373:1405  _transferOwnership(initialOwner) */\n  jump\t// in\ntag_11:\n  pop\n    /* \"@openzeppelin/contracts@5.6.0/utils/ReentrancyGuard.sol\":2365:2366  1 */\n  0x01\n    /* \"@openzeppelin/contracts@5.6.0/utils/ReentrancyGuard.sol\":1505:1571  0x9b779b17422d0df92223018b32b4d1fa46e071723d6817e2486d003becc55f00 */\n  0x9b779b17422d0df92223018b32b4d1fa46e071723d6817e2486d003becc55f00\n    /* \"@openzeppelin/contracts@5.6.0/utils/ReentrancyGuard.sol\":2539:2605  _reentrancyGuardStorageSlot().getUint256Slot().value = NOT_ENTERED */\n  sstore\n  sub(shl(0xa0, 0x01), 0x01)\n    /* \"Smart-Contracts/PNJC_Airdrop.sol\":2481:2510  address(token_) == address(0) */\n  dup4\n  and\n    /* \"Smart-Contracts/PNJC_Airdrop.sol\":2477:2542  if (address(token_) == address(0)) revert ZeroAddressNotAllowed() */\n  tag_19\n  jumpi\n    /* \"Smart-Contracts/PNJC_Airdrop.sol\":2519:2542  ZeroAddressNotAllowed() */\n  mload(0x40)\n  shl(0xe1, 0x42bcdf7f)\n  dup2\n  mstore\n  0x04\n  add\n  mload(0x40)\n  dup1\n  swap2\n  sub\n  swap1\n  revert\n    /* \"Smart-Contracts/PNJC_Airdrop.sol\":2477:2542  if (address(token_) == address(0)) revert ZeroAddressNotAllowed() */\ntag_19:\n    /* \"Smart-Contracts/PNJC_Airdrop.sol\":860:866  10_000 */\n  0x2710\n    /* \"Smart-Contracts/PNJC_Airdrop.sol\":2557:2570  tgeUnlockBps_ */\n  dup2\n    /* \"Smart-Contracts/PNJC_Airdrop.sol\":2557:2589  tgeUnlockBps_ > _BPS_DENOMINATOR */\n  gt\n    /* \"Smart-Contracts/PNJC_Airdrop.sol\":2553:2624  if (tgeUnlockBps_ > _BPS_DENOMINATOR) revert TgeBpsExceedsDenominator() */\n  iszero\n  tag_20\n  jumpi\n    /* \"Smart-Contracts/PNJC_Airdrop.sol\":2598:2624  TgeBpsExceedsDenominator() */\n  mload(0x40)\n  shl(0xe1, 0x3869b3b3)\n  dup2\n  mstore\n  0x04\n  add\n  mload(0x40)\n  dup1\n  swap2\n  sub\n  swap1\n  revert\n    /* \"Smart-Contracts/PNJC_Airdrop.sol\":2553:2624  if (tgeUnlockBps_ > _BPS_DENOMINATOR) revert TgeBpsExceedsDenominator() */\ntag_20:\n  sub(shl(0xa0, 0x01), 0x01)\n    /* \"Smart-Contracts/PNJC_Airdrop.sol\":2637:2651  TOKEN = token_ */\n  dup4\n  and\n  0x80\n  mstore\n    /* \"Smart-Contracts/PNJC_Airdrop.sol\":2662:2691  VESTING_START = vestingStart_ */\n  0xa0\n  dup3\n  swap1\n  mstore\n    /* \"Smart-Contracts/PNJC_Airdrop.sol\":2702:2732  TGE_UNLOCK_BPS = tgeUnlockBps_ */\n  0xc0\n  dup2\n  swap1\n  mstore\n    /* \"Smart-Contracts/PNJC_Airdrop.sol\":2757:2789  vestingStart_ + AIRDROP_DURATION */\n  tag_21\n    /* \"Smart-Contracts/PNJC_Airdrop.sol\":916:923  6 weeks */\n  0x375f00\n    /* \"Smart-Contracts/PNJC_Airdrop.sol\":2678:2691  vestingStart_ */\n  dup4\n    /* \"Smart-Contracts/PNJC_Airdrop.sol\":2757:2789  vestingStart_ + AIRDROP_DURATION */\n  tag_22\n  jump\t// in\ntag_21:\n    /* \"Smart-Contracts/PNJC_Airdrop.sol\":2743:2789  AIRDROP_END = vestingStart_ + AIRDROP_DURATION */\n  0xe0\n  mstore\n  pop\n    /* \"Smart-Contracts/PNJC_Airdrop.sol\":561:9640  contract HybridAirdrop is Ownable, ReentrancyGuard, Pausable {... */\n  tag_27\n  swap2\n  pop\n  pop\n  jump\n    /* \"@openzeppelin/contracts@5.6.0/access/Ownable.sol\":2912:3099  function _transferOwnership(address newOwner) internal virtual {... */\ntag_12:\n    /* \"@openzeppelin/contracts@5.6.0/access/Ownable.sol\":2985:3001  address oldOwner */\n  0x00\n    /* \"@openzeppelin/contracts@5.6.0/access/Ownable.sol\":3004:3010  _owner */\n  dup1\n  sload\n  sub(shl(0xa0, 0x01), 0x01)\n    /* \"@openzeppelin/contracts@5.6.0/access/Ownable.sol\":3020:3037  _owner = newOwner */\n  dup4\n  dup2\n  and\n  not(sub(shl(0xa0, 0x01), 0x01))\n  dup4\n  and\n  dup2\n  or\n  dup5\n  sstore\n    /* \"@openzeppelin/contracts@5.6.0/access/Ownable.sol\":3052:3092  OwnershipTransferred(oldOwner, newOwner) */\n  mload(0x40)\n    /* \"@openzeppelin/contracts@5.6.0/access/Ownable.sol\":3004:3010  _owner */\n  swap2\n  swap1\n  swap3\n  and\n  swap3\n  dup4\n  swap2\n    /* \"@openzeppelin/contracts@5.6.0/access/Ownable.sol\":3052:3092  OwnershipTransferred(oldOwner, newOwner) */\n  0x8be0079c531659141344cd1fd0a4f28419497f9722a3daafe3b4186f6b6457e0\n  swap2\n    /* \"@openzeppelin/contracts@5.6.0/access/Ownable.sol\":2985:3001  address oldOwner */\n  swap1\n    /* \"@openzeppelin/contracts@5.6.0/access/Ownable.sol\":3052:3092  OwnershipTransferred(oldOwner, newOwner) */\n  log3\n    /* \"@openzeppelin/contracts@5.6.0/access/Ownable.sol\":2975:3099  {... */\n  pop\n    /* \"@openzeppelin/contracts@5.6.0/access/Ownable.sol\":2912:3099  function _transferOwnership(address newOwner) internal virtual {... */\n  pop\n  jump\t// out\n    /* \"#utility.yul\":14:440   */\ntag_3:\n    /* \"#utility.yul\":116:122   */\n  0x00\n    /* \"#utility.yul\":124:130   */\n  dup1\n    /* \"#utility.yul\":132:138   */\n  0x00\n    /* \"#utility.yul\":185:187   */\n  0x60\n    /* \"#utility.yul\":173:182   */\n  dup5\n    /* \"#utility.yul\":164:171   */\n  dup7\n    /* \"#utility.yul\":160:183   */\n  sub\n    /* \"#utility.yul\":156:188   */\n  slt\n    /* \"#utility.yul\":153:205   */\n  iszero\n  tag_29\n  jumpi\n    /* \"#utility.yul\":201:202   */\n  0x00\n    /* \"#utility.yul\":198:199   */\n  dup1\n    /* \"#utility.yul\":191:203   */\n  revert\n    /* \"#utility.yul\":153:205   */\ntag_29:\n    /* \"#utility.yul\":227:243   */\n  dup4\n  mload\n  sub(shl(0xa0, 0x01), 0x01)\n    /* \"#utility.yul\":272:303   */\n  dup2\n  and\n    /* \"#utility.yul\":262:304   */\n  dup2\n  eq\n    /* \"#utility.yul\":252:322   */\n  tag_30\n  jumpi\n    /* \"#utility.yul\":318:319   */\n  0x00\n    /* \"#utility.yul\":315:316   */\n  dup1\n    /* \"#utility.yul\":308:320   */\n  revert\n    /* \"#utility.yul\":252:322   */\ntag_30:\n    /* \"#utility.yul\":386:388   */\n  0x20\n    /* \"#utility.yul\":371:389   */\n  dup6\n  add\n    /* \"#utility.yul\":365:390   */\n  mload\n    /* \"#utility.yul\":430:432   */\n  0x40\n    /* \"#utility.yul\":415:433   */\n  swap1\n  swap6\n  add\n    /* \"#utility.yul\":409:434   */\n  mload\n    /* \"#utility.yul\":341:346   */\n  swap1\n  swap7\n    /* \"#utility.yul\":365:390   */\n  swap5\n  swap6\n  pop\n    /* \"#utility.yul\":409:434   */\n  swap4\n    /* \"#utility.yul\":14:440   */\n  swap3\n  pop\n  pop\n  pop\n  jump\t// out\n    /* \"#utility.yul\":653:875   */\ntag_22:\n    /* \"#utility.yul\":718:727   */\n  dup1\n  dup3\n  add\n    /* \"#utility.yul\":739:749   */\n  dup1\n  dup3\n  gt\n    /* \"#utility.yul\":736:869   */\n  iszero\n  tag_33\n  jumpi\n    /* \"#utility.yul\":791:801   */\n  0x4e487b71\n    /* \"#utility.yul\":786:789   */\n  0xe0\n    /* \"#utility.yul\":782:802   */\n  shl\n    /* \"#utility.yul\":779:780   */\n  0x00\n    /* \"#utility.yul\":772:803   */\n  mstore\n    /* \"#utility.yul\":826:830   */\n  0x11\n    /* \"#utility.yul\":823:824   */\n  0x04\n    /* \"#utility.yul\":816:831   */\n  mstore\n    /* \"#utility.yul\":854:858   */\n  0x24\n    /* \"#utility.yul\":851:852   */\n  0x00\n    /* \"#utility.yul\":844:859   */\n  revert\n    /* \"#utility.yul\":736:869   */\ntag_33:\n    /* \"#utility.yul\":653:875   */\n  swap3\n  swap2\n  pop\n  pop\n  jump\t// out\ntag_27:\n    /* \"Smart-Contracts/PNJC_Airdrop.sol\":561:9640  contract HybridAirdrop is Ownable, ReentrancyGuard, Pausable {... */\n  mload(0x80)\n  mload(0xa0)\n  mload(0xc0)\n  mload(0xe0)\n  codecopy(0x00, dataOffset(sub_0), dataSize(sub_0))\n  0x00\n  assignImmutable(\"0xc493552a1e855584e6833fef1d03bcac86bc3d70659cc3b6fbd1438fd337af90\")\n  0x00\n  assignImmutable(\"0x4c18b7d4a0e4f2c46154995d106079228d62c5881d3d1d55517deac2d5774cd7\")\n  0x00\n  assignImmutable(\"0xbb5ea7e7fd20023ee5bc678e7950319e1d724c6725d249026c7d9c88c811f058\")\n  0x00\n  assignImmutable(\"0x70b9cfc048319b9ef377ccc5e2a0402a437e40c262f68ec2c4300041ea0be603\")\n  return(0x00, dataSize(sub_0))\nstop\n\nsub_0: assembly {\n        /* \"Smart-Contracts/PNJC_Airdrop.sol\":561:9640  contract HybridAirdrop is Ownable, ReentrancyGuard, Pausable {... */\n      mstore(0x40, 0x80)\n      callvalue\n      dup1\n      iszero\n      tag_1\n      jumpi\n      0x00\n      dup1\n      revert\n    tag_1:\n      pop\n      jumpi(tag_2, lt(calldatasize, 0x04))\n      shr(0xe0, calldataload(0x00))\n      dup1\n      0x82bfefc8\n      gt\n      tag_33\n      jumpi\n      dup1\n      0xaf38d757\n      gt\n      tag_34\n      jumpi\n      dup1\n      0xd950975a\n      gt\n      tag_35\n      jumpi\n      dup1\n      0xd950975a\n      eq\n      tag_29\n      jumpi\n      dup1\n      0xf2fde38b\n      eq\n      tag_30\n      jumpi\n      dup1\n      0xf30f40a8\n      eq\n      tag_31\n      jumpi\n      dup1\n      0xf9344395\n      eq\n      tag_32\n      jumpi\n      0x00\n      dup1\n      revert\n    tag_35:\n      dup1\n      0xaf38d757\n      eq\n      tag_25\n      jumpi\n      dup1\n      0xcfd11c4f\n      eq\n      tag_26\n      jumpi\n      dup1\n      0xd2b8abb8\n      eq\n      tag_27\n      jumpi\n      dup1\n      0xd89135cd\n      eq\n      tag_28\n      jumpi\n      0x00\n      dup1\n      revert\n    tag_34:\n      dup1\n      0x8da5cb5b\n      gt\n      tag_36\n      jumpi\n      dup1\n      0x8da5cb5b\n      eq\n      tag_21\n      jumpi\n      dup1\n      0x8ed6b016\n      eq\n      tag_22\n      jumpi\n      dup1\n      0x8fd3ab80\n      eq\n      tag_23\n      jumpi\n      dup1\n      0xa35061b9\n      eq\n      tag_24\n      jumpi\n      0x00\n      dup1\n      revert\n    tag_36:\n      dup1\n      0x82bfefc8\n      eq\n      tag_18\n      jumpi\n      dup1\n      0x8456cb59\n      eq\n      tag_19\n      jumpi\n      dup1\n      0x8d4e4083\n      eq\n      tag_20\n      jumpi\n      0x00\n      dup1\n      revert\n    tag_33:\n      dup1\n      0x3b0da260\n      gt\n      tag_37\n      jumpi\n      dup1\n      0x5447c35c\n      gt\n      tag_38\n      jumpi\n      dup1\n      0x5447c35c\n      eq\n      tag_14\n      jumpi\n      dup1\n      0x5c975abb\n      eq\n      tag_15\n      jumpi\n      dup1\n      0x715018a6\n      eq\n      tag_16\n      jumpi\n      dup1\n      0x7216bafc\n      eq\n      tag_17\n      jumpi\n      0x00\n      dup1\n      revert\n    tag_38:\n      dup1\n      0x3b0da260\n      eq\n      tag_10\n      jumpi\n      dup1\n      0x3f4ba83a\n      eq\n      tag_11\n      jumpi\n      dup1\n      0x4bb278f3\n      eq\n      tag_12\n      jumpi\n      dup1\n      0x4e71d92d\n      eq\n      tag_13\n      jumpi\n      0x00\n      dup1\n      revert\n    tag_37:\n      dup1\n      0x17fd045f\n      gt\n      tag_39\n      jumpi\n      dup1\n      0x17fd045f\n      eq\n      tag_6\n      jumpi\n      dup1\n      0x1ff64acd\n      eq\n      tag_7\n      jumpi\n      dup1\n      0x2d57a680\n      eq\n      tag_8\n      jumpi\n      dup1\n      0x362f04c0\n      eq\n      tag_9\n      jumpi\n      0x00\n      dup1\n      revert\n    tag_39:\n      dup1\n      0x0c9e1e8e\n      eq\n      tag_3\n      jumpi\n      dup1\n      0x0fc2fd4c\n      eq\n      tag_4\n      jumpi\n      dup1\n      0x0fee1a20\n      eq\n      tag_5\n      jumpi\n    tag_2:\n      0x00\n      dup1\n      revert\n        /* \"Smart-Contracts/PNJC_Airdrop.sol\":7598:7856  function getAllocation() external view returns (uint256 total, uint256 claimed, uint256 revocable, bool isBurned) {... */\n    tag_3:\n        /* \"Smart-Contracts/PNJC_Airdrop.sol\":7758:7768  msg.sender */\n      caller\n        /* \"Smart-Contracts/PNJC_Airdrop.sol\":7646:7659  uint256 total */\n      0x00\n        /* \"Smart-Contracts/PNJC_Airdrop.sol\":7745:7769  _allocations[msg.sender] */\n      swap1\n      dup2\n      mstore\n        /* \"Smart-Contracts/PNJC_Airdrop.sol\":7745:7757  _allocations */\n      0x01\n        /* \"Smart-Contracts/PNJC_Airdrop.sol\":7745:7769  _allocations[msg.sender] */\n      0x20\n      dup2\n      dup2\n      mstore\n      0x40\n      swap3\n      dup4\n      swap1\n      keccak256\n        /* \"Smart-Contracts/PNJC_Airdrop.sol\":7723:7769  Allocation memory a = _allocations[msg.sender] */\n      dup4\n      mload\n      0x80\n      dup1\n      dup3\n      add\n      dup7\n      mstore\n      dup3\n      sload\n      dup1\n      dup4\n      mstore\n      swap5\n      dup4\n      add\n      sload\n      dup3\n      dup6\n      add\n      dup2\n      swap1\n      mstore\n      0x02\n      dup5\n      add\n      sload\n      dup4\n      dup9\n      add\n      dup2\n      swap1\n      mstore\n      0x03\n      swap1\n      swap5\n      add\n      sload\n      0xff\n      and\n      iszero\n      iszero\n      0x60\n      swap4\n      dup5\n      add\n      dup2\n      swap1\n      mstore\n        /* \"Smart-Contracts/PNJC_Airdrop.sol\":7598:7856  function getAllocation() external view returns (uint256 total, uint256 claimed, uint256 revocable, bool isBurned) {... */\n      dup8\n      mload\n        /* \"#utility.yul\":239:264   */\n      swap7\n      dup8\n      mstore\n        /* \"#utility.yul\":280:298   */\n      swap5\n      dup7\n      add\n        /* \"#utility.yul\":273:307   */\n      mstore\n        /* \"#utility.yul\":323:341   */\n      swap5\n      dup5\n      add\n        /* \"#utility.yul\":316:350   */\n      swap2\n      swap1\n      swap2\n      mstore\n        /* \"#utility.yul\":366:384   */\n      dup3\n      add\n        /* \"#utility.yul\":359:409   */\n      mstore\n        /* \"#utility.yul\":211:230   */\n      add\n        /* \"Smart-Contracts/PNJC_Airdrop.sol\":7598:7856  function getAllocation() external view returns (uint256 total, uint256 claimed, uint256 revocable, bool isBurned) {... */\n    tag_42:\n      mload(0x40)\n      dup1\n      swap2\n      sub\n      swap1\n      return\n        /* \"Smart-Contracts/PNJC_Airdrop.sol\":5882:6264  function activateMigration(address newContract_) external onlyOwner notFinalized {... */\n    tag_4:\n      tag_44\n      tag_45\n      calldatasize\n      0x04\n      tag_46\n      jump\t// in\n    tag_45:\n      tag_47\n      jump\t// in\n    tag_44:\n      stop\n        /* \"Smart-Contracts/PNJC_Airdrop.sol\":1310:1342  address public migrationContract */\n    tag_5:\n      sload(0x06)\n      tag_48\n      swap1\n      sub(shl(0xa0, 0x01), 0x01)\n      and\n      dup2\n      jump\n    tag_48:\n      mload(0x40)\n      sub(shl(0xa0, 0x01), 0x01)\n        /* \"#utility.yul\":972:1004   */\n      swap1\n      swap2\n      and\n        /* \"#utility.yul\":954:1005   */\n      dup2\n      mstore\n        /* \"#utility.yul\":942:944   */\n      0x20\n        /* \"#utility.yul\":927:945   */\n      add\n        /* \"Smart-Contracts/PNJC_Airdrop.sol\":1310:1342  address public migrationContract */\n      tag_42\n        /* \"#utility.yul\":808:1011   */\n      jump\n        /* \"Smart-Contracts/PNJC_Airdrop.sol\":873:923  uint256 public constant AIRDROP_DURATION = 6 weeks */\n    tag_6:\n      tag_52\n        /* \"Smart-Contracts/PNJC_Airdrop.sol\":916:923  6 weeks */\n      0x375f00\n        /* \"Smart-Contracts/PNJC_Airdrop.sol\":873:923  uint256 public constant AIRDROP_DURATION = 6 weeks */\n      dup2\n      jump\n    tag_52:\n      mload(0x40)\n        /* \"#utility.yul\":1162:1187   */\n      swap1\n      dup2\n      mstore\n        /* \"#utility.yul\":1150:1152   */\n      0x20\n        /* \"#utility.yul\":1135:1153   */\n      add\n        /* \"Smart-Contracts/PNJC_Airdrop.sol\":873:923  uint256 public constant AIRDROP_DURATION = 6 weeks */\n      tag_42\n        /* \"#utility.yul\":1016:1193   */\n      jump\n        /* \"Smart-Contracts/PNJC_Airdrop.sol\":3292:4338  function setAllocations(... */\n    tag_7:\n      tag_44\n      tag_57\n      calldatasize\n      0x04\n      tag_58\n      jump\t// in\n    tag_57:\n      tag_59\n      jump\t// in\n        /* \"Smart-Contracts/PNJC_Airdrop.sol\":1271:1301  uint256 public totalAutoBurned */\n    tag_8:\n      tag_52\n      sload(0x05)\n      dup2\n      jump\n        /* \"Smart-Contracts/PNJC_Airdrop.sol\":8052:8144  function participantCount() external view returns (uint256) { return _participants.length; } */\n    tag_9:\n        /* \"Smart-Contracts/PNJC_Airdrop.sol\":8121:8134  _participants */\n      0x02\n        /* \"Smart-Contracts/PNJC_Airdrop.sol\":8121:8141  _participants.length */\n      sload\n        /* \"Smart-Contracts/PNJC_Airdrop.sol\":8052:8144  function participantCount() external view returns (uint256) { return _participants.length; } */\n      jump(tag_52)\n        /* \"Smart-Contracts/PNJC_Airdrop.sol\":4989:5507  function revokeVesting(... */\n    tag_10:\n      tag_44\n      tag_67\n      calldatasize\n      0x04\n      tag_46\n      jump\t// in\n    tag_67:\n      tag_68\n      jump\t// in\n        /* \"Smart-Contracts/PNJC_Airdrop.sol\":3120:3173  function unpause() external onlyOwner { _unpause(); } */\n    tag_11:\n      tag_44\n      tag_70\n      jump\t// in\n        /* \"Smart-Contracts/PNJC_Airdrop.sol\":3181:3284  function finalize() external onlyOwner {... */\n    tag_12:\n      tag_44\n      tag_72\n      jump\t// in\n        /* \"Smart-Contracts/PNJC_Airdrop.sol\":6677:7101  function claim() external nonReentrant whenNotPaused autoBurn notFinalized {... */\n    tag_13:\n      tag_44\n      tag_74\n      jump\t// in\n        /* \"Smart-Contracts/PNJC_Airdrop.sol\":1202:1224  bool public autoBurned */\n    tag_14:\n      sload(0x03)\n      tag_75\n      swap1\n      0xff\n      and\n      dup2\n      jump\n    tag_75:\n      mload(0x40)\n        /* \"#utility.yul\":2513:2527   */\n      swap1\n      iszero\n        /* \"#utility.yul\":2506:2528   */\n      iszero\n        /* \"#utility.yul\":2488:2529   */\n      dup2\n      mstore\n        /* \"#utility.yul\":2476:2478   */\n      0x20\n        /* \"#utility.yul\":2461:2479   */\n      add\n        /* \"Smart-Contracts/PNJC_Airdrop.sol\":1202:1224  bool public autoBurned */\n      tag_42\n        /* \"#utility.yul\":2348:2535   */\n      jump\n        /* \"@openzeppelin/contracts@5.6.0/utils/Pausable.sol\":1726:1810  function paused() public view virtual returns (bool) {... */\n    tag_15:\n        /* \"@openzeppelin/contracts@5.6.0/utils/Pausable.sol\":1773:1777  bool */\n      0x00\n        /* \"@openzeppelin/contracts@5.6.0/utils/Pausable.sol\":1796:1803  _paused */\n      sload\n      shl(0xa0, 0x01)\n      swap1\n      div\n      0xff\n      and\n        /* \"@openzeppelin/contracts@5.6.0/utils/Pausable.sol\":1726:1810  function paused() public view virtual returns (bool) {... */\n      jump(tag_75)\n        /* \"@openzeppelin/contracts@5.6.0/access/Ownable.sol\":2293:2394  function renounceOwnership() public virtual onlyOwner {... */\n    tag_16:\n      tag_44\n      tag_83\n      jump\t// in\n        /* \"Smart-Contracts/PNJC_Airdrop.sol\":4346:4981  function revokeVestingPartial(... */\n    tag_17:\n      tag_44\n      tag_85\n      calldatasize\n      0x04\n      tag_86\n      jump\t// in\n    tag_85:\n      tag_87\n      jump\t// in\n        /* \"Smart-Contracts/PNJC_Airdrop.sol\":932:961  IERC20 public immutable TOKEN */\n    tag_18:\n      tag_48\n      immutable(\"0x70b9cfc048319b9ef377ccc5e2a0402a437e40c262f68ec2c4300041ea0be603\")\n      dup2\n      jump\n        /* \"Smart-Contracts/PNJC_Airdrop.sol\":3065:3114  function pause() external onlyOwner { _pause(); } */\n    tag_19:\n      tag_44\n      tag_93\n      jump\t// in\n        /* \"Smart-Contracts/PNJC_Airdrop.sol\":1383:1406  bool public isFinalized */\n    tag_20:\n      sload(0x06)\n      tag_75\n      swap1\n      shl(0xa8, 0x01)\n      swap1\n      div\n      0xff\n      and\n      dup2\n      jump\n        /* \"@openzeppelin/contracts@5.6.0/access/Ownable.sol\":1638:1723  function owner() public view virtual returns (address) {... */\n    tag_21:\n        /* \"@openzeppelin/contracts@5.6.0/access/Ownable.sol\":1684:1691  address */\n      0x00\n        /* \"@openzeppelin/contracts@5.6.0/access/Ownable.sol\":1710:1716  _owner */\n      sload\n      sub(shl(0xa0, 0x01), 0x01)\n      and\n        /* \"@openzeppelin/contracts@5.6.0/access/Ownable.sol\":1638:1723  function owner() public view virtual returns (address) {... */\n      jump(tag_48)\n        /* \"Smart-Contracts/PNJC_Airdrop.sol\":1349:1376  bool public migrationActive */\n    tag_22:\n      sload(0x06)\n      tag_75\n      swap1\n      shl(0xa0, 0x01)\n      swap1\n      div\n      0xff\n      and\n      dup2\n      jump\n        /* \"Smart-Contracts/PNJC_Airdrop.sol\":7109:7590  function migrate() external nonReentrant whenNotPaused autoBurn notFinalized {... */\n    tag_23:\n      tag_44\n      tag_104\n      jump\t// in\n        /* \"Smart-Contracts/PNJC_Airdrop.sol\":1231:1264  uint256 public totalRevokedBurned */\n    tag_24:\n      tag_52\n      sload(0x04)\n      dup2\n      jump\n        /* \"Smart-Contracts/PNJC_Airdrop.sol\":6272:6669  function claimable() public view returns (uint256 claimable_) {... */\n    tag_25:\n      tag_52\n      tag_109\n      jump\t// in\n        /* \"Smart-Contracts/PNJC_Airdrop.sol\":968:1006  uint256 public immutable VESTING_START */\n    tag_26:\n      tag_52\n      immutable(\"0xbb5ea7e7fd20023ee5bc678e7950319e1d724c6725d249026c7d9c88c811f058\")\n      dup2\n      jump\n        /* \"Smart-Contracts/PNJC_Airdrop.sol\":1013:1052  uint256 public immutable TGE_UNLOCK_BPS */\n    tag_27:\n      tag_52\n      immutable(\"0x4c18b7d4a0e4f2c46154995d106079228d62c5881d3d1d55517deac2d5774cd7\")\n      dup2\n      jump\n        /* \"Smart-Contracts/PNJC_Airdrop.sol\":8150:8253  function totalBurned() external view returns (uint256) { return totalRevokedBurned + totalAutoBurned; } */\n    tag_28:\n      tag_52\n      tag_118\n      jump\t// in\n        /* \"Smart-Contracts/PNJC_Airdrop.sol\":7864:8044  function unvestedAmount() external view returns (uint256 unvested_) {... */\n    tag_29:\n      tag_52\n      tag_121\n      jump\t// in\n        /* \"@openzeppelin/contracts@5.6.0/access/Ownable.sol\":2543:2758  function transferOwnership(address newOwner) public virtual onlyOwner {... */\n    tag_30:\n      tag_44\n      tag_124\n      calldatasize\n      0x04\n      tag_46\n      jump\t// in\n    tag_124:\n      tag_125\n      jump\t// in\n        /* \"Smart-Contracts/PNJC_Airdrop.sol\":1059:1095  uint256 public immutable AIRDROP_END */\n    tag_31:\n      tag_52\n      immutable(\"0xc493552a1e855584e6833fef1d03bcac86bc3d70659cc3b6fbd1438fd337af90\")\n      dup2\n      jump\n        /* \"Smart-Contracts/PNJC_Airdrop.sol\":5515:5874  function rescueNonAirdropTokens(IERC20 token_) external onlyOwner {... */\n    tag_32:\n      tag_44\n      tag_130\n      calldatasize\n      0x04\n      tag_46\n      jump\t// in\n    tag_130:\n      tag_132\n      jump\t// in\n        /* \"Smart-Contracts/PNJC_Airdrop.sol\":5882:6264  function activateMigration(address newContract_) external onlyOwner notFinalized {... */\n    tag_47:\n        /* \"@openzeppelin/contracts@5.6.0/access/Ownable.sol\":1531:1544  _checkOwner() */\n      tag_135\n        /* \"@openzeppelin/contracts@5.6.0/access/Ownable.sol\":1531:1542  _checkOwner */\n      tag_136\n        /* \"@openzeppelin/contracts@5.6.0/access/Ownable.sol\":1531:1544  _checkOwner() */\n      jump\t// in\n    tag_135:\n        /* \"Smart-Contracts/PNJC_Airdrop.sol\":2998:3009  isFinalized */\n      sload(0x06)\n      shl(0xa8, 0x01)\n      swap1\n      div\n      0xff\n      and\n        /* \"Smart-Contracts/PNJC_Airdrop.sol\":2994:3037  if (isFinalized) revert ContractFinalized() */\n      iszero\n      tag_138\n      jumpi\n        /* \"Smart-Contracts/PNJC_Airdrop.sol\":3018:3037  ContractFinalized() */\n      mload(0x40)\n      shl(0xe1, 0x4e356381)\n      dup2\n      mstore\n      0x04\n      add\n      mload(0x40)\n      dup1\n      swap2\n      sub\n      swap1\n      revert\n        /* \"Smart-Contracts/PNJC_Airdrop.sol\":2994:3037  if (isFinalized) revert ContractFinalized() */\n    tag_138:\n        /* \"Smart-Contracts/PNJC_Airdrop.sol\":5978:5993  migrationActive */\n      sload(0x06)\n      shl(0xa0, 0x01)\n      swap1\n      div\n      0xff\n      and\n        /* \"Smart-Contracts/PNJC_Airdrop.sol\":5974:6026  if (migrationActive) revert MigrationAlreadyActive() */\n      iszero\n      tag_140\n      jumpi\n        /* \"Smart-Contracts/PNJC_Airdrop.sol\":6002:6026  MigrationAlreadyActive() */\n      mload(0x40)\n      shl(0xe2, 0x07f88b33)\n      dup2\n      mstore\n      0x04\n      add\n      mload(0x40)\n      dup1\n      swap2\n      sub\n      swap1\n      revert\n        /* \"Smart-Contracts/PNJC_Airdrop.sol\":5974:6026  if (migrationActive) revert MigrationAlreadyActive() */\n    tag_140:\n      sub(shl(0xa0, 0x01), 0x01)\n        /* \"Smart-Contracts/PNJC_Airdrop.sol\":6041:6067  newContract_ == address(0) */\n      dup2\n      and\n      iszero\n      dup1\n        /* \"Smart-Contracts/PNJC_Airdrop.sol\":6041:6100  newContract_ == address(0) || newContract_ == address(this) */\n      tag_141\n      jumpi\n      pop\n      sub(shl(0xa0, 0x01), 0x01)\n        /* \"Smart-Contracts/PNJC_Airdrop.sol\":6071:6100  newContract_ == address(this) */\n      dup2\n      and\n        /* \"Smart-Contracts/PNJC_Airdrop.sol\":6095:6099  this */\n      address\n        /* \"Smart-Contracts/PNJC_Airdrop.sol\":6071:6100  newContract_ == address(this) */\n      eq\n        /* \"Smart-Contracts/PNJC_Airdrop.sol\":6041:6100  newContract_ == address(0) || newContract_ == address(this) */\n    tag_141:\n        /* \"Smart-Contracts/PNJC_Airdrop.sol\":6037:6132  if (newContract_ == address(0) || newContract_ == address(this)) revert ZeroAddressNotAllowed() */\n      iszero\n      tag_142\n      jumpi\n        /* \"Smart-Contracts/PNJC_Airdrop.sol\":6109:6132  ZeroAddressNotAllowed() */\n      mload(0x40)\n      shl(0xe1, 0x42bcdf7f)\n      dup2\n      mstore\n      0x04\n      add\n      mload(0x40)\n      dup1\n      swap2\n      sub\n      swap1\n      revert\n        /* \"Smart-Contracts/PNJC_Airdrop.sol\":6037:6132  if (newContract_ == address(0) || newContract_ == address(this)) revert ZeroAddressNotAllowed() */\n    tag_142:\n        /* \"Smart-Contracts/PNJC_Airdrop.sol\":6143:6160  migrationContract */\n      0x06\n        /* \"Smart-Contracts/PNJC_Airdrop.sol\":6143:6175  migrationContract = newContract_ */\n      dup1\n      sload\n      not(sub(shl(0xa8, 0x01), 0x01))\n        /* \"Smart-Contracts/PNJC_Airdrop.sol\":6186:6208  migrationActive = true */\n      and\n      sub(shl(0xa0, 0x01), 0x01)\n        /* \"Smart-Contracts/PNJC_Airdrop.sol\":6143:6175  migrationContract = newContract_ */\n      dup4\n      and\n        /* \"Smart-Contracts/PNJC_Airdrop.sol\":6186:6208  migrationActive = true */\n      swap1\n      dup2\n      or\n      shl(0xa0, 0x01)\n      or\n      swap1\n      swap2\n      sstore\n        /* \"Smart-Contracts/PNJC_Airdrop.sol\":6224:6256  MigrationActivated(newContract_) */\n      mload(0x40)\n      0x92b5eb20e7f70b6b205924d72c26c45f05a063424792be21a87858495cd80297\n      swap1\n        /* \"Smart-Contracts/PNJC_Airdrop.sol\":6143:6160  migrationContract */\n      0x00\n      swap1\n        /* \"Smart-Contracts/PNJC_Airdrop.sol\":6224:6256  MigrationActivated(newContract_) */\n      log2\n        /* \"Smart-Contracts/PNJC_Airdrop.sol\":5882:6264  function activateMigration(address newContract_) external onlyOwner notFinalized {... */\n      pop\n      jump\t// out\n        /* \"Smart-Contracts/PNJC_Airdrop.sol\":3292:4338  function setAllocations(... */\n    tag_59:\n        /* \"@openzeppelin/contracts@5.6.0/access/Ownable.sol\":1531:1544  _checkOwner() */\n      tag_144\n        /* \"@openzeppelin/contracts@5.6.0/access/Ownable.sol\":1531:1542  _checkOwner */\n      tag_136\n        /* \"@openzeppelin/contracts@5.6.0/access/Ownable.sol\":1531:1544  _checkOwner() */\n      jump\t// in\n    tag_144:\n        /* \"Smart-Contracts/PNJC_Airdrop.sol\":3441:3447  users_ */\n      dup3\n        /* \"Smart-Contracts/PNJC_Airdrop.sol\":3469:3491  len != amounts_.length */\n      dup2\n      dup2\n      eq\n        /* \"Smart-Contracts/PNJC_Airdrop.sol\":3465:3521  if (len != amounts_.length) revert ArrayLengthMismatch() */\n      tag_146\n      jumpi\n        /* \"Smart-Contracts/PNJC_Airdrop.sol\":3500:3521  ArrayLengthMismatch() */\n      mload(0x40)\n      shl(0xe1, 0x512509d3)\n      dup2\n      mstore\n      0x04\n      add\n      mload(0x40)\n      dup1\n      swap2\n      sub\n      swap1\n      revert\n        /* \"Smart-Contracts/PNJC_Airdrop.sol\":3465:3521  if (len != amounts_.length) revert ArrayLengthMismatch() */\n    tag_146:\n        /* \"Smart-Contracts/PNJC_Airdrop.sol\":3539:3548  uint256 i */\n      0x00\n        /* \"Smart-Contracts/PNJC_Airdrop.sol\":3534:4331  for (uint256 i; i < len; ) {... */\n    tag_147:\n        /* \"Smart-Contracts/PNJC_Airdrop.sol\":3554:3557  len */\n      dup2\n        /* \"Smart-Contracts/PNJC_Airdrop.sol\":3550:3551  i */\n      dup2\n        /* \"Smart-Contracts/PNJC_Airdrop.sol\":3550:3557  i < len */\n      lt\n        /* \"Smart-Contracts/PNJC_Airdrop.sol\":3534:4331  for (uint256 i; i < len; ) {... */\n      iszero\n      tag_148\n      jumpi\n        /* \"Smart-Contracts/PNJC_Airdrop.sol\":3576:3588  address user */\n      0x00\n        /* \"Smart-Contracts/PNJC_Airdrop.sol\":3591:3597  users_ */\n      dup7\n      dup7\n        /* \"Smart-Contracts/PNJC_Airdrop.sol\":3598:3599  i */\n      dup4\n        /* \"Smart-Contracts/PNJC_Airdrop.sol\":3591:3600  users_[i] */\n      dup2\n      dup2\n      lt\n      tag_151\n      jumpi\n      tag_151\n      tag_152\n      jump\t// in\n    tag_151:\n      swap1\n      pop\n      0x20\n      mul\n      add\n      0x20\n      dup2\n      add\n      swap1\n      tag_153\n      swap2\n      swap1\n      tag_46\n      jump\t// in\n    tag_153:\n        /* \"Smart-Contracts/PNJC_Airdrop.sol\":3576:3600  address user = users_[i] */\n      swap1\n      pop\n        /* \"Smart-Contracts/PNJC_Airdrop.sol\":3615:3629  uint256 amount */\n      0x00\n        /* \"Smart-Contracts/PNJC_Airdrop.sol\":3632:3640  amounts_ */\n      dup6\n      dup6\n        /* \"Smart-Contracts/PNJC_Airdrop.sol\":3641:3642  i */\n      dup5\n        /* \"Smart-Contracts/PNJC_Airdrop.sol\":3632:3643  amounts_[i] */\n      dup2\n      dup2\n      lt\n      tag_155\n      jumpi\n      tag_155\n      tag_152\n      jump\t// in\n    tag_155:\n      0x20\n      mul\n      swap2\n      swap1\n      swap2\n      add\n      calldataload\n      swap2\n      pop\n      pop\n      sub(shl(0xa0, 0x01), 0x01)\n        /* \"Smart-Contracts/PNJC_Airdrop.sol\":3664:3682  user == address(0) */\n      dup3\n      and\n        /* \"Smart-Contracts/PNJC_Airdrop.sol\":3660:3714  if (user == address(0)) revert ZeroAddressNotAllowed() */\n      tag_156\n      jumpi\n        /* \"Smart-Contracts/PNJC_Airdrop.sol\":3691:3714  ZeroAddressNotAllowed() */\n      mload(0x40)\n      shl(0xe1, 0x42bcdf7f)\n      dup2\n      mstore\n      0x04\n      add\n      mload(0x40)\n      dup1\n      swap2\n      sub\n      swap1\n      revert\n        /* \"Smart-Contracts/PNJC_Airdrop.sol\":3660:3714  if (user == address(0)) revert ZeroAddressNotAllowed() */\n    tag_156:\n        /* \"Smart-Contracts/PNJC_Airdrop.sol\":3733:3739  amount */\n      dup1\n        /* \"Smart-Contracts/PNJC_Airdrop.sol\":3743:3744  0 */\n      0x00\n        /* \"Smart-Contracts/PNJC_Airdrop.sol\":3733:3744  amount == 0 */\n      sub\n        /* \"Smart-Contracts/PNJC_Airdrop.sol\":3729:3765  if (amount == 0) revert ZeroAmount() */\n      tag_157\n      jumpi\n        /* \"Smart-Contracts/PNJC_Airdrop.sol\":3753:3765  ZeroAmount() */\n      mload(0x40)\n      shl(0xe0, 0x1f2a2005)\n      dup2\n      mstore\n      0x04\n      add\n      mload(0x40)\n      dup1\n      swap2\n      sub\n      swap1\n      revert\n        /* \"Smart-Contracts/PNJC_Airdrop.sol\":3729:3765  if (amount == 0) revert ZeroAmount() */\n    tag_157:\n      sub(shl(0xa0, 0x01), 0x01)\n        /* \"Smart-Contracts/PNJC_Airdrop.sol\":3786:3804  _allocations[user] */\n      dup3\n      and\n      0x00\n      swap1\n      dup2\n      mstore\n        /* \"Smart-Contracts/PNJC_Airdrop.sol\":3786:3798  _allocations */\n      0x01\n        /* \"Smart-Contracts/PNJC_Airdrop.sol\":3786:3804  _allocations[user] */\n      0x20\n      mstore\n      0x40\n      dup2\n      keccak256\n        /* \"Smart-Contracts/PNJC_Airdrop.sol\":3786:3816  _allocations[user].totalAmount */\n      sload\n        /* \"Smart-Contracts/PNJC_Airdrop.sol\":3786:3821  _allocations[user].totalAmount == 0 */\n      swap1\n      sub\n        /* \"Smart-Contracts/PNJC_Airdrop.sol\":3782:3882  if (_allocations[user].totalAmount == 0) {... */\n      tag_158\n      jumpi\n        /* \"Smart-Contracts/PNJC_Airdrop.sol\":3842:3855  _participants */\n      0x02\n        /* \"Smart-Contracts/PNJC_Airdrop.sol\":3842:3866  _participants.push(user) */\n      dup1\n      sload\n      0x01\n      dup2\n      add\n      dup3\n      sstore\n      0x00\n      swap2\n      swap1\n      swap2\n      mstore\n      0x405787fa12a823e0f2b7631cc41b3ba8828b3321ca811111fa75cd3aa3bb5ace\n      add\n      dup1\n      sload\n      not(sub(shl(0xa0, 0x01), 0x01))\n      and\n      sub(shl(0xa0, 0x01), 0x01)\n      dup5\n      and\n      or\n      swap1\n      sstore\n        /* \"Smart-Contracts/PNJC_Airdrop.sol\":3782:3882  if (_allocations[user].totalAmount == 0) {... */\n    tag_158:\n        /* \"Smart-Contracts/PNJC_Airdrop.sol\":3898:3915  uint256 tgeAmount */\n      0x00\n        /* \"Smart-Contracts/PNJC_Airdrop.sol\":860:866  10_000 */\n      0x2710\n        /* \"Smart-Contracts/PNJC_Airdrop.sol\":3919:3942  amount * TGE_UNLOCK_BPS */\n      tag_160\n        /* \"Smart-Contracts/PNJC_Airdrop.sol\":3928:3942  TGE_UNLOCK_BPS */\n      immutable(\"0x4c18b7d4a0e4f2c46154995d106079228d62c5881d3d1d55517deac2d5774cd7\")\n        /* \"Smart-Contracts/PNJC_Airdrop.sol\":3919:3925  amount */\n      dup5\n        /* \"Smart-Contracts/PNJC_Airdrop.sol\":3919:3942  amount * TGE_UNLOCK_BPS */\n      tag_161\n      jump\t// in\n    tag_160:\n        /* \"Smart-Contracts/PNJC_Airdrop.sol\":3918:3962  (amount * TGE_UNLOCK_BPS) / _BPS_DENOMINATOR */\n      tag_162\n      swap2\n      swap1\n      tag_163\n      jump\t// in\n    tag_162:\n        /* \"Smart-Contracts/PNJC_Airdrop.sol\":3898:3962  uint256 tgeAmount = (amount * TGE_UNLOCK_BPS) / _BPS_DENOMINATOR */\n      swap1\n      pop\n        /* \"Smart-Contracts/PNJC_Airdrop.sol\":3977:3998  uint256 vestingAmount */\n      0x00\n        /* \"Smart-Contracts/PNJC_Airdrop.sol\":4001:4019  amount - tgeAmount */\n      tag_164\n        /* \"Smart-Contracts/PNJC_Airdrop.sol\":3898:3962  uint256 tgeAmount = (amount * TGE_UNLOCK_BPS) / _BPS_DENOMINATOR */\n      dup3\n        /* \"Smart-Contracts/PNJC_Airdrop.sol\":4001:4007  amount */\n      dup5\n        /* \"Smart-Contracts/PNJC_Airdrop.sol\":4001:4019  amount - tgeAmount */\n      tag_165\n      jump\t// in\n    tag_164:\n        /* \"Smart-Contracts/PNJC_Airdrop.sol\":4057:4238  Allocation({... */\n      0x40\n      dup1\n      mload\n      0x80\n      dup2\n      add\n      dup3\n      mstore\n      dup6\n      dup2\n      mstore\n      0x00\n      0x20\n      dup1\n      dup4\n      add\n      dup3\n      dup2\n      mstore\n      dup4\n      dup6\n      add\n      dup7\n      dup2\n      mstore\n      0x60\n      dup6\n      add\n      dup5\n      dup2\n      mstore\n      sub(shl(0xa0, 0x01), 0x01)\n        /* \"Smart-Contracts/PNJC_Airdrop.sol\":4036:4054  _allocations[user] */\n      dup13\n      and\n      dup1\n      dup7\n      mstore\n        /* \"Smart-Contracts/PNJC_Airdrop.sol\":4057:4238  Allocation({... */\n      0x01\n        /* \"Smart-Contracts/PNJC_Airdrop.sol\":4036:4054  _allocations[user] */\n      dup1\n      dup7\n      mstore\n      swap6\n      dup9\n      swap1\n      keccak256\n        /* \"Smart-Contracts/PNJC_Airdrop.sol\":4036:4238  _allocations[user] = Allocation({... */\n      swap7\n      mload\n      dup8\n      sstore\n      swap3\n      mload\n      swap5\n      dup7\n      add\n      swap5\n      swap1\n      swap5\n      sstore\n      mload\n      0x02\n      dup6\n      add\n      sstore\n      swap2\n      mload\n      0x03\n      swap1\n      swap4\n      add\n      dup1\n      sload\n      not(0xff)\n      and\n      swap4\n      iszero\n      iszero\n      swap4\n      swap1\n      swap4\n      or\n      swap1\n      swap3\n      sstore\n        /* \"Smart-Contracts/PNJC_Airdrop.sol\":4260:4287  AllocationSet(user, amount) */\n      swap2\n      mload\n        /* \"#utility.yul\":1162:1187   */\n      dup7\n      dup2\n      mstore\n        /* \"Smart-Contracts/PNJC_Airdrop.sol\":4057:4238  Allocation({... */\n      swap3\n      swap4\n      pop\n        /* \"Smart-Contracts/PNJC_Airdrop.sol\":4036:4054  _allocations[user] */\n      swap1\n      swap2\n        /* \"Smart-Contracts/PNJC_Airdrop.sol\":4260:4287  AllocationSet(user, amount) */\n      0xedfc909d0ab2a1625b7911d925efbd8200cdd99d4c7ba44e720328b17879f0b3\n      swap2\n        /* \"#utility.yul\":1135:1153   */\n      add\n        /* \"Smart-Contracts/PNJC_Airdrop.sol\":4260:4287  AllocationSet(user, amount) */\n      mload(0x40)\n      dup1\n      swap2\n      sub\n      swap1\n      log2\n        /* \"Smart-Contracts/PNJC_Airdrop.sol\":4314:4317  ++i */\n      dup5\n      0x01\n      add\n      swap5\n      pop\n        /* \"Smart-Contracts/PNJC_Airdrop.sol\":3561:4331  {... */\n      pop\n      pop\n      pop\n      pop\n        /* \"Smart-Contracts/PNJC_Airdrop.sol\":3534:4331  for (uint256 i; i < len; ) {... */\n      jump(tag_147)\n    tag_148:\n      pop\n        /* \"Smart-Contracts/PNJC_Airdrop.sol\":3416:4338  {... */\n      pop\n        /* \"Smart-Contracts/PNJC_Airdrop.sol\":3292:4338  function setAllocations(... */\n      pop\n      pop\n      pop\n      pop\n      jump\t// out\n        /* \"Smart-Contracts/PNJC_Airdrop.sol\":4989:5507  function revokeVesting(... */\n    tag_68:\n        /* \"@openzeppelin/contracts@5.6.0/access/Ownable.sol\":1531:1544  _checkOwner() */\n      tag_169\n        /* \"@openzeppelin/contracts@5.6.0/access/Ownable.sol\":1531:1542  _checkOwner */\n      tag_136\n        /* \"@openzeppelin/contracts@5.6.0/access/Ownable.sol\":1531:1544  _checkOwner() */\n      jump\t// in\n    tag_169:\n        /* \"@openzeppelin/contracts@5.6.0/utils/ReentrancyGuard.sol\":3023:3044  _nonReentrantBefore() */\n      tag_171\n        /* \"@openzeppelin/contracts@5.6.0/utils/ReentrancyGuard.sol\":3023:3042  _nonReentrantBefore */\n      tag_172\n        /* \"@openzeppelin/contracts@5.6.0/utils/ReentrancyGuard.sol\":3023:3044  _nonReentrantBefore() */\n      jump\t// in\n    tag_171:\n        /* \"Smart-Contracts/PNJC_Airdrop.sol\":2859:2870  AIRDROP_END */\n      immutable(\"0xc493552a1e855584e6833fef1d03bcac86bc3d70659cc3b6fbd1438fd337af90\")\n        /* \"Smart-Contracts/PNJC_Airdrop.sol\":2840:2855  block.timestamp */\n      timestamp\n        /* \"Smart-Contracts/PNJC_Airdrop.sol\":2840:2870  block.timestamp >= AIRDROP_END */\n      lt\n      iszero\n        /* \"Smart-Contracts/PNJC_Airdrop.sol\":2840:2885  block.timestamp >= AIRDROP_END && !autoBurned */\n      dup1\n      iszero\n      tag_174\n      jumpi\n      pop\n        /* \"Smart-Contracts/PNJC_Airdrop.sol\":2875:2885  autoBurned */\n      and(0xff, sload(0x03))\n        /* \"Smart-Contracts/PNJC_Airdrop.sol\":2874:2885  !autoBurned */\n      iszero\n        /* \"Smart-Contracts/PNJC_Airdrop.sol\":2840:2885  block.timestamp >= AIRDROP_END && !autoBurned */\n    tag_174:\n        /* \"Smart-Contracts/PNJC_Airdrop.sol\":2836:2932  if (block.timestamp >= AIRDROP_END && !autoBurned) {... */\n      iszero\n      tag_176\n      jumpi\n        /* \"Smart-Contracts/PNJC_Airdrop.sol\":2902:2920  _executeAutoBurn() */\n      tag_176\n        /* \"Smart-Contracts/PNJC_Airdrop.sol\":2902:2918  _executeAutoBurn */\n      tag_177\n        /* \"Smart-Contracts/PNJC_Airdrop.sol\":2902:2920  _executeAutoBurn() */\n      jump\t// in\n    tag_176:\n        /* \"Smart-Contracts/PNJC_Airdrop.sol\":2998:3009  isFinalized */\n      sload(0x06)\n      shl(0xa8, 0x01)\n      swap1\n      div\n      0xff\n      and\n        /* \"Smart-Contracts/PNJC_Airdrop.sol\":2994:3037  if (isFinalized) revert ContractFinalized() */\n      iszero\n      tag_179\n      jumpi\n        /* \"Smart-Contracts/PNJC_Airdrop.sol\":3018:3037  ContractFinalized() */\n      mload(0x40)\n      shl(0xe1, 0x4e356381)\n      dup2\n      mstore\n      0x04\n      add\n      mload(0x40)\n      dup1\n      swap2\n      sub\n      swap1\n      revert\n        /* \"Smart-Contracts/PNJC_Airdrop.sol\":2994:3037  if (isFinalized) revert ContractFinalized() */\n    tag_179:\n      sub(shl(0xa0, 0x01), 0x01)\n        /* \"Smart-Contracts/PNJC_Airdrop.sol\":5135:5154  _allocations[user_] */\n      dup2\n      and\n        /* \"Smart-Contracts/PNJC_Airdrop.sol\":5108:5132  Allocation storage alloc */\n      0x00\n        /* \"Smart-Contracts/PNJC_Airdrop.sol\":5135:5154  _allocations[user_] */\n      swap1\n      dup2\n      mstore\n        /* \"Smart-Contracts/PNJC_Airdrop.sol\":5135:5147  _allocations */\n      0x01\n        /* \"Smart-Contracts/PNJC_Airdrop.sol\":5135:5154  _allocations[user_] */\n      0x20\n      dup2\n      dup2\n      mstore\n      0x40\n      dup1\n      dup5\n      keccak256\n        /* \"Smart-Contracts/PNJC_Airdrop.sol\":5184:5209  _getUnvestedAmount(alloc) */\n      dup2\n      mload\n      0x80\n      dup2\n      add\n      dup4\n      mstore\n      dup2\n      sload\n      dup2\n      mstore\n      swap4\n      dup2\n      add\n      sload\n      swap3\n      dup5\n      add\n      swap3\n      swap1\n      swap3\n      mstore\n      0x02\n      dup3\n      add\n      sload\n      swap1\n      dup4\n      add\n      mstore\n      0x03\n      dup2\n      add\n      sload\n      0xff\n      and\n      iszero\n      iszero\n      0x60\n      dup4\n      add\n      mstore\n        /* \"Smart-Contracts/PNJC_Airdrop.sol\":5135:5154  _allocations[user_] */\n      swap2\n        /* \"Smart-Contracts/PNJC_Airdrop.sol\":5108:5132  Allocation storage alloc */\n      swap1\n        /* \"Smart-Contracts/PNJC_Airdrop.sol\":5184:5209  _getUnvestedAmount(alloc) */\n      tag_181\n      swap1\n        /* \"Smart-Contracts/PNJC_Airdrop.sol\":5184:5202  _getUnvestedAmount */\n      tag_182\n        /* \"Smart-Contracts/PNJC_Airdrop.sol\":5184:5209  _getUnvestedAmount(alloc) */\n      jump\t// in\n    tag_181:\n        /* \"Smart-Contracts/PNJC_Airdrop.sol\":5165:5209  uint256 unvested = _getUnvestedAmount(alloc) */\n      swap1\n      pop\n        /* \"Smart-Contracts/PNJC_Airdrop.sol\":5224:5232  unvested */\n      dup1\n        /* \"Smart-Contracts/PNJC_Airdrop.sol\":5236:5237  0 */\n      0x00\n        /* \"Smart-Contracts/PNJC_Airdrop.sol\":5224:5237  unvested == 0 */\n      sub\n        /* \"Smart-Contracts/PNJC_Airdrop.sol\":5220:5263  if (unvested == 0) revert NothingToRevoke() */\n      tag_183\n      jumpi\n        /* \"Smart-Contracts/PNJC_Airdrop.sol\":5246:5263  NothingToRevoke() */\n      mload(0x40)\n      shl(0xe2, 0x200c44cf)\n      dup2\n      mstore\n      0x04\n      add\n      mload(0x40)\n      dup1\n      swap2\n      sub\n      swap1\n      revert\n        /* \"Smart-Contracts/PNJC_Airdrop.sol\":5220:5263  if (unvested == 0) revert NothingToRevoke() */\n    tag_183:\n        /* \"Smart-Contracts/PNJC_Airdrop.sol\":5297:5305  unvested */\n      dup1\n        /* \"Smart-Contracts/PNJC_Airdrop.sol\":5276:5281  alloc */\n      dup3\n        /* \"Smart-Contracts/PNJC_Airdrop.sol\":5276:5293  alloc.totalAmount */\n      0x00\n      add\n      0x00\n        /* \"Smart-Contracts/PNJC_Airdrop.sol\":5276:5305  alloc.totalAmount -= unvested */\n      dup3\n      dup3\n      sload\n      tag_184\n      swap2\n      swap1\n      tag_165\n      jump\t// in\n    tag_184:\n      swap3\n      pop\n      pop\n      dup2\n      swap1\n      sstore\n      pop\n        /* \"Smart-Contracts/PNJC_Airdrop.sol\":5341:5349  unvested */\n      dup1\n        /* \"Smart-Contracts/PNJC_Airdrop.sol\":5316:5321  alloc */\n      dup3\n        /* \"Smart-Contracts/PNJC_Airdrop.sol\":5316:5337  alloc.revocableAmount */\n      0x02\n      add\n      0x00\n        /* \"Smart-Contracts/PNJC_Airdrop.sol\":5316:5349  alloc.revocableAmount -= unvested */\n      dup3\n      dup3\n      sload\n      tag_185\n      swap2\n      swap1\n      tag_165\n      jump\t// in\n    tag_185:\n      swap1\n      swap2\n      sstore\n      pop\n        /* \"Smart-Contracts/PNJC_Airdrop.sol\":5362:5402  TOKEN.safeTransfer(address(0), unvested) */\n      tag_186\n      swap1\n      pop\n      sub(shl(0xa0, 0x01), 0x01)\n        /* \"Smart-Contracts/PNJC_Airdrop.sol\":5362:5367  TOKEN */\n      immutable(\"0x70b9cfc048319b9ef377ccc5e2a0402a437e40c262f68ec2c4300041ea0be603\")\n        /* \"Smart-Contracts/PNJC_Airdrop.sol\":5362:5380  TOKEN.safeTransfer */\n      and\n        /* \"Smart-Contracts/PNJC_Airdrop.sol\":5389:5390  0 */\n      0x00\n        /* \"Smart-Contracts/PNJC_Airdrop.sol\":5393:5401  unvested */\n      dup4\n        /* \"Smart-Contracts/PNJC_Airdrop.sol\":5362:5380  TOKEN.safeTransfer */\n      tag_187\n        /* \"Smart-Contracts/PNJC_Airdrop.sol\":5362:5402  TOKEN.safeTransfer(address(0), unvested) */\n      jump\t// in\n    tag_186:\n        /* \"Smart-Contracts/PNJC_Airdrop.sol\":5435:5443  unvested */\n      dup1\n        /* \"Smart-Contracts/PNJC_Airdrop.sol\":5413:5431  totalRevokedBurned */\n      0x04\n      0x00\n        /* \"Smart-Contracts/PNJC_Airdrop.sol\":5413:5443  totalRevokedBurned += unvested */\n      dup3\n      dup3\n      sload\n      tag_188\n      swap2\n      swap1\n      tag_189\n      jump\t// in\n    tag_188:\n      swap1\n      swap2\n      sstore\n      pop\n      pop\n        /* \"Smart-Contracts/PNJC_Airdrop.sol\":5459:5499  VestingRevokedAndBurned(user_, unvested) */\n      mload(0x40)\n        /* \"#utility.yul\":1162:1187   */\n      dup2\n      dup2\n      mstore\n      sub(shl(0xa0, 0x01), 0x01)\n        /* \"Smart-Contracts/PNJC_Airdrop.sol\":5459:5499  VestingRevokedAndBurned(user_, unvested) */\n      dup5\n      and\n      swap1\n      0xca0351860ce2a85bc712861683dcb64560614677682c40a81c25fcfcc2e551c1\n      swap1\n        /* \"#utility.yul\":1150:1152   */\n      0x20\n        /* \"#utility.yul\":1135:1153   */\n      add\n        /* \"Smart-Contracts/PNJC_Airdrop.sol\":5459:5499  VestingRevokedAndBurned(user_, unvested) */\n      mload(0x40)\n      dup1\n      swap2\n      sub\n      swap1\n      log2\n        /* \"Smart-Contracts/PNJC_Airdrop.sol\":5097:5507  {... */\n      pop\n      pop\n        /* \"@openzeppelin/contracts@5.6.0/utils/ReentrancyGuard.sol\":3065:3085  _nonReentrantAfter() */\n      tag_191\n        /* \"@openzeppelin/contracts@5.6.0/utils/ReentrancyGuard.sol\":2365:2366  1 */\n      0x01\n      0x00\n      dup1\n      mload\n      0x20\n      data_c8669cf8eaf883002b9f48e28846a8d408c9b58ea6613bace374265e43c9bc43\n      dup4\n      codecopy\n      dup2\n      mload\n      swap2\n      mstore\n        /* \"@openzeppelin/contracts@5.6.0/utils/ReentrancyGuard.sol\":3972:4034  _reentrancyGuardStorageSlot().getUint256Slot().value = ENTERED */\n      sstore\n        /* \"@openzeppelin/contracts@5.6.0/utils/ReentrancyGuard.sol\":3749:4041  function _nonReentrantBefore() private {... */\n      jump\n        /* \"@openzeppelin/contracts@5.6.0/utils/ReentrancyGuard.sol\":3065:3085  _nonReentrantAfter() */\n    tag_191:\n        /* \"Smart-Contracts/PNJC_Airdrop.sol\":4989:5507  function revokeVesting(... */\n      pop\n      jump\t// out\n        /* \"Smart-Contracts/PNJC_Airdrop.sol\":3120:3173  function unpause() external onlyOwner { _unpause(); } */\n    tag_70:\n        /* \"@openzeppelin/contracts@5.6.0/access/Ownable.sol\":1531:1544  _checkOwner() */\n      tag_194\n        /* \"@openzeppelin/contracts@5.6.0/access/Ownable.sol\":1531:1542  _checkOwner */\n      tag_136\n        /* \"@openzeppelin/contracts@5.6.0/access/Ownable.sol\":1531:1544  _checkOwner() */\n      jump\t// in\n    tag_194:\n        /* \"Smart-Contracts/PNJC_Airdrop.sol\":3160:3170  _unpause() */\n      tag_196\n        /* \"Smart-Contracts/PNJC_Airdrop.sol\":3160:3168  _unpause */\n      tag_197\n        /* \"Smart-Contracts/PNJC_Airdrop.sol\":3160:3170  _unpause() */\n      jump\t// in\n    tag_196:\n        /* \"Smart-Contracts/PNJC_Airdrop.sol\":3120:3173  function unpause() external onlyOwner { _unpause(); } */\n      jump\t// out\n        /* \"Smart-Contracts/PNJC_Airdrop.sol\":3181:3284  function finalize() external onlyOwner {... */\n    tag_72:\n        /* \"@openzeppelin/contracts@5.6.0/access/Ownable.sol\":1531:1544  _checkOwner() */\n      tag_199\n        /* \"@openzeppelin/contracts@5.6.0/access/Ownable.sol\":1531:1542  _checkOwner */\n      tag_136\n        /* \"@openzeppelin/contracts@5.6.0/access/Ownable.sol\":1531:1544  _checkOwner() */\n      jump\t// in\n    tag_199:\n        /* \"Smart-Contracts/PNJC_Airdrop.sol\":3231:3242  isFinalized */\n      0x06\n        /* \"Smart-Contracts/PNJC_Airdrop.sol\":3231:3249  isFinalized = true */\n      dup1\n      sload\n      not(shl(0xa8, 0xff))\n      and\n      shl(0xa8, 0x01)\n      or\n      swap1\n      sstore\n        /* \"Smart-Contracts/PNJC_Airdrop.sol\":3265:3276  Finalized() */\n      mload(0x40)\n      0x6823b073d48d6e3a7d385eeb601452d680e74bb46afe3255a7d778f3a9b17681\n      swap1\n        /* \"Smart-Contracts/PNJC_Airdrop.sol\":3231:3249  isFinalized = true */\n      0x00\n      swap1\n        /* \"Smart-Contracts/PNJC_Airdrop.sol\":3265:3276  Finalized() */\n      log1\n        /* \"Smart-Contracts/PNJC_Airdrop.sol\":3181:3284  function finalize() external onlyOwner {... */\n      jump\t// out\n        /* \"Smart-Contracts/PNJC_Airdrop.sol\":6677:7101  function claim() external nonReentrant whenNotPaused autoBurn notFinalized {... */\n    tag_74:\n        /* \"@openzeppelin/contracts@5.6.0/utils/ReentrancyGuard.sol\":3023:3044  _nonReentrantBefore() */\n      tag_202\n        /* \"@openzeppelin/contracts@5.6.0/utils/ReentrancyGuard.sol\":3023:3042  _nonReentrantBefore */\n      tag_172\n        /* \"@openzeppelin/contracts@5.6.0/utils/ReentrancyGuard.sol\":3023:3044  _nonReentrantBefore() */\n      jump\t// in\n    tag_202:\n        /* \"@openzeppelin/contracts@5.6.0/utils/Pausable.sol\":1350:1369  _requireNotPaused() */\n      tag_204\n        /* \"@openzeppelin/contracts@5.6.0/utils/Pausable.sol\":1350:1367  _requireNotPaused */\n      tag_205\n        /* \"@openzeppelin/contracts@5.6.0/utils/Pausable.sol\":1350:1369  _requireNotPaused() */\n      jump\t// in\n    tag_204:\n        /* \"Smart-Contracts/PNJC_Airdrop.sol\":2859:2870  AIRDROP_END */\n      immutable(\"0xc493552a1e855584e6833fef1d03bcac86bc3d70659cc3b6fbd1438fd337af90\")\n        /* \"Smart-Contracts/PNJC_Airdrop.sol\":2840:2855  block.timestamp */\n      timestamp\n        /* \"Smart-Contracts/PNJC_Airdrop.sol\":2840:2870  block.timestamp >= AIRDROP_END */\n      lt\n      iszero\n        /* \"Smart-Contracts/PNJC_Airdrop.sol\":2840:2885  block.timestamp >= AIRDROP_END && !autoBurned */\n      dup1\n      iszero\n      tag_207\n      jumpi\n      pop\n        /* \"Smart-Contracts/PNJC_Airdrop.sol\":2875:2885  autoBurned */\n      and(0xff, sload(0x03))\n        /* \"Smart-Contracts/PNJC_Airdrop.sol\":2874:2885  !autoBurned */\n      iszero\n        /* \"Smart-Contracts/PNJC_Airdrop.sol\":2840:2885  block.timestamp >= AIRDROP_END && !autoBurned */\n    tag_207:\n        /* \"Smart-Contracts/PNJC_Airdrop.sol\":2836:2932  if (block.timestamp >= AIRDROP_END && !autoBurned) {... */\n      iszero\n      tag_209\n      jumpi\n        /* \"Smart-Contracts/PNJC_Airdrop.sol\":2902:2920  _executeAutoBurn() */\n      tag_209\n        /* \"Smart-Contracts/PNJC_Airdrop.sol\":2902:2918  _executeAutoBurn */\n      tag_177\n        /* \"Smart-Contracts/PNJC_Airdrop.sol\":2902:2920  _executeAutoBurn() */\n      jump\t// in\n    tag_209:\n        /* \"Smart-Contracts/PNJC_Airdrop.sol\":2998:3009  isFinalized */\n      sload(0x06)\n      shl(0xa8, 0x01)\n      swap1\n      div\n      0xff\n      and\n        /* \"Smart-Contracts/PNJC_Airdrop.sol\":2994:3037  if (isFinalized) revert ContractFinalized() */\n      iszero\n      tag_211\n      jumpi\n        /* \"Smart-Contracts/PNJC_Airdrop.sol\":3018:3037  ContractFinalized() */\n      mload(0x40)\n      shl(0xe1, 0x4e356381)\n      dup2\n      mstore\n      0x04\n      add\n      mload(0x40)\n      dup1\n      swap2\n      sub\n      swap1\n      revert\n        /* \"Smart-Contracts/PNJC_Airdrop.sol\":2994:3037  if (isFinalized) revert ContractFinalized() */\n    tag_211:\n        /* \"Smart-Contracts/PNJC_Airdrop.sol\":6763:6777  uint256 amount */\n      0x00\n        /* \"Smart-Contracts/PNJC_Airdrop.sol\":6780:6791  claimable() */\n      tag_213\n        /* \"Smart-Contracts/PNJC_Airdrop.sol\":6780:6789  claimable */\n      tag_109\n        /* \"Smart-Contracts/PNJC_Airdrop.sol\":6780:6791  claimable() */\n      jump\t// in\n    tag_213:\n        /* \"Smart-Contracts/PNJC_Airdrop.sol\":6763:6791  uint256 amount = claimable() */\n      swap1\n      pop\n        /* \"Smart-Contracts/PNJC_Airdrop.sol\":6806:6812  amount */\n      dup1\n        /* \"Smart-Contracts/PNJC_Airdrop.sol\":6816:6817  0 */\n      0x00\n        /* \"Smart-Contracts/PNJC_Airdrop.sol\":6806:6817  amount == 0 */\n      sub\n        /* \"Smart-Contracts/PNJC_Airdrop.sol\":6802:6842  if (amount == 0) revert NothingToClaim() */\n      tag_214\n      jumpi\n        /* \"Smart-Contracts/PNJC_Airdrop.sol\":6826:6842  NothingToClaim() */\n      mload(0x40)\n      shl(0xe3, 0x12d37ee5)\n      dup2\n      mstore\n      0x04\n      add\n      mload(0x40)\n      dup1\n      swap2\n      sub\n      swap1\n      revert\n        /* \"Smart-Contracts/PNJC_Airdrop.sol\":6802:6842  if (amount == 0) revert NothingToClaim() */\n    tag_214:\n        /* \"Smart-Contracts/PNJC_Airdrop.sol\":6857:6887  TOKEN.balanceOf(address(this)) */\n      mload(0x40)\n      shl(0xe0, 0x70a08231)\n      dup2\n      mstore\n        /* \"Smart-Contracts/PNJC_Airdrop.sol\":6881:6885  this */\n      address\n        /* \"Smart-Contracts/PNJC_Airdrop.sol\":6857:6887  TOKEN.balanceOf(address(this)) */\n      0x04\n      dup3\n      add\n        /* \"#utility.yul\":954:1005   */\n      mstore\n        /* \"Smart-Contracts/PNJC_Airdrop.sol\":6890:6896  amount */\n      dup2\n      swap1\n        /* \"Smart-Contracts/PNJC_Airdrop.sol\":6857:6862  TOKEN */\n      immutable(\"0x70b9cfc048319b9ef377ccc5e2a0402a437e40c262f68ec2c4300041ea0be603\")\n      sub(shl(0xa0, 0x01), 0x01)\n        /* \"Smart-Contracts/PNJC_Airdrop.sol\":6857:6872  TOKEN.balanceOf */\n      and\n      swap1\n      0x70a08231\n      swap1\n        /* \"#utility.yul\":927:945   */\n      0x24\n      add\n        /* \"Smart-Contracts/PNJC_Airdrop.sol\":6857:6887  TOKEN.balanceOf(address(this)) */\n      0x20\n      mload(0x40)\n      dup1\n      dup4\n      sub\n      dup2\n      dup7\n      gas\n      staticcall\n      iszero\n      dup1\n      iszero\n      tag_217\n      jumpi\n      returndatasize\n      0x00\n      dup1\n      returndatacopy\n      revert(0x00, returndatasize)\n    tag_217:\n      pop\n      pop\n      pop\n      pop\n      mload(0x40)\n      returndatasize\n      not(0x1f)\n      0x1f\n      dup3\n      add\n      and\n      dup3\n      add\n      dup1\n      0x40\n      mstore\n      pop\n      dup2\n      add\n      swap1\n      tag_218\n      swap2\n      swap1\n      tag_219\n      jump\t// in\n    tag_218:\n        /* \"Smart-Contracts/PNJC_Airdrop.sol\":6857:6896  TOKEN.balanceOf(address(this)) < amount */\n      lt\n        /* \"Smart-Contracts/PNJC_Airdrop.sol\":6853:6934  if (TOKEN.balanceOf(address(this)) < amount) revert InsufficientContractBalance() */\n      iszero\n      tag_220\n      jumpi\n        /* \"Smart-Contracts/PNJC_Airdrop.sol\":6905:6934  InsufficientContractBalance() */\n      mload(0x40)\n      shl(0xe0, 0x786e0a99)\n      dup2\n      mstore\n      0x04\n      add\n      mload(0x40)\n      dup1\n      swap2\n      sub\n      swap1\n      revert\n        /* \"Smart-Contracts/PNJC_Airdrop.sol\":6853:6934  if (TOKEN.balanceOf(address(this)) < amount) revert InsufficientContractBalance() */\n    tag_220:\n        /* \"Smart-Contracts/PNJC_Airdrop.sol\":6960:6970  msg.sender */\n      caller\n        /* \"Smart-Contracts/PNJC_Airdrop.sol\":6947:6971  _allocations[msg.sender] */\n      0x00\n      swap1\n      dup2\n      mstore\n        /* \"Smart-Contracts/PNJC_Airdrop.sol\":6947:6959  _allocations */\n      0x01\n        /* \"Smart-Contracts/PNJC_Airdrop.sol\":6947:6971  _allocations[msg.sender] */\n      0x20\n      dup2\n      swap1\n      mstore\n      0x40\n      dup3\n      keccak256\n        /* \"Smart-Contracts/PNJC_Airdrop.sol\":6947:6985  _allocations[msg.sender].claimedAmount */\n      add\n        /* \"Smart-Contracts/PNJC_Airdrop.sol\":6947:6995  _allocations[msg.sender].claimedAmount += amount */\n      dup1\n      sload\n        /* \"Smart-Contracts/PNJC_Airdrop.sol\":6989:6995  amount */\n      dup4\n      swap3\n        /* \"Smart-Contracts/PNJC_Airdrop.sol\":6947:6971  _allocations[msg.sender] */\n      swap1\n        /* \"Smart-Contracts/PNJC_Airdrop.sol\":6947:6995  _allocations[msg.sender].claimedAmount += amount */\n      tag_221\n      swap1\n        /* \"Smart-Contracts/PNJC_Airdrop.sol\":6989:6995  amount */\n      dup5\n      swap1\n        /* \"Smart-Contracts/PNJC_Airdrop.sol\":6947:6995  _allocations[msg.sender].claimedAmount += amount */\n      tag_189\n      jump\t// in\n    tag_221:\n      swap1\n      swap2\n      sstore\n      pop\n        /* \"Smart-Contracts/PNJC_Airdrop.sol\":7006:7044  TOKEN.safeTransfer(msg.sender, amount) */\n      tag_222\n      swap1\n      pop\n      sub(shl(0xa0, 0x01), 0x01)\n        /* \"Smart-Contracts/PNJC_Airdrop.sol\":7006:7011  TOKEN */\n      immutable(\"0x70b9cfc048319b9ef377ccc5e2a0402a437e40c262f68ec2c4300041ea0be603\")\n        /* \"Smart-Contracts/PNJC_Airdrop.sol\":7006:7024  TOKEN.safeTransfer */\n      and\n        /* \"Smart-Contracts/PNJC_Airdrop.sol\":7025:7035  msg.sender */\n      caller\n        /* \"Smart-Contracts/PNJC_Airdrop.sol\":7037:7043  amount */\n      dup4\n        /* \"Smart-Contracts/PNJC_Airdrop.sol\":7006:7024  TOKEN.safeTransfer */\n      tag_187\n        /* \"Smart-Contracts/PNJC_Airdrop.sol\":7006:7044  TOKEN.safeTransfer(msg.sender, amount) */\n      jump\t// in\n    tag_222:\n        /* \"Smart-Contracts/PNJC_Airdrop.sol\":7060:7093  TokensClaimed(msg.sender, amount) */\n      mload(0x40)\n        /* \"#utility.yul\":1162:1187   */\n      dup2\n      dup2\n      mstore\n        /* \"Smart-Contracts/PNJC_Airdrop.sol\":7074:7084  msg.sender */\n      caller\n      swap1\n        /* \"Smart-Contracts/PNJC_Airdrop.sol\":7060:7093  TokensClaimed(msg.sender, amount) */\n      0x896e034966eaaf1adc54acc0f257056febbd300c9e47182cf761982cf1f5e430\n      swap1\n        /* \"#utility.yul\":1150:1152   */\n      0x20\n        /* \"#utility.yul\":1135:1153   */\n      add\n        /* \"Smart-Contracts/PNJC_Airdrop.sol\":7060:7093  TokensClaimed(msg.sender, amount) */\n      mload(0x40)\n      dup1\n      swap2\n      sub\n      swap1\n      log2\n        /* \"Smart-Contracts/PNJC_Airdrop.sol\":6752:7101  {... */\n      pop\n        /* \"@openzeppelin/contracts@5.6.0/utils/ReentrancyGuard.sol\":3065:3085  _nonReentrantAfter() */\n      tag_196\n        /* \"@openzeppelin/contracts@5.6.0/utils/ReentrancyGuard.sol\":2365:2366  1 */\n      0x01\n      0x00\n      dup1\n      mload\n      0x20\n      data_c8669cf8eaf883002b9f48e28846a8d408c9b58ea6613bace374265e43c9bc43\n      dup4\n      codecopy\n      dup2\n      mload\n      swap2\n      mstore\n        /* \"@openzeppelin/contracts@5.6.0/utils/ReentrancyGuard.sol\":3972:4034  _reentrancyGuardStorageSlot().getUint256Slot().value = ENTERED */\n      sstore\n        /* \"@openzeppelin/contracts@5.6.0/utils/ReentrancyGuard.sol\":3749:4041  function _nonReentrantBefore() private {... */\n      jump\n        /* \"@openzeppelin/contracts@5.6.0/access/Ownable.sol\":2293:2394  function renounceOwnership() public virtual onlyOwner {... */\n    tag_83:\n        /* \"@openzeppelin/contracts@5.6.0/access/Ownable.sol\":1531:1544  _checkOwner() */\n      tag_227\n        /* \"@openzeppelin/contracts@5.6.0/access/Ownable.sol\":1531:1542  _checkOwner */\n      tag_136\n        /* \"@openzeppelin/contracts@5.6.0/access/Ownable.sol\":1531:1544  _checkOwner() */\n      jump\t// in\n    tag_227:\n        /* \"@openzeppelin/contracts@5.6.0/access/Ownable.sol\":2357:2387  _transferOwnership(address(0)) */\n      tag_196\n        /* \"@openzeppelin/contracts@5.6.0/access/Ownable.sol\":2384:2385  0 */\n      0x00\n        /* \"@openzeppelin/contracts@5.6.0/access/Ownable.sol\":2357:2375  _transferOwnership */\n      tag_230\n        /* \"@openzeppelin/contracts@5.6.0/access/Ownable.sol\":2357:2387  _transferOwnership(address(0)) */\n      jump\t// in\n        /* \"Smart-Contracts/PNJC_Airdrop.sol\":4346:4981  function revokeVestingPartial(... */\n    tag_87:\n        /* \"@openzeppelin/contracts@5.6.0/access/Ownable.sol\":1531:1544  _checkOwner() */\n      tag_232\n        /* \"@openzeppelin/contracts@5.6.0/access/Ownable.sol\":1531:1542  _checkOwner */\n      tag_136\n        /* \"@openzeppelin/contracts@5.6.0/access/Ownable.sol\":1531:1544  _checkOwner() */\n      jump\t// in\n    tag_232:\n        /* \"@openzeppelin/contracts@5.6.0/utils/ReentrancyGuard.sol\":3023:3044  _nonReentrantBefore() */\n      tag_234\n        /* \"@openzeppelin/contracts@5.6.0/utils/ReentrancyGuard.sol\":3023:3042  _nonReentrantBefore */\n      tag_172\n        /* \"@openzeppelin/contracts@5.6.0/utils/ReentrancyGuard.sol\":3023:3044  _nonReentrantBefore() */\n      jump\t// in\n    tag_234:\n        /* \"Smart-Contracts/PNJC_Airdrop.sol\":2859:2870  AIRDROP_END */\n      immutable(\"0xc493552a1e855584e6833fef1d03bcac86bc3d70659cc3b6fbd1438fd337af90\")\n        /* \"Smart-Contracts/PNJC_Airdrop.sol\":2840:2855  block.timestamp */\n      timestamp\n        /* \"Smart-Contracts/PNJC_Airdrop.sol\":2840:2870  block.timestamp >= AIRDROP_END */\n      lt\n      iszero\n        /* \"Smart-Contracts/PNJC_Airdrop.sol\":2840:2885  block.timestamp >= AIRDROP_END && !autoBurned */\n      dup1\n      iszero\n      tag_236\n      jumpi\n      pop\n        /* \"Smart-Contracts/PNJC_Airdrop.sol\":2875:2885  autoBurned */\n      and(0xff, sload(0x03))\n        /* \"Smart-Contracts/PNJC_Airdrop.sol\":2874:2885  !autoBurned */\n      iszero\n        /* \"Smart-Contracts/PNJC_Airdrop.sol\":2840:2885  block.timestamp >= AIRDROP_END && !autoBurned */\n    tag_236:\n        /* \"Smart-Contracts/PNJC_Airdrop.sol\":2836:2932  if (block.timestamp >= AIRDROP_END && !autoBurned) {... */\n      iszero\n      tag_238\n      jumpi\n        /* \"Smart-Contracts/PNJC_Airdrop.sol\":2902:2920  _executeAutoBurn() */\n      tag_238\n        /* \"Smart-Contracts/PNJC_Airdrop.sol\":2902:2918  _executeAutoBurn */\n      tag_177\n        /* \"Smart-Contracts/PNJC_Airdrop.sol\":2902:2920  _executeAutoBurn() */\n      jump\t// in\n    tag_238:\n        /* \"Smart-Contracts/PNJC_Airdrop.sol\":2998:3009  isFinalized */\n      sload(0x06)\n      shl(0xa8, 0x01)\n      swap1\n      div\n      0xff\n      and\n        /* \"Smart-Contracts/PNJC_Airdrop.sol\":2994:3037  if (isFinalized) revert ContractFinalized() */\n      iszero\n      tag_240\n      jumpi\n        /* \"Smart-Contracts/PNJC_Airdrop.sol\":3018:3037  ContractFinalized() */\n      mload(0x40)\n      shl(0xe1, 0x4e356381)\n      dup2\n      mstore\n      0x04\n      add\n      mload(0x40)\n      dup1\n      swap2\n      sub\n      swap1\n      revert\n        /* \"Smart-Contracts/PNJC_Airdrop.sol\":2994:3037  if (isFinalized) revert ContractFinalized() */\n    tag_240:\n        /* \"Smart-Contracts/PNJC_Airdrop.sol\":4502:4509  amount_ */\n      dup1\n        /* \"Smart-Contracts/PNJC_Airdrop.sol\":4513:4514  0 */\n      0x00\n        /* \"Smart-Contracts/PNJC_Airdrop.sol\":4502:4514  amount_ == 0 */\n      sub\n        /* \"Smart-Contracts/PNJC_Airdrop.sol\":4498:4535  if (amount_ == 0) revert ZeroAmount() */\n      tag_242\n      jumpi\n        /* \"Smart-Contracts/PNJC_Airdrop.sol\":4523:4535  ZeroAmount() */\n      mload(0x40)\n      shl(0xe0, 0x1f2a2005)\n      dup2\n      mstore\n      0x04\n      add\n      mload(0x40)\n      dup1\n      swap2\n      sub\n      swap1\n      revert\n        /* \"Smart-Contracts/PNJC_Airdrop.sol\":4498:4535  if (amount_ == 0) revert ZeroAmount() */\n    tag_242:\n      sub(shl(0xa0, 0x01), 0x01)\n        /* \"Smart-Contracts/PNJC_Airdrop.sol\":4573:4592  _allocations[user_] */\n      dup3\n      and\n        /* \"Smart-Contracts/PNJC_Airdrop.sol\":4546:4570  Allocation storage alloc */\n      0x00\n        /* \"Smart-Contracts/PNJC_Airdrop.sol\":4573:4592  _allocations[user_] */\n      swap1\n      dup2\n      mstore\n        /* \"Smart-Contracts/PNJC_Airdrop.sol\":4573:4585  _allocations */\n      0x01\n        /* \"Smart-Contracts/PNJC_Airdrop.sol\":4573:4592  _allocations[user_] */\n      0x20\n      dup2\n      dup2\n      mstore\n      0x40\n      dup1\n      dup5\n      keccak256\n        /* \"Smart-Contracts/PNJC_Airdrop.sol\":4639:4664  _getUnvestedAmount(alloc) */\n      dup2\n      mload\n      0x80\n      dup2\n      add\n      dup4\n      mstore\n      dup2\n      sload\n      dup2\n      mstore\n      swap4\n      dup2\n      add\n      sload\n      swap3\n      dup5\n      add\n      swap3\n      swap1\n      swap3\n      mstore\n      0x02\n      dup3\n      add\n      sload\n      swap1\n      dup4\n      add\n      mstore\n      0x03\n      dup2\n      add\n      sload\n      0xff\n      and\n      iszero\n      iszero\n      0x60\n      dup4\n      add\n      mstore\n        /* \"Smart-Contracts/PNJC_Airdrop.sol\":4573:4592  _allocations[user_] */\n      swap2\n        /* \"Smart-Contracts/PNJC_Airdrop.sol\":4546:4570  Allocation storage alloc */\n      swap1\n        /* \"Smart-Contracts/PNJC_Airdrop.sol\":4639:4664  _getUnvestedAmount(alloc) */\n      tag_243\n      swap1\n        /* \"Smart-Contracts/PNJC_Airdrop.sol\":4639:4657  _getUnvestedAmount */\n      tag_182\n        /* \"Smart-Contracts/PNJC_Airdrop.sol\":4639:4664  _getUnvestedAmount(alloc) */\n      jump\t// in\n    tag_243:\n        /* \"Smart-Contracts/PNJC_Airdrop.sol\":4613:4664  uint256 currentUnvested = _getUnvestedAmount(alloc) */\n      swap1\n      pop\n        /* \"Smart-Contracts/PNJC_Airdrop.sol\":4689:4704  currentUnvested */\n      dup1\n        /* \"Smart-Contracts/PNJC_Airdrop.sol\":4679:4686  amount_ */\n      dup4\n        /* \"Smart-Contracts/PNJC_Airdrop.sol\":4679:4704  amount_ > currentUnvested */\n      gt\n        /* \"Smart-Contracts/PNJC_Airdrop.sol\":4675:4742  if (amount_ > currentUnvested) revert RevokeAmountExceedsUnvested() */\n      iszero\n      tag_244\n      jumpi\n        /* \"Smart-Contracts/PNJC_Airdrop.sol\":4713:4742  RevokeAmountExceedsUnvested() */\n      mload(0x40)\n      shl(0xe0, 0xdccabd35)\n      dup2\n      mstore\n      0x04\n      add\n      mload(0x40)\n      dup1\n      swap2\n      sub\n      swap1\n      revert\n        /* \"Smart-Contracts/PNJC_Airdrop.sol\":4675:4742  if (amount_ > currentUnvested) revert RevokeAmountExceedsUnvested() */\n    tag_244:\n        /* \"Smart-Contracts/PNJC_Airdrop.sol\":4776:4783  amount_ */\n      dup3\n        /* \"Smart-Contracts/PNJC_Airdrop.sol\":4755:4760  alloc */\n      dup3\n        /* \"Smart-Contracts/PNJC_Airdrop.sol\":4755:4772  alloc.totalAmount */\n      0x00\n      add\n      0x00\n        /* \"Smart-Contracts/PNJC_Airdrop.sol\":4755:4783  alloc.totalAmount -= amount_ */\n      dup3\n      dup3\n      sload\n      tag_245\n      swap2\n      swap1\n      tag_165\n      jump\t// in\n    tag_245:\n      swap3\n      pop\n      pop\n      dup2\n      swap1\n      sstore\n      pop\n        /* \"Smart-Contracts/PNJC_Airdrop.sol\":4819:4826  amount_ */\n      dup3\n        /* \"Smart-Contracts/PNJC_Airdrop.sol\":4794:4799  alloc */\n      dup3\n        /* \"Smart-Contracts/PNJC_Airdrop.sol\":4794:4815  alloc.revocableAmount */\n      0x02\n      add\n      0x00\n        /* \"Smart-Contracts/PNJC_Airdrop.sol\":4794:4826  alloc.revocableAmount -= amount_ */\n      dup3\n      dup3\n      sload\n      tag_246\n      swap2\n      swap1\n      tag_165\n      jump\t// in\n    tag_246:\n      swap1\n      swap2\n      sstore\n      pop\n        /* \"Smart-Contracts/PNJC_Airdrop.sol\":4839:4878  TOKEN.safeTransfer(address(0), amount_) */\n      tag_247\n      swap1\n      pop\n      sub(shl(0xa0, 0x01), 0x01)\n        /* \"Smart-Contracts/PNJC_Airdrop.sol\":4839:4844  TOKEN */\n      immutable(\"0x70b9cfc048319b9ef377ccc5e2a0402a437e40c262f68ec2c4300041ea0be603\")\n        /* \"Smart-Contracts/PNJC_Airdrop.sol\":4839:4857  TOKEN.safeTransfer */\n      and\n        /* \"Smart-Contracts/PNJC_Airdrop.sol\":4866:4867  0 */\n      0x00\n        /* \"Smart-Contracts/PNJC_Airdrop.sol\":4870:4877  amount_ */\n      dup6\n        /* \"Smart-Contracts/PNJC_Airdrop.sol\":4839:4857  TOKEN.safeTransfer */\n      tag_187\n        /* \"Smart-Contracts/PNJC_Airdrop.sol\":4839:4878  TOKEN.safeTransfer(address(0), amount_) */\n      jump\t// in\n    tag_247:\n        /* \"Smart-Contracts/PNJC_Airdrop.sol\":4911:4918  amount_ */\n      dup3\n        /* \"Smart-Contracts/PNJC_Airdrop.sol\":4889:4907  totalRevokedBurned */\n      0x04\n      0x00\n        /* \"Smart-Contracts/PNJC_Airdrop.sol\":4889:4918  totalRevokedBurned += amount_ */\n      dup3\n      dup3\n      sload\n      tag_248\n      swap2\n      swap1\n      tag_189\n      jump\t// in\n    tag_248:\n      swap1\n      swap2\n      sstore\n      pop\n      pop\n        /* \"Smart-Contracts/PNJC_Airdrop.sol\":4934:4973  VestingRevokedAndBurned(user_, amount_) */\n      mload(0x40)\n        /* \"#utility.yul\":1162:1187   */\n      dup4\n      dup2\n      mstore\n      sub(shl(0xa0, 0x01), 0x01)\n        /* \"Smart-Contracts/PNJC_Airdrop.sol\":4934:4973  VestingRevokedAndBurned(user_, amount_) */\n      dup6\n      and\n      swap1\n      0xca0351860ce2a85bc712861683dcb64560614677682c40a81c25fcfcc2e551c1\n      swap1\n        /* \"#utility.yul\":1150:1152   */\n      0x20\n        /* \"#utility.yul\":1135:1153   */\n      add\n        /* \"Smart-Contracts/PNJC_Airdrop.sol\":4934:4973  VestingRevokedAndBurned(user_, amount_) */\n      mload(0x40)\n      dup1\n      swap2\n      sub\n      swap1\n      log2\n        /* \"Smart-Contracts/PNJC_Airdrop.sol\":4487:4981  {... */\n      pop\n      pop\n        /* \"@openzeppelin/contracts@5.6.0/utils/ReentrancyGuard.sol\":3065:3085  _nonReentrantAfter() */\n      tag_250\n        /* \"@openzeppelin/contracts@5.6.0/utils/ReentrancyGuard.sol\":2365:2366  1 */\n      0x01\n      0x00\n      dup1\n      mload\n      0x20\n      data_c8669cf8eaf883002b9f48e28846a8d408c9b58ea6613bace374265e43c9bc43\n      dup4\n      codecopy\n      dup2\n      mload\n      swap2\n      mstore\n        /* \"@openzeppelin/contracts@5.6.0/utils/ReentrancyGuard.sol\":3972:4034  _reentrancyGuardStorageSlot().getUint256Slot().value = ENTERED */\n      sstore\n        /* \"@openzeppelin/contracts@5.6.0/utils/ReentrancyGuard.sol\":3749:4041  function _nonReentrantBefore() private {... */\n      jump\n        /* \"@openzeppelin/contracts@5.6.0/utils/ReentrancyGuard.sol\":3065:3085  _nonReentrantAfter() */\n    tag_250:\n        /* \"Smart-Contracts/PNJC_Airdrop.sol\":4346:4981  function revokeVestingPartial(... */\n      pop\n      pop\n      jump\t// out\n        /* \"Smart-Contracts/PNJC_Airdrop.sol\":3065:3114  function pause() external onlyOwner { _pause(); } */\n    tag_93:\n        /* \"@openzeppelin/contracts@5.6.0/access/Ownable.sol\":1531:1544  _checkOwner() */\n      tag_252\n        /* \"@openzeppelin/contracts@5.6.0/access/Ownable.sol\":1531:1542  _checkOwner */\n      tag_136\n        /* \"@openzeppelin/contracts@5.6.0/access/Ownable.sol\":1531:1544  _checkOwner() */\n      jump\t// in\n    tag_252:\n        /* \"Smart-Contracts/PNJC_Airdrop.sol\":3103:3111  _pause() */\n      tag_196\n        /* \"Smart-Contracts/PNJC_Airdrop.sol\":3103:3109  _pause */\n      tag_255\n        /* \"Smart-Contracts/PNJC_Airdrop.sol\":3103:3111  _pause() */\n      jump\t// in\n        /* \"Smart-Contracts/PNJC_Airdrop.sol\":7109:7590  function migrate() external nonReentrant whenNotPaused autoBurn notFinalized {... */\n    tag_104:\n        /* \"@openzeppelin/contracts@5.6.0/utils/ReentrancyGuard.sol\":3023:3044  _nonReentrantBefore() */\n      tag_258\n        /* \"@openzeppelin/contracts@5.6.0/utils/ReentrancyGuard.sol\":3023:3042  _nonReentrantBefore */\n      tag_172\n        /* \"@openzeppelin/contracts@5.6.0/utils/ReentrancyGuard.sol\":3023:3044  _nonReentrantBefore() */\n      jump\t// in\n    tag_258:\n        /* \"@openzeppelin/contracts@5.6.0/utils/Pausable.sol\":1350:1369  _requireNotPaused() */\n      tag_260\n        /* \"@openzeppelin/contracts@5.6.0/utils/Pausable.sol\":1350:1367  _requireNotPaused */\n      tag_205\n        /* \"@openzeppelin/contracts@5.6.0/utils/Pausable.sol\":1350:1369  _requireNotPaused() */\n      jump\t// in\n    tag_260:\n        /* \"Smart-Contracts/PNJC_Airdrop.sol\":2859:2870  AIRDROP_END */\n      immutable(\"0xc493552a1e855584e6833fef1d03bcac86bc3d70659cc3b6fbd1438fd337af90\")\n        /* \"Smart-Contracts/PNJC_Airdrop.sol\":2840:2855  block.timestamp */\n      timestamp\n        /* \"Smart-Contracts/PNJC_Airdrop.sol\":2840:2870  block.timestamp >= AIRDROP_END */\n      lt\n      iszero\n        /* \"Smart-Contracts/PNJC_Airdrop.sol\":2840:2885  block.timestamp >= AIRDROP_END && !autoBurned */\n      dup1\n      iszero\n      tag_262\n      jumpi\n      pop\n        /* \"Smart-Contracts/PNJC_Airdrop.sol\":2875:2885  autoBurned */\n      and(0xff, sload(0x03))\n        /* \"Smart-Contracts/PNJC_Airdrop.sol\":2874:2885  !autoBurned */\n      iszero\n        /* \"Smart-Contracts/PNJC_Airdrop.sol\":2840:2885  block.timestamp >= AIRDROP_END && !autoBurned */\n    tag_262:\n        /* \"Smart-Contracts/PNJC_Airdrop.sol\":2836:2932  if (block.timestamp >= AIRDROP_END && !autoBurned) {... */\n      iszero\n      tag_264\n      jumpi\n        /* \"Smart-Contracts/PNJC_Airdrop.sol\":2902:2920  _executeAutoBurn() */\n      tag_264\n        /* \"Smart-Contracts/PNJC_Airdrop.sol\":2902:2918  _executeAutoBurn */\n      tag_177\n        /* \"Smart-Contracts/PNJC_Airdrop.sol\":2902:2920  _executeAutoBurn() */\n      jump\t// in\n    tag_264:\n        /* \"Smart-Contracts/PNJC_Airdrop.sol\":2998:3009  isFinalized */\n      sload(0x06)\n      shl(0xa8, 0x01)\n      swap1\n      div\n      0xff\n      and\n        /* \"Smart-Contracts/PNJC_Airdrop.sol\":2994:3037  if (isFinalized) revert ContractFinalized() */\n      iszero\n      tag_266\n      jumpi\n        /* \"Smart-Contracts/PNJC_Airdrop.sol\":3018:3037  ContractFinalized() */\n      mload(0x40)\n      shl(0xe1, 0x4e356381)\n      dup2\n      mstore\n      0x04\n      add\n      mload(0x40)\n      dup1\n      swap2\n      sub\n      swap1\n      revert\n        /* \"Smart-Contracts/PNJC_Airdrop.sol\":2994:3037  if (isFinalized) revert ContractFinalized() */\n    tag_266:\n        /* \"Smart-Contracts/PNJC_Airdrop.sol\":7202:7217  migrationActive */\n      sload(0x06)\n      shl(0xa0, 0x01)\n      swap1\n      div\n      0xff\n      and\n        /* \"Smart-Contracts/PNJC_Airdrop.sol\":7197:7246  if (!migrationActive) revert MigrationNotActive() */\n      tag_268\n      jumpi\n        /* \"Smart-Contracts/PNJC_Airdrop.sol\":7226:7246  MigrationNotActive() */\n      mload(0x40)\n      shl(0xe1, 0x1e8a0cbf)\n      dup2\n      mstore\n      0x04\n      add\n      mload(0x40)\n      dup1\n      swap2\n      sub\n      swap1\n      revert\n        /* \"Smart-Contracts/PNJC_Airdrop.sol\":7197:7246  if (!migrationActive) revert MigrationNotActive() */\n    tag_268:\n        /* \"Smart-Contracts/PNJC_Airdrop.sol\":7257:7271  uint256 amount */\n      0x00\n        /* \"Smart-Contracts/PNJC_Airdrop.sol\":7274:7285  claimable() */\n      tag_269\n        /* \"Smart-Contracts/PNJC_Airdrop.sol\":7274:7283  claimable */\n      tag_109\n        /* \"Smart-Contracts/PNJC_Airdrop.sol\":7274:7285  claimable() */\n      jump\t// in\n    tag_269:\n        /* \"Smart-Contracts/PNJC_Airdrop.sol\":7257:7285  uint256 amount = claimable() */\n      swap1\n      pop\n        /* \"Smart-Contracts/PNJC_Airdrop.sol\":7300:7306  amount */\n      dup1\n        /* \"Smart-Contracts/PNJC_Airdrop.sol\":7310:7311  0 */\n      0x00\n        /* \"Smart-Contracts/PNJC_Airdrop.sol\":7300:7311  amount == 0 */\n      sub\n        /* \"Smart-Contracts/PNJC_Airdrop.sol\":7296:7336  if (amount == 0) revert NothingToClaim() */\n      tag_270\n      jumpi\n        /* \"Smart-Contracts/PNJC_Airdrop.sol\":7320:7336  NothingToClaim() */\n      mload(0x40)\n      shl(0xe3, 0x12d37ee5)\n      dup2\n      mstore\n      0x04\n      add\n      mload(0x40)\n      dup1\n      swap2\n      sub\n      swap1\n      revert\n        /* \"Smart-Contracts/PNJC_Airdrop.sol\":7296:7336  if (amount == 0) revert NothingToClaim() */\n    tag_270:\n        /* \"Smart-Contracts/PNJC_Airdrop.sol\":7389:7399  msg.sender */\n      caller\n        /* \"Smart-Contracts/PNJC_Airdrop.sol\":7349:7373  Allocation storage alloc */\n      0x00\n        /* \"Smart-Contracts/PNJC_Airdrop.sol\":7376:7400  _allocations[msg.sender] */\n      swap1\n      dup2\n      mstore\n        /* \"Smart-Contracts/PNJC_Airdrop.sol\":7376:7388  _allocations */\n      0x01\n        /* \"Smart-Contracts/PNJC_Airdrop.sol\":7376:7400  _allocations[msg.sender] */\n      0x20\n      dup2\n      swap1\n      mstore\n      0x40\n      swap1\n      swap2\n      keccak256\n        /* \"Smart-Contracts/PNJC_Airdrop.sol\":7433:7450  alloc.totalAmount */\n      dup1\n      sload\n        /* \"Smart-Contracts/PNJC_Airdrop.sol\":7411:7430  alloc.claimedAmount */\n      dup2\n      dup4\n      add\n        /* \"Smart-Contracts/PNJC_Airdrop.sol\":7411:7450  alloc.claimedAmount = alloc.totalAmount */\n      sstore\n        /* \"Smart-Contracts/PNJC_Airdrop.sol\":7461:7473  alloc.burned */\n      0x03\n      dup2\n      add\n        /* \"Smart-Contracts/PNJC_Airdrop.sol\":7461:7480  alloc.burned = true */\n      dup1\n      sload\n      not(0xff)\n      and\n      swap1\n      swap3\n      or\n      swap1\n      swap2\n      sstore\n        /* \"Smart-Contracts/PNJC_Airdrop.sol\":7512:7529  migrationContract */\n      sload(0x06)\n        /* \"Smart-Contracts/PNJC_Airdrop.sol\":7493:7538  TOKEN.safeTransfer(migrationContract, amount) */\n      tag_271\n      swap1\n      sub(shl(0xa0, 0x01), 0x01)\n        /* \"Smart-Contracts/PNJC_Airdrop.sol\":7493:7498  TOKEN */\n      immutable(\"0x70b9cfc048319b9ef377ccc5e2a0402a437e40c262f68ec2c4300041ea0be603\")\n        /* \"Smart-Contracts/PNJC_Airdrop.sol\":7493:7511  TOKEN.safeTransfer */\n      dup2\n      and\n      swap2\n        /* \"Smart-Contracts/PNJC_Airdrop.sol\":7512:7529  migrationContract */\n      and\n        /* \"Smart-Contracts/PNJC_Airdrop.sol\":7531:7537  amount */\n      dup5\n        /* \"Smart-Contracts/PNJC_Airdrop.sol\":7493:7511  TOKEN.safeTransfer */\n      tag_187\n        /* \"Smart-Contracts/PNJC_Airdrop.sol\":7493:7538  TOKEN.safeTransfer(migrationContract, amount) */\n      jump\t// in\n    tag_271:\n        /* \"Smart-Contracts/PNJC_Airdrop.sol\":7554:7582  Migrated(msg.sender, amount) */\n      mload(0x40)\n        /* \"#utility.yul\":1162:1187   */\n      dup3\n      dup2\n      mstore\n        /* \"Smart-Contracts/PNJC_Airdrop.sol\":7563:7573  msg.sender */\n      caller\n      swap1\n        /* \"Smart-Contracts/PNJC_Airdrop.sol\":7554:7582  Migrated(msg.sender, amount) */\n      0x8b80bd19aea7b735bc6d75db8d6adbe18b28c30d62b3555245eb67b2340caedc\n      swap1\n        /* \"#utility.yul\":1150:1152   */\n      0x20\n        /* \"#utility.yul\":1135:1153   */\n      add\n        /* \"Smart-Contracts/PNJC_Airdrop.sol\":7554:7582  Migrated(msg.sender, amount) */\n      mload(0x40)\n      dup1\n      swap2\n      sub\n      swap1\n      log2\n        /* \"Smart-Contracts/PNJC_Airdrop.sol\":7186:7590  {... */\n      pop\n      pop\n        /* \"@openzeppelin/contracts@5.6.0/utils/ReentrancyGuard.sol\":3065:3085  _nonReentrantAfter() */\n      tag_196\n        /* \"@openzeppelin/contracts@5.6.0/utils/ReentrancyGuard.sol\":2365:2366  1 */\n      0x01\n      0x00\n      dup1\n      mload\n      0x20\n      data_c8669cf8eaf883002b9f48e28846a8d408c9b58ea6613bace374265e43c9bc43\n      dup4\n      codecopy\n      dup2\n      mload\n      swap2\n      mstore\n        /* \"@openzeppelin/contracts@5.6.0/utils/ReentrancyGuard.sol\":3972:4034  _reentrancyGuardStorageSlot().getUint256Slot().value = ENTERED */\n      sstore\n        /* \"@openzeppelin/contracts@5.6.0/utils/ReentrancyGuard.sol\":3749:4041  function _nonReentrantBefore() private {... */\n      jump\n        /* \"Smart-Contracts/PNJC_Airdrop.sol\":6272:6669  function claimable() public view returns (uint256 claimable_) {... */\n    tag_109:\n        /* \"Smart-Contracts/PNJC_Airdrop.sol\":6384:6394  msg.sender */\n      caller\n        /* \"Smart-Contracts/PNJC_Airdrop.sol\":6314:6332  uint256 claimable_ */\n      0x00\n        /* \"Smart-Contracts/PNJC_Airdrop.sol\":6371:6395  _allocations[msg.sender] */\n      swap1\n      dup2\n      mstore\n        /* \"Smart-Contracts/PNJC_Airdrop.sol\":6371:6383  _allocations */\n      0x01\n        /* \"Smart-Contracts/PNJC_Airdrop.sol\":6371:6395  _allocations[msg.sender] */\n      0x20\n      dup2\n      dup2\n      mstore\n      0x40\n      dup1\n      dup5\n      keccak256\n        /* \"Smart-Contracts/PNJC_Airdrop.sol\":6345:6395  Allocation memory alloc = _allocations[msg.sender] */\n      dup2\n      mload\n      0x80\n      dup2\n      add\n      dup4\n      mstore\n      dup2\n      sload\n      dup1\n      dup3\n      mstore\n      swap5\n      dup3\n      add\n      sload\n      swap4\n      dup2\n      add\n      swap4\n      swap1\n      swap4\n      mstore\n      0x02\n      dup2\n      add\n      sload\n      swap2\n      dup4\n      add\n      swap2\n      swap1\n      swap2\n      mstore\n      0x03\n      add\n      sload\n      0xff\n      and\n      iszero\n      iszero\n      0x60\n      dup3\n      add\n      mstore\n      swap1\n        /* \"Smart-Contracts/PNJC_Airdrop.sol\":6410:6432  alloc.totalAmount == 0 */\n      iszero\n      dup1\n        /* \"Smart-Contracts/PNJC_Airdrop.sol\":6410:6448  alloc.totalAmount == 0 || alloc.burned */\n      tag_275\n      jumpi\n      pop\n        /* \"Smart-Contracts/PNJC_Airdrop.sol\":6436:6441  alloc */\n      dup1\n        /* \"Smart-Contracts/PNJC_Airdrop.sol\":6436:6448  alloc.burned */\n      0x60\n      add\n      mload\n        /* \"Smart-Contracts/PNJC_Airdrop.sol\":6410:6448  alloc.totalAmount == 0 || alloc.burned */\n    tag_275:\n        /* \"Smart-Contracts/PNJC_Airdrop.sol\":6406:6458  if (alloc.totalAmount == 0 || alloc.burned) return 0 */\n      iszero\n      tag_276\n      jumpi\n        /* \"Smart-Contracts/PNJC_Airdrop.sol\":6457:6458  0 */\n      0x00\n        /* \"Smart-Contracts/PNJC_Airdrop.sol\":6450:6458  return 0 */\n      swap2\n      pop\n      pop\n        /* \"Smart-Contracts/PNJC_Airdrop.sol\":6272:6669  function claimable() public view returns (uint256 claimable_) {... */\n      swap1\n      jump\t// out\n        /* \"Smart-Contracts/PNJC_Airdrop.sol\":6406:6458  if (alloc.totalAmount == 0 || alloc.burned) return 0 */\n    tag_276:\n        /* \"Smart-Contracts/PNJC_Airdrop.sol\":6471:6493  uint256 totalAvailable */\n      0x00\n        /* \"Smart-Contracts/PNJC_Airdrop.sol\":6496:6533  _getTotalAvailable(alloc.totalAmount) */\n      tag_277\n        /* \"Smart-Contracts/PNJC_Airdrop.sol\":6515:6520  alloc */\n      dup3\n        /* \"Smart-Contracts/PNJC_Airdrop.sol\":6515:6532  alloc.totalAmount */\n      0x00\n      add\n      mload\n        /* \"Smart-Contracts/PNJC_Airdrop.sol\":6496:6514  _getTotalAvailable */\n      tag_278\n        /* \"Smart-Contracts/PNJC_Airdrop.sol\":6496:6533  _getTotalAvailable(alloc.totalAmount) */\n      jump\t// in\n    tag_277:\n        /* \"Smart-Contracts/PNJC_Airdrop.sol\":6471:6533  uint256 totalAvailable = _getTotalAvailable(alloc.totalAmount) */\n      swap1\n      pop\n        /* \"Smart-Contracts/PNJC_Airdrop.sol\":6565:6570  alloc */\n      dup2\n        /* \"Smart-Contracts/PNJC_Airdrop.sol\":6565:6584  alloc.claimedAmount */\n      0x20\n      add\n      mload\n        /* \"Smart-Contracts/PNJC_Airdrop.sol\":6548:6562  totalAvailable */\n      dup2\n        /* \"Smart-Contracts/PNJC_Airdrop.sol\":6548:6584  totalAvailable > alloc.claimedAmount */\n      gt\n        /* \"Smart-Contracts/PNJC_Airdrop.sol\":6544:6662  if (totalAvailable > alloc.claimedAmount) {... */\n      iszero\n      tag_279\n      jumpi\n        /* \"Smart-Contracts/PNJC_Airdrop.sol\":6631:6650  alloc.claimedAmount */\n      0x20\n      dup3\n      add\n      mload\n        /* \"Smart-Contracts/PNJC_Airdrop.sol\":6614:6650  totalAvailable - alloc.claimedAmount */\n      tag_280\n      swap1\n        /* \"Smart-Contracts/PNJC_Airdrop.sol\":6614:6628  totalAvailable */\n      dup3\n        /* \"Smart-Contracts/PNJC_Airdrop.sol\":6614:6650  totalAvailable - alloc.claimedAmount */\n      tag_165\n      jump\t// in\n    tag_280:\n        /* \"Smart-Contracts/PNJC_Airdrop.sol\":6601:6650  claimable_ = totalAvailable - alloc.claimedAmount */\n      swap3\n      pop\n        /* \"Smart-Contracts/PNJC_Airdrop.sol\":6544:6662  if (totalAvailable > alloc.claimedAmount) {... */\n    tag_279:\n        /* \"Smart-Contracts/PNJC_Airdrop.sol\":6334:6669  {... */\n      pop\n      pop\n        /* \"Smart-Contracts/PNJC_Airdrop.sol\":6272:6669  function claimable() public view returns (uint256 claimable_) {... */\n      swap1\n      jump\t// out\n        /* \"Smart-Contracts/PNJC_Airdrop.sol\":8150:8253  function totalBurned() external view returns (uint256) { return totalRevokedBurned + totalAutoBurned; } */\n    tag_118:\n        /* \"Smart-Contracts/PNJC_Airdrop.sol\":8196:8203  uint256 */\n      0x00\n        /* \"Smart-Contracts/PNJC_Airdrop.sol\":8235:8250  totalAutoBurned */\n      sload(0x05)\n        /* \"Smart-Contracts/PNJC_Airdrop.sol\":8214:8232  totalRevokedBurned */\n      sload(0x04)\n        /* \"Smart-Contracts/PNJC_Airdrop.sol\":8214:8250  totalRevokedBurned + totalAutoBurned */\n      tag_282\n      swap2\n      swap1\n      tag_189\n      jump\t// in\n    tag_282:\n        /* \"Smart-Contracts/PNJC_Airdrop.sol\":8207:8250  return totalRevokedBurned + totalAutoBurned */\n      swap1\n      pop\n        /* \"Smart-Contracts/PNJC_Airdrop.sol\":8150:8253  function totalBurned() external view returns (uint256) { return totalRevokedBurned + totalAutoBurned; } */\n      swap1\n      jump\t// out\n        /* \"Smart-Contracts/PNJC_Airdrop.sol\":7864:8044  function unvestedAmount() external view returns (uint256 unvested_) {... */\n    tag_121:\n        /* \"Smart-Contracts/PNJC_Airdrop.sol\":7982:7992  msg.sender */\n      caller\n        /* \"Smart-Contracts/PNJC_Airdrop.sol\":7913:7930  uint256 unvested_ */\n      0x00\n        /* \"Smart-Contracts/PNJC_Airdrop.sol\":7969:7993  _allocations[msg.sender] */\n      swap1\n      dup2\n      mstore\n        /* \"Smart-Contracts/PNJC_Airdrop.sol\":7969:7981  _allocations */\n      0x01\n        /* \"Smart-Contracts/PNJC_Airdrop.sol\":7969:7993  _allocations[msg.sender] */\n      0x20\n      dup2\n      dup2\n      mstore\n      0x40\n      dup1\n      dup5\n      keccak256\n        /* \"Smart-Contracts/PNJC_Airdrop.sol\":7943:7993  Allocation memory alloc = _allocations[msg.sender] */\n      dup2\n      mload\n      0x80\n      dup2\n      add\n      dup4\n      mstore\n      dup2\n      sload\n      dup2\n      mstore\n      swap4\n      dup2\n      add\n      sload\n      swap3\n      dup5\n      add\n      swap3\n      swap1\n      swap3\n      mstore\n      0x02\n      dup3\n      add\n      sload\n      swap1\n      dup4\n      add\n      mstore\n      0x03\n      add\n      sload\n      0xff\n      and\n      iszero\n      iszero\n      0x60\n      dup3\n      add\n      mstore\n        /* \"Smart-Contracts/PNJC_Airdrop.sol\":8011:8036  _getUnvestedAmount(alloc) */\n      tag_284\n        /* \"Smart-Contracts/PNJC_Airdrop.sol\":7943:7993  Allocation memory alloc = _allocations[msg.sender] */\n      dup2\n        /* \"Smart-Contracts/PNJC_Airdrop.sol\":8011:8029  _getUnvestedAmount */\n      tag_182\n        /* \"Smart-Contracts/PNJC_Airdrop.sol\":8011:8036  _getUnvestedAmount(alloc) */\n      jump\t// in\n    tag_284:\n        /* \"Smart-Contracts/PNJC_Airdrop.sol\":8004:8036  return _getUnvestedAmount(alloc) */\n      swap2\n      pop\n      pop\n        /* \"Smart-Contracts/PNJC_Airdrop.sol\":7864:8044  function unvestedAmount() external view returns (uint256 unvested_) {... */\n      swap1\n      jump\t// out\n        /* \"@openzeppelin/contracts@5.6.0/access/Ownable.sol\":2543:2758  function transferOwnership(address newOwner) public virtual onlyOwner {... */\n    tag_125:\n        /* \"@openzeppelin/contracts@5.6.0/access/Ownable.sol\":1531:1544  _checkOwner() */\n      tag_286\n        /* \"@openzeppelin/contracts@5.6.0/access/Ownable.sol\":1531:1542  _checkOwner */\n      tag_136\n        /* \"@openzeppelin/contracts@5.6.0/access/Ownable.sol\":1531:1544  _checkOwner() */\n      jump\t// in\n    tag_286:\n      sub(shl(0xa0, 0x01), 0x01)\n        /* \"@openzeppelin/contracts@5.6.0/access/Ownable.sol\":2627:2649  newOwner == address(0) */\n      dup2\n      and\n        /* \"@openzeppelin/contracts@5.6.0/access/Ownable.sol\":2623:2714  if (newOwner == address(0)) {... */\n      tag_288\n      jumpi\n        /* \"@openzeppelin/contracts@5.6.0/access/Ownable.sol\":2672:2703  OwnableInvalidOwner(address(0)) */\n      mload(0x40)\n      shl(0xe0, 0x1e4fbdf7)\n      dup2\n      mstore\n        /* \"@openzeppelin/contracts@5.6.0/access/Ownable.sol\":2700:2701  0 */\n      0x00\n        /* \"@openzeppelin/contracts@5.6.0/access/Ownable.sol\":2672:2703  OwnableInvalidOwner(address(0)) */\n      0x04\n      dup3\n      add\n        /* \"#utility.yul\":954:1005   */\n      mstore\n        /* \"#utility.yul\":927:945   */\n      0x24\n      add\n        /* \"@openzeppelin/contracts@5.6.0/access/Ownable.sol\":2672:2703  OwnableInvalidOwner(address(0)) */\n    tag_289:\n      mload(0x40)\n      dup1\n      swap2\n      sub\n      swap1\n      revert\n        /* \"@openzeppelin/contracts@5.6.0/access/Ownable.sol\":2623:2714  if (newOwner == address(0)) {... */\n    tag_288:\n        /* \"@openzeppelin/contracts@5.6.0/access/Ownable.sol\":2723:2751  _transferOwnership(newOwner) */\n      tag_191\n        /* \"@openzeppelin/contracts@5.6.0/access/Ownable.sol\":2742:2750  newOwner */\n      dup2\n        /* \"@openzeppelin/contracts@5.6.0/access/Ownable.sol\":2723:2741  _transferOwnership */\n      tag_230\n        /* \"@openzeppelin/contracts@5.6.0/access/Ownable.sol\":2723:2751  _transferOwnership(newOwner) */\n      jump\t// in\n        /* \"Smart-Contracts/PNJC_Airdrop.sol\":5515:5874  function rescueNonAirdropTokens(IERC20 token_) external onlyOwner {... */\n    tag_132:\n        /* \"@openzeppelin/contracts@5.6.0/access/Ownable.sol\":1531:1544  _checkOwner() */\n      tag_292\n        /* \"@openzeppelin/contracts@5.6.0/access/Ownable.sol\":1531:1542  _checkOwner */\n      tag_136\n        /* \"@openzeppelin/contracts@5.6.0/access/Ownable.sol\":1531:1544  _checkOwner() */\n      jump\t// in\n    tag_292:\n        /* \"Smart-Contracts/PNJC_Airdrop.sol\":5606:5611  TOKEN */\n      immutable(\"0x70b9cfc048319b9ef377ccc5e2a0402a437e40c262f68ec2c4300041ea0be603\")\n      sub(shl(0xa0, 0x01), 0x01)\n        /* \"Smart-Contracts/PNJC_Airdrop.sol\":5596:5611  token_ == TOKEN */\n      and\n        /* \"Smart-Contracts/PNJC_Airdrop.sol\":5596:5602  token_ */\n      dup2\n      sub(shl(0xa0, 0x01), 0x01)\n        /* \"Smart-Contracts/PNJC_Airdrop.sol\":5596:5611  token_ == TOKEN */\n      and\n      sub\n        /* \"Smart-Contracts/PNJC_Airdrop.sol\":5592:5646  if (token_ == TOKEN) revert CannotRescueAirdropToken() */\n      tag_294\n      jumpi\n        /* \"Smart-Contracts/PNJC_Airdrop.sol\":5620:5646  CannotRescueAirdropToken() */\n      mload(0x40)\n      shl(0xe0, 0x0d341791)\n      dup2\n      mstore\n      0x04\n      add\n      mload(0x40)\n      dup1\n      swap2\n      sub\n      swap1\n      revert\n        /* \"Smart-Contracts/PNJC_Airdrop.sol\":5592:5646  if (token_ == TOKEN) revert CannotRescueAirdropToken() */\n    tag_294:\n        /* \"Smart-Contracts/PNJC_Airdrop.sol\":5675:5706  token_.balanceOf(address(this)) */\n      mload(0x40)\n      shl(0xe0, 0x70a08231)\n      dup2\n      mstore\n        /* \"Smart-Contracts/PNJC_Airdrop.sol\":5700:5704  this */\n      address\n        /* \"Smart-Contracts/PNJC_Airdrop.sol\":5675:5706  token_.balanceOf(address(this)) */\n      0x04\n      dup3\n      add\n        /* \"#utility.yul\":954:1005   */\n      mstore\n        /* \"Smart-Contracts/PNJC_Airdrop.sol\":5657:5672  uint256 balance */\n      0x00\n      swap1\n      sub(shl(0xa0, 0x01), 0x01)\n        /* \"Smart-Contracts/PNJC_Airdrop.sol\":5675:5691  token_.balanceOf */\n      dup4\n      and\n      swap1\n      0x70a08231\n      swap1\n        /* \"#utility.yul\":927:945   */\n      0x24\n      add\n        /* \"Smart-Contracts/PNJC_Airdrop.sol\":5675:5706  token_.balanceOf(address(this)) */\n      0x20\n      mload(0x40)\n      dup1\n      dup4\n      sub\n      dup2\n      dup7\n      gas\n      staticcall\n      iszero\n      dup1\n      iszero\n      tag_297\n      jumpi\n      returndatasize\n      0x00\n      dup1\n      returndatacopy\n      revert(0x00, returndatasize)\n    tag_297:\n      pop\n      pop\n      pop\n      pop\n      mload(0x40)\n      returndatasize\n      not(0x1f)\n      0x1f\n      dup3\n      add\n      and\n      dup3\n      add\n      dup1\n      0x40\n      mstore\n      pop\n      dup2\n      add\n      swap1\n      tag_298\n      swap2\n      swap1\n      tag_219\n      jump\t// in\n    tag_298:\n        /* \"Smart-Contracts/PNJC_Airdrop.sol\":5657:5706  uint256 balance = token_.balanceOf(address(this)) */\n      swap1\n      pop\n        /* \"Smart-Contracts/PNJC_Airdrop.sol\":5721:5728  balance */\n      dup1\n        /* \"Smart-Contracts/PNJC_Airdrop.sol\":5732:5733  0 */\n      0x00\n        /* \"Smart-Contracts/PNJC_Airdrop.sol\":5721:5733  balance == 0 */\n      sub\n        /* \"Smart-Contracts/PNJC_Airdrop.sol\":5717:5754  if (balance == 0) revert ZeroAmount() */\n      tag_299\n      jumpi\n        /* \"Smart-Contracts/PNJC_Airdrop.sol\":5742:5754  ZeroAmount() */\n      mload(0x40)\n      shl(0xe0, 0x1f2a2005)\n      dup2\n      mstore\n      0x04\n      add\n      mload(0x40)\n      dup1\n      swap2\n      sub\n      swap1\n      revert\n        /* \"Smart-Contracts/PNJC_Airdrop.sol\":5717:5754  if (balance == 0) revert ZeroAmount() */\n    tag_299:\n        /* \"Smart-Contracts/PNJC_Airdrop.sol\":5765:5802  token_.safeTransfer(owner(), balance) */\n      tag_300\n        /* \"Smart-Contracts/PNJC_Airdrop.sol\":5785:5792  owner() */\n      tag_301\n        /* \"@openzeppelin/contracts@5.6.0/access/Ownable.sol\":1684:1691  address */\n      0x00\n        /* \"@openzeppelin/contracts@5.6.0/access/Ownable.sol\":1710:1716  _owner */\n      sload\n      sub(shl(0xa0, 0x01), 0x01)\n      and\n      swap1\n        /* \"@openzeppelin/contracts@5.6.0/access/Ownable.sol\":1638:1723  function owner() public view virtual returns (address) {... */\n      jump\n        /* \"Smart-Contracts/PNJC_Airdrop.sol\":5785:5792  owner() */\n    tag_301:\n      sub(shl(0xa0, 0x01), 0x01)\n        /* \"Smart-Contracts/PNJC_Airdrop.sol\":5765:5784  token_.safeTransfer */\n      dup5\n      and\n      swap1\n        /* \"Smart-Contracts/PNJC_Airdrop.sol\":5794:5801  balance */\n      dup4\n        /* \"Smart-Contracts/PNJC_Airdrop.sol\":5765:5784  token_.safeTransfer */\n      tag_187\n        /* \"Smart-Contracts/PNJC_Airdrop.sol\":5765:5802  token_.safeTransfer(owner(), balance) */\n      jump\t// in\n    tag_300:\n        /* \"Smart-Contracts/PNJC_Airdrop.sol\":5849:5855  token_ */\n      dup2\n      sub(shl(0xa0, 0x01), 0x01)\n        /* \"Smart-Contracts/PNJC_Airdrop.sol\":5818:5866  NonAirdropTokenRescued(address(token_), balance) */\n      and\n      0x3cf91549202759aa28b4ccef6accdb58b06e1bdebc31f84e43a225a809a048d2\n        /* \"Smart-Contracts/PNJC_Airdrop.sol\":5858:5865  balance */\n      dup3\n        /* \"Smart-Contracts/PNJC_Airdrop.sol\":5818:5866  NonAirdropTokenRescued(address(token_), balance) */\n      mload(0x40)\n      tag_302\n      swap2\n        /* \"#utility.yul\":1162:1187   */\n      dup2\n      mstore\n        /* \"#utility.yul\":1150:1152   */\n      0x20\n        /* \"#utility.yul\":1135:1153   */\n      add\n      swap1\n        /* \"#utility.yul\":1016:1193   */\n      jump\n        /* \"Smart-Contracts/PNJC_Airdrop.sol\":5818:5866  NonAirdropTokenRescued(address(token_), balance) */\n    tag_302:\n      mload(0x40)\n      dup1\n      swap2\n      sub\n      swap1\n      log2\n        /* \"Smart-Contracts/PNJC_Airdrop.sol\":5581:5874  {... */\n      pop\n        /* \"Smart-Contracts/PNJC_Airdrop.sol\":5515:5874  function rescueNonAirdropTokens(IERC20 token_) external onlyOwner {... */\n      pop\n      jump\t// out\n        /* \"@openzeppelin/contracts@5.6.0/access/Ownable.sol\":1796:1958  function _checkOwner() internal view virtual {... */\n    tag_136:\n        /* \"@openzeppelin/contracts@5.6.0/access/Ownable.sol\":1684:1691  address */\n      0x00\n        /* \"@openzeppelin/contracts@5.6.0/access/Ownable.sol\":1710:1716  _owner */\n      sload\n      sub(shl(0xa0, 0x01), 0x01)\n      and\n        /* \"@openzeppelin/contracts@5.6.0/utils/Context.sol\":735:745  msg.sender */\n      caller\n        /* \"@openzeppelin/contracts@5.6.0/access/Ownable.sol\":1855:1878  owner() != _msgSender() */\n      eq\n        /* \"@openzeppelin/contracts@5.6.0/access/Ownable.sol\":1851:1952  if (owner() != _msgSender()) {... */\n      tag_196\n      jumpi\n        /* \"@openzeppelin/contracts@5.6.0/access/Ownable.sol\":1901:1941  OwnableUnauthorizedAccount(_msgSender()) */\n      mload(0x40)\n      shl(0xe0, 0x118cdaa7)\n      dup2\n      mstore\n        /* \"@openzeppelin/contracts@5.6.0/utils/Context.sol\":735:745  msg.sender */\n      caller\n        /* \"@openzeppelin/contracts@5.6.0/access/Ownable.sol\":1901:1941  OwnableUnauthorizedAccount(_msgSender()) */\n      0x04\n      dup3\n      add\n        /* \"#utility.yul\":954:1005   */\n      mstore\n        /* \"#utility.yul\":927:945   */\n      0x24\n      add\n        /* \"@openzeppelin/contracts@5.6.0/access/Ownable.sol\":1901:1941  OwnableUnauthorizedAccount(_msgSender()) */\n      tag_289\n        /* \"#utility.yul\":808:1011   */\n      jump\n        /* \"@openzeppelin/contracts@5.6.0/utils/ReentrancyGuard.sol\":3749:4041  function _nonReentrantBefore() private {... */\n    tag_172:\n        /* \"@openzeppelin/contracts@5.6.0/utils/ReentrancyGuard.sol\":3872:3897  _nonReentrantBeforeView() */\n      tag_311\n        /* \"@openzeppelin/contracts@5.6.0/utils/ReentrancyGuard.sol\":3872:3895  _nonReentrantBeforeView */\n      tag_312\n        /* \"@openzeppelin/contracts@5.6.0/utils/ReentrancyGuard.sol\":3872:3897  _nonReentrantBeforeView() */\n      jump\t// in\n    tag_311:\n        /* \"@openzeppelin/contracts@5.6.0/utils/ReentrancyGuard.sol\":2407:2408  2 */\n      0x02\n      0x00\n      dup1\n      mload\n      0x20\n      data_c8669cf8eaf883002b9f48e28846a8d408c9b58ea6613bace374265e43c9bc43\n      dup4\n      codecopy\n      dup2\n      mload\n      swap2\n      mstore\n        /* \"@openzeppelin/contracts@5.6.0/utils/ReentrancyGuard.sol\":3972:4034  _reentrancyGuardStorageSlot().getUint256Slot().value = ENTERED */\n      sstore\n        /* \"@openzeppelin/contracts@5.6.0/utils/ReentrancyGuard.sol\":3749:4041  function _nonReentrantBefore() private {... */\n      jump\t// out\n        /* \"Smart-Contracts/PNJC_Airdrop.sol\":8261:8581  function _executeAutoBurn() private {... */\n    tag_177:\n        /* \"Smart-Contracts/PNJC_Airdrop.sol\":8308:8318  autoBurned */\n      0x03\n        /* \"Smart-Contracts/PNJC_Airdrop.sol\":8308:8325  autoBurned = true */\n      dup1\n      sload\n      not(0xff)\n      and\n        /* \"Smart-Contracts/PNJC_Airdrop.sol\":8321:8325  true */\n      0x01\n        /* \"Smart-Contracts/PNJC_Airdrop.sol\":8308:8325  autoBurned = true */\n      or\n      swap1\n      sstore\n        /* \"Smart-Contracts/PNJC_Airdrop.sol\":8354:8384  TOKEN.balanceOf(address(this)) */\n      mload(0x40)\n      shl(0xe0, 0x70a08231)\n      dup2\n      mstore\n        /* \"Smart-Contracts/PNJC_Airdrop.sol\":8378:8382  this */\n      address\n        /* \"Smart-Contracts/PNJC_Airdrop.sol\":8354:8384  TOKEN.balanceOf(address(this)) */\n      0x04\n      dup3\n      add\n        /* \"#utility.yul\":954:1005   */\n      mstore\n      0x00\n      swap1\n      sub(shl(0xa0, 0x01), 0x01)\n        /* \"Smart-Contracts/PNJC_Airdrop.sol\":8354:8359  TOKEN */\n      immutable(\"0x70b9cfc048319b9ef377ccc5e2a0402a437e40c262f68ec2c4300041ea0be603\")\n        /* \"Smart-Contracts/PNJC_Airdrop.sol\":8354:8369  TOKEN.balanceOf */\n      and\n      swap1\n      0x70a08231\n      swap1\n        /* \"#utility.yul\":927:945   */\n      0x24\n      add\n        /* \"Smart-Contracts/PNJC_Airdrop.sol\":8354:8384  TOKEN.balanceOf(address(this)) */\n      0x20\n      mload(0x40)\n      dup1\n      dup4\n      sub\n      dup2\n      dup7\n      gas\n      staticcall\n      iszero\n      dup1\n      iszero\n      tag_320\n      jumpi\n      returndatasize\n      0x00\n      dup1\n      returndatacopy\n      revert(0x00, returndatasize)\n    tag_320:\n      pop\n      pop\n      pop\n      pop\n      mload(0x40)\n      returndatasize\n      not(0x1f)\n      0x1f\n      dup3\n      add\n      and\n      dup3\n      add\n      dup1\n      0x40\n      mstore\n      pop\n      dup2\n      add\n      swap1\n      tag_321\n      swap2\n      swap1\n      tag_219\n      jump\t// in\n    tag_321:\n        /* \"Smart-Contracts/PNJC_Airdrop.sol\":8336:8384  uint256 balance = TOKEN.balanceOf(address(this)) */\n      swap1\n      pop\n        /* \"Smart-Contracts/PNJC_Airdrop.sol\":8399:8410  balance > 0 */\n      dup1\n      iszero\n        /* \"Smart-Contracts/PNJC_Airdrop.sol\":8395:8574  if (balance > 0) {... */\n      tag_191\n      jumpi\n        /* \"Smart-Contracts/PNJC_Airdrop.sol\":8427:8466  TOKEN.safeTransfer(address(0), balance) */\n      tag_323\n      sub(shl(0xa0, 0x01), 0x01)\n        /* \"Smart-Contracts/PNJC_Airdrop.sol\":8427:8432  TOKEN */\n      immutable(\"0x70b9cfc048319b9ef377ccc5e2a0402a437e40c262f68ec2c4300041ea0be603\")\n        /* \"Smart-Contracts/PNJC_Airdrop.sol\":8427:8445  TOKEN.safeTransfer */\n      and\n        /* \"Smart-Contracts/PNJC_Airdrop.sol\":8454:8455  0 */\n      0x00\n        /* \"Smart-Contracts/PNJC_Airdrop.sol\":8458:8465  balance */\n      dup4\n        /* \"Smart-Contracts/PNJC_Airdrop.sol\":8427:8445  TOKEN.safeTransfer */\n      tag_187\n        /* \"Smart-Contracts/PNJC_Airdrop.sol\":8427:8466  TOKEN.safeTransfer(address(0), balance) */\n      jump\t// in\n    tag_323:\n        /* \"Smart-Contracts/PNJC_Airdrop.sol\":8481:8496  totalAutoBurned */\n      0x05\n        /* \"Smart-Contracts/PNJC_Airdrop.sol\":8481:8506  totalAutoBurned = balance */\n      dup2\n      swap1\n      sstore\n        /* \"Smart-Contracts/PNJC_Airdrop.sol\":8526:8562  AutoBurned(balance, block.timestamp) */\n      0x40\n      dup1\n      mload\n        /* \"#utility.yul\":4633:4658   */\n      dup3\n      dup2\n      mstore\n        /* \"Smart-Contracts/PNJC_Airdrop.sol\":8546:8561  block.timestamp */\n      timestamp\n        /* \"#utility.yul\":4689:4691   */\n      0x20\n        /* \"#utility.yul\":4674:4692   */\n      dup3\n      add\n        /* \"#utility.yul\":4667:4701   */\n      mstore\n        /* \"Smart-Contracts/PNJC_Airdrop.sol\":8526:8562  AutoBurned(balance, block.timestamp) */\n      0x1367a80f8266c25ef54f82fcc1e4a8eb1c658801b98e56646cb0da2a7398ac22\n      swap2\n        /* \"#utility.yul\":4606:4624   */\n      add\n        /* \"Smart-Contracts/PNJC_Airdrop.sol\":8526:8562  AutoBurned(balance, block.timestamp) */\n      mload(0x40)\n      dup1\n      swap2\n      sub\n      swap1\n      log1\n        /* \"Smart-Contracts/PNJC_Airdrop.sol\":8297:8581  {... */\n      pop\n        /* \"Smart-Contracts/PNJC_Airdrop.sol\":8261:8581  function _executeAutoBurn() private {... */\n      jump\t// out\n        /* \"Smart-Contracts/PNJC_Airdrop.sol\":9099:9637  function _getUnvestedAmount(Allocation memory alloc) private view returns (uint256 unvested_) {... */\n    tag_182:\n        /* \"Smart-Contracts/PNJC_Airdrop.sol\":9208:9225  alloc.totalAmount */\n      dup1\n      mload\n        /* \"Smart-Contracts/PNJC_Airdrop.sol\":9174:9191  uint256 unvested_ */\n      0x00\n      swap1\n        /* \"Smart-Contracts/PNJC_Airdrop.sol\":9208:9230  alloc.totalAmount == 0 */\n      iszero\n      dup1\n        /* \"Smart-Contracts/PNJC_Airdrop.sol\":9208:9246  alloc.totalAmount == 0 || alloc.burned */\n      tag_327\n      jumpi\n      pop\n        /* \"Smart-Contracts/PNJC_Airdrop.sol\":9234:9239  alloc */\n      dup2\n        /* \"Smart-Contracts/PNJC_Airdrop.sol\":9234:9246  alloc.burned */\n      0x60\n      add\n      mload\n        /* \"Smart-Contracts/PNJC_Airdrop.sol\":9208:9246  alloc.totalAmount == 0 || alloc.burned */\n    tag_327:\n        /* \"Smart-Contracts/PNJC_Airdrop.sol\":9204:9256  if (alloc.totalAmount == 0 || alloc.burned) return 0 */\n      iszero\n      tag_328\n      jumpi\n      pop\n        /* \"Smart-Contracts/PNJC_Airdrop.sol\":9255:9256  0 */\n      0x00\n      swap2\n        /* \"Smart-Contracts/PNJC_Airdrop.sol\":9099:9637  function _getUnvestedAmount(Allocation memory alloc) private view returns (uint256 unvested_) {... */\n      swap1\n      pop\n      jump\t// out\n        /* \"Smart-Contracts/PNJC_Airdrop.sol\":9204:9256  if (alloc.totalAmount == 0 || alloc.burned) return 0 */\n    tag_328:\n        /* \"Smart-Contracts/PNJC_Airdrop.sol\":9267:9289  uint256 totalAvailable */\n      0x00\n        /* \"Smart-Contracts/PNJC_Airdrop.sol\":9292:9329  _getTotalAvailable(alloc.totalAmount) */\n      tag_329\n        /* \"Smart-Contracts/PNJC_Airdrop.sol\":9311:9316  alloc */\n      dup4\n        /* \"Smart-Contracts/PNJC_Airdrop.sol\":9311:9328  alloc.totalAmount */\n      0x00\n      add\n      mload\n        /* \"Smart-Contracts/PNJC_Airdrop.sol\":9292:9310  _getTotalAvailable */\n      tag_278\n        /* \"Smart-Contracts/PNJC_Airdrop.sol\":9292:9329  _getTotalAvailable(alloc.totalAmount) */\n      jump\t// in\n    tag_329:\n        /* \"Smart-Contracts/PNJC_Airdrop.sol\":9352:9369  alloc.totalAmount */\n      dup4\n      mload\n        /* \"Smart-Contracts/PNJC_Airdrop.sol\":9267:9329  uint256 totalAvailable = _getTotalAvailable(alloc.totalAmount) */\n      swap1\n      swap2\n      pop\n        /* \"Smart-Contracts/PNJC_Airdrop.sol\":9352:9386  alloc.totalAmount - totalAvailable */\n      tag_330\n      swap1\n        /* \"Smart-Contracts/PNJC_Airdrop.sol\":9267:9329  uint256 totalAvailable = _getTotalAvailable(alloc.totalAmount) */\n      dup3\n      swap1\n        /* \"Smart-Contracts/PNJC_Airdrop.sol\":9352:9386  alloc.totalAmount - totalAvailable */\n      tag_165\n      jump\t// in\n    tag_330:\n        /* \"Smart-Contracts/PNJC_Airdrop.sol\":9340:9386  unvested_ = alloc.totalAmount - totalAvailable */\n      swap2\n      pop\n        /* \"Smart-Contracts/PNJC_Airdrop.sol\":9547:9552  alloc */\n      dup3\n        /* \"Smart-Contracts/PNJC_Airdrop.sol\":9547:9568  alloc.revocableAmount */\n      0x40\n      add\n      mload\n        /* \"Smart-Contracts/PNJC_Airdrop.sol\":9535:9544  unvested_ */\n      dup3\n        /* \"Smart-Contracts/PNJC_Airdrop.sol\":9535:9568  unvested_ > alloc.revocableAmount */\n      gt\n        /* \"Smart-Contracts/PNJC_Airdrop.sol\":9531:9630  if (unvested_ > alloc.revocableAmount) {... */\n      iszero\n      tag_331\n      jumpi\n        /* \"Smart-Contracts/PNJC_Airdrop.sol\":9597:9602  alloc */\n      dup3\n        /* \"Smart-Contracts/PNJC_Airdrop.sol\":9597:9618  alloc.revocableAmount */\n      0x40\n      add\n      mload\n        /* \"Smart-Contracts/PNJC_Airdrop.sol\":9585:9618  unvested_ = alloc.revocableAmount */\n      swap2\n      pop\n        /* \"Smart-Contracts/PNJC_Airdrop.sol\":9531:9630  if (unvested_ > alloc.revocableAmount) {... */\n    tag_331:\n        /* \"Smart-Contracts/PNJC_Airdrop.sol\":9193:9637  {... */\n      pop\n        /* \"Smart-Contracts/PNJC_Airdrop.sol\":9099:9637  function _getUnvestedAmount(Allocation memory alloc) private view returns (uint256 unvested_) {... */\n      swap2\n      swap1\n      pop\n      jump\t// out\n        /* \"@openzeppelin/contracts@5.6.0/token/ERC20/utils/SafeERC20.sol\":1219:1423  function safeTransfer(IERC20 token, address to, uint256 value) internal {... */\n    tag_187:\n        /* \"@openzeppelin/contracts@5.6.0/token/ERC20/utils/SafeERC20.sol\":1306:1343  _safeTransfer(token, to, value, true) */\n      tag_333\n        /* \"@openzeppelin/contracts@5.6.0/token/ERC20/utils/SafeERC20.sol\":1320:1325  token */\n      dup4\n        /* \"@openzeppelin/contracts@5.6.0/token/ERC20/utils/SafeERC20.sol\":1327:1329  to */\n      dup4\n        /* \"@openzeppelin/contracts@5.6.0/token/ERC20/utils/SafeERC20.sol\":1331:1336  value */\n      dup4\n        /* \"@openzeppelin/contracts@5.6.0/token/ERC20/utils/SafeERC20.sol\":1338:1342  true */\n      0x01\n        /* \"@openzeppelin/contracts@5.6.0/token/ERC20/utils/SafeERC20.sol\":1306:1319  _safeTransfer */\n      tag_334\n        /* \"@openzeppelin/contracts@5.6.0/token/ERC20/utils/SafeERC20.sol\":1306:1343  _safeTransfer(token, to, value, true) */\n      jump\t// in\n    tag_333:\n        /* \"@openzeppelin/contracts@5.6.0/token/ERC20/utils/SafeERC20.sol\":1301:1417  if (!_safeTransfer(token, to, value, true)) {... */\n      tag_335\n      jumpi\n        /* \"@openzeppelin/contracts@5.6.0/token/ERC20/utils/SafeERC20.sol\":1366:1406  SafeERC20FailedOperation(address(token)) */\n      mload(0x40)\n      shl(0xe0, 0x5274afe7)\n      dup2\n      mstore\n      sub(shl(0xa0, 0x01), 0x01)\n        /* \"#utility.yul\":972:1004   */\n      dup5\n      and\n        /* \"@openzeppelin/contracts@5.6.0/token/ERC20/utils/SafeERC20.sol\":1366:1406  SafeERC20FailedOperation(address(token)) */\n      0x04\n      dup3\n      add\n        /* \"#utility.yul\":954:1005   */\n      mstore\n        /* \"#utility.yul\":927:945   */\n      0x24\n      add\n        /* \"@openzeppelin/contracts@5.6.0/token/ERC20/utils/SafeERC20.sol\":1366:1406  SafeERC20FailedOperation(address(token)) */\n      tag_289\n        /* \"#utility.yul\":808:1011   */\n      jump\n        /* \"@openzeppelin/contracts@5.6.0/token/ERC20/utils/SafeERC20.sol\":1301:1417  if (!_safeTransfer(token, to, value, true)) {... */\n    tag_335:\n        /* \"@openzeppelin/contracts@5.6.0/token/ERC20/utils/SafeERC20.sol\":1219:1423  function safeTransfer(IERC20 token, address to, uint256 value) internal {... */\n      pop\n      pop\n      pop\n      jump\t// out\n        /* \"@openzeppelin/contracts@5.6.0/utils/Pausable.sol\":2586:2703  function _unpause() internal virtual whenPaused {... */\n    tag_197:\n        /* \"@openzeppelin/contracts@5.6.0/utils/Pausable.sol\":1597:1613  _requirePaused() */\n      tag_341\n        /* \"@openzeppelin/contracts@5.6.0/utils/Pausable.sol\":1597:1611  _requirePaused */\n      tag_342\n        /* \"@openzeppelin/contracts@5.6.0/utils/Pausable.sol\":1597:1613  _requirePaused() */\n      jump\t// in\n    tag_341:\n        /* \"@openzeppelin/contracts@5.6.0/utils/Pausable.sol\":2654:2659  false */\n      0x00\n        /* \"@openzeppelin/contracts@5.6.0/utils/Pausable.sol\":2644:2659  _paused = false */\n      dup1\n      sload\n      not(shl(0xa0, 0xff))\n      and\n      swap1\n      sstore\n        /* \"@openzeppelin/contracts@5.6.0/utils/Pausable.sol\":2674:2696  Unpaused(_msgSender()) */\n      0x5db9ee0a495bf2e6ff9c91a7834c1ba4fdd244a5e8aa4e537bd38aeae4b073aa\n        /* \"@openzeppelin/contracts@5.6.0/utils/Context.sol\":735:745  msg.sender */\n      caller\n        /* \"@openzeppelin/contracts@5.6.0/utils/Pausable.sol\":2683:2695  _msgSender() */\n    tag_344:\n        /* \"@openzeppelin/contracts@5.6.0/utils/Pausable.sol\":2674:2696  Unpaused(_msgSender()) */\n      mload(0x40)\n      sub(shl(0xa0, 0x01), 0x01)\n        /* \"#utility.yul\":972:1004   */\n      swap1\n      swap2\n      and\n        /* \"#utility.yul\":954:1005   */\n      dup2\n      mstore\n        /* \"#utility.yul\":942:944   */\n      0x20\n        /* \"#utility.yul\":927:945   */\n      add\n        /* \"@openzeppelin/contracts@5.6.0/utils/Pausable.sol\":2674:2696  Unpaused(_msgSender()) */\n      mload(0x40)\n      dup1\n      swap2\n      sub\n      swap1\n      log1\n        /* \"@openzeppelin/contracts@5.6.0/utils/Pausable.sol\":2586:2703  function _unpause() internal virtual whenPaused {... */\n      jump\t// out\n        /* \"@openzeppelin/contracts@5.6.0/utils/Pausable.sol\":1878:2006  function _requireNotPaused() internal view virtual {... */\n    tag_205:\n        /* \"@openzeppelin/contracts@5.6.0/utils/Pausable.sol\":1773:1777  bool */\n      0x00\n        /* \"@openzeppelin/contracts@5.6.0/utils/Pausable.sol\":1796:1803  _paused */\n      sload\n      shl(0xa0, 0x01)\n      swap1\n      div\n      0xff\n      and\n        /* \"@openzeppelin/contracts@5.6.0/utils/Pausable.sol\":1939:2000  if (paused()) {... */\n      iszero\n      tag_196\n      jumpi\n        /* \"@openzeppelin/contracts@5.6.0/utils/Pausable.sol\":1974:1989  EnforcedPause() */\n      mload(0x40)\n      shl(0xe0, 0xd93c0665)\n      dup2\n      mstore\n      0x04\n      add\n      mload(0x40)\n      dup1\n      swap2\n      sub\n      swap1\n      revert\n        /* \"@openzeppelin/contracts@5.6.0/access/Ownable.sol\":2912:3099  function _transferOwnership(address newOwner) internal virtual {... */\n    tag_230:\n        /* \"@openzeppelin/contracts@5.6.0/access/Ownable.sol\":2985:3001  address oldOwner */\n      0x00\n        /* \"@openzeppelin/contracts@5.6.0/access/Ownable.sol\":3004:3010  _owner */\n      dup1\n      sload\n      sub(shl(0xa0, 0x01), 0x01)\n        /* \"@openzeppelin/contracts@5.6.0/access/Ownable.sol\":3020:3037  _owner = newOwner */\n      dup4\n      dup2\n      and\n      not(sub(shl(0xa0, 0x01), 0x01))\n      dup4\n      and\n      dup2\n      or\n      dup5\n      sstore\n        /* \"@openzeppelin/contracts@5.6.0/access/Ownable.sol\":3052:3092  OwnershipTransferred(oldOwner, newOwner) */\n      mload(0x40)\n        /* \"@openzeppelin/contracts@5.6.0/access/Ownable.sol\":3004:3010  _owner */\n      swap2\n      swap1\n      swap3\n      and\n      swap3\n      dup4\n      swap2\n        /* \"@openzeppelin/contracts@5.6.0/access/Ownable.sol\":3052:3092  OwnershipTransferred(oldOwner, newOwner) */\n      0x8be0079c531659141344cd1fd0a4f28419497f9722a3daafe3b4186f6b6457e0\n      swap2\n        /* \"@openzeppelin/contracts@5.6.0/access/Ownable.sol\":2985:3001  address oldOwner */\n      swap1\n        /* \"@openzeppelin/contracts@5.6.0/access/Ownable.sol\":3052:3092  OwnershipTransferred(oldOwner, newOwner) */\n      log3\n        /* \"@openzeppelin/contracts@5.6.0/access/Ownable.sol\":2975:3099  {... */\n      pop\n        /* \"@openzeppelin/contracts@5.6.0/access/Ownable.sol\":2912:3099  function _transferOwnership(address newOwner) internal virtual {... */\n      pop\n      jump\t// out\n        /* \"@openzeppelin/contracts@5.6.0/utils/Pausable.sol\":2339:2454  function _pause() internal virtual whenNotPaused {... */\n    tag_255:\n        /* \"@openzeppelin/contracts@5.6.0/utils/Pausable.sol\":1350:1369  _requireNotPaused() */\n      tag_351\n        /* \"@openzeppelin/contracts@5.6.0/utils/Pausable.sol\":1350:1367  _requireNotPaused */\n      tag_205\n        /* \"@openzeppelin/contracts@5.6.0/utils/Pausable.sol\":1350:1369  _requireNotPaused() */\n      jump\t// in\n    tag_351:\n        /* \"@openzeppelin/contracts@5.6.0/utils/Pausable.sol\":2398:2405  _paused */\n      0x00\n        /* \"@openzeppelin/contracts@5.6.0/utils/Pausable.sol\":2398:2412  _paused = true */\n      dup1\n      sload\n      not(shl(0xa0, 0xff))\n      and\n      shl(0xa0, 0x01)\n      or\n      swap1\n      sstore\n        /* \"@openzeppelin/contracts@5.6.0/utils/Pausable.sol\":2427:2447  Paused(_msgSender()) */\n      0x62e78cea01bee320cd4e420270b5ea74000d11b0c9f74754ebdbfc544b05a258\n        /* \"@openzeppelin/contracts@5.6.0/utils/Pausable.sol\":2434:2446  _msgSender() */\n      tag_344\n        /* \"@openzeppelin/contracts@5.6.0/utils/Context.sol\":735:745  msg.sender */\n      caller\n      swap1\n        /* \"@openzeppelin/contracts@5.6.0/utils/Context.sol\":656:752  function _msgSender() internal view virtual returns (address) {... */\n      jump\n        /* \"Smart-Contracts/PNJC_Airdrop.sol\":8589:9091  function _getTotalAvailable(uint256 total_) private view returns (uint256 unlocked) {... */\n    tag_278:\n        /* \"Smart-Contracts/PNJC_Airdrop.sol\":8655:8671  uint256 unlocked */\n      0x00\n      dup1\n        /* \"Smart-Contracts/PNJC_Airdrop.sol\":860:866  10_000 */\n      0x2710\n        /* \"Smart-Contracts/PNJC_Airdrop.sol\":8699:8722  total_ * TGE_UNLOCK_BPS */\n      tag_356\n        /* \"Smart-Contracts/PNJC_Airdrop.sol\":8708:8722  TGE_UNLOCK_BPS */\n      immutable(\"0x4c18b7d4a0e4f2c46154995d106079228d62c5881d3d1d55517deac2d5774cd7\")\n        /* \"Smart-Contracts/PNJC_Airdrop.sol\":8699:8705  total_ */\n      dup6\n        /* \"Smart-Contracts/PNJC_Airdrop.sol\":8699:8722  total_ * TGE_UNLOCK_BPS */\n      tag_161\n      jump\t// in\n    tag_356:\n        /* \"Smart-Contracts/PNJC_Airdrop.sol\":8698:8742  (total_ * TGE_UNLOCK_BPS) / _BPS_DENOMINATOR */\n      tag_357\n      swap2\n      swap1\n      tag_163\n      jump\t// in\n    tag_357:\n        /* \"Smart-Contracts/PNJC_Airdrop.sol\":8684:8742  uint256 tge = (total_ * TGE_UNLOCK_BPS) / _BPS_DENOMINATOR */\n      swap1\n      pop\n        /* \"Smart-Contracts/PNJC_Airdrop.sol\":8753:8768  uint256 vesting */\n      0x00\n        /* \"Smart-Contracts/PNJC_Airdrop.sol\":8771:8783  total_ - tge */\n      tag_358\n        /* \"Smart-Contracts/PNJC_Airdrop.sol\":8684:8742  uint256 tge = (total_ * TGE_UNLOCK_BPS) / _BPS_DENOMINATOR */\n      dup3\n        /* \"Smart-Contracts/PNJC_Airdrop.sol\":8771:8777  total_ */\n      dup6\n        /* \"Smart-Contracts/PNJC_Airdrop.sol\":8771:8783  total_ - tge */\n      tag_165\n      jump\t// in\n    tag_358:\n        /* \"Smart-Contracts/PNJC_Airdrop.sol\":8753:8783  uint256 vesting = total_ - tge */\n      swap1\n      pop\n        /* \"Smart-Contracts/PNJC_Airdrop.sol\":8818:8831  VESTING_START */\n      immutable(\"0xbb5ea7e7fd20023ee5bc678e7950319e1d724c6725d249026c7d9c88c811f058\")\n        /* \"Smart-Contracts/PNJC_Airdrop.sol\":8800:8815  block.timestamp */\n      timestamp\n        /* \"Smart-Contracts/PNJC_Airdrop.sol\":8800:8831  block.timestamp < VESTING_START */\n      lt\n        /* \"Smart-Contracts/PNJC_Airdrop.sol\":8796:8843  if (block.timestamp < VESTING_START) return tge */\n      iszero\n      tag_359\n      jumpi\n      pop\n        /* \"Smart-Contracts/PNJC_Airdrop.sol\":8840:8843  tge */\n      swap3\n        /* \"Smart-Contracts/PNJC_Airdrop.sol\":8589:9091  function _getTotalAvailable(uint256 total_) private view returns (uint256 unlocked) {... */\n      swap2\n      pop\n      pop\n      jump\t// out\n        /* \"Smart-Contracts/PNJC_Airdrop.sol\":8796:8843  if (block.timestamp < VESTING_START) return tge */\n    tag_359:\n        /* \"Smart-Contracts/PNJC_Airdrop.sol\":8877:8888  AIRDROP_END */\n      immutable(\"0xc493552a1e855584e6833fef1d03bcac86bc3d70659cc3b6fbd1438fd337af90\")\n        /* \"Smart-Contracts/PNJC_Airdrop.sol\":8858:8873  block.timestamp */\n      timestamp\n        /* \"Smart-Contracts/PNJC_Airdrop.sol\":8858:8888  block.timestamp >= AIRDROP_END */\n      lt\n        /* \"Smart-Contracts/PNJC_Airdrop.sol\":8854:8903  if (block.timestamp >= AIRDROP_END) return total_ */\n      tag_360\n      jumpi\n      pop\n        /* \"Smart-Contracts/PNJC_Airdrop.sol\":8897:8903  total_ */\n      swap2\n      swap3\n        /* \"Smart-Contracts/PNJC_Airdrop.sol\":8589:9091  function _getTotalAvailable(uint256 total_) private view returns (uint256 unlocked) {... */\n      swap2\n      pop\n      pop\n      jump\t// out\n        /* \"Smart-Contracts/PNJC_Airdrop.sol\":8854:8903  if (block.timestamp >= AIRDROP_END) return total_ */\n    tag_360:\n        /* \"Smart-Contracts/PNJC_Airdrop.sol\":8916:8931  uint256 elapsed */\n      0x00\n        /* \"Smart-Contracts/PNJC_Airdrop.sol\":8934:8965  block.timestamp - VESTING_START */\n      tag_361\n        /* \"Smart-Contracts/PNJC_Airdrop.sol\":8952:8965  VESTING_START */\n      immutable(\"0xbb5ea7e7fd20023ee5bc678e7950319e1d724c6725d249026c7d9c88c811f058\")\n        /* \"Smart-Contracts/PNJC_Airdrop.sol\":8934:8949  block.timestamp */\n      timestamp\n        /* \"Smart-Contracts/PNJC_Airdrop.sol\":8934:8965  block.timestamp - VESTING_START */\n      tag_165\n      jump\t// in\n    tag_361:\n        /* \"Smart-Contracts/PNJC_Airdrop.sol\":8916:8965  uint256 elapsed = block.timestamp - VESTING_START */\n      swap1\n      pop\n        /* \"Smart-Contracts/PNJC_Airdrop.sol\":8976:8999  uint256 unlockedVesting */\n      0x00\n        /* \"Smart-Contracts/PNJC_Airdrop.sol\":916:923  6 weeks */\n      0x375f00\n        /* \"Smart-Contracts/PNJC_Airdrop.sol\":9003:9020  vesting * elapsed */\n      tag_362\n        /* \"Smart-Contracts/PNJC_Airdrop.sol\":8916:8965  uint256 elapsed = block.timestamp - VESTING_START */\n      dup4\n        /* \"Smart-Contracts/PNJC_Airdrop.sol\":9003:9010  vesting */\n      dup6\n        /* \"Smart-Contracts/PNJC_Airdrop.sol\":9003:9020  vesting * elapsed */\n      tag_161\n      jump\t// in\n    tag_362:\n        /* \"Smart-Contracts/PNJC_Airdrop.sol\":9002:9040  (vesting * elapsed) / AIRDROP_DURATION */\n      tag_363\n      swap2\n      swap1\n      tag_163\n      jump\t// in\n    tag_363:\n        /* \"Smart-Contracts/PNJC_Airdrop.sol\":8976:9040  uint256 unlockedVesting = (vesting * elapsed) / AIRDROP_DURATION */\n      swap1\n      pop\n        /* \"Smart-Contracts/PNJC_Airdrop.sol\":9062:9083  tge + unlockedVesting */\n      tag_364\n        /* \"Smart-Contracts/PNJC_Airdrop.sol\":8976:9040  uint256 unlockedVesting = (vesting * elapsed) / AIRDROP_DURATION */\n      dup2\n        /* \"Smart-Contracts/PNJC_Airdrop.sol\":9062:9065  tge */\n      dup6\n        /* \"Smart-Contracts/PNJC_Airdrop.sol\":9062:9083  tge + unlockedVesting */\n      tag_189\n      jump\t// in\n    tag_364:\n        /* \"Smart-Contracts/PNJC_Airdrop.sol\":9051:9083  unlocked = tge + unlockedVesting */\n      swap7\n        /* \"Smart-Contracts/PNJC_Airdrop.sol\":8589:9091  function _getTotalAvailable(uint256 total_) private view returns (uint256 unlocked) {... */\n      swap6\n      pop\n      pop\n      pop\n      pop\n      pop\n      pop\n      jump\t// out\n        /* \"@openzeppelin/contracts@5.6.0/utils/ReentrancyGuard.sol\":3586:3743  function _nonReentrantBeforeView() private view {... */\n    tag_312:\n      0x00\n      dup1\n      mload\n      0x20\n      data_c8669cf8eaf883002b9f48e28846a8d408c9b58ea6613bace374265e43c9bc43\n      dup4\n      codecopy\n      dup2\n      mload\n      swap2\n      mstore\n        /* \"@openzeppelin/contracts@5.6.0/utils/ReentrancyGuard.sol\":4560:4612  _reentrancyGuardStorageSlot().getUint256Slot().value */\n      sload\n        /* \"@openzeppelin/contracts@5.6.0/utils/ReentrancyGuard.sol\":2407:2408  2 */\n      0x02\n        /* \"@openzeppelin/contracts@5.6.0/utils/ReentrancyGuard.sol\":4560:4623  _reentrancyGuardStorageSlot().getUint256Slot().value == ENTERED */\n      sub\n        /* \"@openzeppelin/contracts@5.6.0/utils/ReentrancyGuard.sol\":3644:3737  if (_reentrancyGuardEntered()) {... */\n      tag_196\n      jumpi\n        /* \"@openzeppelin/contracts@5.6.0/utils/ReentrancyGuard.sol\":3696:3726  ReentrancyGuardReentrantCall() */\n      mload(0x40)\n      shl(0xe0, 0x3ee5aeb5)\n      dup2\n      mstore\n      0x04\n      add\n      mload(0x40)\n      dup1\n      swap2\n      sub\n      swap1\n      revert\n        /* \"@openzeppelin/contracts@5.6.0/token/ERC20/utils/SafeERC20.sol\":8373:9617  function _safeTransfer(IERC20 token, address to, uint256 value, bool bubble) private returns (bool success) {... */\n    tag_334:\n        /* \"@openzeppelin/contracts@5.6.0/token/ERC20/utils/SafeERC20.sol\":8600:8604  0x40 */\n      0x40\n        /* \"@openzeppelin/contracts@5.6.0/token/ERC20/utils/SafeERC20.sol\":8594:8605  mload(0x40) */\n      mload\n      shl(0xe0, 0xa9059cbb)\n        /* \"@openzeppelin/contracts@5.6.0/token/ERC20/utils/SafeERC20.sol\":8467:8479  bool success */\n      0x00\n        /* \"@openzeppelin/contracts@5.6.0/token/ERC20/utils/SafeERC20.sol\":8618:8640  mstore(0x00, selector) */\n      dup2\n      dup2\n      mstore\n      sub(shl(0xa0, 0x01), 0x01)\n        /* \"@openzeppelin/contracts@5.6.0/token/ERC20/utils/SafeERC20.sol\":8666:8690  and(to, shr(96, not(0))) */\n      dup7\n      and\n        /* \"@openzeppelin/contracts@5.6.0/token/ERC20/utils/SafeERC20.sol\":8660:8664  0x04 */\n      0x04\n        /* \"@openzeppelin/contracts@5.6.0/token/ERC20/utils/SafeERC20.sol\":8653:8691  mstore(0x04, and(to, shr(96, not(0)))) */\n      mstore\n        /* \"@openzeppelin/contracts@5.6.0/token/ERC20/utils/SafeERC20.sol\":8711:8715  0x24 */\n      0x24\n        /* \"@openzeppelin/contracts@5.6.0/token/ERC20/utils/SafeERC20.sol\":8704:8723  mstore(0x24, value) */\n      dup6\n      swap1\n      mstore\n        /* \"@openzeppelin/contracts@5.6.0/token/ERC20/utils/SafeERC20.sol\":8467:8479  bool success */\n      swap2\n        /* \"@openzeppelin/contracts@5.6.0/token/ERC20/utils/SafeERC20.sol\":8787:8791  0x20 */\n      0x20\n        /* \"@openzeppelin/contracts@5.6.0/token/ERC20/utils/SafeERC20.sol\":8467:8479  bool success */\n      dup4\n        /* \"@openzeppelin/contracts@5.6.0/token/ERC20/utils/SafeERC20.sol\":8775:8779  0x44 */\n      0x44\n        /* \"@openzeppelin/contracts@5.6.0/token/ERC20/utils/SafeERC20.sol\":8467:8479  bool success */\n      dup2\n      dup1\n        /* \"@openzeppelin/contracts@5.6.0/token/ERC20/utils/SafeERC20.sol\":8759:8764  token */\n      dup12\n        /* \"@openzeppelin/contracts@5.6.0/token/ERC20/utils/SafeERC20.sol\":8752:8757  gas() */\n      gas\n        /* \"@openzeppelin/contracts@5.6.0/token/ERC20/utils/SafeERC20.sol\":8747:8792  call(gas(), token, 0, 0x00, 0x44, 0x00, 0x20) */\n      call\n        /* \"@openzeppelin/contracts@5.6.0/token/ERC20/utils/SafeERC20.sol\":8736:8792  success := call(gas(), token, 0, 0x00, 0x44, 0x00, 0x20) */\n      swap3\n      pop\n        /* \"@openzeppelin/contracts@5.6.0/token/ERC20/utils/SafeERC20.sol\":9004:9005  1 */\n      0x01\n        /* \"@openzeppelin/contracts@5.6.0/token/ERC20/utils/SafeERC20.sol\":8997:9001  0x00 */\n      0x00\n        /* \"@openzeppelin/contracts@5.6.0/token/ERC20/utils/SafeERC20.sol\":8991:9002  mload(0x00) */\n      mload\n        /* \"@openzeppelin/contracts@5.6.0/token/ERC20/utils/SafeERC20.sol\":8988:9006  eq(mload(0x00), 1) */\n      eq\n        /* \"@openzeppelin/contracts@5.6.0/token/ERC20/utils/SafeERC20.sol\":8979:8986  success */\n      dup4\n        /* \"@openzeppelin/contracts@5.6.0/token/ERC20/utils/SafeERC20.sol\":8975:9007  and(success, eq(mload(0x00), 1)) */\n      and\n        /* \"@openzeppelin/contracts@5.6.0/token/ERC20/utils/SafeERC20.sol\":8965:9571  if iszero(and(success, eq(mload(0x00), 1))) {... */\n      tag_373\n      jumpi\n        /* \"@openzeppelin/contracts@5.6.0/token/ERC20/utils/SafeERC20.sol\":9136:9142  bubble */\n      dup4\n        /* \"@openzeppelin/contracts@5.6.0/token/ERC20/utils/SafeERC20.sol\":9126:9133  success */\n      dup4\n        /* \"@openzeppelin/contracts@5.6.0/token/ERC20/utils/SafeERC20.sol\":9119:9134  iszero(success) */\n      iszero\n        /* \"@openzeppelin/contracts@5.6.0/token/ERC20/utils/SafeERC20.sol\":9115:9143  and(iszero(success), bubble) */\n      and\n        /* \"@openzeppelin/contracts@5.6.0/token/ERC20/utils/SafeERC20.sol\":9112:9277  if and(iszero(success), bubble) {... */\n      iszero\n      tag_374\n      jumpi\n        /* \"@openzeppelin/contracts@5.6.0/token/ERC20/utils/SafeERC20.sol\":9192:9208  returndatasize() */\n      returndatasize\n        /* \"@openzeppelin/contracts@5.6.0/token/ERC20/utils/SafeERC20.sol\":9186:9190  0x00 */\n      0x00\n        /* \"@openzeppelin/contracts@5.6.0/token/ERC20/utils/SafeERC20.sol\":9181:9184  fmp */\n      dup3\n        /* \"@openzeppelin/contracts@5.6.0/token/ERC20/utils/SafeERC20.sol\":9166:9209  returndatacopy(fmp, 0x00, returndatasize()) */\n      returndatacopy\n        /* \"@openzeppelin/contracts@5.6.0/token/ERC20/utils/SafeERC20.sol\":9242:9258  returndatasize() */\n      returndatasize\n        /* \"@openzeppelin/contracts@5.6.0/token/ERC20/utils/SafeERC20.sol\":9237:9240  fmp */\n      dup2\n        /* \"@openzeppelin/contracts@5.6.0/token/ERC20/utils/SafeERC20.sol\":9230:9259  revert(fmp, returndatasize()) */\n      revert\n        /* \"@openzeppelin/contracts@5.6.0/token/ERC20/utils/SafeERC20.sol\":9112:9277  if and(iszero(success), bubble) {... */\n    tag_374:\n        /* \"@openzeppelin/contracts@5.6.0/token/ERC20/utils/SafeERC20.sol\":9553:9554  0 */\n      0x00\n        /* \"@openzeppelin/contracts@5.6.0/token/ERC20/utils/SafeERC20.sol\":9545:9550  token */\n      dup8\n        /* \"@openzeppelin/contracts@5.6.0/token/ERC20/utils/SafeERC20.sol\":9533:9551  extcodesize(token) */\n      extcodesize\n        /* \"@openzeppelin/contracts@5.6.0/token/ERC20/utils/SafeERC20.sol\":9530:9555  gt(extcodesize(token), 0) */\n      gt\n        /* \"@openzeppelin/contracts@5.6.0/token/ERC20/utils/SafeERC20.sol\":9511:9527  returndatasize() */\n      returndatasize\n        /* \"@openzeppelin/contracts@5.6.0/token/ERC20/utils/SafeERC20.sol\":9504:9528  iszero(returndatasize()) */\n      iszero\n        /* \"@openzeppelin/contracts@5.6.0/token/ERC20/utils/SafeERC20.sol\":9500:9556  and(iszero(returndatasize()), gt(extcodesize(token), 0)) */\n      and\n        /* \"@openzeppelin/contracts@5.6.0/token/ERC20/utils/SafeERC20.sol\":9491:9498  success */\n      dup4\n        /* \"@openzeppelin/contracts@5.6.0/token/ERC20/utils/SafeERC20.sol\":9487:9557  and(success, and(iszero(returndatasize()), gt(extcodesize(token), 0))) */\n      and\n        /* \"@openzeppelin/contracts@5.6.0/token/ERC20/utils/SafeERC20.sol\":9476:9557  success := and(success, and(iszero(returndatasize()), gt(extcodesize(token), 0))) */\n      swap3\n      pop\n        /* \"@openzeppelin/contracts@5.6.0/token/ERC20/utils/SafeERC20.sol\":8965:9571  if iszero(and(success, eq(mload(0x00), 1))) {... */\n    tag_373:\n        /* \"@openzeppelin/contracts@5.6.0/token/ERC20/utils/SafeERC20.sol\":9591:9595  0x40 */\n      0x40\n        /* \"@openzeppelin/contracts@5.6.0/token/ERC20/utils/SafeERC20.sol\":9584:9601  mstore(0x40, fmp) */\n      mstore\n      pop\n        /* \"@openzeppelin/contracts@5.6.0/token/ERC20/utils/SafeERC20.sol\":8373:9617  function _safeTransfer(IERC20 token, address to, uint256 value, bool bubble) private returns (bool success) {... */\n      swap5\n      swap4\n      pop\n      pop\n      pop\n      pop\n      jump\t// out\n        /* \"@openzeppelin/contracts@5.6.0/utils/Pausable.sol\":2078:2204  function _requirePaused() internal view virtual {... */\n    tag_342:\n        /* \"@openzeppelin/contracts@5.6.0/utils/Pausable.sol\":1773:1777  bool */\n      0x00\n        /* \"@openzeppelin/contracts@5.6.0/utils/Pausable.sol\":1796:1803  _paused */\n      sload\n      shl(0xa0, 0x01)\n      swap1\n      div\n      0xff\n      and\n        /* \"@openzeppelin/contracts@5.6.0/utils/Pausable.sol\":2136:2198  if (!paused()) {... */\n      tag_196\n      jumpi\n        /* \"@openzeppelin/contracts@5.6.0/utils/Pausable.sol\":2172:2187  ExpectedPause() */\n      mload(0x40)\n      shl(0xe0, 0x8dfc202b)\n      dup2\n      mstore\n      0x04\n      add\n      mload(0x40)\n      dup1\n      swap2\n      sub\n      swap1\n      revert\n        /* \"#utility.yul\":420:551   */\n    tag_381:\n      sub(shl(0xa0, 0x01), 0x01)\n        /* \"#utility.yul\":495:526   */\n      dup2\n      and\n        /* \"#utility.yul\":485:527   */\n      dup2\n      eq\n        /* \"#utility.yul\":475:545   */\n      tag_191\n      jumpi\n        /* \"#utility.yul\":541:542   */\n      0x00\n        /* \"#utility.yul\":538:539   */\n      dup1\n        /* \"#utility.yul\":531:543   */\n      revert\n        /* \"#utility.yul\":556:803   */\n    tag_46:\n        /* \"#utility.yul\":615:621   */\n      0x00\n        /* \"#utility.yul\":668:670   */\n      0x20\n        /* \"#utility.yul\":656:665   */\n      dup3\n        /* \"#utility.yul\":647:654   */\n      dup5\n        /* \"#utility.yul\":643:666   */\n      sub\n        /* \"#utility.yul\":639:671   */\n      slt\n        /* \"#utility.yul\":636:688   */\n      iszero\n      tag_389\n      jumpi\n        /* \"#utility.yul\":684:685   */\n      0x00\n        /* \"#utility.yul\":681:682   */\n      dup1\n        /* \"#utility.yul\":674:686   */\n      revert\n        /* \"#utility.yul\":636:688   */\n    tag_389:\n        /* \"#utility.yul\":723:732   */\n      dup2\n        /* \"#utility.yul\":710:733   */\n      calldataload\n        /* \"#utility.yul\":742:773   */\n      tag_390\n        /* \"#utility.yul\":767:772   */\n      dup2\n        /* \"#utility.yul\":742:773   */\n      tag_381\n      jump\t// in\n    tag_390:\n        /* \"#utility.yul\":792:797   */\n      swap4\n        /* \"#utility.yul\":556:803   */\n      swap3\n      pop\n      pop\n      pop\n      jump\t// out\n        /* \"#utility.yul\":1198:1565   */\n    tag_382:\n        /* \"#utility.yul\":1261:1269   */\n      0x00\n        /* \"#utility.yul\":1271:1277   */\n      dup1\n        /* \"#utility.yul\":1325:1328   */\n      dup4\n        /* \"#utility.yul\":1318:1322   */\n      0x1f\n        /* \"#utility.yul\":1310:1316   */\n      dup5\n        /* \"#utility.yul\":1306:1323   */\n      add\n        /* \"#utility.yul\":1302:1329   */\n      slt\n        /* \"#utility.yul\":1292:1347   */\n      tag_394\n      jumpi\n        /* \"#utility.yul\":1343:1344   */\n      0x00\n        /* \"#utility.yul\":1340:1341   */\n      dup1\n        /* \"#utility.yul\":1333:1345   */\n      revert\n        /* \"#utility.yul\":1292:1347   */\n    tag_394:\n      pop\n        /* \"#utility.yul\":1366:1386   */\n      dup2\n      calldataload\n        /* \"#utility.yul\":1409:1427   */\n      0xffffffffffffffff\n        /* \"#utility.yul\":1398:1428   */\n      dup2\n      gt\n        /* \"#utility.yul\":1395:1445   */\n      iszero\n      tag_395\n      jumpi\n        /* \"#utility.yul\":1441:1442   */\n      0x00\n        /* \"#utility.yul\":1438:1439   */\n      dup1\n        /* \"#utility.yul\":1431:1443   */\n      revert\n        /* \"#utility.yul\":1395:1445   */\n    tag_395:\n        /* \"#utility.yul\":1478:1482   */\n      0x20\n        /* \"#utility.yul\":1470:1476   */\n      dup4\n        /* \"#utility.yul\":1466:1483   */\n      add\n        /* \"#utility.yul\":1454:1483   */\n      swap2\n      pop\n        /* \"#utility.yul\":1538:1541   */\n      dup4\n        /* \"#utility.yul\":1531:1535   */\n      0x20\n        /* \"#utility.yul\":1521:1527   */\n      dup3\n        /* \"#utility.yul\":1518:1519   */\n      0x05\n        /* \"#utility.yul\":1514:1528   */\n      shl\n        /* \"#utility.yul\":1506:1512   */\n      dup6\n        /* \"#utility.yul\":1502:1529   */\n      add\n        /* \"#utility.yul\":1498:1536   */\n      add\n        /* \"#utility.yul\":1495:1542   */\n      gt\n        /* \"#utility.yul\":1492:1559   */\n      iszero\n      tag_396\n      jumpi\n        /* \"#utility.yul\":1555:1556   */\n      0x00\n        /* \"#utility.yul\":1552:1553   */\n      dup1\n        /* \"#utility.yul\":1545:1557   */\n      revert\n        /* \"#utility.yul\":1492:1559   */\n    tag_396:\n        /* \"#utility.yul\":1198:1565   */\n      swap3\n      pop\n      swap3\n      swap1\n      pop\n      jump\t// out\n        /* \"#utility.yul\":1570:2343   */\n    tag_58:\n        /* \"#utility.yul\":1692:1698   */\n      0x00\n        /* \"#utility.yul\":1700:1706   */\n      dup1\n        /* \"#utility.yul\":1708:1714   */\n      0x00\n        /* \"#utility.yul\":1716:1722   */\n      dup1\n        /* \"#utility.yul\":1769:1771   */\n      0x40\n        /* \"#utility.yul\":1757:1766   */\n      dup6\n        /* \"#utility.yul\":1748:1755   */\n      dup8\n        /* \"#utility.yul\":1744:1767   */\n      sub\n        /* \"#utility.yul\":1740:1772   */\n      slt\n        /* \"#utility.yul\":1737:1789   */\n      iszero\n      tag_398\n      jumpi\n        /* \"#utility.yul\":1785:1786   */\n      0x00\n        /* \"#utility.yul\":1782:1783   */\n      dup1\n        /* \"#utility.yul\":1775:1787   */\n      revert\n        /* \"#utility.yul\":1737:1789   */\n    tag_398:\n        /* \"#utility.yul\":1825:1834   */\n      dup5\n        /* \"#utility.yul\":1812:1835   */\n      calldataload\n        /* \"#utility.yul\":1854:1872   */\n      0xffffffffffffffff\n        /* \"#utility.yul\":1895:1897   */\n      dup1\n        /* \"#utility.yul\":1887:1893   */\n      dup3\n        /* \"#utility.yul\":1884:1898   */\n      gt\n        /* \"#utility.yul\":1881:1915   */\n      iszero\n      tag_399\n      jumpi\n        /* \"#utility.yul\":1911:1912   */\n      0x00\n        /* \"#utility.yul\":1908:1909   */\n      dup1\n        /* \"#utility.yul\":1901:1913   */\n      revert\n        /* \"#utility.yul\":1881:1915   */\n    tag_399:\n        /* \"#utility.yul\":1950:2020   */\n      tag_400\n        /* \"#utility.yul\":2012:2019   */\n      dup9\n        /* \"#utility.yul\":2003:2009   */\n      dup4\n        /* \"#utility.yul\":1992:2001   */\n      dup10\n        /* \"#utility.yul\":1988:2010   */\n      add\n        /* \"#utility.yul\":1950:2020   */\n      tag_382\n      jump\t// in\n    tag_400:\n        /* \"#utility.yul\":2039:2047   */\n      swap1\n      swap7\n      pop\n        /* \"#utility.yul\":1924:2020   */\n      swap5\n      pop\n        /* \"#utility.yul\":2127:2129   */\n      0x20\n        /* \"#utility.yul\":2112:2130   */\n      dup8\n      add\n        /* \"#utility.yul\":2099:2131   */\n      calldataload\n      swap2\n      pop\n        /* \"#utility.yul\":2143:2159   */\n      dup1\n      dup3\n      gt\n        /* \"#utility.yul\":2140:2176   */\n      iszero\n      tag_401\n      jumpi\n        /* \"#utility.yul\":2172:2173   */\n      0x00\n        /* \"#utility.yul\":2169:2170   */\n      dup1\n        /* \"#utility.yul\":2162:2174   */\n      revert\n        /* \"#utility.yul\":2140:2176   */\n    tag_401:\n      pop\n        /* \"#utility.yul\":2211:2283   */\n      tag_402\n        /* \"#utility.yul\":2275:2282   */\n      dup8\n        /* \"#utility.yul\":2264:2272   */\n      dup3\n        /* \"#utility.yul\":2253:2262   */\n      dup9\n        /* \"#utility.yul\":2249:2273   */\n      add\n        /* \"#utility.yul\":2211:2283   */\n      tag_382\n      jump\t// in\n    tag_402:\n        /* \"#utility.yul\":1570:2343   */\n      swap6\n      swap9\n      swap5\n      swap8\n      pop\n        /* \"#utility.yul\":2302:2310   */\n      swap6\n      pop\n      pop\n      pop\n      pop\n        /* \"#utility.yul\":1570:2343   */\n      jump\t// out\n        /* \"#utility.yul\":2540:2855   */\n    tag_86:\n        /* \"#utility.yul\":2608:2614   */\n      0x00\n        /* \"#utility.yul\":2616:2622   */\n      dup1\n        /* \"#utility.yul\":2669:2671   */\n      0x40\n        /* \"#utility.yul\":2657:2666   */\n      dup4\n        /* \"#utility.yul\":2648:2655   */\n      dup6\n        /* \"#utility.yul\":2644:2667   */\n      sub\n        /* \"#utility.yul\":2640:2672   */\n      slt\n        /* \"#utility.yul\":2637:2689   */\n      iszero\n      tag_405\n      jumpi\n        /* \"#utility.yul\":2685:2686   */\n      0x00\n        /* \"#utility.yul\":2682:2683   */\n      dup1\n        /* \"#utility.yul\":2675:2687   */\n      revert\n        /* \"#utility.yul\":2637:2689   */\n    tag_405:\n        /* \"#utility.yul\":2724:2733   */\n      dup3\n        /* \"#utility.yul\":2711:2734   */\n      calldataload\n        /* \"#utility.yul\":2743:2774   */\n      tag_406\n        /* \"#utility.yul\":2768:2773   */\n      dup2\n        /* \"#utility.yul\":2743:2774   */\n      tag_381\n      jump\t// in\n    tag_406:\n        /* \"#utility.yul\":2793:2798   */\n      swap5\n        /* \"#utility.yul\":2845:2847   */\n      0x20\n        /* \"#utility.yul\":2830:2848   */\n      swap4\n      swap1\n      swap4\n      add\n        /* \"#utility.yul\":2817:2849   */\n      calldataload\n      swap4\n      pop\n      pop\n      pop\n        /* \"#utility.yul\":2540:2855   */\n      jump\t// out\n        /* \"#utility.yul\":3348:3475   */\n    tag_152:\n        /* \"#utility.yul\":3409:3419   */\n      0x4e487b71\n        /* \"#utility.yul\":3404:3407   */\n      0xe0\n        /* \"#utility.yul\":3400:3420   */\n      shl\n        /* \"#utility.yul\":3397:3398   */\n      0x00\n        /* \"#utility.yul\":3390:3421   */\n      mstore\n        /* \"#utility.yul\":3440:3444   */\n      0x32\n        /* \"#utility.yul\":3437:3438   */\n      0x04\n        /* \"#utility.yul\":3430:3445   */\n      mstore\n        /* \"#utility.yul\":3464:3468   */\n      0x24\n        /* \"#utility.yul\":3461:3462   */\n      0x00\n        /* \"#utility.yul\":3454:3469   */\n      revert\n        /* \"#utility.yul\":3480:3607   */\n    tag_383:\n        /* \"#utility.yul\":3541:3551   */\n      0x4e487b71\n        /* \"#utility.yul\":3536:3539   */\n      0xe0\n        /* \"#utility.yul\":3532:3552   */\n      shl\n        /* \"#utility.yul\":3529:3530   */\n      0x00\n        /* \"#utility.yul\":3522:3553   */\n      mstore\n        /* \"#utility.yul\":3572:3576   */\n      0x11\n        /* \"#utility.yul\":3569:3570   */\n      0x04\n        /* \"#utility.yul\":3562:3577   */\n      mstore\n        /* \"#utility.yul\":3596:3600   */\n      0x24\n        /* \"#utility.yul\":3593:3594   */\n      0x00\n        /* \"#utility.yul\":3586:3601   */\n      revert\n        /* \"#utility.yul\":3612:3780   */\n    tag_161:\n        /* \"#utility.yul\":3685:3694   */\n      dup1\n      dup3\n      mul\n        /* \"#utility.yul\":3716:3725   */\n      dup2\n      iszero\n        /* \"#utility.yul\":3733:3748   */\n      dup3\n      dup3\n      div\n        /* \"#utility.yul\":3727:3749   */\n      dup5\n      eq\n        /* \"#utility.yul\":3713:3750   */\n      or\n        /* \"#utility.yul\":3703:3774   */\n      tag_415\n      jumpi\n        /* \"#utility.yul\":3754:3772   */\n      tag_415\n      tag_383\n      jump\t// in\n    tag_415:\n        /* \"#utility.yul\":3612:3780   */\n      swap3\n      swap2\n      pop\n      pop\n      jump\t// out\n        /* \"#utility.yul\":3785:4002   */\n    tag_163:\n        /* \"#utility.yul\":3825:3826   */\n      0x00\n        /* \"#utility.yul\":3851:3852   */\n      dup3\n        /* \"#utility.yul\":3841:3973   */\n      tag_417\n      jumpi\n        /* \"#utility.yul\":3895:3905   */\n      0x4e487b71\n        /* \"#utility.yul\":3890:3893   */\n      0xe0\n        /* \"#utility.yul\":3886:3906   */\n      shl\n        /* \"#utility.yul\":3883:3884   */\n      0x00\n        /* \"#utility.yul\":3876:3907   */\n      mstore\n        /* \"#utility.yul\":3930:3934   */\n      0x12\n        /* \"#utility.yul\":3927:3928   */\n      0x04\n        /* \"#utility.yul\":3920:3935   */\n      mstore\n        /* \"#utility.yul\":3958:3962   */\n      0x24\n        /* \"#utility.yul\":3955:3956   */\n      0x00\n        /* \"#utility.yul\":3948:3963   */\n      revert\n        /* \"#utility.yul\":3841:3973   */\n    tag_417:\n      pop\n        /* \"#utility.yul\":3987:3996   */\n      div\n      swap1\n        /* \"#utility.yul\":3785:4002   */\n      jump\t// out\n        /* \"#utility.yul\":4007:4135   */\n    tag_165:\n        /* \"#utility.yul\":4074:4083   */\n      dup2\n      dup2\n      sub\n        /* \"#utility.yul\":4095:4106   */\n      dup2\n      dup2\n      gt\n        /* \"#utility.yul\":4092:4129   */\n      iszero\n      tag_415\n      jumpi\n        /* \"#utility.yul\":4109:4127   */\n      tag_415\n      tag_383\n      jump\t// in\n        /* \"#utility.yul\":4140:4265   */\n    tag_189:\n        /* \"#utility.yul\":4205:4214   */\n      dup1\n      dup3\n      add\n        /* \"#utility.yul\":4226:4236   */\n      dup1\n      dup3\n      gt\n        /* \"#utility.yul\":4223:4259   */\n      iszero\n      tag_415\n      jumpi\n        /* \"#utility.yul\":4239:4257   */\n      tag_415\n      tag_383\n      jump\t// in\n        /* \"#utility.yul\":4270:4454   */\n    tag_219:\n        /* \"#utility.yul\":4340:4346   */\n      0x00\n        /* \"#utility.yul\":4393:4395   */\n      0x20\n        /* \"#utility.yul\":4381:4390   */\n      dup3\n        /* \"#utility.yul\":4372:4379   */\n      dup5\n        /* \"#utility.yul\":4368:4391   */\n      sub\n        /* \"#utility.yul\":4364:4396   */\n      slt\n        /* \"#utility.yul\":4361:4413   */\n      iszero\n      tag_425\n      jumpi\n        /* \"#utility.yul\":4409:4410   */\n      0x00\n        /* \"#utility.yul\":4406:4407   */\n      dup1\n        /* \"#utility.yul\":4399:4411   */\n      revert\n        /* \"#utility.yul\":4361:4413   */\n    tag_425:\n      pop\n        /* \"#utility.yul\":4432:4448   */\n      mload\n      swap2\n        /* \"#utility.yul\":4270:4454   */\n      swap1\n      pop\n      jump\t// out\n    stop\n    data_c8669cf8eaf883002b9f48e28846a8d408c9b58ea6613bace374265e43c9bc43 9b779b17422d0df92223018b32b4d1fa46e071723d6817e2486d003becc55f00\n\n    auxdata: 0xa2646970667358221220ad9ff3cf70bb4a3616fd6236da8518473ff043b953958b0d57fb4fc76ed5427064736f6c63430008180033\n}\n",
				"bytecode": {
					"linkReferences": {},
					"object": "61010060405234801562000011575f80fd5b5060405162001a9b38038062001a9b833981016040819052620000349162000158565b33806200005a57604051631e4fbdf760e01b81525f600482015260240160405180910390fd5b620000658162000109565b5060017f9b779b17422d0df92223018b32b4d1fa46e071723d6817e2486d003becc55f00556001600160a01b038316620000b2576040516342bcdf7f60e11b815260040160405180910390fd5b612710811115620000d657604051633869b3b360e11b815260040160405180910390fd5b6001600160a01b03831660805260a082905260c0819052620000fc62375f008362000199565b60e05250620001bf915050565b5f80546001600160a01b038381166001600160a01b0319831681178455604051919092169283917f8be0079c531659141344cd1fd0a4f28419497f9722a3daafe3b4186f6b6457e09190a35050565b5f805f606084860312156200016b575f80fd5b83516001600160a01b038116811462000182575f80fd5b602085015160409095015190969495509392505050565b80820180821115620001b957634e487b7160e01b5f52601160045260245ffd5b92915050565b60805160a05160c05160e0516118316200026a5f395f8181610421015281816107700152818161098d01528181610b9201528181610d8a01526114e801525f81816103d701528181610673015261147901525f81816103b0015281816114b9015261151b01525f81816103300152818161088e01528181610a3801528181610afc01528181610cd101528181610e8001528181611032015281816111eb015261126901526118315ff3fe608060405234801561000f575f80fd5b50600436106101d1575f3560e01c806382bfefc8116100fe578063af38d7571161009e578063d950975a1161006e578063d950975a14610401578063f2fde38b14610409578063f30f40a81461041c578063f934439514610443575f80fd5b8063af38d757146103a3578063cfd11c4f146103ab578063d2b8abb8146103d2578063d89135cd146103f9575f80fd5b80638da5cb5b116100d95780638da5cb5b1461036e5780638ed6b0161461037e5780638fd3ab8014610392578063a35061b91461039a575f80fd5b806382bfefc81461032b5780638456cb59146103525780638d4e40831461035a575f80fd5b80633b0da260116101745780635447c35c116101445780635447c35c146102e25780635c975abb146102ff578063715018a6146103105780637216bafc14610318575f80fd5b80633b0da260146102b75780633f4ba83a146102ca5780634bb278f3146102d25780634e71d92d146102da575f80fd5b806317fd045f116101af57806317fd045f1461027b5780631ff64acd146102935780632d57a680146102a6578063362f04c0146102af575f80fd5b80630c9e1e8e146101d55780630fc2fd4c1461023b5780630fee1a2014610250575b5f80fd5b335f90815260016020818152604092839020835160808082018652825480835294830154828501819052600284015483880181905260039094015460ff161515606093840181905287519687529486015294840191909152820152015b60405180910390f35b61024e61024936600461163f565b610456565b005b600654610263906001600160a01b031681565b6040516001600160a01b039091168152602001610232565b61028562375f0081565b604051908152602001610232565b61024e6102a13660046116a9565b61053f565b61028560055481565b600254610285565b61024e6102c536600461163f565b61075e565b61024e610924565b61024e610936565b61024e61097b565b6003546102ef9060ff1681565b6040519015158152602001610232565b5f54600160a01b900460ff166102ef565b61024e610b6f565b61024e610326366004611710565b610b80565b6102637f000000000000000000000000000000000000000000000000000000000000000081565b61024e610d68565b6006546102ef90600160a81b900460ff1681565b5f546001600160a01b0316610263565b6006546102ef90600160a01b900460ff1681565b61024e610d78565b61028560045481565b610285610ef6565b6102857f000000000000000000000000000000000000000000000000000000000000000081565b6102857f000000000000000000000000000000000000000000000000000000000000000081565b610285610f85565b610285610f9b565b61024e61041736600461163f565b610fe9565b6102857f000000000000000000000000000000000000000000000000000000000000000081565b61024e61045136600461163f565b611028565b61045e611178565b600654600160a81b900460ff161561048957604051634e35638160e11b815260040160405180910390fd5b600654600160a01b900460ff16156104b4576040516307f88b3360e21b815260040160405180910390fd5b6001600160a01b03811615806104d257506001600160a01b03811630145b156104f0576040516342bcdf7f60e11b815260040160405180910390fd5b600680546001600160a81b0319166001600160a01b038316908117600160a01b179091556040517f92b5eb20e7f70b6b205924d72c26c45f05a063424792be21a87858495cd80297905f90a250565b610547611178565b828181146105685760405163512509d360e11b815260040160405180910390fd5b5f5b81811015610756575f8686838181106105855761058561173a565b905060200201602081019061059a919061163f565b90505f8585848181106105af576105af61173a565b60200291909101359150506001600160a01b0382166105e1576040516342bcdf7f60e11b815260040160405180910390fd5b805f0361060157604051631f2a200560e01b815260040160405180910390fd5b6001600160a01b0382165f90815260016020526040812054900361066a57600280546001810182555f919091527f405787fa12a823e0f2b7631cc41b3ba8828b3321ca811111fa75cd3aa3bb5ace0180546001600160a01b0319166001600160a01b0384161790555b5f6127106106987f000000000000000000000000000000000000000000000000000000000000000084611762565b6106a2919061177f565b90505f6106af828461179e565b604080516080810182528581525f6020808301828152838501868152606085018481526001600160a01b038c168086526001808652958890209651875592519486019490945551600285015591516003909301805460ff191693151593909317909255915186815292935090917fedfc909d0ab2a1625b7911d925efbd8200cdd99d4c7ba44e720328b17879f0b3910160405180910390a28460010194505050505061056a565b505050505050565b610766611178565b61076e6111a4565b7f000000000000000000000000000000000000000000000000000000000000000042101580156107a1575060035460ff16155b156107ae576107ae6111bf565b600654600160a81b900460ff16156107d957604051634e35638160e11b815260040160405180910390fd5b6001600160a01b0381165f9081526001602081815260408084208151608081018352815481529381015492840192909252600282015490830152600381015460ff1615156060830152919061082d906112d0565b9050805f0361084f5760405163200c44cf60e21b815260040160405180910390fd5b80825f015f828254610861919061179e565b9250508190555080826002015f82825461087b919061179e565b909155506108b590506001600160a01b037f0000000000000000000000000000000000000000000000000000000000000000165f83611326565b8060045f8282546108c691906117b1565b90915550506040518181526001600160a01b038416907fca0351860ce2a85bc712861683dcb64560614677682c40a81c25fcfcc2e551c19060200160405180910390a2505061092160015f805160206117dc83398151915255565b50565b61092c611178565b610934611360565b565b61093e611178565b6006805460ff60a81b1916600160a81b1790556040517f6823b073d48d6e3a7d385eeb601452d680e74bb46afe3255a7d778f3a9b17681905f90a1565b6109836111a4565b61098b6113b4565b7f000000000000000000000000000000000000000000000000000000000000000042101580156109be575060035460ff16155b156109cb576109cb6111bf565b600654600160a81b900460ff16156109f657604051634e35638160e11b815260040160405180910390fd5b5f6109ff610ef6565b9050805f03610a21576040516312d37ee560e31b815260040160405180910390fd5b6040516370a0823160e01b815230600482015281907f00000000000000000000000000000000000000000000000000000000000000006001600160a01b0316906370a0823190602401602060405180830381865afa158015610a85573d5f803e3d5ffd5b505050506040513d601f19601f82011682018060405250810190610aa991906117c4565b1015610ac85760405163786e0a9960e01b815260040160405180910390fd5b335f9081526001602081905260408220018054839290610ae99084906117b1565b90915550610b2390506001600160a01b037f0000000000000000000000000000000000000000000000000000000000000000163383611326565b60405181815233907f896e034966eaaf1adc54acc0f257056febbd300c9e47182cf761982cf1f5e4309060200160405180910390a25061093460015f805160206117dc83398151915255565b610b77611178565b6109345f6113de565b610b88611178565b610b906111a4565b7f00000000000000000000000000000000000000000000000000000000000000004210158015610bc3575060035460ff16155b15610bd057610bd06111bf565b600654600160a81b900460ff1615610bfb57604051634e35638160e11b815260040160405180910390fd5b805f03610c1b57604051631f2a200560e01b815260040160405180910390fd5b6001600160a01b0382165f9081526001602081815260408084208151608081018352815481529381015492840192909252600282015490830152600381015460ff16151560608301529190610c6f906112d0565b905080831115610c925760405163dccabd3560e01b815260040160405180910390fd5b82825f015f828254610ca4919061179e565b9250508190555082826002015f828254610cbe919061179e565b90915550610cf890506001600160a01b037f0000000000000000000000000000000000000000000000000000000000000000165f85611326565b8260045f828254610d0991906117b1565b90915550506040518381526001600160a01b038516907fca0351860ce2a85bc712861683dcb64560614677682c40a81c25fcfcc2e551c19060200160405180910390a25050610d6460015f805160206117dc83398151915255565b5050565b610d70611178565b61093461142d565b610d806111a4565b610d886113b4565b7f00000000000000000000000000000000000000000000000000000000000000004210158015610dbb575060035460ff16155b15610dc857610dc86111bf565b600654600160a81b900460ff1615610df357604051634e35638160e11b815260040160405180910390fd5b600654600160a01b900460ff16610e1d57604051631e8a0cbf60e11b815260040160405180910390fd5b5f610e26610ef6565b9050805f03610e48576040516312d37ee560e31b815260040160405180910390fd5b335f90815260016020819052604090912080548183015560038101805460ff1916909217909155600654610ea9906001600160a01b037f00000000000000000000000000000000000000000000000000000000000000008116911684611326565b60405182815233907f8b80bd19aea7b735bc6d75db8d6adbe18b28c30d62b3555245eb67b2340caedc9060200160405180910390a2505061093460015f805160206117dc83398151915255565b335f9081526001602081815260408084208151608081018352815480825294820154938101939093526002810154918301919091526003015460ff1615156060820152901580610f47575080606001515b15610f53575f91505090565b5f610f60825f015161146f565b90508160200151811115610f80576020820151610f7d908261179e565b92505b505090565b5f600554600454610f9691906117b1565b905090565b335f90815260016020818152604080842081516080810183528154815293810154928401929092526002820154908301526003015460ff1615156060820152610fe3816112d0565b91505090565b610ff1611178565b6001600160a01b03811661101f57604051631e4fbdf760e01b81525f60048201526024015b60405180910390fd5b610921816113de565b611030611178565b7f00000000000000000000000000000000000000000000000000000000000000006001600160a01b0316816001600160a01b03160361108257604051630d34179160e01b815260040160405180910390fd5b6040516370a0823160e01b81523060048201525f906001600160a01b038316906370a0823190602401602060405180830381865afa1580156110c6573d5f803e3d5ffd5b505050506040513d601f19601f820116820180604052508101906110ea91906117c4565b9050805f0361110c57604051631f2a200560e01b815260040160405180910390fd5b6111316111205f546001600160a01b031690565b6001600160a01b0384169083611326565b816001600160a01b03167f3cf91549202759aa28b4ccef6accdb58b06e1bdebc31f84e43a225a809a048d28260405161116c91815260200190565b60405180910390a25050565b5f546001600160a01b031633146109345760405163118cdaa760e01b8152336004820152602401611016565b6111ac611571565b60025f805160206117dc83398151915255565b6003805460ff191660011790556040516370a0823160e01b81523060048201525f906001600160a01b037f000000000000000000000000000000000000000000000000000000000000000016906370a0823190602401602060405180830381865afa158015611230573d5f803e3d5ffd5b505050506040513d601f19601f8201168201806040525081019061125491906117c4565b90508015610921576112906001600160a01b037f0000000000000000000000000000000000000000000000000000000000000000165f83611326565b6005819055604080518281524260208201527f1367a80f8266c25ef54f82fcc1e4a8eb1c658801b98e56646cb0da2a7398ac22910160405180910390a150565b80515f9015806112e1575081606001515b156112ed57505f919050565b5f6112fa835f015161146f565b835190915061130a90829061179e565b9150826040015182111561132057826040015191505b50919050565b61133383838360016115a0565b61135b57604051635274afe760e01b81526001600160a01b0384166004820152602401611016565b505050565b611368611602565b5f805460ff60a01b191690557f5db9ee0a495bf2e6ff9c91a7834c1ba4fdd244a5e8aa4e537bd38aeae4b073aa335b6040516001600160a01b03909116815260200160405180910390a1565b5f54600160a01b900460ff16156109345760405163d93c066560e01b815260040160405180910390fd5b5f80546001600160a01b038381166001600160a01b0319831681178455604051919092169283917f8be0079c531659141344cd1fd0a4f28419497f9722a3daafe3b4186f6b6457e09190a35050565b6114356113b4565b5f805460ff60a01b1916600160a01b1790557f62e78cea01bee320cd4e420270b5ea74000d11b0c9f74754ebdbfc544b05a2586113973390565b5f8061271061149e7f000000000000000000000000000000000000000000000000000000000000000085611762565b6114a8919061177f565b90505f6114b5828561179e565b90507f00000000000000000000000000000000000000000000000000000000000000004210156114e6575092915050565b7f0000000000000000000000000000000000000000000000000000000000000000421061151557509192915050565b5f6115407f00000000000000000000000000000000000000000000000000000000000000004261179e565b90505f62375f006115518385611762565b61155b919061177f565b905061156781856117b1565b9695505050505050565b5f805160206117dc8339815191525460020361093457604051633ee5aeb560e01b815260040160405180910390fd5b60405163a9059cbb60e01b5f8181526001600160a01b038616600452602485905291602083604481808b5af1925060015f511483166115f65783831516156115ea573d5f823e3d81fd5b5f873b113d1516831692505b60405250949350505050565b5f54600160a01b900460ff1661093457604051638dfc202b60e01b815260040160405180910390fd5b6001600160a01b0381168114610921575f80fd5b5f6020828403121561164f575f80fd5b813561165a8161162b565b9392505050565b5f8083601f840112611671575f80fd5b50813567ffffffffffffffff811115611688575f80fd5b6020830191508360208260051b85010111156116a2575f80fd5b9250929050565b5f805f80604085870312156116bc575f80fd5b843567ffffffffffffffff808211156116d3575f80fd5b6116df88838901611661565b909650945060208701359150808211156116f7575f80fd5b5061170487828801611661565b95989497509550505050565b5f8060408385031215611721575f80fd5b823561172c8161162b565b946020939093013593505050565b634e487b7160e01b5f52603260045260245ffd5b634e487b7160e01b5f52601160045260245ffd5b80820281158282048414176117795761177961174e565b92915050565b5f8261179957634e487b7160e01b5f52601260045260245ffd5b500490565b818103818111156117795761177961174e565b808201808211156117795761177961174e565b5f602082840312156117d4575f80fd5b505191905056fe9b779b17422d0df92223018b32b4d1fa46e071723d6817e2486d003becc55f00a2646970667358221220ad9ff3cf70bb4a3616fd6236da8518473ff043b953958b0d57fb4fc76ed5427064736f6c63430008180033",
					"opcodes": "PUSH2 0x100 PUSH1 0x40 MSTORE CALLVALUE DUP1 ISZERO PUSH3 0x11 JUMPI PUSH0 DUP1 REVERT JUMPDEST POP PUSH1 0x40 MLOAD PUSH3 0x1A9B CODESIZE SUB DUP1 PUSH3 0x1A9B DUP4 CODECOPY DUP2 ADD PUSH1 0x40 DUP2 SWAP1 MSTORE PUSH3 0x34 SWAP2 PUSH3 0x158 JUMP JUMPDEST CALLER DUP1 PUSH3 0x5A JUMPI PUSH1 0x40 MLOAD PUSH4 0x1E4FBDF7 PUSH1 0xE0 SHL DUP2 MSTORE PUSH0 PUSH1 0x4 DUP3 ADD MSTORE PUSH1 0x24 ADD PUSH1 0x40 MLOAD DUP1 SWAP2 SUB SWAP1 REVERT JUMPDEST PUSH3 0x65 DUP2 PUSH3 0x109 JUMP JUMPDEST POP PUSH1 0x1 PUSH32 0x9B779B17422D0DF92223018B32B4D1FA46E071723D6817E2486D003BECC55F00 SSTORE PUSH1 0x1 PUSH1 0x1 PUSH1 0xA0 SHL SUB DUP4 AND PUSH3 0xB2 JUMPI PUSH1 0x40 MLOAD PUSH4 0x42BCDF7F PUSH1 0xE1 SHL DUP2 MSTORE PUSH1 0x4 ADD PUSH1 0x40 MLOAD DUP1 SWAP2 SUB SWAP1 REVERT JUMPDEST PUSH2 0x2710 DUP2 GT ISZERO PUSH3 0xD6 JUMPI PUSH1 0x40 MLOAD PUSH4 0x3869B3B3 PUSH1 0xE1 SHL DUP2 MSTORE PUSH1 0x4 ADD PUSH1 0x40 MLOAD DUP1 SWAP2 SUB SWAP1 REVERT JUMPDEST PUSH1 0x1 PUSH1 0x1 PUSH1 0xA0 SHL SUB DUP4 AND PUSH1 0x80 MSTORE PUSH1 0xA0 DUP3 SWAP1 MSTORE PUSH1 0xC0 DUP2 SWAP1 MSTORE PUSH3 0xFC PUSH3 0x375F00 DUP4 PUSH3 0x199 JUMP JUMPDEST PUSH1 0xE0 MSTORE POP PUSH3 0x1BF SWAP2 POP POP JUMP JUMPDEST PUSH0 DUP1 SLOAD PUSH1 0x1 PUSH1 0x1 PUSH1 0xA0 SHL SUB DUP4 DUP2 AND PUSH1 0x1 PUSH1 0x1 PUSH1 0xA0 SHL SUB NOT DUP4 AND DUP2 OR DUP5 SSTORE PUSH1 0x40 MLOAD SWAP2 SWAP1 SWAP3 AND SWAP3 DUP4 SWAP2 PUSH32 0x8BE0079C531659141344CD1FD0A4F28419497F9722A3DAAFE3B4186F6B6457E0 SWAP2 SWAP1 LOG3 POP POP JUMP JUMPDEST PUSH0 DUP1 PUSH0 PUSH1 0x60 DUP5 DUP7 SUB SLT ISZERO PUSH3 0x16B JUMPI PUSH0 DUP1 REVERT JUMPDEST DUP4 MLOAD PUSH1 0x1 PUSH1 0x1 PUSH1 0xA0 SHL SUB DUP2 AND DUP2 EQ PUSH3 0x182 JUMPI PUSH0 DUP1 REVERT JUMPDEST PUSH1 0x20 DUP6 ADD MLOAD PUSH1 0x40 SWAP1 SWAP6 ADD MLOAD SWAP1 SWAP7 SWAP5 SWAP6 POP SWAP4 SWAP3 POP POP POP JUMP JUMPDEST DUP1 DUP3 ADD DUP1 DUP3 GT ISZERO PUSH3 0x1B9 JUMPI PUSH4 0x4E487B71 PUSH1 0xE0 SHL PUSH0 MSTORE PUSH1 0x11 PUSH1 0x4 MSTORE PUSH1 0x24 PUSH0 REVERT JUMPDEST SWAP3 SWAP2 POP POP JUMP JUMPDEST PUSH1 0x80 MLOAD PUSH1 0xA0 MLOAD PUSH1 0xC0 MLOAD PUSH1 0xE0 MLOAD PUSH2 0x1831 PUSH3 0x26A PUSH0 CODECOPY PUSH0 DUP2 DUP2 PUSH2 0x421 ADD MSTORE DUP2 DUP2 PUSH2 0x770 ADD MSTORE DUP2 DUP2 PUSH2 0x98D ADD MSTORE DUP2 DUP2 PUSH2 0xB92 ADD MSTORE DUP2 DUP2 PUSH2 0xD8A ADD MSTORE PUSH2 0x14E8 ADD MSTORE PUSH0 DUP2 DUP2 PUSH2 0x3D7 ADD MSTORE DUP2 DUP2 PUSH2 0x673 ADD MSTORE PUSH2 0x1479 ADD MSTORE PUSH0 DUP2 DUP2 PUSH2 0x3B0 ADD MSTORE DUP2 DUP2 PUSH2 0x14B9 ADD MSTORE PUSH2 0x151B ADD MSTORE PUSH0 DUP2 DUP2 PUSH2 0x330 ADD MSTORE DUP2 DUP2 PUSH2 0x88E ADD MSTORE DUP2 DUP2 PUSH2 0xA38 ADD MSTORE DUP2 DUP2 PUSH2 0xAFC ADD MSTORE DUP2 DUP2 PUSH2 0xCD1 ADD MSTORE DUP2 DUP2 PUSH2 0xE80 ADD MSTORE DUP2 DUP2 PUSH2 0x1032 ADD MSTORE DUP2 DUP2 PUSH2 0x11EB ADD MSTORE PUSH2 0x1269 ADD MSTORE PUSH2 0x1831 PUSH0 RETURN INVALID PUSH1 0x80 PUSH1 0x40 MSTORE CALLVALUE DUP1 ISZERO PUSH2 0xF JUMPI PUSH0 DUP1 REVERT JUMPDEST POP PUSH1 0x4 CALLDATASIZE LT PUSH2 0x1D1 JUMPI PUSH0 CALLDATALOAD PUSH1 0xE0 SHR DUP1 PUSH4 0x82BFEFC8 GT PUSH2 0xFE JUMPI DUP1 PUSH4 0xAF38D757 GT PUSH2 0x9E JUMPI DUP1 PUSH4 0xD950975A GT PUSH2 0x6E JUMPI DUP1 PUSH4 0xD950975A EQ PUSH2 0x401 JUMPI DUP1 PUSH4 0xF2FDE38B EQ PUSH2 0x409 JUMPI DUP1 PUSH4 0xF30F40A8 EQ PUSH2 0x41C JUMPI DUP1 PUSH4 0xF9344395 EQ PUSH2 0x443 JUMPI PUSH0 DUP1 REVERT JUMPDEST DUP1 PUSH4 0xAF38D757 EQ PUSH2 0x3A3 JUMPI DUP1 PUSH4 0xCFD11C4F EQ PUSH2 0x3AB JUMPI DUP1 PUSH4 0xD2B8ABB8 EQ PUSH2 0x3D2 JUMPI DUP1 PUSH4 0xD89135CD EQ PUSH2 0x3F9 JUMPI PUSH0 DUP1 REVERT JUMPDEST DUP1 PUSH4 0x8DA5CB5B GT PUSH2 0xD9 JUMPI DUP1 PUSH4 0x8DA5CB5B EQ PUSH2 0x36E JUMPI DUP1 PUSH4 0x8ED6B016 EQ PUSH2 0x37E JUMPI DUP1 PUSH4 0x8FD3AB80 EQ PUSH2 0x392 JUMPI DUP1 PUSH4 0xA35061B9 EQ PUSH2 0x39A JUMPI PUSH0 DUP1 REVERT JUMPDEST DUP1 PUSH4 0x82BFEFC8 EQ PUSH2 0x32B JUMPI DUP1 PUSH4 0x8456CB59 EQ PUSH2 0x352 JUMPI DUP1 PUSH4 0x8D4E4083 EQ PUSH2 0x35A JUMPI PUSH0 DUP1 REVERT JUMPDEST DUP1 PUSH4 0x3B0DA260 GT PUSH2 0x174 JUMPI DUP1 PUSH4 0x5447C35C GT PUSH2 0x144 JUMPI DUP1 PUSH4 0x5447C35C EQ PUSH2 0x2E2 JUMPI DUP1 PUSH4 0x5C975ABB EQ PUSH2 0x2FF JUMPI DUP1 PUSH4 0x715018A6 EQ PUSH2 0x310 JUMPI DUP1 PUSH4 0x7216BAFC EQ PUSH2 0x318 JUMPI PUSH0 DUP1 REVERT JUMPDEST DUP1 PUSH4 0x3B0DA260 EQ PUSH2 0x2B7 JUMPI DUP1 PUSH4 0x3F4BA83A EQ PUSH2 0x2CA JUMPI DUP1 PUSH4 0x4BB278F3 EQ PUSH2 0x2D2 JUMPI DUP1 PUSH4 0x4E71D92D EQ PUSH2 0x2DA JUMPI PUSH0 DUP1 REVERT JUMPDEST DUP1 PUSH4 0x17FD045F GT PUSH2 0x1AF JUMPI DUP1 PUSH4 0x17FD045F EQ PUSH2 0x27B JUMPI DUP1 PUSH4 0x1FF64ACD EQ PUSH2 0x293 JUMPI DUP1 PUSH4 0x2D57A680 EQ PUSH2 0x2A6 JUMPI DUP1 PUSH4 0x362F04C0 EQ PUSH2 0x2AF JUMPI PUSH0 DUP1 REVERT JUMPDEST DUP1 PUSH4 0xC9E1E8E EQ PUSH2 0x1D5 JUMPI DUP1 PUSH4 0xFC2FD4C EQ PUSH2 0x23B JUMPI DUP1 PUSH4 0xFEE1A20 EQ PUSH2 0x250 JUMPI JUMPDEST PUSH0 DUP1 REVERT JUMPDEST CALLER PUSH0 SWAP1 DUP2 MSTORE PUSH1 0x1 PUSH1 0x20 DUP2 DUP2 MSTORE PUSH1 0x40 SWAP3 DUP4 SWAP1 KECCAK256 DUP4 MLOAD PUSH1 0x80 DUP1 DUP3 ADD DUP7 MSTORE DUP3 SLOAD DUP1 DUP4 MSTORE SWAP5 DUP4 ADD SLOAD DUP3 DUP6 ADD DUP2 SWAP1 MSTORE PUSH1 0x2 DUP5 ADD SLOAD DUP4 DUP9 ADD DUP2 SWAP1 MSTORE PUSH1 0x3 SWAP1 SWAP5 ADD SLOAD PUSH1 0xFF AND ISZERO ISZERO PUSH1 0x60 SWAP4 DUP5 ADD DUP2 SWAP1 MSTORE DUP8 MLOAD SWAP7 DUP8 MSTORE SWAP5 DUP7 ADD MSTORE SWAP5 DUP5 ADD SWAP2 SWAP1 SWAP2 MSTORE DUP3 ADD MSTORE ADD JUMPDEST PUSH1 0x40 MLOAD DUP1 SWAP2 SUB SWAP1 RETURN JUMPDEST PUSH2 0x24E PUSH2 0x249 CALLDATASIZE PUSH1 0x4 PUSH2 0x163F JUMP JUMPDEST PUSH2 0x456 JUMP JUMPDEST STOP JUMPDEST PUSH1 0x6 SLOAD PUSH2 0x263 SWAP1 PUSH1 0x1 PUSH1 0x1 PUSH1 0xA0 SHL SUB AND DUP2 JUMP JUMPDEST PUSH1 0x40 MLOAD PUSH1 0x1 PUSH1 0x1 PUSH1 0xA0 SHL SUB SWAP1 SWAP2 AND DUP2 MSTORE PUSH1 0x20 ADD PUSH2 0x232 JUMP JUMPDEST PUSH2 0x285 PUSH3 0x375F00 DUP2 JUMP JUMPDEST PUSH1 0x40 MLOAD SWAP1 DUP2 MSTORE PUSH1 0x20 ADD PUSH2 0x232 JUMP JUMPDEST PUSH2 0x24E PUSH2 0x2A1 CALLDATASIZE PUSH1 0x4 PUSH2 0x16A9 JUMP JUMPDEST PUSH2 0x53F JUMP JUMPDEST PUSH2 0x285 PUSH1 0x5 SLOAD DUP2 JUMP JUMPDEST PUSH1 0x2 SLOAD PUSH2 0x285 JUMP JUMPDEST PUSH2 0x24E PUSH2 0x2C5 CALLDATASIZE PUSH1 0x4 PUSH2 0x163F JUMP JUMPDEST PUSH2 0x75E JUMP JUMPDEST PUSH2 0x24E PUSH2 0x924 JUMP JUMPDEST PUSH2 0x24E PUSH2 0x936 JUMP JUMPDEST PUSH2 0x24E PUSH2 0x97B JUMP JUMPDEST PUSH1 0x3 SLOAD PUSH2 0x2EF SWAP1 PUSH1 0xFF AND DUP2 JUMP JUMPDEST PUSH1 0x40 MLOAD SWAP1 ISZERO ISZERO DUP2 MSTORE PUSH1 0x20 ADD PUSH2 0x232 JUMP JUMPDEST PUSH0 SLOAD PUSH1 0x1 PUSH1 0xA0 SHL SWAP1 DIV PUSH1 0xFF AND PUSH2 0x2EF JUMP JUMPDEST PUSH2 0x24E PUSH2 0xB6F JUMP JUMPDEST PUSH2 0x24E PUSH2 0x326 CALLDATASIZE PUSH1 0x4 PUSH2 0x1710 JUMP JUMPDEST PUSH2 0xB80 JUMP JUMPDEST PUSH2 0x263 PUSH32 0x0 DUP2 JUMP JUMPDEST PUSH2 0x24E PUSH2 0xD68 JUMP JUMPDEST PUSH1 0x6 SLOAD PUSH2 0x2EF SWAP1 PUSH1 0x1 PUSH1 0xA8 SHL SWAP1 DIV PUSH1 0xFF AND DUP2 JUMP JUMPDEST PUSH0 SLOAD PUSH1 0x1 PUSH1 0x1 PUSH1 0xA0 SHL SUB AND PUSH2 0x263 JUMP JUMPDEST PUSH1 0x6 SLOAD PUSH2 0x2EF SWAP1 PUSH1 0x1 PUSH1 0xA0 SHL SWAP1 DIV PUSH1 0xFF AND DUP2 JUMP JUMPDEST PUSH2 0x24E PUSH2 0xD78 JUMP JUMPDEST PUSH2 0x285 PUSH1 0x4 SLOAD DUP2 JUMP JUMPDEST PUSH2 0x285 PUSH2 0xEF6 JUMP JUMPDEST PUSH2 0x285 PUSH32 0x0 DUP2 JUMP JUMPDEST PUSH2 0x285 PUSH32 0x0 DUP2 JUMP JUMPDEST PUSH2 0x285 PUSH2 0xF85 JUMP JUMPDEST PUSH2 0x285 PUSH2 0xF9B JUMP JUMPDEST PUSH2 0x24E PUSH2 0x417 CALLDATASIZE PUSH1 0x4 PUSH2 0x163F JUMP JUMPDEST PUSH2 0xFE9 JUMP JUMPDEST PUSH2 0x285 PUSH32 0x0 DUP2 JUMP JUMPDEST PUSH2 0x24E PUSH2 0x451 CALLDATASIZE PUSH1 0x4 PUSH2 0x163F JUMP JUMPDEST PUSH2 0x1028 JUMP JUMPDEST PUSH2 0x45E PUSH2 0x1178 JUMP JUMPDEST PUSH1 0x6 SLOAD PUSH1 0x1 PUSH1 0xA8 SHL SWAP1 DIV PUSH1 0xFF AND ISZERO PUSH2 0x489 JUMPI PUSH1 0x40 MLOAD PUSH4 0x4E356381 PUSH1 0xE1 SHL DUP2 MSTORE PUSH1 0x4 ADD PUSH1 0x40 MLOAD DUP1 SWAP2 SUB SWAP1 REVERT JUMPDEST PUSH1 0x6 SLOAD PUSH1 0x1 PUSH1 0xA0 SHL SWAP1 DIV PUSH1 0xFF AND ISZERO PUSH2 0x4B4 JUMPI PUSH1 0x40 MLOAD PUSH4 0x7F88B33 PUSH1 0xE2 SHL DUP2 MSTORE PUSH1 0x4 ADD PUSH1 0x40 MLOAD DUP1 SWAP2 SUB SWAP1 REVERT JUMPDEST PUSH1 0x1 PUSH1 0x1 PUSH1 0xA0 SHL SUB DUP2 AND ISZERO DUP1 PUSH2 0x4D2 JUMPI POP PUSH1 0x1 PUSH1 0x1 PUSH1 0xA0 SHL SUB DUP2 AND ADDRESS EQ JUMPDEST ISZERO PUSH2 0x4F0 JUMPI PUSH1 0x40 MLOAD PUSH4 0x42BCDF7F PUSH1 0xE1 SHL DUP2 MSTORE PUSH1 0x4 ADD PUSH1 0x40 MLOAD DUP1 SWAP2 SUB SWAP1 REVERT JUMPDEST PUSH1 0x6 DUP1 SLOAD PUSH1 0x1 PUSH1 0x1 PUSH1 0xA8 SHL SUB NOT AND PUSH1 0x1 PUSH1 0x1 PUSH1 0xA0 SHL SUB DUP4 AND SWAP1 DUP2 OR PUSH1 0x1 PUSH1 0xA0 SHL OR SWAP1 SWAP2 SSTORE PUSH1 0x40 MLOAD PUSH32 0x92B5EB20E7F70B6B205924D72C26C45F05A063424792BE21A87858495CD80297 SWAP1 PUSH0 SWAP1 LOG2 POP JUMP JUMPDEST PUSH2 0x547 PUSH2 0x1178 JUMP JUMPDEST DUP3 DUP2 DUP2 EQ PUSH2 0x568 JUMPI PUSH1 0x40 MLOAD PUSH4 0x512509D3 PUSH1 0xE1 SHL DUP2 MSTORE PUSH1 0x4 ADD PUSH1 0x40 MLOAD DUP1 SWAP2 SUB SWAP1 REVERT JUMPDEST PUSH0 JUMPDEST DUP2 DUP2 LT ISZERO PUSH2 0x756 JUMPI PUSH0 DUP7 DUP7 DUP4 DUP2 DUP2 LT PUSH2 0x585 JUMPI PUSH2 0x585 PUSH2 0x173A JUMP JUMPDEST SWAP1 POP PUSH1 0x20 MUL ADD PUSH1 0x20 DUP2 ADD SWAP1 PUSH2 0x59A SWAP2 SWAP1 PUSH2 0x163F JUMP JUMPDEST SWAP1 POP PUSH0 DUP6 DUP6 DUP5 DUP2 DUP2 LT PUSH2 0x5AF JUMPI PUSH2 0x5AF PUSH2 0x173A JUMP JUMPDEST PUSH1 0x20 MUL SWAP2 SWAP1 SWAP2 ADD CALLDATALOAD SWAP2 POP POP PUSH1 0x1 PUSH1 0x1 PUSH1 0xA0 SHL SUB DUP3 AND PUSH2 0x5E1 JUMPI PUSH1 0x40 MLOAD PUSH4 0x42BCDF7F PUSH1 0xE1 SHL DUP2 MSTORE PUSH1 0x4 ADD PUSH1 0x40 MLOAD DUP1 SWAP2 SUB SWAP1 REVERT JUMPDEST DUP1 PUSH0 SUB PUSH2 0x601 JUMPI PUSH1 0x40 MLOAD PUSH4 0x1F2A2005 PUSH1 0xE0 SHL DUP2 MSTORE PUSH1 0x4 ADD PUSH1 0x40 MLOAD DUP1 SWAP2 SUB SWAP1 REVERT JUMPDEST PUSH1 0x1 PUSH1 0x1 PUSH1 0xA0 SHL SUB DUP3 AND PUSH0 SWAP1 DUP2 MSTORE PUSH1 0x1 PUSH1 0x20 MSTORE PUSH1 0x40 DUP2 KECCAK256 SLOAD SWAP1 SUB PUSH2 0x66A JUMPI PUSH1 0x2 DUP1 SLOAD PUSH1 0x1 DUP2 ADD DUP3 SSTORE PUSH0 SWAP2 SWAP1 SWAP2 MSTORE PUSH32 0x405787FA12A823E0F2B7631CC41B3BA8828B3321CA811111FA75CD3AA3BB5ACE ADD DUP1 SLOAD PUSH1 0x1 PUSH1 0x1 PUSH1 0xA0 SHL SUB NOT AND PUSH1 0x1 PUSH1 0x1 PUSH1 0xA0 SHL SUB DUP5 AND OR SWAP1 SSTORE JUMPDEST PUSH0 PUSH2 0x2710 PUSH2 0x698 PUSH32 0x0 DUP5 PUSH2 0x1762 JUMP JUMPDEST PUSH2 0x6A2 SWAP2 SWAP1 PUSH2 0x177F JUMP JUMPDEST SWAP1 POP PUSH0 PUSH2 0x6AF DUP3 DUP5 PUSH2 0x179E JUMP JUMPDEST PUSH1 0x40 DUP1 MLOAD PUSH1 0x80 DUP2 ADD DUP3 MSTORE DUP6 DUP2 MSTORE PUSH0 PUSH1 0x20 DUP1 DUP4 ADD DUP3 DUP2 MSTORE DUP4 DUP6 ADD DUP7 DUP2 MSTORE PUSH1 0x60 DUP6 ADD DUP5 DUP2 MSTORE PUSH1 0x1 PUSH1 0x1 PUSH1 0xA0 SHL SUB DUP13 AND DUP1 DUP7 MSTORE PUSH1 0x1 DUP1 DUP7 MSTORE SWAP6 DUP9 SWAP1 KECCAK256 SWAP7 MLOAD DUP8 SSTORE SWAP3 MLOAD SWAP5 DUP7 ADD SWAP5 SWAP1 SWAP5 SSTORE MLOAD PUSH1 0x2 DUP6 ADD SSTORE SWAP2 MLOAD PUSH1 0x3 SWAP1 SWAP4 ADD DUP1 SLOAD PUSH1 0xFF NOT AND SWAP4 ISZERO ISZERO SWAP4 SWAP1 SWAP4 OR SWAP1 SWAP3 SSTORE SWAP2 MLOAD DUP7 DUP2 MSTORE SWAP3 SWAP4 POP SWAP1 SWAP2 PUSH32 0xEDFC909D0AB2A1625B7911D925EFBD8200CDD99D4C7BA44E720328B17879F0B3 SWAP2 ADD PUSH1 0x40 MLOAD DUP1 SWAP2 SUB SWAP1 LOG2 DUP5 PUSH1 0x1 ADD SWAP5 POP POP POP POP POP PUSH2 0x56A JUMP JUMPDEST POP POP POP POP POP POP JUMP JUMPDEST PUSH2 0x766 PUSH2 0x1178 JUMP JUMPDEST PUSH2 0x76E PUSH2 0x11A4 JUMP JUMPDEST PUSH32 0x0 TIMESTAMP LT ISZERO DUP1 ISZERO PUSH2 0x7A1 JUMPI POP PUSH1 0x3 SLOAD PUSH1 0xFF AND ISZERO JUMPDEST ISZERO PUSH2 0x7AE JUMPI PUSH2 0x7AE PUSH2 0x11BF JUMP JUMPDEST PUSH1 0x6 SLOAD PUSH1 0x1 PUSH1 0xA8 SHL SWAP1 DIV PUSH1 0xFF AND ISZERO PUSH2 0x7D9 JUMPI PUSH1 0x40 MLOAD PUSH4 0x4E356381 PUSH1 0xE1 SHL DUP2 MSTORE PUSH1 0x4 ADD PUSH1 0x40 MLOAD DUP1 SWAP2 SUB SWAP1 REVERT JUMPDEST PUSH1 0x1 PUSH1 0x1 PUSH1 0xA0 SHL SUB DUP2 AND PUSH0 SWAP1 DUP2 MSTORE PUSH1 0x1 PUSH1 0x20 DUP2 DUP2 MSTORE PUSH1 0x40 DUP1 DUP5 KECCAK256 DUP2 MLOAD PUSH1 0x80 DUP2 ADD DUP4 MSTORE DUP2 SLOAD DUP2 MSTORE SWAP4 DUP2 ADD SLOAD SWAP3 DUP5 ADD SWAP3 SWAP1 SWAP3 MSTORE PUSH1 0x2 DUP3 ADD SLOAD SWAP1 DUP4 ADD MSTORE PUSH1 0x3 DUP2 ADD SLOAD PUSH1 0xFF AND ISZERO ISZERO PUSH1 0x60 DUP4 ADD MSTORE SWAP2 SWAP1 PUSH2 0x82D SWAP1 PUSH2 0x12D0 JUMP JUMPDEST SWAP1 POP DUP1 PUSH0 SUB PUSH2 0x84F JUMPI PUSH1 0x40 MLOAD PUSH4 0x200C44CF PUSH1 0xE2 SHL DUP2 MSTORE PUSH1 0x4 ADD PUSH1 0x40 MLOAD DUP1 SWAP2 SUB SWAP1 REVERT JUMPDEST DUP1 DUP3 PUSH0 ADD PUSH0 DUP3 DUP3 SLOAD PUSH2 0x861 SWAP2 SWAP1 PUSH2 0x179E JUMP JUMPDEST SWAP3 POP POP DUP2 SWAP1 SSTORE POP DUP1 DUP3 PUSH1 0x2 ADD PUSH0 DUP3 DUP3 SLOAD PUSH2 0x87B SWAP2 SWAP1 PUSH2 0x179E JUMP JUMPDEST SWAP1 SWAP2 SSTORE POP PUSH2 0x8B5 SWAP1 POP PUSH1 0x1 PUSH1 0x1 PUSH1 0xA0 SHL SUB PUSH32 0x0 AND PUSH0 DUP4 PUSH2 0x1326 JUMP JUMPDEST DUP1 PUSH1 0x4 PUSH0 DUP3 DUP3 SLOAD PUSH2 0x8C6 SWAP2 SWAP1 PUSH2 0x17B1 JUMP JUMPDEST SWAP1 SWAP2 SSTORE POP POP PUSH1 0x40 MLOAD DUP2 DUP2 MSTORE PUSH1 0x1 PUSH1 0x1 PUSH1 0xA0 SHL SUB DUP5 AND SWAP1 PUSH32 0xCA0351860CE2A85BC712861683DCB64560614677682C40A81C25FCFCC2E551C1 SWAP1 PUSH1 0x20 ADD PUSH1 0x40 MLOAD DUP1 SWAP2 SUB SWAP1 LOG2 POP POP PUSH2 0x921 PUSH1 0x1 PUSH0 DUP1 MLOAD PUSH1 0x20 PUSH2 0x17DC DUP4 CODECOPY DUP2 MLOAD SWAP2 MSTORE SSTORE JUMP JUMPDEST POP JUMP JUMPDEST PUSH2 0x92C PUSH2 0x1178 JUMP JUMPDEST PUSH2 0x934 PUSH2 0x1360 JUMP JUMPDEST JUMP JUMPDEST PUSH2 0x93E PUSH2 0x1178 JUMP JUMPDEST PUSH1 0x6 DUP1 SLOAD PUSH1 0xFF PUSH1 0xA8 SHL NOT AND PUSH1 0x1 PUSH1 0xA8 SHL OR SWAP1 SSTORE PUSH1 0x40 MLOAD PUSH32 0x6823B073D48D6E3A7D385EEB601452D680E74BB46AFE3255A7D778F3A9B17681 SWAP1 PUSH0 SWAP1 LOG1 JUMP JUMPDEST PUSH2 0x983 PUSH2 0x11A4 JUMP JUMPDEST PUSH2 0x98B PUSH2 0x13B4 JUMP JUMPDEST PUSH32 0x0 TIMESTAMP LT ISZERO DUP1 ISZERO PUSH2 0x9BE JUMPI POP PUSH1 0x3 SLOAD PUSH1 0xFF AND ISZERO JUMPDEST ISZERO PUSH2 0x9CB JUMPI PUSH2 0x9CB PUSH2 0x11BF JUMP JUMPDEST PUSH1 0x6 SLOAD PUSH1 0x1 PUSH1 0xA8 SHL SWAP1 DIV PUSH1 0xFF AND ISZERO PUSH2 0x9F6 JUMPI PUSH1 0x40 MLOAD PUSH4 0x4E356381 PUSH1 0xE1 SHL DUP2 MSTORE PUSH1 0x4 ADD PUSH1 0x40 MLOAD DUP1 SWAP2 SUB SWAP1 REVERT JUMPDEST PUSH0 PUSH2 0x9FF PUSH2 0xEF6 JUMP JUMPDEST SWAP1 POP DUP1 PUSH0 SUB PUSH2 0xA21 JUMPI PUSH1 0x40 MLOAD PUSH4 0x12D37EE5 PUSH1 0xE3 SHL DUP2 MSTORE PUSH1 0x4 ADD PUSH1 0x40 MLOAD DUP1 SWAP2 SUB SWAP1 REVERT JUMPDEST PUSH1 0x40 MLOAD PUSH4 0x70A08231 PUSH1 0xE0 SHL DUP2 MSTORE ADDRESS PUSH1 0x4 DUP3 ADD MSTORE DUP2 SWAP1 PUSH32 0x0 PUSH1 0x1 PUSH1 0x1 PUSH1 0xA0 SHL SUB AND SWAP1 PUSH4 0x70A08231 SWAP1 PUSH1 0x24 ADD PUSH1 0x20 PUSH1 0x40 MLOAD DUP1 DUP4 SUB DUP2 DUP7 GAS STATICCALL ISZERO DUP1 ISZERO PUSH2 0xA85 JUMPI RETURNDATASIZE PUSH0 DUP1 RETURNDATACOPY RETURNDATASIZE PUSH0 REVERT JUMPDEST POP POP POP POP PUSH1 0x40 MLOAD RETURNDATASIZE PUSH1 0x1F NOT PUSH1 0x1F DUP3 ADD AND DUP3 ADD DUP1 PUSH1 0x40 MSTORE POP DUP2 ADD SWAP1 PUSH2 0xAA9 SWAP2 SWAP1 PUSH2 0x17C4 JUMP JUMPDEST LT ISZERO PUSH2 0xAC8 JUMPI PUSH1 0x40 MLOAD PUSH4 0x786E0A99 PUSH1 0xE0 SHL DUP2 MSTORE PUSH1 0x4 ADD PUSH1 0x40 MLOAD DUP1 SWAP2 SUB SWAP1 REVERT JUMPDEST CALLER PUSH0 SWAP1 DUP2 MSTORE PUSH1 0x1 PUSH1 0x20 DUP2 SWAP1 MSTORE PUSH1 0x40 DUP3 KECCAK256 ADD DUP1 SLOAD DUP4 SWAP3 SWAP1 PUSH2 0xAE9 SWAP1 DUP5 SWAP1 PUSH2 0x17B1 JUMP JUMPDEST SWAP1 SWAP2 SSTORE POP PUSH2 0xB23 SWAP1 POP PUSH1 0x1 PUSH1 0x1 PUSH1 0xA0 SHL SUB PUSH32 0x0 AND CALLER DUP4 PUSH2 0x1326 JUMP JUMPDEST PUSH1 0x40 MLOAD DUP2 DUP2 MSTORE CALLER SWAP1 PUSH32 0x896E034966EAAF1ADC54ACC0F257056FEBBD300C9E47182CF761982CF1F5E430 SWAP1 PUSH1 0x20 ADD PUSH1 0x40 MLOAD DUP1 SWAP2 SUB SWAP1 LOG2 POP PUSH2 0x934 PUSH1 0x1 PUSH0 DUP1 MLOAD PUSH1 0x20 PUSH2 0x17DC DUP4 CODECOPY DUP2 MLOAD SWAP2 MSTORE SSTORE JUMP JUMPDEST PUSH2 0xB77 PUSH2 0x1178 JUMP JUMPDEST PUSH2 0x934 PUSH0 PUSH2 0x13DE JUMP JUMPDEST PUSH2 0xB88 PUSH2 0x1178 JUMP JUMPDEST PUSH2 0xB90 PUSH2 0x11A4 JUMP JUMPDEST PUSH32 0x0 TIMESTAMP LT ISZERO DUP1 ISZERO PUSH2 0xBC3 JUMPI POP PUSH1 0x3 SLOAD PUSH1 0xFF AND ISZERO JUMPDEST ISZERO PUSH2 0xBD0 JUMPI PUSH2 0xBD0 PUSH2 0x11BF JUMP JUMPDEST PUSH1 0x6 SLOAD PUSH1 0x1 PUSH1 0xA8 SHL SWAP1 DIV PUSH1 0xFF AND ISZERO PUSH2 0xBFB JUMPI PUSH1 0x40 MLOAD PUSH4 0x4E356381 PUSH1 0xE1 SHL DUP2 MSTORE PUSH1 0x4 ADD PUSH1 0x40 MLOAD DUP1 SWAP2 SUB SWAP1 REVERT JUMPDEST DUP1 PUSH0 SUB PUSH2 0xC1B JUMPI PUSH1 0x40 MLOAD PUSH4 0x1F2A2005 PUSH1 0xE0 SHL DUP2 MSTORE PUSH1 0x4 ADD PUSH1 0x40 MLOAD DUP1 SWAP2 SUB SWAP1 REVERT JUMPDEST PUSH1 0x1 PUSH1 0x1 PUSH1 0xA0 SHL SUB DUP3 AND PUSH0 SWAP1 DUP2 MSTORE PUSH1 0x1 PUSH1 0x20 DUP2 DUP2 MSTORE PUSH1 0x40 DUP1 DUP5 KECCAK256 DUP2 MLOAD PUSH1 0x80 DUP2 ADD DUP4 MSTORE DUP2 SLOAD DUP2 MSTORE SWAP4 DUP2 ADD SLOAD SWAP3 DUP5 ADD SWAP3 SWAP1 SWAP3 MSTORE PUSH1 0x2 DUP3 ADD SLOAD SWAP1 DUP4 ADD MSTORE PUSH1 0x3 DUP2 ADD SLOAD PUSH1 0xFF AND ISZERO ISZERO PUSH1 0x60 DUP4 ADD MSTORE SWAP2 SWAP1 PUSH2 0xC6F SWAP1 PUSH2 0x12D0 JUMP JUMPDEST SWAP1 POP DUP1 DUP4 GT ISZERO PUSH2 0xC92 JUMPI PUSH1 0x40 MLOAD PUSH4 0xDCCABD35 PUSH1 0xE0 SHL DUP2 MSTORE PUSH1 0x4 ADD PUSH1 0x40 MLOAD DUP1 SWAP2 SUB SWAP1 REVERT JUMPDEST DUP3 DUP3 PUSH0 ADD PUSH0 DUP3 DUP3 SLOAD PUSH2 0xCA4 SWAP2 SWAP1 PUSH2 0x179E JUMP JUMPDEST SWAP3 POP POP DUP2 SWAP1 SSTORE POP DUP3 DUP3 PUSH1 0x2 ADD PUSH0 DUP3 DUP3 SLOAD PUSH2 0xCBE SWAP2 SWAP1 PUSH2 0x179E JUMP JUMPDEST SWAP1 SWAP2 SSTORE POP PUSH2 0xCF8 SWAP1 POP PUSH1 0x1 PUSH1 0x1 PUSH1 0xA0 SHL SUB PUSH32 0x0 AND PUSH0 DUP6 PUSH2 0x1326 JUMP JUMPDEST DUP3 PUSH1 0x4 PUSH0 DUP3 DUP3 SLOAD PUSH2 0xD09 SWAP2 SWAP1 PUSH2 0x17B1 JUMP JUMPDEST SWAP1 SWAP2 SSTORE POP POP PUSH1 0x40 MLOAD DUP4 DUP2 MSTORE PUSH1 0x1 PUSH1 0x1 PUSH1 0xA0 SHL SUB DUP6 AND SWAP1 PUSH32 0xCA0351860CE2A85BC712861683DCB64560614677682C40A81C25FCFCC2E551C1 SWAP1 PUSH1 0x20 ADD PUSH1 0x40 MLOAD DUP1 SWAP2 SUB SWAP1 LOG2 POP POP PUSH2 0xD64 PUSH1 0x1 PUSH0 DUP1 MLOAD PUSH1 0x20 PUSH2 0x17DC DUP4 CODECOPY DUP2 MLOAD SWAP2 MSTORE SSTORE JUMP JUMPDEST POP POP JUMP JUMPDEST PUSH2 0xD70 PUSH2 0x1178 JUMP JUMPDEST PUSH2 0x934 PUSH2 0x142D JUMP JUMPDEST PUSH2 0xD80 PUSH2 0x11A4 JUMP JUMPDEST PUSH2 0xD88 PUSH2 0x13B4 JUMP JUMPDEST PUSH32 0x0 TIMESTAMP LT ISZERO DUP1 ISZERO PUSH2 0xDBB JUMPI POP PUSH1 0x3 SLOAD PUSH1 0xFF AND ISZERO JUMPDEST ISZERO PUSH2 0xDC8 JUMPI PUSH2 0xDC8 PUSH2 0x11BF JUMP JUMPDEST PUSH1 0x6 SLOAD PUSH1 0x1 PUSH1 0xA8 SHL SWAP1 DIV PUSH1 0xFF AND ISZERO PUSH2 0xDF3 JUMPI PUSH1 0x40 MLOAD PUSH4 0x4E356381 PUSH1 0xE1 SHL DUP2 MSTORE PUSH1 0x4 ADD PUSH1 0x40 MLOAD DUP1 SWAP2 SUB SWAP1 REVERT JUMPDEST PUSH1 0x6 SLOAD PUSH1 0x1 PUSH1 0xA0 SHL SWAP1 DIV PUSH1 0xFF AND PUSH2 0xE1D JUMPI PUSH1 0x40 MLOAD PUSH4 0x1E8A0CBF PUSH1 0xE1 SHL DUP2 MSTORE PUSH1 0x4 ADD PUSH1 0x40 MLOAD DUP1 SWAP2 SUB SWAP1 REVERT JUMPDEST PUSH0 PUSH2 0xE26 PUSH2 0xEF6 JUMP JUMPDEST SWAP1 POP DUP1 PUSH0 SUB PUSH2 0xE48 JUMPI PUSH1 0x40 MLOAD PUSH4 0x12D37EE5 PUSH1 0xE3 SHL DUP2 MSTORE PUSH1 0x4 ADD PUSH1 0x40 MLOAD DUP1 SWAP2 SUB SWAP1 REVERT JUMPDEST CALLER PUSH0 SWAP1 DUP2 MSTORE PUSH1 0x1 PUSH1 0x20 DUP2 SWAP1 MSTORE PUSH1 0x40 SWAP1 SWAP2 KECCAK256 DUP1 SLOAD DUP2 DUP4 ADD SSTORE PUSH1 0x3 DUP2 ADD DUP1 SLOAD PUSH1 0xFF NOT AND SWAP1 SWAP3 OR SWAP1 SWAP2 SSTORE PUSH1 0x6 SLOAD PUSH2 0xEA9 SWAP1 PUSH1 0x1 PUSH1 0x1 PUSH1 0xA0 SHL SUB PUSH32 0x0 DUP2 AND SWAP2 AND DUP5 PUSH2 0x1326 JUMP JUMPDEST PUSH1 0x40 MLOAD DUP3 DUP2 MSTORE CALLER SWAP1 PUSH32 0x8B80BD19AEA7B735BC6D75DB8D6ADBE18B28C30D62B3555245EB67B2340CAEDC SWAP1 PUSH1 0x20 ADD PUSH1 0x40 MLOAD DUP1 SWAP2 SUB SWAP1 LOG2 POP POP PUSH2 0x934 PUSH1 0x1 PUSH0 DUP1 MLOAD PUSH1 0x20 PUSH2 0x17DC DUP4 CODECOPY DUP2 MLOAD SWAP2 MSTORE SSTORE JUMP JUMPDEST CALLER PUSH0 SWAP1 DUP2 MSTORE PUSH1 0x1 PUSH1 0x20 DUP2 DUP2 MSTORE PUSH1 0x40 DUP1 DUP5 KECCAK256 DUP2 MLOAD PUSH1 0x80 DUP2 ADD DUP4 MSTORE DUP2 SLOAD DUP1 DUP3 MSTORE SWAP5 DUP3 ADD SLOAD SWAP4 DUP2 ADD SWAP4 SWAP1 SWAP4 MSTORE PUSH1 0x2 DUP2 ADD SLOAD SWAP2 DUP4 ADD SWAP2 SWAP1 SWAP2 MSTORE PUSH1 0x3 ADD SLOAD PUSH1 0xFF AND ISZERO ISZERO PUSH1 0x60 DUP3 ADD MSTORE SWAP1 ISZERO DUP1 PUSH2 0xF47 JUMPI POP DUP1 PUSH1 0x60 ADD MLOAD JUMPDEST ISZERO PUSH2 0xF53 JUMPI PUSH0 SWAP2 POP POP SWAP1 JUMP JUMPDEST PUSH0 PUSH2 0xF60 DUP3 PUSH0 ADD MLOAD PUSH2 0x146F JUMP JUMPDEST SWAP1 POP DUP2 PUSH1 0x20 ADD MLOAD DUP2 GT ISZERO PUSH2 0xF80 JUMPI PUSH1 0x20 DUP3 ADD MLOAD PUSH2 0xF7D SWAP1 DUP3 PUSH2 0x179E JUMP JUMPDEST SWAP3 POP JUMPDEST POP POP SWAP1 JUMP JUMPDEST PUSH0 PUSH1 0x5 SLOAD PUSH1 0x4 SLOAD PUSH2 0xF96 SWAP2 SWAP1 PUSH2 0x17B1 JUMP JUMPDEST SWAP1 POP SWAP1 JUMP JUMPDEST CALLER PUSH0 SWAP1 DUP2 MSTORE PUSH1 0x1 PUSH1 0x20 DUP2 DUP2 MSTORE PUSH1 0x40 DUP1 DUP5 KECCAK256 DUP2 MLOAD PUSH1 0x80 DUP2 ADD DUP4 MSTORE DUP2 SLOAD DUP2 MSTORE SWAP4 DUP2 ADD SLOAD SWAP3 DUP5 ADD SWAP3 SWAP1 SWAP3 MSTORE PUSH1 0x2 DUP3 ADD SLOAD SWAP1 DUP4 ADD MSTORE PUSH1 0x3 ADD SLOAD PUSH1 0xFF AND ISZERO ISZERO PUSH1 0x60 DUP3 ADD MSTORE PUSH2 0xFE3 DUP2 PUSH2 0x12D0 JUMP JUMPDEST SWAP2 POP POP SWAP1 JUMP JUMPDEST PUSH2 0xFF1 PUSH2 0x1178 JUMP JUMPDEST PUSH1 0x1 PUSH1 0x1 PUSH1 0xA0 SHL SUB DUP2 AND PUSH2 0x101F JUMPI PUSH1 0x40 MLOAD PUSH4 0x1E4FBDF7 PUSH1 0xE0 SHL DUP2 MSTORE PUSH0 PUSH1 0x4 DUP3 ADD MSTORE PUSH1 0x24 ADD JUMPDEST PUSH1 0x40 MLOAD DUP1 SWAP2 SUB SWAP1 REVERT JUMPDEST PUSH2 0x921 DUP2 PUSH2 0x13DE JUMP JUMPDEST PUSH2 0x1030 PUSH2 0x1178 JUMP JUMPDEST PUSH32 0x0 PUSH1 0x1 PUSH1 0x1 PUSH1 0xA0 SHL SUB AND DUP2 PUSH1 0x1 PUSH1 0x1 PUSH1 0xA0 SHL SUB AND SUB PUSH2 0x1082 JUMPI PUSH1 0x40 MLOAD PUSH4 0xD341791 PUSH1 0xE0 SHL DUP2 MSTORE PUSH1 0x4 ADD PUSH1 0x40 MLOAD DUP1 SWAP2 SUB SWAP1 REVERT JUMPDEST PUSH1 0x40 MLOAD PUSH4 0x70A08231 PUSH1 0xE0 SHL DUP2 MSTORE ADDRESS PUSH1 0x4 DUP3 ADD MSTORE PUSH0 SWAP1 PUSH1 0x1 PUSH1 0x1 PUSH1 0xA0 SHL SUB DUP4 AND SWAP1 PUSH4 0x70A08231 SWAP1 PUSH1 0x24 ADD PUSH1 0x20 PUSH1 0x40 MLOAD DUP1 DUP4 SUB DUP2 DUP7 GAS STATICCALL ISZERO DUP1 ISZERO PUSH2 0x10C6 JUMPI RETURNDATASIZE PUSH0 DUP1 RETURNDATACOPY RETURNDATASIZE PUSH0 REVERT JUMPDEST POP POP POP POP PUSH1 0x40 MLOAD RETURNDATASIZE PUSH1 0x1F NOT PUSH1 0x1F DUP3 ADD AND DUP3 ADD DUP1 PUSH1 0x40 MSTORE POP DUP2 ADD SWAP1 PUSH2 0x10EA SWAP2 SWAP1 PUSH2 0x17C4 JUMP JUMPDEST SWAP1 POP DUP1 PUSH0 SUB PUSH2 0x110C JUMPI PUSH1 0x40 MLOAD PUSH4 0x1F2A2005 PUSH1 0xE0 SHL DUP2 MSTORE PUSH1 0x4 ADD PUSH1 0x40 MLOAD DUP1 SWAP2 SUB SWAP1 REVERT JUMPDEST PUSH2 0x1131 PUSH2 0x1120 PUSH0 SLOAD PUSH1 0x1 PUSH1 0x1 PUSH1 0xA0 SHL SUB AND SWAP1 JUMP JUMPDEST PUSH1 0x1 PUSH1 0x1 PUSH1 0xA0 SHL SUB DUP5 AND SWAP1 DUP4 PUSH2 0x1326 JUMP JUMPDEST DUP2 PUSH1 0x1 PUSH1 0x1 PUSH1 0xA0 SHL SUB AND PUSH32 0x3CF91549202759AA28B4CCEF6ACCDB58B06E1BDEBC31F84E43A225A809A048D2 DUP3 PUSH1 0x40 MLOAD PUSH2 0x116C SWAP2 DUP2 MSTORE PUSH1 0x20 ADD SWAP1 JUMP JUMPDEST PUSH1 0x40 MLOAD DUP1 SWAP2 SUB SWAP1 LOG2 POP POP JUMP JUMPDEST PUSH0 SLOAD PUSH1 0x1 PUSH1 0x1 PUSH1 0xA0 SHL SUB AND CALLER EQ PUSH2 0x934 JUMPI PUSH1 0x40 MLOAD PUSH4 0x118CDAA7 PUSH1 0xE0 SHL DUP2 MSTORE CALLER PUSH1 0x4 DUP3 ADD MSTORE PUSH1 0x24 ADD PUSH2 0x1016 JUMP JUMPDEST PUSH2 0x11AC PUSH2 0x1571 JUMP JUMPDEST PUSH1 0x2 PUSH0 DUP1 MLOAD PUSH1 0x20 PUSH2 0x17DC DUP4 CODECOPY DUP2 MLOAD SWAP2 MSTORE SSTORE JUMP JUMPDEST PUSH1 0x3 DUP1 SLOAD PUSH1 0xFF NOT AND PUSH1 0x1 OR SWAP1 SSTORE PUSH1 0x40 MLOAD PUSH4 0x70A08231 PUSH1 0xE0 SHL DUP2 MSTORE ADDRESS PUSH1 0x4 DUP3 ADD MSTORE PUSH0 SWAP1 PUSH1 0x1 PUSH1 0x1 PUSH1 0xA0 SHL SUB PUSH32 0x0 AND SWAP1 PUSH4 0x70A08231 SWAP1 PUSH1 0x24 ADD PUSH1 0x20 PUSH1 0x40 MLOAD DUP1 DUP4 SUB DUP2 DUP7 GAS STATICCALL ISZERO DUP1 ISZERO PUSH2 0x1230 JUMPI RETURNDATASIZE PUSH0 DUP1 RETURNDATACOPY RETURNDATASIZE PUSH0 REVERT JUMPDEST POP POP POP POP PUSH1 0x40 MLOAD RETURNDATASIZE PUSH1 0x1F NOT PUSH1 0x1F DUP3 ADD AND DUP3 ADD DUP1 PUSH1 0x40 MSTORE POP DUP2 ADD SWAP1 PUSH2 0x1254 SWAP2 SWAP1 PUSH2 0x17C4 JUMP JUMPDEST SWAP1 POP DUP1 ISZERO PUSH2 0x921 JUMPI PUSH2 0x1290 PUSH1 0x1 PUSH1 0x1 PUSH1 0xA0 SHL SUB PUSH32 0x0 AND PUSH0 DUP4 PUSH2 0x1326 JUMP JUMPDEST PUSH1 0x5 DUP2 SWAP1 SSTORE PUSH1 0x40 DUP1 MLOAD DUP3 DUP2 MSTORE TIMESTAMP PUSH1 0x20 DUP3 ADD MSTORE PUSH32 0x1367A80F8266C25EF54F82FCC1E4A8EB1C658801B98E56646CB0DA2A7398AC22 SWAP2 ADD PUSH1 0x40 MLOAD DUP1 SWAP2 SUB SWAP1 LOG1 POP JUMP JUMPDEST DUP1 MLOAD PUSH0 SWAP1 ISZERO DUP1 PUSH2 0x12E1 JUMPI POP DUP2 PUSH1 0x60 ADD MLOAD JUMPDEST ISZERO PUSH2 0x12ED JUMPI POP PUSH0 SWAP2 SWAP1 POP JUMP JUMPDEST PUSH0 PUSH2 0x12FA DUP4 PUSH0 ADD MLOAD PUSH2 0x146F JUMP JUMPDEST DUP4 MLOAD SWAP1 SWAP2 POP PUSH2 0x130A SWAP1 DUP3 SWAP1 PUSH2 0x179E JUMP JUMPDEST SWAP2 POP DUP3 PUSH1 0x40 ADD MLOAD DUP3 GT ISZERO PUSH2 0x1320 JUMPI DUP3 PUSH1 0x40 ADD MLOAD SWAP2 POP JUMPDEST POP SWAP2 SWAP1 POP JUMP JUMPDEST PUSH2 0x1333 DUP4 DUP4 DUP4 PUSH1 0x1 PUSH2 0x15A0 JUMP JUMPDEST PUSH2 0x135B JUMPI PUSH1 0x40 MLOAD PUSH4 0x5274AFE7 PUSH1 0xE0 SHL DUP2 MSTORE PUSH1 0x1 PUSH1 0x1 PUSH1 0xA0 SHL SUB DUP5 AND PUSH1 0x4 DUP3 ADD MSTORE PUSH1 0x24 ADD PUSH2 0x1016 JUMP JUMPDEST POP POP POP JUMP JUMPDEST PUSH2 0x1368 PUSH2 0x1602 JUMP JUMPDEST PUSH0 DUP1 SLOAD PUSH1 0xFF PUSH1 0xA0 SHL NOT AND SWAP1 SSTORE PUSH32 0x5DB9EE0A495BF2E6FF9C91A7834C1BA4FDD244A5E8AA4E537BD38AEAE4B073AA CALLER JUMPDEST PUSH1 0x40 MLOAD PUSH1 0x1 PUSH1 0x1 PUSH1 0xA0 SHL SUB SWAP1 SWAP2 AND DUP2 MSTORE PUSH1 0x20 ADD PUSH1 0x40 MLOAD DUP1 SWAP2 SUB SWAP1 LOG1 JUMP JUMPDEST PUSH0 SLOAD PUSH1 0x1 PUSH1 0xA0 SHL SWAP1 DIV PUSH1 0xFF AND ISZERO PUSH2 0x934 JUMPI PUSH1 0x40 MLOAD PUSH4 0xD93C0665 PUSH1 0xE0 SHL DUP2 MSTORE PUSH1 0x4 ADD PUSH1 0x40 MLOAD DUP1 SWAP2 SUB SWAP1 REVERT JUMPDEST PUSH0 DUP1 SLOAD PUSH1 0x1 PUSH1 0x1 PUSH1 0xA0 SHL SUB DUP4 DUP2 AND PUSH1 0x1 PUSH1 0x1 PUSH1 0xA0 SHL SUB NOT DUP4 AND DUP2 OR DUP5 SSTORE PUSH1 0x40 MLOAD SWAP2 SWAP1 SWAP3 AND SWAP3 DUP4 SWAP2 PUSH32 0x8BE0079C531659141344CD1FD0A4F28419497F9722A3DAAFE3B4186F6B6457E0 SWAP2 SWAP1 LOG3 POP POP JUMP JUMPDEST PUSH2 0x1435 PUSH2 0x13B4 JUMP JUMPDEST PUSH0 DUP1 SLOAD PUSH1 0xFF PUSH1 0xA0 SHL NOT AND PUSH1 0x1 PUSH1 0xA0 SHL OR SWAP1 SSTORE PUSH32 0x62E78CEA01BEE320CD4E420270B5EA74000D11B0C9F74754EBDBFC544B05A258 PUSH2 0x1397 CALLER SWAP1 JUMP JUMPDEST PUSH0 DUP1 PUSH2 0x2710 PUSH2 0x149E PUSH32 0x0 DUP6 PUSH2 0x1762 JUMP JUMPDEST PUSH2 0x14A8 SWAP2 SWAP1 PUSH2 0x177F JUMP JUMPDEST SWAP1 POP PUSH0 PUSH2 0x14B5 DUP3 DUP6 PUSH2 0x179E JUMP JUMPDEST SWAP1 POP PUSH32 0x0 TIMESTAMP LT ISZERO PUSH2 0x14E6 JUMPI POP SWAP3 SWAP2 POP POP JUMP JUMPDEST PUSH32 0x0 TIMESTAMP LT PUSH2 0x1515 JUMPI POP SWAP2 SWAP3 SWAP2 POP POP JUMP JUMPDEST PUSH0 PUSH2 0x1540 PUSH32 0x0 TIMESTAMP PUSH2 0x179E JUMP JUMPDEST SWAP1 POP PUSH0 PUSH3 0x375F00 PUSH2 0x1551 DUP4 DUP6 PUSH2 0x1762 JUMP JUMPDEST PUSH2 0x155B SWAP2 SWAP1 PUSH2 0x177F JUMP JUMPDEST SWAP1 POP PUSH2 0x1567 DUP2 DUP6 PUSH2 0x17B1 JUMP JUMPDEST SWAP7 SWAP6 POP POP POP POP POP POP JUMP JUMPDEST PUSH0 DUP1 MLOAD PUSH1 0x20 PUSH2 0x17DC DUP4 CODECOPY DUP2 MLOAD SWAP2 MSTORE SLOAD PUSH1 0x2 SUB PUSH2 0x934 JUMPI PUSH1 0x40 MLOAD PUSH4 0x3EE5AEB5 PUSH1 0xE0 SHL DUP2 MSTORE PUSH1 0x4 ADD PUSH1 0x40 MLOAD DUP1 SWAP2 SUB SWAP1 REVERT JUMPDEST PUSH1 0x40 MLOAD PUSH4 0xA9059CBB PUSH1 0xE0 SHL PUSH0 DUP2 DUP2 MSTORE PUSH1 0x1 PUSH1 0x1 PUSH1 0xA0 SHL SUB DUP7 AND PUSH1 0x4 MSTORE PUSH1 0x24 DUP6 SWAP1 MSTORE SWAP2 PUSH1 0x20 DUP4 PUSH1 0x44 DUP2 DUP1 DUP12 GAS CALL SWAP3 POP PUSH1 0x1 PUSH0 MLOAD EQ DUP4 AND PUSH2 0x15F6 JUMPI DUP4 DUP4 ISZERO AND ISZERO PUSH2 0x15EA JUMPI RETURNDATASIZE PUSH0 DUP3 RETURNDATACOPY RETURNDATASIZE DUP2 REVERT JUMPDEST PUSH0 DUP8 EXTCODESIZE GT RETURNDATASIZE ISZERO AND DUP4 AND SWAP3 POP JUMPDEST PUSH1 0x40 MSTORE POP SWAP5 SWAP4 POP POP POP POP JUMP JUMPDEST PUSH0 SLOAD PUSH1 0x1 PUSH1 0xA0 SHL SWAP1 DIV PUSH1 0xFF AND PUSH2 0x934 JUMPI PUSH1 0x40 MLOAD PUSH4 0x8DFC202B PUSH1 0xE0 SHL DUP2 MSTORE PUSH1 0x4 ADD PUSH1 0x40 MLOAD DUP1 SWAP2 SUB SWAP1 REVERT JUMPDEST PUSH1 0x1 PUSH1 0x1 PUSH1 0xA0 SHL SUB DUP2 AND DUP2 EQ PUSH2 0x921 JUMPI PUSH0 DUP1 REVERT JUMPDEST PUSH0 PUSH1 0x20 DUP3 DUP5 SUB SLT ISZERO PUSH2 0x164F JUMPI PUSH0 DUP1 REVERT JUMPDEST DUP2 CALLDATALOAD PUSH2 0x165A DUP2 PUSH2 0x162B JUMP JUMPDEST SWAP4 SWAP3 POP POP POP JUMP JUMPDEST PUSH0 DUP1 DUP4 PUSH1 0x1F DUP5 ADD SLT PUSH2 0x1671 JUMPI PUSH0 DUP1 REVERT JUMPDEST POP DUP2 CALLDATALOAD PUSH8 0xFFFFFFFFFFFFFFFF DUP2 GT ISZERO PUSH2 0x1688 JUMPI PUSH0 DUP1 REVERT JUMPDEST PUSH1 0x20 DUP4 ADD SWAP2 POP DUP4 PUSH1 0x20 DUP3 PUSH1 0x5 SHL DUP6 ADD ADD GT ISZERO PUSH2 0x16A2 JUMPI PUSH0 DUP1 REVERT JUMPDEST SWAP3 POP SWAP3 SWAP1 POP JUMP JUMPDEST PUSH0 DUP1 PUSH0 DUP1 PUSH1 0x40 DUP6 DUP8 SUB SLT ISZERO PUSH2 0x16BC JUMPI PUSH0 DUP1 REVERT JUMPDEST DUP5 CALLDATALOAD PUSH8 0xFFFFFFFFFFFFFFFF DUP1 DUP3 GT ISZERO PUSH2 0x16D3 JUMPI PUSH0 DUP1 REVERT JUMPDEST PUSH2 0x16DF DUP9 DUP4 DUP10 ADD PUSH2 0x1661 JUMP JUMPDEST SWAP1 SWAP7 POP SWAP5 POP PUSH1 0x20 DUP8 ADD CALLDATALOAD SWAP2 POP DUP1 DUP3 GT ISZERO PUSH2 0x16F7 JUMPI PUSH0 DUP1 REVERT JUMPDEST POP PUSH2 0x1704 DUP8 DUP3 DUP9 ADD PUSH2 0x1661 JUMP JUMPDEST SWAP6 SWAP9 SWAP5 SWAP8 POP SWAP6 POP POP POP POP JUMP JUMPDEST PUSH0 DUP1 PUSH1 0x40 DUP4 DUP6 SUB SLT ISZERO PUSH2 0x1721 JUMPI PUSH0 DUP1 REVERT JUMPDEST DUP3 CALLDATALOAD PUSH2 0x172C DUP2 PUSH2 0x162B JUMP JUMPDEST SWAP5 PUSH1 0x20 SWAP4 SWAP1 SWAP4 ADD CALLDATALOAD SWAP4 POP POP POP JUMP JUMPDEST PUSH4 0x4E487B71 PUSH1 0xE0 SHL PUSH0 MSTORE PUSH1 0x32 PUSH1 0x4 MSTORE PUSH1 0x24 PUSH0 REVERT JUMPDEST PUSH4 0x4E487B71 PUSH1 0xE0 SHL PUSH0 MSTORE PUSH1 0x11 PUSH1 0x4 MSTORE PUSH1 0x24 PUSH0 REVERT JUMPDEST DUP1 DUP3 MUL DUP2 ISZERO DUP3 DUP3 DIV DUP5 EQ OR PUSH2 0x1779 JUMPI PUSH2 0x1779 PUSH2 0x174E JUMP JUMPDEST SWAP3 SWAP2 POP POP JUMP JUMPDEST PUSH0 DUP3 PUSH2 0x1799 JUMPI PUSH4 0x4E487B71 PUSH1 0xE0 SHL PUSH0 MSTORE PUSH1 0x12 PUSH1 0x4 MSTORE PUSH1 0x24 PUSH0 REVERT JUMPDEST POP DIV SWAP1 JUMP JUMPDEST DUP2 DUP2 SUB DUP2 DUP2 GT ISZERO PUSH2 0x1779 JUMPI PUSH2 0x1779 PUSH2 0x174E JUMP JUMPDEST DUP1 DUP3 ADD DUP1 DUP3 GT ISZERO PUSH2 0x1779 JUMPI PUSH2 0x1779 PUSH2 0x174E JUMP JUMPDEST PUSH0 PUSH1 0x20 DUP3 DUP5 SUB SLT ISZERO PUSH2 0x17D4 JUMPI PUSH0 DUP1 REVERT JUMPDEST POP MLOAD SWAP2 SWAP1 POP JUMP INVALID SWAP12 PUSH24 0x9B17422D0DF92223018B32B4D1FA46E071723D6817E2486D STOP EXTCODESIZE 0xEC 0xC5 PUSH0 STOP LOG2 PUSH5 0x6970667358 0x22 SLT KECCAK256 0xAD SWAP16 RETURN 0xCF PUSH17 0xBB4A3616FD6236DA8518473FF043B95395 DUP12 0xD JUMPI 0xFB 0x4F 0xC7 PUSH15 0xD5427064736F6C6343000818003300 "
				},
				"gasEstimates": {
					"creation": {
						"codeDepositCost": "1238600",
						"executionCost": "infinite",
						"totalCost": "infinite"
					},
					"external": {
						"AIRDROP_DURATION()": "240",
						"AIRDROP_END()": "infinite",
						"TGE_UNLOCK_BPS()": "infinite",
						"TOKEN()": "infinite",
						"VESTING_START()": "infinite",
						"activateMigration(address)": "32317",
						"autoBurned()": "2354",
						"claim()": "infinite",
						"claimable()": "infinite",
						"finalize()": "27399",
						"getAllocation()": "8889",
						"isFinalized()": "2416",
						"migrate()": "infinite",
						"migrationActive()": "2393",
						"migrationContract()": "2427",
						"owner()": "2374",
						"participantCount()": "2403",
						"pause()": "infinite",
						"paused()": "2386",
						"renounceOwnership()": "infinite",
						"rescueNonAirdropTokens(address)": "infinite",
						"revokeVesting(address)": "infinite",
						"revokeVestingPartial(address,uint256)": "infinite",
						"setAllocations(address[],uint256[])": "infinite",
						"totalAutoBurned()": "2384",
						"totalBurned()": "4602",
						"totalRevokedBurned()": "2405",
						"transferOwnership(address)": "infinite",
						"unpause()": "infinite",
						"unvestedAmount()": "infinite"
					},
					"internal": {
						"_executeAutoBurn()": "infinite",
						"_getTotalAvailable(uint256)": "infinite",
						"_getUnvestedAmount(struct HybridAirdrop.Allocation memory)": "infinite"
					}
				},
				"methodIdentifiers": {
					"AIRDROP_DURATION()": "17fd045f",
					"AIRDROP_END()": "f30f40a8",
					"TGE_UNLOCK_BPS()": "d2b8abb8",
					"TOKEN()": "82bfefc8",
					"VESTING_START()": "cfd11c4f",
					"activateMigration(address)": "0fc2fd4c",
					"autoBurned()": "5447c35c",
					"claim()": "4e71d92d",
					"claimable()": "af38d757",
					"finalize()": "4bb278f3",
					"getAllocation()": "0c9e1e8e",
					"isFinalized()": "8d4e4083",
					"migrate()": "8fd3ab80",
					"migrationActive()": "8ed6b016",
					"migrationContract()": "0fee1a20",
					"owner()": "8da5cb5b",
					"participantCount()": "362f04c0",
					"pause()": "8456cb59",
					"paused()": "5c975abb",
					"renounceOwnership()": "715018a6",
					"rescueNonAirdropTokens(address)": "f9344395",
					"revokeVesting(address)": "3b0da260",
					"revokeVestingPartial(address,uint256)": "7216bafc",
					"setAllocations(address[],uint256[])": "1ff64acd",
					"totalAutoBurned()": "2d57a680",
					"totalBurned()": "d89135cd",
					"totalRevokedBurned()": "a35061b9",
					"transferOwnership(address)": "f2fde38b",
					"unpause()": "3f4ba83a",
					"unvestedAmount()": "d950975a"
				}
			},
			"storageLayout": {
				"storage": [
					{
						"astId": 8,
						"contract": "Smart-Contracts/PNJC_Airdrop.sol:HybridAirdrop",
						"label": "_owner",
						"offset": 0,
						"slot": "0",
						"type": "t_address"
					},
					{
						"astId": 809,
						"contract": "Smart-Contracts/PNJC_Airdrop.sol:HybridAirdrop",
						"label": "_paused",
						"offset": 20,
						"slot": "0",
						"type": "t_bool"
					},
					{
						"astId": 1208,
						"contract": "Smart-Contracts/PNJC_Airdrop.sol:HybridAirdrop",
						"label": "_allocations",
						"offset": 0,
						"slot": "1",
						"type": "t_mapping(t_address,t_struct(Allocation)1188_storage)"
					},
					{
						"astId": 1211,
						"contract": "Smart-Contracts/PNJC_Airdrop.sol:HybridAirdrop",
						"label": "_participants",
						"offset": 0,
						"slot": "2",
						"type": "t_array(t_address)dyn_storage"
					},
					{
						"astId": 1213,
						"contract": "Smart-Contracts/PNJC_Airdrop.sol:HybridAirdrop",
						"label": "autoBurned",
						"offset": 0,
						"slot": "3",
						"type": "t_bool"
					},
					{
						"astId": 1215,
						"contract": "Smart-Contracts/PNJC_Airdrop.sol:HybridAirdrop",
						"label": "totalRevokedBurned",
						"offset": 0,
						"slot": "4",
						"type": "t_uint256"
					},
					{
						"astId": 1217,
						"contract": "Smart-Contracts/PNJC_Airdrop.sol:HybridAirdrop",
						"label": "totalAutoBurned",
						"offset": 0,
						"slot": "5",
						"type": "t_uint256"
					},
					{
						"astId": 1219,
						"contract": "Smart-Contracts/PNJC_Airdrop.sol:HybridAirdrop",
						"label": "migrationContract",
						"offset": 0,
						"slot": "6",
						"type": "t_address"
					},
					{
						"astId": 1221,
						"contract": "Smart-Contracts/PNJC_Airdrop.sol:HybridAirdrop",
						"label": "migrationActive",
						"offset": 20,
						"slot": "6",
						"type": "t_bool"
					},
					{
						"astId": 1223,
						"contract": "Smart-Contracts/PNJC_Airdrop.sol:HybridAirdrop",
						"label": "isFinalized",
						"offset": 21,
						"slot": "6",
						"type": "t_bool"
					}
				],
				"types": {
					"t_address": {
						"encoding": "inplace",
						"label": "address",
						"numberOfBytes": "20"
					},
					"t_array(t_address)dyn_storage": {
						"base": "t_address",
						"encoding": "dynamic_array",
						"label": "address[]",
						"numberOfBytes": "32"
					},
					"t_bool": {
						"encoding": "inplace",
						"label": "bool",
						"numberOfBytes": "1"
					},
					"t_mapping(t_address,t_struct(Allocation)1188_storage)": {
						"encoding": "mapping",
						"key": "t_address",
						"label": "mapping(address => struct HybridAirdrop.Allocation)",
						"numberOfBytes": "32",
						"value": "t_struct(Allocation)1188_storage"
					},
					"t_struct(Allocation)1188_storage": {
						"encoding": "inplace",
						"label": "struct HybridAirdrop.Allocation",
						"members": [
							{
								"astId": 1181,
								"contract": "Smart-Contracts/PNJC_Airdrop.sol:HybridAirdrop",
								"label": "totalAmount",
								"offset": 0,
								"slot": "0",
								"type": "t_uint256"
							},
							{
								"astId": 1183,
								"contract": "Smart-Contracts/PNJC_Airdrop.sol:HybridAirdrop",
								"label": "claimedAmount",
								"offset": 0,
								"slot": "1",
								"type": "t_uint256"
							},
							{
								"astId": 1185,
								"contract": "Smart-Contracts/PNJC_Airdrop.sol:HybridAirdrop",
								"label": "revocableAmount",
								"offset": 0,
								"slot": "2",
								"type": "t_uint256"
							},
							{
								"astId": 1187,
								"contract": "Smart-Contracts/PNJC_Airdrop.sol:HybridAirdrop",
								"label": "burned",
								"offset": 0,
								"slot": "3",
								"type": "t_bool"
							}
						],
						"numberOfBytes": "128"
					},
					"t_uint256": {
						"encoding": "inplace",
						"label": "uint256",
						"numberOfBytes": "32"
					}
				}
			},
			"userdoc": {
				"kind": "user",
				"methods": {},
				"version": 1
			}
		}
	}
}