{
	"data": {
		"bytecode": {
			"linkReferences": {},
			"object": "61010060405234801562000011575f80fd5b5060405162001a9b38038062001a9b833981016040819052620000349162000158565b33806200005a57604051631e4fbdf760e01b81525f600482015260240160405180910390fd5b620000658162000109565b5060017f9b779b17422d0df92223018b32b4d1fa46e071723d6817e2486d003becc55f00556001600160a01b038316620000b2576040516342bcdf7f60e11b815260040160405180910390fd5b612710811115620000d657604051633869b3b360e11b815260040160405180910390fd5b6001600160a01b03831660805260a082905260c0819052620000fc62375f008362000199565b60e05250620001bf915050565b5f80546001600160a01b038381166001600160a01b0319831681178455604051919092169283917f8be0079c531659141344cd1fd0a4f28419497f9722a3daafe3b4186f6b6457e09190a35050565b5f805f606084860312156200016b575f80fd5b83516001600160a01b038116811462000182575f80fd5b602085015160409095015190969495509392505050565b80820180821115620001b957634e487b7160e01b5f52601160045260245ffd5b92915050565b60805160a05160c05160e0516118316200026a5f395f8181610421015281816107700152818161098d01528181610b9201528181610d8a01526114e801525f81816103d701528181610673015261147901525f81816103b0015281816114b9015261151b01525f81816103300152818161088e01528181610a3801528181610afc01528181610cd101528181610e8001528181611032015281816111eb015261126901526118315ff3fe608060405234801561000f575f80fd5b50600436106101d1575f3560e01c806382bfefc8116100fe578063af38d7571161009e578063d950975a1161006e578063d950975a14610401578063f2fde38b14610409578063f30f40a81461041c578063f934439514610443575f80fd5b8063af38d757146103a3578063cfd11c4f146103ab578063d2b8abb8146103d2578063d89135cd146103f9575f80fd5b80638da5cb5b116100d95780638da5cb5b1461036e5780638ed6b0161461037e5780638fd3ab8014610392578063a35061b91461039a575f80fd5b806382bfefc81461032b5780638456cb59146103525780638d4e40831461035a575f80fd5b80633b0da260116101745780635447c35c116101445780635447c35c146102e25780635c975abb146102ff578063715018a6146103105780637216bafc14610318575f80fd5b80633b0da260146102b75780633f4ba83a146102ca5780634bb278f3146102d25780634e71d92d146102da575f80fd5b806317fd045f116101af57806317fd045f1461027b5780631ff64acd146102935780632d57a680146102a6578063362f04c0146102af575f80fd5b80630c9e1e8e146101d55780630fc2fd4c1461023b5780630fee1a2014610250575b5f80fd5b335f90815260016020818152604092839020835160808082018652825480835294830154828501819052600284015483880181905260039094015460ff161515606093840181905287519687529486015294840191909152820152015b60405180910390f35b61024e61024936600461163f565b610456565b005b600654610263906001600160a01b031681565b6040516001600160a01b039091168152602001610232565b61028562375f0081565b604051908152602001610232565b61024e6102a13660046116a9565b61053f565b61028560055481565b600254610285565b61024e6102c536600461163f565b61075e565b61024e610924565b61024e610936565b61024e61097b565b6003546102ef9060ff1681565b6040519015158152602001610232565b5f54600160a01b900460ff166102ef565b61024e610b6f565b61024e610326366004611710565b610b80565b6102637f000000000000000000000000000000000000000000000000000000000000000081565b61024e610d68565b6006546102ef90600160a81b900460ff1681565b5f546001600160a01b0316610263565b6006546102ef90600160a01b900460ff1681565b61024e610d78565b61028560045481565b610285610ef6565b6102857f000000000000000000000000000000000000000000000000000000000000000081565b6102857f000000000000000000000000000000000000000000000000000000000000000081565b610285610f85565b610285610f9b565b61024e61041736600461163f565b610fe9565b6102857f000000000000000000000000000000000000000000000000000000000000000081565b61024e61045136600461163f565b611028565b61045e611178565b600654600160a81b900460ff161561048957604051634e35638160e11b815260040160405180910390fd5b600654600160a01b900460ff16156104b4576040516307f88b3360e21b815260040160405180910390fd5b6001600160a01b03811615806104d257506001600160a01b03811630145b156104f0576040516342bcdf7f60e11b815260040160405180910390fd5b600680546001600160a81b0319166001600160a01b038316908117600160a01b179091556040517f92b5eb20e7f70b6b205924d72c26c45f05a063424792be21a87858495cd80297905f90a250565b610547611178565b828181146105685760405163512509d360e11b815260040160405180910390fd5b5f5b81811015610756575f8686838181106105855761058561173a565b905060200201602081019061059a919061163f565b90505f8585848181106105af576105af61173a565b60200291909101359150506001600160a01b0382166105e1576040516342bcdf7f60e11b815260040160405180910390fd5b805f0361060157604051631f2a200560e01b815260040160405180910390fd5b6001600160a01b0382165f90815260016020526040812054900361066a57600280546001810182555f919091527f405787fa12a823e0f2b7631cc41b3ba8828b3321ca811111fa75cd3aa3bb5ace0180546001600160a01b0319166001600160a01b0384161790555b5f6127106106987f000000000000000000000000000000000000000000000000000000000000000084611762565b6106a2919061177f565b90505f6106af828461179e565b604080516080810182528581525f6020808301828152838501868152606085018481526001600160a01b038c168086526001808652958890209651875592519486019490945551600285015591516003909301805460ff191693151593909317909255915186815292935090917fedfc909d0ab2a1625b7911d925efbd8200cdd99d4c7ba44e720328b17879f0b3910160405180910390a28460010194505050505061056a565b505050505050565b610766611178565b61076e6111a4565b7f000000000000000000000000000000000000000000000000000000000000000042101580156107a1575060035460ff16155b156107ae576107ae6111bf565b600654600160a81b900460ff16156107d957604051634e35638160e11b815260040160405180910390fd5b6001600160a01b0381165f9081526001602081815260408084208151608081018352815481529381015492840192909252600282015490830152600381015460ff1615156060830152919061082d906112d0565b9050805f0361084f5760405163200c44cf60e21b815260040160405180910390fd5b80825f015f828254610861919061179e565b9250508190555080826002015f82825461087b919061179e565b909155506108b590506001600160a01b037f0000000000000000000000000000000000000000000000000000000000000000165f83611326565b8060045f8282546108c691906117b1565b90915550506040518181526001600160a01b038416907fca0351860ce2a85bc712861683dcb64560614677682c40a81c25fcfcc2e551c19060200160405180910390a2505061092160015f805160206117dc83398151915255565b50565b61092c611178565b610934611360565b565b61093e611178565b6006805460ff60a81b1916600160a81b1790556040517f6823b073d48d6e3a7d385eeb601452d680e74bb46afe3255a7d778f3a9b17681905f90a1565b6109836111a4565b61098b6113b4565b7f000000000000000000000000000000000000000000000000000000000000000042101580156109be575060035460ff16155b156109cb576109cb6111bf565b600654600160a81b900460ff16156109f657604051634e35638160e11b815260040160405180910390fd5b5f6109ff610ef6565b9050805f03610a21576040516312d37ee560e31b815260040160405180910390fd5b6040516370a0823160e01b815230600482015281907f00000000000000000000000000000000000000000000000000000000000000006001600160a01b0316906370a0823190602401602060405180830381865afa158015610a85573d5f803e3d5ffd5b505050506040513d601f19601f82011682018060405250810190610aa991906117c4565b1015610ac85760405163786e0a9960e01b815260040160405180910390fd5b335f9081526001602081905260408220018054839290610ae99084906117b1565b90915550610b2390506001600160a01b037f0000000000000000000000000000000000000000000000000000000000000000163383611326565b60405181815233907f896e034966eaaf1adc54acc0f257056febbd300c9e47182cf761982cf1f5e4309060200160405180910390a25061093460015f805160206117dc83398151915255565b610b77611178565b6109345f6113de565b610b88611178565b610b906111a4565b7f00000000000000000000000000000000000000000000000000000000000000004210158015610bc3575060035460ff16155b15610bd057610bd06111bf565b600654600160a81b900460ff1615610bfb57604051634e35638160e11b815260040160405180910390fd5b805f03610c1b57604051631f2a200560e01b815260040160405180910390fd5b6001600160a01b0382165f9081526001602081815260408084208151608081018352815481529381015492840192909252600282015490830152600381015460ff16151560608301529190610c6f906112d0565b905080831115610c925760405163dccabd3560e01b815260040160405180910390fd5b82825f015f828254610ca4919061179e565b9250508190555082826002015f828254610cbe919061179e565b90915550610cf890506001600160a01b037f0000000000000000000000000000000000000000000000000000000000000000165f85611326565b8260045f828254610d0991906117b1565b90915550506040518381526001600160a01b038516907fca0351860ce2a85bc712861683dcb64560614677682c40a81c25fcfcc2e551c19060200160405180910390a25050610d6460015f805160206117dc83398151915255565b5050565b610d70611178565b61093461142d565b610d806111a4565b610d886113b4565b7f00000000000000000000000000000000000000000000000000000000000000004210158015610dbb575060035460ff16155b15610dc857610dc86111bf565b600654600160a81b900460ff1615610df357604051634e35638160e11b815260040160405180910390fd5b600654600160a01b900460ff16610e1d57604051631e8a0cbf60e11b815260040160405180910390fd5b5f610e26610ef6565b9050805f03610e48576040516312d37ee560e31b815260040160405180910390fd5b335f90815260016020819052604090912080548183015560038101805460ff1916909217909155600654610ea9906001600160a01b037f00000000000000000000000000000000000000000000000000000000000000008116911684611326565b60405182815233907f8b80bd19aea7b735bc6d75db8d6adbe18b28c30d62b3555245eb67b2340caedc9060200160405180910390a2505061093460015f805160206117dc83398151915255565b335f9081526001602081815260408084208151608081018352815480825294820154938101939093526002810154918301919091526003015460ff1615156060820152901580610f47575080606001515b15610f53575f91505090565b5f610f60825f015161146f565b90508160200151811115610f80576020820151610f7d908261179e565b92505b505090565b5f600554600454610f9691906117b1565b905090565b335f90815260016020818152604080842081516080810183528154815293810154928401929092526002820154908301526003015460ff1615156060820152610fe3816112d0565b91505090565b610ff1611178565b6001600160a01b03811661101f57604051631e4fbdf760e01b81525f60048201526024015b60405180910390fd5b610921816113de565b611030611178565b7f00000000000000000000000000000000000000000000000000000000000000006001600160a01b0316816001600160a01b03160361108257604051630d34179160e01b815260040160405180910390fd5b6040516370a0823160e01b81523060048201525f906001600160a01b038316906370a0823190602401602060405180830381865afa1580156110c6573d5f803e3d5ffd5b505050506040513d601f19601f820116820180604052508101906110ea91906117c4565b9050805f0361110c57604051631f2a200560e01b815260040160405180910390fd5b6111316111205f546001600160a01b031690565b6001600160a01b0384169083611326565b816001600160a01b03167f3cf91549202759aa28b4ccef6accdb58b06e1bdebc31f84e43a225a809a048d28260405161116c91815260200190565b60405180910390a25050565b5f546001600160a01b031633146109345760405163118cdaa760e01b8152336004820152602401611016565b6111ac611571565b60025f805160206117dc83398151915255565b6003805460ff191660011790556040516370a0823160e01b81523060048201525f906001600160a01b037f000000000000000000000000000000000000000000000000000000000000000016906370a0823190602401602060405180830381865afa158015611230573d5f803e3d5ffd5b505050506040513d601f19601f8201168201806040525081019061125491906117c4565b90508015610921576112906001600160a01b037f0000000000000000000000000000000000000000000000000000000000000000165f83611326565b6005819055604080518281524260208201527f1367a80f8266c25ef54f82fcc1e4a8eb1c658801b98e56646cb0da2a7398ac22910160405180910390a150565b80515f9015806112e1575081606001515b156112ed57505f919050565b5f6112fa835f015161146f565b835190915061130a90829061179e565b9150826040015182111561132057826040015191505b50919050565b61133383838360016115a0565b61135b57604051635274afe760e01b81526001600160a01b0384166004820152602401611016565b505050565b611368611602565b5f805460ff60a01b191690557f5db9ee0a495bf2e6ff9c91a7834c1ba4fdd244a5e8aa4e537bd38aeae4b073aa335b6040516001600160a01b03909116815260200160405180910390a1565b5f54600160a01b900460ff16156109345760405163d93c066560e01b815260040160405180910390fd5b5f80546001600160a01b038381166001600160a01b0319831681178455604051919092169283917f8be0079c531659141344cd1fd0a4f28419497f9722a3daafe3b4186f6b6457e09190a35050565b6114356113b4565b5f805460ff60a01b1916600160a01b1790557f62e78cea01bee320cd4e420270b5ea74000d11b0c9f74754ebdbfc544b05a2586113973390565b5f8061271061149e7f000000000000000000000000000000000000000000000000000000000000000085611762565b6114a8919061177f565b90505f6114b5828561179e565b90507f00000000000000000000000000000000000000000000000000000000000000004210156114e6575092915050565b7f0000000000000000000000000000000000000000000000000000000000000000421061151557509192915050565b5f6115407f00000000000000000000000000000000000000000000000000000000000000004261179e565b90505f62375f006115518385611762565b61155b919061177f565b905061156781856117b1565b9695505050505050565b5f805160206117dc8339815191525460020361093457604051633ee5aeb560e01b815260040160405180910390fd5b60405163a9059cbb60e01b5f8181526001600160a01b038616600452602485905291602083604481808b5af1925060015f511483166115f65783831516156115ea573d5f823e3d81fd5b5f873b113d1516831692505b60405250949350505050565b5f54600160a01b900460ff1661093457604051638dfc202b60e01b815260040160405180910390fd5b6001600160a01b0381168114610921575f80fd5b5f6020828403121561164f575f80fd5b813561165a8161162b565b9392505050565b5f8083601f840112611671575f80fd5b50813567ffffffffffffffff811115611688575f80fd5b6020830191508360208260051b85010111156116a2575f80fd5b9250929050565b5f805f80604085870312156116bc575f80fd5b843567ffffffffffffffff808211156116d3575f80fd5b6116df88838901611661565b909650945060208701359150808211156116f7575f80fd5b5061170487828801611661565b95989497509550505050565b5f8060408385031215611721575f80fd5b823561172c8161162b565b946020939093013593505050565b634e487b7160e01b5f52603260045260245ffd5b634e487b7160e01b5f52601160045260245ffd5b80820281158282048414176117795761177961174e565b92915050565b5f8261179957634e487b7160e01b5f52601260045260245ffd5b500490565b818103818111156117795761177961174e565b808201808211156117795761177961174e565b5f602082840312156117d4575f80fd5b505191905056fe9b779b17422d0df92223018b32b4d1fa46e071723d6817e2486d003becc55f00a2646970667358221220ad9ff3cf70bb4a3616fd6236da8518473ff043b953958b0d57fb4fc76ed5427064736f6c63430008180033",
			"opcodes": "PUSH2 0x100 PUSH1 0x40 MSTORE CALLVALUE DUP1 ISZERO PUSH3 0x11 JUMPI PUSH0 DUP1 REVERT JUMPDEST POP PUSH1 0x40 MLOAD PUSH3 0x1A9B CODESIZE SUB DUP1 PUSH3 0x1A9B DUP4 CODECOPY DUP2 ADD PUSH1 0x40 DUP2 SWAP1 MSTORE PUSH3 0x34 SWAP2 PUSH3 0x158 JUMP JUMPDEST CALLER DUP1 PUSH3 0x5A JUMPI PUSH1 0x40 MLOAD PUSH4 0x1E4FBDF7 PUSH1 0xE0 SHL DUP2 MSTORE PUSH0 PUSH1 0x4 DUP3 ADD MSTORE PUSH1 0x24 ADD PUSH1 0x40 MLOAD DUP1 SWAP2 SUB SWAP1 REVERT JUMPDEST PUSH3 0x65 DUP2 PUSH3 0x109 JUMP JUMPDEST POP PUSH1 0x1 PUSH32 0x9B779B17422D0DF92223018B32B4D1FA46E071723D6817E2486D003BECC55F00 SSTORE PUSH1 0x1 PUSH1 0x1 PUSH1 0xA0 SHL SUB DUP4 AND PUSH3 0xB2 JUMPI PUSH1 0x40 MLOAD PUSH4 0x42BCDF7F PUSH1 0xE1 SHL DUP2 MSTORE PUSH1 0x4 ADD PUSH1 0x40 MLOAD DUP1 SWAP2 SUB SWAP1 REVERT JUMPDEST PUSH2 0x2710 DUP2 GT ISZERO PUSH3 0xD6 JUMPI PUSH1 0x40 MLOAD PUSH4 0x3869B3B3 PUSH1 0xE1 SHL DUP2 MSTORE PUSH1 0x4 ADD PUSH1 0x40 MLOAD DUP1 SWAP2 SUB SWAP1 REVERT JUMPDEST PUSH1 0x1 PUSH1 0x1 PUSH1 0xA0 SHL SUB DUP4 AND PUSH1 0x80 MSTORE PUSH1 0xA0 DUP3 SWAP1 MSTORE PUSH1 0xC0 DUP2 SWAP1 MSTORE PUSH3 0xFC PUSH3 0x375F00 DUP4 PUSH3 0x199 JUMP JUMPDEST PUSH1 0xE0 MSTORE POP PUSH3 0x1BF SWAP2 POP POP JUMP JUMPDEST PUSH0 DUP1 SLOAD PUSH1 0x1 PUSH1 0x1 PUSH1 0xA0 SHL SUB DUP4 DUP2 AND PUSH1 0x1 PUSH1 0x1 PUSH1 0xA0 SHL SUB NOT DUP4 AND DUP2 OR DUP5 SSTORE PUSH1 0x40 MLOAD SWAP2 SWAP1 SWAP3 AND SWAP3 DUP4 SWAP2 PUSH32 0x8BE0079C531659141344CD1FD0A4F28419497F9722A3DAAFE3B4186F6B6457E0 SWAP2 SWAP1 LOG3 POP POP JUMP JUMPDEST PUSH0 DUP1 PUSH0 PUSH1 0x60 DUP5 DUP7 SUB SLT ISZERO PUSH3 0x16B JUMPI PUSH0 DUP1 REVERT JUMPDEST DUP4 MLOAD PUSH1 0x1 PUSH1 0x1 PUSH1 0xA0 SHL SUB DUP2 AND DUP2 EQ PUSH3 0x182 JUMPI PUSH0 DUP1 REVERT JUMPDEST PUSH1 0x20 DUP6 ADD MLOAD PUSH1 0x40 SWAP1 SWAP6 ADD MLOAD SWAP1 SWAP7 SWAP5 SWAP6 POP SWAP4 SWAP3 POP POP POP JUMP JUMPDEST DUP1 DUP3 ADD DUP1 DUP3 GT ISZERO PUSH3 0x1B9 JUMPI PUSH4 0x4E487B71 PUSH1 0xE0 SHL PUSH0 MSTORE PUSH1 0x11 PUSH1 0x4 MSTORE PUSH1 0x24 PUSH0 REVERT JUMPDEST SWAP3 SWAP2 POP POP JUMP JUMPDEST PUSH1 0x80 MLOAD PUSH1 0xA0 MLOAD PUSH1 0xC0 MLOAD PUSH1 0xE0 MLOAD PUSH2 0x1831 PUSH3 0x26A PUSH0 CODECOPY PUSH0 DUP2 DUP2 PUSH2 0x421 ADD MSTORE DUP2 DUP2 PUSH2 0x770 ADD MSTORE DUP2 DUP2 PUSH2 0x98D ADD MSTORE DUP2 DUP2 PUSH2 0xB92 ADD MSTORE DUP2 DUP2 PUSH2 0xD8A ADD MSTORE PUSH2 0x14E8 ADD MSTORE PUSH0 DUP2 DUP2 PUSH2 0x3D7 ADD MSTORE DUP2 DUP2 PUSH2 0x673 ADD MSTORE PUSH2 0x1479 ADD MSTORE PUSH0 DUP2 DUP2 PUSH2 0x3B0 ADD MSTORE DUP2 DUP2 PUSH2 0x14B9 ADD MSTORE PUSH2 0x151B ADD MSTORE PUSH0 DUP2 DUP2 PUSH2 0x330 ADD MSTORE DUP2 DUP2 PUSH2 0x88E ADD MSTORE DUP2 DUP2 PUSH2 0xA38 ADD MSTORE DUP2 DUP2 PUSH2 0xAFC ADD MSTORE DUP2 DUP2 PUSH2 0xCD1 ADD MSTORE DUP2 DUP2 PUSH2 0xE80 ADD MSTORE DUP2 DUP2 PUSH2 0x1032 ADD MSTORE DUP2 DUP2 PUSH2 0x11EB ADD MSTORE PUSH2 0x1269 ADD MSTORE PUSH2 0x1831 PUSH0 RETURN INVALID PUSH1 0x80 PUSH1 0x40 MSTORE CALLVALUE DUP1 ISZERO PUSH2 0xF JUMPI PUSH0 DUP1 REVERT JUMPDEST POP PUSH1 0x4 CALLDATASIZE LT PUSH2 0x1D1 JUMPI PUSH0 CALLDATALOAD PUSH1 0xE0 SHR DUP1 PUSH4 0x82BFEFC8 GT PUSH2 0xFE JUMPI DUP1 PUSH4 0xAF38D757 GT PUSH2 0x9E JUMPI DUP1 PUSH4 0xD950975A GT PUSH2 0x6E JUMPI DUP1 PUSH4 0xD950975A EQ PUSH2 0x401 JUMPI DUP1 PUSH4 0xF2FDE38B EQ PUSH2 0x409 JUMPI DUP1 PUSH4 0xF30F40A8 EQ PUSH2 0x41C JUMPI DUP1 PUSH4 0xF9344395 EQ PUSH2 0x443 JUMPI PUSH0 DUP1 REVERT JUMPDEST DUP1 PUSH4 0xAF38D757 EQ PUSH2 0x3A3 JUMPI DUP1 PUSH4 0xCFD11C4F EQ PUSH2 0x3AB JUMPI DUP1 PUSH4 0xD2B8ABB8 EQ PUSH2 0x3D2 JUMPI DUP1 PUSH4 0xD89135CD EQ PUSH2 0x3F9 JUMPI PUSH0 DUP1 REVERT JUMPDEST DUP1 PUSH4 0x8DA5CB5B GT PUSH2 0xD9 JUMPI DUP1 PUSH4 0x8DA5CB5B EQ PUSH2 0x36E JUMPI DUP1 PUSH4 0x8ED6B016 EQ PUSH2 0x37E JUMPI DUP1 PUSH4 0x8FD3AB80 EQ PUSH2 0x392 JUMPI DUP1 PUSH4 0xA35061B9 EQ PUSH2 0x39A JUMPI PUSH0 DUP1 REVERT JUMPDEST DUP1 PUSH4 0x82BFEFC8 EQ PUSH2 0x32B JUMPI DUP1 PUSH4 0x8456CB59 EQ PUSH2 0x352 JUMPI DUP1 PUSH4 0x8D4E4083 EQ PUSH2 0x35A JUMPI PUSH0 DUP1 REVERT JUMPDEST DUP1 PUSH4 0x3B0DA260 GT PUSH2 0x174 JUMPI DUP1 PUSH4 0x5447C35C GT PUSH2 0x144 JUMPI DUP1 PUSH4 0x5447C35C EQ PUSH2 0x2E2 JUMPI DUP1 PUSH4 0x5C975ABB EQ PUSH2 0x2FF JUMPI DUP1 PUSH4 0x715018A6 EQ PUSH2 0x310 JUMPI DUP1 PUSH4 0x7216BAFC EQ PUSH2 0x318 JUMPI PUSH0 DUP1 REVERT JUMPDEST DUP1 PUSH4 0x3B0DA260 EQ PUSH2 0x2B7 JUMPI DUP1 PUSH4 0x3F4BA83A EQ PUSH2 0x2CA JUMPI DUP1 PUSH4 0x4BB278F3 EQ PUSH2 0x2D2 JUMPI DUP1 PUSH4 0x4E71D92D EQ PUSH2 0x2DA JUMPI PUSH0 DUP1 REVERT JUMPDEST DUP1 PUSH4 0x17FD045F GT PUSH2 0x1AF JUMPI DUP1 PUSH4 0x17FD045F EQ PUSH2 0x27B JUMPI DUP1 PUSH4 0x1FF64ACD EQ PUSH2 0x293 JUMPI DUP1 PUSH4 0x2D57A680 EQ PUSH2 0x2A6 JUMPI DUP1 PUSH4 0x362F04C0 EQ PUSH2 0x2AF JUMPI PUSH0 DUP1 REVERT JUMPDEST DUP1 PUSH4 0xC9E1E8E EQ PUSH2 0x1D5 JUMPI DUP1 PUSH4 0xFC2FD4C EQ PUSH2 0x23B JUMPI DUP1 PUSH4 0xFEE1A20 EQ PUSH2 0x250 JUMPI JUMPDEST PUSH0 DUP1 REVERT JUMPDEST CALLER PUSH0 SWAP1 DUP2 MSTORE PUSH1 0x1 PUSH1 0x20 DUP2 DUP2 MSTORE PUSH1 0x40 SWAP3 DUP4 SWAP1 KECCAK256 DUP4 MLOAD PUSH1 0x80 DUP1 DUP3 ADD DUP7 MSTORE DUP3 SLOAD DUP1 DUP4 MSTORE SWAP5 DUP4 ADD SLOAD DUP3 DUP6 ADD DUP2 SWAP1 MSTORE PUSH1 0x2 DUP5 ADD SLOAD DUP4 DUP9 ADD DUP2 SWAP1 MSTORE PUSH1 0x3 SWAP1 SWAP5 ADD SLOAD PUSH1 0xFF AND ISZERO ISZERO PUSH1 0x60 SWAP4 DUP5 ADD DUP2 SWAP1 MSTORE DUP8 MLOAD SWAP7 DUP8 MSTORE SWAP5 DUP7 ADD MSTORE SWAP5 DUP5 ADD SWAP2 SWAP1 SWAP2 MSTORE DUP3 ADD MSTORE ADD JUMPDEST PUSH1 0x40 MLOAD DUP1 SWAP2 SUB SWAP1 RETURN JUMPDEST PUSH2 0x24E PUSH2 0x249 CALLDATASIZE PUSH1 0x4 PUSH2 0x163F JUMP JUMPDEST PUSH2 0x456 JUMP JUMPDEST STOP JUMPDEST PUSH1 0x6 SLOAD PUSH2 0x263 SWAP1 PUSH1 0x1 PUSH1 0x1 PUSH1 0xA0 SHL SUB AND DUP2 JUMP JUMPDEST PUSH1 0x40 MLOAD PUSH1 0x1 PUSH1 0x1 PUSH1 0xA0 SHL SUB SWAP1 SWAP2 AND DUP2 MSTORE PUSH1 0x20 ADD PUSH2 0x232 JUMP JUMPDEST PUSH2 0x285 PUSH3 0x375F00 DUP2 JUMP JUMPDEST PUSH1 0x40 MLOAD SWAP1 DUP2 MSTORE PUSH1 0x20 ADD PUSH2 0x232 JUMP JUMPDEST PUSH2 0x24E PUSH2 0x2A1 CALLDATASIZE PUSH1 0x4 PUSH2 0x16A9 JUMP JUMPDEST PUSH2 0x53F JUMP JUMPDEST PUSH2 0x285 PUSH1 0x5 SLOAD DUP2 JUMP JUMPDEST PUSH1 0x2 SLOAD PUSH2 0x285 JUMP JUMPDEST PUSH2 0x24E PUSH2 0x2C5 CALLDATASIZE PUSH1 0x4 PUSH2 0x163F JUMP JUMPDEST PUSH2 0x75E JUMP JUMPDEST PUSH2 0x24E PUSH2 0x924 JUMP JUMPDEST PUSH2 0x24E PUSH2 0x936 JUMP JUMPDEST PUSH2 0x24E PUSH2 0x97B JUMP JUMPDEST PUSH1 0x3 SLOAD PUSH2 0x2EF SWAP1 PUSH1 0xFF AND DUP2 JUMP JUMPDEST PUSH1 0x40 MLOAD SWAP1 ISZERO ISZERO DUP2 MSTORE PUSH1 0x20 ADD PUSH2 0x232 JUMP JUMPDEST PUSH0 SLOAD PUSH1 0x1 PUSH1 0xA0 SHL SWAP1 DIV PUSH1 0xFF AND PUSH2 0x2EF JUMP JUMPDEST PUSH2 0x24E PUSH2 0xB6F JUMP JUMPDEST PUSH2 0x24E PUSH2 0x326 CALLDATASIZE PUSH1 0x4 PUSH2 0x1710 JUMP JUMPDEST PUSH2 0xB80 JUMP JUMPDEST PUSH2 0x263 PUSH32 0x0 DUP2 JUMP JUMPDEST PUSH2 0x24E PUSH2 0xD68 JUMP JUMPDEST PUSH1 0x6 SLOAD PUSH2 0x2EF SWAP1 PUSH1 0x1 PUSH1 0xA8 SHL SWAP1 DIV PUSH1 0xFF AND DUP2 JUMP JUMPDEST PUSH0 SLOAD PUSH1 0x1 PUSH1 0x1 PUSH1 0xA0 SHL SUB AND PUSH2 0x263 JUMP JUMPDEST PUSH1 0x6 SLOAD PUSH2 0x2EF SWAP1 PUSH1 0x1 PUSH1 0xA0 SHL SWAP1 DIV PUSH1 0xFF AND DUP2 JUMP JUMPDEST PUSH2 0x24E PUSH2 0xD78 JUMP JUMPDEST PUSH2 0x285 PUSH1 0x4 SLOAD DUP2 JUMP JUMPDEST PUSH2 0x285 PUSH2 0xEF6 JUMP JUMPDEST PUSH2 0x285 PUSH32 0x0 DUP2 JUMP JUMPDEST PUSH2 0x285 PUSH32 0x0 DUP2 JUMP JUMPDEST PUSH2 0x285 PUSH2 0xF85 JUMP JUMPDEST PUSH2 0x285 PUSH2 0xF9B JUMP JUMPDEST PUSH2 0x24E PUSH2 0x417 CALLDATASIZE PUSH1 0x4 PUSH2 0x163F JUMP JUMPDEST PUSH2 0xFE9 JUMP JUMPDEST PUSH2 0x285 PUSH32 0x0 DUP2 JUMP JUMPDEST PUSH2 0x24E PUSH2 0x451 CALLDATASIZE PUSH1 0x4 PUSH2 0x163F JUMP JUMPDEST PUSH2 0x1028 JUMP JUMPDEST PUSH2 0x45E PUSH2 0x1178 JUMP JUMPDEST PUSH1 0x6 SLOAD PUSH1 0x1 PUSH1 0xA8 SHL SWAP1 DIV PUSH1 0xFF AND ISZERO PUSH2 0x489 JUMPI PUSH1 0x40 MLOAD PUSH4 0x4E356381 PUSH1 0xE1 SHL DUP2 MSTORE PUSH1 0x4 ADD PUSH1 0x40 MLOAD DUP1 SWAP2 SUB SWAP1 REVERT JUMPDEST PUSH1 0x6 SLOAD PUSH1 0x1 PUSH1 0xA0 SHL SWAP1 DIV PUSH1 0xFF AND ISZERO PUSH2 0x4B4 JUMPI PUSH1 0x40 MLOAD PUSH4 0x7F88B33 PUSH1 0xE2 SHL DUP2 MSTORE PUSH1 0x4 ADD PUSH1 0x40 MLOAD DUP1 SWAP2 SUB SWAP1 REVERT JUMPDEST PUSH1 0x1 PUSH1 0x1 PUSH1 0xA0 SHL SUB DUP2 AND ISZERO DUP1 PUSH2 0x4D2 JUMPI POP PUSH1 0x1 PUSH1 0x1 PUSH1 0xA0 SHL SUB DUP2 AND ADDRESS EQ JUMPDEST ISZERO PUSH2 0x4F0 JUMPI PUSH1 0x40 MLOAD PUSH4 0x42BCDF7F PUSH1 0xE1 SHL DUP2 MSTORE PUSH1 0x4 ADD PUSH1 0x40 MLOAD DUP1 SWAP2 SUB SWAP1 REVERT JUMPDEST PUSH1 0x6 DUP1 SLOAD PUSH1 0x1 PUSH1 0x1 PUSH1 0xA8 SHL SUB NOT AND PUSH1 0x1 PUSH1 0x1 PUSH1 0xA0 SHL SUB DUP4 AND SWAP1 DUP2 OR PUSH1 0x1 PUSH1 0xA0 SHL OR SWAP1 SWAP2 SSTORE PUSH1 0x40 MLOAD PUSH32 0x92B5EB20E7F70B6B205924D72C26C45F05A063424792BE21A87858495CD80297 SWAP1 PUSH0 SWAP1 LOG2 POP JUMP JUMPDEST PUSH2 0x547 PUSH2 0x1178 JUMP JUMPDEST DUP3 DUP2 DUP2 EQ PUSH2 0x568 JUMPI PUSH1 0x40 MLOAD PUSH4 0x512509D3 PUSH1 0xE1 SHL DUP2 MSTORE PUSH1 0x4 ADD PUSH1 0x40 MLOAD DUP1 SWAP2 SUB SWAP1 REVERT JUMPDEST PUSH0 JUMPDEST DUP2 DUP2 LT ISZERO PUSH2 0x756 JUMPI PUSH0 DUP7 DUP7 DUP4 DUP2 DUP2 LT PUSH2 0x585 JUMPI PUSH2 0x585 PUSH2 0x173A JUMP JUMPDEST SWAP1 POP PUSH1 0x20 MUL ADD PUSH1 0x20 DUP2 ADD SWAP1 PUSH2 0x59A SWAP2 SWAP1 PUSH2 0x163F JUMP JUMPDEST SWAP1 POP PUSH0 DUP6 DUP6 DUP5 DUP2 DUP2 LT PUSH2 0x5AF JUMPI PUSH2 0x5AF PUSH2 0x173A JUMP JUMPDEST PUSH1 0x20 MUL SWAP2 SWAP1 SWAP2 ADD CALLDATALOAD SWAP2 POP POP PUSH1 0x1 PUSH1 0x1 PUSH1 0xA0 SHL SUB DUP3 AND PUSH2 0x5E1 JUMPI PUSH1 0x40 MLOAD PUSH4 0x42BCDF7F PUSH1 0xE1 SHL DUP2 MSTORE PUSH1 0x4 ADD PUSH1 0x40 MLOAD DUP1 SWAP2 SUB SWAP1 REVERT JUMPDEST DUP1 PUSH0 SUB PUSH2 0x601 JUMPI PUSH1 0x40 MLOAD PUSH4 0x1F2A2005 PUSH1 0xE0 SHL DUP2 MSTORE PUSH1 0x4 ADD PUSH1 0x40 MLOAD DUP1 SWAP2 SUB SWAP1 REVERT JUMPDEST PUSH1 0x1 PUSH1 0x1 PUSH1 0xA0 SHL SUB DUP3 AND PUSH0 SWAP1 DUP2 MSTORE PUSH1 0x1 PUSH1 0x20 MSTORE PUSH1 0x40 DUP2 KECCAK256 SLOAD SWAP1 SUB PUSH2 0x66A JUMPI PUSH1 0x2 DUP1 SLOAD PUSH1 0x1 DUP2 ADD DUP3 SSTORE PUSH0 SWAP2 SWAP1 SWAP2 MSTORE PUSH32 0x405787FA12A823E0F2B7631CC41B3BA8828B3321CA811111FA75CD3AA3BB5ACE ADD DUP1 SLOAD PUSH1 0x1 PUSH1 0x1 PUSH1 0xA0 SHL SUB NOT AND PUSH1 0x1 PUSH1 0x1 PUSH1 0xA0 SHL SUB DUP5 AND OR SWAP1 SSTORE JUMPDEST PUSH0 PUSH2 0x2710 PUSH2 0x698 PUSH32 0x0 DUP5 PUSH2 0x1762 JUMP JUMPDEST PUSH2 0x6A2 SWAP2 SWAP1 PUSH2 0x177F JUMP JUMPDEST SWAP1 POP PUSH0 PUSH2 0x6AF DUP3 DUP5 PUSH2 0x179E JUMP JUMPDEST PUSH1 0x40 DUP1 MLOAD PUSH1 0x80 DUP2 ADD DUP3 MSTORE DUP6 DUP2 MSTORE PUSH0 PUSH1 0x20 DUP1 DUP4 ADD DUP3 DUP2 MSTORE DUP4 DUP6 ADD DUP7 DUP2 MSTORE PUSH1 0x60 DUP6 ADD DUP5 DUP2 MSTORE PUSH1 0x1 PUSH1 0x1 PUSH1 0xA0 SHL SUB DUP13 AND DUP1 DUP7 MSTORE PUSH1 0x1 DUP1 DUP7 MSTORE SWAP6 DUP9 SWAP1 KECCAK256 SWAP7 MLOAD DUP8 SSTORE SWAP3 MLOAD SWAP5 DUP7 ADD SWAP5 SWAP1 SWAP5 SSTORE MLOAD PUSH1 0x2 DUP6 ADD SSTORE SWAP2 MLOAD PUSH1 0x3 SWAP1 SWAP4 ADD DUP1 SLOAD PUSH1 0xFF NOT AND SWAP4 ISZERO ISZERO SWAP4 SWAP1 SWAP4 OR SWAP1 SWAP3 SSTORE SWAP2 MLOAD DUP7 DUP2 MSTORE SWAP3 SWAP4 POP SWAP1 SWAP2 PUSH32 0xEDFC909D0AB2A1625B7911D925EFBD8200CDD99D4C7BA44E720328B17879F0B3 SWAP2 ADD PUSH1 0x40 MLOAD DUP1 SWAP2 SUB SWAP1 LOG2 DUP5 PUSH1 0x1 ADD SWAP5 POP POP POP POP POP PUSH2 0x56A JUMP JUMPDEST POP POP POP POP POP POP JUMP JUMPDEST PUSH2 0x766 PUSH2 0x1178 JUMP JUMPDEST PUSH2 0x76E PUSH2 0x11A4 JUMP JUMPDEST PUSH32 0x0 TIMESTAMP LT ISZERO DUP1 ISZERO PUSH2 0x7A1 JUMPI POP PUSH1 0x3 SLOAD PUSH1 0xFF AND ISZERO JUMPDEST ISZERO PUSH2 0x7AE JUMPI PUSH2 0x7AE PUSH2 0x11BF JUMP JUMPDEST PUSH1 0x6 SLOAD PUSH1 0x1 PUSH1 0xA8 SHL SWAP1 DIV PUSH1 0xFF AND ISZERO PUSH2 0x7D9 JUMPI PUSH1 0x40 MLOAD PUSH4 0x4E356381 PUSH1 0xE1 SHL DUP2 MSTORE PUSH1 0x4 ADD PUSH1 0x40 MLOAD DUP1 SWAP2 SUB SWAP1 REVERT JUMPDEST PUSH1 0x1 PUSH1 0x1 PUSH1 0xA0 SHL SUB DUP2 AND PUSH0 SWAP1 DUP2 MSTORE PUSH1 0x1 PUSH1 0x20 DUP2 DUP2 MSTORE PUSH1 0x40 DUP1 DUP5 KECCAK256 DUP2 MLOAD PUSH1 0x80 DUP2 ADD DUP4 MSTORE DUP2 SLOAD DUP2 MSTORE SWAP4 DUP2 ADD SLOAD SWAP3 DUP5 ADD SWAP3 SWAP1 SWAP3 MSTORE PUSH1 0x2 DUP3 ADD SLOAD SWAP1 DUP4 ADD MSTORE PUSH1 0x3 DUP2 ADD SLOAD PUSH1 0xFF AND ISZERO ISZERO PUSH1 0x60 DUP4 ADD MSTORE SWAP2 SWAP1 PUSH2 0x82D SWAP1 PUSH2 0x12D0 JUMP JUMPDEST SWAP1 POP DUP1 PUSH0 SUB PUSH2 0x84F JUMPI PUSH1 0x40 MLOAD PUSH4 0x200C44CF PUSH1 0xE2 SHL DUP2 MSTORE PUSH1 0x4 ADD PUSH1 0x40 MLOAD DUP1 SWAP2 SUB SWAP1 REVERT JUMPDEST DUP1 DUP3 PUSH0 ADD PUSH0 DUP3 DUP3 SLOAD PUSH2 0x861 SWAP2 SWAP1 PUSH2 0x179E JUMP JUMPDEST SWAP3 POP POP DUP2 SWAP1 SSTORE POP DUP1 DUP3 PUSH1 0x2 ADD PUSH0 DUP3 DUP3 SLOAD PUSH2 0x87B SWAP2 SWAP1 PUSH2 0x179E JUMP JUMPDEST SWAP1 SWAP2 SSTORE POP PUSH2 0x8B5 SWAP1 POP PUSH1 0x1 PUSH1 0x1 PUSH1 0xA0 SHL SUB PUSH32 0x0 AND PUSH0 DUP4 PUSH2 0x1326 JUMP JUMPDEST DUP1 PUSH1 0x4 PUSH0 DUP3 DUP3 SLOAD PUSH2 0x8C6 SWAP2 SWAP1 PUSH2 0x17B1 JUMP JUMPDEST SWAP1 SWAP2 SSTORE POP POP PUSH1 0x40 MLOAD DUP2 DUP2 MSTORE PUSH1 0x1 PUSH1 0x1 PUSH1 0xA0 SHL SUB DUP5 AND SWAP1 PUSH32 0xCA0351860CE2A85BC712861683DCB64560614677682C40A81C25FCFCC2E551C1 SWAP1 PUSH1 0x20 ADD PUSH1 0x40 MLOAD DUP1 SWAP2 SUB SWAP1 LOG2 POP POP PUSH2 0x921 PUSH1 0x1 PUSH0 DUP1 MLOAD PUSH1 0x20 PUSH2 0x17DC DUP4 CODECOPY DUP2 MLOAD SWAP2 MSTORE SSTORE JUMP JUMPDEST POP JUMP JUMPDEST PUSH2 0x92C PUSH2 0x1178 JUMP JUMPDEST PUSH2 0x934 PUSH2 0x1360 JUMP JUMPDEST JUMP JUMPDEST PUSH2 0x93E PUSH2 0x1178 JUMP JUMPDEST PUSH1 0x6 DUP1 SLOAD PUSH1 0xFF PUSH1 0xA8 SHL NOT AND PUSH1 0x1 PUSH1 0xA8 SHL OR SWAP1 SSTORE PUSH1 0x40 MLOAD PUSH32 0x6823B073D48D6E3A7D385EEB601452D680E74BB46AFE3255A7D778F3A9B17681 SWAP1 PUSH0 SWAP1 LOG1 JUMP JUMPDEST PUSH2 0x983 PUSH2 0x11A4 JUMP JUMPDEST PUSH2 0x98B PUSH2 0x13B4 JUMP JUMPDEST PUSH32 0x0 TIMESTAMP LT ISZERO DUP1 ISZERO PUSH2 0x9BE JUMPI POP PUSH1 0x3 SLOAD PUSH1 0xFF AND ISZERO JUMPDEST ISZERO PUSH2 0x9CB JUMPI PUSH2 0x9CB PUSH2 0x11BF JUMP JUMPDEST PUSH1 0x6 SLOAD PUSH1 0x1 PUSH1 0xA8 SHL SWAP1 DIV PUSH1 0xFF AND ISZERO PUSH2 0x9F6 JUMPI PUSH1 0x40 MLOAD PUSH4 0x4E356381 PUSH1 0xE1 SHL DUP2 MSTORE PUSH1 0x4 ADD PUSH1 0x40 MLOAD DUP1 SWAP2 SUB SWAP1 REVERT JUMPDEST PUSH0 PUSH2 0x9FF PUSH2 0xEF6 JUMP JUMPDEST SWAP1 POP DUP1 PUSH0 SUB PUSH2 0xA21 JUMPI PUSH1 0x40 MLOAD PUSH4 0x12D37EE5 PUSH1 0xE3 SHL DUP2 MSTORE PUSH1 0x4 ADD PUSH1 0x40 MLOAD DUP1 SWAP2 SUB SWAP1 REVERT JUMPDEST PUSH1 0x40 MLOAD PUSH4 0x70A08231 PUSH1 0xE0 SHL DUP2 MSTORE ADDRESS PUSH1 0x4 DUP3 ADD MSTORE DUP2 SWAP1 PUSH32 0x0 PUSH1 0x1 PUSH1 0x1 PUSH1 0xA0 SHL SUB AND SWAP1 PUSH4 0x70A08231 SWAP1 PUSH1 0x24 ADD PUSH1 0x20 PUSH1 0x40 MLOAD DUP1 DUP4 SUB DUP2 DUP7 GAS STATICCALL ISZERO DUP1 ISZERO PUSH2 0xA85 JUMPI RETURNDATASIZE PUSH0 DUP1 RETURNDATACOPY RETURNDATASIZE PUSH0 REVERT JUMPDEST POP POP POP POP PUSH1 0x40 MLOAD RETURNDATASIZE PUSH1 0x1F NOT PUSH1 0x1F DUP3 ADD AND DUP3 ADD DUP1 PUSH1 0x40 MSTORE POP DUP2 ADD SWAP1 PUSH2 0xAA9 SWAP2 SWAP1 PUSH2 0x17C4 JUMP JUMPDEST LT ISZERO PUSH2 0xAC8 JUMPI PUSH1 0x40 MLOAD PUSH4 0x786E0A99 PUSH1 0xE0 SHL DUP2 MSTORE PUSH1 0x4 ADD PUSH1 0x40 MLOAD DUP1 SWAP2 SUB SWAP1 REVERT JUMPDEST CALLER PUSH0 SWAP1 DUP2 MSTORE PUSH1 0x1 PUSH1 0x20 DUP2 SWAP1 MSTORE PUSH1 0x40 DUP3 KECCAK256 ADD DUP1 SLOAD DUP4 SWAP3 SWAP1 PUSH2 0xAE9 SWAP1 DUP5 SWAP1 PUSH2 0x17B1 JUMP JUMPDEST SWAP1 SWAP2 SSTORE POP PUSH2 0xB23 SWAP1 POP PUSH1 0x1 PUSH1 0x1 PUSH1 0xA0 SHL SUB PUSH32 0x0 AND CALLER DUP4 PUSH2 0x1326 JUMP JUMPDEST PUSH1 0x40 MLOAD DUP2 DUP2 MSTORE CALLER SWAP1 PUSH32 0x896E034966EAAF1ADC54ACC0F257056FEBBD300C9E47182CF761982CF1F5E430 SWAP1 PUSH1 0x20 ADD PUSH1 0x40 MLOAD DUP1 SWAP2 SUB SWAP1 LOG2 POP PUSH2 0x934 PUSH1 0x1 PUSH0 DUP1 MLOAD PUSH1 0x20 PUSH2 0x17DC DUP4 CODECOPY DUP2 MLOAD SWAP2 MSTORE SSTORE JUMP JUMPDEST PUSH2 0xB77 PUSH2 0x1178 JUMP JUMPDEST PUSH2 0x934 PUSH0 PUSH2 0x13DE JUMP JUMPDEST PUSH2 0xB88 PUSH2 0x1178 JUMP JUMPDEST PUSH2 0xB90 PUSH2 0x11A4 JUMP JUMPDEST PUSH32 0x0 TIMESTAMP LT ISZERO DUP1 ISZERO PUSH2 0xBC3 JUMPI POP PUSH1 0x3 SLOAD PUSH1 0xFF AND ISZERO JUMPDEST ISZERO PUSH2 0xBD0 JUMPI PUSH2 0xBD0 PUSH2 0x11BF JUMP JUMPDEST PUSH1 0x6 SLOAD PUSH1 0x1 PUSH1 0xA8 SHL SWAP1 DIV PUSH1 0xFF AND ISZERO PUSH2 0xBFB JUMPI PUSH1 0x40 MLOAD PUSH4 0x4E356381 PUSH1 0xE1 SHL DUP2 MSTORE PUSH1 0x4 ADD PUSH1 0x40 MLOAD DUP1 SWAP2 SUB SWAP1 REVERT JUMPDEST DUP1 PUSH0 SUB PUSH2 0xC1B JUMPI PUSH1 0x40 MLOAD PUSH4 0x1F2A2005 PUSH1 0xE0 SHL DUP2 MSTORE PUSH1 0x4 ADD PUSH1 0x40 MLOAD DUP1 SWAP2 SUB SWAP1 REVERT JUMPDEST PUSH1 0x1 PUSH1 0x1 PUSH1 0xA0 SHL SUB DUP3 AND PUSH0 SWAP1 DUP2 MSTORE PUSH1 0x1 PUSH1 0x20 DUP2 DUP2 MSTORE PUSH1 0x40 DUP1 DUP5 KECCAK256 DUP2 MLOAD PUSH1 0x80 DUP2 ADD DUP4 MSTORE DUP2 SLOAD DUP2 MSTORE SWAP4 DUP2 ADD SLOAD SWAP3 DUP5 ADD SWAP3 SWAP1 SWAP3 MSTORE PUSH1 0x2 DUP3 ADD SLOAD SWAP1 DUP4 ADD MSTORE PUSH1 0x3 DUP2 ADD SLOAD PUSH1 0xFF AND ISZERO ISZERO PUSH1 0x60 DUP4 ADD MSTORE SWAP2 SWAP1 PUSH2 0xC6F SWAP1 PUSH2 0x12D0 JUMP JUMPDEST SWAP1 POP DUP1 DUP4 GT ISZERO PUSH2 0xC92 JUMPI PUSH1 0x40 MLOAD PUSH4 0xDCCABD35 PUSH1 0xE0 SHL DUP2 MSTORE PUSH1 0x4 ADD PUSH1 0x40 MLOAD DUP1 SWAP2 SUB SWAP1 REVERT JUMPDEST DUP3 DUP3 PUSH0 ADD PUSH0 DUP3 DUP3 SLOAD PUSH2 0xCA4 SWAP2 SWAP1 PUSH2 0x179E JUMP JUMPDEST SWAP3 POP POP DUP2 SWAP1 SSTORE POP DUP3 DUP3 PUSH1 0x2 ADD PUSH0 DUP3 DUP3 SLOAD PUSH2 0xCBE SWAP2 SWAP1 PUSH2 0x179E JUMP JUMPDEST SWAP1 SWAP2 SSTORE POP PUSH2 0xCF8 SWAP1 POP PUSH1 0x1 PUSH1 0x1 PUSH1 0xA0 SHL SUB PUSH32 0x0 AND PUSH0 DUP6 PUSH2 0x1326 JUMP JUMPDEST DUP3 PUSH1 0x4 PUSH0 DUP3 DUP3 SLOAD PUSH2 0xD09 SWAP2 SWAP1 PUSH2 0x17B1 JUMP JUMPDEST SWAP1 SWAP2 SSTORE POP POP PUSH1 0x40 MLOAD DUP4 DUP2 MSTORE PUSH1 0x1 PUSH1 0x1 PUSH1 0xA0 SHL SUB DUP6 AND SWAP1 PUSH32 0xCA0351860CE2A85BC712861683DCB64560614677682C40A81C25FCFCC2E551C1 SWAP1 PUSH1 0x20 ADD PUSH1 0x40 MLOAD DUP1 SWAP2 SUB SWAP1 LOG2 POP POP PUSH2 0xD64 PUSH1 0x1 PUSH0 DUP1 MLOAD PUSH1 0x20 PUSH2 0x17DC DUP4 CODECOPY DUP2 MLOAD SWAP2 MSTORE SSTORE JUMP JUMPDEST POP POP JUMP JUMPDEST PUSH2 0xD70 PUSH2 0x1178 JUMP JUMPDEST PUSH2 0x934 PUSH2 0x142D JUMP JUMPDEST PUSH2 0xD80 PUSH2 0x11A4 JUMP JUMPDEST PUSH2 0xD88 PUSH2 0x13B4 JUMP JUMPDEST PUSH32 0x0 TIMESTAMP LT ISZERO DUP1 ISZERO PUSH2 0xDBB JUMPI POP PUSH1 0x3 SLOAD PUSH1 0xFF AND ISZERO JUMPDEST ISZERO PUSH2 0xDC8 JUMPI PUSH2 0xDC8 PUSH2 0x11BF JUMP JUMPDEST PUSH1 0x6 SLOAD PUSH1 0x1 PUSH1 0xA8 SHL SWAP1 DIV PUSH1 0xFF AND ISZERO PUSH2 0xDF3 JUMPI PUSH1 0x40 MLOAD PUSH4 0x4E356381 PUSH1 0xE1 SHL DUP2 MSTORE PUSH1 0x4 ADD PUSH1 0x40 MLOAD DUP1 SWAP2 SUB SWAP1 REVERT JUMPDEST PUSH1 0x6 SLOAD PUSH1 0x1 PUSH1 0xA0 SHL SWAP1 DIV PUSH1 0xFF AND PUSH2 0xE1D JUMPI PUSH1 0x40 MLOAD PUSH4 0x1E8A0CBF PUSH1 0xE1 SHL DUP2 MSTORE PUSH1 0x4 ADD PUSH1 0x40 MLOAD DUP1 SWAP2 SUB SWAP1 REVERT JUMPDEST PUSH0 PUSH2 0xE26 PUSH2 0xEF6 JUMP JUMPDEST SWAP1 POP DUP1 PUSH0 SUB PUSH2 0xE48 JUMPI PUSH1 0x40 MLOAD PUSH4 0x12D37EE5 PUSH1 0xE3 SHL DUP2 MSTORE PUSH1 0x4 ADD PUSH1 0x40 MLOAD DUP1 SWAP2 SUB SWAP1 REVERT JUMPDEST CALLER PUSH0 SWAP1 DUP2 MSTORE PUSH1 0x1 PUSH1 0x20 DUP2 SWAP1 MSTORE PUSH1 0x40 SWAP1 SWAP2 KECCAK256 DUP1 SLOAD DUP2 DUP4 ADD SSTORE PUSH1 0x3 DUP2 ADD DUP1 SLOAD PUSH1 0xFF NOT AND SWAP1 SWAP3 OR SWAP1 SWAP2 SSTORE PUSH1 0x6 SLOAD PUSH2 0xEA9 SWAP1 PUSH1 0x1 PUSH1 0x1 PUSH1 0xA0 SHL SUB PUSH32 0x0 DUP2 AND SWAP2 AND DUP5 PUSH2 0x1326 JUMP JUMPDEST PUSH1 0x40 MLOAD DUP3 DUP2 MSTORE CALLER SWAP1 PUSH32 0x8B80BD19AEA7B735BC6D75DB8D6ADBE18B28C30D62B3555245EB67B2340CAEDC SWAP1 PUSH1 0x20 ADD PUSH1 0x40 MLOAD DUP1 SWAP2 SUB SWAP1 LOG2 POP POP PUSH2 0x934 PUSH1 0x1 PUSH0 DUP1 MLOAD PUSH1 0x20 PUSH2 0x17DC DUP4 CODECOPY DUP2 MLOAD SWAP2 MSTORE SSTORE JUMP JUMPDEST CALLER PUSH0 SWAP1 DUP2 MSTORE PUSH1 0x1 PUSH1 0x20 DUP2 DUP2 MSTORE PUSH1 0x40 DUP1 DUP5 KECCAK256 DUP2 MLOAD PUSH1 0x80 DUP2 ADD DUP4 MSTORE DUP2 SLOAD DUP1 DUP3 MSTORE SWAP5 DUP3 ADD SLOAD SWAP4 DUP2 ADD SWAP4 SWAP1 SWAP4 MSTORE PUSH1 0x2 DUP2 ADD SLOAD SWAP2 DUP4 ADD SWAP2 SWAP1 SWAP2 MSTORE PUSH1 0x3 ADD SLOAD PUSH1 0xFF AND ISZERO ISZERO PUSH1 0x60 DUP3 ADD MSTORE SWAP1 ISZERO DUP1 PUSH2 0xF47 JUMPI POP DUP1 PUSH1 0x60 ADD MLOAD JUMPDEST ISZERO PUSH2 0xF53 JUMPI PUSH0 SWAP2 POP POP SWAP1 JUMP JUMPDEST PUSH0 PUSH2 0xF60 DUP3 PUSH0 ADD MLOAD PUSH2 0x146F JUMP JUMPDEST SWAP1 POP DUP2 PUSH1 0x20 ADD MLOAD DUP2 GT ISZERO PUSH2 0xF80 JUMPI PUSH1 0x20 DUP3 ADD MLOAD PUSH2 0xF7D SWAP1 DUP3 PUSH2 0x179E JUMP JUMPDEST SWAP3 POP JUMPDEST POP POP SWAP1 JUMP JUMPDEST PUSH0 PUSH1 0x5 SLOAD PUSH1 0x4 SLOAD PUSH2 0xF96 SWAP2 SWAP1 PUSH2 0x17B1 JUMP JUMPDEST SWAP1 POP SWAP1 JUMP JUMPDEST CALLER PUSH0 SWAP1 DUP2 MSTORE PUSH1 0x1 PUSH1 0x20 DUP2 DUP2 MSTORE PUSH1 0x40 DUP1 DUP5 KECCAK256 DUP2 MLOAD PUSH1 0x80 DUP2 ADD DUP4 MSTORE DUP2 SLOAD DUP2 MSTORE SWAP4 DUP2 ADD SLOAD SWAP3 DUP5 ADD SWAP3 SWAP1 SWAP3 MSTORE PUSH1 0x2 DUP3 ADD SLOAD SWAP1 DUP4 ADD MSTORE PUSH1 0x3 ADD SLOAD PUSH1 0xFF AND ISZERO ISZERO PUSH1 0x60 DUP3 ADD MSTORE PUSH2 0xFE3 DUP2 PUSH2 0x12D0 JUMP JUMPDEST SWAP2 POP POP SWAP1 JUMP JUMPDEST PUSH2 0xFF1 PUSH2 0x1178 JUMP JUMPDEST PUSH1 0x1 PUSH1 0x1 PUSH1 0xA0 SHL SUB DUP2 AND PUSH2 0x101F JUMPI PUSH1 0x40 MLOAD PUSH4 0x1E4FBDF7 PUSH1 0xE0 SHL DUP2 MSTORE PUSH0 PUSH1 0x4 DUP3 ADD MSTORE PUSH1 0x24 ADD JUMPDEST PUSH1 0x40 MLOAD DUP1 SWAP2 SUB SWAP1 REVERT JUMPDEST PUSH2 0x921 DUP2 PUSH2 0x13DE JUMP JUMPDEST PUSH2 0x1030 PUSH2 0x1178 JUMP JUMPDEST PUSH32 0x0 PUSH1 0x1 PUSH1 0x1 PUSH1 0xA0 SHL SUB AND DUP2 PUSH1 0x1 PUSH1 0x1 PUSH1 0xA0 SHL SUB AND SUB PUSH2 0x1082 JUMPI PUSH1 0x40 MLOAD PUSH4 0xD341791 PUSH1 0xE0 SHL DUP2 MSTORE PUSH1 0x4 ADD PUSH1 0x40 MLOAD DUP1 SWAP2 SUB SWAP1 REVERT JUMPDEST PUSH1 0x40 MLOAD PUSH4 0x70A08231 PUSH1 0xE0 SHL DUP2 MSTORE ADDRESS PUSH1 0x4 DUP3 ADD MSTORE PUSH0 SWAP1 PUSH1 0x1 PUSH1 0x1 PUSH1 0xA0 SHL SUB DUP4 AND SWAP1 PUSH4 0x70A08231 SWAP1 PUSH1 0x24 ADD PUSH1 0x20 PUSH1 0x40 MLOAD DUP1 DUP4 SUB DUP2 DUP7 GAS STATICCALL ISZERO DUP1 ISZERO PUSH2 0x10C6 JUMPI RETURNDATASIZE PUSH0 DUP1 RETURNDATACOPY RETURNDATASIZE PUSH0 REVERT JUMPDEST POP POP POP POP PUSH1 0x40 MLOAD RETURNDATASIZE PUSH1 0x1F NOT PUSH1 0x1F DUP3 ADD AND DUP3 ADD DUP1 PUSH1 0x40 MSTORE POP DUP2 ADD SWAP1 PUSH2 0x10EA SWAP2 SWAP1 PUSH2 0x17C4 JUMP JUMPDEST SWAP1 POP DUP1 PUSH0 SUB PUSH2 0x110C JUMPI PUSH1 0x40 MLOAD PUSH4 0x1F2A2005 PUSH1 0xE0 SHL DUP2 MSTORE PUSH1 0x4 ADD PUSH1 0x40 MLOAD DUP1 SWAP2 SUB SWAP1 REVERT JUMPDEST PUSH2 0x1131 PUSH2 0x1120 PUSH0 SLOAD PUSH1 0x1 PUSH1 0x1 PUSH1 0xA0 SHL SUB AND SWAP1 JUMP JUMPDEST PUSH1 0x1 PUSH1 0x1 PUSH1 0xA0 SHL SUB DUP5 AND SWAP1 DUP4 PUSH2 0x1326 JUMP JUMPDEST DUP2 PUSH1 0x1 PUSH1 0x1 PUSH1 0xA0 SHL SUB AND PUSH32 0x3CF91549202759AA28B4CCEF6ACCDB58B06E1BDEBC31F84E43A225A809A048D2 DUP3 PUSH1 0x40 MLOAD PUSH2 0x116C SWAP2 DUP2 MSTORE PUSH1 0x20 ADD SWAP1 JUMP JUMPDEST PUSH1 0x40 MLOAD DUP1 SWAP2 SUB SWAP1 LOG2 POP POP JUMP JUMPDEST PUSH0 SLOAD PUSH1 0x1 PUSH1 0x1 PUSH1 0xA0 SHL SUB AND CALLER EQ PUSH2 0x934 JUMPI PUSH1 0x40 MLOAD PUSH4 0x118CDAA7 PUSH1 0xE0 SHL DUP2 MSTORE CALLER PUSH1 0x4 DUP3 ADD MSTORE PUSH1 0x24 ADD PUSH2 0x1016 JUMP JUMPDEST PUSH2 0x11AC PUSH2 0x1571 JUMP JUMPDEST PUSH1 0x2 PUSH0 DUP1 MLOAD PUSH1 0x20 PUSH2 0x17DC DUP4 CODECOPY DUP2 MLOAD SWAP2 MSTORE SSTORE JUMP JUMPDEST PUSH1 0x3 DUP1 SLOAD PUSH1 0xFF NOT AND PUSH1 0x1 OR SWAP1 SSTORE PUSH1 0x40 MLOAD PUSH4 0x70A08231 PUSH1 0xE0 SHL DUP2 MSTORE ADDRESS PUSH1 0x4 DUP3 ADD MSTORE PUSH0 SWAP1 PUSH1 0x1 PUSH1 0x1 PUSH1 0xA0 SHL SUB PUSH32 0x0 AND SWAP1 PUSH4 0x70A08231 SWAP1 PUSH1 0x24 ADD PUSH1 0x20 PUSH1 0x40 MLOAD DUP1 DUP4 SUB DUP2 DUP7 GAS STATICCALL ISZERO DUP1 ISZERO PUSH2 0x1230 JUMPI RETURNDATASIZE PUSH0 DUP1 RETURNDATACOPY RETURNDATASIZE PUSH0 REVERT JUMPDEST POP POP POP POP PUSH1 0x40 MLOAD RETURNDATASIZE PUSH1 0x1F NOT PUSH1 0x1F DUP3 ADD AND DUP3 ADD DUP1 PUSH1 0x40 MSTORE POP DUP2 ADD SWAP1 PUSH2 0x1254 SWAP2 SWAP1 PUSH2 0x17C4 JUMP JUMPDEST SWAP1 POP DUP1 ISZERO PUSH2 0x921 JUMPI PUSH2 0x1290 PUSH1 0x1 PUSH1 0x1 PUSH1 0xA0 SHL SUB PUSH32 0x0 AND PUSH0 DUP4 PUSH2 0x1326 JUMP JUMPDEST PUSH1 0x5 DUP2 SWAP1 SSTORE PUSH1 0x40 DUP1 MLOAD DUP3 DUP2 MSTORE TIMESTAMP PUSH1 0x20 DUP3 ADD MSTORE PUSH32 0x1367A80F8266C25EF54F82FCC1E4A8EB1C658801B98E56646CB0DA2A7398AC22 SWAP2 ADD PUSH1 0x40 MLOAD DUP1 SWAP2 SUB SWAP1 LOG1 POP JUMP JUMPDEST DUP1 MLOAD PUSH0 SWAP1 ISZERO DUP1 PUSH2 0x12E1 JUMPI POP DUP2 PUSH1 0x60 ADD MLOAD JUMPDEST ISZERO PUSH2 0x12ED JUMPI POP PUSH0 SWAP2 SWAP1 POP JUMP JUMPDEST PUSH0 PUSH2 0x12FA DUP4 PUSH0 ADD MLOAD PUSH2 0x146F JUMP JUMPDEST DUP4 MLOAD SWAP1 SWAP2 POP PUSH2 0x130A SWAP1 DUP3 SWAP1 PUSH2 0x179E JUMP JUMPDEST SWAP2 POP DUP3 PUSH1 0x40 ADD MLOAD DUP3 GT ISZERO PUSH2 0x1320 JUMPI DUP3 PUSH1 0x40 ADD MLOAD SWAP2 POP JUMPDEST POP SWAP2 SWAP1 POP JUMP JUMPDEST PUSH2 0x1333 DUP4 DUP4 DUP4 PUSH1 0x1 PUSH2 0x15A0 JUMP JUMPDEST PUSH2 0x135B JUMPI PUSH1 0x40 MLOAD PUSH4 0x5274AFE7 PUSH1 0xE0 SHL DUP2 MSTORE PUSH1 0x1 PUSH1 0x1 PUSH1 0xA0 SHL SUB DUP5 AND PUSH1 0x4 DUP3 ADD MSTORE PUSH1 0x24 ADD PUSH2 0x1016 JUMP JUMPDEST POP POP POP JUMP JUMPDEST PUSH2 0x1368 PUSH2 0x1602 JUMP JUMPDEST PUSH0 DUP1 SLOAD PUSH1 0xFF PUSH1 0xA0 SHL NOT AND SWAP1 SSTORE PUSH32 0x5DB9EE0A495BF2E6FF9C91A7834C1BA4FDD244A5E8AA4E537BD38AEAE4B073AA CALLER JUMPDEST PUSH1 0x40 MLOAD PUSH1 0x1 PUSH1 0x1 PUSH1 0xA0 SHL SUB SWAP1 SWAP2 AND DUP2 MSTORE PUSH1 0x20 ADD PUSH1 0x40 MLOAD DUP1 SWAP2 SUB SWAP1 LOG1 JUMP JUMPDEST PUSH0 SLOAD PUSH1 0x1 PUSH1 0xA0 SHL SWAP1 DIV PUSH1 0xFF AND ISZERO PUSH2 0x934 JUMPI PUSH1 0x40 MLOAD PUSH4 0xD93C0665 PUSH1 0xE0 SHL DUP2 MSTORE PUSH1 0x4 ADD PUSH1 0x40 MLOAD DUP1 SWAP2 SUB SWAP1 REVERT JUMPDEST PUSH0 DUP1 SLOAD PUSH1 0x1 PUSH1 0x1 PUSH1 0xA0 SHL SUB DUP4 DUP2 AND PUSH1 0x1 PUSH1 0x1 PUSH1 0xA0 SHL SUB NOT DUP4 AND DUP2 OR DUP5 SSTORE PUSH1 0x40 MLOAD SWAP2 SWAP1 SWAP3 AND SWAP3 DUP4 SWAP2 PUSH32 0x8BE0079C531659141344CD1FD0A4F28419497F9722A3DAAFE3B4186F6B6457E0 SWAP2 SWAP1 LOG3 POP POP JUMP JUMPDEST PUSH2 0x1435 PUSH2 0x13B4 JUMP JUMPDEST PUSH0 DUP1 SLOAD PUSH1 0xFF PUSH1 0xA0 SHL NOT AND PUSH1 0x1 PUSH1 0xA0 SHL OR SWAP1 SSTORE PUSH32 0x62E78CEA01BEE320CD4E420270B5EA74000D11B0C9F74754EBDBFC544B05A258 PUSH2 0x1397 CALLER SWAP1 JUMP JUMPDEST PUSH0 DUP1 PUSH2 0x2710 PUSH2 0x149E PUSH32 0x0 DUP6 PUSH2 0x1762 JUMP JUMPDEST PUSH2 0x14A8 SWAP2 SWAP1 PUSH2 0x177F JUMP JUMPDEST SWAP1 POP PUSH0 PUSH2 0x14B5 DUP3 DUP6 PUSH2 0x179E JUMP JUMPDEST SWAP1 POP PUSH32 0x0 TIMESTAMP LT ISZERO PUSH2 0x14E6 JUMPI POP SWAP3 SWAP2 POP POP JUMP JUMPDEST PUSH32 0x0 TIMESTAMP LT PUSH2 0x1515 JUMPI POP SWAP2 SWAP3 SWAP2 POP POP JUMP JUMPDEST PUSH0 PUSH2 0x1540 PUSH32 0x0 TIMESTAMP PUSH2 0x179E JUMP JUMPDEST SWAP1 POP PUSH0 PUSH3 0x375F00 PUSH2 0x1551 DUP4 DUP6 PUSH2 0x1762 JUMP JUMPDEST PUSH2 0x155B SWAP2 SWAP1 PUSH2 0x177F JUMP JUMPDEST SWAP1 POP PUSH2 0x1567 DUP2 DUP6 PUSH2 0x17B1 JUMP JUMPDEST SWAP7 SWAP6 POP POP POP POP POP POP JUMP JUMPDEST PUSH0 DUP1 MLOAD PUSH1 0x20 PUSH2 0x17DC DUP4 CODECOPY DUP2 MLOAD SWAP2 MSTORE SLOAD PUSH1 0x2 SUB PUSH2 0x934 JUMPI PUSH1 0x40 MLOAD PUSH4 0x3EE5AEB5 PUSH1 0xE0 SHL DUP2 MSTORE PUSH1 0x4 ADD PUSH1 0x40 MLOAD DUP1 SWAP2 SUB SWAP1 REVERT JUMPDEST PUSH1 0x40 MLOAD PUSH4 0xA9059CBB PUSH1 0xE0 SHL PUSH0 DUP2 DUP2 MSTORE PUSH1 0x1 PUSH1 0x1 PUSH1 0xA0 SHL SUB DUP7 AND PUSH1 0x4 MSTORE PUSH1 0x24 DUP6 SWAP1 MSTORE SWAP2 PUSH1 0x20 DUP4 PUSH1 0x44 DUP2 DUP1 DUP12 GAS CALL SWAP3 POP PUSH1 0x1 PUSH0 MLOAD EQ DUP4 AND PUSH2 0x15F6 JUMPI DUP4 DUP4 ISZERO AND ISZERO PUSH2 0x15EA JUMPI RETURNDATASIZE PUSH0 DUP3 RETURNDATACOPY RETURNDATASIZE DUP2 REVERT JUMPDEST PUSH0 DUP8 EXTCODESIZE GT RETURNDATASIZE ISZERO AND DUP4 AND SWAP3 POP JUMPDEST PUSH1 0x40 MSTORE POP SWAP5 SWAP4 POP POP POP POP JUMP JUMPDEST PUSH0 SLOAD PUSH1 0x1 PUSH1 0xA0 SHL SWAP1 DIV PUSH1 0xFF AND PUSH2 0x934 JUMPI PUSH1 0x40 MLOAD PUSH4 0x8DFC202B PUSH1 0xE0 SHL DUP2 MSTORE PUSH1 0x4 ADD PUSH1 0x40 MLOAD DUP1 SWAP2 SUB SWAP1 REVERT JUMPDEST PUSH1 0x1 PUSH1 0x1 PUSH1 0xA0 SHL SUB DUP2 AND DUP2 EQ PUSH2 0x921 JUMPI PUSH0 DUP1 REVERT JUMPDEST PUSH0 PUSH1 0x20 DUP3 DUP5 SUB SLT ISZERO PUSH2 0x164F JUMPI PUSH0 DUP1 REVERT JUMPDEST DUP2 CALLDATALOAD PUSH2 0x165A DUP2 PUSH2 0x162B JUMP JUMPDEST SWAP4 SWAP3 POP POP POP JUMP JUMPDEST PUSH0 DUP1 DUP4 PUSH1 0x1F DUP5 ADD SLT PUSH2 0x1671 JUMPI PUSH0 DUP1 REVERT JUMPDEST POP DUP2 CALLDATALOAD PUSH8 0xFFFFFFFFFFFFFFFF DUP2 GT ISZERO PUSH2 0x1688 JUMPI PUSH0 DUP1 REVERT JUMPDEST PUSH1 0x20 DUP4 ADD SWAP2 POP DUP4 PUSH1 0x20 DUP3 PUSH1 0x5 SHL DUP6 ADD ADD GT ISZERO PUSH2 0x16A2 JUMPI PUSH0 DUP1 REVERT JUMPDEST SWAP3 POP SWAP3 SWAP1 POP JUMP JUMPDEST PUSH0 DUP1 PUSH0 DUP1 PUSH1 0x40 DUP6 DUP8 SUB SLT ISZERO PUSH2 0x16BC JUMPI PUSH0 DUP1 REVERT JUMPDEST DUP5 CALLDATALOAD PUSH8 0xFFFFFFFFFFFFFFFF DUP1 DUP3 GT ISZERO PUSH2 0x16D3 JUMPI PUSH0 DUP1 REVERT JUMPDEST PUSH2 0x16DF DUP9 DUP4 DUP10 ADD PUSH2 0x1661 JUMP JUMPDEST SWAP1 SWAP7 POP SWAP5 POP PUSH1 0x20 DUP8 ADD CALLDATALOAD SWAP2 POP DUP1 DUP3 GT ISZERO PUSH2 0x16F7 JUMPI PUSH0 DUP1 REVERT JUMPDEST POP PUSH2 0x1704 DUP8 DUP3 DUP9 ADD PUSH2 0x1661 JUMP JUMPDEST SWAP6 SWAP9 SWAP5 SWAP8 POP SWAP6 POP POP POP POP JUMP JUMPDEST PUSH0 DUP1 PUSH1 0x40 DUP4 DUP6 SUB SLT ISZERO PUSH2 0x1721 JUMPI PUSH0 DUP1 REVERT JUMPDEST DUP3 CALLDATALOAD PUSH2 0x172C DUP2 PUSH2 0x162B JUMP JUMPDEST SWAP5 PUSH1 0x20 SWAP4 SWAP1 SWAP4 ADD CALLDATALOAD SWAP4 POP POP POP JUMP JUMPDEST PUSH4 0x4E487B71 PUSH1 0xE0 SHL PUSH0 MSTORE PUSH1 0x32 PUSH1 0x4 MSTORE PUSH1 0x24 PUSH0 REVERT JUMPDEST PUSH4 0x4E487B71 PUSH1 0xE0 SHL PUSH0 MSTORE PUSH1 0x11 PUSH1 0x4 MSTORE PUSH1 0x24 PUSH0 REVERT JUMPDEST DUP1 DUP3 MUL DUP2 ISZERO DUP3 DUP3 DIV DUP5 EQ OR PUSH2 0x1779 JUMPI PUSH2 0x1779 PUSH2 0x174E JUMP JUMPDEST SWAP3 SWAP2 POP POP JUMP JUMPDEST PUSH0 DUP3 PUSH2 0x1799 JUMPI PUSH4 0x4E487B71 PUSH1 0xE0 SHL PUSH0 MSTORE PUSH1 0x12 PUSH1 0x4 MSTORE PUSH1 0x24 PUSH0 REVERT JUMPDEST POP DIV SWAP1 JUMP JUMPDEST DUP2 DUP2 SUB DUP2 DUP2 GT ISZERO PUSH2 0x1779 JUMPI PUSH2 0x1779 PUSH2 0x174E JUMP JUMPDEST DUP1 DUP3 ADD DUP1 DUP3 GT ISZERO PUSH2 0x1779 JUMPI PUSH2 0x1779 PUSH2 0x174E JUMP JUMPDEST PUSH0 PUSH1 0x20 DUP3 DUP5 SUB SLT ISZERO PUSH2 0x17D4 JUMPI PUSH0 DUP1 REVERT JUMPDEST POP MLOAD SWAP2 SWAP1 POP JUMP INVALID SWAP12 PUSH24 0x9B17422D0DF92223018B32B4D1FA46E071723D6817E2486D STOP EXTCODESIZE 0xEC 0xC5 PUSH0 STOP LOG2 PUSH5 0x6970667358 0x22 SLT KECCAK256 0xAD SWAP16 RETURN 0xCF PUSH17 0xBB4A3616FD6236DA8518473FF043B95395 DUP12 0xD JUMPI 0xFB 0x4F 0xC7 PUSH15 0xD5427064736F6C6343000818003300 "
		},
		"gasEstimates": {
			"creation": {
				"codeDepositCost": "1238600",
				"executionCost": "infinite",
				"totalCost": "infinite"
			},
			"external": {
				"AIRDROP_DURATION()": "240",
				"AIRDROP_END()": "infinite",
				"TGE_UNLOCK_BPS()": "infinite",
				"TOKEN()": "infinite",
				"VESTING_START()": "infinite",
				"activateMigration(address)": "32317",
				"autoBurned()": "2354",
				"claim()": "infinite",
				"claimable()": "infinite",
				"finalize()": "27399",
				"getAllocation()": "8889",
				"isFinalized()": "2416",
				"migrate()": "infinite",
				"migrationActive()": "2393",
				"migrationContract()": "2427",
				"owner()": "2374",
				"participantCount()": "2403",
				"pause()": "infinite",
				"paused()": "2386",
				"renounceOwnership()": "infinite",
				"rescueNonAirdropTokens(address)": "infinite",
				"revokeVesting(address)": "infinite",
				"revokeVestingPartial(address,uint256)": "infinite",
				"setAllocations(address[],uint256[])": "infinite",
				"totalAutoBurned()": "2384",
				"totalBurned()": "4602",
				"totalRevokedBurned()": "2405",
				"transferOwnership(address)": "infinite",
				"unpause()": "infinite",
				"unvestedAmount()": "infinite"
			},
			"internal": {
				"_executeAutoBurn()": "infinite",
				"_getTotalAvailable(uint256)": "infinite",
				"_getUnvestedAmount(struct HybridAirdrop.Allocation memory)": "infinite"
			}
		},
		"methodIdentifiers": {
			"AIRDROP_DURATION()": "17fd045f",
			"AIRDROP_END()": "f30f40a8",
			"TGE_UNLOCK_BPS()": "d2b8abb8",
			"TOKEN()": "82bfefc8",
			"VESTING_START()": "cfd11c4f",
			"activateMigration(address)": "0fc2fd4c",
			"autoBurned()": "5447c35c",
			"claim()": "4e71d92d",
			"claimable()": "af38d757",
			"finalize()": "4bb278f3",
			"getAllocation()": "0c9e1e8e",
			"isFinalized()": "8d4e4083",
			"migrate()": "8fd3ab80",
			"migrationActive()": "8ed6b016",
			"migrationContract()": "0fee1a20",
			"owner()": "8da5cb5b",
			"participantCount()": "362f04c0",
			"pause()": "8456cb59",
			"paused()": "5c975abb",
			"renounceOwnership()": "715018a6",
			"rescueNonAirdropTokens(address)": "f9344395",
			"revokeVesting(address)": "3b0da260",
			"revokeVestingPartial(address,uint256)": "7216bafc",
			"setAllocations(address[],uint256[])": "1ff64acd",
			"totalAutoBurned()": "2d57a680",
			"totalBurned()": "d89135cd",
			"totalRevokedBurned()": "a35061b9",
			"transferOwnership(address)": "f2fde38b",
			"unpause()": "3f4ba83a",
			"unvestedAmount()": "d950975a"
		}
	},
	"abi": [
		{
			"inputs": [
				{
					"internalType": "contract IERC20",
					"name": "token_",
					"type": "address"
				},
				{
					"internalType": "uint256",
					"name": "vestingStart_",
					"type": "uint256"
				},
				{
					"internalType": "uint256",
					"name": "tgeUnlockBps_",
					"type": "uint256"
				}
			],
			"stateMutability": "nonpayable",
			"type": "constructor"
		},
		{
			"inputs": [],
			"name": "ArrayLengthMismatch",
			"type": "error"
		},
		{
			"inputs": [],
			"name": "CannotRescueAirdropToken",
			"type": "error"
		},
		{
			"inputs": [],
			"name": "ContractFinalized",
			"type": "error"
		},
		{
			"inputs": [],
			"name": "EnforcedPause",
			"type": "error"
		},
		{
			"inputs": [],
			"name": "ExpectedPause",
			"type": "error"
		},
		{
			"inputs": [],
			"name": "InsufficientContractBalance",
			"type": "error"
		},
		{
			"inputs": [],
			"name": "MigrationAlreadyActive",
			"type": "error"
		},
		{
			"inputs": [],
			"name": "MigrationNotActive",
			"type": "error"
		},
		{
			"inputs": [],
			"name": "NothingToClaim",
			"type": "error"
		},
		{
			"inputs": [],
			"name": "NothingToRevoke",
			"type": "error"
		},
		{
			"inputs": [
				{
					"internalType": "address",
					"name": "owner",
					"type": "address"
				}
			],
			"name": "OwnableInvalidOwner",
			"type": "error"
		},
		{
			"inputs": [
				{
					"internalType": "address",
					"name": "account",
					"type": "address"
				}
			],
			"name": "OwnableUnauthorizedAccount",
			"type": "error"
		},
		{
			"inputs": [],
			"name": "ReentrancyGuardReentrantCall",
			"type": "error"
		},
		{
			"inputs": [],
			"name": "RevokeAmountExceedsUnvested",
			"type": "error"
		},
		{
			"inputs": [
				{
					"internalType": "address",
					"name": "token",
					"type": "address"
				}
			],
			"name": "SafeERC20FailedOperation",
			"type": "error"
		},
		{
			"inputs": [],
			"name": "TgeBpsExceedsDenominator",
			"type": "error"
		},
		{
			"inputs": [],
			"name": "ZeroAddressNotAllowed",
			"type": "error"
		},
		{
			"inputs": [],
			"name": "ZeroAmount",
			"type": "error"
		},
		{
			"anonymous": false,
			"inputs": [
				{
					"indexed": true,
					"internalType": "address",
					"name": "user",
					"type": "address"
				},
				{
					"indexed": false,
					"internalType": "uint256",
					"name": "totalAmount",
					"type": "uint256"
				}
			],
			"name": "AllocationSet",
			"type": "event"
		},
		{
			"anonymous": false,
			"inputs": [
				{
					"indexed": false,
					"internalType": "uint256",
					"name": "burnedAmount",
					"type": "uint256"
				},
				{
					"indexed": false,
					"internalType": "uint256",
					"name": "timestamp",
					"type": "uint256"
				}
			],
			"name": "AutoBurned",
			"type": "event"
		},
		{
			"anonymous": false,
			"inputs": [],
			"name": "Finalized",
			"type": "event"
		},
		{
			"anonymous": false,
			"inputs": [
				{
					"indexed": true,
					"internalType": "address",
					"name": "user",
					"type": "address"
				},
				{
					"indexed": false,
					"internalType": "uint256",
					"name": "amount",
					"type": "uint256"
				}
			],
			"name": "Migrated",
			"type": "event"
		},
		{
			"anonymous": false,
			"inputs": [
				{
					"indexed": true,
					"internalType": "address",
					"name": "newContract",
					"type": "address"
				}
			],
			"name": "MigrationActivated",
			"type": "event"
		},
		{
			"anonymous": false,
			"inputs": [
				{
					"indexed": true,
					"internalType": "address",
					"name": "rescuedToken",
					"type": "address"
				},
				{
					"indexed": false,
					"internalType": "uint256",
					"name": "amount",
					"type": "uint256"
				}
			],
			"name": "NonAirdropTokenRescued",
			"type": "event"
		},
		{
			"anonymous": false,
			"inputs": [
				{
					"indexed": true,
					"internalType": "address",
					"name": "previousOwner",
					"type": "address"
				},
				{
					"indexed": true,
					"internalType": "address",
					"name": "newOwner",
					"type": "address"
				}
			],
			"name": "OwnershipTransferred",
			"type": "event"
		},
		{
			"anonymous": false,
			"inputs": [
				{
					"indexed": false,
					"internalType": "address",
					"name": "account",
					"type": "address"
				}
			],
			"name": "Paused",
			"type": "event"
		},
		{
			"anonymous": false,
			"inputs": [
				{
					"indexed": true,
					"internalType": "address",
					"name": "user",
					"type": "address"
				},
				{
					"indexed": false,
					"internalType": "uint256",
					"name": "amount",
					"type": "uint256"
				}
			],
			"name": "TokensClaimed",
			"type": "event"
		},
		{
			"anonymous": false,
			"inputs": [
				{
					"indexed": false,
					"internalType": "address",
					"name": "account",
					"type": "address"
				}
			],
			"name": "Unpaused",
			"type": "event"
		},
		{
			"anonymous": false,
			"inputs": [
				{
					"indexed": true,
					"internalType": "address",
					"name": "user",
					"type": "address"
				},
				{
					"indexed": false,
					"internalType": "uint256",
					"name": "revokedAmount",
					"type": "uint256"
				}
			],
			"name": "VestingRevokedAndBurned",
			"type": "event"
		},
		{
			"inputs": [],
			"name": "AIRDROP_DURATION",
			"outputs": [
				{
					"internalType": "uint256",
					"name": "",
					"type": "uint256"
				}
			],
			"stateMutability": "view",
			"type": "function"
		},
		{
			"inputs": [],
			"name": "AIRDROP_END",
			"outputs": [
				{
					"internalType": "uint256",
					"name": "",
					"type": "uint256"
				}
			],
			"stateMutability": "view",
			"type": "function"
		},
		{
			"inputs": [],
			"name": "TGE_UNLOCK_BPS",
			"outputs": [
				{
					"internalType": "uint256",
					"name": "",
					"type": "uint256"
				}
			],
			"stateMutability": "view",
			"type": "function"
		},
		{
			"inputs": [],
			"name": "TOKEN",
			"outputs": [
				{
					"internalType": "contract IERC20",
					"name": "",
					"type": "address"
				}
			],
			"stateMutability": "view",
			"type": "function"
		},
		{
			"inputs": [],
			"name": "VESTING_START",
			"outputs": [
				{
					"internalType": "uint256",
					"name": "",
					"type": "uint256"
				}
			],
			"stateMutability": "view",
			"type": "function"
		},
		{
			"inputs": [
				{
					"internalType": "address",
					"name": "newContract_",
					"type": "address"
				}
			],
			"name": "activateMigration",
			"outputs": [],
			"stateMutability": "nonpayable",
			"type": "function"
		},
		{
			"inputs": [],
			"name": "autoBurned",
			"outputs": [
				{
					"internalType": "bool",
					"name": "",
					"type": "bool"
				}
			],
			"stateMutability": "view",
			"type": "function"
		},
		{
			"inputs": [],
			"name": "claim",
			"outputs": [],
			"stateMutability": "nonpayable",
			"type": "function"
		},
		{
			"inputs": [],
			"name": "claimable",
			"outputs": [
				{
					"internalType": "uint256",
					"name": "claimable_",
					"type": "uint256"
				}
			],
			"stateMutability": "view",
			"type": "function"
		},
		{
			"inputs": [],
			"name": "finalize",
			"outputs": [],
			"stateMutability": "nonpayable",
			"type": "function"
		},
		{
			"inputs": [],
			"name": "getAllocation",
			"outputs": [
				{
					"internalType": "uint256",
					"name": "total",
					"type": "uint256"
				},
				{
					"internalType": "uint256",
					"name": "claimed",
					"type": "uint256"
				},
				{
					"internalType": "uint256",
					"name": "revocable",
					"type": "uint256"
				},
				{
					"internalType": "bool",
					"name": "isBurned",
					"type": "bool"
				}
			],
			"stateMutability": "view",
			"type": "function"
		},
		{
			"inputs": [],
			"name": "isFinalized",
			"outputs": [
				{
					"internalType": "bool",
					"name": "",
					"type": "bool"
				}
			],
			"stateMutability": "view",
			"type": "function"
		},
		{
			"inputs": [],
			"name": "migrate",
			"outputs": [],
			"stateMutability": "nonpayable",
			"type": "function"
		},
		{
			"inputs": [],
			"name": "migrationActive",
			"outputs": [
				{
					"internalType": "bool",
					"name": "",
					"type": "bool"
				}
			],
			"stateMutability": "view",
			"type": "function"
		},
		{
			"inputs": [],
			"name": "migrationContract",
			"outputs": [
				{
					"internalType": "address",
					"name": "",
					"type": "address"
				}
			],
			"stateMutability": "view",
			"type": "function"
		},
		{
			"inputs": [],
			"name": "owner",
			"outputs": [
				{
					"internalType": "address",
					"name": "",
					"type": "address"
				}
			],
			"stateMutability": "view",
			"type": "function"
		},
		{
			"inputs": [],
			"name": "participantCount",
			"outputs": [
				{
					"internalType": "uint256",
					"name": "",
					"type": "uint256"
				}
			],
			"stateMutability": "view",
			"type": "function"
		},
		{
			"inputs": [],
			"name": "pause",
			"outputs": [],
			"stateMutability": "nonpayable",
			"type": "function"
		},
		{
			"inputs": [],
			"name": "paused",
			"outputs": [
				{
					"internalType": "bool",
					"name": "",
					"type": "bool"
				}
			],
			"stateMutability": "view",
			"type": "function"
		},
		{
			"inputs": [],
			"name": "renounceOwnership",
			"outputs": [],
			"stateMutability": "nonpayable",
			"type": "function"
		},
		{
			"inputs": [
				{
					"internalType": "contract IERC20",
					"name": "token_",
					"type": "address"
				}
			],
			"name": "rescueNonAirdropTokens",
			"outputs": [],
			"stateMutability": "nonpayable",
			"type": "function"
		},
		{
			"inputs": [
				{
					"internalType": "address",
					"name": "user_",
					"type": "address"
				}
			],
			"name": "revokeVesting",
			"outputs": [],
			"stateMutability": "nonpayable",
			"type": "function"
		},
		{
			"inputs": [
				{
					"internalType": "address",
					"name": "user_",
					"type": "address"
				},
				{
					"internalType": "uint256",
					"name": "amount_",
					"type": "uint256"
				}
			],
			"name": "revokeVestingPartial",
			"outputs": [],
			"stateMutability": "nonpayable",
			"type": "function"
		},
		{
			"inputs": [
				{
					"internalType": "address[]",
					"name": "users_",
					"type": "address[]"
				},
				{
					"internalType": "uint256[]",
					"name": "amounts_",
					"type": "uint256[]"
				}
			],
			"name": "setAllocations",
			"outputs": [],
			"stateMutability": "nonpayable",
			"type": "function"
		},
		{
			"inputs": [],
			"name": "totalAutoBurned",
			"outputs": [
				{
					"internalType": "uint256",
					"name": "",
					"type": "uint256"
				}
			],
			"stateMutability": "view",
			"type": "function"
		},
		{
			"inputs": [],
			"name": "totalBurned",
			"outputs": [
				{
					"internalType": "uint256",
					"name": "",
					"type": "uint256"
				}
			],
			"stateMutability": "view",
			"type": "function"
		},
		{
			"inputs": [],
			"name": "totalRevokedBurned",
			"outputs": [
				{
					"internalType": "uint256",
					"name": "",
					"type": "uint256"
				}
			],
			"stateMutability": "view",
			"type": "function"
		},
		{
			"inputs": [
				{
					"internalType": "address",
					"name": "newOwner",
					"type": "address"
				}
			],
			"name": "transferOwnership",
			"outputs": [],
			"stateMutability": "nonpayable",
			"type": "function"
		},
		{
			"inputs": [],
			"name": "unpause",
			"outputs": [],
			"stateMutability": "nonpayable",
			"type": "function"
		},
		{
			"inputs": [],
			"name": "unvestedAmount",
			"outputs": [
				{
					"internalType": "uint256",
					"name": "unvested_",
					"type": "uint256"
				}
			],
			"stateMutability": "view",
			"type": "function"
		}
	]
}