{
	"data": {
		"bytecode": {
			"linkReferences": {},
			"object": "61014060405234801561001157600080fd5b50604051611097380380611097833981016040819052610030916103c7565b338061005757604051631e4fbdf760e01b8152600060048201526024015b60405180910390fd5b610060816102b1565b5060017f9b779b17422d0df92223018b32b4d1fa46e071723d6817e2486d003becc55f00556001600160a01b0386166101015760405162461bcd60e51b815260206004820152603460248201527f50616e6a6f436f696e56657374696e673a2062656e656669636961727920636160448201527f6e6e6f74206265207a65726f2061646472657373000000000000000000000000606482015260840161004e565b6001600160a01b03851661016e5760405162461bcd60e51b815260206004820152602e60248201527f50616e6a6f436f696e56657374696e673a20746f6b656e2063616e6e6f74206260448201526d65207a65726f206164647265737360901b606482015260840161004e565b600084116101e45760405162461bcd60e51b815260206004820152603560248201527f50616e6a6f436f696e56657374696e673a20746f74616c20616d6f756e74206d60448201527f7573742062652067726561746572207468616e20300000000000000000000000606482015260840161004e565b8082111561025a5760405162461bcd60e51b815260206004820152603f60248201527f50616e6a6f436f696e56657374696e673a20636c696666206475726174696f6e60448201527f2063616e6e6f74206578636565642076657374696e67206475726174696f6e00606482015260840161004e565b60006102668385610425565b6001600160a01b03808916608052871660a081905261012087905260c086905260e082905261010084905260006001559091506102a590333088610301565b5050505050505061044c565b600080546001600160a01b038381166001600160a01b0319831681178455604051919092169283917f8be0079c531659141344cd1fd0a4f28419497f9722a3daafe3b4186f6b6457e09190a35050565b61030f84848484600161033d565b61033757604051635274afe760e01b81526001600160a01b038516600482015260240161004e565b50505050565b6040516323b872dd60e01b60008181526001600160a01b038781166004528616602452604485905291602083606481808c5af19250600160005114831661039d578383151615610390573d6000823e3d81fd5b6000883b113d1516831692505b60405250600060605295945050505050565b6001600160a01b03811681146103c457600080fd5b50565b60008060008060008060c087890312156103e057600080fd5b86516103eb816103af565b60208801519096506103fc816103af565b6040880151606089015160808a015160a0909a0151989b929a5090989097909650945092505050565b8082018082111561044657634e487b7160e01b600052601160045260246000fd5b92915050565b60805160a05160c05160e0516101005161012051610b9a6104fd60003960008181610176015281816102ad0152818161035b01526103d701526000818161014f0152818161030e01526103b2015260008181610115015281816102db0152610387015260008181610239015261032f01526000818161027b015281816105420152818161061e01526106a30152600081816101ab0152818161042001528181610564015261058b0152610b9a6000f3fe608060405234801561001057600080fd5b506004361061010b5760003560e01c80636f9fb98a116100a25780639613252111610071578063961325211461022b578063be9a655514610234578063f2fde38b1461025b578063fbccedae1461026e578063fc0c546a1461027657600080fd5b80636f9fb98a146101f75780636ff1c9bc146101ff578063715018a6146102125780638da5cb5b1461021a57600080fd5b80633317bbcc116100de5780633317bbcc1461019e57806338af3eed146101a657806344b1231f146101e55780634e71d92d146101ed57600080fd5b806313d033c0146101105780631514617e1461014a5780631a39d8ef1461017157806329cb924d14610198575b600080fd5b6101377f000000000000000000000000000000000000000000000000000000000000000081565b6040519081526020015b60405180910390f35b6101377f000000000000000000000000000000000000000000000000000000000000000081565b6101377f000000000000000000000000000000000000000000000000000000000000000081565b42610137565b61013761029d565b6101cd7f000000000000000000000000000000000000000000000000000000000000000081565b6040516001600160a01b039091168152602001610141565b6101376102d6565b6101f561040d565b005b610137610606565b6101f561020d366004610a8c565b610691565b6101f561088f565b6000546001600160a01b03166101cd565b61013760015481565b6101377f000000000000000000000000000000000000000000000000000000000000000081565b6101f5610269366004610a8c565b6108a1565b6101376108dc565b6101cd7f000000000000000000000000000000000000000000000000000000000000000081565b60006102a76102d6565b6102d1907f0000000000000000000000000000000000000000000000000000000000000000610ac6565b905090565b6000427f000000000000000000000000000000000000000000000000000000000000000081101561030957600091505090565b6103537f00000000000000000000000000000000000000000000000000000000000000007f0000000000000000000000000000000000000000000000000000000000000000610adf565b8110610380577f000000000000000000000000000000000000000000000000000000000000000091505090565b60006103ac7f000000000000000000000000000000000000000000000000000000000000000083610ac6565b905060007f00000000000000000000000000000000000000000000000000000000000000006103fb837f0000000000000000000000000000000000000000000000000000000000000000610af2565b6104059190610b09565b949350505050565b61041561090e565b336001600160a01b037f000000000000000000000000000000000000000000000000000000000000000016146104aa5760405162461bcd60e51b815260206004820152602f60248201527f50616e6a6f436f696e56657374696e673a2063616c6c6572206973206e6f742060448201526e7468652062656e656669636961727960881b60648201526084015b60405180910390fd5b60006104b46108dc565b90506000811161051d5760405162461bcd60e51b815260206004820152602e60248201527f50616e6a6f436f696e56657374696e673a206e6f20746f6b656e73206176616960448201526d6c61626c6520746f20636c61696d60901b60648201526084016104a1565b806001600082825461052f9190610adf565b9091555061058990506001600160a01b037f0000000000000000000000000000000000000000000000000000000000000000167f00000000000000000000000000000000000000000000000000000000000000008361092a565b7f00000000000000000000000000000000000000000000000000000000000000006001600160a01b03167fc7798891864187665ac6dd119286e44ec13f014527aeeb2b8eb3fd413df93179826040516105e491815260200190565b60405180910390a2506106046001600080516020610b4583398151915255565b565b6040516370a0823160e01b81523060048201526000907f00000000000000000000000000000000000000000000000000000000000000006001600160a01b0316906370a0823190602401602060405180830381865afa15801561066d573d6000803e3d6000fd5b505050506040513d601f19601f820116820180604052508101906102d19190610b2b565b610699610964565b6106a161090e565b7f00000000000000000000000000000000000000000000000000000000000000006001600160a01b0316816001600160a01b03160361073d5760405162461bcd60e51b815260206004820152603260248201527f50616e6a6f436f696e56657374696e673a2063616e6e6f7420776974686472616044820152713b903a3432903b32b9ba32b2103a37b5b2b760711b60648201526084016104a1565b6040516370a0823160e01b81523060048201526000906001600160a01b038316906370a0823190602401602060405180830381865afa158015610784573d6000803e3d6000fd5b505050506040513d601f19601f820116820180604052508101906107a89190610b2b565b90506000811161080b5760405162461bcd60e51b815260206004820152602860248201527f50616e6a6f436f696e56657374696e673a206e6f2062616c616e636520746f20604482015267776974686472617760c01b60648201526084016104a1565b6108316108206000546001600160a01b031690565b6001600160a01b038416908361092a565b816001600160a01b03167f2e39961a70a10f4d46383948095ac2752b3ee642a7c76aa827410aaff08c2e518260405161086c91815260200190565b60405180910390a25061088c6001600080516020610b4583398151915255565b50565b610897610964565b6106046000610991565b6108a9610964565b6001600160a01b0381166108d357604051631e4fbdf760e01b8152600060048201526024016104a1565b61088c81610991565b6000806108e76102d6565b6001549091508082116108fd5760009250505090565b6109078183610ac6565b9250505090565b6109166109e1565b6002600080516020610b4583398151915255565b6109378383836001610a11565b61095f57604051635274afe760e01b81526001600160a01b03841660048201526024016104a1565b505050565b6000546001600160a01b031633146106045760405163118cdaa760e01b81523360048201526024016104a1565b600080546001600160a01b038381166001600160a01b0319831681178455604051919092169283917f8be0079c531659141344cd1fd0a4f28419497f9722a3daafe3b4186f6b6457e09190a35050565b600080516020610b458339815191525460020361060457604051633ee5aeb560e01b815260040160405180910390fd5b60405163a9059cbb60e01b60008181526001600160a01b038616600452602485905291602083604481808b5af192506001600051148316610a6b578383151615610a5e573d6000823e3d81fd5b6000873b113d1516831692505b60405250949350505050565b6001600160a01b038116811461088c57600080fd5b600060208284031215610a9e57600080fd5b8135610aa981610a77565b9392505050565b634e487b7160e01b600052601160045260246000fd5b81810381811115610ad957610ad9610ab0565b92915050565b80820180821115610ad957610ad9610ab0565b8082028115828204841417610ad957610ad9610ab0565b600082610b2657634e487b7160e01b600052601260045260246000fd5b500490565b600060208284031215610b3d57600080fd5b505191905056fe9b779b17422d0df92223018b32b4d1fa46e071723d6817e2486d003becc55f00a26469706673582212204c928b59165295215444ff0ead67f1c75b6e9a8ec6201e6e5a7db436eb301b4b64736f6c63430008220033",
			"opcodes": "PUSH2 0x140 PUSH1 0x40 MSTORE CALLVALUE DUP1 ISZERO PUSH2 0x11 JUMPI PUSH1 0x0 DUP1 REVERT JUMPDEST POP PUSH1 0x40 MLOAD PUSH2 0x1097 CODESIZE SUB DUP1 PUSH2 0x1097 DUP4 CODECOPY DUP2 ADD PUSH1 0x40 DUP2 SWAP1 MSTORE PUSH2 0x30 SWAP2 PUSH2 0x3C7 JUMP JUMPDEST CALLER DUP1 PUSH2 0x57 JUMPI PUSH1 0x40 MLOAD PUSH4 0x1E4FBDF7 PUSH1 0xE0 SHL DUP2 MSTORE PUSH1 0x0 PUSH1 0x4 DUP3 ADD MSTORE PUSH1 0x24 ADD JUMPDEST PUSH1 0x40 MLOAD DUP1 SWAP2 SUB SWAP1 REVERT JUMPDEST PUSH2 0x60 DUP2 PUSH2 0x2B1 JUMP JUMPDEST POP PUSH1 0x1 PUSH32 0x9B779B17422D0DF92223018B32B4D1FA46E071723D6817E2486D003BECC55F00 SSTORE PUSH1 0x1 PUSH1 0x1 PUSH1 0xA0 SHL SUB DUP7 AND PUSH2 0x101 JUMPI PUSH1 0x40 MLOAD PUSH3 0x461BCD PUSH1 0xE5 SHL DUP2 MSTORE PUSH1 0x20 PUSH1 0x4 DUP3 ADD MSTORE PUSH1 0x34 PUSH1 0x24 DUP3 ADD MSTORE PUSH32 0x50616E6A6F436F696E56657374696E673A2062656E6566696369617279206361 PUSH1 0x44 DUP3 ADD MSTORE PUSH32 0x6E6E6F74206265207A65726F2061646472657373000000000000000000000000 PUSH1 0x64 DUP3 ADD MSTORE PUSH1 0x84 ADD PUSH2 0x4E JUMP JUMPDEST PUSH1 0x1 PUSH1 0x1 PUSH1 0xA0 SHL SUB DUP6 AND PUSH2 0x16E JUMPI PUSH1 0x40 MLOAD PUSH3 0x461BCD PUSH1 0xE5 SHL DUP2 MSTORE PUSH1 0x20 PUSH1 0x4 DUP3 ADD MSTORE PUSH1 0x2E PUSH1 0x24 DUP3 ADD MSTORE PUSH32 0x50616E6A6F436F696E56657374696E673A20746F6B656E2063616E6E6F742062 PUSH1 0x44 DUP3 ADD MSTORE PUSH14 0x65207A65726F2061646472657373 PUSH1 0x90 SHL PUSH1 0x64 DUP3 ADD MSTORE PUSH1 0x84 ADD PUSH2 0x4E JUMP JUMPDEST PUSH1 0x0 DUP5 GT PUSH2 0x1E4 JUMPI PUSH1 0x40 MLOAD PUSH3 0x461BCD PUSH1 0xE5 SHL DUP2 MSTORE PUSH1 0x20 PUSH1 0x4 DUP3 ADD MSTORE PUSH1 0x35 PUSH1 0x24 DUP3 ADD MSTORE PUSH32 0x50616E6A6F436F696E56657374696E673A20746F74616C20616D6F756E74206D PUSH1 0x44 DUP3 ADD MSTORE PUSH32 0x7573742062652067726561746572207468616E20300000000000000000000000 PUSH1 0x64 DUP3 ADD MSTORE PUSH1 0x84 ADD PUSH2 0x4E JUMP JUMPDEST DUP1 DUP3 GT ISZERO PUSH2 0x25A JUMPI PUSH1 0x40 MLOAD PUSH3 0x461BCD PUSH1 0xE5 SHL DUP2 MSTORE PUSH1 0x20 PUSH1 0x4 DUP3 ADD MSTORE PUSH1 0x3F PUSH1 0x24 DUP3 ADD MSTORE PUSH32 0x50616E6A6F436F696E56657374696E673A20636C696666206475726174696F6E PUSH1 0x44 DUP3 ADD MSTORE PUSH32 0x2063616E6E6F74206578636565642076657374696E67206475726174696F6E00 PUSH1 0x64 DUP3 ADD MSTORE PUSH1 0x84 ADD PUSH2 0x4E JUMP JUMPDEST PUSH1 0x0 PUSH2 0x266 DUP4 DUP6 PUSH2 0x425 JUMP JUMPDEST PUSH1 0x1 PUSH1 0x1 PUSH1 0xA0 SHL SUB DUP1 DUP10 AND PUSH1 0x80 MSTORE DUP8 AND PUSH1 0xA0 DUP2 SWAP1 MSTORE PUSH2 0x120 DUP8 SWAP1 MSTORE PUSH1 0xC0 DUP7 SWAP1 MSTORE PUSH1 0xE0 DUP3 SWAP1 MSTORE PUSH2 0x100 DUP5 SWAP1 MSTORE PUSH1 0x0 PUSH1 0x1 SSTORE SWAP1 SWAP2 POP PUSH2 0x2A5 SWAP1 CALLER ADDRESS DUP9 PUSH2 0x301 JUMP JUMPDEST POP POP POP POP POP POP POP PUSH2 0x44C JUMP JUMPDEST PUSH1 0x0 DUP1 SLOAD PUSH1 0x1 PUSH1 0x1 PUSH1 0xA0 SHL SUB DUP4 DUP2 AND PUSH1 0x1 PUSH1 0x1 PUSH1 0xA0 SHL SUB NOT DUP4 AND DUP2 OR DUP5 SSTORE PUSH1 0x40 MLOAD SWAP2 SWAP1 SWAP3 AND SWAP3 DUP4 SWAP2 PUSH32 0x8BE0079C531659141344CD1FD0A4F28419497F9722A3DAAFE3B4186F6B6457E0 SWAP2 SWAP1 LOG3 POP POP JUMP JUMPDEST PUSH2 0x30F DUP5 DUP5 DUP5 DUP5 PUSH1 0x1 PUSH2 0x33D JUMP JUMPDEST PUSH2 0x337 JUMPI PUSH1 0x40 MLOAD PUSH4 0x5274AFE7 PUSH1 0xE0 SHL DUP2 MSTORE PUSH1 0x1 PUSH1 0x1 PUSH1 0xA0 SHL SUB DUP6 AND PUSH1 0x4 DUP3 ADD MSTORE PUSH1 0x24 ADD PUSH2 0x4E JUMP JUMPDEST POP POP POP POP JUMP JUMPDEST PUSH1 0x40 MLOAD PUSH4 0x23B872DD PUSH1 0xE0 SHL PUSH1 0x0 DUP2 DUP2 MSTORE PUSH1 0x1 PUSH1 0x1 PUSH1 0xA0 SHL SUB DUP8 DUP2 AND PUSH1 0x4 MSTORE DUP7 AND PUSH1 0x24 MSTORE PUSH1 0x44 DUP6 SWAP1 MSTORE SWAP2 PUSH1 0x20 DUP4 PUSH1 0x64 DUP2 DUP1 DUP13 GAS CALL SWAP3 POP PUSH1 0x1 PUSH1 0x0 MLOAD EQ DUP4 AND PUSH2 0x39D JUMPI DUP4 DUP4 ISZERO AND ISZERO PUSH2 0x390 JUMPI RETURNDATASIZE PUSH1 0x0 DUP3 RETURNDATACOPY RETURNDATASIZE DUP2 REVERT JUMPDEST PUSH1 0x0 DUP9 EXTCODESIZE GT RETURNDATASIZE ISZERO AND DUP4 AND SWAP3 POP JUMPDEST PUSH1 0x40 MSTORE POP PUSH1 0x0 PUSH1 0x60 MSTORE SWAP6 SWAP5 POP POP POP POP POP JUMP JUMPDEST PUSH1 0x1 PUSH1 0x1 PUSH1 0xA0 SHL SUB DUP2 AND DUP2 EQ PUSH2 0x3C4 JUMPI PUSH1 0x0 DUP1 REVERT JUMPDEST POP JUMP JUMPDEST PUSH1 0x0 DUP1 PUSH1 0x0 DUP1 PUSH1 0x0 DUP1 PUSH1 0xC0 DUP8 DUP10 SUB SLT ISZERO PUSH2 0x3E0 JUMPI PUSH1 0x0 DUP1 REVERT JUMPDEST DUP7 MLOAD PUSH2 0x3EB DUP2 PUSH2 0x3AF JUMP JUMPDEST PUSH1 0x20 DUP9 ADD MLOAD SWAP1 SWAP7 POP PUSH2 0x3FC DUP2 PUSH2 0x3AF JUMP JUMPDEST PUSH1 0x40 DUP9 ADD MLOAD PUSH1 0x60 DUP10 ADD MLOAD PUSH1 0x80 DUP11 ADD MLOAD PUSH1 0xA0 SWAP1 SWAP11 ADD MLOAD SWAP9 SWAP12 SWAP3 SWAP11 POP SWAP1 SWAP9 SWAP1 SWAP8 SWAP1 SWAP7 POP SWAP5 POP SWAP3 POP POP POP JUMP JUMPDEST DUP1 DUP3 ADD DUP1 DUP3 GT ISZERO PUSH2 0x446 JUMPI PUSH4 0x4E487B71 PUSH1 0xE0 SHL PUSH1 0x0 MSTORE PUSH1 0x11 PUSH1 0x4 MSTORE PUSH1 0x24 PUSH1 0x0 REVERT JUMPDEST SWAP3 SWAP2 POP POP JUMP JUMPDEST PUSH1 0x80 MLOAD PUSH1 0xA0 MLOAD PUSH1 0xC0 MLOAD PUSH1 0xE0 MLOAD PUSH2 0x100 MLOAD PUSH2 0x120 MLOAD PUSH2 0xB9A PUSH2 0x4FD PUSH1 0x0 CODECOPY PUSH1 0x0 DUP2 DUP2 PUSH2 0x176 ADD MSTORE DUP2 DUP2 PUSH2 0x2AD ADD MSTORE DUP2 DUP2 PUSH2 0x35B ADD MSTORE PUSH2 0x3D7 ADD MSTORE PUSH1 0x0 DUP2 DUP2 PUSH2 0x14F ADD MSTORE DUP2 DUP2 PUSH2 0x30E ADD MSTORE PUSH2 0x3B2 ADD MSTORE PUSH1 0x0 DUP2 DUP2 PUSH2 0x115 ADD MSTORE DUP2 DUP2 PUSH2 0x2DB ADD MSTORE PUSH2 0x387 ADD MSTORE PUSH1 0x0 DUP2 DUP2 PUSH2 0x239 ADD MSTORE PUSH2 0x32F ADD MSTORE PUSH1 0x0 DUP2 DUP2 PUSH2 0x27B ADD MSTORE DUP2 DUP2 PUSH2 0x542 ADD MSTORE DUP2 DUP2 PUSH2 0x61E ADD MSTORE PUSH2 0x6A3 ADD MSTORE PUSH1 0x0 DUP2 DUP2 PUSH2 0x1AB ADD MSTORE DUP2 DUP2 PUSH2 0x420 ADD MSTORE DUP2 DUP2 PUSH2 0x564 ADD MSTORE PUSH2 0x58B ADD MSTORE PUSH2 0xB9A PUSH1 0x0 RETURN INVALID PUSH1 0x80 PUSH1 0x40 MSTORE CALLVALUE DUP1 ISZERO PUSH2 0x10 JUMPI PUSH1 0x0 DUP1 REVERT JUMPDEST POP PUSH1 0x4 CALLDATASIZE LT PUSH2 0x10B JUMPI PUSH1 0x0 CALLDATALOAD PUSH1 0xE0 SHR DUP1 PUSH4 0x6F9FB98A GT PUSH2 0xA2 JUMPI DUP1 PUSH4 0x96132521 GT PUSH2 0x71 JUMPI DUP1 PUSH4 0x96132521 EQ PUSH2 0x22B JUMPI DUP1 PUSH4 0xBE9A6555 EQ PUSH2 0x234 JUMPI DUP1 PUSH4 0xF2FDE38B EQ PUSH2 0x25B JUMPI DUP1 PUSH4 0xFBCCEDAE EQ PUSH2 0x26E JUMPI DUP1 PUSH4 0xFC0C546A EQ PUSH2 0x276 JUMPI PUSH1 0x0 DUP1 REVERT JUMPDEST DUP1 PUSH4 0x6F9FB98A EQ PUSH2 0x1F7 JUMPI DUP1 PUSH4 0x6FF1C9BC EQ PUSH2 0x1FF JUMPI DUP1 PUSH4 0x715018A6 EQ PUSH2 0x212 JUMPI DUP1 PUSH4 0x8DA5CB5B EQ PUSH2 0x21A JUMPI PUSH1 0x0 DUP1 REVERT JUMPDEST DUP1 PUSH4 0x3317BBCC GT PUSH2 0xDE JUMPI DUP1 PUSH4 0x3317BBCC EQ PUSH2 0x19E JUMPI DUP1 PUSH4 0x38AF3EED EQ PUSH2 0x1A6 JUMPI DUP1 PUSH4 0x44B1231F EQ PUSH2 0x1E5 JUMPI DUP1 PUSH4 0x4E71D92D EQ PUSH2 0x1ED JUMPI PUSH1 0x0 DUP1 REVERT JUMPDEST DUP1 PUSH4 0x13D033C0 EQ PUSH2 0x110 JUMPI DUP1 PUSH4 0x1514617E EQ PUSH2 0x14A JUMPI DUP1 PUSH4 0x1A39D8EF EQ PUSH2 0x171 JUMPI DUP1 PUSH4 0x29CB924D EQ PUSH2 0x198 JUMPI JUMPDEST PUSH1 0x0 DUP1 REVERT JUMPDEST PUSH2 0x137 PUSH32 0x0 DUP2 JUMP JUMPDEST PUSH1 0x40 MLOAD SWAP1 DUP2 MSTORE PUSH1 0x20 ADD JUMPDEST PUSH1 0x40 MLOAD DUP1 SWAP2 SUB SWAP1 RETURN JUMPDEST PUSH2 0x137 PUSH32 0x0 DUP2 JUMP JUMPDEST PUSH2 0x137 PUSH32 0x0 DUP2 JUMP JUMPDEST TIMESTAMP PUSH2 0x137 JUMP JUMPDEST PUSH2 0x137 PUSH2 0x29D JUMP JUMPDEST PUSH2 0x1CD PUSH32 0x0 DUP2 JUMP JUMPDEST PUSH1 0x40 MLOAD PUSH1 0x1 PUSH1 0x1 PUSH1 0xA0 SHL SUB SWAP1 SWAP2 AND DUP2 MSTORE PUSH1 0x20 ADD PUSH2 0x141 JUMP JUMPDEST PUSH2 0x137 PUSH2 0x2D6 JUMP JUMPDEST PUSH2 0x1F5 PUSH2 0x40D JUMP JUMPDEST STOP JUMPDEST PUSH2 0x137 PUSH2 0x606 JUMP JUMPDEST PUSH2 0x1F5 PUSH2 0x20D CALLDATASIZE PUSH1 0x4 PUSH2 0xA8C JUMP JUMPDEST PUSH2 0x691 JUMP JUMPDEST PUSH2 0x1F5 PUSH2 0x88F JUMP JUMPDEST PUSH1 0x0 SLOAD PUSH1 0x1 PUSH1 0x1 PUSH1 0xA0 SHL SUB AND PUSH2 0x1CD JUMP JUMPDEST PUSH2 0x137 PUSH1 0x1 SLOAD DUP2 JUMP JUMPDEST PUSH2 0x137 PUSH32 0x0 DUP2 JUMP JUMPDEST PUSH2 0x1F5 PUSH2 0x269 CALLDATASIZE PUSH1 0x4 PUSH2 0xA8C JUMP JUMPDEST PUSH2 0x8A1 JUMP JUMPDEST PUSH2 0x137 PUSH2 0x8DC JUMP JUMPDEST PUSH2 0x1CD PUSH32 0x0 DUP2 JUMP JUMPDEST PUSH1 0x0 PUSH2 0x2A7 PUSH2 0x2D6 JUMP JUMPDEST PUSH2 0x2D1 SWAP1 PUSH32 0x0 PUSH2 0xAC6 JUMP JUMPDEST SWAP1 POP SWAP1 JUMP JUMPDEST PUSH1 0x0 TIMESTAMP PUSH32 0x0 DUP2 LT ISZERO PUSH2 0x309 JUMPI PUSH1 0x0 SWAP2 POP POP SWAP1 JUMP JUMPDEST PUSH2 0x353 PUSH32 0x0 PUSH32 0x0 PUSH2 0xADF JUMP JUMPDEST DUP2 LT PUSH2 0x380 JUMPI PUSH32 0x0 SWAP2 POP POP SWAP1 JUMP JUMPDEST PUSH1 0x0 PUSH2 0x3AC PUSH32 0x0 DUP4 PUSH2 0xAC6 JUMP JUMPDEST SWAP1 POP PUSH1 0x0 PUSH32 0x0 PUSH2 0x3FB DUP4 PUSH32 0x0 PUSH2 0xAF2 JUMP JUMPDEST PUSH2 0x405 SWAP2 SWAP1 PUSH2 0xB09 JUMP JUMPDEST SWAP5 SWAP4 POP POP POP POP JUMP JUMPDEST PUSH2 0x415 PUSH2 0x90E JUMP JUMPDEST CALLER PUSH1 0x1 PUSH1 0x1 PUSH1 0xA0 SHL SUB PUSH32 0x0 AND EQ PUSH2 0x4AA JUMPI PUSH1 0x40 MLOAD PUSH3 0x461BCD PUSH1 0xE5 SHL DUP2 MSTORE PUSH1 0x20 PUSH1 0x4 DUP3 ADD MSTORE PUSH1 0x2F PUSH1 0x24 DUP3 ADD MSTORE PUSH32 0x50616E6A6F436F696E56657374696E673A2063616C6C6572206973206E6F7420 PUSH1 0x44 DUP3 ADD MSTORE PUSH15 0x7468652062656E6566696369617279 PUSH1 0x88 SHL PUSH1 0x64 DUP3 ADD MSTORE PUSH1 0x84 ADD JUMPDEST PUSH1 0x40 MLOAD DUP1 SWAP2 SUB SWAP1 REVERT JUMPDEST PUSH1 0x0 PUSH2 0x4B4 PUSH2 0x8DC JUMP JUMPDEST SWAP1 POP PUSH1 0x0 DUP2 GT PUSH2 0x51D JUMPI PUSH1 0x40 MLOAD PUSH3 0x461BCD PUSH1 0xE5 SHL DUP2 MSTORE PUSH1 0x20 PUSH1 0x4 DUP3 ADD MSTORE PUSH1 0x2E PUSH1 0x24 DUP3 ADD MSTORE PUSH32 0x50616E6A6F436F696E56657374696E673A206E6F20746F6B656E732061766169 PUSH1 0x44 DUP3 ADD MSTORE PUSH14 0x6C61626C6520746F20636C61696D PUSH1 0x90 SHL PUSH1 0x64 DUP3 ADD MSTORE PUSH1 0x84 ADD PUSH2 0x4A1 JUMP JUMPDEST DUP1 PUSH1 0x1 PUSH1 0x0 DUP3 DUP3 SLOAD PUSH2 0x52F SWAP2 SWAP1 PUSH2 0xADF JUMP JUMPDEST SWAP1 SWAP2 SSTORE POP PUSH2 0x589 SWAP1 POP PUSH1 0x1 PUSH1 0x1 PUSH1 0xA0 SHL SUB PUSH32 0x0 AND PUSH32 0x0 DUP4 PUSH2 0x92A JUMP JUMPDEST PUSH32 0x0 PUSH1 0x1 PUSH1 0x1 PUSH1 0xA0 SHL SUB AND PUSH32 0xC7798891864187665AC6DD119286E44EC13F014527AEEB2B8EB3FD413DF93179 DUP3 PUSH1 0x40 MLOAD PUSH2 0x5E4 SWAP2 DUP2 MSTORE PUSH1 0x20 ADD SWAP1 JUMP JUMPDEST PUSH1 0x40 MLOAD DUP1 SWAP2 SUB SWAP1 LOG2 POP PUSH2 0x604 PUSH1 0x1 PUSH1 0x0 DUP1 MLOAD PUSH1 0x20 PUSH2 0xB45 DUP4 CODECOPY DUP2 MLOAD SWAP2 MSTORE SSTORE JUMP JUMPDEST JUMP JUMPDEST PUSH1 0x40 MLOAD PUSH4 0x70A08231 PUSH1 0xE0 SHL DUP2 MSTORE ADDRESS PUSH1 0x4 DUP3 ADD MSTORE PUSH1 0x0 SWAP1 PUSH32 0x0 PUSH1 0x1 PUSH1 0x1 PUSH1 0xA0 SHL SUB AND SWAP1 PUSH4 0x70A08231 SWAP1 PUSH1 0x24 ADD PUSH1 0x20 PUSH1 0x40 MLOAD DUP1 DUP4 SUB DUP2 DUP7 GAS STATICCALL ISZERO DUP1 ISZERO PUSH2 0x66D JUMPI RETURNDATASIZE PUSH1 0x0 DUP1 RETURNDATACOPY RETURNDATASIZE PUSH1 0x0 REVERT JUMPDEST POP POP POP POP PUSH1 0x40 MLOAD RETURNDATASIZE PUSH1 0x1F NOT PUSH1 0x1F DUP3 ADD AND DUP3 ADD DUP1 PUSH1 0x40 MSTORE POP DUP2 ADD SWAP1 PUSH2 0x2D1 SWAP2 SWAP1 PUSH2 0xB2B JUMP JUMPDEST PUSH2 0x699 PUSH2 0x964 JUMP JUMPDEST PUSH2 0x6A1 PUSH2 0x90E JUMP JUMPDEST PUSH32 0x0 PUSH1 0x1 PUSH1 0x1 PUSH1 0xA0 SHL SUB AND DUP2 PUSH1 0x1 PUSH1 0x1 PUSH1 0xA0 SHL SUB AND SUB PUSH2 0x73D JUMPI PUSH1 0x40 MLOAD PUSH3 0x461BCD PUSH1 0xE5 SHL DUP2 MSTORE PUSH1 0x20 PUSH1 0x4 DUP3 ADD MSTORE PUSH1 0x32 PUSH1 0x24 DUP3 ADD MSTORE PUSH32 0x50616E6A6F436F696E56657374696E673A2063616E6E6F742077697468647261 PUSH1 0x44 DUP3 ADD MSTORE PUSH18 0x3B903A3432903B32B9BA32B2103A37B5B2B7 PUSH1 0x71 SHL PUSH1 0x64 DUP3 ADD MSTORE PUSH1 0x84 ADD PUSH2 0x4A1 JUMP JUMPDEST PUSH1 0x40 MLOAD PUSH4 0x70A08231 PUSH1 0xE0 SHL DUP2 MSTORE ADDRESS PUSH1 0x4 DUP3 ADD MSTORE PUSH1 0x0 SWAP1 PUSH1 0x1 PUSH1 0x1 PUSH1 0xA0 SHL SUB DUP4 AND SWAP1 PUSH4 0x70A08231 SWAP1 PUSH1 0x24 ADD PUSH1 0x20 PUSH1 0x40 MLOAD DUP1 DUP4 SUB DUP2 DUP7 GAS STATICCALL ISZERO DUP1 ISZERO PUSH2 0x784 JUMPI RETURNDATASIZE PUSH1 0x0 DUP1 RETURNDATACOPY RETURNDATASIZE PUSH1 0x0 REVERT JUMPDEST POP POP POP POP PUSH1 0x40 MLOAD RETURNDATASIZE PUSH1 0x1F NOT PUSH1 0x1F DUP3 ADD AND DUP3 ADD DUP1 PUSH1 0x40 MSTORE POP DUP2 ADD SWAP1 PUSH2 0x7A8 SWAP2 SWAP1 PUSH2 0xB2B JUMP JUMPDEST SWAP1 POP PUSH1 0x0 DUP2 GT PUSH2 0x80B JUMPI PUSH1 0x40 MLOAD PUSH3 0x461BCD PUSH1 0xE5 SHL DUP2 MSTORE PUSH1 0x20 PUSH1 0x4 DUP3 ADD MSTORE PUSH1 0x28 PUSH1 0x24 DUP3 ADD MSTORE PUSH32 0x50616E6A6F436F696E56657374696E673A206E6F2062616C616E636520746F20 PUSH1 0x44 DUP3 ADD MSTORE PUSH8 0x7769746864726177 PUSH1 0xC0 SHL PUSH1 0x64 DUP3 ADD MSTORE PUSH1 0x84 ADD PUSH2 0x4A1 JUMP JUMPDEST PUSH2 0x831 PUSH2 0x820 PUSH1 0x0 SLOAD PUSH1 0x1 PUSH1 0x1 PUSH1 0xA0 SHL SUB AND SWAP1 JUMP JUMPDEST PUSH1 0x1 PUSH1 0x1 PUSH1 0xA0 SHL SUB DUP5 AND SWAP1 DUP4 PUSH2 0x92A JUMP JUMPDEST DUP2 PUSH1 0x1 PUSH1 0x1 PUSH1 0xA0 SHL SUB AND PUSH32 0x2E39961A70A10F4D46383948095AC2752B3EE642A7C76AA827410AAFF08C2E51 DUP3 PUSH1 0x40 MLOAD PUSH2 0x86C SWAP2 DUP2 MSTORE PUSH1 0x20 ADD SWAP1 JUMP JUMPDEST PUSH1 0x40 MLOAD DUP1 SWAP2 SUB SWAP1 LOG2 POP PUSH2 0x88C PUSH1 0x1 PUSH1 0x0 DUP1 MLOAD PUSH1 0x20 PUSH2 0xB45 DUP4 CODECOPY DUP2 MLOAD SWAP2 MSTORE SSTORE JUMP JUMPDEST POP JUMP JUMPDEST PUSH2 0x897 PUSH2 0x964 JUMP JUMPDEST PUSH2 0x604 PUSH1 0x0 PUSH2 0x991 JUMP JUMPDEST PUSH2 0x8A9 PUSH2 0x964 JUMP JUMPDEST PUSH1 0x1 PUSH1 0x1 PUSH1 0xA0 SHL SUB DUP2 AND PUSH2 0x8D3 JUMPI PUSH1 0x40 MLOAD PUSH4 0x1E4FBDF7 PUSH1 0xE0 SHL DUP2 MSTORE PUSH1 0x0 PUSH1 0x4 DUP3 ADD MSTORE PUSH1 0x24 ADD PUSH2 0x4A1 JUMP JUMPDEST PUSH2 0x88C DUP2 PUSH2 0x991 JUMP JUMPDEST PUSH1 0x0 DUP1 PUSH2 0x8E7 PUSH2 0x2D6 JUMP JUMPDEST PUSH1 0x1 SLOAD SWAP1 SWAP2 POP DUP1 DUP3 GT PUSH2 0x8FD JUMPI PUSH1 0x0 SWAP3 POP POP POP SWAP1 JUMP JUMPDEST PUSH2 0x907 DUP2 DUP4 PUSH2 0xAC6 JUMP JUMPDEST SWAP3 POP POP POP SWAP1 JUMP JUMPDEST PUSH2 0x916 PUSH2 0x9E1 JUMP JUMPDEST PUSH1 0x2 PUSH1 0x0 DUP1 MLOAD PUSH1 0x20 PUSH2 0xB45 DUP4 CODECOPY DUP2 MLOAD SWAP2 MSTORE SSTORE JUMP JUMPDEST PUSH2 0x937 DUP4 DUP4 DUP4 PUSH1 0x1 PUSH2 0xA11 JUMP JUMPDEST PUSH2 0x95F JUMPI PUSH1 0x40 MLOAD PUSH4 0x5274AFE7 PUSH1 0xE0 SHL DUP2 MSTORE PUSH1 0x1 PUSH1 0x1 PUSH1 0xA0 SHL SUB DUP5 AND PUSH1 0x4 DUP3 ADD MSTORE PUSH1 0x24 ADD PUSH2 0x4A1 JUMP JUMPDEST POP POP POP JUMP JUMPDEST PUSH1 0x0 SLOAD PUSH1 0x1 PUSH1 0x1 PUSH1 0xA0 SHL SUB AND CALLER EQ PUSH2 0x604 JUMPI PUSH1 0x40 MLOAD PUSH4 0x118CDAA7 PUSH1 0xE0 SHL DUP2 MSTORE CALLER PUSH1 0x4 DUP3 ADD MSTORE PUSH1 0x24 ADD PUSH2 0x4A1 JUMP JUMPDEST PUSH1 0x0 DUP1 SLOAD PUSH1 0x1 PUSH1 0x1 PUSH1 0xA0 SHL SUB DUP4 DUP2 AND PUSH1 0x1 PUSH1 0x1 PUSH1 0xA0 SHL SUB NOT DUP4 AND DUP2 OR DUP5 SSTORE PUSH1 0x40 MLOAD SWAP2 SWAP1 SWAP3 AND SWAP3 DUP4 SWAP2 PUSH32 0x8BE0079C531659141344CD1FD0A4F28419497F9722A3DAAFE3B4186F6B6457E0 SWAP2 SWAP1 LOG3 POP POP JUMP JUMPDEST PUSH1 0x0 DUP1 MLOAD PUSH1 0x20 PUSH2 0xB45 DUP4 CODECOPY DUP2 MLOAD SWAP2 MSTORE SLOAD PUSH1 0x2 SUB PUSH2 0x604 JUMPI PUSH1 0x40 MLOAD PUSH4 0x3EE5AEB5 PUSH1 0xE0 SHL DUP2 MSTORE PUSH1 0x4 ADD PUSH1 0x40 MLOAD DUP1 SWAP2 SUB SWAP1 REVERT JUMPDEST PUSH1 0x40 MLOAD PUSH4 0xA9059CBB PUSH1 0xE0 SHL PUSH1 0x0 DUP2 DUP2 MSTORE PUSH1 0x1 PUSH1 0x1 PUSH1 0xA0 SHL SUB DUP7 AND PUSH1 0x4 MSTORE PUSH1 0x24 DUP6 SWAP1 MSTORE SWAP2 PUSH1 0x20 DUP4 PUSH1 0x44 DUP2 DUP1 DUP12 GAS CALL SWAP3 POP PUSH1 0x1 PUSH1 0x0 MLOAD EQ DUP4 AND PUSH2 0xA6B JUMPI DUP4 DUP4 ISZERO AND ISZERO PUSH2 0xA5E JUMPI RETURNDATASIZE PUSH1 0x0 DUP3 RETURNDATACOPY RETURNDATASIZE DUP2 REVERT JUMPDEST PUSH1 0x0 DUP8 EXTCODESIZE GT RETURNDATASIZE ISZERO AND DUP4 AND SWAP3 POP JUMPDEST PUSH1 0x40 MSTORE POP SWAP5 SWAP4 POP POP POP POP JUMP JUMPDEST PUSH1 0x1 PUSH1 0x1 PUSH1 0xA0 SHL SUB DUP2 AND DUP2 EQ PUSH2 0x88C JUMPI PUSH1 0x0 DUP1 REVERT JUMPDEST PUSH1 0x0 PUSH1 0x20 DUP3 DUP5 SUB SLT ISZERO PUSH2 0xA9E JUMPI PUSH1 0x0 DUP1 REVERT JUMPDEST DUP2 CALLDATALOAD PUSH2 0xAA9 DUP2 PUSH2 0xA77 JUMP JUMPDEST SWAP4 SWAP3 POP POP POP JUMP JUMPDEST PUSH4 0x4E487B71 PUSH1 0xE0 SHL PUSH1 0x0 MSTORE PUSH1 0x11 PUSH1 0x4 MSTORE PUSH1 0x24 PUSH1 0x0 REVERT JUMPDEST DUP2 DUP2 SUB DUP2 DUP2 GT ISZERO PUSH2 0xAD9 JUMPI PUSH2 0xAD9 PUSH2 0xAB0 JUMP JUMPDEST SWAP3 SWAP2 POP POP JUMP JUMPDEST DUP1 DUP3 ADD DUP1 DUP3 GT ISZERO PUSH2 0xAD9 JUMPI PUSH2 0xAD9 PUSH2 0xAB0 JUMP JUMPDEST DUP1 DUP3 MUL DUP2 ISZERO DUP3 DUP3 DIV DUP5 EQ OR PUSH2 0xAD9 JUMPI PUSH2 0xAD9 PUSH2 0xAB0 JUMP JUMPDEST PUSH1 0x0 DUP3 PUSH2 0xB26 JUMPI PUSH4 0x4E487B71 PUSH1 0xE0 SHL PUSH1 0x0 MSTORE PUSH1 0x12 PUSH1 0x4 MSTORE PUSH1 0x24 PUSH1 0x0 REVERT JUMPDEST POP DIV SWAP1 JUMP JUMPDEST PUSH1 0x0 PUSH1 0x20 DUP3 DUP5 SUB SLT ISZERO PUSH2 0xB3D JUMPI PUSH1 0x0 DUP1 REVERT JUMPDEST POP MLOAD SWAP2 SWAP1 POP JUMP INVALID SWAP12 PUSH24 0x9B17422D0DF92223018B32B4D1FA46E071723D6817E2486D STOP EXTCODESIZE EOFCREATE 0xC5 PUSH0 STOP LOG2 PUSH5 0x6970667358 0x22 SLT KECCAK256 0x4C SWAP3 DUP12 MSIZE AND MSTORE SWAP6 0x21 SLOAD PREVRANDAO SELFDESTRUCT 0xE 0xAD PUSH8 0xF1C75B6E9A8EC620 CLZ PUSH15 0x5A7DB436EB301B4B64736F6C634300 ADDMOD 0x22 STOP CALLER "
		},
		"gasEstimates": {
			"creation": {
				"codeDepositCost": "594000",
				"executionCost": "infinite",
				"totalCost": "infinite"
			},
			"external": {
				"beneficiary()": "infinite",
				"claim()": "infinite",
				"cliff()": "infinite",
				"emergencyWithdraw(address)": "infinite",
				"getContractBalance()": "infinite",
				"getCurrentTime()": "270",
				"getLockedTokens()": "infinite",
				"owner()": "2420",
				"releasable()": "infinite",
				"released()": "2306",
				"renounceOwnership()": "infinite",
				"start()": "infinite",
				"token()": "infinite",
				"totalAmount()": "infinite",
				"transferOwnership(address)": "infinite",
				"vestedAmount()": "infinite",
				"vestingDuration()": "infinite"
			}
		},
		"methodIdentifiers": {
			"beneficiary()": "38af3eed",
			"claim()": "4e71d92d",
			"cliff()": "13d033c0",
			"emergencyWithdraw(address)": "6ff1c9bc",
			"getContractBalance()": "6f9fb98a",
			"getCurrentTime()": "29cb924d",
			"getLockedTokens()": "3317bbcc",
			"owner()": "8da5cb5b",
			"releasable()": "fbccedae",
			"released()": "96132521",
			"renounceOwnership()": "715018a6",
			"start()": "be9a6555",
			"token()": "fc0c546a",
			"totalAmount()": "1a39d8ef",
			"transferOwnership(address)": "f2fde38b",
			"vestedAmount()": "44b1231f",
			"vestingDuration()": "1514617e"
		}
	},
	"abi": [
		{
			"inputs": [
				{
					"internalType": "address",
					"name": "_beneficiary",
					"type": "address"
				},
				{
					"internalType": "contract IERC20",
					"name": "_token",
					"type": "address"
				},
				{
					"internalType": "uint256",
					"name": "_totalAmount",
					"type": "uint256"
				},
				{
					"internalType": "uint256",
					"name": "_start",
					"type": "uint256"
				},
				{
					"internalType": "uint256",
					"name": "_cliffDuration",
					"type": "uint256"
				},
				{
					"internalType": "uint256",
					"name": "_vestingDuration",
					"type": "uint256"
				}
			],
			"stateMutability": "nonpayable",
			"type": "constructor"
		},
		{
			"inputs": [
				{
					"internalType": "address",
					"name": "owner",
					"type": "address"
				}
			],
			"name": "OwnableInvalidOwner",
			"type": "error"
		},
		{
			"inputs": [
				{
					"internalType": "address",
					"name": "account",
					"type": "address"
				}
			],
			"name": "OwnableUnauthorizedAccount",
			"type": "error"
		},
		{
			"inputs": [],
			"name": "ReentrancyGuardReentrantCall",
			"type": "error"
		},
		{
			"inputs": [
				{
					"internalType": "address",
					"name": "token",
					"type": "address"
				}
			],
			"name": "SafeERC20FailedOperation",
			"type": "error"
		},
		{
			"anonymous": false,
			"inputs": [
				{
					"indexed": true,
					"internalType": "address",
					"name": "token",
					"type": "address"
				},
				{
					"indexed": false,
					"internalType": "uint256",
					"name": "amount",
					"type": "uint256"
				}
			],
			"name": "EmergencyWithdrawn",
			"type": "event"
		},
		{
			"anonymous": false,
			"inputs": [
				{
					"indexed": true,
					"internalType": "address",
					"name": "previousOwner",
					"type": "address"
				},
				{
					"indexed": true,
					"internalType": "address",
					"name": "newOwner",
					"type": "address"
				}
			],
			"name": "OwnershipTransferred",
			"type": "event"
		},
		{
			"anonymous": false,
			"inputs": [
				{
					"indexed": true,
					"internalType": "address",
					"name": "beneficiary",
					"type": "address"
				},
				{
					"indexed": false,
					"internalType": "uint256",
					"name": "amount",
					"type": "uint256"
				}
			],
			"name": "TokensReleased",
			"type": "event"
		},
		{
			"inputs": [],
			"name": "beneficiary",
			"outputs": [
				{
					"internalType": "address",
					"name": "",
					"type": "address"
				}
			],
			"stateMutability": "view",
			"type": "function"
		},
		{
			"inputs": [],
			"name": "claim",
			"outputs": [],
			"stateMutability": "nonpayable",
			"type": "function"
		},
		{
			"inputs": [],
			"name": "cliff",
			"outputs": [
				{
					"internalType": "uint256",
					"name": "",
					"type": "uint256"
				}
			],
			"stateMutability": "view",
			"type": "function"
		},
		{
			"inputs": [
				{
					"internalType": "contract IERC20",
					"name": "_otherToken",
					"type": "address"
				}
			],
			"name": "emergencyWithdraw",
			"outputs": [],
			"stateMutability": "nonpayable",
			"type": "function"
		},
		{
			"inputs": [],
			"name": "getContractBalance",
			"outputs": [
				{
					"internalType": "uint256",
					"name": "",
					"type": "uint256"
				}
			],
			"stateMutability": "view",
			"type": "function"
		},
		{
			"inputs": [],
			"name": "getCurrentTime",
			"outputs": [
				{
					"internalType": "uint256",
					"name": "",
					"type": "uint256"
				}
			],
			"stateMutability": "view",
			"type": "function"
		},
		{
			"inputs": [],
			"name": "getLockedTokens",
			"outputs": [
				{
					"internalType": "uint256",
					"name": "",
					"type": "uint256"
				}
			],
			"stateMutability": "view",
			"type": "function"
		},
		{
			"inputs": [],
			"name": "owner",
			"outputs": [
				{
					"internalType": "address",
					"name": "",
					"type": "address"
				}
			],
			"stateMutability": "view",
			"type": "function"
		},
		{
			"inputs": [],
			"name": "releasable",
			"outputs": [
				{
					"internalType": "uint256",
					"name": "",
					"type": "uint256"
				}
			],
			"stateMutability": "view",
			"type": "function"
		},
		{
			"inputs": [],
			"name": "released",
			"outputs": [
				{
					"internalType": "uint256",
					"name": "",
					"type": "uint256"
				}
			],
			"stateMutability": "view",
			"type": "function"
		},
		{
			"inputs": [],
			"name": "renounceOwnership",
			"outputs": [],
			"stateMutability": "nonpayable",
			"type": "function"
		},
		{
			"inputs": [],
			"name": "start",
			"outputs": [
				{
					"internalType": "uint256",
					"name": "",
					"type": "uint256"
				}
			],
			"stateMutability": "view",
			"type": "function"
		},
		{
			"inputs": [],
			"name": "token",
			"outputs": [
				{
					"internalType": "contract IERC20",
					"name": "",
					"type": "address"
				}
			],
			"stateMutability": "view",
			"type": "function"
		},
		{
			"inputs": [],
			"name": "totalAmount",
			"outputs": [
				{
					"internalType": "uint256",
					"name": "",
					"type": "uint256"
				}
			],
			"stateMutability": "view",
			"type": "function"
		},
		{
			"inputs": [
				{
					"internalType": "address",
					"name": "newOwner",
					"type": "address"
				}
			],
			"name": "transferOwnership",
			"outputs": [],
			"stateMutability": "nonpayable",
			"type": "function"
		},
		{
			"inputs": [],
			"name": "vestedAmount",
			"outputs": [
				{
					"internalType": "uint256",
					"name": "",
					"type": "uint256"
				}
			],
			"stateMutability": "view",
			"type": "function"
		},
		{
			"inputs": [],
			"name": "vestingDuration",
			"outputs": [
				{
					"internalType": "uint256",
					"name": "",
					"type": "uint256"
				}
			],
			"stateMutability": "view",
			"type": "function"
		}
	]
}