{
	"data": {
		"bytecode": {
			"linkReferences": {},
			"object": "61014060405234801562000011575f80fd5b5060405162001071380380620010718339810160408190526200003491620003d7565b33806200005b57604051631e4fbdf760e01b81525f60048201526024015b60405180910390fd5b6200006681620002c1565b5060017f9b779b17422d0df92223018b32b4d1fa46e071723d6817e2486d003becc55f00556001600160a01b038616620001095760405162461bcd60e51b815260206004820152603460248201527f50616e6a6f436f696e56657374696e673a2062656e656669636961727920636160448201527f6e6e6f74206265207a65726f2061646472657373000000000000000000000000606482015260840162000052565b6001600160a01b038516620001785760405162461bcd60e51b815260206004820152602e60248201527f50616e6a6f436f696e56657374696e673a20746f6b656e2063616e6e6f74206260448201526d65207a65726f206164647265737360901b606482015260840162000052565b5f8411620001ef5760405162461bcd60e51b815260206004820152603560248201527f50616e6a6f436f696e56657374696e673a20746f74616c20616d6f756e74206d60448201527f7573742062652067726561746572207468616e20300000000000000000000000606482015260840162000052565b80821115620002675760405162461bcd60e51b815260206004820152603f60248201527f50616e6a6f436f696e56657374696e673a20636c696666206475726174696f6e60448201527f2063616e6e6f74206578636565642076657374696e67206475726174696f6e00606482015260840162000052565b5f62000274838562000436565b6001600160a01b03808916608052871660a081905261012087905260c086905260e08290526101008490525f600155909150620002b49033308862000310565b505050505050506200045c565b5f80546001600160a01b038381166001600160a01b0319831681178455604051919092169283917f8be0079c531659141344cd1fd0a4f28419497f9722a3daafe3b4186f6b6457e09190a35050565b6200032084848484600162000350565b6200034a57604051635274afe760e01b81526001600160a01b038516600482015260240162000052565b50505050565b6040516323b872dd60e01b5f8181526001600160a01b038781166004528616602452604485905291602083606481808c5af1925060015f51148316620003ae578383151615620003a2573d5f823e3d81fd5b5f883b113d1516831692505b604052505f60605295945050505050565b6001600160a01b0381168114620003d4575f80fd5b50565b5f805f805f8060c08789031215620003ed575f80fd5b8651620003fa81620003bf565b60208801519096506200040d81620003bf565b6040880151606089015160808a015160a0909a0151989b929a5090989097909650945092505050565b808201808211156200045657634e487b7160e01b5f52601160045260245ffd5b92915050565b60805160a05160c05160e0516101005161012051610b6b620005065f395f8181610170015281816102a50152818161035101526103cb01525f81816101490152818161030401526103a601525f818161010f015281816102d2015261037c01525f8181610232015261032501525f8181610274015281816105330152818161060d015261069001525f81816101a50152818161041401528181610555015261057c0152610b6b5ff3fe608060405234801561000f575f80fd5b5060043610610106575f3560e01c80636f9fb98a1161009e578063961325211161006e5780639613252114610224578063be9a65551461022d578063f2fde38b14610254578063fbccedae14610267578063fc0c546a1461026f575f80fd5b80636f9fb98a146101f15780636ff1c9bc146101f9578063715018a61461020c5780638da5cb5b14610214575f80fd5b80633317bbcc116100d95780633317bbcc1461019857806338af3eed146101a057806344b1231f146101df5780634e71d92d146101e7575f80fd5b806313d033c01461010a5780631514617e146101445780631a39d8ef1461016b57806329cb924d14610192575b5f80fd5b6101317f000000000000000000000000000000000000000000000000000000000000000081565b6040519081526020015b60405180910390f35b6101317f000000000000000000000000000000000000000000000000000000000000000081565b6101317f000000000000000000000000000000000000000000000000000000000000000081565b42610131565b610131610296565b6101c77f000000000000000000000000000000000000000000000000000000000000000081565b6040516001600160a01b03909116815260200161013b565b6101316102ce565b6101ef610401565b005b6101316105f6565b6101ef610207366004610a66565b61067e565b6101ef610876565b5f546001600160a01b03166101c7565b61013160015481565b6101317f000000000000000000000000000000000000000000000000000000000000000081565b6101ef610262366004610a66565b610887565b6101316108c1565b6101c77f000000000000000000000000000000000000000000000000000000000000000081565b5f61029f6102ce565b6102c9907f0000000000000000000000000000000000000000000000000000000000000000610a9c565b905090565b5f427f00000000000000000000000000000000000000000000000000000000000000008110156102ff575f91505090565b6103497f00000000000000000000000000000000000000000000000000000000000000007f0000000000000000000000000000000000000000000000000000000000000000610ab5565b8110610376577f000000000000000000000000000000000000000000000000000000000000000091505090565b5f6103a17f000000000000000000000000000000000000000000000000000000000000000083610a9c565b90505f7f00000000000000000000000000000000000000000000000000000000000000006103ef837f0000000000000000000000000000000000000000000000000000000000000000610ac8565b6103f99190610adf565b949350505050565b6104096108f1565b336001600160a01b037f0000000000000000000000000000000000000000000000000000000000000000161461049e5760405162461bcd60e51b815260206004820152602f60248201527f50616e6a6f436f696e56657374696e673a2063616c6c6572206973206e6f742060448201526e7468652062656e656669636961727960881b60648201526084015b60405180910390fd5b5f6104a76108c1565b90505f811161050f5760405162461bcd60e51b815260206004820152602e60248201527f50616e6a6f436f696e56657374696e673a206e6f20746f6b656e73206176616960448201526d6c61626c6520746f20636c61696d60901b6064820152608401610495565b8060015f8282546105209190610ab5565b9091555061057a90506001600160a01b037f0000000000000000000000000000000000000000000000000000000000000000167f00000000000000000000000000000000000000000000000000000000000000008361090c565b7f00000000000000000000000000000000000000000000000000000000000000006001600160a01b03167fc7798891864187665ac6dd119286e44ec13f014527aeeb2b8eb3fd413df93179826040516105d591815260200190565b60405180910390a2506105f460015f80516020610b1683398151915255565b565b6040516370a0823160e01b81523060048201525f907f00000000000000000000000000000000000000000000000000000000000000006001600160a01b0316906370a0823190602401602060405180830381865afa15801561065a573d5f803e3d5ffd5b505050506040513d601f19601f820116820180604052508101906102c99190610afe565b610686610946565b61068e6108f1565b7f00000000000000000000000000000000000000000000000000000000000000006001600160a01b0316816001600160a01b03160361072a5760405162461bcd60e51b815260206004820152603260248201527f50616e6a6f436f696e56657374696e673a2063616e6e6f7420776974686472616044820152713b903a3432903b32b9ba32b2103a37b5b2b760711b6064820152608401610495565b6040516370a0823160e01b81523060048201525f906001600160a01b038316906370a0823190602401602060405180830381865afa15801561076e573d5f803e3d5ffd5b505050506040513d601f19601f820116820180604052508101906107929190610afe565b90505f81116107f45760405162461bcd60e51b815260206004820152602860248201527f50616e6a6f436f696e56657374696e673a206e6f2062616c616e636520746f20604482015267776974686472617760c01b6064820152608401610495565b6108196108085f546001600160a01b031690565b6001600160a01b038416908361090c565b816001600160a01b03167f2e39961a70a10f4d46383948095ac2752b3ee642a7c76aa827410aaff08c2e518260405161085491815260200190565b60405180910390a25061087360015f80516020610b1683398151915255565b50565b61087e610946565b6105f45f610972565b61088f610946565b6001600160a01b0381166108b857604051631e4fbdf760e01b81525f6004820152602401610495565b61087381610972565b5f806108cb6102ce565b6001549091508082116108e0575f9250505090565b6108ea8183610a9c565b9250505090565b6108f96109c1565b60025f80516020610b1683398151915255565b61091983838360016109f0565b61094157604051635274afe760e01b81526001600160a01b0384166004820152602401610495565b505050565b5f546001600160a01b031633146105f45760405163118cdaa760e01b8152336004820152602401610495565b5f80546001600160a01b038381166001600160a01b0319831681178455604051919092169283917f8be0079c531659141344cd1fd0a4f28419497f9722a3daafe3b4186f6b6457e09190a35050565b5f80516020610b16833981519152546002036105f457604051633ee5aeb560e01b815260040160405180910390fd5b60405163a9059cbb60e01b5f8181526001600160a01b038616600452602485905291602083604481808b5af1925060015f51148316610a46578383151615610a3a573d5f823e3d81fd5b5f873b113d1516831692505b60405250949350505050565b6001600160a01b0381168114610873575f80fd5b5f60208284031215610a76575f80fd5b8135610a8181610a52565b9392505050565b634e487b7160e01b5f52601160045260245ffd5b81810381811115610aaf57610aaf610a88565b92915050565b80820180821115610aaf57610aaf610a88565b8082028115828204841417610aaf57610aaf610a88565b5f82610af957634e487b7160e01b5f52601260045260245ffd5b500490565b5f60208284031215610b0e575f80fd5b505191905056fe9b779b17422d0df92223018b32b4d1fa46e071723d6817e2486d003becc55f00a2646970667358221220bd1dc8625cfea139725438028c8b5a210771eafd295dbc42f41031106428882664736f6c63430008180033",
			"opcodes": "PUSH2 0x140 PUSH1 0x40 MSTORE CALLVALUE DUP1 ISZERO PUSH3 0x11 JUMPI PUSH0 DUP1 REVERT JUMPDEST POP PUSH1 0x40 MLOAD PUSH3 0x1071 CODESIZE SUB DUP1 PUSH3 0x1071 DUP4 CODECOPY DUP2 ADD PUSH1 0x40 DUP2 SWAP1 MSTORE PUSH3 0x34 SWAP2 PUSH3 0x3D7 JUMP JUMPDEST CALLER DUP1 PUSH3 0x5B JUMPI PUSH1 0x40 MLOAD PUSH4 0x1E4FBDF7 PUSH1 0xE0 SHL DUP2 MSTORE PUSH0 PUSH1 0x4 DUP3 ADD MSTORE PUSH1 0x24 ADD JUMPDEST PUSH1 0x40 MLOAD DUP1 SWAP2 SUB SWAP1 REVERT JUMPDEST PUSH3 0x66 DUP2 PUSH3 0x2C1 JUMP JUMPDEST POP PUSH1 0x1 PUSH32 0x9B779B17422D0DF92223018B32B4D1FA46E071723D6817E2486D003BECC55F00 SSTORE PUSH1 0x1 PUSH1 0x1 PUSH1 0xA0 SHL SUB DUP7 AND PUSH3 0x109 JUMPI PUSH1 0x40 MLOAD PUSH3 0x461BCD PUSH1 0xE5 SHL DUP2 MSTORE PUSH1 0x20 PUSH1 0x4 DUP3 ADD MSTORE PUSH1 0x34 PUSH1 0x24 DUP3 ADD MSTORE PUSH32 0x50616E6A6F436F696E56657374696E673A2062656E6566696369617279206361 PUSH1 0x44 DUP3 ADD MSTORE PUSH32 0x6E6E6F74206265207A65726F2061646472657373000000000000000000000000 PUSH1 0x64 DUP3 ADD MSTORE PUSH1 0x84 ADD PUSH3 0x52 JUMP JUMPDEST PUSH1 0x1 PUSH1 0x1 PUSH1 0xA0 SHL SUB DUP6 AND PUSH3 0x178 JUMPI PUSH1 0x40 MLOAD PUSH3 0x461BCD PUSH1 0xE5 SHL DUP2 MSTORE PUSH1 0x20 PUSH1 0x4 DUP3 ADD MSTORE PUSH1 0x2E PUSH1 0x24 DUP3 ADD MSTORE PUSH32 0x50616E6A6F436F696E56657374696E673A20746F6B656E2063616E6E6F742062 PUSH1 0x44 DUP3 ADD MSTORE PUSH14 0x65207A65726F2061646472657373 PUSH1 0x90 SHL PUSH1 0x64 DUP3 ADD MSTORE PUSH1 0x84 ADD PUSH3 0x52 JUMP JUMPDEST PUSH0 DUP5 GT PUSH3 0x1EF JUMPI PUSH1 0x40 MLOAD PUSH3 0x461BCD PUSH1 0xE5 SHL DUP2 MSTORE PUSH1 0x20 PUSH1 0x4 DUP3 ADD MSTORE PUSH1 0x35 PUSH1 0x24 DUP3 ADD MSTORE PUSH32 0x50616E6A6F436F696E56657374696E673A20746F74616C20616D6F756E74206D PUSH1 0x44 DUP3 ADD MSTORE PUSH32 0x7573742062652067726561746572207468616E20300000000000000000000000 PUSH1 0x64 DUP3 ADD MSTORE PUSH1 0x84 ADD PUSH3 0x52 JUMP JUMPDEST DUP1 DUP3 GT ISZERO PUSH3 0x267 JUMPI PUSH1 0x40 MLOAD PUSH3 0x461BCD PUSH1 0xE5 SHL DUP2 MSTORE PUSH1 0x20 PUSH1 0x4 DUP3 ADD MSTORE PUSH1 0x3F PUSH1 0x24 DUP3 ADD MSTORE PUSH32 0x50616E6A6F436F696E56657374696E673A20636C696666206475726174696F6E PUSH1 0x44 DUP3 ADD MSTORE PUSH32 0x2063616E6E6F74206578636565642076657374696E67206475726174696F6E00 PUSH1 0x64 DUP3 ADD MSTORE PUSH1 0x84 ADD PUSH3 0x52 JUMP JUMPDEST PUSH0 PUSH3 0x274 DUP4 DUP6 PUSH3 0x436 JUMP JUMPDEST PUSH1 0x1 PUSH1 0x1 PUSH1 0xA0 SHL SUB DUP1 DUP10 AND PUSH1 0x80 MSTORE DUP8 AND PUSH1 0xA0 DUP2 SWAP1 MSTORE PUSH2 0x120 DUP8 SWAP1 MSTORE PUSH1 0xC0 DUP7 SWAP1 MSTORE PUSH1 0xE0 DUP3 SWAP1 MSTORE PUSH2 0x100 DUP5 SWAP1 MSTORE PUSH0 PUSH1 0x1 SSTORE SWAP1 SWAP2 POP PUSH3 0x2B4 SWAP1 CALLER ADDRESS DUP9 PUSH3 0x310 JUMP JUMPDEST POP POP POP POP POP POP POP PUSH3 0x45C JUMP JUMPDEST PUSH0 DUP1 SLOAD PUSH1 0x1 PUSH1 0x1 PUSH1 0xA0 SHL SUB DUP4 DUP2 AND PUSH1 0x1 PUSH1 0x1 PUSH1 0xA0 SHL SUB NOT DUP4 AND DUP2 OR DUP5 SSTORE PUSH1 0x40 MLOAD SWAP2 SWAP1 SWAP3 AND SWAP3 DUP4 SWAP2 PUSH32 0x8BE0079C531659141344CD1FD0A4F28419497F9722A3DAAFE3B4186F6B6457E0 SWAP2 SWAP1 LOG3 POP POP JUMP JUMPDEST PUSH3 0x320 DUP5 DUP5 DUP5 DUP5 PUSH1 0x1 PUSH3 0x350 JUMP JUMPDEST PUSH3 0x34A JUMPI PUSH1 0x40 MLOAD PUSH4 0x5274AFE7 PUSH1 0xE0 SHL DUP2 MSTORE PUSH1 0x1 PUSH1 0x1 PUSH1 0xA0 SHL SUB DUP6 AND PUSH1 0x4 DUP3 ADD MSTORE PUSH1 0x24 ADD PUSH3 0x52 JUMP JUMPDEST POP POP POP POP JUMP JUMPDEST PUSH1 0x40 MLOAD PUSH4 0x23B872DD PUSH1 0xE0 SHL PUSH0 DUP2 DUP2 MSTORE PUSH1 0x1 PUSH1 0x1 PUSH1 0xA0 SHL SUB DUP8 DUP2 AND PUSH1 0x4 MSTORE DUP7 AND PUSH1 0x24 MSTORE PUSH1 0x44 DUP6 SWAP1 MSTORE SWAP2 PUSH1 0x20 DUP4 PUSH1 0x64 DUP2 DUP1 DUP13 GAS CALL SWAP3 POP PUSH1 0x1 PUSH0 MLOAD EQ DUP4 AND PUSH3 0x3AE JUMPI DUP4 DUP4 ISZERO AND ISZERO PUSH3 0x3A2 JUMPI RETURNDATASIZE PUSH0 DUP3 RETURNDATACOPY RETURNDATASIZE DUP2 REVERT JUMPDEST PUSH0 DUP9 EXTCODESIZE GT RETURNDATASIZE ISZERO AND DUP4 AND SWAP3 POP JUMPDEST PUSH1 0x40 MSTORE POP PUSH0 PUSH1 0x60 MSTORE SWAP6 SWAP5 POP POP POP POP POP JUMP JUMPDEST PUSH1 0x1 PUSH1 0x1 PUSH1 0xA0 SHL SUB DUP2 AND DUP2 EQ PUSH3 0x3D4 JUMPI PUSH0 DUP1 REVERT JUMPDEST POP JUMP JUMPDEST PUSH0 DUP1 PUSH0 DUP1 PUSH0 DUP1 PUSH1 0xC0 DUP8 DUP10 SUB SLT ISZERO PUSH3 0x3ED JUMPI PUSH0 DUP1 REVERT JUMPDEST DUP7 MLOAD PUSH3 0x3FA DUP2 PUSH3 0x3BF JUMP JUMPDEST PUSH1 0x20 DUP9 ADD MLOAD SWAP1 SWAP7 POP PUSH3 0x40D DUP2 PUSH3 0x3BF JUMP JUMPDEST PUSH1 0x40 DUP9 ADD MLOAD PUSH1 0x60 DUP10 ADD MLOAD PUSH1 0x80 DUP11 ADD MLOAD PUSH1 0xA0 SWAP1 SWAP11 ADD MLOAD SWAP9 SWAP12 SWAP3 SWAP11 POP SWAP1 SWAP9 SWAP1 SWAP8 SWAP1 SWAP7 POP SWAP5 POP SWAP3 POP POP POP JUMP JUMPDEST DUP1 DUP3 ADD DUP1 DUP3 GT ISZERO PUSH3 0x456 JUMPI PUSH4 0x4E487B71 PUSH1 0xE0 SHL PUSH0 MSTORE PUSH1 0x11 PUSH1 0x4 MSTORE PUSH1 0x24 PUSH0 REVERT JUMPDEST SWAP3 SWAP2 POP POP JUMP JUMPDEST PUSH1 0x80 MLOAD PUSH1 0xA0 MLOAD PUSH1 0xC0 MLOAD PUSH1 0xE0 MLOAD PUSH2 0x100 MLOAD PUSH2 0x120 MLOAD PUSH2 0xB6B PUSH3 0x506 PUSH0 CODECOPY PUSH0 DUP2 DUP2 PUSH2 0x170 ADD MSTORE DUP2 DUP2 PUSH2 0x2A5 ADD MSTORE DUP2 DUP2 PUSH2 0x351 ADD MSTORE PUSH2 0x3CB ADD MSTORE PUSH0 DUP2 DUP2 PUSH2 0x149 ADD MSTORE DUP2 DUP2 PUSH2 0x304 ADD MSTORE PUSH2 0x3A6 ADD MSTORE PUSH0 DUP2 DUP2 PUSH2 0x10F ADD MSTORE DUP2 DUP2 PUSH2 0x2D2 ADD MSTORE PUSH2 0x37C ADD MSTORE PUSH0 DUP2 DUP2 PUSH2 0x232 ADD MSTORE PUSH2 0x325 ADD MSTORE PUSH0 DUP2 DUP2 PUSH2 0x274 ADD MSTORE DUP2 DUP2 PUSH2 0x533 ADD MSTORE DUP2 DUP2 PUSH2 0x60D ADD MSTORE PUSH2 0x690 ADD MSTORE PUSH0 DUP2 DUP2 PUSH2 0x1A5 ADD MSTORE DUP2 DUP2 PUSH2 0x414 ADD MSTORE DUP2 DUP2 PUSH2 0x555 ADD MSTORE PUSH2 0x57C ADD MSTORE PUSH2 0xB6B PUSH0 RETURN INVALID PUSH1 0x80 PUSH1 0x40 MSTORE CALLVALUE DUP1 ISZERO PUSH2 0xF JUMPI PUSH0 DUP1 REVERT JUMPDEST POP PUSH1 0x4 CALLDATASIZE LT PUSH2 0x106 JUMPI PUSH0 CALLDATALOAD PUSH1 0xE0 SHR DUP1 PUSH4 0x6F9FB98A GT PUSH2 0x9E JUMPI DUP1 PUSH4 0x96132521 GT PUSH2 0x6E JUMPI DUP1 PUSH4 0x96132521 EQ PUSH2 0x224 JUMPI DUP1 PUSH4 0xBE9A6555 EQ PUSH2 0x22D JUMPI DUP1 PUSH4 0xF2FDE38B EQ PUSH2 0x254 JUMPI DUP1 PUSH4 0xFBCCEDAE EQ PUSH2 0x267 JUMPI DUP1 PUSH4 0xFC0C546A EQ PUSH2 0x26F JUMPI PUSH0 DUP1 REVERT JUMPDEST DUP1 PUSH4 0x6F9FB98A EQ PUSH2 0x1F1 JUMPI DUP1 PUSH4 0x6FF1C9BC EQ PUSH2 0x1F9 JUMPI DUP1 PUSH4 0x715018A6 EQ PUSH2 0x20C JUMPI DUP1 PUSH4 0x8DA5CB5B EQ PUSH2 0x214 JUMPI PUSH0 DUP1 REVERT JUMPDEST DUP1 PUSH4 0x3317BBCC GT PUSH2 0xD9 JUMPI DUP1 PUSH4 0x3317BBCC EQ PUSH2 0x198 JUMPI DUP1 PUSH4 0x38AF3EED EQ PUSH2 0x1A0 JUMPI DUP1 PUSH4 0x44B1231F EQ PUSH2 0x1DF JUMPI DUP1 PUSH4 0x4E71D92D EQ PUSH2 0x1E7 JUMPI PUSH0 DUP1 REVERT JUMPDEST DUP1 PUSH4 0x13D033C0 EQ PUSH2 0x10A JUMPI DUP1 PUSH4 0x1514617E EQ PUSH2 0x144 JUMPI DUP1 PUSH4 0x1A39D8EF EQ PUSH2 0x16B JUMPI DUP1 PUSH4 0x29CB924D EQ PUSH2 0x192 JUMPI JUMPDEST PUSH0 DUP1 REVERT JUMPDEST PUSH2 0x131 PUSH32 0x0 DUP2 JUMP JUMPDEST PUSH1 0x40 MLOAD SWAP1 DUP2 MSTORE PUSH1 0x20 ADD JUMPDEST PUSH1 0x40 MLOAD DUP1 SWAP2 SUB SWAP1 RETURN JUMPDEST PUSH2 0x131 PUSH32 0x0 DUP2 JUMP JUMPDEST PUSH2 0x131 PUSH32 0x0 DUP2 JUMP JUMPDEST TIMESTAMP PUSH2 0x131 JUMP JUMPDEST PUSH2 0x131 PUSH2 0x296 JUMP JUMPDEST PUSH2 0x1C7 PUSH32 0x0 DUP2 JUMP JUMPDEST PUSH1 0x40 MLOAD PUSH1 0x1 PUSH1 0x1 PUSH1 0xA0 SHL SUB SWAP1 SWAP2 AND DUP2 MSTORE PUSH1 0x20 ADD PUSH2 0x13B JUMP JUMPDEST PUSH2 0x131 PUSH2 0x2CE JUMP JUMPDEST PUSH2 0x1EF PUSH2 0x401 JUMP JUMPDEST STOP JUMPDEST PUSH2 0x131 PUSH2 0x5F6 JUMP JUMPDEST PUSH2 0x1EF PUSH2 0x207 CALLDATASIZE PUSH1 0x4 PUSH2 0xA66 JUMP JUMPDEST PUSH2 0x67E JUMP JUMPDEST PUSH2 0x1EF PUSH2 0x876 JUMP JUMPDEST PUSH0 SLOAD PUSH1 0x1 PUSH1 0x1 PUSH1 0xA0 SHL SUB AND PUSH2 0x1C7 JUMP JUMPDEST PUSH2 0x131 PUSH1 0x1 SLOAD DUP2 JUMP JUMPDEST PUSH2 0x131 PUSH32 0x0 DUP2 JUMP JUMPDEST PUSH2 0x1EF PUSH2 0x262 CALLDATASIZE PUSH1 0x4 PUSH2 0xA66 JUMP JUMPDEST PUSH2 0x887 JUMP JUMPDEST PUSH2 0x131 PUSH2 0x8C1 JUMP JUMPDEST PUSH2 0x1C7 PUSH32 0x0 DUP2 JUMP JUMPDEST PUSH0 PUSH2 0x29F PUSH2 0x2CE JUMP JUMPDEST PUSH2 0x2C9 SWAP1 PUSH32 0x0 PUSH2 0xA9C JUMP JUMPDEST SWAP1 POP SWAP1 JUMP JUMPDEST PUSH0 TIMESTAMP PUSH32 0x0 DUP2 LT ISZERO PUSH2 0x2FF JUMPI PUSH0 SWAP2 POP POP SWAP1 JUMP JUMPDEST PUSH2 0x349 PUSH32 0x0 PUSH32 0x0 PUSH2 0xAB5 JUMP JUMPDEST DUP2 LT PUSH2 0x376 JUMPI PUSH32 0x0 SWAP2 POP POP SWAP1 JUMP JUMPDEST PUSH0 PUSH2 0x3A1 PUSH32 0x0 DUP4 PUSH2 0xA9C JUMP JUMPDEST SWAP1 POP PUSH0 PUSH32 0x0 PUSH2 0x3EF DUP4 PUSH32 0x0 PUSH2 0xAC8 JUMP JUMPDEST PUSH2 0x3F9 SWAP2 SWAP1 PUSH2 0xADF JUMP JUMPDEST SWAP5 SWAP4 POP POP POP POP JUMP JUMPDEST PUSH2 0x409 PUSH2 0x8F1 JUMP JUMPDEST CALLER PUSH1 0x1 PUSH1 0x1 PUSH1 0xA0 SHL SUB PUSH32 0x0 AND EQ PUSH2 0x49E JUMPI PUSH1 0x40 MLOAD PUSH3 0x461BCD PUSH1 0xE5 SHL DUP2 MSTORE PUSH1 0x20 PUSH1 0x4 DUP3 ADD MSTORE PUSH1 0x2F PUSH1 0x24 DUP3 ADD MSTORE PUSH32 0x50616E6A6F436F696E56657374696E673A2063616C6C6572206973206E6F7420 PUSH1 0x44 DUP3 ADD MSTORE PUSH15 0x7468652062656E6566696369617279 PUSH1 0x88 SHL PUSH1 0x64 DUP3 ADD MSTORE PUSH1 0x84 ADD JUMPDEST PUSH1 0x40 MLOAD DUP1 SWAP2 SUB SWAP1 REVERT JUMPDEST PUSH0 PUSH2 0x4A7 PUSH2 0x8C1 JUMP JUMPDEST SWAP1 POP PUSH0 DUP2 GT PUSH2 0x50F JUMPI PUSH1 0x40 MLOAD PUSH3 0x461BCD PUSH1 0xE5 SHL DUP2 MSTORE PUSH1 0x20 PUSH1 0x4 DUP3 ADD MSTORE PUSH1 0x2E PUSH1 0x24 DUP3 ADD MSTORE PUSH32 0x50616E6A6F436F696E56657374696E673A206E6F20746F6B656E732061766169 PUSH1 0x44 DUP3 ADD MSTORE PUSH14 0x6C61626C6520746F20636C61696D PUSH1 0x90 SHL PUSH1 0x64 DUP3 ADD MSTORE PUSH1 0x84 ADD PUSH2 0x495 JUMP JUMPDEST DUP1 PUSH1 0x1 PUSH0 DUP3 DUP3 SLOAD PUSH2 0x520 SWAP2 SWAP1 PUSH2 0xAB5 JUMP JUMPDEST SWAP1 SWAP2 SSTORE POP PUSH2 0x57A SWAP1 POP PUSH1 0x1 PUSH1 0x1 PUSH1 0xA0 SHL SUB PUSH32 0x0 AND PUSH32 0x0 DUP4 PUSH2 0x90C JUMP JUMPDEST PUSH32 0x0 PUSH1 0x1 PUSH1 0x1 PUSH1 0xA0 SHL SUB AND PUSH32 0xC7798891864187665AC6DD119286E44EC13F014527AEEB2B8EB3FD413DF93179 DUP3 PUSH1 0x40 MLOAD PUSH2 0x5D5 SWAP2 DUP2 MSTORE PUSH1 0x20 ADD SWAP1 JUMP JUMPDEST PUSH1 0x40 MLOAD DUP1 SWAP2 SUB SWAP1 LOG2 POP PUSH2 0x5F4 PUSH1 0x1 PUSH0 DUP1 MLOAD PUSH1 0x20 PUSH2 0xB16 DUP4 CODECOPY DUP2 MLOAD SWAP2 MSTORE SSTORE JUMP JUMPDEST JUMP JUMPDEST PUSH1 0x40 MLOAD PUSH4 0x70A08231 PUSH1 0xE0 SHL DUP2 MSTORE ADDRESS PUSH1 0x4 DUP3 ADD MSTORE PUSH0 SWAP1 PUSH32 0x0 PUSH1 0x1 PUSH1 0x1 PUSH1 0xA0 SHL SUB AND SWAP1 PUSH4 0x70A08231 SWAP1 PUSH1 0x24 ADD PUSH1 0x20 PUSH1 0x40 MLOAD DUP1 DUP4 SUB DUP2 DUP7 GAS STATICCALL ISZERO DUP1 ISZERO PUSH2 0x65A JUMPI RETURNDATASIZE PUSH0 DUP1 RETURNDATACOPY RETURNDATASIZE PUSH0 REVERT JUMPDEST POP POP POP POP PUSH1 0x40 MLOAD RETURNDATASIZE PUSH1 0x1F NOT PUSH1 0x1F DUP3 ADD AND DUP3 ADD DUP1 PUSH1 0x40 MSTORE POP DUP2 ADD SWAP1 PUSH2 0x2C9 SWAP2 SWAP1 PUSH2 0xAFE JUMP JUMPDEST PUSH2 0x686 PUSH2 0x946 JUMP JUMPDEST PUSH2 0x68E PUSH2 0x8F1 JUMP JUMPDEST PUSH32 0x0 PUSH1 0x1 PUSH1 0x1 PUSH1 0xA0 SHL SUB AND DUP2 PUSH1 0x1 PUSH1 0x1 PUSH1 0xA0 SHL SUB AND SUB PUSH2 0x72A JUMPI PUSH1 0x40 MLOAD PUSH3 0x461BCD PUSH1 0xE5 SHL DUP2 MSTORE PUSH1 0x20 PUSH1 0x4 DUP3 ADD MSTORE PUSH1 0x32 PUSH1 0x24 DUP3 ADD MSTORE PUSH32 0x50616E6A6F436F696E56657374696E673A2063616E6E6F742077697468647261 PUSH1 0x44 DUP3 ADD MSTORE PUSH18 0x3B903A3432903B32B9BA32B2103A37B5B2B7 PUSH1 0x71 SHL PUSH1 0x64 DUP3 ADD MSTORE PUSH1 0x84 ADD PUSH2 0x495 JUMP JUMPDEST PUSH1 0x40 MLOAD PUSH4 0x70A08231 PUSH1 0xE0 SHL DUP2 MSTORE ADDRESS PUSH1 0x4 DUP3 ADD MSTORE PUSH0 SWAP1 PUSH1 0x1 PUSH1 0x1 PUSH1 0xA0 SHL SUB DUP4 AND SWAP1 PUSH4 0x70A08231 SWAP1 PUSH1 0x24 ADD PUSH1 0x20 PUSH1 0x40 MLOAD DUP1 DUP4 SUB DUP2 DUP7 GAS STATICCALL ISZERO DUP1 ISZERO PUSH2 0x76E JUMPI RETURNDATASIZE PUSH0 DUP1 RETURNDATACOPY RETURNDATASIZE PUSH0 REVERT JUMPDEST POP POP POP POP PUSH1 0x40 MLOAD RETURNDATASIZE PUSH1 0x1F NOT PUSH1 0x1F DUP3 ADD AND DUP3 ADD DUP1 PUSH1 0x40 MSTORE POP DUP2 ADD SWAP1 PUSH2 0x792 SWAP2 SWAP1 PUSH2 0xAFE JUMP JUMPDEST SWAP1 POP PUSH0 DUP2 GT PUSH2 0x7F4 JUMPI PUSH1 0x40 MLOAD PUSH3 0x461BCD PUSH1 0xE5 SHL DUP2 MSTORE PUSH1 0x20 PUSH1 0x4 DUP3 ADD MSTORE PUSH1 0x28 PUSH1 0x24 DUP3 ADD MSTORE PUSH32 0x50616E6A6F436F696E56657374696E673A206E6F2062616C616E636520746F20 PUSH1 0x44 DUP3 ADD MSTORE PUSH8 0x7769746864726177 PUSH1 0xC0 SHL PUSH1 0x64 DUP3 ADD MSTORE PUSH1 0x84 ADD PUSH2 0x495 JUMP JUMPDEST PUSH2 0x819 PUSH2 0x808 PUSH0 SLOAD PUSH1 0x1 PUSH1 0x1 PUSH1 0xA0 SHL SUB AND SWAP1 JUMP JUMPDEST PUSH1 0x1 PUSH1 0x1 PUSH1 0xA0 SHL SUB DUP5 AND SWAP1 DUP4 PUSH2 0x90C JUMP JUMPDEST DUP2 PUSH1 0x1 PUSH1 0x1 PUSH1 0xA0 SHL SUB AND PUSH32 0x2E39961A70A10F4D46383948095AC2752B3EE642A7C76AA827410AAFF08C2E51 DUP3 PUSH1 0x40 MLOAD PUSH2 0x854 SWAP2 DUP2 MSTORE PUSH1 0x20 ADD SWAP1 JUMP JUMPDEST PUSH1 0x40 MLOAD DUP1 SWAP2 SUB SWAP1 LOG2 POP PUSH2 0x873 PUSH1 0x1 PUSH0 DUP1 MLOAD PUSH1 0x20 PUSH2 0xB16 DUP4 CODECOPY DUP2 MLOAD SWAP2 MSTORE SSTORE JUMP JUMPDEST POP JUMP JUMPDEST PUSH2 0x87E PUSH2 0x946 JUMP JUMPDEST PUSH2 0x5F4 PUSH0 PUSH2 0x972 JUMP JUMPDEST PUSH2 0x88F PUSH2 0x946 JUMP JUMPDEST PUSH1 0x1 PUSH1 0x1 PUSH1 0xA0 SHL SUB DUP2 AND PUSH2 0x8B8 JUMPI PUSH1 0x40 MLOAD PUSH4 0x1E4FBDF7 PUSH1 0xE0 SHL DUP2 MSTORE PUSH0 PUSH1 0x4 DUP3 ADD MSTORE PUSH1 0x24 ADD PUSH2 0x495 JUMP JUMPDEST PUSH2 0x873 DUP2 PUSH2 0x972 JUMP JUMPDEST PUSH0 DUP1 PUSH2 0x8CB PUSH2 0x2CE JUMP JUMPDEST PUSH1 0x1 SLOAD SWAP1 SWAP2 POP DUP1 DUP3 GT PUSH2 0x8E0 JUMPI PUSH0 SWAP3 POP POP POP SWAP1 JUMP JUMPDEST PUSH2 0x8EA DUP2 DUP4 PUSH2 0xA9C JUMP JUMPDEST SWAP3 POP POP POP SWAP1 JUMP JUMPDEST PUSH2 0x8F9 PUSH2 0x9C1 JUMP JUMPDEST PUSH1 0x2 PUSH0 DUP1 MLOAD PUSH1 0x20 PUSH2 0xB16 DUP4 CODECOPY DUP2 MLOAD SWAP2 MSTORE SSTORE JUMP JUMPDEST PUSH2 0x919 DUP4 DUP4 DUP4 PUSH1 0x1 PUSH2 0x9F0 JUMP JUMPDEST PUSH2 0x941 JUMPI PUSH1 0x40 MLOAD PUSH4 0x5274AFE7 PUSH1 0xE0 SHL DUP2 MSTORE PUSH1 0x1 PUSH1 0x1 PUSH1 0xA0 SHL SUB DUP5 AND PUSH1 0x4 DUP3 ADD MSTORE PUSH1 0x24 ADD PUSH2 0x495 JUMP JUMPDEST POP POP POP JUMP JUMPDEST PUSH0 SLOAD PUSH1 0x1 PUSH1 0x1 PUSH1 0xA0 SHL SUB AND CALLER EQ PUSH2 0x5F4 JUMPI PUSH1 0x40 MLOAD PUSH4 0x118CDAA7 PUSH1 0xE0 SHL DUP2 MSTORE CALLER PUSH1 0x4 DUP3 ADD MSTORE PUSH1 0x24 ADD PUSH2 0x495 JUMP JUMPDEST PUSH0 DUP1 SLOAD PUSH1 0x1 PUSH1 0x1 PUSH1 0xA0 SHL SUB DUP4 DUP2 AND PUSH1 0x1 PUSH1 0x1 PUSH1 0xA0 SHL SUB NOT DUP4 AND DUP2 OR DUP5 SSTORE PUSH1 0x40 MLOAD SWAP2 SWAP1 SWAP3 AND SWAP3 DUP4 SWAP2 PUSH32 0x8BE0079C531659141344CD1FD0A4F28419497F9722A3DAAFE3B4186F6B6457E0 SWAP2 SWAP1 LOG3 POP POP JUMP JUMPDEST PUSH0 DUP1 MLOAD PUSH1 0x20 PUSH2 0xB16 DUP4 CODECOPY DUP2 MLOAD SWAP2 MSTORE SLOAD PUSH1 0x2 SUB PUSH2 0x5F4 JUMPI PUSH1 0x40 MLOAD PUSH4 0x3EE5AEB5 PUSH1 0xE0 SHL DUP2 MSTORE PUSH1 0x4 ADD PUSH1 0x40 MLOAD DUP1 SWAP2 SUB SWAP1 REVERT JUMPDEST PUSH1 0x40 MLOAD PUSH4 0xA9059CBB PUSH1 0xE0 SHL PUSH0 DUP2 DUP2 MSTORE PUSH1 0x1 PUSH1 0x1 PUSH1 0xA0 SHL SUB DUP7 AND PUSH1 0x4 MSTORE PUSH1 0x24 DUP6 SWAP1 MSTORE SWAP2 PUSH1 0x20 DUP4 PUSH1 0x44 DUP2 DUP1 DUP12 GAS CALL SWAP3 POP PUSH1 0x1 PUSH0 MLOAD EQ DUP4 AND PUSH2 0xA46 JUMPI DUP4 DUP4 ISZERO AND ISZERO PUSH2 0xA3A JUMPI RETURNDATASIZE PUSH0 DUP3 RETURNDATACOPY RETURNDATASIZE DUP2 REVERT JUMPDEST PUSH0 DUP8 EXTCODESIZE GT RETURNDATASIZE ISZERO AND DUP4 AND SWAP3 POP JUMPDEST PUSH1 0x40 MSTORE POP SWAP5 SWAP4 POP POP POP POP JUMP JUMPDEST PUSH1 0x1 PUSH1 0x1 PUSH1 0xA0 SHL SUB DUP2 AND DUP2 EQ PUSH2 0x873 JUMPI PUSH0 DUP1 REVERT JUMPDEST PUSH0 PUSH1 0x20 DUP3 DUP5 SUB SLT ISZERO PUSH2 0xA76 JUMPI PUSH0 DUP1 REVERT JUMPDEST DUP2 CALLDATALOAD PUSH2 0xA81 DUP2 PUSH2 0xA52 JUMP JUMPDEST SWAP4 SWAP3 POP POP POP JUMP JUMPDEST PUSH4 0x4E487B71 PUSH1 0xE0 SHL PUSH0 MSTORE PUSH1 0x11 PUSH1 0x4 MSTORE PUSH1 0x24 PUSH0 REVERT JUMPDEST DUP2 DUP2 SUB DUP2 DUP2 GT ISZERO PUSH2 0xAAF JUMPI PUSH2 0xAAF PUSH2 0xA88 JUMP JUMPDEST SWAP3 SWAP2 POP POP JUMP JUMPDEST DUP1 DUP3 ADD DUP1 DUP3 GT ISZERO PUSH2 0xAAF JUMPI PUSH2 0xAAF PUSH2 0xA88 JUMP JUMPDEST DUP1 DUP3 MUL DUP2 ISZERO DUP3 DUP3 DIV DUP5 EQ OR PUSH2 0xAAF JUMPI PUSH2 0xAAF PUSH2 0xA88 JUMP JUMPDEST PUSH0 DUP3 PUSH2 0xAF9 JUMPI PUSH4 0x4E487B71 PUSH1 0xE0 SHL PUSH0 MSTORE PUSH1 0x12 PUSH1 0x4 MSTORE PUSH1 0x24 PUSH0 REVERT JUMPDEST POP DIV SWAP1 JUMP JUMPDEST PUSH0 PUSH1 0x20 DUP3 DUP5 SUB SLT ISZERO PUSH2 0xB0E JUMPI PUSH0 DUP1 REVERT JUMPDEST POP MLOAD SWAP2 SWAP1 POP JUMP INVALID SWAP12 PUSH24 0x9B17422D0DF92223018B32B4D1FA46E071723D6817E2486D STOP EXTCODESIZE 0xEC 0xC5 PUSH0 STOP LOG2 PUSH5 0x6970667358 0x22 SLT KECCAK256 0xBD SAR 0xC8 PUSH3 0x5CFEA1 CODECOPY PUSH19 0x5438028C8B5A210771EAFD295DBC42F4103110 PUSH5 0x2888266473 PUSH16 0x6C634300081800330000000000000000 "
		},
		"gasEstimates": {
			"creation": {
				"codeDepositCost": "584600",
				"executionCost": "infinite",
				"totalCost": "infinite"
			},
			"external": {
				"beneficiary()": "infinite",
				"claim()": "infinite",
				"cliff()": "infinite",
				"emergencyWithdraw(address)": "infinite",
				"getContractBalance()": "infinite",
				"getCurrentTime()": "269",
				"getLockedTokens()": "infinite",
				"owner()": "2418",
				"releasable()": "infinite",
				"released()": "2305",
				"renounceOwnership()": "infinite",
				"start()": "infinite",
				"token()": "infinite",
				"totalAmount()": "infinite",
				"transferOwnership(address)": "infinite",
				"vestedAmount()": "infinite",
				"vestingDuration()": "infinite"
			}
		},
		"methodIdentifiers": {
			"beneficiary()": "38af3eed",
			"claim()": "4e71d92d",
			"cliff()": "13d033c0",
			"emergencyWithdraw(address)": "6ff1c9bc",
			"getContractBalance()": "6f9fb98a",
			"getCurrentTime()": "29cb924d",
			"getLockedTokens()": "3317bbcc",
			"owner()": "8da5cb5b",
			"releasable()": "fbccedae",
			"released()": "96132521",
			"renounceOwnership()": "715018a6",
			"start()": "be9a6555",
			"token()": "fc0c546a",
			"totalAmount()": "1a39d8ef",
			"transferOwnership(address)": "f2fde38b",
			"vestedAmount()": "44b1231f",
			"vestingDuration()": "1514617e"
		}
	},
	"abi": [
		{
			"inputs": [
				{
					"internalType": "address",
					"name": "_beneficiary",
					"type": "address"
				},
				{
					"internalType": "contract IERC20",
					"name": "_token",
					"type": "address"
				},
				{
					"internalType": "uint256",
					"name": "_totalAmount",
					"type": "uint256"
				},
				{
					"internalType": "uint256",
					"name": "_start",
					"type": "uint256"
				},
				{
					"internalType": "uint256",
					"name": "_cliffDuration",
					"type": "uint256"
				},
				{
					"internalType": "uint256",
					"name": "_vestingDuration",
					"type": "uint256"
				}
			],
			"stateMutability": "nonpayable",
			"type": "constructor"
		},
		{
			"inputs": [
				{
					"internalType": "address",
					"name": "owner",
					"type": "address"
				}
			],
			"name": "OwnableInvalidOwner",
			"type": "error"
		},
		{
			"inputs": [
				{
					"internalType": "address",
					"name": "account",
					"type": "address"
				}
			],
			"name": "OwnableUnauthorizedAccount",
			"type": "error"
		},
		{
			"inputs": [],
			"name": "ReentrancyGuardReentrantCall",
			"type": "error"
		},
		{
			"inputs": [
				{
					"internalType": "address",
					"name": "token",
					"type": "address"
				}
			],
			"name": "SafeERC20FailedOperation",
			"type": "error"
		},
		{
			"anonymous": false,
			"inputs": [
				{
					"indexed": true,
					"internalType": "address",
					"name": "token",
					"type": "address"
				},
				{
					"indexed": false,
					"internalType": "uint256",
					"name": "amount",
					"type": "uint256"
				}
			],
			"name": "EmergencyWithdrawn",
			"type": "event"
		},
		{
			"anonymous": false,
			"inputs": [
				{
					"indexed": true,
					"internalType": "address",
					"name": "previousOwner",
					"type": "address"
				},
				{
					"indexed": true,
					"internalType": "address",
					"name": "newOwner",
					"type": "address"
				}
			],
			"name": "OwnershipTransferred",
			"type": "event"
		},
		{
			"anonymous": false,
			"inputs": [
				{
					"indexed": true,
					"internalType": "address",
					"name": "beneficiary",
					"type": "address"
				},
				{
					"indexed": false,
					"internalType": "uint256",
					"name": "amount",
					"type": "uint256"
				}
			],
			"name": "TokensReleased",
			"type": "event"
		},
		{
			"inputs": [],
			"name": "beneficiary",
			"outputs": [
				{
					"internalType": "address",
					"name": "",
					"type": "address"
				}
			],
			"stateMutability": "view",
			"type": "function"
		},
		{
			"inputs": [],
			"name": "claim",
			"outputs": [],
			"stateMutability": "nonpayable",
			"type": "function"
		},
		{
			"inputs": [],
			"name": "cliff",
			"outputs": [
				{
					"internalType": "uint256",
					"name": "",
					"type": "uint256"
				}
			],
			"stateMutability": "view",
			"type": "function"
		},
		{
			"inputs": [
				{
					"internalType": "contract IERC20",
					"name": "_otherToken",
					"type": "address"
				}
			],
			"name": "emergencyWithdraw",
			"outputs": [],
			"stateMutability": "nonpayable",
			"type": "function"
		},
		{
			"inputs": [],
			"name": "getContractBalance",
			"outputs": [
				{
					"internalType": "uint256",
					"name": "",
					"type": "uint256"
				}
			],
			"stateMutability": "view",
			"type": "function"
		},
		{
			"inputs": [],
			"name": "getCurrentTime",
			"outputs": [
				{
					"internalType": "uint256",
					"name": "",
					"type": "uint256"
				}
			],
			"stateMutability": "view",
			"type": "function"
		},
		{
			"inputs": [],
			"name": "getLockedTokens",
			"outputs": [
				{
					"internalType": "uint256",
					"name": "",
					"type": "uint256"
				}
			],
			"stateMutability": "view",
			"type": "function"
		},
		{
			"inputs": [],
			"name": "owner",
			"outputs": [
				{
					"internalType": "address",
					"name": "",
					"type": "address"
				}
			],
			"stateMutability": "view",
			"type": "function"
		},
		{
			"inputs": [],
			"name": "releasable",
			"outputs": [
				{
					"internalType": "uint256",
					"name": "",
					"type": "uint256"
				}
			],
			"stateMutability": "view",
			"type": "function"
		},
		{
			"inputs": [],
			"name": "released",
			"outputs": [
				{
					"internalType": "uint256",
					"name": "",
					"type": "uint256"
				}
			],
			"stateMutability": "view",
			"type": "function"
		},
		{
			"inputs": [],
			"name": "renounceOwnership",
			"outputs": [],
			"stateMutability": "nonpayable",
			"type": "function"
		},
		{
			"inputs": [],
			"name": "start",
			"outputs": [
				{
					"internalType": "uint256",
					"name": "",
					"type": "uint256"
				}
			],
			"stateMutability": "view",
			"type": "function"
		},
		{
			"inputs": [],
			"name": "token",
			"outputs": [
				{
					"internalType": "contract IERC20",
					"name": "",
					"type": "address"
				}
			],
			"stateMutability": "view",
			"type": "function"
		},
		{
			"inputs": [],
			"name": "totalAmount",
			"outputs": [
				{
					"internalType": "uint256",
					"name": "",
					"type": "uint256"
				}
			],
			"stateMutability": "view",
			"type": "function"
		},
		{
			"inputs": [
				{
					"internalType": "address",
					"name": "newOwner",
					"type": "address"
				}
			],
			"name": "transferOwnership",
			"outputs": [],
			"stateMutability": "nonpayable",
			"type": "function"
		},
		{
			"inputs": [],
			"name": "vestedAmount",
			"outputs": [
				{
					"internalType": "uint256",
					"name": "",
					"type": "uint256"
				}
			],
			"stateMutability": "view",
			"type": "function"
		},
		{
			"inputs": [],
			"name": "vestingDuration",
			"outputs": [
				{
					"internalType": "uint256",
					"name": "",
					"type": "uint256"
				}
			],
			"stateMutability": "view",
			"type": "function"
		}
	]
}